{
  "contractName": "PostApplicationReader",
  "abi": [
    {
      "constant": true,
      "inputs": [
        {
          "name": "patientId",
          "type": "address"
        },
        {
          "name": "offset",
          "type": "uint256"
        },
        {
          "name": "limit",
          "type": "uint256"
        },
        {
          "name": "seed",
          "type": "uint256"
        }
      ],
      "name": "fetchCasesForPatient",
      "outputs": [
        {
          "name": "",
          "type": "uint256"
        },
        {
          "name": "",
          "type": "uint256[]"
        }
      ],
      "payable": false,
      "stateMutability": "view",
      "type": "function"
    },
    {
      "constant": true,
      "inputs": [],
      "name": "smartContractStatus",
      "outputs": [
        {
          "name": "",
          "type": "uint8"
        }
      ],
      "payable": false,
      "stateMutability": "view",
      "type": "function"
    },
    {
      "constant": true,
      "inputs": [
        {
          "name": "dentistId",
          "type": "address"
        },
        {
          "name": "offset",
          "type": "uint256"
        },
        {
          "name": "limit",
          "type": "uint256"
        },
        {
          "name": "seed",
          "type": "uint256"
        }
      ],
      "name": "fetchTreatmentsForDentist",
      "outputs": [
        {
          "name": "",
          "type": "uint256"
        },
        {
          "name": "",
          "type": "uint256[]"
        }
      ],
      "payable": false,
      "stateMutability": "view",
      "type": "function"
    },
    {
      "constant": true,
      "inputs": [
        {
          "name": "dentistId",
          "type": "address"
        },
        {
          "name": "offset",
          "type": "uint256"
        },
        {
          "name": "limit",
          "type": "uint256"
        },
        {
          "name": "seed",
          "type": "uint256"
        }
      ],
      "name": "fetchCasesForDentist",
      "outputs": [
        {
          "name": "",
          "type": "uint256"
        },
        {
          "name": "",
          "type": "uint256[]"
        }
      ],
      "payable": false,
      "stateMutability": "view",
      "type": "function"
    },
    {
      "constant": true,
      "inputs": [
        {
          "name": "patientId",
          "type": "address"
        },
        {
          "name": "offset",
          "type": "uint256"
        },
        {
          "name": "limit",
          "type": "uint256"
        },
        {
          "name": "seed",
          "type": "uint256"
        }
      ],
      "name": "fetchTreatmentsForPatient",
      "outputs": [
        {
          "name": "",
          "type": "uint256"
        },
        {
          "name": "",
          "type": "uint256[]"
        }
      ],
      "payable": false,
      "stateMutability": "view",
      "type": "function"
    },
    {
      "constant": true,
      "inputs": [],
      "name": "owner",
      "outputs": [
        {
          "name": "",
          "type": "address"
        }
      ],
      "payable": false,
      "stateMutability": "view",
      "type": "function"
    },
    {
      "constant": true,
      "inputs": [],
      "name": "dbAddress",
      "outputs": [
        {
          "name": "",
          "type": "address"
        }
      ],
      "payable": false,
      "stateMutability": "view",
      "type": "function"
    },
    {
      "constant": false,
      "inputs": [
        {
          "name": "newOwner",
          "type": "address"
        }
      ],
      "name": "transferOwnership",
      "outputs": [],
      "payable": false,
      "stateMutability": "nonpayable",
      "type": "function"
    },
    {
      "inputs": [
        {
          "name": "_dbAddress",
          "type": "address"
        }
      ],
      "payable": false,
      "stateMutability": "nonpayable",
      "type": "constructor"
    },
    {
      "anonymous": false,
      "inputs": [
        {
          "indexed": false,
          "name": "status",
          "type": "uint8"
        }
      ],
      "name": "OnSmartContractStatusSet",
      "type": "event"
    },
    {
      "anonymous": false,
      "inputs": [
        {
          "indexed": true,
          "name": "previousOwner",
          "type": "address"
        },
        {
          "indexed": true,
          "name": "newOwner",
          "type": "address"
        }
      ],
      "name": "OwnershipTransferred",
      "type": "event"
    }
  ],
  "bytecode": "0x6060604052341561000f57600080fd5b60405160208061109683398101604052808051906020019091905050336000806101000a81548173ffffffffffffffffffffffffffffffffffffffff021916908373ffffffffffffffffffffffffffffffffffffffff16021790555060008173ffffffffffffffffffffffffffffffffffffffff161415151561009157600080fd5b80600160006101000a81548173ffffffffffffffffffffffffffffffffffffffff021916908373ffffffffffffffffffffffffffffffffffffffff16021790555050610fb4806100e26000396000f30060606040526004361061008d576000357c0100000000000000000000000000000000000000000000000000000000900463ffffffff168062068706146100925780634c8ddddc1461014257806358d64f02146101715780637009dc2d1461022157806387f2a84d146102d15780638da5cb5b1461038157806391e06b6d146103d6578063f2fde38b1461042b575b600080fd5b341561009d57600080fd5b6100e4600480803573ffffffffffffffffffffffffffffffffffffffff16906020019091908035906020019091908035906020019091908035906020019091905050610464565b6040518083815260200180602001828103825283818151815260200191508051906020019060200280838360005b8381101561012d578082015181840152602081019050610112565b50505050905001935050505060405180910390f35b341561014d57600080fd5b6101556104aa565b604051808260ff1660ff16815260200191505060405180910390f35b341561017c57600080fd5b6101c3600480803573ffffffffffffffffffffffffffffffffffffffff169060200190919080359060200190919080359060200190919080359060200190919050506104bd565b6040518083815260200180602001828103825283818151815260200191508051906020019060200280838360005b8381101561020c5780820151818401526020810190506101f1565b50505050905001935050505060405180910390f35b341561022c57600080fd5b610273600480803573ffffffffffffffffffffffffffffffffffffffff16906020019091908035906020019091908035906020019091908035906020019091905050610503565b6040518083815260200180602001828103825283818151815260200191508051906020019060200280838360005b838110156102bc5780820151818401526020810190506102a1565b50505050905001935050505060405180910390f35b34156102dc57600080fd5b610323600480803573ffffffffffffffffffffffffffffffffffffffff16906020019091908035906020019091908035906020019091908035906020019091905050610549565b6040518083815260200180602001828103825283818151815260200191508051906020019060200280838360005b8381101561036c578082015181840152602081019050610351565b50505050905001935050505060405180910390f35b341561038c57600080fd5b61039461058f565b604051808273ffffffffffffffffffffffffffffffffffffffff1673ffffffffffffffffffffffffffffffffffffffff16815260200191505060405180910390f35b34156103e157600080fd5b6103e96105b4565b604051808273ffffffffffffffffffffffffffffffffffffffff1673ffffffffffffffffffffffffffffffffffffffff16815260200191505060405180910390f35b341561043657600080fd5b610462600480803573ffffffffffffffffffffffffffffffffffffffff169060200190919050506105da565b005b600061046e610f74565b61049d600160009054906101000a900473ffffffffffffffffffffffffffffffffffffffff168787878761072f565b9150915094509492505050565b600160149054906101000a900460ff1681565b60006104c7610f74565b6104f6600160009054906101000a900473ffffffffffffffffffffffffffffffffffffffff1687878787610763565b9150915094509492505050565b600061050d610f74565b61053c600160009054906101000a900473ffffffffffffffffffffffffffffffffffffffff1687878787610797565b9150915094509492505050565b6000610553610f74565b610582600160009054906101000a900473ffffffffffffffffffffffffffffffffffffffff16878787876107cb565b9150915094509492505050565b6000809054906101000a900473ffffffffffffffffffffffffffffffffffffffff1681565b600160009054906101000a900473ffffffffffffffffffffffffffffffffffffffff1681565b6000809054906101000a900473ffffffffffffffffffffffffffffffffffffffff1673ffffffffffffffffffffffffffffffffffffffff163373ffffffffffffffffffffffffffffffffffffffff1614151561063557600080fd5b600073ffffffffffffffffffffffffffffffffffffffff168173ffffffffffffffffffffffffffffffffffffffff161415151561067157600080fd5b8073ffffffffffffffffffffffffffffffffffffffff166000809054906101000a900473ffffffffffffffffffffffffffffffffffffffff1673ffffffffffffffffffffffffffffffffffffffff167f8be0079c531659141344cd1fd0a4f28419497f9722a3daafe3b4186f6b6457e060405160405180910390a3806000806101000a81548173ffffffffffffffffffffffffffffffffffffffff021916908373ffffffffffffffffffffffffffffffffffffffff16021790555050565b6000610739610f74565b61074387876107ff565b905061075181868686610885565b80925081935050509550959350505050565b600061076d610f74565b61077787876108f5565b905061078581868686610885565b80925081935050509550959350505050565b60006107a1610f74565b6107ab878761097b565b90506107b981868686610885565b80925081935050509550959350505050565b60006107d5610f74565b6107df8787610a01565b90506107ed81868686610885565b80925081935050509550959350505050565b610807610f74565b61087d83836040805190810160405280600c81526020017f70617469656e742f6361736500000000000000000000000000000000000000008152506040805190810160405280601381526020017f70617469656e742f63617365732d636f756e7400000000000000000000000000815250610a87565b905092915050565b600061088f610f74565b855191506000865111156108eb5785518511156108bb57816108b2600088610c4a565b915091506108ec565b855184860111156108cd578486510393505b6108e88687518786018115156108df57fe5b06866001610cdf565b90505b5b94509492505050565b6108fd610f74565b61097383836040805190810160405280601181526020017f64656e746973742f74726561746d656e740000000000000000000000000000008152506040805190810160405280601881526020017f64656e746973742f74726561746d656e74732d636f756e740000000000000000815250610a87565b905092915050565b610983610f74565b6109f983836040805190810160405280600c81526020017f64656e746973742f6361736500000000000000000000000000000000000000008152506040805190810160405280601381526020017f64656e746973742f63617365732d636f756e7400000000000000000000000000815250610a87565b905092915050565b610a09610f74565b610a7f83836040805190810160405280601181526020017f70617469656e742f74726561746d656e740000000000000000000000000000008152506040805190810160405280601881526020017f70617469656e742f74726561746d656e74732d636f756e740000000000000000815250610a87565b905092915050565b610a8f610f74565b600080610a9d878786610e2a565b915081604051805910610aad5750595b90808252806020026020018201604052509250600090505b81811015610c3d578673ffffffffffffffffffffffffffffffffffffffff1663bdc963d88688846040518084805190602001908083835b602083101515610b215780518252602082019150602081019050602083039250610afc565b6001836020036101000a0380198251168184511680821785525050505050509050018373ffffffffffffffffffffffffffffffffffffffff1673ffffffffffffffffffffffffffffffffffffffff166c01000000000000000000000000028152601401828152602001935050505060405180910390206000604051602001526040518263ffffffff167c0100000000000000000000000000000000000000000000000000000000028152600401808260001916600019168152602001915050602060405180830381600087803b1515610bf957600080fd5b6102c65a03f11515610c0a57600080fd5b505050604051805190508382815181101515610c2257fe5b90602001906020020181815250508080600101915050610ac5565b8292505050949350505050565b610c52610f74565b60008251841115610c6557829150610cd8565b83604051805910610c735750595b90808252806020026020018201604052509150600090505b83811015610cd4578281815181101515610ca157fe5b906020019060200201518282815181101515610cb957fe5b90602001906020020181815250508080600101915050610c8b565b8191505b5092915050565b610ce7610f74565b60008060008060009350885192508288101580610d045750600087145b15610d1157849450610e1e565b86604051805910610d1f5750595b908082528060200260200182016040525094508791505b868801821015610d965781831415610d4d57610d96565b8882815181101515610d5b57fe5b906020019060200201518585815181101515610d7357fe5b906020019060200201818152505083806001019450508180600101925050610d36565b858015610da257508684105b15610e11578387039050600091505b8082111515610e105783871415610dc757610e10565b8882815181101515610dd557fe5b906020019060200201518585815181101515610ded57fe5b906020019060200201818152505083806001019450508180600101925050610db1565b5b610e1b8486610c4a565b94505b50505050949350505050565b60008373ffffffffffffffffffffffffffffffffffffffff1663bdc963d883856040518083805190602001908083835b602083101515610e7f5780518252602082019150602081019050602083039250610e5a565b6001836020036101000a0380198251168184511680821785525050505050509050018273ffffffffffffffffffffffffffffffffffffffff1673ffffffffffffffffffffffffffffffffffffffff166c010000000000000000000000000281526014019250505060405180910390206000604051602001526040518263ffffffff167c0100000000000000000000000000000000000000000000000000000000028152600401808260001916600019168152602001915050602060405180830381600087803b1515610f5057600080fd5b6102c65a03f11515610f6157600080fd5b5050506040518051905090509392505050565b6020604051908101604052806000815250905600a165627a7a723058206e44d6b3292ee939573cc88951da5b9c4d902ab44c6b7fc9ca24d284ca10bc320029",
  "source": "pragma solidity 0.4.18;\n\nimport \"./Restrictor.sol\";\nimport \"../lib/odll/userManager.sol\";\n\ncontract PostApplicationReader is Restrictor {\n\n  function PostApplicationReader (address _dbAddress) public {\n    require(_dbAddress != 0x0);\n    dbAddress = _dbAddress;\n  }\n\n  function fetchCasesForPatient (\n    address patientId,\n    uint offset, // starting from offset: 0-based\n    uint limit, // not more than limit\n    uint seed // seed value to give the illusion of randomisation\n  )\n    external\n    view\n    returns (\n      uint,\n      uint[]\n    )\n  {\n    return userManager.fetchCasesForPatient(dbAddress, patientId, offset, limit, seed);\n  }\n\n  function fetchCasesForDentist (\n    address dentistId,\n    uint offset, // starting from offset: 0-based\n    uint limit, // not more than limit\n    uint seed // seed value to give the illusion of randomisation\n  )\n    external\n    view\n    returns (\n      uint,\n      uint[]\n    )\n  {\n    return userManager.fetchCasesForDentist(dbAddress, dentistId, offset, limit, seed);\n  }\n\n  function fetchTreatmentsForPatient (\n    address patientId,\n    uint offset, // starting from offset: 0-based\n    uint limit, // not more than limit\n    uint seed // seed value to give the illusion of randomisation\n  )\n    external\n    view\n    returns (\n      uint,\n      uint[]\n    )\n  {\n    return userManager.fetchTreatmentsForPatient(dbAddress, patientId, offset, limit, seed);\n  }\n\n  function fetchTreatmentsForDentist (\n    address dentistId,\n    uint offset, // starting from offset: 0-based\n    uint limit, // not more than limit\n    uint seed // seed value to give the illusion of randomisation\n  )\n    external\n    view\n    returns (\n      uint,\n      uint[]\n    )\n  {\n    return userManager.fetchTreatmentsForDentist(dbAddress, dentistId, offset, limit, seed);\n  }\n}\n",
  "sourcePath": "/Users/danielokwufulueze/dev/vue/apps/oraldatalink/contracts/odll/PostApplicationReader.sol",
  "compiler": {
    "name": "solc",
    "version": "0.4.18+commit.9cf6e910.Emscripten.clang"
  },
  "schemaVersion": "1.0.1",
  "updatedAt": "2017-12-02T08:23:50.852Z"
}