{
  "contractName": "UserWriter",
  "abi": [
    {
      "constant": false,
      "inputs": [
        {
          "name": "dentistId",
          "type": "address"
        },
        {
          "name": "rating",
          "type": "uint8"
        }
      ],
      "name": "writeDentistRating",
      "outputs": [],
      "payable": false,
      "stateMutability": "nonpayable",
      "type": "function"
    },
    {
      "constant": false,
      "inputs": [
        {
          "name": "userId",
          "type": "address"
        },
        {
          "name": "odllDentistValue",
          "type": "bool"
        }
      ],
      "name": "setODLLDentist",
      "outputs": [],
      "payable": false,
      "stateMutability": "nonpayable",
      "type": "function"
    },
    {
      "constant": false,
      "inputs": [
        {
          "name": "phoneNumber",
          "type": "bytes32"
        },
        {
          "name": "socialSecurityNumber",
          "type": "bytes32"
        },
        {
          "name": "birthday",
          "type": "bytes32"
        },
        {
          "name": "gender",
          "type": "uint8"
        }
      ],
      "name": "writeUserOptionalValues",
      "outputs": [],
      "payable": false,
      "stateMutability": "nonpayable",
      "type": "function"
    },
    {
      "constant": false,
      "inputs": [
        {
          "name": "userId",
          "type": "address"
        }
      ],
      "name": "unblockUser",
      "outputs": [],
      "payable": false,
      "stateMutability": "nonpayable",
      "type": "function"
    },
    {
      "constant": false,
      "inputs": [
        {
          "name": "userId",
          "type": "address"
        }
      ],
      "name": "blockUser",
      "outputs": [],
      "payable": false,
      "stateMutability": "nonpayable",
      "type": "function"
    },
    {
      "constant": false,
      "inputs": [
        {
          "name": "userId",
          "type": "address"
        },
        {
          "name": "paymentId",
          "type": "uint256"
        }
      ],
      "name": "lockPayment",
      "outputs": [],
      "payable": false,
      "stateMutability": "nonpayable",
      "type": "function"
    },
    {
      "constant": true,
      "inputs": [],
      "name": "smartContractStatus",
      "outputs": [
        {
          "name": "",
          "type": "uint8"
        }
      ],
      "payable": false,
      "stateMutability": "view",
      "type": "function"
    },
    {
      "constant": false,
      "inputs": [
        {
          "name": "userType",
          "type": "uint8"
        }
      ],
      "name": "determineEvent",
      "outputs": [],
      "payable": false,
      "stateMutability": "nonpayable",
      "type": "function"
    },
    {
      "constant": false,
      "inputs": [
        {
          "name": "userType",
          "type": "uint8"
        },
        {
          "name": "name",
          "type": "string"
        },
        {
          "name": "email",
          "type": "string"
        },
        {
          "name": "gravatar",
          "type": "bytes32"
        },
        {
          "name": "street",
          "type": "bytes32"
        },
        {
          "name": "city",
          "type": "bytes32"
        },
        {
          "name": "stateId",
          "type": "uint256"
        },
        {
          "name": "zipCode",
          "type": "bytes32"
        },
        {
          "name": "countryId",
          "type": "uint256"
        },
        {
          "name": "phoneNumber",
          "type": "bytes32"
        },
        {
          "name": "socialSecurityNumber",
          "type": "bytes32"
        },
        {
          "name": "birthday",
          "type": "bytes32"
        },
        {
          "name": "gender",
          "type": "uint8"
        }
      ],
      "name": "writeUser",
      "outputs": [],
      "payable": false,
      "stateMutability": "nonpayable",
      "type": "function"
    },
    {
      "constant": true,
      "inputs": [],
      "name": "owner",
      "outputs": [
        {
          "name": "",
          "type": "address"
        }
      ],
      "payable": false,
      "stateMutability": "view",
      "type": "function"
    },
    {
      "constant": true,
      "inputs": [],
      "name": "dbAddress",
      "outputs": [
        {
          "name": "",
          "type": "address"
        }
      ],
      "payable": false,
      "stateMutability": "view",
      "type": "function"
    },
    {
      "constant": false,
      "inputs": [
        {
          "name": "userIds",
          "type": "address[]"
        },
        {
          "name": "odllDentistValue",
          "type": "bool"
        }
      ],
      "name": "setODLLDentists",
      "outputs": [],
      "payable": false,
      "stateMutability": "nonpayable",
      "type": "function"
    },
    {
      "constant": false,
      "inputs": [
        {
          "name": "callerAddress",
          "type": "address"
        },
        {
          "name": "newContractAddress",
          "type": "address"
        }
      ],
      "name": "destroySelf",
      "outputs": [],
      "payable": false,
      "stateMutability": "nonpayable",
      "type": "function"
    },
    {
      "constant": false,
      "inputs": [
        {
          "name": "officialId",
          "type": "address"
        },
        {
          "name": "userType",
          "type": "uint8"
        }
      ],
      "name": "addOfficialToODLL",
      "outputs": [],
      "payable": false,
      "stateMutability": "nonpayable",
      "type": "function"
    },
    {
      "constant": false,
      "inputs": [
        {
          "name": "userType",
          "type": "uint8"
        },
        {
          "name": "name",
          "type": "string"
        },
        {
          "name": "email",
          "type": "string"
        },
        {
          "name": "gravatar",
          "type": "bytes32"
        }
      ],
      "name": "writeUserIdentity",
      "outputs": [],
      "payable": false,
      "stateMutability": "nonpayable",
      "type": "function"
    },
    {
      "constant": false,
      "inputs": [
        {
          "name": "street",
          "type": "bytes32"
        },
        {
          "name": "city",
          "type": "bytes32"
        },
        {
          "name": "stateId",
          "type": "uint256"
        },
        {
          "name": "zipCode",
          "type": "bytes32"
        },
        {
          "name": "countryId",
          "type": "uint256"
        }
      ],
      "name": "writeUserLocation",
      "outputs": [],
      "payable": false,
      "stateMutability": "nonpayable",
      "type": "function"
    },
    {
      "constant": false,
      "inputs": [
        {
          "name": "companyName",
          "type": "string"
        }
      ],
      "name": "setDentistCompany",
      "outputs": [],
      "payable": false,
      "stateMutability": "nonpayable",
      "type": "function"
    },
    {
      "constant": false,
      "inputs": [
        {
          "name": "newOwner",
          "type": "address"
        }
      ],
      "name": "transferOwnership",
      "outputs": [],
      "payable": false,
      "stateMutability": "nonpayable",
      "type": "function"
    },
    {
      "inputs": [
        {
          "name": "_dbAddress",
          "type": "address"
        }
      ],
      "payable": false,
      "stateMutability": "nonpayable",
      "type": "constructor"
    },
    {
      "anonymous": false,
      "inputs": [
        {
          "indexed": false,
          "name": "userId",
          "type": "address"
        }
      ],
      "name": "OnAdminAdded",
      "type": "event"
    },
    {
      "anonymous": false,
      "inputs": [
        {
          "indexed": false,
          "name": "userId",
          "type": "address"
        }
      ],
      "name": "OnDentistCompanySet",
      "type": "event"
    },
    {
      "anonymous": false,
      "inputs": [
        {
          "indexed": false,
          "name": "userId",
          "type": "address"
        }
      ],
      "name": "OnManagerAdded",
      "type": "event"
    },
    {
      "anonymous": false,
      "inputs": [
        {
          "indexed": false,
          "name": "userId",
          "type": "address"
        }
      ],
      "name": "OnPatientAdded",
      "type": "event"
    },
    {
      "anonymous": false,
      "inputs": [
        {
          "indexed": false,
          "name": "paymentId",
          "type": "uint256"
        }
      ],
      "name": "PaymentLocked",
      "type": "event"
    },
    {
      "anonymous": false,
      "inputs": [
        {
          "indexed": false,
          "name": "status",
          "type": "uint8"
        }
      ],
      "name": "OnSmartContractStatusSet",
      "type": "event"
    },
    {
      "anonymous": false,
      "inputs": [
        {
          "indexed": true,
          "name": "previousOwner",
          "type": "address"
        },
        {
          "indexed": true,
          "name": "newOwner",
          "type": "address"
        }
      ],
      "name": "OwnershipTransferred",
      "type": "event"
    }
  ],
  "bytecode": "0x6060604052341561000f57600080fd5b6040516020806200445e83398101604052808051906020019091905050336000806101000a81548173ffffffffffffffffffffffffffffffffffffffff021916908373ffffffffffffffffffffffffffffffffffffffff16021790555060008173ffffffffffffffffffffffffffffffffffffffff161415151561009257600080fd5b80600160006101000a81548173ffffffffffffffffffffffffffffffffffffffff021916908373ffffffffffffffffffffffffffffffffffffffff1602179055505061437a80620000e46000396000f3006060604052600436106100fb576000357c0100000000000000000000000000000000000000000000000000000000900463ffffffff16806222049c1461010057806305e46bd2146101455780630b61e3b51461018957806339d319e5146101d65780633da013251461020f5780633f4b1470146102485780634c8ddddc1461028a578063526f6ce4146102b9578063832bf231146102df5780638da5cb5b146103a657806391e06b6d146103fb578063a7f91c9214610450578063b16b223014610489578063c6b64a08146104e1578063c82c29d914610526578063e962beac146105df578063ec1113f414610632578063f2fde38b14610660575b600080fd5b341561010b57600080fd5b610143600480803573ffffffffffffffffffffffffffffffffffffffff1690602001909190803560ff16906020019091905050610699565b005b341561015057600080fd5b610187600480803573ffffffffffffffffffffffffffffffffffffffff1690602001909190803515159060200190919050506106ff565b005b341561019457600080fd5b6101d4600480803560001916906020019091908035600019169060200190919080356000191690602001909190803560ff16906020019091905050610730565b005b34156101e157600080fd5b61020d600480803573ffffffffffffffffffffffffffffffffffffffff16906020019091905050610766565b005b341561021a57600080fd5b610246600480803573ffffffffffffffffffffffffffffffffffffffff16906020019091905050610810565b005b341561025357600080fd5b610288600480803573ffffffffffffffffffffffffffffffffffffffff169060200190919080359060200190919050506108ba565b005b341561029557600080fd5b61029d610b11565b604051808260ff1660ff16815260200191505060405180910390f35b34156102c457600080fd5b6102dd600480803560ff16906020019091905050610b24565b005b34156102ea57600080fd5b6103a4600480803560ff16906020019091908035906020019082018035906020019190919290803590602001908201803590602001919091929080356000191690602001909190803560001916906020019091908035600019169060200190919080359060200190919080356000191690602001909190803590602001909190803560001916906020019091908035600019169060200190919080356000191690602001909190803560ff16906020019091905050610c81565b005b34156103b157600080fd5b6103b9610d62565b604051808273ffffffffffffffffffffffffffffffffffffffff1673ffffffffffffffffffffffffffffffffffffffff16815260200191505060405180910390f35b341561040657600080fd5b61040e610d87565b604051808273ffffffffffffffffffffffffffffffffffffffff1673ffffffffffffffffffffffffffffffffffffffff16815260200191505060405180910390f35b341561045b57600080fd5b610487600480803590602001908201803590602001919091929080351515906020019091905050610dad565b005b341561049457600080fd5b6104df600480803573ffffffffffffffffffffffffffffffffffffffff1690602001909190803573ffffffffffffffffffffffffffffffffffffffff16906020019091905050610e0e565b005b34156104ec57600080fd5b610524600480803573ffffffffffffffffffffffffffffffffffffffff1690602001909190803560ff16906020019091905050610faa565b005b341561053157600080fd5b6105dd600480803560ff1690602001909190803590602001908201803590602001908080601f0160208091040260200160405190810160405280939291908181526020018383808284378201915050505050509190803590602001908201803590602001908080601f0160208091040260200160405190810160405280939291908181526020018383808284378201915050505050509190803560001916906020019091905050611056565b005b34156105ea57600080fd5b610630600480803560001916906020019091908035600019169060200190919080359060200190919080356000191690602001909190803590602001909190505061108c565b005b341561063d57600080fd5b61065e600480803590602001908201803590602001919091929050506110c4565b005b341561066b57600080fd5b610697600480803573ffffffffffffffffffffffffffffffffffffffff169060200190919050506111ab565b005b60008273ffffffffffffffffffffffffffffffffffffffff16141580156106c3575060008160ff16115b15156106ce57600080fd5b6106fb600160009054906101000a900473ffffffffffffffffffffffffffffffffffffffff168383611300565b5050565b61072c600160009054906101000a900473ffffffffffffffffffffffffffffffffffffffff16838361137c565b5050565b610760600160009054906101000a900473ffffffffffffffffffffffffffffffffffffffff1633868686866114b9565b50505050565b6000809054906101000a900473ffffffffffffffffffffffffffffffffffffffff1673ffffffffffffffffffffffffffffffffffffffff163373ffffffffffffffffffffffffffffffffffffffff1614806107c657506107c533611931565b5b806107d657506107d533611958565b5b15156107e157600080fd5b61080d600160009054906101000a900473ffffffffffffffffffffffffffffffffffffffff168261197f565b50565b6000809054906101000a900473ffffffffffffffffffffffffffffffffffffffff1673ffffffffffffffffffffffffffffffffffffffff163373ffffffffffffffffffffffffffffffffffffffff161480610870575061086f33611931565b5b80610880575061087f33611958565b5b151561088b57600080fd5b6108b7600160009054906101000a900473ffffffffffffffffffffffffffffffffffffffff1682611a91565b50565b816108c481611ba3565b15156108cf57600080fd5b8160018060ff16600160009054906101000a900473ffffffffffffffffffffffffffffffffffffffff1673ffffffffffffffffffffffffffffffffffffffff16637a0e03ec8460405180807f7061796d656e742f737461746500000000000000000000000000000000000000815250600d0182815260200191505060405180910390206000604051602001526040518263ffffffff167c0100000000000000000000000000000000000000000000000000000000028152600401808260001916600019168152602001915050602060405180830381600087803b15156109b457600080fd5b6102c65a03f115156109c557600080fd5b5050506040518051905060ff161415156109de57600080fd5b600160009054906101000a900473ffffffffffffffffffffffffffffffffffffffff1673ffffffffffffffffffffffffffffffffffffffff16630bd851588560405180807f7061796d656e742f737461746500000000000000000000000000000000000000815250600d01828152602001915050604051809103902060026040518363ffffffff167c01000000000000000000000000000000000000000000000000000000000281526004018083600019166000191681526020018260ff16815260200192505050600060405180830381600087803b1515610abf57600080fd5b6102c65a03f11515610ad057600080fd5b5050507fa5f78a79f83dfad686a63ca003a42f6c262d9fdc43a6742c56f5c27c11b9a1e2846040518082815260200191505060405180910390a15050505050565b600160149054906101000a900460ff1681565b60018160ff161415610b98577f33ab88bf15c608bd108a5e190f7ede9805cca0d26edb4c498910efed7bd4548233604051808273ffffffffffffffffffffffffffffffffffffffff1673ffffffffffffffffffffffffffffffffffffffff16815260200191505060405180910390a1610c7e565b60038160ff161415610c0c577f071c1d6c34c33579b7c602d142075cbfcd78a1f17a66d704fa952844a3c5e08e33604051808273ffffffffffffffffffffffffffffffffffffffff1673ffffffffffffffffffffffffffffffffffffffff16815260200191505060405180910390a1610c7d565b60048160ff161415610c7c577fddce97d6f5184391465a772abc24fb939b4e8f99851a6a1b823d08b0f7abea9833604051808273ffffffffffffffffffffffffffffffffffffffff1673ffffffffffffffffffffffffffffffffffffffff16815260200191505060405180910390a15b5b5b50565b6000600160149054906101000a900460ff1660ff16141515610ca257600080fd5b60008714158015610cb4575060008514155b1515610cbf57600080fd5b610d2f8f8f8f8080601f0160208091040260200160405190810160405280939291908181526020018383808284378201915050505050508e8e8080601f0160208091040260200160405190810160405280939291908181526020018383808284378201915050505050508d611056565b610d3c898989898961108c565b610d4884848484610730565b610d518f610b24565b505050505050505050505050505050565b6000809054906101000a900473ffffffffffffffffffffffffffffffffffffffff1681565b600160009054906101000a900473ffffffffffffffffffffffffffffffffffffffff1681565b610e09600160009054906101000a900473ffffffffffffffffffffffffffffffffffffffff1684848080602002602001604051908101604052809392919081815260200183836020028082843782019150505050505083611bca565b505050565b816000809054906101000a900473ffffffffffffffffffffffffffffffffffffffff1673ffffffffffffffffffffffffffffffffffffffff168173ffffffffffffffffffffffffffffffffffffffff16148015610f865750600160009054906101000a900473ffffffffffffffffffffffffffffffffffffffff1673ffffffffffffffffffffffffffffffffffffffff16634c77e5ba60405180807f6f646c6c2f6f776e657200000000000000000000000000000000000000000000815250600a01905060405180910390206000604051602001526040518263ffffffff167c0100000000000000000000000000000000000000000000000000000000028152600401808260001916600019168152602001915050602060405180830381600087803b1515610f3c57600080fd5b6102c65a03f11515610f4d57600080fd5b5050506040518051905073ffffffffffffffffffffffffffffffffffffffff168173ffffffffffffffffffffffffffffffffffffffff16145b1515610f9157600080fd5b8173ffffffffffffffffffffffffffffffffffffffff16ff5b6000809054906101000a900473ffffffffffffffffffffffffffffffffffffffff1673ffffffffffffffffffffffffffffffffffffffff163373ffffffffffffffffffffffffffffffffffffffff16148061100a575061100933611931565b5b8061101a575061101933611958565b5b151561102557600080fd5b611052600160009054906101000a900473ffffffffffffffffffffffffffffffffffffffff168383611d84565b5050565b611086600160009054906101000a900473ffffffffffffffffffffffffffffffffffffffff163386868686611ef0565b50505050565b6110bd600160009054906101000a900473ffffffffffffffffffffffffffffffffffffffff1633878787878761244c565b5050505050565b6000600160149054906101000a900460ff1660ff161415156110e557600080fd5b611144600160009054906101000a900473ffffffffffffffffffffffffffffffffffffffff163384848080601f0160208091040260200160405190810160405280939291908181526020018383808284378201915050505050506129c9565b7f93b7a8f909099e62da880be5159733c001501e38f43e9e9767d1acfa4562c8f733604051808273ffffffffffffffffffffffffffffffffffffffff1673ffffffffffffffffffffffffffffffffffffffff16815260200191505060405180910390a15050565b6000809054906101000a900473ffffffffffffffffffffffffffffffffffffffff1673ffffffffffffffffffffffffffffffffffffffff163373ffffffffffffffffffffffffffffffffffffffff1614151561120657600080fd5b600073ffffffffffffffffffffffffffffffffffffffff168173ffffffffffffffffffffffffffffffffffffffff161415151561124257600080fd5b8073ffffffffffffffffffffffffffffffffffffffff166000809054906101000a900473ffffffffffffffffffffffffffffffffffffffff1673ffffffffffffffffffffffffffffffffffffffff167f8be0079c531659141344cd1fd0a4f28419497f9722a3daafe3b4186f6b6457e060405160405180910390a3806000806101000a81548173ffffffffffffffffffffffffffffffffffffffff021916908373ffffffffffffffffffffffffffffffffffffffff16021790555050565b61137783836040805190810160405280601c81526020017f64656e746973742f617665726167652d726174696e672d636f756e74000000008152506040805190810160405280601681526020017f64656e746973742f617665726167652d726174696e670000000000000000000081525085612c14565b505050565b6113868383613169565b151561139157600080fd5b61139b8383613182565b15156113a657600080fd5b8273ffffffffffffffffffffffffffffffffffffffff16633eba9ed28360405180807f757365722f69732d6f646c6c2d64656e746973743f00000000000000000000008152506015018273ffffffffffffffffffffffffffffffffffffffff1673ffffffffffffffffffffffffffffffffffffffff166c010000000000000000000000000281526014019150506040518091039020836040518363ffffffff167c01000000000000000000000000000000000000000000000000000000000281526004018083600019166000191681526020018215151515815260200192505050600060405180830381600087803b15156114a057600080fd5b6102c65a03f115156114b157600080fd5b505050505050565b6114c38686613169565b15156114ce57600080fd5b6114d88686613182565b15156114e357600080fd5b8573ffffffffffffffffffffffffffffffffffffffff166325cf512d8660405180807f757365722f70686f6e652d6e756d6265720000000000000000000000000000008152506011018273ffffffffffffffffffffffffffffffffffffffff1673ffffffffffffffffffffffffffffffffffffffff166c010000000000000000000000000281526014019150506040518091039020866040518363ffffffff167c0100000000000000000000000000000000000000000000000000000000028152600401808360001916600019168152602001826000191660001916815260200192505050600060405180830381600087803b15156115e157600080fd5b6102c65a03f115156115f257600080fd5b5050508573ffffffffffffffffffffffffffffffffffffffff166325cf512d8660405180807f757365722f736f6369616c2d73656375726974792d6e756d6265720000000000815250601b018273ffffffffffffffffffffffffffffffffffffffff1673ffffffffffffffffffffffffffffffffffffffff166c010000000000000000000000000281526014019150506040518091039020856040518363ffffffff167c0100000000000000000000000000000000000000000000000000000000028152600401808360001916600019168152602001826000191660001916815260200192505050600060405180830381600087803b15156116f357600080fd5b6102c65a03f1151561170457600080fd5b5050508573ffffffffffffffffffffffffffffffffffffffff166325cf512d8660405180807f757365722f626972746864617900000000000000000000000000000000000000815250600d018273ffffffffffffffffffffffffffffffffffffffff1673ffffffffffffffffffffffffffffffffffffffff166c010000000000000000000000000281526014019150506040518091039020846040518363ffffffff167c0100000000000000000000000000000000000000000000000000000000028152600401808360001916600019168152602001826000191660001916815260200192505050600060405180830381600087803b151561180557600080fd5b6102c65a03f1151561181657600080fd5b5050508573ffffffffffffffffffffffffffffffffffffffff16630bd851588660405180807f757365722f67656e646572000000000000000000000000000000000000000000815250600b018273ffffffffffffffffffffffffffffffffffffffff1673ffffffffffffffffffffffffffffffffffffffff166c010000000000000000000000000281526014019150506040518091039020836040518363ffffffff167c01000000000000000000000000000000000000000000000000000000000281526004018083600019166000191681526020018260ff1660ff16815260200192505050600060405180830381600087803b151561191557600080fd5b6102c65a03f1151561192657600080fd5b505050505050505050565b600061193e826004613198565b801561195157506119508260016131b3565b5b9050919050565b6000611965826003613198565b801561197857506119778260016131b3565b5b9050919050565b8173ffffffffffffffffffffffffffffffffffffffff16630bd851588260405180807f757365722f737461747573000000000000000000000000000000000000000000815250600b018273ffffffffffffffffffffffffffffffffffffffff1673ffffffffffffffffffffffffffffffffffffffff166c01000000000000000000000000028152601401915050604051809103902060016040518363ffffffff167c01000000000000000000000000000000000000000000000000000000000281526004018083600019166000191681526020018260ff16815260200192505050600060405180830381600087803b1515611a7957600080fd5b6102c65a03f11515611a8a57600080fd5b5050505050565b8173ffffffffffffffffffffffffffffffffffffffff16630bd851588260405180807f757365722f737461747573000000000000000000000000000000000000000000815250600b018273ffffffffffffffffffffffffffffffffffffffff1673ffffffffffffffffffffffffffffffffffffffff166c01000000000000000000000000028152601401915050604051809103902060026040518363ffffffff167c01000000000000000000000000000000000000000000000000000000000281526004018083600019166000191681526020018260ff16815260200192505050600060405180830381600087803b1515611b8b57600080fd5b6102c65a03f11515611b9c57600080fd5b5050505050565b6000611bb0826001613198565b8015611bc35750611bc28260016131b3565b5b9050919050565b60008090505b8251811015611c3e57611bfa848483815181101515611beb57fe5b90602001906020020151613169565b1515611c0557600080fd5b611c26848483815181101515611c1757fe5b90602001906020020151613182565b1515611c3157600080fd5b8080600101915050611bd0565b600090505b8251811015611d7e578373ffffffffffffffffffffffffffffffffffffffff16633eba9ed28483815181101515611c7657fe5b9060200190602002015160405180807f757365722f69732d6f646c6c2d64656e746973743f00000000000000000000008152506015018273ffffffffffffffffffffffffffffffffffffffff1673ffffffffffffffffffffffffffffffffffffffff166c010000000000000000000000000281526014019150506040518091039020846040518363ffffffff167c01000000000000000000000000000000000000000000000000000000000281526004018083600019166000191681526020018215151515815260200192505050600060405180830381600087803b1515611d5d57600080fd5b6102c65a03f11515611d6e57600080fd5b5050508080600101915050611c43565b50505050565b60008373ffffffffffffffffffffffffffffffffffffffff16637a0e03ec8460405180807f757365722f7479706500000000000000000000000000000000000000000000008152506009018273ffffffffffffffffffffffffffffffffffffffff1673ffffffffffffffffffffffffffffffffffffffff166c0100000000000000000000000002815260140191505060405180910390206000604051602001526040518263ffffffff167c0100000000000000000000000000000000000000000000000000000000028152600401808260001916600019168152602001915050602060405180830381600087803b1515611e7d57600080fd5b6102c65a03f11515611e8e57600080fd5b50505060405180519050905060008373ffffffffffffffffffffffffffffffffffffffff1614158015611ec5575060008260ff1614155b8015611ed4575060008160ff16145b1515611edf57600080fd5b611eea8484846131ce565b50505050565b600080611f04611eff866136fa565b613728565b9150611f17611f12856136fa565b613728565b9050611f58886040805190810160405280601b81526020017f636f6e6669672f6d61782d757365722d6e616d652d6c656e67746800000000008152506137ee565b8211158015611fa55750611fa1886040805190810160405280601b81526020017f636f6e6669672f6d696e2d757365722d6e616d652d6c656e67746800000000008152506137ee565b8210155b1515611fb057600080fd5b611fef886040805190810160405280601c81526020017f636f6e6669672f6d61782d757365722d656d61696c2d6c656e677468000000008152506137ee565b811115801561203c5750612038886040805190810160405280601c81526020017f636f6e6669672f6d696e2d757365722d656d61696c2d6c656e677468000000008152506137ee565b8110155b151561204757600080fd5b6120528888886131ce565b8773ffffffffffffffffffffffffffffffffffffffff1663f58660668860405180807f757365722f6e616d6500000000000000000000000000000000000000000000008152506009018273ffffffffffffffffffffffffffffffffffffffff1673ffffffffffffffffffffffffffffffffffffffff166c010000000000000000000000000281526014019150506040518091039020876040518363ffffffff167c010000000000000000000000000000000000000000000000000000000002815260040180836000191660001916815260200180602001828103825283818151815260200191508051906020019080838360005b83811015612161578082015181840152602081019050612146565b50505050905090810190601f16801561218e5780820380516001836020036101000a031916815260200191505b509350505050600060405180830381600087803b15156121ad57600080fd5b6102c65a03f115156121be57600080fd5b5050508773ffffffffffffffffffffffffffffffffffffffff1663f58660668860405180807f757365722f656d61696c00000000000000000000000000000000000000000000815250600a018273ffffffffffffffffffffffffffffffffffffffff1673ffffffffffffffffffffffffffffffffffffffff166c010000000000000000000000000281526014019150506040518091039020866040518363ffffffff167c010000000000000000000000000000000000000000000000000000000002815260040180836000191660001916815260200180602001828103825283818151815260200191508051906020019080838360005b838110156122d05780820151818401526020810190506122b5565b50505050905090810190601f1680156122fd5780820380516001836020036101000a031916815260200191505b509350505050600060405180830381600087803b151561231c57600080fd5b6102c65a03f1151561232d57600080fd5b5050508773ffffffffffffffffffffffffffffffffffffffff166325cf512d8860405180807f757365722f677261766174617200000000000000000000000000000000000000815250600d018273ffffffffffffffffffffffffffffffffffffffff1673ffffffffffffffffffffffffffffffffffffffff166c010000000000000000000000000281526014019150506040518091039020856040518363ffffffff167c0100000000000000000000000000000000000000000000000000000000028152600401808360001916600019168152602001826000191660001916815260200192505050600060405180830381600087803b151561242e57600080fd5b6102c65a03f1151561243f57600080fd5b5050505050505050505050565b6124568787613169565b151561246157600080fd5b61246b8787613182565b151561247657600080fd5b8673ffffffffffffffffffffffffffffffffffffffff166325cf512d8760405180807f757365722f737472656574000000000000000000000000000000000000000000815250600b018273ffffffffffffffffffffffffffffffffffffffff1673ffffffffffffffffffffffffffffffffffffffff166c010000000000000000000000000281526014019150506040518091039020876040518363ffffffff167c0100000000000000000000000000000000000000000000000000000000028152600401808360001916600019168152602001826000191660001916815260200192505050600060405180830381600087803b151561257457600080fd5b6102c65a03f1151561258557600080fd5b5050508673ffffffffffffffffffffffffffffffffffffffff166325cf512d8760405180807f757365722f6369747900000000000000000000000000000000000000000000008152506009018273ffffffffffffffffffffffffffffffffffffffff1673ffffffffffffffffffffffffffffffffffffffff166c010000000000000000000000000281526014019150506040518091039020866040518363ffffffff167c0100000000000000000000000000000000000000000000000000000000028152600401808360001916600019168152602001826000191660001916815260200192505050600060405180830381600087803b151561268657600080fd5b6102c65a03f1151561269757600080fd5b5050508673ffffffffffffffffffffffffffffffffffffffff16633562fd208760405180807f757365722f737461746500000000000000000000000000000000000000000000815250600a018273ffffffffffffffffffffffffffffffffffffffff1673ffffffffffffffffffffffffffffffffffffffff166c010000000000000000000000000281526014019150506040518091039020856040518363ffffffff167c010000000000000000000000000000000000000000000000000000000002815260040180836000191660001916815260200182815260200192505050600060405180830381600087803b151561279057600080fd5b6102c65a03f115156127a157600080fd5b5050508673ffffffffffffffffffffffffffffffffffffffff166325cf512d8760405180807f757365722f7a69702d636f646500000000000000000000000000000000000000815250600d018273ffffffffffffffffffffffffffffffffffffffff1673ffffffffffffffffffffffffffffffffffffffff166c010000000000000000000000000281526014019150506040518091039020846040518363ffffffff167c0100000000000000000000000000000000000000000000000000000000028152600401808360001916600019168152602001826000191660001916815260200192505050600060405180830381600087803b15156128a257600080fd5b6102c65a03f115156128b357600080fd5b5050508673ffffffffffffffffffffffffffffffffffffffff16633562fd208760405180807f757365722f636f756e7472790000000000000000000000000000000000000000815250600c018273ffffffffffffffffffffffffffffffffffffffff1673ffffffffffffffffffffffffffffffffffffffff166c010000000000000000000000000281526014019150506040518091039020836040518363ffffffff167c010000000000000000000000000000000000000000000000000000000002815260040180836000191660001916815260200182815260200192505050600060405180830381600087803b15156129ac57600080fd5b6102c65a03f115156129bd57600080fd5b50505050505050505050565b60006129dc6129d7836136fa565b613728565b90506129e88484613169565b15156129f357600080fd5b6129fd8484613182565b1515612a0857600080fd5b612a47846040805190810160405280601e81526020017f636f6e6669672f6d61782d636f6d70616e792d6e616d652d6c656e67746800008152506137ee565b8111158015612a945750612a90846040805190810160405280601e81526020017f636f6e6669672f6d696e2d636f6d70616e792d6e616d652d6c656e67746800008152506137ee565b8110155b1515612a9f57600080fd5b8373ffffffffffffffffffffffffffffffffffffffff1663f58660668460405180807f64656e746973742f636f6d70616e792d6e616d650000000000000000000000008152506014018273ffffffffffffffffffffffffffffffffffffffff1673ffffffffffffffffffffffffffffffffffffffff166c010000000000000000000000000281526014019150506040518091039020846040518363ffffffff167c010000000000000000000000000000000000000000000000000000000002815260040180836000191660001916815260200180602001828103825283818151815260200191508051906020019080838360005b83811015612bae578082015181840152602081019050612b93565b50505050905090810190601f168015612bdb5780820380516001836020036101000a031916815260200191505b509350505050600060405180830381600087803b1515612bfa57600080fd5b6102c65a03f11515612c0b57600080fd5b50505050505050565b60008060008060008973ffffffffffffffffffffffffffffffffffffffff1663bdc963d8898b6040518083805190602001908083835b602083101515612c6f5780518252602082019150602081019050602083039250612c4a565b6001836020036101000a0380198251168184511680821785525050505050509050018273ffffffffffffffffffffffffffffffffffffffff1673ffffffffffffffffffffffffffffffffffffffff166c010000000000000000000000000281526014019250505060405180910390206000604051602001526040518263ffffffff167c0100000000000000000000000000000000000000000000000000000000028152600401808260001916600019168152602001915050602060405180830381600087803b1515612d4057600080fd5b6102c65a03f11515612d5157600080fd5b5050506040518051905094508973ffffffffffffffffffffffffffffffffffffffff16637a0e03ec888b6040518083805190602001908083835b602083101515612db05780518252602082019150602081019050602083039250612d8b565b6001836020036101000a0380198251168184511680821785525050505050509050018273ffffffffffffffffffffffffffffffffffffffff1673ffffffffffffffffffffffffffffffffffffffff166c010000000000000000000000000281526014019250505060405180910390206000604051602001526040518263ffffffff167c0100000000000000000000000000000000000000000000000000000000028152600401808260001916600019168152602001915050602060405180830381600087803b1515612e8157600080fd5b6102c65a03f11515612e9257600080fd5b505050604051805190509350612ea98560016138f4565b92506000851415612ebf578560ff169150612ee9565b612ed8612ecf8560ff1687613912565b8760ff166138f4565b90508281811515612ee557fe5b0491505b8973ffffffffffffffffffffffffffffffffffffffff16633562fd20898b6040518083805190602001908083835b602083101515612f3c5780518252602082019150602081019050602083039250612f17565b6001836020036101000a0380198251168184511680821785525050505050509050018273ffffffffffffffffffffffffffffffffffffffff1673ffffffffffffffffffffffffffffffffffffffff166c01000000000000000000000000028152601401925050506040518091039020856040518363ffffffff167c010000000000000000000000000000000000000000000000000000000002815260040180836000191660001916815260200182815260200192505050600060405180830381600087803b151561300c57600080fd5b6102c65a03f1151561301d57600080fd5b5050508973ffffffffffffffffffffffffffffffffffffffff16630bd85158888b6040518083805190602001908083835b602083101515613073578051825260208201915060208101905060208303925061304e565b6001836020036101000a0380198251168184511680821785525050505050509050018273ffffffffffffffffffffffffffffffffffffffff1673ffffffffffffffffffffffffffffffffffffffff166c01000000000000000000000000028152601401925050506040518091039020846040518363ffffffff167c01000000000000000000000000000000000000000000000000000000000281526004018083600019166000191681526020018260ff1660ff16815260200192505050600060405180830381600087803b151561314957600080fd5b6102c65a03f1151561315a57600080fd5b50505050505050505050505050565b6000806131768484613945565b60ff1611905092915050565b600061319083836001613a61565b905092915050565b60006131a383613a7e565b60ff168260ff1614905092915050565b60006131be83613bbb565b60ff168260ff1614905092915050565b6131d6614320565b6131de614320565b6131e6614320565b6131f08686613169565b15156135e2578573ffffffffffffffffffffffffffffffffffffffff16633562fd208660405180807f757365722f637265617465642d6f6e0000000000000000000000000000000000815250600f018273ffffffffffffffffffffffffffffffffffffffff1673ffffffffffffffffffffffffffffffffffffffff166c010000000000000000000000000281526014019150506040518091039020426040518363ffffffff167c010000000000000000000000000000000000000000000000000000000002815260040180836000191660001916815260200182815260200192505050600060405180830381600087803b15156132ec57600080fd5b6102c65a03f115156132fd57600080fd5b5050508573ffffffffffffffffffffffffffffffffffffffff16630bd851588660405180807f757365722f737461747573000000000000000000000000000000000000000000815250600b018273ffffffffffffffffffffffffffffffffffffffff1673ffffffffffffffffffffffffffffffffffffffff166c01000000000000000000000000028152601401915050604051809103902060016040518363ffffffff167c01000000000000000000000000000000000000000000000000000000000281526004018083600019166000191681526020018260ff16815260200192505050600060405180830381600087803b15156133fa57600080fd5b6102c65a03f1151561340b57600080fd5b505050613484866040805190810160405280600981526020017f75736572732f69647300000000000000000000000000000000000000000000008152506040805190810160405280600b81526020017f75736572732f636f756e7400000000000000000000000000000000000000000081525088613cf8565b61348d8461401e565b8093508194508295505050508573ffffffffffffffffffffffffffffffffffffffff16633eba9ed284876040518083805190602001908083835b6020831015156134ec57805182526020820191506020810190506020830392506134c7565b6001836020036101000a0380198251168184511680821785525050505050509050018273ffffffffffffffffffffffffffffffffffffffff1673ffffffffffffffffffffffffffffffffffffffff166c0100000000000000000000000002815260140192505050604051809103902060016040518363ffffffff167c01000000000000000000000000000000000000000000000000000000000281526004018083600019166000191681526020018215151515815260200192505050600060405180830381600087803b15156135c157600080fd5b6102c65a03f115156135d257600080fd5b5050506135e186838388613cf8565b5b8573ffffffffffffffffffffffffffffffffffffffff16630bd851588660405180807f757365722f7479706500000000000000000000000000000000000000000000008152506009018273ffffffffffffffffffffffffffffffffffffffff1673ffffffffffffffffffffffffffffffffffffffff166c010000000000000000000000000281526014019150506040518091039020866040518363ffffffff167c01000000000000000000000000000000000000000000000000000000000281526004018083600019166000191681526020018260ff1660ff16815260200192505050600060405180830381600087803b15156136de57600080fd5b6102c65a03f115156136ef57600080fd5b505050505050505050565b613702614334565b600060208301905060408051908101604052808451815260200182815250915050919050565b6000806000806000601f8660200151039350856000015184019250600091505b828410156137e25760ff845116905060808160ff16101561376e576001840193506137d5565b60e08160ff161015613785576002840193506137d4565b60f08160ff16101561379c576003840193506137d3565b60f88160ff1610156137b3576004840193506137d2565b60fc8160ff1610156137ca576005840193506137d1565b6006840193505b5b5b5b5b8180600101925050613748565b81945050505050919050565b60008273ffffffffffffffffffffffffffffffffffffffff1663bdc963d8836040518082805190602001908083835b602083101515613842578051825260208201915060208101905060208303925061381d565b6001836020036101000a03801982511681845116808217855250505050505090500191505060405180910390206000604051602001526040518263ffffffff167c0100000000000000000000000000000000000000000000000000000000028152600401808260001916600019168152602001915050602060405180830381600087803b15156138d157600080fd5b6102c65a03f115156138e257600080fd5b50505060405180519050905092915050565b600080828401905083811015151561390857fe5b8091505092915050565b60008082840290506000841480613933575082848281151561393057fe5b04145b151561393b57fe5b8091505092915050565b60008273ffffffffffffffffffffffffffffffffffffffff16637a0e03ec8360405180807f757365722f737461747573000000000000000000000000000000000000000000815250600b018273ffffffffffffffffffffffffffffffffffffffff1673ffffffffffffffffffffffffffffffffffffffff166c0100000000000000000000000002815260140191505060405180910390206000604051602001526040518263ffffffff167c0100000000000000000000000000000000000000000000000000000000028152600401808260001916600019168152602001915050602060405180830381600087803b1515613a3e57600080fd5b6102c65a03f11515613a4f57600080fd5b50505060405180519050905092915050565b6000613a6d8484613945565b60ff168260ff161490509392505050565b6000600160009054906101000a900473ffffffffffffffffffffffffffffffffffffffff1673ffffffffffffffffffffffffffffffffffffffff16637a0e03ec8360405180807f757365722f7479706500000000000000000000000000000000000000000000008152506009018273ffffffffffffffffffffffffffffffffffffffff1673ffffffffffffffffffffffffffffffffffffffff166c0100000000000000000000000002815260140191505060405180910390206000604051602001526040518263ffffffff167c0100000000000000000000000000000000000000000000000000000000028152600401808260001916600019168152602001915050602060405180830381600087803b1515613b9957600080fd5b6102c65a03f11515613baa57600080fd5b505050604051805190509050919050565b6000600160009054906101000a900473ffffffffffffffffffffffffffffffffffffffff1673ffffffffffffffffffffffffffffffffffffffff16637a0e03ec8360405180807f757365722f737461747573000000000000000000000000000000000000000000815250600b018273ffffffffffffffffffffffffffffffffffffffff1673ffffffffffffffffffffffffffffffffffffffff166c0100000000000000000000000002815260140191505060405180910390206000604051602001526040518263ffffffff167c0100000000000000000000000000000000000000000000000000000000028152600401808260001916600019168152602001915050602060405180830381600087803b1515613cd657600080fd5b6102c65a03f11515613ce757600080fd5b505050604051805190509050919050565b60008473ffffffffffffffffffffffffffffffffffffffff1663bdc963d8846040518082805190602001908083835b602083101515613d4c5780518252602082019150602081019050602083039250613d27565b6001836020036101000a03801982511681845116808217855250505050505090500191505060405180910390206000604051602001526040518263ffffffff167c0100000000000000000000000000000000000000000000000000000000028152600401808260001916600019168152602001915050602060405180830381600087803b1515613ddb57600080fd5b6102c65a03f11515613dec57600080fd5b5050506040518051905090508473ffffffffffffffffffffffffffffffffffffffff16635a2bf25a85836040518083805190602001908083835b602083101515613e4b5780518252602082019150602081019050602083039250613e26565b6001836020036101000a038019825116818451168082178552505050505050905001828152602001925050506040518091039020846040518363ffffffff167c01000000000000000000000000000000000000000000000000000000000281526004018083600019166000191681526020018273ffffffffffffffffffffffffffffffffffffffff1673ffffffffffffffffffffffffffffffffffffffff16815260200192505050600060405180830381600087803b1515613f0c57600080fd5b6102c65a03f11515613f1d57600080fd5b5050508473ffffffffffffffffffffffffffffffffffffffff16633562fd20846040518082805190602001908083835b602083101515613f725780518252602082019150602081019050602083039250613f4d565b6001836020036101000a0380198251168184511680821785525050505050509050019150506040518091039020600184016040518363ffffffff167c010000000000000000000000000000000000000000000000000000000002815260040180836000191660001916815260200182815260200192505050600060405180830381600087803b151561400357600080fd5b6102c65a03f1151561401457600080fd5b5050505050505050565b614026614320565b61402e614320565b614036614320565b60018460ff1614156140ef576040805190810160405280601081526020017f757365722f69732d70617469656e743f0000000000000000000000000000000081525092506040805190810160405280600c81526020017f70617469656e74732f696473000000000000000000000000000000000000000081525091506040805190810160405280600e81526020017f70617469656e74732f636f756e740000000000000000000000000000000000008152509050614319565b60028460ff1614156141a8576040805190810160405280601081526020017f757365722f69732d64656e746973743f0000000000000000000000000000000081525092506040805190810160405280600c81526020017f64656e74697374732f696473000000000000000000000000000000000000000081525091506040805190810160405280600e81526020017f64656e74697374732f636f756e740000000000000000000000000000000000008152509050614318565b60038460ff161415614261576040805190810160405280601081526020017f757365722f69732d6d616e616765723f0000000000000000000000000000000081525092506040805190810160405280600c81526020017f6d616e61676572732f696473000000000000000000000000000000000000000081525091506040805190810160405280600e81526020017f6d616e61676572732f636f756e740000000000000000000000000000000000008152509050614317565b60048460ff161415614316576040805190810160405280600e81526020017f757365722f69732d61646d696e3f00000000000000000000000000000000000081525092506040805190810160405280600a81526020017f61646d696e732f6964730000000000000000000000000000000000000000000081525091506040805190810160405280600c81526020017f61646d696e732f636f756e74000000000000000000000000000000000000000081525090505b5b5b5b9193909250565b602060405190810160405280600081525090565b6040805190810160405280600081526020016000815250905600a165627a7a723058206c8758b075556a015d8845e3993ed24a86eafb56d1f9af4dd4f0726036d96c220029",
  "source": "pragma solidity 0.4.18;\n\nimport \"./Restrictor.sol\";\nimport \"../lib/odll/userManager.sol\";\n\ncontract UserWriter is Restrictor {\n  event OnAdminAdded(address userId);\n  event OnDentistCompanySet(address userId);\n  event OnManagerAdded(address userId);\n  event OnPatientAdded(address userId);\n\n  function UserWriter(address _dbAddress) public {\n    require(_dbAddress != 0x0);\n    dbAddress = _dbAddress;\n  }\n\n  function writeUser(\n    uint8 userType,\n    string name,\n    string email,\n    bytes32 gravatar,\n    bytes32 street,\n    bytes32 city,\n    uint stateId,\n    bytes32 zipCode,\n    uint countryId,\n    bytes32 phoneNumber,\n    bytes32 socialSecurityNumber,\n    bytes32 birthday,\n    uint8 gender\n  )\n    external\n    onlyPermittedSmartContract\n  {\n    // require the last compulsories first\n    require(stateId != 0 && countryId != 0);\n\n    writeUserIdentity(userType, name, email, gravatar);\n    writeUserLocation(street, city, stateId, zipCode, countryId);\n    writeUserOptionalValues(phoneNumber, socialSecurityNumber, birthday, gender);\n    determineEvent(userType);\n  }\n\n  function writeUserIdentity(uint8 userType, string name, string email, bytes32 gravatar) public {\n    userManager.setUserIdentity(dbAddress, msg.sender, userType, name, email, gravatar);\n  }\n\n  function writeUserLocation(bytes32 street, bytes32 city, uint stateId, bytes32 zipCode, uint countryId) public {\n    userManager.setUserLocation(dbAddress, msg.sender, street, city, stateId, zipCode, countryId);\n  }\n\n  function writeUserOptionalValues(bytes32 phoneNumber, bytes32 socialSecurityNumber, bytes32 birthday, uint8 gender) public {\n    userManager.setUserOptionalValues(dbAddress, msg.sender, phoneNumber, socialSecurityNumber, birthday, gender);\n  }\n\n  function determineEvent(uint8 userType) public {\n    if (userType == 1) {\n      OnPatientAdded(msg.sender);\n    } else if (userType == 3) {\n      OnManagerAdded(msg.sender);\n    } else if (userType == 4) {\n      OnAdminAdded(msg.sender);\n    }\n  }\n\n  function setDentistCompany (\n    string companyName\n  )\n    external\n    onlyPermittedSmartContract\n  {\n    userManager.setDentistCompany(dbAddress, msg.sender, companyName);\n    OnDentistCompanySet(msg.sender);\n  }\n\n  function setODLLDentist (\n    address userId,\n    bool odllDentistValue\n  )\n    external\n  {\n    userManager.setODLLDentist(dbAddress, userId, odllDentistValue);\n  }\n\n  function setODLLDentists (\n    address[] userIds,\n    bool odllDentistValue\n  )\n    external\n  {\n    userManager.setODLLDentists(dbAddress, userIds, odllDentistValue);\n  }\n\n  function addOfficialToODLL (address officialId, uint8 userType)\n    external\n    onlyOwnerOrActiveAdminOrActiveManager\n  {\n    userManager.addOfficialToODLL(dbAddress, officialId, userType);\n  }\n\n  function blockUser(address userId)\n    external\n    onlyOwnerOrActiveAdminOrActiveManager\n  {\n    userManager.blockUser(dbAddress, userId);\n  }\n\n  function unblockUser(address userId)\n    external\n    onlyOwnerOrActiveAdminOrActiveManager\n  {\n    userManager.unblockUser(dbAddress, userId);\n  }\n\n  function writeDentistRating(address dentistId, uint8 rating)\n    external\n  {\n    require(dentistId != 0x0 && rating > 0);\n    userManager.writeDentistRating(dbAddress, dentistId, rating);\n  }\n\n  function destroySelf(address callerAddress, address newContractAddress)\n    external\n    onlyOwnerCanCall(callerAddress)\n  {\n    selfdestruct(newContractAddress);\n  }\n}\n",
  "sourcePath": "/Users/danielokwufulueze/dev/vue/apps/oraldatalink/contracts/odll/UserWriter.sol",
  "compiler": {
    "name": "solc",
    "version": "0.4.18+commit.9cf6e910.Emscripten.clang"
  },
  "schemaVersion": "1.0.1",
  "updatedAt": "2017-12-02T20:21:51.272Z"
}