{
  "contractName": "DB",
  "abi": [
    {
      "constant": true,
      "inputs": [
        {
          "name": "record",
          "type": "bytes32"
        }
      ],
      "name": "getBytes32Value",
      "outputs": [
        {
          "name": "",
          "type": "bytes32"
        }
      ],
      "payable": false,
      "stateMutability": "view",
      "type": "function"
    },
    {
      "constant": false,
      "inputs": [
        {
          "name": "record",
          "type": "bytes32"
        }
      ],
      "name": "deleteAddressValue",
      "outputs": [],
      "payable": false,
      "stateMutability": "nonpayable",
      "type": "function"
    },
    {
      "constant": false,
      "inputs": [
        {
          "name": "addresses",
          "type": "address[]"
        }
      ],
      "name": "removePermittedContracts",
      "outputs": [],
      "payable": false,
      "stateMutability": "nonpayable",
      "type": "function"
    },
    {
      "constant": false,
      "inputs": [
        {
          "name": "record",
          "type": "bytes32"
        },
        {
          "name": "value",
          "type": "uint8"
        }
      ],
      "name": "setUInt8Value",
      "outputs": [],
      "payable": false,
      "stateMutability": "nonpayable",
      "type": "function"
    },
    {
      "constant": false,
      "inputs": [
        {
          "name": "record",
          "type": "bytes32"
        }
      ],
      "name": "deleteBytesValue",
      "outputs": [],
      "payable": false,
      "stateMutability": "nonpayable",
      "type": "function"
    },
    {
      "constant": false,
      "inputs": [
        {
          "name": "record",
          "type": "bytes32"
        }
      ],
      "name": "deleteBytes32Value",
      "outputs": [],
      "payable": false,
      "stateMutability": "nonpayable",
      "type": "function"
    },
    {
      "constant": true,
      "inputs": [
        {
          "name": "record",
          "type": "bytes32"
        }
      ],
      "name": "getBooleanValue",
      "outputs": [
        {
          "name": "",
          "type": "bool"
        }
      ],
      "payable": false,
      "stateMutability": "view",
      "type": "function"
    },
    {
      "constant": true,
      "inputs": [
        {
          "name": "types",
          "type": "uint8[]"
        }
      ],
      "name": "getUIntTypesCount",
      "outputs": [
        {
          "name": "count",
          "type": "uint256"
        }
      ],
      "payable": false,
      "stateMutability": "pure",
      "type": "function"
    },
    {
      "constant": false,
      "inputs": [
        {
          "name": "record",
          "type": "bytes32"
        },
        {
          "name": "value",
          "type": "bytes32"
        }
      ],
      "name": "setBytes32Value",
      "outputs": [],
      "payable": false,
      "stateMutability": "nonpayable",
      "type": "function"
    },
    {
      "constant": true,
      "inputs": [],
      "name": "permittedContractsCount",
      "outputs": [
        {
          "name": "count",
          "type": "uint256"
        }
      ],
      "payable": false,
      "stateMutability": "view",
      "type": "function"
    },
    {
      "constant": true,
      "inputs": [
        {
          "name": "x",
          "type": "bool"
        }
      ],
      "name": "booleanToUInt",
      "outputs": [
        {
          "name": "",
          "type": "uint256"
        }
      ],
      "payable": false,
      "stateMutability": "pure",
      "type": "function"
    },
    {
      "constant": true,
      "inputs": [],
      "name": "getPermittedContracts",
      "outputs": [
        {
          "name": "addresses",
          "type": "address[]"
        }
      ],
      "payable": false,
      "stateMutability": "view",
      "type": "function"
    },
    {
      "constant": false,
      "inputs": [
        {
          "name": "record",
          "type": "bytes32"
        },
        {
          "name": "value",
          "type": "uint256"
        }
      ],
      "name": "setUIntValue",
      "outputs": [],
      "payable": false,
      "stateMutability": "nonpayable",
      "type": "function"
    },
    {
      "constant": false,
      "inputs": [
        {
          "name": "contractAddress",
          "type": "address"
        }
      ],
      "name": "addPermittedContract",
      "outputs": [],
      "payable": false,
      "stateMutability": "nonpayable",
      "type": "function"
    },
    {
      "constant": false,
      "inputs": [
        {
          "name": "record",
          "type": "bytes32"
        }
      ],
      "name": "deleteBooleanValue",
      "outputs": [],
      "payable": false,
      "stateMutability": "nonpayable",
      "type": "function"
    },
    {
      "constant": false,
      "inputs": [
        {
          "name": "record",
          "type": "bytes32"
        },
        {
          "name": "value",
          "type": "bool"
        }
      ],
      "name": "setBooleanValue",
      "outputs": [],
      "payable": false,
      "stateMutability": "nonpayable",
      "type": "function"
    },
    {
      "constant": true,
      "inputs": [
        {
          "name": "record",
          "type": "bytes32"
        }
      ],
      "name": "getBytesValue",
      "outputs": [
        {
          "name": "",
          "type": "bytes"
        }
      ],
      "payable": false,
      "stateMutability": "view",
      "type": "function"
    },
    {
      "constant": true,
      "inputs": [
        {
          "name": "record",
          "type": "bytes32"
        }
      ],
      "name": "getAddressValue",
      "outputs": [
        {
          "name": "",
          "type": "address"
        }
      ],
      "payable": false,
      "stateMutability": "view",
      "type": "function"
    },
    {
      "constant": false,
      "inputs": [
        {
          "name": "record",
          "type": "bytes32"
        },
        {
          "name": "value",
          "type": "address"
        }
      ],
      "name": "setAddressValue",
      "outputs": [],
      "payable": false,
      "stateMutability": "nonpayable",
      "type": "function"
    },
    {
      "constant": false,
      "inputs": [
        {
          "name": "record",
          "type": "bytes32"
        },
        {
          "name": "value",
          "type": "uint256"
        }
      ],
      "name": "subUIntValue",
      "outputs": [],
      "payable": false,
      "stateMutability": "nonpayable",
      "type": "function"
    },
    {
      "constant": true,
      "inputs": [
        {
          "name": "",
          "type": "uint256"
        }
      ],
      "name": "permittedContractsAddresses",
      "outputs": [
        {
          "name": "",
          "type": "address"
        }
      ],
      "payable": false,
      "stateMutability": "view",
      "type": "function"
    },
    {
      "constant": true,
      "inputs": [
        {
          "name": "record",
          "type": "bytes32"
        }
      ],
      "name": "getUInt8Value",
      "outputs": [
        {
          "name": "",
          "type": "uint8"
        }
      ],
      "payable": false,
      "stateMutability": "view",
      "type": "function"
    },
    {
      "constant": false,
      "inputs": [
        {
          "name": "record",
          "type": "bytes32"
        }
      ],
      "name": "deleteIntValue",
      "outputs": [],
      "payable": false,
      "stateMutability": "nonpayable",
      "type": "function"
    },
    {
      "constant": false,
      "inputs": [
        {
          "name": "record",
          "type": "bytes32"
        }
      ],
      "name": "deleteUInt8Value",
      "outputs": [],
      "payable": false,
      "stateMutability": "nonpayable",
      "type": "function"
    },
    {
      "constant": true,
      "inputs": [],
      "name": "owner",
      "outputs": [
        {
          "name": "",
          "type": "address"
        }
      ],
      "payable": false,
      "stateMutability": "view",
      "type": "function"
    },
    {
      "constant": true,
      "inputs": [
        {
          "name": "record",
          "type": "bytes32"
        }
      ],
      "name": "getIntValue",
      "outputs": [
        {
          "name": "",
          "type": "int256"
        }
      ],
      "payable": false,
      "stateMutability": "view",
      "type": "function"
    },
    {
      "constant": false,
      "inputs": [
        {
          "name": "record",
          "type": "bytes32"
        }
      ],
      "name": "deleteUIntValue",
      "outputs": [],
      "payable": false,
      "stateMutability": "nonpayable",
      "type": "function"
    },
    {
      "constant": true,
      "inputs": [
        {
          "name": "",
          "type": "address"
        }
      ],
      "name": "permissionStatusForContract",
      "outputs": [
        {
          "name": "",
          "type": "bool"
        }
      ],
      "payable": false,
      "stateMutability": "view",
      "type": "function"
    },
    {
      "constant": true,
      "inputs": [
        {
          "name": "record",
          "type": "bytes32"
        }
      ],
      "name": "getStringValue",
      "outputs": [
        {
          "name": "",
          "type": "string"
        }
      ],
      "payable": false,
      "stateMutability": "view",
      "type": "function"
    },
    {
      "constant": false,
      "inputs": [
        {
          "name": "record",
          "type": "bytes32"
        },
        {
          "name": "value",
          "type": "int256"
        }
      ],
      "name": "setIntValue",
      "outputs": [],
      "payable": false,
      "stateMutability": "nonpayable",
      "type": "function"
    },
    {
      "constant": false,
      "inputs": [
        {
          "name": "addresses",
          "type": "address"
        }
      ],
      "name": "removePermittedContract",
      "outputs": [],
      "payable": false,
      "stateMutability": "nonpayable",
      "type": "function"
    },
    {
      "constant": false,
      "inputs": [
        {
          "name": "record",
          "type": "bytes32"
        }
      ],
      "name": "deleteStringValue",
      "outputs": [],
      "payable": false,
      "stateMutability": "nonpayable",
      "type": "function"
    },
    {
      "constant": true,
      "inputs": [
        {
          "name": "record",
          "type": "bytes32"
        }
      ],
      "name": "getUIntValue",
      "outputs": [
        {
          "name": "",
          "type": "uint256"
        }
      ],
      "payable": false,
      "stateMutability": "view",
      "type": "function"
    },
    {
      "constant": false,
      "inputs": [
        {
          "name": "record",
          "type": "bytes32"
        },
        {
          "name": "value",
          "type": "uint256"
        }
      ],
      "name": "addUIntValue",
      "outputs": [],
      "payable": false,
      "stateMutability": "nonpayable",
      "type": "function"
    },
    {
      "constant": true,
      "inputs": [
        {
          "name": "record",
          "type": "bytes32"
        },
        {
          "name": "uintType",
          "type": "uint8"
        }
      ],
      "name": "getUIntValueConverted",
      "outputs": [
        {
          "name": "",
          "type": "uint256"
        }
      ],
      "payable": false,
      "stateMutability": "view",
      "type": "function"
    },
    {
      "constant": false,
      "inputs": [
        {
          "name": "record",
          "type": "bytes32"
        },
        {
          "name": "value",
          "type": "bytes"
        }
      ],
      "name": "setBytesValue",
      "outputs": [],
      "payable": false,
      "stateMutability": "nonpayable",
      "type": "function"
    },
    {
      "constant": true,
      "inputs": [
        {
          "name": "records",
          "type": "bytes32[]"
        },
        {
          "name": "types",
          "type": "uint8[]"
        }
      ],
      "name": "getEntityList",
      "outputs": [
        {
          "name": "items",
          "type": "uint256[]"
        },
        {
          "name": "strings",
          "type": "string"
        }
      ],
      "payable": false,
      "stateMutability": "view",
      "type": "function"
    },
    {
      "constant": false,
      "inputs": [
        {
          "name": "addresses",
          "type": "address[]"
        }
      ],
      "name": "addPermittedContracts",
      "outputs": [],
      "payable": false,
      "stateMutability": "nonpayable",
      "type": "function"
    },
    {
      "constant": false,
      "inputs": [
        {
          "name": "newOwner",
          "type": "address"
        }
      ],
      "name": "transferOwnership",
      "outputs": [],
      "payable": false,
      "stateMutability": "nonpayable",
      "type": "function"
    },
    {
      "constant": false,
      "inputs": [
        {
          "name": "record",
          "type": "bytes32"
        },
        {
          "name": "value",
          "type": "string"
        }
      ],
      "name": "setStringValue",
      "outputs": [],
      "payable": false,
      "stateMutability": "nonpayable",
      "type": "function"
    },
    {
      "inputs": [],
      "payable": false,
      "stateMutability": "nonpayable",
      "type": "constructor"
    },
    {
      "anonymous": false,
      "inputs": [
        {
          "indexed": true,
          "name": "previousOwner",
          "type": "address"
        },
        {
          "indexed": true,
          "name": "newOwner",
          "type": "address"
        }
      ],
      "name": "OwnershipTransferred",
      "type": "event"
    }
  ],
  "bytecode": "0x6060604052341561000f57600080fd5b336000806101000a81548173ffffffffffffffffffffffffffffffffffffffff021916908373ffffffffffffffffffffffffffffffffffffffff160217905550612f4b8061005e6000396000f3006060604052600436106101ee576000357c0100000000000000000000000000000000000000000000000000000000900463ffffffff168063025ec81a146101f3578063043106c0146102365780630489fa701461025d5780630bd851581461028b5780630c55d925146102be578063124f2418146102e557806317e7dd221461030c5780631eb020781461034b57806325cf512d146103b957806326df61f6146103ed5780632ec86103146104165780633138ee5c1461044f5780633562fd20146104b95780633836fe6e146104e95780633cc1635c146105225780633eba9ed21461054957806344bfa56e1461057b5780634c77e5ba1461061b5780635a2bf25a146106825780636aebbbd9146106c857806373fb35ee146106f85780637a0e03ec1461075b5780638267a9ee1461079c57806384d7c99d146107c35780638da5cb5b146107ea5780639007127b1461083f57806393fe42481461087a5780639420e58d146108a1578063a209a29c146108f2578063a77aa49e14610992578063a98ad199146109c2578063ba69fcaa146109fb578063bdc963d814610a22578063c8d1c01714610a5d578063c92c5b7b14610a8d578063c9a52d2c14610ad4578063dbf7dc0c14610b0f578063dc02511e14610c12578063f2fde38b14610c40578063f586606614610c79575b600080fd5b34156101fe57600080fd5b610218600480803560001916906020019091905050610cb4565b60405180826000191660001916815260200191505060405180910390f35b341561024157600080fd5b61025b600480803560001916906020019091905050610cd9565b005b341561026857600080fd5b61028960048080359060200190820180359060200191909192905050610dc9565b005b341561029657600080fd5b6102bc60048080356000191690602001909190803560ff16906020019091905050610eca565b005b34156102c957600080fd5b6102e3600480803560001916906020019091905050610fb1565b005b34156102f057600080fd5b61030a60048080356000191690602001909190505061108a565b005b341561031757600080fd5b61033160048080356000191690602001909190505061115b565b604051808215151515815260200191505060405180910390f35b341561035657600080fd5b6103a360048080359060200190820180359060200190808060200260200160405190810160405280939291908181526020018383602002808284378201915050505050509190505061118d565b6040518082815260200191505060405180910390f35b34156103c457600080fd5b6103eb600480803560001916906020019091908035600019169060200190919050506111e3565b005b34156103f857600080fd5b6104006112ba565b6040518082815260200191505060405180910390f35b341561042157600080fd5b61043960048080351515906020019091905050611378565b6040518082815260200191505060405180910390f35b341561045a57600080fd5b610462611393565b6040518080602001828103825283818151815260200191508051906020019060200280838360005b838110156104a557808201518184015260208101905061048a565b505050509050019250505060405180910390f35b34156104c457600080fd5b6104e76004808035600019169060200190919080359060200190919050506114fd565b005b34156104f457600080fd5b610520600480803573ffffffffffffffffffffffffffffffffffffffff169060200190919050506115d0565b005b341561052d57600080fd5b6105476004808035600019169060200190919050506116e9565b005b341561055457600080fd5b61057960048080356000191690602001909190803515159060200190919050506117c6565b005b341561058657600080fd5b6105a06004808035600019169060200190919050506118ac565b6040518080602001828103825283818151815260200191508051906020019080838360005b838110156105e05780820151818401526020810190506105c5565b50505050905090810190601f16801561060d5780820380516001836020036101000a031916815260200191505b509250505060405180910390f35b341561062657600080fd5b61064060048080356000191690602001909190505061196f565b604051808273ffffffffffffffffffffffffffffffffffffffff1673ffffffffffffffffffffffffffffffffffffffff16815260200191505060405180910390f35b341561068d57600080fd5b6106c660048080356000191690602001909190803573ffffffffffffffffffffffffffffffffffffffff169060200190919050506119b4565b005b34156106d357600080fd5b6106f6600480803560001916906020019091908035906020019091905050611ac1565b005b341561070357600080fd5b6107196004808035906020019091905050611bb8565b604051808273ffffffffffffffffffffffffffffffffffffffff1673ffffffffffffffffffffffffffffffffffffffff16815260200191505060405180910390f35b341561076657600080fd5b610780600480803560001916906020019091905050611bf7565b604051808260ff1660ff16815260200191505060405180910390f35b34156107a757600080fd5b6107c1600480803560001916906020019091905050611c29565b005b34156107ce57600080fd5b6107e8600480803560001916906020019091905050611cfa565b005b34156107f557600080fd5b6107fd611dd7565b604051808273ffffffffffffffffffffffffffffffffffffffff1673ffffffffffffffffffffffffffffffffffffffff16815260200191505060405180910390f35b341561084a57600080fd5b610864600480803560001916906020019091905050611dfc565b6040518082815260200191505060405180910390f35b341561088557600080fd5b61089f600480803560001916906020019091905050611e21565b005b34156108ac57600080fd5b6108d8600480803573ffffffffffffffffffffffffffffffffffffffff16906020019091905050611ef2565b604051808215151515815260200191505060405180910390f35b34156108fd57600080fd5b610917600480803560001916906020019091905050611f12565b6040518080602001828103825283818151815260200191508051906020019080838360005b8381101561095757808201518184015260208101905061093c565b50505050905090810190601f1680156109845780820380516001836020036101000a031916815260200191505b509250505060405180910390f35b341561099d57600080fd5b6109c0600480803560001916906020019091908035906020019091905050611fd5565b005b34156109cd57600080fd5b6109f9600480803573ffffffffffffffffffffffffffffffffffffffff169060200190919050506120a8565b005b3415610a0657600080fd5b610a2060048080356000191690602001909190505061215e565b005b3415610a2d57600080fd5b610a47600480803560001916906020019091905050612237565b6040518082815260200191505060405180910390f35b3415610a6857600080fd5b610a8b60048080356000191690602001909190803590602001909190505061225c565b005b3415610a9857600080fd5b610abe60048080356000191690602001909190803560ff16906020019091905050612353565b6040518082815260200191505060405180910390f35b3415610adf57600080fd5b610b0d6004808035600019169060200190919080359060200190820180359060200191909192905050612418565b005b3415610b1a57600080fd5b610b4f6004808035906020019082018035906020019190919290803590602001908201803590602001919091929050506124f7565b604051808060200180602001838103835285818151815260200191508051906020019060200280838360005b83811015610b96578082015181840152602081019050610b7b565b50505050905001838103825284818151815260200191508051906020019080838360005b83811015610bd5578082015181840152602081019050610bba565b50505050905090810190601f168015610c025780820380516001836020036101000a031916815260200191505b5094505050505060405180910390f35b3415610c1d57600080fd5b610c3e60048080359060200190820180359060200191909192905050612756565b005b3415610c4b57600080fd5b610c77600480803573ffffffffffffffffffffffffffffffffffffffff169060200190919050506128e4565b005b3415610c8457600080fd5b610cb26004808035600019169060200190919080359060200190820180359060200191909192905050612a39565b005b6000600860008360001916600019168152602001908152602001600020549050919050565b600260003373ffffffffffffffffffffffffffffffffffffffff1673ffffffffffffffffffffffffffffffffffffffff16815260200190815260200160002060009054906101000a900460ff1680610d7d57506000809054906101000a900473ffffffffffffffffffffffffffffffffffffffff1673ffffffffffffffffffffffffffffffffffffffff163373ffffffffffffffffffffffffffffffffffffffff16145b1515610d8857600080fd5b60066000826000191660001916815260200190815260200160002060006101000a81549073ffffffffffffffffffffffffffffffffffffffff021916905550565b60008060009054906101000a900473ffffffffffffffffffffffffffffffffffffffff1673ffffffffffffffffffffffffffffffffffffffff163373ffffffffffffffffffffffffffffffffffffffff16141515610e2657600080fd5b600090505b82829050811015610ec5576000600260008585858181101515610e4a57fe5b9050602002013573ffffffffffffffffffffffffffffffffffffffff1673ffffffffffffffffffffffffffffffffffffffff1673ffffffffffffffffffffffffffffffffffffffff16815260200190815260200160002060006101000a81548160ff0219169083151502179055508080600101915050610e2b565b505050565b600260003373ffffffffffffffffffffffffffffffffffffffff1673ffffffffffffffffffffffffffffffffffffffff16815260200190815260200160002060009054906101000a900460ff1680610f6e57506000809054906101000a900473ffffffffffffffffffffffffffffffffffffffff1673ffffffffffffffffffffffffffffffffffffffff163373ffffffffffffffffffffffffffffffffffffffff16145b1515610f7957600080fd5b8060036000846000191660001916815260200190815260200160002060006101000a81548160ff021916908360ff1602179055505050565b600260003373ffffffffffffffffffffffffffffffffffffffff1673ffffffffffffffffffffffffffffffffffffffff16815260200190815260200160002060009054906101000a900460ff168061105557506000809054906101000a900473ffffffffffffffffffffffffffffffffffffffff1673ffffffffffffffffffffffffffffffffffffffff163373ffffffffffffffffffffffffffffffffffffffff16145b151561106057600080fd5b60076000826000191660001916815260200190815260200160002060006110879190612cd4565b50565b600260003373ffffffffffffffffffffffffffffffffffffffff1673ffffffffffffffffffffffffffffffffffffffff16815260200190815260200160002060009054906101000a900460ff168061112e57506000809054906101000a900473ffffffffffffffffffffffffffffffffffffffff1673ffffffffffffffffffffffffffffffffffffffff163373ffffffffffffffffffffffffffffffffffffffff16145b151561113957600080fd5b6008600082600019166000191681526020019081526020016000206000905550565b600060096000836000191660001916815260200190815260200160002060009054906101000a900460ff169050919050565b60008060009150600090505b82518110156111da57600783828151811015156111b257fe5b9060200190602002015160ff161415156111cd576001820191505b8080600101915050611199565b81915050919050565b600260003373ffffffffffffffffffffffffffffffffffffffff1673ffffffffffffffffffffffffffffffffffffffff16815260200190815260200160002060009054906101000a900460ff168061128757506000809054906101000a900473ffffffffffffffffffffffffffffffffffffffff1673ffffffffffffffffffffffffffffffffffffffff163373ffffffffffffffffffffffffffffffffffffffff16145b151561129257600080fd5b8060086000846000191660001916815260200190815260200160002081600019169055505050565b600080600090505b60018054905081101561137157600260006001838154811015156112e257fe5b906000526020600020900160009054906101000a900473ffffffffffffffffffffffffffffffffffffffff1673ffffffffffffffffffffffffffffffffffffffff1673ffffffffffffffffffffffffffffffffffffffff16815260200190815260200160002060009054906101000a900460ff16156113645781806001019250505b80806001019150506112c2565b8191505090565b60008115611389576001905061138e565b600090505b919050565b61139b612d1c565b60006113a56112ba565b6040518059106113b25750595b90808252806020026020018201604052509150600090505b6001805490508110156114f657600260006001838154811015156113ea57fe5b906000526020600020900160009054906101000a900473ffffffffffffffffffffffffffffffffffffffff1673ffffffffffffffffffffffffffffffffffffffff1673ffffffffffffffffffffffffffffffffffffffff16815260200190815260200160002060009054906101000a900460ff16156114e95760018181548110151561147257fe5b906000526020600020900160009054906101000a900473ffffffffffffffffffffffffffffffffffffffff1682828151811015156114ac57fe5b9060200190602002019073ffffffffffffffffffffffffffffffffffffffff16908173ffffffffffffffffffffffffffffffffffffffff16815250505b80806001019150506113ca565b8191505090565b600260003373ffffffffffffffffffffffffffffffffffffffff1673ffffffffffffffffffffffffffffffffffffffff16815260200190815260200160002060009054906101000a900460ff16806115a157506000809054906101000a900473ffffffffffffffffffffffffffffffffffffffff1673ffffffffffffffffffffffffffffffffffffffff163373ffffffffffffffffffffffffffffffffffffffff16145b15156115ac57600080fd5b80600460008460001916600019168152602001908152602001600020819055505050565b6000809054906101000a900473ffffffffffffffffffffffffffffffffffffffff1673ffffffffffffffffffffffffffffffffffffffff163373ffffffffffffffffffffffffffffffffffffffff1614151561162b57600080fd5b6001600260008373ffffffffffffffffffffffffffffffffffffffff1673ffffffffffffffffffffffffffffffffffffffff16815260200190815260200160002060006101000a81548160ff021916908315150217905550600180548060010182816116979190612d30565b9160005260206000209001600083909190916101000a81548173ffffffffffffffffffffffffffffffffffffffff021916908373ffffffffffffffffffffffffffffffffffffffff1602179055505050565b600260003373ffffffffffffffffffffffffffffffffffffffff1673ffffffffffffffffffffffffffffffffffffffff16815260200190815260200160002060009054906101000a900460ff168061178d57506000809054906101000a900473ffffffffffffffffffffffffffffffffffffffff1673ffffffffffffffffffffffffffffffffffffffff163373ffffffffffffffffffffffffffffffffffffffff16145b151561179857600080fd5b60096000826000191660001916815260200190815260200160002060006101000a81549060ff021916905550565b600260003373ffffffffffffffffffffffffffffffffffffffff1673ffffffffffffffffffffffffffffffffffffffff16815260200190815260200160002060009054906101000a900460ff168061186a57506000809054906101000a900473ffffffffffffffffffffffffffffffffffffffff1673ffffffffffffffffffffffffffffffffffffffff163373ffffffffffffffffffffffffffffffffffffffff16145b151561187557600080fd5b8060096000846000191660001916815260200190815260200160002060006101000a81548160ff0219169083151502179055505050565b6118b4612d5c565b6007600083600019166000191681526020019081526020016000208054600181600116156101000203166002900480601f0160208091040260200160405190810160405280929190818152602001828054600181600116156101000203166002900480156119635780601f1061193857610100808354040283529160200191611963565b820191906000526020600020905b81548152906001019060200180831161194657829003601f168201915b50505050509050919050565b600060066000836000191660001916815260200190815260200160002060009054906101000a900473ffffffffffffffffffffffffffffffffffffffff169050919050565b600260003373ffffffffffffffffffffffffffffffffffffffff1673ffffffffffffffffffffffffffffffffffffffff16815260200190815260200160002060009054906101000a900460ff1680611a5857506000809054906101000a900473ffffffffffffffffffffffffffffffffffffffff1673ffffffffffffffffffffffffffffffffffffffff163373ffffffffffffffffffffffffffffffffffffffff16145b1515611a6357600080fd5b8060066000846000191660001916815260200190815260200160002060006101000a81548173ffffffffffffffffffffffffffffffffffffffff021916908373ffffffffffffffffffffffffffffffffffffffff1602179055505050565b600260003373ffffffffffffffffffffffffffffffffffffffff1673ffffffffffffffffffffffffffffffffffffffff16815260200190815260200160002060009054906101000a900460ff1680611b6557506000809054906101000a900473ffffffffffffffffffffffffffffffffffffffff1673ffffffffffffffffffffffffffffffffffffffff163373ffffffffffffffffffffffffffffffffffffffff16145b1515611b7057600080fd5b611b956004600084600019166000191681526020019081526020016000205482612ba6565b600460008460001916600019168152602001908152602001600020819055505050565b600181815481101515611bc757fe5b90600052602060002090016000915054906101000a900473ffffffffffffffffffffffffffffffffffffffff1681565b600060036000836000191660001916815260200190815260200160002060009054906101000a900460ff169050919050565b600260003373ffffffffffffffffffffffffffffffffffffffff1673ffffffffffffffffffffffffffffffffffffffff16815260200190815260200160002060009054906101000a900460ff1680611ccd57506000809054906101000a900473ffffffffffffffffffffffffffffffffffffffff1673ffffffffffffffffffffffffffffffffffffffff163373ffffffffffffffffffffffffffffffffffffffff16145b1515611cd857600080fd5b600a600082600019166000191681526020019081526020016000206000905550565b600260003373ffffffffffffffffffffffffffffffffffffffff1673ffffffffffffffffffffffffffffffffffffffff16815260200190815260200160002060009054906101000a900460ff1680611d9e57506000809054906101000a900473ffffffffffffffffffffffffffffffffffffffff1673ffffffffffffffffffffffffffffffffffffffff163373ffffffffffffffffffffffffffffffffffffffff16145b1515611da957600080fd5b60036000826000191660001916815260200190815260200160002060006101000a81549060ff021916905550565b6000809054906101000a900473ffffffffffffffffffffffffffffffffffffffff1681565b6000600a60008360001916600019168152602001908152602001600020549050919050565b600260003373ffffffffffffffffffffffffffffffffffffffff1673ffffffffffffffffffffffffffffffffffffffff16815260200190815260200160002060009054906101000a900460ff1680611ec557506000809054906101000a900473ffffffffffffffffffffffffffffffffffffffff1673ffffffffffffffffffffffffffffffffffffffff163373ffffffffffffffffffffffffffffffffffffffff16145b1515611ed057600080fd5b6004600082600019166000191681526020019081526020016000206000905550565b60026020528060005260406000206000915054906101000a900460ff1681565b611f1a612d70565b6005600083600019166000191681526020019081526020016000208054600181600116156101000203166002900480601f016020809104026020016040519081016040528092919081815260200182805460018160011615610100020316600290048015611fc95780601f10611f9e57610100808354040283529160200191611fc9565b820191906000526020600020905b815481529060010190602001808311611fac57829003601f168201915b50505050509050919050565b600260003373ffffffffffffffffffffffffffffffffffffffff1673ffffffffffffffffffffffffffffffffffffffff16815260200190815260200160002060009054906101000a900460ff168061207957506000809054906101000a900473ffffffffffffffffffffffffffffffffffffffff1673ffffffffffffffffffffffffffffffffffffffff163373ffffffffffffffffffffffffffffffffffffffff16145b151561208457600080fd5b80600a60008460001916600019168152602001908152602001600020819055505050565b6000809054906101000a900473ffffffffffffffffffffffffffffffffffffffff1673ffffffffffffffffffffffffffffffffffffffff163373ffffffffffffffffffffffffffffffffffffffff1614151561210357600080fd5b6000600260008373ffffffffffffffffffffffffffffffffffffffff1673ffffffffffffffffffffffffffffffffffffffff16815260200190815260200160002060006101000a81548160ff02191690831515021790555050565b600260003373ffffffffffffffffffffffffffffffffffffffff1673ffffffffffffffffffffffffffffffffffffffff16815260200190815260200160002060009054906101000a900460ff168061220257506000809054906101000a900473ffffffffffffffffffffffffffffffffffffffff1673ffffffffffffffffffffffffffffffffffffffff163373ffffffffffffffffffffffffffffffffffffffff16145b151561220d57600080fd5b60056000826000191660001916815260200190815260200160002060006122349190612d84565b50565b6000600460008360001916600019168152602001908152602001600020549050919050565b600260003373ffffffffffffffffffffffffffffffffffffffff1673ffffffffffffffffffffffffffffffffffffffff16815260200190815260200160002060009054906101000a900460ff168061230057506000809054906101000a900473ffffffffffffffffffffffffffffffffffffffff1673ffffffffffffffffffffffffffffffffffffffff163373ffffffffffffffffffffffffffffffffffffffff16145b151561230b57600080fd5b6123306004600084600019166000191681526020019081526020016000205482612bbf565b600460008460001916600019168152602001908152602001600020819055505050565b600060018260ff1614156123795761237261236d8461115b565b611378565b9050612412565b60028260ff1614156123985761238e83611bf7565b60ff169050612412565b60038260ff1614156123b4576123ad83612237565b9050612412565b60048260ff1614156123ed576123c98361196f565b73ffffffffffffffffffffffffffffffffffffffff16600102600190049050612412565b60058260ff16141561240d5761240283610cb4565b600190049050612412565b600090505b92915050565b600260003373ffffffffffffffffffffffffffffffffffffffff1673ffffffffffffffffffffffffffffffffffffffff16815260200190815260200160002060009054906101000a900460ff16806124bc57506000809054906101000a900473ffffffffffffffffffffffffffffffffffffffff1673ffffffffffffffffffffffffffffffffffffffff163373ffffffffffffffffffffffffffffffffffffffff16145b15156124c757600080fd5b818160076000866000191660001916815260200190815260200160002091906124f1929190612dcc565b50505050565b6124ff612e4c565b612507612d70565b6000806000806000806125488a8a8080602002602001604051908101604052809392919081815260200183836020028082843782019150505050505061118d565b9550898990508c8c905081151561255b57fe5b04945085850260405180591061256e5750595b90808252806020026020018201604052509750600092505b8483101561274157600091505b898990508210156126da57818a8a9050840201905060078a8a8481811015156125b857fe5b9050602002013560ff1660ff16141561266f5761260e6125f76125f28e8e8581811015156125e257fe5b9050602002013560001916611f12565b612bdd565b61260089612bdd565b612c0b90919063ffffffff16565b96506126686126516040805190810160405280600e81526020017f3636362d2d4f444c4c2d2d363636000000000000000000000000000000000000815250612bdd565b61265a89612bdd565b612c0b90919063ffffffff16565b96506126cd565b6126a88c8c83818110151561268057fe5b90506020020135600019168b8b85818110151561269957fe5b9050602002013560ff16612353565b88858151811015156126b657fe5b906020019060200201818152505083806001019450505b8180600101925050612593565b61273261271b6040805190810160405280601381526020017f3636362d2d4f444c4c2d4c4953542d2d36363600000000000000000000000000815250612bdd565b61272489612bdd565b612c0b90919063ffffffff16565b96508280600101935050612586565b87879750975050505050505094509492505050565b60008060009054906101000a900473ffffffffffffffffffffffffffffffffffffffff1673ffffffffffffffffffffffffffffffffffffffff163373ffffffffffffffffffffffffffffffffffffffff161415156127b357600080fd5b600090505b828290508110156128df5760016002600085858581811015156127d757fe5b9050602002013573ffffffffffffffffffffffffffffffffffffffff1673ffffffffffffffffffffffffffffffffffffffff1673ffffffffffffffffffffffffffffffffffffffff16815260200190815260200160002060006101000a81548160ff021916908315150217905550600180548060010182816128599190612d30565b91600052602060002090016000858585818110151561287457fe5b9050602002013573ffffffffffffffffffffffffffffffffffffffff16909190916101000a81548173ffffffffffffffffffffffffffffffffffffffff021916908373ffffffffffffffffffffffffffffffffffffffff1602179055505080806001019150506127b8565b505050565b6000809054906101000a900473ffffffffffffffffffffffffffffffffffffffff1673ffffffffffffffffffffffffffffffffffffffff163373ffffffffffffffffffffffffffffffffffffffff1614151561293f57600080fd5b600073ffffffffffffffffffffffffffffffffffffffff168173ffffffffffffffffffffffffffffffffffffffff161415151561297b57600080fd5b8073ffffffffffffffffffffffffffffffffffffffff166000809054906101000a900473ffffffffffffffffffffffffffffffffffffffff1673ffffffffffffffffffffffffffffffffffffffff167f8be0079c531659141344cd1fd0a4f28419497f9722a3daafe3b4186f6b6457e060405160405180910390a3806000806101000a81548173ffffffffffffffffffffffffffffffffffffffff021916908373ffffffffffffffffffffffffffffffffffffffff16021790555050565b600260003373ffffffffffffffffffffffffffffffffffffffff1673ffffffffffffffffffffffffffffffffffffffff16815260200190815260200160002060009054906101000a900460ff1680612add57506000809054906101000a900473ffffffffffffffffffffffffffffffffffffffff1673ffffffffffffffffffffffffffffffffffffffff163373ffffffffffffffffffffffffffffffffffffffff16145b1515612ae857600080fd5b612b72612b2683838080601f016020809104026020016040519081016040528093929190818152602001838380828437820191505050505050612bdd565b612b646040805190810160405280600181526020017f5e00000000000000000000000000000000000000000000000000000000000000815250612bdd565b612c0b90919063ffffffff16565b6005600085600019166000191681526020019081526020016000209080519060200190612ba0929190612e60565b50505050565b6000828211151515612bb457fe5b818303905092915050565b6000808284019050838110151515612bd357fe5b8091505092915050565b612be5612ee0565b600060208301905060408051908101604052808451815260200182815250915050919050565b612c13612d70565b612c1b612d70565b60008360000151856000015101604051805910612c355750595b9080825280601f01601f19166020018201604052509150602082019050612c658186602001518760000151612c89565b612c7e8560000151820185602001518660000151612c89565b819250505092915050565b60005b602082101515612cb15782518452602084019350602083019250602082039150612c8c565b6001826020036101000a0390508019835116818551168181178652505050505050565b50805460018160011615610100020316600290046000825580601f10612cfa5750612d19565b601f016020900490600052602060002090810190612d189190612efa565b5b50565b602060405190810160405280600081525090565b815481835581811511612d5757818360005260206000209182019101612d569190612efa565b5b505050565b602060405190810160405280600081525090565b602060405190810160405280600081525090565b50805460018160011615610100020316600290046000825580601f10612daa5750612dc9565b601f016020900490600052602060002090810190612dc89190612efa565b5b50565b828054600181600116156101000203166002900490600052602060002090601f016020900481019282601f10612e0d57803560ff1916838001178555612e3b565b82800160010185558215612e3b579182015b82811115612e3a578235825591602001919060010190612e1f565b5b509050612e489190612efa565b5090565b602060405190810160405280600081525090565b828054600181600116156101000203166002900490600052602060002090601f016020900481019282601f10612ea157805160ff1916838001178555612ecf565b82800160010185558215612ecf579182015b82811115612ece578251825591602001919060010190612eb3565b5b509050612edc9190612efa565b5090565b604080519081016040528060008152602001600081525090565b612f1c91905b80821115612f18576000816000905550600101612f00565b5090565b905600a165627a7a7230582082e63bc5617bc563a11e2355a19ba1a2cb1cbd45592501f92f9753e62c148f540029",
  "source": "pragma solidity 0.4.18;\n\nimport \"../zeppelin/ownership/Ownable.sol\";\nimport \"../zeppelin/math/SafeMath.sol\";\nimport \"../lib/arachnid/solidity-stringutils/strings.sol\";\n\ncontract DB is Ownable {\n  using strings for *;\n\n  address[] public permittedContractsAddresses;\n  mapping(address => bool) public permissionStatusForContract;\n\n  modifier onlyPermittedContractOrOwner {\n    require(permissionStatusForContract[msg.sender] || msg.sender == owner);\n    _;\n  }\n\n  function DB() public {\n\n  }\n\n  function addPermittedContract(address contractAddress) external\n  onlyOwner {\n    permissionStatusForContract[contractAddress] = true;\n    permittedContractsAddresses.push(contractAddress);\n  }\n\n  function addPermittedContracts(address[] addresses) external\n  onlyOwner {\n    for (uint i = 0; i < addresses.length; i++) {\n      permissionStatusForContract[addresses[i]] = true;\n      permittedContractsAddresses.push(addresses[i]);\n    }\n  }\n\n  function removePermittedContract(address addresses) external\n  onlyOwner {\n    permissionStatusForContract[addresses] = false;\n  }\n\n  function removePermittedContracts(address[] addresses) external\n  onlyOwner {\n    for (uint i = 0; i < addresses.length; i++) {\n      permissionStatusForContract[addresses[i]] = false;\n    }\n  }\n\n  function permittedContractsCount() public view returns(uint count) {\n    for (uint i = 0; i < permittedContractsAddresses.length; i++) {\n      if (permissionStatusForContract[permittedContractsAddresses[i]]) {\n        count++;\n      }\n    }\n\n    return count;\n  }\n\n  function getPermittedContracts() external constant returns(address[] addresses) {\n    addresses = new address[](permittedContractsCount());\n    for (uint i = 0; i < permittedContractsAddresses.length; i++) {\n      if (permissionStatusForContract[permittedContractsAddresses[i]]) {\n        addresses[i] = permittedContractsAddresses[i];\n      }\n    }\n\n    return addresses;\n  }\n\n  mapping(bytes32 => uint8) UInt8Storage;\n\n  function getUInt8Value(bytes32 record) public view returns (uint8){\n    return UInt8Storage[record];\n  }\n\n  function setUInt8Value(bytes32 record, uint8 value) public\n    onlyPermittedContractOrOwner\n  {\n    UInt8Storage[record] = value;\n  }\n\n  function deleteUInt8Value(bytes32 record) external\n    onlyPermittedContractOrOwner\n  {\n    delete UInt8Storage[record];\n  }\n\n  mapping(bytes32 => uint) UIntStorage;\n\n  function getUIntValue(bytes32 record) public view returns (uint){\n    return UIntStorage[record];\n  }\n\n  function setUIntValue(bytes32 record, uint value) public\n    onlyPermittedContractOrOwner\n  {\n    UIntStorage[record] = value;\n  }\n\n  function addUIntValue(bytes32 record, uint value) external\n    onlyPermittedContractOrOwner\n  {\n    UIntStorage[record] = SafeMath.add(UIntStorage[record], value);\n  }\n\n  function subUIntValue(bytes32 record, uint value) external\n    onlyPermittedContractOrOwner\n  {\n    UIntStorage[record] = SafeMath.sub(UIntStorage[record], value);\n  }\n\n  function deleteUIntValue(bytes32 record) external\n    onlyPermittedContractOrOwner\n  {\n    delete UIntStorage[record];\n  }\n\n  mapping(bytes32 => string) StringStorage;\n\n  function getStringValue(bytes32 record) public view returns (string){\n    return StringStorage[record];\n  }\n\n  function setStringValue(bytes32 record, string value) external\n    onlyPermittedContractOrOwner\n  {\n    StringStorage[record] = \"^\".toSlice().concat(value.toSlice());\n  }\n\n  function deleteStringValue(bytes32 record) external\n    onlyPermittedContractOrOwner\n  {\n    delete StringStorage[record];\n  }\n\n  mapping(bytes32 => address) AddressStorage;\n\n  function getAddressValue(bytes32 record) public view returns (address){\n    return AddressStorage[record];\n  }\n\n  function setAddressValue(bytes32 record, address value) external\n    onlyPermittedContractOrOwner\n  {\n    AddressStorage[record] = value;\n  }\n\n  function deleteAddressValue(bytes32 record) external\n    onlyPermittedContractOrOwner\n  {\n    delete AddressStorage[record];\n  }\n\n  mapping(bytes32 => bytes) BytesStorage;\n\n  function getBytesValue(bytes32 record) public view returns (bytes){\n    return BytesStorage[record];\n  }\n\n  function setBytesValue(bytes32 record, bytes value) external\n    onlyPermittedContractOrOwner\n  {\n    BytesStorage[record] = value;\n  }\n\n  function deleteBytesValue(bytes32 record) external\n    onlyPermittedContractOrOwner\n  {\n    delete BytesStorage[record];\n  }\n\n  mapping(bytes32 => bytes32) Bytes32Storage;\n\n  function getBytes32Value(bytes32 record) public view returns (bytes32){\n    return Bytes32Storage[record];\n  }\n\n  function setBytes32Value(bytes32 record, bytes32 value) external\n    onlyPermittedContractOrOwner\n  {\n    Bytes32Storage[record] = value;\n  }\n\n  function deleteBytes32Value(bytes32 record) external\n    onlyPermittedContractOrOwner\n  {\n    delete Bytes32Storage[record];\n  }\n\n  mapping(bytes32 => bool) BooleanStorage;\n\n  function getBooleanValue(bytes32 record) public view returns (bool){\n    return BooleanStorage[record];\n  }\n\n  function setBooleanValue(bytes32 record, bool value) external\n    onlyPermittedContractOrOwner\n  {\n    BooleanStorage[record] = value;\n  }\n\n  function deleteBooleanValue(bytes32 record) external\n    onlyPermittedContractOrOwner\n  {\n    delete BooleanStorage[record];\n  }\n\n  mapping(bytes32 => int) IntStorage;\n\n  function getIntValue(bytes32 record) public view returns (int){\n    return IntStorage[record];\n  }\n\n  function setIntValue(bytes32 record, int value) external\n    onlyPermittedContractOrOwner\n  {\n    IntStorage[record] = value;\n  }\n\n  function deleteIntValue(bytes32 record) external\n    onlyPermittedContractOrOwner\n  {\n    delete IntStorage[record];\n  }\n\n  function booleanToUInt(bool x) public pure returns (uint) {\n    if (x) {\n      return 1;\n    } else {\n      return 0;\n    }\n  }\n\n  function getUIntValueConverted(bytes32 record, uint8 uintType) public view returns(uint) {\n    // types: 1 => boolean, 2 => uint8, 3 => uint, 4 => address, 5 => bytes32, 7 => string\n    if (uintType == 1) {\n      return booleanToUInt(getBooleanValue(record));\n    } else if (uintType == 2) {\n      return uint(getUInt8Value(record));\n    } else if (uintType == 3) {\n      return getUIntValue(record);\n    } else if (uintType == 4) {\n      return uint(bytes32(getAddressValue(record)));\n    } else if (uintType == 5) {\n      return uint(getBytes32Value(record));\n    } else {\n      return 0;\n    }\n  }\n\n  function getUIntTypesCount(uint8[] types) public pure returns(uint count) {\n    count = 0;\n    for (uint i = 0; i < types.length ; i++) {\n      if (types[i] != 7) { // type 7 is for strings\n        count += 1;\n      }\n    }\n\n    return count;\n  }\n\n  function getEntityList(bytes32[] records, uint8[] types)\n    external view returns\n  (\n    uint[] items,\n    string strings\n  )\n  {\n    uint uintTypesCount = getUIntTypesCount(types);\n    /*\n      itemsCount gives the number of entities we're basing the search on. Search may be needed for several entities for which types[] is the same for all of them. E.g. get the name, email, gender, and state of 5 people:\n      records: [\n        keccak256(\"user/name\", \"0x9838cdba...\"), keccak256(\"user/email\", \"0x9838cdba...\"), keccak256(\"user/gender\", \"0x9838cdba...\"), keccak256(\"user/state\", \"0x9838cdba...\"),\n\n        keccak256(\"user/name\", \"0xabc63533...\"), keccak256(\"user/email\", \"0xabc63533...\"), keccak256(\"user/gender\", \"0xabc63533...\"), keccak256(\"user/state\", \"0xabc63533...\"),\n\n        keccak256(\"user/name\", \"0x08253befd...\"), keccak256(\"user/email\", \"0x08253befd...\"), keccak256(\"user/gender\", \"0x08253befd...\"), keccak256(\"user/state\", \"0x08253befd...\"),\n\n        keccak256(\"user/name\", \"0x0b6354a...\"), keccak256(\"user/email\", \"0x0b6354a...\"), keccak256(\"user/gender\", \"0x0b6354a...\"), keccak256(\"user/state\", \"0x0b6354a...\"),\n\n        keccak256(\"user/name\", \"0x07352bac36...\"), keccak256(\"user/email\", \"0x07352bac36...\"), keccak256(\"user/gender\", \"0x07352bac36...\"), keccak256(\"user/state\", \"0x07352bac36...\"),\n\n      ],\n      types: [7, 7, 5, 3]\n      In this case, records.length = 20, types.length = 4 => itemsCount = 5 [the search is being done for 5 entities]\n    */\n    uint itemsCount = records.length / types.length;\n    items = new uint[](itemsCount * uintTypesCount);\n    uint k;\n    for (uint i = 0; i < itemsCount; i++) {\n      for (uint j = 0; j < types.length; j++) {\n        uint r_i = (i * types.length) + j;\n        if (types[j] == 7) {\n          strings = strings.toSlice().concat(getStringValue(records[r_i]).toSlice());\n          strings = strings.toSlice().concat(\"666--ODLL--666\".toSlice());\n        } else {\n          items[k] = getUIntValueConverted(records[r_i], types[j]);\n          k++;\n        }\n      }\n      strings = strings.toSlice().concat(\"666--ODLL-LIST--666\".toSlice());\n    }\n\n    return (items, strings);\n  }\n}\n",
  "sourcePath": "/Users/danielokwufulueze/dev/vue/apps/oraldatalink/contracts/odll/DB.sol",
  "compiler": {
    "name": "solc",
    "version": "0.4.18+commit.9cf6e910.Emscripten.clang"
  },
  "schemaVersion": "1.0.1",
  "updatedAt": "2017-12-05T01:13:44.165Z"
}