{
  "contractName": "Destructible",
  "abi": [
    {
      "constant": false,
      "inputs": [],
      "name": "destroy",
      "outputs": [],
      "payable": false,
      "stateMutability": "nonpayable",
      "type": "function"
    },
    {
      "constant": true,
      "inputs": [],
      "name": "owner",
      "outputs": [
        {
          "name": "",
          "type": "address"
        }
      ],
      "payable": false,
      "stateMutability": "view",
      "type": "function"
    },
    {
      "constant": false,
      "inputs": [
        {
          "name": "newOwner",
          "type": "address"
        }
      ],
      "name": "transferOwnership",
      "outputs": [],
      "payable": false,
      "stateMutability": "nonpayable",
      "type": "function"
    },
    {
      "constant": false,
      "inputs": [
        {
          "name": "_recipient",
          "type": "address"
        }
      ],
      "name": "destroyAndSend",
      "outputs": [],
      "payable": false,
      "stateMutability": "nonpayable",
      "type": "function"
    },
    {
      "inputs": [],
      "payable": true,
      "stateMutability": "payable",
      "type": "constructor"
    },
    {
      "anonymous": false,
      "inputs": [
        {
          "indexed": true,
          "name": "previousOwner",
          "type": "address"
        },
        {
          "indexed": true,
          "name": "newOwner",
          "type": "address"
        }
      ],
      "name": "OwnershipTransferred",
      "type": "event"
    }
  ],
  "bytecode": "0x606060405260008054600160a060020a033316600160a060020a0319909116179055610205806100306000396000f300606060405263ffffffff7c010000000000000000000000000000000000000000000000000000000060003504166383197ef0811461005d5780638da5cb5b14610072578063f2fde38b146100a1578063f5074f41146100c057600080fd5b341561006857600080fd5b6100706100df565b005b341561007d57600080fd5b610085610108565b604051600160a060020a03909116815260200160405180910390f35b34156100ac57600080fd5b610070600160a060020a0360043516610117565b34156100cb57600080fd5b610070600160a060020a03600435166101b2565b60005433600160a060020a039081169116146100fa57600080fd5b600054600160a060020a0316ff5b600054600160a060020a031681565b60005433600160a060020a0390811691161461013257600080fd5b600160a060020a038116151561014757600080fd5b600054600160a060020a0380831691167f8be0079c531659141344cd1fd0a4f28419497f9722a3daafe3b4186f6b6457e060405160405180910390a36000805473ffffffffffffffffffffffffffffffffffffffff1916600160a060020a0392909216919091179055565b60005433600160a060020a039081169116146101cd57600080fd5b80600160a060020a0316ff00a165627a7a7230582059bb660b1f0219d487219498f55ed64307f466fba6a71707cf230e39b140dcbb0029",
  "source": "pragma solidity 0.4.17;\n\n\nimport \"../ownership/Ownable.sol\";\n\n\n/**\n * @title Destructible\n * @dev Base contract that can be destroyed by owner. All funds in contract will be sent to the owner.\n */\ncontract Destructible is Ownable {\n\n  function Destructible() payable { }\n\n  /**\n   * @dev Transfers the current balance to the owner and terminates the contract.\n   */\n  function destroy() onlyOwner public {\n    selfdestruct(owner);\n  }\n\n  function destroyAndSend(address _recipient) onlyOwner public {\n    selfdestruct(_recipient);\n  }\n}\n",
  "sourcePath": "/home/daniel/dev/vue/apps/oral-data-link/contracts/zeppelin/lifecycle/Destructible.sol",
  "schemaVersion": "1.0.0",
  "updatedAt": "2017-10-31T09:08:28.231Z"
}