{
  "contractName": "Escrow",
  "abi": [
    {
      "constant": false,
      "inputs": [
        {
          "name": "userId",
          "type": "address"
        },
        {
          "name": "payee",
          "type": "address"
        },
        {
          "name": "paymentId",
          "type": "uint256"
        }
      ],
      "name": "releaseFundForScan",
      "outputs": [],
      "payable": false,
      "stateMutability": "nonpayable",
      "type": "function"
    },
    {
      "constant": false,
      "inputs": [
        {
          "name": "userId",
          "type": "address"
        },
        {
          "name": "paymentId",
          "type": "uint256"
        }
      ],
      "name": "lockPayment",
      "outputs": [
        {
          "name": "",
          "type": "uint8"
        }
      ],
      "payable": false,
      "stateMutability": "nonpayable",
      "type": "function"
    },
    {
      "constant": true,
      "inputs": [
        {
          "name": "userId",
          "type": "address"
        },
        {
          "name": "payee",
          "type": "address"
        },
        {
          "name": "paymentId",
          "type": "uint256"
        }
      ],
      "name": "smartContractStatus",
      "outputs": [
        {
          "name": "",
          "type": "uint8"
        }
      ],
      "payable": false,
      "stateMutability": "view",
      "type": "function"
    },
    {
      "constant": false,
      "inputs": [
        {
          "name": "userId",
          "type": "address"
        },
        {
          "name": "payee",
          "type": "address"
        },
        {
          "name": "paymentId",
          "type": "uint256"
        }
      ],
      "name": "refund",
      "outputs": [
        {
          "name": "",
          "type": "address"
        }
      ],
      "payable": false,
      "stateMutability": "nonpayable",
      "type": "function"
    },
    {
      "constant": true,
      "inputs": [],
      "name": "owner",
      "outputs": [
        {
          "name": "",
          "type": "address"
        }
      ],
      "payable": false,
      "stateMutability": "view",
      "type": "function"
    },
    {
      "constant": true,
      "inputs": [
        {
          "name": "userId",
          "type": "address"
        },
        {
          "name": "payee",
          "type": "address"
        },
        {
          "name": "paymentId",
          "type": "uint256"
        }
      ],
      "name": "dbAddress",
      "outputs": [
        {
          "name": "",
          "type": "address"
        }
      ],
      "payable": false,
      "stateMutability": "view",
      "type": "function"
    },
    {
      "constant": false,
      "inputs": [
        {
          "name": "userId",
          "type": "address"
        },
        {
          "name": "payee",
          "type": "address"
        },
        {
          "name": "paymentId",
          "type": "uint256"
        }
      ],
      "name": "releaseFundForTreatment",
      "outputs": [],
      "payable": false,
      "stateMutability": "nonpayable",
      "type": "function"
    },
    {
      "inputs": [
        {
          "name": "newOwner",
          "type": "address"
        }
      ],
      "payable": false,
      "stateMutability": "nonpayable",
      "type": "function",
      "constant": false,
      "name": "transferOwnership",
      "outputs": []
    },
    {
      "anonymous": false,
      "inputs": [
        {
          "name": "_dbAddress",
          "type": "address"
        }
      ],
      "name": "PaymentLocked",
      "type": "constructor",
      "payable": false,
      "stateMutability": "nonpayable"
    },
    {
      "anonymous": false,
      "inputs": [],
      "name": "PaymentLocked",
      "type": "event"
    },
    {
      "anonymous": false,
      "inputs": [],
      "name": "FundReleased",
      "type": "event"
    },
    {
      "anonymous": false,
      "inputs": [
        {
          "indexed": false,
          "name": "status",
          "type": "uint8"
        }
      ],
      "name": "Refunded",
      "type": "event"
    },
    {
      "anonymous": false,
      "inputs": [
        {
          "indexed": false,
          "name": "status",
          "type": "uint8"
        },
        {
          "indexed": true,
          "name": "newOwner",
          "type": "address"
        }
      ],
      "name": "OnSmartContractStatusSet",
      "type": "event"
    },
    {
      "anonymous": false,
      "inputs": [
        {
          "indexed": true,
          "name": "previousOwner",
          "type": "address"
        },
        {
          "indexed": true,
          "name": "newOwner",
          "type": "address"
        }
      ],
      "name": "OwnershipTransferred",
      "type": "event"
    }
  ],
  "bytecode": "0x6060604052341561000f57600080fd5b60405160208061429283398101604052808051906020019091905050336000806101000a81548173ffffffffffffffffffffffffffffffffffffffff021916908373ffffffffffffffffffffffffffffffffffffffff16021790555080600160006101000a81548173ffffffffffffffffffffffffffffffffffffffff021916908373ffffffffffffffffffffffffffffffffffffffff160217905550506141d6806100bc6000396000f30060606040526004361061008e576000357c0100000000000000000000000000000000000000000000000000000000900463ffffffff1680630f51a5d6146100935780633f4b1470146100f45780634c8ddddc1461013657806382ad6f35146101655780638da5cb5b146101c657806391e06b6d1461021b578063f0303d0b14610270578063f2fde38b146102d1575b600080fd5b341561009e57600080fd5b6100f2600480803573ffffffffffffffffffffffffffffffffffffffff1690602001909190803573ffffffffffffffffffffffffffffffffffffffff1690602001909190803590602001909190505061030a565b005b34156100ff57600080fd5b610134600480803573ffffffffffffffffffffffffffffffffffffffff16906020019091908035906020019091905050610bae565b005b341561014157600080fd5b610149610dfa565b604051808260ff1660ff16815260200191505060405180910390f35b341561017057600080fd5b6101c4600480803573ffffffffffffffffffffffffffffffffffffffff1690602001909190803573ffffffffffffffffffffffffffffffffffffffff16906020019091908035906020019091905050610e0d565b005b34156101d157600080fd5b6101d9611452565b604051808273ffffffffffffffffffffffffffffffffffffffff1673ffffffffffffffffffffffffffffffffffffffff16815260200191505060405180910390f35b341561022657600080fd5b61022e611477565b604051808273ffffffffffffffffffffffffffffffffffffffff1673ffffffffffffffffffffffffffffffffffffffff16815260200191505060405180910390f35b341561027b57600080fd5b6102cf600480803573ffffffffffffffffffffffffffffffffffffffff1690602001909190803573ffffffffffffffffffffffffffffffffffffffff1690602001909190803590602001909190505061149d565b005b34156102dc57600080fd5b610308600480803573ffffffffffffffffffffffffffffffffffffffff16906020019091905050611d41565b005b6000806000806000808861031d81611e96565b151561032857600080fd5b8760028060ff16600160009054906101000a900473ffffffffffffffffffffffffffffffffffffffff1673ffffffffffffffffffffffffffffffffffffffff16637a0e03ec8460405180807f7061796d656e742f737461746500000000000000000000000000000000000000815250600d0182815260200191505060405180910390206000604051602001526040518263ffffffff167c0100000000000000000000000000000000000000000000000000000000028152600401808260001916600019168152602001915050602060405180830381600087803b151561040d57600080fd5b6102c65a03f1151561041e57600080fd5b5050506040518051905060ff1614151561043757600080fd5b600160009054906101000a900473ffffffffffffffffffffffffffffffffffffffff1673ffffffffffffffffffffffffffffffffffffffff1663bdc963d88b60405180807f7061796d656e742f636173650000000000000000000000000000000000000000815250600c0182815260200191505060405180910390206000604051602001526040518263ffffffff167c0100000000000000000000000000000000000000000000000000000000028152600401808260001916600019168152602001915050602060405180830381600087803b151561051557600080fd5b6102c65a03f1151561052657600080fd5b505050604051805190509850600160009054906101000a900473ffffffffffffffffffffffffffffffffffffffff1673ffffffffffffffffffffffffffffffffffffffff16634c77e5ba8a60405180807f636173652f64656e746973740000000000000000000000000000000000000000815250600c0182815260200191505060405180910390206000604051602001526040518263ffffffff167c0100000000000000000000000000000000000000000000000000000000028152600401808260001916600019168152602001915050602060405180830381600087803b151561061057600080fd5b6102c65a03f1151561062157600080fd5b505050604051805190509750600160009054906101000a900473ffffffffffffffffffffffffffffffffffffffff1673ffffffffffffffffffffffffffffffffffffffff16634c77e5ba8a60405180807f636173652f70617469656e740000000000000000000000000000000000000000815250600c0182815260200191505060405180910390206000604051602001526040518263ffffffff167c0100000000000000000000000000000000000000000000000000000000028152600401808260001916600019168152602001915050602060405180830381600087803b151561070b57600080fd5b6102c65a03f1151561071c57600080fd5b505050604051805190509650600160009054906101000a900473ffffffffffffffffffffffffffffffffffffffff1673ffffffffffffffffffffffffffffffffffffffff1663bdc963d88a60405180807f636173652f7363616e2d6170706c69636174696f6e000000000000000000000081525060150182815260200191505060405180910390206000604051602001526040518263ffffffff167c0100000000000000000000000000000000000000000000000000000000028152600401808260001916600019168152602001915050602060405180830381600087803b151561080657600080fd5b6102c65a03f1151561081757600080fd5b505050604051805190509550600160009054906101000a900473ffffffffffffffffffffffffffffffffffffffff1673ffffffffffffffffffffffffffffffffffffffff1663bdc963d88a60405180807f636173652f616d6f756e74000000000000000000000000000000000000000000815250600b0182815260200191505060405180910390206000604051602001526040518263ffffffff167c0100000000000000000000000000000000000000000000000000000000028152600401808260001916600019168152602001915050602060405180830381600087803b151561090157600080fd5b6102c65a03f1151561091257600080fd5b505050604051805190509450600160009054906101000a900473ffffffffffffffffffffffffffffffffffffffff1673ffffffffffffffffffffffffffffffffffffffff1663bdc963d88a60405180807f636173652f71756f746500000000000000000000000000000000000000000000815250600a0182815260200191505060405180910390206000604051602001526040518263ffffffff167c0100000000000000000000000000000000000000000000000000000000028152600401808260001916600019168152602001915050602060405180830381600087803b15156109fc57600080fd5b6102c65a03f11515610a0d57600080fd5b50505060405180519050935060008514151515610a2957600080fd5b843073ffffffffffffffffffffffffffffffffffffffff163110151515610a4f57600080fd5b600160009054906101000a900473ffffffffffffffffffffffffffffffffffffffff1673ffffffffffffffffffffffffffffffffffffffff16630bd851588b60405180807f7061796d656e742f737461746500000000000000000000000000000000000000815250600d01828152602001915050604051809103902060036040518363ffffffff167c01000000000000000000000000000000000000000000000000000000000281526004018083600019166000191681526020018260ff16815260200192505050600060405180830381600087803b1515610b3057600080fd5b6102c65a03f11515610b4157600080fd5b505050610b74600160009054906101000a900473ffffffffffffffffffffffffffffffffffffffff168989898989611ebd565b7fbdf668fd8ad7844259b56048e0fb90ccfe8e8cb52c510a64ee5fa4daa24450c560405160405180910390a1505050505050505050505050565b81610bb881611e96565b1515610bc357600080fd5b8160018060ff16600160009054906101000a900473ffffffffffffffffffffffffffffffffffffffff1673ffffffffffffffffffffffffffffffffffffffff16637a0e03ec8460405180807f7061796d656e742f737461746500000000000000000000000000000000000000815250600d0182815260200191505060405180910390206000604051602001526040518263ffffffff167c0100000000000000000000000000000000000000000000000000000000028152600401808260001916600019168152602001915050602060405180830381600087803b1515610ca857600080fd5b6102c65a03f11515610cb957600080fd5b5050506040518051905060ff16141515610cd257600080fd5b600160009054906101000a900473ffffffffffffffffffffffffffffffffffffffff1673ffffffffffffffffffffffffffffffffffffffff16630bd851588560405180807f7061796d656e742f737461746500000000000000000000000000000000000000815250600d01828152602001915050604051809103902060026040518363ffffffff167c01000000000000000000000000000000000000000000000000000000000281526004018083600019166000191681526020018260ff16815260200192505050600060405180830381600087803b1515610db357600080fd5b6102c65a03f11515610dc457600080fd5b5050507fccb0a51b39bc24b8dcd2abfbb6c20d93282e14156db191a457a347099fa84ff660405160405180910390a15050505050565b600160149054906101000a900460ff1681565b600080846000809054906101000a900473ffffffffffffffffffffffffffffffffffffffff1673ffffffffffffffffffffffffffffffffffffffff168173ffffffffffffffffffffffffffffffffffffffff161480610e715750610e70816121d5565b5b80610e815750610e80816121fc565b5b1515610e8c57600080fd5b84610e9681611e96565b1515610ea157600080fd5b8460028060ff16600160009054906101000a900473ffffffffffffffffffffffffffffffffffffffff1673ffffffffffffffffffffffffffffffffffffffff16637a0e03ec8460405180807f7061796d656e742f737461746500000000000000000000000000000000000000815250600d0182815260200191505060405180910390206000604051602001526040518263ffffffff167c0100000000000000000000000000000000000000000000000000000000028152600401808260001916600019168152602001915050602060405180830381600087803b1515610f8657600080fd5b6102c65a03f11515610f9757600080fd5b5050506040518051905060ff16141515610fb057600080fd5b600160009054906101000a900473ffffffffffffffffffffffffffffffffffffffff1673ffffffffffffffffffffffffffffffffffffffff16637a0e03ec8860405180807f7061796d656e742f666f722d747970650000000000000000000000000000000081525060100182815260200191505060405180910390206000604051602001526040518263ffffffff167c0100000000000000000000000000000000000000000000000000000000028152600401808260001916600019168152602001915050602060405180830381600087803b151561108e57600080fd5b6102c65a03f1151561109f57600080fd5b5050506040518051905060ff169550600186146111b457600160009054906101000a900473ffffffffffffffffffffffffffffffffffffffff1673ffffffffffffffffffffffffffffffffffffffff1663bdc963d88860405180807f74726561746d656e742f616d6f756e740000000000000000000000000000000081525060100182815260200191505060405180910390206000604051602001526040518263ffffffff167c0100000000000000000000000000000000000000000000000000000000028152600401808260001916600019168152602001915050602060405180830381600087803b151561119457600080fd5b6102c65a03f115156111a557600080fd5b505050604051805190506112ae565b600160009054906101000a900473ffffffffffffffffffffffffffffffffffffffff1673ffffffffffffffffffffffffffffffffffffffff1663bdc963d88860405180807f636173652f616d6f756e74000000000000000000000000000000000000000000815250600b0182815260200191505060405180910390206000604051602001526040518263ffffffff167c0100000000000000000000000000000000000000000000000000000000028152600401808260001916600019168152602001915050602060405180830381600087803b151561129257600080fd5b6102c65a03f115156112a357600080fd5b505050604051805190505b9450600085141515156112c057600080fd5b843073ffffffffffffffffffffffffffffffffffffffff1631101515156112e657600080fd5b600160009054906101000a900473ffffffffffffffffffffffffffffffffffffffff1673ffffffffffffffffffffffffffffffffffffffff16630bd851588860405180807f7061796d656e742f737461746500000000000000000000000000000000000000815250600d01828152602001915050604051809103902060036040518363ffffffff167c01000000000000000000000000000000000000000000000000000000000281526004018083600019166000191681526020018260ff16815260200192505050600060405180830381600087803b15156113c757600080fd5b6102c65a03f115156113d857600080fd5b5050508773ffffffffffffffffffffffffffffffffffffffff166108fc869081150290604051600060405180830381858888f19350505050151561141b57600080fd5b7f8616bbbbad963e4e65b1366f1d75dfb63f9e9704bbbf91fb01bec70849906cf760405160405180910390a1505050505050505050565b6000809054906101000a900473ffffffffffffffffffffffffffffffffffffffff1681565b600160009054906101000a900473ffffffffffffffffffffffffffffffffffffffff1681565b600080600080600080886114b081611e96565b15156114bb57600080fd5b8760028060ff16600160009054906101000a900473ffffffffffffffffffffffffffffffffffffffff1673ffffffffffffffffffffffffffffffffffffffff16637a0e03ec8460405180807f7061796d656e742f737461746500000000000000000000000000000000000000815250600d0182815260200191505060405180910390206000604051602001526040518263ffffffff167c0100000000000000000000000000000000000000000000000000000000028152600401808260001916600019168152602001915050602060405180830381600087803b15156115a057600080fd5b6102c65a03f115156115b157600080fd5b5050506040518051905060ff161415156115ca57600080fd5b600160009054906101000a900473ffffffffffffffffffffffffffffffffffffffff1673ffffffffffffffffffffffffffffffffffffffff1663bdc963d88b60405180807f7061796d656e742f74726561746d656e7400000000000000000000000000000081525060110182815260200191505060405180910390206000604051602001526040518263ffffffff167c0100000000000000000000000000000000000000000000000000000000028152600401808260001916600019168152602001915050602060405180830381600087803b15156116a857600080fd5b6102c65a03f115156116b957600080fd5b505050604051805190509850600160009054906101000a900473ffffffffffffffffffffffffffffffffffffffff1673ffffffffffffffffffffffffffffffffffffffff16634c77e5ba8a60405180807f74726561746d656e742f64656e7469737400000000000000000000000000000081525060110182815260200191505060405180910390206000604051602001526040518263ffffffff167c0100000000000000000000000000000000000000000000000000000000028152600401808260001916600019168152602001915050602060405180830381600087803b15156117a357600080fd5b6102c65a03f115156117b457600080fd5b505050604051805190509750600160009054906101000a900473ffffffffffffffffffffffffffffffffffffffff1673ffffffffffffffffffffffffffffffffffffffff16634c77e5ba8a60405180807f74726561746d656e742f70617469656e7400000000000000000000000000000081525060110182815260200191505060405180910390206000604051602001526040518263ffffffff167c0100000000000000000000000000000000000000000000000000000000028152600401808260001916600019168152602001915050602060405180830381600087803b151561189e57600080fd5b6102c65a03f115156118af57600080fd5b505050604051805190509650600160009054906101000a900473ffffffffffffffffffffffffffffffffffffffff1673ffffffffffffffffffffffffffffffffffffffff1663bdc963d88a60405180807f74726561746d656e742f74726561746d656e742d6170706c69636174696f6e00815250601f0182815260200191505060405180910390206000604051602001526040518263ffffffff167c0100000000000000000000000000000000000000000000000000000000028152600401808260001916600019168152602001915050602060405180830381600087803b151561199957600080fd5b6102c65a03f115156119aa57600080fd5b505050604051805190509550600160009054906101000a900473ffffffffffffffffffffffffffffffffffffffff1673ffffffffffffffffffffffffffffffffffffffff1663bdc963d88a60405180807f74726561746d656e742f616d6f756e740000000000000000000000000000000081525060100182815260200191505060405180910390206000604051602001526040518263ffffffff167c0100000000000000000000000000000000000000000000000000000000028152600401808260001916600019168152602001915050602060405180830381600087803b1515611a9457600080fd5b6102c65a03f11515611aa557600080fd5b505050604051805190509450600160009054906101000a900473ffffffffffffffffffffffffffffffffffffffff1673ffffffffffffffffffffffffffffffffffffffff1663bdc963d88a60405180807f74726561746d656e742f71756f74650000000000000000000000000000000000815250600f0182815260200191505060405180910390206000604051602001526040518263ffffffff167c0100000000000000000000000000000000000000000000000000000000028152600401808260001916600019168152602001915050602060405180830381600087803b1515611b8f57600080fd5b6102c65a03f11515611ba057600080fd5b50505060405180519050935060008514151515611bbc57600080fd5b843073ffffffffffffffffffffffffffffffffffffffff163110151515611be257600080fd5b600160009054906101000a900473ffffffffffffffffffffffffffffffffffffffff1673ffffffffffffffffffffffffffffffffffffffff16630bd851588b60405180807f7061796d656e742f737461746500000000000000000000000000000000000000815250600d01828152602001915050604051809103902060036040518363ffffffff167c01000000000000000000000000000000000000000000000000000000000281526004018083600019166000191681526020018260ff16815260200192505050600060405180830381600087803b1515611cc357600080fd5b6102c65a03f11515611cd457600080fd5b505050611d07600160009054906101000a900473ffffffffffffffffffffffffffffffffffffffff168989898989612223565b7fbdf668fd8ad7844259b56048e0fb90ccfe8e8cb52c510a64ee5fa4daa24450c560405160405180910390a1505050505050505050505050565b6000809054906101000a900473ffffffffffffffffffffffffffffffffffffffff1673ffffffffffffffffffffffffffffffffffffffff163373ffffffffffffffffffffffffffffffffffffffff16141515611d9c57600080fd5b600073ffffffffffffffffffffffffffffffffffffffff168173ffffffffffffffffffffffffffffffffffffffff1614151515611dd857600080fd5b8073ffffffffffffffffffffffffffffffffffffffff166000809054906101000a900473ffffffffffffffffffffffffffffffffffffffff1673ffffffffffffffffffffffffffffffffffffffff167f8be0079c531659141344cd1fd0a4f28419497f9722a3daafe3b4186f6b6457e060405160405180910390a3806000806101000a81548173ffffffffffffffffffffffffffffffffffffffff021916908373ffffffffffffffffffffffffffffffffffffffff16021790555050565b6000611ea3826001612561565b8015611eb65750611eb582600161257c565b5b9050919050565b6000806000806000806000808d73ffffffffffffffffffffffffffffffffffffffff16634c77e5ba60405180807f6f646c6c2f7061796d656e742d61646472657373000000000000000000000000815250601401905060405180910390206000604051602001526040518263ffffffff167c0100000000000000000000000000000000000000000000000000000000028152600401808260001916600019168152602001915050602060405180830381600087803b1515611f7d57600080fd5b6102c65a03f11515611f8e57600080fd5b5050506040518051905097508d73ffffffffffffffffffffffffffffffffffffffff1663bdc963d860405180807f6f646c6c2f7363616e2d7061796d656e742d70657263656e7461676500000000815250601c01905060405180910390206000604051602001526040518263ffffffff167c0100000000000000000000000000000000000000000000000000000000028152600401808260001916600019168152602001915050602060405180830381600087803b151561204e57600080fd5b6102c65a03f1151561205f57600080fd5b5050506040518051905096506120758a8a612597565b955061208b6120858860646125b0565b8a6125f1565b94506120978986612597565b935084925060009450839150600093506120b28e8d8b612624565b6120bd8e8d8b6127fa565b6120c88e8e846129d0565b6120d38e8e84612ba6565b6120de8e8985612d7c565b6120e98e8985612f52565b6120f48e8d8f613128565b8773ffffffffffffffffffffffffffffffffffffffff166108fc849081150290604051600060405180830381858888f19350505050151561213457600080fd5b8c73ffffffffffffffffffffffffffffffffffffffff166108fc839081150290604051600060405180830381858888f19350505050151561217457600080fd5b60008611156121c557859050600095508b73ffffffffffffffffffffffffffffffffffffffff166108fc829081150290604051600060405180830381858888f1935050505015156121c457600080fd5b5b5050505050505050505050505050565b60006121e2826004612561565b80156121f557506121f482600161257c565b5b9050919050565b6000612209826003612561565b801561221c575061221b82600161257c565b5b9050919050565b6000806000806000806000808d73ffffffffffffffffffffffffffffffffffffffff16634c77e5ba60405180807f6f646c6c2f7061796d656e742d61646472657373000000000000000000000000815250601401905060405180910390206000604051602001526040518263ffffffff167c0100000000000000000000000000000000000000000000000000000000028152600401808260001916600019168152602001915050602060405180830381600087803b15156122e357600080fd5b6102c65a03f115156122f457600080fd5b5050506040518051905097508d73ffffffffffffffffffffffffffffffffffffffff1663bdc963d860405180807f6f646c6c2f74726561746d656e742d7061796d656e742d70657263656e74616781526020017f6500000000000000000000000000000000000000000000000000000000000000815250602101905060405180910390206000604051602001526040518263ffffffff167c0100000000000000000000000000000000000000000000000000000000028152600401808260001916600019168152602001915050602060405180830381600087803b15156123da57600080fd5b6102c65a03f115156123eb57600080fd5b5050506040518051905096506124018a8a612597565b95506124176124118860646125b0565b8a6125f1565b94506124238986612597565b9350849250600094508391506000935061243e8e8d8b613287565b6124498e8d8b6127fa565b6124548e8e8461345d565b61245f8e8e84612ba6565b61246a8e8985613633565b6124758e8985612f52565b6124808e8d8f613128565b8773ffffffffffffffffffffffffffffffffffffffff166108fc849081150290604051600060405180830381858888f1935050505015156124c057600080fd5b8c73ffffffffffffffffffffffffffffffffffffffff166108fc839081150290604051600060405180830381858888f19350505050151561250057600080fd5b600086111561255157859050600095508b73ffffffffffffffffffffffffffffffffffffffff166108fc829081150290604051600060405180830381858888f19350505050151561255057600080fd5b5b5050505050505050505050505050565b600061256c83613809565b60ff168260ff1614905092915050565b600061258783613946565b60ff168260ff1614905092915050565b60008282111515156125a557fe5b818303905092915050565b6000806000831115156125bf57fe5b82848115156125ca57fe5b04905082848115156125d857fe5b0681840201841415156125e757fe5b8091505092915050565b60008082840290506000841480612612575082848281151561260f57fe5b04145b151561261a57fe5b8091505092915050565b8273ffffffffffffffffffffffffffffffffffffffff1663c8d1c0178360405180807f70617469656e742f7363616e2d746f74616c2d706169640000000000000000008152506017018273ffffffffffffffffffffffffffffffffffffffff1673ffffffffffffffffffffffffffffffffffffffff166c010000000000000000000000000281526014019150506040518091039020836040518363ffffffff167c010000000000000000000000000000000000000000000000000000000002815260040180836000191660001916815260200182815260200192505050600060405180830381600087803b151561271a57600080fd5b6102c65a03f1151561272b57600080fd5b5050508273ffffffffffffffffffffffffffffffffffffffff1663c8d1c01760405180807f70617469656e74732f7363616e2d746f74616c2d70616964000000000000000081525060180190506040518091039020836040518363ffffffff167c010000000000000000000000000000000000000000000000000000000002815260040180836000191660001916815260200182815260200192505050600060405180830381600087803b15156127e157600080fd5b6102c65a03f115156127f257600080fd5b505050505050565b8273ffffffffffffffffffffffffffffffffffffffff1663c8d1c0178360405180807f70617469656e742f746f74616c2d7061696400000000000000000000000000008152506012018273ffffffffffffffffffffffffffffffffffffffff1673ffffffffffffffffffffffffffffffffffffffff166c010000000000000000000000000281526014019150506040518091039020836040518363ffffffff167c010000000000000000000000000000000000000000000000000000000002815260040180836000191660001916815260200182815260200192505050600060405180830381600087803b15156128f057600080fd5b6102c65a03f1151561290157600080fd5b5050508273ffffffffffffffffffffffffffffffffffffffff1663c8d1c01760405180807f70617469656e74732f746f74616c2d706169640000000000000000000000000081525060130190506040518091039020836040518363ffffffff167c010000000000000000000000000000000000000000000000000000000002815260040180836000191660001916815260200182815260200192505050600060405180830381600087803b15156129b757600080fd5b6102c65a03f115156129c857600080fd5b505050505050565b8273ffffffffffffffffffffffffffffffffffffffff1663c8d1c0178360405180807f64656e746973742f7363616e2d746f74616c2d6561726e6564000000000000008152506019018273ffffffffffffffffffffffffffffffffffffffff1673ffffffffffffffffffffffffffffffffffffffff166c010000000000000000000000000281526014019150506040518091039020836040518363ffffffff167c010000000000000000000000000000000000000000000000000000000002815260040180836000191660001916815260200182815260200192505050600060405180830381600087803b1515612ac657600080fd5b6102c65a03f11515612ad757600080fd5b5050508273ffffffffffffffffffffffffffffffffffffffff1663c8d1c01760405180807f64656e74697374732f7363616e2d746f74616c2d6561726e6564000000000000815250601a0190506040518091039020836040518363ffffffff167c010000000000000000000000000000000000000000000000000000000002815260040180836000191660001916815260200182815260200192505050600060405180830381600087803b1515612b8d57600080fd5b6102c65a03f11515612b9e57600080fd5b505050505050565b8273ffffffffffffffffffffffffffffffffffffffff1663c8d1c0178360405180807f64656e746973742f746f74616c2d6561726e65640000000000000000000000008152506014018273ffffffffffffffffffffffffffffffffffffffff1673ffffffffffffffffffffffffffffffffffffffff166c010000000000000000000000000281526014019150506040518091039020836040518363ffffffff167c010000000000000000000000000000000000000000000000000000000002815260040180836000191660001916815260200182815260200192505050600060405180830381600087803b1515612c9c57600080fd5b6102c65a03f11515612cad57600080fd5b5050508273ffffffffffffffffffffffffffffffffffffffff1663c8d1c01760405180807f64656e74697374732f746f74616c2d6561726e6564000000000000000000000081525060150190506040518091039020836040518363ffffffff167c010000000000000000000000000000000000000000000000000000000002815260040180836000191660001916815260200182815260200192505050600060405180830381600087803b1515612d6357600080fd5b6102c65a03f11515612d7457600080fd5b505050505050565b8273ffffffffffffffffffffffffffffffffffffffff1663c8d1c0178360405180807f6f646c6c2f7363616e2d746f74616c2d6561726e6564000000000000000000008152506016018273ffffffffffffffffffffffffffffffffffffffff1673ffffffffffffffffffffffffffffffffffffffff166c010000000000000000000000000281526014019150506040518091039020836040518363ffffffff167c010000000000000000000000000000000000000000000000000000000002815260040180836000191660001916815260200182815260200192505050600060405180830381600087803b1515612e7257600080fd5b6102c65a03f11515612e8357600080fd5b5050508273ffffffffffffffffffffffffffffffffffffffff1663c8d1c01760405180807f6f646c6c2f7363616e2d746f74616c2d6561726e65640000000000000000000081525060160190506040518091039020836040518363ffffffff167c010000000000000000000000000000000000000000000000000000000002815260040180836000191660001916815260200182815260200192505050600060405180830381600087803b1515612f3957600080fd5b6102c65a03f11515612f4a57600080fd5b505050505050565b8273ffffffffffffffffffffffffffffffffffffffff1663c8d1c0178360405180807f6f646c6c2f746f74616c2d6561726e65640000000000000000000000000000008152506011018273ffffffffffffffffffffffffffffffffffffffff1673ffffffffffffffffffffffffffffffffffffffff166c010000000000000000000000000281526014019150506040518091039020836040518363ffffffff167c010000000000000000000000000000000000000000000000000000000002815260040180836000191660001916815260200182815260200192505050600060405180830381600087803b151561304857600080fd5b6102c65a03f1151561305957600080fd5b5050508273ffffffffffffffffffffffffffffffffffffffff1663c8d1c01760405180807f6f646c6c2f746f74616c2d6561726e656400000000000000000000000000000081525060110190506040518091039020836040518363ffffffff167c010000000000000000000000000000000000000000000000000000000002815260040180836000191660001916815260200182815260200192505050600060405180830381600087803b151561310f57600080fd5b6102c65a03f1151561312057600080fd5b505050505050565b6131d583836040805190810160405280600f81526020017f70617469656e742f64656e7469737400000000000000000000000000000000008152506040805190810160405280601681526020017f70617469656e742f64656e74697374732d636f756e74000000000000000000008152506040805190810160405280601381526020017f70617469656e742f64656e746973742d6b65790000000000000000000000000081525086613a83565b61328283826040805190810160405280600f81526020017f64656e746973742f70617469656e7400000000000000000000000000000000008152506040805190810160405280601381526020017f64656e746973742f70617469656e742d6b6579000000000000000000000000008152506040805190810160405280601381526020017f64656e746973742f70617469656e742d6b65790000000000000000000000000081525087613a83565b505050565b8273ffffffffffffffffffffffffffffffffffffffff1663c8d1c0178360405180807f70617469656e742f74726561746d656e742d746f74616c2d7061696400000000815250601c018273ffffffffffffffffffffffffffffffffffffffff1673ffffffffffffffffffffffffffffffffffffffff166c010000000000000000000000000281526014019150506040518091039020836040518363ffffffff167c010000000000000000000000000000000000000000000000000000000002815260040180836000191660001916815260200182815260200192505050600060405180830381600087803b151561337d57600080fd5b6102c65a03f1151561338e57600080fd5b5050508273ffffffffffffffffffffffffffffffffffffffff1663c8d1c01760405180807f70617469656e74732f74726561746d656e742d746f74616c2d70616964000000815250601d0190506040518091039020836040518363ffffffff167c010000000000000000000000000000000000000000000000000000000002815260040180836000191660001916815260200182815260200192505050600060405180830381600087803b151561344457600080fd5b6102c65a03f1151561345557600080fd5b505050505050565b8273ffffffffffffffffffffffffffffffffffffffff1663c8d1c0178360405180807f64656e746973742f74726561746d656e742d746f74616c2d6561726e65640000815250601e018273ffffffffffffffffffffffffffffffffffffffff1673ffffffffffffffffffffffffffffffffffffffff166c010000000000000000000000000281526014019150506040518091039020836040518363ffffffff167c010000000000000000000000000000000000000000000000000000000002815260040180836000191660001916815260200182815260200192505050600060405180830381600087803b151561355357600080fd5b6102c65a03f1151561356457600080fd5b5050508273ffffffffffffffffffffffffffffffffffffffff1663c8d1c01760405180807f64656e74697374732f74726561746d656e742d746f74616c2d6561726e656400815250601f0190506040518091039020836040518363ffffffff167c010000000000000000000000000000000000000000000000000000000002815260040180836000191660001916815260200182815260200192505050600060405180830381600087803b151561361a57600080fd5b6102c65a03f1151561362b57600080fd5b505050505050565b8273ffffffffffffffffffffffffffffffffffffffff1663c8d1c0178360405180807f6f646c6c2f74726561746d656e742d746f74616c2d6561726e65640000000000815250601b018273ffffffffffffffffffffffffffffffffffffffff1673ffffffffffffffffffffffffffffffffffffffff166c010000000000000000000000000281526014019150506040518091039020836040518363ffffffff167c010000000000000000000000000000000000000000000000000000000002815260040180836000191660001916815260200182815260200192505050600060405180830381600087803b151561372957600080fd5b6102c65a03f1151561373a57600080fd5b5050508273ffffffffffffffffffffffffffffffffffffffff1663c8d1c01760405180807f6f646c6c2f74726561746d656e742d746f74616c2d6561726e65640000000000815250601b0190506040518091039020836040518363ffffffff167c010000000000000000000000000000000000000000000000000000000002815260040180836000191660001916815260200182815260200192505050600060405180830381600087803b15156137f057600080fd5b6102c65a03f1151561380157600080fd5b505050505050565b6000600160009054906101000a900473ffffffffffffffffffffffffffffffffffffffff1673ffffffffffffffffffffffffffffffffffffffff16637a0e03ec8360405180807f757365722f7479706500000000000000000000000000000000000000000000008152506009018273ffffffffffffffffffffffffffffffffffffffff1673ffffffffffffffffffffffffffffffffffffffff166c0100000000000000000000000002815260140191505060405180910390206000604051602001526040518263ffffffff167c0100000000000000000000000000000000000000000000000000000000028152600401808260001916600019168152602001915050602060405180830381600087803b151561392457600080fd5b6102c65a03f1151561393557600080fd5b505050604051805190509050919050565b6000600160009054906101000a900473ffffffffffffffffffffffffffffffffffffffff1673ffffffffffffffffffffffffffffffffffffffff16637a0e03ec8360405180807f757365722f737461747573000000000000000000000000000000000000000000815250600b018273ffffffffffffffffffffffffffffffffffffffff1673ffffffffffffffffffffffffffffffffffffffff166c0100000000000000000000000002815260140191505060405180910390206000604051602001526040518263ffffffff167c0100000000000000000000000000000000000000000000000000000000028152600401808260001916600019168152602001915050602060405180830381600087803b1515613a6157600080fd5b6102c65a03f11515613a7257600080fd5b505050604051805190509050919050565b60008673ffffffffffffffffffffffffffffffffffffffff16637a0e03ec8688856040518084805190602001908083835b602083101515613ad95780518252602082019150602081019050602083039250613ab4565b6001836020036101000a0380198251168184511680821785525050505050509050018373ffffffffffffffffffffffffffffffffffffffff1673ffffffffffffffffffffffffffffffffffffffff166c010000000000000000000000000281526014018273ffffffffffffffffffffffffffffffffffffffff1673ffffffffffffffffffffffffffffffffffffffff166c01000000000000000000000000028152601401935050505060405180910390206000604051602001526040518263ffffffff167c0100000000000000000000000000000000000000000000000000000000028152600401808260001916600019168152602001915050602060405180830381600087803b1515613bec57600080fd5b6102c65a03f11515613bfd57600080fd5b5050506040518051905060ff161415613c1e57613c1d8686848685613da4565b5b8573ffffffffffffffffffffffffffffffffffffffff16630bd851588587846040518084805190602001908083835b602083101515613c725780518252602082019150602081019050602083039250613c4d565b6001836020036101000a0380198251168184511680821785525050505050509050018373ffffffffffffffffffffffffffffffffffffffff1673ffffffffffffffffffffffffffffffffffffffff166c010000000000000000000000000281526014018273ffffffffffffffffffffffffffffffffffffffff1673ffffffffffffffffffffffffffffffffffffffff166c010000000000000000000000000281526014019350505050604051809103902060016040518363ffffffff167c01000000000000000000000000000000000000000000000000000000000281526004018083600019166000191681526020018260ff16815260200192505050600060405180830381600087803b1515613d8857600080fd5b6102c65a03f11515613d9957600080fd5b505050505050505050565b6000613db1868685614060565b90508573ffffffffffffffffffffffffffffffffffffffff16635a2bf25a8587846040518084805190602001908083835b602083101515613e075780518252602082019150602081019050602083039250613de2565b6001836020036101000a0380198251168184511680821785525050505050509050018373ffffffffffffffffffffffffffffffffffffffff1673ffffffffffffffffffffffffffffffffffffffff166c0100000000000000000000000002815260140182815260200193505050506040518091039020846040518363ffffffff167c01000000000000000000000000000000000000000000000000000000000281526004018083600019166000191681526020018273ffffffffffffffffffffffffffffffffffffffff1673ffffffffffffffffffffffffffffffffffffffff16815260200192505050600060405180830381600087803b1515613f0a57600080fd5b6102c65a03f11515613f1b57600080fd5b5050508573ffffffffffffffffffffffffffffffffffffffff16633562fd2084876040518083805190602001908083835b602083101515613f715780518252602082019150602081019050602083039250613f4c565b6001836020036101000a0380198251168184511680821785525050505050509050018273ffffffffffffffffffffffffffffffffffffffff1673ffffffffffffffffffffffffffffffffffffffff166c01000000000000000000000000028152601401925050506040518091039020600184016040518363ffffffff167c010000000000000000000000000000000000000000000000000000000002815260040180836000191660001916815260200182815260200192505050600060405180830381600087803b151561404457600080fd5b6102c65a03f1151561405557600080fd5b505050505050505050565b60008373ffffffffffffffffffffffffffffffffffffffff1663bdc963d883856040518083805190602001908083835b6020831015156140b55780518252602082019150602081019050602083039250614090565b6001836020036101000a0380198251168184511680821785525050505050509050018273ffffffffffffffffffffffffffffffffffffffff1673ffffffffffffffffffffffffffffffffffffffff166c010000000000000000000000000281526014019250505060405180910390206000604051602001526040518263ffffffff167c0100000000000000000000000000000000000000000000000000000000028152600401808260001916600019168152602001915050602060405180830381600087803b151561418657600080fd5b6102c65a03f1151561419757600080fd5b50505060405180519050905093925050505600a165627a7a72305820edcb35318a4bb86a33a9e6346c3e4c32ff9bc38aea0a0c7f0e75c51c6db162ce0029",
  "source": "pragma solidity 0.4.18;\n\nimport \"./Restrictor.sol\";\nimport \"../lib/odll/userManager.sol\";\n\ncontract Escrow is Restrictor {\n  event PaymentLocked();\n  event FundReleased();\n  event Refunded();\n\n  // States: 1 => Created, 2 => Locked, 3 => Inactive\n\n  modifier inState (uint paymentId, uint8 stateId) {\n    require(DB(dbAddress).getUInt8Value(keccak256(\"payment/state\", paymentId)) == stateId);\n    _;\n  }\n\n  function Escrow (address _dbAddress) public {\n    dbAddress = _dbAddress;\n  }\n\n  function lockPayment (address userId, uint paymentId)\n    external\n    onlyActivePatientId(userId)\n    inState(paymentId, 1)\n  {\n    DB(dbAddress).setUInt8Value(keccak256(\"payment/state\", paymentId), 2);\n    PaymentLocked();\n  }\n\n  function releaseFundForScan (address userId, address payee, uint paymentId)\n    external\n    onlyActivePatientId(userId)\n    inState(paymentId, 2)\n  {\n    uint caseId = DB(dbAddress).getUIntValue(keccak256(\"payment/case\", paymentId));\n    address dentistId = DB(dbAddress).getAddressValue(keccak256(\"case/dentist\", caseId));\n    address patientId = DB(dbAddress).getAddressValue(keccak256(\"case/patient\", caseId));\n    uint scanApplicationId = DB(dbAddress).getUIntValue(keccak256(\"case/scan-application\", caseId));\n    uint amount = DB(dbAddress).getUIntValue(keccak256(\"case/amount\", caseId));\n    uint quote = DB(dbAddress).getUIntValue(keccak256(\"case/quote\", caseId));\n\n    require(amount != 0);\n    require(this.balance >= amount);\n\n    DB(dbAddress).setUInt8Value(keccak256(\"payment/state\", paymentId), 3);\n    userManager.releaseFundForScan(dbAddress, dentistId, patientId, scanApplicationId, amount, quote);\n    FundReleased();\n  }\n\n  function releaseFundForTreatment (address userId, address payee, uint paymentId)\n    external\n    onlyActivePatientId(userId)\n    inState(paymentId, 2)\n  {\n    uint treatmentId = DB(dbAddress).getUIntValue(keccak256(\"payment/treatment\", paymentId));\n    address dentistId = DB(dbAddress).getAddressValue(keccak256(\"treatment/dentist\", treatmentId));\n    address patientId = DB(dbAddress).getAddressValue(keccak256(\"treatment/patient\", treatmentId));\n    uint treatmentApplicationId = DB(dbAddress).getUIntValue(keccak256(\"treatment/treatment-application\", treatmentId));\n    uint amount = DB(dbAddress).getUIntValue(keccak256(\"treatment/amount\", treatmentId));\n    uint quote = DB(dbAddress).getUIntValue(keccak256(\"treatment/quote\", treatmentId));\n\n    require(amount != 0);\n    require(this.balance >= amount);\n\n    DB(dbAddress).setUInt8Value(keccak256(\"payment/state\", paymentId), 3);\n    userManager.releaseFundForTreatment(dbAddress, dentistId, patientId, treatmentApplicationId, amount, quote);\n    FundReleased();\n  }\n\n  function refund (address userId, address payee, uint paymentId)\n    external\n    onlyOwnerOrActiveAdminOrActiveManagerId(userId)\n    onlyActivePatientId(payee)\n    inState(paymentId, 2)\n  {\n    uint paymentForType = DB(dbAddress).getUInt8Value(keccak256(\"payment/for-type\", paymentId));\n    uint amount = paymentForType == 1 ? DB(dbAddress).getUIntValue(keccak256(\"case/amount\", paymentId)) : DB(dbAddress).getUIntValue(keccak256(\"treatment/amount\", paymentId));\n\n    require(amount != 0);\n    require(this.balance >= amount);\n\n    DB(dbAddress).setUInt8Value(keccak256(\"payment/state\", paymentId), 3);\n    payee.transfer(amount);\n    Refunded();\n  }\n}\n",
  "sourcePath": "/Users/danielokwufulueze/dev/vue/apps/oraldatalink/contracts/odll/Escrow.sol",
  "compiler": {
    "name": "solc",
    "version": "0.4.18+commit.9cf6e910.Emscripten.clang"
  },
  "schemaVersion": "1.0.1",
  "updatedAt": "2017-11-26T19:59:48.444Z"
}