{
  "contractName": "Escrow",
  "abi": [
    {
      "constant": false,
      "inputs": [
        {
          "name": "userId",
          "type": "address"
        },
        {
          "name": "payee",
          "type": "address"
        },
        {
          "name": "paymentId",
          "type": "uint256"
        }
      ],
      "name": "releaseFundForScan",
      "outputs": [],
      "payable": false,
      "stateMutability": "nonpayable",
      "type": "function"
    },
    {
      "constant": false,
      "inputs": [
        {
          "name": "userId",
          "type": "address"
        },
        {
          "name": "newAddress",
          "type": "address"
        }
      ],
      "name": "transferFunds",
      "outputs": [],
      "payable": true,
      "stateMutability": "payable",
      "type": "function"
    },
    {
      "constant": false,
      "inputs": [
        {
          "name": "userId",
          "type": "address"
        },
        {
          "name": "paymentId",
          "type": "uint256"
        }
      ],
      "name": "lockPayment",
      "outputs": [],
      "payable": false,
      "stateMutability": "nonpayable",
      "type": "function"
    },
    {
      "constant": true,
      "inputs": [],
      "name": "smartContractStatus",
      "outputs": [
        {
          "name": "",
          "type": "uint8"
        }
      ],
      "payable": false,
      "stateMutability": "view",
      "type": "function"
    },
    {
      "constant": false,
      "inputs": [
        {
          "name": "userId",
          "type": "address"
        },
        {
          "name": "payee",
          "type": "address"
        },
        {
          "name": "paymentId",
          "type": "uint256"
        }
      ],
      "name": "refund",
      "outputs": [],
      "payable": false,
      "stateMutability": "nonpayable",
      "type": "function"
    },
    {
      "constant": true,
      "inputs": [],
      "name": "owner",
      "outputs": [
        {
          "name": "",
          "type": "address"
        }
      ],
      "payable": false,
      "stateMutability": "view",
      "type": "function"
    },
    {
      "constant": true,
      "inputs": [],
      "name": "dbAddress",
      "outputs": [
        {
          "name": "",
          "type": "address"
        }
      ],
      "payable": false,
      "stateMutability": "view",
      "type": "function"
    },
    {
      "constant": false,
      "inputs": [
        {
          "name": "userId",
          "type": "address"
        },
        {
          "name": "payee",
          "type": "address"
        },
        {
          "name": "paymentId",
          "type": "uint256"
        }
      ],
      "name": "releaseFundForTreatment",
      "outputs": [],
      "payable": false,
      "stateMutability": "nonpayable",
      "type": "function"
    },
    {
      "constant": false,
      "inputs": [
        {
          "name": "newOwner",
          "type": "address"
        }
      ],
      "name": "transferOwnership",
      "outputs": [],
      "payable": false,
      "stateMutability": "nonpayable",
      "type": "function"
    },
    {
      "inputs": [
        {
          "name": "_dbAddress",
          "type": "address"
        }
      ],
      "payable": false,
      "stateMutability": "nonpayable",
      "type": "constructor"
    },
    {
      "payable": true,
      "stateMutability": "payable",
      "type": "fallback"
    },
    {
      "anonymous": false,
      "inputs": [
        {
          "indexed": false,
          "name": "paymentId",
          "type": "uint256"
        },
        {
          "indexed": false,
          "name": "payee",
          "type": "address"
        }
      ],
      "name": "FundReleased",
      "type": "event"
    },
    {
      "anonymous": false,
      "inputs": [
        {
          "indexed": false,
          "name": "paymentId",
          "type": "uint256"
        },
        {
          "indexed": false,
          "name": "payee",
          "type": "address"
        }
      ],
      "name": "Refunded",
      "type": "event"
    },
    {
      "anonymous": false,
      "inputs": [
        {
          "indexed": false,
          "name": "callerAddress",
          "type": "address"
        },
        {
          "indexed": false,
          "name": "amount",
          "type": "uint256"
        }
      ],
      "name": "Paid",
      "type": "event"
    },
    {
      "anonymous": false,
      "inputs": [
        {
          "indexed": false,
          "name": "paymentId",
          "type": "uint256"
        }
      ],
      "name": "PaymentLocked",
      "type": "event"
    },
    {
      "anonymous": false,
      "inputs": [
        {
          "indexed": false,
          "name": "status",
          "type": "uint8"
        }
      ],
      "name": "OnSmartContractStatusSet",
      "type": "event"
    },
    {
      "anonymous": false,
      "inputs": [
        {
          "indexed": true,
          "name": "previousOwner",
          "type": "address"
        },
        {
          "indexed": true,
          "name": "newOwner",
          "type": "address"
        }
      ],
      "name": "OwnershipTransferred",
      "type": "event"
    }
  ],
  "bytecode": "0x6060604052341561000f57600080fd5b6040516020806200442b83398101604052808051906020019091905050336000806101000a81548173ffffffffffffffffffffffffffffffffffffffff021916908373ffffffffffffffffffffffffffffffffffffffff16021790555060008173ffffffffffffffffffffffffffffffffffffffff161415151561009257600080fd5b80600160006101000a81548173ffffffffffffffffffffffffffffffffffffffff021916908373ffffffffffffffffffffffffffffffffffffffff1602179055505061434780620000e46000396000f300606060405260043610610099576000357c0100000000000000000000000000000000000000000000000000000000900463ffffffff1680630f51a5d61461010657806311223955146101675780633f4b1470146101b45780634c8ddddc146101f657806382ad6f35146102255780638da5cb5b1461028657806391e06b6d146102db578063f0303d0b14610330578063f2fde38b14610391575b7f737c69225d647e5994eab1a6c301bf6d9232beb2759ae1e27a8966b4732bc4893334604051808373ffffffffffffffffffffffffffffffffffffffff1673ffffffffffffffffffffffffffffffffffffffff1681526020018281526020019250505060405180910390a1005b341561011157600080fd5b610165600480803573ffffffffffffffffffffffffffffffffffffffff1690602001909190803573ffffffffffffffffffffffffffffffffffffffff169060200190919080359060200190919050506103ca565b005b6101b2600480803573ffffffffffffffffffffffffffffffffffffffff1690602001909190803573ffffffffffffffffffffffffffffffffffffffff16906020019091905050610b34565b005b34156101bf57600080fd5b6101f4600480803573ffffffffffffffffffffffffffffffffffffffff16906020019091908035906020019091905050610d3f565b005b341561020157600080fd5b610209610f96565b604051808260ff1660ff16815260200191505060405180910390f35b341561023057600080fd5b610284600480803573ffffffffffffffffffffffffffffffffffffffff1690602001909190803573ffffffffffffffffffffffffffffffffffffffff16906020019091908035906020019091905050610fa9565b005b341561029157600080fd5b610299611423565b604051808273ffffffffffffffffffffffffffffffffffffffff1673ffffffffffffffffffffffffffffffffffffffff16815260200191505060405180910390f35b34156102e657600080fd5b6102ee611448565b604051808273ffffffffffffffffffffffffffffffffffffffff1673ffffffffffffffffffffffffffffffffffffffff16815260200191505060405180910390f35b341561033b57600080fd5b61038f600480803573ffffffffffffffffffffffffffffffffffffffff1690602001909190803573ffffffffffffffffffffffffffffffffffffffff1690602001909190803590602001909190505061146e565b005b341561039c57600080fd5b6103c8600480803573ffffffffffffffffffffffffffffffffffffffff16906020019091905050611bd8565b005b600080600080856103da81611d2d565b15156103e557600080fd5b876103ef81611d54565b15156103fa57600080fd5b8660028060ff16600160009054906101000a900473ffffffffffffffffffffffffffffffffffffffff1673ffffffffffffffffffffffffffffffffffffffff16637a0e03ec8460405180807f7061796d656e742f737461746500000000000000000000000000000000000000815250600d0182815260200191505060405180910390206000604051602001526040518263ffffffff167c0100000000000000000000000000000000000000000000000000000000028152600401808260001916600019168152602001915050602060405180830381600087803b15156104df57600080fd5b6102c65a03f115156104f057600080fd5b5050506040518051905060ff1614151561050957600080fd5b600160009054906101000a900473ffffffffffffffffffffffffffffffffffffffff1673ffffffffffffffffffffffffffffffffffffffff1663bdc963d88a60405180807f7061796d656e742f636173650000000000000000000000000000000000000000815250600c0182815260200191505060405180910390206000604051602001526040518263ffffffff167c0100000000000000000000000000000000000000000000000000000000028152600401808260001916600019168152602001915050602060405180830381600087803b15156105e757600080fd5b6102c65a03f115156105f857600080fd5b505050604051805190509750600160009054906101000a900473ffffffffffffffffffffffffffffffffffffffff1673ffffffffffffffffffffffffffffffffffffffff16634c77e5ba8960405180807f636173652f64656e746973740000000000000000000000000000000000000000815250600c0182815260200191505060405180910390206000604051602001526040518263ffffffff167c0100000000000000000000000000000000000000000000000000000000028152600401808260001916600019168152602001915050602060405180830381600087803b15156106e257600080fd5b6102c65a03f115156106f357600080fd5b505050604051805190509650600160009054906101000a900473ffffffffffffffffffffffffffffffffffffffff1673ffffffffffffffffffffffffffffffffffffffff16634c77e5ba8960405180807f636173652f70617469656e740000000000000000000000000000000000000000815250600c0182815260200191505060405180910390206000604051602001526040518263ffffffff167c0100000000000000000000000000000000000000000000000000000000028152600401808260001916600019168152602001915050602060405180830381600087803b15156107dd57600080fd5b6102c65a03f115156107ee57600080fd5b505050604051805190509550600160009054906101000a900473ffffffffffffffffffffffffffffffffffffffff1673ffffffffffffffffffffffffffffffffffffffff1663bdc963d88a60405180807f7061796d656e742f616d6f756e74000000000000000000000000000000000000815250600e0182815260200191505060405180910390206000604051602001526040518263ffffffff167c0100000000000000000000000000000000000000000000000000000000028152600401808260001916600019168152602001915050602060405180830381600087803b15156108d857600080fd5b6102c65a03f115156108e957600080fd5b5050506040518051905094508573ffffffffffffffffffffffffffffffffffffffff168b73ffffffffffffffffffffffffffffffffffffffff1614801561095b57508673ffffffffffffffffffffffffffffffffffffffff168a73ffffffffffffffffffffffffffffffffffffffff16145b151561096657600080fd5b6000851015801561098e5750843073ffffffffffffffffffffffffffffffffffffffff163110155b151561099957600080fd5b6109c7600160009054906101000a900473ffffffffffffffffffffffffffffffffffffffff1688888c611d7b565b600160009054906101000a900473ffffffffffffffffffffffffffffffffffffffff1673ffffffffffffffffffffffffffffffffffffffff16630bd851588a60405180807f7061796d656e742f737461746500000000000000000000000000000000000000815250600d01828152602001915050604051809103902060036040518363ffffffff167c01000000000000000000000000000000000000000000000000000000000281526004018083600019166000191681526020018260ff16815260200192505050600060405180830381600087803b1515610aa857600080fd5b6102c65a03f11515610ab957600080fd5b5050507f81eb32a5950ed9599d3b8ace742c2ad8759a49ede950f1f1279bfe2e60c40cba898b604051808381526020018273ffffffffffffffffffffffffffffffffffffffff1673ffffffffffffffffffffffffffffffffffffffff1681526020019250505060405180910390a15050505050505050505050565b6000826000809054906101000a900473ffffffffffffffffffffffffffffffffffffffff1673ffffffffffffffffffffffffffffffffffffffff168173ffffffffffffffffffffffffffffffffffffffff16148015610cae5750600160009054906101000a900473ffffffffffffffffffffffffffffffffffffffff1673ffffffffffffffffffffffffffffffffffffffff16634c77e5ba60405180807f6f646c6c2f6f776e657200000000000000000000000000000000000000000000815250600a01905060405180910390206000604051602001526040518263ffffffff167c0100000000000000000000000000000000000000000000000000000000028152600401808260001916600019168152602001915050602060405180830381600087803b1515610c6457600080fd5b6102c65a03f11515610c7557600080fd5b5050506040518051905073ffffffffffffffffffffffffffffffffffffffff168173ffffffffffffffffffffffffffffffffffffffff16145b1515610cb957600080fd5b60008373ffffffffffffffffffffffffffffffffffffffff1614151515610cdf57600080fd5b3073ffffffffffffffffffffffffffffffffffffffff163191508273ffffffffffffffffffffffffffffffffffffffff166108fc839081150290604051600060405180830381858888f193505050501515610d3957600080fd5b50505050565b81610d4981611d54565b1515610d5457600080fd5b8160018060ff16600160009054906101000a900473ffffffffffffffffffffffffffffffffffffffff1673ffffffffffffffffffffffffffffffffffffffff16637a0e03ec8460405180807f7061796d656e742f737461746500000000000000000000000000000000000000815250600d0182815260200191505060405180910390206000604051602001526040518263ffffffff167c0100000000000000000000000000000000000000000000000000000000028152600401808260001916600019168152602001915050602060405180830381600087803b1515610e3957600080fd5b6102c65a03f11515610e4a57600080fd5b5050506040518051905060ff16141515610e6357600080fd5b600160009054906101000a900473ffffffffffffffffffffffffffffffffffffffff1673ffffffffffffffffffffffffffffffffffffffff16630bd851588560405180807f7061796d656e742f737461746500000000000000000000000000000000000000815250600d01828152602001915050604051809103902060026040518363ffffffff167c01000000000000000000000000000000000000000000000000000000000281526004018083600019166000191681526020018260ff16815260200192505050600060405180830381600087803b1515610f4457600080fd5b6102c65a03f11515610f5557600080fd5b5050507fa5f78a79f83dfad686a63ca003a42f6c262d9fdc43a6742c56f5c27c11b9a1e2846040518082815260200191505060405180910390a15050505050565b600160149054906101000a900460ff1681565b6000836000809054906101000a900473ffffffffffffffffffffffffffffffffffffffff1673ffffffffffffffffffffffffffffffffffffffff168173ffffffffffffffffffffffffffffffffffffffff16148061100c575061100b81612237565b5b8061101c575061101b8161225e565b5b151561102757600080fd5b8361103181611d54565b151561103c57600080fd5b8360028060ff16600160009054906101000a900473ffffffffffffffffffffffffffffffffffffffff1673ffffffffffffffffffffffffffffffffffffffff16637a0e03ec8460405180807f7061796d656e742f737461746500000000000000000000000000000000000000815250600d0182815260200191505060405180910390206000604051602001526040518263ffffffff167c0100000000000000000000000000000000000000000000000000000000028152600401808260001916600019168152602001915050602060405180830381600087803b151561112157600080fd5b6102c65a03f1151561113257600080fd5b5050506040518051905060ff1614151561114b57600080fd5b600160009054906101000a900473ffffffffffffffffffffffffffffffffffffffff1673ffffffffffffffffffffffffffffffffffffffff1663bdc963d88760405180807f7061796d656e742f616d6f756e74000000000000000000000000000000000000815250600e0182815260200191505060405180910390206000604051602001526040518263ffffffff167c0100000000000000000000000000000000000000000000000000000000028152600401808260001916600019168152602001915050602060405180830381600087803b151561122957600080fd5b6102c65a03f1151561123a57600080fd5b5050506040518051905094506000851015801561126e5750843073ffffffffffffffffffffffffffffffffffffffff163110155b151561127957600080fd5b8673ffffffffffffffffffffffffffffffffffffffff166108fc869081150290604051600060405180830381858888f1935050505015156112b957600080fd5b600160009054906101000a900473ffffffffffffffffffffffffffffffffffffffff1673ffffffffffffffffffffffffffffffffffffffff16630bd851588760405180807f7061796d656e742f737461746500000000000000000000000000000000000000815250600d01828152602001915050604051809103902060046040518363ffffffff167c01000000000000000000000000000000000000000000000000000000000281526004018083600019166000191681526020018260ff16815260200192505050600060405180830381600087803b151561139a57600080fd5b6102c65a03f115156113ab57600080fd5b5050507f16e7a7a8fd7c51d6b4d059d6d7eea946bff398eee64dd1894af645edd23d502b8688604051808381526020018273ffffffffffffffffffffffffffffffffffffffff1673ffffffffffffffffffffffffffffffffffffffff1681526020019250505060405180910390a15050505050505050565b6000809054906101000a900473ffffffffffffffffffffffffffffffffffffffff1681565b600160009054906101000a900473ffffffffffffffffffffffffffffffffffffffff1681565b6000806000808561147e81611d2d565b151561148957600080fd5b8761149381611d54565b151561149e57600080fd5b8660028060ff16600160009054906101000a900473ffffffffffffffffffffffffffffffffffffffff1673ffffffffffffffffffffffffffffffffffffffff16637a0e03ec8460405180807f7061796d656e742f737461746500000000000000000000000000000000000000815250600d0182815260200191505060405180910390206000604051602001526040518263ffffffff167c0100000000000000000000000000000000000000000000000000000000028152600401808260001916600019168152602001915050602060405180830381600087803b151561158357600080fd5b6102c65a03f1151561159457600080fd5b5050506040518051905060ff161415156115ad57600080fd5b600160009054906101000a900473ffffffffffffffffffffffffffffffffffffffff1673ffffffffffffffffffffffffffffffffffffffff1663bdc963d88a60405180807f7061796d656e742f74726561746d656e7400000000000000000000000000000081525060110182815260200191505060405180910390206000604051602001526040518263ffffffff167c0100000000000000000000000000000000000000000000000000000000028152600401808260001916600019168152602001915050602060405180830381600087803b151561168b57600080fd5b6102c65a03f1151561169c57600080fd5b505050604051805190509750600160009054906101000a900473ffffffffffffffffffffffffffffffffffffffff1673ffffffffffffffffffffffffffffffffffffffff16634c77e5ba8960405180807f74726561746d656e742f64656e7469737400000000000000000000000000000081525060110182815260200191505060405180910390206000604051602001526040518263ffffffff167c0100000000000000000000000000000000000000000000000000000000028152600401808260001916600019168152602001915050602060405180830381600087803b151561178657600080fd5b6102c65a03f1151561179757600080fd5b505050604051805190509650600160009054906101000a900473ffffffffffffffffffffffffffffffffffffffff1673ffffffffffffffffffffffffffffffffffffffff16634c77e5ba8960405180807f74726561746d656e742f70617469656e7400000000000000000000000000000081525060110182815260200191505060405180910390206000604051602001526040518263ffffffff167c0100000000000000000000000000000000000000000000000000000000028152600401808260001916600019168152602001915050602060405180830381600087803b151561188157600080fd5b6102c65a03f1151561189257600080fd5b505050604051805190509550600160009054906101000a900473ffffffffffffffffffffffffffffffffffffffff1673ffffffffffffffffffffffffffffffffffffffff1663bdc963d88a60405180807f7061796d656e742f616d6f756e74000000000000000000000000000000000000815250600e0182815260200191505060405180910390206000604051602001526040518263ffffffff167c0100000000000000000000000000000000000000000000000000000000028152600401808260001916600019168152602001915050602060405180830381600087803b151561197c57600080fd5b6102c65a03f1151561198d57600080fd5b5050506040518051905094508573ffffffffffffffffffffffffffffffffffffffff168b73ffffffffffffffffffffffffffffffffffffffff161480156119ff57508673ffffffffffffffffffffffffffffffffffffffff168a73ffffffffffffffffffffffffffffffffffffffff16145b1515611a0a57600080fd5b60008510158015611a325750843073ffffffffffffffffffffffffffffffffffffffff163110155b1515611a3d57600080fd5b611a6b600160009054906101000a900473ffffffffffffffffffffffffffffffffffffffff1688888c612285565b600160009054906101000a900473ffffffffffffffffffffffffffffffffffffffff1673ffffffffffffffffffffffffffffffffffffffff16630bd851588a60405180807f7061796d656e742f737461746500000000000000000000000000000000000000815250600d01828152602001915050604051809103902060036040518363ffffffff167c01000000000000000000000000000000000000000000000000000000000281526004018083600019166000191681526020018260ff16815260200192505050600060405180830381600087803b1515611b4c57600080fd5b6102c65a03f11515611b5d57600080fd5b5050507f81eb32a5950ed9599d3b8ace742c2ad8759a49ede950f1f1279bfe2e60c40cba898b604051808381526020018273ffffffffffffffffffffffffffffffffffffffff1673ffffffffffffffffffffffffffffffffffffffff1681526020019250505060405180910390a15050505050505050505050565b6000809054906101000a900473ffffffffffffffffffffffffffffffffffffffff1673ffffffffffffffffffffffffffffffffffffffff163373ffffffffffffffffffffffffffffffffffffffff16141515611c3357600080fd5b600073ffffffffffffffffffffffffffffffffffffffff168173ffffffffffffffffffffffffffffffffffffffff1614151515611c6f57600080fd5b8073ffffffffffffffffffffffffffffffffffffffff166000809054906101000a900473ffffffffffffffffffffffffffffffffffffffff1673ffffffffffffffffffffffffffffffffffffffff167f8be0079c531659141344cd1fd0a4f28419497f9722a3daafe3b4186f6b6457e060405160405180910390a3806000806101000a81548173ffffffffffffffffffffffffffffffffffffffff021916908373ffffffffffffffffffffffffffffffffffffffff16021790555050565b6000611d3a826002612741565b8015611d4d5750611d4c82600161275c565b5b9050919050565b6000611d61826001612741565b8015611d745750611d7382600161275c565b5b9050919050565b6000806000808773ffffffffffffffffffffffffffffffffffffffff16634c77e5ba60405180807f6f646c6c2f7061796d656e742d61646472657373000000000000000000000000815250601401905060405180910390206000604051602001526040518263ffffffff167c0100000000000000000000000000000000000000000000000000000000028152600401808260001916600019168152602001915050602060405180830381600087803b1515611e3557600080fd5b6102c65a03f11515611e4657600080fd5b50505060405180519050935060008473ffffffffffffffffffffffffffffffffffffffff1614158015611e90575060008773ffffffffffffffffffffffffffffffffffffffff1614155b8015611eb3575060008673ffffffffffffffffffffffffffffffffffffffff1614155b1515611ebe57600080fd5b8773ffffffffffffffffffffffffffffffffffffffff1663bdc963d88660405180807f7061796d656e742f71756f746500000000000000000000000000000000000000815250600d0182815260200191505060405180910390206000604051602001526040518263ffffffff167c0100000000000000000000000000000000000000000000000000000000028152600401808260001916600019168152602001915050602060405180830381600087803b1515611f7a57600080fd5b6102c65a03f11515611f8b57600080fd5b5050506040518051905092508773ffffffffffffffffffffffffffffffffffffffff1663bdc963d88660405180807f7061796d656e742f6f646c6c2d6665650000000000000000000000000000000081525060100182815260200191505060405180910390206000604051602001526040518263ffffffff167c0100000000000000000000000000000000000000000000000000000000028152600401808260001916600019168152602001915050602060405180830381600087803b151561205357600080fd5b6102c65a03f1151561206457600080fd5b5050506040518051905091508773ffffffffffffffffffffffffffffffffffffffff1663bdc963d88660405180807f7061796d656e742f64656e746973742d6665650000000000000000000000000081525060130182815260200191505060405180910390206000604051602001526040518263ffffffff167c0100000000000000000000000000000000000000000000000000000000028152600401808260001916600019168152602001915050602060405180830381600087803b151561212c57600080fd5b6102c65a03f1151561213d57600080fd5b5050506040518051905090506121538282612777565b8314151561216057600080fd5b61216b888785612795565b61217688878561296b565b612181888883612b41565b61218c888883612d17565b612197888584612eed565b6121a28885846130c3565b6121ad888789613299565b8373ffffffffffffffffffffffffffffffffffffffff166108fc839081150290604051600060405180830381858888f1935050505015156121ed57600080fd5b8673ffffffffffffffffffffffffffffffffffffffff166108fc829081150290604051600060405180830381858888f19350505050151561222d57600080fd5b5050505050505050565b6000612244826004612741565b8015612257575061225682600161275c565b5b9050919050565b600061226b826003612741565b801561227e575061227d82600161275c565b5b9050919050565b6000806000808773ffffffffffffffffffffffffffffffffffffffff16634c77e5ba60405180807f6f646c6c2f7061796d656e742d61646472657373000000000000000000000000815250601401905060405180910390206000604051602001526040518263ffffffff167c0100000000000000000000000000000000000000000000000000000000028152600401808260001916600019168152602001915050602060405180830381600087803b151561233f57600080fd5b6102c65a03f1151561235057600080fd5b50505060405180519050935060008473ffffffffffffffffffffffffffffffffffffffff161415801561239a575060008773ffffffffffffffffffffffffffffffffffffffff1614155b80156123bd575060008673ffffffffffffffffffffffffffffffffffffffff1614155b15156123c857600080fd5b8773ffffffffffffffffffffffffffffffffffffffff1663bdc963d88660405180807f7061796d656e742f71756f746500000000000000000000000000000000000000815250600d0182815260200191505060405180910390206000604051602001526040518263ffffffff167c0100000000000000000000000000000000000000000000000000000000028152600401808260001916600019168152602001915050602060405180830381600087803b151561248457600080fd5b6102c65a03f1151561249557600080fd5b5050506040518051905092508773ffffffffffffffffffffffffffffffffffffffff1663bdc963d88660405180807f7061796d656e742f6f646c6c2d6665650000000000000000000000000000000081525060100182815260200191505060405180910390206000604051602001526040518263ffffffff167c0100000000000000000000000000000000000000000000000000000000028152600401808260001916600019168152602001915050602060405180830381600087803b151561255d57600080fd5b6102c65a03f1151561256e57600080fd5b5050506040518051905091508773ffffffffffffffffffffffffffffffffffffffff1663bdc963d88660405180807f7061796d656e742f64656e746973742d6665650000000000000000000000000081525060130182815260200191505060405180910390206000604051602001526040518263ffffffff167c0100000000000000000000000000000000000000000000000000000000028152600401808260001916600019168152602001915050602060405180830381600087803b151561263657600080fd5b6102c65a03f1151561264757600080fd5b50505060405180519050905061265d8282612777565b8314151561266a57600080fd5b6126758887856133f8565b61268088878561296b565b61268b8888836135ce565b612696888883612d17565b6126a18885846137a4565b6126ac8885846130c3565b6126b7888789613299565b8373ffffffffffffffffffffffffffffffffffffffff166108fc839081150290604051600060405180830381858888f1935050505015156126f757600080fd5b8673ffffffffffffffffffffffffffffffffffffffff166108fc829081150290604051600060405180830381858888f19350505050151561273757600080fd5b5050505050505050565b600061274c8361397a565b60ff168260ff1614905092915050565b600061276783613ab7565b60ff168260ff1614905092915050565b600080828401905083811015151561278b57fe5b8091505092915050565b8273ffffffffffffffffffffffffffffffffffffffff1663c8d1c0178360405180807f70617469656e742f7363616e2d746f74616c2d706169640000000000000000008152506017018273ffffffffffffffffffffffffffffffffffffffff1673ffffffffffffffffffffffffffffffffffffffff166c010000000000000000000000000281526014019150506040518091039020836040518363ffffffff167c010000000000000000000000000000000000000000000000000000000002815260040180836000191660001916815260200182815260200192505050600060405180830381600087803b151561288b57600080fd5b6102c65a03f1151561289c57600080fd5b5050508273ffffffffffffffffffffffffffffffffffffffff1663c8d1c01760405180807f70617469656e74732f7363616e2d746f74616c2d70616964000000000000000081525060180190506040518091039020836040518363ffffffff167c010000000000000000000000000000000000000000000000000000000002815260040180836000191660001916815260200182815260200192505050600060405180830381600087803b151561295257600080fd5b6102c65a03f1151561296357600080fd5b505050505050565b8273ffffffffffffffffffffffffffffffffffffffff1663c8d1c0178360405180807f70617469656e742f746f74616c2d7061696400000000000000000000000000008152506012018273ffffffffffffffffffffffffffffffffffffffff1673ffffffffffffffffffffffffffffffffffffffff166c010000000000000000000000000281526014019150506040518091039020836040518363ffffffff167c010000000000000000000000000000000000000000000000000000000002815260040180836000191660001916815260200182815260200192505050600060405180830381600087803b1515612a6157600080fd5b6102c65a03f11515612a7257600080fd5b5050508273ffffffffffffffffffffffffffffffffffffffff1663c8d1c01760405180807f70617469656e74732f746f74616c2d706169640000000000000000000000000081525060130190506040518091039020836040518363ffffffff167c010000000000000000000000000000000000000000000000000000000002815260040180836000191660001916815260200182815260200192505050600060405180830381600087803b1515612b2857600080fd5b6102c65a03f11515612b3957600080fd5b505050505050565b8273ffffffffffffffffffffffffffffffffffffffff1663c8d1c0178360405180807f64656e746973742f7363616e2d746f74616c2d6561726e6564000000000000008152506019018273ffffffffffffffffffffffffffffffffffffffff1673ffffffffffffffffffffffffffffffffffffffff166c010000000000000000000000000281526014019150506040518091039020836040518363ffffffff167c010000000000000000000000000000000000000000000000000000000002815260040180836000191660001916815260200182815260200192505050600060405180830381600087803b1515612c3757600080fd5b6102c65a03f11515612c4857600080fd5b5050508273ffffffffffffffffffffffffffffffffffffffff1663c8d1c01760405180807f64656e74697374732f7363616e2d746f74616c2d6561726e6564000000000000815250601a0190506040518091039020836040518363ffffffff167c010000000000000000000000000000000000000000000000000000000002815260040180836000191660001916815260200182815260200192505050600060405180830381600087803b1515612cfe57600080fd5b6102c65a03f11515612d0f57600080fd5b505050505050565b8273ffffffffffffffffffffffffffffffffffffffff1663c8d1c0178360405180807f64656e746973742f746f74616c2d6561726e65640000000000000000000000008152506014018273ffffffffffffffffffffffffffffffffffffffff1673ffffffffffffffffffffffffffffffffffffffff166c010000000000000000000000000281526014019150506040518091039020836040518363ffffffff167c010000000000000000000000000000000000000000000000000000000002815260040180836000191660001916815260200182815260200192505050600060405180830381600087803b1515612e0d57600080fd5b6102c65a03f11515612e1e57600080fd5b5050508273ffffffffffffffffffffffffffffffffffffffff1663c8d1c01760405180807f64656e74697374732f746f74616c2d6561726e6564000000000000000000000081525060150190506040518091039020836040518363ffffffff167c010000000000000000000000000000000000000000000000000000000002815260040180836000191660001916815260200182815260200192505050600060405180830381600087803b1515612ed457600080fd5b6102c65a03f11515612ee557600080fd5b505050505050565b8273ffffffffffffffffffffffffffffffffffffffff1663c8d1c0178360405180807f6f646c6c2f7363616e2d746f74616c2d6561726e6564000000000000000000008152506016018273ffffffffffffffffffffffffffffffffffffffff1673ffffffffffffffffffffffffffffffffffffffff166c010000000000000000000000000281526014019150506040518091039020836040518363ffffffff167c010000000000000000000000000000000000000000000000000000000002815260040180836000191660001916815260200182815260200192505050600060405180830381600087803b1515612fe357600080fd5b6102c65a03f11515612ff457600080fd5b5050508273ffffffffffffffffffffffffffffffffffffffff1663c8d1c01760405180807f6f646c6c2f7363616e2d746f74616c2d6561726e65640000000000000000000081525060160190506040518091039020836040518363ffffffff167c010000000000000000000000000000000000000000000000000000000002815260040180836000191660001916815260200182815260200192505050600060405180830381600087803b15156130aa57600080fd5b6102c65a03f115156130bb57600080fd5b505050505050565b8273ffffffffffffffffffffffffffffffffffffffff1663c8d1c0178360405180807f6f646c6c2f746f74616c2d6561726e65640000000000000000000000000000008152506011018273ffffffffffffffffffffffffffffffffffffffff1673ffffffffffffffffffffffffffffffffffffffff166c010000000000000000000000000281526014019150506040518091039020836040518363ffffffff167c010000000000000000000000000000000000000000000000000000000002815260040180836000191660001916815260200182815260200192505050600060405180830381600087803b15156131b957600080fd5b6102c65a03f115156131ca57600080fd5b5050508273ffffffffffffffffffffffffffffffffffffffff1663c8d1c01760405180807f6f646c6c2f746f74616c2d6561726e656400000000000000000000000000000081525060110190506040518091039020836040518363ffffffff167c010000000000000000000000000000000000000000000000000000000002815260040180836000191660001916815260200182815260200192505050600060405180830381600087803b151561328057600080fd5b6102c65a03f1151561329157600080fd5b505050505050565b61334683836040805190810160405280600f81526020017f70617469656e742f64656e7469737400000000000000000000000000000000008152506040805190810160405280601681526020017f70617469656e742f64656e74697374732d636f756e74000000000000000000008152506040805190810160405280601381526020017f70617469656e742f64656e746973742d6b65790000000000000000000000000081525086613bf4565b6133f383826040805190810160405280600f81526020017f64656e746973742f70617469656e7400000000000000000000000000000000008152506040805190810160405280601381526020017f64656e746973742f70617469656e742d6b6579000000000000000000000000008152506040805190810160405280601381526020017f64656e746973742f70617469656e742d6b65790000000000000000000000000081525087613bf4565b505050565b8273ffffffffffffffffffffffffffffffffffffffff1663c8d1c0178360405180807f70617469656e742f74726561746d656e742d746f74616c2d7061696400000000815250601c018273ffffffffffffffffffffffffffffffffffffffff1673ffffffffffffffffffffffffffffffffffffffff166c010000000000000000000000000281526014019150506040518091039020836040518363ffffffff167c010000000000000000000000000000000000000000000000000000000002815260040180836000191660001916815260200182815260200192505050600060405180830381600087803b15156134ee57600080fd5b6102c65a03f115156134ff57600080fd5b5050508273ffffffffffffffffffffffffffffffffffffffff1663c8d1c01760405180807f70617469656e74732f74726561746d656e742d746f74616c2d70616964000000815250601d0190506040518091039020836040518363ffffffff167c010000000000000000000000000000000000000000000000000000000002815260040180836000191660001916815260200182815260200192505050600060405180830381600087803b15156135b557600080fd5b6102c65a03f115156135c657600080fd5b505050505050565b8273ffffffffffffffffffffffffffffffffffffffff1663c8d1c0178360405180807f64656e746973742f74726561746d656e742d746f74616c2d6561726e65640000815250601e018273ffffffffffffffffffffffffffffffffffffffff1673ffffffffffffffffffffffffffffffffffffffff166c010000000000000000000000000281526014019150506040518091039020836040518363ffffffff167c010000000000000000000000000000000000000000000000000000000002815260040180836000191660001916815260200182815260200192505050600060405180830381600087803b15156136c457600080fd5b6102c65a03f115156136d557600080fd5b5050508273ffffffffffffffffffffffffffffffffffffffff1663c8d1c01760405180807f64656e74697374732f74726561746d656e742d746f74616c2d6561726e656400815250601f0190506040518091039020836040518363ffffffff167c010000000000000000000000000000000000000000000000000000000002815260040180836000191660001916815260200182815260200192505050600060405180830381600087803b151561378b57600080fd5b6102c65a03f1151561379c57600080fd5b505050505050565b8273ffffffffffffffffffffffffffffffffffffffff1663c8d1c0178360405180807f6f646c6c2f74726561746d656e742d746f74616c2d6561726e65640000000000815250601b018273ffffffffffffffffffffffffffffffffffffffff1673ffffffffffffffffffffffffffffffffffffffff166c010000000000000000000000000281526014019150506040518091039020836040518363ffffffff167c010000000000000000000000000000000000000000000000000000000002815260040180836000191660001916815260200182815260200192505050600060405180830381600087803b151561389a57600080fd5b6102c65a03f115156138ab57600080fd5b5050508273ffffffffffffffffffffffffffffffffffffffff1663c8d1c01760405180807f6f646c6c2f74726561746d656e742d746f74616c2d6561726e65640000000000815250601b0190506040518091039020836040518363ffffffff167c010000000000000000000000000000000000000000000000000000000002815260040180836000191660001916815260200182815260200192505050600060405180830381600087803b151561396157600080fd5b6102c65a03f1151561397257600080fd5b505050505050565b6000600160009054906101000a900473ffffffffffffffffffffffffffffffffffffffff1673ffffffffffffffffffffffffffffffffffffffff16637a0e03ec8360405180807f757365722f7479706500000000000000000000000000000000000000000000008152506009018273ffffffffffffffffffffffffffffffffffffffff1673ffffffffffffffffffffffffffffffffffffffff166c0100000000000000000000000002815260140191505060405180910390206000604051602001526040518263ffffffff167c0100000000000000000000000000000000000000000000000000000000028152600401808260001916600019168152602001915050602060405180830381600087803b1515613a9557600080fd5b6102c65a03f11515613aa657600080fd5b505050604051805190509050919050565b6000600160009054906101000a900473ffffffffffffffffffffffffffffffffffffffff1673ffffffffffffffffffffffffffffffffffffffff16637a0e03ec8360405180807f757365722f737461747573000000000000000000000000000000000000000000815250600b018273ffffffffffffffffffffffffffffffffffffffff1673ffffffffffffffffffffffffffffffffffffffff166c0100000000000000000000000002815260140191505060405180910390206000604051602001526040518263ffffffff167c0100000000000000000000000000000000000000000000000000000000028152600401808260001916600019168152602001915050602060405180830381600087803b1515613bd257600080fd5b6102c65a03f11515613be357600080fd5b505050604051805190509050919050565b60008673ffffffffffffffffffffffffffffffffffffffff16637a0e03ec8688856040518084805190602001908083835b602083101515613c4a5780518252602082019150602081019050602083039250613c25565b6001836020036101000a0380198251168184511680821785525050505050509050018373ffffffffffffffffffffffffffffffffffffffff1673ffffffffffffffffffffffffffffffffffffffff166c010000000000000000000000000281526014018273ffffffffffffffffffffffffffffffffffffffff1673ffffffffffffffffffffffffffffffffffffffff166c01000000000000000000000000028152601401935050505060405180910390206000604051602001526040518263ffffffff167c0100000000000000000000000000000000000000000000000000000000028152600401808260001916600019168152602001915050602060405180830381600087803b1515613d5d57600080fd5b6102c65a03f11515613d6e57600080fd5b5050506040518051905060ff161415613d8f57613d8e8686848685613f15565b5b8573ffffffffffffffffffffffffffffffffffffffff16630bd851588587846040518084805190602001908083835b602083101515613de35780518252602082019150602081019050602083039250613dbe565b6001836020036101000a0380198251168184511680821785525050505050509050018373ffffffffffffffffffffffffffffffffffffffff1673ffffffffffffffffffffffffffffffffffffffff166c010000000000000000000000000281526014018273ffffffffffffffffffffffffffffffffffffffff1673ffffffffffffffffffffffffffffffffffffffff166c010000000000000000000000000281526014019350505050604051809103902060016040518363ffffffff167c01000000000000000000000000000000000000000000000000000000000281526004018083600019166000191681526020018260ff16815260200192505050600060405180830381600087803b1515613ef957600080fd5b6102c65a03f11515613f0a57600080fd5b505050505050505050565b6000613f228686856141d1565b90508573ffffffffffffffffffffffffffffffffffffffff16635a2bf25a8587846040518084805190602001908083835b602083101515613f785780518252602082019150602081019050602083039250613f53565b6001836020036101000a0380198251168184511680821785525050505050509050018373ffffffffffffffffffffffffffffffffffffffff1673ffffffffffffffffffffffffffffffffffffffff166c0100000000000000000000000002815260140182815260200193505050506040518091039020846040518363ffffffff167c01000000000000000000000000000000000000000000000000000000000281526004018083600019166000191681526020018273ffffffffffffffffffffffffffffffffffffffff1673ffffffffffffffffffffffffffffffffffffffff16815260200192505050600060405180830381600087803b151561407b57600080fd5b6102c65a03f1151561408c57600080fd5b5050508573ffffffffffffffffffffffffffffffffffffffff16633562fd2084876040518083805190602001908083835b6020831015156140e257805182526020820191506020810190506020830392506140bd565b6001836020036101000a0380198251168184511680821785525050505050509050018273ffffffffffffffffffffffffffffffffffffffff1673ffffffffffffffffffffffffffffffffffffffff166c01000000000000000000000000028152601401925050506040518091039020600184016040518363ffffffff167c010000000000000000000000000000000000000000000000000000000002815260040180836000191660001916815260200182815260200192505050600060405180830381600087803b15156141b557600080fd5b6102c65a03f115156141c657600080fd5b505050505050505050565b60008373ffffffffffffffffffffffffffffffffffffffff1663bdc963d883856040518083805190602001908083835b6020831015156142265780518252602082019150602081019050602083039250614201565b6001836020036101000a0380198251168184511680821785525050505050509050018273ffffffffffffffffffffffffffffffffffffffff1673ffffffffffffffffffffffffffffffffffffffff166c010000000000000000000000000281526014019250505060405180910390206000604051602001526040518263ffffffff167c0100000000000000000000000000000000000000000000000000000000028152600401808260001916600019168152602001915050602060405180830381600087803b15156142f757600080fd5b6102c65a03f1151561430857600080fd5b50505060405180519050905093925050505600a165627a7a7230582054323f5ef2d7330e81b22bdd9bdca59ddf0f18a2da95c16927ad9a123fb592610029",
  "source": "pragma solidity 0.4.18;\n\nimport \"./Restrictor.sol\";\nimport \"../lib/odll/userManager.sol\";\n\ncontract Escrow is Restrictor {\n  event FundReleased(uint paymentId, address payee);\n  event Refunded(uint paymentId, address payee);\n  event Paid(address callerAddress, uint amount);\n  //   uint public profit;\n\n  // States: 1 => Created, 2 => Locked, 3 => Won, 4 => Lost\n\n  function Escrow (address _dbAddress) public {\n    require(_dbAddress != 0x0);\n    dbAddress = _dbAddress;\n  }\n\n  function releaseFundForScan (address userId, address payee, uint paymentId)\n    external\n    onlyActiveDentistId(payee)\n    onlyActivePatientId(userId)\n    inState(paymentId, 2)\n  {\n    uint caseId = DB(dbAddress).getUIntValue(keccak256(\"payment/case\", paymentId));\n    address dentistId = DB(dbAddress).getAddressValue(keccak256(\"case/dentist\", caseId));\n    address patientId = DB(dbAddress).getAddressValue(keccak256(\"case/patient\", caseId));\n    uint amount = DB(dbAddress).getUIntValue(keccak256(\"payment/amount\", paymentId));\n\n    require(userId == patientId && payee == dentistId);\n    require(amount >= 0 && this.balance >= amount);\n\n    userManager.releaseScanFund(dbAddress, dentistId, patientId, paymentId);\n    DB(dbAddress).setUInt8Value(keccak256(\"payment/state\", paymentId), 3);\n    FundReleased(paymentId, payee);\n  }\n\n  function releaseFundForTreatment (address userId, address payee, uint paymentId)\n    external\n    onlyActiveDentistId(payee)\n    onlyActivePatientId(userId)\n    inState(paymentId, 2)\n  {\n    uint treatmentId = DB(dbAddress).getUIntValue(keccak256(\"payment/treatment\", paymentId));\n    address dentistId = DB(dbAddress).getAddressValue(keccak256(\"treatment/dentist\", treatmentId));\n    address patientId = DB(dbAddress).getAddressValue(keccak256(\"treatment/patient\", treatmentId));\n    uint amount = DB(dbAddress).getUIntValue(keccak256(\"payment/amount\", paymentId));\n\n    require(userId == patientId && payee == dentistId);\n    require(amount >= 0 && this.balance >= amount);\n\n    userManager.releaseTreatmentFund(dbAddress, dentistId, patientId, paymentId);\n    DB(dbAddress).setUInt8Value(keccak256(\"payment/state\", paymentId), 3);\n    FundReleased(paymentId, payee);\n  }\n\n  function refund (address userId, address payee, uint paymentId)\n    external\n    onlyOwnerOrActiveAdminOrActiveManagerId(userId)\n    onlyActivePatientId(payee)\n    inState(paymentId, 2)\n  {\n    uint amount = DB(dbAddress).getUIntValue(keccak256(\"payment/amount\", paymentId));\n\n    require(amount >= 0 && this.balance >= amount);\n\n    payee.transfer(amount);\n    DB(dbAddress).setUInt8Value(keccak256(\"payment/state\", paymentId), 4);\n    Refunded(paymentId, payee);\n  }\n\n  /*function getBalance() external view returns (uint balance) {\n    balance = this.balance;\n  }*/\n\n//   // don't use for now\n//   function transferProfit(address userId, address toAddress)\n//     external\n//     payable\n//     onlyOwnerCanCall(userId)\n//   {\n//     toAddress.transfer(profit);\n//   }\n\n//   // don't use for now\n//   function secureFunding(uint amount, uint fundAmount)\n//     internal\n//     constant\n//     returns (uint)\n//   {\n//     if (amount > fundAmount) {\n//       profit += SafeMath.sub(amount, fundAmount);\n//     } else {\n//       fundAmount = amount;\n//     }\n\n//     return fundAmount;\n//   }\n\n  function transferFunds(address userId, address newAddress)\n    external\n    payable\n    onlyOwnerCanCall(userId)\n  {\n    require(newAddress != 0x0);\n    uint amount = this.balance;\n    newAddress.transfer(amount);\n  }\n\n  function () public payable {\n    Paid(msg.sender, msg.value);\n  }\n}\n",
  "sourcePath": "/Users/danielokwufulueze/dev/vue/apps/oraldatalink/contracts/odll/Escrow.sol",
  "compiler": {
    "name": "solc",
    "version": "0.4.18+commit.9cf6e910.Emscripten.clang"
  },
  "schemaVersion": "1.0.1",
  "updatedAt": "2018-02-03T22:18:34.803Z"
}