{
  "contractName": "ODLLUserReader",
  "abi": [
    {
      "constant": true,
      "inputs": [
        {
          "name": "userId",
          "type": "address"
        }
      ],
      "name": "getUserDentistsIds",
      "outputs": [
        {
          "name": "dentistsIds",
          "type": "address[]"
        }
      ],
      "payable": false,
      "stateMutability": "view",
      "type": "function"
    },
    {
      "constant": true,
      "inputs": [
        {
          "name": "serviceTypeId",
          "type": "uint256"
        },
        {
          "name": "serviceId",
          "type": "uint256"
        },
        {
          "name": "dentistId",
          "type": "address"
        }
      ],
      "name": "getDentistFeeData",
      "outputs": [
        {
          "name": "fee",
          "type": "uint256"
        }
      ],
      "payable": false,
      "stateMutability": "view",
      "type": "function"
    },
    {
      "constant": true,
      "inputs": [
        {
          "name": "dentistId",
          "type": "address"
        }
      ],
      "name": "getDentistIdentityData",
      "outputs": [
        {
          "name": "",
          "type": "bool"
        },
        {
          "name": "",
          "type": "bool"
        },
        {
          "name": "",
          "type": "bytes32"
        }
      ],
      "payable": false,
      "stateMutability": "view",
      "type": "function"
    },
    {
      "constant": true,
      "inputs": [
        {
          "name": "userId",
          "type": "address"
        },
        {
          "name": "serviceTypeId",
          "type": "uint256"
        },
        {
          "name": "offset",
          "type": "uint256"
        },
        {
          "name": "limit",
          "type": "uint256"
        },
        {
          "name": "seed",
          "type": "uint256"
        }
      ],
      "name": "fetchServices",
      "outputs": [
        {
          "name": "",
          "type": "uint256"
        },
        {
          "name": "",
          "type": "uint256[]"
        }
      ],
      "payable": false,
      "stateMutability": "view",
      "type": "function"
    },
    {
      "constant": true,
      "inputs": [
        {
          "name": "userId",
          "type": "address"
        }
      ],
      "name": "getUserIdentityData",
      "outputs": [
        {
          "name": "",
          "type": "uint8"
        },
        {
          "name": "",
          "type": "bytes32"
        },
        {
          "name": "",
          "type": "bytes32"
        },
        {
          "name": "",
          "type": "bytes32"
        }
      ],
      "payable": false,
      "stateMutability": "view",
      "type": "function"
    },
    {
      "constant": true,
      "inputs": [],
      "name": "smartContractStatus",
      "outputs": [
        {
          "name": "",
          "type": "uint8"
        }
      ],
      "payable": false,
      "stateMutability": "view",
      "type": "function"
    },
    {
      "constant": true,
      "inputs": [
        {
          "name": "userId",
          "type": "address"
        }
      ],
      "name": "getUserContactData",
      "outputs": [
        {
          "name": "",
          "type": "bytes32"
        },
        {
          "name": "",
          "type": "bytes32"
        },
        {
          "name": "",
          "type": "bytes32"
        },
        {
          "name": "",
          "type": "uint256"
        },
        {
          "name": "",
          "type": "bytes32"
        },
        {
          "name": "",
          "type": "uint256"
        }
      ],
      "payable": false,
      "stateMutability": "view",
      "type": "function"
    },
    {
      "constant": true,
      "inputs": [
        {
          "name": "userId",
          "type": "address"
        },
        {
          "name": "serviceTypeId",
          "type": "uint256"
        },
        {
          "name": "offset",
          "type": "uint256"
        },
        {
          "name": "limit",
          "type": "uint256"
        },
        {
          "name": "seed",
          "type": "uint256"
        }
      ],
      "name": "fetchServicesWithFees",
      "outputs": [
        {
          "name": "",
          "type": "uint256"
        },
        {
          "name": "",
          "type": "uint256[]"
        },
        {
          "name": "",
          "type": "uint256[]"
        }
      ],
      "payable": false,
      "stateMutability": "view",
      "type": "function"
    },
    {
      "constant": true,
      "inputs": [],
      "name": "owner",
      "outputs": [
        {
          "name": "",
          "type": "address"
        }
      ],
      "payable": false,
      "stateMutability": "view",
      "type": "function"
    },
    {
      "constant": true,
      "inputs": [],
      "name": "dbAddress",
      "outputs": [
        {
          "name": "",
          "type": "address"
        }
      ],
      "payable": false,
      "stateMutability": "view",
      "type": "function"
    },
    {
      "constant": true,
      "inputs": [
        {
          "name": "offset",
          "type": "uint256"
        },
        {
          "name": "limit",
          "type": "uint256"
        },
        {
          "name": "seed",
          "type": "uint256"
        }
      ],
      "name": "fetchDentists",
      "outputs": [
        {
          "name": "",
          "type": "uint256"
        },
        {
          "name": "",
          "type": "address[]"
        }
      ],
      "payable": false,
      "stateMutability": "view",
      "type": "function"
    },
    {
      "constant": false,
      "inputs": [
        {
          "name": "callerAddress",
          "type": "address"
        },
        {
          "name": "newContractAddress",
          "type": "address"
        }
      ],
      "name": "destroySelf",
      "outputs": [],
      "payable": false,
      "stateMutability": "nonpayable",
      "type": "function"
    },
    {
      "constant": true,
      "inputs": [
        {
          "name": "offset",
          "type": "uint256"
        },
        {
          "name": "limit",
          "type": "uint256"
        },
        {
          "name": "seed",
          "type": "uint256"
        }
      ],
      "name": "fetchManagers",
      "outputs": [
        {
          "name": "",
          "type": "uint256"
        },
        {
          "name": "",
          "type": "address[]"
        }
      ],
      "payable": false,
      "stateMutability": "view",
      "type": "function"
    },
    {
      "constant": true,
      "inputs": [
        {
          "name": "dentistId",
          "type": "address"
        }
      ],
      "name": "getDentistRatingData",
      "outputs": [
        {
          "name": "rating",
          "type": "uint256"
        }
      ],
      "payable": false,
      "stateMutability": "view",
      "type": "function"
    },
    {
      "constant": true,
      "inputs": [
        {
          "name": "userId",
          "type": "address"
        }
      ],
      "name": "getUserPersonalData",
      "outputs": [
        {
          "name": "gender",
          "type": "uint8"
        },
        {
          "name": "socialSecurityNumber",
          "type": "bytes32"
        },
        {
          "name": "birthday",
          "type": "bytes32"
        }
      ],
      "payable": false,
      "stateMutability": "view",
      "type": "function"
    },
    {
      "constant": true,
      "inputs": [
        {
          "name": "stateId",
          "type": "uint256"
        },
        {
          "name": "serviceTypeId",
          "type": "uint256"
        },
        {
          "name": "serviceId",
          "type": "uint256"
        },
        {
          "name": "budget",
          "type": "uint256[]"
        },
        {
          "name": "offset",
          "type": "uint256"
        },
        {
          "name": "limit",
          "type": "uint256"
        },
        {
          "name": "seed",
          "type": "uint256"
        }
      ],
      "name": "findDentists",
      "outputs": [
        {
          "name": "",
          "type": "uint256"
        },
        {
          "name": "",
          "type": "address[]"
        }
      ],
      "payable": false,
      "stateMutability": "view",
      "type": "function"
    },
    {
      "constant": false,
      "inputs": [
        {
          "name": "newOwner",
          "type": "address"
        }
      ],
      "name": "transferOwnership",
      "outputs": [],
      "payable": false,
      "stateMutability": "nonpayable",
      "type": "function"
    },
    {
      "inputs": [
        {
          "name": "_dbAddress",
          "type": "address"
        }
      ],
      "payable": false,
      "stateMutability": "nonpayable",
      "type": "constructor"
    },
    {
      "anonymous": false,
      "inputs": [
        {
          "indexed": false,
          "name": "status",
          "type": "uint8"
        }
      ],
      "name": "OnSmartContractStatusSet",
      "type": "event"
    },
    {
      "anonymous": false,
      "inputs": [
        {
          "indexed": true,
          "name": "previousOwner",
          "type": "address"
        },
        {
          "indexed": true,
          "name": "newOwner",
          "type": "address"
        }
      ],
      "name": "OwnershipTransferred",
      "type": "event"
    }
  ],
  "bytecode": "0x6060604052341561000f57600080fd5b6040516020806132688339810160405280805160008054600160a060020a03191633600160a060020a039081169190911790915590925082161515905061005557600080fd5b60018054600160a060020a031916600160a060020a03929092169190911790556131e4806100846000396000f300606060405236156100d55763ffffffff60e060020a600035041663096289fc81146100da5780630b91f9a71461014c57806326ec0b15146101835780632d064206146101c85780632deb044a1461024d5780634c8ddddc1461029c57806359f60150146102c55780635a1e4f901461031d5780638da5cb5b146103e857806391e06b6d1461041757806396f7a4451461042a578063b16b223014610446578063be31885b1461046d578063ca6e44ac14610489578063e6277fcc146104a8578063eb6ce033146104ef578063f2fde38b14610522575b600080fd5b34156100e557600080fd5b6100f9600160a060020a0360043516610541565b60405160208082528190810183818151815260200191508051906020019060200280838360005b83811015610138578082015183820152602001610120565b505050509050019250505060405180910390f35b341561015757600080fd5b610171600435602435600160a060020a0360443516610565565b60405190815260200160405180910390f35b341561018e57600080fd5b6101a2600160a060020a0360043516610588565b604051921515835290151560208301526040808301919091526060909101905180910390f35b34156101d357600080fd5b6101f3600160a060020a03600435166024356044356064356084356105b2565b60405182815260406020820181815290820183818151815260200191508051906020019060200280838360005b83811015610238578082015183820152602001610220565b50505050905001935050505060405180910390f35b341561025857600080fd5b61026c600160a060020a03600435166105e4565b60405160ff9094168452602084019290925260408084019190915260608301919091526080909101905180910390f35b34156102a757600080fd5b6102af610612565b60405160ff909116815260200160405180910390f35b34156102d057600080fd5b6102e4600160a060020a0360043516610633565b60405195865260208601949094526040808601939093526060850191909152608084015260a083019190915260c0909101905180910390f35b341561032857600080fd5b610348600160a060020a036004351660243560443560643560843561066f565b604051808481526020018060200180602001838103835285818151815260200191508051906020019060200280838360005b8381101561039257808201518382015260200161037a565b50505050905001838103825284818151815260200191508051906020019060200280838360005b838110156103d15780820151838201526020016103b9565b505050509050019550505050505060405180910390f35b34156103f357600080fd5b6103fb6106ac565b604051600160a060020a03909116815260200160405180910390f35b341561042257600080fd5b6103fb6106bb565b341561043557600080fd5b6101f36004356024356044356106ca565b341561045157600080fd5b61046b600160a060020a03600435811690602435166106f8565b005b341561047857600080fd5b6101f36004356024356044356107da565b341561049457600080fd5b610171600160a060020a03600435166107fc565b34156104b357600080fd5b6104c7600160a060020a036004351661081e565b60405160ff909316835260208301919091526040808301919091526060909101905180910390f35b34156104fa57600080fd5b6101f3600480359060248035916044359160643590810191013560843560a43560c435610848565b341561052d57600080fd5b61046b600160a060020a03600435166108ad565b6105496131a6565b60015461055f90600160a060020a031683610948565b92915050565b60015460009061058090600160a060020a03168585856109fd565b949350505050565b600154600090819081906105a590600160a060020a031685610a14565b9250925092509193909250565b60006105bc6131a6565b6001546105d690600160a060020a03168888888888610c3a565b915091509550959350505050565b60015460009081908190819061060390600160a060020a031686610c6c565b93509350935093509193509193565b60015474010000000000000000000000000000000000000000900460ff1681565b60008060008060008061065b600160009054906101000a9004600160a060020a031688610f47565b949c939b5091995097509550909350915050565b60006106796131a6565b6106816131a6565b60015461069b90600160a060020a0316898989898961138d565b925092509250955095509592505050565b600054600160a060020a031681565b600154600160a060020a031681565b60006106d46131a6565b6001546106ec90600160a060020a03168686866113cc565b91509150935093915050565b6000548290600160a060020a0380831691161480156107c35750600154600160a060020a0316634c77e5ba6040517f6f646c6c2f6f776e6572000000000000000000000000000000000000000000008152600a01604051809103902060006040516020015260405160e060020a63ffffffff84160281526004810191909152602401602060405180830381600087803b151561079357600080fd5b6102c65a03f115156107a457600080fd5b50505060405180519050600160a060020a031681600160a060020a0316145b15156107ce57600080fd5b81600160a060020a0316ff5b60006107e46131a6565b6001546106ec90600160a060020a03168686866113fa565b60015460009061081590600160a060020a03168361140d565b60ff1692915050565b6001546000908190819061083b90600160a060020a0316856114c7565b9196909550909350915050565b60006108526131a6565b60015461089c90600160a060020a03168b8b8b8b8b8060208082020160405190810160405280939291908181526020018383602002808284378201915050505050508a8a8a6116c9565b915091509850989650505050505050565b60005433600160a060020a039081169116146108c857600080fd5b600160a060020a03811615156108dd57600080fd5b600054600160a060020a0380831691167f8be0079c531659141344cd1fd0a4f28419497f9722a3daafe3b4186f6b6457e060405160405180910390a36000805473ffffffffffffffffffffffffffffffffffffffff1916600160a060020a0392909216919091179055565b6109506131a6565b6109f68383604080519081016040908152600f82527f70617469656e742f64656e746973740000000000000000000000000000000000602083015280519081016040908152601682527f70617469656e742f64656e74697374732d636f756e740000000000000000000060208301528051908101604052601381527f70617469656e742f64656e746973742d6b657900000000000000000000000000602082015261172b565b9392505050565b6000610a0b858585856119aa565b95945050505050565b600080600084600160a060020a03166317e7dd22856040517f757365722f69732d6f646c6c2d64656e746973743f00000000000000000000008152600160a060020a0391909116606060020a026015820152602901604051809103902060006040516020015260405160e060020a63ffffffff84160281526004810191909152602401602060405180830381600087803b1515610ab057600080fd5b6102c65a03f11515610ac157600080fd5b5050506040518051935050600160a060020a0385166317e7dd22856040517f757365722f69732d617661696c61626c653f00000000000000000000000000008152600160a060020a0391909116606060020a026012820152602601604051809103902060006040516020015260405160e060020a63ffffffff84160281526004810191909152602401602060405180830381600087803b1515610b6357600080fd5b6102c65a03f11515610b7457600080fd5b5050506040518051925050600160a060020a03851663025ec81a856040517f64656e746973742f636f6d70616e792d6e616d650000000000000000000000008152600160a060020a0391909116606060020a026014820152602801604051809103902060006040516020015260405160e060020a63ffffffff84160281526004810191909152602401602060405180830381600087803b1515610c1657600080fd5b6102c65a03f11515610c2757600080fd5b5050506040518051905090509250925092565b6000610c446131a6565b610c4f888789611b25565b9050610c5d81868686611c94565b90999098509650505050505050565b60008060008085600160a060020a0316637a0e03ec866040517f757365722f7479706500000000000000000000000000000000000000000000008152600160a060020a0391909116606060020a026009820152601d01604051809103902060006040516020015260405160e060020a63ffffffff84160281526004810191909152602401602060405180830381600087803b1515610d0957600080fd5b6102c65a03f11515610d1a57600080fd5b5050506040518051945050600160a060020a03861663025ec81a866040517f757365722f6e616d6500000000000000000000000000000000000000000000008152600160a060020a0391909116606060020a026009820152601d01604051809103902060006040516020015260405160e060020a63ffffffff84160281526004810191909152602401602060405180830381600087803b1515610dbc57600080fd5b6102c65a03f11515610dcd57600080fd5b5050506040518051935050600160a060020a03861663025ec81a866040517f757365722f656d61696c000000000000000000000000000000000000000000008152600160a060020a0391909116606060020a02600a820152601e01604051809103902060006040516020015260405160e060020a63ffffffff84160281526004810191909152602401602060405180830381600087803b1515610e6f57600080fd5b6102c65a03f11515610e8057600080fd5b5050506040518051925050600160a060020a03861663025ec81a866040517f757365722f6772617661746172000000000000000000000000000000000000008152600160a060020a0391909116606060020a02600d820152602101604051809103902060006040516020015260405160e060020a63ffffffff84160281526004810191909152602401602060405180830381600087803b1515610f2257600080fd5b6102c65a03f11515610f3357600080fd5b505050604051805194979396509194505050565b60008060008060008087600160a060020a031663025ec81a886040517f757365722f7374726565740000000000000000000000000000000000000000008152600160a060020a0391909116606060020a02600b820152601f01604051809103902060006040516020015260405160e060020a63ffffffff84160281526004810191909152602401602060405180830381600087803b1515610fe757600080fd5b6102c65a03f11515610ff857600080fd5b5050506040518051965050600160a060020a03881663025ec81a886040517f757365722f6369747900000000000000000000000000000000000000000000008152600160a060020a0391909116606060020a026009820152601d01604051809103902060006040516020015260405160e060020a63ffffffff84160281526004810191909152602401602060405180830381600087803b151561109a57600080fd5b6102c65a03f115156110ab57600080fd5b5050506040518051955050600160a060020a03881663025ec81a886040517f757365722f70686f6e652d6e756d6265720000000000000000000000000000008152600160a060020a0391909116606060020a026011820152602501604051809103902060006040516020015260405160e060020a63ffffffff84160281526004810191909152602401602060405180830381600087803b151561114d57600080fd5b6102c65a03f1151561115e57600080fd5b5050506040518051945050600160a060020a03881663bdc963d8886040517f757365722f7374617465000000000000000000000000000000000000000000008152600160a060020a0391909116606060020a02600a820152601e01604051809103902060006040516020015260405160e060020a63ffffffff84160281526004810191909152602401602060405180830381600087803b151561120057600080fd5b6102c65a03f1151561121157600080fd5b5050506040518051935050600160a060020a03881663025ec81a886040517f757365722f7a69702d636f6465000000000000000000000000000000000000008152600160a060020a0391909116606060020a02600d820152602101604051809103902060006040516020015260405160e060020a63ffffffff84160281526004810191909152602401602060405180830381600087803b15156112b357600080fd5b6102c65a03f115156112c457600080fd5b5050506040518051925050600160a060020a03881663bdc963d8886040517f757365722f636f756e74727900000000000000000000000000000000000000008152600160a060020a0391909116606060020a02600c820152602001604051809103902060006040516020015260405160e060020a63ffffffff84160281526004810191909152602401602060405180830381600087803b151561136657600080fd5b6102c65a03f1151561137757600080fd5b5050506040518051905090509295509295509295565b60006113976131a6565b61139f6131a6565b6113ad898989898989610c3a565b90935091506113be8988848b611d03565b905096509650969350505050565b60006113d66131a6565b6113df86611d85565b90506113ed81868686611dfe565b9097909650945050505050565b60006114046131a6565b6113df86611e58565b600082600160a060020a0316637a0e03ec836040517f64656e746973742f617665726167652d726174696e67000000000000000000008152600160a060020a0391909116606060020a026016820152602a01604051809103902060006040516020015260405160e060020a63ffffffff84160281526004810191909152602401602060405180830381600087803b15156114a657600080fd5b6102c65a03f115156114b757600080fd5b5050506040518051949350505050565b600080600084600160a060020a0316637a0e03ec856040517f757365722f67656e6465720000000000000000000000000000000000000000008152600160a060020a0391909116606060020a02600b820152601f01604051809103902060006040516020015260405160e060020a63ffffffff84160281526004810191909152602401602060405180830381600087803b151561156357600080fd5b6102c65a03f1151561157457600080fd5b5050506040518051935050600160a060020a03851663025ec81a856040517f757365722f736f6369616c2d73656375726974792d6e756d62657200000000008152600160a060020a0391909116606060020a02601b820152602f01604051809103902060006040516020015260405160e060020a63ffffffff84160281526004810191909152602401602060405180830381600087803b151561161657600080fd5b6102c65a03f1151561162757600080fd5b5050506040518051925050600160a060020a03851663025ec81a856040517f757365722f6269727468646179000000000000000000000000000000000000008152600160a060020a0391909116606060020a02600d820152602101604051809103902060006040516020015260405160e060020a63ffffffff84160281526004810191909152602401602060405180830381600087803b1515610c1657600080fd5b60006116d36131a6565b6116db6131a6565b6116e36131a6565b6116ef8c8b8b8b611ed1565b91506116fd8c8b8b8e611fcf565b905061170a8c838361209a565b925061171883888888611dfe565b909d909c509a5050505050505050505050565b6117336131a6565b6000806000806117448a8a89612176565b9350836040518059106117545750595b9080825280602002602001820160405250945060009250600091505b838210156119925789600160a060020a0316634c77e5ba878b856040518084805190602001908083835b602083106117b95780518252601f19909201916020918201910161179a565b6001836020036101000a03801982511681845116808217855250505050505090500183600160a060020a0316600160a060020a0316606060020a0281526014018281526020019350505050604051809103902060006040516020015260405160e060020a63ffffffff84160281526004810191909152602401602060405180830381600087803b151561184b57600080fd5b6102c65a03f1151561185c57600080fd5b5050506040518051915050600160a060020a038a16637a0e03ec898b846040518084805190602001908083835b602083106118a85780518252601f199092019160209182019101611889565b6001836020036101000a0380198251168184511617909252505050600160a060020a03958616606060020a90810291909301908152939094160260148301525060280191506040905051809103902060006040516020015260405160e060020a63ffffffff84160281526004810191909152602401602060405180830381600087803b151561193657600080fd5b6102c65a03f1151561194757600080fd5b5050506040518051905060ff1660011415611987578085848151811061196957fe5b600160a060020a039092166020928302909101909101526001909201915b600190910190611770565b61199c8386612265565b9a9950505050505050505050565b60008360011415611a745784600160a060020a031663bdc963d883856040517f64656e746973742f7363616e2d736572766963652f66656500000000000000008152600160a060020a0392909216606060020a026018830152602c820152604c01604051809103902060006040516020015260405160e060020a63ffffffff84160281526004810191909152602401602060405180830381600087803b1515611a5257600080fd5b6102c65a03f11515611a6357600080fd5b505050604051805190509050610580565b8360021415611b1a5784600160a060020a031663bdc963d883856040517f64656e746973742f74726561746d656e742d736572766963652f6665650000008152600160a060020a0392909216606060020a02601d8301526031820152605101604051809103902060006040516020015260405160e060020a63ffffffff84160281526004810191909152602401602060405180830381600087803b1515611a5257600080fd5b506000949350505050565b611b2d6131a6565b8260011415611be357611bdc8483604080519081016040908152601482527f64656e746973742f7363616e2d73657276696365000000000000000000000000602083015280519081016040908152601b82527f64656e746973742f7363616e2d73657276696365732d636f756e74000000000060208301528051908101604052601881527f64656e746973742f7363616e2d736572766963652d6b6579000000000000000060208201526122f6565b90506109f6565b82600214156109f657611bdc8483604080519081016040908152601982527f64656e746973742f74726561746d656e742d73657276696365000000000000006020830152805190810160405280602081526020017f64656e746973742f74726561746d656e742d73657276696365732d636f756e7481525060408051908101604052601d81527f64656e746973742f74726561746d656e742d736572766963652d6b657900000060208201526122f6565b6000611c9e6131a6565b85519150600086511115611cfa578551851115611cca5781611cc160008861255a565b91509150611cfa565b85518486011115611cdc578486510393505b611cf7868751878601811515611cee57fe5b068660016125d7565b90505b94509492505050565b611d0b6131a6565b60008351604051805910611d1c5750595b90808252806020026020018201604052509150600090505b8351811015611d7c57611d5e8686868481518110611d4e57fe5b90602001906020020151866119aa565b828281518110611d6a57fe5b60209081029091010152600101611d34565b50949350505050565b611d8d6131a6565b61055f82604080519081016040908152600c82527f64656e74697374732f696473000000000000000000000000000000000000000060208301528051908101604052600e81527f64656e74697374732f636f756e7400000000000000000000000000000000000060208201526126f7565b6000611e086131a6565b85519150600086511115611cfa578551851115611e2b5781611cc1600088612265565b85518486011115611e3d578486510393505b611cf7868751878601811515611e4f57fe5b068660016128f6565b611e606131a6565b61055f82604080519081016040908152600c82527f6d616e61676572732f696473000000000000000000000000000000000000000060208301528051908101604052600e81527f6d616e61676572732f636f756e7400000000000000000000000000000000000060208201526126f7565b611ed96131a6565b611ee16131a6565b600080600080611ef28a8a8a612a24565b94508451604051805910611f035750595b9080825280602002602001820160405250955060009350600092505b8451831015611fc557848381518110611f3457fe5b906020019060200201519150611f4c8a8a8a856119aa565b905086600081518110611f5b57fe5b906020019060200201518110158015611f8a575086600181518110611f7c57fe5b906020019060200201518111155b15611fba5781868581518110611f9c57fe5b600160a060020a039092166020928302909101909101526001909301925b600190920191611f1f565b61199c8487612265565b611fd76131a6565b611fdf6131a6565b6000806000611fef898989612a24565b935083516040518059106120005750595b9080825280602002602001820160405250945060009250600091505b83518210156120835783828151811061203157fe5b906020019060200201519050612048898288612b8c565b15612078578085848151811061205a57fe5b600160a060020a039092166020928302909101909101526001909201915b60019091019061201c565b61208d8386612265565b9998505050505050505050565b6120a26131a6565b600084600160a060020a031663bdc963d86040517f64656e74697374732f636f756e740000000000000000000000000000000000008152600e01604051809103902060006040516020015260405160e060020a63ffffffff84160281526004810191909152602401602060405180830381600087803b151561212357600080fd5b6102c65a03f1151561213457600080fd5b505050604051805191505080151561214b5761216e565b61215484612c58565b935061215f83612c58565b925061216b8484612d46565b91505b509392505050565b600083600160a060020a031663bdc963d883856040518083805190602001908083835b602083106121b85780518252601f199092019160209182019101612199565b6001836020036101000a03801982511681845116808217855250505050505090500182600160a060020a0316600160a060020a0316606060020a02815260140192505050604051809103902060006040516020015260405160e060020a63ffffffff84160281526004810191909152602401602060405180830381600087803b151561224357600080fd5b6102c65a03f1151561225457600080fd5b505050604051805195945050505050565b61226d6131a6565b60008251841115612280578291506122ef565b8360405180591061228e5750595b90808252806020026020018201604052509150600090505b838110156122ef578281815181106122ba57fe5b906020019060200201518282815181106122d057fe5b600160a060020a039092166020928302909101909101526001016122a6565b5092915050565b6122fe6131a6565b60008060008061230f8a8a89612176565b93508360405180591061231f5750595b9080825280602002602001820160405250945060009250600091505b838210156125545789600160a060020a031663bdc963d8878b856040518084805190602001908083835b602083106123845780518252601f199092019160209182019101612365565b6001836020036101000a03801982511681845116808217855250505050505090500183600160a060020a0316600160a060020a0316606060020a0281526014018281526020019350505050604051809103902060006040516020015260405160e060020a63ffffffff84160281526004810191909152602401602060405180830381600087803b151561241657600080fd5b6102c65a03f1151561242757600080fd5b5050506040518051915050600160a060020a038a16637a0e03ec898b846040518084805190602001908083835b602083106124735780518252601f199092019160209182019101612454565b6001836020036101000a03801982511681845116808217855250505050505090500183600160a060020a0316600160a060020a0316606060020a0281526014018281526020019350505050604051809103902060006040516020015260405160e060020a63ffffffff84160281526004810191909152602401602060405180830381600087803b151561250557600080fd5b6102c65a03f1151561251657600080fd5b5050506040518051905060ff1660011415612549578085848151811061253857fe5b602090810290910101526001909201915b60019091019061233b565b61199c83865b6125626131a6565b60008251841115612575578291506122ef565b836040518059106125835750595b90808252806020026020018201604052509150600090505b838110156122ef578281815181106125af57fe5b906020019060200201518282815181106125c557fe5b6020908102909101015260010161259b565b6125df6131a6565b60008080808851925082881015806125f5575086155b156125ff576126eb565b8660405180591061260d5750595b908082528060200260200182016040525094508791505b868801821015612677578183141561263b57612677565b88828151811061264757fe5b9060200190602002015185858151811061265d57fe5b602090810290910101526001938401939190910190612624565b85801561268357508684105b156126e15750600090508286035b8082116126e157838714156126a5576126e1565b8882815181106126b157fe5b906020019060200201518585815181106126c757fe5b602090810290910101526001938401939190910190612691565b61208d848661255a565b50505050949350505050565b6126ff6131a6565b60008085600160a060020a031663bdc963d8856040518082805190602001908083835b602083106127415780518252601f199092019160209182019101612722565b6001836020036101000a0380198251168184511617909252505050919091019250604091505051809103902060006040516020015260405160e060020a63ffffffff84160281526004810191909152602401602060405180830381600087803b15156127ac57600080fd5b6102c65a03f115156127bd57600080fd5b505050604051805190509150816040518059106127d75750595b90808252806020026020018201604052509250600090505b818110156128ed5785600160a060020a0316634c77e5ba86836040518083805190602001908083835b602083106128375780518252601f199092019160209182019101612818565b6001836020036101000a03801982511681845116179092525050509190910192835250506020019050604051809103902060006040516020015260405160e060020a63ffffffff84160281526004810191909152602401602060405180830381600087803b15156128a757600080fd5b6102c65a03f115156128b857600080fd5b505050604051805190508382815181106128ce57fe5b600160a060020a039092166020928302909101909101526001016127ef565b50509392505050565b6128fe6131a6565b6000808080885192508288101580612914575086155b1561291e576126eb565b8660405180591061292c5750595b908082528060200260200182016040525094508791505b8688018210156129a3578183141561295a576129a3565b88828151811061296657fe5b9060200190602002015185858151811061297c57fe5b600160a060020a039092166020928302909101909101526001938401939190910190612943565b8580156129af57508684105b15612a1a5750600090508286035b808211612a1a57838714156129d157612a1a565b8882815181106129dd57fe5b906020019060200201518585815181106129f357fe5b600160a060020a0390921660209283029091019091015260019384019391909101906129bd565b61208d8486612265565b612a2c6131a6565b8260011415612adb57611bdc8483604080519081016040908152601482527f7363616e2d736572766963652f64656e74697374000000000000000000000000602083015280519081016040908152601b82527f7363616e2d736572766963652f64656e74697374732d636f756e74000000000060208301528051908101604052601881527f7363616e2d736572766963652f64656e746973742d6b657900000000000000006020820152612eb4565b82600214156109f657611bdc8483604080519081016040908152601982527f74726561746d656e742d736572766963652f64656e74697374000000000000006020830152805190810160405280602081526020017f74726561746d656e742d736572766963652f64656e74697374732d636f756e7481525060408051908101604052601d81527f74726561746d656e742d736572766963652f64656e746973742d6b65790000006020820152612eb4565b6000811515612b9d575060016109f6565b83600160a060020a031663bdc963d8846040517f757365722f7374617465000000000000000000000000000000000000000000008152600160a060020a0391909116606060020a02600a820152601e01604051809103902060006040516020015260405160e060020a63ffffffff84160281526004810191909152602401602060405180830381600087803b1515612c3457600080fd5b6102c65a03f11515612c4557600080fd5b5050506040518051909214949350505050565b612c606131a6565b60016000805b8451831015612d3d57848381518110612c7b57fe5b9060200190602002015191508290505b600081118015612cc4575081600160a060020a0316856001830381518110612caf57fe5b90602001906020020151600160a060020a0316115b15612d0e57846001820381518110612cd857fe5b90602001906020020151858281518110612cee57fe5b600160a060020a0390921660209283029091019091015260001901612c8b565b81858281518110612d1b57fe5b600160a060020a03909216602092830290910190910152600190920191612c66565b50929392505050565b612d4e6131a6565b60008060008060008751945086519350841580612d69575083155b15612d7357612ea9565b84604051805910612d815750595b908082528060200260200182016040525095506000925060009150600090505b8483108015612daf57508382105b15612e9c57868281518110612dc057fe5b90602001906020020151600160a060020a0316888481518110612ddf57fe5b90602001906020020151600160a060020a03161115612e0357600190910190612e97565b868281518110612e0f57fe5b90602001906020020151600160a060020a0316888481518110612e2e57fe5b90602001906020020151600160a060020a03161015612e5257600190920191612e97565b878381518110612e5e57fe5b90602001906020020151868281518110612e7457fe5b600160a060020a0390921660209283029091019091015260019283019291820191015b612da1565b612ea68187612265565b95505b505050505092915050565b612ebc6131a6565b600080600080612ecd8a8a896130f4565b935083604051805910612edd5750595b9080825280602002602001820160405250945060009250600091505b838210156119925789600160a060020a0316634c77e5ba878b856040518084805190602001908083835b60208310612f425780518252601f199092019160209182019101612f23565b6001836020036101000a038019825116818451161790925250505091909101938452505060208201526040908101915051809103902060006040516020015260405160e060020a63ffffffff84160281526004810191909152602401602060405180830381600087803b1515612fb757600080fd5b6102c65a03f11515612fc857600080fd5b5050506040518051915050600160a060020a038a16637a0e03ec898b846040518084805190602001908083835b602083106130145780518252601f199092019160209182019101612ff5565b6001836020036101000a0380198251168184511617909252505050919091019384525050600160a060020a0316606060020a0260208201526034019050604051809103902060006040516020015260405160e060020a63ffffffff84160281526004810191909152602401602060405180830381600087803b151561309857600080fd5b6102c65a03f115156130a957600080fd5b5050506040518051905060ff16600114156130e957808584815181106130cb57fe5b600160a060020a039092166020928302909101909101526001909201915b600190910190612ef9565b600083600160a060020a031663bdc963d883856040518083805190602001908083835b602083106131365780518252601f199092019160209182019101613117565b6001836020036101000a03801982511681845116179092525050509190910192835250506020019050604051809103902060006040516020015260405160e060020a63ffffffff84160281526004810191909152602401602060405180830381600087803b151561224357600080fd5b602060405190810160405260008152905600a165627a7a723058202dd822c57917674ce77a3415ca486be12bf02e06e8dfd8c8fe4136b57348e1e30029",
  "source": "pragma solidity 0.4.17;\n\nimport \"./ODLLRestrictor.sol\";\nimport \"../lib/odll/userManager.sol\";\n\ncontract ODLLUserReader is ODLLRestrictor {\n\n  function ODLLUserReader(address _dbAddress) public {\n    require(_dbAddress != 0x0);\n    dbAddress = _dbAddress;\n  }\n\n  function getUserIdentityData(address userId)\n    external\n    view\n    returns (\n      uint8,\n      bytes32,\n      bytes32,\n      bytes32\n    )\n  {\n    return userManager.getUserIdentityData(dbAddress, userId);\n  }\n\n  function getUserContactData(address userId)\n    external\n    view\n    returns (\n      bytes32,\n      bytes32,\n      bytes32,\n      uint,\n      bytes32,\n      uint\n    )\n  {\n    return userManager.getUserContactData(dbAddress, userId);\n  }\n\n  function getUserPersonalData(address userId)\n    external\n    view\n    returns (\n      uint8 gender,\n      bytes32 socialSecurityNumber,\n      bytes32 birthday\n    )\n  {\n    (gender, socialSecurityNumber, birthday) = userManager.getUserPersonalData(dbAddress, userId);\n  }\n\n  function getUserDentistsIds(address userId)\n    external\n    view\n    returns (\n      address[] dentistsIds\n    )\n  {\n    dentistsIds = userManager.getUserDentistsIds(dbAddress, userId);\n  }\n\n  function findDentists(\n    uint stateId,\n    uint serviceTypeId,\n    uint serviceId,\n    uint[] budget, // within budget range\n    uint offset, // starting from offset: 0-based\n    uint limit, // not more than limit\n    uint seed // seed value to give the illusion of randomisation\n    )\n      external\n      view\n      returns (\n        uint,\n        address[]\n      )\n  {\n    return userManager.findDentists(dbAddress, stateId, serviceTypeId, serviceId, budget, offset, limit, seed);\n  }\n\n  function getDentistIdentityData(address dentistId)\n    external\n    view\n    returns (\n      bool,\n      bool,\n      bytes32\n    ) {\n    return userManager.getDentistIdentityData(dbAddress, dentistId);\n  }\n\n  function getDentistFeeData(uint serviceTypeId, uint serviceId, address dentistId)\n    external\n    view\n    returns (\n      uint fee\n    ) {\n    fee = userManager.getDentistFeeData(dbAddress, serviceTypeId, serviceId, dentistId);\n  }\n\n  function getDentistRatingData(address dentistId)\n    external\n    view\n    returns (\n      uint rating\n    ) {\n    rating = userManager.getDentistAverageRating(dbAddress, dentistId);\n  }\n\n  function fetchDentists(\n    uint offset, // starting from offset: 0-based\n    uint limit, // not more than limit\n    uint seed // seed value to give the illusion of randomisation\n  )\n    external\n    view\n    returns (\n      uint,\n      address[]\n    )\n  {\n    return userManager.fetchDentists(dbAddress, offset, limit, seed);\n  }\n\n  function fetchManagers(\n    uint offset, // starting from offset: 0-based\n    uint limit, // not more than limit\n    uint seed // seed value to give the illusion of randomisation\n  )\n    external\n    view\n    returns (\n      uint,\n      address[]\n    )\n  {\n    return userManager.fetchManagers(dbAddress, offset, limit, seed);\n  }\n\n  function fetchServicesWithFees(\n    address userId,\n    uint serviceTypeId,\n    uint offset, // starting from offset: 0-based\n    uint limit, // not more than limit\n    uint seed // seed value to give the illusion of randomisation\n  )\n    external\n    view\n    returns (\n      uint,\n      uint[],\n      uint[]\n    )\n  {\n    return userManager.fetchServicesWithFees(dbAddress, userId, serviceTypeId, offset, limit, seed);\n  }\n\n  function fetchServices(\n    address userId,\n    uint serviceTypeId,\n    uint offset, // starting from offset: 0-based\n    uint limit, // not more than limit\n    uint seed // seed value to give the illusion of randomisation\n  )\n    external\n    view\n    returns (\n      uint,\n      uint[]\n    )\n  {\n    return userManager.fetchServices(dbAddress, userId, serviceTypeId, offset, limit, seed);\n  }\n\n  function destroySelf(address callerAddress, address newContractAddress)\n    external\n    onlyOwnerCanCall(callerAddress)\n  {\n    selfdestruct(newContractAddress);\n  }\n}\n\n",
  "sourcePath": "/home/daniel/dev/vue/apps/oral-data-link/contracts/odll/ODLLUserReader.sol",
  "schemaVersion": "1.0.0",
  "updatedAt": "2017-10-30T11:38:06.486Z"
}