{
  "contractName": "ODLLDB",
  "abi": [
    {
      "constant": true,
      "inputs": [
        {
          "name": "record",
          "type": "bytes32"
        }
      ],
      "name": "getBytes32Value",
      "outputs": [
        {
          "name": "",
          "type": "bytes32"
        }
      ],
      "payable": false,
      "stateMutability": "view",
      "type": "function"
    },
    {
      "constant": false,
      "inputs": [
        {
          "name": "record",
          "type": "bytes32"
        }
      ],
      "name": "deleteAddressValue",
      "outputs": [],
      "payable": false,
      "stateMutability": "nonpayable",
      "type": "function"
    },
    {
      "constant": false,
      "inputs": [
        {
          "name": "addresses",
          "type": "address[]"
        }
      ],
      "name": "removePermittedContracts",
      "outputs": [],
      "payable": false,
      "stateMutability": "nonpayable",
      "type": "function"
    },
    {
      "constant": false,
      "inputs": [
        {
          "name": "record",
          "type": "bytes32"
        },
        {
          "name": "value",
          "type": "uint8"
        }
      ],
      "name": "setUInt8Value",
      "outputs": [],
      "payable": false,
      "stateMutability": "nonpayable",
      "type": "function"
    },
    {
      "constant": false,
      "inputs": [
        {
          "name": "record",
          "type": "bytes32"
        }
      ],
      "name": "deleteBytesValue",
      "outputs": [],
      "payable": false,
      "stateMutability": "nonpayable",
      "type": "function"
    },
    {
      "constant": false,
      "inputs": [
        {
          "name": "record",
          "type": "bytes32"
        }
      ],
      "name": "deleteBytes32Value",
      "outputs": [],
      "payable": false,
      "stateMutability": "nonpayable",
      "type": "function"
    },
    {
      "constant": true,
      "inputs": [
        {
          "name": "record",
          "type": "bytes32"
        }
      ],
      "name": "getBooleanValue",
      "outputs": [
        {
          "name": "",
          "type": "bool"
        }
      ],
      "payable": false,
      "stateMutability": "view",
      "type": "function"
    },
    {
      "constant": true,
      "inputs": [
        {
          "name": "types",
          "type": "uint8[]"
        }
      ],
      "name": "getUIntTypesCount",
      "outputs": [
        {
          "name": "count",
          "type": "uint256"
        }
      ],
      "payable": false,
      "stateMutability": "pure",
      "type": "function"
    },
    {
      "constant": false,
      "inputs": [
        {
          "name": "record",
          "type": "bytes32"
        },
        {
          "name": "value",
          "type": "bytes32"
        }
      ],
      "name": "setBytes32Value",
      "outputs": [],
      "payable": false,
      "stateMutability": "nonpayable",
      "type": "function"
    },
    {
      "constant": true,
      "inputs": [],
      "name": "permittedContractsCount",
      "outputs": [
        {
          "name": "count",
          "type": "uint256"
        }
      ],
      "payable": false,
      "stateMutability": "view",
      "type": "function"
    },
    {
      "constant": true,
      "inputs": [
        {
          "name": "x",
          "type": "bool"
        }
      ],
      "name": "booleanToUInt",
      "outputs": [
        {
          "name": "",
          "type": "uint256"
        }
      ],
      "payable": false,
      "stateMutability": "pure",
      "type": "function"
    },
    {
      "constant": true,
      "inputs": [],
      "name": "getPermittedContracts",
      "outputs": [
        {
          "name": "addresses",
          "type": "address[]"
        }
      ],
      "payable": false,
      "stateMutability": "view",
      "type": "function"
    },
    {
      "constant": false,
      "inputs": [
        {
          "name": "record",
          "type": "bytes32"
        },
        {
          "name": "value",
          "type": "uint256"
        }
      ],
      "name": "setUIntValue",
      "outputs": [],
      "payable": false,
      "stateMutability": "nonpayable",
      "type": "function"
    },
    {
      "constant": false,
      "inputs": [
        {
          "name": "contractAddress",
          "type": "address"
        }
      ],
      "name": "addPermittedContract",
      "outputs": [],
      "payable": false,
      "stateMutability": "nonpayable",
      "type": "function"
    },
    {
      "constant": false,
      "inputs": [
        {
          "name": "record",
          "type": "bytes32"
        }
      ],
      "name": "deleteBooleanValue",
      "outputs": [],
      "payable": false,
      "stateMutability": "nonpayable",
      "type": "function"
    },
    {
      "constant": false,
      "inputs": [
        {
          "name": "record",
          "type": "bytes32"
        },
        {
          "name": "value",
          "type": "bool"
        }
      ],
      "name": "setBooleanValue",
      "outputs": [],
      "payable": false,
      "stateMutability": "nonpayable",
      "type": "function"
    },
    {
      "constant": true,
      "inputs": [
        {
          "name": "record",
          "type": "bytes32"
        }
      ],
      "name": "getBytesValue",
      "outputs": [
        {
          "name": "",
          "type": "bytes"
        }
      ],
      "payable": false,
      "stateMutability": "view",
      "type": "function"
    },
    {
      "constant": true,
      "inputs": [
        {
          "name": "record",
          "type": "bytes32"
        }
      ],
      "name": "getAddressValue",
      "outputs": [
        {
          "name": "",
          "type": "address"
        }
      ],
      "payable": false,
      "stateMutability": "view",
      "type": "function"
    },
    {
      "constant": false,
      "inputs": [
        {
          "name": "record",
          "type": "bytes32"
        },
        {
          "name": "value",
          "type": "address"
        }
      ],
      "name": "setAddressValue",
      "outputs": [],
      "payable": false,
      "stateMutability": "nonpayable",
      "type": "function"
    },
    {
      "constant": false,
      "inputs": [
        {
          "name": "record",
          "type": "bytes32"
        },
        {
          "name": "value",
          "type": "uint256"
        }
      ],
      "name": "subUIntValue",
      "outputs": [],
      "payable": false,
      "stateMutability": "nonpayable",
      "type": "function"
    },
    {
      "constant": true,
      "inputs": [
        {
          "name": "",
          "type": "uint256"
        }
      ],
      "name": "permittedContractsAddresses",
      "outputs": [
        {
          "name": "",
          "type": "address"
        }
      ],
      "payable": false,
      "stateMutability": "view",
      "type": "function"
    },
    {
      "constant": true,
      "inputs": [
        {
          "name": "record",
          "type": "bytes32"
        }
      ],
      "name": "getUInt8Value",
      "outputs": [
        {
          "name": "",
          "type": "uint8"
        }
      ],
      "payable": false,
      "stateMutability": "view",
      "type": "function"
    },
    {
      "constant": false,
      "inputs": [
        {
          "name": "record",
          "type": "bytes32"
        }
      ],
      "name": "deleteIntValue",
      "outputs": [],
      "payable": false,
      "stateMutability": "nonpayable",
      "type": "function"
    },
    {
      "constant": false,
      "inputs": [
        {
          "name": "record",
          "type": "bytes32"
        }
      ],
      "name": "deleteUInt8Value",
      "outputs": [],
      "payable": false,
      "stateMutability": "nonpayable",
      "type": "function"
    },
    {
      "constant": true,
      "inputs": [],
      "name": "owner",
      "outputs": [
        {
          "name": "",
          "type": "address"
        }
      ],
      "payable": false,
      "stateMutability": "view",
      "type": "function"
    },
    {
      "constant": true,
      "inputs": [
        {
          "name": "record",
          "type": "bytes32"
        }
      ],
      "name": "getIntValue",
      "outputs": [
        {
          "name": "",
          "type": "int256"
        }
      ],
      "payable": false,
      "stateMutability": "view",
      "type": "function"
    },
    {
      "constant": false,
      "inputs": [
        {
          "name": "record",
          "type": "bytes32"
        }
      ],
      "name": "deleteUIntValue",
      "outputs": [],
      "payable": false,
      "stateMutability": "nonpayable",
      "type": "function"
    },
    {
      "constant": true,
      "inputs": [
        {
          "name": "",
          "type": "address"
        }
      ],
      "name": "permissionStatusForContract",
      "outputs": [
        {
          "name": "",
          "type": "bool"
        }
      ],
      "payable": false,
      "stateMutability": "view",
      "type": "function"
    },
    {
      "constant": true,
      "inputs": [
        {
          "name": "record",
          "type": "bytes32"
        }
      ],
      "name": "getStringValue",
      "outputs": [
        {
          "name": "",
          "type": "string"
        }
      ],
      "payable": false,
      "stateMutability": "view",
      "type": "function"
    },
    {
      "constant": false,
      "inputs": [
        {
          "name": "record",
          "type": "bytes32"
        },
        {
          "name": "value",
          "type": "int256"
        }
      ],
      "name": "setIntValue",
      "outputs": [],
      "payable": false,
      "stateMutability": "nonpayable",
      "type": "function"
    },
    {
      "constant": false,
      "inputs": [
        {
          "name": "addresses",
          "type": "address"
        }
      ],
      "name": "removePermittedContract",
      "outputs": [],
      "payable": false,
      "stateMutability": "nonpayable",
      "type": "function"
    },
    {
      "constant": false,
      "inputs": [
        {
          "name": "record",
          "type": "bytes32"
        }
      ],
      "name": "deleteStringValue",
      "outputs": [],
      "payable": false,
      "stateMutability": "nonpayable",
      "type": "function"
    },
    {
      "constant": true,
      "inputs": [
        {
          "name": "record",
          "type": "bytes32"
        }
      ],
      "name": "getUIntValue",
      "outputs": [
        {
          "name": "",
          "type": "uint256"
        }
      ],
      "payable": false,
      "stateMutability": "view",
      "type": "function"
    },
    {
      "constant": false,
      "inputs": [
        {
          "name": "record",
          "type": "bytes32"
        },
        {
          "name": "value",
          "type": "uint256"
        }
      ],
      "name": "addUIntValue",
      "outputs": [],
      "payable": false,
      "stateMutability": "nonpayable",
      "type": "function"
    },
    {
      "constant": true,
      "inputs": [
        {
          "name": "record",
          "type": "bytes32"
        },
        {
          "name": "uintType",
          "type": "uint8"
        }
      ],
      "name": "getUIntValueConverted",
      "outputs": [
        {
          "name": "",
          "type": "uint256"
        }
      ],
      "payable": false,
      "stateMutability": "view",
      "type": "function"
    },
    {
      "constant": false,
      "inputs": [
        {
          "name": "record",
          "type": "bytes32"
        },
        {
          "name": "value",
          "type": "bytes"
        }
      ],
      "name": "setBytesValue",
      "outputs": [],
      "payable": false,
      "stateMutability": "nonpayable",
      "type": "function"
    },
    {
      "constant": true,
      "inputs": [
        {
          "name": "records",
          "type": "bytes32[]"
        },
        {
          "name": "types",
          "type": "uint8[]"
        }
      ],
      "name": "getEntityList",
      "outputs": [
        {
          "name": "items",
          "type": "uint256[]"
        },
        {
          "name": "strs",
          "type": "string"
        }
      ],
      "payable": false,
      "stateMutability": "view",
      "type": "function"
    },
    {
      "constant": false,
      "inputs": [
        {
          "name": "addresses",
          "type": "address[]"
        }
      ],
      "name": "addPermittedContracts",
      "outputs": [],
      "payable": false,
      "stateMutability": "nonpayable",
      "type": "function"
    },
    {
      "constant": false,
      "inputs": [
        {
          "name": "newOwner",
          "type": "address"
        }
      ],
      "name": "transferOwnership",
      "outputs": [],
      "payable": false,
      "stateMutability": "nonpayable",
      "type": "function"
    },
    {
      "constant": false,
      "inputs": [
        {
          "name": "record",
          "type": "bytes32"
        },
        {
          "name": "value",
          "type": "string"
        }
      ],
      "name": "setStringValue",
      "outputs": [],
      "payable": false,
      "stateMutability": "nonpayable",
      "type": "function"
    },
    {
      "inputs": [],
      "payable": false,
      "stateMutability": "nonpayable",
      "type": "constructor"
    },
    {
      "anonymous": false,
      "inputs": [
        {
          "indexed": true,
          "name": "previousOwner",
          "type": "address"
        },
        {
          "indexed": true,
          "name": "newOwner",
          "type": "address"
        }
      ],
      "name": "OwnershipTransferred",
      "type": "event"
    }
  ],
  "bytecode": "0x6060604052341561000f57600080fd5b60008054600160a060020a033316600160a060020a0319909116179055611acd8061003b6000396000f300606060405236156101eb5763ffffffff7c0100000000000000000000000000000000000000000000000000000000600035041663025ec81a81146101f0578063043106c0146102185780630489fa70146102305780630bd851581461024e5780630c55d9251461026a578063124f24181461028057806317e7dd22146102965780631eb02078146102c057806325cf512d1461030f57806326df61f6146103285780632ec861031461033b5780633138ee5c146103535780633562fd20146103b95780633836fe6e146103d25780633cc1635c146103f15780633eba9ed21461040757806344bfa56e146104225780634c77e5ba146104af5780635a2bf25a146104e15780636aebbbd91461050357806373fb35ee1461051c5780637a0e03ec146105325780638267a9ee1461055e57806384d7c99d146105745780638da5cb5b1461058a5780639007127b1461059d57806393fe4248146105b35780639420e58d146105c9578063a209a29c146105e8578063a77aa49e146105fe578063a98ad19914610617578063ba69fcaa14610636578063bdc963d81461064c578063c8d1c01714610662578063c92c5b7b1461067b578063c9a52d2c14610697578063dbf7dc0c146106b9578063dc02511e14610805578063f2fde38b14610823578063f586606614610842575b600080fd5b34156101fb57600080fd5b610206600435610864565b60405190815260200160405180910390f35b341561022357600080fd5b61022e600435610879565b005b341561023b57600080fd5b61022e60048035602481019101356108e4565b341561025957600080fd5b61022e60043560ff6024351661095b565b341561027557600080fd5b61022e6004356109bd565b341561028b57600080fd5b61022e600435610a17565b34156102a157600080fd5b6102ac600435610a68565b604051901515815260200160405180910390f35b34156102cb57600080fd5b6102066004602481358181019083013580602081810201604051908101604052809392919081815260200183836020028082843750949650610a7d95505050505050565b341561031a57600080fd5b61022e600435602435610ac1565b341561033357600080fd5b610206610b13565b341561034657600080fd5b6102066004351515610b74565b341561035e57600080fd5b610366610b8c565b60405160208082528190810183818151815260200191508051906020019060200280838360005b838110156103a557808201518382015260200161038d565b505050509050019250505060405180910390f35b34156103c457600080fd5b61022e600435602435610c5c565b34156103dd57600080fd5b61022e600160a060020a0360043516610cae565b34156103fc57600080fd5b61022e600435610d37565b341561041257600080fd5b61022e6004356024351515610d8f565b341561042d57600080fd5b610438600435610def565b60405160208082528190810183818151815260200191508051906020019080838360005b8381101561047457808201518382015260200161045c565b50505050905090810190601f1680156104a15780820380516001836020036101000a031916815260200191505b509250505060405180910390f35b34156104ba57600080fd5b6104c5600435610eb2565b604051600160a060020a03909116815260200160405180910390f35b34156104ec57600080fd5b61022e600435600160a060020a0360243516610ecd565b341561050e57600080fd5b61022e600435602435610f48565b341561052757600080fd5b6104c5600435610fb7565b341561053d57600080fd5b610548600435610fdf565b60405160ff909116815260200160405180910390f35b341561056957600080fd5b61022e600435610ff4565b341561057f57600080fd5b61022e600435611045565b341561059557600080fd5b6104c561109d565b34156105a857600080fd5b6102066004356110ac565b34156105be57600080fd5b61022e6004356110be565b34156105d457600080fd5b6102ac600160a060020a036004351661110f565b34156105f357600080fd5b610438600435611124565b341561060957600080fd5b61022e6004356024356111b0565b341561062257600080fd5b61022e600160a060020a0360043516611202565b341561064157600080fd5b61022e60043561123e565b341561065757600080fd5b610206600435611295565b341561066d57600080fd5b61022e6004356024356112a7565b341561068657600080fd5b61020660043560ff60243516611300565b34156106a257600080fd5b61022e60048035906024803590810191013561139e565b34156106c457600080fd5b6107486004602481358181019083013580602081810201604051908101604052809392919081815260200183836020028082843782019150505050505091908035906020019082018035906020019080806020026020016040519081016040528093929190818152602001838360200280828437509496506113fd95505050505050565b604051808060200180602001838103835285818151815260200191508051906020019060200280838360005b8381101561078c578082015183820152602001610774565b50505050905001838103825284818151815260200191508051906020019080838360005b838110156107c85780820151838201526020016107b0565b50505050905090810190601f1680156107f55780820380516001836020036101000a031916815260200191505b5094505050505060405180910390f35b341561081057600080fd5b61022e60048035602481019101356115d3565b341561082e57600080fd5b61022e600160a060020a036004351661169d565b341561084d57600080fd5b61022e600480359060248035908101910135611738565b6000818152600860205260409020545b919050565b600160a060020a03331660009081526002602052604090205460ff16806108ae575060005433600160a060020a039081169116145b15156108b957600080fd5b6000908152600660205260409020805473ffffffffffffffffffffffffffffffffffffffff19169055565b6000805433600160a060020a0390811691161461090057600080fd5b5060005b8181101561095657600060028185858581811061091d57fe5b60209081029290920135600160a060020a0316835250810191909152604001600020805460ff1916911515919091179055600101610904565b505050565b600160a060020a03331660009081526002602052604090205460ff1680610990575060005433600160a060020a039081169116145b151561099b57600080fd5b600091825260036020526040909120805460ff191660ff909216919091179055565b600160a060020a03331660009081526002602052604090205460ff16806109f2575060005433600160a060020a039081169116145b15156109fd57600080fd5b6000818152600760205260408120610a149161190b565b50565b600160a060020a03331660009081526002602052604090205460ff1680610a4c575060005433600160a060020a039081169116145b1515610a5757600080fd5b600090815260086020526040812055565b60009081526009602052604090205460ff1690565b6000805b8251811015610abb57828181518110610a9657fe5b9060200190602002015160ff166007141515610ab3576001820191505b600101610a81565b50919050565b600160a060020a03331660009081526002602052604090205460ff1680610af6575060005433600160a060020a039081169116145b1515610b0157600080fd5b60009182526008602052604090912055565b6000805b600154811015610b705760026000600183815481101515610b3457fe5b6000918252602080832090910154600160a060020a0316835282019290925260400190205460ff1615610b68576001909101905b600101610b17565b5090565b60008115610b8457506001610874565b506000610874565b610b9461194f565b6000610b9e610b13565b604051805910610bab5750595b90808252806020026020018201604052509150600090505b600154811015610b705760026000600183815481101515610be057fe5b6000918252602080832090910154600160a060020a0316835282019290925260400190205460ff1615610c54576001805482908110610c1b57fe5b600091825260209091200154600160a060020a0316828281518110610c3c57fe5b600160a060020a039092166020928302909101909101525b600101610bc3565b600160a060020a03331660009081526002602052604090205460ff1680610c91575060005433600160a060020a039081169116145b1515610c9c57600080fd5b60009182526004602052604090912055565b60005433600160a060020a03908116911614610cc957600080fd5b600160a060020a0381166000908152600260205260409020805460ff191660019081179091558054808201610cfe8382611961565b506000918252602090912001805473ffffffffffffffffffffffffffffffffffffffff1916600160a060020a0392909216919091179055565b600160a060020a03331660009081526002602052604090205460ff1680610d6c575060005433600160a060020a039081169116145b1515610d7757600080fd5b6000908152600960205260409020805460ff19169055565b600160a060020a03331660009081526002602052604090205460ff1680610dc4575060005433600160a060020a039081169116145b1515610dcf57600080fd5b600091825260096020526040909120805460ff1916911515919091179055565b610df761194f565b6007600083600019166000191681526020019081526020016000208054600181600116156101000203166002900480601f016020809104026020016040519081016040528092919081815260200182805460018160011615610100020316600290048015610ea65780601f10610e7b57610100808354040283529160200191610ea6565b820191906000526020600020905b815481529060010190602001808311610e8957829003601f168201915b50505050509050919050565b600090815260066020526040902054600160a060020a031690565b600160a060020a03331660009081526002602052604090205460ff1680610f02575060005433600160a060020a039081169116145b1515610f0d57600080fd5b600091825260066020526040909120805473ffffffffffffffffffffffffffffffffffffffff1916600160a060020a03909216919091179055565b600160a060020a03331660009081526002602052604090205460ff1680610f7d575060005433600160a060020a039081169116145b1515610f8857600080fd5b600082815260046020526040902054610fa1908261180e565b6000928352600460205260409092209190915550565b6001805482908110610fc557fe5b600091825260209091200154600160a060020a0316905081565b60009081526003602052604090205460ff1690565b600160a060020a03331660009081526002602052604090205460ff1680611029575060005433600160a060020a039081169116145b151561103457600080fd5b6000908152600a6020526040812055565b600160a060020a03331660009081526002602052604090205460ff168061107a575060005433600160a060020a039081169116145b151561108557600080fd5b6000908152600360205260409020805460ff19169055565b600054600160a060020a031681565b6000908152600a602052604090205490565b600160a060020a03331660009081526002602052604090205460ff16806110f3575060005433600160a060020a039081169116145b15156110fe57600080fd5b600090815260046020526040812055565b60026020526000908152604090205460ff1681565b61112c61194f565b6005600083600019166000191681526020019081526020016000208054600181600116156101000203166002900480601f016020809104026020016040519081016040528092919081815260200182805460018160011615610100020316600290048015610ea65780601f10610e7b57610100808354040283529160200191610ea6565b600160a060020a03331660009081526002602052604090205460ff16806111e5575060005433600160a060020a039081169116145b15156111f057600080fd5b6000918252600a602052604090912055565b60005433600160a060020a0390811691161461121d57600080fd5b600160a060020a03166000908152600260205260409020805460ff19169055565b600160a060020a03331660009081526002602052604090205460ff1680611273575060005433600160a060020a039081169116145b151561127e57600080fd5b6000818152600560205260408120610a149161190b565b60009081526004602052604090205490565b600160a060020a03331660009081526002602052604090205460ff16806112dc575060005433600160a060020a039081169116145b15156112e757600080fd5b600082815260046020526040902054610fa19082611820565b60008160ff16600114156113265761131f61131a84610a68565b610b74565b9050611398565b8160ff16600214156113455761133b83610fdf565b60ff169050611398565b8160ff166003141561135a5761131f83611295565b8160ff166004141561137f5761136f83610eb2565b600160a060020a03169050611398565b8160ff16600514156113945761131f83610864565b5060005b92915050565b600160a060020a03331660009081526002602052604090205460ff16806113d3575060005433600160a060020a039081169116145b15156113de57600080fd5b60008381526007602052604090206113f7908383611985565b50505050565b61140561194f565b61140d61194f565b60008060008060008061141f89610a7d565b955088518a5181151561142e57fe5b0494508585026040518059106114415750595b90808252806020026020018201604052509750600092505b848310156115c657600091505b885182101561157a57818951840201905088828151811061148357fe5b9060200190602002015160ff166007141561151e576114d66114c16114bc8c84815181106114ad57fe5b90602001906020020151611124565b611836565b6114ca89611836565b9063ffffffff61185e16565b96506115176114c160408051908101604052600c81527f39392d2d4f444c4c2d2d313100000000000000000000000000000000000000006020820152611836565b965061156f565b6115528a828151811061152d57fe5b906020019060200201518a848151811061154357fe5b90602001906020020151611300565b88858151811061155e57fe5b602090810290910101526001909301925b600190910190611466565b6115b96114c160408051908101604052601181527f39392d2d4f444c4c2d4c4953542d2d31310000000000000000000000000000006020820152611836565b9650600190920191611459565b5050505050509250929050565b6000805433600160a060020a039081169116146115ef57600080fd5b5060005b818110156109565760016002600085858581811061160d57fe5b60209081029290920135600160a060020a0316835250810191909152604001600020805460ff19169115159190911790556001805480820161164f8382611961565b91600052602060002090016000858585818110151561166a57fe5b84546101009490940a600160a060020a0360209092029390930135811683029202199092161790915550506001016115f3565b60005433600160a060020a039081169116146116b857600080fd5b600160a060020a03811615156116cd57600080fd5b600054600160a060020a0380831691167f8be0079c531659141344cd1fd0a4f28419497f9722a3daafe3b4186f6b6457e060405160405180910390a36000805473ffffffffffffffffffffffffffffffffffffffff1916600160a060020a0392909216919091179055565b600160a060020a03331660009081526002602052604090205460ff168061176d575060005433600160a060020a039081169116145b151561177857600080fd5b6117ef6117b383838080601f016020809104026020016040519081016040528181529291906020840183838082843750611836945050505050565b6114ca60408051908101604052600181527f5e000000000000000000000000000000000000000000000000000000000000006020820152611836565b60008481526005602052604090209080516113f79291602001906119ff565b60008282111561181a57fe5b50900390565b60008282018381101561182f57fe5b9392505050565b61183e611a6d565b602082016040805190810160405280845181526020019190915292915050565b61186661194f565b61186e61194f565b600083518551016040518059106118825750595b908082528060200260200182016040525091506020820190506118ab81866020015187516118c6565b6118be85518201856020015186516118c6565b509392505050565b60005b602082106118ec57825184526020840193506020830192506020820391506118c9565b6001826020036101000a03905080198351168185511617909352505050565b50805460018160011615610100020316600290046000825580601f106119315750610a14565b601f016020900490600052602060002090810190610a149190611a84565b60206040519081016040526000815290565b81548183558181151161095657600083815260209020610956918101908301611a84565b828054600181600116156101000203166002900490600052602060002090601f016020900481019282601f106119c65782800160ff198235161785556119f3565b828001600101855582156119f3579182015b828111156119f35782358255916020019190600101906119d8565b50610b70929150611a84565b828054600181600116156101000203166002900490600052602060002090601f016020900481019282601f10611a4057805160ff19168380011785556119f3565b828001600101855582156119f3579182015b828111156119f3578251825591602001919060010190611a52565b604080519081016040526000808252602082015290565b611a9e91905b80821115610b705760008155600101611a8a565b905600a165627a7a723058207d9d7075870f1eed469cd5d5c9231edf5dd99ffd2a0e19ba627a6af8344a9af00029",
  "source": "pragma solidity 0.4.17;\n\nimport \"../zeppelin/ownership/Ownable.sol\";\nimport \"../zeppelin/math/SafeMath.sol\";\nimport \"../lib/arachnid/solidity-stringutils/strings.sol\";\n\ncontract ODLLDB is Ownable {\n  using strings for *;\n\n  address[] public permittedContractsAddresses;\n  mapping(address => bool) public permissionStatusForContract;\n\n  modifier onlyPermittedContractOrOwner {\n    require(permissionStatusForContract[msg.sender] || msg.sender == owner);\n    _;\n  }\n\n  function ODLLDB() public {\n\n  }\n\n  function addPermittedContract(address contractAddress) external\n  onlyOwner {\n    permissionStatusForContract[contractAddress] = true;\n    permittedContractsAddresses.push(contractAddress);\n  }\n\n  function addPermittedContracts(address[] addresses) external\n  onlyOwner {\n    for (uint i = 0; i < addresses.length; i++) {\n      permissionStatusForContract[addresses[i]] = true;\n      permittedContractsAddresses.push(addresses[i]);\n    }\n  }\n\n  function removePermittedContract(address addresses) external\n  onlyOwner {\n    permissionStatusForContract[addresses] = false;\n  }\n\n  function removePermittedContracts(address[] addresses) external\n  onlyOwner {\n    for (uint i = 0; i < addresses.length; i++) {\n      permissionStatusForContract[addresses[i]] = false;\n    }\n  }\n\n  function permittedContractsCount() public view returns(uint count) {\n    for (uint i = 0; i < permittedContractsAddresses.length; i++) {\n      if (permissionStatusForContract[permittedContractsAddresses[i]]) {\n        count++;\n      }\n    }\n\n    return count;\n  }\n\n  function getPermittedContracts() external constant returns(address[] addresses) {\n    addresses = new address[](permittedContractsCount());\n    for (uint i = 0; i < permittedContractsAddresses.length; i++) {\n      if (permissionStatusForContract[permittedContractsAddresses[i]]) {\n        addresses[i] = permittedContractsAddresses[i];\n      }\n    }\n\n    return addresses;\n  }\n\n  mapping(bytes32 => uint8) UInt8Storage;\n\n  function getUInt8Value(bytes32 record) public view returns (uint8){\n    return UInt8Storage[record];\n  }\n\n  function setUInt8Value(bytes32 record, uint8 value) public\n    onlyPermittedContractOrOwner\n  {\n    UInt8Storage[record] = value;\n  }\n\n  function deleteUInt8Value(bytes32 record) external\n    onlyPermittedContractOrOwner\n  {\n    delete UInt8Storage[record];\n  }\n\n  mapping(bytes32 => uint) UIntStorage;\n\n  function getUIntValue(bytes32 record) public view returns (uint){\n    return UIntStorage[record];\n  }\n\n  function setUIntValue(bytes32 record, uint value) public\n    onlyPermittedContractOrOwner\n  {\n    UIntStorage[record] = value;\n  }\n\n  function addUIntValue(bytes32 record, uint value) external\n    onlyPermittedContractOrOwner\n  {\n    UIntStorage[record] = SafeMath.add(UIntStorage[record], value);\n  }\n\n  function subUIntValue(bytes32 record, uint value) external\n    onlyPermittedContractOrOwner\n  {\n    UIntStorage[record] = SafeMath.sub(UIntStorage[record], value);\n  }\n\n  function deleteUIntValue(bytes32 record) external\n    onlyPermittedContractOrOwner\n  {\n    delete UIntStorage[record];\n  }\n\n  mapping(bytes32 => string) StringStorage;\n\n  function getStringValue(bytes32 record) public view returns (string){\n    return StringStorage[record];\n  }\n\n  function setStringValue(bytes32 record, string value) external\n    onlyPermittedContractOrOwner\n  {\n    StringStorage[record] = \"^\".toSlice().concat(value.toSlice());\n  }\n\n  function deleteStringValue(bytes32 record) external\n    onlyPermittedContractOrOwner\n  {\n    delete StringStorage[record];\n  }\n\n  mapping(bytes32 => address) AddressStorage;\n\n  function getAddressValue(bytes32 record) public view returns (address){\n    return AddressStorage[record];\n  }\n\n  function setAddressValue(bytes32 record, address value) external\n    onlyPermittedContractOrOwner\n  {\n    AddressStorage[record] = value;\n  }\n\n  function deleteAddressValue(bytes32 record) external\n    onlyPermittedContractOrOwner\n  {\n    delete AddressStorage[record];\n  }\n\n  mapping(bytes32 => bytes) BytesStorage;\n\n  function getBytesValue(bytes32 record) public view returns (bytes){\n    return BytesStorage[record];\n  }\n\n  function setBytesValue(bytes32 record, bytes value) external\n    onlyPermittedContractOrOwner\n  {\n    BytesStorage[record] = value;\n  }\n\n  function deleteBytesValue(bytes32 record) external\n    onlyPermittedContractOrOwner\n  {\n    delete BytesStorage[record];\n  }\n\n  mapping(bytes32 => bytes32) Bytes32Storage;\n\n  function getBytes32Value(bytes32 record) public view returns (bytes32){\n    return Bytes32Storage[record];\n  }\n\n  function setBytes32Value(bytes32 record, bytes32 value) external\n    onlyPermittedContractOrOwner\n  {\n    Bytes32Storage[record] = value;\n  }\n\n  function deleteBytes32Value(bytes32 record) external\n    onlyPermittedContractOrOwner\n  {\n    delete Bytes32Storage[record];\n  }\n\n  mapping(bytes32 => bool) BooleanStorage;\n\n  function getBooleanValue(bytes32 record) public view returns (bool){\n    return BooleanStorage[record];\n  }\n\n  function setBooleanValue(bytes32 record, bool value) external\n    onlyPermittedContractOrOwner\n  {\n    BooleanStorage[record] = value;\n  }\n\n  function deleteBooleanValue(bytes32 record) external\n    onlyPermittedContractOrOwner\n  {\n    delete BooleanStorage[record];\n  }\n\n  mapping(bytes32 => int) IntStorage;\n\n  function getIntValue(bytes32 record) public view returns (int){\n    return IntStorage[record];\n  }\n\n  function setIntValue(bytes32 record, int value) external\n    onlyPermittedContractOrOwner\n  {\n    IntStorage[record] = value;\n  }\n\n  function deleteIntValue(bytes32 record) external\n    onlyPermittedContractOrOwner\n  {\n    delete IntStorage[record];\n  }\n\n  function booleanToUInt(bool x) public pure returns (uint) {\n    if (x) {\n      return 1;\n    } else {\n      return 0;\n    }\n  }\n\n  function getUIntValueConverted(bytes32 record, uint8 uintType) public view returns(uint) {\n    if (uintType == 1) {\n      return booleanToUInt(getBooleanValue(record));\n    } else if (uintType == 2) {\n      return uint(getUInt8Value(record));\n    } else if (uintType == 3) {\n      return getUIntValue(record);\n    } else if (uintType == 4) {\n      return uint(bytes32(getAddressValue(record)));\n    } else if (uintType == 5) {\n      return uint(getBytes32Value(record));\n    } else {\n      return 0;\n    }\n  }\n\n  function getUIntTypesCount(uint8[] types) public pure returns(uint count) {\n    count = 0;\n    for (uint i = 0; i < types.length ; i++) {\n      if (types[i] != 7) {\n        count += 1;\n      }\n    }\n\n    return count;\n  }\n\n  function getEntityList(bytes32[] records, uint8[] types)\n    public constant returns\n  (\n    uint[] items,\n    string strs\n  )\n  {\n    uint uintTypesCount = getUIntTypesCount(types);\n    uint itemsCount = records.length / types.length;\n\n    items = new uint[](itemsCount * uintTypesCount);\n    uint k;\n    for (uint i = 0; i < itemsCount; i++) {\n      for (uint j = 0; j < types.length; j++) {\n        uint r_i = (i * types.length) + j;\n        if (types[j] == 7) {\n          strs = strs.toSlice().concat(getStringValue(records[r_i]).toSlice());\n          strs = strs.toSlice().concat(\"99--ODLL--11\".toSlice());\n        } else {\n          items[k] = getUIntValueConverted(records[r_i], types[j]);\n          k++;\n        }\n      }\n      strs = strs.toSlice().concat(\"99--ODLL-LIST--11\".toSlice());\n    }\n\n    return (items, strs);\n  }\n}\n",
  "sourcePath": "/home/daniel/dev/vue/apps/oral-data-link/contracts/odll/ODLLDB.sol",
  "schemaVersion": "1.0.0",
  "updatedAt": "2017-10-25T01:24:18.946Z"
}