{
  "contractName": "ODLLSetter",
  "abi": [
    {
      "constant": true,
      "inputs": [
        {
          "name": "record",
          "type": "bytes32"
        }
      ],
      "name": "getContractAddress",
      "outputs": [
        {
          "name": "",
          "type": "address"
        }
      ],
      "payable": false,
      "stateMutability": "view",
      "type": "function"
    },
    {
      "constant": false,
      "inputs": [
        {
          "name": "dbKey",
          "type": "string"
        },
        {
          "name": "newContractAddress",
          "type": "address"
        }
      ],
      "name": "setContract",
      "outputs": [],
      "payable": false,
      "stateMutability": "nonpayable",
      "type": "function"
    },
    {
      "constant": false,
      "inputs": [],
      "name": "setOwner",
      "outputs": [],
      "payable": false,
      "stateMutability": "nonpayable",
      "type": "function"
    },
    {
      "constant": true,
      "inputs": [],
      "name": "smartContractStatus",
      "outputs": [
        {
          "name": "",
          "type": "uint8"
        }
      ],
      "payable": false,
      "stateMutability": "view",
      "type": "function"
    },
    {
      "constant": false,
      "inputs": [],
      "name": "setODLLConfig",
      "outputs": [],
      "payable": false,
      "stateMutability": "nonpayable",
      "type": "function"
    },
    {
      "constant": false,
      "inputs": [
        {
          "name": "adminAddress",
          "type": "address"
        }
      ],
      "name": "addAdmin",
      "outputs": [],
      "payable": false,
      "stateMutability": "nonpayable",
      "type": "function"
    },
    {
      "constant": false,
      "inputs": [
        {
          "name": "firstAdminAddress",
          "type": "address"
        }
      ],
      "name": "setFirstAdmin",
      "outputs": [],
      "payable": false,
      "stateMutability": "nonpayable",
      "type": "function"
    },
    {
      "constant": true,
      "inputs": [],
      "name": "owner",
      "outputs": [
        {
          "name": "",
          "type": "address"
        }
      ],
      "payable": false,
      "stateMutability": "view",
      "type": "function"
    },
    {
      "constant": true,
      "inputs": [],
      "name": "dbAddress",
      "outputs": [
        {
          "name": "",
          "type": "address"
        }
      ],
      "payable": false,
      "stateMutability": "view",
      "type": "function"
    },
    {
      "constant": false,
      "inputs": [
        {
          "name": "newOwner",
          "type": "address"
        }
      ],
      "name": "transferOwnership",
      "outputs": [],
      "payable": false,
      "stateMutability": "nonpayable",
      "type": "function"
    },
    {
      "inputs": [
        {
          "name": "_dbAddress",
          "type": "address"
        }
      ],
      "payable": false,
      "stateMutability": "nonpayable",
      "type": "constructor"
    },
    {
      "anonymous": false,
      "inputs": [
        {
          "indexed": false,
          "name": "ContractAddress",
          "type": "address"
        },
        {
          "indexed": false,
          "name": "record",
          "type": "bytes32"
        },
        {
          "indexed": false,
          "name": "settingTime",
          "type": "uint256"
        }
      ],
      "name": "ContractSet",
      "type": "event"
    },
    {
      "anonymous": false,
      "inputs": [
        {
          "indexed": false,
          "name": "status",
          "type": "uint8"
        }
      ],
      "name": "OnSmartContractStatusSet",
      "type": "event"
    },
    {
      "anonymous": false,
      "inputs": [
        {
          "indexed": true,
          "name": "previousOwner",
          "type": "address"
        },
        {
          "indexed": true,
          "name": "newOwner",
          "type": "address"
        }
      ],
      "name": "OwnershipTransferred",
      "type": "event"
    }
  ],
  "bytecode": "0x6060604052341561000f57600080fd5b6040516020806112f08339810160405280805160008054600160a060020a03191633600160a060020a039081169190911790915590925082161515905061005557600080fd5b60018054600160a060020a031916600160a060020a039290921691909117905561126c806100846000396000f300606060405236156100885763ffffffff60e060020a6000350416630d2020dd811461008d5780633f0ed0df146100bf57806340caae06146100ed5780634c8ddddc14610100578063622fcd8b14610129578063704802751461013c57806372f30ea01461015b5780638da5cb5b1461017a57806391e06b6d1461018d578063f2fde38b146101a0575b600080fd5b341561009857600080fd5b6100a36004356101bf565b604051600160a060020a03909116815260200160405180910390f35b34156100ca57600080fd5b6100eb6024600480358281019291013590600160a060020a039035166102f7565b005b34156100f857600080fd5b6100eb61043d565b341561010b57600080fd5b6101136104ef565b60405160ff909116815260200160405180910390f35b341561013457600080fd5b6100eb610510565b341561014757600080fd5b6100eb600160a060020a036004351661063e565b341561016657600080fd5b6100eb600160a060020a0360043516610b8c565b341561018557600080fd5b6100a3610dbe565b341561019857600080fd5b6100a3610dcd565b34156101ab57600080fd5b6100eb600160a060020a0360043516610ddc565b600080543390600160a060020a0380831691161480156102795750600154600160a060020a0316634c77e5ba6040516000805160206112218339815191528152600a01604051809103902060006040516020015260405160e060020a63ffffffff84160281526004810191909152602401602060405180830381600087803b151561024957600080fd5b6102c65a03f1151561025a57600080fd5b50505060405180519050600160a060020a031681600160a060020a0316145b151561028457600080fd5b600154600160a060020a0316634c77e5ba8460006040516020015260405160e060020a63ffffffff84160281526004810191909152602401602060405180830381600087803b15156102d557600080fd5b6102c65a03f115156102e657600080fd5b505050604051805190505050919050565b600080543390600160a060020a0380831691161480156103b15750600154600160a060020a0316634c77e5ba6040516000805160206112218339815191528152600a01604051809103902060006040516020015260405160e060020a63ffffffff84160281526004810191909152602401602060405180830381600087803b151561038157600080fd5b6102c65a03f1151561039257600080fd5b50505060405180519050600160a060020a031681600160a060020a0316145b15156103bc57600080fd5b848460405180838380828437820191505092505050604051809103902091506103e58284610e77565b7feb2ba594a90708553de1a64973a456741e0bd74dc4ec91605d1b72d11b56e184838342604051600160a060020a03909316835260208301919091526040808301919091526060909101905180910390a15050505050565b60005433600160a060020a0390811691161461045857600080fd5b600154600160a060020a0316635a2bf25a6040516000805160206112218339815191528152600a01604051908190039020600054600160a060020a031660405160e060020a63ffffffff85160281526004810192909252600160a060020a03166024820152604401600060405180830381600087803b15156104d957600080fd5b6102c65a03f115156104ea57600080fd5b505050565b60015474010000000000000000000000000000000000000000900460ff1681565b60005433600160a060020a0390811691161461052b57600080fd5b600154600160a060020a0316633562fd206040517f636f6e6669672f6d61782d757365722d6e616d652d6c656e67746800000000008152601b016040518091039020602060405160e060020a63ffffffff851602815260048101929092526024820152604401600060405180830381600087803b15156105aa57600080fd5b6102c65a03f115156105bb57600080fd5b5050600154600160a060020a03169050633562fd206040517f636f6e6669672f6d696e2d757365722d6e616d652d6c656e67746800000000008152601b016040518091039020600560405160e060020a63ffffffff851602815260048101929092526024820152604401600060405180830381600087803b15156104d957600080fd5b6000543390600160a060020a0380831691161480156106f75750600154600160a060020a0316634c77e5ba6040516000805160206112218339815191528152600a01604051809103902060006040516020015260405160e060020a63ffffffff84160281526004810191909152602401602060405180830381600087803b15156106c757600080fd5b6102c65a03f115156106d857600080fd5b50505060405180519050600160a060020a031681600160a060020a0316145b151561070257600080fd5b600154600160a060020a0316637a0e03ec836040517f757365722f7479706500000000000000000000000000000000000000000000008152600160a060020a03919091166c01000000000000000000000000026009820152601d01604051809103902060006040516020015260405160e060020a63ffffffff84160281526004810191909152602401602060405180830381600087803b15156107a457600080fd5b6102c65a03f115156107b557600080fd5b505050604051805160ff161590506107cc57600080fd5b600154600160a060020a0316630bd85158836040517f757365722f7479706500000000000000000000000000000000000000000000008152600160a060020a03919091166c01000000000000000000000000026009820152601d016040518091039020600460405160e060020a63ffffffff8516028152600481019290925260ff166024820152604401600060405180830381600087803b151561086f57600080fd5b6102c65a03f1151561088057600080fd5b5050600154600160a060020a03169050633eba9ed2836040517f757365722f69732d61646d696e3f0000000000000000000000000000000000008152600160a060020a03919091166c0100000000000000000000000002600e8201526022016040518091039020600160405160e060020a63ffffffff8516028152600481019290925215156024820152604401600060405180830381600087803b151561092657600080fd5b6102c65a03f1151561093757600080fd5b5050600154600160a060020a03169050633562fd20836040517f757365722f637265617465642d6f6e00000000000000000000000000000000008152600160a060020a03919091166c0100000000000000000000000002600f82015260230160405180910390204260405160e060020a63ffffffff851602815260048101929092526024820152604401600060405180830381600087803b15156109da57600080fd5b6102c65a03f115156109eb57600080fd5b5050600154600160a060020a03169050630bd85158836040517f757365722f7374617475730000000000000000000000000000000000000000008152600160a060020a03919091166c0100000000000000000000000002600b820152601f016040518091039020600160405160e060020a63ffffffff8516028152600481019290925260ff166024820152604401600060405180830381600087803b1515610a9257600080fd5b6102c65a03f11515610aa357600080fd5b505050610b17604080519081016040908152600982527f75736572732f696473000000000000000000000000000000000000000000000060208301528051908101604052600b81527f75736572732f636f756e74000000000000000000000000000000000000000000602082015284610fc0565b610b88604080519081016040908152600a82527f61646d696e732f6964730000000000000000000000000000000000000000000060208301528051908101604052600c81527f61646d696e732f636f756e740000000000000000000000000000000000000000602082015284610fc0565b5050565b6000543390600160a060020a038083169116148015610c455750600154600160a060020a0316634c77e5ba6040516000805160206112218339815191528152600a01604051809103902060006040516020015260405160e060020a63ffffffff84160281526004810191909152602401602060405180830381600087803b1515610c1557600080fd5b6102c65a03f11515610c2657600080fd5b50505060405180519050600160a060020a031681600160a060020a0316145b1515610c5057600080fd5b600154600160a060020a0316637a0e03ec836040517f757365722f7479706500000000000000000000000000000000000000000000008152600160a060020a03919091166c01000000000000000000000000026009820152601d01604051809103902060006040516020015260405160e060020a63ffffffff84160281526004810191909152602401602060405180830381600087803b1515610cf257600080fd5b6102c65a03f11515610d0357600080fd5b505050604051805160ff16159050610d1a57600080fd5b600154600160a060020a0316635a2bf25a6040517f6f646c6c2f66697273742d61646d696e00000000000000000000000000000000815260100160405180910390208460405160e060020a63ffffffff85160281526004810192909252600160a060020a03166024820152604401600060405180830381600087803b1515610da157600080fd5b6102c65a03f11515610db257600080fd5b505050610b888261063e565b600054600160a060020a031681565b600154600160a060020a031681565b60005433600160a060020a03908116911614610df757600080fd5b600160a060020a0381161515610e0c57600080fd5b600054600160a060020a0380831691167f8be0079c531659141344cd1fd0a4f28419497f9722a3daafe3b4186f6b6457e060405160405180910390a36000805473ffffffffffffffffffffffffffffffffffffffff1916600160a060020a0392909216919091179055565b6000543390600160a060020a038083169116148015610f305750600154600160a060020a0316634c77e5ba6040516000805160206112218339815191528152600a01604051809103902060006040516020015260405160e060020a63ffffffff84160281526004810191909152602401602060405180830381600087803b1515610f0057600080fd5b6102c65a03f11515610f1157600080fd5b50505060405180519050600160a060020a031681600160a060020a0316145b1515610f3b57600080fd5b600160a060020a0382161515610f5057600080fd5b600154600160a060020a0316635a2bf25a848460405160e060020a63ffffffff85160281526004810192909252600160a060020a03166024820152604401600060405180830381600087803b1515610fa757600080fd5b6102c65a03f11515610fb857600080fd5b505050505050565b600154600090600160a060020a031663bdc963d8846040518082805190602001908083835b602083106110045780518252601f199092019160209182019101610fe5565b6001836020036101000a0380198251168184511617909252505050919091019250604091505051809103902060006040516020015260405160e060020a63ffffffff84160281526004810191909152602401602060405180830381600087803b151561106f57600080fd5b6102c65a03f1151561108057600080fd5b5050506040518051600154909250600160a060020a03169050635a2bf25a85836040518083805190602001908083835b602083106110cf5780518252601f1990920191602091820191016110b0565b6001836020036101000a0380198251168184511617909252505050919091019283525050602001905060405180910390208460405160e060020a63ffffffff85160281526004810192909252600160a060020a03166024820152604401600060405180830381600087803b151561114557600080fd5b6102c65a03f1151561115657600080fd5b5050600154600160a060020a03169050633562fd20846040518082805190602001908083835b6020831061119b5780518252601f19909201916020918201910161117c565b6001836020036101000a038019825116818451161790925250505091909101925060409150505180910390208360010160405160e060020a63ffffffff851602815260048101929092526024820152604401600060405180830381600087803b151561120657600080fd5b6102c65a03f1151561121757600080fd5b5050505050505056006f646c6c2f6f776e657200000000000000000000000000000000000000000000a165627a7a7230582056116b2d0526f0892ee00ba6f7931fb1a0e1c4eb5813d0828b28a83b551f789e0029",
  "source": "pragma solidity 0.4.17;\n\nimport \"./ODLLRestrictor.sol\";\n\ncontract ODLLSetter is ODLLRestrictor {\n  event ContractSet(address ContractAddress, bytes32 record, uint settingTime);\n\n  function ODLLSetter(address _dbAddress) public {\n    require(_dbAddress != 0x0);\n    dbAddress = _dbAddress;\n  }\n\n  function setODLLConfig()\n    external\n    onlyOwner\n  {\n    ODLLDB(dbAddress).setUIntValue(keccak256('config/max-user-name-length'), 32);\n    ODLLDB(dbAddress).setUIntValue(keccak256('config/min-user-name-length'), 5);\n  }\n\n  function setOwner()\n    external\n    onlyOwner\n  {\n    ODLLDB(dbAddress).setAddressValue(keccak256('odll/owner'), owner);\n  }\n\n  function setFirstAdmin(address firstAdminAddress)\n    external\n    onlyOwnerCanCall(msg.sender)\n  {\n    require(ODLLDB(dbAddress).getUInt8Value(keccak256(\"user/type\", firstAdminAddress)) == 0);\n    ODLLDB(dbAddress).setAddressValue(keccak256('odll/first-admin'), firstAdminAddress);\n    addAdmin(firstAdminAddress);\n  }\n\n  function addAdmin(address adminAddress)\n    public\n    onlyOwnerCanCall(msg.sender)\n  {\n    require(ODLLDB(dbAddress).getUInt8Value(keccak256(\"user/type\", adminAddress)) == 0);\n    ODLLDB(dbAddress).setUInt8Value(keccak256(\"user/type\", adminAddress), 4);\n    ODLLDB(dbAddress).setBooleanValue(keccak256('user/is-admin?', adminAddress), true);\n    ODLLDB(dbAddress).setUIntValue(keccak256(\"user/created-on\", adminAddress), now);\n    ODLLDB(dbAddress).setUInt8Value(keccak256(\"user/status\", adminAddress), 1);\n    addArrayItem(\"users/ids\", \"users/count\", adminAddress);\n    addArrayItem(\"admins/ids\", \"admins/count\", adminAddress);\n  }\n\n  function addArrayItem(string key, string countKey, address val) internal {\n    var idx = ODLLDB(dbAddress).getUIntValue(keccak256(countKey));\n    ODLLDB(dbAddress).setAddressValue(keccak256(key, idx), val);\n    ODLLDB(dbAddress).setUIntValue(keccak256(countKey), idx + 1);\n  }\n\n  function setContract(string dbKey, address newContractAddress)\n    external\n    onlyOwnerCanCall(msg.sender)\n  {\n    bytes32 record = keccak256(dbKey);\n    setNewContractAddressToKey(record, newContractAddress);\n    ContractSet(newContractAddress, record, now);\n  }\n\n  function setNewContractAddressToKey(bytes32 record, address newContractAddress)\n    internal\n    onlyOwnerCanCall(msg.sender)\n  {\n    require(newContractAddress != 0x0);\n    ODLLDB(dbAddress).setAddressValue(record, newContractAddress);\n  }\n\n  function getContractAddress(bytes32 record)\n    external\n    onlyOwnerCanCall(msg.sender)\n    view returns (address)\n  {\n    ODLLDB(dbAddress).getAddressValue(record);\n  }\n}\n\n",
  "sourcePath": "/home/daniel/dev/vue/apps/oral-data-link/contracts/odll/ODLLSetter.sol",
  "schemaVersion": "1.0.0",
  "updatedAt": "2017-10-30T11:38:06.512Z"
}