{
  "contractName": "ODLLUserReader",
  "abi": [
    {
      "constant": true,
      "inputs": [
        {
          "name": "userId",
          "type": "address"
        }
      ],
      "name": "getUserDentistsIds",
      "outputs": [
        {
          "name": "dentistsIds",
          "type": "address[]"
        }
      ],
      "payable": false,
      "stateMutability": "view",
      "type": "function"
    },
    {
      "constant": true,
      "inputs": [
        {
          "name": "serviceTypeId",
          "type": "uint256"
        },
        {
          "name": "serviceId",
          "type": "uint256"
        },
        {
          "name": "dentistId",
          "type": "address"
        }
      ],
      "name": "getDentistFeeData",
      "outputs": [
        {
          "name": "fee",
          "type": "uint256"
        }
      ],
      "payable": false,
      "stateMutability": "view",
      "type": "function"
    },
    {
      "constant": true,
      "inputs": [
        {
          "name": "dentistId",
          "type": "address"
        }
      ],
      "name": "getDentistIdentityData",
      "outputs": [
        {
          "name": "",
          "type": "bool"
        },
        {
          "name": "",
          "type": "bool"
        },
        {
          "name": "",
          "type": "bytes32"
        }
      ],
      "payable": false,
      "stateMutability": "view",
      "type": "function"
    },
    {
      "constant": true,
      "inputs": [
        {
          "name": "userId",
          "type": "address"
        },
        {
          "name": "serviceTypeId",
          "type": "uint256"
        },
        {
          "name": "offset",
          "type": "uint256"
        },
        {
          "name": "limit",
          "type": "uint256"
        },
        {
          "name": "seed",
          "type": "uint256"
        }
      ],
      "name": "fetchServices",
      "outputs": [
        {
          "name": "",
          "type": "uint256"
        },
        {
          "name": "",
          "type": "uint256[]"
        }
      ],
      "payable": false,
      "stateMutability": "view",
      "type": "function"
    },
    {
      "constant": true,
      "inputs": [
        {
          "name": "userId",
          "type": "address"
        }
      ],
      "name": "getUserIdentityData",
      "outputs": [
        {
          "name": "",
          "type": "uint8"
        },
        {
          "name": "",
          "type": "bytes32"
        },
        {
          "name": "",
          "type": "bytes32"
        },
        {
          "name": "",
          "type": "bytes32"
        },
        {
          "name": "",
          "type": "uint8"
        }
      ],
      "payable": false,
      "stateMutability": "view",
      "type": "function"
    },
    {
      "constant": true,
      "inputs": [],
      "name": "smartContractStatus",
      "outputs": [
        {
          "name": "",
          "type": "uint8"
        }
      ],
      "payable": false,
      "stateMutability": "view",
      "type": "function"
    },
    {
      "constant": true,
      "inputs": [
        {
          "name": "userId",
          "type": "address"
        }
      ],
      "name": "getUserContactData",
      "outputs": [
        {
          "name": "",
          "type": "bytes32"
        },
        {
          "name": "",
          "type": "bytes32"
        },
        {
          "name": "",
          "type": "bytes32"
        },
        {
          "name": "",
          "type": "uint256"
        },
        {
          "name": "",
          "type": "bytes32"
        },
        {
          "name": "",
          "type": "uint256"
        }
      ],
      "payable": false,
      "stateMutability": "view",
      "type": "function"
    },
    {
      "constant": true,
      "inputs": [
        {
          "name": "userId",
          "type": "address"
        },
        {
          "name": "serviceTypeId",
          "type": "uint256"
        },
        {
          "name": "offset",
          "type": "uint256"
        },
        {
          "name": "limit",
          "type": "uint256"
        },
        {
          "name": "seed",
          "type": "uint256"
        }
      ],
      "name": "fetchServicesWithFees",
      "outputs": [
        {
          "name": "",
          "type": "uint256"
        },
        {
          "name": "",
          "type": "uint256[]"
        },
        {
          "name": "",
          "type": "uint256[]"
        }
      ],
      "payable": false,
      "stateMutability": "view",
      "type": "function"
    },
    {
      "constant": true,
      "inputs": [],
      "name": "owner",
      "outputs": [
        {
          "name": "",
          "type": "address"
        }
      ],
      "payable": false,
      "stateMutability": "view",
      "type": "function"
    },
    {
      "constant": true,
      "inputs": [],
      "name": "dbAddress",
      "outputs": [
        {
          "name": "",
          "type": "address"
        }
      ],
      "payable": false,
      "stateMutability": "view",
      "type": "function"
    },
    {
      "constant": true,
      "inputs": [
        {
          "name": "offset",
          "type": "uint256"
        },
        {
          "name": "limit",
          "type": "uint256"
        },
        {
          "name": "seed",
          "type": "uint256"
        }
      ],
      "name": "fetchDentists",
      "outputs": [
        {
          "name": "",
          "type": "uint256"
        },
        {
          "name": "",
          "type": "address[]"
        }
      ],
      "payable": false,
      "stateMutability": "view",
      "type": "function"
    },
    {
      "constant": false,
      "inputs": [
        {
          "name": "callerAddress",
          "type": "address"
        },
        {
          "name": "newContractAddress",
          "type": "address"
        }
      ],
      "name": "destroySelf",
      "outputs": [],
      "payable": false,
      "stateMutability": "nonpayable",
      "type": "function"
    },
    {
      "constant": true,
      "inputs": [
        {
          "name": "offset",
          "type": "uint256"
        },
        {
          "name": "limit",
          "type": "uint256"
        },
        {
          "name": "seed",
          "type": "uint256"
        }
      ],
      "name": "fetchManagers",
      "outputs": [
        {
          "name": "",
          "type": "uint256"
        },
        {
          "name": "",
          "type": "address[]"
        }
      ],
      "payable": false,
      "stateMutability": "view",
      "type": "function"
    },
    {
      "constant": true,
      "inputs": [
        {
          "name": "dentistId",
          "type": "address"
        }
      ],
      "name": "getDentistRatingData",
      "outputs": [
        {
          "name": "rating",
          "type": "uint256"
        }
      ],
      "payable": false,
      "stateMutability": "view",
      "type": "function"
    },
    {
      "constant": true,
      "inputs": [
        {
          "name": "userId",
          "type": "address"
        }
      ],
      "name": "getUserPersonalData",
      "outputs": [
        {
          "name": "gender",
          "type": "uint8"
        },
        {
          "name": "socialSecurityNumber",
          "type": "bytes32"
        },
        {
          "name": "birthday",
          "type": "bytes32"
        }
      ],
      "payable": false,
      "stateMutability": "view",
      "type": "function"
    },
    {
      "constant": true,
      "inputs": [
        {
          "name": "stateId",
          "type": "uint256"
        },
        {
          "name": "serviceTypeId",
          "type": "uint256"
        },
        {
          "name": "serviceId",
          "type": "uint256"
        },
        {
          "name": "budget",
          "type": "uint256[]"
        },
        {
          "name": "offset",
          "type": "uint256"
        },
        {
          "name": "limit",
          "type": "uint256"
        },
        {
          "name": "seed",
          "type": "uint256"
        }
      ],
      "name": "findDentists",
      "outputs": [
        {
          "name": "",
          "type": "uint256"
        },
        {
          "name": "",
          "type": "address[]"
        }
      ],
      "payable": false,
      "stateMutability": "view",
      "type": "function"
    },
    {
      "constant": false,
      "inputs": [
        {
          "name": "newOwner",
          "type": "address"
        }
      ],
      "name": "transferOwnership",
      "outputs": [],
      "payable": false,
      "stateMutability": "nonpayable",
      "type": "function"
    },
    {
      "inputs": [
        {
          "name": "_dbAddress",
          "type": "address"
        }
      ],
      "payable": false,
      "stateMutability": "nonpayable",
      "type": "constructor"
    },
    {
      "anonymous": false,
      "inputs": [
        {
          "indexed": false,
          "name": "status",
          "type": "uint8"
        }
      ],
      "name": "OnSmartContractStatusSet",
      "type": "event"
    },
    {
      "anonymous": false,
      "inputs": [
        {
          "indexed": true,
          "name": "previousOwner",
          "type": "address"
        },
        {
          "indexed": true,
          "name": "newOwner",
          "type": "address"
        }
      ],
      "name": "OwnershipTransferred",
      "type": "event"
    }
  ],
  "bytecode": "0x6060604052341561000f57600080fd5b60405160208061332a8339810160405280805160008054600160a060020a03191633600160a060020a039081169190911790915590925082161515905061005557600080fd5b60018054600160a060020a031916600160a060020a03929092169190911790556132a6806100846000396000f300606060405236156100d55763ffffffff60e060020a600035041663096289fc81146100da5780630b91f9a71461014c57806326ec0b15146101835780632d064206146101c85780632deb044a1461024d5780634c8ddddc146102a257806359f60150146102cb5780635a1e4f90146103235780638da5cb5b146103ee57806391e06b6d1461041d57806396f7a44514610430578063b16b22301461044c578063be31885b14610473578063ca6e44ac1461048f578063e6277fcc146104ae578063eb6ce033146104f5578063f2fde38b14610528575b600080fd5b34156100e557600080fd5b6100f9600160a060020a0360043516610547565b60405160208082528190810183818151815260200191508051906020019060200280838360005b83811015610138578082015183820152602001610120565b505050509050019250505060405180910390f35b341561015757600080fd5b610171600435602435600160a060020a036044351661056b565b60405190815260200160405180910390f35b341561018e57600080fd5b6101a2600160a060020a036004351661058e565b604051921515835290151560208301526040808301919091526060909101905180910390f35b34156101d357600080fd5b6101f3600160a060020a03600435166024356044356064356084356105b8565b60405182815260406020820181815290820183818151815260200191508051906020019060200280838360005b83811015610238578082015183820152602001610220565b50505050905001935050505060405180910390f35b341561025857600080fd5b61026c600160a060020a03600435166105ea565b60405160ff958616815260208101949094526040808501939093526060840191909152909216608082015260a001905180910390f35b34156102ad57600080fd5b6102b561061d565b60405160ff909116815260200160405180910390f35b34156102d657600080fd5b6102ea600160a060020a036004351661063e565b60405195865260208601949094526040808601939093526060850191909152608084015260a083019190915260c0909101905180910390f35b341561032e57600080fd5b61034e600160a060020a036004351660243560443560643560843561067a565b604051808481526020018060200180602001838103835285818151815260200191508051906020019060200280838360005b83811015610398578082015183820152602001610380565b50505050905001838103825284818151815260200191508051906020019060200280838360005b838110156103d75780820151838201526020016103bf565b505050509050019550505050505060405180910390f35b34156103f957600080fd5b6104016106b7565b604051600160a060020a03909116815260200160405180910390f35b341561042857600080fd5b6104016106c6565b341561043b57600080fd5b6101f36004356024356044356106d5565b341561045757600080fd5b610471600160a060020a0360043581169060243516610703565b005b341561047e57600080fd5b6101f36004356024356044356107e5565b341561049a57600080fd5b610171600160a060020a0360043516610807565b34156104b957600080fd5b6104cd600160a060020a0360043516610829565b60405160ff909316835260208301919091526040808301919091526060909101905180910390f35b341561050057600080fd5b6101f3600480359060248035916044359160643590810191013560843560a43560c435610853565b341561053357600080fd5b610471600160a060020a03600435166108b8565b61054f613268565b60015461056590600160a060020a031683610953565b92915050565b60015460009061058690600160a060020a0316858585610a08565b949350505050565b600154600090819081906105ab90600160a060020a031685610a1f565b9250925092509193909250565b60006105c2613268565b6001546105dc90600160a060020a03168888888888610c45565b915091509550959350505050565b600154600090819081908190819061060b90600160a060020a031687610c77565b939a9299509097509550909350915050565b60015474010000000000000000000000000000000000000000900460ff1681565b600080600080600080610666600160009054906101000a9004600160a060020a031688611009565b949c939b5091995097509550909350915050565b6000610684613268565b61068c613268565b6001546106a690600160a060020a0316898989898961144f565b925092509250955095509592505050565b600054600160a060020a031681565b600154600160a060020a031681565b60006106df613268565b6001546106f790600160a060020a031686868661148e565b91509150935093915050565b6000548290600160a060020a0380831691161480156107ce5750600154600160a060020a0316634c77e5ba6040517f6f646c6c2f6f776e6572000000000000000000000000000000000000000000008152600a01604051809103902060006040516020015260405160e060020a63ffffffff84160281526004810191909152602401602060405180830381600087803b151561079e57600080fd5b6102c65a03f115156107af57600080fd5b50505060405180519050600160a060020a031681600160a060020a0316145b15156107d957600080fd5b81600160a060020a0316ff5b60006107ef613268565b6001546106f790600160a060020a03168686866114bc565b60015460009061082090600160a060020a0316836114cf565b60ff1692915050565b6001546000908190819061084690600160a060020a031685611589565b9196909550909350915050565b600061085d613268565b6001546108a790600160a060020a03168b8b8b8b8b8060208082020160405190810160405280939291908181526020018383602002808284378201915050505050508a8a8a61178b565b915091509850989650505050505050565b60005433600160a060020a039081169116146108d357600080fd5b600160a060020a03811615156108e857600080fd5b600054600160a060020a0380831691167f8be0079c531659141344cd1fd0a4f28419497f9722a3daafe3b4186f6b6457e060405160405180910390a36000805473ffffffffffffffffffffffffffffffffffffffff1916600160a060020a0392909216919091179055565b61095b613268565b610a018383604080519081016040908152600f82527f70617469656e742f64656e746973740000000000000000000000000000000000602083015280519081016040908152601682527f70617469656e742f64656e74697374732d636f756e740000000000000000000060208301528051908101604052601381527f70617469656e742f64656e746973742d6b65790000000000000000000000000060208201526117ed565b9392505050565b6000610a1685858585611a6c565b95945050505050565b600080600084600160a060020a03166317e7dd22856040517f757365722f69732d6f646c6c2d64656e746973743f00000000000000000000008152600160a060020a0391909116606060020a026015820152602901604051809103902060006040516020015260405160e060020a63ffffffff84160281526004810191909152602401602060405180830381600087803b1515610abb57600080fd5b6102c65a03f11515610acc57600080fd5b5050506040518051935050600160a060020a0385166317e7dd22856040517f757365722f69732d617661696c61626c653f00000000000000000000000000008152600160a060020a0391909116606060020a026012820152602601604051809103902060006040516020015260405160e060020a63ffffffff84160281526004810191909152602401602060405180830381600087803b1515610b6e57600080fd5b6102c65a03f11515610b7f57600080fd5b5050506040518051925050600160a060020a03851663025ec81a856040517f64656e746973742f636f6d70616e792d6e616d650000000000000000000000008152600160a060020a0391909116606060020a026014820152602801604051809103902060006040516020015260405160e060020a63ffffffff84160281526004810191909152602401602060405180830381600087803b1515610c2157600080fd5b6102c65a03f11515610c3257600080fd5b5050506040518051905090509250925092565b6000610c4f613268565b610c5a888789611be7565b9050610c6881868686611d56565b90999098509650505050505050565b600080600080600086600160a060020a0316637a0e03ec876040517f757365722f7479706500000000000000000000000000000000000000000000008152600160a060020a0391909116606060020a026009820152601d01604051809103902060006040516020015260405160e060020a63ffffffff84160281526004810191909152602401602060405180830381600087803b1515610d1657600080fd5b6102c65a03f11515610d2757600080fd5b5050506040518051955050600160a060020a03871663025ec81a876040517f757365722f6e616d6500000000000000000000000000000000000000000000008152600160a060020a0391909116606060020a026009820152601d01604051809103902060006040516020015260405160e060020a63ffffffff84160281526004810191909152602401602060405180830381600087803b1515610dc957600080fd5b6102c65a03f11515610dda57600080fd5b5050506040518051945050600160a060020a03871663025ec81a876040517f757365722f656d61696c000000000000000000000000000000000000000000008152600160a060020a0391909116606060020a02600a820152601e01604051809103902060006040516020015260405160e060020a63ffffffff84160281526004810191909152602401602060405180830381600087803b1515610e7c57600080fd5b6102c65a03f11515610e8d57600080fd5b5050506040518051935050600160a060020a03871663025ec81a876040517f757365722f6772617661746172000000000000000000000000000000000000008152600160a060020a0391909116606060020a02600d820152602101604051809103902060006040516020015260405160e060020a63ffffffff84160281526004810191909152602401602060405180830381600087803b1515610f2f57600080fd5b6102c65a03f11515610f4057600080fd5b5050506040518051925050600160a060020a038716637a0e03ec876040517f757365722f7374617475730000000000000000000000000000000000000000008152600160a060020a0391909116606060020a02600b820152601f01604051809103902060006040516020015260405160e060020a63ffffffff84160281526004810191909152602401602060405180830381600087803b1515610fe257600080fd5b6102c65a03f11515610ff357600080fd5b5050506040518051905090509295509295909350565b60008060008060008087600160a060020a031663025ec81a886040517f757365722f7374726565740000000000000000000000000000000000000000008152600160a060020a0391909116606060020a02600b820152601f01604051809103902060006040516020015260405160e060020a63ffffffff84160281526004810191909152602401602060405180830381600087803b15156110a957600080fd5b6102c65a03f115156110ba57600080fd5b5050506040518051965050600160a060020a03881663025ec81a886040517f757365722f6369747900000000000000000000000000000000000000000000008152600160a060020a0391909116606060020a026009820152601d01604051809103902060006040516020015260405160e060020a63ffffffff84160281526004810191909152602401602060405180830381600087803b151561115c57600080fd5b6102c65a03f1151561116d57600080fd5b5050506040518051955050600160a060020a03881663025ec81a886040517f757365722f70686f6e652d6e756d6265720000000000000000000000000000008152600160a060020a0391909116606060020a026011820152602501604051809103902060006040516020015260405160e060020a63ffffffff84160281526004810191909152602401602060405180830381600087803b151561120f57600080fd5b6102c65a03f1151561122057600080fd5b5050506040518051945050600160a060020a03881663bdc963d8886040517f757365722f7374617465000000000000000000000000000000000000000000008152600160a060020a0391909116606060020a02600a820152601e01604051809103902060006040516020015260405160e060020a63ffffffff84160281526004810191909152602401602060405180830381600087803b15156112c257600080fd5b6102c65a03f115156112d357600080fd5b5050506040518051935050600160a060020a03881663025ec81a886040517f757365722f7a69702d636f6465000000000000000000000000000000000000008152600160a060020a0391909116606060020a02600d820152602101604051809103902060006040516020015260405160e060020a63ffffffff84160281526004810191909152602401602060405180830381600087803b151561137557600080fd5b6102c65a03f1151561138657600080fd5b5050506040518051925050600160a060020a03881663bdc963d8886040517f757365722f636f756e74727900000000000000000000000000000000000000008152600160a060020a0391909116606060020a02600c820152602001604051809103902060006040516020015260405160e060020a63ffffffff84160281526004810191909152602401602060405180830381600087803b151561142857600080fd5b6102c65a03f1151561143957600080fd5b5050506040518051905090509295509295509295565b6000611459613268565b611461613268565b61146f898989898989610c45565b90935091506114808988848b611dc5565b905096509650969350505050565b6000611498613268565b6114a186611e47565b90506114af81868686611ec0565b9097909650945050505050565b60006114c6613268565b6114a186611f1a565b600082600160a060020a0316637a0e03ec836040517f64656e746973742f617665726167652d726174696e67000000000000000000008152600160a060020a0391909116606060020a026016820152602a01604051809103902060006040516020015260405160e060020a63ffffffff84160281526004810191909152602401602060405180830381600087803b151561156857600080fd5b6102c65a03f1151561157957600080fd5b5050506040518051949350505050565b600080600084600160a060020a0316637a0e03ec856040517f757365722f67656e6465720000000000000000000000000000000000000000008152600160a060020a0391909116606060020a02600b820152601f01604051809103902060006040516020015260405160e060020a63ffffffff84160281526004810191909152602401602060405180830381600087803b151561162557600080fd5b6102c65a03f1151561163657600080fd5b5050506040518051935050600160a060020a03851663025ec81a856040517f757365722f736f6369616c2d73656375726974792d6e756d62657200000000008152600160a060020a0391909116606060020a02601b820152602f01604051809103902060006040516020015260405160e060020a63ffffffff84160281526004810191909152602401602060405180830381600087803b15156116d857600080fd5b6102c65a03f115156116e957600080fd5b5050506040518051925050600160a060020a03851663025ec81a856040517f757365722f6269727468646179000000000000000000000000000000000000008152600160a060020a0391909116606060020a02600d820152602101604051809103902060006040516020015260405160e060020a63ffffffff84160281526004810191909152602401602060405180830381600087803b1515610c2157600080fd5b6000611795613268565b61179d613268565b6117a5613268565b6117b18c8b8b8b611f93565b91506117bf8c8b8b8e612091565b90506117cc8c838361215c565b92506117da83888888611ec0565b909d909c509a5050505050505050505050565b6117f5613268565b6000806000806118068a8a89612238565b9350836040518059106118165750595b9080825280602002602001820160405250945060009250600091505b83821015611a545789600160a060020a0316634c77e5ba878b856040518084805190602001908083835b6020831061187b5780518252601f19909201916020918201910161185c565b6001836020036101000a03801982511681845116808217855250505050505090500183600160a060020a0316600160a060020a0316606060020a0281526014018281526020019350505050604051809103902060006040516020015260405160e060020a63ffffffff84160281526004810191909152602401602060405180830381600087803b151561190d57600080fd5b6102c65a03f1151561191e57600080fd5b5050506040518051915050600160a060020a038a16637a0e03ec898b846040518084805190602001908083835b6020831061196a5780518252601f19909201916020918201910161194b565b6001836020036101000a0380198251168184511617909252505050600160a060020a03958616606060020a90810291909301908152939094160260148301525060280191506040905051809103902060006040516020015260405160e060020a63ffffffff84160281526004810191909152602401602060405180830381600087803b15156119f857600080fd5b6102c65a03f11515611a0957600080fd5b5050506040518051905060ff1660011415611a495780858481518110611a2b57fe5b600160a060020a039092166020928302909101909101526001909201915b600190910190611832565b611a5e8386612327565b9a9950505050505050505050565b60008360011415611b365784600160a060020a031663bdc963d883856040517f64656e746973742f7363616e2d736572766963652f66656500000000000000008152600160a060020a0392909216606060020a026018830152602c820152604c01604051809103902060006040516020015260405160e060020a63ffffffff84160281526004810191909152602401602060405180830381600087803b1515611b1457600080fd5b6102c65a03f11515611b2557600080fd5b505050604051805190509050610586565b8360021415611bdc5784600160a060020a031663bdc963d883856040517f64656e746973742f74726561746d656e742d736572766963652f6665650000008152600160a060020a0392909216606060020a02601d8301526031820152605101604051809103902060006040516020015260405160e060020a63ffffffff84160281526004810191909152602401602060405180830381600087803b1515611b1457600080fd5b506000949350505050565b611bef613268565b8260011415611ca557611c9e8483604080519081016040908152601482527f64656e746973742f7363616e2d73657276696365000000000000000000000000602083015280519081016040908152601b82527f64656e746973742f7363616e2d73657276696365732d636f756e74000000000060208301528051908101604052601881527f64656e746973742f7363616e2d736572766963652d6b6579000000000000000060208201526123b8565b9050610a01565b8260021415610a0157611c9e8483604080519081016040908152601982527f64656e746973742f74726561746d656e742d73657276696365000000000000006020830152805190810160405280602081526020017f64656e746973742f74726561746d656e742d73657276696365732d636f756e7481525060408051908101604052601d81527f64656e746973742f74726561746d656e742d736572766963652d6b657900000060208201526123b8565b6000611d60613268565b85519150600086511115611dbc578551851115611d8c5781611d8360008861261c565b91509150611dbc565b85518486011115611d9e578486510393505b611db9868751878601811515611db057fe5b06866001612699565b90505b94509492505050565b611dcd613268565b60008351604051805910611dde5750595b90808252806020026020018201604052509150600090505b8351811015611e3e57611e208686868481518110611e1057fe5b9060200190602002015186611a6c565b828281518110611e2c57fe5b60209081029091010152600101611df6565b50949350505050565b611e4f613268565b61056582604080519081016040908152600c82527f64656e74697374732f696473000000000000000000000000000000000000000060208301528051908101604052600e81527f64656e74697374732f636f756e7400000000000000000000000000000000000060208201526127b9565b6000611eca613268565b85519150600086511115611dbc578551851115611eed5781611d83600088612327565b85518486011115611eff578486510393505b611db9868751878601811515611f1157fe5b068660016129b8565b611f22613268565b61056582604080519081016040908152600c82527f6d616e61676572732f696473000000000000000000000000000000000000000060208301528051908101604052600e81527f6d616e61676572732f636f756e7400000000000000000000000000000000000060208201526127b9565b611f9b613268565b611fa3613268565b600080600080611fb48a8a8a612ae6565b94508451604051805910611fc55750595b9080825280602002602001820160405250955060009350600092505b845183101561208757848381518110611ff657fe5b90602001906020020151915061200e8a8a8a85611a6c565b90508660008151811061201d57fe5b90602001906020020151811015801561204c57508660018151811061203e57fe5b906020019060200201518111155b1561207c578186858151811061205e57fe5b600160a060020a039092166020928302909101909101526001909301925b600190920191611fe1565b611a5e8487612327565b612099613268565b6120a1613268565b60008060006120b1898989612ae6565b935083516040518059106120c25750595b9080825280602002602001820160405250945060009250600091505b8351821015612145578382815181106120f357fe5b90602001906020020151905061210a898288612c4e565b1561213a578085848151811061211c57fe5b600160a060020a039092166020928302909101909101526001909201915b6001909101906120de565b61214f8386612327565b9998505050505050505050565b612164613268565b600084600160a060020a031663bdc963d86040517f64656e74697374732f636f756e740000000000000000000000000000000000008152600e01604051809103902060006040516020015260405160e060020a63ffffffff84160281526004810191909152602401602060405180830381600087803b15156121e557600080fd5b6102c65a03f115156121f657600080fd5b505050604051805191505080151561220d57612230565b61221684612d1a565b935061222183612d1a565b925061222d8484612e08565b91505b509392505050565b600083600160a060020a031663bdc963d883856040518083805190602001908083835b6020831061227a5780518252601f19909201916020918201910161225b565b6001836020036101000a03801982511681845116808217855250505050505090500182600160a060020a0316600160a060020a0316606060020a02815260140192505050604051809103902060006040516020015260405160e060020a63ffffffff84160281526004810191909152602401602060405180830381600087803b151561230557600080fd5b6102c65a03f1151561231657600080fd5b505050604051805195945050505050565b61232f613268565b60008251841115612342578291506123b1565b836040518059106123505750595b90808252806020026020018201604052509150600090505b838110156123b15782818151811061237c57fe5b9060200190602002015182828151811061239257fe5b600160a060020a03909216602092830290910190910152600101612368565b5092915050565b6123c0613268565b6000806000806123d18a8a89612238565b9350836040518059106123e15750595b9080825280602002602001820160405250945060009250600091505b838210156126165789600160a060020a031663bdc963d8878b856040518084805190602001908083835b602083106124465780518252601f199092019160209182019101612427565b6001836020036101000a03801982511681845116808217855250505050505090500183600160a060020a0316600160a060020a0316606060020a0281526014018281526020019350505050604051809103902060006040516020015260405160e060020a63ffffffff84160281526004810191909152602401602060405180830381600087803b15156124d857600080fd5b6102c65a03f115156124e957600080fd5b5050506040518051915050600160a060020a038a16637a0e03ec898b846040518084805190602001908083835b602083106125355780518252601f199092019160209182019101612516565b6001836020036101000a03801982511681845116808217855250505050505090500183600160a060020a0316600160a060020a0316606060020a0281526014018281526020019350505050604051809103902060006040516020015260405160e060020a63ffffffff84160281526004810191909152602401602060405180830381600087803b15156125c757600080fd5b6102c65a03f115156125d857600080fd5b5050506040518051905060ff166001141561260b57808584815181106125fa57fe5b602090810290910101526001909201915b6001909101906123fd565b611a5e83865b612624613268565b60008251841115612637578291506123b1565b836040518059106126455750595b90808252806020026020018201604052509150600090505b838110156123b15782818151811061267157fe5b9060200190602002015182828151811061268757fe5b6020908102909101015260010161265d565b6126a1613268565b60008080808851925082881015806126b7575086155b156126c1576127ad565b866040518059106126cf5750595b908082528060200260200182016040525094508791505b86880182101561273957818314156126fd57612739565b88828151811061270957fe5b9060200190602002015185858151811061271f57fe5b6020908102909101015260019384019391909101906126e6565b85801561274557508684105b156127a35750600090508286035b8082116127a35783871415612767576127a3565b88828151811061277357fe5b9060200190602002015185858151811061278957fe5b602090810290910101526001938401939190910190612753565b61214f848661261c565b50505050949350505050565b6127c1613268565b60008085600160a060020a031663bdc963d8856040518082805190602001908083835b602083106128035780518252601f1990920191602091820191016127e4565b6001836020036101000a0380198251168184511617909252505050919091019250604091505051809103902060006040516020015260405160e060020a63ffffffff84160281526004810191909152602401602060405180830381600087803b151561286e57600080fd5b6102c65a03f1151561287f57600080fd5b505050604051805190509150816040518059106128995750595b90808252806020026020018201604052509250600090505b818110156129af5785600160a060020a0316634c77e5ba86836040518083805190602001908083835b602083106128f95780518252601f1990920191602091820191016128da565b6001836020036101000a03801982511681845116179092525050509190910192835250506020019050604051809103902060006040516020015260405160e060020a63ffffffff84160281526004810191909152602401602060405180830381600087803b151561296957600080fd5b6102c65a03f1151561297a57600080fd5b5050506040518051905083828151811061299057fe5b600160a060020a039092166020928302909101909101526001016128b1565b50509392505050565b6129c0613268565b60008080808851925082881015806129d6575086155b156129e0576127ad565b866040518059106129ee5750595b908082528060200260200182016040525094508791505b868801821015612a655781831415612a1c57612a65565b888281518110612a2857fe5b90602001906020020151858581518110612a3e57fe5b600160a060020a039092166020928302909101909101526001938401939190910190612a05565b858015612a7157508684105b15612adc5750600090508286035b808211612adc5783871415612a9357612adc565b888281518110612a9f57fe5b90602001906020020151858581518110612ab557fe5b600160a060020a039092166020928302909101909101526001938401939190910190612a7f565b61214f8486612327565b612aee613268565b8260011415612b9d57611c9e8483604080519081016040908152601482527f7363616e2d736572766963652f64656e74697374000000000000000000000000602083015280519081016040908152601b82527f7363616e2d736572766963652f64656e74697374732d636f756e74000000000060208301528051908101604052601881527f7363616e2d736572766963652f64656e746973742d6b657900000000000000006020820152612f76565b8260021415610a0157611c9e8483604080519081016040908152601982527f74726561746d656e742d736572766963652f64656e74697374000000000000006020830152805190810160405280602081526020017f74726561746d656e742d736572766963652f64656e74697374732d636f756e7481525060408051908101604052601d81527f74726561746d656e742d736572766963652f64656e746973742d6b65790000006020820152612f76565b6000811515612c5f57506001610a01565b83600160a060020a031663bdc963d8846040517f757365722f7374617465000000000000000000000000000000000000000000008152600160a060020a0391909116606060020a02600a820152601e01604051809103902060006040516020015260405160e060020a63ffffffff84160281526004810191909152602401602060405180830381600087803b1515612cf657600080fd5b6102c65a03f11515612d0757600080fd5b5050506040518051909214949350505050565b612d22613268565b60016000805b8451831015612dff57848381518110612d3d57fe5b9060200190602002015191508290505b600081118015612d86575081600160a060020a0316856001830381518110612d7157fe5b90602001906020020151600160a060020a0316115b15612dd057846001820381518110612d9a57fe5b90602001906020020151858281518110612db057fe5b600160a060020a0390921660209283029091019091015260001901612d4d565b81858281518110612ddd57fe5b600160a060020a03909216602092830290910190910152600190920191612d28565b50929392505050565b612e10613268565b60008060008060008751945086519350841580612e2b575083155b15612e3557612f6b565b84604051805910612e435750595b908082528060200260200182016040525095506000925060009150600090505b8483108015612e7157508382105b15612f5e57868281518110612e8257fe5b90602001906020020151600160a060020a0316888481518110612ea157fe5b90602001906020020151600160a060020a03161115612ec557600190910190612f59565b868281518110612ed157fe5b90602001906020020151600160a060020a0316888481518110612ef057fe5b90602001906020020151600160a060020a03161015612f1457600190920191612f59565b878381518110612f2057fe5b90602001906020020151868281518110612f3657fe5b600160a060020a0390921660209283029091019091015260019283019291820191015b612e63565b612f688187612327565b95505b505050505092915050565b612f7e613268565b600080600080612f8f8a8a896131b6565b935083604051805910612f9f5750595b9080825280602002602001820160405250945060009250600091505b83821015611a545789600160a060020a0316634c77e5ba878b856040518084805190602001908083835b602083106130045780518252601f199092019160209182019101612fe5565b6001836020036101000a038019825116818451161790925250505091909101938452505060208201526040908101915051809103902060006040516020015260405160e060020a63ffffffff84160281526004810191909152602401602060405180830381600087803b151561307957600080fd5b6102c65a03f1151561308a57600080fd5b5050506040518051915050600160a060020a038a16637a0e03ec898b846040518084805190602001908083835b602083106130d65780518252601f1990920191602091820191016130b7565b6001836020036101000a0380198251168184511617909252505050919091019384525050600160a060020a0316606060020a0260208201526034019050604051809103902060006040516020015260405160e060020a63ffffffff84160281526004810191909152602401602060405180830381600087803b151561315a57600080fd5b6102c65a03f1151561316b57600080fd5b5050506040518051905060ff16600114156131ab578085848151811061318d57fe5b600160a060020a039092166020928302909101909101526001909201915b600190910190612fbb565b600083600160a060020a031663bdc963d883856040518083805190602001908083835b602083106131f85780518252601f1990920191602091820191016131d9565b6001836020036101000a03801982511681845116179092525050509190910192835250506020019050604051809103902060006040516020015260405160e060020a63ffffffff84160281526004810191909152602401602060405180830381600087803b151561230557600080fd5b602060405190810160405260008152905600a165627a7a723058208a24aa72321e776056a25049a46eb548c27f46dc46f87230ac19b3820814e7a10029",
  "source": "pragma solidity 0.4.17;\n\nimport \"./ODLLRestrictor.sol\";\nimport \"../lib/odll/userManager.sol\";\n\ncontract ODLLUserReader is ODLLRestrictor {\n\n  function ODLLUserReader(address _dbAddress) public {\n    require(_dbAddress != 0x0);\n    dbAddress = _dbAddress;\n  }\n\n  function getUserIdentityData(address userId)\n    external\n    view\n    returns (\n      uint8,\n      bytes32,\n      bytes32,\n      bytes32,\n      uint8\n    )\n  {\n    return userManager.getUserIdentityData(dbAddress, userId);\n  }\n\n  function getUserContactData(address userId)\n    external\n    view\n    returns (\n      bytes32,\n      bytes32,\n      bytes32,\n      uint,\n      bytes32,\n      uint\n    )\n  {\n    return userManager.getUserContactData(dbAddress, userId);\n  }\n\n  function getUserPersonalData(address userId)\n    external\n    view\n    returns (\n      uint8 gender,\n      bytes32 socialSecurityNumber,\n      bytes32 birthday\n    )\n  {\n    (gender, socialSecurityNumber, birthday) = userManager.getUserPersonalData(dbAddress, userId);\n  }\n\n  function getUserDentistsIds(address userId)\n    external\n    view\n    returns (\n      address[] dentistsIds\n    )\n  {\n    dentistsIds = userManager.getUserDentistsIds(dbAddress, userId);\n  }\n\n  function findDentists(\n    uint stateId,\n    uint serviceTypeId,\n    uint serviceId,\n    uint[] budget, // within budget range\n    uint offset, // starting from offset: 0-based\n    uint limit, // not more than limit\n    uint seed // seed value to give the illusion of randomisation\n    )\n      external\n      view\n      returns (\n        uint,\n        address[]\n      )\n  {\n    return userManager.findDentists(dbAddress, stateId, serviceTypeId, serviceId, budget, offset, limit, seed);\n  }\n\n  function getDentistIdentityData(address dentistId)\n    external\n    view\n    returns (\n      bool,\n      bool,\n      bytes32\n    ) {\n    return userManager.getDentistIdentityData(dbAddress, dentistId);\n  }\n\n  function getDentistFeeData(uint serviceTypeId, uint serviceId, address dentistId)\n    external\n    view\n    returns (\n      uint fee\n    ) {\n    fee = userManager.getDentistFeeData(dbAddress, serviceTypeId, serviceId, dentistId);\n  }\n\n  function getDentistRatingData(address dentistId)\n    external\n    view\n    returns (\n      uint rating\n    ) {\n    rating = userManager.getDentistAverageRating(dbAddress, dentistId);\n  }\n\n  function fetchDentists(\n    uint offset, // starting from offset: 0-based\n    uint limit, // not more than limit\n    uint seed // seed value to give the illusion of randomisation\n  )\n    external\n    view\n    returns (\n      uint,\n      address[]\n    )\n  {\n    return userManager.fetchDentists(dbAddress, offset, limit, seed);\n  }\n\n  function fetchManagers(\n    uint offset, // starting from offset: 0-based\n    uint limit, // not more than limit\n    uint seed // seed value to give the illusion of randomisation\n  )\n    external\n    view\n    returns (\n      uint,\n      address[]\n    )\n  {\n    return userManager.fetchManagers(dbAddress, offset, limit, seed);\n  }\n\n  function fetchServicesWithFees(\n    address userId,\n    uint serviceTypeId,\n    uint offset, // starting from offset: 0-based\n    uint limit, // not more than limit\n    uint seed // seed value to give the illusion of randomisation\n  )\n    external\n    view\n    returns (\n      uint,\n      uint[],\n      uint[]\n    )\n  {\n    return userManager.fetchServicesWithFees(dbAddress, userId, serviceTypeId, offset, limit, seed);\n  }\n\n  function fetchServices(\n    address userId,\n    uint serviceTypeId,\n    uint offset, // starting from offset: 0-based\n    uint limit, // not more than limit\n    uint seed // seed value to give the illusion of randomisation\n  )\n    external\n    view\n    returns (\n      uint,\n      uint[]\n    )\n  {\n    return userManager.fetchServices(dbAddress, userId, serviceTypeId, offset, limit, seed);\n  }\n\n  function destroySelf(address callerAddress, address newContractAddress)\n    external\n    onlyOwnerCanCall(callerAddress)\n  {\n    selfdestruct(newContractAddress);\n  }\n}\n\n",
  "sourcePath": "/home/daniel/dev/vue/apps/oral-data-link/contracts/odll/ODLLUserReader.sol",
  "schemaVersion": "1.0.0",
  "updatedAt": "2017-10-31T09:13:24.011Z"
}