{
  "contractName": "ODLLRestrictor",
  "abi": [
    {
      "constant": true,
      "inputs": [],
      "name": "smartContractStatus",
      "outputs": [
        {
          "name": "",
          "type": "uint8"
        }
      ],
      "payable": false,
      "stateMutability": "view",
      "type": "function"
    },
    {
      "constant": true,
      "inputs": [],
      "name": "owner",
      "outputs": [
        {
          "name": "",
          "type": "address"
        }
      ],
      "payable": false,
      "stateMutability": "view",
      "type": "function"
    },
    {
      "constant": true,
      "inputs": [],
      "name": "dbAddress",
      "outputs": [
        {
          "name": "",
          "type": "address"
        }
      ],
      "payable": false,
      "stateMutability": "view",
      "type": "function"
    },
    {
      "constant": false,
      "inputs": [
        {
          "name": "newOwner",
          "type": "address"
        }
      ],
      "name": "transferOwnership",
      "outputs": [],
      "payable": false,
      "stateMutability": "nonpayable",
      "type": "function"
    },
    {
      "anonymous": false,
      "inputs": [
        {
          "indexed": false,
          "name": "status",
          "type": "uint8"
        }
      ],
      "name": "OnSmartContractStatusSet",
      "type": "event"
    },
    {
      "anonymous": false,
      "inputs": [
        {
          "indexed": true,
          "name": "previousOwner",
          "type": "address"
        },
        {
          "indexed": true,
          "name": "newOwner",
          "type": "address"
        }
      ],
      "name": "OwnershipTransferred",
      "type": "event"
    }
  ],
  "bytecode": "0x606060405260008054600160a060020a033316600160a060020a03199091161790556101ef806100306000396000f300606060405263ffffffff7c01000000000000000000000000000000000000000000000000000000006000350416634c8ddddc811461005d5780638da5cb5b1461008657806391e06b6d146100b5578063f2fde38b146100c857600080fd5b341561006857600080fd5b6100706100e9565b60405160ff909116815260200160405180910390f35b341561009157600080fd5b61009961010a565b604051600160a060020a03909116815260200160405180910390f35b34156100c057600080fd5b610099610119565b34156100d357600080fd5b6100e7600160a060020a0360043516610128565b005b60015474010000000000000000000000000000000000000000900460ff1681565b600054600160a060020a031681565b600154600160a060020a031681565b60005433600160a060020a0390811691161461014357600080fd5b600160a060020a038116151561015857600080fd5b600054600160a060020a0380831691167f8be0079c531659141344cd1fd0a4f28419497f9722a3daafe3b4186f6b6457e060405160405180910390a36000805473ffffffffffffffffffffffffffffffffffffffff1916600160a060020a03929092169190911790555600a165627a7a72305820540bcecec69e519d268bed710407289cc72f746592c3fbc083bcf2b838ed2c750029",
  "source": "pragma solidity 0.4.17;\n\nimport \"./ODLLDB.sol\";\n\ncontract ODLLRestrictor is Ownable {\n\n  address public dbAddress;\n  uint8 public smartContractStatus;\n  event OnSmartContractStatusSet(uint8 status);\n\n  modifier onlyPermittedSmartContract {\n    require(smartContractStatus == 0);\n    _;\n  }\n\n  // Just to double-check ownership\n  modifier onlyOwnerCanCall(address senderAddress)\n  {\n    require(senderAddress == owner && senderAddress == ODLLDB(dbAddress).getAddressValue(keccak256('odll/owner')));\n    _;\n  }\n\n  modifier onlyActiveAdmin {\n    require(isActiveAdmin(msg.sender));\n    _;\n  }\n\n  modifier onlyActiveManager {\n    require(isActiveManager(msg.sender));\n    _;\n  }\n\n  modifier onlyOwnerOrActiveAdminOrActiveManager {\n    require(msg.sender == owner || isActiveAdmin(msg.sender) || isActiveManager(msg.sender));\n    _;\n  }\n\n  modifier onlyOwnerOrActiveAdmin {\n    require(msg.sender == owner || isActiveAdmin(msg.sender));\n    _;\n  }\n\n  modifier onlyActiveDentist {\n    require(isActiveDentist(msg.sender));\n    _;\n  }\n\n  modifier onlyActivePatient {\n    require(isActivePatient(msg.sender));\n    _;\n  }\n\n  modifier onlyActiveUser {\n    require(hasStatus(msg.sender, 1));\n    _;\n  }\n\n  function setSmartContractStatus(\n    uint8 _status\n  )\n    internal\n    onlyOwner\n  {\n    smartContractStatus = _status;\n    OnSmartContractStatusSet(_status);\n  }\n\n  function isActiveAdmin(address userId) internal view returns(bool) {\n    return isUserType(userId, 4) && hasStatus(userId, 1);\n  }\n\n  function isActiveManager(address userId) internal view returns(bool) {\n    return isUserType(userId, 3) && hasStatus(userId, 1);\n  }\n\n  function isActiveDentist(address userId) internal view returns(bool) {\n    return isUserType(userId, 2) && hasStatus(userId, 1);\n  }\n\n  function isActivePatient(address userId) internal view returns(bool) {\n    return isUserType(userId, 1) && hasStatus(userId, 1);\n  }\n\n  function hasStatus(address userId, uint8 status) internal view returns(bool) {\n    return status == getStatus(userId);\n  }\n\n  function getStatus(address userId) internal view returns(uint8) {\n    return ODLLDB(dbAddress).getUInt8Value(keccak256(\"user/status\", userId));\n  }\n\n  function isUserType(address userId, uint8 userType) internal view returns(bool) {\n    return userType == getUserType(userId);\n  }\n\n  function getUserType(address userId) internal view returns(uint8) {\n    return ODLLDB(dbAddress).getUInt8Value(keccak256(\"user/type\", userId));\n  }\n}\n",
  "sourcePath": "/home/daniel/dev/vue/apps/oral-data-link/contracts/odll/ODLLRestrictor.sol",
  "schemaVersion": "1.0.0",
  "updatedAt": "2017-10-30T11:32:00.578Z"
}