{
  "contractName": "ODLLUserWriter",
  "abi": [
    {
      "constant": false,
      "inputs": [
        {
          "name": "dentistId",
          "type": "address"
        },
        {
          "name": "rating",
          "type": "uint8"
        }
      ],
      "name": "writeDentistRating",
      "outputs": [],
      "payable": false,
      "stateMutability": "nonpayable",
      "type": "function"
    },
    {
      "constant": false,
      "inputs": [
        {
          "name": "phoneNumber",
          "type": "bytes32"
        },
        {
          "name": "socialSecurityNumber",
          "type": "bytes32"
        },
        {
          "name": "birthday",
          "type": "bytes32"
        },
        {
          "name": "gender",
          "type": "uint8"
        }
      ],
      "name": "writeUserOptionalValues",
      "outputs": [],
      "payable": false,
      "stateMutability": "nonpayable",
      "type": "function"
    },
    {
      "constant": false,
      "inputs": [
        {
          "name": "userType",
          "type": "uint8"
        },
        {
          "name": "name",
          "type": "bytes32"
        },
        {
          "name": "email",
          "type": "bytes32"
        },
        {
          "name": "gravatar",
          "type": "bytes32"
        }
      ],
      "name": "writeUserIdentity",
      "outputs": [],
      "payable": false,
      "stateMutability": "nonpayable",
      "type": "function"
    },
    {
      "constant": false,
      "inputs": [
        {
          "name": "userId",
          "type": "address"
        }
      ],
      "name": "unblockUser",
      "outputs": [],
      "payable": false,
      "stateMutability": "nonpayable",
      "type": "function"
    },
    {
      "constant": false,
      "inputs": [
        {
          "name": "userId",
          "type": "address"
        }
      ],
      "name": "blockUser",
      "outputs": [],
      "payable": false,
      "stateMutability": "nonpayable",
      "type": "function"
    },
    {
      "constant": false,
      "inputs": [
        {
          "name": "dentistId",
          "type": "address"
        }
      ],
      "name": "writeUserDentistId",
      "outputs": [],
      "payable": false,
      "stateMutability": "nonpayable",
      "type": "function"
    },
    {
      "constant": true,
      "inputs": [],
      "name": "smartContractStatus",
      "outputs": [
        {
          "name": "",
          "type": "uint8"
        }
      ],
      "payable": false,
      "stateMutability": "view",
      "type": "function"
    },
    {
      "constant": false,
      "inputs": [
        {
          "name": "userType",
          "type": "uint8"
        }
      ],
      "name": "determineEvent",
      "outputs": [],
      "payable": false,
      "stateMutability": "nonpayable",
      "type": "function"
    },
    {
      "constant": false,
      "inputs": [
        {
          "name": "serviceTypeId",
          "type": "uint256"
        },
        {
          "name": "serviceId",
          "type": "uint256"
        }
      ],
      "name": "removeDentistFromService",
      "outputs": [],
      "payable": false,
      "stateMutability": "nonpayable",
      "type": "function"
    },
    {
      "constant": false,
      "inputs": [
        {
          "name": "isODLLDentist",
          "type": "bool"
        },
        {
          "name": "isAvailable",
          "type": "bool"
        },
        {
          "name": "companyName",
          "type": "bytes32"
        }
      ],
      "name": "continueWritingDentist",
      "outputs": [],
      "payable": false,
      "stateMutability": "nonpayable",
      "type": "function"
    },
    {
      "constant": false,
      "inputs": [
        {
          "name": "serviceTypeId",
          "type": "uint256"
        },
        {
          "name": "serviceIds",
          "type": "uint256[]"
        }
      ],
      "name": "removeServices",
      "outputs": [],
      "payable": false,
      "stateMutability": "nonpayable",
      "type": "function"
    },
    {
      "constant": true,
      "inputs": [],
      "name": "owner",
      "outputs": [
        {
          "name": "",
          "type": "address"
        }
      ],
      "payable": false,
      "stateMutability": "view",
      "type": "function"
    },
    {
      "constant": true,
      "inputs": [],
      "name": "dbAddress",
      "outputs": [
        {
          "name": "",
          "type": "address"
        }
      ],
      "payable": false,
      "stateMutability": "view",
      "type": "function"
    },
    {
      "constant": false,
      "inputs": [
        {
          "name": "callerAddress",
          "type": "address"
        },
        {
          "name": "newContractAddress",
          "type": "address"
        }
      ],
      "name": "destroySelf",
      "outputs": [],
      "payable": false,
      "stateMutability": "nonpayable",
      "type": "function"
    },
    {
      "constant": false,
      "inputs": [
        {
          "name": "officialId",
          "type": "address"
        },
        {
          "name": "userType",
          "type": "uint8"
        }
      ],
      "name": "addOfficialToODLL",
      "outputs": [],
      "payable": false,
      "stateMutability": "nonpayable",
      "type": "function"
    },
    {
      "constant": false,
      "inputs": [
        {
          "name": "userType",
          "type": "uint8"
        },
        {
          "name": "name",
          "type": "bytes32"
        },
        {
          "name": "email",
          "type": "bytes32"
        },
        {
          "name": "gravatar",
          "type": "bytes32"
        },
        {
          "name": "street",
          "type": "bytes32"
        },
        {
          "name": "city",
          "type": "bytes32"
        },
        {
          "name": "stateId",
          "type": "uint256"
        },
        {
          "name": "zipCode",
          "type": "bytes32"
        },
        {
          "name": "countryId",
          "type": "uint256"
        },
        {
          "name": "phoneNumber",
          "type": "bytes32"
        },
        {
          "name": "socialSecurityNumber",
          "type": "bytes32"
        },
        {
          "name": "birthday",
          "type": "bytes32"
        },
        {
          "name": "gender",
          "type": "uint8"
        }
      ],
      "name": "writeUser",
      "outputs": [],
      "payable": false,
      "stateMutability": "nonpayable",
      "type": "function"
    },
    {
      "constant": false,
      "inputs": [
        {
          "name": "serviceTypeId",
          "type": "uint256"
        },
        {
          "name": "serviceIds",
          "type": "uint256[]"
        }
      ],
      "name": "writeServices",
      "outputs": [],
      "payable": false,
      "stateMutability": "nonpayable",
      "type": "function"
    },
    {
      "constant": false,
      "inputs": [
        {
          "name": "street",
          "type": "bytes32"
        },
        {
          "name": "city",
          "type": "bytes32"
        },
        {
          "name": "stateId",
          "type": "uint256"
        },
        {
          "name": "zipCode",
          "type": "bytes32"
        },
        {
          "name": "countryId",
          "type": "uint256"
        }
      ],
      "name": "writeUserLocation",
      "outputs": [],
      "payable": false,
      "stateMutability": "nonpayable",
      "type": "function"
    },
    {
      "constant": false,
      "inputs": [
        {
          "name": "newOwner",
          "type": "address"
        }
      ],
      "name": "transferOwnership",
      "outputs": [],
      "payable": false,
      "stateMutability": "nonpayable",
      "type": "function"
    },
    {
      "constant": false,
      "inputs": [
        {
          "name": "serviceTypeId",
          "type": "uint256"
        },
        {
          "name": "serviceId",
          "type": "uint256"
        },
        {
          "name": "fee",
          "type": "uint256"
        }
      ],
      "name": "writeServiceWithFee",
      "outputs": [],
      "payable": false,
      "stateMutability": "nonpayable",
      "type": "function"
    },
    {
      "inputs": [
        {
          "name": "_dbAddress",
          "type": "address"
        }
      ],
      "payable": false,
      "stateMutability": "nonpayable",
      "type": "constructor"
    },
    {
      "anonymous": false,
      "inputs": [
        {
          "indexed": false,
          "name": "userId",
          "type": "address"
        }
      ],
      "name": "OnAdminAdded",
      "type": "event"
    },
    {
      "anonymous": false,
      "inputs": [
        {
          "indexed": false,
          "name": "userId",
          "type": "address"
        }
      ],
      "name": "OnDentistAdded",
      "type": "event"
    },
    {
      "anonymous": false,
      "inputs": [
        {
          "indexed": false,
          "name": "userId",
          "type": "address"
        }
      ],
      "name": "OnManagerAdded",
      "type": "event"
    },
    {
      "anonymous": false,
      "inputs": [
        {
          "indexed": false,
          "name": "userId",
          "type": "address"
        }
      ],
      "name": "OnPatientAdded",
      "type": "event"
    },
    {
      "anonymous": false,
      "inputs": [
        {
          "indexed": false,
          "name": "status",
          "type": "uint8"
        }
      ],
      "name": "OnSmartContractStatusSet",
      "type": "event"
    },
    {
      "anonymous": false,
      "inputs": [
        {
          "indexed": true,
          "name": "previousOwner",
          "type": "address"
        },
        {
          "indexed": true,
          "name": "newOwner",
          "type": "address"
        }
      ],
      "name": "OwnershipTransferred",
      "type": "event"
    }
  ],
  "bytecode": "0x6060604052341561000f57600080fd5b604051602080613ad48339810160405280805160008054600160a060020a03191633600160a060020a039081169190911790915590925082161515905061005557600080fd5b60018054600160a060020a031916600160a060020a0392909216919091179055613a50806100846000396000f300606060405236156100f55763ffffffff60e060020a60003504166222049c81146100fa5780630b61e3b5146101215780631c5009981461014357806339d319e5146101655780633da013251461018457806343651b2a146101a35780634c8ddddc146101c2578063526f6ce4146101eb5780637602ab0b14610204578063760e56f31461021d57806386b7c22c1461023d5780638da5cb5b1461025f57806391e06b6d1461028e578063b16b2230146102a1578063c6b64a08146102c6578063c73d8679146102eb578063cf0c91801461033b578063e962beac1461035d578063f2fde38b1461037f578063fd60bc041461039e575b600080fd5b341561010557600080fd5b61011f600160a060020a036004351660ff602435166103ba565b005b341561012c57600080fd5b61011f60043560243560443560ff606435166103fb565b341561014e57600080fd5b61011f60ff6004351660243560443560643561041b565b341561017057600080fd5b61011f600160a060020a0360043516610435565b341561018f57600080fd5b61011f600160a060020a0360043516610489565b34156101ae57600080fd5b61011f600160a060020a03600435166104da565b34156101cd57600080fd5b6101d56104f1565b60405160ff909116815260200160405180910390f35b34156101f657600080fd5b61011f60ff60043516610512565b341561020f57600080fd5b61011f6004356024356105fa565b341561022857600080fd5b61011f6004351515602435151560443561062b565b341561024857600080fd5b61011f6004803590602480359081019101356106ae565b341561026a57600080fd5b610272610712565b604051600160a060020a03909116815260200160405180910390f35b341561029957600080fd5b610272610721565b34156102ac57600080fd5b61011f600160a060020a0360043581169060243516610730565b34156102d157600080fd5b61011f600160a060020a036004351660ff60243516610812565b34156102f657600080fd5b61011f60ff6004358116906024359060443590606435906084359060a4359060c4359060e4359061010435906101243590610144359061016435906101843516610864565b341561034657600080fd5b61011f6004803590602480359081019101356108e2565b341561036857600080fd5b61011f600435602435604435606435608435610941565b341561038a57600080fd5b61011f600160a060020a0360043516610963565b34156103a957600080fd5b61011f6004356024356044356109fe565b600160a060020a038216158015906103d5575060008160ff16115b15156103e057600080fd5b6001546103f790600160a060020a03168383610a3b565b5050565b60015461041590600160a060020a03163386868686610aae565b50505050565b60015461041590600160a060020a03163386868686610d83565b60005433600160a060020a0390811691161480610456575061045633611308565b8061046557506104653361132d565b151561047057600080fd5b60015461048690600160a060020a03168261133a565b50565b60005433600160a060020a03908116911614806104aa57506104aa33611308565b806104b957506104b93361132d565b15156104c457600080fd5b60015461048690600160a060020a0316826113d1565b60015461048690600160a060020a03163383611457565b60015474010000000000000000000000000000000000000000900460ff1681565b8060ff1660011415610560577f33ab88bf15c608bd108a5e190f7ede9805cca0d26edb4c498910efed7bd4548233604051600160a060020a03909116815260200160405180910390a1610486565b8060ff16600314156105ae577f071c1d6c34c33579b7c602d142075cbfcd78a1f17a66d704fa952844a3c5e08e33604051600160a060020a03909116815260200160405180910390a1610486565b8060ff1660041415610486577fddce97d6f5184391465a772abc24fb939b4e8f99851a6a1b823d08b0f7abea9833604051600160a060020a03909116815260200160405180910390a150565b811580159061060857508015155b151561061357600080fd5b6001546103f790600160a060020a03168383336114fe565b60015474010000000000000000000000000000000000000000900460ff161561065357600080fd5b60015461066c90600160a060020a03163385858561150a565b7f9b6411b9015bc6e70c90132714b8568e56698ce0b7522e6057d3ba1e3486253733604051600160a060020a03909116815260200160405180910390a1505050565b82158015906106bd5750600081115b15156106c857600080fd5b60015461070d90600160a060020a0316848484806020808202016040519081016040528093929190818152602001838360200280828437503394506117379350505050565b505050565b600054600160a060020a031681565b600154600160a060020a031681565b6000548290600160a060020a0380831691161480156107fb5750600154600160a060020a0316634c77e5ba6040517f6f646c6c2f6f776e6572000000000000000000000000000000000000000000008152600a01604051809103902060006040516020015260405160e060020a63ffffffff84160281526004810191909152602401602060405180830381600087803b15156107cb57600080fd5b6102c65a03f115156107dc57600080fd5b50505060405180519050600160a060020a031681600160a060020a0316145b151561080657600080fd5b81600160a060020a0316ff5b60005433600160a060020a0390811691161480610833575061083333611308565b8061084257506108423361132d565b151561084d57600080fd5b6001546103f790600160a060020a03168383611743565b60015474010000000000000000000000000000000000000000900460ff161561088c57600080fd5b861580159061089a57508415155b15156108a557600080fd5b6108b18d8d8d8d61041b565b6108be8989898989610941565b6108ca848484846103fb565b6108d38d610512565b50505050505050505050505050565b82158015906108f15750600081115b15156108fc57600080fd5b60015461070d90600160a060020a03168484848060208082020160405190810160405280939291908181526020018383602002808284375033945061183a9350505050565b60015461095c90600160a060020a0316338787878787611846565b5050505050565b60005433600160a060020a0390811691161461097e57600080fd5b600160a060020a038116151561099357600080fd5b600054600160a060020a0380831691167f8be0079c531659141344cd1fd0a4f28419497f9722a3daafe3b4186f6b6457e060405160405180910390a36000805473ffffffffffffffffffffffffffffffffffffffff1916600160a060020a0392909216919091179055565b8215801590610a0c57508115155b8015610a1757508015155b1515610a2257600080fd5b60015461070d90600160a060020a031684848433611bc1565b61070d8383604080519081016040908152601c82527f64656e746973742f617665726167652d726174696e672d636f756e740000000060208301528051908101604052601681527f64656e746973742f617665726167652d726174696e6700000000000000000000602082015285611bda565b610ab88686611fb2565b1515610ac357600080fd5b610acd8686611fca565b1515610ad857600080fd5b85600160a060020a03166325cf512d866040517f757365722f70686f6e652d6e756d6265720000000000000000000000000000008152600160a060020a0391909116606060020a02601182015260250160405180910390208660405160e060020a63ffffffff851602815260048101929092526024820152604401600060405180830381600087803b1515610b6c57600080fd5b6102c65a03f11515610b7d57600080fd5b50505085600160a060020a03166325cf512d866040517f757365722f736f6369616c2d73656375726974792d6e756d62657200000000008152600160a060020a0391909116606060020a02601b820152602f0160405180910390208560405160e060020a63ffffffff851602815260048101929092526024820152604401600060405180830381600087803b1515610c1457600080fd5b6102c65a03f11515610c2557600080fd5b50505085600160a060020a03166325cf512d866040517f757365722f6269727468646179000000000000000000000000000000000000008152600160a060020a0391909116606060020a02600d82015260210160405180910390208460405160e060020a63ffffffff851602815260048101929092526024820152604401600060405180830381600087803b1515610cbc57600080fd5b6102c65a03f11515610ccd57600080fd5b50505085600160a060020a0316630bd85158866040517f757365722f67656e6465720000000000000000000000000000000000000000008152600160a060020a0391909116606060020a02600b820152601f0160405180910390208360405160e060020a63ffffffff8516028152600481019290925260ff166024820152604401600060405180830381600087803b1515610d6757600080fd5b6102c65a03f11515610d7857600080fd5b505050505050505050565b610d8b6139f2565b610d936139f2565b610d9b6139f2565b610da58989611fb2565b151561105a5788600160a060020a0316633562fd20896040517f757365722f637265617465642d6f6e00000000000000000000000000000000008152600160a060020a0391909116606060020a02600f82015260230160405180910390204260405160e060020a63ffffffff851602815260048101929092526024820152604401600060405180830381600087803b1515610e3f57600080fd5b6102c65a03f11515610e5057600080fd5b50505088600160a060020a0316630bd8515889604051600080516020613a058339815191528152600160a060020a0391909116606060020a02600b820152601f016040518091039020600160405160e060020a63ffffffff8516028152600481019290925260ff166024820152604401600060405180830381600087803b1515610ed957600080fd5b6102c65a03f11515610eea57600080fd5b505050610f5f89604080519081016040908152600982527f75736572732f696473000000000000000000000000000000000000000000000060208301528051908101604052600b81527f75736572732f636f756e7400000000000000000000000000000000000000000060208201528b611fdf565b610f688761221b565b91945092509050600160a060020a038916633eba9ed2848a6040518083805190602001908083835b60208310610faf5780518252601f199092019160209182019101610f90565b6001836020036101000a03801982511681845116808217855250505050505090500182600160a060020a0316600160a060020a0316606060020a028152601401925050506040518091039020600160405160e060020a63ffffffff8516028152600481019290925215156024820152604401600060405180830381600087803b151561103a57600080fd5b6102c65a03f1151561104b57600080fd5b50505061105a8983838b611fdf565b88600160a060020a0316630bd85158896040517f757365722f7479706500000000000000000000000000000000000000000000008152600160a060020a0391909116606060020a026009820152601d0160405180910390208960405160e060020a63ffffffff8516028152600481019290925260ff166024820152604401600060405180830381600087803b15156110f157600080fd5b6102c65a03f1151561110257600080fd5b50505088600160a060020a03166325cf512d896040517f757365722f6e616d6500000000000000000000000000000000000000000000008152600160a060020a0391909116606060020a026009820152601d0160405180910390208860405160e060020a63ffffffff851602815260048101929092526024820152604401600060405180830381600087803b151561119957600080fd5b6102c65a03f115156111aa57600080fd5b50505088600160a060020a03166325cf512d896040517f757365722f656d61696c000000000000000000000000000000000000000000008152600160a060020a0391909116606060020a02600a820152601e0160405180910390208760405160e060020a63ffffffff851602815260048101929092526024820152604401600060405180830381600087803b151561124157600080fd5b6102c65a03f1151561125257600080fd5b50505088600160a060020a03166325cf512d896040517f757365722f6772617661746172000000000000000000000000000000000000008152600160a060020a0391909116606060020a02600d82015260210160405180910390208660405160e060020a63ffffffff851602815260048101929092526024820152604401600060405180830381600087803b15156112e957600080fd5b6102c65a03f115156112fa57600080fd5b505050505050505050505050565b6000611315826004612512565b8015611327575061132782600161252d565b92915050565b6000611315826003612512565b81600160a060020a0316630bd8515882604051600080516020613a058339815191528152600160a060020a0391909116606060020a02600b820152601f016040518091039020600160405160e060020a63ffffffff8516028152600481019290925260ff166024820152604401600060405180830381600087803b15156113c057600080fd5b6102c65a03f1151561095c57600080fd5b81600160a060020a0316630bd8515882604051600080516020613a058339815191528152600160a060020a0391909116606060020a02600b820152601f016040518091039020600260405160e060020a63ffffffff8516028152600481019290925260ff166024820152604401600060405180830381600087803b15156113c057600080fd5b61070d8383604080519081016040908152600f82527f70617469656e742f64656e746973740000000000000000000000000000000000602083015280519081016040908152601682527f70617469656e742f64656e74697374732d636f756e740000000000000000000060208301528051908101604052601381527f70617469656e742f64656e746973742d6b657900000000000000000000000000602082015286612538565b61041584848484612708565b6115148585611fb2565b151561151f57600080fd5b6115298585611fca565b151561153457600080fd5b84600160a060020a0316633eba9ed2856040517f757365722f69732d6f646c6c2d64656e746973743f00000000000000000000008152600160a060020a0391909116606060020a02601582015260290160405180910390208560405160e060020a63ffffffff8516028152600481019290925215156024820152604401600060405180830381600087803b15156115ca57600080fd5b6102c65a03f115156115db57600080fd5b50505084600160a060020a0316633eba9ed2856040517f757365722f69732d617661696c61626c653f00000000000000000000000000008152600160a060020a0391909116606060020a02601282015260260160405180910390208460405160e060020a63ffffffff8516028152600481019290925215156024820152604401600060405180830381600087803b151561167457600080fd5b6102c65a03f1151561168557600080fd5b50505084600160a060020a03166325cf512d856040517f64656e746973742f636f6d70616e792d6e616d650000000000000000000000008152600160a060020a0391909116606060020a02601482015260280160405180910390208360405160e060020a63ffffffff851602815260048101929092526024820152604401600060405180830381600087803b151561171c57600080fd5b6102c65a03f1151561172d57600080fd5b5050505050505050565b6104158484848461281b565b600083600160a060020a0316637a0e03ec846040517f757365722f7479706500000000000000000000000000000000000000000000008152600160a060020a0391909116606060020a026009820152601d01604051809103902060006040516020015260405160e060020a63ffffffff84160281526004810191909152602401602060405180830381600087803b15156117dc57600080fd5b6102c65a03f115156117ed57600080fd5b5050506040518051915050600160a060020a03831615801590611812575060ff821615155b801561181f575060ff8116155b151561182a57600080fd5b6104158484846000806000610d83565b61041584848484612850565b6118508787611fb2565b151561185b57600080fd5b6118658787611fca565b151561187057600080fd5b86600160a060020a03166325cf512d876040517f757365722f7374726565740000000000000000000000000000000000000000008152600160a060020a0391909116606060020a02600b820152601f0160405180910390208760405160e060020a63ffffffff851602815260048101929092526024820152604401600060405180830381600087803b151561190457600080fd5b6102c65a03f1151561191557600080fd5b50505086600160a060020a03166325cf512d876040517f757365722f6369747900000000000000000000000000000000000000000000008152600160a060020a0391909116606060020a026009820152601d0160405180910390208660405160e060020a63ffffffff851602815260048101929092526024820152604401600060405180830381600087803b15156119ac57600080fd5b6102c65a03f115156119bd57600080fd5b50505086600160a060020a0316633562fd20876040517f757365722f7374617465000000000000000000000000000000000000000000008152600160a060020a0391909116606060020a02600a820152601e0160405180910390208560405160e060020a63ffffffff851602815260048101929092526024820152604401600060405180830381600087803b1515611a5457600080fd5b6102c65a03f11515611a6557600080fd5b50505086600160a060020a03166325cf512d876040517f757365722f7a69702d636f6465000000000000000000000000000000000000008152600160a060020a0391909116606060020a02600d82015260210160405180910390208460405160e060020a63ffffffff851602815260048101929092526024820152604401600060405180830381600087803b1515611afc57600080fd5b6102c65a03f11515611b0d57600080fd5b50505086600160a060020a0316633562fd20876040517f757365722f636f756e74727900000000000000000000000000000000000000008152600160a060020a0391909116606060020a02600c82015260200160405180910390208360405160e060020a63ffffffff851602815260048101929092526024820152604401600060405180830381600087803b1515611ba457600080fd5b6102c65a03f11515611bb557600080fd5b50505050505050505050565b611bcd85858584612885565b61095c8585858585612b37565b600080600080600089600160a060020a031663bdc963d8898b6040518083805190602001908083835b60208310611c225780518252601f199092019160209182019101611c03565b6001836020036101000a03801982511681845116808217855250505050505090500182600160a060020a0316600160a060020a0316606060020a02815260140192505050604051809103902060006040516020015260405160e060020a63ffffffff84160281526004810191909152602401602060405180830381600087803b1515611cad57600080fd5b6102c65a03f11515611cbe57600080fd5b5050506040518051955050600160a060020a038a16637a0e03ec888b6040518083805190602001908083835b60208310611d095780518252601f199092019160209182019101611cea565b6001836020036101000a03801982511681845116808217855250505050505090500182600160a060020a0316600160a060020a0316606060020a02815260140192505050604051809103902060006040516020015260405160e060020a63ffffffff84160281526004810191909152602401602060405180830381600087803b1515611d9457600080fd5b6102c65a03f11515611da557600080fd5b505050604051805190509350611dbc856001612c96565b9250841515611dd0578560ff169150611dfa565b611de9611de08560ff1687612ca5565b8760ff16612c96565b90508281811515611df657fe5b0491505b89600160a060020a0316633562fd20898b6040518083805190602001908083835b60208310611e3a5780518252601f199092019160209182019101611e1b565b6001836020036101000a03801982511681845116808217855250505050505090500182600160a060020a0316600160a060020a0316606060020a0281526014019250505060405180910390208560405160e060020a63ffffffff851602815260048101929092526024820152604401600060405180830381600087803b1515611ec257600080fd5b6102c65a03f11515611ed357600080fd5b50505089600160a060020a0316630bd85158888b6040518083805190602001908083835b60208310611f165780518252601f199092019160209182019101611ef7565b6001836020036101000a03801982511681845116808217855250505050505090500182600160a060020a0316600160a060020a0316606060020a0281526014019250505060405180910390208460405160e060020a63ffffffff8516028152600481019290925260ff166024820152604401600060405180830381600087803b1515611fa157600080fd5b6102c65a03f115156108d357600080fd5b600080611fbf8484612cc9565b60ff16119392505050565b6000611fd883836001612d71565b9392505050565b600084600160a060020a031663bdc963d8846040518082805190602001908083835b602083106120205780518252601f199092019160209182019101612001565b6001836020036101000a0380198251168184511617909252505050919091019250604091505051809103902060006040516020015260405160e060020a63ffffffff84160281526004810191909152602401602060405180830381600087803b151561208b57600080fd5b6102c65a03f1151561209c57600080fd5b5050506040518051915050600160a060020a038516635a2bf25a85836040518083805190602001908083835b602083106120e75780518252601f1990920191602091820191016120c8565b6001836020036101000a0380198251168184511617909252505050919091019283525050602001905060405180910390208460405160e060020a63ffffffff85160281526004810192909252600160a060020a03166024820152604401600060405180830381600087803b151561215d57600080fd5b6102c65a03f1151561216e57600080fd5b50505084600160a060020a0316633562fd20846040518082805190602001908083835b602083106121b05780518252601f199092019160209182019101612191565b6001836020036101000a038019825116818451161790925250505091909101925060409150505180910390208360010160405160e060020a63ffffffff851602815260048101929092526024820152604401600060405180830381600087803b151561171c57600080fd5b6122236139f2565b61222b6139f2565b6122336139f2565b8360ff16600114156122ea576040805190810160405280601081526020017f757365722f69732d70617469656e743f0000000000000000000000000000000081525092506040805190810160405280600c81526020017f70617469656e74732f6964730000000000000000000000000000000000000000815250915060408051908101604052600e81527f70617469656e74732f636f756e740000000000000000000000000000000000006020820152905061250b565b8360ff16600214156123a1576040805190810160405280601081526020017f757365722f69732d64656e746973743f0000000000000000000000000000000081525092506040805190810160405280600c81526020017f64656e74697374732f6964730000000000000000000000000000000000000000815250915060408051908101604052600e81527f64656e74697374732f636f756e740000000000000000000000000000000000006020820152905061250b565b8360ff1660031415612458576040805190810160405280601081526020017f757365722f69732d6d616e616765723f0000000000000000000000000000000081525092506040805190810160405280600c81526020017f6d616e61676572732f6964730000000000000000000000000000000000000000815250915060408051908101604052600e81527f6d616e61676572732f636f756e740000000000000000000000000000000000006020820152905061250b565b8360ff166004141561250b576040805190810160405280600e81526020017f757365722f69732d61646d696e3f00000000000000000000000000000000000081525092506040805190810160405280600a81526020017f61646d696e732f69647300000000000000000000000000000000000000000000815250915060408051908101604052600c81527f61646d696e732f636f756e740000000000000000000000000000000000000000602082015290505b9193909250565b600061251d83612d8e565b60ff168260ff1614905092915050565b600061251d83612e4a565b85600160a060020a0316637a0e03ec8587846040518084805190602001908083835b602083106125795780518252601f19909201916020918201910161255a565b6001836020036101000a0380198251168184511617909252505050600160a060020a03958616606060020a90810291909301908152939094160260148301525060280191506040905051809103902060006040516020015260405160e060020a63ffffffff84160281526004810191909152602401602060405180830381600087803b151561260757600080fd5b6102c65a03f1151561261857600080fd5b505050604051805160ff1615159050612638576126388686848685612ed4565b85600160a060020a0316630bd851588587846040518084805190602001908083835b602083106126795780518252601f19909201916020918201910161265a565b6001836020036101000a0380198251168184511617909252505050600160a060020a03958616606060020a908102919093019081529390941602601483015250602801915060409050518091039020600160405160e060020a63ffffffff8516028152600481019290925260ff166024820152604401600060405180830381600087803b1515610d6757600080fd5b826001141561279457612750848260408051908101604052601481527f64656e746973742f7363616e2d7365727669636500000000000000000000000060208201528561309b565b61278f848360408051908101604052601481527f7363616e2d736572766963652f64656e74697374000000000000000000000000602082015284613189565b610415565b8260021415610415576127dc848260408051908101604052601981527f64656e746973742f74726561746d656e742d736572766963650000000000000060208201528561309b565b610415848360408051908101604052601981527f74726561746d656e742d736572766963652f64656e7469737400000000000000602082015284613189565b60005b825181101561095c57612848858585848151811061283857fe5b9060200190602002015185612708565b60010161281e565b60005b825181101561095c5761287d858585848151811061286d57fe5b9060200190602002015185612885565b600101612853565b82600114156129dc576129358482604080519081016040908152601482527f64656e746973742f7363616e2d73657276696365000000000000000000000000602083015280519081016040908152601b82527f64656e746973742f7363616e2d73657276696365732d636f756e74000000000060208301528051908101604052601881527f64656e746973742f7363616e2d736572766963652d6b6579000000000000000060208201528761324f565b61278f8483604080519081016040908152601482527f7363616e2d736572766963652f64656e74697374000000000000000000000000602083015280519081016040908152601b82527f7363616e2d736572766963652f64656e74697374732d636f756e74000000000060208301528051908101604052601881527f7363616e2d736572766963652f64656e746973742d6b65790000000000000000602082015286613427565b826002141561041557612a8e8482604080519081016040908152601982527f64656e746973742f74726561746d656e742d73657276696365000000000000006020830152805190810160405280602081526020017f64656e746973742f74726561746d656e742d73657276696365732d636f756e7481525060408051908101604052601d81527f64656e746973742f74726561746d656e742d736572766963652d6b657900000060208201528761324f565b6104158483604080519081016040908152601982527f74726561746d656e742d736572766963652f64656e74697374000000000000006020830152805190810160405280602081526020017f74726561746d656e742d736572766963652f64656e74697374732d636f756e7481525060408051908101604052601d81527f74726561746d656e742d736572766963652f64656e746973742d6b6579000000602082015286613427565b8360011415612bf35784600160a060020a0316633562fd2082856040517f64656e746973742f7363616e2d736572766963652f66656500000000000000008152600160a060020a0392909216606060020a026018830152602c820152604c0160405180910390208460405160e060020a63ffffffff851602815260048101929092526024820152604401600060405180830381600087803b1515612bda57600080fd5b6102c65a03f11515612beb57600080fd5b50505061095c565b836002141561095c5784600160a060020a0316633562fd2082856040517f64656e746973742f74726561746d656e742d736572766963652f6665650000008152600160a060020a0392909216606060020a02601d830152603182015260510160405180910390208460405160e060020a63ffffffff851602815260048101929092526024820152604401600060405180830381600087803b151561171c57600080fd5b600082820183811015611fd857fe5b6000828202831580612cc15750828482811515612cbe57fe5b04145b1515611fd857fe5b600082600160a060020a0316637a0e03ec83604051600080516020613a058339815191528152600160a060020a0391909116606060020a02600b820152601f01604051809103902060006040516020015260405160e060020a63ffffffff84160281526004810191909152602401602060405180830381600087803b1515612d5057600080fd5b6102c65a03f11515612d6157600080fd5b5050506040518051949350505050565b6000612d7d8484612cc9565b60ff168260ff161490509392505050565b600154600090600160a060020a0316637a0e03ec836040517f757365722f7479706500000000000000000000000000000000000000000000008152600160a060020a0391909116606060020a026009820152601d01604051809103902060006040516020015260405160e060020a63ffffffff84160281526004810191909152602401602060405180830381600087803b1515612e2a57600080fd5b6102c65a03f11515612e3b57600080fd5b50505060405180519392505050565b600154600090600160a060020a0316637a0e03ec83604051600080516020613a058339815191528152600160a060020a0391909116606060020a02600b820152601f01604051809103902060006040516020015260405160e060020a63ffffffff84160281526004810191909152602401602060405180830381600087803b1515612e2a57600080fd5b6000612ee18686856135e3565b905085600160a060020a0316635a2bf25a8587846040518084805190602001908083835b60208310612f245780518252601f199092019160209182019101612f05565b6001836020036101000a03801982511681845116808217855250505050505090500183600160a060020a0316600160a060020a0316606060020a028152601401828152602001935050505060405180910390208460405160e060020a63ffffffff85160281526004810192909252600160a060020a03166024820152604401600060405180830381600087803b1515612fbc57600080fd5b6102c65a03f11515612fcd57600080fd5b50505085600160a060020a0316633562fd2084876040518083805190602001908083835b602083106130105780518252601f199092019160209182019101612ff1565b6001836020036101000a03801982511681845116808217855250505050505090500182600160a060020a0316600160a060020a0316606060020a0281526014019250505060405180910390208360010160405160e060020a63ffffffff851602815260048101929092526024820152604401600060405180830381600087803b1515610d6757600080fd5b83600160a060020a0316630bd851588385846040518084805190602001908083835b602083106130dc5780518252601f1990920191602091820191016130bd565b6001836020036101000a03801982511681845116808217855250505050505090500183600160a060020a0316600160a060020a0316606060020a02815260140182815260200193505050506040518091039020600260405160e060020a63ffffffff8516028152600481019290925260ff166024820152604401600060405180830381600087803b151561316f57600080fd5b6102c65a03f1151561318057600080fd5b50505050505050565b83600160a060020a0316630bd851588385846040518084805190602001908083835b602083106131ca5780518252601f1990920191602091820191016131ab565b6001836020036101000a0380198251168184511617909252505050919091019384525050600160a060020a0316606060020a02602082015260340190506040518091039020600260405160e060020a63ffffffff8516028152600481019290925260ff166024820152604401600060405180830381600087803b151561316f57600080fd5b85600160a060020a0316637a0e03ec8587846040518084805190602001908083835b602083106132905780518252601f199092019160209182019101613271565b6001836020036101000a03801982511681845116808217855250505050505090500183600160a060020a0316600160a060020a0316606060020a0281526014018281526020019350505050604051809103902060006040516020015260405160e060020a63ffffffff84160281526004810191909152602401602060405180830381600087803b151561332257600080fd5b6102c65a03f1151561333357600080fd5b505050604051805160ff16151590506133535761335386868486856136d2565b85600160a060020a0316630bd851588587846040518084805190602001908083835b602083106133945780518252601f199092019160209182019101613375565b6001836020036101000a03801982511681845116808217855250505050505090500183600160a060020a0316600160a060020a0316606060020a02815260140182815260200193505050506040518091039020600160405160e060020a63ffffffff8516028152600481019290925260ff166024820152604401600060405180830381600087803b1515610d6757600080fd5b85600160a060020a0316637a0e03ec8587846040518084805190602001908083835b602083106134685780518252601f199092019160209182019101613449565b6001836020036101000a0380198251168184511617909252505050919091019384525050600160a060020a0316606060020a0260208201526034019050604051809103902060006040516020015260405160e060020a63ffffffff84160281526004810191909152602401602060405180830381600087803b15156134ec57600080fd5b6102c65a03f115156134fd57600080fd5b505050604051805160ff161515905061351d5761351d86868486856137b1565b85600160a060020a0316630bd851588587846040518084805190602001908083835b6020831061355e5780518252601f19909201916020918201910161353f565b6001836020036101000a0380198251168184511617909252505050919091019384525050600160a060020a0316606060020a02602082015260340190506040518091039020600160405160e060020a63ffffffff8516028152600481019290925260ff166024820152604401600060405180830381600087803b1515610d6757600080fd5b600083600160a060020a031663bdc963d883856040518083805190602001908083835b602083106136255780518252601f199092019160209182019101613606565b6001836020036101000a03801982511681845116808217855250505050505090500182600160a060020a0316600160a060020a0316606060020a02815260140192505050604051809103902060006040516020015260405160e060020a63ffffffff84160281526004810191909152602401602060405180830381600087803b15156136b057600080fd5b6102c65a03f115156136c157600080fd5b505050604051805195945050505050565b60006136df8686856135e3565b905085600160a060020a0316633562fd208587846040518084805190602001908083835b602083106137225780518252601f199092019160209182019101613703565b6001836020036101000a03801982511681845116808217855250505050505090500183600160a060020a0316600160a060020a0316606060020a028152601401828152602001935050505060405180910390208460405160e060020a63ffffffff851602815260048101929092526024820152604401600060405180830381600087803b1515612fbc57600080fd5b60006137be868685613940565b905085600160a060020a0316635a2bf25a8587846040518084805190602001908083835b602083106138015780518252601f1990920191602091820191016137e2565b6001836020036101000a03801982511681845116179092525050509190910193845250506020820152604090810191505180910390208460405160e060020a63ffffffff85160281526004810192909252600160a060020a03166024820152604401600060405180830381600087803b151561387c57600080fd5b6102c65a03f1151561388d57600080fd5b50505085600160a060020a0316633562fd2084876040518083805190602001908083835b602083106138d05780518252601f1990920191602091820191016138b1565b6001836020036101000a0380198251168184511617909252505050919091019283525050602001905060405180910390208360010160405160e060020a63ffffffff851602815260048101929092526024820152604401600060405180830381600087803b1515610d6757600080fd5b600083600160a060020a031663bdc963d883856040518083805190602001908083835b602083106139825780518252601f199092019160209182019101613963565b6001836020036101000a03801982511681845116179092525050509190910192835250506020019050604051809103902060006040516020015260405160e060020a63ffffffff84160281526004810191909152602401602060405180830381600087803b15156136b057600080fd5b602060405190810160405260008152905600757365722f737461747573000000000000000000000000000000000000000000a165627a7a72305820373c3bfd6f38e436e129892a4ecec13c201545d16b10b4dd65ab1e04493d8fe70029",
  "source": "pragma solidity 0.4.17;\n\nimport \"./ODLLRestrictor.sol\";\nimport \"../lib/odll/userManager.sol\";\n\ncontract ODLLUserWriter is ODLLRestrictor {\n  event OnAdminAdded(address userId);\n  event OnDentistAdded(address userId);\n  event OnManagerAdded(address userId);\n  event OnPatientAdded(address userId);\n\n  function ODLLUserWriter(address _dbAddress) public {\n    require(_dbAddress != 0x0);\n    dbAddress = _dbAddress;\n  }\n\n  function writeUser(\n    uint8 userType,\n    bytes32 name,\n    bytes32 email,\n    bytes32 gravatar,\n    bytes32 street,\n    bytes32 city,\n    uint stateId,\n    bytes32 zipCode,\n    uint countryId,\n    bytes32 phoneNumber,\n    bytes32 socialSecurityNumber,\n    bytes32 birthday,\n    uint8 gender\n  )\n    external\n    onlyPermittedSmartContract\n  {\n    // require the last compulsories first\n    require(stateId != 0 && countryId != 0);\n\n    writeUserIdentity(userType, name, email, gravatar);\n    writeUserLocation(street, city, stateId, zipCode, countryId);\n    writeUserOptionalValues(phoneNumber, socialSecurityNumber, birthday, gender);\n    determineEvent(userType);\n  }\n\n  function writeUserIdentity(uint8 userType, bytes32 name, bytes32 email, bytes32 gravatar) public {\n    userManager.setUserIdentity(dbAddress, msg.sender, userType, name, email, gravatar);\n  }\n\n  function writeUserLocation(bytes32 street, bytes32 city, uint stateId, bytes32 zipCode, uint countryId) public {\n    userManager.setUserLocation(dbAddress, msg.sender, street, city, stateId, zipCode, countryId);\n  }\n\n  function writeUserOptionalValues(bytes32 phoneNumber, bytes32 socialSecurityNumber, bytes32 birthday, uint8 gender) public {\n    userManager.setUserOptionalValues(dbAddress, msg.sender, phoneNumber, socialSecurityNumber, birthday, gender);\n  }\n\n  function determineEvent(uint8 userType) public {\n    if (userType == 1) {\n      OnPatientAdded(msg.sender);\n    } else if (userType == 3) {\n      OnManagerAdded(msg.sender);\n    } else if (userType == 4) {\n      OnAdminAdded(msg.sender);\n    }\n  }\n\n  function continueWritingDentist(\n    bool isODLLDentist,\n    bool isAvailable,\n    bytes32 companyName\n  )\n    external\n    onlyPermittedSmartContract\n  {\n    userManager.setDentist(dbAddress, msg.sender, isODLLDentist, isAvailable, companyName);\n    OnDentistAdded(msg.sender);\n  }\n\n  function addOfficialToODLL(address officialId, uint8 userType)\n    external\n    onlyOwnerOrActiveAdminOrActiveManager\n  {\n    userManager.addOfficialToODLL(dbAddress, officialId, userType);\n  }\n\n  function blockUser(address userId)\n    external\n    onlyOwnerOrActiveAdminOrActiveManager\n  {\n    userManager.blockUser(dbAddress, userId);\n  }\n\n  function unblockUser(address userId)\n    external\n    onlyOwnerOrActiveAdminOrActiveManager\n  {\n    userManager.unblockUser(dbAddress, userId);\n  }\n\n  function writeServices(\n    uint serviceTypeId,\n    uint[] serviceIds\n  )\n    external\n  {\n    require(serviceTypeId != 0 && serviceIds.length > 0);\n    userManager.writeServices(dbAddress, serviceTypeId, serviceIds, msg.sender);\n  }\n\n  function writeServiceWithFee(\n    uint serviceTypeId,\n    uint serviceId,\n    uint fee\n  )\n    external\n  {\n    require(serviceTypeId != 0 && serviceId != 0 && fee != 0);\n    userManager.writeServiceWithFee(dbAddress, serviceTypeId, serviceId, fee, msg.sender);\n  }\n\n  function removeDentistFromService(\n    uint serviceTypeId,\n    uint serviceId\n  )\n    external\n  {\n    require(serviceTypeId != 0 && serviceId != 0);\n    userManager.removeDentistFromService(dbAddress, serviceTypeId, serviceId, msg.sender);\n  }\n\n  function removeServices(\n    uint serviceTypeId,\n    uint[] serviceIds\n  )\n    external\n  {\n    require(serviceTypeId != 0 && serviceIds.length > 0);\n    userManager.removeServices(dbAddress, serviceTypeId, serviceIds, msg.sender);\n  }\n\n  function writeDentistRating(address dentistId, uint8 rating)\n    external\n  {\n    require(dentistId != 0x0 && rating > 0);\n    userManager.writeDentistRating(dbAddress, dentistId, rating);\n  }\n\n  function writeUserDentistId (address dentistId) external {\n    userManager.writeUserDentistId(dbAddress, msg.sender, dentistId);\n  }\n\n\n  function destroySelf(address callerAddress, address newContractAddress)\n    external\n    onlyOwnerCanCall(callerAddress)\n  {\n    selfdestruct(newContractAddress);\n  }\n}\n\n",
  "sourcePath": "/home/daniel/dev/vue/apps/oral-data-link/contracts/odll/ODLLUserWriter.sol",
  "schemaVersion": "1.0.0",
  "updatedAt": "2017-10-31T09:13:23.993Z"
}