{
  "contractName": "ODLLUserWriter",
  "abi": [
    {
      "constant": false,
      "inputs": [
        {
          "name": "dentistId",
          "type": "address"
        },
        {
          "name": "rating",
          "type": "uint8"
        }
      ],
      "name": "writeDentistRating",
      "outputs": [],
      "payable": false,
      "stateMutability": "nonpayable",
      "type": "function"
    },
    {
      "constant": false,
      "inputs": [
        {
          "name": "phoneNumber",
          "type": "bytes32"
        },
        {
          "name": "socialSecurityNumber",
          "type": "bytes32"
        },
        {
          "name": "birthday",
          "type": "bytes32"
        },
        {
          "name": "gender",
          "type": "uint8"
        }
      ],
      "name": "writeUserOptionalValues",
      "outputs": [],
      "payable": false,
      "stateMutability": "nonpayable",
      "type": "function"
    },
    {
      "constant": false,
      "inputs": [
        {
          "name": "userType",
          "type": "uint8"
        },
        {
          "name": "name",
          "type": "bytes32"
        },
        {
          "name": "email",
          "type": "bytes32"
        },
        {
          "name": "gravatar",
          "type": "bytes32"
        }
      ],
      "name": "writeUserIdentity",
      "outputs": [],
      "payable": false,
      "stateMutability": "nonpayable",
      "type": "function"
    },
    {
      "constant": false,
      "inputs": [
        {
          "name": "userId",
          "type": "address"
        }
      ],
      "name": "unblockUser",
      "outputs": [],
      "payable": false,
      "stateMutability": "nonpayable",
      "type": "function"
    },
    {
      "constant": false,
      "inputs": [
        {
          "name": "userId",
          "type": "address"
        }
      ],
      "name": "blockUser",
      "outputs": [],
      "payable": false,
      "stateMutability": "nonpayable",
      "type": "function"
    },
    {
      "constant": false,
      "inputs": [
        {
          "name": "dentistId",
          "type": "address"
        }
      ],
      "name": "writeUserDentistId",
      "outputs": [],
      "payable": false,
      "stateMutability": "nonpayable",
      "type": "function"
    },
    {
      "constant": true,
      "inputs": [],
      "name": "smartContractStatus",
      "outputs": [
        {
          "name": "",
          "type": "uint8"
        }
      ],
      "payable": false,
      "stateMutability": "view",
      "type": "function"
    },
    {
      "constant": false,
      "inputs": [
        {
          "name": "userType",
          "type": "uint8"
        }
      ],
      "name": "determineEvent",
      "outputs": [],
      "payable": false,
      "stateMutability": "nonpayable",
      "type": "function"
    },
    {
      "constant": false,
      "inputs": [
        {
          "name": "serviceTypeId",
          "type": "uint256"
        },
        {
          "name": "serviceId",
          "type": "uint256"
        }
      ],
      "name": "removeDentistFromService",
      "outputs": [],
      "payable": false,
      "stateMutability": "nonpayable",
      "type": "function"
    },
    {
      "constant": false,
      "inputs": [
        {
          "name": "isODLLDentist",
          "type": "bool"
        },
        {
          "name": "isAvailable",
          "type": "bool"
        },
        {
          "name": "companyName",
          "type": "bytes32"
        }
      ],
      "name": "continueWritingDentist",
      "outputs": [],
      "payable": false,
      "stateMutability": "nonpayable",
      "type": "function"
    },
    {
      "constant": false,
      "inputs": [
        {
          "name": "serviceTypeId",
          "type": "uint256"
        },
        {
          "name": "serviceIds",
          "type": "uint256[]"
        }
      ],
      "name": "removeServices",
      "outputs": [],
      "payable": false,
      "stateMutability": "nonpayable",
      "type": "function"
    },
    {
      "constant": true,
      "inputs": [],
      "name": "owner",
      "outputs": [
        {
          "name": "",
          "type": "address"
        }
      ],
      "payable": false,
      "stateMutability": "view",
      "type": "function"
    },
    {
      "constant": true,
      "inputs": [],
      "name": "dbAddress",
      "outputs": [
        {
          "name": "",
          "type": "address"
        }
      ],
      "payable": false,
      "stateMutability": "view",
      "type": "function"
    },
    {
      "constant": false,
      "inputs": [
        {
          "name": "callerAddress",
          "type": "address"
        },
        {
          "name": "newContractAddress",
          "type": "address"
        }
      ],
      "name": "destroySelf",
      "outputs": [],
      "payable": false,
      "stateMutability": "nonpayable",
      "type": "function"
    },
    {
      "constant": false,
      "inputs": [
        {
          "name": "officialId",
          "type": "address"
        },
        {
          "name": "userType",
          "type": "uint8"
        }
      ],
      "name": "addOfficialToODLL",
      "outputs": [],
      "payable": false,
      "stateMutability": "nonpayable",
      "type": "function"
    },
    {
      "constant": false,
      "inputs": [
        {
          "name": "userType",
          "type": "uint8"
        },
        {
          "name": "name",
          "type": "bytes32"
        },
        {
          "name": "email",
          "type": "bytes32"
        },
        {
          "name": "gravatar",
          "type": "bytes32"
        },
        {
          "name": "street",
          "type": "bytes32"
        },
        {
          "name": "city",
          "type": "bytes32"
        },
        {
          "name": "stateId",
          "type": "uint256"
        },
        {
          "name": "zipCode",
          "type": "bytes32"
        },
        {
          "name": "countryId",
          "type": "uint256"
        },
        {
          "name": "phoneNumber",
          "type": "bytes32"
        },
        {
          "name": "socialSecurityNumber",
          "type": "bytes32"
        },
        {
          "name": "birthday",
          "type": "bytes32"
        },
        {
          "name": "gender",
          "type": "uint8"
        }
      ],
      "name": "writeUser",
      "outputs": [],
      "payable": false,
      "stateMutability": "nonpayable",
      "type": "function"
    },
    {
      "constant": false,
      "inputs": [
        {
          "name": "serviceTypeId",
          "type": "uint256"
        },
        {
          "name": "serviceIds",
          "type": "uint256[]"
        }
      ],
      "name": "writeServices",
      "outputs": [],
      "payable": false,
      "stateMutability": "nonpayable",
      "type": "function"
    },
    {
      "constant": false,
      "inputs": [
        {
          "name": "street",
          "type": "bytes32"
        },
        {
          "name": "city",
          "type": "bytes32"
        },
        {
          "name": "stateId",
          "type": "uint256"
        },
        {
          "name": "zipCode",
          "type": "bytes32"
        },
        {
          "name": "countryId",
          "type": "uint256"
        }
      ],
      "name": "writeUserLocation",
      "outputs": [],
      "payable": false,
      "stateMutability": "nonpayable",
      "type": "function"
    },
    {
      "constant": false,
      "inputs": [
        {
          "name": "newOwner",
          "type": "address"
        }
      ],
      "name": "transferOwnership",
      "outputs": [],
      "payable": false,
      "stateMutability": "nonpayable",
      "type": "function"
    },
    {
      "constant": false,
      "inputs": [
        {
          "name": "serviceTypeId",
          "type": "uint256"
        },
        {
          "name": "serviceId",
          "type": "uint256"
        },
        {
          "name": "fee",
          "type": "uint256"
        }
      ],
      "name": "writeServiceWithFee",
      "outputs": [],
      "payable": false,
      "stateMutability": "nonpayable",
      "type": "function"
    },
    {
      "inputs": [
        {
          "name": "_dbAddress",
          "type": "address"
        }
      ],
      "payable": false,
      "stateMutability": "nonpayable",
      "type": "constructor"
    },
    {
      "anonymous": false,
      "inputs": [
        {
          "indexed": false,
          "name": "userId",
          "type": "address"
        }
      ],
      "name": "OnAdminAdded",
      "type": "event"
    },
    {
      "anonymous": false,
      "inputs": [
        {
          "indexed": false,
          "name": "userId",
          "type": "address"
        }
      ],
      "name": "OnDentistAdded",
      "type": "event"
    },
    {
      "anonymous": false,
      "inputs": [
        {
          "indexed": false,
          "name": "userId",
          "type": "address"
        }
      ],
      "name": "OnManagerAdded",
      "type": "event"
    },
    {
      "anonymous": false,
      "inputs": [
        {
          "indexed": false,
          "name": "userId",
          "type": "address"
        }
      ],
      "name": "OnPatientAdded",
      "type": "event"
    },
    {
      "anonymous": false,
      "inputs": [
        {
          "indexed": false,
          "name": "status",
          "type": "uint8"
        }
      ],
      "name": "OnSmartContractStatusSet",
      "type": "event"
    },
    {
      "anonymous": false,
      "inputs": [
        {
          "indexed": true,
          "name": "previousOwner",
          "type": "address"
        },
        {
          "indexed": true,
          "name": "newOwner",
          "type": "address"
        }
      ],
      "name": "OwnershipTransferred",
      "type": "event"
    }
  ],
  "bytecode": "0x6060604052341561000f57600080fd5b604051602080613ab68339810160405280805160008054600160a060020a03191633600160a060020a039081169190911790915590925082161515905061005557600080fd5b60018054600160a060020a031916600160a060020a0392909216919091179055613a32806100846000396000f300606060405236156100f55763ffffffff60e060020a60003504166222049c81146100fa5780630b61e3b5146101215780631c5009981461014357806339d319e5146101655780633da013251461018457806343651b2a146101a35780634c8ddddc146101c2578063526f6ce4146101eb5780637602ab0b14610204578063760e56f31461021d57806386b7c22c1461023d5780638da5cb5b1461025f57806391e06b6d1461028e578063b16b2230146102a1578063c6b64a08146102c6578063c73d8679146102eb578063cf0c91801461033b578063e962beac1461035d578063f2fde38b1461037f578063fd60bc041461039e575b600080fd5b341561010557600080fd5b61011f600160a060020a036004351660ff602435166103ba565b005b341561012c57600080fd5b61011f60043560243560443560ff606435166103fb565b341561014e57600080fd5b61011f60ff6004351660243560443560643561041b565b341561017057600080fd5b61011f600160a060020a0360043516610435565b341561018f57600080fd5b61011f600160a060020a036004351661047a565b34156101ae57600080fd5b61011f600160a060020a03600435166104bc565b34156101cd57600080fd5b6101d56104d3565b60405160ff909116815260200160405180910390f35b34156101f657600080fd5b61011f60ff600435166104f4565b341561020f57600080fd5b61011f6004356024356105dc565b341561022857600080fd5b61011f6004351515602435151560443561060d565b341561024857600080fd5b61011f600480359060248035908101910135610690565b341561026a57600080fd5b6102726106f4565b604051600160a060020a03909116815260200160405180910390f35b341561029957600080fd5b610272610703565b34156102ac57600080fd5b61011f600160a060020a0360043581169060243516610712565b34156102d157600080fd5b61011f600160a060020a036004351660ff602435166107f4565b34156102f657600080fd5b61011f60ff6004358116906024359060443590606435906084359060a4359060c4359060e4359061010435906101243590610144359061016435906101843516610846565b341561034657600080fd5b61011f6004803590602480359081019101356108c4565b341561036857600080fd5b61011f600435602435604435606435608435610923565b341561038a57600080fd5b61011f600160a060020a0360043516610945565b34156103a957600080fd5b61011f6004356024356044356109e0565b600160a060020a038216158015906103d5575060008160ff16115b15156103e057600080fd5b6001546103f790600160a060020a03168383610a1d565b5050565b60015461041590600160a060020a03163386868686610a90565b50505050565b60015461041590600160a060020a03163386868686610d65565b60005433600160a060020a03908116911614806104565750610456336112ea565b151561046157600080fd5b60015461047790600160a060020a03168261130f565b50565b60005433600160a060020a039081169116148061049b575061049b336112ea565b15156104a657600080fd5b60015461047790600160a060020a0316826113a6565b60015461047790600160a060020a0316338361142c565b60015474010000000000000000000000000000000000000000900460ff1681565b8060ff1660011415610542577f33ab88bf15c608bd108a5e190f7ede9805cca0d26edb4c498910efed7bd4548233604051600160a060020a03909116815260200160405180910390a1610477565b8060ff1660031415610590577f071c1d6c34c33579b7c602d142075cbfcd78a1f17a66d704fa952844a3c5e08e33604051600160a060020a03909116815260200160405180910390a1610477565b8060ff1660041415610477577fddce97d6f5184391465a772abc24fb939b4e8f99851a6a1b823d08b0f7abea9833604051600160a060020a03909116815260200160405180910390a150565b81158015906105ea57508015155b15156105f557600080fd5b6001546103f790600160a060020a03168383336114d3565b60015474010000000000000000000000000000000000000000900460ff161561063557600080fd5b60015461064e90600160a060020a0316338585856114df565b7f9b6411b9015bc6e70c90132714b8568e56698ce0b7522e6057d3ba1e3486253733604051600160a060020a03909116815260200160405180910390a1505050565b821580159061069f5750600081115b15156106aa57600080fd5b6001546106ef90600160a060020a03168484848060208082020160405190810160405280939291908181526020018383602002808284375033945061170c9350505050565b505050565b600054600160a060020a031681565b600154600160a060020a031681565b6000548290600160a060020a0380831691161480156107dd5750600154600160a060020a0316634c77e5ba6040517f6f646c6c2f6f776e6572000000000000000000000000000000000000000000008152600a01604051809103902060006040516020015260405160e060020a63ffffffff84160281526004810191909152602401602060405180830381600087803b15156107ad57600080fd5b6102c65a03f115156107be57600080fd5b50505060405180519050600160a060020a031681600160a060020a0316145b15156107e857600080fd5b81600160a060020a0316ff5b60005433600160a060020a03908116911614806108155750610815336112ea565b80610824575061082433611718565b151561082f57600080fd5b6001546103f790600160a060020a03168383611725565b60015474010000000000000000000000000000000000000000900460ff161561086e57600080fd5b861580159061087c57508415155b151561088757600080fd5b6108938d8d8d8d61041b565b6108a08989898989610923565b6108ac848484846103fb565b6108b58d6104f4565b50505050505050505050505050565b82158015906108d35750600081115b15156108de57600080fd5b6001546106ef90600160a060020a03168484848060208082020160405190810160405280939291908181526020018383602002808284375033945061181c9350505050565b60015461093e90600160a060020a0316338787878787611828565b5050505050565b60005433600160a060020a0390811691161461096057600080fd5b600160a060020a038116151561097557600080fd5b600054600160a060020a0380831691167f8be0079c531659141344cd1fd0a4f28419497f9722a3daafe3b4186f6b6457e060405160405180910390a36000805473ffffffffffffffffffffffffffffffffffffffff1916600160a060020a0392909216919091179055565b82158015906109ee57508115155b80156109f957508015155b1515610a0457600080fd5b6001546106ef90600160a060020a031684848433611ba3565b6106ef8383604080519081016040908152601c82527f64656e746973742f617665726167652d726174696e672d636f756e740000000060208301528051908101604052601681527f64656e746973742f617665726167652d726174696e6700000000000000000000602082015285611bbc565b610a9a8686611f94565b1515610aa557600080fd5b610aaf8686611fac565b1515610aba57600080fd5b85600160a060020a03166325cf512d866040517f757365722f70686f6e652d6e756d6265720000000000000000000000000000008152600160a060020a0391909116606060020a02601182015260250160405180910390208660405160e060020a63ffffffff851602815260048101929092526024820152604401600060405180830381600087803b1515610b4e57600080fd5b6102c65a03f11515610b5f57600080fd5b50505085600160a060020a03166325cf512d866040517f757365722f736f6369616c2d73656375726974792d6e756d62657200000000008152600160a060020a0391909116606060020a02601b820152602f0160405180910390208560405160e060020a63ffffffff851602815260048101929092526024820152604401600060405180830381600087803b1515610bf657600080fd5b6102c65a03f11515610c0757600080fd5b50505085600160a060020a03166325cf512d866040517f757365722f6269727468646179000000000000000000000000000000000000008152600160a060020a0391909116606060020a02600d82015260210160405180910390208460405160e060020a63ffffffff851602815260048101929092526024820152604401600060405180830381600087803b1515610c9e57600080fd5b6102c65a03f11515610caf57600080fd5b50505085600160a060020a0316630bd85158866040517f757365722f67656e6465720000000000000000000000000000000000000000008152600160a060020a0391909116606060020a02600b820152601f0160405180910390208360405160e060020a63ffffffff8516028152600481019290925260ff166024820152604401600060405180830381600087803b1515610d4957600080fd5b6102c65a03f11515610d5a57600080fd5b505050505050505050565b610d6d6139d4565b610d756139d4565b610d7d6139d4565b610d878989611f94565b151561103c5788600160a060020a0316633562fd20896040517f757365722f637265617465642d6f6e00000000000000000000000000000000008152600160a060020a0391909116606060020a02600f82015260230160405180910390204260405160e060020a63ffffffff851602815260048101929092526024820152604401600060405180830381600087803b1515610e2157600080fd5b6102c65a03f11515610e3257600080fd5b50505088600160a060020a0316630bd85158896040516000805160206139e78339815191528152600160a060020a0391909116606060020a02600b820152601f016040518091039020600160405160e060020a63ffffffff8516028152600481019290925260ff166024820152604401600060405180830381600087803b1515610ebb57600080fd5b6102c65a03f11515610ecc57600080fd5b505050610f4189604080519081016040908152600982527f75736572732f696473000000000000000000000000000000000000000000000060208301528051908101604052600b81527f75736572732f636f756e7400000000000000000000000000000000000000000060208201528b611fc1565b610f4a876121fd565b91945092509050600160a060020a038916633eba9ed2848a6040518083805190602001908083835b60208310610f915780518252601f199092019160209182019101610f72565b6001836020036101000a03801982511681845116808217855250505050505090500182600160a060020a0316600160a060020a0316606060020a028152601401925050506040518091039020600160405160e060020a63ffffffff8516028152600481019290925215156024820152604401600060405180830381600087803b151561101c57600080fd5b6102c65a03f1151561102d57600080fd5b50505061103c8983838b611fc1565b88600160a060020a0316630bd85158896040517f757365722f7479706500000000000000000000000000000000000000000000008152600160a060020a0391909116606060020a026009820152601d0160405180910390208960405160e060020a63ffffffff8516028152600481019290925260ff166024820152604401600060405180830381600087803b15156110d357600080fd5b6102c65a03f115156110e457600080fd5b50505088600160a060020a03166325cf512d896040517f757365722f6e616d6500000000000000000000000000000000000000000000008152600160a060020a0391909116606060020a026009820152601d0160405180910390208860405160e060020a63ffffffff851602815260048101929092526024820152604401600060405180830381600087803b151561117b57600080fd5b6102c65a03f1151561118c57600080fd5b50505088600160a060020a03166325cf512d896040517f757365722f656d61696c000000000000000000000000000000000000000000008152600160a060020a0391909116606060020a02600a820152601e0160405180910390208760405160e060020a63ffffffff851602815260048101929092526024820152604401600060405180830381600087803b151561122357600080fd5b6102c65a03f1151561123457600080fd5b50505088600160a060020a03166325cf512d896040517f757365722f6772617661746172000000000000000000000000000000000000008152600160a060020a0391909116606060020a02600d82015260210160405180910390208660405160e060020a63ffffffff851602815260048101929092526024820152604401600060405180830381600087803b15156112cb57600080fd5b6102c65a03f115156112dc57600080fd5b505050505050505050505050565b60006112f78260046124f4565b8015611309575061130982600161250f565b92915050565b81600160a060020a0316630bd85158826040516000805160206139e78339815191528152600160a060020a0391909116606060020a02600b820152601f016040518091039020600160405160e060020a63ffffffff8516028152600481019290925260ff166024820152604401600060405180830381600087803b151561139557600080fd5b6102c65a03f1151561093e57600080fd5b81600160a060020a0316630bd85158826040516000805160206139e78339815191528152600160a060020a0391909116606060020a02600b820152601f016040518091039020600260405160e060020a63ffffffff8516028152600481019290925260ff166024820152604401600060405180830381600087803b151561139557600080fd5b6106ef8383604080519081016040908152600f82527f70617469656e742f64656e746973740000000000000000000000000000000000602083015280519081016040908152601682527f70617469656e742f64656e74697374732d636f756e740000000000000000000060208301528051908101604052601381527f70617469656e742f64656e746973742d6b65790000000000000000000000000060208201528661251a565b610415848484846126ea565b6114e98585611f94565b15156114f457600080fd5b6114fe8585611fac565b151561150957600080fd5b84600160a060020a0316633eba9ed2856040517f757365722f69732d6f646c6c2d64656e746973743f00000000000000000000008152600160a060020a0391909116606060020a02601582015260290160405180910390208560405160e060020a63ffffffff8516028152600481019290925215156024820152604401600060405180830381600087803b151561159f57600080fd5b6102c65a03f115156115b057600080fd5b50505084600160a060020a0316633eba9ed2856040517f757365722f69732d617661696c61626c653f00000000000000000000000000008152600160a060020a0391909116606060020a02601282015260260160405180910390208460405160e060020a63ffffffff8516028152600481019290925215156024820152604401600060405180830381600087803b151561164957600080fd5b6102c65a03f1151561165a57600080fd5b50505084600160a060020a03166325cf512d856040517f64656e746973742f636f6d70616e792d6e616d650000000000000000000000008152600160a060020a0391909116606060020a02601482015260280160405180910390208360405160e060020a63ffffffff851602815260048101929092526024820152604401600060405180830381600087803b15156116f157600080fd5b6102c65a03f1151561170257600080fd5b5050505050505050565b610415848484846127fd565b60006112f78260036124f4565b600083600160a060020a0316637a0e03ec846040517f757365722f7479706500000000000000000000000000000000000000000000008152600160a060020a0391909116606060020a026009820152601d01604051809103902060006040516020015260405160e060020a63ffffffff84160281526004810191909152602401602060405180830381600087803b15156117be57600080fd5b6102c65a03f115156117cf57600080fd5b5050506040518051915050600160a060020a038316158015906117f4575060ff821615155b8015611801575060ff8116155b151561180c57600080fd5b6104158484846000806000610d65565b61041584848484612832565b6118328787611f94565b151561183d57600080fd5b6118478787611fac565b151561185257600080fd5b86600160a060020a03166325cf512d876040517f757365722f7374726565740000000000000000000000000000000000000000008152600160a060020a0391909116606060020a02600b820152601f0160405180910390208760405160e060020a63ffffffff851602815260048101929092526024820152604401600060405180830381600087803b15156118e657600080fd5b6102c65a03f115156118f757600080fd5b50505086600160a060020a03166325cf512d876040517f757365722f6369747900000000000000000000000000000000000000000000008152600160a060020a0391909116606060020a026009820152601d0160405180910390208660405160e060020a63ffffffff851602815260048101929092526024820152604401600060405180830381600087803b151561198e57600080fd5b6102c65a03f1151561199f57600080fd5b50505086600160a060020a0316633562fd20876040517f757365722f7374617465000000000000000000000000000000000000000000008152600160a060020a0391909116606060020a02600a820152601e0160405180910390208560405160e060020a63ffffffff851602815260048101929092526024820152604401600060405180830381600087803b1515611a3657600080fd5b6102c65a03f11515611a4757600080fd5b50505086600160a060020a03166325cf512d876040517f757365722f7a69702d636f6465000000000000000000000000000000000000008152600160a060020a0391909116606060020a02600d82015260210160405180910390208460405160e060020a63ffffffff851602815260048101929092526024820152604401600060405180830381600087803b1515611ade57600080fd5b6102c65a03f11515611aef57600080fd5b50505086600160a060020a0316633562fd20876040517f757365722f636f756e74727900000000000000000000000000000000000000008152600160a060020a0391909116606060020a02600c82015260200160405180910390208360405160e060020a63ffffffff851602815260048101929092526024820152604401600060405180830381600087803b1515611b8657600080fd5b6102c65a03f11515611b9757600080fd5b50505050505050505050565b611baf85858584612867565b61093e8585858585612b19565b600080600080600089600160a060020a031663bdc963d8898b6040518083805190602001908083835b60208310611c045780518252601f199092019160209182019101611be5565b6001836020036101000a03801982511681845116808217855250505050505090500182600160a060020a0316600160a060020a0316606060020a02815260140192505050604051809103902060006040516020015260405160e060020a63ffffffff84160281526004810191909152602401602060405180830381600087803b1515611c8f57600080fd5b6102c65a03f11515611ca057600080fd5b5050506040518051955050600160a060020a038a16637a0e03ec888b6040518083805190602001908083835b60208310611ceb5780518252601f199092019160209182019101611ccc565b6001836020036101000a03801982511681845116808217855250505050505090500182600160a060020a0316600160a060020a0316606060020a02815260140192505050604051809103902060006040516020015260405160e060020a63ffffffff84160281526004810191909152602401602060405180830381600087803b1515611d7657600080fd5b6102c65a03f11515611d8757600080fd5b505050604051805190509350611d9e856001612c78565b9250841515611db2578560ff169150611ddc565b611dcb611dc28560ff1687612c87565b8760ff16612c78565b90508281811515611dd857fe5b0491505b89600160a060020a0316633562fd20898b6040518083805190602001908083835b60208310611e1c5780518252601f199092019160209182019101611dfd565b6001836020036101000a03801982511681845116808217855250505050505090500182600160a060020a0316600160a060020a0316606060020a0281526014019250505060405180910390208560405160e060020a63ffffffff851602815260048101929092526024820152604401600060405180830381600087803b1515611ea457600080fd5b6102c65a03f11515611eb557600080fd5b50505089600160a060020a0316630bd85158888b6040518083805190602001908083835b60208310611ef85780518252601f199092019160209182019101611ed9565b6001836020036101000a03801982511681845116808217855250505050505090500182600160a060020a0316600160a060020a0316606060020a0281526014019250505060405180910390208460405160e060020a63ffffffff8516028152600481019290925260ff166024820152604401600060405180830381600087803b1515611f8357600080fd5b6102c65a03f115156108b557600080fd5b600080611fa18484612cab565b60ff16119392505050565b6000611fba83836001612d53565b9392505050565b600084600160a060020a031663bdc963d8846040518082805190602001908083835b602083106120025780518252601f199092019160209182019101611fe3565b6001836020036101000a0380198251168184511617909252505050919091019250604091505051809103902060006040516020015260405160e060020a63ffffffff84160281526004810191909152602401602060405180830381600087803b151561206d57600080fd5b6102c65a03f1151561207e57600080fd5b5050506040518051915050600160a060020a038516635a2bf25a85836040518083805190602001908083835b602083106120c95780518252601f1990920191602091820191016120aa565b6001836020036101000a0380198251168184511617909252505050919091019283525050602001905060405180910390208460405160e060020a63ffffffff85160281526004810192909252600160a060020a03166024820152604401600060405180830381600087803b151561213f57600080fd5b6102c65a03f1151561215057600080fd5b50505084600160a060020a0316633562fd20846040518082805190602001908083835b602083106121925780518252601f199092019160209182019101612173565b6001836020036101000a038019825116818451161790925250505091909101925060409150505180910390208360010160405160e060020a63ffffffff851602815260048101929092526024820152604401600060405180830381600087803b15156116f157600080fd5b6122056139d4565b61220d6139d4565b6122156139d4565b8360ff16600114156122cc576040805190810160405280601081526020017f757365722f69732d70617469656e743f0000000000000000000000000000000081525092506040805190810160405280600c81526020017f70617469656e74732f6964730000000000000000000000000000000000000000815250915060408051908101604052600e81527f70617469656e74732f636f756e74000000000000000000000000000000000000602082015290506124ed565b8360ff1660021415612383576040805190810160405280601081526020017f757365722f69732d64656e746973743f0000000000000000000000000000000081525092506040805190810160405280600c81526020017f64656e74697374732f6964730000000000000000000000000000000000000000815250915060408051908101604052600e81527f64656e74697374732f636f756e74000000000000000000000000000000000000602082015290506124ed565b8360ff166003141561243a576040805190810160405280601081526020017f757365722f69732d6d616e616765723f0000000000000000000000000000000081525092506040805190810160405280600c81526020017f6d616e61676572732f6964730000000000000000000000000000000000000000815250915060408051908101604052600e81527f6d616e61676572732f636f756e74000000000000000000000000000000000000602082015290506124ed565b8360ff16600414156124ed576040805190810160405280600e81526020017f757365722f69732d61646d696e3f00000000000000000000000000000000000081525092506040805190810160405280600a81526020017f61646d696e732f69647300000000000000000000000000000000000000000000815250915060408051908101604052600c81527f61646d696e732f636f756e740000000000000000000000000000000000000000602082015290505b9193909250565b60006124ff83612d70565b60ff168260ff1614905092915050565b60006124ff83612e2c565b85600160a060020a0316637a0e03ec8587846040518084805190602001908083835b6020831061255b5780518252601f19909201916020918201910161253c565b6001836020036101000a0380198251168184511617909252505050600160a060020a03958616606060020a90810291909301908152939094160260148301525060280191506040905051809103902060006040516020015260405160e060020a63ffffffff84160281526004810191909152602401602060405180830381600087803b15156125e957600080fd5b6102c65a03f115156125fa57600080fd5b505050604051805160ff161515905061261a5761261a8686848685612eb6565b85600160a060020a0316630bd851588587846040518084805190602001908083835b6020831061265b5780518252601f19909201916020918201910161263c565b6001836020036101000a0380198251168184511617909252505050600160a060020a03958616606060020a908102919093019081529390941602601483015250602801915060409050518091039020600160405160e060020a63ffffffff8516028152600481019290925260ff166024820152604401600060405180830381600087803b1515610d4957600080fd5b826001141561277657612732848260408051908101604052601481527f64656e746973742f7363616e2d7365727669636500000000000000000000000060208201528561307d565b612771848360408051908101604052601481527f7363616e2d736572766963652f64656e7469737400000000000000000000000060208201528461316b565b610415565b8260021415610415576127be848260408051908101604052601981527f64656e746973742f74726561746d656e742d736572766963650000000000000060208201528561307d565b610415848360408051908101604052601981527f74726561746d656e742d736572766963652f64656e746973740000000000000060208201528461316b565b60005b825181101561093e5761282a858585848151811061281a57fe5b90602001906020020151856126ea565b600101612800565b60005b825181101561093e5761285f858585848151811061284f57fe5b9060200190602002015185612867565b600101612835565b82600114156129be576129178482604080519081016040908152601482527f64656e746973742f7363616e2d73657276696365000000000000000000000000602083015280519081016040908152601b82527f64656e746973742f7363616e2d73657276696365732d636f756e74000000000060208301528051908101604052601881527f64656e746973742f7363616e2d736572766963652d6b65790000000000000000602082015287613231565b6127718483604080519081016040908152601482527f7363616e2d736572766963652f64656e74697374000000000000000000000000602083015280519081016040908152601b82527f7363616e2d736572766963652f64656e74697374732d636f756e74000000000060208301528051908101604052601881527f7363616e2d736572766963652f64656e746973742d6b65790000000000000000602082015286613409565b826002141561041557612a708482604080519081016040908152601982527f64656e746973742f74726561746d656e742d73657276696365000000000000006020830152805190810160405280602081526020017f64656e746973742f74726561746d656e742d73657276696365732d636f756e7481525060408051908101604052601d81527f64656e746973742f74726561746d656e742d736572766963652d6b6579000000602082015287613231565b6104158483604080519081016040908152601982527f74726561746d656e742d736572766963652f64656e74697374000000000000006020830152805190810160405280602081526020017f74726561746d656e742d736572766963652f64656e74697374732d636f756e7481525060408051908101604052601d81527f74726561746d656e742d736572766963652f64656e746973742d6b6579000000602082015286613409565b8360011415612bd55784600160a060020a0316633562fd2082856040517f64656e746973742f7363616e2d736572766963652f66656500000000000000008152600160a060020a0392909216606060020a026018830152602c820152604c0160405180910390208460405160e060020a63ffffffff851602815260048101929092526024820152604401600060405180830381600087803b1515612bbc57600080fd5b6102c65a03f11515612bcd57600080fd5b50505061093e565b836002141561093e5784600160a060020a0316633562fd2082856040517f64656e746973742f74726561746d656e742d736572766963652f6665650000008152600160a060020a0392909216606060020a02601d830152603182015260510160405180910390208460405160e060020a63ffffffff851602815260048101929092526024820152604401600060405180830381600087803b15156116f157600080fd5b600082820183811015611fba57fe5b6000828202831580612ca35750828482811515612ca057fe5b04145b1515611fba57fe5b600082600160a060020a0316637a0e03ec836040516000805160206139e78339815191528152600160a060020a0391909116606060020a02600b820152601f01604051809103902060006040516020015260405160e060020a63ffffffff84160281526004810191909152602401602060405180830381600087803b1515612d3257600080fd5b6102c65a03f11515612d4357600080fd5b5050506040518051949350505050565b6000612d5f8484612cab565b60ff168260ff161490509392505050565b600154600090600160a060020a0316637a0e03ec836040517f757365722f7479706500000000000000000000000000000000000000000000008152600160a060020a0391909116606060020a026009820152601d01604051809103902060006040516020015260405160e060020a63ffffffff84160281526004810191909152602401602060405180830381600087803b1515612e0c57600080fd5b6102c65a03f11515612e1d57600080fd5b50505060405180519392505050565b600154600090600160a060020a0316637a0e03ec836040516000805160206139e78339815191528152600160a060020a0391909116606060020a02600b820152601f01604051809103902060006040516020015260405160e060020a63ffffffff84160281526004810191909152602401602060405180830381600087803b1515612e0c57600080fd5b6000612ec38686856135c5565b905085600160a060020a0316635a2bf25a8587846040518084805190602001908083835b60208310612f065780518252601f199092019160209182019101612ee7565b6001836020036101000a03801982511681845116808217855250505050505090500183600160a060020a0316600160a060020a0316606060020a028152601401828152602001935050505060405180910390208460405160e060020a63ffffffff85160281526004810192909252600160a060020a03166024820152604401600060405180830381600087803b1515612f9e57600080fd5b6102c65a03f11515612faf57600080fd5b50505085600160a060020a0316633562fd2084876040518083805190602001908083835b60208310612ff25780518252601f199092019160209182019101612fd3565b6001836020036101000a03801982511681845116808217855250505050505090500182600160a060020a0316600160a060020a0316606060020a0281526014019250505060405180910390208360010160405160e060020a63ffffffff851602815260048101929092526024820152604401600060405180830381600087803b1515610d4957600080fd5b83600160a060020a0316630bd851588385846040518084805190602001908083835b602083106130be5780518252601f19909201916020918201910161309f565b6001836020036101000a03801982511681845116808217855250505050505090500183600160a060020a0316600160a060020a0316606060020a02815260140182815260200193505050506040518091039020600260405160e060020a63ffffffff8516028152600481019290925260ff166024820152604401600060405180830381600087803b151561315157600080fd5b6102c65a03f1151561316257600080fd5b50505050505050565b83600160a060020a0316630bd851588385846040518084805190602001908083835b602083106131ac5780518252601f19909201916020918201910161318d565b6001836020036101000a0380198251168184511617909252505050919091019384525050600160a060020a0316606060020a02602082015260340190506040518091039020600260405160e060020a63ffffffff8516028152600481019290925260ff166024820152604401600060405180830381600087803b151561315157600080fd5b85600160a060020a0316637a0e03ec8587846040518084805190602001908083835b602083106132725780518252601f199092019160209182019101613253565b6001836020036101000a03801982511681845116808217855250505050505090500183600160a060020a0316600160a060020a0316606060020a0281526014018281526020019350505050604051809103902060006040516020015260405160e060020a63ffffffff84160281526004810191909152602401602060405180830381600087803b151561330457600080fd5b6102c65a03f1151561331557600080fd5b505050604051805160ff16151590506133355761333586868486856136b4565b85600160a060020a0316630bd851588587846040518084805190602001908083835b602083106133765780518252601f199092019160209182019101613357565b6001836020036101000a03801982511681845116808217855250505050505090500183600160a060020a0316600160a060020a0316606060020a02815260140182815260200193505050506040518091039020600160405160e060020a63ffffffff8516028152600481019290925260ff166024820152604401600060405180830381600087803b1515610d4957600080fd5b85600160a060020a0316637a0e03ec8587846040518084805190602001908083835b6020831061344a5780518252601f19909201916020918201910161342b565b6001836020036101000a0380198251168184511617909252505050919091019384525050600160a060020a0316606060020a0260208201526034019050604051809103902060006040516020015260405160e060020a63ffffffff84160281526004810191909152602401602060405180830381600087803b15156134ce57600080fd5b6102c65a03f115156134df57600080fd5b505050604051805160ff16151590506134ff576134ff8686848685613793565b85600160a060020a0316630bd851588587846040518084805190602001908083835b602083106135405780518252601f199092019160209182019101613521565b6001836020036101000a0380198251168184511617909252505050919091019384525050600160a060020a0316606060020a02602082015260340190506040518091039020600160405160e060020a63ffffffff8516028152600481019290925260ff166024820152604401600060405180830381600087803b1515610d4957600080fd5b600083600160a060020a031663bdc963d883856040518083805190602001908083835b602083106136075780518252601f1990920191602091820191016135e8565b6001836020036101000a03801982511681845116808217855250505050505090500182600160a060020a0316600160a060020a0316606060020a02815260140192505050604051809103902060006040516020015260405160e060020a63ffffffff84160281526004810191909152602401602060405180830381600087803b151561369257600080fd5b6102c65a03f115156136a357600080fd5b505050604051805195945050505050565b60006136c18686856135c5565b905085600160a060020a0316633562fd208587846040518084805190602001908083835b602083106137045780518252601f1990920191602091820191016136e5565b6001836020036101000a03801982511681845116808217855250505050505090500183600160a060020a0316600160a060020a0316606060020a028152601401828152602001935050505060405180910390208460405160e060020a63ffffffff851602815260048101929092526024820152604401600060405180830381600087803b1515612f9e57600080fd5b60006137a0868685613922565b905085600160a060020a0316635a2bf25a8587846040518084805190602001908083835b602083106137e35780518252601f1990920191602091820191016137c4565b6001836020036101000a03801982511681845116179092525050509190910193845250506020820152604090810191505180910390208460405160e060020a63ffffffff85160281526004810192909252600160a060020a03166024820152604401600060405180830381600087803b151561385e57600080fd5b6102c65a03f1151561386f57600080fd5b50505085600160a060020a0316633562fd2084876040518083805190602001908083835b602083106138b25780518252601f199092019160209182019101613893565b6001836020036101000a0380198251168184511617909252505050919091019283525050602001905060405180910390208360010160405160e060020a63ffffffff851602815260048101929092526024820152604401600060405180830381600087803b1515610d4957600080fd5b600083600160a060020a031663bdc963d883856040518083805190602001908083835b602083106139645780518252601f199092019160209182019101613945565b6001836020036101000a03801982511681845116179092525050509190910192835250506020019050604051809103902060006040516020015260405160e060020a63ffffffff84160281526004810191909152602401602060405180830381600087803b151561369257600080fd5b602060405190810160405260008152905600757365722f737461747573000000000000000000000000000000000000000000a165627a7a7230582013a41699cc6708aac70c12daee16c44ca8675814831d572334dc1a666a3dd4cf0029",
  "source": "pragma solidity 0.4.17;\n\nimport \"./ODLLRestrictor.sol\";\nimport \"../lib/odll/userManager.sol\";\n\ncontract ODLLUserWriter is ODLLRestrictor {\n  event OnAdminAdded(address userId);\n  event OnDentistAdded(address userId);\n  event OnManagerAdded(address userId);\n  event OnPatientAdded(address userId);\n\n  function ODLLUserWriter(address _dbAddress) public {\n    require(_dbAddress != 0x0);\n    dbAddress = _dbAddress;\n  }\n\n  function writeUser(\n    uint8 userType,\n    bytes32 name,\n    bytes32 email,\n    bytes32 gravatar,\n    bytes32 street,\n    bytes32 city,\n    uint stateId,\n    bytes32 zipCode,\n    uint countryId,\n    bytes32 phoneNumber,\n    bytes32 socialSecurityNumber,\n    bytes32 birthday,\n    uint8 gender\n  )\n    external\n    onlyPermittedSmartContract\n  {\n    // require the last compulsories first\n    require(stateId != 0 && countryId != 0);\n\n    writeUserIdentity(userType, name, email, gravatar);\n    writeUserLocation(street, city, stateId, zipCode, countryId);\n    writeUserOptionalValues(phoneNumber, socialSecurityNumber, birthday, gender);\n    determineEvent(userType);\n  }\n\n  function writeUserIdentity(uint8 userType, bytes32 name, bytes32 email, bytes32 gravatar) public {\n    userManager.setUserIdentity(dbAddress, msg.sender, userType, name, email, gravatar);\n  }\n\n  function writeUserLocation(bytes32 street, bytes32 city, uint stateId, bytes32 zipCode, uint countryId) public {\n    userManager.setUserLocation(dbAddress, msg.sender, street, city, stateId, zipCode, countryId);\n  }\n\n  function writeUserOptionalValues(bytes32 phoneNumber, bytes32 socialSecurityNumber, bytes32 birthday, uint8 gender) public {\n    userManager.setUserOptionalValues(dbAddress, msg.sender, phoneNumber, socialSecurityNumber, birthday, gender);\n  }\n\n  function determineEvent(uint8 userType) public {\n    if (userType == 1) {\n      OnPatientAdded(msg.sender);\n    } else if (userType == 3) {\n      OnManagerAdded(msg.sender);\n    } else if (userType == 4) {\n      OnAdminAdded(msg.sender);\n    }\n  }\n\n  function continueWritingDentist(\n    bool isODLLDentist,\n    bool isAvailable,\n    bytes32 companyName\n  )\n    external\n    onlyPermittedSmartContract\n  {\n    userManager.setDentist(dbAddress, msg.sender, isODLLDentist, isAvailable, companyName);\n    OnDentistAdded(msg.sender);\n  }\n\n  function addOfficialToODLL(address officialId, uint8 userType)\n    external\n    onlyOwnerOrActiveAdminOrActiveManager\n  {\n    userManager.addOfficialToODLL(dbAddress, officialId, userType);\n  }\n\n  function blockUser(address userId)\n    external\n    onlyOwnerOrActiveAdmin\n  {\n    userManager.blockUser(dbAddress, userId);\n  }\n\n  function unblockUser(address userId)\n    external\n    onlyOwnerOrActiveAdmin\n  {\n    userManager.unblockUser(dbAddress, userId);\n  }\n\n  function writeServices(\n    uint serviceTypeId,\n    uint[] serviceIds\n  )\n    external\n  {\n    require(serviceTypeId != 0 && serviceIds.length > 0);\n    userManager.writeServices(dbAddress, serviceTypeId, serviceIds, msg.sender);\n  }\n\n  function writeServiceWithFee(\n    uint serviceTypeId,\n    uint serviceId,\n    uint fee\n  )\n    external\n  {\n    require(serviceTypeId != 0 && serviceId != 0 && fee != 0);\n    userManager.writeServiceWithFee(dbAddress, serviceTypeId, serviceId, fee, msg.sender);\n  }\n\n  function removeDentistFromService(\n    uint serviceTypeId,\n    uint serviceId\n  )\n    external\n  {\n    require(serviceTypeId != 0 && serviceId != 0);\n    userManager.removeDentistFromService(dbAddress, serviceTypeId, serviceId, msg.sender);\n  }\n\n  function removeServices(\n    uint serviceTypeId,\n    uint[] serviceIds\n  )\n    external\n  {\n    require(serviceTypeId != 0 && serviceIds.length > 0);\n    userManager.removeServices(dbAddress, serviceTypeId, serviceIds, msg.sender);\n  }\n\n  function writeDentistRating(address dentistId, uint8 rating)\n    external\n  {\n    require(dentistId != 0x0 && rating > 0);\n    userManager.writeDentistRating(dbAddress, dentistId, rating);\n  }\n\n  function writeUserDentistId (address dentistId) external {\n    userManager.writeUserDentistId(dbAddress, msg.sender, dentistId);\n  }\n\n\n  function destroySelf(address callerAddress, address newContractAddress)\n    external\n    onlyOwnerCanCall(callerAddress)\n  {\n    selfdestruct(newContractAddress);\n  }\n}\n\n",
  "sourcePath": "/home/daniel/dev/vue/apps/oral-data-link/contracts/odll/ODLLUserWriter.sol",
  "schemaVersion": "1.0.0",
  "updatedAt": "2017-10-30T11:38:06.463Z"
}