{
  "contractName": "ODLLUserWriter",
  "abi": [
    {
      "constant": false,
      "inputs": [
        {
          "name": "phoneNumber",
          "type": "bytes32"
        },
        {
          "name": "socialSecurityNumber",
          "type": "bytes32"
        },
        {
          "name": "birthday",
          "type": "bytes32"
        },
        {
          "name": "gender",
          "type": "uint8"
        }
      ],
      "name": "writeUserOptionalValues",
      "outputs": [],
      "payable": false,
      "stateMutability": "nonpayable",
      "type": "function"
    },
    {
      "constant": false,
      "inputs": [
        {
          "name": "userType",
          "type": "uint8"
        },
        {
          "name": "name",
          "type": "bytes32"
        },
        {
          "name": "email",
          "type": "bytes32"
        },
        {
          "name": "gravatar",
          "type": "bytes32"
        }
      ],
      "name": "writeUserIdentity",
      "outputs": [],
      "payable": false,
      "stateMutability": "nonpayable",
      "type": "function"
    },
    {
      "constant": false,
      "inputs": [
        {
          "name": "userId",
          "type": "address"
        }
      ],
      "name": "unblockUser",
      "outputs": [],
      "payable": false,
      "stateMutability": "nonpayable",
      "type": "function"
    },
    {
      "constant": false,
      "inputs": [
        {
          "name": "userId",
          "type": "address"
        }
      ],
      "name": "blockUser",
      "outputs": [],
      "payable": false,
      "stateMutability": "nonpayable",
      "type": "function"
    },
    {
      "constant": true,
      "inputs": [],
      "name": "smartContractStatus",
      "outputs": [
        {
          "name": "",
          "type": "uint8"
        }
      ],
      "payable": false,
      "stateMutability": "view",
      "type": "function"
    },
    {
      "constant": false,
      "inputs": [
        {
          "name": "userType",
          "type": "uint8"
        }
      ],
      "name": "determineEvent",
      "outputs": [],
      "payable": false,
      "stateMutability": "nonpayable",
      "type": "function"
    },
    {
      "constant": false,
      "inputs": [
        {
          "name": "serviceTypeId",
          "type": "uint256"
        },
        {
          "name": "serviceId",
          "type": "uint256"
        }
      ],
      "name": "removeDentistFromService",
      "outputs": [],
      "payable": false,
      "stateMutability": "nonpayable",
      "type": "function"
    },
    {
      "constant": false,
      "inputs": [
        {
          "name": "isODLLDentist",
          "type": "bool"
        },
        {
          "name": "isAvailable",
          "type": "bool"
        },
        {
          "name": "companyName",
          "type": "bytes32"
        }
      ],
      "name": "continueWritingDentist",
      "outputs": [],
      "payable": false,
      "stateMutability": "nonpayable",
      "type": "function"
    },
    {
      "constant": false,
      "inputs": [
        {
          "name": "serviceTypeId",
          "type": "uint256"
        },
        {
          "name": "serviceIds",
          "type": "uint256[]"
        }
      ],
      "name": "removeServices",
      "outputs": [],
      "payable": false,
      "stateMutability": "nonpayable",
      "type": "function"
    },
    {
      "constant": true,
      "inputs": [],
      "name": "owner",
      "outputs": [
        {
          "name": "",
          "type": "address"
        }
      ],
      "payable": false,
      "stateMutability": "view",
      "type": "function"
    },
    {
      "constant": true,
      "inputs": [],
      "name": "dbAddress",
      "outputs": [
        {
          "name": "",
          "type": "address"
        }
      ],
      "payable": false,
      "stateMutability": "view",
      "type": "function"
    },
    {
      "constant": false,
      "inputs": [
        {
          "name": "callerAddress",
          "type": "address"
        },
        {
          "name": "newContractAddress",
          "type": "address"
        }
      ],
      "name": "destroySelf",
      "outputs": [],
      "payable": false,
      "stateMutability": "nonpayable",
      "type": "function"
    },
    {
      "constant": false,
      "inputs": [
        {
          "name": "officialId",
          "type": "address"
        },
        {
          "name": "userType",
          "type": "uint8"
        }
      ],
      "name": "addOfficialToODLL",
      "outputs": [],
      "payable": false,
      "stateMutability": "nonpayable",
      "type": "function"
    },
    {
      "constant": false,
      "inputs": [
        {
          "name": "userType",
          "type": "uint8"
        },
        {
          "name": "name",
          "type": "bytes32"
        },
        {
          "name": "email",
          "type": "bytes32"
        },
        {
          "name": "gravatar",
          "type": "bytes32"
        },
        {
          "name": "street",
          "type": "bytes32"
        },
        {
          "name": "city",
          "type": "bytes32"
        },
        {
          "name": "stateId",
          "type": "uint256"
        },
        {
          "name": "zipCode",
          "type": "bytes32"
        },
        {
          "name": "countryId",
          "type": "uint256"
        },
        {
          "name": "phoneNumber",
          "type": "bytes32"
        },
        {
          "name": "socialSecurityNumber",
          "type": "bytes32"
        },
        {
          "name": "birthday",
          "type": "bytes32"
        },
        {
          "name": "gender",
          "type": "uint8"
        }
      ],
      "name": "writeUser",
      "outputs": [],
      "payable": false,
      "stateMutability": "nonpayable",
      "type": "function"
    },
    {
      "constant": false,
      "inputs": [
        {
          "name": "serviceTypeId",
          "type": "uint256"
        },
        {
          "name": "serviceIds",
          "type": "uint256[]"
        }
      ],
      "name": "writeServices",
      "outputs": [],
      "payable": false,
      "stateMutability": "nonpayable",
      "type": "function"
    },
    {
      "constant": false,
      "inputs": [
        {
          "name": "street",
          "type": "bytes32"
        },
        {
          "name": "city",
          "type": "bytes32"
        },
        {
          "name": "stateId",
          "type": "uint256"
        },
        {
          "name": "zipCode",
          "type": "bytes32"
        },
        {
          "name": "countryId",
          "type": "uint256"
        }
      ],
      "name": "writeUserLocation",
      "outputs": [],
      "payable": false,
      "stateMutability": "nonpayable",
      "type": "function"
    },
    {
      "constant": false,
      "inputs": [
        {
          "name": "newOwner",
          "type": "address"
        }
      ],
      "name": "transferOwnership",
      "outputs": [],
      "payable": false,
      "stateMutability": "nonpayable",
      "type": "function"
    },
    {
      "constant": false,
      "inputs": [
        {
          "name": "serviceTypeId",
          "type": "uint256"
        },
        {
          "name": "serviceId",
          "type": "uint256"
        },
        {
          "name": "fee",
          "type": "uint256"
        }
      ],
      "name": "writeServiceWithFee",
      "outputs": [],
      "payable": false,
      "stateMutability": "nonpayable",
      "type": "function"
    },
    {
      "inputs": [
        {
          "name": "_dbAddress",
          "type": "address"
        }
      ],
      "payable": false,
      "stateMutability": "nonpayable",
      "type": "constructor"
    },
    {
      "anonymous": false,
      "inputs": [
        {
          "indexed": false,
          "name": "userId",
          "type": "address"
        }
      ],
      "name": "OnAdminAdded",
      "type": "event"
    },
    {
      "anonymous": false,
      "inputs": [
        {
          "indexed": false,
          "name": "userId",
          "type": "address"
        }
      ],
      "name": "OnDentistAdded",
      "type": "event"
    },
    {
      "anonymous": false,
      "inputs": [
        {
          "indexed": false,
          "name": "userId",
          "type": "address"
        }
      ],
      "name": "OnManagerAdded",
      "type": "event"
    },
    {
      "anonymous": false,
      "inputs": [
        {
          "indexed": false,
          "name": "userId",
          "type": "address"
        }
      ],
      "name": "OnPatientAdded",
      "type": "event"
    },
    {
      "anonymous": false,
      "inputs": [
        {
          "indexed": false,
          "name": "status",
          "type": "uint8"
        }
      ],
      "name": "OnSmartContractStatusSet",
      "type": "event"
    },
    {
      "anonymous": false,
      "inputs": [
        {
          "indexed": true,
          "name": "previousOwner",
          "type": "address"
        },
        {
          "indexed": true,
          "name": "newOwner",
          "type": "address"
        }
      ],
      "name": "OwnershipTransferred",
      "type": "event"
    }
  ],
  "bytecode": "0x6060604052341561000f57600080fd5b60405160208061322c8339810160405280805160008054600160a060020a03191633600160a060020a039081169190911790915590925082161515905061005557600080fd5b60018054600160a060020a031916600160a060020a03929092169190911790556131a8806100846000396000f300606060405236156100e05763ffffffff60e060020a6000350416630b61e3b581146100e55780631c5009981461010957806339d319e51461012b5780633da013251461014a5780634c8ddddc14610169578063526f6ce4146101925780637602ab0b146101ab578063760e56f3146101c457806386b7c22c146101e45780638da5cb5b1461020657806391e06b6d14610235578063b16b223014610248578063c6b64a081461026d578063c73d867914610292578063cf0c9180146102e2578063e962beac14610304578063f2fde38b14610326578063fd60bc0414610345575b600080fd5b34156100f057600080fd5b61010760043560243560443560ff60643516610361565b005b341561011457600080fd5b61010760ff60043516602435604435606435610381565b341561013657600080fd5b610107600160a060020a036004351661039b565b341561015557600080fd5b610107600160a060020a03600435166103e0565b341561017457600080fd5b61017c610422565b60405160ff909116815260200160405180910390f35b341561019d57600080fd5b61010760ff60043516610443565b34156101b657600080fd5b61010760043560243561052b565b34156101cf57600080fd5b61010760043515156024351515604435610560565b34156101ef57600080fd5b6101076004803590602480359081019101356105e3565b341561021157600080fd5b610219610647565b604051600160a060020a03909116815260200160405180910390f35b341561024057600080fd5b610219610656565b341561025357600080fd5b610107600160a060020a0360043581169060243516610665565b341561027857600080fd5b610107600160a060020a036004351660ff60243516610747565b341561029d57600080fd5b61010760ff6004358116906024359060443590606435906084359060a4359060c4359060e4359061010435906101243590610144359061016435906101843516610799565b34156102ed57600080fd5b610107600480359060248035908101910135610817565b341561030f57600080fd5b610107600435602435604435606435608435610876565b341561033157600080fd5b610107600160a060020a0360043516610898565b341561035057600080fd5b610107600435602435604435610933565b60015461037b90600160a060020a03163386868686610970565b50505050565b60015461037b90600160a060020a03163386868686610c45565b60005433600160a060020a03908116911614806103bc57506103bc336111ca565b15156103c757600080fd5b6001546103dd90600160a060020a0316826111ef565b50565b60005433600160a060020a03908116911614806104015750610401336111ca565b151561040c57600080fd5b6001546103dd90600160a060020a031682611286565b60015474010000000000000000000000000000000000000000900460ff1681565b8060ff1660011415610491577f33ab88bf15c608bd108a5e190f7ede9805cca0d26edb4c498910efed7bd4548233604051600160a060020a03909116815260200160405180910390a16103dd565b8060ff16600314156104df577f071c1d6c34c33579b7c602d142075cbfcd78a1f17a66d704fa952844a3c5e08e33604051600160a060020a03909116815260200160405180910390a16103dd565b8060ff16600414156103dd577fddce97d6f5184391465a772abc24fb939b4e8f99851a6a1b823d08b0f7abea9833604051600160a060020a03909116815260200160405180910390a150565b811580159061053957508015155b151561054457600080fd5b60015461055c90600160a060020a031683833361130c565b5050565b60015474010000000000000000000000000000000000000000900460ff161561058857600080fd5b6001546105a190600160a060020a031633858585611318565b7f9b6411b9015bc6e70c90132714b8568e56698ce0b7522e6057d3ba1e3486253733604051600160a060020a03909116815260200160405180910390a1505050565b82158015906105f25750600081115b15156105fd57600080fd5b60015461064290600160a060020a0316848484806020808202016040519081016040528093929190818152602001838360200280828437503394506115459350505050565b505050565b600054600160a060020a031681565b600154600160a060020a031681565b6000548290600160a060020a0380831691161480156107305750600154600160a060020a0316634c77e5ba6040517f6f646c6c2f6f776e6572000000000000000000000000000000000000000000008152600a01604051809103902060006040516020015260405160e060020a63ffffffff84160281526004810191909152602401602060405180830381600087803b151561070057600080fd5b6102c65a03f1151561071157600080fd5b50505060405180519050600160a060020a031681600160a060020a0316145b151561073b57600080fd5b81600160a060020a0316ff5b60005433600160a060020a03908116911614806107685750610768336111ca565b80610777575061077733611551565b151561078257600080fd5b60015461055c90600160a060020a0316838361155e565b60015474010000000000000000000000000000000000000000900460ff16156107c157600080fd5b86158015906107cf57508415155b15156107da57600080fd5b6107e68d8d8d8d610381565b6107f38989898989610876565b6107ff84848484610361565b6108088d610443565b50505050505050505050505050565b82158015906108265750600081115b151561083157600080fd5b60015461064290600160a060020a0316848484806020808202016040519081016040528093929190818152602001838360200280828437503394506116559350505050565b60015461089190600160a060020a0316338787878787611661565b5050505050565b60005433600160a060020a039081169116146108b357600080fd5b600160a060020a03811615156108c857600080fd5b600054600160a060020a0380831691167f8be0079c531659141344cd1fd0a4f28419497f9722a3daafe3b4186f6b6457e060405160405180910390a36000805473ffffffffffffffffffffffffffffffffffffffff1916600160a060020a0392909216919091179055565b821580159061094157508115155b801561094c57508015155b151561095757600080fd5b60015461064290600160a060020a0316848484336119dc565b61097a86866119f5565b151561098557600080fd5b61098f8686611a0d565b151561099a57600080fd5b85600160a060020a03166325cf512d866040517f757365722f70686f6e652d6e756d6265720000000000000000000000000000008152600160a060020a0391909116606060020a02601182015260250160405180910390208660405160e060020a63ffffffff851602815260048101929092526024820152604401600060405180830381600087803b1515610a2e57600080fd5b6102c65a03f11515610a3f57600080fd5b50505085600160a060020a03166325cf512d866040517f757365722f736f6369616c2d73656375726974792d6e756d62657200000000008152600160a060020a0391909116606060020a02601b820152602f0160405180910390208560405160e060020a63ffffffff851602815260048101929092526024820152604401600060405180830381600087803b1515610ad657600080fd5b6102c65a03f11515610ae757600080fd5b50505085600160a060020a03166325cf512d866040517f757365722f6269727468646179000000000000000000000000000000000000008152600160a060020a0391909116606060020a02600d82015260210160405180910390208460405160e060020a63ffffffff851602815260048101929092526024820152604401600060405180830381600087803b1515610b7e57600080fd5b6102c65a03f11515610b8f57600080fd5b50505085600160a060020a0316630bd85158866040517f757365722f67656e6465720000000000000000000000000000000000000000008152600160a060020a0391909116606060020a02600b820152601f0160405180910390208360405160e060020a63ffffffff8516028152600481019290925260ff166024820152604401600060405180830381600087803b1515610c2957600080fd5b6102c65a03f11515610c3a57600080fd5b505050505050505050565b610c4d61314a565b610c5561314a565b610c5d61314a565b610c6789896119f5565b1515610f1c5788600160a060020a0316633562fd20896040517f757365722f637265617465642d6f6e00000000000000000000000000000000008152600160a060020a0391909116606060020a02600f82015260230160405180910390204260405160e060020a63ffffffff851602815260048101929092526024820152604401600060405180830381600087803b1515610d0157600080fd5b6102c65a03f11515610d1257600080fd5b50505088600160a060020a0316630bd851588960405160008051602061315d8339815191528152600160a060020a0391909116606060020a02600b820152601f016040518091039020600160405160e060020a63ffffffff8516028152600481019290925260ff166024820152604401600060405180830381600087803b1515610d9b57600080fd5b6102c65a03f11515610dac57600080fd5b505050610e2189604080519081016040908152600982527f75736572732f696473000000000000000000000000000000000000000000000060208301528051908101604052600b81527f75736572732f636f756e7400000000000000000000000000000000000000000060208201528b611a22565b610e2a87611c5e565b91945092509050600160a060020a038916633eba9ed2848a6040518083805190602001908083835b60208310610e715780518252601f199092019160209182019101610e52565b6001836020036101000a03801982511681845116808217855250505050505090500182600160a060020a0316600160a060020a0316606060020a028152601401925050506040518091039020600160405160e060020a63ffffffff8516028152600481019290925215156024820152604401600060405180830381600087803b1515610efc57600080fd5b6102c65a03f11515610f0d57600080fd5b505050610f1c8983838b611a22565b88600160a060020a0316630bd85158896040517f757365722f7479706500000000000000000000000000000000000000000000008152600160a060020a0391909116606060020a026009820152601d0160405180910390208960405160e060020a63ffffffff8516028152600481019290925260ff166024820152604401600060405180830381600087803b1515610fb357600080fd5b6102c65a03f11515610fc457600080fd5b50505088600160a060020a03166325cf512d896040517f757365722f6e616d6500000000000000000000000000000000000000000000008152600160a060020a0391909116606060020a026009820152601d0160405180910390208860405160e060020a63ffffffff851602815260048101929092526024820152604401600060405180830381600087803b151561105b57600080fd5b6102c65a03f1151561106c57600080fd5b50505088600160a060020a03166325cf512d896040517f757365722f656d61696c000000000000000000000000000000000000000000008152600160a060020a0391909116606060020a02600a820152601e0160405180910390208760405160e060020a63ffffffff851602815260048101929092526024820152604401600060405180830381600087803b151561110357600080fd5b6102c65a03f1151561111457600080fd5b50505088600160a060020a03166325cf512d896040517f757365722f6772617661746172000000000000000000000000000000000000008152600160a060020a0391909116606060020a02600d82015260210160405180910390208660405160e060020a63ffffffff851602815260048101929092526024820152604401600060405180830381600087803b15156111ab57600080fd5b6102c65a03f115156111bc57600080fd5b505050505050505050505050565b60006111d7826004611f55565b80156111e957506111e9826001611f70565b92915050565b81600160a060020a0316630bd851588260405160008051602061315d8339815191528152600160a060020a0391909116606060020a02600b820152601f016040518091039020600160405160e060020a63ffffffff8516028152600481019290925260ff166024820152604401600060405180830381600087803b151561127557600080fd5b6102c65a03f1151561089157600080fd5b81600160a060020a0316630bd851588260405160008051602061315d8339815191528152600160a060020a0391909116606060020a02600b820152601f016040518091039020600260405160e060020a63ffffffff8516028152600481019290925260ff166024820152604401600060405180830381600087803b151561127557600080fd5b61037b84848484611f7b565b61132285856119f5565b151561132d57600080fd5b6113378585611a0d565b151561134257600080fd5b84600160a060020a0316633eba9ed2856040517f757365722f69732d6f646c6c2d64656e746973743f00000000000000000000008152600160a060020a0391909116606060020a02601582015260290160405180910390208560405160e060020a63ffffffff8516028152600481019290925215156024820152604401600060405180830381600087803b15156113d857600080fd5b6102c65a03f115156113e957600080fd5b50505084600160a060020a0316633eba9ed2856040517f757365722f69732d617661696c61626c653f00000000000000000000000000008152600160a060020a0391909116606060020a02601282015260260160405180910390208460405160e060020a63ffffffff8516028152600481019290925215156024820152604401600060405180830381600087803b151561148257600080fd5b6102c65a03f1151561149357600080fd5b50505084600160a060020a03166325cf512d856040517f64656e746973742f636f6d70616e792d6e616d650000000000000000000000008152600160a060020a0391909116606060020a02601482015260280160405180910390208360405160e060020a63ffffffff851602815260048101929092526024820152604401600060405180830381600087803b151561152a57600080fd5b6102c65a03f1151561153b57600080fd5b5050505050505050565b61037b8484848461208e565b60006111d7826003611f55565b600083600160a060020a0316637a0e03ec846040517f757365722f7479706500000000000000000000000000000000000000000000008152600160a060020a0391909116606060020a026009820152601d01604051809103902060006040516020015260405160e060020a63ffffffff84160281526004810191909152602401602060405180830381600087803b15156115f757600080fd5b6102c65a03f1151561160857600080fd5b5050506040518051915050600160a060020a0383161580159061162d575060ff821615155b801561163a575060ff8116155b151561164557600080fd5b61037b8484846000806000610c45565b61037b848484846120c3565b61166b87876119f5565b151561167657600080fd5b6116808787611a0d565b151561168b57600080fd5b86600160a060020a03166325cf512d876040517f757365722f7374726565740000000000000000000000000000000000000000008152600160a060020a0391909116606060020a02600b820152601f0160405180910390208760405160e060020a63ffffffff851602815260048101929092526024820152604401600060405180830381600087803b151561171f57600080fd5b6102c65a03f1151561173057600080fd5b50505086600160a060020a03166325cf512d876040517f757365722f6369747900000000000000000000000000000000000000000000008152600160a060020a0391909116606060020a026009820152601d0160405180910390208660405160e060020a63ffffffff851602815260048101929092526024820152604401600060405180830381600087803b15156117c757600080fd5b6102c65a03f115156117d857600080fd5b50505086600160a060020a0316633562fd20876040517f757365722f7374617465000000000000000000000000000000000000000000008152600160a060020a0391909116606060020a02600a820152601e0160405180910390208560405160e060020a63ffffffff851602815260048101929092526024820152604401600060405180830381600087803b151561186f57600080fd5b6102c65a03f1151561188057600080fd5b50505086600160a060020a03166325cf512d876040517f757365722f7a69702d636f6465000000000000000000000000000000000000008152600160a060020a0391909116606060020a02600d82015260210160405180910390208460405160e060020a63ffffffff851602815260048101929092526024820152604401600060405180830381600087803b151561191757600080fd5b6102c65a03f1151561192857600080fd5b50505086600160a060020a0316633562fd20876040517f757365722f636f756e74727900000000000000000000000000000000000000008152600160a060020a0391909116606060020a02600c82015260200160405180910390208360405160e060020a63ffffffff851602815260048101929092526024820152604401600060405180830381600087803b15156119bf57600080fd5b6102c65a03f115156119d057600080fd5b50505050505050505050565b6119e8858585846120f8565b61089185858585856123aa565b600080611a028484612509565b60ff16119392505050565b6000611a1b838360016125b1565b9392505050565b600084600160a060020a031663bdc963d8846040518082805190602001908083835b60208310611a635780518252601f199092019160209182019101611a44565b6001836020036101000a0380198251168184511617909252505050919091019250604091505051809103902060006040516020015260405160e060020a63ffffffff84160281526004810191909152602401602060405180830381600087803b1515611ace57600080fd5b6102c65a03f11515611adf57600080fd5b5050506040518051915050600160a060020a038516635a2bf25a85836040518083805190602001908083835b60208310611b2a5780518252601f199092019160209182019101611b0b565b6001836020036101000a0380198251168184511617909252505050919091019283525050602001905060405180910390208460405160e060020a63ffffffff85160281526004810192909252600160a060020a03166024820152604401600060405180830381600087803b1515611ba057600080fd5b6102c65a03f11515611bb157600080fd5b50505084600160a060020a0316633562fd20846040518082805190602001908083835b60208310611bf35780518252601f199092019160209182019101611bd4565b6001836020036101000a038019825116818451161790925250505091909101925060409150505180910390208360010160405160e060020a63ffffffff851602815260048101929092526024820152604401600060405180830381600087803b151561152a57600080fd5b611c6661314a565b611c6e61314a565b611c7661314a565b8360ff1660011415611d2d576040805190810160405280601081526020017f757365722f69732d70617469656e743f0000000000000000000000000000000081525092506040805190810160405280600c81526020017f70617469656e74732f6964730000000000000000000000000000000000000000815250915060408051908101604052600e81527f70617469656e74732f636f756e7400000000000000000000000000000000000060208201529050611f4e565b8360ff1660021415611de4576040805190810160405280601081526020017f757365722f69732d64656e746973743f0000000000000000000000000000000081525092506040805190810160405280600c81526020017f64656e74697374732f6964730000000000000000000000000000000000000000815250915060408051908101604052600e81527f64656e74697374732f636f756e7400000000000000000000000000000000000060208201529050611f4e565b8360ff1660031415611e9b576040805190810160405280601081526020017f757365722f69732d6d616e616765723f0000000000000000000000000000000081525092506040805190810160405280600c81526020017f6d616e61676572732f6964730000000000000000000000000000000000000000815250915060408051908101604052600e81527f6d616e61676572732f636f756e7400000000000000000000000000000000000060208201529050611f4e565b8360ff1660041415611f4e576040805190810160405280600e81526020017f757365722f69732d61646d696e3f00000000000000000000000000000000000081525092506040805190810160405280600a81526020017f61646d696e732f69647300000000000000000000000000000000000000000000815250915060408051908101604052600c81527f61646d696e732f636f756e740000000000000000000000000000000000000000602082015290505b9193909250565b6000611f60836125ce565b60ff168260ff1614905092915050565b6000611f608361268a565b826001141561200757611fc3848260408051908101604052601481527f64656e746973742f7363616e2d73657276696365000000000000000000000000602082015285612714565b612002848360408051908101604052601481527f7363616e2d736572766963652f64656e74697374000000000000000000000000602082015284612802565b61037b565b826002141561037b5761204f848260408051908101604052601981527f64656e746973742f74726561746d656e742d7365727669636500000000000000602082015285612714565b61037b848360408051908101604052601981527f74726561746d656e742d736572766963652f64656e7469737400000000000000602082015284612802565b60005b8251811015610891576120bb85858584815181106120ab57fe5b9060200190602002015185611f7b565b600101612091565b60005b8251811015610891576120f085858584815181106120e057fe5b90602001906020020151856120f8565b6001016120c6565b826001141561224f576121a88482604080519081016040908152601482527f64656e746973742f7363616e2d73657276696365000000000000000000000000602083015280519081016040908152601b82527f64656e746973742f7363616e2d73657276696365732d636f756e74000000000060208301528051908101604052601881527f64656e746973742f7363616e2d736572766963652d6b657900000000000000006020820152876128c8565b6120028483604080519081016040908152601482527f7363616e2d736572766963652f64656e74697374000000000000000000000000602083015280519081016040908152601b82527f7363616e2d736572766963652f64656e74697374732d636f756e74000000000060208301528051908101604052601881527f7363616e2d736572766963652f64656e746973742d6b65790000000000000000602082015286612aa0565b826002141561037b576123018482604080519081016040908152601982527f64656e746973742f74726561746d656e742d73657276696365000000000000006020830152805190810160405280602081526020017f64656e746973742f74726561746d656e742d73657276696365732d636f756e7481525060408051908101604052601d81527f64656e746973742f74726561746d656e742d736572766963652d6b65790000006020820152876128c8565b61037b8483604080519081016040908152601982527f74726561746d656e742d736572766963652f64656e74697374000000000000006020830152805190810160405280602081526020017f74726561746d656e742d736572766963652f64656e74697374732d636f756e7481525060408051908101604052601d81527f74726561746d656e742d736572766963652f64656e746973742d6b6579000000602082015286612aa0565b83600114156124665784600160a060020a0316633562fd2082856040517f64656e746973742f7363616e2d736572766963652f66656500000000000000008152600160a060020a0392909216606060020a026018830152602c820152604c0160405180910390208460405160e060020a63ffffffff851602815260048101929092526024820152604401600060405180830381600087803b151561244d57600080fd5b6102c65a03f1151561245e57600080fd5b505050610891565b83600214156108915784600160a060020a0316633562fd2082856040517f64656e746973742f74726561746d656e742d736572766963652f6665650000008152600160a060020a0392909216606060020a02601d830152603182015260510160405180910390208460405160e060020a63ffffffff851602815260048101929092526024820152604401600060405180830381600087803b151561152a57600080fd5b600082600160a060020a0316637a0e03ec8360405160008051602061315d8339815191528152600160a060020a0391909116606060020a02600b820152601f01604051809103902060006040516020015260405160e060020a63ffffffff84160281526004810191909152602401602060405180830381600087803b151561259057600080fd5b6102c65a03f115156125a157600080fd5b5050506040518051949350505050565b60006125bd8484612509565b60ff168260ff161490509392505050565b600154600090600160a060020a0316637a0e03ec836040517f757365722f7479706500000000000000000000000000000000000000000000008152600160a060020a0391909116606060020a026009820152601d01604051809103902060006040516020015260405160e060020a63ffffffff84160281526004810191909152602401602060405180830381600087803b151561266a57600080fd5b6102c65a03f1151561267b57600080fd5b50505060405180519392505050565b600154600090600160a060020a0316637a0e03ec8360405160008051602061315d8339815191528152600160a060020a0391909116606060020a02600b820152601f01604051809103902060006040516020015260405160e060020a63ffffffff84160281526004810191909152602401602060405180830381600087803b151561266a57600080fd5b83600160a060020a0316630bd851588385846040518084805190602001908083835b602083106127555780518252601f199092019160209182019101612736565b6001836020036101000a03801982511681845116808217855250505050505090500183600160a060020a0316600160a060020a0316606060020a02815260140182815260200193505050506040518091039020600260405160e060020a63ffffffff8516028152600481019290925260ff166024820152604401600060405180830381600087803b15156127e857600080fd5b6102c65a03f115156127f957600080fd5b50505050505050565b83600160a060020a0316630bd851588385846040518084805190602001908083835b602083106128435780518252601f199092019160209182019101612824565b6001836020036101000a0380198251168184511617909252505050919091019384525050600160a060020a0316606060020a02602082015260340190506040518091039020600260405160e060020a63ffffffff8516028152600481019290925260ff166024820152604401600060405180830381600087803b15156127e857600080fd5b85600160a060020a0316637a0e03ec8587846040518084805190602001908083835b602083106129095780518252601f1990920191602091820191016128ea565b6001836020036101000a03801982511681845116808217855250505050505090500183600160a060020a0316600160a060020a0316606060020a0281526014018281526020019350505050604051809103902060006040516020015260405160e060020a63ffffffff84160281526004810191909152602401602060405180830381600087803b151561299b57600080fd5b6102c65a03f115156129ac57600080fd5b505050604051805160ff16151590506129cc576129cc8686848685612c5c565b85600160a060020a0316630bd851588587846040518084805190602001908083835b60208310612a0d5780518252601f1990920191602091820191016129ee565b6001836020036101000a03801982511681845116808217855250505050505090500183600160a060020a0316600160a060020a0316606060020a02815260140182815260200193505050506040518091039020600160405160e060020a63ffffffff8516028152600481019290925260ff166024820152604401600060405180830381600087803b1515610c2957600080fd5b85600160a060020a0316637a0e03ec8587846040518084805190602001908083835b60208310612ae15780518252601f199092019160209182019101612ac2565b6001836020036101000a0380198251168184511617909252505050919091019384525050600160a060020a0316606060020a0260208201526034019050604051809103902060006040516020015260405160e060020a63ffffffff84160281526004810191909152602401602060405180830381600087803b1515612b6557600080fd5b6102c65a03f11515612b7657600080fd5b505050604051805160ff1615159050612b9657612b968686848685612e1a565b85600160a060020a0316630bd851588587846040518084805190602001908083835b60208310612bd75780518252601f199092019160209182019101612bb8565b6001836020036101000a0380198251168184511617909252505050919091019384525050600160a060020a0316606060020a02602082015260340190506040518091039020600160405160e060020a63ffffffff8516028152600481019290925260ff166024820152604401600060405180830381600087803b1515610c2957600080fd5b6000612c69868685612fa9565b905085600160a060020a0316633562fd208587846040518084805190602001908083835b60208310612cac5780518252601f199092019160209182019101612c8d565b6001836020036101000a03801982511681845116808217855250505050505090500183600160a060020a0316600160a060020a0316606060020a028152601401828152602001935050505060405180910390208460405160e060020a63ffffffff851602815260048101929092526024820152604401600060405180830381600087803b1515612d3b57600080fd5b6102c65a03f11515612d4c57600080fd5b50505085600160a060020a0316633562fd2084876040518083805190602001908083835b60208310612d8f5780518252601f199092019160209182019101612d70565b6001836020036101000a03801982511681845116808217855250505050505090500182600160a060020a0316600160a060020a0316606060020a0281526014019250505060405180910390208360010160405160e060020a63ffffffff851602815260048101929092526024820152604401600060405180830381600087803b1515610c2957600080fd5b6000612e27868685613098565b905085600160a060020a0316635a2bf25a8587846040518084805190602001908083835b60208310612e6a5780518252601f199092019160209182019101612e4b565b6001836020036101000a03801982511681845116179092525050509190910193845250506020820152604090810191505180910390208460405160e060020a63ffffffff85160281526004810192909252600160a060020a03166024820152604401600060405180830381600087803b1515612ee557600080fd5b6102c65a03f11515612ef657600080fd5b50505085600160a060020a0316633562fd2084876040518083805190602001908083835b60208310612f395780518252601f199092019160209182019101612f1a565b6001836020036101000a0380198251168184511617909252505050919091019283525050602001905060405180910390208360010160405160e060020a63ffffffff851602815260048101929092526024820152604401600060405180830381600087803b1515610c2957600080fd5b600083600160a060020a031663bdc963d883856040518083805190602001908083835b60208310612feb5780518252601f199092019160209182019101612fcc565b6001836020036101000a03801982511681845116808217855250505050505090500182600160a060020a0316600160a060020a0316606060020a02815260140192505050604051809103902060006040516020015260405160e060020a63ffffffff84160281526004810191909152602401602060405180830381600087803b151561307657600080fd5b6102c65a03f1151561308757600080fd5b505050604051805195945050505050565b600083600160a060020a031663bdc963d883856040518083805190602001908083835b602083106130da5780518252601f1990920191602091820191016130bb565b6001836020036101000a03801982511681845116179092525050509190910192835250506020019050604051809103902060006040516020015260405160e060020a63ffffffff84160281526004810191909152602401602060405180830381600087803b151561307657600080fd5b602060405190810160405260008152905600757365722f737461747573000000000000000000000000000000000000000000a165627a7a72305820d341cd472227fdb96897749a747bfd546d4a1fd5dd3a01af7930bcafc8ac09610029",
  "source": "pragma solidity 0.4.17;\n\nimport \"./ODLLRestrictor.sol\";\nimport \"../lib/odll/userManager.sol\";\n\ncontract ODLLUserWriter is ODLLRestrictor {\n  event OnAdminAdded(address userId);\n  event OnDentistAdded(address userId);\n  event OnManagerAdded(address userId);\n  event OnPatientAdded(address userId);\n\n  function ODLLUserWriter(address _dbAddress) public {\n    require(_dbAddress != 0x0);\n    dbAddress = _dbAddress;\n  }\n\n  function writeUser(\n    uint8 userType,\n    bytes32 name,\n    bytes32 email,\n    bytes32 gravatar,\n    bytes32 street,\n    bytes32 city,\n    uint stateId,\n    bytes32 zipCode,\n    uint countryId,\n    bytes32 phoneNumber,\n    bytes32 socialSecurityNumber,\n    bytes32 birthday,\n    uint8 gender\n  )\n    external\n    onlyPermittedSmartContract\n  {\n    // require the last compulsories first\n    require(stateId != 0 && countryId != 0);\n\n    writeUserIdentity(userType, name, email, gravatar);\n    writeUserLocation(street, city, stateId, zipCode, countryId);\n    writeUserOptionalValues(phoneNumber, socialSecurityNumber, birthday, gender);\n    determineEvent(userType);\n  }\n\n  function writeUserIdentity(uint8 userType, bytes32 name, bytes32 email, bytes32 gravatar) public {\n    userManager.setUserIdentity(dbAddress, msg.sender, userType, name, email, gravatar);\n  }\n\n  function writeUserLocation(bytes32 street, bytes32 city, uint stateId, bytes32 zipCode, uint countryId) public {\n    userManager.setUserLocation(dbAddress, msg.sender, street, city, stateId, zipCode, countryId);\n  }\n\n  function writeUserOptionalValues(bytes32 phoneNumber, bytes32 socialSecurityNumber, bytes32 birthday, uint8 gender) public {\n    userManager.setUserOptionalValues(dbAddress, msg.sender, phoneNumber, socialSecurityNumber, birthday, gender);\n  }\n\n  function determineEvent(uint8 userType) public {\n    if (userType == 1) {\n      OnPatientAdded(msg.sender);\n    } else if (userType == 3) {\n      OnManagerAdded(msg.sender);\n    } else if (userType == 4) {\n      OnAdminAdded(msg.sender);\n    }\n  }\n\n  function continueWritingDentist(\n    bool isODLLDentist,\n    bool isAvailable,\n    bytes32 companyName\n  )\n    external\n    onlyPermittedSmartContract\n  {\n    userManager.setDentist(dbAddress, msg.sender, isODLLDentist, isAvailable, companyName);\n    OnDentistAdded(msg.sender);\n  }\n\n  function addOfficialToODLL(address officialId, uint8 userType)\n    external\n    onlyOwnerOrActiveAdminOrActiveManager\n  {\n    userManager.addOfficialToODLL(dbAddress, officialId, userType);\n  }\n\n  function blockUser(address userId)\n    external\n    onlyOwnerOrActiveAdmin\n  {\n    userManager.blockUser(dbAddress, userId);\n  }\n\n  function unblockUser(address userId)\n    external\n    onlyOwnerOrActiveAdmin\n  {\n    userManager.unblockUser(dbAddress, userId);\n  }\n\n  function writeServices(\n    uint serviceTypeId,\n    uint[] serviceIds\n  )\n    external\n  {\n    require(serviceTypeId != 0 && serviceIds.length > 0);\n    userManager.writeServices(dbAddress, serviceTypeId, serviceIds, msg.sender);\n  }\n\n  function writeServiceWithFee(\n    uint serviceTypeId,\n    uint serviceId,\n    uint fee\n  )\n    external\n  {\n    require(serviceTypeId != 0 && serviceId != 0 && fee != 0);\n    userManager.writeServiceWithFee(dbAddress, serviceTypeId, serviceId, fee, msg.sender);\n  }\n\n  function removeDentistFromService(\n    uint serviceTypeId,\n    uint serviceId\n  )\n    external\n  {\n    require(serviceTypeId != 0 && serviceId != 0);\n    userManager.removeDentistFromService(dbAddress, serviceTypeId, serviceId, msg.sender);\n  }\n\n  function removeServices(\n    uint serviceTypeId,\n    uint[] serviceIds\n  )\n    external\n  {\n    require(serviceTypeId != 0 && serviceIds.length > 0);\n    userManager.removeServices(dbAddress, serviceTypeId, serviceIds, msg.sender);\n  }\n\n  function destroySelf(address callerAddress, address newContractAddress)\n    external\n    onlyOwnerCanCall(callerAddress)\n  {\n    selfdestruct(newContractAddress);\n  }\n}\n\n",
  "sourcePath": "/home/daniel/dev/vue/apps/oral-data-link/contracts/odll/ODLLUserWriter.sol",
  "schemaVersion": "1.0.0",
  "updatedAt": "2017-10-24T20:40:42.394Z"
}