{
  "contractName": "ODLLUserReader",
  "abi": [
    {
      "constant": true,
      "inputs": [
        {
          "name": "serviceTypeId",
          "type": "uint256"
        },
        {
          "name": "serviceId",
          "type": "uint256"
        },
        {
          "name": "dentistId",
          "type": "address"
        }
      ],
      "name": "getDentistFeeData",
      "outputs": [
        {
          "name": "fee",
          "type": "uint256"
        }
      ],
      "payable": false,
      "stateMutability": "view",
      "type": "function"
    },
    {
      "constant": true,
      "inputs": [
        {
          "name": "dentistId",
          "type": "address"
        }
      ],
      "name": "getDentistIdentityData",
      "outputs": [
        {
          "name": "",
          "type": "bool"
        },
        {
          "name": "",
          "type": "bool"
        },
        {
          "name": "",
          "type": "bytes32"
        }
      ],
      "payable": false,
      "stateMutability": "view",
      "type": "function"
    },
    {
      "constant": true,
      "inputs": [
        {
          "name": "userId",
          "type": "address"
        },
        {
          "name": "serviceTypeId",
          "type": "uint256"
        },
        {
          "name": "offset",
          "type": "uint256"
        },
        {
          "name": "limit",
          "type": "uint256"
        },
        {
          "name": "seed",
          "type": "uint256"
        }
      ],
      "name": "fetchServices",
      "outputs": [
        {
          "name": "",
          "type": "uint256"
        },
        {
          "name": "",
          "type": "uint256[]"
        }
      ],
      "payable": false,
      "stateMutability": "view",
      "type": "function"
    },
    {
      "constant": true,
      "inputs": [
        {
          "name": "userId",
          "type": "address"
        }
      ],
      "name": "getUserIdentityData",
      "outputs": [
        {
          "name": "",
          "type": "uint8"
        },
        {
          "name": "",
          "type": "bytes32"
        },
        {
          "name": "",
          "type": "bytes32"
        },
        {
          "name": "",
          "type": "bytes32"
        }
      ],
      "payable": false,
      "stateMutability": "view",
      "type": "function"
    },
    {
      "constant": true,
      "inputs": [],
      "name": "smartContractStatus",
      "outputs": [
        {
          "name": "",
          "type": "uint8"
        }
      ],
      "payable": false,
      "stateMutability": "view",
      "type": "function"
    },
    {
      "constant": true,
      "inputs": [
        {
          "name": "userId",
          "type": "address"
        }
      ],
      "name": "getUserContactData",
      "outputs": [
        {
          "name": "",
          "type": "bytes32"
        },
        {
          "name": "",
          "type": "bytes32"
        },
        {
          "name": "",
          "type": "bytes32"
        },
        {
          "name": "",
          "type": "uint256"
        },
        {
          "name": "",
          "type": "bytes32"
        },
        {
          "name": "",
          "type": "uint256"
        }
      ],
      "payable": false,
      "stateMutability": "view",
      "type": "function"
    },
    {
      "constant": true,
      "inputs": [
        {
          "name": "userId",
          "type": "address"
        },
        {
          "name": "serviceTypeId",
          "type": "uint256"
        },
        {
          "name": "offset",
          "type": "uint256"
        },
        {
          "name": "limit",
          "type": "uint256"
        },
        {
          "name": "seed",
          "type": "uint256"
        }
      ],
      "name": "fetchServicesWithFees",
      "outputs": [
        {
          "name": "",
          "type": "uint256"
        },
        {
          "name": "",
          "type": "uint256[]"
        },
        {
          "name": "",
          "type": "uint256[]"
        }
      ],
      "payable": false,
      "stateMutability": "view",
      "type": "function"
    },
    {
      "constant": true,
      "inputs": [],
      "name": "owner",
      "outputs": [
        {
          "name": "",
          "type": "address"
        }
      ],
      "payable": false,
      "stateMutability": "view",
      "type": "function"
    },
    {
      "constant": true,
      "inputs": [],
      "name": "dbAddress",
      "outputs": [
        {
          "name": "",
          "type": "address"
        }
      ],
      "payable": false,
      "stateMutability": "view",
      "type": "function"
    },
    {
      "constant": true,
      "inputs": [
        {
          "name": "offset",
          "type": "uint256"
        },
        {
          "name": "limit",
          "type": "uint256"
        },
        {
          "name": "seed",
          "type": "uint256"
        }
      ],
      "name": "fetchDentists",
      "outputs": [
        {
          "name": "",
          "type": "uint256"
        },
        {
          "name": "",
          "type": "address[]"
        }
      ],
      "payable": false,
      "stateMutability": "view",
      "type": "function"
    },
    {
      "constant": false,
      "inputs": [
        {
          "name": "callerAddress",
          "type": "address"
        },
        {
          "name": "newContractAddress",
          "type": "address"
        }
      ],
      "name": "destroySelf",
      "outputs": [],
      "payable": false,
      "stateMutability": "nonpayable",
      "type": "function"
    },
    {
      "constant": true,
      "inputs": [
        {
          "name": "offset",
          "type": "uint256"
        },
        {
          "name": "limit",
          "type": "uint256"
        },
        {
          "name": "seed",
          "type": "uint256"
        }
      ],
      "name": "fetchManagers",
      "outputs": [
        {
          "name": "",
          "type": "uint256"
        },
        {
          "name": "",
          "type": "address[]"
        }
      ],
      "payable": false,
      "stateMutability": "view",
      "type": "function"
    },
    {
      "constant": true,
      "inputs": [
        {
          "name": "dentistId",
          "type": "address"
        }
      ],
      "name": "getDentistRatingData",
      "outputs": [
        {
          "name": "rating",
          "type": "uint256"
        }
      ],
      "payable": false,
      "stateMutability": "view",
      "type": "function"
    },
    {
      "constant": true,
      "inputs": [
        {
          "name": "userId",
          "type": "address"
        }
      ],
      "name": "getUserPersonalData",
      "outputs": [
        {
          "name": "gender",
          "type": "uint8"
        },
        {
          "name": "socialSecurityNumber",
          "type": "bytes32"
        },
        {
          "name": "birthday",
          "type": "bytes32"
        }
      ],
      "payable": false,
      "stateMutability": "view",
      "type": "function"
    },
    {
      "constant": true,
      "inputs": [
        {
          "name": "stateId",
          "type": "uint256"
        },
        {
          "name": "serviceTypeId",
          "type": "uint256"
        },
        {
          "name": "serviceId",
          "type": "uint256"
        },
        {
          "name": "budget",
          "type": "uint256[]"
        },
        {
          "name": "offset",
          "type": "uint256"
        },
        {
          "name": "limit",
          "type": "uint256"
        },
        {
          "name": "seed",
          "type": "uint256"
        }
      ],
      "name": "findDentists",
      "outputs": [
        {
          "name": "",
          "type": "uint256"
        },
        {
          "name": "",
          "type": "address[]"
        }
      ],
      "payable": false,
      "stateMutability": "view",
      "type": "function"
    },
    {
      "constant": false,
      "inputs": [
        {
          "name": "newOwner",
          "type": "address"
        }
      ],
      "name": "transferOwnership",
      "outputs": [],
      "payable": false,
      "stateMutability": "nonpayable",
      "type": "function"
    },
    {
      "inputs": [
        {
          "name": "_dbAddress",
          "type": "address"
        }
      ],
      "payable": false,
      "stateMutability": "nonpayable",
      "type": "constructor"
    },
    {
      "anonymous": false,
      "inputs": [
        {
          "indexed": false,
          "name": "status",
          "type": "uint8"
        }
      ],
      "name": "OnSmartContractStatusSet",
      "type": "event"
    },
    {
      "anonymous": false,
      "inputs": [
        {
          "indexed": true,
          "name": "previousOwner",
          "type": "address"
        },
        {
          "indexed": true,
          "name": "newOwner",
          "type": "address"
        }
      ],
      "name": "OwnershipTransferred",
      "type": "event"
    }
  ],
  "bytecode": "0x6060604052341561000f57600080fd5b604051602080612eb88339810160405280805160008054600160a060020a03191633600160a060020a039081169190911790915590925082161515905061005557600080fd5b60018054600160a060020a031916600160a060020a0392909216919091179055612e34806100846000396000f300606060405236156100ca5763ffffffff60e060020a6000350416630b91f9a781146100cf57806326ec0b15146101065780632d0642061461014b5780632deb044a146101d05780634c8ddddc1461021f57806359f60150146102485780635a1e4f90146102a05780638da5cb5b1461036b57806391e06b6d1461039a57806396f7a445146103ad578063b16b2230146103c9578063be31885b146103f0578063ca6e44ac1461040c578063e6277fcc1461042b578063eb6ce03314610472578063f2fde38b146104a5575b600080fd5b34156100da57600080fd5b6100f4600435602435600160a060020a03604435166104c4565b60405190815260200160405180910390f35b341561011157600080fd5b610125600160a060020a03600435166104e7565b604051921515835290151560208301526040808301919091526060909101905180910390f35b341561015657600080fd5b610176600160a060020a0360043516602435604435606435608435610511565b60405182815260406020820181815290820183818151815260200191508051906020019060200280838360005b838110156101bb5780820151838201526020016101a3565b50505050905001935050505060405180910390f35b34156101db57600080fd5b6101ef600160a060020a0360043516610543565b60405160ff9094168452602084019290925260408084019190915260608301919091526080909101905180910390f35b341561022a57600080fd5b610232610571565b60405160ff909116815260200160405180910390f35b341561025357600080fd5b610267600160a060020a0360043516610592565b60405195865260208601949094526040808601939093526060850191909152608084015260a083019190915260c0909101905180910390f35b34156102ab57600080fd5b6102cb600160a060020a03600435166024356044356064356084356105ce565b604051808481526020018060200180602001838103835285818151815260200191508051906020019060200280838360005b838110156103155780820151838201526020016102fd565b50505050905001838103825284818151815260200191508051906020019060200280838360005b8381101561035457808201518382015260200161033c565b505050509050019550505050505060405180910390f35b341561037657600080fd5b61037e61060b565b604051600160a060020a03909116815260200160405180910390f35b34156103a557600080fd5b61037e61061a565b34156103b857600080fd5b610176600435602435604435610629565b34156103d457600080fd5b6103ee600160a060020a0360043581169060243516610657565b005b34156103fb57600080fd5b610176600435602435604435610739565b341561041757600080fd5b6100f4600160a060020a036004351661075b565b341561043657600080fd5b61044a600160a060020a036004351661077d565b60405160ff909316835260208301919091526040808301919091526060909101905180910390f35b341561047d57600080fd5b610176600480359060248035916044359160643590810191013560843560a43560c4356107a7565b34156104b057600080fd5b6103ee600160a060020a036004351661080c565b6001546000906104df90600160a060020a03168585856108a7565b949350505050565b6001546000908190819061050490600160a060020a0316856108be565b9250925092509193909250565b600061051b612df6565b60015461053590600160a060020a03168888888888610ae4565b915091509550959350505050565b60015460009081908190819061056290600160a060020a031686610b16565b93509350935093509193509193565b60015474010000000000000000000000000000000000000000900460ff1681565b6000806000806000806105ba600160009054906101000a9004600160a060020a031688610df1565b949c939b5091995097509550909350915050565b60006105d8612df6565b6105e0612df6565b6001546105fa90600160a060020a03168989898989611237565b925092509250955095509592505050565b600054600160a060020a031681565b600154600160a060020a031681565b6000610633612df6565b60015461064b90600160a060020a0316868686611276565b91509150935093915050565b6000548290600160a060020a0380831691161480156107225750600154600160a060020a0316634c77e5ba6040517f6f646c6c2f6f776e6572000000000000000000000000000000000000000000008152600a01604051809103902060006040516020015260405160e060020a63ffffffff84160281526004810191909152602401602060405180830381600087803b15156106f257600080fd5b6102c65a03f1151561070357600080fd5b50505060405180519050600160a060020a031681600160a060020a0316145b151561072d57600080fd5b81600160a060020a0316ff5b6000610743612df6565b60015461064b90600160a060020a03168686866112a4565b60015460009061077490600160a060020a0316836112b7565b60ff1692915050565b6001546000908190819061079a90600160a060020a031685611371565b9196909550909350915050565b60006107b1612df6565b6001546107fb90600160a060020a03168b8b8b8b8b8060208082020160405190810160405280939291908181526020018383602002808284378201915050505050508a8a8a611573565b915091509850989650505050505050565b60005433600160a060020a0390811691161461082757600080fd5b600160a060020a038116151561083c57600080fd5b600054600160a060020a0380831691167f8be0079c531659141344cd1fd0a4f28419497f9722a3daafe3b4186f6b6457e060405160405180910390a36000805473ffffffffffffffffffffffffffffffffffffffff1916600160a060020a0392909216919091179055565b60006108b5858585856115d5565b95945050505050565b600080600084600160a060020a03166317e7dd22856040517f757365722f69732d6f646c6c2d64656e746973743f00000000000000000000008152600160a060020a0391909116606060020a026015820152602901604051809103902060006040516020015260405160e060020a63ffffffff84160281526004810191909152602401602060405180830381600087803b151561095a57600080fd5b6102c65a03f1151561096b57600080fd5b5050506040518051935050600160a060020a0385166317e7dd22856040517f757365722f69732d617661696c61626c653f00000000000000000000000000008152600160a060020a0391909116606060020a026012820152602601604051809103902060006040516020015260405160e060020a63ffffffff84160281526004810191909152602401602060405180830381600087803b1515610a0d57600080fd5b6102c65a03f11515610a1e57600080fd5b5050506040518051925050600160a060020a03851663025ec81a856040517f64656e746973742f636f6d70616e792d6e616d650000000000000000000000008152600160a060020a0391909116606060020a026014820152602801604051809103902060006040516020015260405160e060020a63ffffffff84160281526004810191909152602401602060405180830381600087803b1515610ac057600080fd5b6102c65a03f11515610ad157600080fd5b5050506040518051905090509250925092565b6000610aee612df6565b610af9888789611750565b9050610b07818686866118c6565b90999098509650505050505050565b60008060008085600160a060020a0316637a0e03ec866040517f757365722f7479706500000000000000000000000000000000000000000000008152600160a060020a0391909116606060020a026009820152601d01604051809103902060006040516020015260405160e060020a63ffffffff84160281526004810191909152602401602060405180830381600087803b1515610bb357600080fd5b6102c65a03f11515610bc457600080fd5b5050506040518051945050600160a060020a03861663025ec81a866040517f757365722f6e616d6500000000000000000000000000000000000000000000008152600160a060020a0391909116606060020a026009820152601d01604051809103902060006040516020015260405160e060020a63ffffffff84160281526004810191909152602401602060405180830381600087803b1515610c6657600080fd5b6102c65a03f11515610c7757600080fd5b5050506040518051935050600160a060020a03861663025ec81a866040517f757365722f656d61696c000000000000000000000000000000000000000000008152600160a060020a0391909116606060020a02600a820152601e01604051809103902060006040516020015260405160e060020a63ffffffff84160281526004810191909152602401602060405180830381600087803b1515610d1957600080fd5b6102c65a03f11515610d2a57600080fd5b5050506040518051925050600160a060020a03861663025ec81a866040517f757365722f6772617661746172000000000000000000000000000000000000008152600160a060020a0391909116606060020a02600d820152602101604051809103902060006040516020015260405160e060020a63ffffffff84160281526004810191909152602401602060405180830381600087803b1515610dcc57600080fd5b6102c65a03f11515610ddd57600080fd5b505050604051805194979396509194505050565b60008060008060008087600160a060020a031663025ec81a886040517f757365722f7374726565740000000000000000000000000000000000000000008152600160a060020a0391909116606060020a02600b820152601f01604051809103902060006040516020015260405160e060020a63ffffffff84160281526004810191909152602401602060405180830381600087803b1515610e9157600080fd5b6102c65a03f11515610ea257600080fd5b5050506040518051965050600160a060020a03881663025ec81a886040517f757365722f6369747900000000000000000000000000000000000000000000008152600160a060020a0391909116606060020a026009820152601d01604051809103902060006040516020015260405160e060020a63ffffffff84160281526004810191909152602401602060405180830381600087803b1515610f4457600080fd5b6102c65a03f11515610f5557600080fd5b5050506040518051955050600160a060020a03881663025ec81a886040517f757365722f70686f6e652d6e756d6265720000000000000000000000000000008152600160a060020a0391909116606060020a026011820152602501604051809103902060006040516020015260405160e060020a63ffffffff84160281526004810191909152602401602060405180830381600087803b1515610ff757600080fd5b6102c65a03f1151561100857600080fd5b5050506040518051945050600160a060020a03881663bdc963d8886040517f757365722f7374617465000000000000000000000000000000000000000000008152600160a060020a0391909116606060020a02600a820152601e01604051809103902060006040516020015260405160e060020a63ffffffff84160281526004810191909152602401602060405180830381600087803b15156110aa57600080fd5b6102c65a03f115156110bb57600080fd5b5050506040518051935050600160a060020a03881663025ec81a886040517f757365722f7a69702d636f6465000000000000000000000000000000000000008152600160a060020a0391909116606060020a02600d820152602101604051809103902060006040516020015260405160e060020a63ffffffff84160281526004810191909152602401602060405180830381600087803b151561115d57600080fd5b6102c65a03f1151561116e57600080fd5b5050506040518051925050600160a060020a03881663bdc963d8886040517f757365722f636f756e74727900000000000000000000000000000000000000008152600160a060020a0391909116606060020a02600c820152602001604051809103902060006040516020015260405160e060020a63ffffffff84160281526004810191909152602401602060405180830381600087803b151561121057600080fd5b6102c65a03f1151561122157600080fd5b5050506040518051905090509295509295509295565b6000611241612df6565b611249612df6565b611257898989898989610ae4565b90935091506112688988848b611935565b905096509650969350505050565b6000611280612df6565b611289866119b7565b905061129781868686611a36565b9097909650945050505050565b60006112ae612df6565b61128986611a90565b600082600160a060020a0316637a0e03ec836040517f64656e746973742f617665726167652d726174696e67000000000000000000008152600160a060020a0391909116606060020a026016820152602a01604051809103902060006040516020015260405160e060020a63ffffffff84160281526004810191909152602401602060405180830381600087803b151561135057600080fd5b6102c65a03f1151561136157600080fd5b5050506040518051949350505050565b600080600084600160a060020a0316637a0e03ec856040517f757365722f67656e6465720000000000000000000000000000000000000000008152600160a060020a0391909116606060020a02600b820152601f01604051809103902060006040516020015260405160e060020a63ffffffff84160281526004810191909152602401602060405180830381600087803b151561140d57600080fd5b6102c65a03f1151561141e57600080fd5b5050506040518051935050600160a060020a03851663025ec81a856040517f757365722f736f6369616c2d73656375726974792d6e756d62657200000000008152600160a060020a0391909116606060020a02601b820152602f01604051809103902060006040516020015260405160e060020a63ffffffff84160281526004810191909152602401602060405180830381600087803b15156114c057600080fd5b6102c65a03f115156114d157600080fd5b5050506040518051925050600160a060020a03851663025ec81a856040517f757365722f6269727468646179000000000000000000000000000000000000008152600160a060020a0391909116606060020a02600d820152602101604051809103902060006040516020015260405160e060020a63ffffffff84160281526004810191909152602401602060405180830381600087803b1515610ac057600080fd5b600061157d612df6565b611585612df6565b61158d612df6565b6115998c8b8b8b611b09565b91506115a78c8b8b8e611c15565b90506115b48c8383611ce0565b92506115c283888888611a36565b909d909c509a5050505050505050505050565b6000836001141561169f5784600160a060020a031663bdc963d883856040517f64656e746973742f7363616e2d736572766963652f66656500000000000000008152600160a060020a0392909216606060020a026018830152602c820152604c01604051809103902060006040516020015260405160e060020a63ffffffff84160281526004810191909152602401602060405180830381600087803b151561167d57600080fd5b6102c65a03f1151561168e57600080fd5b5050506040518051905090506104df565b83600214156117455784600160a060020a031663bdc963d883856040517f64656e746973742f74726561746d656e742d736572766963652f6665650000008152600160a060020a0392909216606060020a02601d8301526031820152605101604051809103902060006040516020015260405160e060020a63ffffffff84160281526004810191909152602401602060405180830381600087803b151561167d57600080fd5b506000949350505050565b611758612df6565b826001141561180e576118078483604080519081016040908152601482527f64656e746973742f7363616e2d73657276696365000000000000000000000000602083015280519081016040908152601b82527f64656e746973742f7363616e2d73657276696365732d636f756e74000000000060208301528051908101604052601881527f64656e746973742f7363616e2d736572766963652d6b657900000000000000006020820152611dbc565b90506118bf565b82600214156118bf576118078483604080519081016040908152601982527f64656e746973742f74726561746d656e742d73657276696365000000000000006020830152805190810160405280602081526020017f64656e746973742f74726561746d656e742d73657276696365732d636f756e7481525060408051908101604052601d81527f64656e746973742f74726561746d656e742d736572766963652d6b65790000006020820152611dbc565b9392505050565b60006118d0612df6565b8551915060008651111561192c5785518511156118fc57816118f3600088612020565b9150915061192c565b8551848601111561190e578486510393505b61192986875187860181151561192057fe5b068660016120a4565b90505b94509492505050565b61193d612df6565b6000835160405180591061194e5750595b90808252806020026020018201604052509150600090505b83518110156119ae57611990868686848151811061198057fe5b90602001906020020151866115d5565b82828151811061199c57fe5b60209081029091010152600101611966565b50949350505050565b6119bf612df6565b611a3082604080519081016040908152600c82527f64656e74697374732f696473000000000000000000000000000000000000000060208301528051908101604052600e81527f64656e74697374732f636f756e7400000000000000000000000000000000000060208201526121c4565b92915050565b6000611a40612df6565b8551915060008651111561192c578551851115611a6357816118f36000886123c3565b85518486011115611a75578486510393505b611929868751878601811515611a8757fe5b0686600161244d565b611a98612df6565b611a3082604080519081016040908152600c82527f6d616e61676572732f696473000000000000000000000000000000000000000060208301528051908101604052600e81527f6d616e61676572732f636f756e7400000000000000000000000000000000000060208201526121c4565b611b11612df6565b611b19612df6565b600080600080611b2a8a8a8a61257b565b94508451604051805910611b3b5750595b9080825280602002602001820160405250955060009350600092505b8451831015611bfd57848381518110611b6c57fe5b906020019060200201519150611b848a8a8a856115d5565b905086600081518110611b9357fe5b906020019060200201518110158015611bc2575086600181518110611bb457fe5b906020019060200201518111155b15611bf25781868581518110611bd457fe5b600160a060020a039092166020928302909101909101526001909301925b600190920191611b57565b611c0784876123c3565b9a9950505050505050505050565b611c1d612df6565b611c25612df6565b6000806000611c3589898961257b565b93508351604051805910611c465750595b9080825280602002602001820160405250945060009250600091505b8351821015611cc957838281518110611c7757fe5b906020019060200201519050611c8e8982886126e3565b15611cbe5780858481518110611ca057fe5b600160a060020a039092166020928302909101909101526001909201915b600190910190611c62565b611cd383866123c3565b9998505050505050505050565b611ce8612df6565b600084600160a060020a031663bdc963d86040517f64656e74697374732f636f756e740000000000000000000000000000000000008152600e01604051809103902060006040516020015260405160e060020a63ffffffff84160281526004810191909152602401602060405180830381600087803b1515611d6957600080fd5b6102c65a03f11515611d7a57600080fd5b5050506040518051915050801515611d9157611db4565b611d9a846127af565b9350611da5836127af565b9250611db1848461289d565b91505b509392505050565b611dc4612df6565b600080600080611dd58a8a89612a0b565b935083604051805910611de55750595b9080825280602002602001820160405250945060009250600091505b8382101561201a5789600160a060020a031663bdc963d8878b856040518084805190602001908083835b60208310611e4a5780518252601f199092019160209182019101611e2b565b6001836020036101000a03801982511681845116808217855250505050505090500183600160a060020a0316600160a060020a0316606060020a0281526014018281526020019350505050604051809103902060006040516020015260405160e060020a63ffffffff84160281526004810191909152602401602060405180830381600087803b1515611edc57600080fd5b6102c65a03f11515611eed57600080fd5b5050506040518051915050600160a060020a038a16637a0e03ec898b846040518084805190602001908083835b60208310611f395780518252601f199092019160209182019101611f1a565b6001836020036101000a03801982511681845116808217855250505050505090500183600160a060020a0316600160a060020a0316606060020a0281526014018281526020019350505050604051809103902060006040516020015260405160e060020a63ffffffff84160281526004810191909152602401602060405180830381600087803b1515611fcb57600080fd5b6102c65a03f11515611fdc57600080fd5b5050506040518051905060ff166001141561200f5780858481518110611ffe57fe5b602090810290910101526001909201915b600190910190611e01565b611c0783865b612028612df6565b6000825184111561203b5782915061209d565b836040518059106120495750595b90808252806020026020018201604052509150600090505b8381101561209d5782818151811061207557fe5b9060200190602002015182828151811061208b57fe5b60209081029091010152600101612061565b5092915050565b6120ac612df6565b60008080808851925082881015806120c2575086155b156120cc576121b8565b866040518059106120da5750595b908082528060200260200182016040525094508791505b868801821015612144578183141561210857612144565b88828151811061211457fe5b9060200190602002015185858151811061212a57fe5b6020908102909101015260019384019391909101906120f1565b85801561215057508684105b156121ae5750600090508286035b8082116121ae5783871415612172576121ae565b88828151811061217e57fe5b9060200190602002015185858151811061219457fe5b60209081029091010152600193840193919091019061215e565b611cd38486612020565b50505050949350505050565b6121cc612df6565b60008085600160a060020a031663bdc963d8856040518082805190602001908083835b6020831061220e5780518252601f1990920191602091820191016121ef565b6001836020036101000a0380198251168184511617909252505050919091019250604091505051809103902060006040516020015260405160e060020a63ffffffff84160281526004810191909152602401602060405180830381600087803b151561227957600080fd5b6102c65a03f1151561228a57600080fd5b505050604051805190509150816040518059106122a45750595b90808252806020026020018201604052509250600090505b818110156123ba5785600160a060020a0316634c77e5ba86836040518083805190602001908083835b602083106123045780518252601f1990920191602091820191016122e5565b6001836020036101000a03801982511681845116179092525050509190910192835250506020019050604051809103902060006040516020015260405160e060020a63ffffffff84160281526004810191909152602401602060405180830381600087803b151561237457600080fd5b6102c65a03f1151561238557600080fd5b5050506040518051905083828151811061239b57fe5b600160a060020a039092166020928302909101909101526001016122bc565b50509392505050565b6123cb612df6565b600082518411156123de5782915061209d565b836040518059106123ec5750595b90808252806020026020018201604052509150600090505b8381101561209d5782818151811061241857fe5b9060200190602002015182828151811061242e57fe5b600160a060020a03909216602092830290910190910152600101612404565b612455612df6565b600080808088519250828810158061246b575086155b15612475576121b8565b866040518059106124835750595b908082528060200260200182016040525094508791505b8688018210156124fa57818314156124b1576124fa565b8882815181106124bd57fe5b906020019060200201518585815181106124d357fe5b600160a060020a03909216602092830290910190910152600193840193919091019061249a565b85801561250657508684105b156125715750600090508286035b808211612571578387141561252857612571565b88828151811061253457fe5b9060200190602002015185858151811061254a57fe5b600160a060020a039092166020928302909101909101526001938401939190910190612514565b611cd384866123c3565b612583612df6565b8260011415612632576118078483604080519081016040908152601482527f7363616e2d736572766963652f64656e74697374000000000000000000000000602083015280519081016040908152601b82527f7363616e2d736572766963652f64656e74697374732d636f756e74000000000060208301528051908101604052601881527f7363616e2d736572766963652f64656e746973742d6b657900000000000000006020820152612afa565b82600214156118bf576118078483604080519081016040908152601982527f74726561746d656e742d736572766963652f64656e74697374000000000000006020830152805190810160405280602081526020017f74726561746d656e742d736572766963652f64656e74697374732d636f756e7481525060408051908101604052601d81527f74726561746d656e742d736572766963652f64656e746973742d6b65790000006020820152612afa565b60008115156126f4575060016118bf565b83600160a060020a031663bdc963d8846040517f757365722f7374617465000000000000000000000000000000000000000000008152600160a060020a0391909116606060020a02600a820152601e01604051809103902060006040516020015260405160e060020a63ffffffff84160281526004810191909152602401602060405180830381600087803b151561278b57600080fd5b6102c65a03f1151561279c57600080fd5b5050506040518051909214949350505050565b6127b7612df6565b60016000805b8451831015612894578483815181106127d257fe5b9060200190602002015191508290505b60008111801561281b575081600160a060020a031685600183038151811061280657fe5b90602001906020020151600160a060020a0316115b156128655784600182038151811061282f57fe5b9060200190602002015185828151811061284557fe5b600160a060020a03909216602092830290910190910152600019016127e2565b8185828151811061287257fe5b600160a060020a039092166020928302909101909101526001909201916127bd565b50929392505050565b6128a5612df6565b600080600080600087519450865193508415806128c0575083155b156128ca57612a00565b846040518059106128d85750595b908082528060200260200182016040525095506000925060009150600090505b848310801561290657508382105b156129f35786828151811061291757fe5b90602001906020020151600160a060020a031688848151811061293657fe5b90602001906020020151600160a060020a0316111561295a576001909101906129ee565b86828151811061296657fe5b90602001906020020151600160a060020a031688848151811061298557fe5b90602001906020020151600160a060020a031610156129a9576001909201916129ee565b8783815181106129b557fe5b906020019060200201518682815181106129cb57fe5b600160a060020a0390921660209283029091019091015260019283019291820191015b6128f8565b6129fd81876123c3565b95505b505050505092915050565b600083600160a060020a031663bdc963d883856040518083805190602001908083835b60208310612a4d5780518252601f199092019160209182019101612a2e565b6001836020036101000a03801982511681845116808217855250505050505090500182600160a060020a0316600160a060020a0316606060020a02815260140192505050604051809103902060006040516020015260405160e060020a63ffffffff84160281526004810191909152602401602060405180830381600087803b1515612ad857600080fd5b6102c65a03f11515612ae957600080fd5b505050604051805195945050505050565b612b02612df6565b600080600080612b138a8a89612d44565b935083604051805910612b235750595b9080825280602002602001820160405250945060009250600091505b83821015612d3a5789600160a060020a0316634c77e5ba878b856040518084805190602001908083835b60208310612b885780518252601f199092019160209182019101612b69565b6001836020036101000a038019825116818451161790925250505091909101938452505060208201526040908101915051809103902060006040516020015260405160e060020a63ffffffff84160281526004810191909152602401602060405180830381600087803b1515612bfd57600080fd5b6102c65a03f11515612c0e57600080fd5b5050506040518051915050600160a060020a038a16637a0e03ec898b846040518084805190602001908083835b60208310612c5a5780518252601f199092019160209182019101612c3b565b6001836020036101000a0380198251168184511617909252505050919091019384525050600160a060020a0316606060020a0260208201526034019050604051809103902060006040516020015260405160e060020a63ffffffff84160281526004810191909152602401602060405180830381600087803b1515612cde57600080fd5b6102c65a03f11515612cef57600080fd5b5050506040518051905060ff1660011415612d2f5780858481518110612d1157fe5b600160a060020a039092166020928302909101909101526001909201915b600190910190612b3f565b611c0783866123c3565b600083600160a060020a031663bdc963d883856040518083805190602001908083835b60208310612d865780518252601f199092019160209182019101612d67565b6001836020036101000a03801982511681845116179092525050509190910192835250506020019050604051809103902060006040516020015260405160e060020a63ffffffff84160281526004810191909152602401602060405180830381600087803b1515612ad857600080fd5b602060405190810160405260008152905600a165627a7a723058204ad7efdee6adcccf3cc529652a27db7130fb8e787532c208ede1824b74ff46550029",
  "source": "pragma solidity 0.4.17;\n\nimport \"./ODLLRestrictor.sol\";\nimport \"../lib/odll/userManager.sol\";\n\ncontract ODLLUserReader is ODLLRestrictor {\n  \n  function ODLLUserReader(address _dbAddress) public {\n    require(_dbAddress != 0x0);\n    dbAddress = _dbAddress;\n  }\n\n  function getUserIdentityData(address userId)\n    external\n    view\n    returns (\n      uint8,\n      bytes32,\n      bytes32,\n      bytes32\n    )\n  {\n    return userManager.getUserIdentityData(dbAddress, userId);\n  }\n\n  function getUserContactData(address userId)\n    external\n    view\n    returns (\n      bytes32,\n      bytes32,\n      bytes32,\n      uint,\n      bytes32,\n      uint\n    )\n  {\n    return userManager.getUserContactData(dbAddress, userId);\n  }\n\n  function getUserPersonalData(address userId)\n    external\n    view\n    returns (\n      uint8 gender,\n      bytes32 socialSecurityNumber,\n      bytes32 birthday\n    )\n  {\n    (gender, socialSecurityNumber, birthday) = userManager.getUserPersonalData(dbAddress, userId);\n  }\n\n  function findDentists(\n    uint stateId,\n    uint serviceTypeId,\n    uint serviceId,\n    uint[] budget, // within budget range\n    uint offset, // starting from offset: 0-based\n    uint limit, // not more than limit\n    uint seed // seed value to give the illusion of randomisation\n    )\n      external\n      view\n      returns (\n        uint,\n        address[]\n      )\n  {\n    return userManager.findDentists(dbAddress, stateId, serviceTypeId, serviceId, budget, offset, limit, seed);\n  }\n\n  function getDentistIdentityData(address dentistId)\n    external\n    view\n    returns (\n      bool,\n      bool,\n      bytes32\n    ) {\n    return userManager.getDentistIdentityData(dbAddress, dentistId);\n  }\n\n  function getDentistFeeData(uint serviceTypeId, uint serviceId, address dentistId)\n    external\n    view\n    returns (\n      uint fee\n    ) {\n    fee = userManager.getDentistFeeData(dbAddress, serviceTypeId, serviceId, dentistId);\n  }\n\n  function getDentistRatingData(address dentistId)\n    external\n    view\n    returns (\n      uint rating\n    ) {\n    rating = userManager.getDentistAverageRating(dbAddress, dentistId);\n  }\n\n  function fetchDentists(\n    uint offset, // starting from offset: 0-based\n    uint limit, // not more than limit\n    uint seed // seed value to give the illusion of randomisation\n  )\n    external\n    view\n    returns (\n      uint,\n      address[]\n    )\n  {\n    return userManager.fetchDentists(dbAddress, offset, limit, seed);\n  }\n\n  function fetchManagers(\n    uint offset, // starting from offset: 0-based\n    uint limit, // not more than limit\n    uint seed // seed value to give the illusion of randomisation\n  )\n    external\n    view\n    returns (\n      uint,\n      address[]\n    )\n  {\n    return userManager.fetchManagers(dbAddress, offset, limit, seed);\n  }\n\n  function fetchServicesWithFees(\n    address userId,\n    uint serviceTypeId,\n    uint offset, // starting from offset: 0-based\n    uint limit, // not more than limit\n    uint seed // seed value to give the illusion of randomisation\n  )\n    external\n    view\n    returns (\n      uint,\n      uint[],\n      uint[]\n    )\n  {\n    return userManager.fetchServicesWithFees(dbAddress, userId, serviceTypeId, offset, limit, seed);\n  }\n\n  function fetchServices(\n    address userId,\n    uint serviceTypeId,\n    uint offset, // starting from offset: 0-based\n    uint limit, // not more than limit\n    uint seed // seed value to give the illusion of randomisation\n  )\n    external\n    view\n    returns (\n      uint,\n      uint[]\n    )\n  {\n    return userManager.fetchServices(dbAddress, userId, serviceTypeId, offset, limit, seed);\n  }\n\n  function destroySelf(address callerAddress, address newContractAddress)\n    external\n    onlyOwnerCanCall(callerAddress)\n  {\n    selfdestruct(newContractAddress);\n  }\n}\n\n",
  "sourcePath": "/home/daniel/dev/vue/apps/oral-data-link/contracts/odll/ODLLUserReader.sol",
  "schemaVersion": "1.0.0",
  "updatedAt": "2017-10-24T20:40:42.417Z"
}