{
  "contractName": "PostApplicationReader",
  "abi": [
    {
      "constant": true,
      "inputs": [
        {
          "name": "patientId",
          "type": "address"
        },
        {
          "name": "offset",
          "type": "uint256"
        },
        {
          "name": "limit",
          "type": "uint256"
        },
        {
          "name": "seed",
          "type": "uint256"
        }
      ],
      "name": "fetchCasesForPatient",
      "outputs": [
        {
          "name": "",
          "type": "uint256"
        },
        {
          "name": "",
          "type": "uint256[]"
        }
      ],
      "payable": false,
      "stateMutability": "view",
      "type": "function"
    },
    {
      "constant": false,
      "inputs": [
        {
          "name": "userId",
          "type": "address"
        },
        {
          "name": "paymentId",
          "type": "uint256"
        }
      ],
      "name": "lockPayment",
      "outputs": [],
      "payable": false,
      "stateMutability": "nonpayable",
      "type": "function"
    },
    {
      "constant": true,
      "inputs": [],
      "name": "smartContractStatus",
      "outputs": [
        {
          "name": "",
          "type": "uint8"
        }
      ],
      "payable": false,
      "stateMutability": "view",
      "type": "function"
    },
    {
      "constant": true,
      "inputs": [
        {
          "name": "dentistId",
          "type": "address"
        },
        {
          "name": "offset",
          "type": "uint256"
        },
        {
          "name": "limit",
          "type": "uint256"
        },
        {
          "name": "seed",
          "type": "uint256"
        }
      ],
      "name": "fetchTreatmentsForDentist",
      "outputs": [
        {
          "name": "",
          "type": "uint256"
        },
        {
          "name": "",
          "type": "uint256[]"
        }
      ],
      "payable": false,
      "stateMutability": "view",
      "type": "function"
    },
    {
      "constant": true,
      "inputs": [
        {
          "name": "dentistId",
          "type": "address"
        },
        {
          "name": "offset",
          "type": "uint256"
        },
        {
          "name": "limit",
          "type": "uint256"
        },
        {
          "name": "seed",
          "type": "uint256"
        }
      ],
      "name": "fetchCasesForDentist",
      "outputs": [
        {
          "name": "",
          "type": "uint256"
        },
        {
          "name": "",
          "type": "uint256[]"
        }
      ],
      "payable": false,
      "stateMutability": "view",
      "type": "function"
    },
    {
      "constant": true,
      "inputs": [
        {
          "name": "patientId",
          "type": "address"
        },
        {
          "name": "offset",
          "type": "uint256"
        },
        {
          "name": "limit",
          "type": "uint256"
        },
        {
          "name": "seed",
          "type": "uint256"
        }
      ],
      "name": "fetchTreatmentsForPatient",
      "outputs": [
        {
          "name": "",
          "type": "uint256"
        },
        {
          "name": "",
          "type": "uint256[]"
        }
      ],
      "payable": false,
      "stateMutability": "view",
      "type": "function"
    },
    {
      "constant": true,
      "inputs": [],
      "name": "owner",
      "outputs": [
        {
          "name": "",
          "type": "address"
        }
      ],
      "payable": false,
      "stateMutability": "view",
      "type": "function"
    },
    {
      "constant": true,
      "inputs": [],
      "name": "dbAddress",
      "outputs": [
        {
          "name": "",
          "type": "address"
        }
      ],
      "payable": false,
      "stateMutability": "view",
      "type": "function"
    },
    {
      "constant": false,
      "inputs": [
        {
          "name": "newOwner",
          "type": "address"
        }
      ],
      "name": "transferOwnership",
      "outputs": [],
      "payable": false,
      "stateMutability": "nonpayable",
      "type": "function"
    },
    {
      "inputs": [
        {
          "name": "_dbAddress",
          "type": "address"
        }
      ],
      "payable": false,
      "stateMutability": "nonpayable",
      "type": "constructor"
    },
    {
      "anonymous": false,
      "inputs": [
        {
          "indexed": false,
          "name": "paymentId",
          "type": "uint256"
        }
      ],
      "name": "PaymentLocked",
      "type": "event"
    },
    {
      "anonymous": false,
      "inputs": [
        {
          "indexed": false,
          "name": "status",
          "type": "uint8"
        }
      ],
      "name": "OnSmartContractStatusSet",
      "type": "event"
    },
    {
      "anonymous": false,
      "inputs": [
        {
          "indexed": true,
          "name": "previousOwner",
          "type": "address"
        },
        {
          "indexed": true,
          "name": "newOwner",
          "type": "address"
        }
      ],
      "name": "OwnershipTransferred",
      "type": "event"
    }
  ],
  "bytecode": "0x6060604052341561000f57600080fd5b60405160208061161183398101604052808051906020019091905050336000806101000a81548173ffffffffffffffffffffffffffffffffffffffff021916908373ffffffffffffffffffffffffffffffffffffffff16021790555060008173ffffffffffffffffffffffffffffffffffffffff161415151561009157600080fd5b80600160006101000a81548173ffffffffffffffffffffffffffffffffffffffff021916908373ffffffffffffffffffffffffffffffffffffffff1602179055505061152f806100e26000396000f300606060405260043610610098576000357c0100000000000000000000000000000000000000000000000000000000900463ffffffff1680620687061461009d5780633f4b14701461014d5780634c8ddddc1461018f57806358d64f02146101be5780637009dc2d1461026e57806387f2a84d1461031e5780638da5cb5b146103ce57806391e06b6d14610423578063f2fde38b14610478575b600080fd5b34156100a857600080fd5b6100ef600480803573ffffffffffffffffffffffffffffffffffffffff169060200190919080359060200190919080359060200190919080359060200190919050506104b1565b6040518083815260200180602001828103825283818151815260200191508051906020019060200280838360005b8381101561013857808201518184015260208101905061011d565b50505050905001935050505060405180910390f35b341561015857600080fd5b61018d600480803573ffffffffffffffffffffffffffffffffffffffff169060200190919080359060200190919050506104f7565b005b341561019a57600080fd5b6101a261074e565b604051808260ff1660ff16815260200191505060405180910390f35b34156101c957600080fd5b610210600480803573ffffffffffffffffffffffffffffffffffffffff16906020019091908035906020019091908035906020019091908035906020019091905050610761565b6040518083815260200180602001828103825283818151815260200191508051906020019060200280838360005b8381101561025957808201518184015260208101905061023e565b50505050905001935050505060405180910390f35b341561027957600080fd5b6102c0600480803573ffffffffffffffffffffffffffffffffffffffff169060200190919080359060200190919080359060200190919080359060200190919050506107a7565b6040518083815260200180602001828103825283818151815260200191508051906020019060200280838360005b838110156103095780820151818401526020810190506102ee565b50505050905001935050505060405180910390f35b341561032957600080fd5b610370600480803573ffffffffffffffffffffffffffffffffffffffff169060200190919080359060200190919080359060200190919080359060200190919050506107ed565b6040518083815260200180602001828103825283818151815260200191508051906020019060200280838360005b838110156103b957808201518184015260208101905061039e565b50505050905001935050505060405180910390f35b34156103d957600080fd5b6103e1610833565b604051808273ffffffffffffffffffffffffffffffffffffffff1673ffffffffffffffffffffffffffffffffffffffff16815260200191505060405180910390f35b341561042e57600080fd5b610436610858565b604051808273ffffffffffffffffffffffffffffffffffffffff1673ffffffffffffffffffffffffffffffffffffffff16815260200191505060405180910390f35b341561048357600080fd5b6104af600480803573ffffffffffffffffffffffffffffffffffffffff1690602001909190505061087e565b005b60006104bb6114ef565b6104ea600160009054906101000a900473ffffffffffffffffffffffffffffffffffffffff16878787876109d3565b9150915094509492505050565b8161050181610a07565b151561050c57600080fd5b8160018060ff16600160009054906101000a900473ffffffffffffffffffffffffffffffffffffffff1673ffffffffffffffffffffffffffffffffffffffff16637a0e03ec8460405180807f7061796d656e742f737461746500000000000000000000000000000000000000815250600d0182815260200191505060405180910390206000604051602001526040518263ffffffff167c0100000000000000000000000000000000000000000000000000000000028152600401808260001916600019168152602001915050602060405180830381600087803b15156105f157600080fd5b6102c65a03f1151561060257600080fd5b5050506040518051905060ff1614151561061b57600080fd5b600160009054906101000a900473ffffffffffffffffffffffffffffffffffffffff1673ffffffffffffffffffffffffffffffffffffffff16630bd851588560405180807f7061796d656e742f737461746500000000000000000000000000000000000000815250600d01828152602001915050604051809103902060026040518363ffffffff167c01000000000000000000000000000000000000000000000000000000000281526004018083600019166000191681526020018260ff16815260200192505050600060405180830381600087803b15156106fc57600080fd5b6102c65a03f1151561070d57600080fd5b5050507fa5f78a79f83dfad686a63ca003a42f6c262d9fdc43a6742c56f5c27c11b9a1e2846040518082815260200191505060405180910390a15050505050565b600160149054906101000a900460ff1681565b600061076b6114ef565b61079a600160009054906101000a900473ffffffffffffffffffffffffffffffffffffffff1687878787610a2e565b9150915094509492505050565b60006107b16114ef565b6107e0600160009054906101000a900473ffffffffffffffffffffffffffffffffffffffff1687878787610a62565b9150915094509492505050565b60006107f76114ef565b610826600160009054906101000a900473ffffffffffffffffffffffffffffffffffffffff1687878787610a96565b9150915094509492505050565b6000809054906101000a900473ffffffffffffffffffffffffffffffffffffffff1681565b600160009054906101000a900473ffffffffffffffffffffffffffffffffffffffff1681565b6000809054906101000a900473ffffffffffffffffffffffffffffffffffffffff1673ffffffffffffffffffffffffffffffffffffffff163373ffffffffffffffffffffffffffffffffffffffff161415156108d957600080fd5b600073ffffffffffffffffffffffffffffffffffffffff168173ffffffffffffffffffffffffffffffffffffffff161415151561091557600080fd5b8073ffffffffffffffffffffffffffffffffffffffff166000809054906101000a900473ffffffffffffffffffffffffffffffffffffffff1673ffffffffffffffffffffffffffffffffffffffff167f8be0079c531659141344cd1fd0a4f28419497f9722a3daafe3b4186f6b6457e060405160405180910390a3806000806101000a81548173ffffffffffffffffffffffffffffffffffffffff021916908373ffffffffffffffffffffffffffffffffffffffff16021790555050565b60006109dd6114ef565b6109e78787610aca565b90506109f581868686610b50565b80925081935050509550959350505050565b6000610a14826001610bc0565b8015610a275750610a26826001610bdb565b5b9050919050565b6000610a386114ef565b610a428787610bf6565b9050610a5081868686610b50565b80925081935050509550959350505050565b6000610a6c6114ef565b610a768787610c7c565b9050610a8481868686610b50565b80925081935050509550959350505050565b6000610aa06114ef565b610aaa8787610d02565b9050610ab881868686610b50565b80925081935050509550959350505050565b610ad26114ef565b610b4883836040805190810160405280600c81526020017f70617469656e742f6361736500000000000000000000000000000000000000008152506040805190810160405280601381526020017f70617469656e742f63617365732d636f756e7400000000000000000000000000815250610d88565b905092915050565b6000610b5a6114ef565b85519150600086511115610bb6578551851115610b865781610b7d600088610f4b565b91509150610bb7565b85518486011115610b98578486510393505b610bb3868751878601811515610baa57fe5b06866001610fe0565b90505b5b94509492505050565b6000610bcb8361112b565b60ff168260ff1614905092915050565b6000610be683611268565b60ff168260ff1614905092915050565b610bfe6114ef565b610c7483836040805190810160405280601181526020017f64656e746973742f74726561746d656e740000000000000000000000000000008152506040805190810160405280601881526020017f64656e746973742f74726561746d656e74732d636f756e740000000000000000815250610d88565b905092915050565b610c846114ef565b610cfa83836040805190810160405280600c81526020017f64656e746973742f6361736500000000000000000000000000000000000000008152506040805190810160405280601381526020017f64656e746973742f63617365732d636f756e7400000000000000000000000000815250610d88565b905092915050565b610d0a6114ef565b610d8083836040805190810160405280601181526020017f70617469656e742f74726561746d656e740000000000000000000000000000008152506040805190810160405280601881526020017f70617469656e742f74726561746d656e74732d636f756e740000000000000000815250610d88565b905092915050565b610d906114ef565b600080610d9e8787866113a5565b915081604051805910610dae5750595b90808252806020026020018201604052509250600090505b81811015610f3e578673ffffffffffffffffffffffffffffffffffffffff1663bdc963d88688846040518084805190602001908083835b602083101515610e225780518252602082019150602081019050602083039250610dfd565b6001836020036101000a0380198251168184511680821785525050505050509050018373ffffffffffffffffffffffffffffffffffffffff1673ffffffffffffffffffffffffffffffffffffffff166c01000000000000000000000000028152601401828152602001935050505060405180910390206000604051602001526040518263ffffffff167c0100000000000000000000000000000000000000000000000000000000028152600401808260001916600019168152602001915050602060405180830381600087803b1515610efa57600080fd5b6102c65a03f11515610f0b57600080fd5b505050604051805190508382815181101515610f2357fe5b90602001906020020181815250508080600101915050610dc6565b8292505050949350505050565b610f536114ef565b60008251841115610f6657829150610fd9565b83604051805910610f745750595b90808252806020026020018201604052509150600090505b83811015610fd5578281815181101515610fa257fe5b906020019060200201518282815181101515610fba57fe5b90602001906020020181815250508080600101915050610f8c565b8191505b5092915050565b610fe86114ef565b600080600080600093508851925082881015806110055750600087145b156110125784945061111f565b866040518059106110205750595b908082528060200260200182016040525094508791505b868801821015611097578183141561104e57611097565b888281518110151561105c57fe5b90602001906020020151858581518110151561107457fe5b906020019060200201818152505083806001019450508180600101925050611037565b8580156110a357508684105b15611112578387039050600091505b808211151561111157838714156110c857611111565b88828151811015156110d657fe5b9060200190602002015185858151811015156110ee57fe5b9060200190602002018181525050838060010194505081806001019250506110b2565b5b61111c8486610f4b565b94505b50505050949350505050565b6000600160009054906101000a900473ffffffffffffffffffffffffffffffffffffffff1673ffffffffffffffffffffffffffffffffffffffff16637a0e03ec8360405180807f757365722f7479706500000000000000000000000000000000000000000000008152506009018273ffffffffffffffffffffffffffffffffffffffff1673ffffffffffffffffffffffffffffffffffffffff166c0100000000000000000000000002815260140191505060405180910390206000604051602001526040518263ffffffff167c0100000000000000000000000000000000000000000000000000000000028152600401808260001916600019168152602001915050602060405180830381600087803b151561124657600080fd5b6102c65a03f1151561125757600080fd5b505050604051805190509050919050565b6000600160009054906101000a900473ffffffffffffffffffffffffffffffffffffffff1673ffffffffffffffffffffffffffffffffffffffff16637a0e03ec8360405180807f757365722f737461747573000000000000000000000000000000000000000000815250600b018273ffffffffffffffffffffffffffffffffffffffff1673ffffffffffffffffffffffffffffffffffffffff166c0100000000000000000000000002815260140191505060405180910390206000604051602001526040518263ffffffff167c0100000000000000000000000000000000000000000000000000000000028152600401808260001916600019168152602001915050602060405180830381600087803b151561138357600080fd5b6102c65a03f1151561139457600080fd5b505050604051805190509050919050565b60008373ffffffffffffffffffffffffffffffffffffffff1663bdc963d883856040518083805190602001908083835b6020831015156113fa57805182526020820191506020810190506020830392506113d5565b6001836020036101000a0380198251168184511680821785525050505050509050018273ffffffffffffffffffffffffffffffffffffffff1673ffffffffffffffffffffffffffffffffffffffff166c010000000000000000000000000281526014019250505060405180910390206000604051602001526040518263ffffffff167c0100000000000000000000000000000000000000000000000000000000028152600401808260001916600019168152602001915050602060405180830381600087803b15156114cb57600080fd5b6102c65a03f115156114dc57600080fd5b5050506040518051905090509392505050565b6020604051908101604052806000815250905600a165627a7a72305820a3428ef2b7a9635316d6290cb875c5ee0170a6b3931baab5f8aa77a6d2b7318c0029",
  "source": "pragma solidity 0.4.18;\n\nimport \"./Restrictor.sol\";\nimport \"../lib/odll/userManager.sol\";\n\ncontract PostApplicationReader is Restrictor {\n\n  function PostApplicationReader (address _dbAddress) public {\n    require(_dbAddress != 0x0);\n    dbAddress = _dbAddress;\n  }\n\n  function fetchCasesForPatient (\n    address patientId,\n    uint offset, // starting from offset: 0-based\n    uint limit, // not more than limit\n    uint seed // seed value to give the illusion of randomisation\n  )\n    external\n    view\n    returns (\n      uint,\n      uint[]\n    )\n  {\n    return userManager.fetchPatientCases(dbAddress, patientId, offset, limit, seed);\n  }\n\n  function fetchCasesForDentist (\n    address dentistId,\n    uint offset, // starting from offset: 0-based\n    uint limit, // not more than limit\n    uint seed // seed value to give the illusion of randomisation\n  )\n    external\n    view\n    returns (\n      uint,\n      uint[]\n    )\n  {\n    return userManager.fetchDentistCases(dbAddress, dentistId, offset, limit, seed);\n  }\n\n  function fetchTreatmentsForPatient (\n    address patientId,\n    uint offset, // starting from offset: 0-based\n    uint limit, // not more than limit\n    uint seed // seed value to give the illusion of randomisation\n  )\n    external\n    view\n    returns (\n      uint,\n      uint[]\n    )\n  {\n    return userManager.fetchPatientTreatment(dbAddress, patientId, offset, limit, seed);\n  }\n\n  function fetchTreatmentsForDentist (\n    address dentistId,\n    uint offset, // starting from offset: 0-based\n    uint limit, // not more than limit\n    uint seed // seed value to give the illusion of randomisation\n  )\n    external\n    view\n    returns (\n      uint,\n      uint[]\n    )\n  {\n    return userManager.fetchDentistTreatment(dbAddress, dentistId, offset, limit, seed);\n  }\n}\n",
  "sourcePath": "/Users/danielokwufulueze/dev/vue/apps/oraldatalink/contracts/odll/PostApplicationReader.sol",
  "compiler": {
    "name": "solc",
    "version": "0.4.18+commit.9cf6e910.Emscripten.clang"
  },
  "schemaVersion": "1.0.1",
  "updatedAt": "2018-02-03T16:42:35.839Z"
}