{
  "contractName": "PostApplicationReader2",
  "abi": [
    {
      "constant": true,
      "inputs": [
        {
          "name": "offset",
          "type": "uint256"
        },
        {
          "name": "limit",
          "type": "uint256"
        },
        {
          "name": "seed",
          "type": "uint256"
        }
      ],
      "name": "fetchAllCases",
      "outputs": [
        {
          "name": "",
          "type": "uint256"
        },
        {
          "name": "",
          "type": "uint256[]"
        }
      ],
      "payable": false,
      "stateMutability": "view",
      "type": "function"
    },
    {
      "constant": true,
      "inputs": [],
      "name": "smartContractStatus",
      "outputs": [
        {
          "name": "",
          "type": "uint8"
        }
      ],
      "payable": false,
      "stateMutability": "view",
      "type": "function"
    },
    {
      "constant": true,
      "inputs": [],
      "name": "owner",
      "outputs": [
        {
          "name": "",
          "type": "address"
        }
      ],
      "payable": false,
      "stateMutability": "view",
      "type": "function"
    },
    {
      "constant": true,
      "inputs": [],
      "name": "dbAddress",
      "outputs": [
        {
          "name": "",
          "type": "address"
        }
      ],
      "payable": false,
      "stateMutability": "view",
      "type": "function"
    },
    {
      "constant": true,
      "inputs": [
        {
          "name": "offset",
          "type": "uint256"
        },
        {
          "name": "limit",
          "type": "uint256"
        },
        {
          "name": "seed",
          "type": "uint256"
        }
      ],
      "name": "fetchAllTreatments",
      "outputs": [
        {
          "name": "",
          "type": "uint256"
        },
        {
          "name": "",
          "type": "uint256[]"
        }
      ],
      "payable": false,
      "stateMutability": "view",
      "type": "function"
    },
    {
      "constant": false,
      "inputs": [
        {
          "name": "newOwner",
          "type": "address"
        }
      ],
      "name": "transferOwnership",
      "outputs": [],
      "payable": false,
      "stateMutability": "nonpayable",
      "type": "function"
    },
    {
      "inputs": [
        {
          "name": "_dbAddress",
          "type": "address"
        }
      ],
      "payable": false,
      "stateMutability": "nonpayable",
      "type": "constructor"
    },
    {
      "anonymous": false,
      "inputs": [
        {
          "indexed": false,
          "name": "status",
          "type": "uint8"
        }
      ],
      "name": "OnSmartContractStatusSet",
      "type": "event"
    },
    {
      "anonymous": false,
      "inputs": [
        {
          "indexed": true,
          "name": "previousOwner",
          "type": "address"
        },
        {
          "indexed": true,
          "name": "newOwner",
          "type": "address"
        }
      ],
      "name": "OwnershipTransferred",
      "type": "event"
    }
  ],
  "bytecode": "0x6060604052341561000f57600080fd5b604051602080610c3a83398101604052808051906020019091905050336000806101000a81548173ffffffffffffffffffffffffffffffffffffffff021916908373ffffffffffffffffffffffffffffffffffffffff16021790555060008173ffffffffffffffffffffffffffffffffffffffff161415151561009157600080fd5b80600160006101000a81548173ffffffffffffffffffffffffffffffffffffffff021916908373ffffffffffffffffffffffffffffffffffffffff16021790555050610b58806100e26000396000f300606060405260043610610078576000357c0100000000000000000000000000000000000000000000000000000000900463ffffffff1680633282b1a41461007d5780634c8ddddc1461010e5780638da5cb5b1461013d57806391e06b6d14610192578063c7448a02146101e7578063f2fde38b14610278575b600080fd5b341561008857600080fd5b6100b060048080359060200190919080359060200190919080359060200190919050506102b1565b6040518083815260200180602001828103825283818151815260200191508051906020019060200280838360005b838110156100f95780820151818401526020810190506100de565b50505050905001935050505060405180910390f35b341561011957600080fd5b6101216102f5565b604051808260ff1660ff16815260200191505060405180910390f35b341561014857600080fd5b610150610308565b604051808273ffffffffffffffffffffffffffffffffffffffff1673ffffffffffffffffffffffffffffffffffffffff16815260200191505060405180910390f35b341561019d57600080fd5b6101a561032d565b604051808273ffffffffffffffffffffffffffffffffffffffff1673ffffffffffffffffffffffffffffffffffffffff16815260200191505060405180910390f35b34156101f257600080fd5b61021a6004808035906020019091908035906020019091908035906020019091905050610353565b6040518083815260200180602001828103825283818151815260200191508051906020019060200280838360005b83811015610263578082015181840152602081019050610248565b50505050905001935050505060405180910390f35b341561028357600080fd5b6102af600480803573ffffffffffffffffffffffffffffffffffffffff16906020019091905050610397565b005b60006102bb610b18565b6102e9600160009054906101000a900473ffffffffffffffffffffffffffffffffffffffff168686866104ec565b91509150935093915050565b600160149054906101000a900460ff1681565b6000809054906101000a900473ffffffffffffffffffffffffffffffffffffffff1681565b600160009054906101000a900473ffffffffffffffffffffffffffffffffffffffff1681565b600061035d610b18565b61038b600160009054906101000a900473ffffffffffffffffffffffffffffffffffffffff1686868661051e565b91509150935093915050565b6000809054906101000a900473ffffffffffffffffffffffffffffffffffffffff1673ffffffffffffffffffffffffffffffffffffffff163373ffffffffffffffffffffffffffffffffffffffff161415156103f257600080fd5b600073ffffffffffffffffffffffffffffffffffffffff168173ffffffffffffffffffffffffffffffffffffffff161415151561042e57600080fd5b8073ffffffffffffffffffffffffffffffffffffffff166000809054906101000a900473ffffffffffffffffffffffffffffffffffffffff1673ffffffffffffffffffffffffffffffffffffffff167f8be0079c531659141344cd1fd0a4f28419497f9722a3daafe3b4186f6b6457e060405160405180910390a3806000806101000a81548173ffffffffffffffffffffffffffffffffffffffff021916908373ffffffffffffffffffffffffffffffffffffffff16021790555050565b60006104f6610b18565b6104ff86610550565b905061050d818686866105d4565b809250819350505094509492505050565b6000610528610b18565b61053186610644565b905061053f818686866105d4565b809250819350505094509492505050565b610558610b18565b6105cd826040805190810160405280600481526020017f63617365000000000000000000000000000000000000000000000000000000008152506040805190810160405280600b81526020017f63617365732d636f756e740000000000000000000000000000000000000000008152506106c8565b9050919050565b60006105de610b18565b8551915060008651111561063a57855185111561060a5781610601600088610938565b9150915061063b565b8551848601111561061c578486510393505b61063786875187860181151561062e57fe5b068660016109cd565b90505b5b94509492505050565b61064c610b18565b6106c1826040805190810160405280600981526020017f74726561746d656e7400000000000000000000000000000000000000000000008152506040805190810160405280601081526020017f74726561746d656e74732d636f756e74000000000000000000000000000000008152506106c8565b9050919050565b6106d0610b18565b6000808573ffffffffffffffffffffffffffffffffffffffff1663bdc963d8856040518082805190602001908083835b6020831015156107255780518252602082019150602081019050602083039250610700565b6001836020036101000a03801982511681845116808217855250505050505090500191505060405180910390206000604051602001526040518263ffffffff167c0100000000000000000000000000000000000000000000000000000000028152600401808260001916600019168152602001915050602060405180830381600087803b15156107b457600080fd5b6102c65a03f115156107c557600080fd5b505050604051805190509150816040518059106107df5750595b90808252806020026020018201604052509250600090505b8181101561092c578573ffffffffffffffffffffffffffffffffffffffff1663bdc963d886836040518083805190602001908083835b602083101515610852578051825260208201915060208101905060208303925061082d565b6001836020036101000a0380198251168184511680821785525050505050509050018281526020019250505060405180910390206000604051602001526040518263ffffffff167c0100000000000000000000000000000000000000000000000000000000028152600401808260001916600019168152602001915050602060405180830381600087803b15156108e857600080fd5b6102c65a03f115156108f957600080fd5b50505060405180519050838281518110151561091157fe5b906020019060200201818152505080806001019150506107f7565b82925050509392505050565b610940610b18565b60008251841115610953578291506109c6565b836040518059106109615750595b90808252806020026020018201604052509150600090505b838110156109c257828181518110151561098f57fe5b9060200190602002015182828151811015156109a757fe5b90602001906020020181815250508080600101915050610979565b8191505b5092915050565b6109d5610b18565b600080600080600093508851925082881015806109f25750600087145b156109ff57849450610b0c565b86604051805910610a0d5750595b908082528060200260200182016040525094508791505b868801821015610a845781831415610a3b57610a84565b8882815181101515610a4957fe5b906020019060200201518585815181101515610a6157fe5b906020019060200201818152505083806001019450508180600101925050610a24565b858015610a9057508684105b15610aff578387039050600091505b8082111515610afe5783871415610ab557610afe565b8882815181101515610ac357fe5b906020019060200201518585815181101515610adb57fe5b906020019060200201818152505083806001019450508180600101925050610a9f565b5b610b098486610938565b94505b50505050949350505050565b6020604051908101604052806000815250905600a165627a7a72305820a21b19242e66e9265798cd44a07f6566b136325f62977f2673b8eda1a65fe89c0029",
  "source": "pragma solidity 0.4.18;\n\nimport \"./Restrictor.sol\";\nimport \"../lib/odll/userManager.sol\";\n\ncontract PostApplicationReader2 is Restrictor {\n\n  function PostApplicationReader2 (address _dbAddress) public {\n    require(_dbAddress != 0x0);\n    dbAddress = _dbAddress;\n  }\n\n  function fetchAllCases (\n    uint offset, // starting from offset: 0-based\n    uint limit, // not more than limit\n    uint seed // seed value to give the illusion of randomisation\n  )\n    external\n    view\n    returns (\n      uint,\n      uint[]\n    )\n  {\n    return userManager.fetchAllCases(dbAddress, offset, limit, seed);\n  }\n\n  function fetchAllTreatments (\n    uint offset, // starting from offset: 0-based\n    uint limit, // not more than limit\n    uint seed // seed value to give the illusion of randomisation\n  )\n    external\n    view\n    returns (\n      uint,\n      uint[]\n    )\n  {\n    return userManager.fetchAllTreatments(dbAddress, offset, limit, seed);\n  }\n}\n",
  "sourcePath": "/Users/danielokwufulueze/dev/vue/apps/oraldatalink/contracts/odll/PostApplicationReader2.sol",
  "compiler": {
    "name": "solc",
    "version": "0.4.18+commit.9cf6e910.Emscripten.clang"
  },
  "schemaVersion": "1.0.1",
  "updatedAt": "2017-12-01T20:44:54.414Z"
}