{
  "contractName": "PostApplicationReader2",
  "abi": [
    {
      "constant": true,
      "inputs": [
        {
          "name": "offset",
          "type": "uint256"
        },
        {
          "name": "limit",
          "type": "uint256"
        },
        {
          "name": "seed",
          "type": "uint256"
        }
      ],
      "name": "fetchAllCases",
      "outputs": [
        {
          "name": "",
          "type": "uint256"
        },
        {
          "name": "",
          "type": "uint256[]"
        }
      ],
      "payable": false,
      "stateMutability": "view",
      "type": "function"
    },
    {
      "constant": false,
      "inputs": [
        {
          "name": "userId",
          "type": "address"
        },
        {
          "name": "paymentId",
          "type": "uint256"
        }
      ],
      "name": "lockPayment",
      "outputs": [],
      "payable": false,
      "stateMutability": "nonpayable",
      "type": "function"
    },
    {
      "constant": true,
      "inputs": [],
      "name": "smartContractStatus",
      "outputs": [
        {
          "name": "",
          "type": "uint8"
        }
      ],
      "payable": false,
      "stateMutability": "view",
      "type": "function"
    },
    {
      "constant": true,
      "inputs": [],
      "name": "owner",
      "outputs": [
        {
          "name": "",
          "type": "address"
        }
      ],
      "payable": false,
      "stateMutability": "view",
      "type": "function"
    },
    {
      "constant": true,
      "inputs": [],
      "name": "dbAddress",
      "outputs": [
        {
          "name": "",
          "type": "address"
        }
      ],
      "payable": false,
      "stateMutability": "view",
      "type": "function"
    },
    {
      "constant": true,
      "inputs": [
        {
          "name": "offset",
          "type": "uint256"
        },
        {
          "name": "limit",
          "type": "uint256"
        },
        {
          "name": "seed",
          "type": "uint256"
        }
      ],
      "name": "fetchAllTreatments",
      "outputs": [
        {
          "name": "",
          "type": "uint256"
        },
        {
          "name": "",
          "type": "uint256[]"
        }
      ],
      "payable": false,
      "stateMutability": "view",
      "type": "function"
    },
    {
      "constant": false,
      "inputs": [
        {
          "name": "newOwner",
          "type": "address"
        }
      ],
      "name": "transferOwnership",
      "outputs": [],
      "payable": false,
      "stateMutability": "nonpayable",
      "type": "function"
    },
    {
      "inputs": [
        {
          "name": "_dbAddress",
          "type": "address"
        }
      ],
      "payable": false,
      "stateMutability": "nonpayable",
      "type": "constructor"
    },
    {
      "anonymous": false,
      "inputs": [
        {
          "indexed": false,
          "name": "paymentId",
          "type": "uint256"
        }
      ],
      "name": "PaymentLocked",
      "type": "event"
    },
    {
      "anonymous": false,
      "inputs": [
        {
          "indexed": false,
          "name": "status",
          "type": "uint8"
        }
      ],
      "name": "OnSmartContractStatusSet",
      "type": "event"
    },
    {
      "anonymous": false,
      "inputs": [
        {
          "indexed": true,
          "name": "previousOwner",
          "type": "address"
        },
        {
          "indexed": true,
          "name": "newOwner",
          "type": "address"
        }
      ],
      "name": "OwnershipTransferred",
      "type": "event"
    }
  ],
  "bytecode": "0x6060604052341561000f57600080fd5b6040516020806111b583398101604052808051906020019091905050336000806101000a81548173ffffffffffffffffffffffffffffffffffffffff021916908373ffffffffffffffffffffffffffffffffffffffff16021790555060008173ffffffffffffffffffffffffffffffffffffffff161415151561009157600080fd5b80600160006101000a81548173ffffffffffffffffffffffffffffffffffffffff021916908373ffffffffffffffffffffffffffffffffffffffff160217905550506110d3806100e26000396000f300606060405260043610610083576000357c0100000000000000000000000000000000000000000000000000000000900463ffffffff1680633282b1a4146100885780633f4b1470146101195780634c8ddddc1461015b5780638da5cb5b1461018a57806391e06b6d146101df578063c7448a0214610234578063f2fde38b146102c5575b600080fd5b341561009357600080fd5b6100bb60048080359060200190919080359060200190919080359060200190919050506102fe565b6040518083815260200180602001828103825283818151815260200191508051906020019060200280838360005b838110156101045780820151818401526020810190506100e9565b50505050905001935050505060405180910390f35b341561012457600080fd5b610159600480803573ffffffffffffffffffffffffffffffffffffffff16906020019091908035906020019091905050610342565b005b341561016657600080fd5b61016e610599565b604051808260ff1660ff16815260200191505060405180910390f35b341561019557600080fd5b61019d6105ac565b604051808273ffffffffffffffffffffffffffffffffffffffff1673ffffffffffffffffffffffffffffffffffffffff16815260200191505060405180910390f35b34156101ea57600080fd5b6101f26105d1565b604051808273ffffffffffffffffffffffffffffffffffffffff1673ffffffffffffffffffffffffffffffffffffffff16815260200191505060405180910390f35b341561023f57600080fd5b61026760048080359060200190919080359060200190919080359060200190919050506105f7565b6040518083815260200180602001828103825283818151815260200191508051906020019060200280838360005b838110156102b0578082015181840152602081019050610295565b50505050905001935050505060405180910390f35b34156102d057600080fd5b6102fc600480803573ffffffffffffffffffffffffffffffffffffffff1690602001909190505061063b565b005b6000610308611093565b610336600160009054906101000a900473ffffffffffffffffffffffffffffffffffffffff16868686610790565b91509150935093915050565b8161034c816107c2565b151561035757600080fd5b8160018060ff16600160009054906101000a900473ffffffffffffffffffffffffffffffffffffffff1673ffffffffffffffffffffffffffffffffffffffff16637a0e03ec8460405180807f7061796d656e742f737461746500000000000000000000000000000000000000815250600d0182815260200191505060405180910390206000604051602001526040518263ffffffff167c0100000000000000000000000000000000000000000000000000000000028152600401808260001916600019168152602001915050602060405180830381600087803b151561043c57600080fd5b6102c65a03f1151561044d57600080fd5b5050506040518051905060ff1614151561046657600080fd5b600160009054906101000a900473ffffffffffffffffffffffffffffffffffffffff1673ffffffffffffffffffffffffffffffffffffffff16630bd851588560405180807f7061796d656e742f737461746500000000000000000000000000000000000000815250600d01828152602001915050604051809103902060026040518363ffffffff167c01000000000000000000000000000000000000000000000000000000000281526004018083600019166000191681526020018260ff16815260200192505050600060405180830381600087803b151561054757600080fd5b6102c65a03f1151561055857600080fd5b5050507fa5f78a79f83dfad686a63ca003a42f6c262d9fdc43a6742c56f5c27c11b9a1e2846040518082815260200191505060405180910390a15050505050565b600160149054906101000a900460ff1681565b6000809054906101000a900473ffffffffffffffffffffffffffffffffffffffff1681565b600160009054906101000a900473ffffffffffffffffffffffffffffffffffffffff1681565b6000610601611093565b61062f600160009054906101000a900473ffffffffffffffffffffffffffffffffffffffff168686866107e9565b91509150935093915050565b6000809054906101000a900473ffffffffffffffffffffffffffffffffffffffff1673ffffffffffffffffffffffffffffffffffffffff163373ffffffffffffffffffffffffffffffffffffffff1614151561069657600080fd5b600073ffffffffffffffffffffffffffffffffffffffff168173ffffffffffffffffffffffffffffffffffffffff16141515156106d257600080fd5b8073ffffffffffffffffffffffffffffffffffffffff166000809054906101000a900473ffffffffffffffffffffffffffffffffffffffff1673ffffffffffffffffffffffffffffffffffffffff167f8be0079c531659141344cd1fd0a4f28419497f9722a3daafe3b4186f6b6457e060405160405180910390a3806000806101000a81548173ffffffffffffffffffffffffffffffffffffffff021916908373ffffffffffffffffffffffffffffffffffffffff16021790555050565b600061079a611093565b6107a38661081b565b90506107b18186868661089f565b809250819350505094509492505050565b60006107cf82600161090f565b80156107e257506107e182600161092a565b5b9050919050565b60006107f3611093565b6107fc86610945565b905061080a8186868661089f565b809250819350505094509492505050565b610823611093565b610898826040805190810160405280600481526020017f63617365000000000000000000000000000000000000000000000000000000008152506040805190810160405280600b81526020017f63617365732d636f756e740000000000000000000000000000000000000000008152506109c9565b9050919050565b60006108a9611093565b855191506000865111156109055785518511156108d557816108cc600088610c39565b91509150610906565b855184860111156108e7578486510393505b6109028687518786018115156108f957fe5b06866001610cce565b90505b5b94509492505050565b600061091a83610e19565b60ff168260ff1614905092915050565b600061093583610f56565b60ff168260ff1614905092915050565b61094d611093565b6109c2826040805190810160405280600981526020017f74726561746d656e7400000000000000000000000000000000000000000000008152506040805190810160405280601081526020017f74726561746d656e74732d636f756e74000000000000000000000000000000008152506109c9565b9050919050565b6109d1611093565b6000808573ffffffffffffffffffffffffffffffffffffffff1663bdc963d8856040518082805190602001908083835b602083101515610a265780518252602082019150602081019050602083039250610a01565b6001836020036101000a03801982511681845116808217855250505050505090500191505060405180910390206000604051602001526040518263ffffffff167c0100000000000000000000000000000000000000000000000000000000028152600401808260001916600019168152602001915050602060405180830381600087803b1515610ab557600080fd5b6102c65a03f11515610ac657600080fd5b50505060405180519050915081604051805910610ae05750595b90808252806020026020018201604052509250600090505b81811015610c2d578573ffffffffffffffffffffffffffffffffffffffff1663bdc963d886836040518083805190602001908083835b602083101515610b535780518252602082019150602081019050602083039250610b2e565b6001836020036101000a0380198251168184511680821785525050505050509050018281526020019250505060405180910390206000604051602001526040518263ffffffff167c0100000000000000000000000000000000000000000000000000000000028152600401808260001916600019168152602001915050602060405180830381600087803b1515610be957600080fd5b6102c65a03f11515610bfa57600080fd5b505050604051805190508382815181101515610c1257fe5b90602001906020020181815250508080600101915050610af8565b82925050509392505050565b610c41611093565b60008251841115610c5457829150610cc7565b83604051805910610c625750595b90808252806020026020018201604052509150600090505b83811015610cc3578281815181101515610c9057fe5b906020019060200201518282815181101515610ca857fe5b90602001906020020181815250508080600101915050610c7a565b8191505b5092915050565b610cd6611093565b60008060008060009350885192508288101580610cf35750600087145b15610d0057849450610e0d565b86604051805910610d0e5750595b908082528060200260200182016040525094508791505b868801821015610d855781831415610d3c57610d85565b8882815181101515610d4a57fe5b906020019060200201518585815181101515610d6257fe5b906020019060200201818152505083806001019450508180600101925050610d25565b858015610d9157508684105b15610e00578387039050600091505b8082111515610dff5783871415610db657610dff565b8882815181101515610dc457fe5b906020019060200201518585815181101515610ddc57fe5b906020019060200201818152505083806001019450508180600101925050610da0565b5b610e0a8486610c39565b94505b50505050949350505050565b6000600160009054906101000a900473ffffffffffffffffffffffffffffffffffffffff1673ffffffffffffffffffffffffffffffffffffffff16637a0e03ec8360405180807f757365722f7479706500000000000000000000000000000000000000000000008152506009018273ffffffffffffffffffffffffffffffffffffffff1673ffffffffffffffffffffffffffffffffffffffff166c0100000000000000000000000002815260140191505060405180910390206000604051602001526040518263ffffffff167c0100000000000000000000000000000000000000000000000000000000028152600401808260001916600019168152602001915050602060405180830381600087803b1515610f3457600080fd5b6102c65a03f11515610f4557600080fd5b505050604051805190509050919050565b6000600160009054906101000a900473ffffffffffffffffffffffffffffffffffffffff1673ffffffffffffffffffffffffffffffffffffffff16637a0e03ec8360405180807f757365722f737461747573000000000000000000000000000000000000000000815250600b018273ffffffffffffffffffffffffffffffffffffffff1673ffffffffffffffffffffffffffffffffffffffff166c0100000000000000000000000002815260140191505060405180910390206000604051602001526040518263ffffffff167c0100000000000000000000000000000000000000000000000000000000028152600401808260001916600019168152602001915050602060405180830381600087803b151561107157600080fd5b6102c65a03f1151561108257600080fd5b505050604051805190509050919050565b6020604051908101604052806000815250905600a165627a7a72305820430636a6cf10c0ecf6a1888b0040d043f4b9f7e5995a153cfde939d2c9ad99690029",
  "source": "pragma solidity 0.4.18;\n\nimport \"./Restrictor.sol\";\nimport \"../lib/odll/userManager.sol\";\n\ncontract PostApplicationReader2 is Restrictor {\n\n  function PostApplicationReader2 (address _dbAddress) public {\n    require(_dbAddress != 0x0);\n    dbAddress = _dbAddress;\n  }\n\n  function fetchAllCases (\n    uint offset, // starting from offset: 0-based\n    uint limit, // not more than limit\n    uint seed // seed value to give the illusion of randomisation\n  )\n    external\n    view\n    returns (\n      uint,\n      uint[]\n    )\n  {\n    return userManager.fetchCases(dbAddress, offset, limit, seed);\n  }\n\n  function fetchAllTreatments (\n    uint offset, // starting from offset: 0-based\n    uint limit, // not more than limit\n    uint seed // seed value to give the illusion of randomisation\n  )\n    external\n    view\n    returns (\n      uint,\n      uint[]\n    )\n  {\n    return userManager.fetchTreatments(dbAddress, offset, limit, seed);\n  }\n}\n",
  "sourcePath": "/Users/danielokwufulueze/dev/vue/apps/oraldatalink/contracts/odll/PostApplicationReader2.sol",
  "compiler": {
    "name": "solc",
    "version": "0.4.18+commit.9cf6e910.Emscripten.clang"
  },
  "schemaVersion": "1.0.1",
  "updatedAt": "2017-12-04T15:44:41.213Z"
}