{
  "contractName": "Restrictor",
  "abi": [
    {
      "constant": true,
      "inputs": [],
      "name": "smartContractStatus",
      "outputs": [
        {
          "name": "",
          "type": "uint8"
        }
      ],
      "payable": false,
      "stateMutability": "view",
      "type": "function"
    },
    {
      "constant": true,
      "inputs": [],
      "name": "owner",
      "outputs": [
        {
          "name": "",
          "type": "address"
        }
      ],
      "payable": false,
      "stateMutability": "view",
      "type": "function"
    },
    {
      "constant": true,
      "inputs": [],
      "name": "dbAddress",
      "outputs": [
        {
          "name": "",
          "type": "address"
        }
      ],
      "payable": false,
      "stateMutability": "view",
      "type": "function"
    },
    {
      "constant": false,
      "inputs": [
        {
          "name": "newOwner",
          "type": "address"
        }
      ],
      "name": "transferOwnership",
      "outputs": [],
      "payable": false,
      "stateMutability": "nonpayable",
      "type": "function"
    },
    {
      "anonymous": false,
      "inputs": [
        {
          "indexed": false,
          "name": "status",
          "type": "uint8"
        }
      ],
      "name": "OnSmartContractStatusSet",
      "type": "event"
    },
    {
      "anonymous": false,
      "inputs": [
        {
          "indexed": true,
          "name": "previousOwner",
          "type": "address"
        },
        {
          "indexed": true,
          "name": "newOwner",
          "type": "address"
        }
      ],
      "name": "OwnershipTransferred",
      "type": "event"
    }
  ],
  "bytecode": "0x6060604052336000806101000a81548173ffffffffffffffffffffffffffffffffffffffff021916908373ffffffffffffffffffffffffffffffffffffffff160217905550610358806100536000396000f300606060405260043610610062576000357c0100000000000000000000000000000000000000000000000000000000900463ffffffff1680634c8ddddc146100675780638da5cb5b1461009657806391e06b6d146100eb578063f2fde38b14610140575b600080fd5b341561007257600080fd5b61007a610179565b604051808260ff1660ff16815260200191505060405180910390f35b34156100a157600080fd5b6100a961018c565b604051808273ffffffffffffffffffffffffffffffffffffffff1673ffffffffffffffffffffffffffffffffffffffff16815260200191505060405180910390f35b34156100f657600080fd5b6100fe6101b1565b604051808273ffffffffffffffffffffffffffffffffffffffff1673ffffffffffffffffffffffffffffffffffffffff16815260200191505060405180910390f35b341561014b57600080fd5b610177600480803573ffffffffffffffffffffffffffffffffffffffff169060200190919050506101d7565b005b600160149054906101000a900460ff1681565b6000809054906101000a900473ffffffffffffffffffffffffffffffffffffffff1681565b600160009054906101000a900473ffffffffffffffffffffffffffffffffffffffff1681565b6000809054906101000a900473ffffffffffffffffffffffffffffffffffffffff1673ffffffffffffffffffffffffffffffffffffffff163373ffffffffffffffffffffffffffffffffffffffff1614151561023257600080fd5b600073ffffffffffffffffffffffffffffffffffffffff168173ffffffffffffffffffffffffffffffffffffffff161415151561026e57600080fd5b8073ffffffffffffffffffffffffffffffffffffffff166000809054906101000a900473ffffffffffffffffffffffffffffffffffffffff1673ffffffffffffffffffffffffffffffffffffffff167f8be0079c531659141344cd1fd0a4f28419497f9722a3daafe3b4186f6b6457e060405160405180910390a3806000806101000a81548173ffffffffffffffffffffffffffffffffffffffff021916908373ffffffffffffffffffffffffffffffffffffffff160217905550505600a165627a7a72305820b90d8270597d6cb4fc23ee7b9dc74ce27e83db5776aac16733223bf48244595b0029",
  "source": "pragma solidity 0.4.18;\n\nimport \"./DB.sol\";\n\ncontract Restrictor is Ownable {\n\n  address public dbAddress;\n  uint8 public smartContractStatus;\n  event OnSmartContractStatusSet(uint8 status);\n\n  modifier onlyPermittedSmartContract {\n    require(smartContractStatus == 0);\n    _;\n  }\n\n  // Just to double-check ownership\n  modifier onlyOwnerCanCall(address senderAddress)\n  {\n    require(senderAddress == owner && senderAddress == DB(dbAddress).getAddressValue(keccak256('odll/owner')));\n    _;\n  }\n\n  modifier onlyActiveAdmin {\n    require(isActiveAdmin(msg.sender));\n    _;\n  }\n\n  modifier onlyActiveManager {\n    require(isActiveManager(msg.sender));\n    _;\n  }\n\n  modifier onlyOwnerOrActiveAdminOrActiveManager {\n    require(msg.sender == owner || isActiveAdmin(msg.sender) || isActiveManager(msg.sender));\n    _;\n  }\n\n  modifier onlyOwnerOrActiveAdmin {\n    require(msg.sender == owner || isActiveAdmin(msg.sender));\n    _;\n  }\n\n  modifier onlyActiveDentist {\n    require(isActiveDentist(msg.sender));\n    _;\n  }\n\n  modifier onlyActivePatient {\n    require(isActivePatient(msg.sender));\n    _;\n  }\n\n  modifier onlyActiveUser {\n    require(hasStatus(msg.sender, 1));\n    _;\n  }\n\n  function setSmartContractStatus(\n    uint8 _status\n  )\n    internal\n    onlyOwner\n  {\n    smartContractStatus = _status;\n    OnSmartContractStatusSet(_status);\n  }\n\n  function isActiveAdmin(address userId) internal view returns(bool) {\n    return isUserType(userId, 4) && hasStatus(userId, 1);\n  }\n\n  function isActiveManager(address userId) internal view returns(bool) {\n    return isUserType(userId, 3) && hasStatus(userId, 1);\n  }\n\n  function isActiveDentist(address userId) internal view returns(bool) {\n    return isUserType(userId, 2) && hasStatus(userId, 1);\n  }\n\n  function isActivePatient(address userId) internal view returns(bool) {\n    return isUserType(userId, 1) && hasStatus(userId, 1);\n  }\n\n  function hasStatus(address userId, uint8 status) internal view returns(bool) {\n    return status == getStatus(userId);\n  }\n\n  function getStatus(address userId) internal view returns(uint8) {\n    return DB(dbAddress).getUInt8Value(keccak256(\"user/status\", userId));\n  }\n\n  function isUserType(address userId, uint8 userType) internal view returns(bool) {\n    return userType == getUserType(userId);\n  }\n\n  function getUserType(address userId) internal view returns(uint8) {\n    return DB(dbAddress).getUInt8Value(keccak256(\"user/type\", userId));\n  }\n}\n",
  "sourcePath": "/Users/danielokwufulueze/dev/vue/apps/oraldatalink/contracts/odll/Restrictor.sol",
  "compiler": {
    "name": "solc",
    "version": "0.4.18+commit.9cf6e910.Emscripten.clang"
  },
  "schemaVersion": "1.0.1",
  "updatedAt": "2017-11-19T11:48:43.552Z"
}