{
  "contractName": "Restrictor",
  "abi": [
    {
      "constant": false,
      "inputs": [
        {
          "name": "userId",
          "type": "address"
        },
        {
          "name": "paymentId",
          "type": "uint256"
        }
      ],
      "name": "lockPayment",
      "outputs": [
        {
          "name": "",
          "type": "uint8"
        }
      ],
      "payable": false,
      "stateMutability": "nonpayable",
      "type": "function"
    },
    {
      "constant": true,
      "inputs": [],
      "name": "smartContractStatus",
      "outputs": [
        {
          "name": "",
          "type": "uint8"
        }
      ],
      "payable": false,
      "stateMutability": "view",
      "type": "function"
    },
    {
      "constant": true,
      "inputs": [],
      "name": "owner",
      "outputs": [
        {
          "name": "",
          "type": "address"
        }
      ],
      "payable": false,
      "stateMutability": "view",
      "type": "function"
    },
    {
      "constant": true,
      "inputs": [
        {
          "name": "newOwner",
          "type": "address"
        }
      ],
      "name": "dbAddress",
      "outputs": [
        {
          "name": "",
          "type": "address"
        }
      ],
      "payable": false,
      "stateMutability": "view",
      "type": "function"
    },
    {
      "anonymous": false,
      "inputs": [
        {
          "indexed": false,
          "name": "newOwner",
          "type": "address"
        }
      ],
      "name": "transferOwnership",
      "type": "function",
      "constant": false,
      "outputs": [],
      "payable": false,
      "stateMutability": "nonpayable"
    },
    {
      "anonymous": false,
      "inputs": [
        {
          "indexed": false,
          "name": "paymentId",
          "type": "uint256"
        },
        {
          "indexed": true,
          "name": "newOwner",
          "type": "address"
        }
      ],
      "name": "PaymentLocked",
      "type": "event"
    },
    {
      "anonymous": false,
      "inputs": [
        {
          "indexed": false,
          "name": "status",
          "type": "uint8"
        }
      ],
      "name": "OnSmartContractStatusSet",
      "type": "event"
    },
    {
      "anonymous": false,
      "inputs": [
        {
          "indexed": true,
          "name": "previousOwner",
          "type": "address"
        },
        {
          "indexed": true,
          "name": "newOwner",
          "type": "address"
        }
      ],
      "name": "OwnershipTransferred",
      "type": "event"
    }
  ],
  "bytecode": "0x6060604052336000806101000a81548173ffffffffffffffffffffffffffffffffffffffff021916908373ffffffffffffffffffffffffffffffffffffffff1602179055506108d3806100536000396000f30060606040526004361061006d576000357c0100000000000000000000000000000000000000000000000000000000900463ffffffff1680633f4b1470146100725780634c8ddddc146100b45780638da5cb5b146100e357806391e06b6d14610138578063f2fde38b1461018d575b600080fd5b341561007d57600080fd5b6100b2600480803573ffffffffffffffffffffffffffffffffffffffff169060200190919080359060200190919050506101c6565b005b34156100bf57600080fd5b6100c761041d565b604051808260ff1660ff16815260200191505060405180910390f35b34156100ee57600080fd5b6100f6610430565b604051808273ffffffffffffffffffffffffffffffffffffffff1673ffffffffffffffffffffffffffffffffffffffff16815260200191505060405180910390f35b341561014357600080fd5b61014b610455565b604051808273ffffffffffffffffffffffffffffffffffffffff1673ffffffffffffffffffffffffffffffffffffffff16815260200191505060405180910390f35b341561019857600080fd5b6101c4600480803573ffffffffffffffffffffffffffffffffffffffff1690602001909190505061047b565b005b816101d0816105d0565b15156101db57600080fd5b8160018060ff16600160009054906101000a900473ffffffffffffffffffffffffffffffffffffffff1673ffffffffffffffffffffffffffffffffffffffff16637a0e03ec8460405180807f7061796d656e742f737461746500000000000000000000000000000000000000815250600d0182815260200191505060405180910390206000604051602001526040518263ffffffff167c0100000000000000000000000000000000000000000000000000000000028152600401808260001916600019168152602001915050602060405180830381600087803b15156102c057600080fd5b6102c65a03f115156102d157600080fd5b5050506040518051905060ff161415156102ea57600080fd5b600160009054906101000a900473ffffffffffffffffffffffffffffffffffffffff1673ffffffffffffffffffffffffffffffffffffffff16630bd851588560405180807f7061796d656e742f737461746500000000000000000000000000000000000000815250600d01828152602001915050604051809103902060026040518363ffffffff167c01000000000000000000000000000000000000000000000000000000000281526004018083600019166000191681526020018260ff16815260200192505050600060405180830381600087803b15156103cb57600080fd5b6102c65a03f115156103dc57600080fd5b5050507fa5f78a79f83dfad686a63ca003a42f6c262d9fdc43a6742c56f5c27c11b9a1e2846040518082815260200191505060405180910390a15050505050565b600160149054906101000a900460ff1681565b6000809054906101000a900473ffffffffffffffffffffffffffffffffffffffff1681565b600160009054906101000a900473ffffffffffffffffffffffffffffffffffffffff1681565b6000809054906101000a900473ffffffffffffffffffffffffffffffffffffffff1673ffffffffffffffffffffffffffffffffffffffff163373ffffffffffffffffffffffffffffffffffffffff161415156104d657600080fd5b600073ffffffffffffffffffffffffffffffffffffffff168173ffffffffffffffffffffffffffffffffffffffff161415151561051257600080fd5b8073ffffffffffffffffffffffffffffffffffffffff166000809054906101000a900473ffffffffffffffffffffffffffffffffffffffff1673ffffffffffffffffffffffffffffffffffffffff167f8be0079c531659141344cd1fd0a4f28419497f9722a3daafe3b4186f6b6457e060405160405180910390a3806000806101000a81548173ffffffffffffffffffffffffffffffffffffffff021916908373ffffffffffffffffffffffffffffffffffffffff16021790555050565b60006105dd8260016105f7565b80156105f057506105ef826001610612565b5b9050919050565b60006106028361062d565b60ff168260ff1614905092915050565b600061061d8361076a565b60ff168260ff1614905092915050565b6000600160009054906101000a900473ffffffffffffffffffffffffffffffffffffffff1673ffffffffffffffffffffffffffffffffffffffff16637a0e03ec8360405180807f757365722f7479706500000000000000000000000000000000000000000000008152506009018273ffffffffffffffffffffffffffffffffffffffff1673ffffffffffffffffffffffffffffffffffffffff166c0100000000000000000000000002815260140191505060405180910390206000604051602001526040518263ffffffff167c0100000000000000000000000000000000000000000000000000000000028152600401808260001916600019168152602001915050602060405180830381600087803b151561074857600080fd5b6102c65a03f1151561075957600080fd5b505050604051805190509050919050565b6000600160009054906101000a900473ffffffffffffffffffffffffffffffffffffffff1673ffffffffffffffffffffffffffffffffffffffff16637a0e03ec8360405180807f757365722f737461747573000000000000000000000000000000000000000000815250600b018273ffffffffffffffffffffffffffffffffffffffff1673ffffffffffffffffffffffffffffffffffffffff166c0100000000000000000000000002815260140191505060405180910390206000604051602001526040518263ffffffff167c0100000000000000000000000000000000000000000000000000000000028152600401808260001916600019168152602001915050602060405180830381600087803b151561088557600080fd5b6102c65a03f1151561089657600080fd5b5050506040518051905090509190505600a165627a7a723058204ac2343f6ae9078b69fc672fa18e6da21fccfbfd66d5a480158d6fc6e7fa459d0029",
  "source": "pragma solidity 0.4.18;\n\nimport \"./DB.sol\";\n\ncontract Restrictor is Ownable {\n  address public dbAddress;\n  uint8 public smartContractStatus;\n  event PaymentLocked(uint paymentId);\n  event OnSmartContractStatusSet(uint8 status);\n\n  modifier inState (uint paymentId, uint8 stateId) {\n    require(DB(dbAddress).getUInt8Value(keccak256(\"payment/state\", paymentId)) == stateId);\n    _;\n  }\n\n  modifier onlyPermittedSmartContract {\n    require(smartContractStatus == 0);\n    _;\n  }\n\n  // Just to double-check ownership\n  modifier onlyOwnerCanCall(address senderAddress)\n  {\n    require(senderAddress == owner && senderAddress == DB(dbAddress).getAddressValue(keccak256('odll/owner')));\n    _;\n  }\n\n  modifier onlyActiveAdmin {\n    require(isActiveAdmin(msg.sender));\n    _;\n  }\n\n  modifier onlyActiveManager {\n    require(isActiveManager(msg.sender));\n    _;\n  }\n\n  modifier onlyOwnerOrActiveAdminOrActiveManager {\n    require(msg.sender == owner || isActiveAdmin(msg.sender) || isActiveManager(msg.sender));\n    _;\n  }\n\n  modifier onlyOwnerOrActiveAdmin {\n    require(msg.sender == owner || isActiveAdmin(msg.sender));\n    _;\n  }\n\n  modifier onlyActiveDentist {\n    require(isActiveDentist(msg.sender));\n    _;\n  }\n\n  modifier onlyActivePatient {\n    require(isActivePatient(msg.sender));\n    _;\n  }\n\n  modifier onlyActiveUser {\n    require(hasStatus(msg.sender, 1));\n    _;\n  }\n\n  modifier onlyActiveAdminId(address userId) {\n    require(isActiveAdmin(userId));\n    _;\n  }\n\n  modifier onlyActiveManagerId(address userId) {\n    require(isActiveManager(userId));\n    _;\n  }\n\n  modifier onlyOwnerOrActiveAdminOrActiveManagerId(address userId) {\n    require(userId == owner || isActiveAdmin(userId) || isActiveManager(userId));\n    _;\n  }\n\n  modifier onlyOwnerOrActiveAdminId(address userId) {\n    require(userId == owner || isActiveAdmin(userId));\n    _;\n  }\n\n  modifier onlyActiveDentistId(address userId) {\n    require(isActiveDentist(userId));\n    _;\n  }\n\n  modifier onlyActivePatientId(address userId) {\n    require(isActivePatient(userId));\n    _;\n  }\n\n  modifier onlyActiveUserId(address userId) {\n    require(hasStatus(userId, 1));\n    _;\n  }\n\n  function setSmartContractStatus(\n    uint8 _status\n  )\n    internal\n    onlyOwner\n  {\n    smartContractStatus = _status;\n    OnSmartContractStatusSet(_status);\n  }\n\n  function isActiveAdmin(address userId) internal view returns(bool) {\n    return isUserType(userId, 4) && hasStatus(userId, 1);\n  }\n\n  function isActiveManager(address userId) internal view returns(bool) {\n    return isUserType(userId, 3) && hasStatus(userId, 1);\n  }\n\n  function isActiveDentist(address userId) internal view returns(bool) {\n    return isUserType(userId, 2) && hasStatus(userId, 1);\n  }\n\n  function isActivePatient(address userId) internal view returns(bool) {\n    return isUserType(userId, 1) && hasStatus(userId, 1);\n  }\n\n  function hasStatus(address userId, uint8 status) internal view returns(bool) {\n    return status == getStatus(userId);\n  }\n\n  function getStatus(address userId) internal view returns(uint8) {\n    return DB(dbAddress).getUInt8Value(keccak256(\"user/status\", userId));\n  }\n\n  function isUserType(address userId, uint8 userType) internal view returns(bool) {\n    return userType == getUserType(userId);\n  }\n\n  function getUserType(address userId) internal view returns(uint8) {\n    return DB(dbAddress).getUInt8Value(keccak256(\"user/type\", userId));\n  }\n\n  function lockPayment (address userId, uint paymentId)\n    public\n    onlyActivePatientId(userId)\n    inState(paymentId, 1)\n  {\n    DB(dbAddress).setUInt8Value(keccak256(\"payment/state\", paymentId), 2);\n    PaymentLocked(paymentId);\n  }\n}\n",
  "sourcePath": "/Users/danielokwufulueze/dev/vue/apps/oraldatalink/contracts/odll/Restrictor.sol",
  "compiler": {
    "name": "solc",
    "version": "0.4.18+commit.9cf6e910.Emscripten.clang"
  },
  "schemaVersion": "1.0.1",
  "updatedAt": "2017-12-01T20:37:04.890Z"
}