{
  "contractName": "ScanRequestReader2",
  "abi": [
    {
      "constant": true,
      "inputs": [],
      "name": "smartContractStatus",
      "outputs": [
        {
          "name": "",
          "type": "uint8"
        }
      ],
      "payable": false,
      "stateMutability": "view",
      "type": "function"
    },
    {
      "constant": true,
      "inputs": [
        {
          "name": "offset",
          "type": "uint256"
        },
        {
          "name": "limit",
          "type": "uint256"
        },
        {
          "name": "seed",
          "type": "uint256"
        }
      ],
      "name": "fetchAllScanRequests",
      "outputs": [
        {
          "name": "",
          "type": "uint256"
        },
        {
          "name": "",
          "type": "uint256[]"
        }
      ],
      "payable": false,
      "stateMutability": "view",
      "type": "function"
    },
    {
      "constant": true,
      "inputs": [],
      "name": "owner",
      "outputs": [
        {
          "name": "",
          "type": "address"
        }
      ],
      "payable": false,
      "stateMutability": "view",
      "type": "function"
    },
    {
      "constant": true,
      "inputs": [],
      "name": "dbAddress",
      "outputs": [
        {
          "name": "",
          "type": "address"
        }
      ],
      "payable": false,
      "stateMutability": "view",
      "type": "function"
    },
    {
      "constant": false,
      "inputs": [
        {
          "name": "newOwner",
          "type": "address"
        }
      ],
      "name": "transferOwnership",
      "outputs": [],
      "payable": false,
      "stateMutability": "nonpayable",
      "type": "function"
    },
    {
      "inputs": [
        {
          "name": "_dbAddress",
          "type": "address"
        }
      ],
      "payable": false,
      "stateMutability": "nonpayable",
      "type": "constructor"
    },
    {
      "anonymous": false,
      "inputs": [
        {
          "indexed": false,
          "name": "status",
          "type": "uint8"
        }
      ],
      "name": "OnSmartContractStatusSet",
      "type": "event"
    },
    {
      "anonymous": false,
      "inputs": [
        {
          "indexed": true,
          "name": "previousOwner",
          "type": "address"
        },
        {
          "indexed": true,
          "name": "newOwner",
          "type": "address"
        }
      ],
      "name": "OwnershipTransferred",
      "type": "event"
    }
  ],
  "bytecode": "0x6060604052341561000f57600080fd5b604051602080610c3483398101604052808051906020019091905050336000806101000a81548173ffffffffffffffffffffffffffffffffffffffff021916908373ffffffffffffffffffffffffffffffffffffffff16021790555060008173ffffffffffffffffffffffffffffffffffffffff161415151561009157600080fd5b80600160006101000a81548173ffffffffffffffffffffffffffffffffffffffff021916908373ffffffffffffffffffffffffffffffffffffffff16021790555050610b52806100e26000396000f30060606040526004361061006d576000357c0100000000000000000000000000000000000000000000000000000000900463ffffffff1680634c8ddddc14610072578063610f2edc146100a15780638da5cb5b1461013257806391e06b6d14610187578063f2fde38b146101dc575b600080fd5b341561007d57600080fd5b610085610215565b604051808260ff1660ff16815260200191505060405180910390f35b34156100ac57600080fd5b6100d46004808035906020019091908035906020019091908035906020019091905050610228565b6040518083815260200180602001828103825283818151815260200191508051906020019060200280838360005b8381101561011d578082015181840152602081019050610102565b50505050905001935050505060405180910390f35b341561013d57600080fd5b61014561026c565b604051808273ffffffffffffffffffffffffffffffffffffffff1673ffffffffffffffffffffffffffffffffffffffff16815260200191505060405180910390f35b341561019257600080fd5b61019a610291565b604051808273ffffffffffffffffffffffffffffffffffffffff1673ffffffffffffffffffffffffffffffffffffffff16815260200191505060405180910390f35b34156101e757600080fd5b610213600480803573ffffffffffffffffffffffffffffffffffffffff169060200190919050506102b7565b005b600160149054906101000a900460ff1681565b6000610232610b12565b610260600160009054906101000a900473ffffffffffffffffffffffffffffffffffffffff1686868661040c565b91509150935093915050565b6000809054906101000a900473ffffffffffffffffffffffffffffffffffffffff1681565b600160009054906101000a900473ffffffffffffffffffffffffffffffffffffffff1681565b6000809054906101000a900473ffffffffffffffffffffffffffffffffffffffff1673ffffffffffffffffffffffffffffffffffffffff163373ffffffffffffffffffffffffffffffffffffffff1614151561031257600080fd5b600073ffffffffffffffffffffffffffffffffffffffff168173ffffffffffffffffffffffffffffffffffffffff161415151561034e57600080fd5b8073ffffffffffffffffffffffffffffffffffffffff166000809054906101000a900473ffffffffffffffffffffffffffffffffffffffff1673ffffffffffffffffffffffffffffffffffffffff167f8be0079c531659141344cd1fd0a4f28419497f9722a3daafe3b4186f6b6457e060405160405180910390a3806000806101000a81548173ffffffffffffffffffffffffffffffffffffffff021916908373ffffffffffffffffffffffffffffffffffffffff16021790555050565b6000610416610b12565b61041f8661043e565b905061042d81868686610652565b809250819350505094509492505050565b610446610b12565b61044e610b12565b60008060006104c8866040805190810160405280600c81526020017f7363616e2d7265717565737400000000000000000000000000000000000000008152506040805190810160405280601381526020017f7363616e2d72657175657374732d636f756e74000000000000000000000000008152506106c2565b935083519250826040518059106104dc5750595b9080825280602002602001820160405250945060009150600090505b8281101561063d578573ffffffffffffffffffffffffffffffffffffffff166317e7dd22858381518110151561052a57fe5b9060200190602002015160405180807f7363616e2d726571756573742f69732d67656e6572616c3f000000000000000081525060180182815260200191505060405180910390206000604051602001526040518263ffffffff167c0100000000000000000000000000000000000000000000000000000000028152600401808260001916600019168152602001915050602060405180830381600087803b15156105d357600080fd5b6102c65a03f115156105e457600080fd5b505050604051805190501561063057838181518110151561060157fe5b90602001906020020151858381518110151561061957fe5b906020019060200201818152505081806001019250505b80806001019150506104f8565b6106478286610932565b945050505050919050565b600061065c610b12565b855191506000865111156106b8578551851115610688578161067f600088610932565b915091506106b9565b8551848601111561069a578486510393505b6106b58687518786018115156106ac57fe5b068660016109c7565b90505b5b94509492505050565b6106ca610b12565b6000808573ffffffffffffffffffffffffffffffffffffffff1663bdc963d8856040518082805190602001908083835b60208310151561071f57805182526020820191506020810190506020830392506106fa565b6001836020036101000a03801982511681845116808217855250505050505090500191505060405180910390206000604051602001526040518263ffffffff167c0100000000000000000000000000000000000000000000000000000000028152600401808260001916600019168152602001915050602060405180830381600087803b15156107ae57600080fd5b6102c65a03f115156107bf57600080fd5b505050604051805190509150816040518059106107d95750595b90808252806020026020018201604052509250600090505b81811015610926578573ffffffffffffffffffffffffffffffffffffffff1663bdc963d886836040518083805190602001908083835b60208310151561084c5780518252602082019150602081019050602083039250610827565b6001836020036101000a0380198251168184511680821785525050505050509050018281526020019250505060405180910390206000604051602001526040518263ffffffff167c0100000000000000000000000000000000000000000000000000000000028152600401808260001916600019168152602001915050602060405180830381600087803b15156108e257600080fd5b6102c65a03f115156108f357600080fd5b50505060405180519050838281518110151561090b57fe5b906020019060200201818152505080806001019150506107f1565b82925050509392505050565b61093a610b12565b6000825184111561094d578291506109c0565b8360405180591061095b5750595b90808252806020026020018201604052509150600090505b838110156109bc57828181518110151561098957fe5b9060200190602002015182828151811015156109a157fe5b90602001906020020181815250508080600101915050610973565b8191505b5092915050565b6109cf610b12565b600080600080600093508851925082881015806109ec5750600087145b156109f957849450610b06565b86604051805910610a075750595b908082528060200260200182016040525094508791505b868801821015610a7e5781831415610a3557610a7e565b8882815181101515610a4357fe5b906020019060200201518585815181101515610a5b57fe5b906020019060200201818152505083806001019450508180600101925050610a1e565b858015610a8a57508684105b15610af9578387039050600091505b8082111515610af85783871415610aaf57610af8565b8882815181101515610abd57fe5b906020019060200201518585815181101515610ad557fe5b906020019060200201818152505083806001019450508180600101925050610a99565b5b610b038486610932565b94505b50505050949350505050565b6020604051908101604052806000815250905600a165627a7a7230582005b31d024d0b51d2c7ac5af02e8b7e02b9db0478f990c0d023d52017dcab20700029",
  "source": "pragma solidity 0.4.18;\n\nimport \"./Restrictor.sol\";\nimport \"../lib/odll/userManager.sol\";\n\ncontract ScanRequestReader2 is Restrictor {\n\n  function ScanRequestReader2 (address _dbAddress) public {\n    require(_dbAddress != 0x0);\n    dbAddress = _dbAddress;\n  }\n\n  function fetchAllScanRequests (\n    uint offset, // starting from offset: 0-based\n    uint limit, // not more than limit\n    uint seed // seed value to give the illusion of randomisation\n  )\n    external\n    view\n    returns (\n      uint,\n      uint[]\n    )\n  {\n    return userManager.fetchAllScanRequests(dbAddress, offset, limit, seed);\n  }\n}\n",
  "sourcePath": "/Users/danielokwufulueze/dev/vue/apps/oraldatalink/contracts/odll/ScanRequestReader2.sol",
  "compiler": {
    "name": "solc",
    "version": "0.4.18+commit.9cf6e910.Emscripten.clang"
  },
  "schemaVersion": "1.0.1",
  "updatedAt": "2017-11-27T12:38:50.319Z"
}