{
  "contractName": "ScanApplicationWriter",
  "abi": [
    {
      "constant": false,
      "inputs": [
        {
          "name": "dentistId",
          "type": "address"
        },
        {
          "name": "patientId",
          "type": "address"
        },
        {
          "name": "scanRequestId",
          "type": "uint256"
        },
        {
          "name": "quote",
          "type": "uint256"
        },
        {
          "name": "comment",
          "type": "bytes32"
        }
      ],
      "name": "applyToScan",
      "outputs": [],
      "payable": false,
      "stateMutability": "nonpayable",
      "type": "function"
    },
    {
      "constant": false,
      "inputs": [
        {
          "name": "dentistId",
          "type": "address"
        },
        {
          "name": "patientId",
          "type": "address"
        },
        {
          "name": "scanApplicationId",
          "type": "uint256"
        },
        {
          "name": "quote",
          "type": "uint256"
        }
      ],
      "name": "acceptScanApplication",
      "outputs": [],
      "payable": true,
      "stateMutability": "payable",
      "type": "function"
    },
    {
      "constant": true,
      "inputs": [],
      "name": "smartContractStatus",
      "outputs": [
        {
          "name": "",
          "type": "uint8"
        }
      ],
      "payable": false,
      "stateMutability": "view",
      "type": "function"
    },
    {
      "constant": true,
      "inputs": [],
      "name": "owner",
      "outputs": [
        {
          "name": "",
          "type": "address"
        }
      ],
      "payable": false,
      "stateMutability": "view",
      "type": "function"
    },
    {
      "constant": true,
      "inputs": [],
      "name": "dbAddress",
      "outputs": [
        {
          "name": "",
          "type": "address"
        }
      ],
      "payable": false,
      "stateMutability": "view",
      "type": "function"
    },
    {
      "constant": false,
      "inputs": [
        {
          "name": "dentistId",
          "type": "address"
        },
        {
          "name": "patientId",
          "type": "address"
        },
        {
          "name": "scanApplicationId",
          "type": "uint256"
        }
      ],
      "name": "cancelScanApplication",
      "outputs": [],
      "payable": false,
      "stateMutability": "nonpayable",
      "type": "function"
    },
    {
      "constant": false,
      "inputs": [
        {
          "name": "newOwner",
          "type": "address"
        }
      ],
      "name": "transferOwnership",
      "outputs": [],
      "payable": false,
      "stateMutability": "nonpayable",
      "type": "function"
    },
    {
      "inputs": [
        {
          "name": "_dbAddress",
          "type": "address"
        }
      ],
      "payable": false,
      "stateMutability": "nonpayable",
      "type": "constructor"
    },
    {
      "anonymous": false,
      "inputs": [
        {
          "indexed": false,
          "name": "status",
          "type": "uint8"
        }
      ],
      "name": "OnSmartContractStatusSet",
      "type": "event"
    },
    {
      "anonymous": false,
      "inputs": [
        {
          "indexed": true,
          "name": "previousOwner",
          "type": "address"
        },
        {
          "indexed": true,
          "name": "newOwner",
          "type": "address"
        }
      ],
      "name": "OwnershipTransferred",
      "type": "event"
    }
  ],
  "bytecode": "0x6060604052341561000f57600080fd5b6040516020806200513a83398101604052808051906020019091905050336000806101000a81548173ffffffffffffffffffffffffffffffffffffffff021916908373ffffffffffffffffffffffffffffffffffffffff16021790555060008173ffffffffffffffffffffffffffffffffffffffff161415151561009257600080fd5b80600160006101000a81548173ffffffffffffffffffffffffffffffffffffffff021916908373ffffffffffffffffffffffffffffffffffffffff1602179055505061505680620000e46000396000f300606060405260043610610083576000357c0100000000000000000000000000000000000000000000000000000000900463ffffffff1680632b64089d146100885780633ac44e7b146100ff5780634c8ddddc1461015e5780638da5cb5b1461018d57806391e06b6d146101e2578063c24d9d1e14610237578063f2fde38b14610298575b600080fd5b341561009357600080fd5b6100fd600480803573ffffffffffffffffffffffffffffffffffffffff1690602001909190803573ffffffffffffffffffffffffffffffffffffffff16906020019091908035906020019091908035906020019091908035600019169060200190919050506102d1565b005b61015c600480803573ffffffffffffffffffffffffffffffffffffffff1690602001909190803573ffffffffffffffffffffffffffffffffffffffff16906020019091908035906020019091908035906020019091905050610329565b005b341561016957600080fd5b6101716103ce565b604051808260ff1660ff16815260200191505060405180910390f35b341561019857600080fd5b6101a06103e1565b604051808273ffffffffffffffffffffffffffffffffffffffff1673ffffffffffffffffffffffffffffffffffffffff16815260200191505060405180910390f35b34156101ed57600080fd5b6101f5610406565b604051808273ffffffffffffffffffffffffffffffffffffffff1673ffffffffffffffffffffffffffffffffffffffff16815260200191505060405180910390f35b341561024257600080fd5b610296600480803573ffffffffffffffffffffffffffffffffffffffff1690602001909190803573ffffffffffffffffffffffffffffffffffffffff1690602001909190803590602001909190505061042c565b005b34156102a357600080fd5b6102cf600480803573ffffffffffffffffffffffffffffffffffffffff1690602001909190505061045f565b005b6000600160149054906101000a900460ff1660ff161415156102f257600080fd5b610322600160009054906101000a900473ffffffffffffffffffffffffffffffffffffffff1633868686866105b4565b5050505050565b6000600160149054906101000a900460ff1660ff1614151561034a57600080fd5b80341015610397573373ffffffffffffffffffffffffffffffffffffffff166108fc349081150290604051600060405180830381858888f19350505050151561039257600080fd5b6103c8565b6103c7600160009054906101000a900473ffffffffffffffffffffffffffffffffffffffff1685338534866105ca565b5b50505050565b600160149054906101000a900460ff1681565b6000809054906101000a900473ffffffffffffffffffffffffffffffffffffffff1681565b600160009054906101000a900473ffffffffffffffffffffffffffffffffffffffff1681565b61045a600160009054906101000a900473ffffffffffffffffffffffffffffffffffffffff163384846108ef565b505050565b6000809054906101000a900473ffffffffffffffffffffffffffffffffffffffff1673ffffffffffffffffffffffffffffffffffffffff163373ffffffffffffffffffffffffffffffffffffffff161415156104ba57600080fd5b600073ffffffffffffffffffffffffffffffffffffffff168173ffffffffffffffffffffffffffffffffffffffff16141515156104f657600080fd5b8073ffffffffffffffffffffffffffffffffffffffff166000809054906101000a900473ffffffffffffffffffffffffffffffffffffffff1673ffffffffffffffffffffffffffffffffffffffff167f8be0079c531659141344cd1fd0a4f28419497f9722a3daafe3b4186f6b6457e060405160405180910390a3806000806101000a81548173ffffffffffffffffffffffffffffffffffffffff021916908373ffffffffffffffffffffffffffffffffffffffff16021790555050565b6105c2868686868686610901565b505050505050565b6000806000806000806000808d73ffffffffffffffffffffffffffffffffffffffff16634c77e5ba60405180807f6f646c6c2f7061796d656e742d61646472657373000000000000000000000000815250601401905060405180910390206000604051602001526040518263ffffffff167c0100000000000000000000000000000000000000000000000000000000028152600401808260001916600019168152602001915050602060405180830381600087803b151561068a57600080fd5b6102c65a03f1151561069b57600080fd5b5050506040518051905097508d73ffffffffffffffffffffffffffffffffffffffff1663bdc963d860405180807f6f646c6c2f7363616e2d7061796d656e742d70657263656e7461676500000000815250601c01905060405180910390206000604051602001526040518263ffffffff167c0100000000000000000000000000000000000000000000000000000000028152600401808260001916600019168152602001915050602060405180830381600087803b151561075b57600080fd5b6102c65a03f1151561076c57600080fd5b5050506040518051905096506107828a8a610917565b9550610798610792886064610930565b8a610971565b94506107a48986610917565b935084925060009450839150600093506107bf8e8d8b6109a4565b6107ca8e8d8b610b7a565b6107d58e8e84610d50565b6107e08e8e84610f26565b6107eb8e89856110fc565b6107f68e89856112d2565b6108038e8e8e8e8d6114a8565b61080e8e8d8f611e64565b8773ffffffffffffffffffffffffffffffffffffffff166108fc849081150290604051600060405180830381858888f19350505050151561084e57600080fd5b8c73ffffffffffffffffffffffffffffffffffffffff166108fc839081150290604051600060405180830381858888f19350505050151561088e57600080fd5b60008611156108df57859050600095508b73ffffffffffffffffffffffffffffffffffffffff166108fc829081150290604051600060405180830381858888f1935050505015156108de57600080fd5b5b5050505050505050505050505050565b6108fb84848484611fc3565b50505050565b61090f86868686868661239e565b505050505050565b600082821115151561092557fe5b818303905092915050565b60008060008311151561093f57fe5b828481151561094a57fe5b049050828481151561095857fe5b06818402018414151561096757fe5b8091505092915050565b60008082840290506000841480610992575082848281151561098f57fe5b04145b151561099a57fe5b8091505092915050565b8273ffffffffffffffffffffffffffffffffffffffff1663c8d1c0178360405180807f70617469656e742f7363616e2d746f74616c2d706169640000000000000000008152506017018273ffffffffffffffffffffffffffffffffffffffff1673ffffffffffffffffffffffffffffffffffffffff166c010000000000000000000000000281526014019150506040518091039020836040518363ffffffff167c010000000000000000000000000000000000000000000000000000000002815260040180836000191660001916815260200182815260200192505050600060405180830381600087803b1515610a9a57600080fd5b6102c65a03f11515610aab57600080fd5b5050508273ffffffffffffffffffffffffffffffffffffffff1663c8d1c01760405180807f70617469656e74732f7363616e2d746f74616c2d70616964000000000000000081525060180190506040518091039020836040518363ffffffff167c010000000000000000000000000000000000000000000000000000000002815260040180836000191660001916815260200182815260200192505050600060405180830381600087803b1515610b6157600080fd5b6102c65a03f11515610b7257600080fd5b505050505050565b8273ffffffffffffffffffffffffffffffffffffffff1663c8d1c0178360405180807f70617469656e742f746f74616c2d7061696400000000000000000000000000008152506012018273ffffffffffffffffffffffffffffffffffffffff1673ffffffffffffffffffffffffffffffffffffffff166c010000000000000000000000000281526014019150506040518091039020836040518363ffffffff167c010000000000000000000000000000000000000000000000000000000002815260040180836000191660001916815260200182815260200192505050600060405180830381600087803b1515610c7057600080fd5b6102c65a03f11515610c8157600080fd5b5050508273ffffffffffffffffffffffffffffffffffffffff1663c8d1c01760405180807f70617469656e74732f746f74616c2d706169640000000000000000000000000081525060130190506040518091039020836040518363ffffffff167c010000000000000000000000000000000000000000000000000000000002815260040180836000191660001916815260200182815260200192505050600060405180830381600087803b1515610d3757600080fd5b6102c65a03f11515610d4857600080fd5b505050505050565b8273ffffffffffffffffffffffffffffffffffffffff1663c8d1c0178360405180807f64656e746973742f7363616e2d746f74616c2d6561726e6564000000000000008152506019018273ffffffffffffffffffffffffffffffffffffffff1673ffffffffffffffffffffffffffffffffffffffff166c010000000000000000000000000281526014019150506040518091039020836040518363ffffffff167c010000000000000000000000000000000000000000000000000000000002815260040180836000191660001916815260200182815260200192505050600060405180830381600087803b1515610e4657600080fd5b6102c65a03f11515610e5757600080fd5b5050508273ffffffffffffffffffffffffffffffffffffffff1663c8d1c01760405180807f64656e74697374732f7363616e2d746f74616c2d6561726e6564000000000000815250601a0190506040518091039020836040518363ffffffff167c010000000000000000000000000000000000000000000000000000000002815260040180836000191660001916815260200182815260200192505050600060405180830381600087803b1515610f0d57600080fd5b6102c65a03f11515610f1e57600080fd5b505050505050565b8273ffffffffffffffffffffffffffffffffffffffff1663c8d1c0178360405180807f64656e746973742f746f74616c2d6561726e65640000000000000000000000008152506014018273ffffffffffffffffffffffffffffffffffffffff1673ffffffffffffffffffffffffffffffffffffffff166c010000000000000000000000000281526014019150506040518091039020836040518363ffffffff167c010000000000000000000000000000000000000000000000000000000002815260040180836000191660001916815260200182815260200192505050600060405180830381600087803b151561101c57600080fd5b6102c65a03f1151561102d57600080fd5b5050508273ffffffffffffffffffffffffffffffffffffffff1663c8d1c01760405180807f64656e74697374732f746f74616c2d6561726e6564000000000000000000000081525060150190506040518091039020836040518363ffffffff167c010000000000000000000000000000000000000000000000000000000002815260040180836000191660001916815260200182815260200192505050600060405180830381600087803b15156110e357600080fd5b6102c65a03f115156110f457600080fd5b505050505050565b8273ffffffffffffffffffffffffffffffffffffffff1663c8d1c0178360405180807f6f646c6c2f7363616e2d746f74616c2d6561726e6564000000000000000000008152506016018273ffffffffffffffffffffffffffffffffffffffff1673ffffffffffffffffffffffffffffffffffffffff166c010000000000000000000000000281526014019150506040518091039020836040518363ffffffff167c010000000000000000000000000000000000000000000000000000000002815260040180836000191660001916815260200182815260200192505050600060405180830381600087803b15156111f257600080fd5b6102c65a03f1151561120357600080fd5b5050508273ffffffffffffffffffffffffffffffffffffffff1663c8d1c01760405180807f6f646c6c2f7363616e2d746f74616c2d6561726e65640000000000000000000081525060160190506040518091039020836040518363ffffffff167c010000000000000000000000000000000000000000000000000000000002815260040180836000191660001916815260200182815260200192505050600060405180830381600087803b15156112b957600080fd5b6102c65a03f115156112ca57600080fd5b505050505050565b8273ffffffffffffffffffffffffffffffffffffffff1663c8d1c0178360405180807f6f646c6c2f746f74616c2d6561726e65640000000000000000000000000000008152506011018273ffffffffffffffffffffffffffffffffffffffff1673ffffffffffffffffffffffffffffffffffffffff166c010000000000000000000000000281526014019150506040518091039020836040518363ffffffff167c010000000000000000000000000000000000000000000000000000000002815260040180836000191660001916815260200182815260200192505050600060405180830381600087803b15156113c857600080fd5b6102c65a03f115156113d957600080fd5b5050508273ffffffffffffffffffffffffffffffffffffffff1663c8d1c01760405180807f6f646c6c2f746f74616c2d6561726e656400000000000000000000000000000081525060110190506040518091039020836040518363ffffffff167c010000000000000000000000000000000000000000000000000000000002815260040180836000191660001916815260200182815260200192505050600060405180830381600087803b151561148f57600080fd5b6102c65a03f115156114a057600080fd5b505050505050565b6000806114ea876040805190810160405280600b81526020017f7363616e732d636f756e74000000000000000000000000000000000000000000815250612c93565b91508673ffffffffffffffffffffffffffffffffffffffff1663bdc963d88560405180807f7363616e2d6170706c69636174696f6e2f7363616e2d72657175657374000000815250601d0182815260200191505060405180910390206000604051602001526040518263ffffffff167c0100000000000000000000000000000000000000000000000000000000028152600401808260001916600019168152602001915050602060405180830381600087803b15156115a857600080fd5b6102c65a03f115156115b957600080fd5b50505060405180519050905060008773ffffffffffffffffffffffffffffffffffffffff16637a0e03ec8460405180807f636173652f737461747573000000000000000000000000000000000000000000815250600b0182815260200191505060405180910390206000604051602001526040518263ffffffff167c0100000000000000000000000000000000000000000000000000000000028152600401808260001916600019168152602001915050602060405180830381600087803b151561168357600080fd5b6102c65a03f1151561169457600080fd5b5050506040518051905060ff16148015611787575060018773ffffffffffffffffffffffffffffffffffffffff16637a0e03ec8660405180807f7363616e2d6170706c69636174696f6e2f73746174757300000000000000000081525060170182815260200191505060405180910390206000604051602001526040518263ffffffff167c0100000000000000000000000000000000000000000000000000000000028152600401808260001916600019168152602001915050602060405180830381600087803b151561176757600080fd5b6102c65a03f1151561177857600080fd5b5050506040518051905060ff16145b801561186c575060018773ffffffffffffffffffffffffffffffffffffffff16637a0e03ec8360405180807f7363616e2d726571756573742f7374617475730000000000000000000000000081525060130182815260200191505060405180910390206000604051602001526040518263ffffffff167c0100000000000000000000000000000000000000000000000000000000028152600401808260001916600019168152602001915050602060405180830381600087803b151561184c57600080fd5b6102c65a03f1151561185d57600080fd5b5050506040518051905060ff16145b801561197957508473ffffffffffffffffffffffffffffffffffffffff168773ffffffffffffffffffffffffffffffffffffffff16634c77e5ba8360405180807f7363616e2d726571756573742f70617469656e7400000000000000000000000081525060140182815260200191505060405180910390206000604051602001526040518263ffffffff167c0100000000000000000000000000000000000000000000000000000000028152600401808260001916600019168152602001915050602060405180830381600087803b151561194657600080fd5b6102c65a03f1151561195757600080fd5b5050506040518051905073ffffffffffffffffffffffffffffffffffffffff16145b8015611a8657508573ffffffffffffffffffffffffffffffffffffffff168773ffffffffffffffffffffffffffffffffffffffff16634c77e5ba8660405180807f7363616e2d6170706c69636174696f6e2f64656e74697374000000000000000081525060180182815260200191505060405180910390206000604051602001526040518263ffffffff167c0100000000000000000000000000000000000000000000000000000000028152600401808260001916600019168152602001915050602060405180830381600087803b1515611a5357600080fd5b6102c65a03f11515611a6457600080fd5b5050506040518051905073ffffffffffffffffffffffffffffffffffffffff16145b8015611b9357508473ffffffffffffffffffffffffffffffffffffffff168773ffffffffffffffffffffffffffffffffffffffff16634c77e5ba8660405180807f7363616e2d6170706c69636174696f6e2f70617469656e74000000000000000081525060180182815260200191505060405180910390206000604051602001526040518263ffffffff167c0100000000000000000000000000000000000000000000000000000000028152600401808260001916600019168152602001915050602060405180830381600087803b1515611b6057600080fd5b6102c65a03f11515611b7157600080fd5b5050506040518051905073ffffffffffffffffffffffffffffffffffffffff16145b8015611c84575060008773ffffffffffffffffffffffffffffffffffffffff16634c77e5ba60405180807f6f646c6c2f7061796d656e742d61646472657373000000000000000000000000815250601401905060405180910390206000604051602001526040518263ffffffff167c0100000000000000000000000000000000000000000000000000000000028152600401808260001916600019168152602001915050602060405180830381600087803b1515611c5057600080fd5b6102c65a03f11515611c6157600080fd5b5050506040518051905073ffffffffffffffffffffffffffffffffffffffff1614155b1515611c8f57600080fd5b611c9d878787848887612d99565b611caa878787858761334d565b8673ffffffffffffffffffffffffffffffffffffffff16630bd851588260405180807f7363616e2d726571756573742f73746174757300000000000000000000000000815250601301828152602001915050604051809103902060046040518363ffffffff167c01000000000000000000000000000000000000000000000000000000000281526004018083600019166000191681526020018260ff16815260200192505050600060405180830381600087803b1515611d6957600080fd5b6102c65a03f11515611d7a57600080fd5b5050508673ffffffffffffffffffffffffffffffffffffffff16630bd851588560405180807f7363616e2d6170706c69636174696f6e2f737461747573000000000000000000815250601701828152602001915050604051809103902060046040518363ffffffff167c01000000000000000000000000000000000000000000000000000000000281526004018083600019166000191681526020018260ff16815260200192505050600060405180830381600087803b1515611e3c57600080fd5b6102c65a03f11515611e4d57600080fd5b505050611e5b8782866135e5565b50505050505050565b611f1183836040805190810160405280600f81526020017f70617469656e742f64656e7469737400000000000000000000000000000000008152506040805190810160405280601681526020017f70617469656e742f64656e74697374732d636f756e74000000000000000000008152506040805190810160405280601381526020017f70617469656e742f64656e746973742d6b65790000000000000000000000000081525086613833565b611fbe83826040805190810160405280600f81526020017f64656e746973742f70617469656e7400000000000000000000000000000000008152506040805190810160405280601381526020017f64656e746973742f70617469656e742d6b6579000000000000000000000000008152506040805190810160405280601381526020017f64656e746973742f70617469656e742d6b65790000000000000000000000000081525087613833565b505050565b60018473ffffffffffffffffffffffffffffffffffffffff16637a0e03ec8360405180807f7363616e2d6170706c69636174696f6e2f73746174757300000000000000000081525060170182815260200191505060405180910390206000604051602001526040518263ffffffff167c0100000000000000000000000000000000000000000000000000000000028152600401808260001916600019168152602001915050602060405180830381600087803b151561208157600080fd5b6102c65a03f1151561209257600080fd5b5050506040518051905060ff161480156121ad57508273ffffffffffffffffffffffffffffffffffffffff168473ffffffffffffffffffffffffffffffffffffffff16634c77e5ba8360405180807f7363616e2d6170706c69636174696f6e2f64656e74697374000000000000000081525060180182815260200191505060405180910390206000604051602001526040518263ffffffff167c0100000000000000000000000000000000000000000000000000000000028152600401808260001916600019168152602001915050602060405180830381600087803b151561217a57600080fd5b6102c65a03f1151561218b57600080fd5b5050506040518051905073ffffffffffffffffffffffffffffffffffffffff16145b80156122ba57508173ffffffffffffffffffffffffffffffffffffffff168473ffffffffffffffffffffffffffffffffffffffff16634c77e5ba8360405180807f7363616e2d6170706c69636174696f6e2f70617469656e74000000000000000081525060180182815260200191505060405180910390206000604051602001526040518263ffffffff167c0100000000000000000000000000000000000000000000000000000000028152600401808260001916600019168152602001915050602060405180830381600087803b151561228757600080fd5b6102c65a03f1151561229857600080fd5b5050506040518051905073ffffffffffffffffffffffffffffffffffffffff16145b15156122c557600080fd5b8373ffffffffffffffffffffffffffffffffffffffff16630bd851588260405180807f7363616e2d6170706c69636174696f6e2f737461747573000000000000000000815250601701828152602001915050604051809103902060036040518363ffffffff167c01000000000000000000000000000000000000000000000000000000000281526004018083600019166000191681526020018260ff16815260200192505050600060405180830381600087803b151561238457600080fd5b6102c65a03f1151561239557600080fd5b50505050505050565b6000806000806123e38a6040805190810160405280601781526020017f7363616e2d6170706c69636174696f6e732d636f756e74000000000000000000815250612c93565b935060008a73ffffffffffffffffffffffffffffffffffffffff16637a0e03ec8660405180807f7363616e2d6170706c69636174696f6e2f73746174757300000000000000000081525060170182815260200191505060405180910390206000604051602001526040518263ffffffff167c0100000000000000000000000000000000000000000000000000000000028152600401808260001916600019168152602001915050602060405180830381600087803b15156124a357600080fd5b6102c65a03f115156124b457600080fd5b5050506040518051905060ff161480156125a7575060018a73ffffffffffffffffffffffffffffffffffffffff16637a0e03ec8960405180807f7363616e2d726571756573742f7374617475730000000000000000000000000081525060130182815260200191505060405180910390206000604051602001526040518263ffffffff167c0100000000000000000000000000000000000000000000000000000000028152600401808260001916600019168152602001915050602060405180830381600087803b151561258757600080fd5b6102c65a03f1151561259857600080fd5b5050506040518051905060ff16145b80156126b457508773ffffffffffffffffffffffffffffffffffffffff168a73ffffffffffffffffffffffffffffffffffffffff16634c77e5ba8960405180807f7363616e2d726571756573742f70617469656e7400000000000000000000000081525060140182815260200191505060405180910390206000604051602001526040518263ffffffff167c0100000000000000000000000000000000000000000000000000000000028152600401808260001916600019168152602001915050602060405180830381600087803b151561268157600080fd5b6102c65a03f1151561269257600080fd5b5050506040518051905073ffffffffffffffffffffffffffffffffffffffff16145b15156126bf57600080fd5b600092505b83831015612c6c578973ffffffffffffffffffffffffffffffffffffffff1663bdc963d88a8560405180807f64656e746973742f7363616e2d6170706c69636174696f6e00000000000000008152506018018373ffffffffffffffffffffffffffffffffffffffff1673ffffffffffffffffffffffffffffffffffffffff166c010000000000000000000000000281526014018281526020019250505060405180910390206000604051602001526040518263ffffffff167c0100000000000000000000000000000000000000000000000000000000028152600401808260001916600019168152602001915050602060405180830381600087803b15156127cb57600080fd5b6102c65a03f115156127dc57600080fd5b5050506040518051905091508973ffffffffffffffffffffffffffffffffffffffff1663bdc963d88360405180807f7363616e2d6170706c69636174696f6e2f7363616e2d72657175657374000000815250601d0182815260200191505060405180910390206000604051602001526040518263ffffffff167c0100000000000000000000000000000000000000000000000000000000028152600401808260001916600019168152602001915050602060405180830381600087803b15156128a457600080fd5b6102c65a03f115156128b557600080fd5b5050506040518051905090508681148015612c55575060018a73ffffffffffffffffffffffffffffffffffffffff16637a0e03ec8460405180807f7363616e2d6170706c69636174696f6e2f73746174757300000000000000000081525060170182815260200191505060405180910390206000604051602001526040518263ffffffff167c0100000000000000000000000000000000000000000000000000000000028152600401808260001916600019168152602001915050602060405180830381600087803b151561298957600080fd5b6102c65a03f1151561299a57600080fd5b5050506040518051905060ff161480612a8c575060028a73ffffffffffffffffffffffffffffffffffffffff16637a0e03ec8460405180807f7363616e2d6170706c69636174696f6e2f73746174757300000000000000000081525060170182815260200191505060405180910390206000604051602001526040518263ffffffff167c0100000000000000000000000000000000000000000000000000000000028152600401808260001916600019168152602001915050602060405180830381600087803b1515612a6c57600080fd5b6102c65a03f11515612a7d57600080fd5b5050506040518051905060ff16145b80612b70575060048a73ffffffffffffffffffffffffffffffffffffffff16637a0e03ec8460405180807f7363616e2d6170706c69636174696f6e2f73746174757300000000000000000081525060170182815260200191505060405180910390206000604051602001526040518263ffffffff167c0100000000000000000000000000000000000000000000000000000000028152600401808260001916600019168152602001915050602060405180830381600087803b1515612b5057600080fd5b6102c65a03f11515612b6157600080fd5b5050506040518051905060ff16145b80612c54575060058a73ffffffffffffffffffffffffffffffffffffffff16637a0e03ec8460405180807f7363616e2d6170706c69636174696f6e2f73746174757300000000000000000081525060170182815260200191505060405180910390206000604051602001526040518263ffffffff167c0100000000000000000000000000000000000000000000000000000000028152600401808260001916600019168152602001915050602060405180830381600087803b1515612c3457600080fd5b6102c65a03f11515612c4557600080fd5b5050506040518051905060ff16145b5b15612c5f57612c87565b82806001019350506126c4565b612c778a8886613b54565b612c868a8a8a8a888b8b613ede565b5b50505050505050505050565b60008273ffffffffffffffffffffffffffffffffffffffff1663bdc963d8836040518082805190602001908083835b602083101515612ce75780518252602082019150602081019050602083039250612cc2565b6001836020036101000a03801982511681845116808217855250505050505090500191505060405180910390206000604051602001526040518263ffffffff167c0100000000000000000000000000000000000000000000000000000000028152600401808260001916600019168152602001915050602060405180830381600087803b1515612d7657600080fd5b6102c65a03f11515612d8757600080fd5b50505060405180519050905092915050565b8573ffffffffffffffffffffffffffffffffffffffff16630bd851588260405180807f636173652f737461747573000000000000000000000000000000000000000000815250600b01828152602001915050604051809103902060016040518363ffffffff167c01000000000000000000000000000000000000000000000000000000000281526004018083600019166000191681526020018260ff16815260200192505050600060405180830381600087803b1515612e5857600080fd5b6102c65a03f11515612e6957600080fd5b5050508573ffffffffffffffffffffffffffffffffffffffff16633562fd208260405180807f636173652f637265617465642d6f6e0000000000000000000000000000000000815250600f018281526020019150506040518091039020426040518363ffffffff167c010000000000000000000000000000000000000000000000000000000002815260040180836000191660001916815260200182815260200192505050600060405180830381600087803b1515612f2757600080fd5b6102c65a03f11515612f3857600080fd5b5050508573ffffffffffffffffffffffffffffffffffffffff16635a2bf25a8260405180807f636173652f64656e746973740000000000000000000000000000000000000000815250600c018281526020019150506040518091039020876040518363ffffffff167c01000000000000000000000000000000000000000000000000000000000281526004018083600019166000191681526020018273ffffffffffffffffffffffffffffffffffffffff1673ffffffffffffffffffffffffffffffffffffffff16815260200192505050600060405180830381600087803b151561302257600080fd5b6102c65a03f1151561303357600080fd5b5050508573ffffffffffffffffffffffffffffffffffffffff16635a2bf25a8260405180807f636173652f70617469656e740000000000000000000000000000000000000000815250600c018281526020019150506040518091039020866040518363ffffffff167c01000000000000000000000000000000000000000000000000000000000281526004018083600019166000191681526020018273ffffffffffffffffffffffffffffffffffffffff1673ffffffffffffffffffffffffffffffffffffffff16815260200192505050600060405180830381600087803b151561311d57600080fd5b6102c65a03f1151561312e57600080fd5b5050508573ffffffffffffffffffffffffffffffffffffffff16633562fd208260405180807f636173652f7363616e2d726571756573740000000000000000000000000000008152506011018281526020019150506040518091039020856040518363ffffffff167c010000000000000000000000000000000000000000000000000000000002815260040180836000191660001916815260200182815260200192505050600060405180830381600087803b15156131ec57600080fd5b6102c65a03f115156131fd57600080fd5b5050508573ffffffffffffffffffffffffffffffffffffffff16633562fd208260405180807f636173652f7363616e2d6170706c69636174696f6e00000000000000000000008152506015018281526020019150506040518091039020846040518363ffffffff167c010000000000000000000000000000000000000000000000000000000002815260040180836000191660001916815260200182815260200192505050600060405180830381600087803b15156132bb57600080fd5b6102c65a03f115156132cc57600080fd5b505050613345866040805190810160405280600481526020017f63617365000000000000000000000000000000000000000000000000000000008152506040805190810160405280600b81526020017f63617365732d636f756e7400000000000000000000000000000000000000000081525084614371565b505050505050565b8473ffffffffffffffffffffffffffffffffffffffff16633562fd208360405180807f636173652f616d6f756e74000000000000000000000000000000000000000000815250600b018281526020019150506040518091039020836040518363ffffffff167c010000000000000000000000000000000000000000000000000000000002815260040180836000191660001916815260200182815260200192505050600060405180830381600087803b151561340857600080fd5b6102c65a03f1151561341957600080fd5b5050508473ffffffffffffffffffffffffffffffffffffffff16633eba9ed28360405180807f636173652f706169640000000000000000000000000000000000000000000000815250600901828152602001915050604051809103902060016040518363ffffffff167c01000000000000000000000000000000000000000000000000000000000281526004018083600019166000191681526020018215151515815260200192505050600060405180830381600087803b15156134dc57600080fd5b6102c65a03f115156134ed57600080fd5b50505061356785856040805190810160405280600c81526020017f64656e746973742f6361736500000000000000000000000000000000000000008152506040805190810160405280601381526020017f64656e746973742f63617365732d636f756e74000000000000000000000000008152508661466b565b6135de85846040805190810160405280600c81526020017f70617469656e742f6361736500000000000000000000000000000000000000008152506040805190810160405280601381526020017f70617469656e742f63617365732d636f756e74000000000000000000000000008152508661466b565b5050505050565b60008060006136518686606060405190810160405280602481526020017f7363616e2d726571756573742f7363616e2d6170706c69636174696f6e732d6381526020017f6f756e74000000000000000000000000000000000000000000000000000000008152506148fb565b9250600091505b8282101561382b578573ffffffffffffffffffffffffffffffffffffffff1663bdc963d8868460405180807f7363616e2d726571756573742f7363616e2d6170706c69636174696f6e000000815250601d018381526020018281526020019250505060405180910390206000604051602001526040518263ffffffff167c0100000000000000000000000000000000000000000000000000000000028152600401808260001916600019168152602001915050602060405180830381600087803b151561372457600080fd5b6102c65a03f1151561373557600080fd5b505050604051805190509050838114151561381e578573ffffffffffffffffffffffffffffffffffffffff16630bd851588260405180807f7363616e2d6170706c69636174696f6e2f737461747573000000000000000000815250601701828152602001915050604051809103902060056040518363ffffffff167c01000000000000000000000000000000000000000000000000000000000281526004018083600019166000191681526020018260ff16815260200192505050600060405180830381600087803b151561380957600080fd5b6102c65a03f1151561381a57600080fd5b5050505b8180600101925050613658565b505050505050565b60008673ffffffffffffffffffffffffffffffffffffffff16637a0e03ec8688856040518084805190602001908083835b6020831015156138895780518252602082019150602081019050602083039250613864565b6001836020036101000a0380198251168184511680821785525050505050509050018373ffffffffffffffffffffffffffffffffffffffff1673ffffffffffffffffffffffffffffffffffffffff166c010000000000000000000000000281526014018273ffffffffffffffffffffffffffffffffffffffff1673ffffffffffffffffffffffffffffffffffffffff166c01000000000000000000000000028152601401935050505060405180910390206000604051602001526040518263ffffffff167c0100000000000000000000000000000000000000000000000000000000028152600401808260001916600019168152602001915050602060405180830381600087803b151561399c57600080fd5b6102c65a03f115156139ad57600080fd5b5050506040518051905060ff1614156139ce576139cd8686848685614a0a565b5b8573ffffffffffffffffffffffffffffffffffffffff16630bd851588587846040518084805190602001908083835b602083101515613a2257805182526020820191506020810190506020830392506139fd565b6001836020036101000a0380198251168184511680821785525050505050509050018373ffffffffffffffffffffffffffffffffffffffff1673ffffffffffffffffffffffffffffffffffffffff166c010000000000000000000000000281526014018273ffffffffffffffffffffffffffffffffffffffff1673ffffffffffffffffffffffffffffffffffffffff166c010000000000000000000000000281526014019350505050604051809103902060016040518363ffffffff167c01000000000000000000000000000000000000000000000000000000000281526004018083600019166000191681526020018260ff16815260200192505050600060405180830381600087803b1515613b3857600080fd5b6102c65a03f11515613b4957600080fd5b505050505050505050565b8273ffffffffffffffffffffffffffffffffffffffff16630bd851588260405180807f7363616e2d6170706c69636174696f6e2f737461747573000000000000000000815250601701828152602001915050604051809103902060016040518363ffffffff167c01000000000000000000000000000000000000000000000000000000000281526004018083600019166000191681526020018260ff16815260200192505050600060405180830381600087803b1515613c1357600080fd5b6102c65a03f11515613c2457600080fd5b5050508273ffffffffffffffffffffffffffffffffffffffff16633562fd208260405180807f7363616e2d6170706c69636174696f6e2f637265617465642d6f6e0000000000815250601b018281526020019150506040518091039020426040518363ffffffff167c010000000000000000000000000000000000000000000000000000000002815260040180836000191660001916815260200182815260200192505050600060405180830381600087803b1515613ce257600080fd5b6102c65a03f11515613cf357600080fd5b5050508273ffffffffffffffffffffffffffffffffffffffff16633562fd208260405180807f7363616e2d6170706c69636174696f6e2f7363616e2d72657175657374000000815250601d018281526020019150506040518091039020846040518363ffffffff167c010000000000000000000000000000000000000000000000000000000002815260040180836000191660001916815260200182815260200192505050600060405180830381600087803b1515613db157600080fd5b6102c65a03f11515613dc257600080fd5b505050613e3b836040805190810160405280601081526020017f7363616e2d6170706c69636174696f6e000000000000000000000000000000008152506040805190810160405280601781526020017f7363616e2d6170706c69636174696f6e732d636f756e7400000000000000000081525084614371565b613ed983836040805190810160405280601d81526020017f7363616e2d726571756573742f7363616e2d6170706c69636174696f6e000000815250606060405190810160405280602481526020017f7363616e2d726571756573742f7363616e2d6170706c69636174696f6e732d6381526020017f6f756e740000000000000000000000000000000000000000000000000000000081525085614cc6565b505050565b8673ffffffffffffffffffffffffffffffffffffffff16633562fd208460405180807f7363616e2d6170706c69636174696f6e2f71756f7465000000000000000000008152506016018281526020019150506040518091039020846040518363ffffffff167c010000000000000000000000000000000000000000000000000000000002815260040180836000191660001916815260200182815260200192505050600060405180830381600087803b1515613f9957600080fd5b6102c65a03f11515613faa57600080fd5b5050508673ffffffffffffffffffffffffffffffffffffffff166325cf512d8460405180807f7363616e2d6170706c69636174696f6e2f636f6d6d656e7400000000000000008152506018018281526020019150506040518091039020836040518363ffffffff167c0100000000000000000000000000000000000000000000000000000000028152600401808360001916600019168152602001826000191660001916815260200192505050600060405180830381600087803b151561407057600080fd5b6102c65a03f1151561408157600080fd5b5050508673ffffffffffffffffffffffffffffffffffffffff16635a2bf25a8460405180807f7363616e2d6170706c69636174696f6e2f64656e7469737400000000000000008152506018018281526020019150506040518091039020886040518363ffffffff167c01000000000000000000000000000000000000000000000000000000000281526004018083600019166000191681526020018273ffffffffffffffffffffffffffffffffffffffff1673ffffffffffffffffffffffffffffffffffffffff16815260200192505050600060405180830381600087803b151561416b57600080fd5b6102c65a03f1151561417c57600080fd5b5050508673ffffffffffffffffffffffffffffffffffffffff16635a2bf25a8460405180807f7363616e2d6170706c69636174696f6e2f70617469656e7400000000000000008152506018018281526020019150506040518091039020876040518363ffffffff167c01000000000000000000000000000000000000000000000000000000000281526004018083600019166000191681526020018273ffffffffffffffffffffffffffffffffffffffff1673ffffffffffffffffffffffffffffffffffffffff16815260200192505050600060405180830381600087803b151561426657600080fd5b6102c65a03f1151561427757600080fd5b5050506142f187876040805190810160405280601881526020017f64656e746973742f7363616e2d6170706c69636174696f6e00000000000000008152506040805190810160405280601f81526020017f64656e746973742f7363616e2d6170706c69636174696f6e732d636f756e74008152508761466b565b61436887866040805190810160405280601881526020017f70617469656e742f7363616e2d6170706c69636174696f6e00000000000000008152506040805190810160405280601f81526020017f70617469656e742f7363616e2d6170706c69636174696f6e732d636f756e74008152508761466b565b50505050505050565b60008473ffffffffffffffffffffffffffffffffffffffff1663bdc963d8846040518082805190602001908083835b6020831015156143c557805182526020820191506020810190506020830392506143a0565b6001836020036101000a03801982511681845116808217855250505050505090500191505060405180910390206000604051602001526040518263ffffffff167c0100000000000000000000000000000000000000000000000000000000028152600401808260001916600019168152602001915050602060405180830381600087803b151561445457600080fd5b6102c65a03f1151561446557600080fd5b5050506040518051905090508473ffffffffffffffffffffffffffffffffffffffff16633562fd2085836040518083805190602001908083835b6020831015156144c4578051825260208201915060208101905060208303925061449f565b6001836020036101000a038019825116818451168082178552505050505050905001828152602001925050506040518091039020846040518363ffffffff167c010000000000000000000000000000000000000000000000000000000002815260040180836000191660001916815260200182815260200192505050600060405180830381600087803b151561455957600080fd5b6102c65a03f1151561456a57600080fd5b5050508473ffffffffffffffffffffffffffffffffffffffff16633562fd20846040518082805190602001908083835b6020831015156145bf578051825260208201915060208101905060208303925061459a565b6001836020036101000a0380198251168184511680821785525050505050509050019150506040518091039020600184016040518363ffffffff167c010000000000000000000000000000000000000000000000000000000002815260040180836000191660001916815260200182815260200192505050600060405180830381600087803b151561465057600080fd5b6102c65a03f1151561466157600080fd5b5050505050505050565b6000614678868685614ee0565b90508573ffffffffffffffffffffffffffffffffffffffff16633562fd208587846040518084805190602001908083835b6020831015156146ce57805182526020820191506020810190506020830392506146a9565b6001836020036101000a0380198251168184511680821785525050505050509050018373ffffffffffffffffffffffffffffffffffffffff1673ffffffffffffffffffffffffffffffffffffffff166c0100000000000000000000000002815260140182815260200193505050506040518091039020846040518363ffffffff167c010000000000000000000000000000000000000000000000000000000002815260040180836000191660001916815260200182815260200192505050600060405180830381600087803b15156147a557600080fd5b6102c65a03f115156147b657600080fd5b5050508573ffffffffffffffffffffffffffffffffffffffff16633562fd2084876040518083805190602001908083835b60208310151561480c57805182526020820191506020810190506020830392506147e7565b6001836020036101000a0380198251168184511680821785525050505050509050018273ffffffffffffffffffffffffffffffffffffffff1673ffffffffffffffffffffffffffffffffffffffff166c01000000000000000000000000028152601401925050506040518091039020600184016040518363ffffffff167c010000000000000000000000000000000000000000000000000000000002815260040180836000191660001916815260200182815260200192505050600060405180830381600087803b15156148df57600080fd5b6102c65a03f115156148f057600080fd5b505050505050505050565b60008373ffffffffffffffffffffffffffffffffffffffff1663bdc963d883856040518083805190602001908083835b602083101515614950578051825260208201915060208101905060208303925061492b565b6001836020036101000a0380198251168184511680821785525050505050509050018281526020019250505060405180910390206000604051602001526040518263ffffffff167c0100000000000000000000000000000000000000000000000000000000028152600401808260001916600019168152602001915050602060405180830381600087803b15156149e657600080fd5b6102c65a03f115156149f757600080fd5b5050506040518051905090509392505050565b6000614a17868685614ee0565b90508573ffffffffffffffffffffffffffffffffffffffff16635a2bf25a8587846040518084805190602001908083835b602083101515614a6d5780518252602082019150602081019050602083039250614a48565b6001836020036101000a0380198251168184511680821785525050505050509050018373ffffffffffffffffffffffffffffffffffffffff1673ffffffffffffffffffffffffffffffffffffffff166c0100000000000000000000000002815260140182815260200193505050506040518091039020846040518363ffffffff167c01000000000000000000000000000000000000000000000000000000000281526004018083600019166000191681526020018273ffffffffffffffffffffffffffffffffffffffff1673ffffffffffffffffffffffffffffffffffffffff16815260200192505050600060405180830381600087803b1515614b7057600080fd5b6102c65a03f11515614b8157600080fd5b5050508573ffffffffffffffffffffffffffffffffffffffff16633562fd2084876040518083805190602001908083835b602083101515614bd75780518252602082019150602081019050602083039250614bb2565b6001836020036101000a0380198251168184511680821785525050505050509050018273ffffffffffffffffffffffffffffffffffffffff1673ffffffffffffffffffffffffffffffffffffffff166c01000000000000000000000000028152601401925050506040518091039020600184016040518363ffffffff167c010000000000000000000000000000000000000000000000000000000002815260040180836000191660001916815260200182815260200192505050600060405180830381600087803b1515614caa57600080fd5b6102c65a03f11515614cbb57600080fd5b505050505050505050565b6000614cd38686856148fb565b90508573ffffffffffffffffffffffffffffffffffffffff16633562fd208587846040518084805190602001908083835b602083101515614d295780518252602082019150602081019050602083039250614d04565b6001836020036101000a03801982511681845116808217855250505050505090500183815260200182815260200193505050506040518091039020846040518363ffffffff167c010000000000000000000000000000000000000000000000000000000002815260040180836000191660001916815260200182815260200192505050600060405180830381600087803b1515614dc557600080fd5b6102c65a03f11515614dd657600080fd5b5050508573ffffffffffffffffffffffffffffffffffffffff16633562fd2084876040518083805190602001908083835b602083101515614e2c5780518252602082019150602081019050602083039250614e07565b6001836020036101000a038019825116818451168082178552505050505050905001828152602001925050506040518091039020600184016040518363ffffffff167c010000000000000000000000000000000000000000000000000000000002815260040180836000191660001916815260200182815260200192505050600060405180830381600087803b1515614ec457600080fd5b6102c65a03f11515614ed557600080fd5b505050505050505050565b60008373ffffffffffffffffffffffffffffffffffffffff1663bdc963d883856040518083805190602001908083835b602083101515614f355780518252602082019150602081019050602083039250614f10565b6001836020036101000a0380198251168184511680821785525050505050509050018273ffffffffffffffffffffffffffffffffffffffff1673ffffffffffffffffffffffffffffffffffffffff166c010000000000000000000000000281526014019250505060405180910390206000604051602001526040518263ffffffff167c0100000000000000000000000000000000000000000000000000000000028152600401808260001916600019168152602001915050602060405180830381600087803b151561500657600080fd5b6102c65a03f1151561501757600080fd5b50505060405180519050905093925050505600a165627a7a723058201832a59e08368c543550088239cec793efc86b19828f0548c1619ce7c37f01b90029",
  "source": "pragma solidity 0.4.18;\nimport \"./Restrictor.sol\";\nimport \"../lib/odll/userManager.sol\";\n\ncontract ScanApplicationWriter is Restrictor {\n  function ScanApplicationWriter(address _dbAddress) public {\n    require(_dbAddress != 0x0);\n    dbAddress = _dbAddress;\n  }\n\n  // Scan Application\n  function applyToScan (\n    address dentistId,\n    address patientId,\n    uint scanRequestId,\n    uint quote,\n    bytes32 comment\n  )\n    external\n    onlyPermittedSmartContract\n  {\n    userManager.applyToScan(dbAddress, msg.sender, patientId, scanRequestId, quote, comment);\n  }\n\n  function cancelScanApplication (\n    address dentistId,\n    address patientId,\n    uint scanApplicationId\n  )\n    external\n  {\n    userManager.cancelScanApplication(dbAddress, msg.sender, patientId, scanApplicationId);\n  }\n\n  function acceptScanApplication (\n    address dentistId,\n    address patientId,\n    uint scanApplicationId,\n    uint quote\n  )\n    external\n    payable\n    onlyPermittedSmartContract\n  {\n    if (msg.value < quote) {\n      msg.sender.transfer(msg.value);\n      return;\n    }\n\n    userManager.acceptScanApplication(dbAddress, dentistId, msg.sender, scanApplicationId, msg.value, quote);\n  }\n}\n",
  "sourcePath": "/home/daniel/dev/vue/apps/oral-data-link/contracts/odll/ScanApplicationWriter.sol",
  "compiler": {
    "name": "solc",
    "version": "0.4.18+commit.9cf6e910.Emscripten.clang"
  },
  "schemaVersion": "1.0.1",
  "updatedAt": "2017-11-09T14:19:39.757Z"
}