{
  "contractName": "ScanRequestWriter",
  "abi": [
    {
      "constant": true,
      "inputs": [],
      "name": "smartContractStatus",
      "outputs": [
        {
          "name": "",
          "type": "uint8"
        }
      ],
      "payable": false,
      "stateMutability": "view",
      "type": "function"
    },
    {
      "constant": true,
      "inputs": [],
      "name": "owner",
      "outputs": [
        {
          "name": "",
          "type": "address"
        }
      ],
      "payable": false,
      "stateMutability": "view",
      "type": "function"
    },
    {
      "constant": true,
      "inputs": [],
      "name": "dbAddress",
      "outputs": [
        {
          "name": "",
          "type": "address"
        }
      ],
      "payable": false,
      "stateMutability": "view",
      "type": "function"
    },
    {
      "constant": false,
      "inputs": [
        {
          "name": "scanRequestId",
          "type": "uint256"
        }
      ],
      "name": "cancelScanRequest",
      "outputs": [],
      "payable": false,
      "stateMutability": "nonpayable",
      "type": "function"
    },
    {
      "constant": false,
      "inputs": [
        {
          "name": "patientId",
          "type": "address"
        },
        {
          "name": "scanRequestId",
          "type": "uint256"
        },
        {
          "name": "quote",
          "type": "uint256"
        },
        {
          "name": "comment",
          "type": "bytes32"
        }
      ],
      "name": "acceptScanRequest",
      "outputs": [],
      "payable": false,
      "stateMutability": "nonpayable",
      "type": "function"
    },
    {
      "constant": false,
      "inputs": [
        {
          "name": "patientId",
          "type": "address"
        },
        {
          "name": "scanRequestId",
          "type": "uint256"
        }
      ],
      "name": "rejectScanRequest",
      "outputs": [],
      "payable": false,
      "stateMutability": "nonpayable",
      "type": "function"
    },
    {
      "constant": false,
      "inputs": [
        {
          "name": "scanRequestId",
          "type": "uint256"
        }
      ],
      "name": "expireScanRequest",
      "outputs": [],
      "payable": false,
      "stateMutability": "nonpayable",
      "type": "function"
    },
    {
      "constant": false,
      "inputs": [
        {
          "name": "newOwner",
          "type": "address"
        }
      ],
      "name": "transferOwnership",
      "outputs": [],
      "payable": false,
      "stateMutability": "nonpayable",
      "type": "function"
    },
    {
      "constant": false,
      "inputs": [
        {
          "name": "dentistId",
          "type": "address"
        },
        {
          "name": "scanAppointmentId",
          "type": "uint256"
        },
        {
          "name": "appointmentDate",
          "type": "bytes32"
        },
        {
          "name": "scanTime",
          "type": "bytes32"
        },
        {
          "name": "scanInsurance",
          "type": "bytes32"
        },
        {
          "name": "comment",
          "type": "bytes32"
        }
      ],
      "name": "writeScanRequest",
      "outputs": [],
      "payable": false,
      "stateMutability": "nonpayable",
      "type": "function"
    },
    {
      "inputs": [
        {
          "name": "_dbAddress",
          "type": "address"
        }
      ],
      "payable": false,
      "stateMutability": "nonpayable",
      "type": "constructor"
    },
    {
      "anonymous": false,
      "inputs": [
        {
          "indexed": false,
          "name": "status",
          "type": "uint8"
        }
      ],
      "name": "OnSmartContractStatusSet",
      "type": "event"
    },
    {
      "anonymous": false,
      "inputs": [
        {
          "indexed": true,
          "name": "previousOwner",
          "type": "address"
        },
        {
          "indexed": true,
          "name": "newOwner",
          "type": "address"
        }
      ],
      "name": "OwnershipTransferred",
      "type": "event"
    }
  ],
  "bytecode": "0x6060604052341561000f57600080fd5b604051602080613b4083398101604052808051906020019091905050336000806101000a81548173ffffffffffffffffffffffffffffffffffffffff021916908373ffffffffffffffffffffffffffffffffffffffff16021790555060008173ffffffffffffffffffffffffffffffffffffffff161415151561009157600080fd5b80600160006101000a81548173ffffffffffffffffffffffffffffffffffffffff021916908373ffffffffffffffffffffffffffffffffffffffff16021790555050613a5e806100e26000396000f300606060405260043610610099576000357c0100000000000000000000000000000000000000000000000000000000900463ffffffff1680634c8ddddc1461009e5780638da5cb5b146100cd57806391e06b6d146101225780639878585d14610177578063ad5942841461019a578063bcd1269b146101f2578063d05aa65214610234578063f2fde38b14610257578063f84f921214610290575b600080fd5b34156100a957600080fd5b6100b1610306565b604051808260ff1660ff16815260200191505060405180910390f35b34156100d857600080fd5b6100e0610319565b604051808273ffffffffffffffffffffffffffffffffffffffff1673ffffffffffffffffffffffffffffffffffffffff16815260200191505060405180910390f35b341561012d57600080fd5b61013561033e565b604051808273ffffffffffffffffffffffffffffffffffffffff1673ffffffffffffffffffffffffffffffffffffffff16815260200191505060405180910390f35b341561018257600080fd5b6101986004808035906020019091905050610364565b005b34156101a557600080fd5b6101f0600480803573ffffffffffffffffffffffffffffffffffffffff16906020019091908035906020019091908035906020019091908035600019169060200190919050506103b5565b005b34156101fd57600080fd5b610232600480803573ffffffffffffffffffffffffffffffffffffffff1690602001909190803590602001909190505061040c565b005b341561023f57600080fd5b610255600480803590602001909190505061045f565b005b341561026257600080fd5b61028e600480803573ffffffffffffffffffffffffffffffffffffffff169060200190919050506104af565b005b341561029b57600080fd5b610304600480803573ffffffffffffffffffffffffffffffffffffffff1690602001909190803590602001909190803560001916906020019091908035600019169060200190919080356000191690602001909190803560001916906020019091905050610604565b005b600160149054906101000a900460ff1681565b6000809054906101000a900473ffffffffffffffffffffffffffffffffffffffff1681565b600160009054906101000a900473ffffffffffffffffffffffffffffffffffffffff1681565b6000600160149054906101000a900460ff1660ff1614151561038557600080fd5b6103b2600160009054906101000a900473ffffffffffffffffffffffffffffffffffffffff16338361065f565b50565b6000600160149054906101000a900460ff1660ff161415156103d657600080fd5b610406600160009054906101000a900473ffffffffffffffffffffffffffffffffffffffff16338686868661066f565b50505050565b6000600160149054906101000a900460ff1660ff1614151561042d57600080fd5b61045b600160009054906101000a900473ffffffffffffffffffffffffffffffffffffffff16338484610685565b5050565b6000600160149054906101000a900460ff1660ff1614151561048057600080fd5b6104ac600160009054906101000a900473ffffffffffffffffffffffffffffffffffffffff1682610697565b50565b6000809054906101000a900473ffffffffffffffffffffffffffffffffffffffff1673ffffffffffffffffffffffffffffffffffffffff163373ffffffffffffffffffffffffffffffffffffffff1614151561050a57600080fd5b600073ffffffffffffffffffffffffffffffffffffffff168173ffffffffffffffffffffffffffffffffffffffff161415151561054657600080fd5b8073ffffffffffffffffffffffffffffffffffffffff166000809054906101000a900473ffffffffffffffffffffffffffffffffffffffff1673ffffffffffffffffffffffffffffffffffffffff167f8be0079c531659141344cd1fd0a4f28419497f9722a3daafe3b4186f6b6457e060405160405180910390a3806000806101000a81548173ffffffffffffffffffffffffffffffffffffffff021916908373ffffffffffffffffffffffffffffffffffffffff16021790555050565b6000600160149054906101000a900460ff1660ff1614151561062557600080fd5b610657600160009054906101000a900473ffffffffffffffffffffffffffffffffffffffff16873388888888886106a5565b505050505050565b61066a8383836106bf565b505050565b61067d86868686868661098c565b505050505050565b61069184848484610b86565b50505050565b6106a18282610f61565b5050565b6106b58888888888888888611120565b5050505050505050565b60018373ffffffffffffffffffffffffffffffffffffffff16637a0e03ec8360405180807f7363616e2d726571756573742f7374617475730000000000000000000000000081525060130182815260200191505060405180910390206000604051602001526040518263ffffffff167c0100000000000000000000000000000000000000000000000000000000028152600401808260001916600019168152602001915050602060405180830381600087803b151561077d57600080fd5b6102c65a03f1151561078e57600080fd5b5050506040518051905060ff161480156108a957508173ffffffffffffffffffffffffffffffffffffffff168373ffffffffffffffffffffffffffffffffffffffff16634c77e5ba8360405180807f7363616e2d726571756573742f70617469656e7400000000000000000000000081525060140182815260200191505060405180910390206000604051602001526040518263ffffffff167c0100000000000000000000000000000000000000000000000000000000028152600401808260001916600019168152602001915050602060405180830381600087803b151561087657600080fd5b6102c65a03f1151561088757600080fd5b5050506040518051905073ffffffffffffffffffffffffffffffffffffffff16145b15156108b457600080fd5b8273ffffffffffffffffffffffffffffffffffffffff16630bd851588260405180807f7363616e2d726571756573742f73746174757300000000000000000000000000815250601301828152602001915050604051809103902060036040518363ffffffff167c01000000000000000000000000000000000000000000000000000000000281526004018083600019166000191681526020018260ff16815260200192505050600060405180830381600087803b151561097357600080fd5b6102c65a03f1151561098457600080fd5b505050505050565b8473ffffffffffffffffffffffffffffffffffffffff168673ffffffffffffffffffffffffffffffffffffffff16634c77e5ba8560405180807f7363616e2d726571756573742f64656e7469737400000000000000000000000081525060140182815260200191505060405180910390206000604051602001526040518263ffffffff167c0100000000000000000000000000000000000000000000000000000000028152600401808260001916600019168152602001915050602060405180830381600087803b1515610a5f57600080fd5b6102c65a03f11515610a7057600080fd5b5050506040518051905073ffffffffffffffffffffffffffffffffffffffff16141515610a9c57600080fd5b610aaa86868686868661127b565b8573ffffffffffffffffffffffffffffffffffffffff16633eba9ed28460405180807f7363616e2d726571756573742f69732d61636365707465643f00000000000000815250601901828152602001915050604051809103902060016040518363ffffffff167c01000000000000000000000000000000000000000000000000000000000281526004018083600019166000191681526020018215151515815260200192505050600060405180830381600087803b1515610b6a57600080fd5b6102c65a03f11515610b7b57600080fd5b505050505050505050565b60018473ffffffffffffffffffffffffffffffffffffffff16637a0e03ec8360405180807f7363616e2d726571756573742f7374617475730000000000000000000000000081525060130182815260200191505060405180910390206000604051602001526040518263ffffffff167c0100000000000000000000000000000000000000000000000000000000028152600401808260001916600019168152602001915050602060405180830381600087803b1515610c4457600080fd5b6102c65a03f11515610c5557600080fd5b5050506040518051905060ff16148015610d7057508273ffffffffffffffffffffffffffffffffffffffff168473ffffffffffffffffffffffffffffffffffffffff16634c77e5ba8360405180807f7363616e2d726571756573742f64656e7469737400000000000000000000000081525060140182815260200191505060405180910390206000604051602001526040518263ffffffff167c0100000000000000000000000000000000000000000000000000000000028152600401808260001916600019168152602001915050602060405180830381600087803b1515610d3d57600080fd5b6102c65a03f11515610d4e57600080fd5b5050506040518051905073ffffffffffffffffffffffffffffffffffffffff16145b8015610e7d57508173ffffffffffffffffffffffffffffffffffffffff168473ffffffffffffffffffffffffffffffffffffffff16634c77e5ba8360405180807f7363616e2d726571756573742f70617469656e7400000000000000000000000081525060140182815260200191505060405180910390206000604051602001526040518263ffffffff167c0100000000000000000000000000000000000000000000000000000000028152600401808260001916600019168152602001915050602060405180830381600087803b1515610e4a57600080fd5b6102c65a03f11515610e5b57600080fd5b5050506040518051905073ffffffffffffffffffffffffffffffffffffffff16145b1515610e8857600080fd5b8373ffffffffffffffffffffffffffffffffffffffff16630bd851588260405180807f7363616e2d726571756573742f73746174757300000000000000000000000000815250601301828152602001915050604051809103902060056040518363ffffffff167c01000000000000000000000000000000000000000000000000000000000281526004018083600019166000191681526020018260ff16815260200192505050600060405180830381600087803b1515610f4757600080fd5b6102c65a03f11515610f5857600080fd5b50505050505050565b60018273ffffffffffffffffffffffffffffffffffffffff16637a0e03ec8360405180807f7363616e2d726571756573742f7374617475730000000000000000000000000081525060130182815260200191505060405180910390206000604051602001526040518263ffffffff167c0100000000000000000000000000000000000000000000000000000000028152600401808260001916600019168152602001915050602060405180830381600087803b151561101f57600080fd5b6102c65a03f1151561103057600080fd5b5050506040518051905060ff1614151561104957600080fd5b8173ffffffffffffffffffffffffffffffffffffffff16630bd851588260405180807f7363616e2d726571756573742f73746174757300000000000000000000000000815250601301828152602001915050604051809103902060026040518363ffffffff167c01000000000000000000000000000000000000000000000000000000000281526004018083600019166000191681526020018260ff16815260200192505050600060405180830381600087803b151561110857600080fd5b6102c65a03f1151561111957600080fd5b5050505050565b6000611161896040805190810160405280601381526020017f7363616e2d72657175657374732d636f756e7400000000000000000000000000815250611b6f565b905060008973ffffffffffffffffffffffffffffffffffffffff16637a0e03ec8360405180807f7363616e2d726571756573742f7374617475730000000000000000000000000081525060130182815260200191505060405180910390206000604051602001526040518263ffffffff167c0100000000000000000000000000000000000000000000000000000000028152600401808260001916600019168152602001915050602060405180830381600087803b151561122157600080fd5b6102c65a03f1151561123257600080fd5b5050506040518051905060ff1614151561124b57600080fd5b611256898783611c75565b61126589888388888888611fd8565b6112708989836124d5565b505050505050505050565b6000806000806112c08a6040805190810160405280601781526020017f7363616e2d6170706c69636174696f6e732d636f756e74000000000000000000815250611b6f565b935060008a73ffffffffffffffffffffffffffffffffffffffff16637a0e03ec8660405180807f7363616e2d6170706c69636174696f6e2f73746174757300000000000000000081525060170182815260200191505060405180910390206000604051602001526040518263ffffffff167c0100000000000000000000000000000000000000000000000000000000028152600401808260001916600019168152602001915050602060405180830381600087803b151561138057600080fd5b6102c65a03f1151561139157600080fd5b5050506040518051905060ff16148015611484575060018a73ffffffffffffffffffffffffffffffffffffffff16637a0e03ec8960405180807f7363616e2d726571756573742f7374617475730000000000000000000000000081525060130182815260200191505060405180910390206000604051602001526040518263ffffffff167c0100000000000000000000000000000000000000000000000000000000028152600401808260001916600019168152602001915050602060405180830381600087803b151561146457600080fd5b6102c65a03f1151561147557600080fd5b5050506040518051905060ff16145b801561159157508773ffffffffffffffffffffffffffffffffffffffff168a73ffffffffffffffffffffffffffffffffffffffff16634c77e5ba8960405180807f7363616e2d726571756573742f70617469656e7400000000000000000000000081525060140182815260200191505060405180910390206000604051602001526040518263ffffffff167c0100000000000000000000000000000000000000000000000000000000028152600401808260001916600019168152602001915050602060405180830381600087803b151561155e57600080fd5b6102c65a03f1151561156f57600080fd5b5050506040518051905073ffffffffffffffffffffffffffffffffffffffff16145b151561159c57600080fd5b600092505b83831015611b49578973ffffffffffffffffffffffffffffffffffffffff1663bdc963d88a8560405180807f64656e746973742f7363616e2d6170706c69636174696f6e00000000000000008152506018018373ffffffffffffffffffffffffffffffffffffffff1673ffffffffffffffffffffffffffffffffffffffff166c010000000000000000000000000281526014018281526020019250505060405180910390206000604051602001526040518263ffffffff167c0100000000000000000000000000000000000000000000000000000000028152600401808260001916600019168152602001915050602060405180830381600087803b15156116a857600080fd5b6102c65a03f115156116b957600080fd5b5050506040518051905091508973ffffffffffffffffffffffffffffffffffffffff1663bdc963d88360405180807f7363616e2d6170706c69636174696f6e2f7363616e2d72657175657374000000815250601d0182815260200191505060405180910390206000604051602001526040518263ffffffff167c0100000000000000000000000000000000000000000000000000000000028152600401808260001916600019168152602001915050602060405180830381600087803b151561178157600080fd5b6102c65a03f1151561179257600080fd5b5050506040518051905090508681148015611b32575060018a73ffffffffffffffffffffffffffffffffffffffff16637a0e03ec8460405180807f7363616e2d6170706c69636174696f6e2f73746174757300000000000000000081525060170182815260200191505060405180910390206000604051602001526040518263ffffffff167c0100000000000000000000000000000000000000000000000000000000028152600401808260001916600019168152602001915050602060405180830381600087803b151561186657600080fd5b6102c65a03f1151561187757600080fd5b5050506040518051905060ff161480611969575060028a73ffffffffffffffffffffffffffffffffffffffff16637a0e03ec8460405180807f7363616e2d6170706c69636174696f6e2f73746174757300000000000000000081525060170182815260200191505060405180910390206000604051602001526040518263ffffffff167c0100000000000000000000000000000000000000000000000000000000028152600401808260001916600019168152602001915050602060405180830381600087803b151561194957600080fd5b6102c65a03f1151561195a57600080fd5b5050506040518051905060ff16145b80611a4d575060048a73ffffffffffffffffffffffffffffffffffffffff16637a0e03ec8460405180807f7363616e2d6170706c69636174696f6e2f73746174757300000000000000000081525060170182815260200191505060405180910390206000604051602001526040518263ffffffff167c0100000000000000000000000000000000000000000000000000000000028152600401808260001916600019168152602001915050602060405180830381600087803b1515611a2d57600080fd5b6102c65a03f11515611a3e57600080fd5b5050506040518051905060ff16145b80611b31575060058a73ffffffffffffffffffffffffffffffffffffffff16637a0e03ec8460405180807f7363616e2d6170706c69636174696f6e2f73746174757300000000000000000081525060170182815260200191505060405180910390206000604051602001526040518263ffffffff167c0100000000000000000000000000000000000000000000000000000000028152600401808260001916600019168152602001915050602060405180830381600087803b1515611b1157600080fd5b6102c65a03f11515611b2257600080fd5b5050506040518051905060ff16145b5b15611b3c57611b63565b82806001019350506115a1565b611b548a8886612819565b611b628a8a8a878a8a612ba3565b5b50505050505050505050565b60008273ffffffffffffffffffffffffffffffffffffffff1663bdc963d8836040518082805190602001908083835b602083101515611bc35780518252602082019150602081019050602083039250611b9e565b6001836020036101000a03801982511681845116808217855250505050505090500191505060405180910390206000604051602001526040518263ffffffff167c0100000000000000000000000000000000000000000000000000000000028152600401808260001916600019168152602001915050602060405180830381600087803b1515611c5257600080fd5b6102c65a03f11515611c6357600080fd5b50505060405180519050905092915050565b8273ffffffffffffffffffffffffffffffffffffffff16630bd851588260405180807f7363616e2d726571756573742f73746174757300000000000000000000000000815250601301828152602001915050604051809103902060016040518363ffffffff167c01000000000000000000000000000000000000000000000000000000000281526004018083600019166000191681526020018260ff16815260200192505050600060405180830381600087803b1515611d3457600080fd5b6102c65a03f11515611d4557600080fd5b5050508273ffffffffffffffffffffffffffffffffffffffff16633562fd208260405180807f7363616e2d726571756573742f637265617465642d6f6e0000000000000000008152506017018281526020019150506040518091039020426040518363ffffffff167c010000000000000000000000000000000000000000000000000000000002815260040180836000191660001916815260200182815260200192505050600060405180830381600087803b1515611e0357600080fd5b6102c65a03f11515611e1457600080fd5b5050508273ffffffffffffffffffffffffffffffffffffffff16633562fd208260405180807f7363616e2d726571756573742f7363616e2d73657276696365000000000000008152506019018281526020019150506040518091039020846040518363ffffffff167c010000000000000000000000000000000000000000000000000000000002815260040180836000191660001916815260200182815260200192505050600060405180830381600087803b1515611ed257600080fd5b6102c65a03f11515611ee357600080fd5b505050611f5c836040805190810160405280600c81526020017f7363616e2d7265717565737400000000000000000000000000000000000000008152506040805190810160405280601381526020017f7363616e2d72657175657374732d636f756e740000000000000000000000000081525084613035565b611fd383836040805190810160405280601981526020017f7363616e2d736572766963652f7363616e2d72657175657374000000000000008152506040805190810160405280602081526020017f7363616e2d736572766963652f7363616e2d72657175657374732d636f756e748152508561332f565b505050565b61204f87876040805190810160405280601481526020017f70617469656e742f7363616e2d726571756573740000000000000000000000008152506040805190810160405280601b81526020017f70617469656e742f7363616e2d72657175657374732d636f756e74000000000081525089613549565b8673ffffffffffffffffffffffffffffffffffffffff16635a2bf25a8660405180807f7363616e2d726571756573742f70617469656e740000000000000000000000008152506014018281526020019150506040518091039020886040518363ffffffff167c01000000000000000000000000000000000000000000000000000000000281526004018083600019166000191681526020018273ffffffffffffffffffffffffffffffffffffffff1673ffffffffffffffffffffffffffffffffffffffff16815260200192505050600060405180830381600087803b151561213657600080fd5b6102c65a03f1151561214757600080fd5b5050508673ffffffffffffffffffffffffffffffffffffffff166325cf512d8660405180807f7363616e2d726571756573742f6170706f696e746d656e742d64617465000000815250601d018281526020019150506040518091039020866040518363ffffffff167c0100000000000000000000000000000000000000000000000000000000028152600401808360001916600019168152602001826000191660001916815260200192505050600060405180830381600087803b151561220d57600080fd5b6102c65a03f1151561221e57600080fd5b5050508673ffffffffffffffffffffffffffffffffffffffff166325cf512d8660405180807f7363616e2d726571756573742f6170706f696e746d656e742d74696d65000000815250601d018281526020019150506040518091039020856040518363ffffffff167c0100000000000000000000000000000000000000000000000000000000028152600401808360001916600019168152602001826000191660001916815260200192505050600060405180830381600087803b15156122e457600080fd5b6102c65a03f115156122f557600080fd5b5050508673ffffffffffffffffffffffffffffffffffffffff166325cf512d8660405180807f7363616e2d726571756573742f6170706f696e746d656e742d696e737572616e81526020017f63650000000000000000000000000000000000000000000000000000000000008152506022018281526020019150506040518091039020846040518363ffffffff167c0100000000000000000000000000000000000000000000000000000000028152600401808360001916600019168152602001826000191660001916815260200192505050600060405180830381600087803b15156123e157600080fd5b6102c65a03f115156123f257600080fd5b5050508673ffffffffffffffffffffffffffffffffffffffff166325cf512d8660405180807f7363616e2d726571756573742f6170706f696e746d656e742d636f6d6d656e748152506020018281526020019150506040518091039020836040518363ffffffff167c0100000000000000000000000000000000000000000000000000000000028152600401808360001916600019168152602001826000191660001916815260200192505050600060405180830381600087803b15156124b857600080fd5b6102c65a03f115156124c957600080fd5b50505050505050505050565b60008273ffffffffffffffffffffffffffffffffffffffff1614156125cd578273ffffffffffffffffffffffffffffffffffffffff16633eba9ed28260405180807f7363616e2d726571756573742f69732d67656e6572616c3f0000000000000000815250601801828152602001915050604051809103902060016040518363ffffffff167c01000000000000000000000000000000000000000000000000000000000281526004018083600019166000191681526020018215151515815260200192505050600060405180830381600087803b15156125b457600080fd5b6102c65a03f115156125c557600080fd5b505050612814565b8273ffffffffffffffffffffffffffffffffffffffff16633eba9ed28260405180807f7363616e2d726571756573742f69732d67656e6572616c3f0000000000000000815250601801828152602001915050604051809103902060006040518363ffffffff167c01000000000000000000000000000000000000000000000000000000000281526004018083600019166000191681526020018215151515815260200192505050600060405180830381600087803b151561268d57600080fd5b6102c65a03f1151561269e57600080fd5b5050508273ffffffffffffffffffffffffffffffffffffffff16635a2bf25a8260405180807f7363616e2d726571756573742f64656e746973740000000000000000000000008152506014018281526020019150506040518091039020846040518363ffffffff167c01000000000000000000000000000000000000000000000000000000000281526004018083600019166000191681526020018273ffffffffffffffffffffffffffffffffffffffff1673ffffffffffffffffffffffffffffffffffffffff16815260200192505050600060405180830381600087803b151561278857600080fd5b6102c65a03f1151561279957600080fd5b50505061281383836040805190810160405280601481526020017f64656e746973742f7363616e2d726571756573740000000000000000000000008152506040805190810160405280601b81526020017f64656e746973742f7363616e2d72657175657374732d636f756e74000000000081525085613549565b5b505050565b8273ffffffffffffffffffffffffffffffffffffffff16630bd851588260405180807f7363616e2d6170706c69636174696f6e2f737461747573000000000000000000815250601701828152602001915050604051809103902060016040518363ffffffff167c01000000000000000000000000000000000000000000000000000000000281526004018083600019166000191681526020018260ff16815260200192505050600060405180830381600087803b15156128d857600080fd5b6102c65a03f115156128e957600080fd5b5050508273ffffffffffffffffffffffffffffffffffffffff16633562fd208260405180807f7363616e2d6170706c69636174696f6e2f637265617465642d6f6e0000000000815250601b018281526020019150506040518091039020426040518363ffffffff167c010000000000000000000000000000000000000000000000000000000002815260040180836000191660001916815260200182815260200192505050600060405180830381600087803b15156129a757600080fd5b6102c65a03f115156129b857600080fd5b5050508273ffffffffffffffffffffffffffffffffffffffff16633562fd208260405180807f7363616e2d6170706c69636174696f6e2f7363616e2d72657175657374000000815250601d018281526020019150506040518091039020846040518363ffffffff167c010000000000000000000000000000000000000000000000000000000002815260040180836000191660001916815260200182815260200192505050600060405180830381600087803b1515612a7657600080fd5b6102c65a03f11515612a8757600080fd5b505050612b00836040805190810160405280601081526020017f7363616e2d6170706c69636174696f6e000000000000000000000000000000008152506040805190810160405280601781526020017f7363616e2d6170706c69636174696f6e732d636f756e7400000000000000000081525084613035565b612b9e83836040805190810160405280601d81526020017f7363616e2d726571756573742f7363616e2d6170706c69636174696f6e000000815250606060405190810160405280602481526020017f7363616e2d726571756573742f7363616e2d6170706c69636174696f6e732d6381526020017f6f756e74000000000000000000000000000000000000000000000000000000008152508561332f565b505050565b8573ffffffffffffffffffffffffffffffffffffffff16633562fd208460405180807f7363616e2d6170706c69636174696f6e2f71756f7465000000000000000000008152506016018281526020019150506040518091039020846040518363ffffffff167c010000000000000000000000000000000000000000000000000000000002815260040180836000191660001916815260200182815260200192505050600060405180830381600087803b1515612c5e57600080fd5b6102c65a03f11515612c6f57600080fd5b5050508573ffffffffffffffffffffffffffffffffffffffff166325cf512d8460405180807f7363616e2d6170706c69636174696f6e2f636f6d6d656e7400000000000000008152506018018281526020019150506040518091039020836040518363ffffffff167c0100000000000000000000000000000000000000000000000000000000028152600401808360001916600019168152602001826000191660001916815260200192505050600060405180830381600087803b1515612d3557600080fd5b6102c65a03f11515612d4657600080fd5b5050508573ffffffffffffffffffffffffffffffffffffffff16635a2bf25a8460405180807f7363616e2d6170706c69636174696f6e2f64656e7469737400000000000000008152506018018281526020019150506040518091039020876040518363ffffffff167c01000000000000000000000000000000000000000000000000000000000281526004018083600019166000191681526020018273ffffffffffffffffffffffffffffffffffffffff1673ffffffffffffffffffffffffffffffffffffffff16815260200192505050600060405180830381600087803b1515612e3057600080fd5b6102c65a03f11515612e4157600080fd5b5050508573ffffffffffffffffffffffffffffffffffffffff16635a2bf25a8460405180807f7363616e2d6170706c69636174696f6e2f70617469656e7400000000000000008152506018018281526020019150506040518091039020866040518363ffffffff167c01000000000000000000000000000000000000000000000000000000000281526004018083600019166000191681526020018273ffffffffffffffffffffffffffffffffffffffff1673ffffffffffffffffffffffffffffffffffffffff16815260200192505050600060405180830381600087803b1515612f2b57600080fd5b6102c65a03f11515612f3c57600080fd5b505050612fb686866040805190810160405280601881526020017f64656e746973742f7363616e2d6170706c69636174696f6e00000000000000008152506040805190810160405280601f81526020017f64656e746973742f7363616e2d6170706c69636174696f6e732d636f756e740081525087613549565b61302d86856040805190810160405280601881526020017f70617469656e742f7363616e2d6170706c69636174696f6e00000000000000008152506040805190810160405280601f81526020017f70617469656e742f7363616e2d6170706c69636174696f6e732d636f756e740081525087613549565b505050505050565b60008473ffffffffffffffffffffffffffffffffffffffff1663bdc963d8846040518082805190602001908083835b6020831015156130895780518252602082019150602081019050602083039250613064565b6001836020036101000a03801982511681845116808217855250505050505090500191505060405180910390206000604051602001526040518263ffffffff167c0100000000000000000000000000000000000000000000000000000000028152600401808260001916600019168152602001915050602060405180830381600087803b151561311857600080fd5b6102c65a03f1151561312957600080fd5b5050506040518051905090508473ffffffffffffffffffffffffffffffffffffffff16633562fd2085836040518083805190602001908083835b6020831015156131885780518252602082019150602081019050602083039250613163565b6001836020036101000a038019825116818451168082178552505050505050905001828152602001925050506040518091039020846040518363ffffffff167c010000000000000000000000000000000000000000000000000000000002815260040180836000191660001916815260200182815260200192505050600060405180830381600087803b151561321d57600080fd5b6102c65a03f1151561322e57600080fd5b5050508473ffffffffffffffffffffffffffffffffffffffff16633562fd20846040518082805190602001908083835b602083101515613283578051825260208201915060208101905060208303925061325e565b6001836020036101000a0380198251168184511680821785525050505050509050019150506040518091039020600184016040518363ffffffff167c010000000000000000000000000000000000000000000000000000000002815260040180836000191660001916815260200182815260200192505050600060405180830381600087803b151561331457600080fd5b6102c65a03f1151561332557600080fd5b5050505050505050565b600061333c8686856137d9565b90508573ffffffffffffffffffffffffffffffffffffffff16633562fd208587846040518084805190602001908083835b602083101515613392578051825260208201915060208101905060208303925061336d565b6001836020036101000a03801982511681845116808217855250505050505090500183815260200182815260200193505050506040518091039020846040518363ffffffff167c010000000000000000000000000000000000000000000000000000000002815260040180836000191660001916815260200182815260200192505050600060405180830381600087803b151561342e57600080fd5b6102c65a03f1151561343f57600080fd5b5050508573ffffffffffffffffffffffffffffffffffffffff16633562fd2084876040518083805190602001908083835b6020831015156134955780518252602082019150602081019050602083039250613470565b6001836020036101000a038019825116818451168082178552505050505050905001828152602001925050506040518091039020600184016040518363ffffffff167c010000000000000000000000000000000000000000000000000000000002815260040180836000191660001916815260200182815260200192505050600060405180830381600087803b151561352d57600080fd5b6102c65a03f1151561353e57600080fd5b505050505050505050565b60006135568686856138e8565b90508573ffffffffffffffffffffffffffffffffffffffff16633562fd208587846040518084805190602001908083835b6020831015156135ac5780518252602082019150602081019050602083039250613587565b6001836020036101000a0380198251168184511680821785525050505050509050018373ffffffffffffffffffffffffffffffffffffffff1673ffffffffffffffffffffffffffffffffffffffff166c0100000000000000000000000002815260140182815260200193505050506040518091039020846040518363ffffffff167c010000000000000000000000000000000000000000000000000000000002815260040180836000191660001916815260200182815260200192505050600060405180830381600087803b151561368357600080fd5b6102c65a03f1151561369457600080fd5b5050508573ffffffffffffffffffffffffffffffffffffffff16633562fd2084876040518083805190602001908083835b6020831015156136ea57805182526020820191506020810190506020830392506136c5565b6001836020036101000a0380198251168184511680821785525050505050509050018273ffffffffffffffffffffffffffffffffffffffff1673ffffffffffffffffffffffffffffffffffffffff166c01000000000000000000000000028152601401925050506040518091039020600184016040518363ffffffff167c010000000000000000000000000000000000000000000000000000000002815260040180836000191660001916815260200182815260200192505050600060405180830381600087803b15156137bd57600080fd5b6102c65a03f115156137ce57600080fd5b505050505050505050565b60008373ffffffffffffffffffffffffffffffffffffffff1663bdc963d883856040518083805190602001908083835b60208310151561382e5780518252602082019150602081019050602083039250613809565b6001836020036101000a0380198251168184511680821785525050505050509050018281526020019250505060405180910390206000604051602001526040518263ffffffff167c0100000000000000000000000000000000000000000000000000000000028152600401808260001916600019168152602001915050602060405180830381600087803b15156138c457600080fd5b6102c65a03f115156138d557600080fd5b5050506040518051905090509392505050565b60008373ffffffffffffffffffffffffffffffffffffffff1663bdc963d883856040518083805190602001908083835b60208310151561393d5780518252602082019150602081019050602083039250613918565b6001836020036101000a0380198251168184511680821785525050505050509050018273ffffffffffffffffffffffffffffffffffffffff1673ffffffffffffffffffffffffffffffffffffffff166c010000000000000000000000000281526014019250505060405180910390206000604051602001526040518263ffffffff167c0100000000000000000000000000000000000000000000000000000000028152600401808260001916600019168152602001915050602060405180830381600087803b1515613a0e57600080fd5b6102c65a03f11515613a1f57600080fd5b50505060405180519050905093925050505600a165627a7a723058206cf4d1e1b3c4be59603238372c97c7964c9da73d4c707ffb83c7e245413c139a0029",
  "source": "pragma solidity 0.4.18;\nimport \"./Restrictor.sol\";\nimport \"../lib/odll/userManager.sol\";\n\ncontract ScanRequestWriter is Restrictor {\n  function ScanRequestWriter(address _dbAddress) public {\n    require(_dbAddress != 0x0);\n    dbAddress = _dbAddress;\n  }\n\n  // Scan Request\n  function writeScanRequest (\n    address dentistId,\n    uint scanAppointmentId,\n    bytes32 appointmentDate,\n    bytes32 scanTime,\n    bytes32 scanInsurance,\n    bytes32 comment\n  )\n    external\n    onlyPermittedSmartContract\n  {\n    userManager.writeScanRequest(dbAddress, dentistId, msg.sender, scanAppointmentId, appointmentDate, scanTime, scanInsurance, comment);\n  }\n\n  function cancelScanRequest (\n    uint scanRequestId\n  )\n    external\n    onlyPermittedSmartContract\n  {\n    userManager.cancelScanRequest(dbAddress, msg.sender, scanRequestId);\n  }\n\n  function expireScanRequest (\n    uint scanRequestId\n  )\n    external\n    onlyPermittedSmartContract\n  {\n    userManager.expireScanRequest(dbAddress, scanRequestId);\n  }\n\n  function acceptScanRequest (\n    address patientId,\n    uint scanRequestId,\n    uint quote,\n    bytes32 comment\n  )\n    external\n    onlyPermittedSmartContract\n  {\n    userManager.acceptScanRequest(dbAddress, msg.sender, patientId, scanRequestId, quote, comment);\n  }\n\n  function rejectScanRequest (\n    address patientId,\n    uint scanRequestId\n  )\n    external\n    onlyPermittedSmartContract\n  {\n    userManager.rejectScanRequest(dbAddress, msg.sender, patientId, scanRequestId);\n  }\n}\n",
  "sourcePath": "/Users/danielokwufulueze/dev/vue/apps/oraldatalink/contracts/odll/ScanRequestWriter.sol",
  "compiler": {
    "name": "solc",
    "version": "0.4.18+commit.9cf6e910.Emscripten.clang"
  },
  "schemaVersion": "1.0.1",
  "updatedAt": "2017-11-17T00:30:43.656Z"
}