{
  "contractName": "ScanRequestWriter",
  "abi": [
    {
      "constant": false,
      "inputs": [
        {
          "name": "userId",
          "type": "address"
        },
        {
          "name": "paymentId",
          "type": "uint256"
        },
        {
          "name": "quote",
          "type": "uint256"
        },
        {
          "name": "comment",
          "type": "string"
        }
      ],
      "name": "lockPayment",
      "outputs": [],
      "payable": false,
      "stateMutability": "nonpayable",
      "type": "function"
    },
    {
      "constant": true,
      "inputs": [
        {
          "name": "userId",
          "type": "address"
        },
        {
          "name": "paymentId",
          "type": "uint256"
        }
      ],
      "name": "smartContractStatus",
      "outputs": [
        {
          "name": "",
          "type": "uint8"
        }
      ],
      "payable": false,
      "stateMutability": "view",
      "type": "function"
    },
    {
      "constant": false,
      "inputs": [
        {
          "name": "dentistId",
          "type": "address"
        },
        {
          "name": "scanAppointmentId",
          "type": "uint256"
        },
        {
          "name": "appointmentDate",
          "type": "bytes32"
        },
        {
          "name": "scanTime",
          "type": "bytes32"
        },
        {
          "name": "scanInsurance",
          "type": "bytes32"
        },
        {
          "name": "scanPolicyNumber",
          "type": "bytes32"
        },
        {
          "name": "scanPayerId",
          "type": "bytes32"
        },
        {
          "name": "scanMainSubscriber",
          "type": "bytes32"
        },
        {
          "name": "scanInsuranceAddress",
          "type": "string"
        },
        {
          "name": "comment",
          "type": "string"
        }
      ],
      "name": "writeScanRequest",
      "outputs": [
        {
          "name": "",
          "type": "uint8"
        }
      ],
      "payable": false,
      "stateMutability": "nonpayable",
      "type": "function"
    },
    {
      "constant": true,
      "inputs": [
        {
          "name": "dentistId",
          "type": "address"
        },
        {
          "name": "scanAppointmentId",
          "type": "uint256"
        },
        {
          "name": "appointmentDate",
          "type": "bytes32"
        },
        {
          "name": "scanTime",
          "type": "bytes32"
        },
        {
          "name": "scanInsurance",
          "type": "string"
        },
        {
          "name": "comment",
          "type": "string"
        }
      ],
      "name": "owner",
      "outputs": [
        {
          "name": "",
          "type": "address"
        }
      ],
      "payable": false,
      "stateMutability": "view",
      "type": "function"
    },
    {
      "constant": true,
      "inputs": [],
      "name": "dbAddress",
      "outputs": [
        {
          "name": "",
          "type": "address"
        }
      ],
      "payable": false,
      "stateMutability": "view",
      "type": "function"
    },
    {
      "constant": false,
      "inputs": [
        {
          "name": "newOwner",
          "type": "address"
        },
        {
          "name": "scanRequestId",
          "type": "uint256"
        },
        {
          "name": "quote",
          "type": "uint256"
        },
        {
          "name": "scanDate",
          "type": "bytes32"
        },
        {
          "name": "scanTime",
          "type": "bytes32"
        },
        {
          "name": "comment",
          "type": "string"
        }
      ],
      "name": "transferOwnership",
      "outputs": [
        {
          "name": "",
          "type": "address"
        }
      ],
      "payable": false,
      "stateMutability": "nonpayable",
      "type": "function"
    },
    {
      "constant": false,
      "inputs": [
        {
          "name": "_dbAddress",
          "type": "address"
        }
      ],
      "name": "cancelScanRequest",
      "outputs": [],
      "payable": false,
      "stateMutability": "nonpayable",
      "type": "constructor"
    },
    {
      "constant": false,
      "inputs": [
        {
          "name": "paymentId",
          "type": "uint256",
          "indexed": false
        },
        {
          "name": "scanRequestId",
          "type": "uint256"
        }
      ],
      "name": "PaymentLocked",
      "outputs": [],
      "payable": false,
      "stateMutability": "nonpayable",
      "type": "event",
      "anonymous": false
    },
    {
      "constant": false,
      "inputs": [
        {
          "name": "status",
          "type": "uint8",
          "indexed": false
        }
      ],
      "name": "OnSmartContractStatusSet",
      "outputs": [],
      "payable": false,
      "stateMutability": "nonpayable",
      "type": "event",
      "anonymous": false
    },
    {
      "constant": false,
      "inputs": [
        {
          "name": "previousOwner",
          "type": "address",
          "indexed": true
        },
        {
          "indexed": true,
          "name": "newOwner",
          "type": "address"
        }
      ],
      "name": "OwnershipTransferred",
      "outputs": [],
      "payable": false,
      "stateMutability": "nonpayable",
      "type": "event",
      "anonymous": false
    },
    {
      "inputs": [
        {
          "name": "_dbAddress",
          "type": "address"
        }
      ],
      "payable": false,
      "stateMutability": "nonpayable",
      "type": "constructor"
    },
    {
      "anonymous": false,
      "inputs": [
        {
          "indexed": false,
          "name": "paymentId",
          "type": "uint256"
        }
      ],
      "name": "PaymentLocked",
      "type": "event"
    },
    {
      "anonymous": false,
      "inputs": [
        {
          "indexed": false,
          "name": "status",
          "type": "uint8"
        }
      ],
      "name": "OnSmartContractStatusSet",
      "type": "event"
    },
    {
      "anonymous": false,
      "inputs": [
        {
          "indexed": true,
          "name": "previousOwner",
          "type": "address"
        },
        {
          "indexed": true,
          "name": "newOwner",
          "type": "address"
        }
      ],
      "name": "OwnershipTransferred",
      "type": "event"
    }
  ],
  "bytecode": "0x6060604052341561000f57600080fd5b604051602080612a7483398101604052808051906020019091905050336000806101000a81548173ffffffffffffffffffffffffffffffffffffffff021916908373ffffffffffffffffffffffffffffffffffffffff16021790555060008173ffffffffffffffffffffffffffffffffffffffff161415151561009157600080fd5b80600160006101000a81548173ffffffffffffffffffffffffffffffffffffffff021916908373ffffffffffffffffffffffffffffffffffffffff16021790555050612992806100e26000396000f300606060405260043610610078576000357c0100000000000000000000000000000000000000000000000000000000900463ffffffff1680633f4b14701461007d5780634c8ddddc146100bf57806352decc43146100ee5780638da5cb5b146101a657806391e06b6d146101fb578063f2fde38b14610250575b600080fd5b341561008857600080fd5b6100bd600480803573ffffffffffffffffffffffffffffffffffffffff16906020019091908035906020019091905050610289565b005b34156100ca57600080fd5b6100d26104e0565b604051808260ff1660ff16815260200191505060405180910390f35b34156100f957600080fd5b6101a4600480803573ffffffffffffffffffffffffffffffffffffffff16906020019091908035906020019091908035600019169060200190919080356000191690602001909190803560001916906020019091908035600019169060200190919080356000191690602001909190803560001916906020019091908035906020019082018035906020019190919290803590602001908201803590602001919091929050506104f3565b005b34156101b157600080fd5b6101b9610618565b604051808273ffffffffffffffffffffffffffffffffffffffff1673ffffffffffffffffffffffffffffffffffffffff16815260200191505060405180910390f35b341561020657600080fd5b61020e61063d565b604051808273ffffffffffffffffffffffffffffffffffffffff1673ffffffffffffffffffffffffffffffffffffffff16815260200191505060405180910390f35b341561025b57600080fd5b610287600480803573ffffffffffffffffffffffffffffffffffffffff16906020019091905050610663565b005b81610293816107b8565b151561029e57600080fd5b8160018060ff16600160009054906101000a900473ffffffffffffffffffffffffffffffffffffffff1673ffffffffffffffffffffffffffffffffffffffff16637a0e03ec8460405180807f7061796d656e742f737461746500000000000000000000000000000000000000815250600d0182815260200191505060405180910390206000604051602001526040518263ffffffff167c0100000000000000000000000000000000000000000000000000000000028152600401808260001916600019168152602001915050602060405180830381600087803b151561038357600080fd5b6102c65a03f1151561039457600080fd5b5050506040518051905060ff161415156103ad57600080fd5b600160009054906101000a900473ffffffffffffffffffffffffffffffffffffffff1673ffffffffffffffffffffffffffffffffffffffff16630bd851588560405180807f7061796d656e742f737461746500000000000000000000000000000000000000815250600d01828152602001915050604051809103902060026040518363ffffffff167c01000000000000000000000000000000000000000000000000000000000281526004018083600019166000191681526020018260ff16815260200192505050600060405180830381600087803b151561048e57600080fd5b6102c65a03f1151561049f57600080fd5b5050507fa5f78a79f83dfad686a63ca003a42f6c262d9fdc43a6742c56f5c27c11b9a1e2846040518082815260200191505060405180910390a15050505050565b600160149054906101000a900460ff1681565b600080600160149054906101000a900460ff1660ff1614151561051557600080fd5b610541600160009054906101000a900473ffffffffffffffffffffffffffffffffffffffff168d6107df565b90506105a6600160009054906101000a900473ffffffffffffffffffffffffffffffffffffffff16828f338f8f89898080601f0160208091040260200160405190810160405280939291908181526020018383808284378201915050505050506107f3565b610609600160009054906101000a900473ffffffffffffffffffffffffffffffffffffffff16828b8b8b8b8b8b8080601f01602080910402602001604051908101604052809392919081815260200183838082843782019150505050505061080b565b50505050505050505050505050565b6000809054906101000a900473ffffffffffffffffffffffffffffffffffffffff1681565b600160009054906101000a900473ffffffffffffffffffffffffffffffffffffffff1681565b6000809054906101000a900473ffffffffffffffffffffffffffffffffffffffff1673ffffffffffffffffffffffffffffffffffffffff163373ffffffffffffffffffffffffffffffffffffffff161415156106be57600080fd5b600073ffffffffffffffffffffffffffffffffffffffff168173ffffffffffffffffffffffffffffffffffffffff16141515156106fa57600080fd5b8073ffffffffffffffffffffffffffffffffffffffff166000809054906101000a900473ffffffffffffffffffffffffffffffffffffffff1673ffffffffffffffffffffffffffffffffffffffff167f8be0079c531659141344cd1fd0a4f28419497f9722a3daafe3b4186f6b6457e060405160405180910390a3806000806101000a81548173ffffffffffffffffffffffffffffffffffffffff021916908373ffffffffffffffffffffffffffffffffffffffff16021790555050565b60006107c5826001610823565b80156107d857506107d782600161083e565b5b9050919050565b60006107eb8383610859565b905092915050565b61080287878787878787610ce8565b50505050505050565b61081a87878787878787610df2565b50505050505050565b600061082e83610ef2565b60ff168260ff1614905092915050565b60006108498361102f565b60ff168260ff1614905092915050565b600061089a836040805190810160405280601381526020017f7363616e2d72657175657374732d636f756e740000000000000000000000000081525061116c565b905060008373ffffffffffffffffffffffffffffffffffffffff16637a0e03ec8360405180807f7363616e2d726571756573742f7374617475730000000000000000000000000081525060130182815260200191505060405180910390206000604051602001526040518263ffffffff167c0100000000000000000000000000000000000000000000000000000000028152600401808260001916600019168152602001915050602060405180830381600087803b151561095a57600080fd5b6102c65a03f1151561096b57600080fd5b5050506040518051905060ff1614151561098457600080fd5b8273ffffffffffffffffffffffffffffffffffffffff16630bd851588260405180807f7363616e2d726571756573742f73746174757300000000000000000000000000815250601301828152602001915050604051809103902060016040518363ffffffff167c01000000000000000000000000000000000000000000000000000000000281526004018083600019166000191681526020018260ff16815260200192505050600060405180830381600087803b1515610a4357600080fd5b6102c65a03f11515610a5457600080fd5b5050508273ffffffffffffffffffffffffffffffffffffffff16633562fd208260405180807f7363616e2d726571756573742f637265617465642d6f6e0000000000000000008152506017018281526020019150506040518091039020426040518363ffffffff167c010000000000000000000000000000000000000000000000000000000002815260040180836000191660001916815260200182815260200192505050600060405180830381600087803b1515610b1257600080fd5b6102c65a03f11515610b2357600080fd5b5050508273ffffffffffffffffffffffffffffffffffffffff16633562fd208260405180807f7363616e2d726571756573742f7363616e2d73657276696365000000000000008152506019018281526020019150506040518091039020846040518363ffffffff167c010000000000000000000000000000000000000000000000000000000002815260040180836000191660001916815260200182815260200192505050600060405180830381600087803b1515610be157600080fd5b6102c65a03f11515610bf257600080fd5b505050610c6b836040805190810160405280600c81526020017f7363616e2d7265717565737400000000000000000000000000000000000000008152506040805190810160405280601381526020017f7363616e2d72657175657374732d636f756e740000000000000000000000000081525084611272565b610ce283836040805190810160405280601981526020017f7363616e2d736572766963652f7363616e2d72657175657374000000000000008152506040805190810160405280602081526020017f7363616e2d736572766963652f7363616e2d72657175657374732d636f756e748152508561156c565b92915050565b60018773ffffffffffffffffffffffffffffffffffffffff16637a0e03ec8860405180807f7363616e2d726571756573742f7374617475730000000000000000000000000081525060130182815260200191505060405180910390206000604051602001526040518263ffffffff167c0100000000000000000000000000000000000000000000000000000000028152600401808260001916600019168152602001915050602060405180830381600087803b1515610da657600080fd5b6102c65a03f11515610db757600080fd5b5050506040518051905060ff16141515610dd057600080fd5b610dde878786868686611786565b610de9878688611be2565b50505050505050565b60018773ffffffffffffffffffffffffffffffffffffffff16637a0e03ec8860405180807f7363616e2d726571756573742f7374617475730000000000000000000000000081525060130182815260200191505060405180910390206000604051602001526040518263ffffffff167c0100000000000000000000000000000000000000000000000000000000028152600401808260001916600019168152602001915050602060405180830381600087803b1515610eb057600080fd5b6102c65a03f11515610ec157600080fd5b5050506040518051905060ff16141515610eda57600080fd5b610ee987878787878787611f26565b50505050505050565b6000600160009054906101000a900473ffffffffffffffffffffffffffffffffffffffff1673ffffffffffffffffffffffffffffffffffffffff16637a0e03ec8360405180807f757365722f7479706500000000000000000000000000000000000000000000008152506009018273ffffffffffffffffffffffffffffffffffffffff1673ffffffffffffffffffffffffffffffffffffffff166c0100000000000000000000000002815260140191505060405180910390206000604051602001526040518263ffffffff167c0100000000000000000000000000000000000000000000000000000000028152600401808260001916600019168152602001915050602060405180830381600087803b151561100d57600080fd5b6102c65a03f1151561101e57600080fd5b505050604051805190509050919050565b6000600160009054906101000a900473ffffffffffffffffffffffffffffffffffffffff1673ffffffffffffffffffffffffffffffffffffffff16637a0e03ec8360405180807f757365722f737461747573000000000000000000000000000000000000000000815250600b018273ffffffffffffffffffffffffffffffffffffffff1673ffffffffffffffffffffffffffffffffffffffff166c0100000000000000000000000002815260140191505060405180910390206000604051602001526040518263ffffffff167c0100000000000000000000000000000000000000000000000000000000028152600401808260001916600019168152602001915050602060405180830381600087803b151561114a57600080fd5b6102c65a03f1151561115b57600080fd5b505050604051805190509050919050565b60008273ffffffffffffffffffffffffffffffffffffffff1663bdc963d8836040518082805190602001908083835b6020831015156111c0578051825260208201915060208101905060208303925061119b565b6001836020036101000a03801982511681845116808217855250505050505090500191505060405180910390206000604051602001526040518263ffffffff167c0100000000000000000000000000000000000000000000000000000000028152600401808260001916600019168152602001915050602060405180830381600087803b151561124f57600080fd5b6102c65a03f1151561126057600080fd5b50505060405180519050905092915050565b60008473ffffffffffffffffffffffffffffffffffffffff1663bdc963d8846040518082805190602001908083835b6020831015156112c657805182526020820191506020810190506020830392506112a1565b6001836020036101000a03801982511681845116808217855250505050505090500191505060405180910390206000604051602001526040518263ffffffff167c0100000000000000000000000000000000000000000000000000000000028152600401808260001916600019168152602001915050602060405180830381600087803b151561135557600080fd5b6102c65a03f1151561136657600080fd5b5050506040518051905090508473ffffffffffffffffffffffffffffffffffffffff16633562fd2085836040518083805190602001908083835b6020831015156113c557805182526020820191506020810190506020830392506113a0565b6001836020036101000a038019825116818451168082178552505050505050905001828152602001925050506040518091039020846040518363ffffffff167c010000000000000000000000000000000000000000000000000000000002815260040180836000191660001916815260200182815260200192505050600060405180830381600087803b151561145a57600080fd5b6102c65a03f1151561146b57600080fd5b5050508473ffffffffffffffffffffffffffffffffffffffff16633562fd20846040518082805190602001908083835b6020831015156114c0578051825260208201915060208101905060208303925061149b565b6001836020036101000a0380198251168184511680821785525050505050509050019150506040518091039020600184016040518363ffffffff167c010000000000000000000000000000000000000000000000000000000002815260040180836000191660001916815260200182815260200192505050600060405180830381600087803b151561155157600080fd5b6102c65a03f1151561156257600080fd5b5050505050505050565b600061157986868561247d565b90508573ffffffffffffffffffffffffffffffffffffffff16633562fd208587846040518084805190602001908083835b6020831015156115cf57805182526020820191506020810190506020830392506115aa565b6001836020036101000a03801982511681845116808217855250505050505090500183815260200182815260200193505050506040518091039020846040518363ffffffff167c010000000000000000000000000000000000000000000000000000000002815260040180836000191660001916815260200182815260200192505050600060405180830381600087803b151561166b57600080fd5b6102c65a03f1151561167c57600080fd5b5050508573ffffffffffffffffffffffffffffffffffffffff16633562fd2084876040518083805190602001908083835b6020831015156116d257805182526020820191506020810190506020830392506116ad565b6001836020036101000a038019825116818451168082178552505050505050905001828152602001925050506040518091039020600184016040518363ffffffff167c010000000000000000000000000000000000000000000000000000000002815260040180836000191660001916815260200182815260200192505050600060405180830381600087803b151561176a57600080fd5b6102c65a03f1151561177b57600080fd5b505050505050505050565b6117fd86856040805190810160405280601481526020017f70617469656e742f7363616e2d726571756573740000000000000000000000008152506040805190810160405280601b81526020017f70617469656e742f7363616e2d72657175657374732d636f756e7400000000008152508961258c565b8573ffffffffffffffffffffffffffffffffffffffff16635a2bf25a8660405180807f7363616e2d726571756573742f70617469656e740000000000000000000000008152506014018281526020019150506040518091039020866040518363ffffffff167c01000000000000000000000000000000000000000000000000000000000281526004018083600019166000191681526020018273ffffffffffffffffffffffffffffffffffffffff1673ffffffffffffffffffffffffffffffffffffffff16815260200192505050600060405180830381600087803b15156118e457600080fd5b6102c65a03f115156118f557600080fd5b5050508573ffffffffffffffffffffffffffffffffffffffff166325cf512d8660405180807f7363616e2d726571756573742f6170706f696e746d656e742d64617465000000815250601d018281526020019150506040518091039020856040518363ffffffff167c0100000000000000000000000000000000000000000000000000000000028152600401808360001916600019168152602001826000191660001916815260200192505050600060405180830381600087803b15156119bb57600080fd5b6102c65a03f115156119cc57600080fd5b5050508573ffffffffffffffffffffffffffffffffffffffff166325cf512d8660405180807f7363616e2d726571756573742f6170706f696e746d656e742d74696d65000000815250601d018281526020019150506040518091039020846040518363ffffffff167c0100000000000000000000000000000000000000000000000000000000028152600401808360001916600019168152602001826000191660001916815260200192505050600060405180830381600087803b1515611a9257600080fd5b6102c65a03f11515611aa357600080fd5b5050508573ffffffffffffffffffffffffffffffffffffffff1663f58660668660405180807f7363616e2d726571756573742f6170706f696e746d656e742d636f6d6d656e748152506020018281526020019150506040518091039020836040518363ffffffff167c010000000000000000000000000000000000000000000000000000000002815260040180836000191660001916815260200180602001828103825283818151815260200191508051906020019080838360005b83811015611b7a578082015181840152602081019050611b5f565b50505050905090810190601f168015611ba75780820380516001836020036101000a031916815260200191505b509350505050600060405180830381600087803b1515611bc657600080fd5b6102c65a03f11515611bd757600080fd5b505050505050505050565b60008273ffffffffffffffffffffffffffffffffffffffff161415611cda578273ffffffffffffffffffffffffffffffffffffffff16633eba9ed28260405180807f7363616e2d726571756573742f69732d67656e6572616c3f0000000000000000815250601801828152602001915050604051809103902060016040518363ffffffff167c01000000000000000000000000000000000000000000000000000000000281526004018083600019166000191681526020018215151515815260200192505050600060405180830381600087803b1515611cc157600080fd5b6102c65a03f11515611cd257600080fd5b505050611f21565b8273ffffffffffffffffffffffffffffffffffffffff16633eba9ed28260405180807f7363616e2d726571756573742f69732d67656e6572616c3f0000000000000000815250601801828152602001915050604051809103902060006040518363ffffffff167c01000000000000000000000000000000000000000000000000000000000281526004018083600019166000191681526020018215151515815260200192505050600060405180830381600087803b1515611d9a57600080fd5b6102c65a03f11515611dab57600080fd5b5050508273ffffffffffffffffffffffffffffffffffffffff16635a2bf25a8260405180807f7363616e2d726571756573742f64656e746973740000000000000000000000008152506014018281526020019150506040518091039020846040518363ffffffff167c01000000000000000000000000000000000000000000000000000000000281526004018083600019166000191681526020018273ffffffffffffffffffffffffffffffffffffffff1673ffffffffffffffffffffffffffffffffffffffff16815260200192505050600060405180830381600087803b1515611e9557600080fd5b6102c65a03f11515611ea657600080fd5b505050611f2083836040805190810160405280601481526020017f64656e746973742f7363616e2d726571756573740000000000000000000000008152506040805190810160405280601b81526020017f64656e746973742f7363616e2d72657175657374732d636f756e7400000000008152508561258c565b5b505050565b8673ffffffffffffffffffffffffffffffffffffffff166325cf512d8760405180807f7363616e2d726571756573742f6170706f696e746d656e742d696e737572616e81526020017f63650000000000000000000000000000000000000000000000000000000000008152506022018281526020019150506040518091039020876040518363ffffffff167c0100000000000000000000000000000000000000000000000000000000028152600401808360001916600019168152602001826000191660001916815260200192505050600060405180830381600087803b151561200f57600080fd5b6102c65a03f1151561202057600080fd5b5050508673ffffffffffffffffffffffffffffffffffffffff166325cf512d8760405180807f7363616e2d726571756573742f6170706f696e746d656e742d696e737572616e81526020017f63652d706f6c6963792d6e756d626572000000000000000000000000000000008152506030018281526020019150506040518091039020866040518363ffffffff167c0100000000000000000000000000000000000000000000000000000000028152600401808360001916600019168152602001826000191660001916815260200192505050600060405180830381600087803b151561210c57600080fd5b6102c65a03f1151561211d57600080fd5b5050508673ffffffffffffffffffffffffffffffffffffffff166325cf512d8760405180807f7363616e2d726571756573742f6170706f696e746d656e742d696e737572616e81526020017f63652d70617965722d6964000000000000000000000000000000000000000000815250602b018281526020019150506040518091039020856040518363ffffffff167c0100000000000000000000000000000000000000000000000000000000028152600401808360001916600019168152602001826000191660001916815260200192505050600060405180830381600087803b151561220957600080fd5b6102c65a03f1151561221a57600080fd5b5050508673ffffffffffffffffffffffffffffffffffffffff166325cf512d8760405180807f7363616e2d726571756573742f6170706f696e746d656e742d696e737572616e81526020017f63652d6d61696e2d7375627363726962657200000000000000000000000000008152506032018281526020019150506040518091039020846040518363ffffffff167c0100000000000000000000000000000000000000000000000000000000028152600401808360001916600019168152602001826000191660001916815260200192505050600060405180830381600087803b151561230657600080fd5b6102c65a03f1151561231757600080fd5b5050508673ffffffffffffffffffffffffffffffffffffffff1663f58660668760405180807f7363616e2d726571756573742f6170706f696e746d656e742d696e737572616e81526020017f63652d6164647265737300000000000000000000000000000000000000000000815250602a018281526020019150506040518091039020836040518363ffffffff167c010000000000000000000000000000000000000000000000000000000002815260040180836000191660001916815260200180602001828103825283818151815260200191508051906020019080838360005b838110156124145780820151818401526020810190506123f9565b50505050905090810190601f1680156124415780820380516001836020036101000a031916815260200191505b509350505050600060405180830381600087803b151561246057600080fd5b6102c65a03f1151561247157600080fd5b50505050505050505050565b60008373ffffffffffffffffffffffffffffffffffffffff1663bdc963d883856040518083805190602001908083835b6020831015156124d257805182526020820191506020810190506020830392506124ad565b6001836020036101000a0380198251168184511680821785525050505050509050018281526020019250505060405180910390206000604051602001526040518263ffffffff167c0100000000000000000000000000000000000000000000000000000000028152600401808260001916600019168152602001915050602060405180830381600087803b151561256857600080fd5b6102c65a03f1151561257957600080fd5b5050506040518051905090509392505050565b600061259986868561281c565b90508573ffffffffffffffffffffffffffffffffffffffff16633562fd208587846040518084805190602001908083835b6020831015156125ef57805182526020820191506020810190506020830392506125ca565b6001836020036101000a0380198251168184511680821785525050505050509050018373ffffffffffffffffffffffffffffffffffffffff1673ffffffffffffffffffffffffffffffffffffffff166c0100000000000000000000000002815260140182815260200193505050506040518091039020846040518363ffffffff167c010000000000000000000000000000000000000000000000000000000002815260040180836000191660001916815260200182815260200192505050600060405180830381600087803b15156126c657600080fd5b6102c65a03f115156126d757600080fd5b5050508573ffffffffffffffffffffffffffffffffffffffff16633562fd2084876040518083805190602001908083835b60208310151561272d5780518252602082019150602081019050602083039250612708565b6001836020036101000a0380198251168184511680821785525050505050509050018273ffffffffffffffffffffffffffffffffffffffff1673ffffffffffffffffffffffffffffffffffffffff166c01000000000000000000000000028152601401925050506040518091039020600184016040518363ffffffff167c010000000000000000000000000000000000000000000000000000000002815260040180836000191660001916815260200182815260200192505050600060405180830381600087803b151561280057600080fd5b6102c65a03f1151561281157600080fd5b505050505050505050565b60008373ffffffffffffffffffffffffffffffffffffffff1663bdc963d883856040518083805190602001908083835b602083101515612871578051825260208201915060208101905060208303925061284c565b6001836020036101000a0380198251168184511680821785525050505050509050018273ffffffffffffffffffffffffffffffffffffffff1673ffffffffffffffffffffffffffffffffffffffff166c010000000000000000000000000281526014019250505060405180910390206000604051602001526040518263ffffffff167c0100000000000000000000000000000000000000000000000000000000028152600401808260001916600019168152602001915050602060405180830381600087803b151561294257600080fd5b6102c65a03f1151561295357600080fd5b50505060405180519050905093925050505600a165627a7a723058207c064307df87ad07cfab9db3cd93952bc0d19d24f2f691b18ca25cd0a6c26f830029",
  "source": "pragma solidity 0.4.18;\nimport \"./Restrictor.sol\";\nimport \"../lib/odll/userManager.sol\";\n\ncontract ScanRequestWriter is Restrictor {\n  function ScanRequestWriter(address _dbAddress) public {\n    require(_dbAddress != 0x0);\n    dbAddress = _dbAddress;\n  }\n\n  // Scan Request\n  function writeScanRequest (\n    address dentistId,\n    uint scanAppointmentId,\n    bytes32 appointmentDate,\n    bytes32 scanTime,\n    bytes32 scanInsurance,\n    bytes32 scanPolicyNumber,\n    bytes32 scanPayerId,\n    bytes32 scanMainSubscriber,\n    string scanInsuranceAddress,\n    string comment\n  )\n    external\n    onlyPermittedSmartContract\n  {\n    uint scanRequestId = userManager.initScanRequest(dbAddress, scanAppointmentId);\n    userManager.writePatientScanRequest(dbAddress, scanRequestId, dentistId, msg.sender, appointmentDate, scanTime, comment);\n    userManager.writePatientScanRequestInsurance(dbAddress, scanRequestId, scanInsurance, scanPolicyNumber, scanPayerId, scanMainSubscriber, scanInsuranceAddress);\n  }\n}\n",
  "sourcePath": "/Users/danielokwufulueze/dev/vue/apps/oraldatalink/contracts/odll/ScanRequestWriter.sol",
  "compiler": {
    "name": "solc",
    "version": "0.4.18+commit.9cf6e910.Emscripten.clang"
  },
  "schemaVersion": "1.0.1",
  "updatedAt": "2018-02-03T16:42:35.780Z"
}