{
  "contractName": "ScanApplicationReader",
  "abi": [
    {
      "constant": false,
      "inputs": [
        {
          "name": "userId",
          "type": "address"
        },
        {
          "name": "paymentId",
          "type": "uint256"
        }
      ],
      "name": "lockPayment",
      "outputs": [],
      "payable": false,
      "stateMutability": "nonpayable",
      "type": "function"
    },
    {
      "constant": true,
      "inputs": [],
      "name": "smartContractStatus",
      "outputs": [
        {
          "name": "",
          "type": "uint8"
        }
      ],
      "payable": false,
      "stateMutability": "view",
      "type": "function"
    },
    {
      "constant": true,
      "inputs": [
        {
          "name": "dentistId",
          "type": "address"
        },
        {
          "name": "offset",
          "type": "uint256"
        },
        {
          "name": "limit",
          "type": "uint256"
        },
        {
          "name": "seed",
          "type": "uint256"
        }
      ],
      "name": "fetchScanApplicationsForDentist",
      "outputs": [
        {
          "name": "",
          "type": "uint256"
        },
        {
          "name": "",
          "type": "uint256[]"
        }
      ],
      "payable": false,
      "stateMutability": "view",
      "type": "function"
    },
    {
      "constant": true,
      "inputs": [],
      "name": "owner",
      "outputs": [
        {
          "name": "",
          "type": "address"
        }
      ],
      "payable": false,
      "stateMutability": "view",
      "type": "function"
    },
    {
      "constant": true,
      "inputs": [],
      "name": "dbAddress",
      "outputs": [
        {
          "name": "",
          "type": "address"
        }
      ],
      "payable": false,
      "stateMutability": "view",
      "type": "function"
    },
    {
      "constant": true,
      "inputs": [
        {
          "name": "patientId",
          "type": "address"
        },
        {
          "name": "offset",
          "type": "uint256"
        },
        {
          "name": "limit",
          "type": "uint256"
        },
        {
          "name": "seed",
          "type": "uint256"
        }
      ],
      "name": "fetchScanApplicationsForPatient",
      "outputs": [
        {
          "name": "",
          "type": "uint256"
        },
        {
          "name": "",
          "type": "uint256[]"
        }
      ],
      "payable": false,
      "stateMutability": "view",
      "type": "function"
    },
    {
      "constant": false,
      "inputs": [
        {
          "name": "newOwner",
          "type": "address"
        }
      ],
      "name": "transferOwnership",
      "outputs": [],
      "payable": false,
      "stateMutability": "nonpayable",
      "type": "function"
    },
    {
      "inputs": [
        {
          "name": "_dbAddress",
          "type": "address"
        }
      ],
      "payable": false,
      "stateMutability": "nonpayable",
      "type": "constructor"
    },
    {
      "anonymous": false,
      "inputs": [
        {
          "indexed": false,
          "name": "paymentId",
          "type": "uint256"
        }
      ],
      "name": "PaymentLocked",
      "type": "event"
    },
    {
      "anonymous": false,
      "inputs": [
        {
          "indexed": false,
          "name": "status",
          "type": "uint8"
        }
      ],
      "name": "OnSmartContractStatusSet",
      "type": "event"
    },
    {
      "anonymous": false,
      "inputs": [
        {
          "indexed": true,
          "name": "previousOwner",
          "type": "address"
        },
        {
          "indexed": true,
          "name": "newOwner",
          "type": "address"
        }
      ],
      "name": "OwnershipTransferred",
      "type": "event"
    }
  ],
  "bytecode": "0x6060604052341561000f57600080fd5b60405160208061129c83398101604052808051906020019091905050336000806101000a81548173ffffffffffffffffffffffffffffffffffffffff021916908373ffffffffffffffffffffffffffffffffffffffff16021790555060008173ffffffffffffffffffffffffffffffffffffffff161415151561009157600080fd5b80600160006101000a81548173ffffffffffffffffffffffffffffffffffffffff021916908373ffffffffffffffffffffffffffffffffffffffff160217905550506111ba806100e26000396000f300606060405260043610610083576000357c0100000000000000000000000000000000000000000000000000000000900463ffffffff1680633f4b1470146100885780634c8ddddc146100ca5780635c783547146100f95780638da5cb5b146101a957806391e06b6d146101fe578063f044a5ce14610253578063f2fde38b14610303575b600080fd5b341561009357600080fd5b6100c8600480803573ffffffffffffffffffffffffffffffffffffffff1690602001909190803590602001909190505061033c565b005b34156100d557600080fd5b6100dd610593565b604051808260ff1660ff16815260200191505060405180910390f35b341561010457600080fd5b61014b600480803573ffffffffffffffffffffffffffffffffffffffff169060200190919080359060200190919080359060200190919080359060200190919050506105a6565b6040518083815260200180602001828103825283818151815260200191508051906020019060200280838360005b83811015610194578082015181840152602081019050610179565b50505050905001935050505060405180910390f35b34156101b457600080fd5b6101bc6105ec565b604051808273ffffffffffffffffffffffffffffffffffffffff1673ffffffffffffffffffffffffffffffffffffffff16815260200191505060405180910390f35b341561020957600080fd5b610211610611565b604051808273ffffffffffffffffffffffffffffffffffffffff1673ffffffffffffffffffffffffffffffffffffffff16815260200191505060405180910390f35b341561025e57600080fd5b6102a5600480803573ffffffffffffffffffffffffffffffffffffffff16906020019091908035906020019091908035906020019091908035906020019091905050610637565b6040518083815260200180602001828103825283818151815260200191508051906020019060200280838360005b838110156102ee5780820151818401526020810190506102d3565b50505050905001935050505060405180910390f35b341561030e57600080fd5b61033a600480803573ffffffffffffffffffffffffffffffffffffffff1690602001909190505061067d565b005b81610346816107d2565b151561035157600080fd5b8160018060ff16600160009054906101000a900473ffffffffffffffffffffffffffffffffffffffff1673ffffffffffffffffffffffffffffffffffffffff16637a0e03ec8460405180807f7061796d656e742f737461746500000000000000000000000000000000000000815250600d0182815260200191505060405180910390206000604051602001526040518263ffffffff167c0100000000000000000000000000000000000000000000000000000000028152600401808260001916600019168152602001915050602060405180830381600087803b151561043657600080fd5b6102c65a03f1151561044757600080fd5b5050506040518051905060ff1614151561046057600080fd5b600160009054906101000a900473ffffffffffffffffffffffffffffffffffffffff1673ffffffffffffffffffffffffffffffffffffffff16630bd851588560405180807f7061796d656e742f737461746500000000000000000000000000000000000000815250600d01828152602001915050604051809103902060026040518363ffffffff167c01000000000000000000000000000000000000000000000000000000000281526004018083600019166000191681526020018260ff16815260200192505050600060405180830381600087803b151561054157600080fd5b6102c65a03f1151561055257600080fd5b5050507fa5f78a79f83dfad686a63ca003a42f6c262d9fdc43a6742c56f5c27c11b9a1e2846040518082815260200191505060405180910390a15050505050565b600160149054906101000a900460ff1681565b60006105b061117a565b6105df600160009054906101000a900473ffffffffffffffffffffffffffffffffffffffff16878787876107f9565b9150915094509492505050565b6000809054906101000a900473ffffffffffffffffffffffffffffffffffffffff1681565b600160009054906101000a900473ffffffffffffffffffffffffffffffffffffffff1681565b600061064161117a565b610670600160009054906101000a900473ffffffffffffffffffffffffffffffffffffffff168787878761082d565b9150915094509492505050565b6000809054906101000a900473ffffffffffffffffffffffffffffffffffffffff1673ffffffffffffffffffffffffffffffffffffffff163373ffffffffffffffffffffffffffffffffffffffff161415156106d857600080fd5b600073ffffffffffffffffffffffffffffffffffffffff168173ffffffffffffffffffffffffffffffffffffffff161415151561071457600080fd5b8073ffffffffffffffffffffffffffffffffffffffff166000809054906101000a900473ffffffffffffffffffffffffffffffffffffffff1673ffffffffffffffffffffffffffffffffffffffff167f8be0079c531659141344cd1fd0a4f28419497f9722a3daafe3b4186f6b6457e060405160405180910390a3806000806101000a81548173ffffffffffffffffffffffffffffffffffffffff021916908373ffffffffffffffffffffffffffffffffffffffff16021790555050565b60006107df826001610861565b80156107f257506107f182600161087c565b5b9050919050565b600061080361117a565b61080d8787610897565b905061081b8186868661091d565b80925081935050509550959350505050565b600061083761117a565b610841878761098d565b905061084f8186868661091d565b80925081935050509550959350505050565b600061086c83610a13565b60ff168260ff1614905092915050565b600061088783610b50565b60ff168260ff1614905092915050565b61089f61117a565b61091583836040805190810160405280601881526020017f64656e746973742f7363616e2d6170706c69636174696f6e00000000000000008152506040805190810160405280601f81526020017f64656e746973742f7363616e2d6170706c69636174696f6e732d636f756e7400815250610c8d565b905092915050565b600061092761117a565b85519150600086511115610983578551851115610953578161094a600088610e50565b91509150610984565b85518486011115610965578486510393505b61098086875187860181151561097757fe5b06866001610ee5565b90505b5b94509492505050565b61099561117a565b610a0b83836040805190810160405280601881526020017f70617469656e742f7363616e2d6170706c69636174696f6e00000000000000008152506040805190810160405280601f81526020017f70617469656e742f7363616e2d6170706c69636174696f6e732d636f756e7400815250610c8d565b905092915050565b6000600160009054906101000a900473ffffffffffffffffffffffffffffffffffffffff1673ffffffffffffffffffffffffffffffffffffffff16637a0e03ec8360405180807f757365722f7479706500000000000000000000000000000000000000000000008152506009018273ffffffffffffffffffffffffffffffffffffffff1673ffffffffffffffffffffffffffffffffffffffff166c0100000000000000000000000002815260140191505060405180910390206000604051602001526040518263ffffffff167c0100000000000000000000000000000000000000000000000000000000028152600401808260001916600019168152602001915050602060405180830381600087803b1515610b2e57600080fd5b6102c65a03f11515610b3f57600080fd5b505050604051805190509050919050565b6000600160009054906101000a900473ffffffffffffffffffffffffffffffffffffffff1673ffffffffffffffffffffffffffffffffffffffff16637a0e03ec8360405180807f757365722f737461747573000000000000000000000000000000000000000000815250600b018273ffffffffffffffffffffffffffffffffffffffff1673ffffffffffffffffffffffffffffffffffffffff166c0100000000000000000000000002815260140191505060405180910390206000604051602001526040518263ffffffff167c0100000000000000000000000000000000000000000000000000000000028152600401808260001916600019168152602001915050602060405180830381600087803b1515610c6b57600080fd5b6102c65a03f11515610c7c57600080fd5b505050604051805190509050919050565b610c9561117a565b600080610ca3878786611030565b915081604051805910610cb35750595b90808252806020026020018201604052509250600090505b81811015610e43578673ffffffffffffffffffffffffffffffffffffffff1663bdc963d88688846040518084805190602001908083835b602083101515610d275780518252602082019150602081019050602083039250610d02565b6001836020036101000a0380198251168184511680821785525050505050509050018373ffffffffffffffffffffffffffffffffffffffff1673ffffffffffffffffffffffffffffffffffffffff166c01000000000000000000000000028152601401828152602001935050505060405180910390206000604051602001526040518263ffffffff167c0100000000000000000000000000000000000000000000000000000000028152600401808260001916600019168152602001915050602060405180830381600087803b1515610dff57600080fd5b6102c65a03f11515610e1057600080fd5b505050604051805190508382815181101515610e2857fe5b90602001906020020181815250508080600101915050610ccb565b8292505050949350505050565b610e5861117a565b60008251841115610e6b57829150610ede565b83604051805910610e795750595b90808252806020026020018201604052509150600090505b83811015610eda578281815181101515610ea757fe5b906020019060200201518282815181101515610ebf57fe5b90602001906020020181815250508080600101915050610e91565b8191505b5092915050565b610eed61117a565b60008060008060009350885192508288101580610f0a5750600087145b15610f1757849450611024565b86604051805910610f255750595b908082528060200260200182016040525094508791505b868801821015610f9c5781831415610f5357610f9c565b8882815181101515610f6157fe5b906020019060200201518585815181101515610f7957fe5b906020019060200201818152505083806001019450508180600101925050610f3c565b858015610fa857508684105b15611017578387039050600091505b80821115156110165783871415610fcd57611016565b8882815181101515610fdb57fe5b906020019060200201518585815181101515610ff357fe5b906020019060200201818152505083806001019450508180600101925050610fb7565b5b6110218486610e50565b94505b50505050949350505050565b60008373ffffffffffffffffffffffffffffffffffffffff1663bdc963d883856040518083805190602001908083835b6020831015156110855780518252602082019150602081019050602083039250611060565b6001836020036101000a0380198251168184511680821785525050505050509050018273ffffffffffffffffffffffffffffffffffffffff1673ffffffffffffffffffffffffffffffffffffffff166c010000000000000000000000000281526014019250505060405180910390206000604051602001526040518263ffffffff167c0100000000000000000000000000000000000000000000000000000000028152600401808260001916600019168152602001915050602060405180830381600087803b151561115657600080fd5b6102c65a03f1151561116757600080fd5b5050506040518051905090509392505050565b6020604051908101604052806000815250905600a165627a7a723058209d0a708bbef8829ea22cd7d8c67e360cc735bb4793660af82e6c11c8d9ffe0b60029",
  "source": "pragma solidity 0.4.18;\n\nimport \"./Restrictor.sol\";\nimport \"../lib/odll/userManager.sol\";\n\ncontract ScanApplicationReader is Restrictor {\n\n  function ScanApplicationReader (address _dbAddress) public {\n    require(_dbAddress != 0x0);\n    dbAddress = _dbAddress;\n  }\n\n  function fetchScanApplicationsForPatient (\n    address patientId,\n    uint offset, // starting from offset: 0-based\n    uint limit, // not more than limit\n    uint seed // seed value to give the illusion of randomisation\n  )\n    external\n    view\n    returns (\n      uint,\n      uint[]\n    )\n  {\n    return userManager.fetchPatientScanApplications(dbAddress, patientId, offset, limit, seed);\n  }\n\n  function fetchScanApplicationsForDentist (\n    address dentistId,\n    uint offset, // starting from offset: 0-based\n    uint limit, // not more than limit\n    uint seed // seed value to give the illusion of randomisation\n  )\n    external\n    view\n    returns (\n      uint,\n      uint[]\n    )\n  {\n    return userManager.fetchDentistScanApplications(dbAddress, dentistId, offset, limit, seed);\n  }\n}\n",
  "sourcePath": "/Users/danielokwufulueze/dev/vue/apps/oraldatalink/contracts/odll/ScanApplicationReader.sol",
  "compiler": {
    "name": "solc",
    "version": "0.4.18+commit.9cf6e910.Emscripten.clang"
  },
  "schemaVersion": "1.0.1",
  "updatedAt": "2017-12-04T15:44:41.183Z"
}