{
  "contractName": "ScanApplicationWriter",
  "abi": [
    {
      "constant": true,
      "inputs": [],
      "name": "smartContractStatus",
      "outputs": [
        {
          "name": "",
          "type": "uint8"
        }
      ],
      "payable": false,
      "stateMutability": "view",
      "type": "function"
    },
    {
      "constant": true,
      "inputs": [],
      "name": "owner",
      "outputs": [
        {
          "name": "",
          "type": "address"
        }
      ],
      "payable": false,
      "stateMutability": "view",
      "type": "function"
    },
    {
      "constant": true,
      "inputs": [],
      "name": "dbAddress",
      "outputs": [
        {
          "name": "",
          "type": "address"
        }
      ],
      "payable": false,
      "stateMutability": "view",
      "type": "function"
    },
    {
      "constant": false,
      "inputs": [
        {
          "name": "patientId",
          "type": "address"
        },
        {
          "name": "scanApplicationId",
          "type": "uint256"
        }
      ],
      "name": "cancelScanApplication",
      "outputs": [],
      "payable": false,
      "stateMutability": "nonpayable",
      "type": "function"
    },
    {
      "constant": false,
      "inputs": [
        {
          "name": "newOwner",
          "type": "address"
        }
      ],
      "name": "transferOwnership",
      "outputs": [],
      "payable": false,
      "stateMutability": "nonpayable",
      "type": "function"
    },
    {
      "constant": false,
      "inputs": [
        {
          "name": "patientId",
          "type": "address"
        },
        {
          "name": "scanRequestId",
          "type": "uint256"
        },
        {
          "name": "quote",
          "type": "uint256"
        },
        {
          "name": "comment",
          "type": "string"
        }
      ],
      "name": "applyToScan",
      "outputs": [],
      "payable": false,
      "stateMutability": "nonpayable",
      "type": "function"
    },
    {
      "inputs": [
        {
          "name": "_dbAddress",
          "type": "address"
        }
      ],
      "payable": false,
      "stateMutability": "nonpayable",
      "type": "constructor"
    },
    {
      "anonymous": false,
      "inputs": [
        {
          "indexed": false,
          "name": "status",
          "type": "uint8"
        }
      ],
      "name": "OnSmartContractStatusSet",
      "type": "event"
    },
    {
      "anonymous": false,
      "inputs": [
        {
          "indexed": true,
          "name": "previousOwner",
          "type": "address"
        },
        {
          "indexed": true,
          "name": "newOwner",
          "type": "address"
        }
      ],
      "name": "OwnershipTransferred",
      "type": "event"
    }
  ],
  "bytecode": "0x6060604052341561000f57600080fd5b6040516020806128fa83398101604052808051906020019091905050336000806101000a81548173ffffffffffffffffffffffffffffffffffffffff021916908373ffffffffffffffffffffffffffffffffffffffff16021790555060008173ffffffffffffffffffffffffffffffffffffffff161415151561009157600080fd5b80600160006101000a81548173ffffffffffffffffffffffffffffffffffffffff021916908373ffffffffffffffffffffffffffffffffffffffff16021790555050612818806100e26000396000f300606060405260043610610078576000357c0100000000000000000000000000000000000000000000000000000000900463ffffffff1680634c8ddddc1461007d5780638da5cb5b146100ac57806391e06b6d14610101578063a3f3587714610156578063f2fde38b14610198578063f793bf68146101d1575b600080fd5b341561008857600080fd5b610090610230565b604051808260ff1660ff16815260200191505060405180910390f35b34156100b757600080fd5b6100bf610243565b604051808273ffffffffffffffffffffffffffffffffffffffff1673ffffffffffffffffffffffffffffffffffffffff16815260200191505060405180910390f35b341561010c57600080fd5b610114610268565b604051808273ffffffffffffffffffffffffffffffffffffffff1673ffffffffffffffffffffffffffffffffffffffff16815260200191505060405180910390f35b341561016157600080fd5b610196600480803573ffffffffffffffffffffffffffffffffffffffff1690602001909190803590602001909190505061028e565b005b34156101a357600080fd5b6101cf600480803573ffffffffffffffffffffffffffffffffffffffff169060200190919050506102c0565b005b34156101dc57600080fd5b61022e600480803573ffffffffffffffffffffffffffffffffffffffff169060200190919080359060200190919080359060200190919080359060200190820180359060200191909192905050610415565b005b600160149054906101000a900460ff1681565b6000809054906101000a900473ffffffffffffffffffffffffffffffffffffffff1681565b600160009054906101000a900473ffffffffffffffffffffffffffffffffffffffff1681565b6102bc600160009054906101000a900473ffffffffffffffffffffffffffffffffffffffff1633848461049f565b5050565b6000809054906101000a900473ffffffffffffffffffffffffffffffffffffffff1673ffffffffffffffffffffffffffffffffffffffff163373ffffffffffffffffffffffffffffffffffffffff1614151561031b57600080fd5b600073ffffffffffffffffffffffffffffffffffffffff168173ffffffffffffffffffffffffffffffffffffffff161415151561035757600080fd5b8073ffffffffffffffffffffffffffffffffffffffff166000809054906101000a900473ffffffffffffffffffffffffffffffffffffffff1673ffffffffffffffffffffffffffffffffffffffff167f8be0079c531659141344cd1fd0a4f28419497f9722a3daafe3b4186f6b6457e060405160405180910390a3806000806101000a81548173ffffffffffffffffffffffffffffffffffffffff021916908373ffffffffffffffffffffffffffffffffffffffff16021790555050565b6000600160149054906101000a900460ff1660ff1614151561043657600080fd5b610498600160009054906101000a900473ffffffffffffffffffffffffffffffffffffffff163387878787878080601f0160208091040260200160405190810160405280939291908181526020018383808284378201915050505050506104b1565b5050505050565b6104ab848484846104c7565b50505050565b6104bf8686868686866108a2565b505050505050565b60018473ffffffffffffffffffffffffffffffffffffffff16637a0e03ec8360405180807f7363616e2d6170706c69636174696f6e2f73746174757300000000000000000081525060170182815260200191505060405180910390206000604051602001526040518263ffffffff167c0100000000000000000000000000000000000000000000000000000000028152600401808260001916600019168152602001915050602060405180830381600087803b151561058557600080fd5b6102c65a03f1151561059657600080fd5b5050506040518051905060ff161480156106b157508273ffffffffffffffffffffffffffffffffffffffff168473ffffffffffffffffffffffffffffffffffffffff16634c77e5ba8360405180807f7363616e2d6170706c69636174696f6e2f64656e74697374000000000000000081525060180182815260200191505060405180910390206000604051602001526040518263ffffffff167c0100000000000000000000000000000000000000000000000000000000028152600401808260001916600019168152602001915050602060405180830381600087803b151561067e57600080fd5b6102c65a03f1151561068f57600080fd5b5050506040518051905073ffffffffffffffffffffffffffffffffffffffff16145b80156107be57508173ffffffffffffffffffffffffffffffffffffffff168473ffffffffffffffffffffffffffffffffffffffff16634c77e5ba8360405180807f7363616e2d6170706c69636174696f6e2f70617469656e74000000000000000081525060180182815260200191505060405180910390206000604051602001526040518263ffffffff167c0100000000000000000000000000000000000000000000000000000000028152600401808260001916600019168152602001915050602060405180830381600087803b151561078b57600080fd5b6102c65a03f1151561079c57600080fd5b5050506040518051905073ffffffffffffffffffffffffffffffffffffffff16145b15156107c957600080fd5b8373ffffffffffffffffffffffffffffffffffffffff16630bd851588260405180807f7363616e2d6170706c69636174696f6e2f737461747573000000000000000000815250601701828152602001915050604051809103902060036040518363ffffffff167c01000000000000000000000000000000000000000000000000000000000281526004018083600019166000191681526020018260ff16815260200192505050600060405180830381600087803b151561088857600080fd5b6102c65a03f1151561089957600080fd5b50505050505050565b6108b08686868686866108b8565b505050505050565b60008060008060006108ff8b6040805190810160405280601781526020017f7363616e2d6170706c69636174696f6e732d636f756e740000000000000000008152506113a0565b945060008b73ffffffffffffffffffffffffffffffffffffffff16637a0e03ec8760405180807f7363616e2d6170706c69636174696f6e2f73746174757300000000000000000081525060170182815260200191505060405180910390206000604051602001526040518263ffffffff167c0100000000000000000000000000000000000000000000000000000000028152600401808260001916600019168152602001915050602060405180830381600087803b15156109bf57600080fd5b6102c65a03f115156109d057600080fd5b5050506040518051905060ff16148015610ac3575060018b73ffffffffffffffffffffffffffffffffffffffff16637a0e03ec8a60405180807f7363616e2d726571756573742f7374617475730000000000000000000000000081525060130182815260200191505060405180910390206000604051602001526040518263ffffffff167c0100000000000000000000000000000000000000000000000000000000028152600401808260001916600019168152602001915050602060405180830381600087803b1515610aa357600080fd5b6102c65a03f11515610ab457600080fd5b5050506040518051905060ff16145b8015610bd057508873ffffffffffffffffffffffffffffffffffffffff168b73ffffffffffffffffffffffffffffffffffffffff16634c77e5ba8a60405180807f7363616e2d726571756573742f70617469656e7400000000000000000000000081525060140182815260200191505060405180910390206000604051602001526040518263ffffffff167c0100000000000000000000000000000000000000000000000000000000028152600401808260001916600019168152602001915050602060405180830381600087803b1515610b9d57600080fd5b6102c65a03f11515610bae57600080fd5b5050506040518051905073ffffffffffffffffffffffffffffffffffffffff16145b1515610bdb57600080fd5b600093505b84841015611188578a73ffffffffffffffffffffffffffffffffffffffff1663bdc963d88b8660405180807f64656e746973742f7363616e2d6170706c69636174696f6e00000000000000008152506018018373ffffffffffffffffffffffffffffffffffffffff1673ffffffffffffffffffffffffffffffffffffffff166c010000000000000000000000000281526014018281526020019250505060405180910390206000604051602001526040518263ffffffff167c0100000000000000000000000000000000000000000000000000000000028152600401808260001916600019168152602001915050602060405180830381600087803b1515610ce757600080fd5b6102c65a03f11515610cf857600080fd5b5050506040518051905092508a73ffffffffffffffffffffffffffffffffffffffff1663bdc963d88460405180807f7363616e2d6170706c69636174696f6e2f7363616e2d72657175657374000000815250601d0182815260200191505060405180910390206000604051602001526040518263ffffffff167c0100000000000000000000000000000000000000000000000000000000028152600401808260001916600019168152602001915050602060405180830381600087803b1515610dc057600080fd5b6102c65a03f11515610dd157600080fd5b5050506040518051905091508782148015611171575060018b73ffffffffffffffffffffffffffffffffffffffff16637a0e03ec8560405180807f7363616e2d6170706c69636174696f6e2f73746174757300000000000000000081525060170182815260200191505060405180910390206000604051602001526040518263ffffffff167c0100000000000000000000000000000000000000000000000000000000028152600401808260001916600019168152602001915050602060405180830381600087803b1515610ea557600080fd5b6102c65a03f11515610eb657600080fd5b5050506040518051905060ff161480610fa8575060028b73ffffffffffffffffffffffffffffffffffffffff16637a0e03ec8560405180807f7363616e2d6170706c69636174696f6e2f73746174757300000000000000000081525060170182815260200191505060405180910390206000604051602001526040518263ffffffff167c0100000000000000000000000000000000000000000000000000000000028152600401808260001916600019168152602001915050602060405180830381600087803b1515610f8857600080fd5b6102c65a03f11515610f9957600080fd5b5050506040518051905060ff16145b8061108c575060048b73ffffffffffffffffffffffffffffffffffffffff16637a0e03ec8560405180807f7363616e2d6170706c69636174696f6e2f73746174757300000000000000000081525060170182815260200191505060405180910390206000604051602001526040518263ffffffff167c0100000000000000000000000000000000000000000000000000000000028152600401808260001916600019168152602001915050602060405180830381600087803b151561106c57600080fd5b6102c65a03f1151561107d57600080fd5b5050506040518051905060ff16145b80611170575060058b73ffffffffffffffffffffffffffffffffffffffff16637a0e03ec8560405180807f7363616e2d6170706c69636174696f6e2f73746174757300000000000000000081525060170182815260200191505060405180910390206000604051602001526040518263ffffffff167c0100000000000000000000000000000000000000000000000000000000028152600401808260001916600019168152602001915050602060405180830381600087803b151561115057600080fd5b6102c65a03f1151561116157600080fd5b5050506040518051905060ff16145b5b1561117b57611393565b8380600101945050610be0565b8a73ffffffffffffffffffffffffffffffffffffffff1663bdc963d88960405180807f7363616e2d726571756573742f7363616e2d736572766963650000000000000081525060190182815260200191505060405180910390206000604051602001526040518263ffffffff167c0100000000000000000000000000000000000000000000000000000000028152600401808260001916600019168152602001915050602060405180830381600087803b151561124457600080fd5b6102c65a03f1151561125557600080fd5b5050506040518051905090508a73ffffffffffffffffffffffffffffffffffffffff16633eba9ed28b8a60405180807f64656e746973742f7363616e2d726571756573740000000000000000000000008152506014018373ffffffffffffffffffffffffffffffffffffffff1673ffffffffffffffffffffffffffffffffffffffff166c0100000000000000000000000002815260140182815260200192505050604051809103902060016040518363ffffffff167c01000000000000000000000000000000000000000000000000000000000281526004018083600019166000191681526020018215151515815260200192505050600060405180830381600087803b151561136457600080fd5b6102c65a03f1151561137557600080fd5b5050506113848b828a886114a6565b6113928b8b8b888b8b611900565b5b5050505050505050505050565b60008273ffffffffffffffffffffffffffffffffffffffff1663bdc963d8836040518082805190602001908083835b6020831015156113f457805182526020820191506020810190506020830392506113cf565b6001836020036101000a03801982511681845116808217855250505050505090500191505060405180910390206000604051602001526040518263ffffffff167c0100000000000000000000000000000000000000000000000000000000028152600401808260001916600019168152602001915050602060405180830381600087803b151561148357600080fd5b6102c65a03f1151561149457600080fd5b50505060405180519050905092915050565b8373ffffffffffffffffffffffffffffffffffffffff16630bd851588260405180807f7363616e2d6170706c69636174696f6e2f737461747573000000000000000000815250601701828152602001915050604051809103902060016040518363ffffffff167c01000000000000000000000000000000000000000000000000000000000281526004018083600019166000191681526020018260ff16815260200192505050600060405180830381600087803b151561156557600080fd5b6102c65a03f1151561157657600080fd5b5050508373ffffffffffffffffffffffffffffffffffffffff16633562fd208260405180807f7363616e2d6170706c69636174696f6e2f637265617465642d6f6e0000000000815250601b018281526020019150506040518091039020426040518363ffffffff167c010000000000000000000000000000000000000000000000000000000002815260040180836000191660001916815260200182815260200192505050600060405180830381600087803b151561163457600080fd5b6102c65a03f1151561164557600080fd5b5050508373ffffffffffffffffffffffffffffffffffffffff16633562fd208260405180807f7363616e2d6170706c69636174696f6e2f7363616e2d72657175657374000000815250601d018281526020019150506040518091039020846040518363ffffffff167c010000000000000000000000000000000000000000000000000000000002815260040180836000191660001916815260200182815260200192505050600060405180830381600087803b151561170357600080fd5b6102c65a03f1151561171457600080fd5b5050508373ffffffffffffffffffffffffffffffffffffffff16633562fd208260405180807f7363616e2d6170706c69636174696f6e2f7363616e2d73657276696365000000815250601d018281526020019150506040518091039020856040518363ffffffff167c010000000000000000000000000000000000000000000000000000000002815260040180836000191660001916815260200182815260200192505050600060405180830381600087803b15156117d257600080fd5b6102c65a03f115156117e357600080fd5b50505061185c846040805190810160405280601081526020017f7363616e2d6170706c69636174696f6e000000000000000000000000000000008152506040805190810160405280601781526020017f7363616e2d6170706c69636174696f6e732d636f756e7400000000000000000081525084611def565b6118fa84836040805190810160405280601d81526020017f7363616e2d726571756573742f7363616e2d6170706c69636174696f6e000000815250606060405190810160405280602481526020017f7363616e2d726571756573742f7363616e2d6170706c69636174696f6e732d6381526020017f6f756e7400000000000000000000000000000000000000000000000000000000815250856120e9565b50505050565b8573ffffffffffffffffffffffffffffffffffffffff16633562fd208460405180807f7363616e2d6170706c69636174696f6e2f71756f7465000000000000000000008152506016018281526020019150506040518091039020846040518363ffffffff167c010000000000000000000000000000000000000000000000000000000002815260040180836000191660001916815260200182815260200192505050600060405180830381600087803b15156119bb57600080fd5b6102c65a03f115156119cc57600080fd5b5050508573ffffffffffffffffffffffffffffffffffffffff1663f58660668460405180807f7363616e2d6170706c69636174696f6e2f636f6d6d656e7400000000000000008152506018018281526020019150506040518091039020836040518363ffffffff167c010000000000000000000000000000000000000000000000000000000002815260040180836000191660001916815260200180602001828103825283818151815260200191508051906020019080838360005b83811015611aa3578082015181840152602081019050611a88565b50505050905090810190601f168015611ad05780820380516001836020036101000a031916815260200191505b509350505050600060405180830381600087803b1515611aef57600080fd5b6102c65a03f11515611b0057600080fd5b5050508573ffffffffffffffffffffffffffffffffffffffff16635a2bf25a8460405180807f7363616e2d6170706c69636174696f6e2f64656e7469737400000000000000008152506018018281526020019150506040518091039020876040518363ffffffff167c01000000000000000000000000000000000000000000000000000000000281526004018083600019166000191681526020018273ffffffffffffffffffffffffffffffffffffffff1673ffffffffffffffffffffffffffffffffffffffff16815260200192505050600060405180830381600087803b1515611bea57600080fd5b6102c65a03f11515611bfb57600080fd5b5050508573ffffffffffffffffffffffffffffffffffffffff16635a2bf25a8460405180807f7363616e2d6170706c69636174696f6e2f70617469656e7400000000000000008152506018018281526020019150506040518091039020866040518363ffffffff167c01000000000000000000000000000000000000000000000000000000000281526004018083600019166000191681526020018273ffffffffffffffffffffffffffffffffffffffff1673ffffffffffffffffffffffffffffffffffffffff16815260200192505050600060405180830381600087803b1515611ce557600080fd5b6102c65a03f11515611cf657600080fd5b505050611d7086866040805190810160405280601881526020017f64656e746973742f7363616e2d6170706c69636174696f6e00000000000000008152506040805190810160405280601f81526020017f64656e746973742f7363616e2d6170706c69636174696f6e732d636f756e740081525087612303565b611de786856040805190810160405280601881526020017f70617469656e742f7363616e2d6170706c69636174696f6e00000000000000008152506040805190810160405280601f81526020017f70617469656e742f7363616e2d6170706c69636174696f6e732d636f756e740081525087612303565b505050505050565b60008473ffffffffffffffffffffffffffffffffffffffff1663bdc963d8846040518082805190602001908083835b602083101515611e435780518252602082019150602081019050602083039250611e1e565b6001836020036101000a03801982511681845116808217855250505050505090500191505060405180910390206000604051602001526040518263ffffffff167c0100000000000000000000000000000000000000000000000000000000028152600401808260001916600019168152602001915050602060405180830381600087803b1515611ed257600080fd5b6102c65a03f11515611ee357600080fd5b5050506040518051905090508473ffffffffffffffffffffffffffffffffffffffff16633562fd2085836040518083805190602001908083835b602083101515611f425780518252602082019150602081019050602083039250611f1d565b6001836020036101000a038019825116818451168082178552505050505050905001828152602001925050506040518091039020846040518363ffffffff167c010000000000000000000000000000000000000000000000000000000002815260040180836000191660001916815260200182815260200192505050600060405180830381600087803b1515611fd757600080fd5b6102c65a03f11515611fe857600080fd5b5050508473ffffffffffffffffffffffffffffffffffffffff16633562fd20846040518082805190602001908083835b60208310151561203d5780518252602082019150602081019050602083039250612018565b6001836020036101000a0380198251168184511680821785525050505050509050019150506040518091039020600184016040518363ffffffff167c010000000000000000000000000000000000000000000000000000000002815260040180836000191660001916815260200182815260200192505050600060405180830381600087803b15156120ce57600080fd5b6102c65a03f115156120df57600080fd5b5050505050505050565b60006120f6868685612593565b90508573ffffffffffffffffffffffffffffffffffffffff16633562fd208587846040518084805190602001908083835b60208310151561214c5780518252602082019150602081019050602083039250612127565b6001836020036101000a03801982511681845116808217855250505050505090500183815260200182815260200193505050506040518091039020846040518363ffffffff167c010000000000000000000000000000000000000000000000000000000002815260040180836000191660001916815260200182815260200192505050600060405180830381600087803b15156121e857600080fd5b6102c65a03f115156121f957600080fd5b5050508573ffffffffffffffffffffffffffffffffffffffff16633562fd2084876040518083805190602001908083835b60208310151561224f578051825260208201915060208101905060208303925061222a565b6001836020036101000a038019825116818451168082178552505050505050905001828152602001925050506040518091039020600184016040518363ffffffff167c010000000000000000000000000000000000000000000000000000000002815260040180836000191660001916815260200182815260200192505050600060405180830381600087803b15156122e757600080fd5b6102c65a03f115156122f857600080fd5b505050505050505050565b60006123108686856126a2565b90508573ffffffffffffffffffffffffffffffffffffffff16633562fd208587846040518084805190602001908083835b6020831015156123665780518252602082019150602081019050602083039250612341565b6001836020036101000a0380198251168184511680821785525050505050509050018373ffffffffffffffffffffffffffffffffffffffff1673ffffffffffffffffffffffffffffffffffffffff166c0100000000000000000000000002815260140182815260200193505050506040518091039020846040518363ffffffff167c010000000000000000000000000000000000000000000000000000000002815260040180836000191660001916815260200182815260200192505050600060405180830381600087803b151561243d57600080fd5b6102c65a03f1151561244e57600080fd5b5050508573ffffffffffffffffffffffffffffffffffffffff16633562fd2084876040518083805190602001908083835b6020831015156124a4578051825260208201915060208101905060208303925061247f565b6001836020036101000a0380198251168184511680821785525050505050509050018273ffffffffffffffffffffffffffffffffffffffff1673ffffffffffffffffffffffffffffffffffffffff166c01000000000000000000000000028152601401925050506040518091039020600184016040518363ffffffff167c010000000000000000000000000000000000000000000000000000000002815260040180836000191660001916815260200182815260200192505050600060405180830381600087803b151561257757600080fd5b6102c65a03f1151561258857600080fd5b505050505050505050565b60008373ffffffffffffffffffffffffffffffffffffffff1663bdc963d883856040518083805190602001908083835b6020831015156125e857805182526020820191506020810190506020830392506125c3565b6001836020036101000a0380198251168184511680821785525050505050509050018281526020019250505060405180910390206000604051602001526040518263ffffffff167c0100000000000000000000000000000000000000000000000000000000028152600401808260001916600019168152602001915050602060405180830381600087803b151561267e57600080fd5b6102c65a03f1151561268f57600080fd5b5050506040518051905090509392505050565b60008373ffffffffffffffffffffffffffffffffffffffff1663bdc963d883856040518083805190602001908083835b6020831015156126f757805182526020820191506020810190506020830392506126d2565b6001836020036101000a0380198251168184511680821785525050505050509050018273ffffffffffffffffffffffffffffffffffffffff1673ffffffffffffffffffffffffffffffffffffffff166c010000000000000000000000000281526014019250505060405180910390206000604051602001526040518263ffffffff167c0100000000000000000000000000000000000000000000000000000000028152600401808260001916600019168152602001915050602060405180830381600087803b15156127c857600080fd5b6102c65a03f115156127d957600080fd5b50505060405180519050905093925050505600a165627a7a72305820e05947a7123a1c2c3d2c750d340a7ed8b69b612945575c2ef6cb693786f82d8c0029",
  "source": "pragma solidity 0.4.18;\nimport \"./Restrictor.sol\";\nimport \"../lib/odll/userManager.sol\";\n\ncontract ScanApplicationWriter is Restrictor {\n  function ScanApplicationWriter(address _dbAddress) public {\n    require(_dbAddress != 0x0);\n    dbAddress = _dbAddress;\n  }\n\n  // Scan Application\n  function applyToScan (\n    address patientId,\n    uint scanRequestId,\n    uint quote,\n    string comment\n  )\n    external\n    onlyPermittedSmartContract\n  {\n    userManager.applyToScan(dbAddress, msg.sender, patientId, scanRequestId, quote, comment);\n  }\n\n  function cancelScanApplication (\n    address patientId,\n    uint scanApplicationId\n  )\n    external\n  {\n    userManager.cancelScanApplication(dbAddress, msg.sender, patientId, scanApplicationId);\n  }\n}\n",
  "sourcePath": "/Users/danielokwufulueze/dev/vue/apps/oraldatalink/contracts/odll/ScanApplicationWriter.sol",
  "compiler": {
    "name": "solc",
    "version": "0.4.18+commit.9cf6e910.Emscripten.clang"
  },
  "schemaVersion": "1.0.1",
  "updatedAt": "2017-12-01T20:44:54.366Z"
}