{
  "contractName": "ScanRequestWriter",
  "abi": [
    {
      "constant": false,
      "inputs": [
        {
          "name": "patientId",
          "type": "address"
        },
        {
          "name": "scanRequestId",
          "type": "uint256"
        },
        {
          "name": "quote",
          "type": "uint256"
        },
        {
          "name": "comment",
          "type": "string"
        }
      ],
      "name": "acceptScanRequest",
      "outputs": [
        {
          "name": "",
          "type": "uint8"
        }
      ],
      "payable": false,
      "stateMutability": "nonpayable",
      "type": "function"
    },
    {
      "constant": true,
      "inputs": [],
      "name": "smartContractStatus",
      "outputs": [
        {
          "name": "",
          "type": "uint8"
        }
      ],
      "payable": false,
      "stateMutability": "view",
      "type": "function"
    },
    {
      "constant": false,
      "inputs": [
        {
          "name": "dentistId",
          "type": "address"
        },
        {
          "name": "scanAppointmentId",
          "type": "uint256"
        },
        {
          "name": "appointmentDate",
          "type": "bytes32"
        },
        {
          "name": "scanTime",
          "type": "bytes32"
        },
        {
          "name": "scanInsurance",
          "type": "string"
        },
        {
          "name": "comment",
          "type": "string"
        }
      ],
      "name": "writeScanRequest",
      "outputs": [
        {
          "name": "",
          "type": "address"
        }
      ],
      "payable": false,
      "stateMutability": "nonpayable",
      "type": "function"
    },
    {
      "constant": true,
      "inputs": [
        {
          "name": "scanRequestId",
          "type": "uint256"
        }
      ],
      "name": "owner",
      "outputs": [
        {
          "name": "",
          "type": "address"
        }
      ],
      "payable": false,
      "stateMutability": "view",
      "type": "function"
    },
    {
      "constant": true,
      "inputs": [
        {
          "name": "patientId",
          "type": "address"
        },
        {
          "name": "scanRequestId",
          "type": "uint256"
        },
        {
          "name": "quote",
          "type": "uint256"
        },
        {
          "name": "comment",
          "type": "bytes32"
        }
      ],
      "name": "dbAddress",
      "outputs": [
        {
          "name": "",
          "type": "address"
        }
      ],
      "payable": false,
      "stateMutability": "view",
      "type": "function"
    },
    {
      "constant": false,
      "inputs": [
        {
          "name": "scanRequestId",
          "type": "uint256"
        },
        {
          "name": "scanRequestId",
          "type": "uint256"
        }
      ],
      "name": "cancelScanRequest",
      "outputs": [],
      "payable": false,
      "stateMutability": "nonpayable",
      "type": "function"
    },
    {
      "constant": false,
      "inputs": [
        {
          "name": "patientId",
          "type": "address"
        },
        {
          "name": "scanRequestId",
          "type": "uint256"
        }
      ],
      "name": "rejectScanRequest",
      "outputs": [],
      "payable": false,
      "stateMutability": "nonpayable",
      "type": "function"
    },
    {
      "constant": false,
      "inputs": [
        {
          "name": "scanRequestId",
          "type": "uint256"
        }
      ],
      "name": "expireScanRequest",
      "outputs": [],
      "payable": false,
      "stateMutability": "nonpayable",
      "type": "function"
    },
    {
      "constant": false,
      "inputs": [
        {
          "name": "newOwner",
          "type": "address"
        },
        {
          "name": "scanAppointmentId",
          "type": "uint256"
        },
        {
          "name": "appointmentDate",
          "type": "bytes32"
        },
        {
          "name": "scanTime",
          "type": "bytes32"
        },
        {
          "name": "scanInsurance",
          "type": "bytes32"
        },
        {
          "name": "comment",
          "type": "bytes32"
        }
      ],
      "name": "transferOwnership",
      "outputs": [],
      "payable": false,
      "stateMutability": "nonpayable",
      "type": "function"
    },
    {
      "inputs": [
        {
          "name": "_dbAddress",
          "type": "address"
        }
      ],
      "payable": false,
      "stateMutability": "nonpayable",
      "type": "constructor"
    },
    {
      "anonymous": false,
      "inputs": [
        {
          "indexed": false,
          "name": "status",
          "type": "uint8"
        }
      ],
      "name": "OnSmartContractStatusSet",
      "type": "event"
    },
    {
      "anonymous": false,
      "inputs": [
        {
          "indexed": true,
          "name": "previousOwner",
          "type": "address"
        },
        {
          "indexed": true,
          "name": "newOwner",
          "type": "address"
        }
      ],
      "name": "OwnershipTransferred",
      "type": "event"
    }
  ],
  "bytecode": "0x6060604052341561000f57600080fd5b604051602080613d0583398101604052808051906020019091905050336000806101000a81548173ffffffffffffffffffffffffffffffffffffffff021916908373ffffffffffffffffffffffffffffffffffffffff16021790555060008173ffffffffffffffffffffffffffffffffffffffff161415151561009157600080fd5b80600160006101000a81548173ffffffffffffffffffffffffffffffffffffffff021916908373ffffffffffffffffffffffffffffffffffffffff16021790555050613c23806100e26000396000f300606060405260043610610099576000357c0100000000000000000000000000000000000000000000000000000000900463ffffffff1680633bb27e1d1461009e5780634c8ddddc146100fd5780636e4ef5571461012c5780638da5cb5b146101b057806391e06b6d146102055780639878585d1461025a578063bcd1269b1461027d578063d05aa652146102bf578063f2fde38b146102e2575b600080fd5b34156100a957600080fd5b6100fb600480803573ffffffffffffffffffffffffffffffffffffffff16906020019091908035906020019091908035906020019091908035906020019082018035906020019190919290505061031b565b005b341561010857600080fd5b6101106103a5565b604051808260ff1660ff16815260200191505060405180910390f35b341561013757600080fd5b6101ae600480803573ffffffffffffffffffffffffffffffffffffffff169060200190919080359060200190919080356000191690602001909190803560001916906020019091908035906020019082018035906020019190919290803590602001908201803590602001919091929050506103b8565b005b34156101bb57600080fd5b6101c3610479565b604051808273ffffffffffffffffffffffffffffffffffffffff1673ffffffffffffffffffffffffffffffffffffffff16815260200191505060405180910390f35b341561021057600080fd5b61021861049e565b604051808273ffffffffffffffffffffffffffffffffffffffff1673ffffffffffffffffffffffffffffffffffffffff16815260200191505060405180910390f35b341561026557600080fd5b61027b60048080359060200190919050506104c4565b005b341561028857600080fd5b6102bd600480803573ffffffffffffffffffffffffffffffffffffffff16906020019091908035906020019091905050610515565b005b34156102ca57600080fd5b6102e06004808035906020019091905050610568565b005b34156102ed57600080fd5b610319600480803573ffffffffffffffffffffffffffffffffffffffff169060200190919050506105b8565b005b6000600160149054906101000a900460ff1660ff1614151561033c57600080fd5b61039e600160009054906101000a900473ffffffffffffffffffffffffffffffffffffffff163387878787878080601f01602080910402602001604051908101604052809392919081815260200183838082843782019150505050505061070d565b5050505050565b600160149054906101000a900460ff1681565b6000600160149054906101000a900460ff1660ff161415156103d957600080fd5b61046f600160009054906101000a900473ffffffffffffffffffffffffffffffffffffffff1689338a8a8a8a8a8080601f01602080910402602001604051908101604052809392919081815260200183838082843782019150505050505089898080601f016020809104026020016040519081016040528093929190818152602001838380828437820191505050505050610723565b5050505050505050565b6000809054906101000a900473ffffffffffffffffffffffffffffffffffffffff1681565b600160009054906101000a900473ffffffffffffffffffffffffffffffffffffffff1681565b6000600160149054906101000a900460ff1660ff161415156104e557600080fd5b610512600160009054906101000a900473ffffffffffffffffffffffffffffffffffffffff16338361073d565b50565b6000600160149054906101000a900460ff1660ff1614151561053657600080fd5b610564600160009054906101000a900473ffffffffffffffffffffffffffffffffffffffff1633848461074d565b5050565b6000600160149054906101000a900460ff1660ff1614151561058957600080fd5b6105b5600160009054906101000a900473ffffffffffffffffffffffffffffffffffffffff168261075f565b50565b6000809054906101000a900473ffffffffffffffffffffffffffffffffffffffff1673ffffffffffffffffffffffffffffffffffffffff163373ffffffffffffffffffffffffffffffffffffffff1614151561061357600080fd5b600073ffffffffffffffffffffffffffffffffffffffff168173ffffffffffffffffffffffffffffffffffffffff161415151561064f57600080fd5b8073ffffffffffffffffffffffffffffffffffffffff166000809054906101000a900473ffffffffffffffffffffffffffffffffffffffff1673ffffffffffffffffffffffffffffffffffffffff167f8be0079c531659141344cd1fd0a4f28419497f9722a3daafe3b4186f6b6457e060405160405180910390a3806000806101000a81548173ffffffffffffffffffffffffffffffffffffffff021916908373ffffffffffffffffffffffffffffffffffffffff16021790555050565b61071b86868686868661076d565b505050505050565b6107338888888888888888610967565b5050505050505050565b610748838383610ac2565b505050565b61075984848484610d8f565b50505050565b610769828261116a565b5050565b8473ffffffffffffffffffffffffffffffffffffffff168673ffffffffffffffffffffffffffffffffffffffff16634c77e5ba8560405180807f7363616e2d726571756573742f64656e7469737400000000000000000000000081525060140182815260200191505060405180910390206000604051602001526040518263ffffffff167c0100000000000000000000000000000000000000000000000000000000028152600401808260001916600019168152602001915050602060405180830381600087803b151561084057600080fd5b6102c65a03f1151561085157600080fd5b5050506040518051905073ffffffffffffffffffffffffffffffffffffffff1614151561087d57600080fd5b61088b868686868686611329565b8573ffffffffffffffffffffffffffffffffffffffff16633eba9ed28460405180807f7363616e2d726571756573742f69732d61636365707465643f00000000000000815250601901828152602001915050604051809103902060016040518363ffffffff167c01000000000000000000000000000000000000000000000000000000000281526004018083600019166000191681526020018215151515815260200192505050600060405180830381600087803b151561094b57600080fd5b6102c65a03f1151561095c57600080fd5b505050505050505050565b60006109a8896040805190810160405280601381526020017f7363616e2d72657175657374732d636f756e7400000000000000000000000000815250611c1d565b905060008973ffffffffffffffffffffffffffffffffffffffff16637a0e03ec8360405180807f7363616e2d726571756573742f7374617475730000000000000000000000000081525060130182815260200191505060405180910390206000604051602001526040518263ffffffff167c0100000000000000000000000000000000000000000000000000000000028152600401808260001916600019168152602001915050602060405180830381600087803b1515610a6857600080fd5b6102c65a03f11515610a7957600080fd5b5050506040518051905060ff16141515610a9257600080fd5b610a9d898783611d23565b610aac89888388888888612086565b610ab789898361263d565b505050505050505050565b60018373ffffffffffffffffffffffffffffffffffffffff16637a0e03ec8360405180807f7363616e2d726571756573742f7374617475730000000000000000000000000081525060130182815260200191505060405180910390206000604051602001526040518263ffffffff167c0100000000000000000000000000000000000000000000000000000000028152600401808260001916600019168152602001915050602060405180830381600087803b1515610b8057600080fd5b6102c65a03f11515610b9157600080fd5b5050506040518051905060ff16148015610cac57508173ffffffffffffffffffffffffffffffffffffffff168373ffffffffffffffffffffffffffffffffffffffff16634c77e5ba8360405180807f7363616e2d726571756573742f70617469656e7400000000000000000000000081525060140182815260200191505060405180910390206000604051602001526040518263ffffffff167c0100000000000000000000000000000000000000000000000000000000028152600401808260001916600019168152602001915050602060405180830381600087803b1515610c7957600080fd5b6102c65a03f11515610c8a57600080fd5b5050506040518051905073ffffffffffffffffffffffffffffffffffffffff16145b1515610cb757600080fd5b8273ffffffffffffffffffffffffffffffffffffffff16630bd851588260405180807f7363616e2d726571756573742f73746174757300000000000000000000000000815250601301828152602001915050604051809103902060036040518363ffffffff167c01000000000000000000000000000000000000000000000000000000000281526004018083600019166000191681526020018260ff16815260200192505050600060405180830381600087803b1515610d7657600080fd5b6102c65a03f11515610d8757600080fd5b505050505050565b60018473ffffffffffffffffffffffffffffffffffffffff16637a0e03ec8360405180807f7363616e2d726571756573742f7374617475730000000000000000000000000081525060130182815260200191505060405180910390206000604051602001526040518263ffffffff167c0100000000000000000000000000000000000000000000000000000000028152600401808260001916600019168152602001915050602060405180830381600087803b1515610e4d57600080fd5b6102c65a03f11515610e5e57600080fd5b5050506040518051905060ff16148015610f7957508273ffffffffffffffffffffffffffffffffffffffff168473ffffffffffffffffffffffffffffffffffffffff16634c77e5ba8360405180807f7363616e2d726571756573742f64656e7469737400000000000000000000000081525060140182815260200191505060405180910390206000604051602001526040518263ffffffff167c0100000000000000000000000000000000000000000000000000000000028152600401808260001916600019168152602001915050602060405180830381600087803b1515610f4657600080fd5b6102c65a03f11515610f5757600080fd5b5050506040518051905073ffffffffffffffffffffffffffffffffffffffff16145b801561108657508173ffffffffffffffffffffffffffffffffffffffff168473ffffffffffffffffffffffffffffffffffffffff16634c77e5ba8360405180807f7363616e2d726571756573742f70617469656e7400000000000000000000000081525060140182815260200191505060405180910390206000604051602001526040518263ffffffff167c0100000000000000000000000000000000000000000000000000000000028152600401808260001916600019168152602001915050602060405180830381600087803b151561105357600080fd5b6102c65a03f1151561106457600080fd5b5050506040518051905073ffffffffffffffffffffffffffffffffffffffff16145b151561109157600080fd5b8373ffffffffffffffffffffffffffffffffffffffff16630bd851588260405180807f7363616e2d726571756573742f73746174757300000000000000000000000000815250601301828152602001915050604051809103902060056040518363ffffffff167c01000000000000000000000000000000000000000000000000000000000281526004018083600019166000191681526020018260ff16815260200192505050600060405180830381600087803b151561115057600080fd5b6102c65a03f1151561116157600080fd5b50505050505050565b60018273ffffffffffffffffffffffffffffffffffffffff16637a0e03ec8360405180807f7363616e2d726571756573742f7374617475730000000000000000000000000081525060130182815260200191505060405180910390206000604051602001526040518263ffffffff167c0100000000000000000000000000000000000000000000000000000000028152600401808260001916600019168152602001915050602060405180830381600087803b151561122857600080fd5b6102c65a03f1151561123957600080fd5b5050506040518051905060ff1614151561125257600080fd5b8173ffffffffffffffffffffffffffffffffffffffff16630bd851588260405180807f7363616e2d726571756573742f73746174757300000000000000000000000000815250601301828152602001915050604051809103902060026040518363ffffffff167c01000000000000000000000000000000000000000000000000000000000281526004018083600019166000191681526020018260ff16815260200192505050600060405180830381600087803b151561131157600080fd5b6102c65a03f1151561132257600080fd5b5050505050565b60008060008061136e8a6040805190810160405280601781526020017f7363616e2d6170706c69636174696f6e732d636f756e74000000000000000000815250611c1d565b935060008a73ffffffffffffffffffffffffffffffffffffffff16637a0e03ec8660405180807f7363616e2d6170706c69636174696f6e2f73746174757300000000000000000081525060170182815260200191505060405180910390206000604051602001526040518263ffffffff167c0100000000000000000000000000000000000000000000000000000000028152600401808260001916600019168152602001915050602060405180830381600087803b151561142e57600080fd5b6102c65a03f1151561143f57600080fd5b5050506040518051905060ff16148015611532575060018a73ffffffffffffffffffffffffffffffffffffffff16637a0e03ec8960405180807f7363616e2d726571756573742f7374617475730000000000000000000000000081525060130182815260200191505060405180910390206000604051602001526040518263ffffffff167c0100000000000000000000000000000000000000000000000000000000028152600401808260001916600019168152602001915050602060405180830381600087803b151561151257600080fd5b6102c65a03f1151561152357600080fd5b5050506040518051905060ff16145b801561163f57508773ffffffffffffffffffffffffffffffffffffffff168a73ffffffffffffffffffffffffffffffffffffffff16634c77e5ba8960405180807f7363616e2d726571756573742f70617469656e7400000000000000000000000081525060140182815260200191505060405180910390206000604051602001526040518263ffffffff167c0100000000000000000000000000000000000000000000000000000000028152600401808260001916600019168152602001915050602060405180830381600087803b151561160c57600080fd5b6102c65a03f1151561161d57600080fd5b5050506040518051905073ffffffffffffffffffffffffffffffffffffffff16145b151561164a57600080fd5b600092505b83831015611bf7578973ffffffffffffffffffffffffffffffffffffffff1663bdc963d88a8560405180807f64656e746973742f7363616e2d6170706c69636174696f6e00000000000000008152506018018373ffffffffffffffffffffffffffffffffffffffff1673ffffffffffffffffffffffffffffffffffffffff166c010000000000000000000000000281526014018281526020019250505060405180910390206000604051602001526040518263ffffffff167c0100000000000000000000000000000000000000000000000000000000028152600401808260001916600019168152602001915050602060405180830381600087803b151561175657600080fd5b6102c65a03f1151561176757600080fd5b5050506040518051905091508973ffffffffffffffffffffffffffffffffffffffff1663bdc963d88360405180807f7363616e2d6170706c69636174696f6e2f7363616e2d72657175657374000000815250601d0182815260200191505060405180910390206000604051602001526040518263ffffffff167c0100000000000000000000000000000000000000000000000000000000028152600401808260001916600019168152602001915050602060405180830381600087803b151561182f57600080fd5b6102c65a03f1151561184057600080fd5b5050506040518051905090508681148015611be0575060018a73ffffffffffffffffffffffffffffffffffffffff16637a0e03ec8460405180807f7363616e2d6170706c69636174696f6e2f73746174757300000000000000000081525060170182815260200191505060405180910390206000604051602001526040518263ffffffff167c0100000000000000000000000000000000000000000000000000000000028152600401808260001916600019168152602001915050602060405180830381600087803b151561191457600080fd5b6102c65a03f1151561192557600080fd5b5050506040518051905060ff161480611a17575060028a73ffffffffffffffffffffffffffffffffffffffff16637a0e03ec8460405180807f7363616e2d6170706c69636174696f6e2f73746174757300000000000000000081525060170182815260200191505060405180910390206000604051602001526040518263ffffffff167c0100000000000000000000000000000000000000000000000000000000028152600401808260001916600019168152602001915050602060405180830381600087803b15156119f757600080fd5b6102c65a03f11515611a0857600080fd5b5050506040518051905060ff16145b80611afb575060048a73ffffffffffffffffffffffffffffffffffffffff16637a0e03ec8460405180807f7363616e2d6170706c69636174696f6e2f73746174757300000000000000000081525060170182815260200191505060405180910390206000604051602001526040518263ffffffff167c0100000000000000000000000000000000000000000000000000000000028152600401808260001916600019168152602001915050602060405180830381600087803b1515611adb57600080fd5b6102c65a03f11515611aec57600080fd5b5050506040518051905060ff16145b80611bdf575060058a73ffffffffffffffffffffffffffffffffffffffff16637a0e03ec8460405180807f7363616e2d6170706c69636174696f6e2f73746174757300000000000000000081525060170182815260200191505060405180910390206000604051602001526040518263ffffffff167c0100000000000000000000000000000000000000000000000000000000028152600401808260001916600019168152602001915050602060405180830381600087803b1515611bbf57600080fd5b6102c65a03f11515611bd057600080fd5b5050506040518051905060ff16145b5b15611bea57611c11565b828060010193505061164f565b611c028a8886612981565b611c108a8a8a878a8a612d0b565b5b50505050505050505050565b60008273ffffffffffffffffffffffffffffffffffffffff1663bdc963d8836040518082805190602001908083835b602083101515611c715780518252602082019150602081019050602083039250611c4c565b6001836020036101000a03801982511681845116808217855250505050505090500191505060405180910390206000604051602001526040518263ffffffff167c0100000000000000000000000000000000000000000000000000000000028152600401808260001916600019168152602001915050602060405180830381600087803b1515611d0057600080fd5b6102c65a03f11515611d1157600080fd5b50505060405180519050905092915050565b8273ffffffffffffffffffffffffffffffffffffffff16630bd851588260405180807f7363616e2d726571756573742f73746174757300000000000000000000000000815250601301828152602001915050604051809103902060016040518363ffffffff167c01000000000000000000000000000000000000000000000000000000000281526004018083600019166000191681526020018260ff16815260200192505050600060405180830381600087803b1515611de257600080fd5b6102c65a03f11515611df357600080fd5b5050508273ffffffffffffffffffffffffffffffffffffffff16633562fd208260405180807f7363616e2d726571756573742f637265617465642d6f6e0000000000000000008152506017018281526020019150506040518091039020426040518363ffffffff167c010000000000000000000000000000000000000000000000000000000002815260040180836000191660001916815260200182815260200192505050600060405180830381600087803b1515611eb157600080fd5b6102c65a03f11515611ec257600080fd5b5050508273ffffffffffffffffffffffffffffffffffffffff16633562fd208260405180807f7363616e2d726571756573742f7363616e2d73657276696365000000000000008152506019018281526020019150506040518091039020846040518363ffffffff167c010000000000000000000000000000000000000000000000000000000002815260040180836000191660001916815260200182815260200192505050600060405180830381600087803b1515611f8057600080fd5b6102c65a03f11515611f9157600080fd5b50505061200a836040805190810160405280600c81526020017f7363616e2d7265717565737400000000000000000000000000000000000000008152506040805190810160405280601381526020017f7363616e2d72657175657374732d636f756e7400000000000000000000000000815250846131fa565b61208183836040805190810160405280601981526020017f7363616e2d736572766963652f7363616e2d72657175657374000000000000008152506040805190810160405280602081526020017f7363616e2d736572766963652f7363616e2d72657175657374732d636f756e74815250856134f4565b505050565b6120fd87876040805190810160405280601481526020017f70617469656e742f7363616e2d726571756573740000000000000000000000008152506040805190810160405280601b81526020017f70617469656e742f7363616e2d72657175657374732d636f756e7400000000008152508961370e565b8673ffffffffffffffffffffffffffffffffffffffff16635a2bf25a8660405180807f7363616e2d726571756573742f70617469656e740000000000000000000000008152506014018281526020019150506040518091039020886040518363ffffffff167c01000000000000000000000000000000000000000000000000000000000281526004018083600019166000191681526020018273ffffffffffffffffffffffffffffffffffffffff1673ffffffffffffffffffffffffffffffffffffffff16815260200192505050600060405180830381600087803b15156121e457600080fd5b6102c65a03f115156121f557600080fd5b5050508673ffffffffffffffffffffffffffffffffffffffff166325cf512d8660405180807f7363616e2d726571756573742f6170706f696e746d656e742d64617465000000815250601d018281526020019150506040518091039020866040518363ffffffff167c0100000000000000000000000000000000000000000000000000000000028152600401808360001916600019168152602001826000191660001916815260200192505050600060405180830381600087803b15156122bb57600080fd5b6102c65a03f115156122cc57600080fd5b5050508673ffffffffffffffffffffffffffffffffffffffff166325cf512d8660405180807f7363616e2d726571756573742f6170706f696e746d656e742d74696d65000000815250601d018281526020019150506040518091039020856040518363ffffffff167c0100000000000000000000000000000000000000000000000000000000028152600401808360001916600019168152602001826000191660001916815260200192505050600060405180830381600087803b151561239257600080fd5b6102c65a03f115156123a357600080fd5b5050508673ffffffffffffffffffffffffffffffffffffffff1663f58660668660405180807f7363616e2d726571756573742f6170706f696e746d656e742d696e737572616e81526020017f63650000000000000000000000000000000000000000000000000000000000008152506022018281526020019150506040518091039020846040518363ffffffff167c010000000000000000000000000000000000000000000000000000000002815260040180836000191660001916815260200180602001828103825283818151815260200191508051906020019080838360005b838110156124a0578082015181840152602081019050612485565b50505050905090810190601f1680156124cd5780820380516001836020036101000a031916815260200191505b509350505050600060405180830381600087803b15156124ec57600080fd5b6102c65a03f115156124fd57600080fd5b5050508673ffffffffffffffffffffffffffffffffffffffff1663f58660668660405180807f7363616e2d726571756573742f6170706f696e746d656e742d636f6d6d656e748152506020018281526020019150506040518091039020836040518363ffffffff167c010000000000000000000000000000000000000000000000000000000002815260040180836000191660001916815260200180602001828103825283818151815260200191508051906020019080838360005b838110156125d45780820151818401526020810190506125b9565b50505050905090810190601f1680156126015780820380516001836020036101000a031916815260200191505b509350505050600060405180830381600087803b151561262057600080fd5b6102c65a03f1151561263157600080fd5b50505050505050505050565b60008273ffffffffffffffffffffffffffffffffffffffff161415612735578273ffffffffffffffffffffffffffffffffffffffff16633eba9ed28260405180807f7363616e2d726571756573742f69732d67656e6572616c3f0000000000000000815250601801828152602001915050604051809103902060016040518363ffffffff167c01000000000000000000000000000000000000000000000000000000000281526004018083600019166000191681526020018215151515815260200192505050600060405180830381600087803b151561271c57600080fd5b6102c65a03f1151561272d57600080fd5b50505061297c565b8273ffffffffffffffffffffffffffffffffffffffff16633eba9ed28260405180807f7363616e2d726571756573742f69732d67656e6572616c3f0000000000000000815250601801828152602001915050604051809103902060006040518363ffffffff167c01000000000000000000000000000000000000000000000000000000000281526004018083600019166000191681526020018215151515815260200192505050600060405180830381600087803b15156127f557600080fd5b6102c65a03f1151561280657600080fd5b5050508273ffffffffffffffffffffffffffffffffffffffff16635a2bf25a8260405180807f7363616e2d726571756573742f64656e746973740000000000000000000000008152506014018281526020019150506040518091039020846040518363ffffffff167c01000000000000000000000000000000000000000000000000000000000281526004018083600019166000191681526020018273ffffffffffffffffffffffffffffffffffffffff1673ffffffffffffffffffffffffffffffffffffffff16815260200192505050600060405180830381600087803b15156128f057600080fd5b6102c65a03f1151561290157600080fd5b50505061297b83836040805190810160405280601481526020017f64656e746973742f7363616e2d726571756573740000000000000000000000008152506040805190810160405280601b81526020017f64656e746973742f7363616e2d72657175657374732d636f756e7400000000008152508561370e565b5b505050565b8273ffffffffffffffffffffffffffffffffffffffff16630bd851588260405180807f7363616e2d6170706c69636174696f6e2f737461747573000000000000000000815250601701828152602001915050604051809103902060016040518363ffffffff167c01000000000000000000000000000000000000000000000000000000000281526004018083600019166000191681526020018260ff16815260200192505050600060405180830381600087803b1515612a4057600080fd5b6102c65a03f11515612a5157600080fd5b5050508273ffffffffffffffffffffffffffffffffffffffff16633562fd208260405180807f7363616e2d6170706c69636174696f6e2f637265617465642d6f6e0000000000815250601b018281526020019150506040518091039020426040518363ffffffff167c010000000000000000000000000000000000000000000000000000000002815260040180836000191660001916815260200182815260200192505050600060405180830381600087803b1515612b0f57600080fd5b6102c65a03f11515612b2057600080fd5b5050508273ffffffffffffffffffffffffffffffffffffffff16633562fd208260405180807f7363616e2d6170706c69636174696f6e2f7363616e2d72657175657374000000815250601d018281526020019150506040518091039020846040518363ffffffff167c010000000000000000000000000000000000000000000000000000000002815260040180836000191660001916815260200182815260200192505050600060405180830381600087803b1515612bde57600080fd5b6102c65a03f11515612bef57600080fd5b505050612c68836040805190810160405280601081526020017f7363616e2d6170706c69636174696f6e000000000000000000000000000000008152506040805190810160405280601781526020017f7363616e2d6170706c69636174696f6e732d636f756e74000000000000000000815250846131fa565b612d0683836040805190810160405280601d81526020017f7363616e2d726571756573742f7363616e2d6170706c69636174696f6e000000815250606060405190810160405280602481526020017f7363616e2d726571756573742f7363616e2d6170706c69636174696f6e732d6381526020017f6f756e7400000000000000000000000000000000000000000000000000000000815250856134f4565b505050565b8573ffffffffffffffffffffffffffffffffffffffff16633562fd208460405180807f7363616e2d6170706c69636174696f6e2f71756f7465000000000000000000008152506016018281526020019150506040518091039020846040518363ffffffff167c010000000000000000000000000000000000000000000000000000000002815260040180836000191660001916815260200182815260200192505050600060405180830381600087803b1515612dc657600080fd5b6102c65a03f11515612dd757600080fd5b5050508573ffffffffffffffffffffffffffffffffffffffff1663f58660668460405180807f7363616e2d6170706c69636174696f6e2f636f6d6d656e7400000000000000008152506018018281526020019150506040518091039020836040518363ffffffff167c010000000000000000000000000000000000000000000000000000000002815260040180836000191660001916815260200180602001828103825283818151815260200191508051906020019080838360005b83811015612eae578082015181840152602081019050612e93565b50505050905090810190601f168015612edb5780820380516001836020036101000a031916815260200191505b509350505050600060405180830381600087803b1515612efa57600080fd5b6102c65a03f11515612f0b57600080fd5b5050508573ffffffffffffffffffffffffffffffffffffffff16635a2bf25a8460405180807f7363616e2d6170706c69636174696f6e2f64656e7469737400000000000000008152506018018281526020019150506040518091039020876040518363ffffffff167c01000000000000000000000000000000000000000000000000000000000281526004018083600019166000191681526020018273ffffffffffffffffffffffffffffffffffffffff1673ffffffffffffffffffffffffffffffffffffffff16815260200192505050600060405180830381600087803b1515612ff557600080fd5b6102c65a03f1151561300657600080fd5b5050508573ffffffffffffffffffffffffffffffffffffffff16635a2bf25a8460405180807f7363616e2d6170706c69636174696f6e2f70617469656e7400000000000000008152506018018281526020019150506040518091039020866040518363ffffffff167c01000000000000000000000000000000000000000000000000000000000281526004018083600019166000191681526020018273ffffffffffffffffffffffffffffffffffffffff1673ffffffffffffffffffffffffffffffffffffffff16815260200192505050600060405180830381600087803b15156130f057600080fd5b6102c65a03f1151561310157600080fd5b50505061317b86866040805190810160405280601881526020017f64656e746973742f7363616e2d6170706c69636174696f6e00000000000000008152506040805190810160405280601f81526020017f64656e746973742f7363616e2d6170706c69636174696f6e732d636f756e74008152508761370e565b6131f286856040805190810160405280601881526020017f70617469656e742f7363616e2d6170706c69636174696f6e00000000000000008152506040805190810160405280601f81526020017f70617469656e742f7363616e2d6170706c69636174696f6e732d636f756e74008152508761370e565b505050505050565b60008473ffffffffffffffffffffffffffffffffffffffff1663bdc963d8846040518082805190602001908083835b60208310151561324e5780518252602082019150602081019050602083039250613229565b6001836020036101000a03801982511681845116808217855250505050505090500191505060405180910390206000604051602001526040518263ffffffff167c0100000000000000000000000000000000000000000000000000000000028152600401808260001916600019168152602001915050602060405180830381600087803b15156132dd57600080fd5b6102c65a03f115156132ee57600080fd5b5050506040518051905090508473ffffffffffffffffffffffffffffffffffffffff16633562fd2085836040518083805190602001908083835b60208310151561334d5780518252602082019150602081019050602083039250613328565b6001836020036101000a038019825116818451168082178552505050505050905001828152602001925050506040518091039020846040518363ffffffff167c010000000000000000000000000000000000000000000000000000000002815260040180836000191660001916815260200182815260200192505050600060405180830381600087803b15156133e257600080fd5b6102c65a03f115156133f357600080fd5b5050508473ffffffffffffffffffffffffffffffffffffffff16633562fd20846040518082805190602001908083835b6020831015156134485780518252602082019150602081019050602083039250613423565b6001836020036101000a0380198251168184511680821785525050505050509050019150506040518091039020600184016040518363ffffffff167c010000000000000000000000000000000000000000000000000000000002815260040180836000191660001916815260200182815260200192505050600060405180830381600087803b15156134d957600080fd5b6102c65a03f115156134ea57600080fd5b5050505050505050565b600061350186868561399e565b90508573ffffffffffffffffffffffffffffffffffffffff16633562fd208587846040518084805190602001908083835b6020831015156135575780518252602082019150602081019050602083039250613532565b6001836020036101000a03801982511681845116808217855250505050505090500183815260200182815260200193505050506040518091039020846040518363ffffffff167c010000000000000000000000000000000000000000000000000000000002815260040180836000191660001916815260200182815260200192505050600060405180830381600087803b15156135f357600080fd5b6102c65a03f1151561360457600080fd5b5050508573ffffffffffffffffffffffffffffffffffffffff16633562fd2084876040518083805190602001908083835b60208310151561365a5780518252602082019150602081019050602083039250613635565b6001836020036101000a038019825116818451168082178552505050505050905001828152602001925050506040518091039020600184016040518363ffffffff167c010000000000000000000000000000000000000000000000000000000002815260040180836000191660001916815260200182815260200192505050600060405180830381600087803b15156136f257600080fd5b6102c65a03f1151561370357600080fd5b505050505050505050565b600061371b868685613aad565b90508573ffffffffffffffffffffffffffffffffffffffff16633562fd208587846040518084805190602001908083835b602083101515613771578051825260208201915060208101905060208303925061374c565b6001836020036101000a0380198251168184511680821785525050505050509050018373ffffffffffffffffffffffffffffffffffffffff1673ffffffffffffffffffffffffffffffffffffffff166c0100000000000000000000000002815260140182815260200193505050506040518091039020846040518363ffffffff167c010000000000000000000000000000000000000000000000000000000002815260040180836000191660001916815260200182815260200192505050600060405180830381600087803b151561384857600080fd5b6102c65a03f1151561385957600080fd5b5050508573ffffffffffffffffffffffffffffffffffffffff16633562fd2084876040518083805190602001908083835b6020831015156138af578051825260208201915060208101905060208303925061388a565b6001836020036101000a0380198251168184511680821785525050505050509050018273ffffffffffffffffffffffffffffffffffffffff1673ffffffffffffffffffffffffffffffffffffffff166c01000000000000000000000000028152601401925050506040518091039020600184016040518363ffffffff167c010000000000000000000000000000000000000000000000000000000002815260040180836000191660001916815260200182815260200192505050600060405180830381600087803b151561398257600080fd5b6102c65a03f1151561399357600080fd5b505050505050505050565b60008373ffffffffffffffffffffffffffffffffffffffff1663bdc963d883856040518083805190602001908083835b6020831015156139f357805182526020820191506020810190506020830392506139ce565b6001836020036101000a0380198251168184511680821785525050505050509050018281526020019250505060405180910390206000604051602001526040518263ffffffff167c0100000000000000000000000000000000000000000000000000000000028152600401808260001916600019168152602001915050602060405180830381600087803b1515613a8957600080fd5b6102c65a03f11515613a9a57600080fd5b5050506040518051905090509392505050565b60008373ffffffffffffffffffffffffffffffffffffffff1663bdc963d883856040518083805190602001908083835b602083101515613b025780518252602082019150602081019050602083039250613add565b6001836020036101000a0380198251168184511680821785525050505050509050018273ffffffffffffffffffffffffffffffffffffffff1673ffffffffffffffffffffffffffffffffffffffff166c010000000000000000000000000281526014019250505060405180910390206000604051602001526040518263ffffffff167c0100000000000000000000000000000000000000000000000000000000028152600401808260001916600019168152602001915050602060405180830381600087803b1515613bd357600080fd5b6102c65a03f11515613be457600080fd5b50505060405180519050905093925050505600a165627a7a7230582020e1b1daa3323177c1e2a7cce6f02885049dcad01233b2b34926fcab4065bd520029",
  "source": "pragma solidity 0.4.18;\nimport \"./Restrictor.sol\";\nimport \"../lib/odll/userManager.sol\";\n\ncontract ScanRequestWriter is Restrictor {\n  function ScanRequestWriter(address _dbAddress) public {\n    require(_dbAddress != 0x0);\n    dbAddress = _dbAddress;\n  }\n\n  // Scan Request\n  function writeScanRequest (\n    address dentistId,\n    uint scanAppointmentId,\n    bytes32 appointmentDate,\n    bytes32 scanTime,\n    string scanInsurance,\n    string comment\n  )\n    external\n    onlyPermittedSmartContract\n  {\n    userManager.writeScanRequest(dbAddress, dentistId, msg.sender, scanAppointmentId, appointmentDate, scanTime, scanInsurance, comment);\n  }\n\n  function cancelScanRequest (\n    uint scanRequestId\n  )\n    external\n    onlyPermittedSmartContract\n  {\n    userManager.cancelScanRequest(dbAddress, msg.sender, scanRequestId);\n  }\n\n  function expireScanRequest (\n    uint scanRequestId\n  )\n    external\n    onlyPermittedSmartContract\n  {\n    userManager.expireScanRequest(dbAddress, scanRequestId);\n  }\n\n  function acceptScanRequest (\n    address patientId,\n    uint scanRequestId,\n    uint quote,\n    string comment\n  )\n    external\n    onlyPermittedSmartContract\n  {\n    userManager.acceptScanRequest(dbAddress, msg.sender, patientId, scanRequestId, quote, comment);\n  }\n\n  function rejectScanRequest (\n    address patientId,\n    uint scanRequestId\n  )\n    external\n    onlyPermittedSmartContract\n  {\n    userManager.rejectScanRequest(dbAddress, msg.sender, patientId, scanRequestId);\n  }\n}\n",
  "sourcePath": "/Users/danielokwufulueze/dev/vue/apps/oraldatalink/contracts/odll/ScanRequestWriter.sol",
  "compiler": {
    "name": "solc",
    "version": "0.4.18+commit.9cf6e910.Emscripten.clang"
  },
  "schemaVersion": "1.0.1",
  "updatedAt": "2017-11-18T09:15:30.402Z"
}