{
  "contractName": "ScanRequestWriter",
  "abi": [
    {
      "constant": false,
      "inputs": [
        {
          "name": "patientId",
          "type": "address"
        },
        {
          "name": "scanRequestId",
          "type": "uint256"
        },
        {
          "name": "quote",
          "type": "uint256"
        },
        {
          "name": "comment",
          "type": "string"
        }
      ],
      "name": "acceptScanRequest",
      "outputs": [],
      "payable": false,
      "stateMutability": "nonpayable",
      "type": "function"
    },
    {
      "constant": true,
      "inputs": [],
      "name": "smartContractStatus",
      "outputs": [
        {
          "name": "",
          "type": "uint8"
        }
      ],
      "payable": false,
      "stateMutability": "view",
      "type": "function"
    },
    {
      "constant": false,
      "inputs": [
        {
          "name": "dentistId",
          "type": "address"
        },
        {
          "name": "scanAppointmentId",
          "type": "uint256"
        },
        {
          "name": "appointmentDate",
          "type": "bytes32"
        },
        {
          "name": "scanTime",
          "type": "bytes32"
        },
        {
          "name": "scanInsurance",
          "type": "string"
        },
        {
          "name": "comment",
          "type": "string"
        }
      ],
      "name": "writeScanRequest",
      "outputs": [],
      "payable": false,
      "stateMutability": "nonpayable",
      "type": "function"
    },
    {
      "constant": true,
      "inputs": [],
      "name": "owner",
      "outputs": [
        {
          "name": "",
          "type": "address"
        }
      ],
      "payable": false,
      "stateMutability": "view",
      "type": "function"
    },
    {
      "constant": true,
      "inputs": [],
      "name": "dbAddress",
      "outputs": [
        {
          "name": "",
          "type": "address"
        }
      ],
      "payable": false,
      "stateMutability": "view",
      "type": "function"
    },
    {
      "constant": false,
      "inputs": [
        {
          "name": "scanRequestId",
          "type": "uint256"
        }
      ],
      "name": "cancelScanRequest",
      "outputs": [],
      "payable": false,
      "stateMutability": "nonpayable",
      "type": "function"
    },
    {
      "constant": false,
      "inputs": [
        {
          "name": "patientId",
          "type": "address"
        },
        {
          "name": "scanRequestId",
          "type": "uint256"
        }
      ],
      "name": "rejectScanRequest",
      "outputs": [],
      "payable": false,
      "stateMutability": "nonpayable",
      "type": "function"
    },
    {
      "constant": false,
      "inputs": [
        {
          "name": "scanRequestId",
          "type": "uint256"
        }
      ],
      "name": "expireScanRequest",
      "outputs": [],
      "payable": false,
      "stateMutability": "nonpayable",
      "type": "function"
    },
    {
      "constant": false,
      "inputs": [
        {
          "name": "newOwner",
          "type": "address"
        }
      ],
      "name": "transferOwnership",
      "outputs": [],
      "payable": false,
      "stateMutability": "nonpayable",
      "type": "function"
    },
    {
      "inputs": [
        {
          "name": "_dbAddress",
          "type": "address"
        }
      ],
      "payable": false,
      "stateMutability": "nonpayable",
      "type": "constructor"
    },
    {
      "anonymous": false,
      "inputs": [
        {
          "indexed": false,
          "name": "status",
          "type": "uint8"
        }
      ],
      "name": "OnSmartContractStatusSet",
      "type": "event"
    },
    {
      "anonymous": false,
      "inputs": [
        {
          "indexed": true,
          "name": "previousOwner",
          "type": "address"
        },
        {
          "indexed": true,
          "name": "newOwner",
          "type": "address"
        }
      ],
      "name": "OwnershipTransferred",
      "type": "event"
    }
  ],
  "bytecode": "0x6060604052341561000f57600080fd5b604051602080613fc983398101604052808051906020019091905050336000806101000a81548173ffffffffffffffffffffffffffffffffffffffff021916908373ffffffffffffffffffffffffffffffffffffffff16021790555060008173ffffffffffffffffffffffffffffffffffffffff161415151561009157600080fd5b80600160006101000a81548173ffffffffffffffffffffffffffffffffffffffff021916908373ffffffffffffffffffffffffffffffffffffffff16021790555050613ee7806100e26000396000f300606060405260043610610099576000357c0100000000000000000000000000000000000000000000000000000000900463ffffffff1680633bb27e1d1461009e5780634c8ddddc146100fd5780636e4ef5571461012c5780638da5cb5b146101b057806391e06b6d146102055780639878585d1461025a578063bcd1269b1461027d578063d05aa652146102bf578063f2fde38b146102e2575b600080fd5b34156100a957600080fd5b6100fb600480803573ffffffffffffffffffffffffffffffffffffffff16906020019091908035906020019091908035906020019091908035906020019082018035906020019190919290505061031b565b005b341561010857600080fd5b6101106103a5565b604051808260ff1660ff16815260200191505060405180910390f35b341561013757600080fd5b6101ae600480803573ffffffffffffffffffffffffffffffffffffffff169060200190919080359060200190919080356000191690602001909190803560001916906020019091908035906020019082018035906020019190919290803590602001908201803590602001919091929050506103b8565b005b34156101bb57600080fd5b6101c3610479565b604051808273ffffffffffffffffffffffffffffffffffffffff1673ffffffffffffffffffffffffffffffffffffffff16815260200191505060405180910390f35b341561021057600080fd5b61021861049e565b604051808273ffffffffffffffffffffffffffffffffffffffff1673ffffffffffffffffffffffffffffffffffffffff16815260200191505060405180910390f35b341561026557600080fd5b61027b60048080359060200190919050506104c4565b005b341561028857600080fd5b6102bd600480803573ffffffffffffffffffffffffffffffffffffffff16906020019091908035906020019091905050610515565b005b34156102ca57600080fd5b6102e06004808035906020019091905050610568565b005b34156102ed57600080fd5b610319600480803573ffffffffffffffffffffffffffffffffffffffff169060200190919050506105b8565b005b6000600160149054906101000a900460ff1660ff1614151561033c57600080fd5b61039e600160009054906101000a900473ffffffffffffffffffffffffffffffffffffffff163387878787878080601f01602080910402602001604051908101604052809392919081815260200183838082843782019150505050505061070d565b5050505050565b600160149054906101000a900460ff1681565b6000600160149054906101000a900460ff1660ff161415156103d957600080fd5b61046f600160009054906101000a900473ffffffffffffffffffffffffffffffffffffffff1689338a8a8a8a8a8080601f01602080910402602001604051908101604052809392919081815260200183838082843782019150505050505089898080601f016020809104026020016040519081016040528093929190818152602001838380828437820191505050505050610723565b5050505050505050565b6000809054906101000a900473ffffffffffffffffffffffffffffffffffffffff1681565b600160009054906101000a900473ffffffffffffffffffffffffffffffffffffffff1681565b6000600160149054906101000a900460ff1660ff161415156104e557600080fd5b610512600160009054906101000a900473ffffffffffffffffffffffffffffffffffffffff16338361073d565b50565b6000600160149054906101000a900460ff1660ff1614151561053657600080fd5b610564600160009054906101000a900473ffffffffffffffffffffffffffffffffffffffff1633848461074d565b5050565b6000600160149054906101000a900460ff1660ff1614151561058957600080fd5b6105b5600160009054906101000a900473ffffffffffffffffffffffffffffffffffffffff168261075f565b50565b6000809054906101000a900473ffffffffffffffffffffffffffffffffffffffff1673ffffffffffffffffffffffffffffffffffffffff163373ffffffffffffffffffffffffffffffffffffffff1614151561061357600080fd5b600073ffffffffffffffffffffffffffffffffffffffff168173ffffffffffffffffffffffffffffffffffffffff161415151561064f57600080fd5b8073ffffffffffffffffffffffffffffffffffffffff166000809054906101000a900473ffffffffffffffffffffffffffffffffffffffff1673ffffffffffffffffffffffffffffffffffffffff167f8be0079c531659141344cd1fd0a4f28419497f9722a3daafe3b4186f6b6457e060405160405180910390a3806000806101000a81548173ffffffffffffffffffffffffffffffffffffffff021916908373ffffffffffffffffffffffffffffffffffffffff16021790555050565b61071b86868686868661076d565b505050505050565b6107338888888888888888610967565b5050505050505050565b610748838383610ac2565b505050565b61075984848484610d8f565b50505050565b610769828261116a565b5050565b8473ffffffffffffffffffffffffffffffffffffffff168673ffffffffffffffffffffffffffffffffffffffff16634c77e5ba8560405180807f7363616e2d726571756573742f64656e7469737400000000000000000000000081525060140182815260200191505060405180910390206000604051602001526040518263ffffffff167c0100000000000000000000000000000000000000000000000000000000028152600401808260001916600019168152602001915050602060405180830381600087803b151561084057600080fd5b6102c65a03f1151561085157600080fd5b5050506040518051905073ffffffffffffffffffffffffffffffffffffffff1614151561087d57600080fd5b61088b868686868686611329565b8573ffffffffffffffffffffffffffffffffffffffff16633eba9ed28460405180807f7363616e2d726571756573742f69732d61636365707465643f00000000000000815250601901828152602001915050604051809103902060016040518363ffffffff167c01000000000000000000000000000000000000000000000000000000000281526004018083600019166000191681526020018215151515815260200192505050600060405180830381600087803b151561094b57600080fd5b6102c65a03f1151561095c57600080fd5b505050505050505050565b60006109a8896040805190810160405280601381526020017f7363616e2d72657175657374732d636f756e7400000000000000000000000000815250611e11565b905060008973ffffffffffffffffffffffffffffffffffffffff16637a0e03ec8360405180807f7363616e2d726571756573742f7374617475730000000000000000000000000081525060130182815260200191505060405180910390206000604051602001526040518263ffffffff167c0100000000000000000000000000000000000000000000000000000000028152600401808260001916600019168152602001915050602060405180830381600087803b1515610a6857600080fd5b6102c65a03f11515610a7957600080fd5b5050506040518051905060ff16141515610a9257600080fd5b610a9d898783611f17565b610aac8988838888888861227a565b610ab7898983612831565b505050505050505050565b60018373ffffffffffffffffffffffffffffffffffffffff16637a0e03ec8360405180807f7363616e2d726571756573742f7374617475730000000000000000000000000081525060130182815260200191505060405180910390206000604051602001526040518263ffffffff167c0100000000000000000000000000000000000000000000000000000000028152600401808260001916600019168152602001915050602060405180830381600087803b1515610b8057600080fd5b6102c65a03f11515610b9157600080fd5b5050506040518051905060ff16148015610cac57508173ffffffffffffffffffffffffffffffffffffffff168373ffffffffffffffffffffffffffffffffffffffff16634c77e5ba8360405180807f7363616e2d726571756573742f70617469656e7400000000000000000000000081525060140182815260200191505060405180910390206000604051602001526040518263ffffffff167c0100000000000000000000000000000000000000000000000000000000028152600401808260001916600019168152602001915050602060405180830381600087803b1515610c7957600080fd5b6102c65a03f11515610c8a57600080fd5b5050506040518051905073ffffffffffffffffffffffffffffffffffffffff16145b1515610cb757600080fd5b8273ffffffffffffffffffffffffffffffffffffffff16630bd851588260405180807f7363616e2d726571756573742f73746174757300000000000000000000000000815250601301828152602001915050604051809103902060036040518363ffffffff167c01000000000000000000000000000000000000000000000000000000000281526004018083600019166000191681526020018260ff16815260200192505050600060405180830381600087803b1515610d7657600080fd5b6102c65a03f11515610d8757600080fd5b505050505050565b60018473ffffffffffffffffffffffffffffffffffffffff16637a0e03ec8360405180807f7363616e2d726571756573742f7374617475730000000000000000000000000081525060130182815260200191505060405180910390206000604051602001526040518263ffffffff167c0100000000000000000000000000000000000000000000000000000000028152600401808260001916600019168152602001915050602060405180830381600087803b1515610e4d57600080fd5b6102c65a03f11515610e5e57600080fd5b5050506040518051905060ff16148015610f7957508273ffffffffffffffffffffffffffffffffffffffff168473ffffffffffffffffffffffffffffffffffffffff16634c77e5ba8360405180807f7363616e2d726571756573742f64656e7469737400000000000000000000000081525060140182815260200191505060405180910390206000604051602001526040518263ffffffff167c0100000000000000000000000000000000000000000000000000000000028152600401808260001916600019168152602001915050602060405180830381600087803b1515610f4657600080fd5b6102c65a03f11515610f5757600080fd5b5050506040518051905073ffffffffffffffffffffffffffffffffffffffff16145b801561108657508173ffffffffffffffffffffffffffffffffffffffff168473ffffffffffffffffffffffffffffffffffffffff16634c77e5ba8360405180807f7363616e2d726571756573742f70617469656e7400000000000000000000000081525060140182815260200191505060405180910390206000604051602001526040518263ffffffff167c0100000000000000000000000000000000000000000000000000000000028152600401808260001916600019168152602001915050602060405180830381600087803b151561105357600080fd5b6102c65a03f1151561106457600080fd5b5050506040518051905073ffffffffffffffffffffffffffffffffffffffff16145b151561109157600080fd5b8373ffffffffffffffffffffffffffffffffffffffff16630bd851588260405180807f7363616e2d726571756573742f73746174757300000000000000000000000000815250601301828152602001915050604051809103902060056040518363ffffffff167c01000000000000000000000000000000000000000000000000000000000281526004018083600019166000191681526020018260ff16815260200192505050600060405180830381600087803b151561115057600080fd5b6102c65a03f1151561116157600080fd5b50505050505050565b60018273ffffffffffffffffffffffffffffffffffffffff16637a0e03ec8360405180807f7363616e2d726571756573742f7374617475730000000000000000000000000081525060130182815260200191505060405180910390206000604051602001526040518263ffffffff167c0100000000000000000000000000000000000000000000000000000000028152600401808260001916600019168152602001915050602060405180830381600087803b151561122857600080fd5b6102c65a03f1151561123957600080fd5b5050506040518051905060ff1614151561125257600080fd5b8173ffffffffffffffffffffffffffffffffffffffff16630bd851588260405180807f7363616e2d726571756573742f73746174757300000000000000000000000000815250601301828152602001915050604051809103902060026040518363ffffffff167c01000000000000000000000000000000000000000000000000000000000281526004018083600019166000191681526020018260ff16815260200192505050600060405180830381600087803b151561131157600080fd5b6102c65a03f1151561132257600080fd5b5050505050565b60008060008060006113708b6040805190810160405280601781526020017f7363616e2d6170706c69636174696f6e732d636f756e74000000000000000000815250611e11565b945060008b73ffffffffffffffffffffffffffffffffffffffff16637a0e03ec8760405180807f7363616e2d6170706c69636174696f6e2f73746174757300000000000000000081525060170182815260200191505060405180910390206000604051602001526040518263ffffffff167c0100000000000000000000000000000000000000000000000000000000028152600401808260001916600019168152602001915050602060405180830381600087803b151561143057600080fd5b6102c65a03f1151561144157600080fd5b5050506040518051905060ff16148015611534575060018b73ffffffffffffffffffffffffffffffffffffffff16637a0e03ec8a60405180807f7363616e2d726571756573742f7374617475730000000000000000000000000081525060130182815260200191505060405180910390206000604051602001526040518263ffffffff167c0100000000000000000000000000000000000000000000000000000000028152600401808260001916600019168152602001915050602060405180830381600087803b151561151457600080fd5b6102c65a03f1151561152557600080fd5b5050506040518051905060ff16145b801561164157508873ffffffffffffffffffffffffffffffffffffffff168b73ffffffffffffffffffffffffffffffffffffffff16634c77e5ba8a60405180807f7363616e2d726571756573742f70617469656e7400000000000000000000000081525060140182815260200191505060405180910390206000604051602001526040518263ffffffff167c0100000000000000000000000000000000000000000000000000000000028152600401808260001916600019168152602001915050602060405180830381600087803b151561160e57600080fd5b6102c65a03f1151561161f57600080fd5b5050506040518051905073ffffffffffffffffffffffffffffffffffffffff16145b151561164c57600080fd5b600093505b84841015611bf9578a73ffffffffffffffffffffffffffffffffffffffff1663bdc963d88b8660405180807f64656e746973742f7363616e2d6170706c69636174696f6e00000000000000008152506018018373ffffffffffffffffffffffffffffffffffffffff1673ffffffffffffffffffffffffffffffffffffffff166c010000000000000000000000000281526014018281526020019250505060405180910390206000604051602001526040518263ffffffff167c0100000000000000000000000000000000000000000000000000000000028152600401808260001916600019168152602001915050602060405180830381600087803b151561175857600080fd5b6102c65a03f1151561176957600080fd5b5050506040518051905092508a73ffffffffffffffffffffffffffffffffffffffff1663bdc963d88460405180807f7363616e2d6170706c69636174696f6e2f7363616e2d72657175657374000000815250601d0182815260200191505060405180910390206000604051602001526040518263ffffffff167c0100000000000000000000000000000000000000000000000000000000028152600401808260001916600019168152602001915050602060405180830381600087803b151561183157600080fd5b6102c65a03f1151561184257600080fd5b5050506040518051905091508782148015611be2575060018b73ffffffffffffffffffffffffffffffffffffffff16637a0e03ec8560405180807f7363616e2d6170706c69636174696f6e2f73746174757300000000000000000081525060170182815260200191505060405180910390206000604051602001526040518263ffffffff167c0100000000000000000000000000000000000000000000000000000000028152600401808260001916600019168152602001915050602060405180830381600087803b151561191657600080fd5b6102c65a03f1151561192757600080fd5b5050506040518051905060ff161480611a19575060028b73ffffffffffffffffffffffffffffffffffffffff16637a0e03ec8560405180807f7363616e2d6170706c69636174696f6e2f73746174757300000000000000000081525060170182815260200191505060405180910390206000604051602001526040518263ffffffff167c0100000000000000000000000000000000000000000000000000000000028152600401808260001916600019168152602001915050602060405180830381600087803b15156119f957600080fd5b6102c65a03f11515611a0a57600080fd5b5050506040518051905060ff16145b80611afd575060048b73ffffffffffffffffffffffffffffffffffffffff16637a0e03ec8560405180807f7363616e2d6170706c69636174696f6e2f73746174757300000000000000000081525060170182815260200191505060405180910390206000604051602001526040518263ffffffff167c0100000000000000000000000000000000000000000000000000000000028152600401808260001916600019168152602001915050602060405180830381600087803b1515611add57600080fd5b6102c65a03f11515611aee57600080fd5b5050506040518051905060ff16145b80611be1575060058b73ffffffffffffffffffffffffffffffffffffffff16637a0e03ec8560405180807f7363616e2d6170706c69636174696f6e2f73746174757300000000000000000081525060170182815260200191505060405180910390206000604051602001526040518263ffffffff167c0100000000000000000000000000000000000000000000000000000000028152600401808260001916600019168152602001915050602060405180830381600087803b1515611bc157600080fd5b6102c65a03f11515611bd257600080fd5b5050506040518051905060ff16145b5b15611bec57611e04565b8380600101945050611651565b8a73ffffffffffffffffffffffffffffffffffffffff1663bdc963d88960405180807f7363616e2d726571756573742f7363616e2d736572766963650000000000000081525060190182815260200191505060405180910390206000604051602001526040518263ffffffff167c0100000000000000000000000000000000000000000000000000000000028152600401808260001916600019168152602001915050602060405180830381600087803b1515611cb557600080fd5b6102c65a03f11515611cc657600080fd5b5050506040518051905090508a73ffffffffffffffffffffffffffffffffffffffff16633eba9ed28b8a60405180807f64656e746973742f7363616e2d726571756573740000000000000000000000008152506014018373ffffffffffffffffffffffffffffffffffffffff1673ffffffffffffffffffffffffffffffffffffffff166c0100000000000000000000000002815260140182815260200192505050604051809103902060016040518363ffffffff167c01000000000000000000000000000000000000000000000000000000000281526004018083600019166000191681526020018215151515815260200192505050600060405180830381600087803b1515611dd557600080fd5b6102c65a03f11515611de657600080fd5b505050611df58b828a88612b75565b611e038b8b8b888b8b612fcf565b5b5050505050505050505050565b60008273ffffffffffffffffffffffffffffffffffffffff1663bdc963d8836040518082805190602001908083835b602083101515611e655780518252602082019150602081019050602083039250611e40565b6001836020036101000a03801982511681845116808217855250505050505090500191505060405180910390206000604051602001526040518263ffffffff167c0100000000000000000000000000000000000000000000000000000000028152600401808260001916600019168152602001915050602060405180830381600087803b1515611ef457600080fd5b6102c65a03f11515611f0557600080fd5b50505060405180519050905092915050565b8273ffffffffffffffffffffffffffffffffffffffff16630bd851588260405180807f7363616e2d726571756573742f73746174757300000000000000000000000000815250601301828152602001915050604051809103902060016040518363ffffffff167c01000000000000000000000000000000000000000000000000000000000281526004018083600019166000191681526020018260ff16815260200192505050600060405180830381600087803b1515611fd657600080fd5b6102c65a03f11515611fe757600080fd5b5050508273ffffffffffffffffffffffffffffffffffffffff16633562fd208260405180807f7363616e2d726571756573742f637265617465642d6f6e0000000000000000008152506017018281526020019150506040518091039020426040518363ffffffff167c010000000000000000000000000000000000000000000000000000000002815260040180836000191660001916815260200182815260200192505050600060405180830381600087803b15156120a557600080fd5b6102c65a03f115156120b657600080fd5b5050508273ffffffffffffffffffffffffffffffffffffffff16633562fd208260405180807f7363616e2d726571756573742f7363616e2d73657276696365000000000000008152506019018281526020019150506040518091039020846040518363ffffffff167c010000000000000000000000000000000000000000000000000000000002815260040180836000191660001916815260200182815260200192505050600060405180830381600087803b151561217457600080fd5b6102c65a03f1151561218557600080fd5b5050506121fe836040805190810160405280600c81526020017f7363616e2d7265717565737400000000000000000000000000000000000000008152506040805190810160405280601381526020017f7363616e2d72657175657374732d636f756e7400000000000000000000000000815250846134be565b61227583836040805190810160405280601981526020017f7363616e2d736572766963652f7363616e2d72657175657374000000000000008152506040805190810160405280602081526020017f7363616e2d736572766963652f7363616e2d72657175657374732d636f756e74815250856137b8565b505050565b6122f187876040805190810160405280601481526020017f70617469656e742f7363616e2d726571756573740000000000000000000000008152506040805190810160405280601b81526020017f70617469656e742f7363616e2d72657175657374732d636f756e740000000000815250896139d2565b8673ffffffffffffffffffffffffffffffffffffffff16635a2bf25a8660405180807f7363616e2d726571756573742f70617469656e740000000000000000000000008152506014018281526020019150506040518091039020886040518363ffffffff167c01000000000000000000000000000000000000000000000000000000000281526004018083600019166000191681526020018273ffffffffffffffffffffffffffffffffffffffff1673ffffffffffffffffffffffffffffffffffffffff16815260200192505050600060405180830381600087803b15156123d857600080fd5b6102c65a03f115156123e957600080fd5b5050508673ffffffffffffffffffffffffffffffffffffffff166325cf512d8660405180807f7363616e2d726571756573742f6170706f696e746d656e742d64617465000000815250601d018281526020019150506040518091039020866040518363ffffffff167c0100000000000000000000000000000000000000000000000000000000028152600401808360001916600019168152602001826000191660001916815260200192505050600060405180830381600087803b15156124af57600080fd5b6102c65a03f115156124c057600080fd5b5050508673ffffffffffffffffffffffffffffffffffffffff166325cf512d8660405180807f7363616e2d726571756573742f6170706f696e746d656e742d74696d65000000815250601d018281526020019150506040518091039020856040518363ffffffff167c0100000000000000000000000000000000000000000000000000000000028152600401808360001916600019168152602001826000191660001916815260200192505050600060405180830381600087803b151561258657600080fd5b6102c65a03f1151561259757600080fd5b5050508673ffffffffffffffffffffffffffffffffffffffff1663f58660668660405180807f7363616e2d726571756573742f6170706f696e746d656e742d696e737572616e81526020017f63650000000000000000000000000000000000000000000000000000000000008152506022018281526020019150506040518091039020846040518363ffffffff167c010000000000000000000000000000000000000000000000000000000002815260040180836000191660001916815260200180602001828103825283818151815260200191508051906020019080838360005b83811015612694578082015181840152602081019050612679565b50505050905090810190601f1680156126c15780820380516001836020036101000a031916815260200191505b509350505050600060405180830381600087803b15156126e057600080fd5b6102c65a03f115156126f157600080fd5b5050508673ffffffffffffffffffffffffffffffffffffffff1663f58660668660405180807f7363616e2d726571756573742f6170706f696e746d656e742d636f6d6d656e748152506020018281526020019150506040518091039020836040518363ffffffff167c010000000000000000000000000000000000000000000000000000000002815260040180836000191660001916815260200180602001828103825283818151815260200191508051906020019080838360005b838110156127c85780820151818401526020810190506127ad565b50505050905090810190601f1680156127f55780820380516001836020036101000a031916815260200191505b509350505050600060405180830381600087803b151561281457600080fd5b6102c65a03f1151561282557600080fd5b50505050505050505050565b60008273ffffffffffffffffffffffffffffffffffffffff161415612929578273ffffffffffffffffffffffffffffffffffffffff16633eba9ed28260405180807f7363616e2d726571756573742f69732d67656e6572616c3f0000000000000000815250601801828152602001915050604051809103902060016040518363ffffffff167c01000000000000000000000000000000000000000000000000000000000281526004018083600019166000191681526020018215151515815260200192505050600060405180830381600087803b151561291057600080fd5b6102c65a03f1151561292157600080fd5b505050612b70565b8273ffffffffffffffffffffffffffffffffffffffff16633eba9ed28260405180807f7363616e2d726571756573742f69732d67656e6572616c3f0000000000000000815250601801828152602001915050604051809103902060006040518363ffffffff167c01000000000000000000000000000000000000000000000000000000000281526004018083600019166000191681526020018215151515815260200192505050600060405180830381600087803b15156129e957600080fd5b6102c65a03f115156129fa57600080fd5b5050508273ffffffffffffffffffffffffffffffffffffffff16635a2bf25a8260405180807f7363616e2d726571756573742f64656e746973740000000000000000000000008152506014018281526020019150506040518091039020846040518363ffffffff167c01000000000000000000000000000000000000000000000000000000000281526004018083600019166000191681526020018273ffffffffffffffffffffffffffffffffffffffff1673ffffffffffffffffffffffffffffffffffffffff16815260200192505050600060405180830381600087803b1515612ae457600080fd5b6102c65a03f11515612af557600080fd5b505050612b6f83836040805190810160405280601481526020017f64656e746973742f7363616e2d726571756573740000000000000000000000008152506040805190810160405280601b81526020017f64656e746973742f7363616e2d72657175657374732d636f756e740000000000815250856139d2565b5b505050565b8373ffffffffffffffffffffffffffffffffffffffff16630bd851588260405180807f7363616e2d6170706c69636174696f6e2f737461747573000000000000000000815250601701828152602001915050604051809103902060016040518363ffffffff167c01000000000000000000000000000000000000000000000000000000000281526004018083600019166000191681526020018260ff16815260200192505050600060405180830381600087803b1515612c3457600080fd5b6102c65a03f11515612c4557600080fd5b5050508373ffffffffffffffffffffffffffffffffffffffff16633562fd208260405180807f7363616e2d6170706c69636174696f6e2f637265617465642d6f6e0000000000815250601b018281526020019150506040518091039020426040518363ffffffff167c010000000000000000000000000000000000000000000000000000000002815260040180836000191660001916815260200182815260200192505050600060405180830381600087803b1515612d0357600080fd5b6102c65a03f11515612d1457600080fd5b5050508373ffffffffffffffffffffffffffffffffffffffff16633562fd208260405180807f7363616e2d6170706c69636174696f6e2f7363616e2d72657175657374000000815250601d018281526020019150506040518091039020846040518363ffffffff167c010000000000000000000000000000000000000000000000000000000002815260040180836000191660001916815260200182815260200192505050600060405180830381600087803b1515612dd257600080fd5b6102c65a03f11515612de357600080fd5b5050508373ffffffffffffffffffffffffffffffffffffffff16633562fd208260405180807f7363616e2d6170706c69636174696f6e2f7363616e2d73657276696365000000815250601d018281526020019150506040518091039020856040518363ffffffff167c010000000000000000000000000000000000000000000000000000000002815260040180836000191660001916815260200182815260200192505050600060405180830381600087803b1515612ea157600080fd5b6102c65a03f11515612eb257600080fd5b505050612f2b846040805190810160405280601081526020017f7363616e2d6170706c69636174696f6e000000000000000000000000000000008152506040805190810160405280601781526020017f7363616e2d6170706c69636174696f6e732d636f756e74000000000000000000815250846134be565b612fc984836040805190810160405280601d81526020017f7363616e2d726571756573742f7363616e2d6170706c69636174696f6e000000815250606060405190810160405280602481526020017f7363616e2d726571756573742f7363616e2d6170706c69636174696f6e732d6381526020017f6f756e7400000000000000000000000000000000000000000000000000000000815250856137b8565b50505050565b8573ffffffffffffffffffffffffffffffffffffffff16633562fd208460405180807f7363616e2d6170706c69636174696f6e2f71756f7465000000000000000000008152506016018281526020019150506040518091039020846040518363ffffffff167c010000000000000000000000000000000000000000000000000000000002815260040180836000191660001916815260200182815260200192505050600060405180830381600087803b151561308a57600080fd5b6102c65a03f1151561309b57600080fd5b5050508573ffffffffffffffffffffffffffffffffffffffff1663f58660668460405180807f7363616e2d6170706c69636174696f6e2f636f6d6d656e7400000000000000008152506018018281526020019150506040518091039020836040518363ffffffff167c010000000000000000000000000000000000000000000000000000000002815260040180836000191660001916815260200180602001828103825283818151815260200191508051906020019080838360005b83811015613172578082015181840152602081019050613157565b50505050905090810190601f16801561319f5780820380516001836020036101000a031916815260200191505b509350505050600060405180830381600087803b15156131be57600080fd5b6102c65a03f115156131cf57600080fd5b5050508573ffffffffffffffffffffffffffffffffffffffff16635a2bf25a8460405180807f7363616e2d6170706c69636174696f6e2f64656e7469737400000000000000008152506018018281526020019150506040518091039020876040518363ffffffff167c01000000000000000000000000000000000000000000000000000000000281526004018083600019166000191681526020018273ffffffffffffffffffffffffffffffffffffffff1673ffffffffffffffffffffffffffffffffffffffff16815260200192505050600060405180830381600087803b15156132b957600080fd5b6102c65a03f115156132ca57600080fd5b5050508573ffffffffffffffffffffffffffffffffffffffff16635a2bf25a8460405180807f7363616e2d6170706c69636174696f6e2f70617469656e7400000000000000008152506018018281526020019150506040518091039020866040518363ffffffff167c01000000000000000000000000000000000000000000000000000000000281526004018083600019166000191681526020018273ffffffffffffffffffffffffffffffffffffffff1673ffffffffffffffffffffffffffffffffffffffff16815260200192505050600060405180830381600087803b15156133b457600080fd5b6102c65a03f115156133c557600080fd5b50505061343f86866040805190810160405280601881526020017f64656e746973742f7363616e2d6170706c69636174696f6e00000000000000008152506040805190810160405280601f81526020017f64656e746973742f7363616e2d6170706c69636174696f6e732d636f756e7400815250876139d2565b6134b686856040805190810160405280601881526020017f70617469656e742f7363616e2d6170706c69636174696f6e00000000000000008152506040805190810160405280601f81526020017f70617469656e742f7363616e2d6170706c69636174696f6e732d636f756e7400815250876139d2565b505050505050565b60008473ffffffffffffffffffffffffffffffffffffffff1663bdc963d8846040518082805190602001908083835b60208310151561351257805182526020820191506020810190506020830392506134ed565b6001836020036101000a03801982511681845116808217855250505050505090500191505060405180910390206000604051602001526040518263ffffffff167c0100000000000000000000000000000000000000000000000000000000028152600401808260001916600019168152602001915050602060405180830381600087803b15156135a157600080fd5b6102c65a03f115156135b257600080fd5b5050506040518051905090508473ffffffffffffffffffffffffffffffffffffffff16633562fd2085836040518083805190602001908083835b60208310151561361157805182526020820191506020810190506020830392506135ec565b6001836020036101000a038019825116818451168082178552505050505050905001828152602001925050506040518091039020846040518363ffffffff167c010000000000000000000000000000000000000000000000000000000002815260040180836000191660001916815260200182815260200192505050600060405180830381600087803b15156136a657600080fd5b6102c65a03f115156136b757600080fd5b5050508473ffffffffffffffffffffffffffffffffffffffff16633562fd20846040518082805190602001908083835b60208310151561370c57805182526020820191506020810190506020830392506136e7565b6001836020036101000a0380198251168184511680821785525050505050509050019150506040518091039020600184016040518363ffffffff167c010000000000000000000000000000000000000000000000000000000002815260040180836000191660001916815260200182815260200192505050600060405180830381600087803b151561379d57600080fd5b6102c65a03f115156137ae57600080fd5b5050505050505050565b60006137c5868685613c62565b90508573ffffffffffffffffffffffffffffffffffffffff16633562fd208587846040518084805190602001908083835b60208310151561381b57805182526020820191506020810190506020830392506137f6565b6001836020036101000a03801982511681845116808217855250505050505090500183815260200182815260200193505050506040518091039020846040518363ffffffff167c010000000000000000000000000000000000000000000000000000000002815260040180836000191660001916815260200182815260200192505050600060405180830381600087803b15156138b757600080fd5b6102c65a03f115156138c857600080fd5b5050508573ffffffffffffffffffffffffffffffffffffffff16633562fd2084876040518083805190602001908083835b60208310151561391e57805182526020820191506020810190506020830392506138f9565b6001836020036101000a038019825116818451168082178552505050505050905001828152602001925050506040518091039020600184016040518363ffffffff167c010000000000000000000000000000000000000000000000000000000002815260040180836000191660001916815260200182815260200192505050600060405180830381600087803b15156139b657600080fd5b6102c65a03f115156139c757600080fd5b505050505050505050565b60006139df868685613d71565b90508573ffffffffffffffffffffffffffffffffffffffff16633562fd208587846040518084805190602001908083835b602083101515613a355780518252602082019150602081019050602083039250613a10565b6001836020036101000a0380198251168184511680821785525050505050509050018373ffffffffffffffffffffffffffffffffffffffff1673ffffffffffffffffffffffffffffffffffffffff166c0100000000000000000000000002815260140182815260200193505050506040518091039020846040518363ffffffff167c010000000000000000000000000000000000000000000000000000000002815260040180836000191660001916815260200182815260200192505050600060405180830381600087803b1515613b0c57600080fd5b6102c65a03f11515613b1d57600080fd5b5050508573ffffffffffffffffffffffffffffffffffffffff16633562fd2084876040518083805190602001908083835b602083101515613b735780518252602082019150602081019050602083039250613b4e565b6001836020036101000a0380198251168184511680821785525050505050509050018273ffffffffffffffffffffffffffffffffffffffff1673ffffffffffffffffffffffffffffffffffffffff166c01000000000000000000000000028152601401925050506040518091039020600184016040518363ffffffff167c010000000000000000000000000000000000000000000000000000000002815260040180836000191660001916815260200182815260200192505050600060405180830381600087803b1515613c4657600080fd5b6102c65a03f11515613c5757600080fd5b505050505050505050565b60008373ffffffffffffffffffffffffffffffffffffffff1663bdc963d883856040518083805190602001908083835b602083101515613cb75780518252602082019150602081019050602083039250613c92565b6001836020036101000a0380198251168184511680821785525050505050509050018281526020019250505060405180910390206000604051602001526040518263ffffffff167c0100000000000000000000000000000000000000000000000000000000028152600401808260001916600019168152602001915050602060405180830381600087803b1515613d4d57600080fd5b6102c65a03f11515613d5e57600080fd5b5050506040518051905090509392505050565b60008373ffffffffffffffffffffffffffffffffffffffff1663bdc963d883856040518083805190602001908083835b602083101515613dc65780518252602082019150602081019050602083039250613da1565b6001836020036101000a0380198251168184511680821785525050505050509050018273ffffffffffffffffffffffffffffffffffffffff1673ffffffffffffffffffffffffffffffffffffffff166c010000000000000000000000000281526014019250505060405180910390206000604051602001526040518263ffffffff167c0100000000000000000000000000000000000000000000000000000000028152600401808260001916600019168152602001915050602060405180830381600087803b1515613e9757600080fd5b6102c65a03f11515613ea857600080fd5b50505060405180519050905093925050505600a165627a7a72305820fc1251beef8d9b6c15f13587046af6bf32f5ee4be0f7083d3c63b376d4fc7d0a0029",
  "source": "pragma solidity 0.4.18;\nimport \"./Restrictor.sol\";\nimport \"../lib/odll/userManager.sol\";\n\ncontract ScanRequestWriter is Restrictor {\n  function ScanRequestWriter(address _dbAddress) public {\n    require(_dbAddress != 0x0);\n    dbAddress = _dbAddress;\n  }\n\n  // Scan Request\n  function writeScanRequest (\n    address dentistId,\n    uint scanAppointmentId,\n    bytes32 appointmentDate,\n    bytes32 scanTime,\n    string scanInsurance,\n    string comment\n  )\n    external\n    onlyPermittedSmartContract\n  {\n    userManager.writeScanRequest(dbAddress, dentistId, msg.sender, scanAppointmentId, appointmentDate, scanTime, scanInsurance, comment);\n  }\n\n  function cancelScanRequest (\n    uint scanRequestId\n  )\n    external\n    onlyPermittedSmartContract\n  {\n    userManager.cancelScanRequest(dbAddress, msg.sender, scanRequestId);\n  }\n\n  function expireScanRequest (\n    uint scanRequestId\n  )\n    external\n    onlyPermittedSmartContract\n  {\n    userManager.expireScanRequest(dbAddress, scanRequestId);\n  }\n\n  function acceptScanRequest (\n    address patientId,\n    uint scanRequestId,\n    uint quote,\n    string comment\n  )\n    external\n    onlyPermittedSmartContract\n  {\n    userManager.acceptScanRequest(dbAddress, msg.sender, patientId, scanRequestId, quote, comment);\n  }\n\n  function rejectScanRequest (\n    address patientId,\n    uint scanRequestId\n  )\n    external\n    onlyPermittedSmartContract\n  {\n    userManager.rejectScanRequest(dbAddress, msg.sender, patientId, scanRequestId);\n  }\n}\n",
  "sourcePath": "/Users/danielokwufulueze/dev/vue/apps/oraldatalink/contracts/odll/ScanRequestWriter.sol",
  "compiler": {
    "name": "solc",
    "version": "0.4.18+commit.9cf6e910.Emscripten.clang"
  },
  "schemaVersion": "1.0.1",
  "updatedAt": "2017-12-01T20:44:54.371Z"
}