{
  "contractName": "ScanRequestWriter",
  "abi": [
    {
      "constant": false,
      "inputs": [
        {
          "name": "patientId",
          "type": "address"
        },
        {
          "name": "scanRequestId",
          "type": "uint256"
        },
        {
          "name": "quote",
          "type": "uint256"
        },
        {
          "name": "comment",
          "type": "string"
        }
      ],
      "name": "acceptScanRequest",
      "outputs": [],
      "payable": false,
      "stateMutability": "nonpayable",
      "type": "function"
    },
    {
      "constant": false,
      "inputs": [
        {
          "name": "userId",
          "type": "address"
        },
        {
          "name": "paymentId",
          "type": "uint256"
        }
      ],
      "name": "lockPayment",
      "outputs": [],
      "payable": false,
      "stateMutability": "nonpayable",
      "type": "function"
    },
    {
      "constant": true,
      "inputs": [],
      "name": "smartContractStatus",
      "outputs": [
        {
          "name": "",
          "type": "uint8"
        }
      ],
      "payable": false,
      "stateMutability": "view",
      "type": "function"
    },
    {
      "constant": false,
      "inputs": [
        {
          "name": "dentistId",
          "type": "address"
        },
        {
          "name": "scanAppointmentId",
          "type": "uint256"
        },
        {
          "name": "appointmentDate",
          "type": "bytes32"
        },
        {
          "name": "scanTime",
          "type": "bytes32"
        },
        {
          "name": "scanInsurance",
          "type": "string"
        },
        {
          "name": "comment",
          "type": "string"
        }
      ],
      "name": "writeScanRequest",
      "outputs": [],
      "payable": false,
      "stateMutability": "nonpayable",
      "type": "function"
    },
    {
      "constant": true,
      "inputs": [],
      "name": "owner",
      "outputs": [
        {
          "name": "",
          "type": "address"
        }
      ],
      "payable": false,
      "stateMutability": "view",
      "type": "function"
    },
    {
      "constant": true,
      "inputs": [],
      "name": "dbAddress",
      "outputs": [
        {
          "name": "",
          "type": "address"
        }
      ],
      "payable": false,
      "stateMutability": "view",
      "type": "function"
    },
    {
      "constant": false,
      "inputs": [
        {
          "name": "scanRequestId",
          "type": "uint256"
        }
      ],
      "name": "cancelScanRequest",
      "outputs": [],
      "payable": false,
      "stateMutability": "nonpayable",
      "type": "function"
    },
    {
      "constant": false,
      "inputs": [
        {
          "name": "patientId",
          "type": "address"
        },
        {
          "name": "scanRequestId",
          "type": "uint256"
        }
      ],
      "name": "rejectScanRequest",
      "outputs": [],
      "payable": false,
      "stateMutability": "nonpayable",
      "type": "function"
    },
    {
      "constant": false,
      "inputs": [
        {
          "name": "scanRequestId",
          "type": "uint256"
        }
      ],
      "name": "expireScanRequest",
      "outputs": [],
      "payable": false,
      "stateMutability": "nonpayable",
      "type": "function"
    },
    {
      "constant": false,
      "inputs": [
        {
          "name": "newOwner",
          "type": "address"
        }
      ],
      "name": "transferOwnership",
      "outputs": [],
      "payable": false,
      "stateMutability": "nonpayable",
      "type": "function"
    },
    {
      "inputs": [
        {
          "name": "_dbAddress",
          "type": "address"
        }
      ],
      "payable": false,
      "stateMutability": "nonpayable",
      "type": "constructor"
    },
    {
      "anonymous": false,
      "inputs": [
        {
          "indexed": false,
          "name": "paymentId",
          "type": "uint256"
        }
      ],
      "name": "PaymentLocked",
      "type": "event"
    },
    {
      "anonymous": false,
      "inputs": [
        {
          "indexed": false,
          "name": "status",
          "type": "uint8"
        }
      ],
      "name": "OnSmartContractStatusSet",
      "type": "event"
    },
    {
      "anonymous": false,
      "inputs": [
        {
          "indexed": true,
          "name": "previousOwner",
          "type": "address"
        },
        {
          "indexed": true,
          "name": "newOwner",
          "type": "address"
        }
      ],
      "name": "OwnershipTransferred",
      "type": "event"
    }
  ],
  "bytecode": "0x6060604052341561000f57600080fd5b6040516020806200454683398101604052808051906020019091905050336000806101000a81548173ffffffffffffffffffffffffffffffffffffffff021916908373ffffffffffffffffffffffffffffffffffffffff16021790555060008173ffffffffffffffffffffffffffffffffffffffff161415151561009257600080fd5b80600160006101000a81548173ffffffffffffffffffffffffffffffffffffffff021916908373ffffffffffffffffffffffffffffffffffffffff1602179055505061446280620000e46000396000f3006060604052600436106100a4576000357c0100000000000000000000000000000000000000000000000000000000900463ffffffff1680633bb27e1d146100a95780633f4b1470146101085780634c8ddddc1461014a5780636e4ef557146101795780638da5cb5b146101fd57806391e06b6d146102525780639878585d146102a7578063bcd1269b146102ca578063d05aa6521461030c578063f2fde38b1461032f575b600080fd5b34156100b457600080fd5b610106600480803573ffffffffffffffffffffffffffffffffffffffff169060200190919080359060200190919080359060200190919080359060200190820180359060200191909192905050610368565b005b341561011357600080fd5b610148600480803573ffffffffffffffffffffffffffffffffffffffff169060200190919080359060200190919050506103f2565b005b341561015557600080fd5b61015d610649565b604051808260ff1660ff16815260200191505060405180910390f35b341561018457600080fd5b6101fb600480803573ffffffffffffffffffffffffffffffffffffffff1690602001909190803590602001909190803560001916906020019091908035600019169060200190919080359060200190820180359060200191909192908035906020019082018035906020019190919290505061065c565b005b341561020857600080fd5b61021061071d565b604051808273ffffffffffffffffffffffffffffffffffffffff1673ffffffffffffffffffffffffffffffffffffffff16815260200191505060405180910390f35b341561025d57600080fd5b610265610742565b604051808273ffffffffffffffffffffffffffffffffffffffff1673ffffffffffffffffffffffffffffffffffffffff16815260200191505060405180910390f35b34156102b257600080fd5b6102c86004808035906020019091905050610768565b005b34156102d557600080fd5b61030a600480803573ffffffffffffffffffffffffffffffffffffffff169060200190919080359060200190919050506107b9565b005b341561031757600080fd5b61032d600480803590602001909190505061080c565b005b341561033a57600080fd5b610366600480803573ffffffffffffffffffffffffffffffffffffffff1690602001909190505061085c565b005b6000600160149054906101000a900460ff1660ff1614151561038957600080fd5b6103eb600160009054906101000a900473ffffffffffffffffffffffffffffffffffffffff163387878787878080601f0160208091040260200160405190810160405280939291908181526020018383808284378201915050505050506109b1565b5050505050565b816103fc816109c7565b151561040757600080fd5b8160018060ff16600160009054906101000a900473ffffffffffffffffffffffffffffffffffffffff1673ffffffffffffffffffffffffffffffffffffffff16637a0e03ec8460405180807f7061796d656e742f737461746500000000000000000000000000000000000000815250600d0182815260200191505060405180910390206000604051602001526040518263ffffffff167c0100000000000000000000000000000000000000000000000000000000028152600401808260001916600019168152602001915050602060405180830381600087803b15156104ec57600080fd5b6102c65a03f115156104fd57600080fd5b5050506040518051905060ff1614151561051657600080fd5b600160009054906101000a900473ffffffffffffffffffffffffffffffffffffffff1673ffffffffffffffffffffffffffffffffffffffff16630bd851588560405180807f7061796d656e742f737461746500000000000000000000000000000000000000815250600d01828152602001915050604051809103902060026040518363ffffffff167c01000000000000000000000000000000000000000000000000000000000281526004018083600019166000191681526020018260ff16815260200192505050600060405180830381600087803b15156105f757600080fd5b6102c65a03f1151561060857600080fd5b5050507fa5f78a79f83dfad686a63ca003a42f6c262d9fdc43a6742c56f5c27c11b9a1e2846040518082815260200191505060405180910390a15050505050565b600160149054906101000a900460ff1681565b6000600160149054906101000a900460ff1660ff1614151561067d57600080fd5b610713600160009054906101000a900473ffffffffffffffffffffffffffffffffffffffff1689338a8a8a8a8a8080601f01602080910402602001604051908101604052809392919081815260200183838082843782019150505050505089898080601f0160208091040260200160405190810160405280939291908181526020018383808284378201915050505050506109ee565b5050505050505050565b6000809054906101000a900473ffffffffffffffffffffffffffffffffffffffff1681565b600160009054906101000a900473ffffffffffffffffffffffffffffffffffffffff1681565b6000600160149054906101000a900460ff1660ff1614151561078957600080fd5b6107b6600160009054906101000a900473ffffffffffffffffffffffffffffffffffffffff163383610a08565b50565b6000600160149054906101000a900460ff1660ff161415156107da57600080fd5b610808600160009054906101000a900473ffffffffffffffffffffffffffffffffffffffff16338484610a18565b5050565b6000600160149054906101000a900460ff1660ff1614151561082d57600080fd5b610859600160009054906101000a900473ffffffffffffffffffffffffffffffffffffffff1682610a2a565b50565b6000809054906101000a900473ffffffffffffffffffffffffffffffffffffffff1673ffffffffffffffffffffffffffffffffffffffff163373ffffffffffffffffffffffffffffffffffffffff161415156108b757600080fd5b600073ffffffffffffffffffffffffffffffffffffffff168173ffffffffffffffffffffffffffffffffffffffff16141515156108f357600080fd5b8073ffffffffffffffffffffffffffffffffffffffff166000809054906101000a900473ffffffffffffffffffffffffffffffffffffffff1673ffffffffffffffffffffffffffffffffffffffff167f8be0079c531659141344cd1fd0a4f28419497f9722a3daafe3b4186f6b6457e060405160405180910390a3806000806101000a81548173ffffffffffffffffffffffffffffffffffffffff021916908373ffffffffffffffffffffffffffffffffffffffff16021790555050565b6109bf868686868686610a38565b505050505050565b60006109d4826001610c32565b80156109e757506109e6826001610c4d565b5b9050919050565b6109fe8888888888888888610c68565b5050505050505050565b610a13838383610dc3565b505050565b610a2484848484611090565b50505050565b610a34828261146b565b5050565b8473ffffffffffffffffffffffffffffffffffffffff168673ffffffffffffffffffffffffffffffffffffffff16634c77e5ba8560405180807f7363616e2d726571756573742f64656e7469737400000000000000000000000081525060140182815260200191505060405180910390206000604051602001526040518263ffffffff167c0100000000000000000000000000000000000000000000000000000000028152600401808260001916600019168152602001915050602060405180830381600087803b1515610b0b57600080fd5b6102c65a03f11515610b1c57600080fd5b5050506040518051905073ffffffffffffffffffffffffffffffffffffffff16141515610b4857600080fd5b610b5686868686868661162a565b8573ffffffffffffffffffffffffffffffffffffffff16633eba9ed28460405180807f7363616e2d726571756573742f69732d61636365707465643f00000000000000815250601901828152602001915050604051809103902060016040518363ffffffff167c01000000000000000000000000000000000000000000000000000000000281526004018083600019166000191681526020018215151515815260200192505050600060405180830381600087803b1515610c1657600080fd5b6102c65a03f11515610c2757600080fd5b505050505050505050565b6000610c3d83612112565b60ff168260ff1614905092915050565b6000610c588361224f565b60ff168260ff1614905092915050565b6000610ca9896040805190810160405280601381526020017f7363616e2d72657175657374732d636f756e740000000000000000000000000081525061238c565b905060008973ffffffffffffffffffffffffffffffffffffffff16637a0e03ec8360405180807f7363616e2d726571756573742f7374617475730000000000000000000000000081525060130182815260200191505060405180910390206000604051602001526040518263ffffffff167c0100000000000000000000000000000000000000000000000000000000028152600401808260001916600019168152602001915050602060405180830381600087803b1515610d6957600080fd5b6102c65a03f11515610d7a57600080fd5b5050506040518051905060ff16141515610d9357600080fd5b610d9e898783612492565b610dad898883888888886127f5565b610db8898983612dac565b505050505050505050565b60018373ffffffffffffffffffffffffffffffffffffffff16637a0e03ec8360405180807f7363616e2d726571756573742f7374617475730000000000000000000000000081525060130182815260200191505060405180910390206000604051602001526040518263ffffffff167c0100000000000000000000000000000000000000000000000000000000028152600401808260001916600019168152602001915050602060405180830381600087803b1515610e8157600080fd5b6102c65a03f11515610e9257600080fd5b5050506040518051905060ff16148015610fad57508173ffffffffffffffffffffffffffffffffffffffff168373ffffffffffffffffffffffffffffffffffffffff16634c77e5ba8360405180807f7363616e2d726571756573742f70617469656e7400000000000000000000000081525060140182815260200191505060405180910390206000604051602001526040518263ffffffff167c0100000000000000000000000000000000000000000000000000000000028152600401808260001916600019168152602001915050602060405180830381600087803b1515610f7a57600080fd5b6102c65a03f11515610f8b57600080fd5b5050506040518051905073ffffffffffffffffffffffffffffffffffffffff16145b1515610fb857600080fd5b8273ffffffffffffffffffffffffffffffffffffffff16630bd851588260405180807f7363616e2d726571756573742f73746174757300000000000000000000000000815250601301828152602001915050604051809103902060036040518363ffffffff167c01000000000000000000000000000000000000000000000000000000000281526004018083600019166000191681526020018260ff16815260200192505050600060405180830381600087803b151561107757600080fd5b6102c65a03f1151561108857600080fd5b505050505050565b60018473ffffffffffffffffffffffffffffffffffffffff16637a0e03ec8360405180807f7363616e2d726571756573742f7374617475730000000000000000000000000081525060130182815260200191505060405180910390206000604051602001526040518263ffffffff167c0100000000000000000000000000000000000000000000000000000000028152600401808260001916600019168152602001915050602060405180830381600087803b151561114e57600080fd5b6102c65a03f1151561115f57600080fd5b5050506040518051905060ff1614801561127a57508273ffffffffffffffffffffffffffffffffffffffff168473ffffffffffffffffffffffffffffffffffffffff16634c77e5ba8360405180807f7363616e2d726571756573742f64656e7469737400000000000000000000000081525060140182815260200191505060405180910390206000604051602001526040518263ffffffff167c0100000000000000000000000000000000000000000000000000000000028152600401808260001916600019168152602001915050602060405180830381600087803b151561124757600080fd5b6102c65a03f1151561125857600080fd5b5050506040518051905073ffffffffffffffffffffffffffffffffffffffff16145b801561138757508173ffffffffffffffffffffffffffffffffffffffff168473ffffffffffffffffffffffffffffffffffffffff16634c77e5ba8360405180807f7363616e2d726571756573742f70617469656e7400000000000000000000000081525060140182815260200191505060405180910390206000604051602001526040518263ffffffff167c0100000000000000000000000000000000000000000000000000000000028152600401808260001916600019168152602001915050602060405180830381600087803b151561135457600080fd5b6102c65a03f1151561136557600080fd5b5050506040518051905073ffffffffffffffffffffffffffffffffffffffff16145b151561139257600080fd5b8373ffffffffffffffffffffffffffffffffffffffff16630bd851588260405180807f7363616e2d726571756573742f73746174757300000000000000000000000000815250601301828152602001915050604051809103902060056040518363ffffffff167c01000000000000000000000000000000000000000000000000000000000281526004018083600019166000191681526020018260ff16815260200192505050600060405180830381600087803b151561145157600080fd5b6102c65a03f1151561146257600080fd5b50505050505050565b60018273ffffffffffffffffffffffffffffffffffffffff16637a0e03ec8360405180807f7363616e2d726571756573742f7374617475730000000000000000000000000081525060130182815260200191505060405180910390206000604051602001526040518263ffffffff167c0100000000000000000000000000000000000000000000000000000000028152600401808260001916600019168152602001915050602060405180830381600087803b151561152957600080fd5b6102c65a03f1151561153a57600080fd5b5050506040518051905060ff1614151561155357600080fd5b8173ffffffffffffffffffffffffffffffffffffffff16630bd851588260405180807f7363616e2d726571756573742f73746174757300000000000000000000000000815250601301828152602001915050604051809103902060026040518363ffffffff167c01000000000000000000000000000000000000000000000000000000000281526004018083600019166000191681526020018260ff16815260200192505050600060405180830381600087803b151561161257600080fd5b6102c65a03f1151561162357600080fd5b5050505050565b60008060008060006116718b6040805190810160405280601781526020017f7363616e2d6170706c69636174696f6e732d636f756e7400000000000000000081525061238c565b945060008b73ffffffffffffffffffffffffffffffffffffffff16637a0e03ec8760405180807f7363616e2d6170706c69636174696f6e2f73746174757300000000000000000081525060170182815260200191505060405180910390206000604051602001526040518263ffffffff167c0100000000000000000000000000000000000000000000000000000000028152600401808260001916600019168152602001915050602060405180830381600087803b151561173157600080fd5b6102c65a03f1151561174257600080fd5b5050506040518051905060ff16148015611835575060018b73ffffffffffffffffffffffffffffffffffffffff16637a0e03ec8a60405180807f7363616e2d726571756573742f7374617475730000000000000000000000000081525060130182815260200191505060405180910390206000604051602001526040518263ffffffff167c0100000000000000000000000000000000000000000000000000000000028152600401808260001916600019168152602001915050602060405180830381600087803b151561181557600080fd5b6102c65a03f1151561182657600080fd5b5050506040518051905060ff16145b801561194257508873ffffffffffffffffffffffffffffffffffffffff168b73ffffffffffffffffffffffffffffffffffffffff16634c77e5ba8a60405180807f7363616e2d726571756573742f70617469656e7400000000000000000000000081525060140182815260200191505060405180910390206000604051602001526040518263ffffffff167c0100000000000000000000000000000000000000000000000000000000028152600401808260001916600019168152602001915050602060405180830381600087803b151561190f57600080fd5b6102c65a03f1151561192057600080fd5b5050506040518051905073ffffffffffffffffffffffffffffffffffffffff16145b151561194d57600080fd5b600093505b84841015611efa578a73ffffffffffffffffffffffffffffffffffffffff1663bdc963d88b8660405180807f64656e746973742f7363616e2d6170706c69636174696f6e00000000000000008152506018018373ffffffffffffffffffffffffffffffffffffffff1673ffffffffffffffffffffffffffffffffffffffff166c010000000000000000000000000281526014018281526020019250505060405180910390206000604051602001526040518263ffffffff167c0100000000000000000000000000000000000000000000000000000000028152600401808260001916600019168152602001915050602060405180830381600087803b1515611a5957600080fd5b6102c65a03f11515611a6a57600080fd5b5050506040518051905092508a73ffffffffffffffffffffffffffffffffffffffff1663bdc963d88460405180807f7363616e2d6170706c69636174696f6e2f7363616e2d72657175657374000000815250601d0182815260200191505060405180910390206000604051602001526040518263ffffffff167c0100000000000000000000000000000000000000000000000000000000028152600401808260001916600019168152602001915050602060405180830381600087803b1515611b3257600080fd5b6102c65a03f11515611b4357600080fd5b5050506040518051905091508782148015611ee3575060018b73ffffffffffffffffffffffffffffffffffffffff16637a0e03ec8560405180807f7363616e2d6170706c69636174696f6e2f73746174757300000000000000000081525060170182815260200191505060405180910390206000604051602001526040518263ffffffff167c0100000000000000000000000000000000000000000000000000000000028152600401808260001916600019168152602001915050602060405180830381600087803b1515611c1757600080fd5b6102c65a03f11515611c2857600080fd5b5050506040518051905060ff161480611d1a575060028b73ffffffffffffffffffffffffffffffffffffffff16637a0e03ec8560405180807f7363616e2d6170706c69636174696f6e2f73746174757300000000000000000081525060170182815260200191505060405180910390206000604051602001526040518263ffffffff167c0100000000000000000000000000000000000000000000000000000000028152600401808260001916600019168152602001915050602060405180830381600087803b1515611cfa57600080fd5b6102c65a03f11515611d0b57600080fd5b5050506040518051905060ff16145b80611dfe575060048b73ffffffffffffffffffffffffffffffffffffffff16637a0e03ec8560405180807f7363616e2d6170706c69636174696f6e2f73746174757300000000000000000081525060170182815260200191505060405180910390206000604051602001526040518263ffffffff167c0100000000000000000000000000000000000000000000000000000000028152600401808260001916600019168152602001915050602060405180830381600087803b1515611dde57600080fd5b6102c65a03f11515611def57600080fd5b5050506040518051905060ff16145b80611ee2575060058b73ffffffffffffffffffffffffffffffffffffffff16637a0e03ec8560405180807f7363616e2d6170706c69636174696f6e2f73746174757300000000000000000081525060170182815260200191505060405180910390206000604051602001526040518263ffffffff167c0100000000000000000000000000000000000000000000000000000000028152600401808260001916600019168152602001915050602060405180830381600087803b1515611ec257600080fd5b6102c65a03f11515611ed357600080fd5b5050506040518051905060ff16145b5b15611eed57612105565b8380600101945050611952565b8a73ffffffffffffffffffffffffffffffffffffffff1663bdc963d88960405180807f7363616e2d726571756573742f7363616e2d736572766963650000000000000081525060190182815260200191505060405180910390206000604051602001526040518263ffffffff167c0100000000000000000000000000000000000000000000000000000000028152600401808260001916600019168152602001915050602060405180830381600087803b1515611fb657600080fd5b6102c65a03f11515611fc757600080fd5b5050506040518051905090508a73ffffffffffffffffffffffffffffffffffffffff16633eba9ed28b8a60405180807f64656e746973742f7363616e2d726571756573740000000000000000000000008152506014018373ffffffffffffffffffffffffffffffffffffffff1673ffffffffffffffffffffffffffffffffffffffff166c0100000000000000000000000002815260140182815260200192505050604051809103902060016040518363ffffffff167c01000000000000000000000000000000000000000000000000000000000281526004018083600019166000191681526020018215151515815260200192505050600060405180830381600087803b15156120d657600080fd5b6102c65a03f115156120e757600080fd5b5050506120f68b828a886130f0565b6121048b8b8b888b8b61354a565b5b5050505050505050505050565b6000600160009054906101000a900473ffffffffffffffffffffffffffffffffffffffff1673ffffffffffffffffffffffffffffffffffffffff16637a0e03ec8360405180807f757365722f7479706500000000000000000000000000000000000000000000008152506009018273ffffffffffffffffffffffffffffffffffffffff1673ffffffffffffffffffffffffffffffffffffffff166c0100000000000000000000000002815260140191505060405180910390206000604051602001526040518263ffffffff167c0100000000000000000000000000000000000000000000000000000000028152600401808260001916600019168152602001915050602060405180830381600087803b151561222d57600080fd5b6102c65a03f1151561223e57600080fd5b505050604051805190509050919050565b6000600160009054906101000a900473ffffffffffffffffffffffffffffffffffffffff1673ffffffffffffffffffffffffffffffffffffffff16637a0e03ec8360405180807f757365722f737461747573000000000000000000000000000000000000000000815250600b018273ffffffffffffffffffffffffffffffffffffffff1673ffffffffffffffffffffffffffffffffffffffff166c0100000000000000000000000002815260140191505060405180910390206000604051602001526040518263ffffffff167c0100000000000000000000000000000000000000000000000000000000028152600401808260001916600019168152602001915050602060405180830381600087803b151561236a57600080fd5b6102c65a03f1151561237b57600080fd5b505050604051805190509050919050565b60008273ffffffffffffffffffffffffffffffffffffffff1663bdc963d8836040518082805190602001908083835b6020831015156123e057805182526020820191506020810190506020830392506123bb565b6001836020036101000a03801982511681845116808217855250505050505090500191505060405180910390206000604051602001526040518263ffffffff167c0100000000000000000000000000000000000000000000000000000000028152600401808260001916600019168152602001915050602060405180830381600087803b151561246f57600080fd5b6102c65a03f1151561248057600080fd5b50505060405180519050905092915050565b8273ffffffffffffffffffffffffffffffffffffffff16630bd851588260405180807f7363616e2d726571756573742f73746174757300000000000000000000000000815250601301828152602001915050604051809103902060016040518363ffffffff167c01000000000000000000000000000000000000000000000000000000000281526004018083600019166000191681526020018260ff16815260200192505050600060405180830381600087803b151561255157600080fd5b6102c65a03f1151561256257600080fd5b5050508273ffffffffffffffffffffffffffffffffffffffff16633562fd208260405180807f7363616e2d726571756573742f637265617465642d6f6e0000000000000000008152506017018281526020019150506040518091039020426040518363ffffffff167c010000000000000000000000000000000000000000000000000000000002815260040180836000191660001916815260200182815260200192505050600060405180830381600087803b151561262057600080fd5b6102c65a03f1151561263157600080fd5b5050508273ffffffffffffffffffffffffffffffffffffffff16633562fd208260405180807f7363616e2d726571756573742f7363616e2d73657276696365000000000000008152506019018281526020019150506040518091039020846040518363ffffffff167c010000000000000000000000000000000000000000000000000000000002815260040180836000191660001916815260200182815260200192505050600060405180830381600087803b15156126ef57600080fd5b6102c65a03f1151561270057600080fd5b505050612779836040805190810160405280600c81526020017f7363616e2d7265717565737400000000000000000000000000000000000000008152506040805190810160405280601381526020017f7363616e2d72657175657374732d636f756e740000000000000000000000000081525084613a39565b6127f083836040805190810160405280601981526020017f7363616e2d736572766963652f7363616e2d72657175657374000000000000008152506040805190810160405280602081526020017f7363616e2d736572766963652f7363616e2d72657175657374732d636f756e7481525085613d33565b505050565b61286c87876040805190810160405280601481526020017f70617469656e742f7363616e2d726571756573740000000000000000000000008152506040805190810160405280601b81526020017f70617469656e742f7363616e2d72657175657374732d636f756e74000000000081525089613f4d565b8673ffffffffffffffffffffffffffffffffffffffff16635a2bf25a8660405180807f7363616e2d726571756573742f70617469656e740000000000000000000000008152506014018281526020019150506040518091039020886040518363ffffffff167c01000000000000000000000000000000000000000000000000000000000281526004018083600019166000191681526020018273ffffffffffffffffffffffffffffffffffffffff1673ffffffffffffffffffffffffffffffffffffffff16815260200192505050600060405180830381600087803b151561295357600080fd5b6102c65a03f1151561296457600080fd5b5050508673ffffffffffffffffffffffffffffffffffffffff166325cf512d8660405180807f7363616e2d726571756573742f6170706f696e746d656e742d64617465000000815250601d018281526020019150506040518091039020866040518363ffffffff167c0100000000000000000000000000000000000000000000000000000000028152600401808360001916600019168152602001826000191660001916815260200192505050600060405180830381600087803b1515612a2a57600080fd5b6102c65a03f11515612a3b57600080fd5b5050508673ffffffffffffffffffffffffffffffffffffffff166325cf512d8660405180807f7363616e2d726571756573742f6170706f696e746d656e742d74696d65000000815250601d018281526020019150506040518091039020856040518363ffffffff167c0100000000000000000000000000000000000000000000000000000000028152600401808360001916600019168152602001826000191660001916815260200192505050600060405180830381600087803b1515612b0157600080fd5b6102c65a03f11515612b1257600080fd5b5050508673ffffffffffffffffffffffffffffffffffffffff1663f58660668660405180807f7363616e2d726571756573742f6170706f696e746d656e742d696e737572616e81526020017f63650000000000000000000000000000000000000000000000000000000000008152506022018281526020019150506040518091039020846040518363ffffffff167c010000000000000000000000000000000000000000000000000000000002815260040180836000191660001916815260200180602001828103825283818151815260200191508051906020019080838360005b83811015612c0f578082015181840152602081019050612bf4565b50505050905090810190601f168015612c3c5780820380516001836020036101000a031916815260200191505b509350505050600060405180830381600087803b1515612c5b57600080fd5b6102c65a03f11515612c6c57600080fd5b5050508673ffffffffffffffffffffffffffffffffffffffff1663f58660668660405180807f7363616e2d726571756573742f6170706f696e746d656e742d636f6d6d656e748152506020018281526020019150506040518091039020836040518363ffffffff167c010000000000000000000000000000000000000000000000000000000002815260040180836000191660001916815260200180602001828103825283818151815260200191508051906020019080838360005b83811015612d43578082015181840152602081019050612d28565b50505050905090810190601f168015612d705780820380516001836020036101000a031916815260200191505b509350505050600060405180830381600087803b1515612d8f57600080fd5b6102c65a03f11515612da057600080fd5b50505050505050505050565b60008273ffffffffffffffffffffffffffffffffffffffff161415612ea4578273ffffffffffffffffffffffffffffffffffffffff16633eba9ed28260405180807f7363616e2d726571756573742f69732d67656e6572616c3f0000000000000000815250601801828152602001915050604051809103902060016040518363ffffffff167c01000000000000000000000000000000000000000000000000000000000281526004018083600019166000191681526020018215151515815260200192505050600060405180830381600087803b1515612e8b57600080fd5b6102c65a03f11515612e9c57600080fd5b5050506130eb565b8273ffffffffffffffffffffffffffffffffffffffff16633eba9ed28260405180807f7363616e2d726571756573742f69732d67656e6572616c3f0000000000000000815250601801828152602001915050604051809103902060006040518363ffffffff167c01000000000000000000000000000000000000000000000000000000000281526004018083600019166000191681526020018215151515815260200192505050600060405180830381600087803b1515612f6457600080fd5b6102c65a03f11515612f7557600080fd5b5050508273ffffffffffffffffffffffffffffffffffffffff16635a2bf25a8260405180807f7363616e2d726571756573742f64656e746973740000000000000000000000008152506014018281526020019150506040518091039020846040518363ffffffff167c01000000000000000000000000000000000000000000000000000000000281526004018083600019166000191681526020018273ffffffffffffffffffffffffffffffffffffffff1673ffffffffffffffffffffffffffffffffffffffff16815260200192505050600060405180830381600087803b151561305f57600080fd5b6102c65a03f1151561307057600080fd5b5050506130ea83836040805190810160405280601481526020017f64656e746973742f7363616e2d726571756573740000000000000000000000008152506040805190810160405280601b81526020017f64656e746973742f7363616e2d72657175657374732d636f756e74000000000081525085613f4d565b5b505050565b8373ffffffffffffffffffffffffffffffffffffffff16630bd851588260405180807f7363616e2d6170706c69636174696f6e2f737461747573000000000000000000815250601701828152602001915050604051809103902060016040518363ffffffff167c01000000000000000000000000000000000000000000000000000000000281526004018083600019166000191681526020018260ff16815260200192505050600060405180830381600087803b15156131af57600080fd5b6102c65a03f115156131c057600080fd5b5050508373ffffffffffffffffffffffffffffffffffffffff16633562fd208260405180807f7363616e2d6170706c69636174696f6e2f637265617465642d6f6e0000000000815250601b018281526020019150506040518091039020426040518363ffffffff167c010000000000000000000000000000000000000000000000000000000002815260040180836000191660001916815260200182815260200192505050600060405180830381600087803b151561327e57600080fd5b6102c65a03f1151561328f57600080fd5b5050508373ffffffffffffffffffffffffffffffffffffffff16633562fd208260405180807f7363616e2d6170706c69636174696f6e2f7363616e2d72657175657374000000815250601d018281526020019150506040518091039020846040518363ffffffff167c010000000000000000000000000000000000000000000000000000000002815260040180836000191660001916815260200182815260200192505050600060405180830381600087803b151561334d57600080fd5b6102c65a03f1151561335e57600080fd5b5050508373ffffffffffffffffffffffffffffffffffffffff16633562fd208260405180807f7363616e2d6170706c69636174696f6e2f7363616e2d73657276696365000000815250601d018281526020019150506040518091039020856040518363ffffffff167c010000000000000000000000000000000000000000000000000000000002815260040180836000191660001916815260200182815260200192505050600060405180830381600087803b151561341c57600080fd5b6102c65a03f1151561342d57600080fd5b5050506134a6846040805190810160405280601081526020017f7363616e2d6170706c69636174696f6e000000000000000000000000000000008152506040805190810160405280601781526020017f7363616e2d6170706c69636174696f6e732d636f756e7400000000000000000081525084613a39565b61354484836040805190810160405280601d81526020017f7363616e2d726571756573742f7363616e2d6170706c69636174696f6e000000815250606060405190810160405280602481526020017f7363616e2d726571756573742f7363616e2d6170706c69636174696f6e732d6381526020017f6f756e740000000000000000000000000000000000000000000000000000000081525085613d33565b50505050565b8573ffffffffffffffffffffffffffffffffffffffff16633562fd208460405180807f7363616e2d6170706c69636174696f6e2f71756f7465000000000000000000008152506016018281526020019150506040518091039020846040518363ffffffff167c010000000000000000000000000000000000000000000000000000000002815260040180836000191660001916815260200182815260200192505050600060405180830381600087803b151561360557600080fd5b6102c65a03f1151561361657600080fd5b5050508573ffffffffffffffffffffffffffffffffffffffff1663f58660668460405180807f7363616e2d6170706c69636174696f6e2f636f6d6d656e7400000000000000008152506018018281526020019150506040518091039020836040518363ffffffff167c010000000000000000000000000000000000000000000000000000000002815260040180836000191660001916815260200180602001828103825283818151815260200191508051906020019080838360005b838110156136ed5780820151818401526020810190506136d2565b50505050905090810190601f16801561371a5780820380516001836020036101000a031916815260200191505b509350505050600060405180830381600087803b151561373957600080fd5b6102c65a03f1151561374a57600080fd5b5050508573ffffffffffffffffffffffffffffffffffffffff16635a2bf25a8460405180807f7363616e2d6170706c69636174696f6e2f64656e7469737400000000000000008152506018018281526020019150506040518091039020876040518363ffffffff167c01000000000000000000000000000000000000000000000000000000000281526004018083600019166000191681526020018273ffffffffffffffffffffffffffffffffffffffff1673ffffffffffffffffffffffffffffffffffffffff16815260200192505050600060405180830381600087803b151561383457600080fd5b6102c65a03f1151561384557600080fd5b5050508573ffffffffffffffffffffffffffffffffffffffff16635a2bf25a8460405180807f7363616e2d6170706c69636174696f6e2f70617469656e7400000000000000008152506018018281526020019150506040518091039020866040518363ffffffff167c01000000000000000000000000000000000000000000000000000000000281526004018083600019166000191681526020018273ffffffffffffffffffffffffffffffffffffffff1673ffffffffffffffffffffffffffffffffffffffff16815260200192505050600060405180830381600087803b151561392f57600080fd5b6102c65a03f1151561394057600080fd5b5050506139ba86866040805190810160405280601881526020017f64656e746973742f7363616e2d6170706c69636174696f6e00000000000000008152506040805190810160405280601f81526020017f64656e746973742f7363616e2d6170706c69636174696f6e732d636f756e740081525087613f4d565b613a3186856040805190810160405280601881526020017f70617469656e742f7363616e2d6170706c69636174696f6e00000000000000008152506040805190810160405280601f81526020017f70617469656e742f7363616e2d6170706c69636174696f6e732d636f756e740081525087613f4d565b505050505050565b60008473ffffffffffffffffffffffffffffffffffffffff1663bdc963d8846040518082805190602001908083835b602083101515613a8d5780518252602082019150602081019050602083039250613a68565b6001836020036101000a03801982511681845116808217855250505050505090500191505060405180910390206000604051602001526040518263ffffffff167c0100000000000000000000000000000000000000000000000000000000028152600401808260001916600019168152602001915050602060405180830381600087803b1515613b1c57600080fd5b6102c65a03f11515613b2d57600080fd5b5050506040518051905090508473ffffffffffffffffffffffffffffffffffffffff16633562fd2085836040518083805190602001908083835b602083101515613b8c5780518252602082019150602081019050602083039250613b67565b6001836020036101000a038019825116818451168082178552505050505050905001828152602001925050506040518091039020846040518363ffffffff167c010000000000000000000000000000000000000000000000000000000002815260040180836000191660001916815260200182815260200192505050600060405180830381600087803b1515613c2157600080fd5b6102c65a03f11515613c3257600080fd5b5050508473ffffffffffffffffffffffffffffffffffffffff16633562fd20846040518082805190602001908083835b602083101515613c875780518252602082019150602081019050602083039250613c62565b6001836020036101000a0380198251168184511680821785525050505050509050019150506040518091039020600184016040518363ffffffff167c010000000000000000000000000000000000000000000000000000000002815260040180836000191660001916815260200182815260200192505050600060405180830381600087803b1515613d1857600080fd5b6102c65a03f11515613d2957600080fd5b5050505050505050565b6000613d408686856141dd565b90508573ffffffffffffffffffffffffffffffffffffffff16633562fd208587846040518084805190602001908083835b602083101515613d965780518252602082019150602081019050602083039250613d71565b6001836020036101000a03801982511681845116808217855250505050505090500183815260200182815260200193505050506040518091039020846040518363ffffffff167c010000000000000000000000000000000000000000000000000000000002815260040180836000191660001916815260200182815260200192505050600060405180830381600087803b1515613e3257600080fd5b6102c65a03f11515613e4357600080fd5b5050508573ffffffffffffffffffffffffffffffffffffffff16633562fd2084876040518083805190602001908083835b602083101515613e995780518252602082019150602081019050602083039250613e74565b6001836020036101000a038019825116818451168082178552505050505050905001828152602001925050506040518091039020600184016040518363ffffffff167c010000000000000000000000000000000000000000000000000000000002815260040180836000191660001916815260200182815260200192505050600060405180830381600087803b1515613f3157600080fd5b6102c65a03f11515613f4257600080fd5b505050505050505050565b6000613f5a8686856142ec565b90508573ffffffffffffffffffffffffffffffffffffffff16633562fd208587846040518084805190602001908083835b602083101515613fb05780518252602082019150602081019050602083039250613f8b565b6001836020036101000a0380198251168184511680821785525050505050509050018373ffffffffffffffffffffffffffffffffffffffff1673ffffffffffffffffffffffffffffffffffffffff166c0100000000000000000000000002815260140182815260200193505050506040518091039020846040518363ffffffff167c010000000000000000000000000000000000000000000000000000000002815260040180836000191660001916815260200182815260200192505050600060405180830381600087803b151561408757600080fd5b6102c65a03f1151561409857600080fd5b5050508573ffffffffffffffffffffffffffffffffffffffff16633562fd2084876040518083805190602001908083835b6020831015156140ee57805182526020820191506020810190506020830392506140c9565b6001836020036101000a0380198251168184511680821785525050505050509050018273ffffffffffffffffffffffffffffffffffffffff1673ffffffffffffffffffffffffffffffffffffffff166c01000000000000000000000000028152601401925050506040518091039020600184016040518363ffffffff167c010000000000000000000000000000000000000000000000000000000002815260040180836000191660001916815260200182815260200192505050600060405180830381600087803b15156141c157600080fd5b6102c65a03f115156141d257600080fd5b505050505050505050565b60008373ffffffffffffffffffffffffffffffffffffffff1663bdc963d883856040518083805190602001908083835b602083101515614232578051825260208201915060208101905060208303925061420d565b6001836020036101000a0380198251168184511680821785525050505050509050018281526020019250505060405180910390206000604051602001526040518263ffffffff167c0100000000000000000000000000000000000000000000000000000000028152600401808260001916600019168152602001915050602060405180830381600087803b15156142c857600080fd5b6102c65a03f115156142d957600080fd5b5050506040518051905090509392505050565b60008373ffffffffffffffffffffffffffffffffffffffff1663bdc963d883856040518083805190602001908083835b602083101515614341578051825260208201915060208101905060208303925061431c565b6001836020036101000a0380198251168184511680821785525050505050509050018273ffffffffffffffffffffffffffffffffffffffff1673ffffffffffffffffffffffffffffffffffffffff166c010000000000000000000000000281526014019250505060405180910390206000604051602001526040518263ffffffff167c0100000000000000000000000000000000000000000000000000000000028152600401808260001916600019168152602001915050602060405180830381600087803b151561441257600080fd5b6102c65a03f1151561442357600080fd5b50505060405180519050905093925050505600a165627a7a723058205ad6fb09d0e7612c655adecae9f1a0da730a6b8315462f69d47f35e501ccf5690029",
  "source": "pragma solidity 0.4.18;\nimport \"./Restrictor.sol\";\nimport \"../lib/odll/userManager.sol\";\n\ncontract ScanRequestWriter is Restrictor {\n  function ScanRequestWriter(address _dbAddress) public {\n    require(_dbAddress != 0x0);\n    dbAddress = _dbAddress;\n  }\n\n  // Scan Request\n  function writeScanRequest (\n    address dentistId,\n    uint scanAppointmentId,\n    bytes32 appointmentDate,\n    bytes32 scanTime,\n    string scanInsurance,\n    string comment\n  )\n    external\n    onlyPermittedSmartContract\n  {\n    userManager.writePatientScanRequest(dbAddress, dentistId, msg.sender, scanAppointmentId, appointmentDate, scanTime, scanInsurance, comment);\n  }\n\n  function cancelScanRequest (\n    uint scanRequestId\n  )\n    external\n    onlyPermittedSmartContract\n  {\n    userManager.cancelPatientScanRequest(dbAddress, msg.sender, scanRequestId);\n  }\n\n  function expireScanRequest (\n    uint scanRequestId\n  )\n    external\n    onlyPermittedSmartContract\n  {\n    userManager.expirePatientScanRequest(dbAddress, scanRequestId);\n  }\n\n  function acceptScanRequest (\n    address patientId,\n    uint scanRequestId,\n    uint quote,\n    string comment\n  )\n    external\n    onlyPermittedSmartContract\n  {\n    userManager.acceptPatientScanRequest(dbAddress, msg.sender, patientId, scanRequestId, quote, comment);\n  }\n\n  function rejectScanRequest (\n    address patientId,\n    uint scanRequestId\n  )\n    external\n    onlyPermittedSmartContract\n  {\n    userManager.rejectPatientScanRequest(dbAddress, msg.sender, patientId, scanRequestId);\n  }\n}\n",
  "sourcePath": "/Users/danielokwufulueze/dev/vue/apps/oraldatalink/contracts/odll/ScanRequestWriter.sol",
  "compiler": {
    "name": "solc",
    "version": "0.4.18+commit.9cf6e910.Emscripten.clang"
  },
  "schemaVersion": "1.0.1",
  "updatedAt": "2018-01-13T20:39:45.840Z"
}