{
  "contractName": "ScanRequestReader",
  "abi": [
    {
      "constant": true,
      "inputs": [
        {
          "name": "dentistId",
          "type": "address"
        },
        {
          "name": "offset",
          "type": "uint256"
        },
        {
          "name": "limit",
          "type": "uint256"
        },
        {
          "name": "seed",
          "type": "uint256"
        }
      ],
      "name": "fetchAcceptedScanRequestsForDentist",
      "outputs": [
        {
          "name": "",
          "type": "uint256"
        },
        {
          "name": "",
          "type": "uint256[]"
        }
      ],
      "payable": false,
      "stateMutability": "view",
      "type": "function"
    },
    {
      "constant": true,
      "inputs": [
        {
          "name": "patientId",
          "type": "address"
        },
        {
          "name": "offset",
          "type": "uint256"
        },
        {
          "name": "limit",
          "type": "uint256"
        },
        {
          "name": "seed",
          "type": "uint256"
        }
      ],
      "name": "fetchScanRequestsForPatient",
      "outputs": [
        {
          "name": "",
          "type": "uint256"
        },
        {
          "name": "",
          "type": "uint256[]"
        }
      ],
      "payable": false,
      "stateMutability": "view",
      "type": "function"
    },
    {
      "constant": true,
      "inputs": [],
      "name": "smartContractStatus",
      "outputs": [
        {
          "name": "",
          "type": "uint8"
        }
      ],
      "payable": false,
      "stateMutability": "view",
      "type": "function"
    },
    {
      "constant": true,
      "inputs": [
        {
          "name": "offset",
          "type": "uint256"
        },
        {
          "name": "limit",
          "type": "uint256"
        },
        {
          "name": "seed",
          "type": "uint256"
        }
      ],
      "name": "fetchAllScanRequests",
      "outputs": [
        {
          "name": "",
          "type": "uint256"
        },
        {
          "name": "",
          "type": "uint256[]"
        }
      ],
      "payable": false,
      "stateMutability": "view",
      "type": "function"
    },
    {
      "constant": true,
      "inputs": [],
      "name": "owner",
      "outputs": [
        {
          "name": "",
          "type": "address"
        }
      ],
      "payable": false,
      "stateMutability": "view",
      "type": "function"
    },
    {
      "constant": true,
      "inputs": [],
      "name": "dbAddress",
      "outputs": [
        {
          "name": "",
          "type": "address"
        }
      ],
      "payable": false,
      "stateMutability": "view",
      "type": "function"
    },
    {
      "constant": true,
      "inputs": [
        {
          "name": "dbAddress",
          "type": "address"
        },
        {
          "name": "dentistId",
          "type": "address"
        },
        {
          "name": "offset",
          "type": "uint256"
        },
        {
          "name": "limit",
          "type": "uint256"
        },
        {
          "name": "seed",
          "type": "uint256"
        }
      ],
      "name": "fetchDirectScanRequestsForDentist",
      "outputs": [
        {
          "name": "",
          "type": "uint256"
        },
        {
          "name": "",
          "type": "uint256[]"
        }
      ],
      "payable": false,
      "stateMutability": "view",
      "type": "function"
    },
    {
      "constant": true,
      "inputs": [
        {
          "name": "patientId",
          "type": "address"
        },
        {
          "name": "offset",
          "type": "uint256"
        },
        {
          "name": "limit",
          "type": "uint256"
        },
        {
          "name": "seed",
          "type": "uint256"
        }
      ],
      "name": "fetchAcceptedScanRequestsForPatient",
      "outputs": [
        {
          "name": "",
          "type": "uint256"
        },
        {
          "name": "",
          "type": "uint256[]"
        }
      ],
      "payable": false,
      "stateMutability": "view",
      "type": "function"
    },
    {
      "constant": false,
      "inputs": [
        {
          "name": "newOwner",
          "type": "address"
        }
      ],
      "name": "transferOwnership",
      "outputs": [],
      "payable": false,
      "stateMutability": "nonpayable",
      "type": "function"
    },
    {
      "inputs": [
        {
          "name": "_dbAddress",
          "type": "address"
        }
      ],
      "payable": false,
      "stateMutability": "nonpayable",
      "type": "constructor"
    },
    {
      "anonymous": false,
      "inputs": [
        {
          "indexed": false,
          "name": "status",
          "type": "uint8"
        }
      ],
      "name": "OnSmartContractStatusSet",
      "type": "event"
    },
    {
      "anonymous": false,
      "inputs": [
        {
          "indexed": true,
          "name": "previousOwner",
          "type": "address"
        },
        {
          "indexed": true,
          "name": "newOwner",
          "type": "address"
        }
      ],
      "name": "OwnershipTransferred",
      "type": "event"
    }
  ],
  "bytecode": "0x6060604052341561000f57600080fd5b60405160208061190c83398101604052808051906020019091905050336000806101000a81548173ffffffffffffffffffffffffffffffffffffffff021916908373ffffffffffffffffffffffffffffffffffffffff16021790555060008173ffffffffffffffffffffffffffffffffffffffff161415151561009157600080fd5b80600160006101000a81548173ffffffffffffffffffffffffffffffffffffffff021916908373ffffffffffffffffffffffffffffffffffffffff1602179055505061182a806100e26000396000f300606060405260043610610099576000357c0100000000000000000000000000000000000000000000000000000000900463ffffffff16806312d7636f1461009e578063355ad8851461014e5780634c8ddddc146101fe578063610f2edc1461022d5780638da5cb5b146102be57806391e06b6d146103135780639224549c14610368578063c13b215b14610437578063f2fde38b146104e7575b600080fd5b34156100a957600080fd5b6100f0600480803573ffffffffffffffffffffffffffffffffffffffff16906020019091908035906020019091908035906020019091908035906020019091905050610520565b6040518083815260200180602001828103825283818151815260200191508051906020019060200280838360005b8381101561013957808201518184015260208101905061011e565b50505050905001935050505060405180910390f35b341561015957600080fd5b6101a0600480803573ffffffffffffffffffffffffffffffffffffffff16906020019091908035906020019091908035906020019091908035906020019091905050610566565b6040518083815260200180602001828103825283818151815260200191508051906020019060200280838360005b838110156101e95780820151818401526020810190506101ce565b50505050905001935050505060405180910390f35b341561020957600080fd5b6102116105ac565b604051808260ff1660ff16815260200191505060405180910390f35b341561023857600080fd5b61026060048080359060200190919080359060200190919080359060200190919050506105bf565b6040518083815260200180602001828103825283818151815260200191508051906020019060200280838360005b838110156102a957808201518184015260208101905061028e565b50505050905001935050505060405180910390f35b34156102c957600080fd5b6102d1610603565b604051808273ffffffffffffffffffffffffffffffffffffffff1673ffffffffffffffffffffffffffffffffffffffff16815260200191505060405180910390f35b341561031e57600080fd5b610326610628565b604051808273ffffffffffffffffffffffffffffffffffffffff1673ffffffffffffffffffffffffffffffffffffffff16815260200191505060405180910390f35b341561037357600080fd5b6103d9600480803573ffffffffffffffffffffffffffffffffffffffff1690602001909190803573ffffffffffffffffffffffffffffffffffffffff1690602001909190803590602001909190803590602001909190803590602001909190505061064e565b6040518083815260200180602001828103825283818151815260200191508051906020019060200280838360005b83811015610422578082015181840152602081019050610407565b50505050905001935050505060405180910390f35b341561044257600080fd5b610489600480803573ffffffffffffffffffffffffffffffffffffffff16906020019091908035906020019091908035906020019091908035906020019091905050610673565b6040518083815260200180602001828103825283818151815260200191508051906020019060200280838360005b838110156104d25780820151818401526020810190506104b7565b50505050905001935050505060405180910390f35b34156104f257600080fd5b61051e600480803573ffffffffffffffffffffffffffffffffffffffff169060200190919050506106b9565b005b600061052a6117ea565b610559600160009054906101000a900473ffffffffffffffffffffffffffffffffffffffff168787878761080e565b9150915094509492505050565b60006105706117ea565b61059f600160009054906101000a900473ffffffffffffffffffffffffffffffffffffffff1687878787610842565b9150915094509492505050565b600160149054906101000a900460ff1681565b60006105c96117ea565b6105f7600160009054906101000a900473ffffffffffffffffffffffffffffffffffffffff16868686610876565b91509150935093915050565b6000809054906101000a900473ffffffffffffffffffffffffffffffffffffffff1681565b600160009054906101000a900473ffffffffffffffffffffffffffffffffffffffff1681565b60006106586117ea565b61066587878787876108a8565b915091509550959350505050565b600061067d6117ea565b6106ac600160009054906101000a900473ffffffffffffffffffffffffffffffffffffffff16878787876108dc565b9150915094509492505050565b6000809054906101000a900473ffffffffffffffffffffffffffffffffffffffff1673ffffffffffffffffffffffffffffffffffffffff163373ffffffffffffffffffffffffffffffffffffffff1614151561071457600080fd5b600073ffffffffffffffffffffffffffffffffffffffff168173ffffffffffffffffffffffffffffffffffffffff161415151561075057600080fd5b8073ffffffffffffffffffffffffffffffffffffffff166000809054906101000a900473ffffffffffffffffffffffffffffffffffffffff1673ffffffffffffffffffffffffffffffffffffffff167f8be0079c531659141344cd1fd0a4f28419497f9722a3daafe3b4186f6b6457e060405160405180910390a3806000806101000a81548173ffffffffffffffffffffffffffffffffffffffff021916908373ffffffffffffffffffffffffffffffffffffffff16021790555050565b60006108186117ea565b6108228787610910565b905061083081868686610b06565b80925081935050509550959350505050565b600061084c6117ea565b6108568787610b76565b905061086481868686610b06565b80925081935050509550959350505050565b60006108806117ea565b61088986610bfc565b905061089781868686610b06565b809250819350505094509492505050565b60006108b26117ea565b6108bc8787610df1565b90506108ca81868686610b06565b80925081935050509550959350505050565b60006108e66117ea565b6108f08787610e77565b90506108fe81868686610b06565b80925081935050509550959350505050565b6109186117ea565b6109206117ea565b600080600061099a876040805190810160405280601481526020017f64656e746973742f7363616e2d726571756573740000000000000000000000008152506040805190810160405280601b81526020017f64656e746973742f7363616e2d72657175657374732d636f756e74000000000081525061108d565b935083519250826040518059106109ae5750595b9080825280602002602001820160405250945060009150600090505b82811015610af0578673ffffffffffffffffffffffffffffffffffffffff166317e7dd2260405180807f7363616e2d726571756573742f69732d61636365707465643f00000000000000815250601901905060405180910390206000604051602001526040518263ffffffff167c0100000000000000000000000000000000000000000000000000000000028152600401808260001916600019168152602001915050602060405180830381600087803b1515610a8657600080fd5b6102c65a03f11515610a9757600080fd5b5050506040518051905015610ae3578381815181101515610ab457fe5b906020019060200201518583815181101515610acc57fe5b906020019060200201818152505081806001019250505b80806001019150506109ca565b610afa82866112fd565b94505050505092915050565b6000610b106117ea565b85519150600086511115610b6c578551851115610b3c5781610b336000886112fd565b91509150610b6d565b85518486011115610b4e578486510393505b610b69868751878601811515610b6057fe5b06866001611392565b90505b5b94509492505050565b610b7e6117ea565b610bf483836040805190810160405280601481526020017f70617469656e742f7363616e2d726571756573740000000000000000000000008152506040805190810160405280601b81526020017f70617469656e742f7363616e2d72657175657374732d636f756e7400000000008152506114dd565b905092915050565b610c046117ea565b610c0c6117ea565b6000806000610c86866040805190810160405280601481526020017f70617469656e742f7363616e2d726571756573740000000000000000000000008152506040805190810160405280601b81526020017f70617469656e742f7363616e2d72657175657374732d636f756e74000000000081525061108d565b93508351925082604051805910610c9a5750595b9080825280602002602001820160405250945060009150600090505b82811015610ddc578573ffffffffffffffffffffffffffffffffffffffff166317e7dd2260405180807f7363616e2d726571756573742f69732d67656e6572616c3f0000000000000000815250601801905060405180910390206000604051602001526040518263ffffffff167c0100000000000000000000000000000000000000000000000000000000028152600401808260001916600019168152602001915050602060405180830381600087803b1515610d7257600080fd5b6102c65a03f11515610d8357600080fd5b5050506040518051905015610dcf578381815181101515610da057fe5b906020019060200201518583815181101515610db857fe5b906020019060200201818152505081806001019250505b8080600101915050610cb6565b610de682866112fd565b945050505050919050565b610df96117ea565b610e6f83836040805190810160405280601481526020017f64656e746973742f7363616e2d726571756573740000000000000000000000008152506040805190810160405280601b81526020017f64656e746973742f7363616e2d72657175657374732d636f756e7400000000008152506114dd565b905092915050565b610e7f6117ea565b610e876117ea565b6000806000610f0287876040805190810160405280601481526020017f70617469656e742f7363616e2d726571756573740000000000000000000000008152506040805190810160405280601b81526020017f70617469656e742f7363616e2d72657175657374732d636f756e7400000000008152506114dd565b93508351925082604051805910610f165750595b9080825280602002602001820160405250945060009150600090505b82811015611077578673ffffffffffffffffffffffffffffffffffffffff166317e7dd228583815181101515610f6457fe5b9060200190602002015160405180807f7363616e2d726571756573742f69732d61636365707465643f0000000000000081525060190182815260200191505060405180910390206000604051602001526040518263ffffffff167c0100000000000000000000000000000000000000000000000000000000028152600401808260001916600019168152602001915050602060405180830381600087803b151561100d57600080fd5b6102c65a03f1151561101e57600080fd5b505050604051805190501561106a57838181518110151561103b57fe5b90602001906020020151858381518110151561105357fe5b906020019060200201818152505081806001019250505b8080600101915050610f32565b61108182866112fd565b94505050505092915050565b6110956117ea565b6000808573ffffffffffffffffffffffffffffffffffffffff1663bdc963d8856040518082805190602001908083835b6020831015156110ea57805182526020820191506020810190506020830392506110c5565b6001836020036101000a03801982511681845116808217855250505050505090500191505060405180910390206000604051602001526040518263ffffffff167c0100000000000000000000000000000000000000000000000000000000028152600401808260001916600019168152602001915050602060405180830381600087803b151561117957600080fd5b6102c65a03f1151561118a57600080fd5b505050604051805190509150816040518059106111a45750595b90808252806020026020018201604052509250600090505b818110156112f1578573ffffffffffffffffffffffffffffffffffffffff1663bdc963d886836040518083805190602001908083835b60208310151561121757805182526020820191506020810190506020830392506111f2565b6001836020036101000a0380198251168184511680821785525050505050509050018281526020019250505060405180910390206000604051602001526040518263ffffffff167c0100000000000000000000000000000000000000000000000000000000028152600401808260001916600019168152602001915050602060405180830381600087803b15156112ad57600080fd5b6102c65a03f115156112be57600080fd5b5050506040518051905083828151811015156112d657fe5b906020019060200201818152505080806001019150506111bc565b82925050509392505050565b6113056117ea565b600082518411156113185782915061138b565b836040518059106113265750595b90808252806020026020018201604052509150600090505b8381101561138757828181518110151561135457fe5b90602001906020020151828281518110151561136c57fe5b9060200190602002018181525050808060010191505061133e565b8191505b5092915050565b61139a6117ea565b600080600080600093508851925082881015806113b75750600087145b156113c4578494506114d1565b866040518059106113d25750595b908082528060200260200182016040525094508791505b868801821015611449578183141561140057611449565b888281518110151561140e57fe5b90602001906020020151858581518110151561142657fe5b9060200190602002018181525050838060010194505081806001019250506113e9565b85801561145557508684105b156114c4578387039050600091505b80821115156114c3578387141561147a576114c3565b888281518110151561148857fe5b9060200190602002015185858151811015156114a057fe5b906020019060200201818152505083806001019450508180600101925050611464565b5b6114ce84866112fd565b94505b50505050949350505050565b6114e56117ea565b6000806114f38787866116a0565b9150816040518059106115035750595b90808252806020026020018201604052509250600090505b81811015611693578673ffffffffffffffffffffffffffffffffffffffff1663bdc963d88688846040518084805190602001908083835b6020831015156115775780518252602082019150602081019050602083039250611552565b6001836020036101000a0380198251168184511680821785525050505050509050018373ffffffffffffffffffffffffffffffffffffffff1673ffffffffffffffffffffffffffffffffffffffff166c01000000000000000000000000028152601401828152602001935050505060405180910390206000604051602001526040518263ffffffff167c0100000000000000000000000000000000000000000000000000000000028152600401808260001916600019168152602001915050602060405180830381600087803b151561164f57600080fd5b6102c65a03f1151561166057600080fd5b50505060405180519050838281518110151561167857fe5b9060200190602002018181525050808060010191505061151b565b8292505050949350505050565b60008373ffffffffffffffffffffffffffffffffffffffff1663bdc963d883856040518083805190602001908083835b6020831015156116f557805182526020820191506020810190506020830392506116d0565b6001836020036101000a0380198251168184511680821785525050505050509050018273ffffffffffffffffffffffffffffffffffffffff1673ffffffffffffffffffffffffffffffffffffffff166c010000000000000000000000000281526014019250505060405180910390206000604051602001526040518263ffffffff167c0100000000000000000000000000000000000000000000000000000000028152600401808260001916600019168152602001915050602060405180830381600087803b15156117c657600080fd5b6102c65a03f115156117d757600080fd5b5050506040518051905090509392505050565b6020604051908101604052806000815250905600a165627a7a72305820fc464a113e164552f8bdbf86d808913f2a7267a0e2de11b8ed80c525f2d137e60029",
  "source": "pragma solidity 0.4.18;\n\nimport \"./Restrictor.sol\";\nimport \"../lib/odll/userManager.sol\";\n\ncontract ScanRequestReader is Restrictor {\n\n  function ScanRequestReader (address _dbAddress) public {\n    require(_dbAddress != 0x0);\n    dbAddress = _dbAddress;\n  }\n\n  function fetchScanRequestsForPatient (\n    address patientId,\n    uint offset, // starting from offset: 0-based\n    uint limit, // not more than limit\n    uint seed // seed value to give the illusion of randomisation\n  )\n    external\n    view\n    returns (\n      uint,\n      uint[]\n    )\n  {\n    return userManager.fetchScanRequestsForPatient(dbAddress, patientId, offset, limit, seed);\n  }\n\n  function fetchAcceptedScanRequestsForPatient (\n    address patientId,\n    uint offset, // starting from offset: 0-based\n    uint limit, // not more than limit\n    uint seed // seed value to give the illusion of randomisation\n  )\n    external\n    view\n    returns (\n      uint,\n      uint[]\n    )\n  {\n    return userManager.fetchAcceptedScanRequestsForPatient(dbAddress, patientId, offset, limit, seed);\n  }\n\n  function fetchAllScanRequests (\n    uint offset, // starting from offset: 0-based\n    uint limit, // not more than limit\n    uint seed // seed value to give the illusion of randomisation\n  )\n    external\n    view\n    returns (\n      uint,\n      uint[]\n    )\n  {\n    return userManager.fetchAllScanRequests(dbAddress, offset, limit, seed);\n  }\n\n  function fetchDirectScanRequestsForDentist (\n    address dbAddress,\n    address dentistId,\n    uint offset, // starting from offset: 0-based\n    uint limit, // not more than limit\n    uint seed // seed value to give the illusion of randomisation\n  )\n    external\n    view\n    returns(\n      uint,\n      uint[]\n    )\n  {\n    return userManager.fetchDirectScanRequestsForDentist(dbAddress, dentistId, offset, limit, seed);\n  }\n\n  function fetchAcceptedScanRequestsForDentist (\n    address dentistId,\n    uint offset, // starting from offset: 0-based\n    uint limit, // not more than limit\n    uint seed // seed value to give the illusion of randomisation\n  )\n    external\n    view\n    returns (\n      uint,\n      uint[]\n    )\n  {\n    return userManager.fetchAcceptedScanRequestsForDentist(dbAddress, dentistId, offset, limit, seed);\n  }\n}\n",
  "sourcePath": "/home/daniel/dev/vue/apps/oral-data-link/contracts/odll/ScanRequestReader.sol",
  "compiler": {
    "name": "solc",
    "version": "0.4.18+commit.9cf6e910.Emscripten.clang"
  },
  "schemaVersion": "1.0.1",
  "updatedAt": "2017-11-09T14:19:39.754Z"
}