{
  "contractName": "ScanRequestReader",
  "abi": [
    {
      "constant": true,
      "inputs": [
        {
          "name": "dentistId",
          "type": "address"
        },
        {
          "name": "offset",
          "type": "uint256"
        },
        {
          "name": "limit",
          "type": "uint256"
        },
        {
          "name": "seed",
          "type": "uint256"
        }
      ],
      "name": "fetchAcceptedScanRequestsForDentist",
      "outputs": [
        {
          "name": "",
          "type": "uint256"
        },
        {
          "name": "",
          "type": "uint256[]"
        }
      ],
      "payable": false,
      "stateMutability": "view",
      "type": "function"
    },
    {
      "constant": true,
      "inputs": [
        {
          "name": "patientId",
          "type": "address"
        },
        {
          "name": "offset",
          "type": "uint256"
        },
        {
          "name": "limit",
          "type": "uint256"
        },
        {
          "name": "seed",
          "type": "uint256"
        }
      ],
      "name": "fetchScanRequestsForPatient",
      "outputs": [
        {
          "name": "",
          "type": "uint256"
        },
        {
          "name": "",
          "type": "uint256[]"
        }
      ],
      "payable": false,
      "stateMutability": "view",
      "type": "function"
    },
    {
      "constant": true,
      "inputs": [],
      "name": "smartContractStatus",
      "outputs": [
        {
          "name": "",
          "type": "uint8"
        }
      ],
      "payable": false,
      "stateMutability": "view",
      "type": "function"
    },
    {
      "constant": true,
      "inputs": [
        {
          "name": "offset",
          "type": "uint256"
        },
        {
          "name": "limit",
          "type": "uint256"
        },
        {
          "name": "seed",
          "type": "uint256"
        }
      ],
      "name": "fetchAllScanRequests",
      "outputs": [
        {
          "name": "",
          "type": "uint256"
        },
        {
          "name": "",
          "type": "uint256[]"
        }
      ],
      "payable": false,
      "stateMutability": "view",
      "type": "function"
    },
    {
      "constant": true,
      "inputs": [],
      "name": "owner",
      "outputs": [
        {
          "name": "",
          "type": "address"
        }
      ],
      "payable": false,
      "stateMutability": "view",
      "type": "function"
    },
    {
      "constant": true,
      "inputs": [],
      "name": "dbAddress",
      "outputs": [
        {
          "name": "",
          "type": "address"
        }
      ],
      "payable": false,
      "stateMutability": "view",
      "type": "function"
    },
    {
      "constant": true,
      "inputs": [
        {
          "name": "dbAddress",
          "type": "address"
        },
        {
          "name": "dentistId",
          "type": "address"
        },
        {
          "name": "offset",
          "type": "uint256"
        },
        {
          "name": "limit",
          "type": "uint256"
        },
        {
          "name": "seed",
          "type": "uint256"
        }
      ],
      "name": "fetchDirectScanRequestsForDentist",
      "outputs": [
        {
          "name": "",
          "type": "uint256"
        },
        {
          "name": "",
          "type": "uint256[]"
        }
      ],
      "payable": false,
      "stateMutability": "view",
      "type": "function"
    },
    {
      "constant": true,
      "inputs": [
        {
          "name": "patientId",
          "type": "address"
        },
        {
          "name": "offset",
          "type": "uint256"
        },
        {
          "name": "limit",
          "type": "uint256"
        },
        {
          "name": "seed",
          "type": "uint256"
        }
      ],
      "name": "fetchAcceptedScanRequestsForPatient",
      "outputs": [
        {
          "name": "",
          "type": "uint256"
        },
        {
          "name": "",
          "type": "uint256[]"
        }
      ],
      "payable": false,
      "stateMutability": "view",
      "type": "function"
    },
    {
      "constant": false,
      "inputs": [
        {
          "name": "newOwner",
          "type": "address"
        }
      ],
      "name": "transferOwnership",
      "outputs": [],
      "payable": false,
      "stateMutability": "nonpayable",
      "type": "function"
    },
    {
      "inputs": [
        {
          "name": "_dbAddress",
          "type": "address"
        }
      ],
      "payable": false,
      "stateMutability": "nonpayable",
      "type": "constructor"
    },
    {
      "anonymous": false,
      "inputs": [
        {
          "indexed": false,
          "name": "status",
          "type": "uint8"
        }
      ],
      "name": "OnSmartContractStatusSet",
      "type": "event"
    },
    {
      "anonymous": false,
      "inputs": [
        {
          "indexed": true,
          "name": "previousOwner",
          "type": "address"
        },
        {
          "indexed": true,
          "name": "newOwner",
          "type": "address"
        }
      ],
      "name": "OwnershipTransferred",
      "type": "event"
    }
  ],
  "bytecode": "0x6060604052341561000f57600080fd5b60405160208061190d83398101604052808051906020019091905050336000806101000a81548173ffffffffffffffffffffffffffffffffffffffff021916908373ffffffffffffffffffffffffffffffffffffffff16021790555060008173ffffffffffffffffffffffffffffffffffffffff161415151561009157600080fd5b80600160006101000a81548173ffffffffffffffffffffffffffffffffffffffff021916908373ffffffffffffffffffffffffffffffffffffffff1602179055505061182b806100e26000396000f300606060405260043610610099576000357c0100000000000000000000000000000000000000000000000000000000900463ffffffff16806312d7636f1461009e578063355ad8851461014e5780634c8ddddc146101fe578063610f2edc1461022d5780638da5cb5b146102be57806391e06b6d146103135780639224549c14610368578063c13b215b14610437578063f2fde38b146104e7575b600080fd5b34156100a957600080fd5b6100f0600480803573ffffffffffffffffffffffffffffffffffffffff16906020019091908035906020019091908035906020019091908035906020019091905050610520565b6040518083815260200180602001828103825283818151815260200191508051906020019060200280838360005b8381101561013957808201518184015260208101905061011e565b50505050905001935050505060405180910390f35b341561015957600080fd5b6101a0600480803573ffffffffffffffffffffffffffffffffffffffff16906020019091908035906020019091908035906020019091908035906020019091905050610566565b6040518083815260200180602001828103825283818151815260200191508051906020019060200280838360005b838110156101e95780820151818401526020810190506101ce565b50505050905001935050505060405180910390f35b341561020957600080fd5b6102116105ac565b604051808260ff1660ff16815260200191505060405180910390f35b341561023857600080fd5b61026060048080359060200190919080359060200190919080359060200190919050506105bf565b6040518083815260200180602001828103825283818151815260200191508051906020019060200280838360005b838110156102a957808201518184015260208101905061028e565b50505050905001935050505060405180910390f35b34156102c957600080fd5b6102d1610603565b604051808273ffffffffffffffffffffffffffffffffffffffff1673ffffffffffffffffffffffffffffffffffffffff16815260200191505060405180910390f35b341561031e57600080fd5b610326610628565b604051808273ffffffffffffffffffffffffffffffffffffffff1673ffffffffffffffffffffffffffffffffffffffff16815260200191505060405180910390f35b341561037357600080fd5b6103d9600480803573ffffffffffffffffffffffffffffffffffffffff1690602001909190803573ffffffffffffffffffffffffffffffffffffffff1690602001909190803590602001909190803590602001909190803590602001909190505061064e565b6040518083815260200180602001828103825283818151815260200191508051906020019060200280838360005b83811015610422578082015181840152602081019050610407565b50505050905001935050505060405180910390f35b341561044257600080fd5b610489600480803573ffffffffffffffffffffffffffffffffffffffff16906020019091908035906020019091908035906020019091908035906020019091905050610673565b6040518083815260200180602001828103825283818151815260200191508051906020019060200280838360005b838110156104d25780820151818401526020810190506104b7565b50505050905001935050505060405180910390f35b34156104f257600080fd5b61051e600480803573ffffffffffffffffffffffffffffffffffffffff169060200190919050506106b9565b005b600061052a6117eb565b610559600160009054906101000a900473ffffffffffffffffffffffffffffffffffffffff168787878761080e565b9150915094509492505050565b60006105706117eb565b61059f600160009054906101000a900473ffffffffffffffffffffffffffffffffffffffff1687878787610842565b9150915094509492505050565b600160149054906101000a900460ff1681565b60006105c96117eb565b6105f7600160009054906101000a900473ffffffffffffffffffffffffffffffffffffffff16868686610876565b91509150935093915050565b6000809054906101000a900473ffffffffffffffffffffffffffffffffffffffff1681565b600160009054906101000a900473ffffffffffffffffffffffffffffffffffffffff1681565b60006106586117eb565b61066587878787876108a8565b915091509550959350505050565b600061067d6117eb565b6106ac600160009054906101000a900473ffffffffffffffffffffffffffffffffffffffff16878787876108dc565b9150915094509492505050565b6000809054906101000a900473ffffffffffffffffffffffffffffffffffffffff1673ffffffffffffffffffffffffffffffffffffffff163373ffffffffffffffffffffffffffffffffffffffff1614151561071457600080fd5b600073ffffffffffffffffffffffffffffffffffffffff168173ffffffffffffffffffffffffffffffffffffffff161415151561075057600080fd5b8073ffffffffffffffffffffffffffffffffffffffff166000809054906101000a900473ffffffffffffffffffffffffffffffffffffffff1673ffffffffffffffffffffffffffffffffffffffff167f8be0079c531659141344cd1fd0a4f28419497f9722a3daafe3b4186f6b6457e060405160405180910390a3806000806101000a81548173ffffffffffffffffffffffffffffffffffffffff021916908373ffffffffffffffffffffffffffffffffffffffff16021790555050565b60006108186117eb565b6108228787610910565b905061083081868686610b07565b80925081935050509550959350505050565b600061084c6117eb565b6108568787610b77565b905061086481868686610b07565b80925081935050509550959350505050565b60006108806117eb565b61088986610bfd565b905061089781868686610b07565b809250819350505094509492505050565b60006108b26117eb565b6108bc8787610df2565b90506108ca81868686610b07565b80925081935050509550959350505050565b60006108e66117eb565b6108f08787610e78565b90506108fe81868686610b07565b80925081935050509550959350505050565b6109186117eb565b6109206117eb565b600080600061099b87876040805190810160405280601481526020017f64656e746973742f7363616e2d726571756573740000000000000000000000008152506040805190810160405280601b81526020017f64656e746973742f7363616e2d72657175657374732d636f756e74000000000081525061108e565b935083519250826040518059106109af5750595b9080825280602002602001820160405250945060009150600090505b82811015610af1578673ffffffffffffffffffffffffffffffffffffffff166317e7dd2260405180807f7363616e2d726571756573742f69732d61636365707465643f00000000000000815250601901905060405180910390206000604051602001526040518263ffffffff167c0100000000000000000000000000000000000000000000000000000000028152600401808260001916600019168152602001915050602060405180830381600087803b1515610a8757600080fd5b6102c65a03f11515610a9857600080fd5b5050506040518051905015610ae4578381815181101515610ab557fe5b906020019060200201518583815181101515610acd57fe5b906020019060200201818152505081806001019250505b80806001019150506109cb565b610afb8286611251565b94505050505092915050565b6000610b116117eb565b85519150600086511115610b6d578551851115610b3d5781610b34600088611251565b91509150610b6e565b85518486011115610b4f578486510393505b610b6a868751878601811515610b6157fe5b068660016112e6565b90505b5b94509492505050565b610b7f6117eb565b610bf583836040805190810160405280601481526020017f70617469656e742f7363616e2d726571756573740000000000000000000000008152506040805190810160405280601b81526020017f70617469656e742f7363616e2d72657175657374732d636f756e74000000000081525061108e565b905092915050565b610c056117eb565b610c0d6117eb565b6000806000610c87866040805190810160405280601481526020017f70617469656e742f7363616e2d726571756573740000000000000000000000008152506040805190810160405280601b81526020017f70617469656e742f7363616e2d72657175657374732d636f756e740000000000815250611431565b93508351925082604051805910610c9b5750595b9080825280602002602001820160405250945060009150600090505b82811015610ddd578573ffffffffffffffffffffffffffffffffffffffff166317e7dd2260405180807f7363616e2d726571756573742f69732d67656e6572616c3f0000000000000000815250601801905060405180910390206000604051602001526040518263ffffffff167c0100000000000000000000000000000000000000000000000000000000028152600401808260001916600019168152602001915050602060405180830381600087803b1515610d7357600080fd5b6102c65a03f11515610d8457600080fd5b5050506040518051905015610dd0578381815181101515610da157fe5b906020019060200201518583815181101515610db957fe5b906020019060200201818152505081806001019250505b8080600101915050610cb7565b610de78286611251565b945050505050919050565b610dfa6117eb565b610e7083836040805190810160405280601481526020017f64656e746973742f7363616e2d726571756573740000000000000000000000008152506040805190810160405280601b81526020017f64656e746973742f7363616e2d72657175657374732d636f756e74000000000081525061108e565b905092915050565b610e806117eb565b610e886117eb565b6000806000610f0387876040805190810160405280601481526020017f70617469656e742f7363616e2d726571756573740000000000000000000000008152506040805190810160405280601b81526020017f70617469656e742f7363616e2d72657175657374732d636f756e74000000000081525061108e565b93508351925082604051805910610f175750595b9080825280602002602001820160405250945060009150600090505b82811015611078578673ffffffffffffffffffffffffffffffffffffffff166317e7dd228583815181101515610f6557fe5b9060200190602002015160405180807f7363616e2d726571756573742f69732d61636365707465643f0000000000000081525060190182815260200191505060405180910390206000604051602001526040518263ffffffff167c0100000000000000000000000000000000000000000000000000000000028152600401808260001916600019168152602001915050602060405180830381600087803b151561100e57600080fd5b6102c65a03f1151561101f57600080fd5b505050604051805190501561106b57838181518110151561103c57fe5b90602001906020020151858381518110151561105457fe5b906020019060200201818152505081806001019250505b8080600101915050610f33565b6110828286611251565b94505050505092915050565b6110966117eb565b6000806110a48787866116a1565b9150816040518059106110b45750595b90808252806020026020018201604052509250600090505b81811015611244578673ffffffffffffffffffffffffffffffffffffffff1663bdc963d88688846040518084805190602001908083835b6020831015156111285780518252602082019150602081019050602083039250611103565b6001836020036101000a0380198251168184511680821785525050505050509050018373ffffffffffffffffffffffffffffffffffffffff1673ffffffffffffffffffffffffffffffffffffffff166c01000000000000000000000000028152601401828152602001935050505060405180910390206000604051602001526040518263ffffffff167c0100000000000000000000000000000000000000000000000000000000028152600401808260001916600019168152602001915050602060405180830381600087803b151561120057600080fd5b6102c65a03f1151561121157600080fd5b50505060405180519050838281518110151561122957fe5b906020019060200201818152505080806001019150506110cc565b8292505050949350505050565b6112596117eb565b6000825184111561126c578291506112df565b8360405180591061127a5750595b90808252806020026020018201604052509150600090505b838110156112db5782818151811015156112a857fe5b9060200190602002015182828151811015156112c057fe5b90602001906020020181815250508080600101915050611292565b8191505b5092915050565b6112ee6117eb565b6000806000806000935088519250828810158061130b5750600087145b1561131857849450611425565b866040518059106113265750595b908082528060200260200182016040525094508791505b86880182101561139d57818314156113545761139d565b888281518110151561136257fe5b90602001906020020151858581518110151561137a57fe5b90602001906020020181815250508380600101945050818060010192505061133d565b8580156113a957508684105b15611418578387039050600091505b808211151561141757838714156113ce57611417565b88828151811015156113dc57fe5b9060200190602002015185858151811015156113f457fe5b9060200190602002018181525050838060010194505081806001019250506113b8565b5b6114228486611251565b94505b50505050949350505050565b6114396117eb565b6000808573ffffffffffffffffffffffffffffffffffffffff1663bdc963d8856040518082805190602001908083835b60208310151561148e5780518252602082019150602081019050602083039250611469565b6001836020036101000a03801982511681845116808217855250505050505090500191505060405180910390206000604051602001526040518263ffffffff167c0100000000000000000000000000000000000000000000000000000000028152600401808260001916600019168152602001915050602060405180830381600087803b151561151d57600080fd5b6102c65a03f1151561152e57600080fd5b505050604051805190509150816040518059106115485750595b90808252806020026020018201604052509250600090505b81811015611695578573ffffffffffffffffffffffffffffffffffffffff1663bdc963d886836040518083805190602001908083835b6020831015156115bb5780518252602082019150602081019050602083039250611596565b6001836020036101000a0380198251168184511680821785525050505050509050018281526020019250505060405180910390206000604051602001526040518263ffffffff167c0100000000000000000000000000000000000000000000000000000000028152600401808260001916600019168152602001915050602060405180830381600087803b151561165157600080fd5b6102c65a03f1151561166257600080fd5b50505060405180519050838281518110151561167a57fe5b90602001906020020181815250508080600101915050611560565b82925050509392505050565b60008373ffffffffffffffffffffffffffffffffffffffff1663bdc963d883856040518083805190602001908083835b6020831015156116f657805182526020820191506020810190506020830392506116d1565b6001836020036101000a0380198251168184511680821785525050505050509050018273ffffffffffffffffffffffffffffffffffffffff1673ffffffffffffffffffffffffffffffffffffffff166c010000000000000000000000000281526014019250505060405180910390206000604051602001526040518263ffffffff167c0100000000000000000000000000000000000000000000000000000000028152600401808260001916600019168152602001915050602060405180830381600087803b15156117c757600080fd5b6102c65a03f115156117d857600080fd5b5050506040518051905090509392505050565b6020604051908101604052806000815250905600a165627a7a723058203094446262bfefab14d99d6c503e65e818b3510cc21b672e4ae2416bd86a583c0029",
  "source": "pragma solidity 0.4.18;\n\nimport \"./Restrictor.sol\";\nimport \"../lib/odll/userManager.sol\";\n\ncontract ScanRequestReader is Restrictor {\n\n  function ScanRequestReader (address _dbAddress) public {\n    require(_dbAddress != 0x0);\n    dbAddress = _dbAddress;\n  }\n\n  function fetchScanRequestsForPatient (\n    address patientId,\n    uint offset, // starting from offset: 0-based\n    uint limit, // not more than limit\n    uint seed // seed value to give the illusion of randomisation\n  )\n    external\n    view\n    returns (\n      uint,\n      uint[]\n    )\n  {\n    return userManager.fetchScanRequestsForPatient(dbAddress, patientId, offset, limit, seed);\n  }\n\n  function fetchAcceptedScanRequestsForPatient (\n    address patientId,\n    uint offset, // starting from offset: 0-based\n    uint limit, // not more than limit\n    uint seed // seed value to give the illusion of randomisation\n  )\n    external\n    view\n    returns (\n      uint,\n      uint[]\n    )\n  {\n    return userManager.fetchAcceptedScanRequestsForPatient(dbAddress, patientId, offset, limit, seed);\n  }\n\n  function fetchAllScanRequests (\n    uint offset, // starting from offset: 0-based\n    uint limit, // not more than limit\n    uint seed // seed value to give the illusion of randomisation\n  )\n    external\n    view\n    returns (\n      uint,\n      uint[]\n    )\n  {\n    return userManager.fetchAllScanRequests(dbAddress, offset, limit, seed);\n  }\n\n  function fetchDirectScanRequestsForDentist (\n    address dbAddress,\n    address dentistId,\n    uint offset, // starting from offset: 0-based\n    uint limit, // not more than limit\n    uint seed // seed value to give the illusion of randomisation\n  )\n    external\n    view\n    returns(\n      uint,\n      uint[]\n    )\n  {\n    return userManager.fetchDirectScanRequestsForDentist(dbAddress, dentistId, offset, limit, seed);\n  }\n\n  function fetchAcceptedScanRequestsForDentist (\n    address dentistId,\n    uint offset, // starting from offset: 0-based\n    uint limit, // not more than limit\n    uint seed // seed value to give the illusion of randomisation\n  )\n    external\n    view\n    returns (\n      uint,\n      uint[]\n    )\n  {\n    return userManager.fetchAcceptedScanRequestsForDentist(dbAddress, dentistId, offset, limit, seed);\n  }\n}\n",
  "sourcePath": "/Users/danielokwufulueze/dev/vue/apps/oraldatalink/contracts/odll/ScanRequestReader.sol",
  "compiler": {
    "name": "solc",
    "version": "0.4.18+commit.9cf6e910.Emscripten.clang"
  },
  "schemaVersion": "1.0.1",
  "updatedAt": "2017-11-17T15:10:00.733Z"
}