{
  "contractName": "ScanRequestReader",
  "abi": [
    {
      "constant": true,
      "inputs": [
        {
          "name": "dentistId",
          "type": "address"
        },
        {
          "name": "offset",
          "type": "uint256"
        },
        {
          "name": "limit",
          "type": "uint256"
        },
        {
          "name": "seed",
          "type": "uint256"
        }
      ],
      "name": "fetchAcceptedScanRequestsForDentist",
      "outputs": [
        {
          "name": "",
          "type": "uint256"
        },
        {
          "name": "",
          "type": "uint256[]"
        }
      ],
      "payable": false,
      "stateMutability": "view",
      "type": "function"
    },
    {
      "constant": true,
      "inputs": [
        {
          "name": "patientId",
          "type": "address"
        },
        {
          "name": "offset",
          "type": "uint256"
        },
        {
          "name": "limit",
          "type": "uint256"
        },
        {
          "name": "seed",
          "type": "uint256"
        }
      ],
      "name": "fetchScanRequestsForPatient",
      "outputs": [
        {
          "name": "",
          "type": "uint256"
        },
        {
          "name": "",
          "type": "uint256[]"
        }
      ],
      "payable": false,
      "stateMutability": "view",
      "type": "function"
    },
    {
      "constant": false,
      "inputs": [
        {
          "name": "userId",
          "type": "address"
        },
        {
          "name": "paymentId",
          "type": "uint256"
        }
      ],
      "name": "lockPayment",
      "outputs": [],
      "payable": false,
      "stateMutability": "nonpayable",
      "type": "function"
    },
    {
      "constant": true,
      "inputs": [],
      "name": "smartContractStatus",
      "outputs": [
        {
          "name": "",
          "type": "uint8"
        }
      ],
      "payable": false,
      "stateMutability": "view",
      "type": "function"
    },
    {
      "constant": true,
      "inputs": [],
      "name": "owner",
      "outputs": [
        {
          "name": "",
          "type": "address"
        }
      ],
      "payable": false,
      "stateMutability": "view",
      "type": "function"
    },
    {
      "constant": true,
      "inputs": [],
      "name": "dbAddress",
      "outputs": [
        {
          "name": "",
          "type": "address"
        }
      ],
      "payable": false,
      "stateMutability": "view",
      "type": "function"
    },
    {
      "constant": true,
      "inputs": [
        {
          "name": "dentistId",
          "type": "address"
        },
        {
          "name": "offset",
          "type": "uint256"
        },
        {
          "name": "limit",
          "type": "uint256"
        },
        {
          "name": "seed",
          "type": "uint256"
        }
      ],
      "name": "fetchDirectScanRequestsForDentist",
      "outputs": [
        {
          "name": "",
          "type": "uint256"
        },
        {
          "name": "",
          "type": "uint256[]"
        }
      ],
      "payable": false,
      "stateMutability": "view",
      "type": "function"
    },
    {
      "constant": true,
      "inputs": [
        {
          "name": "patientId",
          "type": "address"
        },
        {
          "name": "offset",
          "type": "uint256"
        },
        {
          "name": "limit",
          "type": "uint256"
        },
        {
          "name": "seed",
          "type": "uint256"
        }
      ],
      "name": "fetchAcceptedScanRequestsForPatient",
      "outputs": [
        {
          "name": "",
          "type": "uint256"
        },
        {
          "name": "",
          "type": "uint256[]"
        }
      ],
      "payable": false,
      "stateMutability": "view",
      "type": "function"
    },
    {
      "constant": false,
      "inputs": [
        {
          "name": "newOwner",
          "type": "address"
        }
      ],
      "name": "transferOwnership",
      "outputs": [],
      "payable": false,
      "stateMutability": "nonpayable",
      "type": "function"
    },
    {
      "inputs": [
        {
          "name": "_dbAddress",
          "type": "address"
        }
      ],
      "payable": false,
      "stateMutability": "nonpayable",
      "type": "constructor"
    },
    {
      "anonymous": false,
      "inputs": [
        {
          "indexed": false,
          "name": "paymentId",
          "type": "uint256"
        }
      ],
      "name": "PaymentLocked",
      "type": "event"
    },
    {
      "anonymous": false,
      "inputs": [
        {
          "indexed": false,
          "name": "status",
          "type": "uint8"
        }
      ],
      "name": "OnSmartContractStatusSet",
      "type": "event"
    },
    {
      "anonymous": false,
      "inputs": [
        {
          "indexed": true,
          "name": "previousOwner",
          "type": "address"
        },
        {
          "indexed": true,
          "name": "newOwner",
          "type": "address"
        }
      ],
      "name": "OwnershipTransferred",
      "type": "event"
    }
  ],
  "bytecode": "0x6060604052341561000f57600080fd5b60405160208061193283398101604052808051906020019091905050336000806101000a81548173ffffffffffffffffffffffffffffffffffffffff021916908373ffffffffffffffffffffffffffffffffffffffff16021790555060008173ffffffffffffffffffffffffffffffffffffffff161415151561009157600080fd5b80600160006101000a81548173ffffffffffffffffffffffffffffffffffffffff021916908373ffffffffffffffffffffffffffffffffffffffff16021790555050611850806100e26000396000f300606060405260043610610099576000357c0100000000000000000000000000000000000000000000000000000000900463ffffffff16806312d7636f1461009e578063355ad8851461014e5780633f4b1470146101fe5780634c8ddddc146102405780638da5cb5b1461026f57806391e06b6d146102c457806392b226f214610319578063c13b215b146103c9578063f2fde38b14610479575b600080fd5b34156100a957600080fd5b6100f0600480803573ffffffffffffffffffffffffffffffffffffffff169060200190919080359060200190919080359060200190919080359060200190919050506104b2565b6040518083815260200180602001828103825283818151815260200191508051906020019060200280838360005b8381101561013957808201518184015260208101905061011e565b50505050905001935050505060405180910390f35b341561015957600080fd5b6101a0600480803573ffffffffffffffffffffffffffffffffffffffff169060200190919080359060200190919080359060200190919080359060200190919050506104f8565b6040518083815260200180602001828103825283818151815260200191508051906020019060200280838360005b838110156101e95780820151818401526020810190506101ce565b50505050905001935050505060405180910390f35b341561020957600080fd5b61023e600480803573ffffffffffffffffffffffffffffffffffffffff1690602001909190803590602001909190505061053e565b005b341561024b57600080fd5b610253610795565b604051808260ff1660ff16815260200191505060405180910390f35b341561027a57600080fd5b6102826107a8565b604051808273ffffffffffffffffffffffffffffffffffffffff1673ffffffffffffffffffffffffffffffffffffffff16815260200191505060405180910390f35b34156102cf57600080fd5b6102d76107cd565b604051808273ffffffffffffffffffffffffffffffffffffffff1673ffffffffffffffffffffffffffffffffffffffff16815260200191505060405180910390f35b341561032457600080fd5b61036b600480803573ffffffffffffffffffffffffffffffffffffffff169060200190919080359060200190919080359060200190919080359060200190919050506107f3565b6040518083815260200180602001828103825283818151815260200191508051906020019060200280838360005b838110156103b4578082015181840152602081019050610399565b50505050905001935050505060405180910390f35b34156103d457600080fd5b61041b600480803573ffffffffffffffffffffffffffffffffffffffff16906020019091908035906020019091908035906020019091908035906020019091905050610839565b6040518083815260200180602001828103825283818151815260200191508051906020019060200280838360005b83811015610464578082015181840152602081019050610449565b50505050905001935050505060405180910390f35b341561048457600080fd5b6104b0600480803573ffffffffffffffffffffffffffffffffffffffff1690602001909190505061087f565b005b60006104bc611810565b6104eb600160009054906101000a900473ffffffffffffffffffffffffffffffffffffffff16878787876109d4565b9150915094509492505050565b6000610502611810565b610531600160009054906101000a900473ffffffffffffffffffffffffffffffffffffffff1687878787610a08565b9150915094509492505050565b8161054881610a3c565b151561055357600080fd5b8160018060ff16600160009054906101000a900473ffffffffffffffffffffffffffffffffffffffff1673ffffffffffffffffffffffffffffffffffffffff16637a0e03ec8460405180807f7061796d656e742f737461746500000000000000000000000000000000000000815250600d0182815260200191505060405180910390206000604051602001526040518263ffffffff167c0100000000000000000000000000000000000000000000000000000000028152600401808260001916600019168152602001915050602060405180830381600087803b151561063857600080fd5b6102c65a03f1151561064957600080fd5b5050506040518051905060ff1614151561066257600080fd5b600160009054906101000a900473ffffffffffffffffffffffffffffffffffffffff1673ffffffffffffffffffffffffffffffffffffffff16630bd851588560405180807f7061796d656e742f737461746500000000000000000000000000000000000000815250600d01828152602001915050604051809103902060026040518363ffffffff167c01000000000000000000000000000000000000000000000000000000000281526004018083600019166000191681526020018260ff16815260200192505050600060405180830381600087803b151561074357600080fd5b6102c65a03f1151561075457600080fd5b5050507fa5f78a79f83dfad686a63ca003a42f6c262d9fdc43a6742c56f5c27c11b9a1e2846040518082815260200191505060405180910390a15050505050565b600160149054906101000a900460ff1681565b6000809054906101000a900473ffffffffffffffffffffffffffffffffffffffff1681565b600160009054906101000a900473ffffffffffffffffffffffffffffffffffffffff1681565b60006107fd611810565b61082c600160009054906101000a900473ffffffffffffffffffffffffffffffffffffffff1687878787610a63565b9150915094509492505050565b6000610843611810565b610872600160009054906101000a900473ffffffffffffffffffffffffffffffffffffffff1687878787610a97565b9150915094509492505050565b6000809054906101000a900473ffffffffffffffffffffffffffffffffffffffff1673ffffffffffffffffffffffffffffffffffffffff163373ffffffffffffffffffffffffffffffffffffffff161415156108da57600080fd5b600073ffffffffffffffffffffffffffffffffffffffff168173ffffffffffffffffffffffffffffffffffffffff161415151561091657600080fd5b8073ffffffffffffffffffffffffffffffffffffffff166000809054906101000a900473ffffffffffffffffffffffffffffffffffffffff1673ffffffffffffffffffffffffffffffffffffffff167f8be0079c531659141344cd1fd0a4f28419497f9722a3daafe3b4186f6b6457e060405160405180910390a3806000806101000a81548173ffffffffffffffffffffffffffffffffffffffff021916908373ffffffffffffffffffffffffffffffffffffffff16021790555050565b60006109de611810565b6109e88787610acb565b90506109f681868686610ce1565b80925081935050509550959350505050565b6000610a12611810565b610a1c8787610d51565b9050610a2a81868686610ce1565b80925081935050509550959350505050565b6000610a49826001610dd7565b8015610a5c5750610a5b826001610df2565b5b9050919050565b6000610a6d611810565b610a778787610e0d565b9050610a8581868686610ce1565b80925081935050509550959350505050565b6000610aa1611810565b610aab8787610e93565b9050610ab981868686610ce1565b80925081935050509550959350505050565b610ad3611810565b610adb611810565b6000806000610b5687876040805190810160405280601481526020017f64656e746973742f7363616e2d726571756573740000000000000000000000008152506040805190810160405280601b81526020017f64656e746973742f7363616e2d72657175657374732d636f756e7400000000008152506110a9565b93508351925082604051805910610b6a5750595b9080825280602002602001820160405250945060009150600090505b82811015610ccb578673ffffffffffffffffffffffffffffffffffffffff166317e7dd228583815181101515610bb857fe5b9060200190602002015160405180807f7363616e2d726571756573742f69732d61636365707465643f0000000000000081525060190182815260200191505060405180910390206000604051602001526040518263ffffffff167c0100000000000000000000000000000000000000000000000000000000028152600401808260001916600019168152602001915050602060405180830381600087803b1515610c6157600080fd5b6102c65a03f11515610c7257600080fd5b5050506040518051905015610cbe578381815181101515610c8f57fe5b906020019060200201518583815181101515610ca757fe5b906020019060200201818152505081806001019250505b8080600101915050610b86565b610cd5828661126c565b94505050505092915050565b6000610ceb611810565b85519150600086511115610d47578551851115610d175781610d0e60008861126c565b91509150610d48565b85518486011115610d29578486510393505b610d44868751878601811515610d3b57fe5b06866001611301565b90505b5b94509492505050565b610d59611810565b610dcf83836040805190810160405280601481526020017f70617469656e742f7363616e2d726571756573740000000000000000000000008152506040805190810160405280601b81526020017f70617469656e742f7363616e2d72657175657374732d636f756e7400000000008152506110a9565b905092915050565b6000610de28361144c565b60ff168260ff1614905092915050565b6000610dfd83611589565b60ff168260ff1614905092915050565b610e15611810565b610e8b83836040805190810160405280601481526020017f64656e746973742f7363616e2d726571756573740000000000000000000000008152506040805190810160405280601b81526020017f64656e746973742f7363616e2d72657175657374732d636f756e7400000000008152506110a9565b905092915050565b610e9b611810565b610ea3611810565b6000806000610f1e87876040805190810160405280601481526020017f70617469656e742f7363616e2d726571756573740000000000000000000000008152506040805190810160405280601b81526020017f70617469656e742f7363616e2d72657175657374732d636f756e7400000000008152506110a9565b93508351925082604051805910610f325750595b9080825280602002602001820160405250945060009150600090505b82811015611093578673ffffffffffffffffffffffffffffffffffffffff166317e7dd228583815181101515610f8057fe5b9060200190602002015160405180807f7363616e2d726571756573742f69732d61636365707465643f0000000000000081525060190182815260200191505060405180910390206000604051602001526040518263ffffffff167c0100000000000000000000000000000000000000000000000000000000028152600401808260001916600019168152602001915050602060405180830381600087803b151561102957600080fd5b6102c65a03f1151561103a57600080fd5b505050604051805190501561108657838181518110151561105757fe5b90602001906020020151858381518110151561106f57fe5b906020019060200201818152505081806001019250505b8080600101915050610f4e565b61109d828661126c565b94505050505092915050565b6110b1611810565b6000806110bf8787866116c6565b9150816040518059106110cf5750595b90808252806020026020018201604052509250600090505b8181101561125f578673ffffffffffffffffffffffffffffffffffffffff1663bdc963d88688846040518084805190602001908083835b602083101515611143578051825260208201915060208101905060208303925061111e565b6001836020036101000a0380198251168184511680821785525050505050509050018373ffffffffffffffffffffffffffffffffffffffff1673ffffffffffffffffffffffffffffffffffffffff166c01000000000000000000000000028152601401828152602001935050505060405180910390206000604051602001526040518263ffffffff167c0100000000000000000000000000000000000000000000000000000000028152600401808260001916600019168152602001915050602060405180830381600087803b151561121b57600080fd5b6102c65a03f1151561122c57600080fd5b50505060405180519050838281518110151561124457fe5b906020019060200201818152505080806001019150506110e7565b8292505050949350505050565b611274611810565b60008251841115611287578291506112fa565b836040518059106112955750595b90808252806020026020018201604052509150600090505b838110156112f65782818151811015156112c357fe5b9060200190602002015182828151811015156112db57fe5b906020019060200201818152505080806001019150506112ad565b8191505b5092915050565b611309611810565b600080600080600093508851925082881015806113265750600087145b1561133357849450611440565b866040518059106113415750595b908082528060200260200182016040525094508791505b8688018210156113b8578183141561136f576113b8565b888281518110151561137d57fe5b90602001906020020151858581518110151561139557fe5b906020019060200201818152505083806001019450508180600101925050611358565b8580156113c457508684105b15611433578387039050600091505b808211151561143257838714156113e957611432565b88828151811015156113f757fe5b90602001906020020151858581518110151561140f57fe5b9060200190602002018181525050838060010194505081806001019250506113d3565b5b61143d848661126c565b94505b50505050949350505050565b6000600160009054906101000a900473ffffffffffffffffffffffffffffffffffffffff1673ffffffffffffffffffffffffffffffffffffffff16637a0e03ec8360405180807f757365722f7479706500000000000000000000000000000000000000000000008152506009018273ffffffffffffffffffffffffffffffffffffffff1673ffffffffffffffffffffffffffffffffffffffff166c0100000000000000000000000002815260140191505060405180910390206000604051602001526040518263ffffffff167c0100000000000000000000000000000000000000000000000000000000028152600401808260001916600019168152602001915050602060405180830381600087803b151561156757600080fd5b6102c65a03f1151561157857600080fd5b505050604051805190509050919050565b6000600160009054906101000a900473ffffffffffffffffffffffffffffffffffffffff1673ffffffffffffffffffffffffffffffffffffffff16637a0e03ec8360405180807f757365722f737461747573000000000000000000000000000000000000000000815250600b018273ffffffffffffffffffffffffffffffffffffffff1673ffffffffffffffffffffffffffffffffffffffff166c0100000000000000000000000002815260140191505060405180910390206000604051602001526040518263ffffffff167c0100000000000000000000000000000000000000000000000000000000028152600401808260001916600019168152602001915050602060405180830381600087803b15156116a457600080fd5b6102c65a03f115156116b557600080fd5b505050604051805190509050919050565b60008373ffffffffffffffffffffffffffffffffffffffff1663bdc963d883856040518083805190602001908083835b60208310151561171b57805182526020820191506020810190506020830392506116f6565b6001836020036101000a0380198251168184511680821785525050505050509050018273ffffffffffffffffffffffffffffffffffffffff1673ffffffffffffffffffffffffffffffffffffffff166c010000000000000000000000000281526014019250505060405180910390206000604051602001526040518263ffffffff167c0100000000000000000000000000000000000000000000000000000000028152600401808260001916600019168152602001915050602060405180830381600087803b15156117ec57600080fd5b6102c65a03f115156117fd57600080fd5b5050506040518051905090509392505050565b6020604051908101604052806000815250905600a165627a7a723058202b0d1ad3b6f98f74723518a9d624f849c26278ba426ff930bba7738e028dc59c0029",
  "source": "pragma solidity 0.4.18;\n\nimport \"./Restrictor.sol\";\nimport \"../lib/odll/userManager.sol\";\n\ncontract ScanRequestReader is Restrictor {\n\n  function ScanRequestReader (address _dbAddress) public {\n    require(_dbAddress != 0x0);\n    dbAddress = _dbAddress;\n  }\n\n  function fetchScanRequestsForPatient (\n    address patientId,\n    uint offset, // starting from offset: 0-based\n    uint limit, // not more than limit\n    uint seed // seed value to give the illusion of randomisation\n  )\n    external\n    view\n    returns (\n      uint,\n      uint[]\n    )\n  {\n    return userManager.fetchPatientScanRequests(dbAddress, patientId, offset, limit, seed);\n  }\n\n  function fetchAcceptedScanRequestsForPatient (\n    address patientId,\n    uint offset, // starting from offset: 0-based\n    uint limit, // not more than limit\n    uint seed // seed value to give the illusion of randomisation\n  )\n    external\n    view\n    returns (\n      uint,\n      uint[]\n    )\n  {\n    return userManager.fetchPatientAcceptedScanRequests(dbAddress, patientId, offset, limit, seed);\n  }\n\n  function fetchDirectScanRequestsForDentist (\n    address dentistId,\n    uint offset, // starting from offset: 0-based\n    uint limit, // not more than limit\n    uint seed // seed value to give the illusion of randomisation\n  )\n    external\n    view\n    returns(\n      uint,\n      uint[]\n    )\n  {\n    return userManager.fetchDentistDirectScanRequests(dbAddress, dentistId, offset, limit, seed);\n  }\n\n  function fetchAcceptedScanRequestsForDentist (\n    address dentistId,\n    uint offset, // starting from offset: 0-based\n    uint limit, // not more than limit\n    uint seed // seed value to give the illusion of randomisation\n  )\n    external\n    view\n    returns (\n      uint,\n      uint[]\n    )\n  {\n    return userManager.fetchDentistAcceptedScanRequests(dbAddress, dentistId, offset, limit, seed);\n  }\n}\n",
  "sourcePath": "/Users/danielokwufulueze/dev/vue/apps/oraldatalink/contracts/odll/ScanRequestReader.sol",
  "compiler": {
    "name": "solc",
    "version": "0.4.18+commit.9cf6e910.Emscripten.clang"
  },
  "schemaVersion": "1.0.1",
  "updatedAt": "2018-01-13T20:39:45.835Z"
}