{
  "contractName": "ScanApplicationWriter",
  "abi": [
    {
      "constant": false,
      "inputs": [
        {
          "name": "userId",
          "type": "address"
        },
        {
          "name": "paymentId",
          "type": "uint256"
        }
      ],
      "name": "lockPayment",
      "outputs": [],
      "payable": false,
      "stateMutability": "nonpayable",
      "type": "function"
    },
    {
      "constant": true,
      "inputs": [],
      "name": "smartContractStatus",
      "outputs": [
        {
          "name": "",
          "type": "uint8"
        }
      ],
      "payable": false,
      "stateMutability": "view",
      "type": "function"
    },
    {
      "constant": true,
      "inputs": [],
      "name": "owner",
      "outputs": [
        {
          "name": "",
          "type": "address"
        }
      ],
      "payable": false,
      "stateMutability": "view",
      "type": "function"
    },
    {
      "constant": true,
      "inputs": [],
      "name": "dbAddress",
      "outputs": [
        {
          "name": "",
          "type": "address"
        }
      ],
      "payable": false,
      "stateMutability": "view",
      "type": "function"
    },
    {
      "constant": false,
      "inputs": [
        {
          "name": "patientId",
          "type": "address"
        },
        {
          "name": "scanApplicationId",
          "type": "uint256"
        }
      ],
      "name": "cancelScanApplication",
      "outputs": [],
      "payable": false,
      "stateMutability": "nonpayable",
      "type": "function"
    },
    {
      "constant": false,
      "inputs": [
        {
          "name": "newOwner",
          "type": "address"
        }
      ],
      "name": "transferOwnership",
      "outputs": [],
      "payable": false,
      "stateMutability": "nonpayable",
      "type": "function"
    },
    {
      "constant": false,
      "inputs": [
        {
          "name": "patientId",
          "type": "address"
        },
        {
          "name": "scanRequestId",
          "type": "uint256"
        },
        {
          "name": "quote",
          "type": "uint256"
        },
        {
          "name": "scanDate",
          "type": "bytes32"
        },
        {
          "name": "scanTime",
          "type": "bytes32"
        },
        {
          "name": "comment",
          "type": "string"
        }
      ],
      "name": "applyToScan",
      "outputs": [],
      "payable": false,
      "stateMutability": "nonpayable",
      "type": "function"
    },
    {
      "inputs": [
        {
          "name": "_dbAddress",
          "type": "address"
        }
      ],
      "payable": false,
      "stateMutability": "nonpayable",
      "type": "constructor"
    },
    {
      "anonymous": false,
      "inputs": [
        {
          "indexed": false,
          "name": "paymentId",
          "type": "uint256"
        }
      ],
      "name": "PaymentLocked",
      "type": "event"
    },
    {
      "anonymous": false,
      "inputs": [
        {
          "indexed": false,
          "name": "status",
          "type": "uint8"
        }
      ],
      "name": "OnSmartContractStatusSet",
      "type": "event"
    },
    {
      "anonymous": false,
      "inputs": [
        {
          "indexed": true,
          "name": "previousOwner",
          "type": "address"
        },
        {
          "indexed": true,
          "name": "newOwner",
          "type": "address"
        }
      ],
      "name": "OwnershipTransferred",
      "type": "event"
    }
  ],
  "bytecode": "0x6060604052341561000f57600080fd5b60405160208061309b83398101604052808051906020019091905050336000806101000a81548173ffffffffffffffffffffffffffffffffffffffff021916908373ffffffffffffffffffffffffffffffffffffffff16021790555060008173ffffffffffffffffffffffffffffffffffffffff161415151561009157600080fd5b80600160006101000a81548173ffffffffffffffffffffffffffffffffffffffff021916908373ffffffffffffffffffffffffffffffffffffffff16021790555050612fb9806100e26000396000f300606060405260043610610083576000357c0100000000000000000000000000000000000000000000000000000000900463ffffffff1680633f4b1470146100885780634c8ddddc146100ca5780638da5cb5b146100f957806391e06b6d1461014e578063a3f35877146101a3578063f2fde38b146101e5578063f313245c1461021e575b600080fd5b341561009357600080fd5b6100c8600480803573ffffffffffffffffffffffffffffffffffffffff16906020019091908035906020019091905050610297565b005b34156100d557600080fd5b6100dd6104ee565b604051808260ff1660ff16815260200191505060405180910390f35b341561010457600080fd5b61010c610501565b604051808273ffffffffffffffffffffffffffffffffffffffff1673ffffffffffffffffffffffffffffffffffffffff16815260200191505060405180910390f35b341561015957600080fd5b610161610526565b604051808273ffffffffffffffffffffffffffffffffffffffff1673ffffffffffffffffffffffffffffffffffffffff16815260200191505060405180910390f35b34156101ae57600080fd5b6101e3600480803573ffffffffffffffffffffffffffffffffffffffff1690602001909190803590602001909190505061054c565b005b34156101f057600080fd5b61021c600480803573ffffffffffffffffffffffffffffffffffffffff1690602001909190505061057e565b005b341561022957600080fd5b610295600480803573ffffffffffffffffffffffffffffffffffffffff16906020019091908035906020019091908035906020019091908035600019169060200190919080356000191690602001909190803590602001908201803590602001919091929050506106d3565b005b816102a181610761565b15156102ac57600080fd5b8160018060ff16600160009054906101000a900473ffffffffffffffffffffffffffffffffffffffff1673ffffffffffffffffffffffffffffffffffffffff16637a0e03ec8460405180807f7061796d656e742f737461746500000000000000000000000000000000000000815250600d0182815260200191505060405180910390206000604051602001526040518263ffffffff167c0100000000000000000000000000000000000000000000000000000000028152600401808260001916600019168152602001915050602060405180830381600087803b151561039157600080fd5b6102c65a03f115156103a257600080fd5b5050506040518051905060ff161415156103bb57600080fd5b600160009054906101000a900473ffffffffffffffffffffffffffffffffffffffff1673ffffffffffffffffffffffffffffffffffffffff16630bd851588560405180807f7061796d656e742f737461746500000000000000000000000000000000000000815250600d01828152602001915050604051809103902060026040518363ffffffff167c01000000000000000000000000000000000000000000000000000000000281526004018083600019166000191681526020018260ff16815260200192505050600060405180830381600087803b151561049c57600080fd5b6102c65a03f115156104ad57600080fd5b5050507fa5f78a79f83dfad686a63ca003a42f6c262d9fdc43a6742c56f5c27c11b9a1e2846040518082815260200191505060405180910390a15050505050565b600160149054906101000a900460ff1681565b6000809054906101000a900473ffffffffffffffffffffffffffffffffffffffff1681565b600160009054906101000a900473ffffffffffffffffffffffffffffffffffffffff1681565b61057a600160009054906101000a900473ffffffffffffffffffffffffffffffffffffffff16338484610788565b5050565b6000809054906101000a900473ffffffffffffffffffffffffffffffffffffffff1673ffffffffffffffffffffffffffffffffffffffff163373ffffffffffffffffffffffffffffffffffffffff161415156105d957600080fd5b600073ffffffffffffffffffffffffffffffffffffffff168173ffffffffffffffffffffffffffffffffffffffff161415151561061557600080fd5b8073ffffffffffffffffffffffffffffffffffffffff166000809054906101000a900473ffffffffffffffffffffffffffffffffffffffff1673ffffffffffffffffffffffffffffffffffffffff167f8be0079c531659141344cd1fd0a4f28419497f9722a3daafe3b4186f6b6457e060405160405180910390a3806000806101000a81548173ffffffffffffffffffffffffffffffffffffffff021916908373ffffffffffffffffffffffffffffffffffffffff16021790555050565b6000600160149054906101000a900460ff1660ff161415156106f457600080fd5b610758600160009054906101000a900473ffffffffffffffffffffffffffffffffffffffff1633898989898989898080601f01602080910402602001604051908101604052809392919081815260200183838082843782019150505050505061079a565b50505050505050565b600061076e8260016107b4565b801561078157506107808260016107cf565b5b9050919050565b610794848484846107ea565b50505050565b6107aa8888888888888888610bc5565b5050505050505050565b60006107bf83610bdf565b60ff168260ff1614905092915050565b60006107da83610d1c565b60ff168260ff1614905092915050565b60018473ffffffffffffffffffffffffffffffffffffffff16637a0e03ec8360405180807f7363616e2d6170706c69636174696f6e2f73746174757300000000000000000081525060170182815260200191505060405180910390206000604051602001526040518263ffffffff167c0100000000000000000000000000000000000000000000000000000000028152600401808260001916600019168152602001915050602060405180830381600087803b15156108a857600080fd5b6102c65a03f115156108b957600080fd5b5050506040518051905060ff161480156109d457508273ffffffffffffffffffffffffffffffffffffffff168473ffffffffffffffffffffffffffffffffffffffff16634c77e5ba8360405180807f7363616e2d6170706c69636174696f6e2f64656e74697374000000000000000081525060180182815260200191505060405180910390206000604051602001526040518263ffffffff167c0100000000000000000000000000000000000000000000000000000000028152600401808260001916600019168152602001915050602060405180830381600087803b15156109a157600080fd5b6102c65a03f115156109b257600080fd5b5050506040518051905073ffffffffffffffffffffffffffffffffffffffff16145b8015610ae157508173ffffffffffffffffffffffffffffffffffffffff168473ffffffffffffffffffffffffffffffffffffffff16634c77e5ba8360405180807f7363616e2d6170706c69636174696f6e2f70617469656e74000000000000000081525060180182815260200191505060405180910390206000604051602001526040518263ffffffff167c0100000000000000000000000000000000000000000000000000000000028152600401808260001916600019168152602001915050602060405180830381600087803b1515610aae57600080fd5b6102c65a03f11515610abf57600080fd5b5050506040518051905073ffffffffffffffffffffffffffffffffffffffff16145b1515610aec57600080fd5b8373ffffffffffffffffffffffffffffffffffffffff16630bd851588260405180807f7363616e2d6170706c69636174696f6e2f737461747573000000000000000000815250601701828152602001915050604051809103902060036040518363ffffffff167c01000000000000000000000000000000000000000000000000000000000281526004018083600019166000191681526020018260ff16815260200192505050600060405180830381600087803b1515610bab57600080fd5b6102c65a03f11515610bbc57600080fd5b50505050505050565b610bd58888888888888888610e59565b5050505050505050565b6000600160009054906101000a900473ffffffffffffffffffffffffffffffffffffffff1673ffffffffffffffffffffffffffffffffffffffff16637a0e03ec8360405180807f757365722f7479706500000000000000000000000000000000000000000000008152506009018273ffffffffffffffffffffffffffffffffffffffff1673ffffffffffffffffffffffffffffffffffffffff166c0100000000000000000000000002815260140191505060405180910390206000604051602001526040518263ffffffff167c0100000000000000000000000000000000000000000000000000000000028152600401808260001916600019168152602001915050602060405180830381600087803b1515610cfa57600080fd5b6102c65a03f11515610d0b57600080fd5b505050604051805190509050919050565b6000600160009054906101000a900473ffffffffffffffffffffffffffffffffffffffff1673ffffffffffffffffffffffffffffffffffffffff16637a0e03ec8360405180807f757365722f737461747573000000000000000000000000000000000000000000815250600b018273ffffffffffffffffffffffffffffffffffffffff1673ffffffffffffffffffffffffffffffffffffffff166c0100000000000000000000000002815260140191505060405180910390206000604051602001526040518263ffffffff167c0100000000000000000000000000000000000000000000000000000000028152600401808260001916600019168152602001915050602060405180830381600087803b1515610e3757600080fd5b6102c65a03f11515610e4857600080fd5b505050604051805190509050919050565b6000806000806000610ea08d6040805190810160405280601781526020017f7363616e2d6170706c69636174696f6e732d636f756e74000000000000000000815250611945565b945060008d73ffffffffffffffffffffffffffffffffffffffff16637a0e03ec8760405180807f7363616e2d6170706c69636174696f6e2f73746174757300000000000000000081525060170182815260200191505060405180910390206000604051602001526040518263ffffffff167c0100000000000000000000000000000000000000000000000000000000028152600401808260001916600019168152602001915050602060405180830381600087803b1515610f6057600080fd5b6102c65a03f11515610f7157600080fd5b5050506040518051905060ff16148015611064575060018d73ffffffffffffffffffffffffffffffffffffffff16637a0e03ec8c60405180807f7363616e2d726571756573742f7374617475730000000000000000000000000081525060130182815260200191505060405180910390206000604051602001526040518263ffffffff167c0100000000000000000000000000000000000000000000000000000000028152600401808260001916600019168152602001915050602060405180830381600087803b151561104457600080fd5b6102c65a03f1151561105557600080fd5b5050506040518051905060ff16145b801561117157508a73ffffffffffffffffffffffffffffffffffffffff168d73ffffffffffffffffffffffffffffffffffffffff16634c77e5ba8c60405180807f7363616e2d726571756573742f70617469656e7400000000000000000000000081525060140182815260200191505060405180910390206000604051602001526040518263ffffffff167c0100000000000000000000000000000000000000000000000000000000028152600401808260001916600019168152602001915050602060405180830381600087803b151561113e57600080fd5b6102c65a03f1151561114f57600080fd5b5050506040518051905073ffffffffffffffffffffffffffffffffffffffff16145b151561117c57600080fd5b600093505b84841015611729578c73ffffffffffffffffffffffffffffffffffffffff1663bdc963d88d8660405180807f64656e746973742f7363616e2d6170706c69636174696f6e00000000000000008152506018018373ffffffffffffffffffffffffffffffffffffffff1673ffffffffffffffffffffffffffffffffffffffff166c010000000000000000000000000281526014018281526020019250505060405180910390206000604051602001526040518263ffffffff167c0100000000000000000000000000000000000000000000000000000000028152600401808260001916600019168152602001915050602060405180830381600087803b151561128857600080fd5b6102c65a03f1151561129957600080fd5b5050506040518051905092508c73ffffffffffffffffffffffffffffffffffffffff1663bdc963d88460405180807f7363616e2d6170706c69636174696f6e2f7363616e2d72657175657374000000815250601d0182815260200191505060405180910390206000604051602001526040518263ffffffff167c0100000000000000000000000000000000000000000000000000000000028152600401808260001916600019168152602001915050602060405180830381600087803b151561136157600080fd5b6102c65a03f1151561137257600080fd5b5050506040518051905091508982148015611712575060018d73ffffffffffffffffffffffffffffffffffffffff16637a0e03ec8560405180807f7363616e2d6170706c69636174696f6e2f73746174757300000000000000000081525060170182815260200191505060405180910390206000604051602001526040518263ffffffff167c0100000000000000000000000000000000000000000000000000000000028152600401808260001916600019168152602001915050602060405180830381600087803b151561144657600080fd5b6102c65a03f1151561145757600080fd5b5050506040518051905060ff161480611549575060028d73ffffffffffffffffffffffffffffffffffffffff16637a0e03ec8560405180807f7363616e2d6170706c69636174696f6e2f73746174757300000000000000000081525060170182815260200191505060405180910390206000604051602001526040518263ffffffff167c0100000000000000000000000000000000000000000000000000000000028152600401808260001916600019168152602001915050602060405180830381600087803b151561152957600080fd5b6102c65a03f1151561153a57600080fd5b5050506040518051905060ff16145b8061162d575060048d73ffffffffffffffffffffffffffffffffffffffff16637a0e03ec8560405180807f7363616e2d6170706c69636174696f6e2f73746174757300000000000000000081525060170182815260200191505060405180910390206000604051602001526040518263ffffffff167c0100000000000000000000000000000000000000000000000000000000028152600401808260001916600019168152602001915050602060405180830381600087803b151561160d57600080fd5b6102c65a03f1151561161e57600080fd5b5050506040518051905060ff16145b80611711575060058d73ffffffffffffffffffffffffffffffffffffffff16637a0e03ec8560405180807f7363616e2d6170706c69636174696f6e2f73746174757300000000000000000081525060170182815260200191505060405180910390206000604051602001526040518263ffffffff167c0100000000000000000000000000000000000000000000000000000000028152600401808260001916600019168152602001915050602060405180830381600087803b15156116f157600080fd5b6102c65a03f1151561170257600080fd5b5050506040518051905060ff16145b5b1561171c57611936565b8380600101945050611181565b8c73ffffffffffffffffffffffffffffffffffffffff1663bdc963d88b60405180807f7363616e2d726571756573742f7363616e2d736572766963650000000000000081525060190182815260200191505060405180910390206000604051602001526040518263ffffffff167c0100000000000000000000000000000000000000000000000000000000028152600401808260001916600019168152602001915050602060405180830381600087803b15156117e557600080fd5b6102c65a03f115156117f657600080fd5b5050506040518051905090508c73ffffffffffffffffffffffffffffffffffffffff16633eba9ed28d8c60405180807f64656e746973742f7363616e2d726571756573740000000000000000000000008152506014018373ffffffffffffffffffffffffffffffffffffffff1673ffffffffffffffffffffffffffffffffffffffff166c0100000000000000000000000002815260140182815260200192505050604051809103902060016040518363ffffffff167c01000000000000000000000000000000000000000000000000000000000281526004018083600019166000191681526020018215151515815260200192505050600060405180830381600087803b151561190557600080fd5b6102c65a03f1151561191657600080fd5b5050506119258d828c88611a4b565b6119358d8d8d888d8d8d8d611ea5565b5b50505050505050505050505050565b60008273ffffffffffffffffffffffffffffffffffffffff1663bdc963d8836040518082805190602001908083835b6020831015156119995780518252602082019150602081019050602083039250611974565b6001836020036101000a03801982511681845116808217855250505050505090500191505060405180910390206000604051602001526040518263ffffffff167c0100000000000000000000000000000000000000000000000000000000028152600401808260001916600019168152602001915050602060405180830381600087803b1515611a2857600080fd5b6102c65a03f11515611a3957600080fd5b50505060405180519050905092915050565b8373ffffffffffffffffffffffffffffffffffffffff16630bd851588260405180807f7363616e2d6170706c69636174696f6e2f737461747573000000000000000000815250601701828152602001915050604051809103902060016040518363ffffffff167c01000000000000000000000000000000000000000000000000000000000281526004018083600019166000191681526020018260ff16815260200192505050600060405180830381600087803b1515611b0a57600080fd5b6102c65a03f11515611b1b57600080fd5b5050508373ffffffffffffffffffffffffffffffffffffffff16633562fd208260405180807f7363616e2d6170706c69636174696f6e2f637265617465642d6f6e0000000000815250601b018281526020019150506040518091039020426040518363ffffffff167c010000000000000000000000000000000000000000000000000000000002815260040180836000191660001916815260200182815260200192505050600060405180830381600087803b1515611bd957600080fd5b6102c65a03f11515611bea57600080fd5b5050508373ffffffffffffffffffffffffffffffffffffffff16633562fd208260405180807f7363616e2d6170706c69636174696f6e2f7363616e2d72657175657374000000815250601d018281526020019150506040518091039020846040518363ffffffff167c010000000000000000000000000000000000000000000000000000000002815260040180836000191660001916815260200182815260200192505050600060405180830381600087803b1515611ca857600080fd5b6102c65a03f11515611cb957600080fd5b5050508373ffffffffffffffffffffffffffffffffffffffff16633562fd208260405180807f7363616e2d6170706c69636174696f6e2f7363616e2d73657276696365000000815250601d018281526020019150506040518091039020856040518363ffffffff167c010000000000000000000000000000000000000000000000000000000002815260040180836000191660001916815260200182815260200192505050600060405180830381600087803b1515611d7757600080fd5b6102c65a03f11515611d8857600080fd5b505050611e01846040805190810160405280601081526020017f7363616e2d6170706c69636174696f6e000000000000000000000000000000008152506040805190810160405280601781526020017f7363616e2d6170706c69636174696f6e732d636f756e7400000000000000000081525084612590565b611e9f84836040805190810160405280601d81526020017f7363616e2d726571756573742f7363616e2d6170706c69636174696f6e000000815250606060405190810160405280602481526020017f7363616e2d726571756573742f7363616e2d6170706c69636174696f6e732d6381526020017f6f756e74000000000000000000000000000000000000000000000000000000008152508561288a565b50505050565b8773ffffffffffffffffffffffffffffffffffffffff16633562fd208660405180807f7363616e2d6170706c69636174696f6e2f71756f7465000000000000000000008152506016018281526020019150506040518091039020866040518363ffffffff167c010000000000000000000000000000000000000000000000000000000002815260040180836000191660001916815260200182815260200192505050600060405180830381600087803b1515611f6057600080fd5b6102c65a03f11515611f7157600080fd5b5050508773ffffffffffffffffffffffffffffffffffffffff166325cf512d8660405180807f7363616e2d6170706c69636174696f6e2f6170706f696e746d656e742d64617481526020017f65000000000000000000000000000000000000000000000000000000000000008152506021018281526020019150506040518091039020856040518363ffffffff167c0100000000000000000000000000000000000000000000000000000000028152600401808360001916600019168152602001826000191660001916815260200192505050600060405180830381600087803b151561205d57600080fd5b6102c65a03f1151561206e57600080fd5b5050508773ffffffffffffffffffffffffffffffffffffffff166325cf512d8660405180807f7363616e2d6170706c69636174696f6e2f6170706f696e746d656e742d74696d81526020017f65000000000000000000000000000000000000000000000000000000000000008152506021018281526020019150506040518091039020846040518363ffffffff167c0100000000000000000000000000000000000000000000000000000000028152600401808360001916600019168152602001826000191660001916815260200192505050600060405180830381600087803b151561215a57600080fd5b6102c65a03f1151561216b57600080fd5b5050508773ffffffffffffffffffffffffffffffffffffffff1663f58660668660405180807f7363616e2d6170706c69636174696f6e2f636f6d6d656e7400000000000000008152506018018281526020019150506040518091039020836040518363ffffffff167c010000000000000000000000000000000000000000000000000000000002815260040180836000191660001916815260200180602001828103825283818151815260200191508051906020019080838360005b83811015612242578082015181840152602081019050612227565b50505050905090810190601f16801561226f5780820380516001836020036101000a031916815260200191505b509350505050600060405180830381600087803b151561228e57600080fd5b6102c65a03f1151561229f57600080fd5b5050508773ffffffffffffffffffffffffffffffffffffffff16635a2bf25a8660405180807f7363616e2d6170706c69636174696f6e2f64656e7469737400000000000000008152506018018281526020019150506040518091039020896040518363ffffffff167c01000000000000000000000000000000000000000000000000000000000281526004018083600019166000191681526020018273ffffffffffffffffffffffffffffffffffffffff1673ffffffffffffffffffffffffffffffffffffffff16815260200192505050600060405180830381600087803b151561238957600080fd5b6102c65a03f1151561239a57600080fd5b5050508773ffffffffffffffffffffffffffffffffffffffff16635a2bf25a8660405180807f7363616e2d6170706c69636174696f6e2f70617469656e7400000000000000008152506018018281526020019150506040518091039020886040518363ffffffff167c01000000000000000000000000000000000000000000000000000000000281526004018083600019166000191681526020018273ffffffffffffffffffffffffffffffffffffffff1673ffffffffffffffffffffffffffffffffffffffff16815260200192505050600060405180830381600087803b151561248457600080fd5b6102c65a03f1151561249557600080fd5b50505061250f88886040805190810160405280601881526020017f64656e746973742f7363616e2d6170706c69636174696f6e00000000000000008152506040805190810160405280601f81526020017f64656e746973742f7363616e2d6170706c69636174696f6e732d636f756e740081525089612aa4565b61258688876040805190810160405280601881526020017f70617469656e742f7363616e2d6170706c69636174696f6e00000000000000008152506040805190810160405280601f81526020017f70617469656e742f7363616e2d6170706c69636174696f6e732d636f756e740081525089612aa4565b5050505050505050565b60008473ffffffffffffffffffffffffffffffffffffffff1663bdc963d8846040518082805190602001908083835b6020831015156125e457805182526020820191506020810190506020830392506125bf565b6001836020036101000a03801982511681845116808217855250505050505090500191505060405180910390206000604051602001526040518263ffffffff167c0100000000000000000000000000000000000000000000000000000000028152600401808260001916600019168152602001915050602060405180830381600087803b151561267357600080fd5b6102c65a03f1151561268457600080fd5b5050506040518051905090508473ffffffffffffffffffffffffffffffffffffffff16633562fd2085836040518083805190602001908083835b6020831015156126e357805182526020820191506020810190506020830392506126be565b6001836020036101000a038019825116818451168082178552505050505050905001828152602001925050506040518091039020846040518363ffffffff167c010000000000000000000000000000000000000000000000000000000002815260040180836000191660001916815260200182815260200192505050600060405180830381600087803b151561277857600080fd5b6102c65a03f1151561278957600080fd5b5050508473ffffffffffffffffffffffffffffffffffffffff16633562fd20846040518082805190602001908083835b6020831015156127de57805182526020820191506020810190506020830392506127b9565b6001836020036101000a0380198251168184511680821785525050505050509050019150506040518091039020600184016040518363ffffffff167c010000000000000000000000000000000000000000000000000000000002815260040180836000191660001916815260200182815260200192505050600060405180830381600087803b151561286f57600080fd5b6102c65a03f1151561288057600080fd5b5050505050505050565b6000612897868685612d34565b90508573ffffffffffffffffffffffffffffffffffffffff16633562fd208587846040518084805190602001908083835b6020831015156128ed57805182526020820191506020810190506020830392506128c8565b6001836020036101000a03801982511681845116808217855250505050505090500183815260200182815260200193505050506040518091039020846040518363ffffffff167c010000000000000000000000000000000000000000000000000000000002815260040180836000191660001916815260200182815260200192505050600060405180830381600087803b151561298957600080fd5b6102c65a03f1151561299a57600080fd5b5050508573ffffffffffffffffffffffffffffffffffffffff16633562fd2084876040518083805190602001908083835b6020831015156129f057805182526020820191506020810190506020830392506129cb565b6001836020036101000a038019825116818451168082178552505050505050905001828152602001925050506040518091039020600184016040518363ffffffff167c010000000000000000000000000000000000000000000000000000000002815260040180836000191660001916815260200182815260200192505050600060405180830381600087803b1515612a8857600080fd5b6102c65a03f11515612a9957600080fd5b505050505050505050565b6000612ab1868685612e43565b90508573ffffffffffffffffffffffffffffffffffffffff16633562fd208587846040518084805190602001908083835b602083101515612b075780518252602082019150602081019050602083039250612ae2565b6001836020036101000a0380198251168184511680821785525050505050509050018373ffffffffffffffffffffffffffffffffffffffff1673ffffffffffffffffffffffffffffffffffffffff166c0100000000000000000000000002815260140182815260200193505050506040518091039020846040518363ffffffff167c010000000000000000000000000000000000000000000000000000000002815260040180836000191660001916815260200182815260200192505050600060405180830381600087803b1515612bde57600080fd5b6102c65a03f11515612bef57600080fd5b5050508573ffffffffffffffffffffffffffffffffffffffff16633562fd2084876040518083805190602001908083835b602083101515612c455780518252602082019150602081019050602083039250612c20565b6001836020036101000a0380198251168184511680821785525050505050509050018273ffffffffffffffffffffffffffffffffffffffff1673ffffffffffffffffffffffffffffffffffffffff166c01000000000000000000000000028152601401925050506040518091039020600184016040518363ffffffff167c010000000000000000000000000000000000000000000000000000000002815260040180836000191660001916815260200182815260200192505050600060405180830381600087803b1515612d1857600080fd5b6102c65a03f11515612d2957600080fd5b505050505050505050565b60008373ffffffffffffffffffffffffffffffffffffffff1663bdc963d883856040518083805190602001908083835b602083101515612d895780518252602082019150602081019050602083039250612d64565b6001836020036101000a0380198251168184511680821785525050505050509050018281526020019250505060405180910390206000604051602001526040518263ffffffff167c0100000000000000000000000000000000000000000000000000000000028152600401808260001916600019168152602001915050602060405180830381600087803b1515612e1f57600080fd5b6102c65a03f11515612e3057600080fd5b5050506040518051905090509392505050565b60008373ffffffffffffffffffffffffffffffffffffffff1663bdc963d883856040518083805190602001908083835b602083101515612e985780518252602082019150602081019050602083039250612e73565b6001836020036101000a0380198251168184511680821785525050505050509050018273ffffffffffffffffffffffffffffffffffffffff1673ffffffffffffffffffffffffffffffffffffffff166c010000000000000000000000000281526014019250505060405180910390206000604051602001526040518263ffffffff167c0100000000000000000000000000000000000000000000000000000000028152600401808260001916600019168152602001915050602060405180830381600087803b1515612f6957600080fd5b6102c65a03f11515612f7a57600080fd5b50505060405180519050905093925050505600a165627a7a723058208b158a43bb25ee544912bf3bdb1e81a5c1b4064b91426c0fbc484988a01fd4060029",
  "source": "pragma solidity 0.4.18;\nimport \"./Restrictor.sol\";\nimport \"../lib/odll/userManager.sol\";\n\ncontract ScanApplicationWriter is Restrictor {\n  function ScanApplicationWriter(address _dbAddress) public {\n    require(_dbAddress != 0x0);\n    dbAddress = _dbAddress;\n  }\n\n  // Scan Application\n  function applyToScan (\n    address patientId,\n    uint scanRequestId,\n    uint quote,\n    bytes32 scanDate,\n    bytes32 scanTime,\n    string comment\n  )\n    external\n    onlyPermittedSmartContract\n  {\n    userManager.applyToScanPatient(dbAddress, msg.sender, patientId, scanRequestId, quote, scanDate, scanTime, comment);\n  }\n\n  function cancelScanApplication (\n    address patientId,\n    uint scanApplicationId\n  )\n    external\n  {\n    userManager.cancelDentistScanApplication(dbAddress, msg.sender, patientId, scanApplicationId);\n  }\n}\n",
  "sourcePath": "/Users/danielokwufulueze/dev/vue/apps/oraldatalink/contracts/odll/ScanApplicationWriter.sol",
  "compiler": {
    "name": "solc",
    "version": "0.4.18+commit.9cf6e910.Emscripten.clang"
  },
  "schemaVersion": "1.0.1",
  "updatedAt": "2018-02-03T16:42:35.797Z"
}