{
  "contractName": "ScanApplicationWriter",
  "abi": [
    {
      "constant": true,
      "inputs": [],
      "name": "smartContractStatus",
      "outputs": [
        {
          "name": "",
          "type": "uint8"
        }
      ],
      "payable": false,
      "stateMutability": "view",
      "type": "function"
    },
    {
      "constant": true,
      "inputs": [],
      "name": "owner",
      "outputs": [
        {
          "name": "",
          "type": "address"
        }
      ],
      "payable": false,
      "stateMutability": "view",
      "type": "function"
    },
    {
      "constant": true,
      "inputs": [],
      "name": "dbAddress",
      "outputs": [
        {
          "name": "",
          "type": "address"
        }
      ],
      "payable": false,
      "stateMutability": "view",
      "type": "function"
    },
    {
      "constant": false,
      "inputs": [
        {
          "name": "patientId",
          "type": "address"
        },
        {
          "name": "scanApplicationId",
          "type": "uint256"
        }
      ],
      "name": "cancelScanApplication",
      "outputs": [],
      "payable": false,
      "stateMutability": "nonpayable",
      "type": "function"
    },
    {
      "constant": false,
      "inputs": [
        {
          "name": "dentistId",
          "type": "address"
        },
        {
          "name": "scanApplicationId",
          "type": "uint256"
        },
        {
          "name": "quote",
          "type": "uint256"
        },
        {
          "name": "comment",
          "type": "bytes32"
        }
      ],
      "name": "acceptScanApplication",
      "outputs": [],
      "payable": true,
      "stateMutability": "payable",
      "type": "function"
    },
    {
      "constant": false,
      "inputs": [
        {
          "name": "newOwner",
          "type": "address"
        },
        {
          "name": "scanApplicationId",
          "type": "uint256"
        },
        {
          "name": "quote",
          "type": "uint256"
        }
      ],
      "name": "transferOwnership",
      "outputs": [],
      "payable": false,
      "stateMutability": "nonpayable",
      "type": "function"
    },
    {
      "constant": false,
      "inputs": [
        {
          "name": "patientId",
          "type": "address"
        },
        {
          "name": "scanRequestId",
          "type": "uint256"
        },
        {
          "name": "quote",
          "type": "uint256"
        },
        {
          "name": "comment",
          "type": "string"
        }
      ],
      "name": "applyToScan",
      "outputs": [],
      "payable": false,
      "stateMutability": "nonpayable",
      "type": "function"
    },
    {
      "inputs": [
        {
          "name": "_dbAddress",
          "type": "address"
        }
      ],
      "payable": false,
      "stateMutability": "nonpayable",
      "type": "constructor"
    },
    {
      "anonymous": false,
      "inputs": [
        {
          "indexed": false,
          "name": "status",
          "type": "uint8"
        }
      ],
      "name": "OnSmartContractStatusSet",
      "type": "event"
    },
    {
      "anonymous": false,
      "inputs": [
        {
          "indexed": true,
          "name": "previousOwner",
          "type": "address"
        },
        {
          "indexed": true,
          "name": "newOwner",
          "type": "address"
        }
      ],
      "name": "OwnershipTransferred",
      "type": "event"
    }
  ],
  "bytecode": "0x6060604052341561000f57600080fd5b6040516020806200516f83398101604052808051906020019091905050336000806101000a81548173ffffffffffffffffffffffffffffffffffffffff021916908373ffffffffffffffffffffffffffffffffffffffff16021790555060008173ffffffffffffffffffffffffffffffffffffffff161415151561009257600080fd5b80600160006101000a81548173ffffffffffffffffffffffffffffffffffffffff021916908373ffffffffffffffffffffffffffffffffffffffff1602179055505061508b80620000e46000396000f300606060405260043610610083576000357c0100000000000000000000000000000000000000000000000000000000900463ffffffff1680634c8ddddc146100885780638da5cb5b146100b757806391e06b6d1461010c578063a3f3587714610161578063d6ff529a146101a3578063f2fde38b146101e3578063f793bf681461021c575b600080fd5b341561009357600080fd5b61009b61027b565b604051808260ff1660ff16815260200191505060405180910390f35b34156100c257600080fd5b6100ca61028e565b604051808273ffffffffffffffffffffffffffffffffffffffff1673ffffffffffffffffffffffffffffffffffffffff16815260200191505060405180910390f35b341561011757600080fd5b61011f6102b3565b604051808273ffffffffffffffffffffffffffffffffffffffff1673ffffffffffffffffffffffffffffffffffffffff16815260200191505060405180910390f35b341561016c57600080fd5b6101a1600480803573ffffffffffffffffffffffffffffffffffffffff169060200190919080359060200190919050506102d9565b005b6101e1600480803573ffffffffffffffffffffffffffffffffffffffff1690602001909190803590602001909190803590602001909190505061030b565b005b34156101ee57600080fd5b61021a600480803573ffffffffffffffffffffffffffffffffffffffff169060200190919050506103af565b005b341561022757600080fd5b610279600480803573ffffffffffffffffffffffffffffffffffffffff169060200190919080359060200190919080359060200190919080359060200190820180359060200191909192905050610504565b005b600160149054906101000a900460ff1681565b6000809054906101000a900473ffffffffffffffffffffffffffffffffffffffff1681565b600160009054906101000a900473ffffffffffffffffffffffffffffffffffffffff1681565b610307600160009054906101000a900473ffffffffffffffffffffffffffffffffffffffff1633848461058e565b5050565b6000600160149054906101000a900460ff1660ff1614151561032c57600080fd5b80341015610379573373ffffffffffffffffffffffffffffffffffffffff166108fc349081150290604051600060405180830381858888f19350505050151561037457600080fd5b6103aa565b6103a9600160009054906101000a900473ffffffffffffffffffffffffffffffffffffffff1684338534866105a0565b5b505050565b6000809054906101000a900473ffffffffffffffffffffffffffffffffffffffff1673ffffffffffffffffffffffffffffffffffffffff163373ffffffffffffffffffffffffffffffffffffffff1614151561040a57600080fd5b600073ffffffffffffffffffffffffffffffffffffffff168173ffffffffffffffffffffffffffffffffffffffff161415151561044657600080fd5b8073ffffffffffffffffffffffffffffffffffffffff166000809054906101000a900473ffffffffffffffffffffffffffffffffffffffff1673ffffffffffffffffffffffffffffffffffffffff167f8be0079c531659141344cd1fd0a4f28419497f9722a3daafe3b4186f6b6457e060405160405180910390a3806000806101000a81548173ffffffffffffffffffffffffffffffffffffffff021916908373ffffffffffffffffffffffffffffffffffffffff16021790555050565b6000600160149054906101000a900460ff1660ff1614151561052557600080fd5b610587600160009054906101000a900473ffffffffffffffffffffffffffffffffffffffff163387878787878080601f0160208091040260200160405190810160405280939291908181526020018383808284378201915050505050506108c5565b5050505050565b61059a848484846108db565b50505050565b6000806000806000806000808d73ffffffffffffffffffffffffffffffffffffffff16634c77e5ba60405180807f6f646c6c2f7061796d656e742d61646472657373000000000000000000000000815250601401905060405180910390206000604051602001526040518263ffffffff167c0100000000000000000000000000000000000000000000000000000000028152600401808260001916600019168152602001915050602060405180830381600087803b151561066057600080fd5b6102c65a03f1151561067157600080fd5b5050506040518051905097508d73ffffffffffffffffffffffffffffffffffffffff1663bdc963d860405180807f6f646c6c2f7363616e2d7061796d656e742d70657263656e7461676500000000815250601c01905060405180910390206000604051602001526040518263ffffffff167c0100000000000000000000000000000000000000000000000000000000028152600401808260001916600019168152602001915050602060405180830381600087803b151561073157600080fd5b6102c65a03f1151561074257600080fd5b5050506040518051905096506107588a8a610cb6565b955061076e610768886064610ccf565b8a610d10565b945061077a8986610cb6565b935084925060009450839150600093506107958e8d8b610d43565b6107a08e8d8b610f19565b6107ab8e8e846110ef565b6107b68e8e846112c5565b6107c18e898561149b565b6107cc8e8985611671565b6107d98e8e8e8e8d611847565b6107e48e8d8f612203565b8773ffffffffffffffffffffffffffffffffffffffff166108fc849081150290604051600060405180830381858888f19350505050151561082457600080fd5b8c73ffffffffffffffffffffffffffffffffffffffff166108fc839081150290604051600060405180830381858888f19350505050151561086457600080fd5b60008611156108b557859050600095508b73ffffffffffffffffffffffffffffffffffffffff166108fc829081150290604051600060405180830381858888f1935050505015156108b457600080fd5b5b5050505050505050505050505050565b6108d3868686868686612362565b505050505050565b60018473ffffffffffffffffffffffffffffffffffffffff16637a0e03ec8360405180807f7363616e2d6170706c69636174696f6e2f73746174757300000000000000000081525060170182815260200191505060405180910390206000604051602001526040518263ffffffff167c0100000000000000000000000000000000000000000000000000000000028152600401808260001916600019168152602001915050602060405180830381600087803b151561099957600080fd5b6102c65a03f115156109aa57600080fd5b5050506040518051905060ff16148015610ac557508273ffffffffffffffffffffffffffffffffffffffff168473ffffffffffffffffffffffffffffffffffffffff16634c77e5ba8360405180807f7363616e2d6170706c69636174696f6e2f64656e74697374000000000000000081525060180182815260200191505060405180910390206000604051602001526040518263ffffffff167c0100000000000000000000000000000000000000000000000000000000028152600401808260001916600019168152602001915050602060405180830381600087803b1515610a9257600080fd5b6102c65a03f11515610aa357600080fd5b5050506040518051905073ffffffffffffffffffffffffffffffffffffffff16145b8015610bd257508173ffffffffffffffffffffffffffffffffffffffff168473ffffffffffffffffffffffffffffffffffffffff16634c77e5ba8360405180807f7363616e2d6170706c69636174696f6e2f70617469656e74000000000000000081525060180182815260200191505060405180910390206000604051602001526040518263ffffffff167c0100000000000000000000000000000000000000000000000000000000028152600401808260001916600019168152602001915050602060405180830381600087803b1515610b9f57600080fd5b6102c65a03f11515610bb057600080fd5b5050506040518051905073ffffffffffffffffffffffffffffffffffffffff16145b1515610bdd57600080fd5b8373ffffffffffffffffffffffffffffffffffffffff16630bd851588260405180807f7363616e2d6170706c69636174696f6e2f737461747573000000000000000000815250601701828152602001915050604051809103902060036040518363ffffffff167c01000000000000000000000000000000000000000000000000000000000281526004018083600019166000191681526020018260ff16815260200192505050600060405180830381600087803b1515610c9c57600080fd5b6102c65a03f11515610cad57600080fd5b50505050505050565b6000828211151515610cc457fe5b818303905092915050565b600080600083111515610cde57fe5b8284811515610ce957fe5b0490508284811515610cf757fe5b068184020184141515610d0657fe5b8091505092915050565b60008082840290506000841480610d315750828482811515610d2e57fe5b04145b1515610d3957fe5b8091505092915050565b8273ffffffffffffffffffffffffffffffffffffffff1663c8d1c0178360405180807f70617469656e742f7363616e2d746f74616c2d706169640000000000000000008152506017018273ffffffffffffffffffffffffffffffffffffffff1673ffffffffffffffffffffffffffffffffffffffff166c010000000000000000000000000281526014019150506040518091039020836040518363ffffffff167c010000000000000000000000000000000000000000000000000000000002815260040180836000191660001916815260200182815260200192505050600060405180830381600087803b1515610e3957600080fd5b6102c65a03f11515610e4a57600080fd5b5050508273ffffffffffffffffffffffffffffffffffffffff1663c8d1c01760405180807f70617469656e74732f7363616e2d746f74616c2d70616964000000000000000081525060180190506040518091039020836040518363ffffffff167c010000000000000000000000000000000000000000000000000000000002815260040180836000191660001916815260200182815260200192505050600060405180830381600087803b1515610f0057600080fd5b6102c65a03f11515610f1157600080fd5b505050505050565b8273ffffffffffffffffffffffffffffffffffffffff1663c8d1c0178360405180807f70617469656e742f746f74616c2d7061696400000000000000000000000000008152506012018273ffffffffffffffffffffffffffffffffffffffff1673ffffffffffffffffffffffffffffffffffffffff166c010000000000000000000000000281526014019150506040518091039020836040518363ffffffff167c010000000000000000000000000000000000000000000000000000000002815260040180836000191660001916815260200182815260200192505050600060405180830381600087803b151561100f57600080fd5b6102c65a03f1151561102057600080fd5b5050508273ffffffffffffffffffffffffffffffffffffffff1663c8d1c01760405180807f70617469656e74732f746f74616c2d706169640000000000000000000000000081525060130190506040518091039020836040518363ffffffff167c010000000000000000000000000000000000000000000000000000000002815260040180836000191660001916815260200182815260200192505050600060405180830381600087803b15156110d657600080fd5b6102c65a03f115156110e757600080fd5b505050505050565b8273ffffffffffffffffffffffffffffffffffffffff1663c8d1c0178360405180807f64656e746973742f7363616e2d746f74616c2d6561726e6564000000000000008152506019018273ffffffffffffffffffffffffffffffffffffffff1673ffffffffffffffffffffffffffffffffffffffff166c010000000000000000000000000281526014019150506040518091039020836040518363ffffffff167c010000000000000000000000000000000000000000000000000000000002815260040180836000191660001916815260200182815260200192505050600060405180830381600087803b15156111e557600080fd5b6102c65a03f115156111f657600080fd5b5050508273ffffffffffffffffffffffffffffffffffffffff1663c8d1c01760405180807f64656e74697374732f7363616e2d746f74616c2d6561726e6564000000000000815250601a0190506040518091039020836040518363ffffffff167c010000000000000000000000000000000000000000000000000000000002815260040180836000191660001916815260200182815260200192505050600060405180830381600087803b15156112ac57600080fd5b6102c65a03f115156112bd57600080fd5b505050505050565b8273ffffffffffffffffffffffffffffffffffffffff1663c8d1c0178360405180807f64656e746973742f746f74616c2d6561726e65640000000000000000000000008152506014018273ffffffffffffffffffffffffffffffffffffffff1673ffffffffffffffffffffffffffffffffffffffff166c010000000000000000000000000281526014019150506040518091039020836040518363ffffffff167c010000000000000000000000000000000000000000000000000000000002815260040180836000191660001916815260200182815260200192505050600060405180830381600087803b15156113bb57600080fd5b6102c65a03f115156113cc57600080fd5b5050508273ffffffffffffffffffffffffffffffffffffffff1663c8d1c01760405180807f64656e74697374732f746f74616c2d6561726e6564000000000000000000000081525060150190506040518091039020836040518363ffffffff167c010000000000000000000000000000000000000000000000000000000002815260040180836000191660001916815260200182815260200192505050600060405180830381600087803b151561148257600080fd5b6102c65a03f1151561149357600080fd5b505050505050565b8273ffffffffffffffffffffffffffffffffffffffff1663c8d1c0178360405180807f6f646c6c2f7363616e2d746f74616c2d6561726e6564000000000000000000008152506016018273ffffffffffffffffffffffffffffffffffffffff1673ffffffffffffffffffffffffffffffffffffffff166c010000000000000000000000000281526014019150506040518091039020836040518363ffffffff167c010000000000000000000000000000000000000000000000000000000002815260040180836000191660001916815260200182815260200192505050600060405180830381600087803b151561159157600080fd5b6102c65a03f115156115a257600080fd5b5050508273ffffffffffffffffffffffffffffffffffffffff1663c8d1c01760405180807f6f646c6c2f7363616e2d746f74616c2d6561726e65640000000000000000000081525060160190506040518091039020836040518363ffffffff167c010000000000000000000000000000000000000000000000000000000002815260040180836000191660001916815260200182815260200192505050600060405180830381600087803b151561165857600080fd5b6102c65a03f1151561166957600080fd5b505050505050565b8273ffffffffffffffffffffffffffffffffffffffff1663c8d1c0178360405180807f6f646c6c2f746f74616c2d6561726e65640000000000000000000000000000008152506011018273ffffffffffffffffffffffffffffffffffffffff1673ffffffffffffffffffffffffffffffffffffffff166c010000000000000000000000000281526014019150506040518091039020836040518363ffffffff167c010000000000000000000000000000000000000000000000000000000002815260040180836000191660001916815260200182815260200192505050600060405180830381600087803b151561176757600080fd5b6102c65a03f1151561177857600080fd5b5050508273ffffffffffffffffffffffffffffffffffffffff1663c8d1c01760405180807f6f646c6c2f746f74616c2d6561726e656400000000000000000000000000000081525060110190506040518091039020836040518363ffffffff167c010000000000000000000000000000000000000000000000000000000002815260040180836000191660001916815260200182815260200192505050600060405180830381600087803b151561182e57600080fd5b6102c65a03f1151561183f57600080fd5b505050505050565b600080611889876040805190810160405280600b81526020017f7363616e732d636f756e74000000000000000000000000000000000000000000815250612378565b91508673ffffffffffffffffffffffffffffffffffffffff1663bdc963d88560405180807f7363616e2d6170706c69636174696f6e2f7363616e2d72657175657374000000815250601d0182815260200191505060405180910390206000604051602001526040518263ffffffff167c0100000000000000000000000000000000000000000000000000000000028152600401808260001916600019168152602001915050602060405180830381600087803b151561194757600080fd5b6102c65a03f1151561195857600080fd5b50505060405180519050905060008773ffffffffffffffffffffffffffffffffffffffff16637a0e03ec8460405180807f636173652f737461747573000000000000000000000000000000000000000000815250600b0182815260200191505060405180910390206000604051602001526040518263ffffffff167c0100000000000000000000000000000000000000000000000000000000028152600401808260001916600019168152602001915050602060405180830381600087803b1515611a2257600080fd5b6102c65a03f11515611a3357600080fd5b5050506040518051905060ff16148015611b26575060018773ffffffffffffffffffffffffffffffffffffffff16637a0e03ec8660405180807f7363616e2d6170706c69636174696f6e2f73746174757300000000000000000081525060170182815260200191505060405180910390206000604051602001526040518263ffffffff167c0100000000000000000000000000000000000000000000000000000000028152600401808260001916600019168152602001915050602060405180830381600087803b1515611b0657600080fd5b6102c65a03f11515611b1757600080fd5b5050506040518051905060ff16145b8015611c0b575060018773ffffffffffffffffffffffffffffffffffffffff16637a0e03ec8360405180807f7363616e2d726571756573742f7374617475730000000000000000000000000081525060130182815260200191505060405180910390206000604051602001526040518263ffffffff167c0100000000000000000000000000000000000000000000000000000000028152600401808260001916600019168152602001915050602060405180830381600087803b1515611beb57600080fd5b6102c65a03f11515611bfc57600080fd5b5050506040518051905060ff16145b8015611d1857508473ffffffffffffffffffffffffffffffffffffffff168773ffffffffffffffffffffffffffffffffffffffff16634c77e5ba8360405180807f7363616e2d726571756573742f70617469656e7400000000000000000000000081525060140182815260200191505060405180910390206000604051602001526040518263ffffffff167c0100000000000000000000000000000000000000000000000000000000028152600401808260001916600019168152602001915050602060405180830381600087803b1515611ce557600080fd5b6102c65a03f11515611cf657600080fd5b5050506040518051905073ffffffffffffffffffffffffffffffffffffffff16145b8015611e2557508573ffffffffffffffffffffffffffffffffffffffff168773ffffffffffffffffffffffffffffffffffffffff16634c77e5ba8660405180807f7363616e2d6170706c69636174696f6e2f64656e74697374000000000000000081525060180182815260200191505060405180910390206000604051602001526040518263ffffffff167c0100000000000000000000000000000000000000000000000000000000028152600401808260001916600019168152602001915050602060405180830381600087803b1515611df257600080fd5b6102c65a03f11515611e0357600080fd5b5050506040518051905073ffffffffffffffffffffffffffffffffffffffff16145b8015611f3257508473ffffffffffffffffffffffffffffffffffffffff168773ffffffffffffffffffffffffffffffffffffffff16634c77e5ba8660405180807f7363616e2d6170706c69636174696f6e2f70617469656e74000000000000000081525060180182815260200191505060405180910390206000604051602001526040518263ffffffff167c0100000000000000000000000000000000000000000000000000000000028152600401808260001916600019168152602001915050602060405180830381600087803b1515611eff57600080fd5b6102c65a03f11515611f1057600080fd5b5050506040518051905073ffffffffffffffffffffffffffffffffffffffff16145b8015612023575060008773ffffffffffffffffffffffffffffffffffffffff16634c77e5ba60405180807f6f646c6c2f7061796d656e742d61646472657373000000000000000000000000815250601401905060405180910390206000604051602001526040518263ffffffff167c0100000000000000000000000000000000000000000000000000000000028152600401808260001916600019168152602001915050602060405180830381600087803b1515611fef57600080fd5b6102c65a03f1151561200057600080fd5b5050506040518051905073ffffffffffffffffffffffffffffffffffffffff1614155b151561202e57600080fd5b61203c87878784888761247e565b6120498787878587612a32565b8673ffffffffffffffffffffffffffffffffffffffff16630bd851588260405180807f7363616e2d726571756573742f73746174757300000000000000000000000000815250601301828152602001915050604051809103902060046040518363ffffffff167c01000000000000000000000000000000000000000000000000000000000281526004018083600019166000191681526020018260ff16815260200192505050600060405180830381600087803b151561210857600080fd5b6102c65a03f1151561211957600080fd5b5050508673ffffffffffffffffffffffffffffffffffffffff16630bd851588560405180807f7363616e2d6170706c69636174696f6e2f737461747573000000000000000000815250601701828152602001915050604051809103902060046040518363ffffffff167c01000000000000000000000000000000000000000000000000000000000281526004018083600019166000191681526020018260ff16815260200192505050600060405180830381600087803b15156121db57600080fd5b6102c65a03f115156121ec57600080fd5b5050506121fa878286612cca565b50505050505050565b6122b083836040805190810160405280600f81526020017f70617469656e742f64656e7469737400000000000000000000000000000000008152506040805190810160405280601681526020017f70617469656e742f64656e74697374732d636f756e74000000000000000000008152506040805190810160405280601381526020017f70617469656e742f64656e746973742d6b65790000000000000000000000000081525086612f18565b61235d83826040805190810160405280600f81526020017f64656e746973742f70617469656e7400000000000000000000000000000000008152506040805190810160405280601381526020017f64656e746973742f70617469656e742d6b6579000000000000000000000000008152506040805190810160405280601381526020017f64656e746973742f70617469656e742d6b65790000000000000000000000000081525087612f18565b505050565b612370868686868686613239565b505050505050565b60008273ffffffffffffffffffffffffffffffffffffffff1663bdc963d8836040518082805190602001908083835b6020831015156123cc57805182526020820191506020810190506020830392506123a7565b6001836020036101000a03801982511681845116808217855250505050505090500191505060405180910390206000604051602001526040518263ffffffff167c0100000000000000000000000000000000000000000000000000000000028152600401808260001916600019168152602001915050602060405180830381600087803b151561245b57600080fd5b6102c65a03f1151561246c57600080fd5b50505060405180519050905092915050565b8573ffffffffffffffffffffffffffffffffffffffff16630bd851588260405180807f636173652f737461747573000000000000000000000000000000000000000000815250600b01828152602001915050604051809103902060016040518363ffffffff167c01000000000000000000000000000000000000000000000000000000000281526004018083600019166000191681526020018260ff16815260200192505050600060405180830381600087803b151561253d57600080fd5b6102c65a03f1151561254e57600080fd5b5050508573ffffffffffffffffffffffffffffffffffffffff16633562fd208260405180807f636173652f637265617465642d6f6e0000000000000000000000000000000000815250600f018281526020019150506040518091039020426040518363ffffffff167c010000000000000000000000000000000000000000000000000000000002815260040180836000191660001916815260200182815260200192505050600060405180830381600087803b151561260c57600080fd5b6102c65a03f1151561261d57600080fd5b5050508573ffffffffffffffffffffffffffffffffffffffff16635a2bf25a8260405180807f636173652f64656e746973740000000000000000000000000000000000000000815250600c018281526020019150506040518091039020876040518363ffffffff167c01000000000000000000000000000000000000000000000000000000000281526004018083600019166000191681526020018273ffffffffffffffffffffffffffffffffffffffff1673ffffffffffffffffffffffffffffffffffffffff16815260200192505050600060405180830381600087803b151561270757600080fd5b6102c65a03f1151561271857600080fd5b5050508573ffffffffffffffffffffffffffffffffffffffff16635a2bf25a8260405180807f636173652f70617469656e740000000000000000000000000000000000000000815250600c018281526020019150506040518091039020866040518363ffffffff167c01000000000000000000000000000000000000000000000000000000000281526004018083600019166000191681526020018273ffffffffffffffffffffffffffffffffffffffff1673ffffffffffffffffffffffffffffffffffffffff16815260200192505050600060405180830381600087803b151561280257600080fd5b6102c65a03f1151561281357600080fd5b5050508573ffffffffffffffffffffffffffffffffffffffff16633562fd208260405180807f636173652f7363616e2d726571756573740000000000000000000000000000008152506011018281526020019150506040518091039020856040518363ffffffff167c010000000000000000000000000000000000000000000000000000000002815260040180836000191660001916815260200182815260200192505050600060405180830381600087803b15156128d157600080fd5b6102c65a03f115156128e257600080fd5b5050508573ffffffffffffffffffffffffffffffffffffffff16633562fd208260405180807f636173652f7363616e2d6170706c69636174696f6e00000000000000000000008152506015018281526020019150506040518091039020846040518363ffffffff167c010000000000000000000000000000000000000000000000000000000002815260040180836000191660001916815260200182815260200192505050600060405180830381600087803b15156129a057600080fd5b6102c65a03f115156129b157600080fd5b505050612a2a866040805190810160405280600481526020017f63617365000000000000000000000000000000000000000000000000000000008152506040805190810160405280600b81526020017f63617365732d636f756e7400000000000000000000000000000000000000000081525084613b2d565b505050505050565b8473ffffffffffffffffffffffffffffffffffffffff16633562fd208360405180807f636173652f616d6f756e74000000000000000000000000000000000000000000815250600b018281526020019150506040518091039020836040518363ffffffff167c010000000000000000000000000000000000000000000000000000000002815260040180836000191660001916815260200182815260200192505050600060405180830381600087803b1515612aed57600080fd5b6102c65a03f11515612afe57600080fd5b5050508473ffffffffffffffffffffffffffffffffffffffff16633eba9ed28360405180807f636173652f706169640000000000000000000000000000000000000000000000815250600901828152602001915050604051809103902060016040518363ffffffff167c01000000000000000000000000000000000000000000000000000000000281526004018083600019166000191681526020018215151515815260200192505050600060405180830381600087803b1515612bc157600080fd5b6102c65a03f11515612bd257600080fd5b505050612c4c85856040805190810160405280600c81526020017f64656e746973742f6361736500000000000000000000000000000000000000008152506040805190810160405280601381526020017f64656e746973742f63617365732d636f756e740000000000000000000000000081525086613e27565b612cc385846040805190810160405280600c81526020017f70617469656e742f6361736500000000000000000000000000000000000000008152506040805190810160405280601381526020017f70617469656e742f63617365732d636f756e740000000000000000000000000081525086613e27565b5050505050565b6000806000612d368686606060405190810160405280602481526020017f7363616e2d726571756573742f7363616e2d6170706c69636174696f6e732d6381526020017f6f756e74000000000000000000000000000000000000000000000000000000008152506140b7565b9250600091505b82821015612f10578573ffffffffffffffffffffffffffffffffffffffff1663bdc963d8868460405180807f7363616e2d726571756573742f7363616e2d6170706c69636174696f6e000000815250601d018381526020018281526020019250505060405180910390206000604051602001526040518263ffffffff167c0100000000000000000000000000000000000000000000000000000000028152600401808260001916600019168152602001915050602060405180830381600087803b1515612e0957600080fd5b6102c65a03f11515612e1a57600080fd5b5050506040518051905090508381141515612f03578573ffffffffffffffffffffffffffffffffffffffff16630bd851588260405180807f7363616e2d6170706c69636174696f6e2f737461747573000000000000000000815250601701828152602001915050604051809103902060056040518363ffffffff167c01000000000000000000000000000000000000000000000000000000000281526004018083600019166000191681526020018260ff16815260200192505050600060405180830381600087803b1515612eee57600080fd5b6102c65a03f11515612eff57600080fd5b5050505b8180600101925050612d3d565b505050505050565b60008673ffffffffffffffffffffffffffffffffffffffff16637a0e03ec8688856040518084805190602001908083835b602083101515612f6e5780518252602082019150602081019050602083039250612f49565b6001836020036101000a0380198251168184511680821785525050505050509050018373ffffffffffffffffffffffffffffffffffffffff1673ffffffffffffffffffffffffffffffffffffffff166c010000000000000000000000000281526014018273ffffffffffffffffffffffffffffffffffffffff1673ffffffffffffffffffffffffffffffffffffffff166c01000000000000000000000000028152601401935050505060405180910390206000604051602001526040518263ffffffff167c0100000000000000000000000000000000000000000000000000000000028152600401808260001916600019168152602001915050602060405180830381600087803b151561308157600080fd5b6102c65a03f1151561309257600080fd5b5050506040518051905060ff1614156130b3576130b286868486856141c6565b5b8573ffffffffffffffffffffffffffffffffffffffff16630bd851588587846040518084805190602001908083835b60208310151561310757805182526020820191506020810190506020830392506130e2565b6001836020036101000a0380198251168184511680821785525050505050509050018373ffffffffffffffffffffffffffffffffffffffff1673ffffffffffffffffffffffffffffffffffffffff166c010000000000000000000000000281526014018273ffffffffffffffffffffffffffffffffffffffff1673ffffffffffffffffffffffffffffffffffffffff166c010000000000000000000000000281526014019350505050604051809103902060016040518363ffffffff167c01000000000000000000000000000000000000000000000000000000000281526004018083600019166000191681526020018260ff16815260200192505050600060405180830381600087803b151561321d57600080fd5b6102c65a03f1151561322e57600080fd5b505050505050505050565b60008060008061327e8a6040805190810160405280601781526020017f7363616e2d6170706c69636174696f6e732d636f756e74000000000000000000815250612378565b935060008a73ffffffffffffffffffffffffffffffffffffffff16637a0e03ec8660405180807f7363616e2d6170706c69636174696f6e2f73746174757300000000000000000081525060170182815260200191505060405180910390206000604051602001526040518263ffffffff167c0100000000000000000000000000000000000000000000000000000000028152600401808260001916600019168152602001915050602060405180830381600087803b151561333e57600080fd5b6102c65a03f1151561334f57600080fd5b5050506040518051905060ff16148015613442575060018a73ffffffffffffffffffffffffffffffffffffffff16637a0e03ec8960405180807f7363616e2d726571756573742f7374617475730000000000000000000000000081525060130182815260200191505060405180910390206000604051602001526040518263ffffffff167c0100000000000000000000000000000000000000000000000000000000028152600401808260001916600019168152602001915050602060405180830381600087803b151561342257600080fd5b6102c65a03f1151561343357600080fd5b5050506040518051905060ff16145b801561354f57508773ffffffffffffffffffffffffffffffffffffffff168a73ffffffffffffffffffffffffffffffffffffffff16634c77e5ba8960405180807f7363616e2d726571756573742f70617469656e7400000000000000000000000081525060140182815260200191505060405180910390206000604051602001526040518263ffffffff167c0100000000000000000000000000000000000000000000000000000000028152600401808260001916600019168152602001915050602060405180830381600087803b151561351c57600080fd5b6102c65a03f1151561352d57600080fd5b5050506040518051905073ffffffffffffffffffffffffffffffffffffffff16145b151561355a57600080fd5b600092505b83831015613b07578973ffffffffffffffffffffffffffffffffffffffff1663bdc963d88a8560405180807f64656e746973742f7363616e2d6170706c69636174696f6e00000000000000008152506018018373ffffffffffffffffffffffffffffffffffffffff1673ffffffffffffffffffffffffffffffffffffffff166c010000000000000000000000000281526014018281526020019250505060405180910390206000604051602001526040518263ffffffff167c0100000000000000000000000000000000000000000000000000000000028152600401808260001916600019168152602001915050602060405180830381600087803b151561366657600080fd5b6102c65a03f1151561367757600080fd5b5050506040518051905091508973ffffffffffffffffffffffffffffffffffffffff1663bdc963d88360405180807f7363616e2d6170706c69636174696f6e2f7363616e2d72657175657374000000815250601d0182815260200191505060405180910390206000604051602001526040518263ffffffff167c0100000000000000000000000000000000000000000000000000000000028152600401808260001916600019168152602001915050602060405180830381600087803b151561373f57600080fd5b6102c65a03f1151561375057600080fd5b5050506040518051905090508681148015613af0575060018a73ffffffffffffffffffffffffffffffffffffffff16637a0e03ec8460405180807f7363616e2d6170706c69636174696f6e2f73746174757300000000000000000081525060170182815260200191505060405180910390206000604051602001526040518263ffffffff167c0100000000000000000000000000000000000000000000000000000000028152600401808260001916600019168152602001915050602060405180830381600087803b151561382457600080fd5b6102c65a03f1151561383557600080fd5b5050506040518051905060ff161480613927575060028a73ffffffffffffffffffffffffffffffffffffffff16637a0e03ec8460405180807f7363616e2d6170706c69636174696f6e2f73746174757300000000000000000081525060170182815260200191505060405180910390206000604051602001526040518263ffffffff167c0100000000000000000000000000000000000000000000000000000000028152600401808260001916600019168152602001915050602060405180830381600087803b151561390757600080fd5b6102c65a03f1151561391857600080fd5b5050506040518051905060ff16145b80613a0b575060048a73ffffffffffffffffffffffffffffffffffffffff16637a0e03ec8460405180807f7363616e2d6170706c69636174696f6e2f73746174757300000000000000000081525060170182815260200191505060405180910390206000604051602001526040518263ffffffff167c0100000000000000000000000000000000000000000000000000000000028152600401808260001916600019168152602001915050602060405180830381600087803b15156139eb57600080fd5b6102c65a03f115156139fc57600080fd5b5050506040518051905060ff16145b80613aef575060058a73ffffffffffffffffffffffffffffffffffffffff16637a0e03ec8460405180807f7363616e2d6170706c69636174696f6e2f73746174757300000000000000000081525060170182815260200191505060405180910390206000604051602001526040518263ffffffff167c0100000000000000000000000000000000000000000000000000000000028152600401808260001916600019168152602001915050602060405180830381600087803b1515613acf57600080fd5b6102c65a03f11515613ae057600080fd5b5050506040518051905060ff16145b5b15613afa57613b21565b828060010193505061355f565b613b128a8886614482565b613b208a8a8a878a8a61480c565b5b50505050505050505050565b60008473ffffffffffffffffffffffffffffffffffffffff1663bdc963d8846040518082805190602001908083835b602083101515613b815780518252602082019150602081019050602083039250613b5c565b6001836020036101000a03801982511681845116808217855250505050505090500191505060405180910390206000604051602001526040518263ffffffff167c0100000000000000000000000000000000000000000000000000000000028152600401808260001916600019168152602001915050602060405180830381600087803b1515613c1057600080fd5b6102c65a03f11515613c2157600080fd5b5050506040518051905090508473ffffffffffffffffffffffffffffffffffffffff16633562fd2085836040518083805190602001908083835b602083101515613c805780518252602082019150602081019050602083039250613c5b565b6001836020036101000a038019825116818451168082178552505050505050905001828152602001925050506040518091039020846040518363ffffffff167c010000000000000000000000000000000000000000000000000000000002815260040180836000191660001916815260200182815260200192505050600060405180830381600087803b1515613d1557600080fd5b6102c65a03f11515613d2657600080fd5b5050508473ffffffffffffffffffffffffffffffffffffffff16633562fd20846040518082805190602001908083835b602083101515613d7b5780518252602082019150602081019050602083039250613d56565b6001836020036101000a0380198251168184511680821785525050505050509050019150506040518091039020600184016040518363ffffffff167c010000000000000000000000000000000000000000000000000000000002815260040180836000191660001916815260200182815260200192505050600060405180830381600087803b1515613e0c57600080fd5b6102c65a03f11515613e1d57600080fd5b5050505050505050565b6000613e34868685614cfb565b90508573ffffffffffffffffffffffffffffffffffffffff16633562fd208587846040518084805190602001908083835b602083101515613e8a5780518252602082019150602081019050602083039250613e65565b6001836020036101000a0380198251168184511680821785525050505050509050018373ffffffffffffffffffffffffffffffffffffffff1673ffffffffffffffffffffffffffffffffffffffff166c0100000000000000000000000002815260140182815260200193505050506040518091039020846040518363ffffffff167c010000000000000000000000000000000000000000000000000000000002815260040180836000191660001916815260200182815260200192505050600060405180830381600087803b1515613f6157600080fd5b6102c65a03f11515613f7257600080fd5b5050508573ffffffffffffffffffffffffffffffffffffffff16633562fd2084876040518083805190602001908083835b602083101515613fc85780518252602082019150602081019050602083039250613fa3565b6001836020036101000a0380198251168184511680821785525050505050509050018273ffffffffffffffffffffffffffffffffffffffff1673ffffffffffffffffffffffffffffffffffffffff166c01000000000000000000000000028152601401925050506040518091039020600184016040518363ffffffff167c010000000000000000000000000000000000000000000000000000000002815260040180836000191660001916815260200182815260200192505050600060405180830381600087803b151561409b57600080fd5b6102c65a03f115156140ac57600080fd5b505050505050505050565b60008373ffffffffffffffffffffffffffffffffffffffff1663bdc963d883856040518083805190602001908083835b60208310151561410c57805182526020820191506020810190506020830392506140e7565b6001836020036101000a0380198251168184511680821785525050505050509050018281526020019250505060405180910390206000604051602001526040518263ffffffff167c0100000000000000000000000000000000000000000000000000000000028152600401808260001916600019168152602001915050602060405180830381600087803b15156141a257600080fd5b6102c65a03f115156141b357600080fd5b5050506040518051905090509392505050565b60006141d3868685614cfb565b90508573ffffffffffffffffffffffffffffffffffffffff16635a2bf25a8587846040518084805190602001908083835b6020831015156142295780518252602082019150602081019050602083039250614204565b6001836020036101000a0380198251168184511680821785525050505050509050018373ffffffffffffffffffffffffffffffffffffffff1673ffffffffffffffffffffffffffffffffffffffff166c0100000000000000000000000002815260140182815260200193505050506040518091039020846040518363ffffffff167c01000000000000000000000000000000000000000000000000000000000281526004018083600019166000191681526020018273ffffffffffffffffffffffffffffffffffffffff1673ffffffffffffffffffffffffffffffffffffffff16815260200192505050600060405180830381600087803b151561432c57600080fd5b6102c65a03f1151561433d57600080fd5b5050508573ffffffffffffffffffffffffffffffffffffffff16633562fd2084876040518083805190602001908083835b602083101515614393578051825260208201915060208101905060208303925061436e565b6001836020036101000a0380198251168184511680821785525050505050509050018273ffffffffffffffffffffffffffffffffffffffff1673ffffffffffffffffffffffffffffffffffffffff166c01000000000000000000000000028152601401925050506040518091039020600184016040518363ffffffff167c010000000000000000000000000000000000000000000000000000000002815260040180836000191660001916815260200182815260200192505050600060405180830381600087803b151561446657600080fd5b6102c65a03f1151561447757600080fd5b505050505050505050565b8273ffffffffffffffffffffffffffffffffffffffff16630bd851588260405180807f7363616e2d6170706c69636174696f6e2f737461747573000000000000000000815250601701828152602001915050604051809103902060016040518363ffffffff167c01000000000000000000000000000000000000000000000000000000000281526004018083600019166000191681526020018260ff16815260200192505050600060405180830381600087803b151561454157600080fd5b6102c65a03f1151561455257600080fd5b5050508273ffffffffffffffffffffffffffffffffffffffff16633562fd208260405180807f7363616e2d6170706c69636174696f6e2f637265617465642d6f6e0000000000815250601b018281526020019150506040518091039020426040518363ffffffff167c010000000000000000000000000000000000000000000000000000000002815260040180836000191660001916815260200182815260200192505050600060405180830381600087803b151561461057600080fd5b6102c65a03f1151561462157600080fd5b5050508273ffffffffffffffffffffffffffffffffffffffff16633562fd208260405180807f7363616e2d6170706c69636174696f6e2f7363616e2d72657175657374000000815250601d018281526020019150506040518091039020846040518363ffffffff167c010000000000000000000000000000000000000000000000000000000002815260040180836000191660001916815260200182815260200192505050600060405180830381600087803b15156146df57600080fd5b6102c65a03f115156146f057600080fd5b505050614769836040805190810160405280601081526020017f7363616e2d6170706c69636174696f6e000000000000000000000000000000008152506040805190810160405280601781526020017f7363616e2d6170706c69636174696f6e732d636f756e7400000000000000000081525084613b2d565b61480783836040805190810160405280601d81526020017f7363616e2d726571756573742f7363616e2d6170706c69636174696f6e000000815250606060405190810160405280602481526020017f7363616e2d726571756573742f7363616e2d6170706c69636174696f6e732d6381526020017f6f756e740000000000000000000000000000000000000000000000000000000081525085614e45565b505050565b8573ffffffffffffffffffffffffffffffffffffffff16633562fd208460405180807f7363616e2d6170706c69636174696f6e2f71756f7465000000000000000000008152506016018281526020019150506040518091039020846040518363ffffffff167c010000000000000000000000000000000000000000000000000000000002815260040180836000191660001916815260200182815260200192505050600060405180830381600087803b15156148c757600080fd5b6102c65a03f115156148d857600080fd5b5050508573ffffffffffffffffffffffffffffffffffffffff1663f58660668460405180807f7363616e2d6170706c69636174696f6e2f636f6d6d656e7400000000000000008152506018018281526020019150506040518091039020836040518363ffffffff167c010000000000000000000000000000000000000000000000000000000002815260040180836000191660001916815260200180602001828103825283818151815260200191508051906020019080838360005b838110156149af578082015181840152602081019050614994565b50505050905090810190601f1680156149dc5780820380516001836020036101000a031916815260200191505b509350505050600060405180830381600087803b15156149fb57600080fd5b6102c65a03f11515614a0c57600080fd5b5050508573ffffffffffffffffffffffffffffffffffffffff16635a2bf25a8460405180807f7363616e2d6170706c69636174696f6e2f64656e7469737400000000000000008152506018018281526020019150506040518091039020876040518363ffffffff167c01000000000000000000000000000000000000000000000000000000000281526004018083600019166000191681526020018273ffffffffffffffffffffffffffffffffffffffff1673ffffffffffffffffffffffffffffffffffffffff16815260200192505050600060405180830381600087803b1515614af657600080fd5b6102c65a03f11515614b0757600080fd5b5050508573ffffffffffffffffffffffffffffffffffffffff16635a2bf25a8460405180807f7363616e2d6170706c69636174696f6e2f70617469656e7400000000000000008152506018018281526020019150506040518091039020866040518363ffffffff167c01000000000000000000000000000000000000000000000000000000000281526004018083600019166000191681526020018273ffffffffffffffffffffffffffffffffffffffff1673ffffffffffffffffffffffffffffffffffffffff16815260200192505050600060405180830381600087803b1515614bf157600080fd5b6102c65a03f11515614c0257600080fd5b505050614c7c86866040805190810160405280601881526020017f64656e746973742f7363616e2d6170706c69636174696f6e00000000000000008152506040805190810160405280601f81526020017f64656e746973742f7363616e2d6170706c69636174696f6e732d636f756e740081525087613e27565b614cf386856040805190810160405280601881526020017f70617469656e742f7363616e2d6170706c69636174696f6e00000000000000008152506040805190810160405280601f81526020017f70617469656e742f7363616e2d6170706c69636174696f6e732d636f756e740081525087613e27565b505050505050565b60008373ffffffffffffffffffffffffffffffffffffffff1663bdc963d883856040518083805190602001908083835b602083101515614d505780518252602082019150602081019050602083039250614d2b565b6001836020036101000a0380198251168184511680821785525050505050509050018273ffffffffffffffffffffffffffffffffffffffff1673ffffffffffffffffffffffffffffffffffffffff166c010000000000000000000000000281526014019250505060405180910390206000604051602001526040518263ffffffff167c0100000000000000000000000000000000000000000000000000000000028152600401808260001916600019168152602001915050602060405180830381600087803b1515614e2157600080fd5b6102c65a03f11515614e3257600080fd5b5050506040518051905090509392505050565b6000614e528686856140b7565b90508573ffffffffffffffffffffffffffffffffffffffff16633562fd208587846040518084805190602001908083835b602083101515614ea85780518252602082019150602081019050602083039250614e83565b6001836020036101000a03801982511681845116808217855250505050505090500183815260200182815260200193505050506040518091039020846040518363ffffffff167c010000000000000000000000000000000000000000000000000000000002815260040180836000191660001916815260200182815260200192505050600060405180830381600087803b1515614f4457600080fd5b6102c65a03f11515614f5557600080fd5b5050508573ffffffffffffffffffffffffffffffffffffffff16633562fd2084876040518083805190602001908083835b602083101515614fab5780518252602082019150602081019050602083039250614f86565b6001836020036101000a038019825116818451168082178552505050505050905001828152602001925050506040518091039020600184016040518363ffffffff167c010000000000000000000000000000000000000000000000000000000002815260040180836000191660001916815260200182815260200192505050600060405180830381600087803b151561504357600080fd5b6102c65a03f1151561505457600080fd5b5050505050505050505600a165627a7a723058205b5b2416f0271109076573e4e2e4937aa7afc1d0e961a2716abb35bff2527e1b0029",
  "source": "pragma solidity 0.4.18;\nimport \"./Restrictor.sol\";\nimport \"../lib/odll/userManager.sol\";\n\ncontract ScanApplicationWriter is Restrictor {\n  function ScanApplicationWriter(address _dbAddress) public {\n    require(_dbAddress != 0x0);\n    dbAddress = _dbAddress;\n  }\n\n  // Scan Application\n  function applyToScan (\n    address patientId,\n    uint scanRequestId,\n    uint quote,\n    string comment\n  )\n    external\n    onlyPermittedSmartContract\n  {\n    userManager.applyToScan(dbAddress, msg.sender, patientId, scanRequestId, quote, comment);\n  }\n\n  function cancelScanApplication (\n    address patientId,\n    uint scanApplicationId\n  )\n    external\n  {\n    userManager.cancelScanApplication(dbAddress, msg.sender, patientId, scanApplicationId);\n  }\n\n  function acceptScanApplication (\n    address dentistId,\n    uint scanApplicationId,\n    uint quote\n  )\n    external\n    payable\n    onlyPermittedSmartContract\n  {\n    if (msg.value < quote) {\n      msg.sender.transfer(msg.value);\n      return;\n    }\n\n    userManager.acceptScanApplication(dbAddress, dentistId, msg.sender, scanApplicationId, msg.value, quote);\n  }\n}\n",
  "sourcePath": "/Users/danielokwufulueze/dev/vue/apps/oraldatalink/contracts/odll/ScanApplicationWriter.sol",
  "compiler": {
    "name": "solc",
    "version": "0.4.18+commit.9cf6e910.Emscripten.clang"
  },
  "schemaVersion": "1.0.1",
  "updatedAt": "2017-11-18T09:28:59.165Z"
}