{
  "contractName": "ScanRequestWriter2",
  "abi": [
    {
      "constant": false,
      "inputs": [
        {
          "name": "userId",
          "type": "address"
        },
        {
          "name": "paymentId",
          "type": "uint256"
        }
      ],
      "name": "lockPayment",
      "outputs": [],
      "payable": false,
      "stateMutability": "nonpayable",
      "type": "function"
    },
    {
      "constant": true,
      "inputs": [],
      "name": "smartContractStatus",
      "outputs": [
        {
          "name": "",
          "type": "uint8"
        }
      ],
      "payable": false,
      "stateMutability": "view",
      "type": "function"
    },
    {
      "constant": true,
      "inputs": [],
      "name": "owner",
      "outputs": [
        {
          "name": "",
          "type": "address"
        }
      ],
      "payable": false,
      "stateMutability": "view",
      "type": "function"
    },
    {
      "constant": true,
      "inputs": [],
      "name": "dbAddress",
      "outputs": [
        {
          "name": "",
          "type": "address"
        }
      ],
      "payable": false,
      "stateMutability": "view",
      "type": "function"
    },
    {
      "constant": false,
      "inputs": [
        {
          "name": "patientId",
          "type": "address"
        },
        {
          "name": "scanRequestId",
          "type": "uint256"
        },
        {
          "name": "quote",
          "type": "uint256"
        },
        {
          "name": "scanDate",
          "type": "bytes32"
        },
        {
          "name": "scanTime",
          "type": "bytes32"
        },
        {
          "name": "comment",
          "type": "string"
        }
      ],
      "name": "acceptScanRequest",
      "outputs": [],
      "payable": false,
      "stateMutability": "nonpayable",
      "type": "function"
    },
    {
      "constant": false,
      "inputs": [
        {
          "name": "scanRequestId",
          "type": "uint256"
        }
      ],
      "name": "cancelScanRequest",
      "outputs": [],
      "payable": false,
      "stateMutability": "nonpayable",
      "type": "function"
    },
    {
      "constant": false,
      "inputs": [
        {
          "name": "patientId",
          "type": "address"
        },
        {
          "name": "scanRequestId",
          "type": "uint256"
        }
      ],
      "name": "rejectScanRequest",
      "outputs": [],
      "payable": false,
      "stateMutability": "nonpayable",
      "type": "function"
    },
    {
      "constant": false,
      "inputs": [
        {
          "name": "scanRequestId",
          "type": "uint256"
        }
      ],
      "name": "expireScanRequest",
      "outputs": [],
      "payable": false,
      "stateMutability": "nonpayable",
      "type": "function"
    },
    {
      "constant": false,
      "inputs": [
        {
          "name": "newOwner",
          "type": "address"
        }
      ],
      "name": "transferOwnership",
      "outputs": [],
      "payable": false,
      "stateMutability": "nonpayable",
      "type": "function"
    },
    {
      "inputs": [
        {
          "name": "_dbAddress",
          "type": "address"
        }
      ],
      "payable": false,
      "stateMutability": "nonpayable",
      "type": "constructor"
    },
    {
      "anonymous": false,
      "inputs": [
        {
          "indexed": false,
          "name": "paymentId",
          "type": "uint256"
        }
      ],
      "name": "PaymentLocked",
      "type": "event"
    },
    {
      "anonymous": false,
      "inputs": [
        {
          "indexed": false,
          "name": "status",
          "type": "uint8"
        }
      ],
      "name": "OnSmartContractStatusSet",
      "type": "event"
    },
    {
      "anonymous": false,
      "inputs": [
        {
          "indexed": true,
          "name": "previousOwner",
          "type": "address"
        },
        {
          "indexed": true,
          "name": "newOwner",
          "type": "address"
        }
      ],
      "name": "OwnershipTransferred",
      "type": "event"
    }
  ],
  "bytecode": "0x6060604052341561000f57600080fd5b60405160208061384783398101604052808051906020019091905050336000806101000a81548173ffffffffffffffffffffffffffffffffffffffff021916908373ffffffffffffffffffffffffffffffffffffffff16021790555060008173ffffffffffffffffffffffffffffffffffffffff161415151561009157600080fd5b80600160006101000a81548173ffffffffffffffffffffffffffffffffffffffff021916908373ffffffffffffffffffffffffffffffffffffffff16021790555050613765806100e26000396000f300606060405260043610610099576000357c0100000000000000000000000000000000000000000000000000000000900463ffffffff1680633f4b14701461009e5780634c8ddddc146100e05780638da5cb5b1461010f57806391e06b6d1461016457806395f66ee1146101b95780639878585d14610232578063bcd1269b14610255578063d05aa65214610297578063f2fde38b146102ba575b600080fd5b34156100a957600080fd5b6100de600480803573ffffffffffffffffffffffffffffffffffffffff169060200190919080359060200190919050506102f3565b005b34156100eb57600080fd5b6100f361054a565b604051808260ff1660ff16815260200191505060405180910390f35b341561011a57600080fd5b61012261055d565b604051808273ffffffffffffffffffffffffffffffffffffffff1673ffffffffffffffffffffffffffffffffffffffff16815260200191505060405180910390f35b341561016f57600080fd5b610177610582565b604051808273ffffffffffffffffffffffffffffffffffffffff1673ffffffffffffffffffffffffffffffffffffffff16815260200191505060405180910390f35b34156101c457600080fd5b610230600480803573ffffffffffffffffffffffffffffffffffffffff16906020019091908035906020019091908035906020019091908035600019169060200190919080356000191690602001909190803590602001908201803590602001919091929050506105a8565b005b341561023d57600080fd5b6102536004808035906020019091905050610636565b005b341561026057600080fd5b610295600480803573ffffffffffffffffffffffffffffffffffffffff16906020019091908035906020019091905050610687565b005b34156102a257600080fd5b6102b860048080359060200190919050506106da565b005b34156102c557600080fd5b6102f1600480803573ffffffffffffffffffffffffffffffffffffffff1690602001909190505061072a565b005b816102fd8161087f565b151561030857600080fd5b8160018060ff16600160009054906101000a900473ffffffffffffffffffffffffffffffffffffffff1673ffffffffffffffffffffffffffffffffffffffff16637a0e03ec8460405180807f7061796d656e742f737461746500000000000000000000000000000000000000815250600d0182815260200191505060405180910390206000604051602001526040518263ffffffff167c0100000000000000000000000000000000000000000000000000000000028152600401808260001916600019168152602001915050602060405180830381600087803b15156103ed57600080fd5b6102c65a03f115156103fe57600080fd5b5050506040518051905060ff1614151561041757600080fd5b600160009054906101000a900473ffffffffffffffffffffffffffffffffffffffff1673ffffffffffffffffffffffffffffffffffffffff16630bd851588560405180807f7061796d656e742f737461746500000000000000000000000000000000000000815250600d01828152602001915050604051809103902060026040518363ffffffff167c01000000000000000000000000000000000000000000000000000000000281526004018083600019166000191681526020018260ff16815260200192505050600060405180830381600087803b15156104f857600080fd5b6102c65a03f1151561050957600080fd5b5050507fa5f78a79f83dfad686a63ca003a42f6c262d9fdc43a6742c56f5c27c11b9a1e2846040518082815260200191505060405180910390a15050505050565b600160149054906101000a900460ff1681565b6000809054906101000a900473ffffffffffffffffffffffffffffffffffffffff1681565b600160009054906101000a900473ffffffffffffffffffffffffffffffffffffffff1681565b6000600160149054906101000a900460ff1660ff161415156105c957600080fd5b61062d600160009054906101000a900473ffffffffffffffffffffffffffffffffffffffff1633898989898989898080601f0160208091040260200160405190810160405280939291908181526020018383808284378201915050505050506108a6565b50505050505050565b6000600160149054906101000a900460ff1660ff1614151561065757600080fd5b610684600160009054906101000a900473ffffffffffffffffffffffffffffffffffffffff1633836108c0565b50565b6000600160149054906101000a900460ff1660ff161415156106a857600080fd5b6106d6600160009054906101000a900473ffffffffffffffffffffffffffffffffffffffff163384846108d0565b5050565b6000600160149054906101000a900460ff1660ff161415156106fb57600080fd5b610727600160009054906101000a900473ffffffffffffffffffffffffffffffffffffffff16826108e2565b50565b6000809054906101000a900473ffffffffffffffffffffffffffffffffffffffff1673ffffffffffffffffffffffffffffffffffffffff163373ffffffffffffffffffffffffffffffffffffffff1614151561078557600080fd5b600073ffffffffffffffffffffffffffffffffffffffff168173ffffffffffffffffffffffffffffffffffffffff16141515156107c157600080fd5b8073ffffffffffffffffffffffffffffffffffffffff166000809054906101000a900473ffffffffffffffffffffffffffffffffffffffff1673ffffffffffffffffffffffffffffffffffffffff167f8be0079c531659141344cd1fd0a4f28419497f9722a3daafe3b4186f6b6457e060405160405180910390a3806000806101000a81548173ffffffffffffffffffffffffffffffffffffffff021916908373ffffffffffffffffffffffffffffffffffffffff16021790555050565b600061088c8260016108f0565b801561089f575061089e82600161090b565b5b9050919050565b6108b68888888888888888610926565b5050505050505050565b6108cb838383610b24565b505050565b6108dc84848484610df1565b50505050565b6108ec82826111cc565b5050565b60006108fb8361138b565b60ff168260ff1614905092915050565b6000610916836114c8565b60ff168260ff1614905092915050565b8673ffffffffffffffffffffffffffffffffffffffff168873ffffffffffffffffffffffffffffffffffffffff16634c77e5ba8760405180807f7363616e2d726571756573742f64656e7469737400000000000000000000000081525060140182815260200191505060405180910390206000604051602001526040518263ffffffff167c0100000000000000000000000000000000000000000000000000000000028152600401808260001916600019168152602001915050602060405180830381600087803b15156109f957600080fd5b6102c65a03f11515610a0a57600080fd5b5050506040518051905073ffffffffffffffffffffffffffffffffffffffff16141515610a3657600080fd5b610a468888888888888888611605565b8773ffffffffffffffffffffffffffffffffffffffff16633eba9ed28660405180807f7363616e2d726571756573742f69732d61636365707465643f00000000000000815250601901828152602001915050604051809103902060016040518363ffffffff167c01000000000000000000000000000000000000000000000000000000000281526004018083600019166000191681526020018215151515815260200192505050600060405180830381600087803b1515610b0657600080fd5b6102c65a03f11515610b1757600080fd5b5050505050505050505050565b60018373ffffffffffffffffffffffffffffffffffffffff16637a0e03ec8360405180807f7363616e2d726571756573742f7374617475730000000000000000000000000081525060130182815260200191505060405180910390206000604051602001526040518263ffffffff167c0100000000000000000000000000000000000000000000000000000000028152600401808260001916600019168152602001915050602060405180830381600087803b1515610be257600080fd5b6102c65a03f11515610bf357600080fd5b5050506040518051905060ff16148015610d0e57508173ffffffffffffffffffffffffffffffffffffffff168373ffffffffffffffffffffffffffffffffffffffff16634c77e5ba8360405180807f7363616e2d726571756573742f70617469656e7400000000000000000000000081525060140182815260200191505060405180910390206000604051602001526040518263ffffffff167c0100000000000000000000000000000000000000000000000000000000028152600401808260001916600019168152602001915050602060405180830381600087803b1515610cdb57600080fd5b6102c65a03f11515610cec57600080fd5b5050506040518051905073ffffffffffffffffffffffffffffffffffffffff16145b1515610d1957600080fd5b8273ffffffffffffffffffffffffffffffffffffffff16630bd851588260405180807f7363616e2d726571756573742f73746174757300000000000000000000000000815250601301828152602001915050604051809103902060036040518363ffffffff167c01000000000000000000000000000000000000000000000000000000000281526004018083600019166000191681526020018260ff16815260200192505050600060405180830381600087803b1515610dd857600080fd5b6102c65a03f11515610de957600080fd5b505050505050565b60018473ffffffffffffffffffffffffffffffffffffffff16637a0e03ec8360405180807f7363616e2d726571756573742f7374617475730000000000000000000000000081525060130182815260200191505060405180910390206000604051602001526040518263ffffffff167c0100000000000000000000000000000000000000000000000000000000028152600401808260001916600019168152602001915050602060405180830381600087803b1515610eaf57600080fd5b6102c65a03f11515610ec057600080fd5b5050506040518051905060ff16148015610fdb57508273ffffffffffffffffffffffffffffffffffffffff168473ffffffffffffffffffffffffffffffffffffffff16634c77e5ba8360405180807f7363616e2d726571756573742f64656e7469737400000000000000000000000081525060140182815260200191505060405180910390206000604051602001526040518263ffffffff167c0100000000000000000000000000000000000000000000000000000000028152600401808260001916600019168152602001915050602060405180830381600087803b1515610fa857600080fd5b6102c65a03f11515610fb957600080fd5b5050506040518051905073ffffffffffffffffffffffffffffffffffffffff16145b80156110e857508173ffffffffffffffffffffffffffffffffffffffff168473ffffffffffffffffffffffffffffffffffffffff16634c77e5ba8360405180807f7363616e2d726571756573742f70617469656e7400000000000000000000000081525060140182815260200191505060405180910390206000604051602001526040518263ffffffff167c0100000000000000000000000000000000000000000000000000000000028152600401808260001916600019168152602001915050602060405180830381600087803b15156110b557600080fd5b6102c65a03f115156110c657600080fd5b5050506040518051905073ffffffffffffffffffffffffffffffffffffffff16145b15156110f357600080fd5b8373ffffffffffffffffffffffffffffffffffffffff16630bd851588260405180807f7363616e2d726571756573742f73746174757300000000000000000000000000815250601301828152602001915050604051809103902060056040518363ffffffff167c01000000000000000000000000000000000000000000000000000000000281526004018083600019166000191681526020018260ff16815260200192505050600060405180830381600087803b15156111b257600080fd5b6102c65a03f115156111c357600080fd5b50505050505050565b60018273ffffffffffffffffffffffffffffffffffffffff16637a0e03ec8360405180807f7363616e2d726571756573742f7374617475730000000000000000000000000081525060130182815260200191505060405180910390206000604051602001526040518263ffffffff167c0100000000000000000000000000000000000000000000000000000000028152600401808260001916600019168152602001915050602060405180830381600087803b151561128a57600080fd5b6102c65a03f1151561129b57600080fd5b5050506040518051905060ff161415156112b457600080fd5b8173ffffffffffffffffffffffffffffffffffffffff16630bd851588260405180807f7363616e2d726571756573742f73746174757300000000000000000000000000815250601301828152602001915050604051809103902060026040518363ffffffff167c01000000000000000000000000000000000000000000000000000000000281526004018083600019166000191681526020018260ff16815260200192505050600060405180830381600087803b151561137357600080fd5b6102c65a03f1151561138457600080fd5b5050505050565b6000600160009054906101000a900473ffffffffffffffffffffffffffffffffffffffff1673ffffffffffffffffffffffffffffffffffffffff16637a0e03ec8360405180807f757365722f7479706500000000000000000000000000000000000000000000008152506009018273ffffffffffffffffffffffffffffffffffffffff1673ffffffffffffffffffffffffffffffffffffffff166c0100000000000000000000000002815260140191505060405180910390206000604051602001526040518263ffffffff167c0100000000000000000000000000000000000000000000000000000000028152600401808260001916600019168152602001915050602060405180830381600087803b15156114a657600080fd5b6102c65a03f115156114b757600080fd5b505050604051805190509050919050565b6000600160009054906101000a900473ffffffffffffffffffffffffffffffffffffffff1673ffffffffffffffffffffffffffffffffffffffff16637a0e03ec8360405180807f757365722f737461747573000000000000000000000000000000000000000000815250600b018273ffffffffffffffffffffffffffffffffffffffff1673ffffffffffffffffffffffffffffffffffffffff166c0100000000000000000000000002815260140191505060405180910390206000604051602001526040518263ffffffff167c0100000000000000000000000000000000000000000000000000000000028152600401808260001916600019168152602001915050602060405180830381600087803b15156115e357600080fd5b6102c65a03f115156115f457600080fd5b505050604051805190509050919050565b600080600080600061164c8d6040805190810160405280601781526020017f7363616e2d6170706c69636174696f6e732d636f756e740000000000000000008152506120f1565b945060008d73ffffffffffffffffffffffffffffffffffffffff16637a0e03ec8760405180807f7363616e2d6170706c69636174696f6e2f73746174757300000000000000000081525060170182815260200191505060405180910390206000604051602001526040518263ffffffff167c0100000000000000000000000000000000000000000000000000000000028152600401808260001916600019168152602001915050602060405180830381600087803b151561170c57600080fd5b6102c65a03f1151561171d57600080fd5b5050506040518051905060ff16148015611810575060018d73ffffffffffffffffffffffffffffffffffffffff16637a0e03ec8c60405180807f7363616e2d726571756573742f7374617475730000000000000000000000000081525060130182815260200191505060405180910390206000604051602001526040518263ffffffff167c0100000000000000000000000000000000000000000000000000000000028152600401808260001916600019168152602001915050602060405180830381600087803b15156117f057600080fd5b6102c65a03f1151561180157600080fd5b5050506040518051905060ff16145b801561191d57508a73ffffffffffffffffffffffffffffffffffffffff168d73ffffffffffffffffffffffffffffffffffffffff16634c77e5ba8c60405180807f7363616e2d726571756573742f70617469656e7400000000000000000000000081525060140182815260200191505060405180910390206000604051602001526040518263ffffffff167c0100000000000000000000000000000000000000000000000000000000028152600401808260001916600019168152602001915050602060405180830381600087803b15156118ea57600080fd5b6102c65a03f115156118fb57600080fd5b5050506040518051905073ffffffffffffffffffffffffffffffffffffffff16145b151561192857600080fd5b600093505b84841015611ed5578c73ffffffffffffffffffffffffffffffffffffffff1663bdc963d88d8660405180807f64656e746973742f7363616e2d6170706c69636174696f6e00000000000000008152506018018373ffffffffffffffffffffffffffffffffffffffff1673ffffffffffffffffffffffffffffffffffffffff166c010000000000000000000000000281526014018281526020019250505060405180910390206000604051602001526040518263ffffffff167c0100000000000000000000000000000000000000000000000000000000028152600401808260001916600019168152602001915050602060405180830381600087803b1515611a3457600080fd5b6102c65a03f11515611a4557600080fd5b5050506040518051905092508c73ffffffffffffffffffffffffffffffffffffffff1663bdc963d88460405180807f7363616e2d6170706c69636174696f6e2f7363616e2d72657175657374000000815250601d0182815260200191505060405180910390206000604051602001526040518263ffffffff167c0100000000000000000000000000000000000000000000000000000000028152600401808260001916600019168152602001915050602060405180830381600087803b1515611b0d57600080fd5b6102c65a03f11515611b1e57600080fd5b5050506040518051905091508982148015611ebe575060018d73ffffffffffffffffffffffffffffffffffffffff16637a0e03ec8560405180807f7363616e2d6170706c69636174696f6e2f73746174757300000000000000000081525060170182815260200191505060405180910390206000604051602001526040518263ffffffff167c0100000000000000000000000000000000000000000000000000000000028152600401808260001916600019168152602001915050602060405180830381600087803b1515611bf257600080fd5b6102c65a03f11515611c0357600080fd5b5050506040518051905060ff161480611cf5575060028d73ffffffffffffffffffffffffffffffffffffffff16637a0e03ec8560405180807f7363616e2d6170706c69636174696f6e2f73746174757300000000000000000081525060170182815260200191505060405180910390206000604051602001526040518263ffffffff167c0100000000000000000000000000000000000000000000000000000000028152600401808260001916600019168152602001915050602060405180830381600087803b1515611cd557600080fd5b6102c65a03f11515611ce657600080fd5b5050506040518051905060ff16145b80611dd9575060048d73ffffffffffffffffffffffffffffffffffffffff16637a0e03ec8560405180807f7363616e2d6170706c69636174696f6e2f73746174757300000000000000000081525060170182815260200191505060405180910390206000604051602001526040518263ffffffff167c0100000000000000000000000000000000000000000000000000000000028152600401808260001916600019168152602001915050602060405180830381600087803b1515611db957600080fd5b6102c65a03f11515611dca57600080fd5b5050506040518051905060ff16145b80611ebd575060058d73ffffffffffffffffffffffffffffffffffffffff16637a0e03ec8560405180807f7363616e2d6170706c69636174696f6e2f73746174757300000000000000000081525060170182815260200191505060405180910390206000604051602001526040518263ffffffff167c0100000000000000000000000000000000000000000000000000000000028152600401808260001916600019168152602001915050602060405180830381600087803b1515611e9d57600080fd5b6102c65a03f11515611eae57600080fd5b5050506040518051905060ff16145b5b15611ec8576120e2565b838060010194505061192d565b8c73ffffffffffffffffffffffffffffffffffffffff1663bdc963d88b60405180807f7363616e2d726571756573742f7363616e2d736572766963650000000000000081525060190182815260200191505060405180910390206000604051602001526040518263ffffffff167c0100000000000000000000000000000000000000000000000000000000028152600401808260001916600019168152602001915050602060405180830381600087803b1515611f9157600080fd5b6102c65a03f11515611fa257600080fd5b5050506040518051905090508c73ffffffffffffffffffffffffffffffffffffffff16633eba9ed28d8c60405180807f64656e746973742f7363616e2d726571756573740000000000000000000000008152506014018373ffffffffffffffffffffffffffffffffffffffff1673ffffffffffffffffffffffffffffffffffffffff166c0100000000000000000000000002815260140182815260200192505050604051809103902060016040518363ffffffff167c01000000000000000000000000000000000000000000000000000000000281526004018083600019166000191681526020018215151515815260200192505050600060405180830381600087803b15156120b157600080fd5b6102c65a03f115156120c257600080fd5b5050506120d18d828c886121f7565b6120e18d8d8d888d8d8d8d612651565b5b50505050505050505050505050565b60008273ffffffffffffffffffffffffffffffffffffffff1663bdc963d8836040518082805190602001908083835b6020831015156121455780518252602082019150602081019050602083039250612120565b6001836020036101000a03801982511681845116808217855250505050505090500191505060405180910390206000604051602001526040518263ffffffff167c0100000000000000000000000000000000000000000000000000000000028152600401808260001916600019168152602001915050602060405180830381600087803b15156121d457600080fd5b6102c65a03f115156121e557600080fd5b50505060405180519050905092915050565b8373ffffffffffffffffffffffffffffffffffffffff16630bd851588260405180807f7363616e2d6170706c69636174696f6e2f737461747573000000000000000000815250601701828152602001915050604051809103902060016040518363ffffffff167c01000000000000000000000000000000000000000000000000000000000281526004018083600019166000191681526020018260ff16815260200192505050600060405180830381600087803b15156122b657600080fd5b6102c65a03f115156122c757600080fd5b5050508373ffffffffffffffffffffffffffffffffffffffff16633562fd208260405180807f7363616e2d6170706c69636174696f6e2f637265617465642d6f6e0000000000815250601b018281526020019150506040518091039020426040518363ffffffff167c010000000000000000000000000000000000000000000000000000000002815260040180836000191660001916815260200182815260200192505050600060405180830381600087803b151561238557600080fd5b6102c65a03f1151561239657600080fd5b5050508373ffffffffffffffffffffffffffffffffffffffff16633562fd208260405180807f7363616e2d6170706c69636174696f6e2f7363616e2d72657175657374000000815250601d018281526020019150506040518091039020846040518363ffffffff167c010000000000000000000000000000000000000000000000000000000002815260040180836000191660001916815260200182815260200192505050600060405180830381600087803b151561245457600080fd5b6102c65a03f1151561246557600080fd5b5050508373ffffffffffffffffffffffffffffffffffffffff16633562fd208260405180807f7363616e2d6170706c69636174696f6e2f7363616e2d73657276696365000000815250601d018281526020019150506040518091039020856040518363ffffffff167c010000000000000000000000000000000000000000000000000000000002815260040180836000191660001916815260200182815260200192505050600060405180830381600087803b151561252357600080fd5b6102c65a03f1151561253457600080fd5b5050506125ad846040805190810160405280601081526020017f7363616e2d6170706c69636174696f6e000000000000000000000000000000008152506040805190810160405280601781526020017f7363616e2d6170706c69636174696f6e732d636f756e7400000000000000000081525084612d3c565b61264b84836040805190810160405280601d81526020017f7363616e2d726571756573742f7363616e2d6170706c69636174696f6e000000815250606060405190810160405280602481526020017f7363616e2d726571756573742f7363616e2d6170706c69636174696f6e732d6381526020017f6f756e740000000000000000000000000000000000000000000000000000000081525085613036565b50505050565b8773ffffffffffffffffffffffffffffffffffffffff16633562fd208660405180807f7363616e2d6170706c69636174696f6e2f71756f7465000000000000000000008152506016018281526020019150506040518091039020866040518363ffffffff167c010000000000000000000000000000000000000000000000000000000002815260040180836000191660001916815260200182815260200192505050600060405180830381600087803b151561270c57600080fd5b6102c65a03f1151561271d57600080fd5b5050508773ffffffffffffffffffffffffffffffffffffffff166325cf512d8660405180807f7363616e2d6170706c69636174696f6e2f6170706f696e746d656e742d64617481526020017f65000000000000000000000000000000000000000000000000000000000000008152506021018281526020019150506040518091039020856040518363ffffffff167c0100000000000000000000000000000000000000000000000000000000028152600401808360001916600019168152602001826000191660001916815260200192505050600060405180830381600087803b151561280957600080fd5b6102c65a03f1151561281a57600080fd5b5050508773ffffffffffffffffffffffffffffffffffffffff166325cf512d8660405180807f7363616e2d6170706c69636174696f6e2f6170706f696e746d656e742d74696d81526020017f65000000000000000000000000000000000000000000000000000000000000008152506021018281526020019150506040518091039020846040518363ffffffff167c0100000000000000000000000000000000000000000000000000000000028152600401808360001916600019168152602001826000191660001916815260200192505050600060405180830381600087803b151561290657600080fd5b6102c65a03f1151561291757600080fd5b5050508773ffffffffffffffffffffffffffffffffffffffff1663f58660668660405180807f7363616e2d6170706c69636174696f6e2f636f6d6d656e7400000000000000008152506018018281526020019150506040518091039020836040518363ffffffff167c010000000000000000000000000000000000000000000000000000000002815260040180836000191660001916815260200180602001828103825283818151815260200191508051906020019080838360005b838110156129ee5780820151818401526020810190506129d3565b50505050905090810190601f168015612a1b5780820380516001836020036101000a031916815260200191505b509350505050600060405180830381600087803b1515612a3a57600080fd5b6102c65a03f11515612a4b57600080fd5b5050508773ffffffffffffffffffffffffffffffffffffffff16635a2bf25a8660405180807f7363616e2d6170706c69636174696f6e2f64656e7469737400000000000000008152506018018281526020019150506040518091039020896040518363ffffffff167c01000000000000000000000000000000000000000000000000000000000281526004018083600019166000191681526020018273ffffffffffffffffffffffffffffffffffffffff1673ffffffffffffffffffffffffffffffffffffffff16815260200192505050600060405180830381600087803b1515612b3557600080fd5b6102c65a03f11515612b4657600080fd5b5050508773ffffffffffffffffffffffffffffffffffffffff16635a2bf25a8660405180807f7363616e2d6170706c69636174696f6e2f70617469656e7400000000000000008152506018018281526020019150506040518091039020886040518363ffffffff167c01000000000000000000000000000000000000000000000000000000000281526004018083600019166000191681526020018273ffffffffffffffffffffffffffffffffffffffff1673ffffffffffffffffffffffffffffffffffffffff16815260200192505050600060405180830381600087803b1515612c3057600080fd5b6102c65a03f11515612c4157600080fd5b505050612cbb88886040805190810160405280601881526020017f64656e746973742f7363616e2d6170706c69636174696f6e00000000000000008152506040805190810160405280601f81526020017f64656e746973742f7363616e2d6170706c69636174696f6e732d636f756e740081525089613250565b612d3288876040805190810160405280601881526020017f70617469656e742f7363616e2d6170706c69636174696f6e00000000000000008152506040805190810160405280601f81526020017f70617469656e742f7363616e2d6170706c69636174696f6e732d636f756e740081525089613250565b5050505050505050565b60008473ffffffffffffffffffffffffffffffffffffffff1663bdc963d8846040518082805190602001908083835b602083101515612d905780518252602082019150602081019050602083039250612d6b565b6001836020036101000a03801982511681845116808217855250505050505090500191505060405180910390206000604051602001526040518263ffffffff167c0100000000000000000000000000000000000000000000000000000000028152600401808260001916600019168152602001915050602060405180830381600087803b1515612e1f57600080fd5b6102c65a03f11515612e3057600080fd5b5050506040518051905090508473ffffffffffffffffffffffffffffffffffffffff16633562fd2085836040518083805190602001908083835b602083101515612e8f5780518252602082019150602081019050602083039250612e6a565b6001836020036101000a038019825116818451168082178552505050505050905001828152602001925050506040518091039020846040518363ffffffff167c010000000000000000000000000000000000000000000000000000000002815260040180836000191660001916815260200182815260200192505050600060405180830381600087803b1515612f2457600080fd5b6102c65a03f11515612f3557600080fd5b5050508473ffffffffffffffffffffffffffffffffffffffff16633562fd20846040518082805190602001908083835b602083101515612f8a5780518252602082019150602081019050602083039250612f65565b6001836020036101000a0380198251168184511680821785525050505050509050019150506040518091039020600184016040518363ffffffff167c010000000000000000000000000000000000000000000000000000000002815260040180836000191660001916815260200182815260200192505050600060405180830381600087803b151561301b57600080fd5b6102c65a03f1151561302c57600080fd5b5050505050505050565b60006130438686856134e0565b90508573ffffffffffffffffffffffffffffffffffffffff16633562fd208587846040518084805190602001908083835b6020831015156130995780518252602082019150602081019050602083039250613074565b6001836020036101000a03801982511681845116808217855250505050505090500183815260200182815260200193505050506040518091039020846040518363ffffffff167c010000000000000000000000000000000000000000000000000000000002815260040180836000191660001916815260200182815260200192505050600060405180830381600087803b151561313557600080fd5b6102c65a03f1151561314657600080fd5b5050508573ffffffffffffffffffffffffffffffffffffffff16633562fd2084876040518083805190602001908083835b60208310151561319c5780518252602082019150602081019050602083039250613177565b6001836020036101000a038019825116818451168082178552505050505050905001828152602001925050506040518091039020600184016040518363ffffffff167c010000000000000000000000000000000000000000000000000000000002815260040180836000191660001916815260200182815260200192505050600060405180830381600087803b151561323457600080fd5b6102c65a03f1151561324557600080fd5b505050505050505050565b600061325d8686856135ef565b90508573ffffffffffffffffffffffffffffffffffffffff16633562fd208587846040518084805190602001908083835b6020831015156132b3578051825260208201915060208101905060208303925061328e565b6001836020036101000a0380198251168184511680821785525050505050509050018373ffffffffffffffffffffffffffffffffffffffff1673ffffffffffffffffffffffffffffffffffffffff166c0100000000000000000000000002815260140182815260200193505050506040518091039020846040518363ffffffff167c010000000000000000000000000000000000000000000000000000000002815260040180836000191660001916815260200182815260200192505050600060405180830381600087803b151561338a57600080fd5b6102c65a03f1151561339b57600080fd5b5050508573ffffffffffffffffffffffffffffffffffffffff16633562fd2084876040518083805190602001908083835b6020831015156133f157805182526020820191506020810190506020830392506133cc565b6001836020036101000a0380198251168184511680821785525050505050509050018273ffffffffffffffffffffffffffffffffffffffff1673ffffffffffffffffffffffffffffffffffffffff166c01000000000000000000000000028152601401925050506040518091039020600184016040518363ffffffff167c010000000000000000000000000000000000000000000000000000000002815260040180836000191660001916815260200182815260200192505050600060405180830381600087803b15156134c457600080fd5b6102c65a03f115156134d557600080fd5b505050505050505050565b60008373ffffffffffffffffffffffffffffffffffffffff1663bdc963d883856040518083805190602001908083835b6020831015156135355780518252602082019150602081019050602083039250613510565b6001836020036101000a0380198251168184511680821785525050505050509050018281526020019250505060405180910390206000604051602001526040518263ffffffff167c0100000000000000000000000000000000000000000000000000000000028152600401808260001916600019168152602001915050602060405180830381600087803b15156135cb57600080fd5b6102c65a03f115156135dc57600080fd5b5050506040518051905090509392505050565b60008373ffffffffffffffffffffffffffffffffffffffff1663bdc963d883856040518083805190602001908083835b602083101515613644578051825260208201915060208101905060208303925061361f565b6001836020036101000a0380198251168184511680821785525050505050509050018273ffffffffffffffffffffffffffffffffffffffff1673ffffffffffffffffffffffffffffffffffffffff166c010000000000000000000000000281526014019250505060405180910390206000604051602001526040518263ffffffff167c0100000000000000000000000000000000000000000000000000000000028152600401808260001916600019168152602001915050602060405180830381600087803b151561371557600080fd5b6102c65a03f1151561372657600080fd5b50505060405180519050905093925050505600a165627a7a723058206279b75252530ee0b1514f4b2a84f2ab2e2eb9bce770b60e9712f492631359140029",
  "source": "pragma solidity 0.4.18;\nimport \"./Restrictor.sol\";\nimport \"../lib/odll/userManager.sol\";\n\ncontract ScanRequestWriter2 is Restrictor {\n  function ScanRequestWriter2(address _dbAddress) public {\n    require(_dbAddress != 0x0);\n    dbAddress = _dbAddress;\n  }\n\n  // Scan Request\n  function cancelScanRequest (\n    uint scanRequestId\n  )\n    external\n    onlyPermittedSmartContract\n  {\n    userManager.cancelPatientScanRequest(dbAddress, msg.sender, scanRequestId);\n  }\n\n  function expireScanRequest (\n    uint scanRequestId\n  )\n    external\n    onlyPermittedSmartContract\n  {\n    userManager.expirePatientScanRequest(dbAddress, scanRequestId);\n  }\n\n  function acceptScanRequest (\n    address patientId,\n    uint scanRequestId,\n    uint quote,\n    bytes32 scanDate,\n    bytes32 scanTime,\n    string comment\n  )\n    external\n    onlyPermittedSmartContract\n  {\n    userManager.acceptPatientScanRequest(dbAddress, msg.sender, patientId, scanRequestId, quote, scanDate, scanTime, comment);\n  }\n\n  function rejectScanRequest (\n    address patientId,\n    uint scanRequestId\n  )\n    external\n    onlyPermittedSmartContract\n  {\n    userManager.rejectPatientScanRequest(dbAddress, msg.sender, patientId, scanRequestId);\n  }\n}\n",
  "sourcePath": "/Users/danielokwufulueze/dev/vue/apps/oraldatalink/contracts/odll/ScanRequestWriter2.sol",
  "compiler": {
    "name": "solc",
    "version": "0.4.18+commit.9cf6e910.Emscripten.clang"
  },
  "schemaVersion": "1.0.1",
  "updatedAt": "2018-02-03T16:42:35.795Z"
}