{
  "contractName": "ScanApplicationWriter2",
  "abi": [
    {
      "constant": true,
      "inputs": [],
      "name": "smartContractStatus",
      "outputs": [
        {
          "name": "",
          "type": "uint8"
        }
      ],
      "payable": false,
      "stateMutability": "view",
      "type": "function"
    },
    {
      "constant": true,
      "inputs": [],
      "name": "owner",
      "outputs": [
        {
          "name": "",
          "type": "address"
        }
      ],
      "payable": false,
      "stateMutability": "view",
      "type": "function"
    },
    {
      "constant": true,
      "inputs": [],
      "name": "dbAddress",
      "outputs": [
        {
          "name": "",
          "type": "address"
        }
      ],
      "payable": false,
      "stateMutability": "view",
      "type": "function"
    },
    {
      "constant": false,
      "inputs": [
        {
          "name": "dentistId",
          "type": "address"
        },
        {
          "name": "scanApplicationId",
          "type": "uint256"
        },
        {
          "name": "quote",
          "type": "uint256"
        }
      ],
      "name": "acceptScanApplication",
      "outputs": [],
      "payable": true,
      "stateMutability": "payable",
      "type": "function"
    },
    {
      "constant": false,
      "inputs": [
        {
          "name": "newOwner",
          "type": "address"
        }
      ],
      "name": "transferOwnership",
      "outputs": [],
      "payable": false,
      "stateMutability": "nonpayable",
      "type": "function"
    },
    {
      "inputs": [
        {
          "name": "_dbAddress",
          "type": "address"
        }
      ],
      "payable": false,
      "stateMutability": "nonpayable",
      "type": "constructor"
    },
    {
      "anonymous": false,
      "inputs": [
        {
          "indexed": false,
          "name": "status",
          "type": "uint8"
        }
      ],
      "name": "OnSmartContractStatusSet",
      "type": "event"
    },
    {
      "anonymous": false,
      "inputs": [
        {
          "indexed": true,
          "name": "previousOwner",
          "type": "address"
        },
        {
          "indexed": true,
          "name": "newOwner",
          "type": "address"
        }
      ],
      "name": "OwnershipTransferred",
      "type": "event"
    }
  ],
  "bytecode": "0x6060604052341561000f57600080fd5b604051602080612a9c83398101604052808051906020019091905050336000806101000a81548173ffffffffffffffffffffffffffffffffffffffff021916908373ffffffffffffffffffffffffffffffffffffffff16021790555060008173ffffffffffffffffffffffffffffffffffffffff161415151561009157600080fd5b80600160006101000a81548173ffffffffffffffffffffffffffffffffffffffff021916908373ffffffffffffffffffffffffffffffffffffffff160217905550506129ba806100e26000396000f30060606040526004361061006d576000357c0100000000000000000000000000000000000000000000000000000000900463ffffffff1680634c8ddddc146100725780638da5cb5b146100a157806391e06b6d146100f6578063d6ff529a1461014b578063f2fde38b1461018b575b600080fd5b341561007d57600080fd5b6100856101c4565b604051808260ff1660ff16815260200191505060405180910390f35b34156100ac57600080fd5b6100b46101d7565b604051808273ffffffffffffffffffffffffffffffffffffffff1673ffffffffffffffffffffffffffffffffffffffff16815260200191505060405180910390f35b341561010157600080fd5b6101096101fc565b604051808273ffffffffffffffffffffffffffffffffffffffff1673ffffffffffffffffffffffffffffffffffffffff16815260200191505060405180910390f35b610189600480803573ffffffffffffffffffffffffffffffffffffffff16906020019091908035906020019091908035906020019091905050610222565b005b341561019657600080fd5b6101c2600480803573ffffffffffffffffffffffffffffffffffffffff16906020019091905050610651565b005b600160149054906101000a900460ff1681565b6000809054906101000a900473ffffffffffffffffffffffffffffffffffffffff1681565b600160009054906101000a900473ffffffffffffffffffffffffffffffffffffffff1681565b6000806000806000600160149054906101000a900460ff1660ff1614151561024957600080fd5b600160009054906101000a900473ffffffffffffffffffffffffffffffffffffffff1673ffffffffffffffffffffffffffffffffffffffff16634c77e5ba60405180807f6f646c6c2f657363726f772d6164647265737300000000000000000000000000815250601301905060405180910390206000604051602001526040518263ffffffff167c0100000000000000000000000000000000000000000000000000000000028152600401808260001916600019168152602001915050602060405180830381600087803b151561031f57600080fd5b6102c65a03f1151561033057600080fd5b50505060405180519050935060008473ffffffffffffffffffffffffffffffffffffffff161415151561036257600080fd5b34925084831015151561037457600080fd5b848311156103cc578291508492503373ffffffffffffffffffffffffffffffffffffffff166108fc6103a684886107a6565b9081150290604051600060405180830381858888f1935050505015156103cb57600080fd5b5b61042d600160009054906101000a900473ffffffffffffffffffffffffffffffffffffffff166040805190810160405280600e81526020017f7061796d656e74732d636f756e740000000000000000000000000000000000008152506107bf565b9050600160009054906101000a900473ffffffffffffffffffffffffffffffffffffffff1673ffffffffffffffffffffffffffffffffffffffff16633562fd208260405180807f7061796d656e742f666f722d7479706500000000000000000000000000000000815250601001828152602001915050604051809103902060016040518363ffffffff167c010000000000000000000000000000000000000000000000000000000002815260040180836000191660001916815260200182815260200192505050600060405180830381600087803b151561050d57600080fd5b6102c65a03f1151561051e57600080fd5b505050610552600160009054906101000a900473ffffffffffffffffffffffffffffffffffffffff1688338985888b6108c5565b8373ffffffffffffffffffffffffffffffffffffffff16633f4b147033836040518363ffffffff167c0100000000000000000000000000000000000000000000000000000000028152600401808373ffffffffffffffffffffffffffffffffffffffff1673ffffffffffffffffffffffffffffffffffffffff16815260200182815260200192505050600060405180830381600087803b15156105f457600080fd5b6102c65a03f1151561060557600080fd5b5050508373ffffffffffffffffffffffffffffffffffffffff166108fc849081150290604051600060405180830381858888f19350505050151561064857600080fd5b50505050505050565b6000809054906101000a900473ffffffffffffffffffffffffffffffffffffffff1673ffffffffffffffffffffffffffffffffffffffff163373ffffffffffffffffffffffffffffffffffffffff161415156106ac57600080fd5b600073ffffffffffffffffffffffffffffffffffffffff168173ffffffffffffffffffffffffffffffffffffffff16141515156106e857600080fd5b8073ffffffffffffffffffffffffffffffffffffffff166000809054906101000a900473ffffffffffffffffffffffffffffffffffffffff1673ffffffffffffffffffffffffffffffffffffffff167f8be0079c531659141344cd1fd0a4f28419497f9722a3daafe3b4186f6b6457e060405160405180910390a3806000806101000a81548173ffffffffffffffffffffffffffffffffffffffff021916908373ffffffffffffffffffffffffffffffffffffffff16021790555050565b60008282111515156107b457fe5b818303905092915050565b60008273ffffffffffffffffffffffffffffffffffffffff1663bdc963d8836040518082805190602001908083835b60208310151561081357805182526020820191506020810190506020830392506107ee565b6001836020036101000a03801982511681845116808217855250505050505090500191505060405180910390206000604051602001526040518263ffffffff167c0100000000000000000000000000000000000000000000000000000000028152600401808260001916600019168152602001915050602060405180830381600087803b15156108a257600080fd5b6102c65a03f115156108b357600080fd5b50505060405180519050905092915050565b6108d4878787878787876108dd565b50505050505050565b60008060006109218a6040805190810160405280600b81526020017f63617365732d636f756e740000000000000000000000000000000000000000008152506107bf565b92508973ffffffffffffffffffffffffffffffffffffffff16630bd851588760405180807f7061796d656e742f737461746500000000000000000000000000000000000000815250600d01828152602001915050604051809103902060016040518363ffffffff167c01000000000000000000000000000000000000000000000000000000000281526004018083600019166000191681526020018260ff16815260200192505050600060405180830381600087803b15156109e257600080fd5b6102c65a03f115156109f357600080fd5b5050508973ffffffffffffffffffffffffffffffffffffffff1663bdc963d88860405180807f7363616e2d6170706c69636174696f6e2f7363616e2d72657175657374000000815250601d0182815260200191505060405180910390206000604051602001526040518263ffffffff167c0100000000000000000000000000000000000000000000000000000000028152600401808260001916600019168152602001915050602060405180830381600087803b1515610ab257600080fd5b6102c65a03f11515610ac357600080fd5b50505060405180519050915060008a73ffffffffffffffffffffffffffffffffffffffff16637a0e03ec8560405180807f636173652f737461747573000000000000000000000000000000000000000000815250600b0182815260200191505060405180910390206000604051602001526040518263ffffffff167c0100000000000000000000000000000000000000000000000000000000028152600401808260001916600019168152602001915050602060405180830381600087803b1515610b8d57600080fd5b6102c65a03f11515610b9e57600080fd5b5050506040518051905060ff16148015610c91575060018a73ffffffffffffffffffffffffffffffffffffffff16637a0e03ec8960405180807f7363616e2d6170706c69636174696f6e2f73746174757300000000000000000081525060170182815260200191505060405180910390206000604051602001526040518263ffffffff167c0100000000000000000000000000000000000000000000000000000000028152600401808260001916600019168152602001915050602060405180830381600087803b1515610c7157600080fd5b6102c65a03f11515610c8257600080fd5b5050506040518051905060ff16145b8015610d76575060018a73ffffffffffffffffffffffffffffffffffffffff16637a0e03ec8460405180807f7363616e2d726571756573742f7374617475730000000000000000000000000081525060130182815260200191505060405180910390206000604051602001526040518263ffffffff167c0100000000000000000000000000000000000000000000000000000000028152600401808260001916600019168152602001915050602060405180830381600087803b1515610d5657600080fd5b6102c65a03f11515610d6757600080fd5b5050506040518051905060ff16145b8015610e8357508773ffffffffffffffffffffffffffffffffffffffff168a73ffffffffffffffffffffffffffffffffffffffff16634c77e5ba8460405180807f7363616e2d726571756573742f70617469656e7400000000000000000000000081525060140182815260200191505060405180910390206000604051602001526040518263ffffffff167c0100000000000000000000000000000000000000000000000000000000028152600401808260001916600019168152602001915050602060405180830381600087803b1515610e5057600080fd5b6102c65a03f11515610e6157600080fd5b5050506040518051905073ffffffffffffffffffffffffffffffffffffffff16145b8015610f9057508873ffffffffffffffffffffffffffffffffffffffff168a73ffffffffffffffffffffffffffffffffffffffff16634c77e5ba8960405180807f7363616e2d6170706c69636174696f6e2f64656e74697374000000000000000081525060180182815260200191505060405180910390206000604051602001526040518263ffffffff167c0100000000000000000000000000000000000000000000000000000000028152600401808260001916600019168152602001915050602060405180830381600087803b1515610f5d57600080fd5b6102c65a03f11515610f6e57600080fd5b5050506040518051905073ffffffffffffffffffffffffffffffffffffffff16145b801561109d57508773ffffffffffffffffffffffffffffffffffffffff168a73ffffffffffffffffffffffffffffffffffffffff16634c77e5ba8960405180807f7363616e2d6170706c69636174696f6e2f70617469656e74000000000000000081525060180182815260200191505060405180910390206000604051602001526040518263ffffffff167c0100000000000000000000000000000000000000000000000000000000028152600401808260001916600019168152602001915050602060405180830381600087803b151561106a57600080fd5b6102c65a03f1151561107b57600080fd5b5050506040518051905073ffffffffffffffffffffffffffffffffffffffff16145b15156110a857600080fd5b8973ffffffffffffffffffffffffffffffffffffffff1663bdc963d88860405180807f7363616e2d6170706c69636174696f6e2f7363616e2d73657276696365000000815250601d0182815260200191505060405180910390206000604051602001526040518263ffffffff167c0100000000000000000000000000000000000000000000000000000000028152600401808260001916600019168152602001915050602060405180830381600087803b151561116457600080fd5b6102c65a03f1151561117557600080fd5b5050506040518051905090506111908a8a8a84868c8961135c565b61119f8a8a8a868a8a8a6119e0565b8973ffffffffffffffffffffffffffffffffffffffff16630bd851588360405180807f7363616e2d726571756573742f73746174757300000000000000000000000000815250601301828152602001915050604051809103902060046040518363ffffffff167c01000000000000000000000000000000000000000000000000000000000281526004018083600019166000191681526020018260ff16815260200192505050600060405180830381600087803b151561125e57600080fd5b6102c65a03f1151561126f57600080fd5b5050508973ffffffffffffffffffffffffffffffffffffffff16630bd851588860405180807f7363616e2d6170706c69636174696f6e2f737461747573000000000000000000815250601701828152602001915050604051809103902060046040518363ffffffff167c01000000000000000000000000000000000000000000000000000000000281526004018083600019166000191681526020018260ff16815260200192505050600060405180830381600087803b151561133157600080fd5b6102c65a03f1151561134257600080fd5b5050506113508a8389611f5d565b50505050505050505050565b8673ffffffffffffffffffffffffffffffffffffffff16630bd851588260405180807f636173652f737461747573000000000000000000000000000000000000000000815250600b01828152602001915050604051809103902060016040518363ffffffff167c01000000000000000000000000000000000000000000000000000000000281526004018083600019166000191681526020018260ff16815260200192505050600060405180830381600087803b151561141b57600080fd5b6102c65a03f1151561142c57600080fd5b5050508673ffffffffffffffffffffffffffffffffffffffff16633562fd208260405180807f636173652f637265617465642d6f6e0000000000000000000000000000000000815250600f018281526020019150506040518091039020426040518363ffffffff167c010000000000000000000000000000000000000000000000000000000002815260040180836000191660001916815260200182815260200192505050600060405180830381600087803b15156114ea57600080fd5b6102c65a03f115156114fb57600080fd5b5050508673ffffffffffffffffffffffffffffffffffffffff16635a2bf25a8260405180807f636173652f64656e746973740000000000000000000000000000000000000000815250600c018281526020019150506040518091039020886040518363ffffffff167c01000000000000000000000000000000000000000000000000000000000281526004018083600019166000191681526020018273ffffffffffffffffffffffffffffffffffffffff1673ffffffffffffffffffffffffffffffffffffffff16815260200192505050600060405180830381600087803b15156115e557600080fd5b6102c65a03f115156115f657600080fd5b5050508673ffffffffffffffffffffffffffffffffffffffff16635a2bf25a8260405180807f636173652f70617469656e740000000000000000000000000000000000000000815250600c018281526020019150506040518091039020876040518363ffffffff167c01000000000000000000000000000000000000000000000000000000000281526004018083600019166000191681526020018273ffffffffffffffffffffffffffffffffffffffff1673ffffffffffffffffffffffffffffffffffffffff16815260200192505050600060405180830381600087803b15156116e057600080fd5b6102c65a03f115156116f157600080fd5b5050508673ffffffffffffffffffffffffffffffffffffffff16633562fd208260405180807f636173652f7363616e2d736572766963650000000000000000000000000000008152506011018281526020019150506040518091039020866040518363ffffffff167c010000000000000000000000000000000000000000000000000000000002815260040180836000191660001916815260200182815260200192505050600060405180830381600087803b15156117af57600080fd5b6102c65a03f115156117c057600080fd5b5050508673ffffffffffffffffffffffffffffffffffffffff16633562fd208260405180807f636173652f7363616e2d726571756573740000000000000000000000000000008152506011018281526020019150506040518091039020856040518363ffffffff167c010000000000000000000000000000000000000000000000000000000002815260040180836000191660001916815260200182815260200192505050600060405180830381600087803b151561187e57600080fd5b6102c65a03f1151561188f57600080fd5b5050508673ffffffffffffffffffffffffffffffffffffffff16633562fd208260405180807f636173652f7363616e2d6170706c69636174696f6e00000000000000000000008152506015018281526020019150506040518091039020846040518363ffffffff167c010000000000000000000000000000000000000000000000000000000002815260040180836000191660001916815260200182815260200192505050600060405180830381600087803b151561194d57600080fd5b6102c65a03f1151561195e57600080fd5b5050506119d7876040805190810160405280600481526020017f63617365000000000000000000000000000000000000000000000000000000008152506040805190810160405280600b81526020017f63617365732d636f756e74000000000000000000000000000000000000000000815250846121ab565b50505050505050565b8673ffffffffffffffffffffffffffffffffffffffff16633562fd208560405180807f636173652f616d6f756e74000000000000000000000000000000000000000000815250600b018281526020019150506040518091039020846040518363ffffffff167c010000000000000000000000000000000000000000000000000000000002815260040180836000191660001916815260200182815260200192505050600060405180830381600087803b1515611a9b57600080fd5b6102c65a03f11515611aac57600080fd5b5050508673ffffffffffffffffffffffffffffffffffffffff16633562fd208560405180807f636173652f71756f746500000000000000000000000000000000000000000000815250600a018281526020019150506040518091039020836040518363ffffffff167c010000000000000000000000000000000000000000000000000000000002815260040180836000191660001916815260200182815260200192505050600060405180830381600087803b1515611b6a57600080fd5b6102c65a03f11515611b7b57600080fd5b5050508673ffffffffffffffffffffffffffffffffffffffff16633eba9ed28560405180807f636173652f706169640000000000000000000000000000000000000000000000815250600901828152602001915050604051809103902060016040518363ffffffff167c01000000000000000000000000000000000000000000000000000000000281526004018083600019166000191681526020018215151515815260200192505050600060405180830381600087803b1515611c3e57600080fd5b6102c65a03f11515611c4f57600080fd5b5050508673ffffffffffffffffffffffffffffffffffffffff16633562fd208560405180807f636173652f7061796d656e740000000000000000000000000000000000000000815250600c018281526020019150506040518091039020856040518363ffffffff167c010000000000000000000000000000000000000000000000000000000002815260040180836000191660001916815260200182815260200192505050600060405180830381600087803b1515611d0d57600080fd5b6102c65a03f11515611d1e57600080fd5b5050508673ffffffffffffffffffffffffffffffffffffffff16633562fd208460405180807f7061796d656e742f636173650000000000000000000000000000000000000000815250600c018281526020019150506040518091039020866040518363ffffffff167c010000000000000000000000000000000000000000000000000000000002815260040180836000191660001916815260200182815260200192505050600060405180830381600087803b1515611ddc57600080fd5b6102c65a03f11515611ded57600080fd5b505050611e6787876040805190810160405280600c81526020017f64656e746973742f6361736500000000000000000000000000000000000000008152506040805190810160405280601381526020017f64656e746973742f63617365732d636f756e7400000000000000000000000000815250886124a5565b611ede87866040805190810160405280600c81526020017f70617469656e742f6361736500000000000000000000000000000000000000008152506040805190810160405280601381526020017f70617469656e742f63617365732d636f756e7400000000000000000000000000815250886124a5565b611f54876040805190810160405280600781526020017f7061796d656e74000000000000000000000000000000000000000000000000008152506040805190810160405280600e81526020017f7061796d656e74732d636f756e74000000000000000000000000000000000000815250866121ab565b50505050505050565b6000806000611fc98686606060405190810160405280602481526020017f7363616e2d726571756573742f7363616e2d6170706c69636174696f6e732d6381526020017f6f756e7400000000000000000000000000000000000000000000000000000000815250612735565b9250600091505b828210156121a3578573ffffffffffffffffffffffffffffffffffffffff1663bdc963d8868460405180807f7363616e2d726571756573742f7363616e2d6170706c69636174696f6e000000815250601d018381526020018281526020019250505060405180910390206000604051602001526040518263ffffffff167c0100000000000000000000000000000000000000000000000000000000028152600401808260001916600019168152602001915050602060405180830381600087803b151561209c57600080fd5b6102c65a03f115156120ad57600080fd5b5050506040518051905090508381141515612196578573ffffffffffffffffffffffffffffffffffffffff16630bd851588260405180807f7363616e2d6170706c69636174696f6e2f737461747573000000000000000000815250601701828152602001915050604051809103902060056040518363ffffffff167c01000000000000000000000000000000000000000000000000000000000281526004018083600019166000191681526020018260ff16815260200192505050600060405180830381600087803b151561218157600080fd5b6102c65a03f1151561219257600080fd5b5050505b8180600101925050611fd0565b505050505050565b60008473ffffffffffffffffffffffffffffffffffffffff1663bdc963d8846040518082805190602001908083835b6020831015156121ff57805182526020820191506020810190506020830392506121da565b6001836020036101000a03801982511681845116808217855250505050505090500191505060405180910390206000604051602001526040518263ffffffff167c0100000000000000000000000000000000000000000000000000000000028152600401808260001916600019168152602001915050602060405180830381600087803b151561228e57600080fd5b6102c65a03f1151561229f57600080fd5b5050506040518051905090508473ffffffffffffffffffffffffffffffffffffffff16633562fd2085836040518083805190602001908083835b6020831015156122fe57805182526020820191506020810190506020830392506122d9565b6001836020036101000a038019825116818451168082178552505050505050905001828152602001925050506040518091039020846040518363ffffffff167c010000000000000000000000000000000000000000000000000000000002815260040180836000191660001916815260200182815260200192505050600060405180830381600087803b151561239357600080fd5b6102c65a03f115156123a457600080fd5b5050508473ffffffffffffffffffffffffffffffffffffffff16633562fd20846040518082805190602001908083835b6020831015156123f957805182526020820191506020810190506020830392506123d4565b6001836020036101000a0380198251168184511680821785525050505050509050019150506040518091039020600184016040518363ffffffff167c010000000000000000000000000000000000000000000000000000000002815260040180836000191660001916815260200182815260200192505050600060405180830381600087803b151561248a57600080fd5b6102c65a03f1151561249b57600080fd5b5050505050505050565b60006124b2868685612844565b90508573ffffffffffffffffffffffffffffffffffffffff16633562fd208587846040518084805190602001908083835b60208310151561250857805182526020820191506020810190506020830392506124e3565b6001836020036101000a0380198251168184511680821785525050505050509050018373ffffffffffffffffffffffffffffffffffffffff1673ffffffffffffffffffffffffffffffffffffffff166c0100000000000000000000000002815260140182815260200193505050506040518091039020846040518363ffffffff167c010000000000000000000000000000000000000000000000000000000002815260040180836000191660001916815260200182815260200192505050600060405180830381600087803b15156125df57600080fd5b6102c65a03f115156125f057600080fd5b5050508573ffffffffffffffffffffffffffffffffffffffff16633562fd2084876040518083805190602001908083835b6020831015156126465780518252602082019150602081019050602083039250612621565b6001836020036101000a0380198251168184511680821785525050505050509050018273ffffffffffffffffffffffffffffffffffffffff1673ffffffffffffffffffffffffffffffffffffffff166c01000000000000000000000000028152601401925050506040518091039020600184016040518363ffffffff167c010000000000000000000000000000000000000000000000000000000002815260040180836000191660001916815260200182815260200192505050600060405180830381600087803b151561271957600080fd5b6102c65a03f1151561272a57600080fd5b505050505050505050565b60008373ffffffffffffffffffffffffffffffffffffffff1663bdc963d883856040518083805190602001908083835b60208310151561278a5780518252602082019150602081019050602083039250612765565b6001836020036101000a0380198251168184511680821785525050505050509050018281526020019250505060405180910390206000604051602001526040518263ffffffff167c0100000000000000000000000000000000000000000000000000000000028152600401808260001916600019168152602001915050602060405180830381600087803b151561282057600080fd5b6102c65a03f1151561283157600080fd5b5050506040518051905090509392505050565b60008373ffffffffffffffffffffffffffffffffffffffff1663bdc963d883856040518083805190602001908083835b6020831015156128995780518252602082019150602081019050602083039250612874565b6001836020036101000a0380198251168184511680821785525050505050509050018273ffffffffffffffffffffffffffffffffffffffff1673ffffffffffffffffffffffffffffffffffffffff166c010000000000000000000000000281526014019250505060405180910390206000604051602001526040518263ffffffff167c0100000000000000000000000000000000000000000000000000000000028152600401808260001916600019168152602001915050602060405180830381600087803b151561296a57600080fd5b6102c65a03f1151561297b57600080fd5b50505060405180519050905093925050505600a165627a7a72305820983a96652fc3c7f61c121921f80196eebd7fd11c727c90aeddda6aa78fde6f060029",
  "source": "pragma solidity 0.4.18;\nimport \"./Restrictor.sol\";\nimport \"../lib/odll/userManager.sol\";\nimport \"./Escrow.sol\";\n\ncontract ScanApplicationWriter2 is Restrictor {\n  function ScanApplicationWriter2 (address _dbAddress) public {\n    require(_dbAddress != 0x0);\n    dbAddress = _dbAddress;\n  }\n\n  // Scan Application\n  function acceptScanApplication (\n    address dentistId,\n    uint scanApplicationId,\n    uint quote\n  )\n    external\n    payable\n    onlyPermittedSmartContract\n  {\n    address escrowAddress = DB(dbAddress).getAddressValue(keccak256(\"odll/escrow-address\"));\n    require(escrowAddress != 0x0);\n    uint amount = msg.value;\n    require(amount >= quote);\n    if (amount > quote) {\n      uint tempAmount = amount;\n      amount = quote;\n      msg.sender.transfer(SafeMath.sub(tempAmount, quote));\n    }\n\n    uint paymentId = utilities.getArrayItemsCount(dbAddress, \"payments-count\");\n    DB(dbAddress).setUIntValue(keccak256(\"payment/for-type\", paymentId), 1);\n    userManager.acceptScanApplication(dbAddress, dentistId, msg.sender, scanApplicationId, paymentId, amount, quote);\n\n    Escrow(escrowAddress).lockPayment(msg.sender, paymentId);\n    escrowAddress.transfer(amount);\n  }\n}\n",
  "sourcePath": "/Users/danielokwufulueze/dev/vue/apps/oraldatalink/contracts/odll/ScanApplicationWriter2.sol",
  "compiler": {
    "name": "solc",
    "version": "0.4.18+commit.9cf6e910.Emscripten.clang"
  },
  "schemaVersion": "1.0.1",
  "updatedAt": "2017-11-30T08:49:02.140Z"
}