{
  "contractName": "ScanApplicationWriter",
  "abi": [
    {
      "constant": true,
      "inputs": [],
      "name": "smartContractStatus",
      "outputs": [
        {
          "name": "",
          "type": "uint8"
        }
      ],
      "payable": false,
      "stateMutability": "view",
      "type": "function"
    },
    {
      "constant": true,
      "inputs": [],
      "name": "owner",
      "outputs": [
        {
          "name": "",
          "type": "address"
        }
      ],
      "payable": false,
      "stateMutability": "view",
      "type": "function"
    },
    {
      "constant": true,
      "inputs": [],
      "name": "dbAddress",
      "outputs": [
        {
          "name": "",
          "type": "address"
        }
      ],
      "payable": false,
      "stateMutability": "view",
      "type": "function"
    },
    {
      "constant": false,
      "inputs": [
        {
          "name": "patientId",
          "type": "address"
        },
        {
          "name": "scanApplicationId",
          "type": "uint256"
        }
      ],
      "name": "cancelScanApplication",
      "outputs": [],
      "payable": false,
      "stateMutability": "nonpayable",
      "type": "function"
    },
    {
      "constant": false,
      "inputs": [
        {
          "name": "patientId",
          "type": "address"
        },
        {
          "name": "scanRequestId",
          "type": "uint256"
        },
        {
          "name": "quote",
          "type": "uint256"
        },
        {
          "name": "comment",
          "type": "bytes32"
        }
      ],
      "name": "applyToScan",
      "outputs": [],
      "payable": false,
      "stateMutability": "nonpayable",
      "type": "function"
    },
    {
      "constant": false,
      "inputs": [
        {
          "name": "dentistId",
          "type": "address"
        },
        {
          "name": "scanApplicationId",
          "type": "uint256"
        },
        {
          "name": "quote",
          "type": "uint256"
        }
      ],
      "name": "acceptScanApplication",
      "outputs": [],
      "payable": true,
      "stateMutability": "payable",
      "type": "function"
    },
    {
      "constant": false,
      "inputs": [
        {
          "name": "newOwner",
          "type": "address"
        }
      ],
      "name": "transferOwnership",
      "outputs": [],
      "payable": false,
      "stateMutability": "nonpayable",
      "type": "function"
    },
    {
      "inputs": [
        {
          "name": "_dbAddress",
          "type": "address"
        }
      ],
      "payable": false,
      "stateMutability": "nonpayable",
      "type": "constructor"
    },
    {
      "anonymous": false,
      "inputs": [
        {
          "indexed": false,
          "name": "status",
          "type": "uint8"
        }
      ],
      "name": "OnSmartContractStatusSet",
      "type": "event"
    },
    {
      "anonymous": false,
      "inputs": [
        {
          "indexed": true,
          "name": "previousOwner",
          "type": "address"
        },
        {
          "indexed": true,
          "name": "newOwner",
          "type": "address"
        }
      ],
      "name": "OwnershipTransferred",
      "type": "event"
    }
  ],
  "bytecode": "0x6060604052341561000f57600080fd5b604051602080620050d883398101604052808051906020019091905050336000806101000a81548173ffffffffffffffffffffffffffffffffffffffff021916908373ffffffffffffffffffffffffffffffffffffffff16021790555060008173ffffffffffffffffffffffffffffffffffffffff161415151561009257600080fd5b80600160006101000a81548173ffffffffffffffffffffffffffffffffffffffff021916908373ffffffffffffffffffffffffffffffffffffffff16021790555050614ff480620000e46000396000f300606060405260043610610083576000357c0100000000000000000000000000000000000000000000000000000000900463ffffffff1680634c8ddddc146100885780638da5cb5b146100b757806391e06b6d1461010c578063a3f3587714610161578063b7170b71146101a3578063d6ff529a146101fb578063f2fde38b1461023b575b600080fd5b341561009357600080fd5b61009b610274565b604051808260ff1660ff16815260200191505060405180910390f35b34156100c257600080fd5b6100ca610287565b604051808273ffffffffffffffffffffffffffffffffffffffff1673ffffffffffffffffffffffffffffffffffffffff16815260200191505060405180910390f35b341561011757600080fd5b61011f6102ac565b604051808273ffffffffffffffffffffffffffffffffffffffff1673ffffffffffffffffffffffffffffffffffffffff16815260200191505060405180910390f35b341561016c57600080fd5b6101a1600480803573ffffffffffffffffffffffffffffffffffffffff169060200190919080359060200190919050506102d2565b005b34156101ae57600080fd5b6101f9600480803573ffffffffffffffffffffffffffffffffffffffff1690602001909190803590602001909190803590602001909190803560001916906020019091905050610304565b005b610239600480803573ffffffffffffffffffffffffffffffffffffffff1690602001909190803590602001909190803590602001909190505061035b565b005b341561024657600080fd5b610272600480803573ffffffffffffffffffffffffffffffffffffffff169060200190919050506103ff565b005b600160149054906101000a900460ff1681565b6000809054906101000a900473ffffffffffffffffffffffffffffffffffffffff1681565b600160009054906101000a900473ffffffffffffffffffffffffffffffffffffffff1681565b610300600160009054906101000a900473ffffffffffffffffffffffffffffffffffffffff16338484610554565b5050565b6000600160149054906101000a900460ff1660ff1614151561032557600080fd5b610355600160009054906101000a900473ffffffffffffffffffffffffffffffffffffffff163386868686610566565b50505050565b6000600160149054906101000a900460ff1660ff1614151561037c57600080fd5b803410156103c9573373ffffffffffffffffffffffffffffffffffffffff166108fc349081150290604051600060405180830381858888f1935050505015156103c457600080fd5b6103fa565b6103f9600160009054906101000a900473ffffffffffffffffffffffffffffffffffffffff16843385348661057c565b5b505050565b6000809054906101000a900473ffffffffffffffffffffffffffffffffffffffff1673ffffffffffffffffffffffffffffffffffffffff163373ffffffffffffffffffffffffffffffffffffffff1614151561045a57600080fd5b600073ffffffffffffffffffffffffffffffffffffffff168173ffffffffffffffffffffffffffffffffffffffff161415151561049657600080fd5b8073ffffffffffffffffffffffffffffffffffffffff166000809054906101000a900473ffffffffffffffffffffffffffffffffffffffff1673ffffffffffffffffffffffffffffffffffffffff167f8be0079c531659141344cd1fd0a4f28419497f9722a3daafe3b4186f6b6457e060405160405180910390a3806000806101000a81548173ffffffffffffffffffffffffffffffffffffffff021916908373ffffffffffffffffffffffffffffffffffffffff16021790555050565b610560848484846108a1565b50505050565b610574868686868686610c7c565b505050505050565b6000806000806000806000808d73ffffffffffffffffffffffffffffffffffffffff16634c77e5ba60405180807f6f646c6c2f7061796d656e742d61646472657373000000000000000000000000815250601401905060405180910390206000604051602001526040518263ffffffff167c0100000000000000000000000000000000000000000000000000000000028152600401808260001916600019168152602001915050602060405180830381600087803b151561063c57600080fd5b6102c65a03f1151561064d57600080fd5b5050506040518051905097508d73ffffffffffffffffffffffffffffffffffffffff1663bdc963d860405180807f6f646c6c2f7363616e2d7061796d656e742d70657263656e7461676500000000815250601c01905060405180910390206000604051602001526040518263ffffffff167c0100000000000000000000000000000000000000000000000000000000028152600401808260001916600019168152602001915050602060405180830381600087803b151561070d57600080fd5b6102c65a03f1151561071e57600080fd5b5050506040518051905096506107348a8a610c92565b955061074a610744886064610cab565b8a610cec565b94506107568986610c92565b935084925060009450839150600093506107718e8d8b610d1f565b61077c8e8d8b610ef5565b6107878e8e846110cb565b6107928e8e846112a1565b61079d8e8985611477565b6107a88e898561164d565b6107b58e8e8e8e8d611823565b6107c08e8d8f6121df565b8773ffffffffffffffffffffffffffffffffffffffff166108fc849081150290604051600060405180830381858888f19350505050151561080057600080fd5b8c73ffffffffffffffffffffffffffffffffffffffff166108fc839081150290604051600060405180830381858888f19350505050151561084057600080fd5b600086111561089157859050600095508b73ffffffffffffffffffffffffffffffffffffffff166108fc829081150290604051600060405180830381858888f19350505050151561089057600080fd5b5b5050505050505050505050505050565b60018473ffffffffffffffffffffffffffffffffffffffff16637a0e03ec8360405180807f7363616e2d6170706c69636174696f6e2f73746174757300000000000000000081525060170182815260200191505060405180910390206000604051602001526040518263ffffffff167c0100000000000000000000000000000000000000000000000000000000028152600401808260001916600019168152602001915050602060405180830381600087803b151561095f57600080fd5b6102c65a03f1151561097057600080fd5b5050506040518051905060ff16148015610a8b57508273ffffffffffffffffffffffffffffffffffffffff168473ffffffffffffffffffffffffffffffffffffffff16634c77e5ba8360405180807f7363616e2d6170706c69636174696f6e2f64656e74697374000000000000000081525060180182815260200191505060405180910390206000604051602001526040518263ffffffff167c0100000000000000000000000000000000000000000000000000000000028152600401808260001916600019168152602001915050602060405180830381600087803b1515610a5857600080fd5b6102c65a03f11515610a6957600080fd5b5050506040518051905073ffffffffffffffffffffffffffffffffffffffff16145b8015610b9857508173ffffffffffffffffffffffffffffffffffffffff168473ffffffffffffffffffffffffffffffffffffffff16634c77e5ba8360405180807f7363616e2d6170706c69636174696f6e2f70617469656e74000000000000000081525060180182815260200191505060405180910390206000604051602001526040518263ffffffff167c0100000000000000000000000000000000000000000000000000000000028152600401808260001916600019168152602001915050602060405180830381600087803b1515610b6557600080fd5b6102c65a03f11515610b7657600080fd5b5050506040518051905073ffffffffffffffffffffffffffffffffffffffff16145b1515610ba357600080fd5b8373ffffffffffffffffffffffffffffffffffffffff16630bd851588260405180807f7363616e2d6170706c69636174696f6e2f737461747573000000000000000000815250601701828152602001915050604051809103902060036040518363ffffffff167c01000000000000000000000000000000000000000000000000000000000281526004018083600019166000191681526020018260ff16815260200192505050600060405180830381600087803b1515610c6257600080fd5b6102c65a03f11515610c7357600080fd5b50505050505050565b610c8a86868686868661233e565b505050505050565b6000828211151515610ca057fe5b818303905092915050565b600080600083111515610cba57fe5b8284811515610cc557fe5b0490508284811515610cd357fe5b068184020184141515610ce257fe5b8091505092915050565b60008082840290506000841480610d0d5750828482811515610d0a57fe5b04145b1515610d1557fe5b8091505092915050565b8273ffffffffffffffffffffffffffffffffffffffff1663c8d1c0178360405180807f70617469656e742f7363616e2d746f74616c2d706169640000000000000000008152506017018273ffffffffffffffffffffffffffffffffffffffff1673ffffffffffffffffffffffffffffffffffffffff166c010000000000000000000000000281526014019150506040518091039020836040518363ffffffff167c010000000000000000000000000000000000000000000000000000000002815260040180836000191660001916815260200182815260200192505050600060405180830381600087803b1515610e1557600080fd5b6102c65a03f11515610e2657600080fd5b5050508273ffffffffffffffffffffffffffffffffffffffff1663c8d1c01760405180807f70617469656e74732f7363616e2d746f74616c2d70616964000000000000000081525060180190506040518091039020836040518363ffffffff167c010000000000000000000000000000000000000000000000000000000002815260040180836000191660001916815260200182815260200192505050600060405180830381600087803b1515610edc57600080fd5b6102c65a03f11515610eed57600080fd5b505050505050565b8273ffffffffffffffffffffffffffffffffffffffff1663c8d1c0178360405180807f70617469656e742f746f74616c2d7061696400000000000000000000000000008152506012018273ffffffffffffffffffffffffffffffffffffffff1673ffffffffffffffffffffffffffffffffffffffff166c010000000000000000000000000281526014019150506040518091039020836040518363ffffffff167c010000000000000000000000000000000000000000000000000000000002815260040180836000191660001916815260200182815260200192505050600060405180830381600087803b1515610feb57600080fd5b6102c65a03f11515610ffc57600080fd5b5050508273ffffffffffffffffffffffffffffffffffffffff1663c8d1c01760405180807f70617469656e74732f746f74616c2d706169640000000000000000000000000081525060130190506040518091039020836040518363ffffffff167c010000000000000000000000000000000000000000000000000000000002815260040180836000191660001916815260200182815260200192505050600060405180830381600087803b15156110b257600080fd5b6102c65a03f115156110c357600080fd5b505050505050565b8273ffffffffffffffffffffffffffffffffffffffff1663c8d1c0178360405180807f64656e746973742f7363616e2d746f74616c2d6561726e6564000000000000008152506019018273ffffffffffffffffffffffffffffffffffffffff1673ffffffffffffffffffffffffffffffffffffffff166c010000000000000000000000000281526014019150506040518091039020836040518363ffffffff167c010000000000000000000000000000000000000000000000000000000002815260040180836000191660001916815260200182815260200192505050600060405180830381600087803b15156111c157600080fd5b6102c65a03f115156111d257600080fd5b5050508273ffffffffffffffffffffffffffffffffffffffff1663c8d1c01760405180807f64656e74697374732f7363616e2d746f74616c2d6561726e6564000000000000815250601a0190506040518091039020836040518363ffffffff167c010000000000000000000000000000000000000000000000000000000002815260040180836000191660001916815260200182815260200192505050600060405180830381600087803b151561128857600080fd5b6102c65a03f1151561129957600080fd5b505050505050565b8273ffffffffffffffffffffffffffffffffffffffff1663c8d1c0178360405180807f64656e746973742f746f74616c2d6561726e65640000000000000000000000008152506014018273ffffffffffffffffffffffffffffffffffffffff1673ffffffffffffffffffffffffffffffffffffffff166c010000000000000000000000000281526014019150506040518091039020836040518363ffffffff167c010000000000000000000000000000000000000000000000000000000002815260040180836000191660001916815260200182815260200192505050600060405180830381600087803b151561139757600080fd5b6102c65a03f115156113a857600080fd5b5050508273ffffffffffffffffffffffffffffffffffffffff1663c8d1c01760405180807f64656e74697374732f746f74616c2d6561726e6564000000000000000000000081525060150190506040518091039020836040518363ffffffff167c010000000000000000000000000000000000000000000000000000000002815260040180836000191660001916815260200182815260200192505050600060405180830381600087803b151561145e57600080fd5b6102c65a03f1151561146f57600080fd5b505050505050565b8273ffffffffffffffffffffffffffffffffffffffff1663c8d1c0178360405180807f6f646c6c2f7363616e2d746f74616c2d6561726e6564000000000000000000008152506016018273ffffffffffffffffffffffffffffffffffffffff1673ffffffffffffffffffffffffffffffffffffffff166c010000000000000000000000000281526014019150506040518091039020836040518363ffffffff167c010000000000000000000000000000000000000000000000000000000002815260040180836000191660001916815260200182815260200192505050600060405180830381600087803b151561156d57600080fd5b6102c65a03f1151561157e57600080fd5b5050508273ffffffffffffffffffffffffffffffffffffffff1663c8d1c01760405180807f6f646c6c2f7363616e2d746f74616c2d6561726e65640000000000000000000081525060160190506040518091039020836040518363ffffffff167c010000000000000000000000000000000000000000000000000000000002815260040180836000191660001916815260200182815260200192505050600060405180830381600087803b151561163457600080fd5b6102c65a03f1151561164557600080fd5b505050505050565b8273ffffffffffffffffffffffffffffffffffffffff1663c8d1c0178360405180807f6f646c6c2f746f74616c2d6561726e65640000000000000000000000000000008152506011018273ffffffffffffffffffffffffffffffffffffffff1673ffffffffffffffffffffffffffffffffffffffff166c010000000000000000000000000281526014019150506040518091039020836040518363ffffffff167c010000000000000000000000000000000000000000000000000000000002815260040180836000191660001916815260200182815260200192505050600060405180830381600087803b151561174357600080fd5b6102c65a03f1151561175457600080fd5b5050508273ffffffffffffffffffffffffffffffffffffffff1663c8d1c01760405180807f6f646c6c2f746f74616c2d6561726e656400000000000000000000000000000081525060110190506040518091039020836040518363ffffffff167c010000000000000000000000000000000000000000000000000000000002815260040180836000191660001916815260200182815260200192505050600060405180830381600087803b151561180a57600080fd5b6102c65a03f1151561181b57600080fd5b505050505050565b600080611865876040805190810160405280600b81526020017f7363616e732d636f756e74000000000000000000000000000000000000000000815250612c32565b91508673ffffffffffffffffffffffffffffffffffffffff1663bdc963d88560405180807f7363616e2d6170706c69636174696f6e2f7363616e2d72657175657374000000815250601d0182815260200191505060405180910390206000604051602001526040518263ffffffff167c0100000000000000000000000000000000000000000000000000000000028152600401808260001916600019168152602001915050602060405180830381600087803b151561192357600080fd5b6102c65a03f1151561193457600080fd5b50505060405180519050905060008773ffffffffffffffffffffffffffffffffffffffff16637a0e03ec8460405180807f636173652f737461747573000000000000000000000000000000000000000000815250600b0182815260200191505060405180910390206000604051602001526040518263ffffffff167c0100000000000000000000000000000000000000000000000000000000028152600401808260001916600019168152602001915050602060405180830381600087803b15156119fe57600080fd5b6102c65a03f11515611a0f57600080fd5b5050506040518051905060ff16148015611b02575060018773ffffffffffffffffffffffffffffffffffffffff16637a0e03ec8660405180807f7363616e2d6170706c69636174696f6e2f73746174757300000000000000000081525060170182815260200191505060405180910390206000604051602001526040518263ffffffff167c0100000000000000000000000000000000000000000000000000000000028152600401808260001916600019168152602001915050602060405180830381600087803b1515611ae257600080fd5b6102c65a03f11515611af357600080fd5b5050506040518051905060ff16145b8015611be7575060018773ffffffffffffffffffffffffffffffffffffffff16637a0e03ec8360405180807f7363616e2d726571756573742f7374617475730000000000000000000000000081525060130182815260200191505060405180910390206000604051602001526040518263ffffffff167c0100000000000000000000000000000000000000000000000000000000028152600401808260001916600019168152602001915050602060405180830381600087803b1515611bc757600080fd5b6102c65a03f11515611bd857600080fd5b5050506040518051905060ff16145b8015611cf457508473ffffffffffffffffffffffffffffffffffffffff168773ffffffffffffffffffffffffffffffffffffffff16634c77e5ba8360405180807f7363616e2d726571756573742f70617469656e7400000000000000000000000081525060140182815260200191505060405180910390206000604051602001526040518263ffffffff167c0100000000000000000000000000000000000000000000000000000000028152600401808260001916600019168152602001915050602060405180830381600087803b1515611cc157600080fd5b6102c65a03f11515611cd257600080fd5b5050506040518051905073ffffffffffffffffffffffffffffffffffffffff16145b8015611e0157508573ffffffffffffffffffffffffffffffffffffffff168773ffffffffffffffffffffffffffffffffffffffff16634c77e5ba8660405180807f7363616e2d6170706c69636174696f6e2f64656e74697374000000000000000081525060180182815260200191505060405180910390206000604051602001526040518263ffffffff167c0100000000000000000000000000000000000000000000000000000000028152600401808260001916600019168152602001915050602060405180830381600087803b1515611dce57600080fd5b6102c65a03f11515611ddf57600080fd5b5050506040518051905073ffffffffffffffffffffffffffffffffffffffff16145b8015611f0e57508473ffffffffffffffffffffffffffffffffffffffff168773ffffffffffffffffffffffffffffffffffffffff16634c77e5ba8660405180807f7363616e2d6170706c69636174696f6e2f70617469656e74000000000000000081525060180182815260200191505060405180910390206000604051602001526040518263ffffffff167c0100000000000000000000000000000000000000000000000000000000028152600401808260001916600019168152602001915050602060405180830381600087803b1515611edb57600080fd5b6102c65a03f11515611eec57600080fd5b5050506040518051905073ffffffffffffffffffffffffffffffffffffffff16145b8015611fff575060008773ffffffffffffffffffffffffffffffffffffffff16634c77e5ba60405180807f6f646c6c2f7061796d656e742d61646472657373000000000000000000000000815250601401905060405180910390206000604051602001526040518263ffffffff167c0100000000000000000000000000000000000000000000000000000000028152600401808260001916600019168152602001915050602060405180830381600087803b1515611fcb57600080fd5b6102c65a03f11515611fdc57600080fd5b5050506040518051905073ffffffffffffffffffffffffffffffffffffffff1614155b151561200a57600080fd5b612018878787848887612d38565b61202587878785876132ec565b8673ffffffffffffffffffffffffffffffffffffffff16630bd851588260405180807f7363616e2d726571756573742f73746174757300000000000000000000000000815250601301828152602001915050604051809103902060046040518363ffffffff167c01000000000000000000000000000000000000000000000000000000000281526004018083600019166000191681526020018260ff16815260200192505050600060405180830381600087803b15156120e457600080fd5b6102c65a03f115156120f557600080fd5b5050508673ffffffffffffffffffffffffffffffffffffffff16630bd851588560405180807f7363616e2d6170706c69636174696f6e2f737461747573000000000000000000815250601701828152602001915050604051809103902060046040518363ffffffff167c01000000000000000000000000000000000000000000000000000000000281526004018083600019166000191681526020018260ff16815260200192505050600060405180830381600087803b15156121b757600080fd5b6102c65a03f115156121c857600080fd5b5050506121d6878286613584565b50505050505050565b61228c83836040805190810160405280600f81526020017f70617469656e742f64656e7469737400000000000000000000000000000000008152506040805190810160405280601681526020017f70617469656e742f64656e74697374732d636f756e74000000000000000000008152506040805190810160405280601381526020017f70617469656e742f64656e746973742d6b657900000000000000000000000000815250866137d2565b61233983826040805190810160405280600f81526020017f64656e746973742f70617469656e7400000000000000000000000000000000008152506040805190810160405280601381526020017f64656e746973742f70617469656e742d6b6579000000000000000000000000008152506040805190810160405280601381526020017f64656e746973742f70617469656e742d6b657900000000000000000000000000815250876137d2565b505050565b6000806000806123838a6040805190810160405280601781526020017f7363616e2d6170706c69636174696f6e732d636f756e74000000000000000000815250612c32565b935060008a73ffffffffffffffffffffffffffffffffffffffff16637a0e03ec8660405180807f7363616e2d6170706c69636174696f6e2f73746174757300000000000000000081525060170182815260200191505060405180910390206000604051602001526040518263ffffffff167c0100000000000000000000000000000000000000000000000000000000028152600401808260001916600019168152602001915050602060405180830381600087803b151561244357600080fd5b6102c65a03f1151561245457600080fd5b5050506040518051905060ff16148015612547575060018a73ffffffffffffffffffffffffffffffffffffffff16637a0e03ec8960405180807f7363616e2d726571756573742f7374617475730000000000000000000000000081525060130182815260200191505060405180910390206000604051602001526040518263ffffffff167c0100000000000000000000000000000000000000000000000000000000028152600401808260001916600019168152602001915050602060405180830381600087803b151561252757600080fd5b6102c65a03f1151561253857600080fd5b5050506040518051905060ff16145b801561265457508773ffffffffffffffffffffffffffffffffffffffff168a73ffffffffffffffffffffffffffffffffffffffff16634c77e5ba8960405180807f7363616e2d726571756573742f70617469656e7400000000000000000000000081525060140182815260200191505060405180910390206000604051602001526040518263ffffffff167c0100000000000000000000000000000000000000000000000000000000028152600401808260001916600019168152602001915050602060405180830381600087803b151561262157600080fd5b6102c65a03f1151561263257600080fd5b5050506040518051905073ffffffffffffffffffffffffffffffffffffffff16145b151561265f57600080fd5b600092505b83831015612c0c578973ffffffffffffffffffffffffffffffffffffffff1663bdc963d88a8560405180807f64656e746973742f7363616e2d6170706c69636174696f6e00000000000000008152506018018373ffffffffffffffffffffffffffffffffffffffff1673ffffffffffffffffffffffffffffffffffffffff166c010000000000000000000000000281526014018281526020019250505060405180910390206000604051602001526040518263ffffffff167c0100000000000000000000000000000000000000000000000000000000028152600401808260001916600019168152602001915050602060405180830381600087803b151561276b57600080fd5b6102c65a03f1151561277c57600080fd5b5050506040518051905091508973ffffffffffffffffffffffffffffffffffffffff1663bdc963d88360405180807f7363616e2d6170706c69636174696f6e2f7363616e2d72657175657374000000815250601d0182815260200191505060405180910390206000604051602001526040518263ffffffff167c0100000000000000000000000000000000000000000000000000000000028152600401808260001916600019168152602001915050602060405180830381600087803b151561284457600080fd5b6102c65a03f1151561285557600080fd5b5050506040518051905090508681148015612bf5575060018a73ffffffffffffffffffffffffffffffffffffffff16637a0e03ec8460405180807f7363616e2d6170706c69636174696f6e2f73746174757300000000000000000081525060170182815260200191505060405180910390206000604051602001526040518263ffffffff167c0100000000000000000000000000000000000000000000000000000000028152600401808260001916600019168152602001915050602060405180830381600087803b151561292957600080fd5b6102c65a03f1151561293a57600080fd5b5050506040518051905060ff161480612a2c575060028a73ffffffffffffffffffffffffffffffffffffffff16637a0e03ec8460405180807f7363616e2d6170706c69636174696f6e2f73746174757300000000000000000081525060170182815260200191505060405180910390206000604051602001526040518263ffffffff167c0100000000000000000000000000000000000000000000000000000000028152600401808260001916600019168152602001915050602060405180830381600087803b1515612a0c57600080fd5b6102c65a03f11515612a1d57600080fd5b5050506040518051905060ff16145b80612b10575060048a73ffffffffffffffffffffffffffffffffffffffff16637a0e03ec8460405180807f7363616e2d6170706c69636174696f6e2f73746174757300000000000000000081525060170182815260200191505060405180910390206000604051602001526040518263ffffffff167c0100000000000000000000000000000000000000000000000000000000028152600401808260001916600019168152602001915050602060405180830381600087803b1515612af057600080fd5b6102c65a03f11515612b0157600080fd5b5050506040518051905060ff16145b80612bf4575060058a73ffffffffffffffffffffffffffffffffffffffff16637a0e03ec8460405180807f7363616e2d6170706c69636174696f6e2f73746174757300000000000000000081525060170182815260200191505060405180910390206000604051602001526040518263ffffffff167c0100000000000000000000000000000000000000000000000000000000028152600401808260001916600019168152602001915050602060405180830381600087803b1515612bd457600080fd5b6102c65a03f11515612be557600080fd5b5050506040518051905060ff16145b5b15612bff57612c26565b8280600101935050612664565b612c178a8886613af3565b612c258a8a8a878a8a613e7d565b5b50505050505050505050565b60008273ffffffffffffffffffffffffffffffffffffffff1663bdc963d8836040518082805190602001908083835b602083101515612c865780518252602082019150602081019050602083039250612c61565b6001836020036101000a03801982511681845116808217855250505050505090500191505060405180910390206000604051602001526040518263ffffffff167c0100000000000000000000000000000000000000000000000000000000028152600401808260001916600019168152602001915050602060405180830381600087803b1515612d1557600080fd5b6102c65a03f11515612d2657600080fd5b50505060405180519050905092915050565b8573ffffffffffffffffffffffffffffffffffffffff16630bd851588260405180807f636173652f737461747573000000000000000000000000000000000000000000815250600b01828152602001915050604051809103902060016040518363ffffffff167c01000000000000000000000000000000000000000000000000000000000281526004018083600019166000191681526020018260ff16815260200192505050600060405180830381600087803b1515612df757600080fd5b6102c65a03f11515612e0857600080fd5b5050508573ffffffffffffffffffffffffffffffffffffffff16633562fd208260405180807f636173652f637265617465642d6f6e0000000000000000000000000000000000815250600f018281526020019150506040518091039020426040518363ffffffff167c010000000000000000000000000000000000000000000000000000000002815260040180836000191660001916815260200182815260200192505050600060405180830381600087803b1515612ec657600080fd5b6102c65a03f11515612ed757600080fd5b5050508573ffffffffffffffffffffffffffffffffffffffff16635a2bf25a8260405180807f636173652f64656e746973740000000000000000000000000000000000000000815250600c018281526020019150506040518091039020876040518363ffffffff167c01000000000000000000000000000000000000000000000000000000000281526004018083600019166000191681526020018273ffffffffffffffffffffffffffffffffffffffff1673ffffffffffffffffffffffffffffffffffffffff16815260200192505050600060405180830381600087803b1515612fc157600080fd5b6102c65a03f11515612fd257600080fd5b5050508573ffffffffffffffffffffffffffffffffffffffff16635a2bf25a8260405180807f636173652f70617469656e740000000000000000000000000000000000000000815250600c018281526020019150506040518091039020866040518363ffffffff167c01000000000000000000000000000000000000000000000000000000000281526004018083600019166000191681526020018273ffffffffffffffffffffffffffffffffffffffff1673ffffffffffffffffffffffffffffffffffffffff16815260200192505050600060405180830381600087803b15156130bc57600080fd5b6102c65a03f115156130cd57600080fd5b5050508573ffffffffffffffffffffffffffffffffffffffff16633562fd208260405180807f636173652f7363616e2d726571756573740000000000000000000000000000008152506011018281526020019150506040518091039020856040518363ffffffff167c010000000000000000000000000000000000000000000000000000000002815260040180836000191660001916815260200182815260200192505050600060405180830381600087803b151561318b57600080fd5b6102c65a03f1151561319c57600080fd5b5050508573ffffffffffffffffffffffffffffffffffffffff16633562fd208260405180807f636173652f7363616e2d6170706c69636174696f6e00000000000000000000008152506015018281526020019150506040518091039020846040518363ffffffff167c010000000000000000000000000000000000000000000000000000000002815260040180836000191660001916815260200182815260200192505050600060405180830381600087803b151561325a57600080fd5b6102c65a03f1151561326b57600080fd5b5050506132e4866040805190810160405280600481526020017f63617365000000000000000000000000000000000000000000000000000000008152506040805190810160405280600b81526020017f63617365732d636f756e740000000000000000000000000000000000000000008152508461430f565b505050505050565b8473ffffffffffffffffffffffffffffffffffffffff16633562fd208360405180807f636173652f616d6f756e74000000000000000000000000000000000000000000815250600b018281526020019150506040518091039020836040518363ffffffff167c010000000000000000000000000000000000000000000000000000000002815260040180836000191660001916815260200182815260200192505050600060405180830381600087803b15156133a757600080fd5b6102c65a03f115156133b857600080fd5b5050508473ffffffffffffffffffffffffffffffffffffffff16633eba9ed28360405180807f636173652f706169640000000000000000000000000000000000000000000000815250600901828152602001915050604051809103902060016040518363ffffffff167c01000000000000000000000000000000000000000000000000000000000281526004018083600019166000191681526020018215151515815260200192505050600060405180830381600087803b151561347b57600080fd5b6102c65a03f1151561348c57600080fd5b50505061350685856040805190810160405280600c81526020017f64656e746973742f6361736500000000000000000000000000000000000000008152506040805190810160405280601381526020017f64656e746973742f63617365732d636f756e740000000000000000000000000081525086614609565b61357d85846040805190810160405280600c81526020017f70617469656e742f6361736500000000000000000000000000000000000000008152506040805190810160405280601381526020017f70617469656e742f63617365732d636f756e740000000000000000000000000081525086614609565b5050505050565b60008060006135f08686606060405190810160405280602481526020017f7363616e2d726571756573742f7363616e2d6170706c69636174696f6e732d6381526020017f6f756e7400000000000000000000000000000000000000000000000000000000815250614899565b9250600091505b828210156137ca578573ffffffffffffffffffffffffffffffffffffffff1663bdc963d8868460405180807f7363616e2d726571756573742f7363616e2d6170706c69636174696f6e000000815250601d018381526020018281526020019250505060405180910390206000604051602001526040518263ffffffff167c0100000000000000000000000000000000000000000000000000000000028152600401808260001916600019168152602001915050602060405180830381600087803b15156136c357600080fd5b6102c65a03f115156136d457600080fd5b50505060405180519050905083811415156137bd578573ffffffffffffffffffffffffffffffffffffffff16630bd851588260405180807f7363616e2d6170706c69636174696f6e2f737461747573000000000000000000815250601701828152602001915050604051809103902060056040518363ffffffff167c01000000000000000000000000000000000000000000000000000000000281526004018083600019166000191681526020018260ff16815260200192505050600060405180830381600087803b15156137a857600080fd5b6102c65a03f115156137b957600080fd5b5050505b81806001019250506135f7565b505050505050565b60008673ffffffffffffffffffffffffffffffffffffffff16637a0e03ec8688856040518084805190602001908083835b6020831015156138285780518252602082019150602081019050602083039250613803565b6001836020036101000a0380198251168184511680821785525050505050509050018373ffffffffffffffffffffffffffffffffffffffff1673ffffffffffffffffffffffffffffffffffffffff166c010000000000000000000000000281526014018273ffffffffffffffffffffffffffffffffffffffff1673ffffffffffffffffffffffffffffffffffffffff166c01000000000000000000000000028152601401935050505060405180910390206000604051602001526040518263ffffffff167c0100000000000000000000000000000000000000000000000000000000028152600401808260001916600019168152602001915050602060405180830381600087803b151561393b57600080fd5b6102c65a03f1151561394c57600080fd5b5050506040518051905060ff16141561396d5761396c86868486856149a8565b5b8573ffffffffffffffffffffffffffffffffffffffff16630bd851588587846040518084805190602001908083835b6020831015156139c1578051825260208201915060208101905060208303925061399c565b6001836020036101000a0380198251168184511680821785525050505050509050018373ffffffffffffffffffffffffffffffffffffffff1673ffffffffffffffffffffffffffffffffffffffff166c010000000000000000000000000281526014018273ffffffffffffffffffffffffffffffffffffffff1673ffffffffffffffffffffffffffffffffffffffff166c010000000000000000000000000281526014019350505050604051809103902060016040518363ffffffff167c01000000000000000000000000000000000000000000000000000000000281526004018083600019166000191681526020018260ff16815260200192505050600060405180830381600087803b1515613ad757600080fd5b6102c65a03f11515613ae857600080fd5b505050505050505050565b8273ffffffffffffffffffffffffffffffffffffffff16630bd851588260405180807f7363616e2d6170706c69636174696f6e2f737461747573000000000000000000815250601701828152602001915050604051809103902060016040518363ffffffff167c01000000000000000000000000000000000000000000000000000000000281526004018083600019166000191681526020018260ff16815260200192505050600060405180830381600087803b1515613bb257600080fd5b6102c65a03f11515613bc357600080fd5b5050508273ffffffffffffffffffffffffffffffffffffffff16633562fd208260405180807f7363616e2d6170706c69636174696f6e2f637265617465642d6f6e0000000000815250601b018281526020019150506040518091039020426040518363ffffffff167c010000000000000000000000000000000000000000000000000000000002815260040180836000191660001916815260200182815260200192505050600060405180830381600087803b1515613c8157600080fd5b6102c65a03f11515613c9257600080fd5b5050508273ffffffffffffffffffffffffffffffffffffffff16633562fd208260405180807f7363616e2d6170706c69636174696f6e2f7363616e2d72657175657374000000815250601d018281526020019150506040518091039020846040518363ffffffff167c010000000000000000000000000000000000000000000000000000000002815260040180836000191660001916815260200182815260200192505050600060405180830381600087803b1515613d5057600080fd5b6102c65a03f11515613d6157600080fd5b505050613dda836040805190810160405280601081526020017f7363616e2d6170706c69636174696f6e000000000000000000000000000000008152506040805190810160405280601781526020017f7363616e2d6170706c69636174696f6e732d636f756e740000000000000000008152508461430f565b613e7883836040805190810160405280601d81526020017f7363616e2d726571756573742f7363616e2d6170706c69636174696f6e000000815250606060405190810160405280602481526020017f7363616e2d726571756573742f7363616e2d6170706c69636174696f6e732d6381526020017f6f756e740000000000000000000000000000000000000000000000000000000081525085614c64565b505050565b8573ffffffffffffffffffffffffffffffffffffffff16633562fd208460405180807f7363616e2d6170706c69636174696f6e2f71756f7465000000000000000000008152506016018281526020019150506040518091039020846040518363ffffffff167c010000000000000000000000000000000000000000000000000000000002815260040180836000191660001916815260200182815260200192505050600060405180830381600087803b1515613f3857600080fd5b6102c65a03f11515613f4957600080fd5b5050508573ffffffffffffffffffffffffffffffffffffffff166325cf512d8460405180807f7363616e2d6170706c69636174696f6e2f636f6d6d656e7400000000000000008152506018018281526020019150506040518091039020836040518363ffffffff167c0100000000000000000000000000000000000000000000000000000000028152600401808360001916600019168152602001826000191660001916815260200192505050600060405180830381600087803b151561400f57600080fd5b6102c65a03f1151561402057600080fd5b5050508573ffffffffffffffffffffffffffffffffffffffff16635a2bf25a8460405180807f7363616e2d6170706c69636174696f6e2f64656e7469737400000000000000008152506018018281526020019150506040518091039020876040518363ffffffff167c01000000000000000000000000000000000000000000000000000000000281526004018083600019166000191681526020018273ffffffffffffffffffffffffffffffffffffffff1673ffffffffffffffffffffffffffffffffffffffff16815260200192505050600060405180830381600087803b151561410a57600080fd5b6102c65a03f1151561411b57600080fd5b5050508573ffffffffffffffffffffffffffffffffffffffff16635a2bf25a8460405180807f7363616e2d6170706c69636174696f6e2f70617469656e7400000000000000008152506018018281526020019150506040518091039020866040518363ffffffff167c01000000000000000000000000000000000000000000000000000000000281526004018083600019166000191681526020018273ffffffffffffffffffffffffffffffffffffffff1673ffffffffffffffffffffffffffffffffffffffff16815260200192505050600060405180830381600087803b151561420557600080fd5b6102c65a03f1151561421657600080fd5b50505061429086866040805190810160405280601881526020017f64656e746973742f7363616e2d6170706c69636174696f6e00000000000000008152506040805190810160405280601f81526020017f64656e746973742f7363616e2d6170706c69636174696f6e732d636f756e740081525087614609565b61430786856040805190810160405280601881526020017f70617469656e742f7363616e2d6170706c69636174696f6e00000000000000008152506040805190810160405280601f81526020017f70617469656e742f7363616e2d6170706c69636174696f6e732d636f756e740081525087614609565b505050505050565b60008473ffffffffffffffffffffffffffffffffffffffff1663bdc963d8846040518082805190602001908083835b602083101515614363578051825260208201915060208101905060208303925061433e565b6001836020036101000a03801982511681845116808217855250505050505090500191505060405180910390206000604051602001526040518263ffffffff167c0100000000000000000000000000000000000000000000000000000000028152600401808260001916600019168152602001915050602060405180830381600087803b15156143f257600080fd5b6102c65a03f1151561440357600080fd5b5050506040518051905090508473ffffffffffffffffffffffffffffffffffffffff16633562fd2085836040518083805190602001908083835b602083101515614462578051825260208201915060208101905060208303925061443d565b6001836020036101000a038019825116818451168082178552505050505050905001828152602001925050506040518091039020846040518363ffffffff167c010000000000000000000000000000000000000000000000000000000002815260040180836000191660001916815260200182815260200192505050600060405180830381600087803b15156144f757600080fd5b6102c65a03f1151561450857600080fd5b5050508473ffffffffffffffffffffffffffffffffffffffff16633562fd20846040518082805190602001908083835b60208310151561455d5780518252602082019150602081019050602083039250614538565b6001836020036101000a0380198251168184511680821785525050505050509050019150506040518091039020600184016040518363ffffffff167c010000000000000000000000000000000000000000000000000000000002815260040180836000191660001916815260200182815260200192505050600060405180830381600087803b15156145ee57600080fd5b6102c65a03f115156145ff57600080fd5b5050505050505050565b6000614616868685614e7e565b90508573ffffffffffffffffffffffffffffffffffffffff16633562fd208587846040518084805190602001908083835b60208310151561466c5780518252602082019150602081019050602083039250614647565b6001836020036101000a0380198251168184511680821785525050505050509050018373ffffffffffffffffffffffffffffffffffffffff1673ffffffffffffffffffffffffffffffffffffffff166c0100000000000000000000000002815260140182815260200193505050506040518091039020846040518363ffffffff167c010000000000000000000000000000000000000000000000000000000002815260040180836000191660001916815260200182815260200192505050600060405180830381600087803b151561474357600080fd5b6102c65a03f1151561475457600080fd5b5050508573ffffffffffffffffffffffffffffffffffffffff16633562fd2084876040518083805190602001908083835b6020831015156147aa5780518252602082019150602081019050602083039250614785565b6001836020036101000a0380198251168184511680821785525050505050509050018273ffffffffffffffffffffffffffffffffffffffff1673ffffffffffffffffffffffffffffffffffffffff166c01000000000000000000000000028152601401925050506040518091039020600184016040518363ffffffff167c010000000000000000000000000000000000000000000000000000000002815260040180836000191660001916815260200182815260200192505050600060405180830381600087803b151561487d57600080fd5b6102c65a03f1151561488e57600080fd5b505050505050505050565b60008373ffffffffffffffffffffffffffffffffffffffff1663bdc963d883856040518083805190602001908083835b6020831015156148ee57805182526020820191506020810190506020830392506148c9565b6001836020036101000a0380198251168184511680821785525050505050509050018281526020019250505060405180910390206000604051602001526040518263ffffffff167c0100000000000000000000000000000000000000000000000000000000028152600401808260001916600019168152602001915050602060405180830381600087803b151561498457600080fd5b6102c65a03f1151561499557600080fd5b5050506040518051905090509392505050565b60006149b5868685614e7e565b90508573ffffffffffffffffffffffffffffffffffffffff16635a2bf25a8587846040518084805190602001908083835b602083101515614a0b57805182526020820191506020810190506020830392506149e6565b6001836020036101000a0380198251168184511680821785525050505050509050018373ffffffffffffffffffffffffffffffffffffffff1673ffffffffffffffffffffffffffffffffffffffff166c0100000000000000000000000002815260140182815260200193505050506040518091039020846040518363ffffffff167c01000000000000000000000000000000000000000000000000000000000281526004018083600019166000191681526020018273ffffffffffffffffffffffffffffffffffffffff1673ffffffffffffffffffffffffffffffffffffffff16815260200192505050600060405180830381600087803b1515614b0e57600080fd5b6102c65a03f11515614b1f57600080fd5b5050508573ffffffffffffffffffffffffffffffffffffffff16633562fd2084876040518083805190602001908083835b602083101515614b755780518252602082019150602081019050602083039250614b50565b6001836020036101000a0380198251168184511680821785525050505050509050018273ffffffffffffffffffffffffffffffffffffffff1673ffffffffffffffffffffffffffffffffffffffff166c01000000000000000000000000028152601401925050506040518091039020600184016040518363ffffffff167c010000000000000000000000000000000000000000000000000000000002815260040180836000191660001916815260200182815260200192505050600060405180830381600087803b1515614c4857600080fd5b6102c65a03f11515614c5957600080fd5b505050505050505050565b6000614c71868685614899565b90508573ffffffffffffffffffffffffffffffffffffffff16633562fd208587846040518084805190602001908083835b602083101515614cc75780518252602082019150602081019050602083039250614ca2565b6001836020036101000a03801982511681845116808217855250505050505090500183815260200182815260200193505050506040518091039020846040518363ffffffff167c010000000000000000000000000000000000000000000000000000000002815260040180836000191660001916815260200182815260200192505050600060405180830381600087803b1515614d6357600080fd5b6102c65a03f11515614d7457600080fd5b5050508573ffffffffffffffffffffffffffffffffffffffff16633562fd2084876040518083805190602001908083835b602083101515614dca5780518252602082019150602081019050602083039250614da5565b6001836020036101000a038019825116818451168082178552505050505050905001828152602001925050506040518091039020600184016040518363ffffffff167c010000000000000000000000000000000000000000000000000000000002815260040180836000191660001916815260200182815260200192505050600060405180830381600087803b1515614e6257600080fd5b6102c65a03f11515614e7357600080fd5b505050505050505050565b60008373ffffffffffffffffffffffffffffffffffffffff1663bdc963d883856040518083805190602001908083835b602083101515614ed35780518252602082019150602081019050602083039250614eae565b6001836020036101000a0380198251168184511680821785525050505050509050018273ffffffffffffffffffffffffffffffffffffffff1673ffffffffffffffffffffffffffffffffffffffff166c010000000000000000000000000281526014019250505060405180910390206000604051602001526040518263ffffffff167c0100000000000000000000000000000000000000000000000000000000028152600401808260001916600019168152602001915050602060405180830381600087803b1515614fa457600080fd5b6102c65a03f11515614fb557600080fd5b50505060405180519050905093925050505600a165627a7a72305820bc5055f6641872d459a30d87f60c2181f797ce3a17b0657c1fd873328083c8590029",
  "source": "pragma solidity 0.4.18;\nimport \"./Restrictor.sol\";\nimport \"../lib/odll/userManager.sol\";\n\ncontract ScanApplicationWriter is Restrictor {\n  function ScanApplicationWriter(address _dbAddress) public {\n    require(_dbAddress != 0x0);\n    dbAddress = _dbAddress;\n  }\n\n  // Scan Application\n  function applyToScan (\n    address patientId,\n    uint scanRequestId,\n    uint quote,\n    bytes32 comment\n  )\n    external\n    onlyPermittedSmartContract\n  {\n    userManager.applyToScan(dbAddress, msg.sender, patientId, scanRequestId, quote, comment);\n  }\n\n  function cancelScanApplication (\n    address patientId,\n    uint scanApplicationId\n  )\n    external\n  {\n    userManager.cancelScanApplication(dbAddress, msg.sender, patientId, scanApplicationId);\n  }\n\n  function acceptScanApplication (\n    address dentistId,\n    uint scanApplicationId,\n    uint quote\n  )\n    external\n    payable\n    onlyPermittedSmartContract\n  {\n    if (msg.value < quote) {\n      msg.sender.transfer(msg.value);\n      return;\n    }\n\n    userManager.acceptScanApplication(dbAddress, dentistId, msg.sender, scanApplicationId, msg.value, quote);\n  }\n}\n",
  "sourcePath": "/Users/danielokwufulueze/dev/vue/apps/oraldatalink/contracts/odll/ScanApplicationWriter.sol",
  "compiler": {
    "name": "solc",
    "version": "0.4.18+commit.9cf6e910.Emscripten.clang"
  },
  "schemaVersion": "1.0.1",
  "updatedAt": "2017-11-17T15:10:00.749Z"
}