{
  "contractName": "ScanRequestReader",
  "abi": [
    {
      "constant": true,
      "inputs": [
        {
          "name": "dentistId",
          "type": "address"
        },
        {
          "name": "offset",
          "type": "uint256"
        },
        {
          "name": "limit",
          "type": "uint256"
        },
        {
          "name": "seed",
          "type": "uint256"
        }
      ],
      "name": "fetchAcceptedScanRequestsForDentist",
      "outputs": [
        {
          "name": "",
          "type": "uint256"
        },
        {
          "name": "",
          "type": "uint256[]"
        }
      ],
      "payable": false,
      "stateMutability": "view",
      "type": "function"
    },
    {
      "constant": true,
      "inputs": [
        {
          "name": "patientId",
          "type": "address"
        },
        {
          "name": "offset",
          "type": "uint256"
        },
        {
          "name": "limit",
          "type": "uint256"
        },
        {
          "name": "seed",
          "type": "uint256"
        }
      ],
      "name": "fetchScanRequestsForPatient",
      "outputs": [
        {
          "name": "",
          "type": "uint256"
        },
        {
          "name": "",
          "type": "uint256[]"
        }
      ],
      "payable": false,
      "stateMutability": "view",
      "type": "function"
    },
    {
      "constant": true,
      "inputs": [],
      "name": "smartContractStatus",
      "outputs": [
        {
          "name": "",
          "type": "uint8"
        }
      ],
      "payable": false,
      "stateMutability": "view",
      "type": "function"
    },
    {
      "constant": true,
      "inputs": [
        {
          "name": "offset",
          "type": "uint256"
        },
        {
          "name": "limit",
          "type": "uint256"
        },
        {
          "name": "seed",
          "type": "uint256"
        }
      ],
      "name": "fetchAllScanRequests",
      "outputs": [
        {
          "name": "",
          "type": "uint256"
        },
        {
          "name": "",
          "type": "uint256[]"
        }
      ],
      "payable": false,
      "stateMutability": "view",
      "type": "function"
    },
    {
      "constant": true,
      "inputs": [],
      "name": "owner",
      "outputs": [
        {
          "name": "",
          "type": "address"
        }
      ],
      "payable": false,
      "stateMutability": "view",
      "type": "function"
    },
    {
      "constant": true,
      "inputs": [],
      "name": "dbAddress",
      "outputs": [
        {
          "name": "",
          "type": "address"
        }
      ],
      "payable": false,
      "stateMutability": "view",
      "type": "function"
    },
    {
      "constant": true,
      "inputs": [
        {
          "name": "dentistId",
          "type": "address"
        },
        {
          "name": "offset",
          "type": "uint256"
        },
        {
          "name": "limit",
          "type": "uint256"
        },
        {
          "name": "seed",
          "type": "uint256"
        }
      ],
      "name": "fetchDirectScanRequestsForDentist",
      "outputs": [
        {
          "name": "",
          "type": "uint256"
        },
        {
          "name": "",
          "type": "uint256[]"
        }
      ],
      "payable": false,
      "stateMutability": "view",
      "type": "function"
    },
    {
      "constant": true,
      "inputs": [
        {
          "name": "patientId",
          "type": "address"
        },
        {
          "name": "offset",
          "type": "uint256"
        },
        {
          "name": "limit",
          "type": "uint256"
        },
        {
          "name": "seed",
          "type": "uint256"
        }
      ],
      "name": "fetchAcceptedScanRequestsForPatient",
      "outputs": [
        {
          "name": "",
          "type": "uint256"
        },
        {
          "name": "",
          "type": "uint256[]"
        }
      ],
      "payable": false,
      "stateMutability": "view",
      "type": "function"
    },
    {
      "constant": false,
      "inputs": [
        {
          "name": "newOwner",
          "type": "address"
        }
      ],
      "name": "transferOwnership",
      "outputs": [],
      "payable": false,
      "stateMutability": "nonpayable",
      "type": "function"
    },
    {
      "inputs": [
        {
          "name": "_dbAddress",
          "type": "address"
        }
      ],
      "payable": false,
      "stateMutability": "nonpayable",
      "type": "constructor"
    },
    {
      "anonymous": false,
      "inputs": [
        {
          "indexed": false,
          "name": "status",
          "type": "uint8"
        }
      ],
      "name": "OnSmartContractStatusSet",
      "type": "event"
    },
    {
      "anonymous": false,
      "inputs": [
        {
          "indexed": true,
          "name": "previousOwner",
          "type": "address"
        },
        {
          "indexed": true,
          "name": "newOwner",
          "type": "address"
        }
      ],
      "name": "OwnershipTransferred",
      "type": "event"
    }
  ],
  "bytecode": "0x6060604052341561000f57600080fd5b60405160208061190f83398101604052808051906020019091905050336000806101000a81548173ffffffffffffffffffffffffffffffffffffffff021916908373ffffffffffffffffffffffffffffffffffffffff16021790555060008173ffffffffffffffffffffffffffffffffffffffff161415151561009157600080fd5b80600160006101000a81548173ffffffffffffffffffffffffffffffffffffffff021916908373ffffffffffffffffffffffffffffffffffffffff1602179055505061182d806100e26000396000f300606060405260043610610099576000357c0100000000000000000000000000000000000000000000000000000000900463ffffffff16806312d7636f1461009e578063355ad8851461014e5780634c8ddddc146101fe578063610f2edc1461022d5780638da5cb5b146102be57806391e06b6d1461031357806392b226f214610368578063c13b215b14610418578063f2fde38b146104c8575b600080fd5b34156100a957600080fd5b6100f0600480803573ffffffffffffffffffffffffffffffffffffffff16906020019091908035906020019091908035906020019091908035906020019091905050610501565b6040518083815260200180602001828103825283818151815260200191508051906020019060200280838360005b8381101561013957808201518184015260208101905061011e565b50505050905001935050505060405180910390f35b341561015957600080fd5b6101a0600480803573ffffffffffffffffffffffffffffffffffffffff16906020019091908035906020019091908035906020019091908035906020019091905050610547565b6040518083815260200180602001828103825283818151815260200191508051906020019060200280838360005b838110156101e95780820151818401526020810190506101ce565b50505050905001935050505060405180910390f35b341561020957600080fd5b61021161058d565b604051808260ff1660ff16815260200191505060405180910390f35b341561023857600080fd5b61026060048080359060200190919080359060200190919080359060200190919050506105a0565b6040518083815260200180602001828103825283818151815260200191508051906020019060200280838360005b838110156102a957808201518184015260208101905061028e565b50505050905001935050505060405180910390f35b34156102c957600080fd5b6102d16105e4565b604051808273ffffffffffffffffffffffffffffffffffffffff1673ffffffffffffffffffffffffffffffffffffffff16815260200191505060405180910390f35b341561031e57600080fd5b610326610609565b604051808273ffffffffffffffffffffffffffffffffffffffff1673ffffffffffffffffffffffffffffffffffffffff16815260200191505060405180910390f35b341561037357600080fd5b6103ba600480803573ffffffffffffffffffffffffffffffffffffffff1690602001909190803590602001909190803590602001909190803590602001909190505061062f565b6040518083815260200180602001828103825283818151815260200191508051906020019060200280838360005b838110156104035780820151818401526020810190506103e8565b50505050905001935050505060405180910390f35b341561042357600080fd5b61046a600480803573ffffffffffffffffffffffffffffffffffffffff16906020019091908035906020019091908035906020019091908035906020019091905050610675565b6040518083815260200180602001828103825283818151815260200191508051906020019060200280838360005b838110156104b3578082015181840152602081019050610498565b50505050905001935050505060405180910390f35b34156104d357600080fd5b6104ff600480803573ffffffffffffffffffffffffffffffffffffffff169060200190919050506106bb565b005b600061050b6117ed565b61053a600160009054906101000a900473ffffffffffffffffffffffffffffffffffffffff1687878787610810565b9150915094509492505050565b60006105516117ed565b610580600160009054906101000a900473ffffffffffffffffffffffffffffffffffffffff1687878787610844565b9150915094509492505050565b600160149054906101000a900460ff1681565b60006105aa6117ed565b6105d8600160009054906101000a900473ffffffffffffffffffffffffffffffffffffffff16868686610878565b91509150935093915050565b6000809054906101000a900473ffffffffffffffffffffffffffffffffffffffff1681565b600160009054906101000a900473ffffffffffffffffffffffffffffffffffffffff1681565b60006106396117ed565b610668600160009054906101000a900473ffffffffffffffffffffffffffffffffffffffff16878787876108aa565b9150915094509492505050565b600061067f6117ed565b6106ae600160009054906101000a900473ffffffffffffffffffffffffffffffffffffffff16878787876108de565b9150915094509492505050565b6000809054906101000a900473ffffffffffffffffffffffffffffffffffffffff1673ffffffffffffffffffffffffffffffffffffffff163373ffffffffffffffffffffffffffffffffffffffff1614151561071657600080fd5b600073ffffffffffffffffffffffffffffffffffffffff168173ffffffffffffffffffffffffffffffffffffffff161415151561075257600080fd5b8073ffffffffffffffffffffffffffffffffffffffff166000809054906101000a900473ffffffffffffffffffffffffffffffffffffffff1673ffffffffffffffffffffffffffffffffffffffff167f8be0079c531659141344cd1fd0a4f28419497f9722a3daafe3b4186f6b6457e060405160405180910390a3806000806101000a81548173ffffffffffffffffffffffffffffffffffffffff021916908373ffffffffffffffffffffffffffffffffffffffff16021790555050565b600061081a6117ed565b6108248787610912565b905061083281868686610b09565b80925081935050509550959350505050565b600061084e6117ed565b6108588787610b79565b905061086681868686610b09565b80925081935050509550959350505050565b60006108826117ed565b61088b86610bff565b905061089981868686610b09565b809250819350505094509492505050565b60006108b46117ed565b6108be8787610df4565b90506108cc81868686610b09565b80925081935050509550959350505050565b60006108e86117ed565b6108f28787610e7a565b905061090081868686610b09565b80925081935050509550959350505050565b61091a6117ed565b6109226117ed565b600080600061099d87876040805190810160405280601481526020017f64656e746973742f7363616e2d726571756573740000000000000000000000008152506040805190810160405280601b81526020017f64656e746973742f7363616e2d72657175657374732d636f756e740000000000815250611090565b935083519250826040518059106109b15750595b9080825280602002602001820160405250945060009150600090505b82811015610af3578673ffffffffffffffffffffffffffffffffffffffff166317e7dd2260405180807f7363616e2d726571756573742f69732d61636365707465643f00000000000000815250601901905060405180910390206000604051602001526040518263ffffffff167c0100000000000000000000000000000000000000000000000000000000028152600401808260001916600019168152602001915050602060405180830381600087803b1515610a8957600080fd5b6102c65a03f11515610a9a57600080fd5b5050506040518051905015610ae6578381815181101515610ab757fe5b906020019060200201518583815181101515610acf57fe5b906020019060200201818152505081806001019250505b80806001019150506109cd565b610afd8286611253565b94505050505092915050565b6000610b136117ed565b85519150600086511115610b6f578551851115610b3f5781610b36600088611253565b91509150610b70565b85518486011115610b51578486510393505b610b6c868751878601811515610b6357fe5b068660016112e8565b90505b5b94509492505050565b610b816117ed565b610bf783836040805190810160405280601481526020017f70617469656e742f7363616e2d726571756573740000000000000000000000008152506040805190810160405280601b81526020017f70617469656e742f7363616e2d72657175657374732d636f756e740000000000815250611090565b905092915050565b610c076117ed565b610c0f6117ed565b6000806000610c89866040805190810160405280601481526020017f70617469656e742f7363616e2d726571756573740000000000000000000000008152506040805190810160405280601b81526020017f70617469656e742f7363616e2d72657175657374732d636f756e740000000000815250611433565b93508351925082604051805910610c9d5750595b9080825280602002602001820160405250945060009150600090505b82811015610ddf578573ffffffffffffffffffffffffffffffffffffffff166317e7dd2260405180807f7363616e2d726571756573742f69732d67656e6572616c3f0000000000000000815250601801905060405180910390206000604051602001526040518263ffffffff167c0100000000000000000000000000000000000000000000000000000000028152600401808260001916600019168152602001915050602060405180830381600087803b1515610d7557600080fd5b6102c65a03f11515610d8657600080fd5b5050506040518051905015610dd2578381815181101515610da357fe5b906020019060200201518583815181101515610dbb57fe5b906020019060200201818152505081806001019250505b8080600101915050610cb9565b610de98286611253565b945050505050919050565b610dfc6117ed565b610e7283836040805190810160405280601481526020017f64656e746973742f7363616e2d726571756573740000000000000000000000008152506040805190810160405280601b81526020017f64656e746973742f7363616e2d72657175657374732d636f756e740000000000815250611090565b905092915050565b610e826117ed565b610e8a6117ed565b6000806000610f0587876040805190810160405280601481526020017f70617469656e742f7363616e2d726571756573740000000000000000000000008152506040805190810160405280601b81526020017f70617469656e742f7363616e2d72657175657374732d636f756e740000000000815250611090565b93508351925082604051805910610f195750595b9080825280602002602001820160405250945060009150600090505b8281101561107a578673ffffffffffffffffffffffffffffffffffffffff166317e7dd228583815181101515610f6757fe5b9060200190602002015160405180807f7363616e2d726571756573742f69732d61636365707465643f0000000000000081525060190182815260200191505060405180910390206000604051602001526040518263ffffffff167c0100000000000000000000000000000000000000000000000000000000028152600401808260001916600019168152602001915050602060405180830381600087803b151561101057600080fd5b6102c65a03f1151561102157600080fd5b505050604051805190501561106d57838181518110151561103e57fe5b90602001906020020151858381518110151561105657fe5b906020019060200201818152505081806001019250505b8080600101915050610f35565b6110848286611253565b94505050505092915050565b6110986117ed565b6000806110a68787866116a3565b9150816040518059106110b65750595b90808252806020026020018201604052509250600090505b81811015611246578673ffffffffffffffffffffffffffffffffffffffff1663bdc963d88688846040518084805190602001908083835b60208310151561112a5780518252602082019150602081019050602083039250611105565b6001836020036101000a0380198251168184511680821785525050505050509050018373ffffffffffffffffffffffffffffffffffffffff1673ffffffffffffffffffffffffffffffffffffffff166c01000000000000000000000000028152601401828152602001935050505060405180910390206000604051602001526040518263ffffffff167c0100000000000000000000000000000000000000000000000000000000028152600401808260001916600019168152602001915050602060405180830381600087803b151561120257600080fd5b6102c65a03f1151561121357600080fd5b50505060405180519050838281518110151561122b57fe5b906020019060200201818152505080806001019150506110ce565b8292505050949350505050565b61125b6117ed565b6000825184111561126e578291506112e1565b8360405180591061127c5750595b90808252806020026020018201604052509150600090505b838110156112dd5782818151811015156112aa57fe5b9060200190602002015182828151811015156112c257fe5b90602001906020020181815250508080600101915050611294565b8191505b5092915050565b6112f06117ed565b6000806000806000935088519250828810158061130d5750600087145b1561131a57849450611427565b866040518059106113285750595b908082528060200260200182016040525094508791505b86880182101561139f57818314156113565761139f565b888281518110151561136457fe5b90602001906020020151858581518110151561137c57fe5b90602001906020020181815250508380600101945050818060010192505061133f565b8580156113ab57508684105b1561141a578387039050600091505b808211151561141957838714156113d057611419565b88828151811015156113de57fe5b9060200190602002015185858151811015156113f657fe5b9060200190602002018181525050838060010194505081806001019250506113ba565b5b6114248486611253565b94505b50505050949350505050565b61143b6117ed565b6000808573ffffffffffffffffffffffffffffffffffffffff1663bdc963d8856040518082805190602001908083835b602083101515611490578051825260208201915060208101905060208303925061146b565b6001836020036101000a03801982511681845116808217855250505050505090500191505060405180910390206000604051602001526040518263ffffffff167c0100000000000000000000000000000000000000000000000000000000028152600401808260001916600019168152602001915050602060405180830381600087803b151561151f57600080fd5b6102c65a03f1151561153057600080fd5b5050506040518051905091508160405180591061154a5750595b90808252806020026020018201604052509250600090505b81811015611697578573ffffffffffffffffffffffffffffffffffffffff1663bdc963d886836040518083805190602001908083835b6020831015156115bd5780518252602082019150602081019050602083039250611598565b6001836020036101000a0380198251168184511680821785525050505050509050018281526020019250505060405180910390206000604051602001526040518263ffffffff167c0100000000000000000000000000000000000000000000000000000000028152600401808260001916600019168152602001915050602060405180830381600087803b151561165357600080fd5b6102c65a03f1151561166457600080fd5b50505060405180519050838281518110151561167c57fe5b90602001906020020181815250508080600101915050611562565b82925050509392505050565b60008373ffffffffffffffffffffffffffffffffffffffff1663bdc963d883856040518083805190602001908083835b6020831015156116f857805182526020820191506020810190506020830392506116d3565b6001836020036101000a0380198251168184511680821785525050505050509050018273ffffffffffffffffffffffffffffffffffffffff1673ffffffffffffffffffffffffffffffffffffffff166c010000000000000000000000000281526014019250505060405180910390206000604051602001526040518263ffffffff167c0100000000000000000000000000000000000000000000000000000000028152600401808260001916600019168152602001915050602060405180830381600087803b15156117c957600080fd5b6102c65a03f115156117da57600080fd5b5050506040518051905090509392505050565b6020604051908101604052806000815250905600a165627a7a72305820513b23cde5e0c61326cfffa465f56343cc647012f9fbd82b3fa792fbfb1e3d420029",
  "source": "pragma solidity 0.4.18;\n\nimport \"./Restrictor.sol\";\nimport \"../lib/odll/userManager.sol\";\n\ncontract ScanRequestReader is Restrictor {\n\n  function ScanRequestReader (address _dbAddress) public {\n    require(_dbAddress != 0x0);\n    dbAddress = _dbAddress;\n  }\n\n  function fetchScanRequestsForPatient (\n    address patientId,\n    uint offset, // starting from offset: 0-based\n    uint limit, // not more than limit\n    uint seed // seed value to give the illusion of randomisation\n  )\n    external\n    view\n    returns (\n      uint,\n      uint[]\n    )\n  {\n    return userManager.fetchScanRequestsForPatient(dbAddress, patientId, offset, limit, seed);\n  }\n\n  function fetchAcceptedScanRequestsForPatient (\n    address patientId,\n    uint offset, // starting from offset: 0-based\n    uint limit, // not more than limit\n    uint seed // seed value to give the illusion of randomisation\n  )\n    external\n    view\n    returns (\n      uint,\n      uint[]\n    )\n  {\n    return userManager.fetchAcceptedScanRequestsForPatient(dbAddress, patientId, offset, limit, seed);\n  }\n\n  function fetchAllScanRequests (\n    uint offset, // starting from offset: 0-based\n    uint limit, // not more than limit\n    uint seed // seed value to give the illusion of randomisation\n  )\n    external\n    view\n    returns (\n      uint,\n      uint[]\n    )\n  {\n    return userManager.fetchAllScanRequests(dbAddress, offset, limit, seed);\n  }\n\n  function fetchDirectScanRequestsForDentist (\n    address dentistId,\n    uint offset, // starting from offset: 0-based\n    uint limit, // not more than limit\n    uint seed // seed value to give the illusion of randomisation\n  )\n    external\n    view\n    returns(\n      uint,\n      uint[]\n    )\n  {\n    return userManager.fetchDirectScanRequestsForDentist(dbAddress, dentistId, offset, limit, seed);\n  }\n\n  function fetchAcceptedScanRequestsForDentist (\n    address dentistId,\n    uint offset, // starting from offset: 0-based\n    uint limit, // not more than limit\n    uint seed // seed value to give the illusion of randomisation\n  )\n    external\n    view\n    returns (\n      uint,\n      uint[]\n    )\n  {\n    return userManager.fetchAcceptedScanRequestsForDentist(dbAddress, dentistId, offset, limit, seed);\n  }\n}\n",
  "sourcePath": "/Users/danielokwufulueze/dev/vue/apps/oraldatalink/contracts/odll/ScanRequestReader.sol",
  "compiler": {
    "name": "solc",
    "version": "0.4.18+commit.9cf6e910.Emscripten.clang"
  },
  "schemaVersion": "1.0.1",
  "updatedAt": "2017-11-19T11:49:27.142Z"
}