{
  "contractName": "ScanRequestReader",
  "abi": [
    {
      "constant": true,
      "inputs": [
        {
          "name": "dentistId",
          "type": "address"
        },
        {
          "name": "offset",
          "type": "uint256"
        },
        {
          "name": "limit",
          "type": "uint256"
        },
        {
          "name": "seed",
          "type": "uint256"
        }
      ],
      "name": "fetchAcceptedScanRequestsForDentist",
      "outputs": [
        {
          "name": "",
          "type": "uint256"
        },
        {
          "name": "",
          "type": "uint256[]"
        }
      ],
      "payable": false,
      "stateMutability": "view",
      "type": "function"
    },
    {
      "constant": true,
      "inputs": [
        {
          "name": "patientId",
          "type": "address"
        },
        {
          "name": "offset",
          "type": "uint256"
        },
        {
          "name": "limit",
          "type": "uint256"
        },
        {
          "name": "seed",
          "type": "uint256"
        }
      ],
      "name": "fetchScanRequestsForPatient",
      "outputs": [
        {
          "name": "",
          "type": "uint256"
        },
        {
          "name": "",
          "type": "uint256[]"
        }
      ],
      "payable": false,
      "stateMutability": "view",
      "type": "function"
    },
    {
      "constant": true,
      "inputs": [],
      "name": "smartContractStatus",
      "outputs": [
        {
          "name": "",
          "type": "uint8"
        }
      ],
      "payable": false,
      "stateMutability": "view",
      "type": "function"
    },
    {
      "constant": true,
      "inputs": [
        {
          "name": "offset",
          "type": "uint256"
        },
        {
          "name": "limit",
          "type": "uint256"
        },
        {
          "name": "seed",
          "type": "uint256"
        }
      ],
      "name": "owner",
      "outputs": [
        {
          "name": "",
          "type": "address"
        },
        {
          "name": "",
          "type": "uint256[]"
        }
      ],
      "payable": false,
      "stateMutability": "view",
      "type": "function"
    },
    {
      "constant": true,
      "inputs": [],
      "name": "dbAddress",
      "outputs": [
        {
          "name": "",
          "type": "address"
        }
      ],
      "payable": false,
      "stateMutability": "view",
      "type": "function"
    },
    {
      "constant": true,
      "inputs": [
        {
          "name": "dentistId",
          "type": "address"
        },
        {
          "name": "offset",
          "type": "uint256"
        },
        {
          "name": "limit",
          "type": "uint256"
        },
        {
          "name": "seed",
          "type": "uint256"
        }
      ],
      "name": "fetchDirectScanRequestsForDentist",
      "outputs": [
        {
          "name": "",
          "type": "uint256"
        },
        {
          "name": "",
          "type": "uint256[]"
        }
      ],
      "payable": false,
      "stateMutability": "view",
      "type": "function"
    },
    {
      "constant": true,
      "inputs": [
        {
          "name": "patientId",
          "type": "address"
        },
        {
          "name": "offset",
          "type": "uint256"
        },
        {
          "name": "limit",
          "type": "uint256"
        },
        {
          "name": "seed",
          "type": "uint256"
        }
      ],
      "name": "fetchAcceptedScanRequestsForPatient",
      "outputs": [
        {
          "name": "",
          "type": "uint256"
        },
        {
          "name": "",
          "type": "uint256[]"
        }
      ],
      "payable": false,
      "stateMutability": "view",
      "type": "function"
    },
    {
      "constant": false,
      "inputs": [
        {
          "name": "newOwner",
          "type": "address"
        },
        {
          "name": "offset",
          "type": "uint256"
        },
        {
          "name": "limit",
          "type": "uint256"
        },
        {
          "name": "seed",
          "type": "uint256"
        }
      ],
      "name": "transferOwnership",
      "outputs": [
        {
          "name": "",
          "type": "uint256"
        },
        {
          "name": "",
          "type": "uint256[]"
        }
      ],
      "payable": false,
      "stateMutability": "nonpayable",
      "type": "function"
    },
    {
      "constant": false,
      "inputs": [
        {
          "name": "_dbAddress",
          "type": "address"
        }
      ],
      "name": "transferOwnership",
      "outputs": [],
      "payable": false,
      "stateMutability": "nonpayable",
      "type": "constructor"
    },
    {
      "inputs": [
        {
          "name": "status",
          "type": "uint8",
          "indexed": false
        }
      ],
      "payable": false,
      "stateMutability": "nonpayable",
      "type": "event",
      "anonymous": false,
      "name": "OnSmartContractStatusSet"
    },
    {
      "anonymous": false,
      "inputs": [
        {
          "indexed": true,
          "name": "previousOwner",
          "type": "address"
        },
        {
          "indexed": true,
          "name": "newOwner",
          "type": "address"
        }
      ],
      "name": "OwnershipTransferred",
      "type": "event"
    },
    {
      "anonymous": false,
      "inputs": [
        {
          "indexed": true,
          "name": "previousOwner",
          "type": "address"
        },
        {
          "indexed": true,
          "name": "newOwner",
          "type": "address"
        }
      ],
      "name": "OwnershipTransferred",
      "type": "event"
    }
  ],
  "bytecode": "0x6060604052341561000f57600080fd5b6040516020806113b783398101604052808051906020019091905050336000806101000a81548173ffffffffffffffffffffffffffffffffffffffff021916908373ffffffffffffffffffffffffffffffffffffffff16021790555060008173ffffffffffffffffffffffffffffffffffffffff161415151561009157600080fd5b80600160006101000a81548173ffffffffffffffffffffffffffffffffffffffff021916908373ffffffffffffffffffffffffffffffffffffffff160217905550506112d5806100e26000396000f30060606040526004361061008e576000357c0100000000000000000000000000000000000000000000000000000000900463ffffffff16806312d7636f14610093578063355ad885146101435780634c8ddddc146101f35780638da5cb5b1461022257806391e06b6d1461027757806392b226f2146102cc578063c13b215b1461037c578063f2fde38b1461042c575b600080fd5b341561009e57600080fd5b6100e5600480803573ffffffffffffffffffffffffffffffffffffffff16906020019091908035906020019091908035906020019091908035906020019091905050610465565b6040518083815260200180602001828103825283818151815260200191508051906020019060200280838360005b8381101561012e578082015181840152602081019050610113565b50505050905001935050505060405180910390f35b341561014e57600080fd5b610195600480803573ffffffffffffffffffffffffffffffffffffffff169060200190919080359060200190919080359060200190919080359060200190919050506104ab565b6040518083815260200180602001828103825283818151815260200191508051906020019060200280838360005b838110156101de5780820151818401526020810190506101c3565b50505050905001935050505060405180910390f35b34156101fe57600080fd5b6102066104f1565b604051808260ff1660ff16815260200191505060405180910390f35b341561022d57600080fd5b610235610504565b604051808273ffffffffffffffffffffffffffffffffffffffff1673ffffffffffffffffffffffffffffffffffffffff16815260200191505060405180910390f35b341561028257600080fd5b61028a610529565b604051808273ffffffffffffffffffffffffffffffffffffffff1673ffffffffffffffffffffffffffffffffffffffff16815260200191505060405180910390f35b34156102d757600080fd5b61031e600480803573ffffffffffffffffffffffffffffffffffffffff1690602001909190803590602001909190803590602001909190803590602001909190505061054f565b6040518083815260200180602001828103825283818151815260200191508051906020019060200280838360005b8381101561036757808201518184015260208101905061034c565b50505050905001935050505060405180910390f35b341561038757600080fd5b6103ce600480803573ffffffffffffffffffffffffffffffffffffffff16906020019091908035906020019091908035906020019091908035906020019091905050610595565b6040518083815260200180602001828103825283818151815260200191508051906020019060200280838360005b838110156104175780820151818401526020810190506103fc565b50505050905001935050505060405180910390f35b341561043757600080fd5b610463600480803573ffffffffffffffffffffffffffffffffffffffff169060200190919050506105db565b005b600061046f611295565b61049e600160009054906101000a900473ffffffffffffffffffffffffffffffffffffffff1687878787610730565b9150915094509492505050565b60006104b5611295565b6104e4600160009054906101000a900473ffffffffffffffffffffffffffffffffffffffff1687878787610764565b9150915094509492505050565b600160149054906101000a900460ff1681565b6000809054906101000a900473ffffffffffffffffffffffffffffffffffffffff1681565b600160009054906101000a900473ffffffffffffffffffffffffffffffffffffffff1681565b6000610559611295565b610588600160009054906101000a900473ffffffffffffffffffffffffffffffffffffffff1687878787610798565b9150915094509492505050565b600061059f611295565b6105ce600160009054906101000a900473ffffffffffffffffffffffffffffffffffffffff16878787876107cc565b9150915094509492505050565b6000809054906101000a900473ffffffffffffffffffffffffffffffffffffffff1673ffffffffffffffffffffffffffffffffffffffff163373ffffffffffffffffffffffffffffffffffffffff1614151561063657600080fd5b600073ffffffffffffffffffffffffffffffffffffffff168173ffffffffffffffffffffffffffffffffffffffff161415151561067257600080fd5b8073ffffffffffffffffffffffffffffffffffffffff166000809054906101000a900473ffffffffffffffffffffffffffffffffffffffff1673ffffffffffffffffffffffffffffffffffffffff167f8be0079c531659141344cd1fd0a4f28419497f9722a3daafe3b4186f6b6457e060405160405180910390a3806000806101000a81548173ffffffffffffffffffffffffffffffffffffffff021916908373ffffffffffffffffffffffffffffffffffffffff16021790555050565b600061073a611295565b6107448787610800565b905061075281868686610a16565b80925081935050509550959350505050565b600061076e611295565b6107788787610a86565b905061078681868686610a16565b80925081935050509550959350505050565b60006107a2611295565b6107ac8787610b0c565b90506107ba81868686610a16565b80925081935050509550959350505050565b60006107d6611295565b6107e08787610b92565b90506107ee81868686610a16565b80925081935050509550959350505050565b610808611295565b610810611295565b600080600061088b87876040805190810160405280601481526020017f64656e746973742f7363616e2d726571756573740000000000000000000000008152506040805190810160405280601b81526020017f64656e746973742f7363616e2d72657175657374732d636f756e740000000000815250610da8565b9350835192508260405180591061089f5750595b9080825280602002602001820160405250945060009150600090505b82811015610a00578673ffffffffffffffffffffffffffffffffffffffff166317e7dd2285838151811015156108ed57fe5b9060200190602002015160405180807f7363616e2d726571756573742f69732d61636365707465643f0000000000000081525060190182815260200191505060405180910390206000604051602001526040518263ffffffff167c0100000000000000000000000000000000000000000000000000000000028152600401808260001916600019168152602001915050602060405180830381600087803b151561099657600080fd5b6102c65a03f115156109a757600080fd5b50505060405180519050156109f35783818151811015156109c457fe5b9060200190602002015185838151811015156109dc57fe5b906020019060200201818152505081806001019250505b80806001019150506108bb565b610a0a8286610f6b565b94505050505092915050565b6000610a20611295565b85519150600086511115610a7c578551851115610a4c5781610a43600088610f6b565b91509150610a7d565b85518486011115610a5e578486510393505b610a79868751878601811515610a7057fe5b06866001611000565b90505b5b94509492505050565b610a8e611295565b610b0483836040805190810160405280601481526020017f70617469656e742f7363616e2d726571756573740000000000000000000000008152506040805190810160405280601b81526020017f70617469656e742f7363616e2d72657175657374732d636f756e740000000000815250610da8565b905092915050565b610b14611295565b610b8a83836040805190810160405280601481526020017f64656e746973742f7363616e2d726571756573740000000000000000000000008152506040805190810160405280601b81526020017f64656e746973742f7363616e2d72657175657374732d636f756e740000000000815250610da8565b905092915050565b610b9a611295565b610ba2611295565b6000806000610c1d87876040805190810160405280601481526020017f70617469656e742f7363616e2d726571756573740000000000000000000000008152506040805190810160405280601b81526020017f70617469656e742f7363616e2d72657175657374732d636f756e740000000000815250610da8565b93508351925082604051805910610c315750595b9080825280602002602001820160405250945060009150600090505b82811015610d92578673ffffffffffffffffffffffffffffffffffffffff166317e7dd228583815181101515610c7f57fe5b9060200190602002015160405180807f7363616e2d726571756573742f69732d61636365707465643f0000000000000081525060190182815260200191505060405180910390206000604051602001526040518263ffffffff167c0100000000000000000000000000000000000000000000000000000000028152600401808260001916600019168152602001915050602060405180830381600087803b1515610d2857600080fd5b6102c65a03f11515610d3957600080fd5b5050506040518051905015610d85578381815181101515610d5657fe5b906020019060200201518583815181101515610d6e57fe5b906020019060200201818152505081806001019250505b8080600101915050610c4d565b610d9c8286610f6b565b94505050505092915050565b610db0611295565b600080610dbe87878661114b565b915081604051805910610dce5750595b90808252806020026020018201604052509250600090505b81811015610f5e578673ffffffffffffffffffffffffffffffffffffffff1663bdc963d88688846040518084805190602001908083835b602083101515610e425780518252602082019150602081019050602083039250610e1d565b6001836020036101000a0380198251168184511680821785525050505050509050018373ffffffffffffffffffffffffffffffffffffffff1673ffffffffffffffffffffffffffffffffffffffff166c01000000000000000000000000028152601401828152602001935050505060405180910390206000604051602001526040518263ffffffff167c0100000000000000000000000000000000000000000000000000000000028152600401808260001916600019168152602001915050602060405180830381600087803b1515610f1a57600080fd5b6102c65a03f11515610f2b57600080fd5b505050604051805190508382815181101515610f4357fe5b90602001906020020181815250508080600101915050610de6565b8292505050949350505050565b610f73611295565b60008251841115610f8657829150610ff9565b83604051805910610f945750595b90808252806020026020018201604052509150600090505b83811015610ff5578281815181101515610fc257fe5b906020019060200201518282815181101515610fda57fe5b90602001906020020181815250508080600101915050610fac565b8191505b5092915050565b611008611295565b600080600080600093508851925082881015806110255750600087145b156110325784945061113f565b866040518059106110405750595b908082528060200260200182016040525094508791505b8688018210156110b7578183141561106e576110b7565b888281518110151561107c57fe5b90602001906020020151858581518110151561109457fe5b906020019060200201818152505083806001019450508180600101925050611057565b8580156110c357508684105b15611132578387039050600091505b808211151561113157838714156110e857611131565b88828151811015156110f657fe5b90602001906020020151858581518110151561110e57fe5b9060200190602002018181525050838060010194505081806001019250506110d2565b5b61113c8486610f6b565b94505b50505050949350505050565b60008373ffffffffffffffffffffffffffffffffffffffff1663bdc963d883856040518083805190602001908083835b6020831015156111a0578051825260208201915060208101905060208303925061117b565b6001836020036101000a0380198251168184511680821785525050505050509050018273ffffffffffffffffffffffffffffffffffffffff1673ffffffffffffffffffffffffffffffffffffffff166c010000000000000000000000000281526014019250505060405180910390206000604051602001526040518263ffffffff167c0100000000000000000000000000000000000000000000000000000000028152600401808260001916600019168152602001915050602060405180830381600087803b151561127157600080fd5b6102c65a03f1151561128257600080fd5b5050506040518051905090509392505050565b6020604051908101604052806000815250905600a165627a7a72305820ef41ccba274ca49a222224938429978e959ce4acbe7008304624774a4d1b700e0029",
  "source": "pragma solidity 0.4.18;\n\nimport \"./Restrictor.sol\";\nimport \"../lib/odll/userManager.sol\";\n\ncontract ScanRequestReader is Restrictor {\n\n  function ScanRequestReader (address _dbAddress) public {\n    require(_dbAddress != 0x0);\n    dbAddress = _dbAddress;\n  }\n\n  function fetchScanRequestsForPatient (\n    address patientId,\n    uint offset, // starting from offset: 0-based\n    uint limit, // not more than limit\n    uint seed // seed value to give the illusion of randomisation\n  )\n    external\n    view\n    returns (\n      uint,\n      uint[]\n    )\n  {\n    return userManager.fetchScanRequestsForPatient(dbAddress, patientId, offset, limit, seed);\n  }\n\n  function fetchAcceptedScanRequestsForPatient (\n    address patientId,\n    uint offset, // starting from offset: 0-based\n    uint limit, // not more than limit\n    uint seed // seed value to give the illusion of randomisation\n  )\n    external\n    view\n    returns (\n      uint,\n      uint[]\n    )\n  {\n    return userManager.fetchAcceptedScanRequestsForPatient(dbAddress, patientId, offset, limit, seed);\n  }\n\n  function fetchDirectScanRequestsForDentist (\n    address dentistId,\n    uint offset, // starting from offset: 0-based\n    uint limit, // not more than limit\n    uint seed // seed value to give the illusion of randomisation\n  )\n    external\n    view\n    returns(\n      uint,\n      uint[]\n    )\n  {\n    return userManager.fetchDirectScanRequestsForDentist(dbAddress, dentistId, offset, limit, seed);\n  }\n\n  function fetchAcceptedScanRequestsForDentist (\n    address dentistId,\n    uint offset, // starting from offset: 0-based\n    uint limit, // not more than limit\n    uint seed // seed value to give the illusion of randomisation\n  )\n    external\n    view\n    returns (\n      uint,\n      uint[]\n    )\n  {\n    return userManager.fetchAcceptedScanRequestsForDentist(dbAddress, dentistId, offset, limit, seed);\n  }\n}\n",
  "sourcePath": "/Users/danielokwufulueze/dev/vue/apps/oraldatalink/contracts/odll/ScanRequestReader.sol",
  "compiler": {
    "name": "solc",
    "version": "0.4.18+commit.9cf6e910.Emscripten.clang"
  },
  "schemaVersion": "1.0.1",
  "updatedAt": "2017-12-01T20:44:54.375Z"
}