{
  "contractName": "ScanApplicationWriter",
  "abi": [
    {
      "constant": false,
      "inputs": [
        {
          "name": "patientId",
          "type": "address"
        },
        {
          "name": "scanAppointmentId",
          "type": "uint256"
        },
        {
          "name": "patientScanAppointmentIndexNumber",
          "type": "uint256"
        }
      ],
      "name": "cancelScanApplication",
      "outputs": [],
      "payable": false,
      "stateMutability": "nonpayable",
      "type": "function"
    },
    {
      "constant": false,
      "inputs": [
        {
          "name": "patientId",
          "type": "address"
        },
        {
          "name": "scanAppointmentId",
          "type": "uint256"
        },
        {
          "name": "patientScanAppointmentIndexNumber",
          "type": "uint256"
        },
        {
          "name": "quote",
          "type": "uint256"
        },
        {
          "name": "comment",
          "type": "bytes32"
        }
      ],
      "name": "applyToScan",
      "outputs": [],
      "payable": false,
      "stateMutability": "nonpayable",
      "type": "function"
    },
    {
      "constant": true,
      "inputs": [],
      "name": "smartContractStatus",
      "outputs": [
        {
          "name": "",
          "type": "uint8"
        }
      ],
      "payable": false,
      "stateMutability": "view",
      "type": "function"
    },
    {
      "constant": false,
      "inputs": [
        {
          "name": "dentistId",
          "type": "address"
        },
        {
          "name": "scanAppointmentId",
          "type": "uint256"
        },
        {
          "name": "patientScanAppointmentIndexNumber",
          "type": "uint256"
        },
        {
          "name": "quote",
          "type": "uint256"
        }
      ],
      "name": "acceptScanApplication",
      "outputs": [],
      "payable": true,
      "stateMutability": "payable",
      "type": "function"
    },
    {
      "constant": true,
      "inputs": [],
      "name": "owner",
      "outputs": [
        {
          "name": "",
          "type": "address"
        }
      ],
      "payable": false,
      "stateMutability": "view",
      "type": "function"
    },
    {
      "constant": true,
      "inputs": [],
      "name": "dbAddress",
      "outputs": [
        {
          "name": "",
          "type": "address"
        }
      ],
      "payable": false,
      "stateMutability": "view",
      "type": "function"
    },
    {
      "constant": false,
      "inputs": [
        {
          "name": "newOwner",
          "type": "address"
        }
      ],
      "name": "transferOwnership",
      "outputs": [],
      "payable": false,
      "stateMutability": "nonpayable",
      "type": "function"
    },
    {
      "inputs": [
        {
          "name": "_dbAddress",
          "type": "address"
        }
      ],
      "payable": false,
      "stateMutability": "nonpayable",
      "type": "constructor"
    },
    {
      "anonymous": false,
      "inputs": [
        {
          "indexed": false,
          "name": "status",
          "type": "uint8"
        }
      ],
      "name": "OnSmartContractStatusSet",
      "type": "event"
    },
    {
      "anonymous": false,
      "inputs": [
        {
          "indexed": true,
          "name": "previousOwner",
          "type": "address"
        },
        {
          "indexed": true,
          "name": "newOwner",
          "type": "address"
        }
      ],
      "name": "OwnershipTransferred",
      "type": "event"
    }
  ],
  "bytecode": "0x606060405234156200001057600080fd5b6040516020806200600183398101604052808051906020019091905050336000806101000a81548173ffffffffffffffffffffffffffffffffffffffff021916908373ffffffffffffffffffffffffffffffffffffffff16021790555060008173ffffffffffffffffffffffffffffffffffffffff16141515156200009457600080fd5b80600160006101000a81548173ffffffffffffffffffffffffffffffffffffffff021916908373ffffffffffffffffffffffffffffffffffffffff16021790555050615f1b80620000e66000396000f300606060405260043610610083576000357c0100000000000000000000000000000000000000000000000000000000900463ffffffff16806308ee23cf1461008857806310c0be01146100d35780634c8ddddc14610134578063884f971f146101635780638da5cb5b146101ac57806391e06b6d14610201578063f2fde38b14610256575b600080fd5b341561009357600080fd5b6100d1600480803573ffffffffffffffffffffffffffffffffffffffff1690602001909190803590602001909190803590602001909190505061028f565b005b34156100de57600080fd5b610132600480803573ffffffffffffffffffffffffffffffffffffffff16906020019091908035906020019091908035906020019091908035906020019091908035600019169060200190919050506102c3565b005b341561013f57600080fd5b61014761031c565b604051808260ff1660ff16815260200191505060405180910390f35b6101aa600480803573ffffffffffffffffffffffffffffffffffffffff1690602001909190803590602001909190803590602001909190803590602001909190505061032f565b005b34156101b757600080fd5b6101bf6103d4565b604051808273ffffffffffffffffffffffffffffffffffffffff1673ffffffffffffffffffffffffffffffffffffffff16815260200191505060405180910390f35b341561020c57600080fd5b6102146103f9565b604051808273ffffffffffffffffffffffffffffffffffffffff1673ffffffffffffffffffffffffffffffffffffffff16815260200191505060405180910390f35b341561026157600080fd5b61028d600480803573ffffffffffffffffffffffffffffffffffffffff1690602001909190505061041f565b005b6102be600160009054906101000a900473ffffffffffffffffffffffffffffffffffffffff1633858585610574565b505050565b6000600160149054906101000a900460ff1660ff161415156102e457600080fd5b610315600160009054906101000a900473ffffffffffffffffffffffffffffffffffffffff16338787878787610588565b5050505050565b600160149054906101000a900460ff1681565b6000600160149054906101000a900460ff1660ff1614151561035057600080fd5b8034101561039d573373ffffffffffffffffffffffffffffffffffffffff166108fc349081150290604051600060405180830381858888f19350505050151561039857600080fd5b6103ce565b6103cd600160009054906101000a900473ffffffffffffffffffffffffffffffffffffffff1685338686346105a0565b5b50505050565b6000809054906101000a900473ffffffffffffffffffffffffffffffffffffffff1681565b600160009054906101000a900473ffffffffffffffffffffffffffffffffffffffff1681565b6000809054906101000a900473ffffffffffffffffffffffffffffffffffffffff1673ffffffffffffffffffffffffffffffffffffffff163373ffffffffffffffffffffffffffffffffffffffff1614151561047a57600080fd5b600073ffffffffffffffffffffffffffffffffffffffff168173ffffffffffffffffffffffffffffffffffffffff16141515156104b657600080fd5b8073ffffffffffffffffffffffffffffffffffffffff166000809054906101000a900473ffffffffffffffffffffffffffffffffffffffff1673ffffffffffffffffffffffffffffffffffffffff167f8be0079c531659141344cd1fd0a4f28419497f9722a3daafe3b4186f6b6457e060405160405180910390a3806000806101000a81548173ffffffffffffffffffffffffffffffffffffffff021916908373ffffffffffffffffffffffffffffffffffffffff16021790555050565b6105818585858585610846565b5050505050565b61059787878787878787611441565b50505050505050565b6000806000808973ffffffffffffffffffffffffffffffffffffffff16634c77e5ba60405180807f6f646c6c2f7061796d656e742d61646472657373000000000000000000000000815250601401905060405180910390206000604051602001526040518263ffffffff167c0100000000000000000000000000000000000000000000000000000000028152600401808260001916600019168152602001915050602060405180830381600087803b151561065a57600080fd5b6102c65a03f1151561066b57600080fd5b5050506040518051905093508973ffffffffffffffffffffffffffffffffffffffff1663bdc963d860405180807f6f646c6c2f7363616e2d7061796d656e742d70657263656e7461676500000000815250601c01905060405180910390206000604051602001526040518263ffffffff167c0100000000000000000000000000000000000000000000000000000000028152600401808260001916600019168152602001915050602060405180830381600087803b151561072b57600080fd5b6102c65a03f1151561073c57600080fd5b50505060405180519050925061075c610756846064611459565b8661149a565b915061076885836114cd565b90506107758a89876114e6565b6107808a89876116bc565b61078b8a8a83611892565b6107968a8a83611a68565b6107a18a8584611c3e565b6107ac8a8584611e14565b6107ba8a8a8a8a8a8a611fea565b8373ffffffffffffffffffffffffffffffffffffffff166108fc839081150290604051600060405180830381858888f1935050505015156107fa57600080fd5b8873ffffffffffffffffffffffffffffffffffffffff166108fc829081150290604051600060405180830381858888f19350505050151561083a57600080fd5b50505050505050505050565b60018573ffffffffffffffffffffffffffffffffffffffff16637a0e03ec8686868660405180807f64656e746973742f70617469656e742f7363616e2d6170706f696e746d656e7481526020017f2f696e6465782f73746174757300000000000000000000000000000000000000815250602d018573ffffffffffffffffffffffffffffffffffffffff1673ffffffffffffffffffffffffffffffffffffffff166c010000000000000000000000000281526014018473ffffffffffffffffffffffffffffffffffffffff1673ffffffffffffffffffffffffffffffffffffffff166c0100000000000000000000000002815260140183815260200182815260200194505050505060405180910390206000604051602001526040518263ffffffff167c0100000000000000000000000000000000000000000000000000000000028152600401808260001916600019168152602001915050602060405180830381600087803b15156109b857600080fd5b6102c65a03f115156109c957600080fd5b5050506040518051905060ff16148015610b70575060008573ffffffffffffffffffffffffffffffffffffffff16637a0e03ec8686868660405180807f70617469656e742f7363616e2d6170706f696e746d656e742f696e6465782f7381526020017f74617475730000000000000000000000000000000000000000000000000000008152506025018573ffffffffffffffffffffffffffffffffffffffff1673ffffffffffffffffffffffffffffffffffffffff166c010000000000000000000000000281526014018473ffffffffffffffffffffffffffffffffffffffff1673ffffffffffffffffffffffffffffffffffffffff166c0100000000000000000000000002815260140183815260200182815260200194505050505060405180910390206000604051602001526040518263ffffffff167c0100000000000000000000000000000000000000000000000000000000028152600401808260001916600019168152602001915050602060405180830381600087803b1515610b5057600080fd5b6102c65a03f11515610b6157600080fd5b5050506040518051905060ff16145b8015610d0357508473ffffffffffffffffffffffffffffffffffffffff166317e7dd2285858585604051808573ffffffffffffffffffffffffffffffffffffffff1673ffffffffffffffffffffffffffffffffffffffff166c010000000000000000000000000281526014018473ffffffffffffffffffffffffffffffffffffffff1673ffffffffffffffffffffffffffffffffffffffff166c01000000000000000000000000028152601401838152602001828152602001807f64656e746973742f70617469656e742f7363616e2d6170706f696e746d656e7481526020017f2f696e6465782f69732d6578697374733f00000000000000000000000000000081525060310194505050505060405180910390206000604051602001526040518263ffffffff167c0100000000000000000000000000000000000000000000000000000000028152600401808260001916600019168152602001915050602060405180830381600087803b1515610ce757600080fd5b6102c65a03f11515610cf857600080fd5b505050604051805190505b8015610e5357508473ffffffffffffffffffffffffffffffffffffffff166317e7dd2284848460405180807f70617469656e742f7363616e2d6170706f696e746d656e742f696e6465782f6981526020017f732d6163746976653f00000000000000000000000000000000000000000000008152506029018473ffffffffffffffffffffffffffffffffffffffff1673ffffffffffffffffffffffffffffffffffffffff166c01000000000000000000000000028152601401838152602001828152602001935050505060405180910390206000604051602001526040518263ffffffff167c0100000000000000000000000000000000000000000000000000000000028152600401808260001916600019168152602001915050602060405180830381600087803b1515610e3757600080fd5b6102c65a03f11515610e4857600080fd5b505050604051805190505b1515610e5e57600080fd5b8473ffffffffffffffffffffffffffffffffffffffff16633eba9ed284848460405180807f70617469656e742f7363616e2d6170706f696e746d656e742f696e6465782f6981526020017f732d6163746976653f00000000000000000000000000000000000000000000008152506029018473ffffffffffffffffffffffffffffffffffffffff1673ffffffffffffffffffffffffffffffffffffffff166c010000000000000000000000000281526014018381526020018281526020019350505050604051809103902060006040518363ffffffff167c01000000000000000000000000000000000000000000000000000000000281526004018083600019166000191681526020018215151515815260200192505050600060405180830381600087803b1515610f8f57600080fd5b6102c65a03f11515610fa057600080fd5b5050508473ffffffffffffffffffffffffffffffffffffffff16630bd851588585858560405180807f64656e746973742f70617469656e742f7363616e2d6170706f696e746d656e7481526020017f2f696e6465782f73746174757300000000000000000000000000000000000000815250602d018573ffffffffffffffffffffffffffffffffffffffff1673ffffffffffffffffffffffffffffffffffffffff166c010000000000000000000000000281526014018473ffffffffffffffffffffffffffffffffffffffff1673ffffffffffffffffffffffffffffffffffffffff166c01000000000000000000000000028152601401838152602001828152602001945050505050604051809103902060026040518363ffffffff167c01000000000000000000000000000000000000000000000000000000000281526004018083600019166000191681526020018260ff16815260200192505050600060405180830381600087803b151561111657600080fd5b6102c65a03f1151561112757600080fd5b5050508473ffffffffffffffffffffffffffffffffffffffff16633eba9ed28585858560405180807f64656e746973742f70617469656e742f7363616e2d6170706f696e746d656e7481526020017f2f696e6465782f69732d6578697374733f0000000000000000000000000000008152506031018573ffffffffffffffffffffffffffffffffffffffff1673ffffffffffffffffffffffffffffffffffffffff166c010000000000000000000000000281526014018473ffffffffffffffffffffffffffffffffffffffff1673ffffffffffffffffffffffffffffffffffffffff166c01000000000000000000000000028152601401838152602001828152602001945050505050604051809103902060006040518363ffffffff167c01000000000000000000000000000000000000000000000000000000000281526004018083600019166000191681526020018215151515815260200192505050600060405180830381600087803b151561129e57600080fd5b6102c65a03f115156112af57600080fd5b5050508473ffffffffffffffffffffffffffffffffffffffff16633eba9ed28585858560405180807f64656e746973742f70617469656e742f7363616e2d6170706f696e746d656e7481526020017f2f696e6465782f69732d63616e63656c65643f000000000000000000000000008152506033018573ffffffffffffffffffffffffffffffffffffffff1673ffffffffffffffffffffffffffffffffffffffff166c010000000000000000000000000281526014018473ffffffffffffffffffffffffffffffffffffffff1673ffffffffffffffffffffffffffffffffffffffff166c01000000000000000000000000028152601401838152602001828152602001945050505050604051809103902060016040518363ffffffff167c01000000000000000000000000000000000000000000000000000000000281526004018083600019166000191681526020018215151515815260200192505050600060405180830381600087803b151561142657600080fd5b6102c65a03f1151561143757600080fd5b5050505050505050565b61145087878787878787612933565b50505050505050565b60008060008311151561146857fe5b828481151561147357fe5b049050828481151561148157fe5b06818402018414151561149057fe5b8091505092915050565b600080828402905060008414806114bb57508284828115156114b857fe5b04145b15156114c357fe5b8091505092915050565b60008282111515156114db57fe5b818303905092915050565b8273ffffffffffffffffffffffffffffffffffffffff1663c8d1c0178360405180807f70617469656e742f7363616e2d746f74616c2d706169640000000000000000008152506017018273ffffffffffffffffffffffffffffffffffffffff1673ffffffffffffffffffffffffffffffffffffffff166c010000000000000000000000000281526014019150506040518091039020836040518363ffffffff167c010000000000000000000000000000000000000000000000000000000002815260040180836000191660001916815260200182815260200192505050600060405180830381600087803b15156115dc57600080fd5b6102c65a03f115156115ed57600080fd5b5050508273ffffffffffffffffffffffffffffffffffffffff1663c8d1c01760405180807f70617469656e74732f7363616e2d746f74616c2d70616964000000000000000081525060180190506040518091039020836040518363ffffffff167c010000000000000000000000000000000000000000000000000000000002815260040180836000191660001916815260200182815260200192505050600060405180830381600087803b15156116a357600080fd5b6102c65a03f115156116b457600080fd5b505050505050565b8273ffffffffffffffffffffffffffffffffffffffff1663c8d1c0178360405180807f70617469656e742f746f74616c2d7061696400000000000000000000000000008152506012018273ffffffffffffffffffffffffffffffffffffffff1673ffffffffffffffffffffffffffffffffffffffff166c010000000000000000000000000281526014019150506040518091039020836040518363ffffffff167c010000000000000000000000000000000000000000000000000000000002815260040180836000191660001916815260200182815260200192505050600060405180830381600087803b15156117b257600080fd5b6102c65a03f115156117c357600080fd5b5050508273ffffffffffffffffffffffffffffffffffffffff1663c8d1c01760405180807f70617469656e74732f746f74616c2d706169640000000000000000000000000081525060130190506040518091039020836040518363ffffffff167c010000000000000000000000000000000000000000000000000000000002815260040180836000191660001916815260200182815260200192505050600060405180830381600087803b151561187957600080fd5b6102c65a03f1151561188a57600080fd5b505050505050565b8273ffffffffffffffffffffffffffffffffffffffff1663c8d1c0178360405180807f64656e746973742f7363616e2d746f74616c2d6561726e6564000000000000008152506019018273ffffffffffffffffffffffffffffffffffffffff1673ffffffffffffffffffffffffffffffffffffffff166c010000000000000000000000000281526014019150506040518091039020836040518363ffffffff167c010000000000000000000000000000000000000000000000000000000002815260040180836000191660001916815260200182815260200192505050600060405180830381600087803b151561198857600080fd5b6102c65a03f1151561199957600080fd5b5050508273ffffffffffffffffffffffffffffffffffffffff1663c8d1c01760405180807f64656e74697374732f7363616e2d746f74616c2d6561726e6564000000000000815250601a0190506040518091039020836040518363ffffffff167c010000000000000000000000000000000000000000000000000000000002815260040180836000191660001916815260200182815260200192505050600060405180830381600087803b1515611a4f57600080fd5b6102c65a03f11515611a6057600080fd5b505050505050565b8273ffffffffffffffffffffffffffffffffffffffff1663c8d1c0178360405180807f64656e746973742f746f74616c2d6561726e65640000000000000000000000008152506014018273ffffffffffffffffffffffffffffffffffffffff1673ffffffffffffffffffffffffffffffffffffffff166c010000000000000000000000000281526014019150506040518091039020836040518363ffffffff167c010000000000000000000000000000000000000000000000000000000002815260040180836000191660001916815260200182815260200192505050600060405180830381600087803b1515611b5e57600080fd5b6102c65a03f11515611b6f57600080fd5b5050508273ffffffffffffffffffffffffffffffffffffffff1663c8d1c01760405180807f64656e74697374732f746f74616c2d6561726e6564000000000000000000000081525060150190506040518091039020836040518363ffffffff167c010000000000000000000000000000000000000000000000000000000002815260040180836000191660001916815260200182815260200192505050600060405180830381600087803b1515611c2557600080fd5b6102c65a03f11515611c3657600080fd5b505050505050565b8273ffffffffffffffffffffffffffffffffffffffff1663c8d1c0178360405180807f6f646c6c2f7363616e2d746f74616c2d6561726e6564000000000000000000008152506016018273ffffffffffffffffffffffffffffffffffffffff1673ffffffffffffffffffffffffffffffffffffffff166c010000000000000000000000000281526014019150506040518091039020836040518363ffffffff167c010000000000000000000000000000000000000000000000000000000002815260040180836000191660001916815260200182815260200192505050600060405180830381600087803b1515611d3457600080fd5b6102c65a03f11515611d4557600080fd5b5050508273ffffffffffffffffffffffffffffffffffffffff1663c8d1c01760405180807f6f646c6c2f7363616e2d746f74616c2d6561726e65640000000000000000000081525060160190506040518091039020836040518363ffffffff167c010000000000000000000000000000000000000000000000000000000002815260040180836000191660001916815260200182815260200192505050600060405180830381600087803b1515611dfb57600080fd5b6102c65a03f11515611e0c57600080fd5b505050505050565b8273ffffffffffffffffffffffffffffffffffffffff1663c8d1c0178360405180807f6f646c6c2f746f74616c2d6561726e65640000000000000000000000000000008152506011018273ffffffffffffffffffffffffffffffffffffffff1673ffffffffffffffffffffffffffffffffffffffff166c010000000000000000000000000281526014019150506040518091039020836040518363ffffffff167c010000000000000000000000000000000000000000000000000000000002815260040180836000191660001916815260200182815260200192505050600060405180830381600087803b1515611f0a57600080fd5b6102c65a03f11515611f1b57600080fd5b5050508273ffffffffffffffffffffffffffffffffffffffff1663c8d1c01760405180807f6f646c6c2f746f74616c2d6561726e656400000000000000000000000000000081525060110190506040518091039020836040518363ffffffff167c010000000000000000000000000000000000000000000000000000000002815260040180836000191660001916815260200182815260200192505050600060405180830381600087803b1515611fd157600080fd5b6102c65a03f11515611fe257600080fd5b505050505050565b60008673ffffffffffffffffffffffffffffffffffffffff16637a0e03ec86868660405180807f70617469656e742f7363616e2d6170706f696e746d656e742f696e6465782f7381526020017f74617475730000000000000000000000000000000000000000000000000000008152506025018473ffffffffffffffffffffffffffffffffffffffff1673ffffffffffffffffffffffffffffffffffffffff166c01000000000000000000000000028152601401838152602001828152602001935050505060405180910390206000604051602001526040518263ffffffff167c0100000000000000000000000000000000000000000000000000000000028152600401808260001916600019168152602001915050602060405180830381600087803b151561211957600080fd5b6102c65a03f1151561212a57600080fd5b5050506040518051905060ff161480156122d1575060018673ffffffffffffffffffffffffffffffffffffffff16637a0e03ec8787878760405180807f64656e746973742f70617469656e742f7363616e2d6170706f696e746d656e7481526020017f2f696e6465782f73746174757300000000000000000000000000000000000000815250602d018573ffffffffffffffffffffffffffffffffffffffff1673ffffffffffffffffffffffffffffffffffffffff166c010000000000000000000000000281526014018473ffffffffffffffffffffffffffffffffffffffff1673ffffffffffffffffffffffffffffffffffffffff166c0100000000000000000000000002815260140183815260200182815260200194505050505060405180910390206000604051602001526040518263ffffffff167c0100000000000000000000000000000000000000000000000000000000028152600401808260001916600019168152602001915050602060405180830381600087803b15156122b157600080fd5b6102c65a03f115156122c257600080fd5b5050506040518051905060ff16145b80156123c2575060008673ffffffffffffffffffffffffffffffffffffffff16634c77e5ba60405180807f6f646c6c2f7061796d656e742d61646472657373000000000000000000000000815250601401905060405180910390206000604051602001526040518263ffffffff167c0100000000000000000000000000000000000000000000000000000000028152600401808260001916600019168152602001915050602060405180830381600087803b151561238e57600080fd5b6102c65a03f1151561239f57600080fd5b5050506040518051905073ffffffffffffffffffffffffffffffffffffffff1614155b15156123cd57600080fd5b8573ffffffffffffffffffffffffffffffffffffffff16633562fd2085858560405180807f70617469656e742f7363616e2d6170706f696e746d656e742f696e6465782f6181526020017f6d6f756e740000000000000000000000000000000000000000000000000000008152506025018473ffffffffffffffffffffffffffffffffffffffff1673ffffffffffffffffffffffffffffffffffffffff166c0100000000000000000000000002815260140183815260200182815260200193505050506040518091039020836040518363ffffffff167c010000000000000000000000000000000000000000000000000000000002815260040180836000191660001916815260200182815260200192505050600060405180830381600087803b15156124f957600080fd5b6102c65a03f1151561250a57600080fd5b50505061251a8686868686612dca565b8573ffffffffffffffffffffffffffffffffffffffff16630bd851588686868660405180807f70617469656e742f7363616e2d6170706f696e746d656e742f696e6465782f7381526020017f74617475730000000000000000000000000000000000000000000000000000008152506025018573ffffffffffffffffffffffffffffffffffffffff1673ffffffffffffffffffffffffffffffffffffffff166c010000000000000000000000000281526014018473ffffffffffffffffffffffffffffffffffffffff1673ffffffffffffffffffffffffffffffffffffffff166c01000000000000000000000000028152601401838152602001828152602001945050505050604051809103902060016040518363ffffffff167c01000000000000000000000000000000000000000000000000000000000281526004018083600019166000191681526020018260ff16815260200192505050600060405180830381600087803b151561268d57600080fd5b6102c65a03f1151561269e57600080fd5b5050508573ffffffffffffffffffffffffffffffffffffffff16633eba9ed285858560405180807f70617469656e742f7363616e2d6170706f696e746d656e742f696e6465782f6981526020017f732d706169642d666f723f000000000000000000000000000000000000000000815250602b018473ffffffffffffffffffffffffffffffffffffffff1673ffffffffffffffffffffffffffffffffffffffff166c010000000000000000000000000281526014018381526020018281526020019350505050604051809103902060016040518363ffffffff167c01000000000000000000000000000000000000000000000000000000000281526004018083600019166000191681526020018215151515815260200192505050600060405180830381600087803b15156127d257600080fd5b6102c65a03f115156127e357600080fd5b5050508573ffffffffffffffffffffffffffffffffffffffff16633eba9ed286858560405180807f64656e746973742f7363616e2d6170706f696e746d656e742f696e6465782f6981526020017f732d706169642d666f723f000000000000000000000000000000000000000000815250602b018473ffffffffffffffffffffffffffffffffffffffff1673ffffffffffffffffffffffffffffffffffffffff166c010000000000000000000000000281526014018381526020018281526020019350505050604051809103902060016040518363ffffffff167c01000000000000000000000000000000000000000000000000000000000281526004018083600019166000191681526020018215151515815260200192505050600060405180830381600087803b151561291757600080fd5b6102c65a03f1151561292857600080fd5b505050505050505050565b60008773ffffffffffffffffffffffffffffffffffffffff16637a0e03ec8888888860405180807f64656e746973742f70617469656e742f7363616e2d6170706f696e746d656e7481526020017f2f696e6465782f73746174757300000000000000000000000000000000000000815250602d018573ffffffffffffffffffffffffffffffffffffffff1673ffffffffffffffffffffffffffffffffffffffff166c010000000000000000000000000281526014018473ffffffffffffffffffffffffffffffffffffffff1673ffffffffffffffffffffffffffffffffffffffff166c0100000000000000000000000002815260140183815260200182815260200194505050505060405180910390206000604051602001526040518263ffffffff167c0100000000000000000000000000000000000000000000000000000000028152600401808260001916600019168152602001915050602060405180830381600087803b1515612aa557600080fd5b6102c65a03f11515612ab657600080fd5b5050506040518051905060ff16148015612c5757508673ffffffffffffffffffffffffffffffffffffffff166317e7dd2287878787604051808573ffffffffffffffffffffffffffffffffffffffff1673ffffffffffffffffffffffffffffffffffffffff166c010000000000000000000000000281526014018473ffffffffffffffffffffffffffffffffffffffff1673ffffffffffffffffffffffffffffffffffffffff166c01000000000000000000000000028152601401838152602001828152602001807f64656e746973742f70617469656e742f7363616e2d6170706f696e746d656e7481526020017f2f696e6465782f69732d6578697374733f00000000000000000000000000000081525060310194505050505060405180910390206000604051602001526040518263ffffffff167c0100000000000000000000000000000000000000000000000000000000028152600401808260001916600019168152602001915050602060405180830381600087803b1515612c3b57600080fd5b6102c65a03f11515612c4c57600080fd5b505050604051805190505b8015612da757508673ffffffffffffffffffffffffffffffffffffffff166317e7dd2286868660405180807f70617469656e742f7363616e2d6170706f696e746d656e742f696e6465782f6981526020017f732d6163746976653f00000000000000000000000000000000000000000000008152506029018473ffffffffffffffffffffffffffffffffffffffff1673ffffffffffffffffffffffffffffffffffffffff166c01000000000000000000000000028152601401838152602001828152602001935050505060405180910390206000604051602001526040518263ffffffff167c0100000000000000000000000000000000000000000000000000000000028152600401808260001916600019168152602001915050602060405180830381600087803b1515612d8b57600080fd5b6102c65a03f11515612d9c57600080fd5b505050604051805190505b1515612db257600080fd5b612dc187878787878787613409565b50505050505050565b612e428585836040805190810160405280601881526020017f64656e746973742f7363616e2d6170706f696e746d656e7400000000000000008152506040805190810160405280601f81526020017f64656e746973742f7363616e2d6170706f696e746d656e74732d636f756e740081525087613cb9565b612eba8583836040805190810160405280601881526020017f7363616e2d6170706f696e746d656e742f64656e7469737400000000000000008152506040805190810160405280601f81526020017f7363616e2d6170706f696e746d656e742f64656e74697374732d636f756e7400815250896141f8565b612f5a858584846040805190810160405280602081526020017f64656e746973742f7363616e2d6170706f696e746d656e742f70617469656e74815250606060405190810160405280602781526020017f64656e746973742f7363616e2d6170706f696e746d656e742f70617469656e7481526020017f732d636f756e7400000000000000000000000000000000000000000000000000815250896146a3565b612ffa858585846040805190810160405280602081526020017f64656e746973742f70617469656e742f7363616e2d6170706f696e746d656e74815250606060405190810160405280602781526020017f64656e746973742f70617469656e742f7363616e2d6170706f696e746d656e7481526020017f732d636f756e740000000000000000000000000000000000000000000000000081525088614c5c565b61309a858386846040805190810160405280602081526020017f7363616e2d6170706f696e746d656e742f64656e746973742f70617469656e74815250606060405190810160405280602781526020017f7363616e2d6170706f696e746d656e742f64656e746973742f70617469656e7481526020017f732d636f756e7400000000000000000000000000000000000000000000000000815250896152a9565b61313a858385846040805190810160405280602081526020017f7363616e2d6170706f696e746d656e742f70617469656e742f64656e74697374815250606060405190810160405280602781526020017f7363616e2d6170706f696e746d656e742f70617469656e742f64656e7469737481526020017f732d636f756e74000000000000000000000000000000000000000000000000008152508a6152a9565b6131da858484846040805190810160405280602081526020017f70617469656e742f7363616e2d6170706f696e746d656e742f64656e74697374815250606060405190810160405280602781526020017f70617469656e742f7363616e2d6170706f696e746d656e742f64656e7469737481526020017f732d636f756e74000000000000000000000000000000000000000000000000008152508a6146a3565b61327a858486846040805190810160405280602081526020017f70617469656e742f64656e746973742f7363616e2d6170706f696e746d656e74815250606060405190810160405280602781526020017f70617469656e742f64656e746973742f7363616e2d6170706f696e746d656e7481526020017f732d636f756e740000000000000000000000000000000000000000000000000081525088614c5c565b8473ffffffffffffffffffffffffffffffffffffffff16633eba9ed28585858560405180807f64656e746973742f70617469656e742f7363616e2d6170706f696e746d656e7481526020017f2f696e6465782f69732d6578697374733f0000000000000000000000000000008152506031018573ffffffffffffffffffffffffffffffffffffffff1673ffffffffffffffffffffffffffffffffffffffff166c010000000000000000000000000281526014018473ffffffffffffffffffffffffffffffffffffffff1673ffffffffffffffffffffffffffffffffffffffff166c01000000000000000000000000028152601401838152602001828152602001945050505050604051809103902060016040518363ffffffff167c01000000000000000000000000000000000000000000000000000000000281526004018083600019166000191681526020018215151515815260200192505050600060405180830381600087803b15156133ee57600080fd5b6102c65a03f115156133ff57600080fd5b5050505050505050565b8673ffffffffffffffffffffffffffffffffffffffff16633eba9ed286868660405180807f70617469656e742f7363616e2d6170706f696e746d656e742f696e6465782f6981526020017f732d61636365707465643f000000000000000000000000000000000000000000815250602b018473ffffffffffffffffffffffffffffffffffffffff1673ffffffffffffffffffffffffffffffffffffffff166c010000000000000000000000000281526014018381526020018281526020019350505050604051809103902060016040518363ffffffff167c01000000000000000000000000000000000000000000000000000000000281526004018083600019166000191681526020018215151515815260200192505050600060405180830381600087803b151561353a57600080fd5b6102c65a03f1151561354b57600080fd5b5050508673ffffffffffffffffffffffffffffffffffffffff16633eba9ed287868660405180807f64656e746973742f7363616e2d6170706f696e746d656e742f696e6465782f6981526020017f732d61636365707465643f000000000000000000000000000000000000000000815250602b018473ffffffffffffffffffffffffffffffffffffffff1673ffffffffffffffffffffffffffffffffffffffff166c010000000000000000000000000281526014018381526020018281526020019350505050604051809103902060016040518363ffffffff167c01000000000000000000000000000000000000000000000000000000000281526004018083600019166000191681526020018215151515815260200192505050600060405180830381600087803b151561367f57600080fd5b6102c65a03f1151561369057600080fd5b5050508673ffffffffffffffffffffffffffffffffffffffff16630bd851588787878760405180807f64656e746973742f70617469656e742f7363616e2d6170706f696e746d656e7481526020017f2f696e6465782f73746174757300000000000000000000000000000000000000815250602d018573ffffffffffffffffffffffffffffffffffffffff1673ffffffffffffffffffffffffffffffffffffffff166c010000000000000000000000000281526014018473ffffffffffffffffffffffffffffffffffffffff1673ffffffffffffffffffffffffffffffffffffffff166c01000000000000000000000000028152601401838152602001828152602001945050505050604051809103902060016040518363ffffffff167c01000000000000000000000000000000000000000000000000000000000281526004018083600019166000191681526020018260ff16815260200192505050600060405180830381600087803b151561380657600080fd5b6102c65a03f1151561381757600080fd5b5050508673ffffffffffffffffffffffffffffffffffffffff166325cf512d8787878760405180807f64656e746973742f70617469656e742f7363616e2d6170706f696e746d656e7481526020017f2f696e6465782f636f6d6d656e74000000000000000000000000000000000000815250602e018573ffffffffffffffffffffffffffffffffffffffff1673ffffffffffffffffffffffffffffffffffffffff166c010000000000000000000000000281526014018473ffffffffffffffffffffffffffffffffffffffff1673ffffffffffffffffffffffffffffffffffffffff166c010000000000000000000000000281526014018381526020018281526020019450505050506040518091039020836040518363ffffffff167c0100000000000000000000000000000000000000000000000000000000028152600401808360001916600019168152602001826000191660001916815260200192505050600060405180830381600087803b151561399157600080fd5b6102c65a03f115156139a257600080fd5b5050508673ffffffffffffffffffffffffffffffffffffffff16633562fd208787878760405180807f64656e746973742f70617469656e742f7363616e2d6170706f696e746d656e7481526020017f2f696e6465782f71756f74650000000000000000000000000000000000000000815250602c018573ffffffffffffffffffffffffffffffffffffffff1673ffffffffffffffffffffffffffffffffffffffff166c010000000000000000000000000281526014018473ffffffffffffffffffffffffffffffffffffffff1673ffffffffffffffffffffffffffffffffffffffff166c010000000000000000000000000281526014018381526020018281526020019450505050506040518091039020846040518363ffffffff167c010000000000000000000000000000000000000000000000000000000002815260040180836000191660001916815260200182815260200192505050600060405180830381600087803b1515613b1457600080fd5b6102c65a03f11515613b2557600080fd5b5050508673ffffffffffffffffffffffffffffffffffffffff16633eba9ed28787878760405180807f64656e746973742f70617469656e742f7363616e2d6170706f696e746d656e7481526020017f2f696e6465782f69732d63616e63656c65643f000000000000000000000000008152506033018573ffffffffffffffffffffffffffffffffffffffff1673ffffffffffffffffffffffffffffffffffffffff166c010000000000000000000000000281526014018473ffffffffffffffffffffffffffffffffffffffff1673ffffffffffffffffffffffffffffffffffffffff166c01000000000000000000000000028152601401838152602001828152602001945050505050604051809103902060006040518363ffffffff167c01000000000000000000000000000000000000000000000000000000000281526004018083600019166000191681526020018215151515815260200192505050600060405180830381600087803b1515613c9c57600080fd5b6102c65a03f11515613cad57600080fd5b50505050505050505050565b6000613cc6878785615862565b90508673ffffffffffffffffffffffffffffffffffffffff16633562fd208588846040518084805190602001908083835b602083101515613d1c5780518252602082019150602081019050602083039250613cf7565b6001836020036101000a0380198251168184511680821785525050505050509050018373ffffffffffffffffffffffffffffffffffffffff1673ffffffffffffffffffffffffffffffffffffffff166c0100000000000000000000000002815260140182815260200193505050506040518091039020846040518363ffffffff167c010000000000000000000000000000000000000000000000000000000002815260040180836000191660001916815260200182815260200192505050600060405180830381600087803b1515613df357600080fd5b6102c65a03f11515613e0457600080fd5b5050508673ffffffffffffffffffffffffffffffffffffffff16633562fd20858884896040518085805190602001908083835b602083101515613e5c5780518252602082019150602081019050602083039250613e37565b6001836020036101000a0380198251168184511680821785525050505050509050018473ffffffffffffffffffffffffffffffffffffffff1673ffffffffffffffffffffffffffffffffffffffff166c010000000000000000000000000281526014018381526020018281526020019450505050506040518091039020846040518363ffffffff167c010000000000000000000000000000000000000000000000000000000002815260040180836000191660001916815260200182815260200192505050600060405180830381600087803b1515613f3a57600080fd5b6102c65a03f11515613f4b57600080fd5b5050508673ffffffffffffffffffffffffffffffffffffffff16633562fd208588846040518084805190602001908083835b602083101515613fa25780518252602082019150602081019050602083039250613f7d565b6001836020036101000a0380198251168184511680821785525050505050509050018373ffffffffffffffffffffffffffffffffffffffff1673ffffffffffffffffffffffffffffffffffffffff166c01000000000000000000000000028152601401828152602001807f696e64657800000000000000000000000000000000000000000000000000000081525060050193505050506040518091039020876040518363ffffffff167c010000000000000000000000000000000000000000000000000000000002815260040180836000191660001916815260200182815260200192505050600060405180830381600087803b15156140a157600080fd5b6102c65a03f115156140b257600080fd5b5050508673ffffffffffffffffffffffffffffffffffffffff16633562fd2084886040518083805190602001908083835b60208310151561410857805182526020820191506020810190506020830392506140e3565b6001836020036101000a0380198251168184511680821785525050505050509050018273ffffffffffffffffffffffffffffffffffffffff1673ffffffffffffffffffffffffffffffffffffffff166c01000000000000000000000000028152601401925050506040518091039020600184016040518363ffffffff167c010000000000000000000000000000000000000000000000000000000002815260040180836000191660001916815260200182815260200192505050600060405180830381600087803b15156141db57600080fd5b6102c65a03f115156141ec57600080fd5b50505050505050505050565b60006142058787856159ac565b90508673ffffffffffffffffffffffffffffffffffffffff16635a2bf25a8588846040518084805190602001908083835b60208310151561425b5780518252602082019150602081019050602083039250614236565b6001836020036101000a03801982511681845116808217855250505050505090500183815260200182815260200193505050506040518091039020846040518363ffffffff167c01000000000000000000000000000000000000000000000000000000000281526004018083600019166000191681526020018273ffffffffffffffffffffffffffffffffffffffff1673ffffffffffffffffffffffffffffffffffffffff16815260200192505050600060405180830381600087803b151561432357600080fd5b6102c65a03f1151561433457600080fd5b5050508673ffffffffffffffffffffffffffffffffffffffff16635a2bf25a858884896040518085805190602001908083835b60208310151561438c5780518252602082019150602081019050602083039250614367565b6001836020036101000a0380198251168184511680821785525050505050509050018481526020018381526020018281526020019450505050506040518091039020846040518363ffffffff167c01000000000000000000000000000000000000000000000000000000000281526004018083600019166000191681526020018273ffffffffffffffffffffffffffffffffffffffff1673ffffffffffffffffffffffffffffffffffffffff16815260200192505050600060405180830381600087803b151561445b57600080fd5b6102c65a03f1151561446c57600080fd5b5050508673ffffffffffffffffffffffffffffffffffffffff16633562fd208588846040518084805190602001908083835b6020831015156144c3578051825260208201915060208101905060208303925061449e565b6001836020036101000a038019825116818451168082178552505050505050905001838152602001828152602001807f696e64657800000000000000000000000000000000000000000000000000000081525060050193505050506040518091039020876040518363ffffffff167c010000000000000000000000000000000000000000000000000000000002815260040180836000191660001916815260200182815260200192505050600060405180830381600087803b151561458757600080fd5b6102c65a03f1151561459857600080fd5b5050508673ffffffffffffffffffffffffffffffffffffffff16633562fd2084886040518083805190602001908083835b6020831015156145ee57805182526020820191506020810190506020830392506145c9565b6001836020036101000a038019825116818451168082178552505050505050905001828152602001925050506040518091039020600184016040518363ffffffff167c010000000000000000000000000000000000000000000000000000000002815260040180836000191660001916815260200182815260200192505050600060405180830381600087803b151561468657600080fd5b6102c65a03f1151561469757600080fd5b50505050505050505050565b60006146b188888886615abb565b90508773ffffffffffffffffffffffffffffffffffffffff16635a2bf25a858989856040518085805190602001908083835b60208310151561470857805182526020820191506020810190506020830392506146e3565b6001836020036101000a0380198251168184511680821785525050505050509050018473ffffffffffffffffffffffffffffffffffffffff1673ffffffffffffffffffffffffffffffffffffffff166c010000000000000000000000000281526014018381526020018281526020019450505050506040518091039020846040518363ffffffff167c01000000000000000000000000000000000000000000000000000000000281526004018083600019166000191681526020018273ffffffffffffffffffffffffffffffffffffffff1673ffffffffffffffffffffffffffffffffffffffff16815260200192505050600060405180830381600087803b151561481257600080fd5b6102c65a03f1151561482357600080fd5b5050508773ffffffffffffffffffffffffffffffffffffffff16635a2bf25a858989858a6040518086805190602001908083835b60208310151561487c5780518252602082019150602081019050602083039250614857565b6001836020036101000a0380198251168184511680821785525050505050509050018573ffffffffffffffffffffffffffffffffffffffff1673ffffffffffffffffffffffffffffffffffffffff166c01000000000000000000000000028152601401848152602001838152602001828152602001955050505050506040518091039020846040518363ffffffff167c01000000000000000000000000000000000000000000000000000000000281526004018083600019166000191681526020018273ffffffffffffffffffffffffffffffffffffffff1673ffffffffffffffffffffffffffffffffffffffff16815260200192505050600060405180830381600087803b151561498d57600080fd5b6102c65a03f1151561499e57600080fd5b5050508773ffffffffffffffffffffffffffffffffffffffff16633562fd20858989856040518085805190602001908083835b6020831015156149f657805182526020820191506020810190506020830392506149d1565b6001836020036101000a0380198251168184511680821785525050505050509050018473ffffffffffffffffffffffffffffffffffffffff1673ffffffffffffffffffffffffffffffffffffffff166c01000000000000000000000000028152601401838152602001828152602001807f696e6465780000000000000000000000000000000000000000000000000000008152506005019450505050506040518091039020876040518363ffffffff167c010000000000000000000000000000000000000000000000000000000002815260040180836000191660001916815260200182815260200192505050600060405180830381600087803b1515614afc57600080fd5b6102c65a03f11515614b0d57600080fd5b5050508773ffffffffffffffffffffffffffffffffffffffff16633562fd208489896040518084805190602001908083835b602083101515614b645780518252602082019150602081019050602083039250614b3f565b6001836020036101000a0380198251168184511680821785525050505050509050018373ffffffffffffffffffffffffffffffffffffffff1673ffffffffffffffffffffffffffffffffffffffff166c0100000000000000000000000002815260140182815260200193505050506040518091039020600184016040518363ffffffff167c010000000000000000000000000000000000000000000000000000000002815260040180836000191660001916815260200182815260200192505050600060405180830381600087803b1515614c3e57600080fd5b6102c65a03f11515614c4f57600080fd5b5050505050505050505050565b6000614c6a88888886615c0e565b90508773ffffffffffffffffffffffffffffffffffffffff16633562fd20858989856040518085805190602001908083835b602083101515614cc15780518252602082019150602081019050602083039250614c9c565b6001836020036101000a0380198251168184511680821785525050505050509050018473ffffffffffffffffffffffffffffffffffffffff1673ffffffffffffffffffffffffffffffffffffffff166c010000000000000000000000000281526014018373ffffffffffffffffffffffffffffffffffffffff1673ffffffffffffffffffffffffffffffffffffffff166c010000000000000000000000000281526014018281526020019450505050506040518091039020846040518363ffffffff167c010000000000000000000000000000000000000000000000000000000002815260040180836000191660001916815260200182815260200192505050600060405180830381600087803b1515614dda57600080fd5b6102c65a03f11515614deb57600080fd5b5050508773ffffffffffffffffffffffffffffffffffffffff16633562fd20858989858a6040518086805190602001908083835b602083101515614e445780518252602082019150602081019050602083039250614e1f565b6001836020036101000a0380198251168184511680821785525050505050509050018573ffffffffffffffffffffffffffffffffffffffff1673ffffffffffffffffffffffffffffffffffffffff166c010000000000000000000000000281526014018473ffffffffffffffffffffffffffffffffffffffff1673ffffffffffffffffffffffffffffffffffffffff166c01000000000000000000000000028152601401838152602001828152602001955050505050506040518091039020846040518363ffffffff167c010000000000000000000000000000000000000000000000000000000002815260040180836000191660001916815260200182815260200192505050600060405180830381600087803b1515614f6457600080fd5b6102c65a03f11515614f7557600080fd5b5050508773ffffffffffffffffffffffffffffffffffffffff16633562fd20858989856040518085805190602001908083835b602083101515614fcd5780518252602082019150602081019050602083039250614fa8565b6001836020036101000a0380198251168184511680821785525050505050509050018473ffffffffffffffffffffffffffffffffffffffff1673ffffffffffffffffffffffffffffffffffffffff166c010000000000000000000000000281526014018373ffffffffffffffffffffffffffffffffffffffff1673ffffffffffffffffffffffffffffffffffffffff166c01000000000000000000000000028152601401828152602001807f696e6465780000000000000000000000000000000000000000000000000000008152506005019450505050506040518091039020876040518363ffffffff167c010000000000000000000000000000000000000000000000000000000002815260040180836000191660001916815260200182815260200192505050600060405180830381600087803b151561510e57600080fd5b6102c65a03f1151561511f57600080fd5b5050508773ffffffffffffffffffffffffffffffffffffffff16633562fd208489896040518084805190602001908083835b6020831015156151765780518252602082019150602081019050602083039250615151565b6001836020036101000a0380198251168184511680821785525050505050509050018373ffffffffffffffffffffffffffffffffffffffff1673ffffffffffffffffffffffffffffffffffffffff166c010000000000000000000000000281526014018273ffffffffffffffffffffffffffffffffffffffff1673ffffffffffffffffffffffffffffffffffffffff166c0100000000000000000000000002815260140193505050506040518091039020600184016040518363ffffffff167c010000000000000000000000000000000000000000000000000000000002815260040180836000191660001916815260200182815260200192505050600060405180830381600087803b151561528b57600080fd5b6102c65a03f1151561529c57600080fd5b5050505050505050505050565b60006152b788888886615d9c565b90508773ffffffffffffffffffffffffffffffffffffffff16635a2bf25a858989856040518085805190602001908083835b60208310151561530e57805182526020820191506020810190506020830392506152e9565b6001836020036101000a0380198251168184511680821785525050505050509050018481526020018373ffffffffffffffffffffffffffffffffffffffff1673ffffffffffffffffffffffffffffffffffffffff166c010000000000000000000000000281526014018281526020019450505050506040518091039020846040518363ffffffff167c01000000000000000000000000000000000000000000000000000000000281526004018083600019166000191681526020018273ffffffffffffffffffffffffffffffffffffffff1673ffffffffffffffffffffffffffffffffffffffff16815260200192505050600060405180830381600087803b151561541857600080fd5b6102c65a03f1151561542957600080fd5b5050508773ffffffffffffffffffffffffffffffffffffffff16635a2bf25a858989858a6040518086805190602001908083835b602083101515615482578051825260208201915060208101905060208303925061545d565b6001836020036101000a0380198251168184511680821785525050505050509050018581526020018473ffffffffffffffffffffffffffffffffffffffff1673ffffffffffffffffffffffffffffffffffffffff166c01000000000000000000000000028152601401838152602001828152602001955050505050506040518091039020846040518363ffffffff167c01000000000000000000000000000000000000000000000000000000000281526004018083600019166000191681526020018273ffffffffffffffffffffffffffffffffffffffff1673ffffffffffffffffffffffffffffffffffffffff16815260200192505050600060405180830381600087803b151561559357600080fd5b6102c65a03f115156155a457600080fd5b5050508773ffffffffffffffffffffffffffffffffffffffff16633562fd20858989856040518085805190602001908083835b6020831015156155fc57805182526020820191506020810190506020830392506155d7565b6001836020036101000a0380198251168184511680821785525050505050509050018481526020018373ffffffffffffffffffffffffffffffffffffffff1673ffffffffffffffffffffffffffffffffffffffff166c01000000000000000000000000028152601401828152602001807f696e6465780000000000000000000000000000000000000000000000000000008152506005019450505050506040518091039020876040518363ffffffff167c010000000000000000000000000000000000000000000000000000000002815260040180836000191660001916815260200182815260200192505050600060405180830381600087803b151561570257600080fd5b6102c65a03f1151561571357600080fd5b5050508773ffffffffffffffffffffffffffffffffffffffff16633562fd208489896040518084805190602001908083835b60208310151561576a5780518252602082019150602081019050602083039250615745565b6001836020036101000a0380198251168184511680821785525050505050509050018381526020018273ffffffffffffffffffffffffffffffffffffffff1673ffffffffffffffffffffffffffffffffffffffff166c0100000000000000000000000002815260140193505050506040518091039020600184016040518363ffffffff167c010000000000000000000000000000000000000000000000000000000002815260040180836000191660001916815260200182815260200192505050600060405180830381600087803b151561584457600080fd5b6102c65a03f1151561585557600080fd5b5050505050505050505050565b60008373ffffffffffffffffffffffffffffffffffffffff1663bdc963d883856040518083805190602001908083835b6020831015156158b75780518252602082019150602081019050602083039250615892565b6001836020036101000a0380198251168184511680821785525050505050509050018273ffffffffffffffffffffffffffffffffffffffff1673ffffffffffffffffffffffffffffffffffffffff166c010000000000000000000000000281526014019250505060405180910390206000604051602001526040518263ffffffff167c0100000000000000000000000000000000000000000000000000000000028152600401808260001916600019168152602001915050602060405180830381600087803b151561598857600080fd5b6102c65a03f1151561599957600080fd5b5050506040518051905090509392505050565b60008373ffffffffffffffffffffffffffffffffffffffff1663bdc963d883856040518083805190602001908083835b602083101515615a0157805182526020820191506020810190506020830392506159dc565b6001836020036101000a0380198251168184511680821785525050505050509050018281526020019250505060405180910390206000604051602001526040518263ffffffff167c0100000000000000000000000000000000000000000000000000000000028152600401808260001916600019168152602001915050602060405180830381600087803b1515615a9757600080fd5b6102c65a03f11515615aa857600080fd5b5050506040518051905090509392505050565b60008473ffffffffffffffffffffffffffffffffffffffff1663bdc963d88386866040518084805190602001908083835b602083101515615b115780518252602082019150602081019050602083039250615aec565b6001836020036101000a0380198251168184511680821785525050505050509050018373ffffffffffffffffffffffffffffffffffffffff1673ffffffffffffffffffffffffffffffffffffffff166c01000000000000000000000000028152601401828152602001935050505060405180910390206000604051602001526040518263ffffffff167c0100000000000000000000000000000000000000000000000000000000028152600401808260001916600019168152602001915050602060405180830381600087803b1515615be957600080fd5b6102c65a03f11515615bfa57600080fd5b505050604051805190509050949350505050565b60008473ffffffffffffffffffffffffffffffffffffffff1663bdc963d88386866040518084805190602001908083835b602083101515615c645780518252602082019150602081019050602083039250615c3f565b6001836020036101000a0380198251168184511680821785525050505050509050018373ffffffffffffffffffffffffffffffffffffffff1673ffffffffffffffffffffffffffffffffffffffff166c010000000000000000000000000281526014018273ffffffffffffffffffffffffffffffffffffffff1673ffffffffffffffffffffffffffffffffffffffff166c01000000000000000000000000028152601401935050505060405180910390206000604051602001526040518263ffffffff167c0100000000000000000000000000000000000000000000000000000000028152600401808260001916600019168152602001915050602060405180830381600087803b1515615d7757600080fd5b6102c65a03f11515615d8857600080fd5b505050604051805190509050949350505050565b60008473ffffffffffffffffffffffffffffffffffffffff1663bdc963d88386866040518084805190602001908083835b602083101515615df25780518252602082019150602081019050602083039250615dcd565b6001836020036101000a0380198251168184511680821785525050505050509050018381526020018273ffffffffffffffffffffffffffffffffffffffff1673ffffffffffffffffffffffffffffffffffffffff166c01000000000000000000000000028152601401935050505060405180910390206000604051602001526040518263ffffffff167c0100000000000000000000000000000000000000000000000000000000028152600401808260001916600019168152602001915050602060405180830381600087803b1515615eca57600080fd5b6102c65a03f11515615edb57600080fd5b5050506040518051905090509493505050505600a165627a7a72305820d7178e2c7cbb690796b7c42681352e7011481147f59f13a18416f53ce2d3747a0029",
  "source": "pragma solidity 0.4.18;\nimport \"./Restrictor.sol\";\nimport \"../lib/odll/userManager.sol\";\n\ncontract ScanApplicationWriter is Restrictor {\n\n  function ScanApplicationWriter(address _dbAddress) public {\n    require(_dbAddress != 0x0);\n    dbAddress = _dbAddress;\n  }\n\n  function applyToScan(\n    address patientId,\n    uint scanAppointmentId,\n    uint patientScanAppointmentIndexNumber,\n    uint quote,\n    bytes32 comment\n  )\n    external\n    onlyPermittedSmartContract\n  {\n    userManager.applyToScan(dbAddress, msg.sender, patientId, scanAppointmentId, patientScanAppointmentIndexNumber, quote, comment);\n  }\n\n  function acceptScanApplication (\n    address dentistId,\n    uint scanAppointmentId,\n    uint patientScanAppointmentIndexNumber,\n    uint quote\n  )\n    external\n    payable\n    onlyPermittedSmartContract\n  {\n    if (msg.value < quote) {\n      msg.sender.transfer(msg.value);\n      return;\n    }\n\n    userManager.acceptScanApplication(dbAddress, dentistId, msg.sender, scanAppointmentId, patientScanAppointmentIndexNumber, msg.value);\n  }\n\n  function cancelScanApplication (\n    address patientId,\n    uint scanAppointmentId,\n    uint patientScanAppointmentIndexNumber\n  )\n    external\n  {\n    userManager.cancelScanApplication(dbAddress, msg.sender, patientId, scanAppointmentId, patientScanAppointmentIndexNumber);\n  }\n}\n",
  "sourcePath": "/home/daniel/dev/vue/apps/oral-data-link/contracts/odll/ScanApplicationWriter.sol",
  "compiler": {
    "name": "solc",
    "version": "0.4.18+commit.9cf6e910.Emscripten.clang"
  },
  "schemaVersion": "1.0.1",
  "updatedAt": "2017-11-06T15:50:54.440Z"
}