{
  "contractName": "ScanAppointmentWriter",
  "abi": [
    {
      "constant": true,
      "inputs": [],
      "name": "smartContractStatus",
      "outputs": [
        {
          "name": "",
          "type": "uint8"
        }
      ],
      "payable": false,
      "stateMutability": "view",
      "type": "function"
    },
    {
      "constant": true,
      "inputs": [],
      "name": "owner",
      "outputs": [
        {
          "name": "",
          "type": "address"
        }
      ],
      "payable": false,
      "stateMutability": "view",
      "type": "function"
    },
    {
      "constant": true,
      "inputs": [],
      "name": "dbAddress",
      "outputs": [
        {
          "name": "",
          "type": "address"
        }
      ],
      "payable": false,
      "stateMutability": "view",
      "type": "function"
    },
    {
      "constant": false,
      "inputs": [
        {
          "name": "dentistId",
          "type": "address"
        },
        {
          "name": "patientId",
          "type": "address"
        },
        {
          "name": "scanAppointmentId",
          "type": "uint256"
        },
        {
          "name": "patientScanAppointmentIndexNumber",
          "type": "uint256"
        }
      ],
      "name": "expireScanAppointment",
      "outputs": [],
      "payable": false,
      "stateMutability": "nonpayable",
      "type": "function"
    },
    {
      "constant": false,
      "inputs": [
        {
          "name": "patientId",
          "type": "address"
        },
        {
          "name": "scanAppointmentId",
          "type": "uint256"
        },
        {
          "name": "patientScanAppointmentIndexNumber",
          "type": "uint256"
        },
        {
          "name": "quote",
          "type": "uint256"
        },
        {
          "name": "comment",
          "type": "bytes32"
        }
      ],
      "name": "acceptScanAppointment",
      "outputs": [],
      "payable": false,
      "stateMutability": "nonpayable",
      "type": "function"
    },
    {
      "constant": false,
      "inputs": [
        {
          "name": "dentistId",
          "type": "address"
        },
        {
          "name": "scanAppointmentId",
          "type": "uint256"
        },
        {
          "name": "patientScanAppointmentIndexNumber",
          "type": "uint256"
        }
      ],
      "name": "cancelScanAppointment",
      "outputs": [],
      "payable": false,
      "stateMutability": "nonpayable",
      "type": "function"
    },
    {
      "constant": false,
      "inputs": [
        {
          "name": "patientId",
          "type": "address"
        },
        {
          "name": "scanAppointmentId",
          "type": "uint256"
        },
        {
          "name": "patientScanAppointmentIndexNumber",
          "type": "uint256"
        }
      ],
      "name": "rejectScanAppointment",
      "outputs": [],
      "payable": false,
      "stateMutability": "nonpayable",
      "type": "function"
    },
    {
      "constant": false,
      "inputs": [
        {
          "name": "dentistId",
          "type": "address"
        },
        {
          "name": "scanAppointmentId",
          "type": "uint256"
        },
        {
          "name": "appointmentDate",
          "type": "bytes32"
        },
        {
          "name": "scanTime",
          "type": "bytes32"
        },
        {
          "name": "scanInsurance",
          "type": "bytes32"
        },
        {
          "name": "scanComment",
          "type": "bytes32"
        }
      ],
      "name": "writeScanAppointment",
      "outputs": [],
      "payable": false,
      "stateMutability": "nonpayable",
      "type": "function"
    },
    {
      "constant": false,
      "inputs": [
        {
          "name": "newOwner",
          "type": "address"
        }
      ],
      "name": "transferOwnership",
      "outputs": [],
      "payable": false,
      "stateMutability": "nonpayable",
      "type": "function"
    },
    {
      "inputs": [
        {
          "name": "_dbAddress",
          "type": "address"
        }
      ],
      "payable": false,
      "stateMutability": "nonpayable",
      "type": "constructor"
    },
    {
      "anonymous": false,
      "inputs": [
        {
          "indexed": false,
          "name": "status",
          "type": "uint8"
        }
      ],
      "name": "OnSmartContractStatusSet",
      "type": "event"
    },
    {
      "anonymous": false,
      "inputs": [
        {
          "indexed": true,
          "name": "previousOwner",
          "type": "address"
        },
        {
          "indexed": true,
          "name": "newOwner",
          "type": "address"
        }
      ],
      "name": "OwnershipTransferred",
      "type": "event"
    }
  ],
  "bytecode": "0x6060604052341561000f57600080fd5b60405160208062004e9783398101604052808051906020019091905050336000806101000a81548173ffffffffffffffffffffffffffffffffffffffff021916908373ffffffffffffffffffffffffffffffffffffffff16021790555060008173ffffffffffffffffffffffffffffffffffffffff161415151561009257600080fd5b80600160006101000a81548173ffffffffffffffffffffffffffffffffffffffff021916908373ffffffffffffffffffffffffffffffffffffffff16021790555050614db380620000e46000396000f300606060405260043610610099576000357c0100000000000000000000000000000000000000000000000000000000900463ffffffff1680634c8ddddc1461009e5780638da5cb5b146100cd57806391e06b6d146101225780639ce9737414610177578063d8a08e1c146101e1578063e4609f7d14610242578063e6ef0fec1461028d578063ee270949146102d8578063f2fde38b1461034e575b600080fd5b34156100a957600080fd5b6100b1610387565b604051808260ff1660ff16815260200191505060405180910390f35b34156100d857600080fd5b6100e061039a565b604051808273ffffffffffffffffffffffffffffffffffffffff1673ffffffffffffffffffffffffffffffffffffffff16815260200191505060405180910390f35b341561012d57600080fd5b6101356103bf565b604051808273ffffffffffffffffffffffffffffffffffffffff1673ffffffffffffffffffffffffffffffffffffffff16815260200191505060405180910390f35b341561018257600080fd5b6101df600480803573ffffffffffffffffffffffffffffffffffffffff1690602001909190803573ffffffffffffffffffffffffffffffffffffffff169060200190919080359060200190919080359060200190919050506103e5565b005b34156101ec57600080fd5b610240600480803573ffffffffffffffffffffffffffffffffffffffff169060200190919080359060200190919080359060200190919080359060200190919080356000191690602001909190505061043b565b005b341561024d57600080fd5b61028b600480803573ffffffffffffffffffffffffffffffffffffffff16906020019091908035906020019091908035906020019091905050610494565b005b341561029857600080fd5b6102d6600480803573ffffffffffffffffffffffffffffffffffffffff169060200190919080359060200190919080359060200190919050506104e9565b005b34156102e357600080fd5b61034c600480803573ffffffffffffffffffffffffffffffffffffffff169060200190919080359060200190919080356000191690602001909190803560001916906020019091908035600019169060200190919080356000191690602001909190505061053e565b005b341561035957600080fd5b610385600480803573ffffffffffffffffffffffffffffffffffffffff16906020019091905050610599565b005b600160149054906101000a900460ff1681565b6000809054906101000a900473ffffffffffffffffffffffffffffffffffffffff1681565b600160009054906101000a900473ffffffffffffffffffffffffffffffffffffffff1681565b6000600160149054906101000a900460ff1660ff1614151561040657600080fd5b610435600160009054906101000a900473ffffffffffffffffffffffffffffffffffffffff16858585856106ee565b50505050565b6000600160149054906101000a900460ff1660ff1614151561045c57600080fd5b61048d600160009054906101000a900473ffffffffffffffffffffffffffffffffffffffff16338787878787610702565b5050505050565b6000600160149054906101000a900460ff1660ff161415156104b557600080fd5b6104e4600160009054906101000a900473ffffffffffffffffffffffffffffffffffffffff168433858561071a565b505050565b6000600160149054906101000a900460ff1660ff1614151561050a57600080fd5b610539600160009054906101000a900473ffffffffffffffffffffffffffffffffffffffff163385858561072e565b505050565b6000600160149054906101000a900460ff1660ff1614151561055f57600080fd5b610591600160009054906101000a900473ffffffffffffffffffffffffffffffffffffffff1687338888888888610742565b505050505050565b6000809054906101000a900473ffffffffffffffffffffffffffffffffffffffff1673ffffffffffffffffffffffffffffffffffffffff163373ffffffffffffffffffffffffffffffffffffffff161415156105f457600080fd5b600073ffffffffffffffffffffffffffffffffffffffff168173ffffffffffffffffffffffffffffffffffffffff161415151561063057600080fd5b8073ffffffffffffffffffffffffffffffffffffffff166000809054906101000a900473ffffffffffffffffffffffffffffffffffffffff1673ffffffffffffffffffffffffffffffffffffffff167f8be0079c531659141344cd1fd0a4f28419497f9722a3daafe3b4186f6b6457e060405160405180910390a3806000806101000a81548173ffffffffffffffffffffffffffffffffffffffff021916908373ffffffffffffffffffffffffffffffffffffffff16021790555050565b6106fb858585858561075c565b5050505050565b61071187878787878787610c85565b50505050505050565b610727858585858561111c565b5050505050565b61073b85858585856117ee565b5050505050565b61075288888888888888886125dc565b5050505050505050565b8473ffffffffffffffffffffffffffffffffffffffff166317e7dd2284848460405180807f70617469656e742f7363616e2d6170706f696e746d656e742f696e6465782f6981526020017f732d6163746976653f00000000000000000000000000000000000000000000008152506029018473ffffffffffffffffffffffffffffffffffffffff1673ffffffffffffffffffffffffffffffffffffffff166c01000000000000000000000000028152601401838152602001828152602001935050505060405180910390206000604051602001526040518263ffffffff167c0100000000000000000000000000000000000000000000000000000000028152600401808260001916600019168152602001915050602060405180830381600087803b151561088957600080fd5b6102c65a03f1151561089a57600080fd5b5050506040518051905015156108af57600080fd5b8473ffffffffffffffffffffffffffffffffffffffff16633eba9ed284848460405180807f70617469656e742f7363616e2d6170706f696e746d656e742f696e6465782f6981526020017f732d6163746976653f00000000000000000000000000000000000000000000008152506029018473ffffffffffffffffffffffffffffffffffffffff1673ffffffffffffffffffffffffffffffffffffffff166c010000000000000000000000000281526014018381526020018281526020019350505050604051809103902060006040518363ffffffff167c01000000000000000000000000000000000000000000000000000000000281526004018083600019166000191681526020018215151515815260200192505050600060405180830381600087803b15156109e057600080fd5b6102c65a03f115156109f157600080fd5b5050508473ffffffffffffffffffffffffffffffffffffffff16633eba9ed284848460405180807f70617469656e742f7363616e2d6170706f696e746d656e742f696e6465782f6981526020017f732d657870697265643f00000000000000000000000000000000000000000000815250602a018473ffffffffffffffffffffffffffffffffffffffff1673ffffffffffffffffffffffffffffffffffffffff166c010000000000000000000000000281526014018381526020018281526020019350505050604051809103902060016040518363ffffffff167c01000000000000000000000000000000000000000000000000000000000281526004018083600019166000191681526020018215151515815260200192505050600060405180830381600087803b1515610b2557600080fd5b6102c65a03f11515610b3657600080fd5b5050508473ffffffffffffffffffffffffffffffffffffffff16633eba9ed285848460405180807f64656e746973742f7363616e2d6170706f696e746d656e742f696e6465782f6981526020017f732d657870697265643f00000000000000000000000000000000000000000000815250602a018473ffffffffffffffffffffffffffffffffffffffff1673ffffffffffffffffffffffffffffffffffffffff166c010000000000000000000000000281526014018381526020018281526020019350505050604051809103902060016040518363ffffffff167c01000000000000000000000000000000000000000000000000000000000281526004018083600019166000191681526020018215151515815260200192505050600060405180830381600087803b1515610c6a57600080fd5b6102c65a03f11515610c7b57600080fd5b5050505050505050565b60008773ffffffffffffffffffffffffffffffffffffffff16637a0e03ec8888888860405180807f64656e746973742f70617469656e742f7363616e2d6170706f696e746d656e7481526020017f2f696e6465782f73746174757300000000000000000000000000000000000000815250602d018573ffffffffffffffffffffffffffffffffffffffff1673ffffffffffffffffffffffffffffffffffffffff166c010000000000000000000000000281526014018473ffffffffffffffffffffffffffffffffffffffff1673ffffffffffffffffffffffffffffffffffffffff166c0100000000000000000000000002815260140183815260200182815260200194505050505060405180910390206000604051602001526040518263ffffffff167c0100000000000000000000000000000000000000000000000000000000028152600401808260001916600019168152602001915050602060405180830381600087803b1515610df757600080fd5b6102c65a03f11515610e0857600080fd5b5050506040518051905060ff16148015610fa957508673ffffffffffffffffffffffffffffffffffffffff166317e7dd2287878787604051808573ffffffffffffffffffffffffffffffffffffffff1673ffffffffffffffffffffffffffffffffffffffff166c010000000000000000000000000281526014018473ffffffffffffffffffffffffffffffffffffffff1673ffffffffffffffffffffffffffffffffffffffff166c01000000000000000000000000028152601401838152602001828152602001807f64656e746973742f70617469656e742f7363616e2d6170706f696e746d656e7481526020017f2f696e6465782f69732d6578697374733f00000000000000000000000000000081525060310194505050505060405180910390206000604051602001526040518263ffffffff167c0100000000000000000000000000000000000000000000000000000000028152600401808260001916600019168152602001915050602060405180830381600087803b1515610f8d57600080fd5b6102c65a03f11515610f9e57600080fd5b505050604051805190505b80156110f957508673ffffffffffffffffffffffffffffffffffffffff166317e7dd2286868660405180807f70617469656e742f7363616e2d6170706f696e746d656e742f696e6465782f6981526020017f732d6163746976653f00000000000000000000000000000000000000000000008152506029018473ffffffffffffffffffffffffffffffffffffffff1673ffffffffffffffffffffffffffffffffffffffff166c01000000000000000000000000028152601401838152602001828152602001935050505060405180910390206000604051602001526040518263ffffffff167c0100000000000000000000000000000000000000000000000000000000028152600401808260001916600019168152602001915050602060405180830381600087803b15156110dd57600080fd5b6102c65a03f115156110ee57600080fd5b505050604051805190505b151561110457600080fd5b61111387878787878787612d67565b50505050505050565b8473ffffffffffffffffffffffffffffffffffffffff166317e7dd2284848460405180807f70617469656e742f7363616e2d6170706f696e746d656e742f696e6465782f6981526020017f732d6163746976653f00000000000000000000000000000000000000000000008152506029018473ffffffffffffffffffffffffffffffffffffffff1673ffffffffffffffffffffffffffffffffffffffff166c01000000000000000000000000028152601401838152602001828152602001935050505060405180910390206000604051602001526040518263ffffffff167c0100000000000000000000000000000000000000000000000000000000028152600401808260001916600019168152602001915050602060405180830381600087803b151561124957600080fd5b6102c65a03f1151561125a57600080fd5b50505060405180519050151561126f57600080fd5b8473ffffffffffffffffffffffffffffffffffffffff16633eba9ed284848460405180807f70617469656e742f7363616e2d6170706f696e746d656e742f696e6465782f6981526020017f732d6163746976653f00000000000000000000000000000000000000000000008152506029018473ffffffffffffffffffffffffffffffffffffffff1673ffffffffffffffffffffffffffffffffffffffff166c010000000000000000000000000281526014018381526020018281526020019350505050604051809103902060006040518363ffffffff167c01000000000000000000000000000000000000000000000000000000000281526004018083600019166000191681526020018215151515815260200192505050600060405180830381600087803b15156113a057600080fd5b6102c65a03f115156113b157600080fd5b5050508473ffffffffffffffffffffffffffffffffffffffff16633eba9ed284848460405180807f70617469656e742f7363616e2d6170706f696e746d656e742f696e6465782f6981526020017f732d63616e63656c65643f000000000000000000000000000000000000000000815250602b018473ffffffffffffffffffffffffffffffffffffffff1673ffffffffffffffffffffffffffffffffffffffff166c010000000000000000000000000281526014018381526020018281526020019350505050604051809103902060016040518363ffffffff167c01000000000000000000000000000000000000000000000000000000000281526004018083600019166000191681526020018215151515815260200192505050600060405180830381600087803b15156114e557600080fd5b6102c65a03f115156114f657600080fd5b5050508473ffffffffffffffffffffffffffffffffffffffff16633eba9ed285848460405180807f64656e746973742f7363616e2d6170706f696e746d656e742f696e6465782f6981526020017f732d63616e63656c65643f000000000000000000000000000000000000000000815250602b018473ffffffffffffffffffffffffffffffffffffffff1673ffffffffffffffffffffffffffffffffffffffff166c010000000000000000000000000281526014018381526020018281526020019350505050604051809103902060016040518363ffffffff167c01000000000000000000000000000000000000000000000000000000000281526004018083600019166000191681526020018215151515815260200192505050600060405180830381600087803b151561162a57600080fd5b6102c65a03f1151561163b57600080fd5b50505060008473ffffffffffffffffffffffffffffffffffffffff161415156117e7578473ffffffffffffffffffffffffffffffffffffffff16633eba9ed28585858560405180807f64656e746973742f70617469656e742f7363616e2d6170706f696e746d656e7481526020017f2f696e6465782f69732d6578697374733f0000000000000000000000000000008152506031018573ffffffffffffffffffffffffffffffffffffffff1673ffffffffffffffffffffffffffffffffffffffff166c010000000000000000000000000281526014018473ffffffffffffffffffffffffffffffffffffffff1673ffffffffffffffffffffffffffffffffffffffff166c01000000000000000000000000028152601401838152602001828152602001945050505050604051809103902060006040518363ffffffff167c01000000000000000000000000000000000000000000000000000000000281526004018083600019166000191681526020018215151515815260200192505050600060405180830381600087803b15156117d257600080fd5b6102c65a03f115156117e357600080fd5b5050505b5050505050565b60008573ffffffffffffffffffffffffffffffffffffffff16637a0e03ec8686868660405180807f64656e746973742f70617469656e742f7363616e2d6170706f696e746d656e7481526020017f2f696e6465782f73746174757300000000000000000000000000000000000000815250602d018573ffffffffffffffffffffffffffffffffffffffff1673ffffffffffffffffffffffffffffffffffffffff166c010000000000000000000000000281526014018473ffffffffffffffffffffffffffffffffffffffff1673ffffffffffffffffffffffffffffffffffffffff166c0100000000000000000000000002815260140183815260200182815260200194505050505060405180910390206000604051602001526040518263ffffffff167c0100000000000000000000000000000000000000000000000000000000028152600401808260001916600019168152602001915050602060405180830381600087803b151561196057600080fd5b6102c65a03f1151561197157600080fd5b5050506040518051905060ff16148015611b1257508473ffffffffffffffffffffffffffffffffffffffff166317e7dd2285858585604051808573ffffffffffffffffffffffffffffffffffffffff1673ffffffffffffffffffffffffffffffffffffffff166c010000000000000000000000000281526014018473ffffffffffffffffffffffffffffffffffffffff1673ffffffffffffffffffffffffffffffffffffffff166c01000000000000000000000000028152601401838152602001828152602001807f64656e746973742f70617469656e742f7363616e2d6170706f696e746d656e7481526020017f2f696e6465782f69732d6578697374733f00000000000000000000000000000081525060310194505050505060405180910390206000604051602001526040518263ffffffff167c0100000000000000000000000000000000000000000000000000000000028152600401808260001916600019168152602001915050602060405180830381600087803b1515611af657600080fd5b6102c65a03f11515611b0757600080fd5b505050604051805190505b8015611c6257508473ffffffffffffffffffffffffffffffffffffffff166317e7dd2284848460405180807f70617469656e742f7363616e2d6170706f696e746d656e742f696e6465782f6981526020017f732d6163746976653f00000000000000000000000000000000000000000000008152506029018473ffffffffffffffffffffffffffffffffffffffff1673ffffffffffffffffffffffffffffffffffffffff166c01000000000000000000000000028152601401838152602001828152602001935050505060405180910390206000604051602001526040518263ffffffff167c0100000000000000000000000000000000000000000000000000000000028152600401808260001916600019168152602001915050602060405180830381600087803b1515611c4657600080fd5b6102c65a03f11515611c5757600080fd5b505050604051805190505b1515611c6d57600080fd5b8473ffffffffffffffffffffffffffffffffffffffff16633eba9ed284848460405180807f70617469656e742f7363616e2d6170706f696e746d656e742f696e6465782f6981526020017f732d6163746976653f00000000000000000000000000000000000000000000008152506029018473ffffffffffffffffffffffffffffffffffffffff1673ffffffffffffffffffffffffffffffffffffffff166c010000000000000000000000000281526014018381526020018281526020019350505050604051809103902060006040518363ffffffff167c01000000000000000000000000000000000000000000000000000000000281526004018083600019166000191681526020018215151515815260200192505050600060405180830381600087803b1515611d9e57600080fd5b6102c65a03f11515611daf57600080fd5b5050508473ffffffffffffffffffffffffffffffffffffffff16630bd851588585858560405180807f64656e746973742f70617469656e742f7363616e2d6170706f696e746d656e7481526020017f2f696e6465782f73746174757300000000000000000000000000000000000000815250602d018573ffffffffffffffffffffffffffffffffffffffff1673ffffffffffffffffffffffffffffffffffffffff166c010000000000000000000000000281526014018473ffffffffffffffffffffffffffffffffffffffff1673ffffffffffffffffffffffffffffffffffffffff166c01000000000000000000000000028152601401838152602001828152602001945050505050604051809103902060026040518363ffffffff167c01000000000000000000000000000000000000000000000000000000000281526004018083600019166000191681526020018260ff16815260200192505050600060405180830381600087803b1515611f2557600080fd5b6102c65a03f11515611f3657600080fd5b5050508473ffffffffffffffffffffffffffffffffffffffff16633eba9ed28585858560405180807f64656e746973742f70617469656e742f7363616e2d6170706f696e746d656e7481526020017f2f696e6465782f69732d6578697374733f0000000000000000000000000000008152506031018573ffffffffffffffffffffffffffffffffffffffff1673ffffffffffffffffffffffffffffffffffffffff166c010000000000000000000000000281526014018473ffffffffffffffffffffffffffffffffffffffff1673ffffffffffffffffffffffffffffffffffffffff166c01000000000000000000000000028152601401838152602001828152602001945050505050604051809103902060006040518363ffffffff167c01000000000000000000000000000000000000000000000000000000000281526004018083600019166000191681526020018215151515815260200192505050600060405180830381600087803b15156120ad57600080fd5b6102c65a03f115156120be57600080fd5b5050508473ffffffffffffffffffffffffffffffffffffffff16633eba9ed284848460405180807f70617469656e742f7363616e2d6170706f696e746d656e742f696e6465782f6981526020017f732d63616e63656c65643f000000000000000000000000000000000000000000815250602b018473ffffffffffffffffffffffffffffffffffffffff1673ffffffffffffffffffffffffffffffffffffffff166c010000000000000000000000000281526014018381526020018281526020019350505050604051809103902060016040518363ffffffff167c01000000000000000000000000000000000000000000000000000000000281526004018083600019166000191681526020018215151515815260200192505050600060405180830381600087803b15156121f257600080fd5b6102c65a03f1151561220357600080fd5b5050508473ffffffffffffffffffffffffffffffffffffffff16633eba9ed284848460405180807f70617469656e742f7363616e2d6170706f696e746d656e742f696e6465782f6981526020017f732d72656a65637465643f000000000000000000000000000000000000000000815250602b018473ffffffffffffffffffffffffffffffffffffffff1673ffffffffffffffffffffffffffffffffffffffff166c010000000000000000000000000281526014018381526020018281526020019350505050604051809103902060016040518363ffffffff167c01000000000000000000000000000000000000000000000000000000000281526004018083600019166000191681526020018215151515815260200192505050600060405180830381600087803b151561233757600080fd5b6102c65a03f1151561234857600080fd5b5050508473ffffffffffffffffffffffffffffffffffffffff16633eba9ed285848460405180807f64656e746973742f7363616e2d6170706f696e746d656e742f696e6465782f6981526020017f732d63616e63656c65643f000000000000000000000000000000000000000000815250602b018473ffffffffffffffffffffffffffffffffffffffff1673ffffffffffffffffffffffffffffffffffffffff166c010000000000000000000000000281526014018381526020018281526020019350505050604051809103902060016040518363ffffffff167c01000000000000000000000000000000000000000000000000000000000281526004018083600019166000191681526020018215151515815260200192505050600060405180830381600087803b151561247c57600080fd5b6102c65a03f1151561248d57600080fd5b5050508473ffffffffffffffffffffffffffffffffffffffff16633eba9ed285848460405180807f64656e746973742f7363616e2d6170706f696e746d656e742f696e6465782f6981526020017f732d72656a65637465643f000000000000000000000000000000000000000000815250602b018473ffffffffffffffffffffffffffffffffffffffff1673ffffffffffffffffffffffffffffffffffffffff166c010000000000000000000000000281526014018381526020018281526020019350505050604051809103902060016040518363ffffffff167c01000000000000000000000000000000000000000000000000000000000281526004018083600019166000191681526020018215151515815260200192505050600060405180830381600087803b15156125c157600080fd5b6102c65a03f115156125d257600080fd5b5050505050505050565b600061261e89886040805190810160405280601f81526020017f70617469656e742f7363616e2d6170706f696e746d656e74732d636f756e7400815250613617565b90508873ffffffffffffffffffffffffffffffffffffffff166317e7dd2288888460405180807f70617469656e742f7363616e2d6170706f696e746d656e742f696e6465782f6981526020017f732d6163746976653f00000000000000000000000000000000000000000000008152506029018473ffffffffffffffffffffffffffffffffffffffff1673ffffffffffffffffffffffffffffffffffffffff166c01000000000000000000000000028152601401838152602001828152602001935050505060405180910390206000604051602001526040518263ffffffff167c0100000000000000000000000000000000000000000000000000000000028152600401808260001916600019168152602001915050602060405180830381600087803b151561274d57600080fd5b6102c65a03f1151561275e57600080fd5b5050506040518051905015151561277457600080fd5b6127848988888489898989613761565b60008873ffffffffffffffffffffffffffffffffffffffff1614156128ed578873ffffffffffffffffffffffffffffffffffffffff16633eba9ed288888460405180807f70617469656e742f7363616e2d6170706f696e746d656e742f696e6465782f6981526020017f732d67656e6572616c3f00000000000000000000000000000000000000000000815250602a018473ffffffffffffffffffffffffffffffffffffffff1673ffffffffffffffffffffffffffffffffffffffff166c010000000000000000000000000281526014018381526020018281526020019350505050604051809103902060016040518363ffffffff167c01000000000000000000000000000000000000000000000000000000000281526004018083600019166000191681526020018215151515815260200192505050600060405180830381600087803b15156128d457600080fd5b6102c65a03f115156128e557600080fd5b505050612d5c565b8873ffffffffffffffffffffffffffffffffffffffff16630bd851588989898560405180807f64656e746973742f70617469656e742f7363616e2d6170706f696e746d656e7481526020017f2f696e6465782f73746174757300000000000000000000000000000000000000815250602d018573ffffffffffffffffffffffffffffffffffffffff1673ffffffffffffffffffffffffffffffffffffffff166c010000000000000000000000000281526014018473ffffffffffffffffffffffffffffffffffffffff1673ffffffffffffffffffffffffffffffffffffffff166c01000000000000000000000000028152601401838152602001828152602001945050505050604051809103902060006040518363ffffffff167c01000000000000000000000000000000000000000000000000000000000281526004018083600019166000191681526020018260ff16815260200192505050600060405180830381600087803b1515612a6057600080fd5b6102c65a03f11515612a7157600080fd5b5050508873ffffffffffffffffffffffffffffffffffffffff16635a2bf25a89888460405180807f64656e746973742f7363616e2d6170706f696e746d656e742f696e6465782f7081526020017f617469656e7400000000000000000000000000000000000000000000000000008152506026018473ffffffffffffffffffffffffffffffffffffffff1673ffffffffffffffffffffffffffffffffffffffff166c0100000000000000000000000002815260140183815260200182815260200193505050506040518091039020896040518363ffffffff167c01000000000000000000000000000000000000000000000000000000000281526004018083600019166000191681526020018273ffffffffffffffffffffffffffffffffffffffff1673ffffffffffffffffffffffffffffffffffffffff16815260200192505050600060405180830381600087803b1515612bcc57600080fd5b6102c65a03f11515612bdd57600080fd5b5050508873ffffffffffffffffffffffffffffffffffffffff16633562fd2089898460405180807f64656e746973742f70617469656e742f70617469656e742d7363616e2d61707081526020017f6f696e746d656e742d696e6465782f7363616e2d6170706f696e746d656e7400815250603f018473ffffffffffffffffffffffffffffffffffffffff1673ffffffffffffffffffffffffffffffffffffffff166c010000000000000000000000000281526014018373ffffffffffffffffffffffffffffffffffffffff1673ffffffffffffffffffffffffffffffffffffffff166c0100000000000000000000000002815260140182815260200193505050506040518091039020886040518363ffffffff167c010000000000000000000000000000000000000000000000000000000002815260040180836000191660001916815260200182815260200192505050600060405180830381600087803b1515612d4757600080fd5b6102c65a03f11515612d5857600080fd5b5050505b505050505050505050565b8673ffffffffffffffffffffffffffffffffffffffff16633eba9ed286868660405180807f70617469656e742f7363616e2d6170706f696e746d656e742f696e6465782f6981526020017f732d61636365707465643f000000000000000000000000000000000000000000815250602b018473ffffffffffffffffffffffffffffffffffffffff1673ffffffffffffffffffffffffffffffffffffffff166c010000000000000000000000000281526014018381526020018281526020019350505050604051809103902060016040518363ffffffff167c01000000000000000000000000000000000000000000000000000000000281526004018083600019166000191681526020018215151515815260200192505050600060405180830381600087803b1515612e9857600080fd5b6102c65a03f11515612ea957600080fd5b5050508673ffffffffffffffffffffffffffffffffffffffff16633eba9ed287868660405180807f64656e746973742f7363616e2d6170706f696e746d656e742f696e6465782f6981526020017f732d61636365707465643f000000000000000000000000000000000000000000815250602b018473ffffffffffffffffffffffffffffffffffffffff1673ffffffffffffffffffffffffffffffffffffffff166c010000000000000000000000000281526014018381526020018281526020019350505050604051809103902060016040518363ffffffff167c01000000000000000000000000000000000000000000000000000000000281526004018083600019166000191681526020018215151515815260200192505050600060405180830381600087803b1515612fdd57600080fd5b6102c65a03f11515612fee57600080fd5b5050508673ffffffffffffffffffffffffffffffffffffffff16630bd851588787878760405180807f64656e746973742f70617469656e742f7363616e2d6170706f696e746d656e7481526020017f2f696e6465782f73746174757300000000000000000000000000000000000000815250602d018573ffffffffffffffffffffffffffffffffffffffff1673ffffffffffffffffffffffffffffffffffffffff166c010000000000000000000000000281526014018473ffffffffffffffffffffffffffffffffffffffff1673ffffffffffffffffffffffffffffffffffffffff166c01000000000000000000000000028152601401838152602001828152602001945050505050604051809103902060016040518363ffffffff167c01000000000000000000000000000000000000000000000000000000000281526004018083600019166000191681526020018260ff16815260200192505050600060405180830381600087803b151561316457600080fd5b6102c65a03f1151561317557600080fd5b5050508673ffffffffffffffffffffffffffffffffffffffff166325cf512d8787878760405180807f64656e746973742f70617469656e742f7363616e2d6170706f696e746d656e7481526020017f2f696e6465782f636f6d6d656e74000000000000000000000000000000000000815250602e018573ffffffffffffffffffffffffffffffffffffffff1673ffffffffffffffffffffffffffffffffffffffff166c010000000000000000000000000281526014018473ffffffffffffffffffffffffffffffffffffffff1673ffffffffffffffffffffffffffffffffffffffff166c010000000000000000000000000281526014018381526020018281526020019450505050506040518091039020836040518363ffffffff167c0100000000000000000000000000000000000000000000000000000000028152600401808360001916600019168152602001826000191660001916815260200192505050600060405180830381600087803b15156132ef57600080fd5b6102c65a03f1151561330057600080fd5b5050508673ffffffffffffffffffffffffffffffffffffffff16633562fd208787878760405180807f64656e746973742f70617469656e742f7363616e2d6170706f696e746d656e7481526020017f2f696e6465782f71756f74650000000000000000000000000000000000000000815250602c018573ffffffffffffffffffffffffffffffffffffffff1673ffffffffffffffffffffffffffffffffffffffff166c010000000000000000000000000281526014018473ffffffffffffffffffffffffffffffffffffffff1673ffffffffffffffffffffffffffffffffffffffff166c010000000000000000000000000281526014018381526020018281526020019450505050506040518091039020846040518363ffffffff167c010000000000000000000000000000000000000000000000000000000002815260040180836000191660001916815260200182815260200192505050600060405180830381600087803b151561347257600080fd5b6102c65a03f1151561348357600080fd5b5050508673ffffffffffffffffffffffffffffffffffffffff16633eba9ed28787878760405180807f64656e746973742f70617469656e742f7363616e2d6170706f696e746d656e7481526020017f2f696e6465782f69732d63616e63656c65643f000000000000000000000000008152506033018573ffffffffffffffffffffffffffffffffffffffff1673ffffffffffffffffffffffffffffffffffffffff166c010000000000000000000000000281526014018473ffffffffffffffffffffffffffffffffffffffff1673ffffffffffffffffffffffffffffffffffffffff166c01000000000000000000000000028152601401838152602001828152602001945050505050604051809103902060006040518363ffffffff167c01000000000000000000000000000000000000000000000000000000000281526004018083600019166000191681526020018215151515815260200192505050600060405180830381600087803b15156135fa57600080fd5b6102c65a03f1151561360b57600080fd5b50505050505050505050565b60008373ffffffffffffffffffffffffffffffffffffffff1663bdc963d883856040518083805190602001908083835b60208310151561366c5780518252602082019150602081019050602083039250613647565b6001836020036101000a0380198251168184511680821785525050505050509050018273ffffffffffffffffffffffffffffffffffffffff1673ffffffffffffffffffffffffffffffffffffffff166c010000000000000000000000000281526014019250505060405180910390206000604051602001526040518263ffffffff167c0100000000000000000000000000000000000000000000000000000000028152600401808260001916600019168152602001915050602060405180830381600087803b151561373d57600080fd5b6102c65a03f1151561374e57600080fd5b5050506040518051905090509392505050565b6137d98888876040805190810160405280601881526020017f70617469656e742f7363616e2d6170706f696e746d656e7400000000000000008152506040805190810160405280601f81526020017f70617469656e742f7363616e2d6170706f696e746d656e74732d636f756e74008152508b61428e565b6138518887876040805190810160405280601881526020017f7363616e2d6170706f696e746d656e742f70617469656e7400000000000000008152506040805190810160405280601f81526020017f7363616e2d6170706f696e746d656e742f70617469656e74732d636f756e74008152508c6147cd565b8773ffffffffffffffffffffffffffffffffffffffff166325cf512d88888860405180807f70617469656e742f7363616e2d6170706f696e746d656e742f696e6465782f6181526020017f70706f696e746d656e742d646174650000000000000000000000000000000000815250602f018473ffffffffffffffffffffffffffffffffffffffff1673ffffffffffffffffffffffffffffffffffffffff166c0100000000000000000000000002815260140183815260200182815260200193505050506040518091039020866040518363ffffffff167c0100000000000000000000000000000000000000000000000000000000028152600401808360001916600019168152602001826000191660001916815260200192505050600060405180830381600087803b151561398557600080fd5b6102c65a03f1151561399657600080fd5b5050508773ffffffffffffffffffffffffffffffffffffffff166325cf512d88888860405180807f70617469656e742f7363616e2d6170706f696e746d656e742f696e6465782f6181526020017f70706f696e746d656e742d74696d650000000000000000000000000000000000815250602f018473ffffffffffffffffffffffffffffffffffffffff1673ffffffffffffffffffffffffffffffffffffffff166c0100000000000000000000000002815260140183815260200182815260200193505050506040518091039020856040518363ffffffff167c0100000000000000000000000000000000000000000000000000000000028152600401808360001916600019168152602001826000191660001916815260200192505050600060405180830381600087803b1515613acd57600080fd5b6102c65a03f11515613ade57600080fd5b5050508773ffffffffffffffffffffffffffffffffffffffff166325cf512d88888860405180807f70617469656e742f7363616e2d6170706f696e746d656e742f696e6465782f6181526020017f70706f696e746d656e742d696e737572616e63650000000000000000000000008152506034018473ffffffffffffffffffffffffffffffffffffffff1673ffffffffffffffffffffffffffffffffffffffff166c0100000000000000000000000002815260140183815260200182815260200193505050506040518091039020846040518363ffffffff167c0100000000000000000000000000000000000000000000000000000000028152600401808360001916600019168152602001826000191660001916815260200192505050600060405180830381600087803b1515613c1557600080fd5b6102c65a03f11515613c2657600080fd5b5050508773ffffffffffffffffffffffffffffffffffffffff166325cf512d88888860405180807f70617469656e742f7363616e2d6170706f696e746d656e742f696e6465782f6181526020017f70706f696e746d656e742d636f6d6d656e7400000000000000000000000000008152506032018473ffffffffffffffffffffffffffffffffffffffff1673ffffffffffffffffffffffffffffffffffffffff166c0100000000000000000000000002815260140183815260200182815260200193505050506040518091039020836040518363ffffffff167c0100000000000000000000000000000000000000000000000000000000028152600401808360001916600019168152602001826000191660001916815260200192505050600060405180830381600087803b1515613d5d57600080fd5b6102c65a03f11515613d6e57600080fd5b5050508773ffffffffffffffffffffffffffffffffffffffff16633eba9ed288888860405180807f70617469656e742f7363616e2d6170706f696e746d656e742f696e6465782f6981526020017f732d6163746976653f00000000000000000000000000000000000000000000008152506029018473ffffffffffffffffffffffffffffffffffffffff1673ffffffffffffffffffffffffffffffffffffffff166c010000000000000000000000000281526014018381526020018281526020019350505050604051809103902060016040518363ffffffff167c01000000000000000000000000000000000000000000000000000000000281526004018083600019166000191681526020018215151515815260200192505050600060405180830381600087803b1515613ea257600080fd5b6102c65a03f11515613eb357600080fd5b5050508773ffffffffffffffffffffffffffffffffffffffff16633eba9ed288888860405180807f70617469656e742f7363616e2d6170706f696e746d656e742f696e6465782f6981526020017f732d657870697265643f00000000000000000000000000000000000000000000815250602a018473ffffffffffffffffffffffffffffffffffffffff1673ffffffffffffffffffffffffffffffffffffffff166c010000000000000000000000000281526014018381526020018281526020019350505050604051809103902060006040518363ffffffff167c01000000000000000000000000000000000000000000000000000000000281526004018083600019166000191681526020018215151515815260200192505050600060405180830381600087803b1515613fe757600080fd5b6102c65a03f11515613ff857600080fd5b5050508773ffffffffffffffffffffffffffffffffffffffff16633eba9ed288888860405180807f70617469656e742f7363616e2d6170706f696e746d656e742f696e6465782f6981526020017f732d63616e63656c65643f000000000000000000000000000000000000000000815250602b018473ffffffffffffffffffffffffffffffffffffffff1673ffffffffffffffffffffffffffffffffffffffff166c010000000000000000000000000281526014018381526020018281526020019350505050604051809103902060006040518363ffffffff167c01000000000000000000000000000000000000000000000000000000000281526004018083600019166000191681526020018215151515815260200192505050600060405180830381600087803b151561412c57600080fd5b6102c65a03f1151561413d57600080fd5b5050508773ffffffffffffffffffffffffffffffffffffffff16630bd8515888888860405180807f70617469656e742f7363616e2d6170706f696e746d656e742f696e6465782f7381526020017f74617475730000000000000000000000000000000000000000000000000000008152506025018473ffffffffffffffffffffffffffffffffffffffff1673ffffffffffffffffffffffffffffffffffffffff166c010000000000000000000000000281526014018381526020018281526020019350505050604051809103902060006040518363ffffffff167c01000000000000000000000000000000000000000000000000000000000281526004018083600019166000191681526020018260ff16815260200192505050600060405180830381600087803b151561427057600080fd5b6102c65a03f1151561428157600080fd5b5050505050505050505050565b600061429b878785613617565b90508673ffffffffffffffffffffffffffffffffffffffff16633562fd208588846040518084805190602001908083835b6020831015156142f157805182526020820191506020810190506020830392506142cc565b6001836020036101000a0380198251168184511680821785525050505050509050018373ffffffffffffffffffffffffffffffffffffffff1673ffffffffffffffffffffffffffffffffffffffff166c0100000000000000000000000002815260140182815260200193505050506040518091039020846040518363ffffffff167c010000000000000000000000000000000000000000000000000000000002815260040180836000191660001916815260200182815260200192505050600060405180830381600087803b15156143c857600080fd5b6102c65a03f115156143d957600080fd5b5050508673ffffffffffffffffffffffffffffffffffffffff16633562fd20858884896040518085805190602001908083835b602083101515614431578051825260208201915060208101905060208303925061440c565b6001836020036101000a0380198251168184511680821785525050505050509050018473ffffffffffffffffffffffffffffffffffffffff1673ffffffffffffffffffffffffffffffffffffffff166c010000000000000000000000000281526014018381526020018281526020019450505050506040518091039020846040518363ffffffff167c010000000000000000000000000000000000000000000000000000000002815260040180836000191660001916815260200182815260200192505050600060405180830381600087803b151561450f57600080fd5b6102c65a03f1151561452057600080fd5b5050508673ffffffffffffffffffffffffffffffffffffffff16633562fd208588846040518084805190602001908083835b6020831015156145775780518252602082019150602081019050602083039250614552565b6001836020036101000a0380198251168184511680821785525050505050509050018373ffffffffffffffffffffffffffffffffffffffff1673ffffffffffffffffffffffffffffffffffffffff166c01000000000000000000000000028152601401828152602001807f696e64657800000000000000000000000000000000000000000000000000000081525060050193505050506040518091039020876040518363ffffffff167c010000000000000000000000000000000000000000000000000000000002815260040180836000191660001916815260200182815260200192505050600060405180830381600087803b151561467657600080fd5b6102c65a03f1151561468757600080fd5b5050508673ffffffffffffffffffffffffffffffffffffffff16633562fd2084886040518083805190602001908083835b6020831015156146dd57805182526020820191506020810190506020830392506146b8565b6001836020036101000a0380198251168184511680821785525050505050509050018273ffffffffffffffffffffffffffffffffffffffff1673ffffffffffffffffffffffffffffffffffffffff166c01000000000000000000000000028152601401925050506040518091039020600184016040518363ffffffff167c010000000000000000000000000000000000000000000000000000000002815260040180836000191660001916815260200182815260200192505050600060405180830381600087803b15156147b057600080fd5b6102c65a03f115156147c157600080fd5b50505050505050505050565b60006147da878785614c78565b90508673ffffffffffffffffffffffffffffffffffffffff16635a2bf25a8588846040518084805190602001908083835b602083101515614830578051825260208201915060208101905060208303925061480b565b6001836020036101000a03801982511681845116808217855250505050505090500183815260200182815260200193505050506040518091039020846040518363ffffffff167c01000000000000000000000000000000000000000000000000000000000281526004018083600019166000191681526020018273ffffffffffffffffffffffffffffffffffffffff1673ffffffffffffffffffffffffffffffffffffffff16815260200192505050600060405180830381600087803b15156148f857600080fd5b6102c65a03f1151561490957600080fd5b5050508673ffffffffffffffffffffffffffffffffffffffff16635a2bf25a858884896040518085805190602001908083835b602083101515614961578051825260208201915060208101905060208303925061493c565b6001836020036101000a0380198251168184511680821785525050505050509050018481526020018381526020018281526020019450505050506040518091039020846040518363ffffffff167c01000000000000000000000000000000000000000000000000000000000281526004018083600019166000191681526020018273ffffffffffffffffffffffffffffffffffffffff1673ffffffffffffffffffffffffffffffffffffffff16815260200192505050600060405180830381600087803b1515614a3057600080fd5b6102c65a03f11515614a4157600080fd5b5050508673ffffffffffffffffffffffffffffffffffffffff16633562fd208588846040518084805190602001908083835b602083101515614a985780518252602082019150602081019050602083039250614a73565b6001836020036101000a038019825116818451168082178552505050505050905001838152602001828152602001807f696e64657800000000000000000000000000000000000000000000000000000081525060050193505050506040518091039020876040518363ffffffff167c010000000000000000000000000000000000000000000000000000000002815260040180836000191660001916815260200182815260200192505050600060405180830381600087803b1515614b5c57600080fd5b6102c65a03f11515614b6d57600080fd5b5050508673ffffffffffffffffffffffffffffffffffffffff16633562fd2084886040518083805190602001908083835b602083101515614bc35780518252602082019150602081019050602083039250614b9e565b6001836020036101000a038019825116818451168082178552505050505050905001828152602001925050506040518091039020600184016040518363ffffffff167c010000000000000000000000000000000000000000000000000000000002815260040180836000191660001916815260200182815260200192505050600060405180830381600087803b1515614c5b57600080fd5b6102c65a03f11515614c6c57600080fd5b50505050505050505050565b60008373ffffffffffffffffffffffffffffffffffffffff1663bdc963d883856040518083805190602001908083835b602083101515614ccd5780518252602082019150602081019050602083039250614ca8565b6001836020036101000a0380198251168184511680821785525050505050509050018281526020019250505060405180910390206000604051602001526040518263ffffffff167c0100000000000000000000000000000000000000000000000000000000028152600401808260001916600019168152602001915050602060405180830381600087803b1515614d6357600080fd5b6102c65a03f11515614d7457600080fd5b50505060405180519050905093925050505600a165627a7a72305820884756ac25c6f05b6f2d30c27a8a8c7a74766b7dbeb3725ec4c9ca91158a14250029",
  "source": "pragma solidity 0.4.18;\nimport \"./Restrictor.sol\";\nimport \"../lib/odll/userManager.sol\";\n\ncontract ScanAppointmentWriter is Restrictor {\n\n  function ScanAppointmentWriter(address _dbAddress) public {\n    require(_dbAddress != 0x0);\n    dbAddress = _dbAddress;\n  }\n\n  function writeScanAppointment (\n    address dentistId,\n    uint scanAppointmentId,\n    bytes32 appointmentDate,\n    bytes32 scanTime,\n    bytes32 scanInsurance,\n    bytes32 scanComment\n  )\n    external\n    onlyPermittedSmartContract\n  {\n    userManager.writeScanAppointment(dbAddress, dentistId, msg.sender, scanAppointmentId, appointmentDate, scanTime, scanInsurance, scanComment);\n  }\n\n  function cancelScanAppointment (\n    address dentistId,\n    uint scanAppointmentId,\n    uint patientScanAppointmentIndexNumber\n  )\n    external\n    onlyPermittedSmartContract\n  {\n    userManager.cancelScanAppointment(dbAddress, dentistId, msg.sender, scanAppointmentId, patientScanAppointmentIndexNumber);\n  }\n\n  function expireScanAppointment (\n    address dentistId,\n    address patientId,\n    uint scanAppointmentId,\n    uint patientScanAppointmentIndexNumber\n  )\n    external\n    onlyPermittedSmartContract\n  {\n    userManager.expireScanAppointment(dbAddress, dentistId, patientId, scanAppointmentId, patientScanAppointmentIndexNumber);\n  }\n\n  function acceptScanAppointment (\n    address patientId,\n    uint scanAppointmentId,\n    uint patientScanAppointmentIndexNumber,\n    uint quote,\n    bytes32 comment\n  )\n    external\n    onlyPermittedSmartContract\n  {\n    userManager.acceptScanAppointment(dbAddress, msg.sender, patientId, scanAppointmentId, patientScanAppointmentIndexNumber, quote, comment);\n  }\n\n  function rejectScanAppointment (\n    address patientId,\n    uint scanAppointmentId,\n    uint patientScanAppointmentIndexNumber\n  )\n    external\n    onlyPermittedSmartContract\n  {\n    userManager.rejectScanAppointment(dbAddress, msg.sender, patientId, scanAppointmentId, patientScanAppointmentIndexNumber);\n  }\n}\n",
  "sourcePath": "/home/daniel/dev/vue/apps/oral-data-link/contracts/odll/ScanAppointmentWriter.sol",
  "compiler": {
    "name": "solc",
    "version": "0.4.18+commit.9cf6e910.Emscripten.clang"
  },
  "schemaVersion": "1.0.1",
  "updatedAt": "2017-11-06T15:50:54.431Z"
}