{
  "contractName": "ScanApplicationWriter2",
  "abi": [
    {
      "constant": false,
      "inputs": [
        {
          "name": "userId",
          "type": "address"
        },
        {
          "name": "paymentId",
          "type": "uint256"
        }
      ],
      "name": "lockPayment",
      "outputs": [
        {
          "name": "",
          "type": "uint8"
        }
      ],
      "payable": false,
      "stateMutability": "nonpayable",
      "type": "function"
    },
    {
      "constant": true,
      "inputs": [],
      "name": "smartContractStatus",
      "outputs": [
        {
          "name": "",
          "type": "uint8"
        }
      ],
      "payable": false,
      "stateMutability": "view",
      "type": "function"
    },
    {
      "constant": true,
      "inputs": [],
      "name": "owner",
      "outputs": [
        {
          "name": "",
          "type": "address"
        }
      ],
      "payable": false,
      "stateMutability": "view",
      "type": "function"
    },
    {
      "constant": true,
      "inputs": [
        {
          "name": "dentistId",
          "type": "address"
        },
        {
          "name": "scanApplicationId",
          "type": "uint256"
        },
        {
          "name": "quote",
          "type": "uint256"
        }
      ],
      "name": "dbAddress",
      "outputs": [
        {
          "name": "",
          "type": "address"
        }
      ],
      "payable": false,
      "stateMutability": "view",
      "type": "function"
    },
    {
      "constant": false,
      "inputs": [
        {
          "name": "dentistId",
          "type": "address"
        },
        {
          "name": "scanApplicationId",
          "type": "uint256"
        },
        {
          "name": "quote",
          "type": "uint256"
        }
      ],
      "name": "acceptScanApplication",
      "outputs": [],
      "payable": true,
      "stateMutability": "payable",
      "type": "function"
    },
    {
      "inputs": [
        {
          "name": "newOwner",
          "type": "address"
        }
      ],
      "payable": false,
      "stateMutability": "nonpayable",
      "type": "function",
      "constant": false,
      "name": "transferOwnership",
      "outputs": []
    },
    {
      "anonymous": false,
      "inputs": [
        {
          "indexed": false,
          "name": "_dbAddress",
          "type": "address"
        }
      ],
      "name": "OnSmartContractStatusSet",
      "type": "constructor",
      "payable": false,
      "stateMutability": "nonpayable"
    },
    {
      "anonymous": false,
      "inputs": [
        {
          "indexed": false,
          "name": "paymentId",
          "type": "uint256"
        },
        {
          "indexed": true,
          "name": "newOwner",
          "type": "address"
        }
      ],
      "name": "PaymentLocked",
      "type": "event"
    },
    {
      "anonymous": false,
      "inputs": [
        {
          "indexed": false,
          "name": "status",
          "type": "uint8"
        }
      ],
      "name": "OnSmartContractStatusSet",
      "type": "event"
    },
    {
      "anonymous": false,
      "inputs": [
        {
          "indexed": true,
          "name": "previousOwner",
          "type": "address"
        },
        {
          "indexed": true,
          "name": "newOwner",
          "type": "address"
        }
      ],
      "name": "OwnershipTransferred",
      "type": "event"
    }
  ],
  "bytecode": "0x6060604052341561000f57600080fd5b6040516020806132b483398101604052808051906020019091905050336000806101000a81548173ffffffffffffffffffffffffffffffffffffffff021916908373ffffffffffffffffffffffffffffffffffffffff16021790555060008173ffffffffffffffffffffffffffffffffffffffff161415151561009157600080fd5b80600160006101000a81548173ffffffffffffffffffffffffffffffffffffffff021916908373ffffffffffffffffffffffffffffffffffffffff160217905550506131d2806100e26000396000f300606060405260043610610078576000357c0100000000000000000000000000000000000000000000000000000000900463ffffffff1680633f4b14701461007d5780634c8ddddc146100bf5780638da5cb5b146100ee57806391e06b6d14610143578063d6ff529a14610198578063f2fde38b146101d8575b600080fd5b341561008857600080fd5b6100bd600480803573ffffffffffffffffffffffffffffffffffffffff16906020019091908035906020019091905050610211565b005b34156100ca57600080fd5b6100d2610468565b604051808260ff1660ff16815260200191505060405180910390f35b34156100f957600080fd5b61010161047b565b604051808273ffffffffffffffffffffffffffffffffffffffff1673ffffffffffffffffffffffffffffffffffffffff16815260200191505060405180910390f35b341561014e57600080fd5b6101566104a0565b604051808273ffffffffffffffffffffffffffffffffffffffff1673ffffffffffffffffffffffffffffffffffffffff16815260200191505060405180910390f35b6101d6600480803573ffffffffffffffffffffffffffffffffffffffff169060200190919080359060200190919080359060200190919050506104c6565b005b34156101e357600080fd5b61020f600480803573ffffffffffffffffffffffffffffffffffffffff1690602001909190505061084c565b005b8161021b816109a1565b151561022657600080fd5b8160018060ff16600160009054906101000a900473ffffffffffffffffffffffffffffffffffffffff1673ffffffffffffffffffffffffffffffffffffffff16637a0e03ec8460405180807f7061796d656e742f737461746500000000000000000000000000000000000000815250600d0182815260200191505060405180910390206000604051602001526040518263ffffffff167c0100000000000000000000000000000000000000000000000000000000028152600401808260001916600019168152602001915050602060405180830381600087803b151561030b57600080fd5b6102c65a03f1151561031c57600080fd5b5050506040518051905060ff1614151561033557600080fd5b600160009054906101000a900473ffffffffffffffffffffffffffffffffffffffff1673ffffffffffffffffffffffffffffffffffffffff16630bd851588560405180807f7061796d656e742f737461746500000000000000000000000000000000000000815250600d01828152602001915050604051809103902060026040518363ffffffff167c01000000000000000000000000000000000000000000000000000000000281526004018083600019166000191681526020018260ff16815260200192505050600060405180830381600087803b151561041657600080fd5b6102c65a03f1151561042757600080fd5b5050507fa5f78a79f83dfad686a63ca003a42f6c262d9fdc43a6742c56f5c27c11b9a1e2846040518082815260200191505060405180910390a15050505050565b600160149054906101000a900460ff1681565b6000809054906101000a900473ffffffffffffffffffffffffffffffffffffffff1681565b600160009054906101000a900473ffffffffffffffffffffffffffffffffffffffff1681565b6000806000806000600160149054906101000a900460ff1660ff161415156104ed57600080fd5b600160009054906101000a900473ffffffffffffffffffffffffffffffffffffffff1673ffffffffffffffffffffffffffffffffffffffff16634c77e5ba60405180807f6f646c6c2f657363726f772d6164647265737300000000000000000000000000815250601301905060405180910390206000604051602001526040518263ffffffff167c0100000000000000000000000000000000000000000000000000000000028152600401808260001916600019168152602001915050602060405180830381600087803b15156105c357600080fd5b6102c65a03f115156105d457600080fd5b50505060405180519050935060008473ffffffffffffffffffffffffffffffffffffffff161415151561060657600080fd5b34925084831015151561061857600080fd5b84831115610670578291508492503373ffffffffffffffffffffffffffffffffffffffff166108fc61064a84886109c8565b9081150290604051600060405180830381858888f19350505050151561066f57600080fd5b5b6106d1600160009054906101000a900473ffffffffffffffffffffffffffffffffffffffff166040805190810160405280600e81526020017f7061796d656e74732d636f756e740000000000000000000000000000000000008152506109e1565b9050600160009054906101000a900473ffffffffffffffffffffffffffffffffffffffff1673ffffffffffffffffffffffffffffffffffffffff16630bd851588260405180807f7061796d656e742f666f722d7479706500000000000000000000000000000000815250601001828152602001915050604051809103902060016040518363ffffffff167c01000000000000000000000000000000000000000000000000000000000281526004018083600019166000191681526020018260ff16815260200192505050600060405180830381600087803b15156107b457600080fd5b6102c65a03f115156107c557600080fd5b5050506107f9600160009054906101000a900473ffffffffffffffffffffffffffffffffffffffff1688338985888b610ae7565b6108033382610211565b8373ffffffffffffffffffffffffffffffffffffffff166108fc849081150290604051600060405180830381858888f19350505050151561084357600080fd5b50505050505050565b6000809054906101000a900473ffffffffffffffffffffffffffffffffffffffff1673ffffffffffffffffffffffffffffffffffffffff163373ffffffffffffffffffffffffffffffffffffffff161415156108a757600080fd5b600073ffffffffffffffffffffffffffffffffffffffff168173ffffffffffffffffffffffffffffffffffffffff16141515156108e357600080fd5b8073ffffffffffffffffffffffffffffffffffffffff166000809054906101000a900473ffffffffffffffffffffffffffffffffffffffff1673ffffffffffffffffffffffffffffffffffffffff167f8be0079c531659141344cd1fd0a4f28419497f9722a3daafe3b4186f6b6457e060405160405180910390a3806000806101000a81548173ffffffffffffffffffffffffffffffffffffffff021916908373ffffffffffffffffffffffffffffffffffffffff16021790555050565b60006109ae826001610aff565b80156109c157506109c0826001610b1a565b5b9050919050565b60008282111515156109d657fe5b818303905092915050565b60008273ffffffffffffffffffffffffffffffffffffffff1663bdc963d8836040518082805190602001908083835b602083101515610a355780518252602082019150602081019050602083039250610a10565b6001836020036101000a03801982511681845116808217855250505050505090500191505060405180910390206000604051602001526040518263ffffffff167c0100000000000000000000000000000000000000000000000000000000028152600401808260001916600019168152602001915050602060405180830381600087803b1515610ac457600080fd5b6102c65a03f11515610ad557600080fd5b50505060405180519050905092915050565b610af687878787878787610b35565b50505050505050565b6000610b0a836115b4565b60ff168260ff1614905092915050565b6000610b25836116f1565b60ff168260ff1614905092915050565b6000806000610b798a6040805190810160405280600b81526020017f63617365732d636f756e740000000000000000000000000000000000000000008152506109e1565b92508973ffffffffffffffffffffffffffffffffffffffff16630bd851588760405180807f7061796d656e742f737461746500000000000000000000000000000000000000815250600d01828152602001915050604051809103902060016040518363ffffffff167c01000000000000000000000000000000000000000000000000000000000281526004018083600019166000191681526020018260ff16815260200192505050600060405180830381600087803b1515610c3a57600080fd5b6102c65a03f11515610c4b57600080fd5b5050508973ffffffffffffffffffffffffffffffffffffffff1663bdc963d88860405180807f7363616e2d6170706c69636174696f6e2f7363616e2d72657175657374000000815250601d0182815260200191505060405180910390206000604051602001526040518263ffffffff167c0100000000000000000000000000000000000000000000000000000000028152600401808260001916600019168152602001915050602060405180830381600087803b1515610d0a57600080fd5b6102c65a03f11515610d1b57600080fd5b50505060405180519050915060008a73ffffffffffffffffffffffffffffffffffffffff16637a0e03ec8560405180807f636173652f737461747573000000000000000000000000000000000000000000815250600b0182815260200191505060405180910390206000604051602001526040518263ffffffff167c0100000000000000000000000000000000000000000000000000000000028152600401808260001916600019168152602001915050602060405180830381600087803b1515610de557600080fd5b6102c65a03f11515610df657600080fd5b5050506040518051905060ff16148015610ee9575060018a73ffffffffffffffffffffffffffffffffffffffff16637a0e03ec8960405180807f7363616e2d6170706c69636174696f6e2f73746174757300000000000000000081525060170182815260200191505060405180910390206000604051602001526040518263ffffffff167c0100000000000000000000000000000000000000000000000000000000028152600401808260001916600019168152602001915050602060405180830381600087803b1515610ec957600080fd5b6102c65a03f11515610eda57600080fd5b5050506040518051905060ff16145b8015610fce575060018a73ffffffffffffffffffffffffffffffffffffffff16637a0e03ec8460405180807f7363616e2d726571756573742f7374617475730000000000000000000000000081525060130182815260200191505060405180910390206000604051602001526040518263ffffffff167c0100000000000000000000000000000000000000000000000000000000028152600401808260001916600019168152602001915050602060405180830381600087803b1515610fae57600080fd5b6102c65a03f11515610fbf57600080fd5b5050506040518051905060ff16145b80156110db57508773ffffffffffffffffffffffffffffffffffffffff168a73ffffffffffffffffffffffffffffffffffffffff16634c77e5ba8460405180807f7363616e2d726571756573742f70617469656e7400000000000000000000000081525060140182815260200191505060405180910390206000604051602001526040518263ffffffff167c0100000000000000000000000000000000000000000000000000000000028152600401808260001916600019168152602001915050602060405180830381600087803b15156110a857600080fd5b6102c65a03f115156110b957600080fd5b5050506040518051905073ffffffffffffffffffffffffffffffffffffffff16145b80156111e857508873ffffffffffffffffffffffffffffffffffffffff168a73ffffffffffffffffffffffffffffffffffffffff16634c77e5ba8960405180807f7363616e2d6170706c69636174696f6e2f64656e74697374000000000000000081525060180182815260200191505060405180910390206000604051602001526040518263ffffffff167c0100000000000000000000000000000000000000000000000000000000028152600401808260001916600019168152602001915050602060405180830381600087803b15156111b557600080fd5b6102c65a03f115156111c657600080fd5b5050506040518051905073ffffffffffffffffffffffffffffffffffffffff16145b80156112f557508773ffffffffffffffffffffffffffffffffffffffff168a73ffffffffffffffffffffffffffffffffffffffff16634c77e5ba8960405180807f7363616e2d6170706c69636174696f6e2f70617469656e74000000000000000081525060180182815260200191505060405180910390206000604051602001526040518263ffffffff167c0100000000000000000000000000000000000000000000000000000000028152600401808260001916600019168152602001915050602060405180830381600087803b15156112c257600080fd5b6102c65a03f115156112d357600080fd5b5050506040518051905073ffffffffffffffffffffffffffffffffffffffff16145b151561130057600080fd5b8973ffffffffffffffffffffffffffffffffffffffff1663bdc963d88860405180807f7363616e2d6170706c69636174696f6e2f7363616e2d73657276696365000000815250601d0182815260200191505060405180910390206000604051602001526040518263ffffffff167c0100000000000000000000000000000000000000000000000000000000028152600401808260001916600019168152602001915050602060405180830381600087803b15156113bc57600080fd5b6102c65a03f115156113cd57600080fd5b5050506040518051905090506113e88a8a8a84868c8961182e565b6113f78a8a8a868a8a8a6121f8565b8973ffffffffffffffffffffffffffffffffffffffff16630bd851588360405180807f7363616e2d726571756573742f73746174757300000000000000000000000000815250601301828152602001915050604051809103902060046040518363ffffffff167c01000000000000000000000000000000000000000000000000000000000281526004018083600019166000191681526020018260ff16815260200192505050600060405180830381600087803b15156114b657600080fd5b6102c65a03f115156114c757600080fd5b5050508973ffffffffffffffffffffffffffffffffffffffff16630bd851588860405180807f7363616e2d6170706c69636174696f6e2f737461747573000000000000000000815250601701828152602001915050604051809103902060046040518363ffffffff167c01000000000000000000000000000000000000000000000000000000000281526004018083600019166000191681526020018260ff16815260200192505050600060405180830381600087803b151561158957600080fd5b6102c65a03f1151561159a57600080fd5b5050506115a88a8389612775565b50505050505050505050565b6000600160009054906101000a900473ffffffffffffffffffffffffffffffffffffffff1673ffffffffffffffffffffffffffffffffffffffff16637a0e03ec8360405180807f757365722f7479706500000000000000000000000000000000000000000000008152506009018273ffffffffffffffffffffffffffffffffffffffff1673ffffffffffffffffffffffffffffffffffffffff166c0100000000000000000000000002815260140191505060405180910390206000604051602001526040518263ffffffff167c0100000000000000000000000000000000000000000000000000000000028152600401808260001916600019168152602001915050602060405180830381600087803b15156116cf57600080fd5b6102c65a03f115156116e057600080fd5b505050604051805190509050919050565b6000600160009054906101000a900473ffffffffffffffffffffffffffffffffffffffff1673ffffffffffffffffffffffffffffffffffffffff16637a0e03ec8360405180807f757365722f737461747573000000000000000000000000000000000000000000815250600b018273ffffffffffffffffffffffffffffffffffffffff1673ffffffffffffffffffffffffffffffffffffffff166c0100000000000000000000000002815260140191505060405180910390206000604051602001526040518263ffffffff167c0100000000000000000000000000000000000000000000000000000000028152600401808260001916600019168152602001915050602060405180830381600087803b151561180c57600080fd5b6102c65a03f1151561181d57600080fd5b505050604051805190509050919050565b8673ffffffffffffffffffffffffffffffffffffffff16630bd851588260405180807f636173652f737461747573000000000000000000000000000000000000000000815250600b01828152602001915050604051809103902060016040518363ffffffff167c01000000000000000000000000000000000000000000000000000000000281526004018083600019166000191681526020018260ff16815260200192505050600060405180830381600087803b15156118ed57600080fd5b6102c65a03f115156118fe57600080fd5b5050508673ffffffffffffffffffffffffffffffffffffffff16633562fd208260405180807f636173652f637265617465642d6f6e0000000000000000000000000000000000815250600f018281526020019150506040518091039020426040518363ffffffff167c010000000000000000000000000000000000000000000000000000000002815260040180836000191660001916815260200182815260200192505050600060405180830381600087803b15156119bc57600080fd5b6102c65a03f115156119cd57600080fd5b5050508673ffffffffffffffffffffffffffffffffffffffff16635a2bf25a8260405180807f636173652f64656e746973740000000000000000000000000000000000000000815250600c018281526020019150506040518091039020886040518363ffffffff167c01000000000000000000000000000000000000000000000000000000000281526004018083600019166000191681526020018273ffffffffffffffffffffffffffffffffffffffff1673ffffffffffffffffffffffffffffffffffffffff16815260200192505050600060405180830381600087803b1515611ab757600080fd5b6102c65a03f11515611ac857600080fd5b5050508673ffffffffffffffffffffffffffffffffffffffff16635a2bf25a8260405180807f636173652f70617469656e740000000000000000000000000000000000000000815250600c018281526020019150506040518091039020876040518363ffffffff167c01000000000000000000000000000000000000000000000000000000000281526004018083600019166000191681526020018273ffffffffffffffffffffffffffffffffffffffff1673ffffffffffffffffffffffffffffffffffffffff16815260200192505050600060405180830381600087803b1515611bb257600080fd5b6102c65a03f11515611bc357600080fd5b5050508673ffffffffffffffffffffffffffffffffffffffff16633562fd208260405180807f636173652f7363616e2d736572766963650000000000000000000000000000008152506011018281526020019150506040518091039020866040518363ffffffff167c010000000000000000000000000000000000000000000000000000000002815260040180836000191660001916815260200182815260200192505050600060405180830381600087803b1515611c8157600080fd5b6102c65a03f11515611c9257600080fd5b5050508673ffffffffffffffffffffffffffffffffffffffff16633562fd208260405180807f636173652f7363616e2d726571756573740000000000000000000000000000008152506011018281526020019150506040518091039020856040518363ffffffff167c010000000000000000000000000000000000000000000000000000000002815260040180836000191660001916815260200182815260200192505050600060405180830381600087803b1515611d5057600080fd5b6102c65a03f11515611d6157600080fd5b5050508673ffffffffffffffffffffffffffffffffffffffff16633562fd208460405180807f7363616e2d726571756573742f636173650000000000000000000000000000008152506011018281526020019150506040518091039020836040518363ffffffff167c010000000000000000000000000000000000000000000000000000000002815260040180836000191660001916815260200182815260200192505050600060405180830381600087803b1515611e1f57600080fd5b6102c65a03f11515611e3057600080fd5b5050508673ffffffffffffffffffffffffffffffffffffffff16633eba9ed28460405180807f7363616e2d726571756573742f6861732d636173653f00000000000000000000815250601601828152602001915050604051809103902060016040518363ffffffff167c01000000000000000000000000000000000000000000000000000000000281526004018083600019166000191681526020018215151515815260200192505050600060405180830381600087803b1515611ef357600080fd5b6102c65a03f11515611f0457600080fd5b5050508673ffffffffffffffffffffffffffffffffffffffff16633562fd208260405180807f636173652f7363616e2d6170706c69636174696f6e00000000000000000000008152506015018281526020019150506040518091039020846040518363ffffffff167c010000000000000000000000000000000000000000000000000000000002815260040180836000191660001916815260200182815260200192505050600060405180830381600087803b1515611fc257600080fd5b6102c65a03f11515611fd357600080fd5b5050508673ffffffffffffffffffffffffffffffffffffffff16633562fd208360405180807f7363616e2d6170706c69636174696f6e2f6361736500000000000000000000008152506015018281526020019150506040518091039020836040518363ffffffff167c010000000000000000000000000000000000000000000000000000000002815260040180836000191660001916815260200182815260200192505050600060405180830381600087803b151561209157600080fd5b6102c65a03f115156120a257600080fd5b5050508673ffffffffffffffffffffffffffffffffffffffff16633eba9ed28360405180807f7363616e2d6170706c69636174696f6e2f6861732d636173653f000000000000815250601a01828152602001915050604051809103902060016040518363ffffffff167c01000000000000000000000000000000000000000000000000000000000281526004018083600019166000191681526020018215151515815260200192505050600060405180830381600087803b151561216557600080fd5b6102c65a03f1151561217657600080fd5b5050506121ef876040805190810160405280600481526020017f63617365000000000000000000000000000000000000000000000000000000008152506040805190810160405280600b81526020017f63617365732d636f756e74000000000000000000000000000000000000000000815250846129c3565b50505050505050565b8673ffffffffffffffffffffffffffffffffffffffff16633562fd208560405180807f636173652f616d6f756e74000000000000000000000000000000000000000000815250600b018281526020019150506040518091039020846040518363ffffffff167c010000000000000000000000000000000000000000000000000000000002815260040180836000191660001916815260200182815260200192505050600060405180830381600087803b15156122b357600080fd5b6102c65a03f115156122c457600080fd5b5050508673ffffffffffffffffffffffffffffffffffffffff16633562fd208560405180807f636173652f71756f746500000000000000000000000000000000000000000000815250600a018281526020019150506040518091039020836040518363ffffffff167c010000000000000000000000000000000000000000000000000000000002815260040180836000191660001916815260200182815260200192505050600060405180830381600087803b151561238257600080fd5b6102c65a03f1151561239357600080fd5b5050508673ffffffffffffffffffffffffffffffffffffffff16633eba9ed28560405180807f636173652f706169640000000000000000000000000000000000000000000000815250600901828152602001915050604051809103902060016040518363ffffffff167c01000000000000000000000000000000000000000000000000000000000281526004018083600019166000191681526020018215151515815260200192505050600060405180830381600087803b151561245657600080fd5b6102c65a03f1151561246757600080fd5b5050508673ffffffffffffffffffffffffffffffffffffffff16633562fd208560405180807f636173652f7061796d656e740000000000000000000000000000000000000000815250600c018281526020019150506040518091039020856040518363ffffffff167c010000000000000000000000000000000000000000000000000000000002815260040180836000191660001916815260200182815260200192505050600060405180830381600087803b151561252557600080fd5b6102c65a03f1151561253657600080fd5b5050508673ffffffffffffffffffffffffffffffffffffffff16633562fd208460405180807f7061796d656e742f636173650000000000000000000000000000000000000000815250600c018281526020019150506040518091039020866040518363ffffffff167c010000000000000000000000000000000000000000000000000000000002815260040180836000191660001916815260200182815260200192505050600060405180830381600087803b15156125f457600080fd5b6102c65a03f1151561260557600080fd5b50505061267f87876040805190810160405280600c81526020017f64656e746973742f6361736500000000000000000000000000000000000000008152506040805190810160405280601381526020017f64656e746973742f63617365732d636f756e740000000000000000000000000081525088612cbd565b6126f687866040805190810160405280600c81526020017f70617469656e742f6361736500000000000000000000000000000000000000008152506040805190810160405280601381526020017f70617469656e742f63617365732d636f756e740000000000000000000000000081525088612cbd565b61276c876040805190810160405280600781526020017f7061796d656e74000000000000000000000000000000000000000000000000008152506040805190810160405280600e81526020017f7061796d656e74732d636f756e74000000000000000000000000000000000000815250866129c3565b50505050505050565b60008060006127e18686606060405190810160405280602481526020017f7363616e2d726571756573742f7363616e2d6170706c69636174696f6e732d6381526020017f6f756e7400000000000000000000000000000000000000000000000000000000815250612f4d565b9250600091505b828210156129bb578573ffffffffffffffffffffffffffffffffffffffff1663bdc963d8868460405180807f7363616e2d726571756573742f7363616e2d6170706c69636174696f6e000000815250601d018381526020018281526020019250505060405180910390206000604051602001526040518263ffffffff167c0100000000000000000000000000000000000000000000000000000000028152600401808260001916600019168152602001915050602060405180830381600087803b15156128b457600080fd5b6102c65a03f115156128c557600080fd5b50505060405180519050905083811415156129ae578573ffffffffffffffffffffffffffffffffffffffff16630bd851588260405180807f7363616e2d6170706c69636174696f6e2f737461747573000000000000000000815250601701828152602001915050604051809103902060056040518363ffffffff167c01000000000000000000000000000000000000000000000000000000000281526004018083600019166000191681526020018260ff16815260200192505050600060405180830381600087803b151561299957600080fd5b6102c65a03f115156129aa57600080fd5b5050505b81806001019250506127e8565b505050505050565b60008473ffffffffffffffffffffffffffffffffffffffff1663bdc963d8846040518082805190602001908083835b602083101515612a1757805182526020820191506020810190506020830392506129f2565b6001836020036101000a03801982511681845116808217855250505050505090500191505060405180910390206000604051602001526040518263ffffffff167c0100000000000000000000000000000000000000000000000000000000028152600401808260001916600019168152602001915050602060405180830381600087803b1515612aa657600080fd5b6102c65a03f11515612ab757600080fd5b5050506040518051905090508473ffffffffffffffffffffffffffffffffffffffff16633562fd2085836040518083805190602001908083835b602083101515612b165780518252602082019150602081019050602083039250612af1565b6001836020036101000a038019825116818451168082178552505050505050905001828152602001925050506040518091039020846040518363ffffffff167c010000000000000000000000000000000000000000000000000000000002815260040180836000191660001916815260200182815260200192505050600060405180830381600087803b1515612bab57600080fd5b6102c65a03f11515612bbc57600080fd5b5050508473ffffffffffffffffffffffffffffffffffffffff16633562fd20846040518082805190602001908083835b602083101515612c115780518252602082019150602081019050602083039250612bec565b6001836020036101000a0380198251168184511680821785525050505050509050019150506040518091039020600184016040518363ffffffff167c010000000000000000000000000000000000000000000000000000000002815260040180836000191660001916815260200182815260200192505050600060405180830381600087803b1515612ca257600080fd5b6102c65a03f11515612cb357600080fd5b5050505050505050565b6000612cca86868561305c565b90508573ffffffffffffffffffffffffffffffffffffffff16633562fd208587846040518084805190602001908083835b602083101515612d205780518252602082019150602081019050602083039250612cfb565b6001836020036101000a0380198251168184511680821785525050505050509050018373ffffffffffffffffffffffffffffffffffffffff1673ffffffffffffffffffffffffffffffffffffffff166c0100000000000000000000000002815260140182815260200193505050506040518091039020846040518363ffffffff167c010000000000000000000000000000000000000000000000000000000002815260040180836000191660001916815260200182815260200192505050600060405180830381600087803b1515612df757600080fd5b6102c65a03f11515612e0857600080fd5b5050508573ffffffffffffffffffffffffffffffffffffffff16633562fd2084876040518083805190602001908083835b602083101515612e5e5780518252602082019150602081019050602083039250612e39565b6001836020036101000a0380198251168184511680821785525050505050509050018273ffffffffffffffffffffffffffffffffffffffff1673ffffffffffffffffffffffffffffffffffffffff166c01000000000000000000000000028152601401925050506040518091039020600184016040518363ffffffff167c010000000000000000000000000000000000000000000000000000000002815260040180836000191660001916815260200182815260200192505050600060405180830381600087803b1515612f3157600080fd5b6102c65a03f11515612f4257600080fd5b505050505050505050565b60008373ffffffffffffffffffffffffffffffffffffffff1663bdc963d883856040518083805190602001908083835b602083101515612fa25780518252602082019150602081019050602083039250612f7d565b6001836020036101000a0380198251168184511680821785525050505050509050018281526020019250505060405180910390206000604051602001526040518263ffffffff167c0100000000000000000000000000000000000000000000000000000000028152600401808260001916600019168152602001915050602060405180830381600087803b151561303857600080fd5b6102c65a03f1151561304957600080fd5b5050506040518051905090509392505050565b60008373ffffffffffffffffffffffffffffffffffffffff1663bdc963d883856040518083805190602001908083835b6020831015156130b1578051825260208201915060208101905060208303925061308c565b6001836020036101000a0380198251168184511680821785525050505050509050018273ffffffffffffffffffffffffffffffffffffffff1673ffffffffffffffffffffffffffffffffffffffff166c010000000000000000000000000281526014019250505060405180910390206000604051602001526040518263ffffffff167c0100000000000000000000000000000000000000000000000000000000028152600401808260001916600019168152602001915050602060405180830381600087803b151561318257600080fd5b6102c65a03f1151561319357600080fd5b50505060405180519050905093925050505600a165627a7a723058204e927e5b255d5f8a6fde7acc09af820bf778d7c9970ae84fc344f5dc8c3da8640029",
  "source": "pragma solidity 0.4.18;\nimport \"./Restrictor.sol\";\nimport \"../lib/odll/userManager.sol\";\n\ncontract ScanApplicationWriter2 is Restrictor {\n  function ScanApplicationWriter2 (address _dbAddress) public {\n    require(_dbAddress != 0x0);\n    dbAddress = _dbAddress;\n  }\n\n  // Scan Application\n  function acceptScanApplication (\n    address dentistId,\n    uint scanApplicationId,\n    uint quote\n  )\n    external\n    payable\n    onlyPermittedSmartContract\n  {\n    address escrowAddress = DB(dbAddress).getAddressValue(keccak256(\"odll/escrow-address\"));\n    require(escrowAddress != 0x0);\n    uint amount = msg.value;\n    require(amount >= quote);\n    if (amount > quote) {\n      uint tempAmount = amount;\n      amount = quote;\n      msg.sender.transfer(SafeMath.sub(tempAmount, quote));\n    }\n\n    uint paymentId = utilities.getArrayItemsCount(dbAddress, \"payments-count\");\n    DB(dbAddress).setUInt8Value(keccak256(\"payment/for-type\", paymentId), 1);\n    userManager.acceptScanApplication(dbAddress, dentistId, msg.sender, scanApplicationId, paymentId, amount, quote);\n\n    lockPayment(msg.sender, paymentId);\n    escrowAddress.transfer(amount);\n  }\n}\n",
  "sourcePath": "/Users/danielokwufulueze/dev/vue/apps/oraldatalink/contracts/odll/ScanApplicationWriter2.sol",
  "compiler": {
    "name": "solc",
    "version": "0.4.18+commit.9cf6e910.Emscripten.clang"
  },
  "schemaVersion": "1.0.1",
  "updatedAt": "2017-12-02T06:04:16.140Z"
}