{
  "contractName": "ScanApplicationWriter2",
  "abi": [
    {
      "constant": true,
      "inputs": [],
      "name": "smartContractStatus",
      "outputs": [
        {
          "name": "",
          "type": "uint8"
        }
      ],
      "payable": false,
      "stateMutability": "view",
      "type": "function"
    },
    {
      "constant": true,
      "inputs": [],
      "name": "owner",
      "outputs": [
        {
          "name": "",
          "type": "address"
        }
      ],
      "payable": false,
      "stateMutability": "view",
      "type": "function"
    },
    {
      "constant": true,
      "inputs": [],
      "name": "dbAddress",
      "outputs": [
        {
          "name": "",
          "type": "address"
        }
      ],
      "payable": false,
      "stateMutability": "view",
      "type": "function"
    },
    {
      "constant": false,
      "inputs": [
        {
          "name": "dentistId",
          "type": "address"
        },
        {
          "name": "scanApplicationId",
          "type": "uint256"
        },
        {
          "name": "quote",
          "type": "uint256"
        }
      ],
      "name": "acceptScanApplication",
      "outputs": [],
      "payable": true,
      "stateMutability": "payable",
      "type": "function"
    },
    {
      "constant": false,
      "inputs": [
        {
          "name": "newOwner",
          "type": "address"
        }
      ],
      "name": "transferOwnership",
      "outputs": [],
      "payable": false,
      "stateMutability": "nonpayable",
      "type": "function"
    },
    {
      "inputs": [
        {
          "name": "_dbAddress",
          "type": "address"
        }
      ],
      "payable": false,
      "stateMutability": "nonpayable",
      "type": "constructor"
    },
    {
      "anonymous": false,
      "inputs": [
        {
          "indexed": false,
          "name": "status",
          "type": "uint8"
        }
      ],
      "name": "OnSmartContractStatusSet",
      "type": "event"
    },
    {
      "anonymous": false,
      "inputs": [
        {
          "indexed": true,
          "name": "previousOwner",
          "type": "address"
        },
        {
          "indexed": true,
          "name": "newOwner",
          "type": "address"
        }
      ],
      "name": "OwnershipTransferred",
      "type": "event"
    }
  ],
  "bytecode": "0x6060604052341561000f57600080fd5b604051602080612b7583398101604052808051906020019091905050336000806101000a81548173ffffffffffffffffffffffffffffffffffffffff021916908373ffffffffffffffffffffffffffffffffffffffff16021790555060008173ffffffffffffffffffffffffffffffffffffffff161415151561009157600080fd5b80600160006101000a81548173ffffffffffffffffffffffffffffffffffffffff021916908373ffffffffffffffffffffffffffffffffffffffff16021790555050612a93806100e26000396000f30060606040526004361061006d576000357c0100000000000000000000000000000000000000000000000000000000900463ffffffff1680634c8ddddc146100725780638da5cb5b146100a157806391e06b6d146100f6578063d6ff529a1461014b578063f2fde38b1461018b575b600080fd5b341561007d57600080fd5b6100856101c4565b604051808260ff1660ff16815260200191505060405180910390f35b34156100ac57600080fd5b6100b46101d7565b604051808273ffffffffffffffffffffffffffffffffffffffff1673ffffffffffffffffffffffffffffffffffffffff16815260200191505060405180910390f35b341561010157600080fd5b6101096101fc565b604051808273ffffffffffffffffffffffffffffffffffffffff1673ffffffffffffffffffffffffffffffffffffffff16815260200191505060405180910390f35b610189600480803573ffffffffffffffffffffffffffffffffffffffff16906020019091908035906020019091908035906020019091905050610222565b005b341561019657600080fd5b6101c2600480803573ffffffffffffffffffffffffffffffffffffffff16906020019091905050610817565b005b600160149054906101000a900460ff1681565b6000809054906101000a900473ffffffffffffffffffffffffffffffffffffffff1681565b600160009054906101000a900473ffffffffffffffffffffffffffffffffffffffff1681565b6000806000600160149054906101000a900460ff1660ff1614151561024657600080fd5b6000600160009054906101000a900473ffffffffffffffffffffffffffffffffffffffff1673ffffffffffffffffffffffffffffffffffffffff16634c77e5ba8660405180807f6f646c6c2f657363726f772d616464726573730000000000000000000000000081525060130182815260200191505060405180910390206000604051602001526040518263ffffffff167c0100000000000000000000000000000000000000000000000000000000028152600401808260001916600019168152602001915050602060405180830381600087803b151561032657600080fd5b6102c65a03f1151561033757600080fd5b5050506040518051905073ffffffffffffffffffffffffffffffffffffffff161415151561036457600080fd5b349150828210156103b4573373ffffffffffffffffffffffffffffffffffffffff166108fc839081150290604051600060405180830381858888f1935050505015156103af57600080fd5b610810565b610415600160009054906101000a900473ffffffffffffffffffffffffffffffffffffffff166040805190810160405280600e81526020017f7061796d656e74732d636f756e7400000000000000000000000000000000000081525061096c565b9050600160009054906101000a900473ffffffffffffffffffffffffffffffffffffffff1673ffffffffffffffffffffffffffffffffffffffff16633562fd208260405180807f7061796d656e742f666f722d7479706500000000000000000000000000000000815250601001828152602001915050604051809103902060016040518363ffffffff167c010000000000000000000000000000000000000000000000000000000002815260040180836000191660001916815260200182815260200192505050600060405180830381600087803b15156104f557600080fd5b6102c65a03f1151561050657600080fd5b505050610539600160009054906101000a900473ffffffffffffffffffffffffffffffffffffffff168633878588610a72565b600160009054906101000a900473ffffffffffffffffffffffffffffffffffffffff1673ffffffffffffffffffffffffffffffffffffffff16634c77e5ba60405180807f6f646c6c2f657363726f772d6164647265737300000000000000000000000000815250601301905060405180910390206000604051602001526040518263ffffffff167c0100000000000000000000000000000000000000000000000000000000028152600401808260001916600019168152602001915050602060405180830381600087803b151561060f57600080fd5b6102c65a03f1151561062057600080fd5b5050506040518051905073ffffffffffffffffffffffffffffffffffffffff166108fc839081150290604051600060405180830381858888f19350505050151561066957600080fd5b600160009054906101000a900473ffffffffffffffffffffffffffffffffffffffff1673ffffffffffffffffffffffffffffffffffffffff16634c77e5ba60405180807f6f646c6c2f657363726f772d6164647265737300000000000000000000000000815250601301905060405180910390206000604051602001526040518263ffffffff167c0100000000000000000000000000000000000000000000000000000000028152600401808260001916600019168152602001915050602060405180830381600087803b151561073f57600080fd5b6102c65a03f1151561075057600080fd5b5050506040518051905073ffffffffffffffffffffffffffffffffffffffff16633f4b147033836040518363ffffffff167c0100000000000000000000000000000000000000000000000000000000028152600401808373ffffffffffffffffffffffffffffffffffffffff1673ffffffffffffffffffffffffffffffffffffffff16815260200182815260200192505050600060405180830381600087803b15156107fb57600080fd5b6102c65a03f1151561080c57600080fd5b5050505b5050505050565b6000809054906101000a900473ffffffffffffffffffffffffffffffffffffffff1673ffffffffffffffffffffffffffffffffffffffff163373ffffffffffffffffffffffffffffffffffffffff1614151561087257600080fd5b600073ffffffffffffffffffffffffffffffffffffffff168173ffffffffffffffffffffffffffffffffffffffff16141515156108ae57600080fd5b8073ffffffffffffffffffffffffffffffffffffffff166000809054906101000a900473ffffffffffffffffffffffffffffffffffffffff1673ffffffffffffffffffffffffffffffffffffffff167f8be0079c531659141344cd1fd0a4f28419497f9722a3daafe3b4186f6b6457e060405160405180910390a3806000806101000a81548173ffffffffffffffffffffffffffffffffffffffff021916908373ffffffffffffffffffffffffffffffffffffffff16021790555050565b60008273ffffffffffffffffffffffffffffffffffffffff1663bdc963d8836040518082805190602001908083835b6020831015156109c0578051825260208201915060208101905060208303925061099b565b6001836020036101000a03801982511681845116808217855250505050505090500191505060405180910390206000604051602001526040518263ffffffff167c0100000000000000000000000000000000000000000000000000000000028152600401808260001916600019168152602001915050602060405180830381600087803b1515610a4f57600080fd5b6102c65a03f11515610a6057600080fd5b50505060405180519050905092915050565b610a80868686868686610a88565b505050505050565b6000806000610acc896040805190810160405280600b81526020017f63617365732d636f756e7400000000000000000000000000000000000000000081525061096c565b92508873ffffffffffffffffffffffffffffffffffffffff16630bd851588660405180807f7061796d656e742f737461746500000000000000000000000000000000000000815250600d01828152602001915050604051809103902060016040518363ffffffff167c01000000000000000000000000000000000000000000000000000000000281526004018083600019166000191681526020018260ff16815260200192505050600060405180830381600087803b1515610b8d57600080fd5b6102c65a03f11515610b9e57600080fd5b5050508873ffffffffffffffffffffffffffffffffffffffff1663bdc963d88760405180807f7363616e2d6170706c69636174696f6e2f7363616e2d72657175657374000000815250601d0182815260200191505060405180910390206000604051602001526040518263ffffffff167c0100000000000000000000000000000000000000000000000000000000028152600401808260001916600019168152602001915050602060405180830381600087803b1515610c5d57600080fd5b6102c65a03f11515610c6e57600080fd5b50505060405180519050915060008973ffffffffffffffffffffffffffffffffffffffff16637a0e03ec8560405180807f636173652f737461747573000000000000000000000000000000000000000000815250600b0182815260200191505060405180910390206000604051602001526040518263ffffffff167c0100000000000000000000000000000000000000000000000000000000028152600401808260001916600019168152602001915050602060405180830381600087803b1515610d3857600080fd5b6102c65a03f11515610d4957600080fd5b5050506040518051905060ff16148015610e3c575060018973ffffffffffffffffffffffffffffffffffffffff16637a0e03ec8860405180807f7363616e2d6170706c69636174696f6e2f73746174757300000000000000000081525060170182815260200191505060405180910390206000604051602001526040518263ffffffff167c0100000000000000000000000000000000000000000000000000000000028152600401808260001916600019168152602001915050602060405180830381600087803b1515610e1c57600080fd5b6102c65a03f11515610e2d57600080fd5b5050506040518051905060ff16145b8015610f21575060018973ffffffffffffffffffffffffffffffffffffffff16637a0e03ec8460405180807f7363616e2d726571756573742f7374617475730000000000000000000000000081525060130182815260200191505060405180910390206000604051602001526040518263ffffffff167c0100000000000000000000000000000000000000000000000000000000028152600401808260001916600019168152602001915050602060405180830381600087803b1515610f0157600080fd5b6102c65a03f11515610f1257600080fd5b5050506040518051905060ff16145b801561102e57508673ffffffffffffffffffffffffffffffffffffffff168973ffffffffffffffffffffffffffffffffffffffff16634c77e5ba8460405180807f7363616e2d726571756573742f70617469656e7400000000000000000000000081525060140182815260200191505060405180910390206000604051602001526040518263ffffffff167c0100000000000000000000000000000000000000000000000000000000028152600401808260001916600019168152602001915050602060405180830381600087803b1515610ffb57600080fd5b6102c65a03f1151561100c57600080fd5b5050506040518051905073ffffffffffffffffffffffffffffffffffffffff16145b801561113b57508773ffffffffffffffffffffffffffffffffffffffff168973ffffffffffffffffffffffffffffffffffffffff16634c77e5ba8860405180807f7363616e2d6170706c69636174696f6e2f64656e74697374000000000000000081525060180182815260200191505060405180910390206000604051602001526040518263ffffffff167c0100000000000000000000000000000000000000000000000000000000028152600401808260001916600019168152602001915050602060405180830381600087803b151561110857600080fd5b6102c65a03f1151561111957600080fd5b5050506040518051905073ffffffffffffffffffffffffffffffffffffffff16145b801561124857508673ffffffffffffffffffffffffffffffffffffffff168973ffffffffffffffffffffffffffffffffffffffff16634c77e5ba8860405180807f7363616e2d6170706c69636174696f6e2f70617469656e74000000000000000081525060180182815260200191505060405180910390206000604051602001526040518263ffffffff167c0100000000000000000000000000000000000000000000000000000000028152600401808260001916600019168152602001915050602060405180830381600087803b151561121557600080fd5b6102c65a03f1151561122657600080fd5b5050506040518051905073ffffffffffffffffffffffffffffffffffffffff16145b151561125357600080fd5b8873ffffffffffffffffffffffffffffffffffffffff1663bdc963d88760405180807f7363616e2d6170706c69636174696f6e2f7363616e2d73657276696365000000815250601d0182815260200191505060405180910390206000604051602001526040518263ffffffff167c0100000000000000000000000000000000000000000000000000000000028152600401808260001916600019168152602001915050602060405180830381600087803b151561130f57600080fd5b6102c65a03f1151561132057600080fd5b50505060405180519050905061133b89898984868b89611505565b611349898989868989611b89565b8873ffffffffffffffffffffffffffffffffffffffff16630bd851588360405180807f7363616e2d726571756573742f73746174757300000000000000000000000000815250601301828152602001915050604051809103902060046040518363ffffffff167c01000000000000000000000000000000000000000000000000000000000281526004018083600019166000191681526020018260ff16815260200192505050600060405180830381600087803b151561140857600080fd5b6102c65a03f1151561141957600080fd5b5050508873ffffffffffffffffffffffffffffffffffffffff16630bd851588760405180807f7363616e2d6170706c69636174696f6e2f737461747573000000000000000000815250601701828152602001915050604051809103902060046040518363ffffffff167c01000000000000000000000000000000000000000000000000000000000281526004018083600019166000191681526020018260ff16815260200192505050600060405180830381600087803b15156114db57600080fd5b6102c65a03f115156114ec57600080fd5b5050506114fa898388612036565b505050505050505050565b8673ffffffffffffffffffffffffffffffffffffffff16630bd851588260405180807f636173652f737461747573000000000000000000000000000000000000000000815250600b01828152602001915050604051809103902060016040518363ffffffff167c01000000000000000000000000000000000000000000000000000000000281526004018083600019166000191681526020018260ff16815260200192505050600060405180830381600087803b15156115c457600080fd5b6102c65a03f115156115d557600080fd5b5050508673ffffffffffffffffffffffffffffffffffffffff16633562fd208260405180807f636173652f637265617465642d6f6e0000000000000000000000000000000000815250600f018281526020019150506040518091039020426040518363ffffffff167c010000000000000000000000000000000000000000000000000000000002815260040180836000191660001916815260200182815260200192505050600060405180830381600087803b151561169357600080fd5b6102c65a03f115156116a457600080fd5b5050508673ffffffffffffffffffffffffffffffffffffffff16635a2bf25a8260405180807f636173652f64656e746973740000000000000000000000000000000000000000815250600c018281526020019150506040518091039020886040518363ffffffff167c01000000000000000000000000000000000000000000000000000000000281526004018083600019166000191681526020018273ffffffffffffffffffffffffffffffffffffffff1673ffffffffffffffffffffffffffffffffffffffff16815260200192505050600060405180830381600087803b151561178e57600080fd5b6102c65a03f1151561179f57600080fd5b5050508673ffffffffffffffffffffffffffffffffffffffff16635a2bf25a8260405180807f636173652f70617469656e740000000000000000000000000000000000000000815250600c018281526020019150506040518091039020876040518363ffffffff167c01000000000000000000000000000000000000000000000000000000000281526004018083600019166000191681526020018273ffffffffffffffffffffffffffffffffffffffff1673ffffffffffffffffffffffffffffffffffffffff16815260200192505050600060405180830381600087803b151561188957600080fd5b6102c65a03f1151561189a57600080fd5b5050508673ffffffffffffffffffffffffffffffffffffffff16633562fd208260405180807f636173652f7363616e2d736572766963650000000000000000000000000000008152506011018281526020019150506040518091039020866040518363ffffffff167c010000000000000000000000000000000000000000000000000000000002815260040180836000191660001916815260200182815260200192505050600060405180830381600087803b151561195857600080fd5b6102c65a03f1151561196957600080fd5b5050508673ffffffffffffffffffffffffffffffffffffffff16633562fd208260405180807f636173652f7363616e2d726571756573740000000000000000000000000000008152506011018281526020019150506040518091039020856040518363ffffffff167c010000000000000000000000000000000000000000000000000000000002815260040180836000191660001916815260200182815260200192505050600060405180830381600087803b1515611a2757600080fd5b6102c65a03f11515611a3857600080fd5b5050508673ffffffffffffffffffffffffffffffffffffffff16633562fd208260405180807f636173652f7363616e2d6170706c69636174696f6e00000000000000000000008152506015018281526020019150506040518091039020846040518363ffffffff167c010000000000000000000000000000000000000000000000000000000002815260040180836000191660001916815260200182815260200192505050600060405180830381600087803b1515611af657600080fd5b6102c65a03f11515611b0757600080fd5b505050611b80876040805190810160405280600481526020017f63617365000000000000000000000000000000000000000000000000000000008152506040805190810160405280600b81526020017f63617365732d636f756e7400000000000000000000000000000000000000000081525084612284565b50505050505050565b8573ffffffffffffffffffffffffffffffffffffffff16633562fd208460405180807f636173652f616d6f756e74000000000000000000000000000000000000000000815250600b018281526020019150506040518091039020836040518363ffffffff167c010000000000000000000000000000000000000000000000000000000002815260040180836000191660001916815260200182815260200192505050600060405180830381600087803b1515611c4457600080fd5b6102c65a03f11515611c5557600080fd5b5050508573ffffffffffffffffffffffffffffffffffffffff16633eba9ed28460405180807f636173652f706169640000000000000000000000000000000000000000000000815250600901828152602001915050604051809103902060016040518363ffffffff167c01000000000000000000000000000000000000000000000000000000000281526004018083600019166000191681526020018215151515815260200192505050600060405180830381600087803b1515611d1857600080fd5b6102c65a03f11515611d2957600080fd5b5050508573ffffffffffffffffffffffffffffffffffffffff16633562fd208460405180807f636173652f7061796d656e740000000000000000000000000000000000000000815250600c018281526020019150506040518091039020846040518363ffffffff167c010000000000000000000000000000000000000000000000000000000002815260040180836000191660001916815260200182815260200192505050600060405180830381600087803b1515611de757600080fd5b6102c65a03f11515611df857600080fd5b5050508573ffffffffffffffffffffffffffffffffffffffff16633562fd208360405180807f7061796d656e742f636173650000000000000000000000000000000000000000815250600c018281526020019150506040518091039020856040518363ffffffff167c010000000000000000000000000000000000000000000000000000000002815260040180836000191660001916815260200182815260200192505050600060405180830381600087803b1515611eb657600080fd5b6102c65a03f11515611ec757600080fd5b505050611f4186866040805190810160405280600c81526020017f64656e746973742f6361736500000000000000000000000000000000000000008152506040805190810160405280601381526020017f64656e746973742f63617365732d636f756e74000000000000000000000000008152508761257e565b611fb886856040805190810160405280600c81526020017f70617469656e742f6361736500000000000000000000000000000000000000008152506040805190810160405280601381526020017f70617469656e742f63617365732d636f756e74000000000000000000000000008152508761257e565b61202e866040805190810160405280600781526020017f7061796d656e74000000000000000000000000000000000000000000000000008152506040805190810160405280600e81526020017f7061796d656e74732d636f756e7400000000000000000000000000000000000081525085612284565b505050505050565b60008060006120a28686606060405190810160405280602481526020017f7363616e2d726571756573742f7363616e2d6170706c69636174696f6e732d6381526020017f6f756e740000000000000000000000000000000000000000000000000000000081525061280e565b9250600091505b8282101561227c578573ffffffffffffffffffffffffffffffffffffffff1663bdc963d8868460405180807f7363616e2d726571756573742f7363616e2d6170706c69636174696f6e000000815250601d018381526020018281526020019250505060405180910390206000604051602001526040518263ffffffff167c0100000000000000000000000000000000000000000000000000000000028152600401808260001916600019168152602001915050602060405180830381600087803b151561217557600080fd5b6102c65a03f1151561218657600080fd5b505050604051805190509050838114151561226f578573ffffffffffffffffffffffffffffffffffffffff16630bd851588260405180807f7363616e2d6170706c69636174696f6e2f737461747573000000000000000000815250601701828152602001915050604051809103902060056040518363ffffffff167c01000000000000000000000000000000000000000000000000000000000281526004018083600019166000191681526020018260ff16815260200192505050600060405180830381600087803b151561225a57600080fd5b6102c65a03f1151561226b57600080fd5b5050505b81806001019250506120a9565b505050505050565b60008473ffffffffffffffffffffffffffffffffffffffff1663bdc963d8846040518082805190602001908083835b6020831015156122d857805182526020820191506020810190506020830392506122b3565b6001836020036101000a03801982511681845116808217855250505050505090500191505060405180910390206000604051602001526040518263ffffffff167c0100000000000000000000000000000000000000000000000000000000028152600401808260001916600019168152602001915050602060405180830381600087803b151561236757600080fd5b6102c65a03f1151561237857600080fd5b5050506040518051905090508473ffffffffffffffffffffffffffffffffffffffff16633562fd2085836040518083805190602001908083835b6020831015156123d757805182526020820191506020810190506020830392506123b2565b6001836020036101000a038019825116818451168082178552505050505050905001828152602001925050506040518091039020846040518363ffffffff167c010000000000000000000000000000000000000000000000000000000002815260040180836000191660001916815260200182815260200192505050600060405180830381600087803b151561246c57600080fd5b6102c65a03f1151561247d57600080fd5b5050508473ffffffffffffffffffffffffffffffffffffffff16633562fd20846040518082805190602001908083835b6020831015156124d257805182526020820191506020810190506020830392506124ad565b6001836020036101000a0380198251168184511680821785525050505050509050019150506040518091039020600184016040518363ffffffff167c010000000000000000000000000000000000000000000000000000000002815260040180836000191660001916815260200182815260200192505050600060405180830381600087803b151561256357600080fd5b6102c65a03f1151561257457600080fd5b5050505050505050565b600061258b86868561291d565b90508573ffffffffffffffffffffffffffffffffffffffff16633562fd208587846040518084805190602001908083835b6020831015156125e157805182526020820191506020810190506020830392506125bc565b6001836020036101000a0380198251168184511680821785525050505050509050018373ffffffffffffffffffffffffffffffffffffffff1673ffffffffffffffffffffffffffffffffffffffff166c0100000000000000000000000002815260140182815260200193505050506040518091039020846040518363ffffffff167c010000000000000000000000000000000000000000000000000000000002815260040180836000191660001916815260200182815260200192505050600060405180830381600087803b15156126b857600080fd5b6102c65a03f115156126c957600080fd5b5050508573ffffffffffffffffffffffffffffffffffffffff16633562fd2084876040518083805190602001908083835b60208310151561271f57805182526020820191506020810190506020830392506126fa565b6001836020036101000a0380198251168184511680821785525050505050509050018273ffffffffffffffffffffffffffffffffffffffff1673ffffffffffffffffffffffffffffffffffffffff166c01000000000000000000000000028152601401925050506040518091039020600184016040518363ffffffff167c010000000000000000000000000000000000000000000000000000000002815260040180836000191660001916815260200182815260200192505050600060405180830381600087803b15156127f257600080fd5b6102c65a03f1151561280357600080fd5b505050505050505050565b60008373ffffffffffffffffffffffffffffffffffffffff1663bdc963d883856040518083805190602001908083835b602083101515612863578051825260208201915060208101905060208303925061283e565b6001836020036101000a0380198251168184511680821785525050505050509050018281526020019250505060405180910390206000604051602001526040518263ffffffff167c0100000000000000000000000000000000000000000000000000000000028152600401808260001916600019168152602001915050602060405180830381600087803b15156128f957600080fd5b6102c65a03f1151561290a57600080fd5b5050506040518051905090509392505050565b60008373ffffffffffffffffffffffffffffffffffffffff1663bdc963d883856040518083805190602001908083835b602083101515612972578051825260208201915060208101905060208303925061294d565b6001836020036101000a0380198251168184511680821785525050505050509050018273ffffffffffffffffffffffffffffffffffffffff1673ffffffffffffffffffffffffffffffffffffffff166c010000000000000000000000000281526014019250505060405180910390206000604051602001526040518263ffffffff167c0100000000000000000000000000000000000000000000000000000000028152600401808260001916600019168152602001915050602060405180830381600087803b1515612a4357600080fd5b6102c65a03f11515612a5457600080fd5b50505060405180519050905093925050505600a165627a7a72305820a0cd55c31366bd53f06f511d5ed09f8b6138b99ba133c16034e6e6ddd6277bfd0029",
  "source": "pragma solidity 0.4.18;\nimport \"./Restrictor.sol\";\nimport \"../lib/odll/userManager.sol\";\nimport \"./Escrow.sol\";\n\ncontract ScanApplicationWriter2 is Restrictor {\n  function ScanApplicationWriter2 (address _dbAddress) public {\n    require(_dbAddress != 0x0);\n    dbAddress = _dbAddress;\n  }\n\n  // Scan Application\n  function acceptScanApplication (\n    address dentistId,\n    uint scanApplicationId,\n    uint quote\n  )\n    external\n    payable\n    onlyPermittedSmartContract\n  {\n    require(DB(dbAddress).getAddressValue(keccak256(\"odll/escrow-address\", scanApplicationId)) != 0x0);\n    uint amount = msg.value;\n    if (amount < quote) {\n      msg.sender.transfer(amount);\n      return;\n    }\n\n    uint paymentId = utilities.getArrayItemsCount(dbAddress, \"payments-count\");\n    DB(dbAddress).setUIntValue(keccak256(\"payment/for-type\", paymentId), 1);\n    userManager.acceptScanApplication(dbAddress, dentistId, msg.sender, scanApplicationId, paymentId, quote);\n\n    /*var idx = DB(dbAddress).getUIntValue(keccak256(countKey));\n    DB(dbAddress).setAddressValue(keccak256(key, idx), val);\n    DB(dbAddress).setUIntValue(keccak256(countKey), idx + 1);*/\n\n    /*uint scanRequestId = DB(dbAddress).getUIntValue(keccak256(\"scan-application/scan-request\", scanApplicationId));\n    uint scanServiceId = DB(dbAddress).getUIntValue(keccak256(\"scan-application/scan-service\", scanApplicationId));*/\n\n    DB(dbAddress).getAddressValue(keccak256(\"odll/escrow-address\")).transfer(amount);\n    Escrow(DB(dbAddress).getAddressValue(keccak256(\"odll/escrow-address\"))).lockPayment(msg.sender, paymentId);\n    /*DB(dbAddress).setUIntValue(keccak256(\"scan-application/payment\", scanApplicationId), paymentId);\n    DB(dbAddress).setUIntValue(keccak256(\"payment/created-on\", paymentId), now);\n    DB(dbAddress).setUIntValue(keccak256(\"payment/scan-application\", paymentId), scanApplicationId);\n    DB(dbAddress).setUIntValue(keccak256(\"payment/scan-request\", paymentId), scanRequestId);\n    DB(dbAddress).setUIntValue(keccak256(\"payment/scan-service\", paymentId), scanServiceId);\n    DB(dbAddress).setUIntValue(keccak256(\"payment/amount\", paymentId), amount);\n    DB(dbAddress).setUIntValue(keccak256(\"payment/quote\", paymentId), quote);\n    DB(dbAddress).setAddressValue(keccak256(\"payment/dentist\", paymentId), dentistId);\n    DB(dbAddress).setAddressValue(keccak256(\"payment/patient\", paymentId), msg.sender);\n    utilities.addArrayItem(dbAddress, \"payment\", \"payments-count\", paymentId); // paymentId is currently just there for counter purpose\n    utilities.addIdArrayItem(dbAddress, dentistId, \"dentist/payment\", \"dentist/payments-count\", paymentId);\n    utilities.addIdArrayItem(dbAddress, msg.sender, \"patient/payment\", \"patient/payments-count\", paymentId);*/\n  }\n}\n",
  "sourcePath": "/Users/danielokwufulueze/dev/vue/apps/oraldatalink/contracts/odll/ScanApplicationWriter2.sol",
  "compiler": {
    "name": "solc",
    "version": "0.4.18+commit.9cf6e910.Emscripten.clang"
  },
  "schemaVersion": "1.0.1",
  "updatedAt": "2017-11-26T16:33:06.768Z"
}