{
  "contractName": "ScanApplicationWriter2",
  "abi": [
    {
      "constant": false,
      "inputs": [
        {
          "name": "dentistId",
          "type": "address"
        },
        {
          "name": "scanApplicationId",
          "type": "uint256"
        },
        {
          "name": "quote",
          "type": "uint256"
        },
        {
          "name": "ODLLFee",
          "type": "uint256"
        },
        {
          "name": "dentistFee",
          "type": "uint256"
        }
      ],
      "name": "acceptScanApplication",
      "outputs": [],
      "payable": true,
      "stateMutability": "payable",
      "type": "function"
    },
    {
      "constant": false,
      "inputs": [
        {
          "name": "userId",
          "type": "address"
        },
        {
          "name": "paymentId",
          "type": "uint256"
        }
      ],
      "name": "lockPayment",
      "outputs": [],
      "payable": false,
      "stateMutability": "nonpayable",
      "type": "function"
    },
    {
      "constant": true,
      "inputs": [],
      "name": "smartContractStatus",
      "outputs": [
        {
          "name": "",
          "type": "uint8"
        }
      ],
      "payable": false,
      "stateMutability": "view",
      "type": "function"
    },
    {
      "constant": true,
      "inputs": [],
      "name": "owner",
      "outputs": [
        {
          "name": "",
          "type": "address"
        }
      ],
      "payable": false,
      "stateMutability": "view",
      "type": "function"
    },
    {
      "constant": true,
      "inputs": [],
      "name": "dbAddress",
      "outputs": [
        {
          "name": "",
          "type": "address"
        }
      ],
      "payable": false,
      "stateMutability": "view",
      "type": "function"
    },
    {
      "constant": false,
      "inputs": [
        {
          "name": "newOwner",
          "type": "address"
        }
      ],
      "name": "transferOwnership",
      "outputs": [],
      "payable": false,
      "stateMutability": "nonpayable",
      "type": "function"
    },
    {
      "inputs": [
        {
          "name": "_dbAddress",
          "type": "address"
        }
      ],
      "payable": false,
      "stateMutability": "nonpayable",
      "type": "constructor"
    },
    {
      "anonymous": false,
      "inputs": [
        {
          "indexed": false,
          "name": "paymentId",
          "type": "uint256"
        }
      ],
      "name": "PaymentLocked",
      "type": "event"
    },
    {
      "anonymous": false,
      "inputs": [
        {
          "indexed": false,
          "name": "status",
          "type": "uint8"
        }
      ],
      "name": "OnSmartContractStatusSet",
      "type": "event"
    },
    {
      "anonymous": false,
      "inputs": [
        {
          "indexed": true,
          "name": "previousOwner",
          "type": "address"
        },
        {
          "indexed": true,
          "name": "newOwner",
          "type": "address"
        }
      ],
      "name": "OwnershipTransferred",
      "type": "event"
    }
  ],
  "bytecode": "0x6060604052341561000f57600080fd5b60405160208061367a83398101604052808051906020019091905050336000806101000a81548173ffffffffffffffffffffffffffffffffffffffff021916908373ffffffffffffffffffffffffffffffffffffffff16021790555060008173ffffffffffffffffffffffffffffffffffffffff161415151561009157600080fd5b80600160006101000a81548173ffffffffffffffffffffffffffffffffffffffff021916908373ffffffffffffffffffffffffffffffffffffffff16021790555050613598806100e26000396000f300606060405260043610610078576000357c0100000000000000000000000000000000000000000000000000000000900463ffffffff168063179a3a041461007d5780633f4b1470146100cf5780634c8ddddc146101115780638da5cb5b1461014057806391e06b6d14610195578063f2fde38b146101ea575b600080fd5b6100cd600480803573ffffffffffffffffffffffffffffffffffffffff16906020019091908035906020019091908035906020019091908035906020019091908035906020019091905050610223565b005b34156100da57600080fd5b61010f600480803573ffffffffffffffffffffffffffffffffffffffff169060200190919080359060200190919050506107a1565b005b341561011c57600080fd5b6101246109f8565b604051808260ff1660ff16815260200191505060405180910390f35b341561014b57600080fd5b610153610a0b565b604051808273ffffffffffffffffffffffffffffffffffffffff1673ffffffffffffffffffffffffffffffffffffffff16815260200191505060405180910390f35b34156101a057600080fd5b6101a8610a30565b604051808273ffffffffffffffffffffffffffffffffffffffff1673ffffffffffffffffffffffffffffffffffffffff16815260200191505060405180910390f35b34156101f557600080fd5b610221600480803573ffffffffffffffffffffffffffffffffffffffff16906020019091905050610a56565b005b6000806000806000600160149054906101000a900460ff1660ff1614151561024a57600080fd5b600160009054906101000a900473ffffffffffffffffffffffffffffffffffffffff1673ffffffffffffffffffffffffffffffffffffffff16634c77e5ba60405180807f6f646c6c2f657363726f772d6164647265737300000000000000000000000000815250601301905060405180910390206000604051602001526040518263ffffffff167c0100000000000000000000000000000000000000000000000000000000028152600401808260001916600019168152602001915050602060405180830381600087803b151561032057600080fd5b6102c65a03f1151561033157600080fd5b50505060405180519050935060008473ffffffffffffffffffffffffffffffffffffffff161415151561036357600080fd5b34925086831015801561037e575061037b8686610bab565b87145b151561038957600080fd5b868311156103e1578291508692503373ffffffffffffffffffffffffffffffffffffffff166108fc6103bb848a610bc9565b9081150290604051600060405180830381858888f1935050505015156103e057600080fd5b5b610442600160009054906101000a900473ffffffffffffffffffffffffffffffffffffffff166040805190810160405280600e81526020017f7061796d656e74732d636f756e74000000000000000000000000000000000000815250610be2565b9050600160009054906101000a900473ffffffffffffffffffffffffffffffffffffffff1673ffffffffffffffffffffffffffffffffffffffff16630bd851588260405180807f7061796d656e742f666f722d7479706500000000000000000000000000000000815250601001828152602001915050604051809103902060016040518363ffffffff167c01000000000000000000000000000000000000000000000000000000000281526004018083600019166000191681526020018260ff16815260200192505050600060405180830381600087803b151561052557600080fd5b6102c65a03f1151561053657600080fd5b505050600160009054906101000a900473ffffffffffffffffffffffffffffffffffffffff1673ffffffffffffffffffffffffffffffffffffffff16633562fd208260405180807f7061796d656e742f6f646c6c2d666565000000000000000000000000000000008152506010018281526020019150506040518091039020886040518363ffffffff167c010000000000000000000000000000000000000000000000000000000002815260040180836000191660001916815260200182815260200192505050600060405180830381600087803b151561061657600080fd5b6102c65a03f1151561062757600080fd5b505050600160009054906101000a900473ffffffffffffffffffffffffffffffffffffffff1673ffffffffffffffffffffffffffffffffffffffff16633562fd208260405180807f7061796d656e742f64656e746973742d666565000000000000000000000000008152506013018281526020019150506040518091039020876040518363ffffffff167c010000000000000000000000000000000000000000000000000000000002815260040180836000191660001916815260200182815260200192505050600060405180830381600087803b151561070757600080fd5b6102c65a03f1151561071857600080fd5b50505061074c600160009054906101000a900473ffffffffffffffffffffffffffffffffffffffff168a338b85888d610ce8565b61075633826107a1565b8373ffffffffffffffffffffffffffffffffffffffff166108fc849081150290604051600060405180830381858888f19350505050151561079657600080fd5b505050505050505050565b816107ab81610d00565b15156107b657600080fd5b8160018060ff16600160009054906101000a900473ffffffffffffffffffffffffffffffffffffffff1673ffffffffffffffffffffffffffffffffffffffff16637a0e03ec8460405180807f7061796d656e742f737461746500000000000000000000000000000000000000815250600d0182815260200191505060405180910390206000604051602001526040518263ffffffff167c0100000000000000000000000000000000000000000000000000000000028152600401808260001916600019168152602001915050602060405180830381600087803b151561089b57600080fd5b6102c65a03f115156108ac57600080fd5b5050506040518051905060ff161415156108c557600080fd5b600160009054906101000a900473ffffffffffffffffffffffffffffffffffffffff1673ffffffffffffffffffffffffffffffffffffffff16630bd851588560405180807f7061796d656e742f737461746500000000000000000000000000000000000000815250600d01828152602001915050604051809103902060026040518363ffffffff167c01000000000000000000000000000000000000000000000000000000000281526004018083600019166000191681526020018260ff16815260200192505050600060405180830381600087803b15156109a657600080fd5b6102c65a03f115156109b757600080fd5b5050507fa5f78a79f83dfad686a63ca003a42f6c262d9fdc43a6742c56f5c27c11b9a1e2846040518082815260200191505060405180910390a15050505050565b600160149054906101000a900460ff1681565b6000809054906101000a900473ffffffffffffffffffffffffffffffffffffffff1681565b600160009054906101000a900473ffffffffffffffffffffffffffffffffffffffff1681565b6000809054906101000a900473ffffffffffffffffffffffffffffffffffffffff1673ffffffffffffffffffffffffffffffffffffffff163373ffffffffffffffffffffffffffffffffffffffff16141515610ab157600080fd5b600073ffffffffffffffffffffffffffffffffffffffff168173ffffffffffffffffffffffffffffffffffffffff1614151515610aed57600080fd5b8073ffffffffffffffffffffffffffffffffffffffff166000809054906101000a900473ffffffffffffffffffffffffffffffffffffffff1673ffffffffffffffffffffffffffffffffffffffff167f8be0079c531659141344cd1fd0a4f28419497f9722a3daafe3b4186f6b6457e060405160405180910390a3806000806101000a81548173ffffffffffffffffffffffffffffffffffffffff021916908373ffffffffffffffffffffffffffffffffffffffff16021790555050565b6000808284019050838110151515610bbf57fe5b8091505092915050565b6000828211151515610bd757fe5b818303905092915050565b60008273ffffffffffffffffffffffffffffffffffffffff1663bdc963d8836040518082805190602001908083835b602083101515610c365780518252602082019150602081019050602083039250610c11565b6001836020036101000a03801982511681845116808217855250505050505090500191505060405180910390206000604051602001526040518263ffffffff167c0100000000000000000000000000000000000000000000000000000000028152600401808260001916600019168152602001915050602060405180830381600087803b1515610cc557600080fd5b6102c65a03f11515610cd657600080fd5b50505060405180519050905092915050565b610cf787878787878787610d27565b50505050505050565b6000610d0d8260016117a6565b8015610d205750610d1f8260016117c1565b5b9050919050565b6000806000610d6b8a6040805190810160405280600b81526020017f63617365732d636f756e74000000000000000000000000000000000000000000815250610be2565b92508973ffffffffffffffffffffffffffffffffffffffff16630bd851588760405180807f7061796d656e742f737461746500000000000000000000000000000000000000815250600d01828152602001915050604051809103902060016040518363ffffffff167c01000000000000000000000000000000000000000000000000000000000281526004018083600019166000191681526020018260ff16815260200192505050600060405180830381600087803b1515610e2c57600080fd5b6102c65a03f11515610e3d57600080fd5b5050508973ffffffffffffffffffffffffffffffffffffffff1663bdc963d88860405180807f7363616e2d6170706c69636174696f6e2f7363616e2d72657175657374000000815250601d0182815260200191505060405180910390206000604051602001526040518263ffffffff167c0100000000000000000000000000000000000000000000000000000000028152600401808260001916600019168152602001915050602060405180830381600087803b1515610efc57600080fd5b6102c65a03f11515610f0d57600080fd5b50505060405180519050915060008a73ffffffffffffffffffffffffffffffffffffffff16637a0e03ec8560405180807f636173652f737461747573000000000000000000000000000000000000000000815250600b0182815260200191505060405180910390206000604051602001526040518263ffffffff167c0100000000000000000000000000000000000000000000000000000000028152600401808260001916600019168152602001915050602060405180830381600087803b1515610fd757600080fd5b6102c65a03f11515610fe857600080fd5b5050506040518051905060ff161480156110db575060018a73ffffffffffffffffffffffffffffffffffffffff16637a0e03ec8960405180807f7363616e2d6170706c69636174696f6e2f73746174757300000000000000000081525060170182815260200191505060405180910390206000604051602001526040518263ffffffff167c0100000000000000000000000000000000000000000000000000000000028152600401808260001916600019168152602001915050602060405180830381600087803b15156110bb57600080fd5b6102c65a03f115156110cc57600080fd5b5050506040518051905060ff16145b80156111c0575060018a73ffffffffffffffffffffffffffffffffffffffff16637a0e03ec8460405180807f7363616e2d726571756573742f7374617475730000000000000000000000000081525060130182815260200191505060405180910390206000604051602001526040518263ffffffff167c0100000000000000000000000000000000000000000000000000000000028152600401808260001916600019168152602001915050602060405180830381600087803b15156111a057600080fd5b6102c65a03f115156111b157600080fd5b5050506040518051905060ff16145b80156112cd57508773ffffffffffffffffffffffffffffffffffffffff168a73ffffffffffffffffffffffffffffffffffffffff16634c77e5ba8460405180807f7363616e2d726571756573742f70617469656e7400000000000000000000000081525060140182815260200191505060405180910390206000604051602001526040518263ffffffff167c0100000000000000000000000000000000000000000000000000000000028152600401808260001916600019168152602001915050602060405180830381600087803b151561129a57600080fd5b6102c65a03f115156112ab57600080fd5b5050506040518051905073ffffffffffffffffffffffffffffffffffffffff16145b80156113da57508873ffffffffffffffffffffffffffffffffffffffff168a73ffffffffffffffffffffffffffffffffffffffff16634c77e5ba8960405180807f7363616e2d6170706c69636174696f6e2f64656e74697374000000000000000081525060180182815260200191505060405180910390206000604051602001526040518263ffffffff167c0100000000000000000000000000000000000000000000000000000000028152600401808260001916600019168152602001915050602060405180830381600087803b15156113a757600080fd5b6102c65a03f115156113b857600080fd5b5050506040518051905073ffffffffffffffffffffffffffffffffffffffff16145b80156114e757508773ffffffffffffffffffffffffffffffffffffffff168a73ffffffffffffffffffffffffffffffffffffffff16634c77e5ba8960405180807f7363616e2d6170706c69636174696f6e2f70617469656e74000000000000000081525060180182815260200191505060405180910390206000604051602001526040518263ffffffff167c0100000000000000000000000000000000000000000000000000000000028152600401808260001916600019168152602001915050602060405180830381600087803b15156114b457600080fd5b6102c65a03f115156114c557600080fd5b5050506040518051905073ffffffffffffffffffffffffffffffffffffffff16145b15156114f257600080fd5b8973ffffffffffffffffffffffffffffffffffffffff1663bdc963d88860405180807f7363616e2d6170706c69636174696f6e2f7363616e2d73657276696365000000815250601d0182815260200191505060405180910390206000604051602001526040518263ffffffff167c0100000000000000000000000000000000000000000000000000000000028152600401808260001916600019168152602001915050602060405180830381600087803b15156115ae57600080fd5b6102c65a03f115156115bf57600080fd5b5050506040518051905090506115da8a8a8a84868c896117dc565b6115e98a8a8a868a8a8a6121a6565b8973ffffffffffffffffffffffffffffffffffffffff16630bd851588360405180807f7363616e2d726571756573742f73746174757300000000000000000000000000815250601301828152602001915050604051809103902060046040518363ffffffff167c01000000000000000000000000000000000000000000000000000000000281526004018083600019166000191681526020018260ff16815260200192505050600060405180830381600087803b15156116a857600080fd5b6102c65a03f115156116b957600080fd5b5050508973ffffffffffffffffffffffffffffffffffffffff16630bd851588860405180807f7363616e2d6170706c69636174696f6e2f737461747573000000000000000000815250601701828152602001915050604051809103902060046040518363ffffffff167c01000000000000000000000000000000000000000000000000000000000281526004018083600019166000191681526020018260ff16815260200192505050600060405180830381600087803b151561177b57600080fd5b6102c65a03f1151561178c57600080fd5b50505061179a8a83896128c1565b50505050505050505050565b60006117b183612b0f565b60ff168260ff1614905092915050565b60006117cc83612c4c565b60ff168260ff1614905092915050565b8673ffffffffffffffffffffffffffffffffffffffff16630bd851588260405180807f636173652f737461747573000000000000000000000000000000000000000000815250600b01828152602001915050604051809103902060016040518363ffffffff167c01000000000000000000000000000000000000000000000000000000000281526004018083600019166000191681526020018260ff16815260200192505050600060405180830381600087803b151561189b57600080fd5b6102c65a03f115156118ac57600080fd5b5050508673ffffffffffffffffffffffffffffffffffffffff16633562fd208260405180807f636173652f637265617465642d6f6e0000000000000000000000000000000000815250600f018281526020019150506040518091039020426040518363ffffffff167c010000000000000000000000000000000000000000000000000000000002815260040180836000191660001916815260200182815260200192505050600060405180830381600087803b151561196a57600080fd5b6102c65a03f1151561197b57600080fd5b5050508673ffffffffffffffffffffffffffffffffffffffff16635a2bf25a8260405180807f636173652f64656e746973740000000000000000000000000000000000000000815250600c018281526020019150506040518091039020886040518363ffffffff167c01000000000000000000000000000000000000000000000000000000000281526004018083600019166000191681526020018273ffffffffffffffffffffffffffffffffffffffff1673ffffffffffffffffffffffffffffffffffffffff16815260200192505050600060405180830381600087803b1515611a6557600080fd5b6102c65a03f11515611a7657600080fd5b5050508673ffffffffffffffffffffffffffffffffffffffff16635a2bf25a8260405180807f636173652f70617469656e740000000000000000000000000000000000000000815250600c018281526020019150506040518091039020876040518363ffffffff167c01000000000000000000000000000000000000000000000000000000000281526004018083600019166000191681526020018273ffffffffffffffffffffffffffffffffffffffff1673ffffffffffffffffffffffffffffffffffffffff16815260200192505050600060405180830381600087803b1515611b6057600080fd5b6102c65a03f11515611b7157600080fd5b5050508673ffffffffffffffffffffffffffffffffffffffff16633562fd208260405180807f636173652f7363616e2d736572766963650000000000000000000000000000008152506011018281526020019150506040518091039020866040518363ffffffff167c010000000000000000000000000000000000000000000000000000000002815260040180836000191660001916815260200182815260200192505050600060405180830381600087803b1515611c2f57600080fd5b6102c65a03f11515611c4057600080fd5b5050508673ffffffffffffffffffffffffffffffffffffffff16633562fd208260405180807f636173652f7363616e2d726571756573740000000000000000000000000000008152506011018281526020019150506040518091039020856040518363ffffffff167c010000000000000000000000000000000000000000000000000000000002815260040180836000191660001916815260200182815260200192505050600060405180830381600087803b1515611cfe57600080fd5b6102c65a03f11515611d0f57600080fd5b5050508673ffffffffffffffffffffffffffffffffffffffff16633562fd208460405180807f7363616e2d726571756573742f636173650000000000000000000000000000008152506011018281526020019150506040518091039020836040518363ffffffff167c010000000000000000000000000000000000000000000000000000000002815260040180836000191660001916815260200182815260200192505050600060405180830381600087803b1515611dcd57600080fd5b6102c65a03f11515611dde57600080fd5b5050508673ffffffffffffffffffffffffffffffffffffffff16633eba9ed28460405180807f7363616e2d726571756573742f6861732d636173653f00000000000000000000815250601601828152602001915050604051809103902060016040518363ffffffff167c01000000000000000000000000000000000000000000000000000000000281526004018083600019166000191681526020018215151515815260200192505050600060405180830381600087803b1515611ea157600080fd5b6102c65a03f11515611eb257600080fd5b5050508673ffffffffffffffffffffffffffffffffffffffff16633562fd208260405180807f636173652f7363616e2d6170706c69636174696f6e00000000000000000000008152506015018281526020019150506040518091039020846040518363ffffffff167c010000000000000000000000000000000000000000000000000000000002815260040180836000191660001916815260200182815260200192505050600060405180830381600087803b1515611f7057600080fd5b6102c65a03f11515611f8157600080fd5b5050508673ffffffffffffffffffffffffffffffffffffffff16633562fd208360405180807f7363616e2d6170706c69636174696f6e2f6361736500000000000000000000008152506015018281526020019150506040518091039020836040518363ffffffff167c010000000000000000000000000000000000000000000000000000000002815260040180836000191660001916815260200182815260200192505050600060405180830381600087803b151561203f57600080fd5b6102c65a03f1151561205057600080fd5b5050508673ffffffffffffffffffffffffffffffffffffffff16633eba9ed28360405180807f7363616e2d6170706c69636174696f6e2f6861732d636173653f000000000000815250601a01828152602001915050604051809103902060016040518363ffffffff167c01000000000000000000000000000000000000000000000000000000000281526004018083600019166000191681526020018215151515815260200192505050600060405180830381600087803b151561211357600080fd5b6102c65a03f1151561212457600080fd5b50505061219d876040805190810160405280600481526020017f63617365000000000000000000000000000000000000000000000000000000008152506040805190810160405280600b81526020017f63617365732d636f756e7400000000000000000000000000000000000000000081525084612d89565b50505050505050565b8673ffffffffffffffffffffffffffffffffffffffff16633562fd208560405180807f636173652f616d6f756e74000000000000000000000000000000000000000000815250600b018281526020019150506040518091039020846040518363ffffffff167c010000000000000000000000000000000000000000000000000000000002815260040180836000191660001916815260200182815260200192505050600060405180830381600087803b151561226157600080fd5b6102c65a03f1151561227257600080fd5b5050508673ffffffffffffffffffffffffffffffffffffffff16633562fd208560405180807f636173652f71756f746500000000000000000000000000000000000000000000815250600a018281526020019150506040518091039020836040518363ffffffff167c010000000000000000000000000000000000000000000000000000000002815260040180836000191660001916815260200182815260200192505050600060405180830381600087803b151561233057600080fd5b6102c65a03f1151561234157600080fd5b5050508673ffffffffffffffffffffffffffffffffffffffff16633562fd208460405180807f7061796d656e742f616d6f756e74000000000000000000000000000000000000815250600e018281526020019150506040518091039020846040518363ffffffff167c010000000000000000000000000000000000000000000000000000000002815260040180836000191660001916815260200182815260200192505050600060405180830381600087803b15156123ff57600080fd5b6102c65a03f1151561241057600080fd5b5050508673ffffffffffffffffffffffffffffffffffffffff16633562fd208460405180807f7061796d656e742f71756f746500000000000000000000000000000000000000815250600d018281526020019150506040518091039020836040518363ffffffff167c010000000000000000000000000000000000000000000000000000000002815260040180836000191660001916815260200182815260200192505050600060405180830381600087803b15156124ce57600080fd5b6102c65a03f115156124df57600080fd5b5050508673ffffffffffffffffffffffffffffffffffffffff16633eba9ed28560405180807f636173652f706169640000000000000000000000000000000000000000000000815250600901828152602001915050604051809103902060016040518363ffffffff167c01000000000000000000000000000000000000000000000000000000000281526004018083600019166000191681526020018215151515815260200192505050600060405180830381600087803b15156125a257600080fd5b6102c65a03f115156125b357600080fd5b5050508673ffffffffffffffffffffffffffffffffffffffff16633562fd208560405180807f636173652f7061796d656e740000000000000000000000000000000000000000815250600c018281526020019150506040518091039020856040518363ffffffff167c010000000000000000000000000000000000000000000000000000000002815260040180836000191660001916815260200182815260200192505050600060405180830381600087803b151561267157600080fd5b6102c65a03f1151561268257600080fd5b5050508673ffffffffffffffffffffffffffffffffffffffff16633562fd208460405180807f7061796d656e742f636173650000000000000000000000000000000000000000815250600c018281526020019150506040518091039020866040518363ffffffff167c010000000000000000000000000000000000000000000000000000000002815260040180836000191660001916815260200182815260200192505050600060405180830381600087803b151561274057600080fd5b6102c65a03f1151561275157600080fd5b5050506127cb87876040805190810160405280600c81526020017f64656e746973742f6361736500000000000000000000000000000000000000008152506040805190810160405280601381526020017f64656e746973742f63617365732d636f756e740000000000000000000000000081525088613083565b61284287866040805190810160405280600c81526020017f70617469656e742f6361736500000000000000000000000000000000000000008152506040805190810160405280601381526020017f70617469656e742f63617365732d636f756e740000000000000000000000000081525088613083565b6128b8876040805190810160405280600781526020017f7061796d656e74000000000000000000000000000000000000000000000000008152506040805190810160405280600e81526020017f7061796d656e74732d636f756e7400000000000000000000000000000000000081525086612d89565b50505050505050565b600080600061292d8686606060405190810160405280602481526020017f7363616e2d726571756573742f7363616e2d6170706c69636174696f6e732d6381526020017f6f756e7400000000000000000000000000000000000000000000000000000000815250613313565b9250600091505b82821015612b07578573ffffffffffffffffffffffffffffffffffffffff1663bdc963d8868460405180807f7363616e2d726571756573742f7363616e2d6170706c69636174696f6e000000815250601d018381526020018281526020019250505060405180910390206000604051602001526040518263ffffffff167c0100000000000000000000000000000000000000000000000000000000028152600401808260001916600019168152602001915050602060405180830381600087803b1515612a0057600080fd5b6102c65a03f11515612a1157600080fd5b5050506040518051905090508381141515612afa578573ffffffffffffffffffffffffffffffffffffffff16630bd851588260405180807f7363616e2d6170706c69636174696f6e2f737461747573000000000000000000815250601701828152602001915050604051809103902060056040518363ffffffff167c01000000000000000000000000000000000000000000000000000000000281526004018083600019166000191681526020018260ff16815260200192505050600060405180830381600087803b1515612ae557600080fd5b6102c65a03f11515612af657600080fd5b5050505b8180600101925050612934565b505050505050565b6000600160009054906101000a900473ffffffffffffffffffffffffffffffffffffffff1673ffffffffffffffffffffffffffffffffffffffff16637a0e03ec8360405180807f757365722f7479706500000000000000000000000000000000000000000000008152506009018273ffffffffffffffffffffffffffffffffffffffff1673ffffffffffffffffffffffffffffffffffffffff166c0100000000000000000000000002815260140191505060405180910390206000604051602001526040518263ffffffff167c0100000000000000000000000000000000000000000000000000000000028152600401808260001916600019168152602001915050602060405180830381600087803b1515612c2a57600080fd5b6102c65a03f11515612c3b57600080fd5b505050604051805190509050919050565b6000600160009054906101000a900473ffffffffffffffffffffffffffffffffffffffff1673ffffffffffffffffffffffffffffffffffffffff16637a0e03ec8360405180807f757365722f737461747573000000000000000000000000000000000000000000815250600b018273ffffffffffffffffffffffffffffffffffffffff1673ffffffffffffffffffffffffffffffffffffffff166c0100000000000000000000000002815260140191505060405180910390206000604051602001526040518263ffffffff167c0100000000000000000000000000000000000000000000000000000000028152600401808260001916600019168152602001915050602060405180830381600087803b1515612d6757600080fd5b6102c65a03f11515612d7857600080fd5b505050604051805190509050919050565b60008473ffffffffffffffffffffffffffffffffffffffff1663bdc963d8846040518082805190602001908083835b602083101515612ddd5780518252602082019150602081019050602083039250612db8565b6001836020036101000a03801982511681845116808217855250505050505090500191505060405180910390206000604051602001526040518263ffffffff167c0100000000000000000000000000000000000000000000000000000000028152600401808260001916600019168152602001915050602060405180830381600087803b1515612e6c57600080fd5b6102c65a03f11515612e7d57600080fd5b5050506040518051905090508473ffffffffffffffffffffffffffffffffffffffff16633562fd2085836040518083805190602001908083835b602083101515612edc5780518252602082019150602081019050602083039250612eb7565b6001836020036101000a038019825116818451168082178552505050505050905001828152602001925050506040518091039020846040518363ffffffff167c010000000000000000000000000000000000000000000000000000000002815260040180836000191660001916815260200182815260200192505050600060405180830381600087803b1515612f7157600080fd5b6102c65a03f11515612f8257600080fd5b5050508473ffffffffffffffffffffffffffffffffffffffff16633562fd20846040518082805190602001908083835b602083101515612fd75780518252602082019150602081019050602083039250612fb2565b6001836020036101000a0380198251168184511680821785525050505050509050019150506040518091039020600184016040518363ffffffff167c010000000000000000000000000000000000000000000000000000000002815260040180836000191660001916815260200182815260200192505050600060405180830381600087803b151561306857600080fd5b6102c65a03f1151561307957600080fd5b5050505050505050565b6000613090868685613422565b90508573ffffffffffffffffffffffffffffffffffffffff16633562fd208587846040518084805190602001908083835b6020831015156130e657805182526020820191506020810190506020830392506130c1565b6001836020036101000a0380198251168184511680821785525050505050509050018373ffffffffffffffffffffffffffffffffffffffff1673ffffffffffffffffffffffffffffffffffffffff166c0100000000000000000000000002815260140182815260200193505050506040518091039020846040518363ffffffff167c010000000000000000000000000000000000000000000000000000000002815260040180836000191660001916815260200182815260200192505050600060405180830381600087803b15156131bd57600080fd5b6102c65a03f115156131ce57600080fd5b5050508573ffffffffffffffffffffffffffffffffffffffff16633562fd2084876040518083805190602001908083835b60208310151561322457805182526020820191506020810190506020830392506131ff565b6001836020036101000a0380198251168184511680821785525050505050509050018273ffffffffffffffffffffffffffffffffffffffff1673ffffffffffffffffffffffffffffffffffffffff166c01000000000000000000000000028152601401925050506040518091039020600184016040518363ffffffff167c010000000000000000000000000000000000000000000000000000000002815260040180836000191660001916815260200182815260200192505050600060405180830381600087803b15156132f757600080fd5b6102c65a03f1151561330857600080fd5b505050505050505050565b60008373ffffffffffffffffffffffffffffffffffffffff1663bdc963d883856040518083805190602001908083835b6020831015156133685780518252602082019150602081019050602083039250613343565b6001836020036101000a0380198251168184511680821785525050505050509050018281526020019250505060405180910390206000604051602001526040518263ffffffff167c0100000000000000000000000000000000000000000000000000000000028152600401808260001916600019168152602001915050602060405180830381600087803b15156133fe57600080fd5b6102c65a03f1151561340f57600080fd5b5050506040518051905090509392505050565b60008373ffffffffffffffffffffffffffffffffffffffff1663bdc963d883856040518083805190602001908083835b6020831015156134775780518252602082019150602081019050602083039250613452565b6001836020036101000a0380198251168184511680821785525050505050509050018273ffffffffffffffffffffffffffffffffffffffff1673ffffffffffffffffffffffffffffffffffffffff166c010000000000000000000000000281526014019250505060405180910390206000604051602001526040518263ffffffff167c0100000000000000000000000000000000000000000000000000000000028152600401808260001916600019168152602001915050602060405180830381600087803b151561354857600080fd5b6102c65a03f1151561355957600080fd5b50505060405180519050905093925050505600a165627a7a723058206cfb5f4884bc46d529087ddc6928721975b0616cb30a0186e32ebaadab1cf4d70029",
  "source": "pragma solidity 0.4.18;\nimport \"./Restrictor.sol\";\nimport \"../lib/odll/userManager.sol\";\n\ncontract ScanApplicationWriter2 is Restrictor {\n  function ScanApplicationWriter2 (address _dbAddress) public {\n    require(_dbAddress != 0x0);\n    dbAddress = _dbAddress;\n  }\n\n  // Scan Application\n  function acceptScanApplication (\n    address dentistId,\n    uint scanApplicationId,\n    uint quote,\n    uint ODLLFee,\n    uint dentistFee\n  )\n    external\n    payable\n    onlyPermittedSmartContract\n  {\n    address escrowAddress = DB(dbAddress).getAddressValue(keccak256(\"odll/escrow-address\"));\n    require(escrowAddress != 0x0);\n    uint amount = msg.value;\n    require(amount >= quote && quote == SafeMath.add(ODLLFee, dentistFee));\n    if (amount > quote) {\n      uint tempAmount = amount;\n      amount = quote;\n      msg.sender.transfer(SafeMath.sub(tempAmount, quote));\n    }\n\n    uint paymentId = utilities.getArrayItemsCount(dbAddress, \"payments-count\");\n    DB(dbAddress).setUInt8Value(keccak256(\"payment/for-type\", paymentId), 1);\n    DB(dbAddress).setUIntValue(keccak256(\"payment/odll-fee\", paymentId), ODLLFee);\n    DB(dbAddress).setUIntValue(keccak256(\"payment/dentist-fee\", paymentId), dentistFee);\n    userManager.acceptDentistScanApplication(dbAddress, dentistId, msg.sender, scanApplicationId, paymentId, amount, quote);\n\n    lockPayment(msg.sender, paymentId);\n    escrowAddress.transfer(amount);\n  }\n}\n",
  "sourcePath": "/Users/danielokwufulueze/dev/vue/apps/oraldatalink/contracts/odll/ScanApplicationWriter2.sol",
  "compiler": {
    "name": "solc",
    "version": "0.4.18+commit.9cf6e910.Emscripten.clang"
  },
  "schemaVersion": "1.0.1",
  "updatedAt": "2018-02-03T16:42:35.808Z"
}