{
  "contractName": "ServiceWriter",
  "abi": [
    {
      "constant": true,
      "inputs": [],
      "name": "smartContractStatus",
      "outputs": [
        {
          "name": "",
          "type": "uint8"
        }
      ],
      "payable": false,
      "stateMutability": "view",
      "type": "function"
    },
    {
      "constant": false,
      "inputs": [
        {
          "name": "serviceTypeId",
          "type": "uint256"
        },
        {
          "name": "serviceId",
          "type": "uint256"
        }
      ],
      "name": "removeDentistFromService",
      "outputs": [],
      "payable": false,
      "stateMutability": "nonpayable",
      "type": "function"
    },
    {
      "constant": false,
      "inputs": [
        {
          "name": "serviceTypeId",
          "type": "uint256"
        },
        {
          "name": "serviceIds",
          "type": "uint256[]"
        }
      ],
      "name": "removeServices",
      "outputs": [],
      "payable": false,
      "stateMutability": "nonpayable",
      "type": "function"
    },
    {
      "constant": true,
      "inputs": [],
      "name": "owner",
      "outputs": [
        {
          "name": "",
          "type": "address"
        }
      ],
      "payable": false,
      "stateMutability": "view",
      "type": "function"
    },
    {
      "constant": true,
      "inputs": [],
      "name": "dbAddress",
      "outputs": [
        {
          "name": "",
          "type": "address"
        }
      ],
      "payable": false,
      "stateMutability": "view",
      "type": "function"
    },
    {
      "constant": false,
      "inputs": [
        {
          "name": "serviceTypeId",
          "type": "uint256"
        },
        {
          "name": "serviceIds",
          "type": "uint256[]"
        }
      ],
      "name": "writeServices",
      "outputs": [],
      "payable": false,
      "stateMutability": "nonpayable",
      "type": "function"
    },
    {
      "constant": false,
      "inputs": [
        {
          "name": "newOwner",
          "type": "address"
        }
      ],
      "name": "transferOwnership",
      "outputs": [],
      "payable": false,
      "stateMutability": "nonpayable",
      "type": "function"
    },
    {
      "constant": false,
      "inputs": [
        {
          "name": "serviceTypeId",
          "type": "uint256"
        },
        {
          "name": "serviceId",
          "type": "uint256"
        },
        {
          "name": "fee",
          "type": "uint256"
        }
      ],
      "name": "writeServiceWithFee",
      "outputs": [],
      "payable": false,
      "stateMutability": "nonpayable",
      "type": "function"
    },
    {
      "inputs": [
        {
          "name": "_dbAddress",
          "type": "address"
        }
      ],
      "payable": false,
      "stateMutability": "nonpayable",
      "type": "constructor"
    },
    {
      "anonymous": false,
      "inputs": [
        {
          "indexed": false,
          "name": "status",
          "type": "uint8"
        }
      ],
      "name": "OnSmartContractStatusSet",
      "type": "event"
    },
    {
      "anonymous": false,
      "inputs": [
        {
          "indexed": true,
          "name": "previousOwner",
          "type": "address"
        },
        {
          "indexed": true,
          "name": "newOwner",
          "type": "address"
        }
      ],
      "name": "OwnershipTransferred",
      "type": "event"
    }
  ],
  "bytecode": "0x6060604052341561000f57600080fd5b604051602080611d1783398101604052808051906020019091905050336000806101000a81548173ffffffffffffffffffffffffffffffffffffffff021916908373ffffffffffffffffffffffffffffffffffffffff16021790555060008173ffffffffffffffffffffffffffffffffffffffff161415151561009157600080fd5b80600160006101000a81548173ffffffffffffffffffffffffffffffffffffffff021916908373ffffffffffffffffffffffffffffffffffffffff16021790555050611c35806100e26000396000f30060606040526004361061008e576000357c0100000000000000000000000000000000000000000000000000000000900463ffffffff1680634c8ddddc146100935780637602ab0b146100c257806386b7c22c146100ee5780638da5cb5b1461012557806391e06b6d1461017a578063cf0c9180146101cf578063f2fde38b14610206578063fd60bc041461023f575b600080fd5b341561009e57600080fd5b6100a6610274565b604051808260ff1660ff16815260200191505060405180910390f35b34156100cd57600080fd5b6100ec6004808035906020019091908035906020019091905050610287565b005b34156100f957600080fd5b610123600480803590602001909190803590602001908201803590602001919091929050506102d6565b005b341561013057600080fd5b610138610357565b604051808273ffffffffffffffffffffffffffffffffffffffff1673ffffffffffffffffffffffffffffffffffffffff16815260200191505060405180910390f35b341561018557600080fd5b61018d61037c565b604051808273ffffffffffffffffffffffffffffffffffffffff1673ffffffffffffffffffffffffffffffffffffffff16815260200191505060405180910390f35b34156101da57600080fd5b610204600480803590602001909190803590602001908201803590602001919091929050506103a2565b005b341561021157600080fd5b61023d600480803573ffffffffffffffffffffffffffffffffffffffff16906020019091905050610423565b005b341561024a57600080fd5b6102726004808035906020019091908035906020019091908035906020019091905050610578565b005b600160149054906101000a900460ff1681565b60008214158015610299575060008114155b15156102a457600080fd5b6102d2600160009054906101000a900473ffffffffffffffffffffffffffffffffffffffff168383336105d6565b5050565b600083141580156102ea5750600082829050115b15156102f557600080fd5b610352600160009054906101000a900473ffffffffffffffffffffffffffffffffffffffff1684848480806020026020016040519081016040528093929190818152602001838360200280828437820191505050505050336105e8565b505050565b6000809054906101000a900473ffffffffffffffffffffffffffffffffffffffff1681565b600160009054906101000a900473ffffffffffffffffffffffffffffffffffffffff1681565b600083141580156103b65750600082829050115b15156103c157600080fd5b61041e600160009054906101000a900473ffffffffffffffffffffffffffffffffffffffff1684848480806020026020016040519081016040528093929190818152602001838360200280828437820191505050505050336105fa565b505050565b6000809054906101000a900473ffffffffffffffffffffffffffffffffffffffff1673ffffffffffffffffffffffffffffffffffffffff163373ffffffffffffffffffffffffffffffffffffffff1614151561047e57600080fd5b600073ffffffffffffffffffffffffffffffffffffffff168173ffffffffffffffffffffffffffffffffffffffff16141515156104ba57600080fd5b8073ffffffffffffffffffffffffffffffffffffffff166000809054906101000a900473ffffffffffffffffffffffffffffffffffffffff1673ffffffffffffffffffffffffffffffffffffffff167f8be0079c531659141344cd1fd0a4f28419497f9722a3daafe3b4186f6b6457e060405160405180910390a3806000806101000a81548173ffffffffffffffffffffffffffffffffffffffff021916908373ffffffffffffffffffffffffffffffffffffffff16021790555050565b6000831415801561058a575060008214155b8015610597575060008114155b15156105a257600080fd5b6105d1600160009054906101000a900473ffffffffffffffffffffffffffffffffffffffff168484843361060c565b505050565b6105e28484848461062c565b50505050565b6105f48484848461074f565b50505050565b61060684848484610795565b50505050565b610618858585846107db565b6106258585858585610aae565b5050505050565b60018314156106bc5761067684826040805190810160405280601481526020017f64656e746973742f7363616e2d7365727669636500000000000000000000000081525085610cf2565b6106b784836040805190810160405280601481526020017f7363616e2d736572766963652f64656e7469737400000000000000000000000081525084610e3b565b610749565b60028314156107485761070684826040805190810160405280601981526020017f64656e746973742f74726561746d656e742d736572766963650000000000000081525085610cf2565b61074784836040805190810160405280601981526020017f74726561746d656e742d736572766963652f64656e746973740000000000000081525084610e3b565b5b5b50505050565b60008090505b825181101561078e576107818585858481518110151561077157fe5b906020019060200201518561062c565b8080600101915050610755565b5050505050565b60008090505b82518110156107d4576107c7858585848151811015156107b757fe5b90602001906020020151856107db565b808060010191505061079b565b5050505050565b60018314156109435761089184826040805190810160405280601481526020017f64656e746973742f7363616e2d736572766963650000000000000000000000008152506040805190810160405280601b81526020017f64656e746973742f7363616e2d73657276696365732d636f756e7400000000008152506040805190810160405280601881526020017f64656e746973742f7363616e2d736572766963652d6b6579000000000000000081525087610f84565b61093e84836040805190810160405280601481526020017f7363616e2d736572766963652f64656e746973740000000000000000000000008152506040805190810160405280601b81526020017f7363616e2d736572766963652f64656e74697374732d636f756e7400000000008152506040805190810160405280601881526020017f7363616e2d736572766963652f64656e746973742d6b657900000000000000008152508661122f565b610aa8565b6002831415610aa7576109f984826040805190810160405280601981526020017f64656e746973742f74726561746d656e742d73657276696365000000000000008152506040805190810160405280602081526020017f64656e746973742f74726561746d656e742d73657276696365732d636f756e748152506040805190810160405280601d81526020017f64656e746973742f74726561746d656e742d736572766963652d6b657900000081525087610f84565b610aa684836040805190810160405280601981526020017f74726561746d656e742d736572766963652f64656e74697374000000000000008152506040805190810160405280602081526020017f74726561746d656e742d736572766963652f64656e74697374732d636f756e748152506040805190810160405280601d81526020017f74726561746d656e742d736572766963652f64656e746973742d6b65790000008152508661122f565b5b5b50505050565b6001841415610bce578473ffffffffffffffffffffffffffffffffffffffff16633562fd20828560405180807f64656e746973742f7363616e2d736572766963652f66656500000000000000008152506018018373ffffffffffffffffffffffffffffffffffffffff1673ffffffffffffffffffffffffffffffffffffffff166c01000000000000000000000000028152601401828152602001925050506040518091039020846040518363ffffffff167c010000000000000000000000000000000000000000000000000000000002815260040180836000191660001916815260200182815260200192505050600060405180830381600087803b1515610bb557600080fd5b6102c65a03f11515610bc657600080fd5b505050610ceb565b6002841415610cea578473ffffffffffffffffffffffffffffffffffffffff16633562fd20828560405180807f64656e746973742f74726561746d656e742d736572766963652f666565000000815250601d018373ffffffffffffffffffffffffffffffffffffffff1673ffffffffffffffffffffffffffffffffffffffff166c01000000000000000000000000028152601401828152602001925050506040518091039020846040518363ffffffff167c010000000000000000000000000000000000000000000000000000000002815260040180836000191660001916815260200182815260200192505050600060405180830381600087803b1515610cd557600080fd5b6102c65a03f11515610ce657600080fd5b5050505b5b5050505050565b8373ffffffffffffffffffffffffffffffffffffffff16630bd851588385846040518084805190602001908083835b602083101515610d465780518252602082019150602081019050602083039250610d21565b6001836020036101000a0380198251168184511680821785525050505050509050018373ffffffffffffffffffffffffffffffffffffffff1673ffffffffffffffffffffffffffffffffffffffff166c010000000000000000000000000281526014018281526020019350505050604051809103902060026040518363ffffffff167c01000000000000000000000000000000000000000000000000000000000281526004018083600019166000191681526020018260ff16815260200192505050600060405180830381600087803b1515610e2157600080fd5b6102c65a03f11515610e3257600080fd5b50505050505050565b8373ffffffffffffffffffffffffffffffffffffffff16630bd851588385846040518084805190602001908083835b602083101515610e8f5780518252602082019150602081019050602083039250610e6a565b6001836020036101000a0380198251168184511680821785525050505050509050018381526020018273ffffffffffffffffffffffffffffffffffffffff1673ffffffffffffffffffffffffffffffffffffffff166c010000000000000000000000000281526014019350505050604051809103902060026040518363ffffffff167c01000000000000000000000000000000000000000000000000000000000281526004018083600019166000191681526020018260ff16815260200192505050600060405180830381600087803b1515610f6a57600080fd5b6102c65a03f11515610f7b57600080fd5b50505050505050565b60008673ffffffffffffffffffffffffffffffffffffffff16637a0e03ec8688856040518084805190602001908083835b602083101515610fda5780518252602082019150602081019050602083039250610fb5565b6001836020036101000a0380198251168184511680821785525050505050509050018373ffffffffffffffffffffffffffffffffffffffff1673ffffffffffffffffffffffffffffffffffffffff166c01000000000000000000000000028152601401828152602001935050505060405180910390206000604051602001526040518263ffffffff167c0100000000000000000000000000000000000000000000000000000000028152600401808260001916600019168152602001915050602060405180830381600087803b15156110b257600080fd5b6102c65a03f115156110c357600080fd5b5050506040518051905060ff1614156110e4576110e386868486856114da565b5b8573ffffffffffffffffffffffffffffffffffffffff16630bd851588587846040518084805190602001908083835b6020831015156111385780518252602082019150602081019050602083039250611113565b6001836020036101000a0380198251168184511680821785525050505050509050018373ffffffffffffffffffffffffffffffffffffffff1673ffffffffffffffffffffffffffffffffffffffff166c010000000000000000000000000281526014018281526020019350505050604051809103902060016040518363ffffffff167c01000000000000000000000000000000000000000000000000000000000281526004018083600019166000191681526020018260ff16815260200192505050600060405180830381600087803b151561121357600080fd5b6102c65a03f1151561122457600080fd5b505050505050505050565b60008673ffffffffffffffffffffffffffffffffffffffff16637a0e03ec8688856040518084805190602001908083835b6020831015156112855780518252602082019150602081019050602083039250611260565b6001836020036101000a0380198251168184511680821785525050505050509050018381526020018273ffffffffffffffffffffffffffffffffffffffff1673ffffffffffffffffffffffffffffffffffffffff166c01000000000000000000000000028152601401935050505060405180910390206000604051602001526040518263ffffffff167c0100000000000000000000000000000000000000000000000000000000028152600401808260001916600019168152602001915050602060405180830381600087803b151561135d57600080fd5b6102c65a03f1151561136e57600080fd5b5050506040518051905060ff16141561138f5761138e868684868561176a565b5b8573ffffffffffffffffffffffffffffffffffffffff16630bd851588587846040518084805190602001908083835b6020831015156113e357805182526020820191506020810190506020830392506113be565b6001836020036101000a0380198251168184511680821785525050505050509050018381526020018273ffffffffffffffffffffffffffffffffffffffff1673ffffffffffffffffffffffffffffffffffffffff166c010000000000000000000000000281526014019350505050604051809103902060016040518363ffffffff167c01000000000000000000000000000000000000000000000000000000000281526004018083600019166000191681526020018260ff16815260200192505050600060405180830381600087803b15156114be57600080fd5b6102c65a03f115156114cf57600080fd5b505050505050505050565b60006114e78686856119b0565b90508573ffffffffffffffffffffffffffffffffffffffff16633562fd208587846040518084805190602001908083835b60208310151561153d5780518252602082019150602081019050602083039250611518565b6001836020036101000a0380198251168184511680821785525050505050509050018373ffffffffffffffffffffffffffffffffffffffff1673ffffffffffffffffffffffffffffffffffffffff166c0100000000000000000000000002815260140182815260200193505050506040518091039020846040518363ffffffff167c010000000000000000000000000000000000000000000000000000000002815260040180836000191660001916815260200182815260200192505050600060405180830381600087803b151561161457600080fd5b6102c65a03f1151561162557600080fd5b5050508573ffffffffffffffffffffffffffffffffffffffff16633562fd2084876040518083805190602001908083835b60208310151561167b5780518252602082019150602081019050602083039250611656565b6001836020036101000a0380198251168184511680821785525050505050509050018273ffffffffffffffffffffffffffffffffffffffff1673ffffffffffffffffffffffffffffffffffffffff166c01000000000000000000000000028152601401925050506040518091039020600184016040518363ffffffff167c010000000000000000000000000000000000000000000000000000000002815260040180836000191660001916815260200182815260200192505050600060405180830381600087803b151561174e57600080fd5b6102c65a03f1151561175f57600080fd5b505050505050505050565b6000611777868685611afa565b90508573ffffffffffffffffffffffffffffffffffffffff16635a2bf25a8587846040518084805190602001908083835b6020831015156117cd57805182526020820191506020810190506020830392506117a8565b6001836020036101000a03801982511681845116808217855250505050505090500183815260200182815260200193505050506040518091039020846040518363ffffffff167c01000000000000000000000000000000000000000000000000000000000281526004018083600019166000191681526020018273ffffffffffffffffffffffffffffffffffffffff1673ffffffffffffffffffffffffffffffffffffffff16815260200192505050600060405180830381600087803b151561189557600080fd5b6102c65a03f115156118a657600080fd5b5050508573ffffffffffffffffffffffffffffffffffffffff16633562fd2084876040518083805190602001908083835b6020831015156118fc57805182526020820191506020810190506020830392506118d7565b6001836020036101000a038019825116818451168082178552505050505050905001828152602001925050506040518091039020600184016040518363ffffffff167c010000000000000000000000000000000000000000000000000000000002815260040180836000191660001916815260200182815260200192505050600060405180830381600087803b151561199457600080fd5b6102c65a03f115156119a557600080fd5b505050505050505050565b60008373ffffffffffffffffffffffffffffffffffffffff1663bdc963d883856040518083805190602001908083835b602083101515611a0557805182526020820191506020810190506020830392506119e0565b6001836020036101000a0380198251168184511680821785525050505050509050018273ffffffffffffffffffffffffffffffffffffffff1673ffffffffffffffffffffffffffffffffffffffff166c010000000000000000000000000281526014019250505060405180910390206000604051602001526040518263ffffffff167c0100000000000000000000000000000000000000000000000000000000028152600401808260001916600019168152602001915050602060405180830381600087803b1515611ad657600080fd5b6102c65a03f11515611ae757600080fd5b5050506040518051905090509392505050565b60008373ffffffffffffffffffffffffffffffffffffffff1663bdc963d883856040518083805190602001908083835b602083101515611b4f5780518252602082019150602081019050602083039250611b2a565b6001836020036101000a0380198251168184511680821785525050505050509050018281526020019250505060405180910390206000604051602001526040518263ffffffff167c0100000000000000000000000000000000000000000000000000000000028152600401808260001916600019168152602001915050602060405180830381600087803b1515611be557600080fd5b6102c65a03f11515611bf657600080fd5b50505060405180519050905093925050505600a165627a7a72305820fabdd833f80351ec96c56d6feb116579af03631f26e97c7a1aefde7fa76891e10029",
  "source": "pragma solidity 0.4.18;\nimport \"./Restrictor.sol\";\nimport \"../lib/odll/userManager.sol\";\n\ncontract ServiceWriter is Restrictor {\n\n  function ServiceWriter(address _dbAddress) public {\n    require(_dbAddress != 0x0);\n    dbAddress = _dbAddress;\n  }\n\n  function writeServices(\n    uint serviceTypeId,\n    uint[] serviceIds\n  )\n    external\n  {\n    require(serviceTypeId != 0 && serviceIds.length > 0);\n    userManager.writeServices(dbAddress, serviceTypeId, serviceIds, msg.sender);\n  }\n\n  function writeServiceWithFee(\n    uint serviceTypeId,\n    uint serviceId,\n    uint fee\n  )\n    external\n  {\n    require(serviceTypeId != 0 && serviceId != 0 && fee != 0);\n    userManager.writeServiceWithFee(dbAddress, serviceTypeId, serviceId, fee, msg.sender);\n  }\n\n  function removeDentistFromService(\n    uint serviceTypeId,\n    uint serviceId\n  )\n    external\n  {\n    require(serviceTypeId != 0 && serviceId != 0);\n    userManager.removeDentistFromService(dbAddress, serviceTypeId, serviceId, msg.sender);\n  }\n\n  function removeServices(\n    uint serviceTypeId,\n    uint[] serviceIds\n  )\n    external\n  {\n    require(serviceTypeId != 0 && serviceIds.length > 0);\n    userManager.removeServices(dbAddress, serviceTypeId, serviceIds, msg.sender);\n  }\n}\n",
  "sourcePath": "/home/daniel/dev/vue/apps/oral-data-link/contracts/odll/ServiceWriter.sol",
  "compiler": {
    "name": "solc",
    "version": "0.4.18+commit.9cf6e910.Emscripten.clang"
  },
  "schemaVersion": "1.0.1",
  "updatedAt": "2017-11-08T14:14:33.962Z"
}