{
  "contractName": "ServiceWriter",
  "abi": [
    {
      "constant": false,
      "inputs": [
        {
          "name": "userId",
          "type": "address"
        },
        {
          "name": "paymentId",
          "type": "uint256"
        }
      ],
      "name": "lockPayment",
      "outputs": [],
      "payable": false,
      "stateMutability": "nonpayable",
      "type": "function"
    },
    {
      "constant": true,
      "inputs": [],
      "name": "smartContractStatus",
      "outputs": [
        {
          "name": "",
          "type": "uint8"
        }
      ],
      "payable": false,
      "stateMutability": "view",
      "type": "function"
    },
    {
      "constant": false,
      "inputs": [
        {
          "name": "serviceTypeId",
          "type": "uint256"
        },
        {
          "name": "serviceId",
          "type": "uint256"
        }
      ],
      "name": "removeDentistFromService",
      "outputs": [],
      "payable": false,
      "stateMutability": "nonpayable",
      "type": "function"
    },
    {
      "constant": false,
      "inputs": [
        {
          "name": "serviceTypeId",
          "type": "uint256"
        },
        {
          "name": "serviceIds",
          "type": "uint256[]"
        }
      ],
      "name": "removeServices",
      "outputs": [],
      "payable": false,
      "stateMutability": "nonpayable",
      "type": "function"
    },
    {
      "constant": true,
      "inputs": [],
      "name": "owner",
      "outputs": [
        {
          "name": "",
          "type": "address"
        }
      ],
      "payable": false,
      "stateMutability": "view",
      "type": "function"
    },
    {
      "constant": true,
      "inputs": [],
      "name": "dbAddress",
      "outputs": [
        {
          "name": "",
          "type": "address"
        }
      ],
      "payable": false,
      "stateMutability": "view",
      "type": "function"
    },
    {
      "constant": false,
      "inputs": [
        {
          "name": "serviceTypeId",
          "type": "uint256"
        },
        {
          "name": "serviceIds",
          "type": "uint256[]"
        }
      ],
      "name": "writeServices",
      "outputs": [],
      "payable": false,
      "stateMutability": "nonpayable",
      "type": "function"
    },
    {
      "constant": false,
      "inputs": [
        {
          "name": "newOwner",
          "type": "address"
        }
      ],
      "name": "transferOwnership",
      "outputs": [],
      "payable": false,
      "stateMutability": "nonpayable",
      "type": "function"
    },
    {
      "constant": false,
      "inputs": [
        {
          "name": "serviceTypeId",
          "type": "uint256"
        },
        {
          "name": "serviceId",
          "type": "uint256"
        },
        {
          "name": "fee",
          "type": "uint256"
        }
      ],
      "name": "writeServiceWithFee",
      "outputs": [],
      "payable": false,
      "stateMutability": "nonpayable",
      "type": "function"
    },
    {
      "inputs": [
        {
          "name": "_dbAddress",
          "type": "address"
        }
      ],
      "payable": false,
      "stateMutability": "nonpayable",
      "type": "constructor"
    },
    {
      "anonymous": false,
      "inputs": [
        {
          "indexed": false,
          "name": "paymentId",
          "type": "uint256"
        }
      ],
      "name": "PaymentLocked",
      "type": "event"
    },
    {
      "anonymous": false,
      "inputs": [
        {
          "indexed": false,
          "name": "status",
          "type": "uint8"
        }
      ],
      "name": "OnSmartContractStatusSet",
      "type": "event"
    },
    {
      "anonymous": false,
      "inputs": [
        {
          "indexed": true,
          "name": "previousOwner",
          "type": "address"
        },
        {
          "indexed": true,
          "name": "newOwner",
          "type": "address"
        }
      ],
      "name": "OwnershipTransferred",
      "type": "event"
    }
  ],
  "bytecode": "0x6060604052341561000f57600080fd5b60405160208061229283398101604052808051906020019091905050336000806101000a81548173ffffffffffffffffffffffffffffffffffffffff021916908373ffffffffffffffffffffffffffffffffffffffff16021790555060008173ffffffffffffffffffffffffffffffffffffffff161415151561009157600080fd5b80600160006101000a81548173ffffffffffffffffffffffffffffffffffffffff021916908373ffffffffffffffffffffffffffffffffffffffff160217905550506121b0806100e26000396000f300606060405260043610610099576000357c0100000000000000000000000000000000000000000000000000000000900463ffffffff1680633f4b14701461009e5780634c8ddddc146100e05780637602ab0b1461010f57806386b7c22c1461013b5780638da5cb5b1461017257806391e06b6d146101c7578063cf0c91801461021c578063f2fde38b14610253578063fd60bc041461028c575b600080fd5b34156100a957600080fd5b6100de600480803573ffffffffffffffffffffffffffffffffffffffff169060200190919080359060200190919050506102c1565b005b34156100eb57600080fd5b6100f3610518565b604051808260ff1660ff16815260200191505060405180910390f35b341561011a57600080fd5b610139600480803590602001909190803590602001909190505061052b565b005b341561014657600080fd5b6101706004808035906020019091908035906020019082018035906020019190919290505061057a565b005b341561017d57600080fd5b6101856105fb565b604051808273ffffffffffffffffffffffffffffffffffffffff1673ffffffffffffffffffffffffffffffffffffffff16815260200191505060405180910390f35b34156101d257600080fd5b6101da610620565b604051808273ffffffffffffffffffffffffffffffffffffffff1673ffffffffffffffffffffffffffffffffffffffff16815260200191505060405180910390f35b341561022757600080fd5b61025160048080359060200190919080359060200190820180359060200191909192905050610646565b005b341561025e57600080fd5b61028a600480803573ffffffffffffffffffffffffffffffffffffffff169060200190919050506106c7565b005b341561029757600080fd5b6102bf600480803590602001909190803590602001909190803590602001909190505061081c565b005b816102cb8161087a565b15156102d657600080fd5b8160018060ff16600160009054906101000a900473ffffffffffffffffffffffffffffffffffffffff1673ffffffffffffffffffffffffffffffffffffffff16637a0e03ec8460405180807f7061796d656e742f737461746500000000000000000000000000000000000000815250600d0182815260200191505060405180910390206000604051602001526040518263ffffffff167c0100000000000000000000000000000000000000000000000000000000028152600401808260001916600019168152602001915050602060405180830381600087803b15156103bb57600080fd5b6102c65a03f115156103cc57600080fd5b5050506040518051905060ff161415156103e557600080fd5b600160009054906101000a900473ffffffffffffffffffffffffffffffffffffffff1673ffffffffffffffffffffffffffffffffffffffff16630bd851588560405180807f7061796d656e742f737461746500000000000000000000000000000000000000815250600d01828152602001915050604051809103902060026040518363ffffffff167c01000000000000000000000000000000000000000000000000000000000281526004018083600019166000191681526020018260ff16815260200192505050600060405180830381600087803b15156104c657600080fd5b6102c65a03f115156104d757600080fd5b5050507fa5f78a79f83dfad686a63ca003a42f6c262d9fdc43a6742c56f5c27c11b9a1e2846040518082815260200191505060405180910390a15050505050565b600160149054906101000a900460ff1681565b6000821415801561053d575060008114155b151561054857600080fd5b610576600160009054906101000a900473ffffffffffffffffffffffffffffffffffffffff168383336108a1565b5050565b6000831415801561058e5750600082829050115b151561059957600080fd5b6105f6600160009054906101000a900473ffffffffffffffffffffffffffffffffffffffff1684848480806020026020016040519081016040528093929190818152602001838360200280828437820191505050505050336108b3565b505050565b6000809054906101000a900473ffffffffffffffffffffffffffffffffffffffff1681565b600160009054906101000a900473ffffffffffffffffffffffffffffffffffffffff1681565b6000831415801561065a5750600082829050115b151561066557600080fd5b6106c2600160009054906101000a900473ffffffffffffffffffffffffffffffffffffffff1684848480806020026020016040519081016040528093929190818152602001838360200280828437820191505050505050336108c5565b505050565b6000809054906101000a900473ffffffffffffffffffffffffffffffffffffffff1673ffffffffffffffffffffffffffffffffffffffff163373ffffffffffffffffffffffffffffffffffffffff1614151561072257600080fd5b600073ffffffffffffffffffffffffffffffffffffffff168173ffffffffffffffffffffffffffffffffffffffff161415151561075e57600080fd5b8073ffffffffffffffffffffffffffffffffffffffff166000809054906101000a900473ffffffffffffffffffffffffffffffffffffffff1673ffffffffffffffffffffffffffffffffffffffff167f8be0079c531659141344cd1fd0a4f28419497f9722a3daafe3b4186f6b6457e060405160405180910390a3806000806101000a81548173ffffffffffffffffffffffffffffffffffffffff021916908373ffffffffffffffffffffffffffffffffffffffff16021790555050565b6000831415801561082e575060008214155b801561083b575060008114155b151561084657600080fd5b610875600160009054906101000a900473ffffffffffffffffffffffffffffffffffffffff16848484336108d7565b505050565b60006108878260016108f7565b801561089a5750610899826001610912565b5b9050919050565b6108ad8484848461092d565b50505050565b6108bf84848484610a50565b50505050565b6108d184848484610a96565b50505050565b6108e385858584610adc565b6108f08585858585610daf565b5050505050565b600061090283610ff3565b60ff168260ff1614905092915050565b600061091d83611130565b60ff168260ff1614905092915050565b60018314156109bd5761097784826040805190810160405280601481526020017f64656e746973742f7363616e2d736572766963650000000000000000000000008152508561126d565b6109b884836040805190810160405280601481526020017f7363616e2d736572766963652f64656e74697374000000000000000000000000815250846113b6565b610a4a565b6002831415610a4957610a0784826040805190810160405280601981526020017f64656e746973742f74726561746d656e742d73657276696365000000000000008152508561126d565b610a4884836040805190810160405280601981526020017f74726561746d656e742d736572766963652f64656e7469737400000000000000815250846113b6565b5b5b50505050565b60008090505b8251811015610a8f57610a8285858584815181101515610a7257fe5b906020019060200201518561092d565b8080600101915050610a56565b5050505050565b60008090505b8251811015610ad557610ac885858584815181101515610ab857fe5b9060200190602002015185610adc565b8080600101915050610a9c565b5050505050565b6001831415610c4457610b9284826040805190810160405280601481526020017f64656e746973742f7363616e2d736572766963650000000000000000000000008152506040805190810160405280601b81526020017f64656e746973742f7363616e2d73657276696365732d636f756e7400000000008152506040805190810160405280601881526020017f64656e746973742f7363616e2d736572766963652d6b65790000000000000000815250876114ff565b610c3f84836040805190810160405280601481526020017f7363616e2d736572766963652f64656e746973740000000000000000000000008152506040805190810160405280601b81526020017f7363616e2d736572766963652f64656e74697374732d636f756e7400000000008152506040805190810160405280601881526020017f7363616e2d736572766963652f64656e746973742d6b65790000000000000000815250866117aa565b610da9565b6002831415610da857610cfa84826040805190810160405280601981526020017f64656e746973742f74726561746d656e742d73657276696365000000000000008152506040805190810160405280602081526020017f64656e746973742f74726561746d656e742d73657276696365732d636f756e748152506040805190810160405280601d81526020017f64656e746973742f74726561746d656e742d736572766963652d6b6579000000815250876114ff565b610da784836040805190810160405280601981526020017f74726561746d656e742d736572766963652f64656e74697374000000000000008152506040805190810160405280602081526020017f74726561746d656e742d736572766963652f64656e74697374732d636f756e748152506040805190810160405280601d81526020017f74726561746d656e742d736572766963652f64656e746973742d6b6579000000815250866117aa565b5b5b50505050565b6001841415610ecf578473ffffffffffffffffffffffffffffffffffffffff16633562fd20828560405180807f64656e746973742f7363616e2d736572766963652f66656500000000000000008152506018018373ffffffffffffffffffffffffffffffffffffffff1673ffffffffffffffffffffffffffffffffffffffff166c01000000000000000000000000028152601401828152602001925050506040518091039020846040518363ffffffff167c010000000000000000000000000000000000000000000000000000000002815260040180836000191660001916815260200182815260200192505050600060405180830381600087803b1515610eb657600080fd5b6102c65a03f11515610ec757600080fd5b505050610fec565b6002841415610feb578473ffffffffffffffffffffffffffffffffffffffff16633562fd20828560405180807f64656e746973742f74726561746d656e742d736572766963652f666565000000815250601d018373ffffffffffffffffffffffffffffffffffffffff1673ffffffffffffffffffffffffffffffffffffffff166c01000000000000000000000000028152601401828152602001925050506040518091039020846040518363ffffffff167c010000000000000000000000000000000000000000000000000000000002815260040180836000191660001916815260200182815260200192505050600060405180830381600087803b1515610fd657600080fd5b6102c65a03f11515610fe757600080fd5b5050505b5b5050505050565b6000600160009054906101000a900473ffffffffffffffffffffffffffffffffffffffff1673ffffffffffffffffffffffffffffffffffffffff16637a0e03ec8360405180807f757365722f7479706500000000000000000000000000000000000000000000008152506009018273ffffffffffffffffffffffffffffffffffffffff1673ffffffffffffffffffffffffffffffffffffffff166c0100000000000000000000000002815260140191505060405180910390206000604051602001526040518263ffffffff167c0100000000000000000000000000000000000000000000000000000000028152600401808260001916600019168152602001915050602060405180830381600087803b151561110e57600080fd5b6102c65a03f1151561111f57600080fd5b505050604051805190509050919050565b6000600160009054906101000a900473ffffffffffffffffffffffffffffffffffffffff1673ffffffffffffffffffffffffffffffffffffffff16637a0e03ec8360405180807f757365722f737461747573000000000000000000000000000000000000000000815250600b018273ffffffffffffffffffffffffffffffffffffffff1673ffffffffffffffffffffffffffffffffffffffff166c0100000000000000000000000002815260140191505060405180910390206000604051602001526040518263ffffffff167c0100000000000000000000000000000000000000000000000000000000028152600401808260001916600019168152602001915050602060405180830381600087803b151561124b57600080fd5b6102c65a03f1151561125c57600080fd5b505050604051805190509050919050565b8373ffffffffffffffffffffffffffffffffffffffff16630bd851588385846040518084805190602001908083835b6020831015156112c1578051825260208201915060208101905060208303925061129c565b6001836020036101000a0380198251168184511680821785525050505050509050018373ffffffffffffffffffffffffffffffffffffffff1673ffffffffffffffffffffffffffffffffffffffff166c010000000000000000000000000281526014018281526020019350505050604051809103902060026040518363ffffffff167c01000000000000000000000000000000000000000000000000000000000281526004018083600019166000191681526020018260ff16815260200192505050600060405180830381600087803b151561139c57600080fd5b6102c65a03f115156113ad57600080fd5b50505050505050565b8373ffffffffffffffffffffffffffffffffffffffff16630bd851588385846040518084805190602001908083835b60208310151561140a57805182526020820191506020810190506020830392506113e5565b6001836020036101000a0380198251168184511680821785525050505050509050018381526020018273ffffffffffffffffffffffffffffffffffffffff1673ffffffffffffffffffffffffffffffffffffffff166c010000000000000000000000000281526014019350505050604051809103902060026040518363ffffffff167c01000000000000000000000000000000000000000000000000000000000281526004018083600019166000191681526020018260ff16815260200192505050600060405180830381600087803b15156114e557600080fd5b6102c65a03f115156114f657600080fd5b50505050505050565b60008673ffffffffffffffffffffffffffffffffffffffff16637a0e03ec8688856040518084805190602001908083835b6020831015156115555780518252602082019150602081019050602083039250611530565b6001836020036101000a0380198251168184511680821785525050505050509050018373ffffffffffffffffffffffffffffffffffffffff1673ffffffffffffffffffffffffffffffffffffffff166c01000000000000000000000000028152601401828152602001935050505060405180910390206000604051602001526040518263ffffffff167c0100000000000000000000000000000000000000000000000000000000028152600401808260001916600019168152602001915050602060405180830381600087803b151561162d57600080fd5b6102c65a03f1151561163e57600080fd5b5050506040518051905060ff16141561165f5761165e8686848685611a55565b5b8573ffffffffffffffffffffffffffffffffffffffff16630bd851588587846040518084805190602001908083835b6020831015156116b3578051825260208201915060208101905060208303925061168e565b6001836020036101000a0380198251168184511680821785525050505050509050018373ffffffffffffffffffffffffffffffffffffffff1673ffffffffffffffffffffffffffffffffffffffff166c010000000000000000000000000281526014018281526020019350505050604051809103902060016040518363ffffffff167c01000000000000000000000000000000000000000000000000000000000281526004018083600019166000191681526020018260ff16815260200192505050600060405180830381600087803b151561178e57600080fd5b6102c65a03f1151561179f57600080fd5b505050505050505050565b60008673ffffffffffffffffffffffffffffffffffffffff16637a0e03ec8688856040518084805190602001908083835b60208310151561180057805182526020820191506020810190506020830392506117db565b6001836020036101000a0380198251168184511680821785525050505050509050018381526020018273ffffffffffffffffffffffffffffffffffffffff1673ffffffffffffffffffffffffffffffffffffffff166c01000000000000000000000000028152601401935050505060405180910390206000604051602001526040518263ffffffff167c0100000000000000000000000000000000000000000000000000000000028152600401808260001916600019168152602001915050602060405180830381600087803b15156118d857600080fd5b6102c65a03f115156118e957600080fd5b5050506040518051905060ff16141561190a576119098686848685611ce5565b5b8573ffffffffffffffffffffffffffffffffffffffff16630bd851588587846040518084805190602001908083835b60208310151561195e5780518252602082019150602081019050602083039250611939565b6001836020036101000a0380198251168184511680821785525050505050509050018381526020018273ffffffffffffffffffffffffffffffffffffffff1673ffffffffffffffffffffffffffffffffffffffff166c010000000000000000000000000281526014019350505050604051809103902060016040518363ffffffff167c01000000000000000000000000000000000000000000000000000000000281526004018083600019166000191681526020018260ff16815260200192505050600060405180830381600087803b1515611a3957600080fd5b6102c65a03f11515611a4a57600080fd5b505050505050505050565b6000611a62868685611f2b565b90508573ffffffffffffffffffffffffffffffffffffffff16633562fd208587846040518084805190602001908083835b602083101515611ab85780518252602082019150602081019050602083039250611a93565b6001836020036101000a0380198251168184511680821785525050505050509050018373ffffffffffffffffffffffffffffffffffffffff1673ffffffffffffffffffffffffffffffffffffffff166c0100000000000000000000000002815260140182815260200193505050506040518091039020846040518363ffffffff167c010000000000000000000000000000000000000000000000000000000002815260040180836000191660001916815260200182815260200192505050600060405180830381600087803b1515611b8f57600080fd5b6102c65a03f11515611ba057600080fd5b5050508573ffffffffffffffffffffffffffffffffffffffff16633562fd2084876040518083805190602001908083835b602083101515611bf65780518252602082019150602081019050602083039250611bd1565b6001836020036101000a0380198251168184511680821785525050505050509050018273ffffffffffffffffffffffffffffffffffffffff1673ffffffffffffffffffffffffffffffffffffffff166c01000000000000000000000000028152601401925050506040518091039020600184016040518363ffffffff167c010000000000000000000000000000000000000000000000000000000002815260040180836000191660001916815260200182815260200192505050600060405180830381600087803b1515611cc957600080fd5b6102c65a03f11515611cda57600080fd5b505050505050505050565b6000611cf2868685612075565b90508573ffffffffffffffffffffffffffffffffffffffff16635a2bf25a8587846040518084805190602001908083835b602083101515611d485780518252602082019150602081019050602083039250611d23565b6001836020036101000a03801982511681845116808217855250505050505090500183815260200182815260200193505050506040518091039020846040518363ffffffff167c01000000000000000000000000000000000000000000000000000000000281526004018083600019166000191681526020018273ffffffffffffffffffffffffffffffffffffffff1673ffffffffffffffffffffffffffffffffffffffff16815260200192505050600060405180830381600087803b1515611e1057600080fd5b6102c65a03f11515611e2157600080fd5b5050508573ffffffffffffffffffffffffffffffffffffffff16633562fd2084876040518083805190602001908083835b602083101515611e775780518252602082019150602081019050602083039250611e52565b6001836020036101000a038019825116818451168082178552505050505050905001828152602001925050506040518091039020600184016040518363ffffffff167c010000000000000000000000000000000000000000000000000000000002815260040180836000191660001916815260200182815260200192505050600060405180830381600087803b1515611f0f57600080fd5b6102c65a03f11515611f2057600080fd5b505050505050505050565b60008373ffffffffffffffffffffffffffffffffffffffff1663bdc963d883856040518083805190602001908083835b602083101515611f805780518252602082019150602081019050602083039250611f5b565b6001836020036101000a0380198251168184511680821785525050505050509050018273ffffffffffffffffffffffffffffffffffffffff1673ffffffffffffffffffffffffffffffffffffffff166c010000000000000000000000000281526014019250505060405180910390206000604051602001526040518263ffffffff167c0100000000000000000000000000000000000000000000000000000000028152600401808260001916600019168152602001915050602060405180830381600087803b151561205157600080fd5b6102c65a03f1151561206257600080fd5b5050506040518051905090509392505050565b60008373ffffffffffffffffffffffffffffffffffffffff1663bdc963d883856040518083805190602001908083835b6020831015156120ca57805182526020820191506020810190506020830392506120a5565b6001836020036101000a0380198251168184511680821785525050505050509050018281526020019250505060405180910390206000604051602001526040518263ffffffff167c0100000000000000000000000000000000000000000000000000000000028152600401808260001916600019168152602001915050602060405180830381600087803b151561216057600080fd5b6102c65a03f1151561217157600080fd5b50505060405180519050905093925050505600a165627a7a723058204b2927118ebd167a8e3f1f077e1f13b51a3bb76fd4af7e4a14f4706ed9a2d30e0029",
  "source": "pragma solidity 0.4.18;\nimport \"./Restrictor.sol\";\nimport \"../lib/odll/userManager.sol\";\n\ncontract ServiceWriter is Restrictor {\n\n  function ServiceWriter (address _dbAddress) public {\n    require(_dbAddress != 0x0);\n    dbAddress = _dbAddress;\n  }\n\n  function writeServices(\n    uint serviceTypeId,\n    uint[] serviceIds\n  )\n    external\n  {\n    require(serviceTypeId != 0 && serviceIds.length > 0);\n    userManager.writeServicesData(dbAddress, serviceTypeId, serviceIds, msg.sender);\n  }\n\n  function writeServiceWithFee (\n    uint serviceTypeId,\n    uint serviceId,\n    uint fee\n  )\n    external\n  {\n    require(serviceTypeId != 0 && serviceId != 0 && fee != 0);\n    userManager.writeServiceDataWithFee(dbAddress, serviceTypeId, serviceId, fee, msg.sender);\n  }\n\n  function removeDentistFromService (\n    uint serviceTypeId,\n    uint serviceId\n  )\n    external\n  {\n    require(serviceTypeId != 0 && serviceId != 0);\n    userManager.removeDentistService(dbAddress, serviceTypeId, serviceId, msg.sender);\n  }\n\n  function removeServices (\n    uint serviceTypeId,\n    uint[] serviceIds\n  )\n    external\n  {\n    require(serviceTypeId != 0 && serviceIds.length > 0);\n    userManager.removeServicesData(dbAddress, serviceTypeId, serviceIds, msg.sender);\n  }\n}\n",
  "sourcePath": "/Users/danielokwufulueze/dev/vue/apps/oraldatalink/contracts/odll/ServiceWriter.sol",
  "compiler": {
    "name": "solc",
    "version": "0.4.18+commit.9cf6e910.Emscripten.clang"
  },
  "schemaVersion": "1.0.1",
  "updatedAt": "2018-02-03T16:42:35.643Z"
}