{
  "contractName": "ServiceReader",
  "abi": [
    {
      "constant": true,
      "inputs": [
        {
          "name": "dentistId",
          "type": "address"
        },
        {
          "name": "offset",
          "type": "uint256"
        },
        {
          "name": "limit",
          "type": "uint256"
        },
        {
          "name": "seed",
          "type": "uint256"
        }
      ],
      "name": "fetchAcceptedScanRequestsForDentist",
      "outputs": [
        {
          "name": "",
          "type": "uint256"
        },
        {
          "name": "",
          "type": "uint256[]"
        }
      ],
      "payable": false,
      "stateMutability": "view",
      "type": "function"
    },
    {
      "constant": true,
      "inputs": [
        {
          "name": "userId",
          "type": "address"
        },
        {
          "name": "serviceTypeId",
          "type": "uint256"
        },
        {
          "name": "offset",
          "type": "uint256"
        },
        {
          "name": "limit",
          "type": "uint256"
        },
        {
          "name": "seed",
          "type": "uint256"
        }
      ],
      "name": "fetchServices",
      "outputs": [
        {
          "name": "",
          "type": "uint256"
        },
        {
          "name": "",
          "type": "uint256[]"
        }
      ],
      "payable": false,
      "stateMutability": "view",
      "type": "function"
    },
    {
      "constant": true,
      "inputs": [
        {
          "name": "patientId",
          "type": "address"
        },
        {
          "name": "offset",
          "type": "uint256"
        },
        {
          "name": "limit",
          "type": "uint256"
        },
        {
          "name": "seed",
          "type": "uint256"
        }
      ],
      "name": "fetchScanRequestsForPatient",
      "outputs": [
        {
          "name": "",
          "type": "uint256"
        },
        {
          "name": "",
          "type": "uint256[]"
        }
      ],
      "payable": false,
      "stateMutability": "view",
      "type": "function"
    },
    {
      "constant": true,
      "inputs": [],
      "name": "smartContractStatus",
      "outputs": [
        {
          "name": "",
          "type": "uint8"
        }
      ],
      "payable": false,
      "stateMutability": "view",
      "type": "function"
    },
    {
      "constant": true,
      "inputs": [
        {
          "name": "userId",
          "type": "address"
        },
        {
          "name": "serviceTypeId",
          "type": "uint256"
        },
        {
          "name": "offset",
          "type": "uint256"
        },
        {
          "name": "limit",
          "type": "uint256"
        },
        {
          "name": "seed",
          "type": "uint256"
        }
      ],
      "name": "fetchServicesWithFees",
      "outputs": [
        {
          "name": "",
          "type": "uint256"
        },
        {
          "name": "",
          "type": "uint256[]"
        }
      ],
      "payable": false,
      "stateMutability": "view",
      "type": "function"
    },
    {
      "constant": true,
      "inputs": [
        {
          "name": "dentistId",
          "type": "address"
        },
        {
          "name": "offset",
          "type": "uint256"
        },
        {
          "name": "limit",
          "type": "uint256"
        },
        {
          "name": "seed",
          "type": "uint256"
        }
      ],
      "name": "fetchScanApplicationsForDentist",
      "outputs": [
        {
          "name": "",
          "type": "uint256"
        },
        {
          "name": "",
          "type": "uint256[]"
        }
      ],
      "payable": false,
      "stateMutability": "view",
      "type": "function"
    },
    {
      "constant": true,
      "inputs": [
        {
          "name": "offset",
          "type": "uint256"
        },
        {
          "name": "limit",
          "type": "uint256"
        },
        {
          "name": "seed",
          "type": "uint256"
        }
      ],
      "name": "fetchAllScanRequests",
      "outputs": [
        {
          "name": "",
          "type": "uint256"
        },
        {
          "name": "",
          "type": "uint256[]"
        }
      ],
      "payable": false,
      "stateMutability": "view",
      "type": "function"
    },
    {
      "constant": true,
      "inputs": [],
      "name": "owner",
      "outputs": [
        {
          "name": "",
          "type": "address"
        }
      ],
      "payable": false,
      "stateMutability": "view",
      "type": "function"
    },
    {
      "constant": true,
      "inputs": [],
      "name": "dbAddress",
      "outputs": [
        {
          "name": "",
          "type": "address"
        }
      ],
      "payable": false,
      "stateMutability": "view",
      "type": "function"
    },
    {
      "constant": true,
      "inputs": [
        {
          "name": "dbAddress",
          "type": "address"
        },
        {
          "name": "dentistId",
          "type": "address"
        },
        {
          "name": "offset",
          "type": "uint256"
        },
        {
          "name": "limit",
          "type": "uint256"
        },
        {
          "name": "seed",
          "type": "uint256"
        }
      ],
      "name": "fetchDirectScanRequestsForDentist",
      "outputs": [
        {
          "name": "",
          "type": "uint256"
        },
        {
          "name": "",
          "type": "uint256[]"
        }
      ],
      "payable": false,
      "stateMutability": "view",
      "type": "function"
    },
    {
      "constant": true,
      "inputs": [
        {
          "name": "patientId",
          "type": "address"
        },
        {
          "name": "offset",
          "type": "uint256"
        },
        {
          "name": "limit",
          "type": "uint256"
        },
        {
          "name": "seed",
          "type": "uint256"
        }
      ],
      "name": "fetchAcceptedScanRequestsForPatient",
      "outputs": [
        {
          "name": "",
          "type": "uint256"
        },
        {
          "name": "",
          "type": "uint256[]"
        }
      ],
      "payable": false,
      "stateMutability": "view",
      "type": "function"
    },
    {
      "constant": true,
      "inputs": [
        {
          "name": "patientId",
          "type": "address"
        },
        {
          "name": "offset",
          "type": "uint256"
        },
        {
          "name": "limit",
          "type": "uint256"
        },
        {
          "name": "seed",
          "type": "uint256"
        }
      ],
      "name": "fetchScanApplicationsForPatient",
      "outputs": [
        {
          "name": "",
          "type": "uint256"
        },
        {
          "name": "",
          "type": "uint256[]"
        }
      ],
      "payable": false,
      "stateMutability": "view",
      "type": "function"
    },
    {
      "constant": false,
      "inputs": [
        {
          "name": "newOwner",
          "type": "address"
        }
      ],
      "name": "transferOwnership",
      "outputs": [],
      "payable": false,
      "stateMutability": "nonpayable",
      "type": "function"
    },
    {
      "inputs": [
        {
          "name": "_dbAddress",
          "type": "address"
        }
      ],
      "payable": false,
      "stateMutability": "nonpayable",
      "type": "constructor"
    },
    {
      "anonymous": false,
      "inputs": [
        {
          "indexed": false,
          "name": "status",
          "type": "uint8"
        }
      ],
      "name": "OnSmartContractStatusSet",
      "type": "event"
    },
    {
      "anonymous": false,
      "inputs": [
        {
          "indexed": true,
          "name": "previousOwner",
          "type": "address"
        },
        {
          "indexed": true,
          "name": "newOwner",
          "type": "address"
        }
      ],
      "name": "OwnershipTransferred",
      "type": "event"
    }
  ],
  "bytecode": "0x6060604052341561000f57600080fd5b6040516020806123b883398101604052808051906020019091905050336000806101000a81548173ffffffffffffffffffffffffffffffffffffffff021916908373ffffffffffffffffffffffffffffffffffffffff16021790555060008173ffffffffffffffffffffffffffffffffffffffff161415151561009157600080fd5b80600160006101000a81548173ffffffffffffffffffffffffffffffffffffffff021916908373ffffffffffffffffffffffffffffffffffffffff160217905550506122d6806100e26000396000f3006060604052600436106100c5576000357c0100000000000000000000000000000000000000000000000000000000900463ffffffff16806312d7636f146100ca5780632d0642061461017a578063355ad885146102335780634c8ddddc146102e35780635a1e4f90146103125780635c783547146103cb578063610f2edc1461047b5780638da5cb5b1461050c57806391e06b6d146105615780639224549c146105b6578063c13b215b14610685578063f044a5ce14610735578063f2fde38b146107e5575b600080fd5b34156100d557600080fd5b61011c600480803573ffffffffffffffffffffffffffffffffffffffff1690602001909190803590602001909190803590602001909190803590602001909190505061081e565b6040518083815260200180602001828103825283818151815260200191508051906020019060200280838360005b8381101561016557808201518184015260208101905061014a565b50505050905001935050505060405180910390f35b341561018557600080fd5b6101d5600480803573ffffffffffffffffffffffffffffffffffffffff16906020019091908035906020019091908035906020019091908035906020019091908035906020019091905050610864565b6040518083815260200180602001828103825283818151815260200191508051906020019060200280838360005b8381101561021e578082015181840152602081019050610203565b50505050905001935050505060405180910390f35b341561023e57600080fd5b610285600480803573ffffffffffffffffffffffffffffffffffffffff169060200190919080359060200190919080359060200190919080359060200190919050506108ac565b6040518083815260200180602001828103825283818151815260200191508051906020019060200280838360005b838110156102ce5780820151818401526020810190506102b3565b50505050905001935050505060405180910390f35b34156102ee57600080fd5b6102f66108f2565b604051808260ff1660ff16815260200191505060405180910390f35b341561031d57600080fd5b61036d600480803573ffffffffffffffffffffffffffffffffffffffff16906020019091908035906020019091908035906020019091908035906020019091908035906020019091905050610905565b6040518083815260200180602001828103825283818151815260200191508051906020019060200280838360005b838110156103b657808201518184015260208101905061039b565b50505050905001935050505060405180910390f35b34156103d657600080fd5b61041d600480803573ffffffffffffffffffffffffffffffffffffffff1690602001909190803590602001909190803590602001909190803590602001909190505061094d565b6040518083815260200180602001828103825283818151815260200191508051906020019060200280838360005b8381101561046657808201518184015260208101905061044b565b50505050905001935050505060405180910390f35b341561048657600080fd5b6104ae6004808035906020019091908035906020019091908035906020019091905050610993565b6040518083815260200180602001828103825283818151815260200191508051906020019060200280838360005b838110156104f75780820151818401526020810190506104dc565b50505050905001935050505060405180910390f35b341561051757600080fd5b61051f6109d7565b604051808273ffffffffffffffffffffffffffffffffffffffff1673ffffffffffffffffffffffffffffffffffffffff16815260200191505060405180910390f35b341561056c57600080fd5b6105746109fc565b604051808273ffffffffffffffffffffffffffffffffffffffff1673ffffffffffffffffffffffffffffffffffffffff16815260200191505060405180910390f35b34156105c157600080fd5b610627600480803573ffffffffffffffffffffffffffffffffffffffff1690602001909190803573ffffffffffffffffffffffffffffffffffffffff16906020019091908035906020019091908035906020019091908035906020019091905050610a22565b6040518083815260200180602001828103825283818151815260200191508051906020019060200280838360005b83811015610670578082015181840152602081019050610655565b50505050905001935050505060405180910390f35b341561069057600080fd5b6106d7600480803573ffffffffffffffffffffffffffffffffffffffff16906020019091908035906020019091908035906020019091908035906020019091905050610a47565b6040518083815260200180602001828103825283818151815260200191508051906020019060200280838360005b83811015610720578082015181840152602081019050610705565b50505050905001935050505060405180910390f35b341561074057600080fd5b610787600480803573ffffffffffffffffffffffffffffffffffffffff16906020019091908035906020019091908035906020019091908035906020019091905050610a8d565b6040518083815260200180602001828103825283818151815260200191508051906020019060200280838360005b838110156107d05780820151818401526020810190506107b5565b50505050905001935050505060405180910390f35b34156107f057600080fd5b61081c600480803573ffffffffffffffffffffffffffffffffffffffff16906020019091905050610ad3565b005b6000610828612296565b610857600160009054906101000a900473ffffffffffffffffffffffffffffffffffffffff1687878787610c28565b9150915094509492505050565b600061086e612296565b61089e600160009054906101000a900473ffffffffffffffffffffffffffffffffffffffff168888888888610c5c565b915091509550959350505050565b60006108b6612296565b6108e5600160009054906101000a900473ffffffffffffffffffffffffffffffffffffffff1687878787610c92565b9150915094509492505050565b600160149054906101000a900460ff1681565b600061090f612296565b61093f600160009054906101000a900473ffffffffffffffffffffffffffffffffffffffff168888888888610cc6565b915091509550959350505050565b6000610957612296565b610986600160009054906101000a900473ffffffffffffffffffffffffffffffffffffffff1687878787610cf1565b9150915094509492505050565b600061099d612296565b6109cb600160009054906101000a900473ffffffffffffffffffffffffffffffffffffffff16868686610d25565b91509150935093915050565b6000809054906101000a900473ffffffffffffffffffffffffffffffffffffffff1681565b600160009054906101000a900473ffffffffffffffffffffffffffffffffffffffff1681565b6000610a2c612296565b610a398787878787610d57565b915091509550959350505050565b6000610a51612296565b610a80600160009054906101000a900473ffffffffffffffffffffffffffffffffffffffff1687878787610d8b565b9150915094509492505050565b6000610a97612296565b610ac6600160009054906101000a900473ffffffffffffffffffffffffffffffffffffffff1687878787610dbf565b9150915094509492505050565b6000809054906101000a900473ffffffffffffffffffffffffffffffffffffffff1673ffffffffffffffffffffffffffffffffffffffff163373ffffffffffffffffffffffffffffffffffffffff16141515610b2e57600080fd5b600073ffffffffffffffffffffffffffffffffffffffff168173ffffffffffffffffffffffffffffffffffffffff1614151515610b6a57600080fd5b8073ffffffffffffffffffffffffffffffffffffffff166000809054906101000a900473ffffffffffffffffffffffffffffffffffffffff1673ffffffffffffffffffffffffffffffffffffffff167f8be0079c531659141344cd1fd0a4f28419497f9722a3daafe3b4186f6b6457e060405160405180910390a3806000806101000a81548173ffffffffffffffffffffffffffffffffffffffff021916908373ffffffffffffffffffffffffffffffffffffffff16021790555050565b6000610c32612296565b610c3c8787610df3565b9050610c4a81868686610fea565b80925081935050509550959350505050565b6000610c66612296565b610c7188878961105a565b9050610c7f81868686610fea565b8092508193505050965096945050505050565b6000610c9c612296565b610ca687876111e2565b9050610cb481868686610fea565b80925081935050509550959350505050565b6000610cd0612296565b610cde888888888888610c5c565b8092508193505050965096945050505050565b6000610cfb612296565b610d058787611268565b9050610d1381868686610fea565b80925081935050509550959350505050565b6000610d2f612296565b610d38866112ee565b9050610d4681868686610fea565b809250819350505094509492505050565b6000610d61612296565b610d6b87876114e3565b9050610d7981868686610fea565b80925081935050509550959350505050565b6000610d95612296565b610d9f8787611569565b9050610dad81868686610fea565b80925081935050509550959350505050565b6000610dc9612296565b610dd3878761177f565b9050610de181868686610fea565b80925081935050509550959350505050565b610dfb612296565b610e03612296565b6000806000610e7e87876040805190810160405280601481526020017f64656e746973742f7363616e2d726571756573740000000000000000000000008152506040805190810160405280601b81526020017f64656e746973742f7363616e2d72657175657374732d636f756e740000000000815250611805565b93508351925082604051805910610e925750595b9080825280602002602001820160405250945060009150600090505b82811015610fd4578673ffffffffffffffffffffffffffffffffffffffff166317e7dd2260405180807f7363616e2d726571756573742f69732d61636365707465643f00000000000000815250601901905060405180910390206000604051602001526040518263ffffffff167c0100000000000000000000000000000000000000000000000000000000028152600401808260001916600019168152602001915050602060405180830381600087803b1515610f6a57600080fd5b6102c65a03f11515610f7b57600080fd5b5050506040518051905015610fc7578381815181101515610f9857fe5b906020019060200201518583815181101515610fb057fe5b906020019060200201818152505081806001019250505b8080600101915050610eae565b610fde82866119c8565b94505050505092915050565b6000610ff4612296565b8551915060008651111561105057855185111561102057816110176000886119c8565b91509150611051565b85518486011115611032578486510393505b61104d86875187860181151561104457fe5b06866001611a5d565b90505b5b94509492505050565b611062612296565b600183141561111e5761111784836040805190810160405280601481526020017f64656e746973742f7363616e2d736572766963650000000000000000000000008152506040805190810160405280601b81526020017f64656e746973742f7363616e2d73657276696365732d636f756e7400000000008152506040805190810160405280601881526020017f64656e746973742f7363616e2d736572766963652d6b65790000000000000000815250611ba8565b90506111db565b60028314156111da576111d384836040805190810160405280601981526020017f64656e746973742f74726561746d656e742d73657276696365000000000000008152506040805190810160405280602081526020017f64656e746973742f74726561746d656e742d73657276696365732d636f756e748152506040805190810160405280601d81526020017f64656e746973742f74726561746d656e742d736572766963652d6b6579000000815250611ba8565b90506111db565b5b9392505050565b6111ea612296565b61126083836040805190810160405280601481526020017f70617469656e742f7363616e2d726571756573740000000000000000000000008152506040805190810160405280601b81526020017f70617469656e742f7363616e2d72657175657374732d636f756e740000000000815250611805565b905092915050565b611270612296565b6112e683836040805190810160405280601881526020017f64656e746973742f7363616e2d6170706c69636174696f6e00000000000000008152506040805190810160405280601f81526020017f64656e746973742f7363616e2d6170706c69636174696f6e732d636f756e7400815250611805565b905092915050565b6112f6612296565b6112fe612296565b6000806000611378866040805190810160405280601481526020017f70617469656e742f7363616e2d726571756573740000000000000000000000008152506040805190810160405280601b81526020017f70617469656e742f7363616e2d72657175657374732d636f756e740000000000815250611edc565b9350835192508260405180591061138c5750595b9080825280602002602001820160405250945060009150600090505b828110156114ce578573ffffffffffffffffffffffffffffffffffffffff166317e7dd2260405180807f7363616e2d726571756573742f69732d67656e6572616c3f0000000000000000815250601801905060405180910390206000604051602001526040518263ffffffff167c0100000000000000000000000000000000000000000000000000000000028152600401808260001916600019168152602001915050602060405180830381600087803b151561146457600080fd5b6102c65a03f1151561147557600080fd5b50505060405180519050156114c157838181518110151561149257fe5b9060200190602002015185838151811015156114aa57fe5b906020019060200201818152505081806001019250505b80806001019150506113a8565b6114d882866119c8565b945050505050919050565b6114eb612296565b61156183836040805190810160405280601481526020017f64656e746973742f7363616e2d726571756573740000000000000000000000008152506040805190810160405280601b81526020017f64656e746973742f7363616e2d72657175657374732d636f756e740000000000815250611805565b905092915050565b611571612296565b611579612296565b60008060006115f487876040805190810160405280601481526020017f70617469656e742f7363616e2d726571756573740000000000000000000000008152506040805190810160405280601b81526020017f70617469656e742f7363616e2d72657175657374732d636f756e740000000000815250611805565b935083519250826040518059106116085750595b9080825280602002602001820160405250945060009150600090505b82811015611769578673ffffffffffffffffffffffffffffffffffffffff166317e7dd22858381518110151561165657fe5b9060200190602002015160405180807f7363616e2d726571756573742f69732d61636365707465643f0000000000000081525060190182815260200191505060405180910390206000604051602001526040518263ffffffff167c0100000000000000000000000000000000000000000000000000000000028152600401808260001916600019168152602001915050602060405180830381600087803b15156116ff57600080fd5b6102c65a03f1151561171057600080fd5b505050604051805190501561175c57838181518110151561172d57fe5b90602001906020020151858381518110151561174557fe5b906020019060200201818152505081806001019250505b8080600101915050611624565b61177382866119c8565b94505050505092915050565b611787612296565b6117fd83836040805190810160405280601881526020017f70617469656e742f7363616e2d6170706c69636174696f6e00000000000000008152506040805190810160405280601f81526020017f70617469656e742f7363616e2d6170706c69636174696f6e732d636f756e7400815250611805565b905092915050565b61180d612296565b60008061181b87878661214c565b91508160405180591061182b5750595b90808252806020026020018201604052509250600090505b818110156119bb578673ffffffffffffffffffffffffffffffffffffffff1663bdc963d88688846040518084805190602001908083835b60208310151561189f578051825260208201915060208101905060208303925061187a565b6001836020036101000a0380198251168184511680821785525050505050509050018373ffffffffffffffffffffffffffffffffffffffff1673ffffffffffffffffffffffffffffffffffffffff166c01000000000000000000000000028152601401828152602001935050505060405180910390206000604051602001526040518263ffffffff167c0100000000000000000000000000000000000000000000000000000000028152600401808260001916600019168152602001915050602060405180830381600087803b151561197757600080fd5b6102c65a03f1151561198857600080fd5b5050506040518051905083828151811015156119a057fe5b90602001906020020181815250508080600101915050611843565b8292505050949350505050565b6119d0612296565b600082518411156119e357829150611a56565b836040518059106119f15750595b90808252806020026020018201604052509150600090505b83811015611a52578281815181101515611a1f57fe5b906020019060200201518282815181101515611a3757fe5b90602001906020020181815250508080600101915050611a09565b8191505b5092915050565b611a65612296565b60008060008060009350885192508288101580611a825750600087145b15611a8f57849450611b9c565b86604051805910611a9d5750595b908082528060200260200182016040525094508791505b868801821015611b145781831415611acb57611b14565b8882815181101515611ad957fe5b906020019060200201518585815181101515611af157fe5b906020019060200201818152505083806001019450508180600101925050611ab4565b858015611b2057508684105b15611b8f578387039050600091505b8082111515611b8e5783871415611b4557611b8e565b8882815181101515611b5357fe5b906020019060200201518585815181101515611b6b57fe5b906020019060200201818152505083806001019450508180600101925050611b2f565b5b611b9984866119c8565b94505b50505050949350505050565b611bb0612296565b600080600080611bc18a8a8961214c565b935083604051805910611bd15750595b9080825280602002602001820160405250945060009250600091505b83821015611ec3578973ffffffffffffffffffffffffffffffffffffffff1663bdc963d8878b856040518084805190602001908083835b602083101515611c495780518252602082019150602081019050602083039250611c24565b6001836020036101000a0380198251168184511680821785525050505050509050018373ffffffffffffffffffffffffffffffffffffffff1673ffffffffffffffffffffffffffffffffffffffff166c01000000000000000000000000028152601401828152602001935050505060405180910390206000604051602001526040518263ffffffff167c0100000000000000000000000000000000000000000000000000000000028152600401808260001916600019168152602001915050602060405180830381600087803b1515611d2157600080fd5b6102c65a03f11515611d3257600080fd5b50505060405180519050905060018a73ffffffffffffffffffffffffffffffffffffffff16637a0e03ec8a8c856040518084805190602001908083835b602083101515611d945780518252602082019150602081019050602083039250611d6f565b6001836020036101000a0380198251168184511680821785525050505050509050018373ffffffffffffffffffffffffffffffffffffffff1673ffffffffffffffffffffffffffffffffffffffff166c01000000000000000000000000028152601401828152602001935050505060405180910390206000604051602001526040518263ffffffff167c0100000000000000000000000000000000000000000000000000000000028152600401808260001916600019168152602001915050602060405180830381600087803b1515611e6c57600080fd5b6102c65a03f11515611e7d57600080fd5b5050506040518051905060ff161415611eb657808584815181101515611e9f57fe5b906020019060200201818152505082806001019350505b8180600101925050611bed565b611ecd83866119c8565b94505050505095945050505050565b611ee4612296565b6000808573ffffffffffffffffffffffffffffffffffffffff1663bdc963d8856040518082805190602001908083835b602083101515611f395780518252602082019150602081019050602083039250611f14565b6001836020036101000a03801982511681845116808217855250505050505090500191505060405180910390206000604051602001526040518263ffffffff167c0100000000000000000000000000000000000000000000000000000000028152600401808260001916600019168152602001915050602060405180830381600087803b1515611fc857600080fd5b6102c65a03f11515611fd957600080fd5b50505060405180519050915081604051805910611ff35750595b90808252806020026020018201604052509250600090505b81811015612140578573ffffffffffffffffffffffffffffffffffffffff1663bdc963d886836040518083805190602001908083835b6020831015156120665780518252602082019150602081019050602083039250612041565b6001836020036101000a0380198251168184511680821785525050505050509050018281526020019250505060405180910390206000604051602001526040518263ffffffff167c0100000000000000000000000000000000000000000000000000000000028152600401808260001916600019168152602001915050602060405180830381600087803b15156120fc57600080fd5b6102c65a03f1151561210d57600080fd5b50505060405180519050838281518110151561212557fe5b9060200190602002018181525050808060010191505061200b565b82925050509392505050565b60008373ffffffffffffffffffffffffffffffffffffffff1663bdc963d883856040518083805190602001908083835b6020831015156121a1578051825260208201915060208101905060208303925061217c565b6001836020036101000a0380198251168184511680821785525050505050509050018273ffffffffffffffffffffffffffffffffffffffff1673ffffffffffffffffffffffffffffffffffffffff166c010000000000000000000000000281526014019250505060405180910390206000604051602001526040518263ffffffff167c0100000000000000000000000000000000000000000000000000000000028152600401808260001916600019168152602001915050602060405180830381600087803b151561227257600080fd5b6102c65a03f1151561228357600080fd5b5050506040518051905090509392505050565b6020604051908101604052806000815250905600a165627a7a7230582015c6362e07b48136428a6eede90f24f95aa3ac147a5684c7143b27d7be25e96c0029",
  "source": "pragma solidity 0.4.18;\n\nimport \"./Restrictor.sol\";\nimport \"../lib/odll/userManager.sol\";\n\ncontract ServiceReader is Restrictor {\n\n  function ServiceReader(address _dbAddress) public {\n    require(_dbAddress != 0x0);\n    dbAddress = _dbAddress;\n  }\n\n  function fetchServicesWithFees(\n    address userId,\n    uint serviceTypeId,\n    uint offset, // starting from offset: 0-based\n    uint limit, // not more than limit\n    uint seed // seed value to give the illusion of randomisation\n  )\n    external\n    view\n    returns (\n      uint,\n      uint[]\n    )\n  {\n    return userManager.fetchServicesWithFees(dbAddress, userId, serviceTypeId, offset, limit, seed);\n  }\n\n  function fetchServices(\n    address userId,\n    uint serviceTypeId,\n    uint offset, // starting from offset: 0-based\n    uint limit, // not more than limit\n    uint seed // seed value to give the illusion of randomisation\n  )\n    external\n    view\n    returns (\n      uint,\n      uint[]\n    )\n  {\n    return userManager.fetchServices(dbAddress, userId, serviceTypeId, offset, limit, seed);\n  }\n\n  function fetchScanRequestsForPatient (\n    address patientId,\n    uint offset, // starting from offset: 0-based\n    uint limit, // not more than limit\n    uint seed // seed value to give the illusion of randomisation\n  )\n    external\n    view\n    returns (\n      uint,\n      uint[]\n    )\n  {\n    return userManager.fetchScanRequestsForPatient(dbAddress, patientId, offset, limit, seed);\n  }\n\n  function fetchAcceptedScanRequestsForPatient (\n    address patientId,\n    uint offset, // starting from offset: 0-based\n    uint limit, // not more than limit\n    uint seed // seed value to give the illusion of randomisation\n  )\n    external\n    view\n    returns (\n      uint,\n      uint[]\n    )\n  {\n    return userManager.fetchAcceptedScanRequestsForPatient(dbAddress, patientId, offset, limit, seed);\n  }\n\n  function fetchScanApplicationsForPatient (\n    address patientId,\n    uint offset, // starting from offset: 0-based\n    uint limit, // not more than limit\n    uint seed // seed value to give the illusion of randomisation\n  )\n    external\n    view\n    returns (\n      uint,\n      uint[]\n    )\n  {\n    return userManager.fetchScanApplicationsForPatient(dbAddress, patientId, offset, limit, seed);\n  }\n\n  function fetchAllScanRequests (\n    uint offset, // starting from offset: 0-based\n    uint limit, // not more than limit\n    uint seed // seed value to give the illusion of randomisation\n  )\n    external\n    view\n    returns (\n      uint,\n      uint[]\n    )\n  {\n    return userManager.fetchAllScanRequests(dbAddress, offset, limit, seed);\n  }\n\n  function fetchDirectScanRequestsForDentist (\n    address dbAddress,\n    address dentistId,\n    uint offset, // starting from offset: 0-based\n    uint limit, // not more than limit\n    uint seed // seed value to give the illusion of randomisation\n  )\n    external\n    view\n    returns(\n      uint,\n      uint[]\n    )\n  {\n    return userManager.fetchDirectScanRequestsForDentist(dbAddress, dentistId, offset, limit, seed);\n  }\n\n  function fetchAcceptedScanRequestsForDentist (\n    address dentistId,\n    uint offset, // starting from offset: 0-based\n    uint limit, // not more than limit\n    uint seed // seed value to give the illusion of randomisation\n  )\n    external\n    view\n    returns (\n      uint,\n      uint[]\n    )\n  {\n    return userManager.fetchAcceptedScanRequestsForDentist(dbAddress, dentistId, offset, limit, seed);\n  }\n\n  function fetchScanApplicationsForDentist (\n    address dentistId,\n    uint offset, // starting from offset: 0-based\n    uint limit, // not more than limit\n    uint seed // seed value to give the illusion of randomisation\n  )\n    external\n    view\n    returns (\n      uint,\n      uint[]\n    )\n  {\n    return userManager.fetchScanApplicationsForDentist(dbAddress, dentistId, offset, limit, seed);\n  }\n}\n",
  "sourcePath": "/Users/danielokwufulueze/dev/vue/apps/oraldatalink/contracts/odll/ServiceReader.sol",
  "compiler": {
    "name": "solc",
    "version": "0.4.18+commit.9cf6e910.Emscripten.clang"
  },
  "schemaVersion": "1.0.1",
  "updatedAt": "2017-11-20T09:49:57.888Z"
}