{
  "contractName": "ServiceReader",
  "abi": [
    {
      "constant": true,
      "inputs": [
        {
          "name": "userId",
          "type": "address"
        },
        {
          "name": "serviceTypeId",
          "type": "uint256"
        },
        {
          "name": "offset",
          "type": "uint256"
        },
        {
          "name": "limit",
          "type": "uint256"
        },
        {
          "name": "seed",
          "type": "uint256"
        }
      ],
      "name": "fetchServices",
      "outputs": [
        {
          "name": "",
          "type": "uint256"
        },
        {
          "name": "",
          "type": "uint256[]"
        }
      ],
      "payable": false,
      "stateMutability": "view",
      "type": "function"
    },
    {
      "constant": true,
      "inputs": [],
      "name": "smartContractStatus",
      "outputs": [
        {
          "name": "",
          "type": "uint8"
        }
      ],
      "payable": false,
      "stateMutability": "view",
      "type": "function"
    },
    {
      "constant": true,
      "inputs": [
        {
          "name": "userId",
          "type": "address"
        },
        {
          "name": "serviceTypeId",
          "type": "uint256"
        },
        {
          "name": "offset",
          "type": "uint256"
        },
        {
          "name": "limit",
          "type": "uint256"
        },
        {
          "name": "seed",
          "type": "uint256"
        }
      ],
      "name": "fetchServicesWithFees",
      "outputs": [
        {
          "name": "",
          "type": "uint256"
        },
        {
          "name": "",
          "type": "uint256[]"
        },
        {
          "name": "",
          "type": "uint256[]"
        }
      ],
      "payable": false,
      "stateMutability": "view",
      "type": "function"
    },
    {
      "constant": true,
      "inputs": [],
      "name": "owner",
      "outputs": [
        {
          "name": "",
          "type": "address"
        }
      ],
      "payable": false,
      "stateMutability": "view",
      "type": "function"
    },
    {
      "constant": true,
      "inputs": [],
      "name": "dbAddress",
      "outputs": [
        {
          "name": "",
          "type": "address"
        }
      ],
      "payable": false,
      "stateMutability": "view",
      "type": "function"
    },
    {
      "constant": false,
      "inputs": [
        {
          "name": "newOwner",
          "type": "address"
        }
      ],
      "name": "transferOwnership",
      "outputs": [],
      "payable": false,
      "stateMutability": "nonpayable",
      "type": "function"
    },
    {
      "inputs": [
        {
          "name": "_dbAddress",
          "type": "address"
        }
      ],
      "payable": false,
      "stateMutability": "nonpayable",
      "type": "constructor"
    },
    {
      "anonymous": false,
      "inputs": [
        {
          "indexed": false,
          "name": "status",
          "type": "uint8"
        }
      ],
      "name": "OnSmartContractStatusSet",
      "type": "event"
    },
    {
      "anonymous": false,
      "inputs": [
        {
          "indexed": true,
          "name": "previousOwner",
          "type": "address"
        },
        {
          "indexed": true,
          "name": "newOwner",
          "type": "address"
        }
      ],
      "name": "OwnershipTransferred",
      "type": "event"
    }
  ],
  "bytecode": "0x6060604052341561000f57600080fd5b60405160208061127983398101604052808051906020019091905050336000806101000a81548173ffffffffffffffffffffffffffffffffffffffff021916908373ffffffffffffffffffffffffffffffffffffffff16021790555060008173ffffffffffffffffffffffffffffffffffffffff161415151561009157600080fd5b80600160006101000a81548173ffffffffffffffffffffffffffffffffffffffff021916908373ffffffffffffffffffffffffffffffffffffffff16021790555050611197806100e26000396000f300606060405260043610610078576000357c0100000000000000000000000000000000000000000000000000000000900463ffffffff1680632d0642061461007d5780634c8ddddc146101365780635a1e4f90146101655780638da5cb5b1461026657806391e06b6d146102bb578063f2fde38b14610310575b600080fd5b341561008857600080fd5b6100d8600480803573ffffffffffffffffffffffffffffffffffffffff16906020019091908035906020019091908035906020019091908035906020019091908035906020019091905050610349565b6040518083815260200180602001828103825283818151815260200191508051906020019060200280838360005b83811015610121578082015181840152602081019050610106565b50505050905001935050505060405180910390f35b341561014157600080fd5b610149610391565b604051808260ff1660ff16815260200191505060405180910390f35b341561017057600080fd5b6101c0600480803573ffffffffffffffffffffffffffffffffffffffff169060200190919080359060200190919080359060200190919080359060200190919080359060200190919050506103a4565b604051808481526020018060200180602001838103835285818151815260200191508051906020019060200280838360005b8381101561020d5780820151818401526020810190506101f2565b50505050905001838103825284818151815260200191508051906020019060200280838360005b8381101561024f578082015181840152602081019050610234565b505050509050019550505050505060405180910390f35b341561027157600080fd5b6102796103f7565b604051808273ffffffffffffffffffffffffffffffffffffffff1673ffffffffffffffffffffffffffffffffffffffff16815260200191505060405180910390f35b34156102c657600080fd5b6102ce61041c565b604051808273ffffffffffffffffffffffffffffffffffffffff1673ffffffffffffffffffffffffffffffffffffffff16815260200191505060405180910390f35b341561031b57600080fd5b610347600480803573ffffffffffffffffffffffffffffffffffffffff16906020019091905050610442565b005b6000610353611157565b610383600160009054906101000a900473ffffffffffffffffffffffffffffffffffffffff168888888888610597565b915091509550959350505050565b600160149054906101000a900460ff1681565b60006103ae611157565b6103b6611157565b6103e6600160009054906101000a900473ffffffffffffffffffffffffffffffffffffffff1689898989896105cd565b925092509250955095509592505050565b6000809054906101000a900473ffffffffffffffffffffffffffffffffffffffff1681565b600160009054906101000a900473ffffffffffffffffffffffffffffffffffffffff1681565b6000809054906101000a900473ffffffffffffffffffffffffffffffffffffffff1673ffffffffffffffffffffffffffffffffffffffff163373ffffffffffffffffffffffffffffffffffffffff1614151561049d57600080fd5b600073ffffffffffffffffffffffffffffffffffffffff168173ffffffffffffffffffffffffffffffffffffffff16141515156104d957600080fd5b8073ffffffffffffffffffffffffffffffffffffffff166000809054906101000a900473ffffffffffffffffffffffffffffffffffffffff1673ffffffffffffffffffffffffffffffffffffffff167f8be0079c531659141344cd1fd0a4f28419497f9722a3daafe3b4186f6b6457e060405160405180910390a3806000806101000a81548173ffffffffffffffffffffffffffffffffffffffff021916908373ffffffffffffffffffffffffffffffffffffffff16021790555050565b60006105a1611157565b6105ac88878961060f565b90506105ba81868686610797565b8092508193505050965096945050505050565b60006105d7611157565b6105df611157565b6105ed898989898989610597565b80935081945050506106018988848b610807565b905096509650969350505050565b610617611157565b60018314156106d3576106cc84836040805190810160405280601481526020017f64656e746973742f7363616e2d736572766963650000000000000000000000008152506040805190810160405280601b81526020017f64656e746973742f7363616e2d73657276696365732d636f756e7400000000008152506040805190810160405280601881526020017f64656e746973742f7363616e2d736572766963652d6b65790000000000000000815250610896565b9050610790565b600283141561078f5761078884836040805190810160405280601981526020017f64656e746973742f74726561746d656e742d73657276696365000000000000008152506040805190810160405280602081526020017f64656e746973742f74726561746d656e742d73657276696365732d636f756e748152506040805190810160405280601d81526020017f64656e746973742f74726561746d656e742d736572766963652d6b6579000000815250610896565b9050610790565b5b9392505050565b60006107a1611157565b855191506000865111156107fd5785518511156107cd57816107c4600088610bca565b915091506107fe565b855184860111156107df578486510393505b6107fa8687518786018115156107f157fe5b06866001610c5f565b90505b5b94509492505050565b61080f611157565b600083516040518059106108205750595b90808252806020026020018201604052509150600090505b835181101561088d576108648686868481518110151561085457fe5b9060200190602002015186610daa565b828281518110151561087257fe5b90602001906020020181815250508080600101915050610838565b50949350505050565b61089e611157565b6000806000806108af8a8a8961100d565b9350836040518059106108bf5750595b9080825280602002602001820160405250945060009250600091505b83821015610bb1578973ffffffffffffffffffffffffffffffffffffffff1663bdc963d8878b856040518084805190602001908083835b6020831015156109375780518252602082019150602081019050602083039250610912565b6001836020036101000a0380198251168184511680821785525050505050509050018373ffffffffffffffffffffffffffffffffffffffff1673ffffffffffffffffffffffffffffffffffffffff166c01000000000000000000000000028152601401828152602001935050505060405180910390206000604051602001526040518263ffffffff167c0100000000000000000000000000000000000000000000000000000000028152600401808260001916600019168152602001915050602060405180830381600087803b1515610a0f57600080fd5b6102c65a03f11515610a2057600080fd5b50505060405180519050905060018a73ffffffffffffffffffffffffffffffffffffffff16637a0e03ec8a8c856040518084805190602001908083835b602083101515610a825780518252602082019150602081019050602083039250610a5d565b6001836020036101000a0380198251168184511680821785525050505050509050018373ffffffffffffffffffffffffffffffffffffffff1673ffffffffffffffffffffffffffffffffffffffff166c01000000000000000000000000028152601401828152602001935050505060405180910390206000604051602001526040518263ffffffff167c0100000000000000000000000000000000000000000000000000000000028152600401808260001916600019168152602001915050602060405180830381600087803b1515610b5a57600080fd5b6102c65a03f11515610b6b57600080fd5b5050506040518051905060ff161415610ba457808584815181101515610b8d57fe5b906020019060200201818152505082806001019350505b81806001019250506108db565b610bbb8386610bca565b94505050505095945050505050565b610bd2611157565b60008251841115610be557829150610c58565b83604051805910610bf35750595b90808252806020026020018201604052509150600090505b83811015610c54578281815181101515610c2157fe5b906020019060200201518282815181101515610c3957fe5b90602001906020020181815250508080600101915050610c0b565b8191505b5092915050565b610c67611157565b60008060008060009350885192508288101580610c845750600087145b15610c9157849450610d9e565b86604051805910610c9f5750595b908082528060200260200182016040525094508791505b868801821015610d165781831415610ccd57610d16565b8882815181101515610cdb57fe5b906020019060200201518585815181101515610cf357fe5b906020019060200201818152505083806001019450508180600101925050610cb6565b858015610d2257508684105b15610d91578387039050600091505b8082111515610d905783871415610d4757610d90565b8882815181101515610d5557fe5b906020019060200201518585815181101515610d6d57fe5b906020019060200201818152505083806001019450508180600101925050610d31565b5b610d9b8486610bca565b94505b50505050949350505050565b60006001841415610ed6578473ffffffffffffffffffffffffffffffffffffffff1663bdc963d8838560405180807f64656e746973742f7363616e2d736572766963652f66656500000000000000008152506018018373ffffffffffffffffffffffffffffffffffffffff1673ffffffffffffffffffffffffffffffffffffffff166c010000000000000000000000000281526014018281526020019250505060405180910390206000604051602001526040518263ffffffff167c0100000000000000000000000000000000000000000000000000000000028152600401808260001916600019168152602001915050602060405180830381600087803b1515610eb457600080fd5b6102c65a03f11515610ec557600080fd5b505050604051805190509050611005565b6002841415611000578473ffffffffffffffffffffffffffffffffffffffff1663bdc963d8838560405180807f64656e746973742f74726561746d656e742d736572766963652f666565000000815250601d018373ffffffffffffffffffffffffffffffffffffffff1673ffffffffffffffffffffffffffffffffffffffff166c010000000000000000000000000281526014018281526020019250505060405180910390206000604051602001526040518263ffffffff167c0100000000000000000000000000000000000000000000000000000000028152600401808260001916600019168152602001915050602060405180830381600087803b1515610fde57600080fd5b6102c65a03f11515610fef57600080fd5b505050604051805190509050611005565b600090505b949350505050565b60008373ffffffffffffffffffffffffffffffffffffffff1663bdc963d883856040518083805190602001908083835b602083101515611062578051825260208201915060208101905060208303925061103d565b6001836020036101000a0380198251168184511680821785525050505050509050018273ffffffffffffffffffffffffffffffffffffffff1673ffffffffffffffffffffffffffffffffffffffff166c010000000000000000000000000281526014019250505060405180910390206000604051602001526040518263ffffffff167c0100000000000000000000000000000000000000000000000000000000028152600401808260001916600019168152602001915050602060405180830381600087803b151561113357600080fd5b6102c65a03f1151561114457600080fd5b5050506040518051905090509392505050565b6020604051908101604052806000815250905600a165627a7a72305820fb9039b9278eabea59198714d508cb3755ec4cc7b6cb97f03aae5144296acfb40029",
  "source": "pragma solidity 0.4.18;\n\nimport \"./Restrictor.sol\";\nimport \"../lib/odll/userManager.sol\";\n\ncontract ServiceReader is Restrictor {\n\n  function ServiceReader(address _dbAddress) public {\n    require(_dbAddress != 0x0);\n    dbAddress = _dbAddress;\n  }\n\n  function fetchServicesWithFees(\n    address userId,\n    uint serviceTypeId,\n    uint offset, // starting from offset: 0-based\n    uint limit, // not more than limit\n    uint seed // seed value to give the illusion of randomisation\n  )\n    external\n    view\n    returns (\n      uint,\n      uint[],\n      uint[]\n    )\n  {\n    return userManager.fetchServicesWithFees(dbAddress, userId, serviceTypeId, offset, limit, seed);\n  }\n\n  function fetchServices(\n    address userId,\n    uint serviceTypeId,\n    uint offset, // starting from offset: 0-based\n    uint limit, // not more than limit\n    uint seed // seed value to give the illusion of randomisation\n  )\n    external\n    view\n    returns (\n      uint,\n      uint[]\n    )\n  {\n    return userManager.fetchServices(dbAddress, userId, serviceTypeId, offset, limit, seed);\n  }\n\n  function fetchScanAppointmentsForPatient (\n    address dentistId,\n    address patientId,\n    uint offset, // starting from offset: 0-based\n    uint limit, // not more than limit\n    uint seed // seed value to give the illusion of randomisation\n  )\n    internal\n    view\n    returns (\n      uint totalNumberFound,\n      uint[] scanAppointmentsIds,\n      uint[] patientScanAppointmentIndexNumbers,\n      address[] dentistsIds\n    )\n  {\n    return userManager.fetchScanAppointmentsForPatient(dbAddress, dentistId, patientId, offset, limit, seed);\n  }\n\n  function fetchCanceledScanAppointmentsForPatient (\n    address dentistId,\n    address patientId,\n    uint offset, // starting from offset: 0-based\n    uint limit, // not more than limit\n    uint seed // seed value to give the illusion of randomisation\n  )\n    internal\n    view\n    returns (\n      uint totalNumberFound,\n      uint[] scanAppointmentsIds,\n      uint[] patientScanAppointmentIndexNumbers,\n      address[] dentistsIds\n    )\n  {\n    return userManager.fetchCanceledScanAppointmentsForPatient(dbAddress, dentistId, patientId, offset, limit, seed);\n  }\n\n  function fetchAcceptedScanAppointmentsForPatient (\n    address dentistId,\n    address patientId,\n    uint offset, // starting from offset: 0-based\n    uint limit, // not more than limit\n    uint seed // seed value to give the illusion of randomisation\n  )\n    internal\n    view\n    returns (\n      uint totalNumberFound,\n      uint[] scanAppointmentsIds,\n      uint[] patientScanAppointmentIndexNumbers,\n      address[] dentistsIds\n    )\n  {\n    return userManager.fetchAcceptedScanAppointmentsForPatient(dbAddress, dentistId, patientId, offset, limit, seed);\n  }\n\n  function fetchRejectedScanAppointmentsForPatient (\n    address dentistId,\n    address patientId,\n    uint offset, // starting from offset: 0-based\n    uint limit, // not more than limit\n    uint seed // seed value to give the illusion of randomisation\n  )\n    internal\n    view\n    returns (\n      uint totalNumberFound,\n      uint[] scanAppointmentsIds,\n      uint[] patientScanAppointmentIndexNumbers,\n      address[] dentistsIds\n    )\n  {\n    return userManager.fetchRejectedScanAppointmentsForPatient(dbAddress, dentistId, patientId, offset, limit, seed);\n  }\n\n  function fetchPaidScanAppointmentsForPatient (\n    address dentistId,\n    address patientId,\n    uint offset, // starting from offset: 0-based\n    uint limit, // not more than limit\n    uint seed // seed value to give the illusion of randomisation\n  )\n    internal\n    view\n    returns (\n      uint totalNumberFound,\n      uint[] scanAppointmentsIds,\n      uint[] patientScanAppointmentIndexNumbers,\n      address[] dentistsIds\n    )\n  {\n    return userManager.fetchPaidScanAppointmentsForPatient(dbAddress, dentistId, patientId, offset, limit, seed);\n  }\n\n  function fetchScanApplicationsForPatient (\n    address dentistId,\n    address patientId,\n    uint offset, // starting from offset: 0-based\n    uint limit, // not more than limit\n    uint seed // seed value to give the illusion of randomisation\n  )\n    internal\n    view\n    returns (\n      uint totalNumberFound,\n      uint[] scanAppointmentsIds,\n      uint[] patientScanAppointmentIndexNumbers,\n      address[] dentistsIds,\n      bytes32[] comments,\n      uint[] quotes\n    )\n  {\n    return userManager.fetchScanApplicationsForPatient(dbAddress, dentistId, patientId, offset, limit, seed);\n  }\n\n  function fetchScanAppointmentsForDentist (\n    address dentistId,\n    address patientId,\n    uint offset, // starting from offset: 0-based\n    uint limit, // not more than limit\n    uint seed // seed value to give the illusion of randomisation\n  )\n    internal\n    view\n    returns (\n      uint totalNumberFound,\n      uint[] scanAppointmentsIds,\n      uint[] patientScanAppointmentIndexNumbers,\n      address[] patientsIds\n    )\n  {\n    return userManager.fetchScanAppointmentsForDentist(dbAddress, dentistId, patientId, offset, limit, seed);\n  }\n\n  function fetchCanceledScanAppointmentsForDentist (\n    address dentistId,\n    address patientId,\n    uint offset, // starting from offset: 0-based\n    uint limit, // not more than limit\n    uint seed // seed value to give the illusion of randomisation\n  )\n    internal\n    view\n    returns (\n      uint totalNumberFound,\n      uint[] scanAppointmentsIds,\n      uint[] patientScanAppointmentIndexNumbers,\n      address[] patientsIds\n    )\n  {\n    return userManager.fetchCanceledScanAppointmentsForDentist(dbAddress, dentistId, patientId, offset, limit, seed);\n  }\n\n  function fetchAcceptedScanAppointmentsForDentist (\n    address dentistId,\n    address patientId,\n    uint offset, // starting from offset: 0-based\n    uint limit, // not more than limit\n    uint seed // seed value to give the illusion of randomisation\n  )\n    internal\n    view\n    returns (\n      uint totalNumberFound,\n      uint[] scanAppointmentsIds,\n      uint[] patientScanAppointmentIndexNumbers,\n      address[] patientsIds\n    )\n  {\n    return userManager.fetchAcceptedScanAppointmentsForDentist(dbAddress, dentistId, patientId, offset, limit, seed);\n  }\n\n  function fetchRejectedScanAppointmentsForDentist (\n    address dentistId,\n    address patientId,\n    uint offset, // starting from offset: 0-based\n    uint limit, // not more than limit\n    uint seed // seed value to give the illusion of randomisation\n  )\n    internal\n    view\n    returns (\n      uint totalNumberFound,\n      uint[] scanAppointmentsIds,\n      uint[] patientScanAppointmentIndexNumbers,\n      address[] patientsIds\n    )\n  {\n    return userManager.fetchRejectedScanAppointmentsForDentist(dbAddress, dentistId, patientId, offset, limit, seed);\n  }\n\n  function fetchPaidScanAppointmentsForDentist (\n    address dentistId,\n    address patientId,\n    uint offset, // starting from offset: 0-based\n    uint limit, // not more than limit\n    uint seed // seed value to give the illusion of randomisation\n  )\n    internal\n    view\n    returns (\n      uint totalNumberFound,\n      uint[] scanAppointmentsIds,\n      uint[] patientScanAppointmentIndexNumbers,\n      address[] patientsIds\n    )\n  {\n    return userManager.fetchPaidScanAppointmentsForDentist(dbAddress, dentistId, patientId, offset, limit, seed);\n  }\n\n  function fetchScanApplicationsForDentist (\n    address dentistId,\n    address patientId,\n    uint offset, // starting from offset: 0-based\n    uint limit, // not more than limit\n    uint seed // seed value to give the illusion of randomisation\n  )\n    internal\n    view\n    returns (\n      uint totalNumberFound,\n      uint[] scanAppointmentsIds,\n      uint[] patientScanAppointmentIndexNumbers,\n      address[] patientsIds,\n      bytes32[] comments,\n      uint[] quotes\n    )\n  {\n    return userManager.fetchScanApplicationsForDentist(dbAddress, dentistId, patientId, offset, limit, seed);\n  }\n}\n",
  "sourcePath": "/home/daniel/dev/vue/apps/oral-data-link/contracts/odll/ServiceReader.sol",
  "compiler": {
    "name": "solc",
    "version": "0.4.18+commit.9cf6e910.Emscripten.clang"
  },
  "schemaVersion": "1.0.1",
  "updatedAt": "2017-11-06T15:50:54.436Z"
}