{
  "contractName": "Setter",
  "abi": [
    {
      "constant": false,
      "inputs": [
        {
          "name": "paymentPercentage",
          "type": "uint256"
        }
      ],
      "name": "setTreatmentPaymentPercentage",
      "outputs": [
        {
          "name": "",
          "type": "address"
        }
      ],
      "payable": false,
      "stateMutability": "nonpayable",
      "type": "function"
    },
    {
      "constant": false,
      "inputs": [
        {
          "name": "dbKey",
          "type": "string"
        },
        {
          "name": "newContractAddress",
          "type": "address"
        }
      ],
      "name": "setContract",
      "outputs": [],
      "payable": false,
      "stateMutability": "nonpayable",
      "type": "function"
    },
    {
      "constant": false,
      "inputs": [
        {
          "name": "userId",
          "type": "address"
        },
        {
          "name": "paymentId",
          "type": "uint256"
        }
      ],
      "name": "lockPayment",
      "outputs": [],
      "payable": false,
      "stateMutability": "nonpayable",
      "type": "function"
    },
    {
      "constant": false,
      "inputs": [],
      "name": "setOwner",
      "outputs": [],
      "payable": false,
      "stateMutability": "nonpayable",
      "type": "function"
    },
    {
      "constant": true,
      "inputs": [],
      "name": "smartContractStatus",
      "outputs": [
        {
          "name": "",
          "type": "uint8"
        }
      ],
      "payable": false,
      "stateMutability": "view",
      "type": "function"
    },
    {
      "constant": false,
      "inputs": [
        {
          "name": "paymentAddress",
          "type": "address"
        }
      ],
      "name": "setPaymentAddress",
      "outputs": [],
      "payable": false,
      "stateMutability": "nonpayable",
      "type": "function"
    },
    {
      "constant": false,
      "inputs": [
        {
          "name": "adminAddress",
          "type": "address"
        }
      ],
      "name": "addAdmin",
      "outputs": [],
      "payable": false,
      "stateMutability": "nonpayable",
      "type": "function"
    },
    {
      "constant": false,
      "inputs": [
        {
          "name": "firstAdminAddress",
          "type": "address"
        }
      ],
      "name": "setFirstAdmin",
      "outputs": [],
      "payable": false,
      "stateMutability": "nonpayable",
      "type": "function"
    },
    {
      "constant": false,
      "inputs": [],
      "name": "setConfig",
      "outputs": [],
      "payable": false,
      "stateMutability": "nonpayable",
      "type": "function"
    },
    {
      "constant": true,
      "inputs": [],
      "name": "owner",
      "outputs": [
        {
          "name": "",
          "type": "address"
        }
      ],
      "payable": false,
      "stateMutability": "view",
      "type": "function"
    },
    {
      "constant": false,
      "inputs": [
        {
          "name": "paymentPercentage",
          "type": "uint256"
        }
      ],
      "name": "setScanPaymentPercentage",
      "outputs": [],
      "payable": false,
      "stateMutability": "nonpayable",
      "type": "function"
    },
    {
      "constant": true,
      "inputs": [],
      "name": "dbAddress",
      "outputs": [
        {
          "name": "",
          "type": "address"
        }
      ],
      "payable": false,
      "stateMutability": "view",
      "type": "function"
    },
    {
      "constant": false,
      "inputs": [
        {
          "name": "escrowAddress",
          "type": "address"
        }
      ],
      "name": "setEscrowAddress",
      "outputs": [],
      "payable": false,
      "stateMutability": "nonpayable",
      "type": "function"
    },
    {
      "inputs": [
        {
          "name": "newOwner",
          "type": "address"
        }
      ],
      "payable": false,
      "stateMutability": "nonpayable",
      "type": "function",
      "constant": false,
      "name": "transferOwnership",
      "outputs": []
    },
    {
      "anonymous": false,
      "inputs": [
        {
          "indexed": false,
          "name": "_dbAddress",
          "type": "address"
        },
        {
          "indexed": false,
          "name": "record",
          "type": "bytes32"
        },
        {
          "indexed": false,
          "name": "settingTime",
          "type": "uint256"
        }
      ],
      "name": "ContractSet",
      "type": "constructor",
      "payable": false,
      "stateMutability": "nonpayable"
    },
    {
      "anonymous": false,
      "inputs": [
        {
          "indexed": false,
          "name": "ContractAddress",
          "type": "address"
        },
        {
          "indexed": false,
          "name": "record",
          "type": "bytes32"
        },
        {
          "indexed": false,
          "name": "settingTime",
          "type": "uint256"
        }
      ],
      "name": "ContractSet",
      "type": "event"
    },
    {
      "anonymous": false,
      "inputs": [
        {
          "indexed": false,
          "name": "paymentId",
          "type": "uint256"
        },
        {
          "indexed": true,
          "name": "newOwner",
          "type": "address"
        }
      ],
      "name": "PaymentLocked",
      "type": "event"
    },
    {
      "anonymous": false,
      "inputs": [
        {
          "indexed": false,
          "name": "status",
          "type": "uint8"
        }
      ],
      "name": "OnSmartContractStatusSet",
      "type": "event"
    },
    {
      "anonymous": false,
      "inputs": [
        {
          "indexed": true,
          "name": "previousOwner",
          "type": "address"
        },
        {
          "indexed": true,
          "name": "newOwner",
          "type": "address"
        }
      ],
      "name": "OwnershipTransferred",
      "type": "event"
    }
  ],
  "bytecode": "0x6060604052341561000f57600080fd5b60405160208061320983398101604052808051906020019091905050336000806101000a81548173ffffffffffffffffffffffffffffffffffffffff021916908373ffffffffffffffffffffffffffffffffffffffff16021790555060008173ffffffffffffffffffffffffffffffffffffffff161415151561009157600080fd5b80600160006101000a81548173ffffffffffffffffffffffffffffffffffffffff021916908373ffffffffffffffffffffffffffffffffffffffff16021790555050613127806100e26000396000f3006060604052600436106100d0576000357c0100000000000000000000000000000000000000000000000000000000900463ffffffff1680631d584fec146100d55780633f0ed0df146100f85780633f4b14701461014557806340caae06146101875780634c8ddddc1461019c5780635e1e1004146101cb578063704802751461020457806372f30ea01461023d5780638b673e7a146102765780638da5cb5b1461028b578063908691dd146102e057806391e06b6d14610303578063ddeb63b514610358578063f2fde38b14610391575b600080fd5b34156100e057600080fd5b6100f660048080359060200190919050506103ca565b005b341561010357600080fd5b6101436004808035906020019082018035906020019190919290803573ffffffffffffffffffffffffffffffffffffffff16906020019091905050610660565b005b341561015057600080fd5b610185600480803573ffffffffffffffffffffffffffffffffffffffff16906020019091908035906020019091905050610890565b005b341561019257600080fd5b61019a610ae7565b005b34156101a757600080fd5b6101af610c7a565b604051808260ff1660ff16815260200191505060405180910390f35b34156101d657600080fd5b610202600480803573ffffffffffffffffffffffffffffffffffffffff16906020019091905050610c8d565b005b341561020f57600080fd5b61023b600480803573ffffffffffffffffffffffffffffffffffffffff16906020019091905050610f29565b005b341561024857600080fd5b610274600480803573ffffffffffffffffffffffffffffffffffffffff1690602001909190505061179c565b005b341561028157600080fd5b610289611b86565b005b341561029657600080fd5b61029e61215f565b604051808273ffffffffffffffffffffffffffffffffffffffff1673ffffffffffffffffffffffffffffffffffffffff16815260200191505060405180910390f35b34156102eb57600080fd5b6103016004808035906020019091905050612184565b005b341561030e57600080fd5b6103166123f4565b604051808273ffffffffffffffffffffffffffffffffffffffff1673ffffffffffffffffffffffffffffffffffffffff16815260200191505060405180910390f35b341561036357600080fd5b61038f600480803573ffffffffffffffffffffffffffffffffffffffff1690602001909190505061241a565b005b341561039c57600080fd5b6103c8600480803573ffffffffffffffffffffffffffffffffffffffff169060200190919050506126b6565b005b336000809054906101000a900473ffffffffffffffffffffffffffffffffffffffff1673ffffffffffffffffffffffffffffffffffffffff168173ffffffffffffffffffffffffffffffffffffffff161480156105425750600160009054906101000a900473ffffffffffffffffffffffffffffffffffffffff1673ffffffffffffffffffffffffffffffffffffffff16634c77e5ba60405180807f6f646c6c2f6f776e657200000000000000000000000000000000000000000000815250600a01905060405180910390206000604051602001526040518263ffffffff167c0100000000000000000000000000000000000000000000000000000000028152600401808260001916600019168152602001915050602060405180830381600087803b15156104f857600080fd5b6102c65a03f1151561050957600080fd5b5050506040518051905073ffffffffffffffffffffffffffffffffffffffff168173ffffffffffffffffffffffffffffffffffffffff16145b151561054d57600080fd5b600160009054906101000a900473ffffffffffffffffffffffffffffffffffffffff1673ffffffffffffffffffffffffffffffffffffffff16633562fd2060405180807f6f646c6c2f74726561746d656e742d7061796d656e742d70657263656e74616781526020017f650000000000000000000000000000000000000000000000000000000000000081525060210190506040518091039020846040518363ffffffff167c010000000000000000000000000000000000000000000000000000000002815260040180836000191660001916815260200182815260200192505050600060405180830381600087803b151561064857600080fd5b6102c65a03f1151561065957600080fd5b5050505050565b6000336000809054906101000a900473ffffffffffffffffffffffffffffffffffffffff1673ffffffffffffffffffffffffffffffffffffffff168173ffffffffffffffffffffffffffffffffffffffff161480156107da5750600160009054906101000a900473ffffffffffffffffffffffffffffffffffffffff1673ffffffffffffffffffffffffffffffffffffffff16634c77e5ba60405180807f6f646c6c2f6f776e657200000000000000000000000000000000000000000000815250600a01905060405180910390206000604051602001526040518263ffffffff167c0100000000000000000000000000000000000000000000000000000000028152600401808260001916600019168152602001915050602060405180830381600087803b151561079057600080fd5b6102c65a03f115156107a157600080fd5b5050506040518051905073ffffffffffffffffffffffffffffffffffffffff168173ffffffffffffffffffffffffffffffffffffffff16145b15156107e557600080fd5b8484604051808383808284378201915050925050506040518091039020915061080e828461280b565b7feb2ba594a90708553de1a64973a456741e0bd74dc4ec91605d1b72d11b56e184838342604051808473ffffffffffffffffffffffffffffffffffffffff1673ffffffffffffffffffffffffffffffffffffffff1681526020018360001916600019168152602001828152602001935050505060405180910390a15050505050565b8161089a81612a99565b15156108a557600080fd5b8160018060ff16600160009054906101000a900473ffffffffffffffffffffffffffffffffffffffff1673ffffffffffffffffffffffffffffffffffffffff16637a0e03ec8460405180807f7061796d656e742f737461746500000000000000000000000000000000000000815250600d0182815260200191505060405180910390206000604051602001526040518263ffffffff167c0100000000000000000000000000000000000000000000000000000000028152600401808260001916600019168152602001915050602060405180830381600087803b151561098a57600080fd5b6102c65a03f1151561099b57600080fd5b5050506040518051905060ff161415156109b457600080fd5b600160009054906101000a900473ffffffffffffffffffffffffffffffffffffffff1673ffffffffffffffffffffffffffffffffffffffff16630bd851588560405180807f7061796d656e742f737461746500000000000000000000000000000000000000815250600d01828152602001915050604051809103902060026040518363ffffffff167c01000000000000000000000000000000000000000000000000000000000281526004018083600019166000191681526020018260ff16815260200192505050600060405180830381600087803b1515610a9557600080fd5b6102c65a03f11515610aa657600080fd5b5050507fa5f78a79f83dfad686a63ca003a42f6c262d9fdc43a6742c56f5c27c11b9a1e2846040518082815260200191505060405180910390a15050505050565b6000809054906101000a900473ffffffffffffffffffffffffffffffffffffffff1673ffffffffffffffffffffffffffffffffffffffff163373ffffffffffffffffffffffffffffffffffffffff16141515610b4257600080fd5b600160009054906101000a900473ffffffffffffffffffffffffffffffffffffffff1673ffffffffffffffffffffffffffffffffffffffff16635a2bf25a60405180807f6f646c6c2f6f776e657200000000000000000000000000000000000000000000815250600a01905060405180910390206000809054906101000a900473ffffffffffffffffffffffffffffffffffffffff166040518363ffffffff167c01000000000000000000000000000000000000000000000000000000000281526004018083600019166000191681526020018273ffffffffffffffffffffffffffffffffffffffff1673ffffffffffffffffffffffffffffffffffffffff16815260200192505050600060405180830381600087803b1515610c6457600080fd5b6102c65a03f11515610c7557600080fd5b505050565b600160149054906101000a900460ff1681565b336000809054906101000a900473ffffffffffffffffffffffffffffffffffffffff1673ffffffffffffffffffffffffffffffffffffffff168173ffffffffffffffffffffffffffffffffffffffff16148015610e055750600160009054906101000a900473ffffffffffffffffffffffffffffffffffffffff1673ffffffffffffffffffffffffffffffffffffffff16634c77e5ba60405180807f6f646c6c2f6f776e657200000000000000000000000000000000000000000000815250600a01905060405180910390206000604051602001526040518263ffffffff167c0100000000000000000000000000000000000000000000000000000000028152600401808260001916600019168152602001915050602060405180830381600087803b1515610dbb57600080fd5b6102c65a03f11515610dcc57600080fd5b5050506040518051905073ffffffffffffffffffffffffffffffffffffffff168173ffffffffffffffffffffffffffffffffffffffff16145b1515610e1057600080fd5b600160009054906101000a900473ffffffffffffffffffffffffffffffffffffffff1673ffffffffffffffffffffffffffffffffffffffff16635a2bf25a60405180807f6f646c6c2f7061796d656e742d6164647265737300000000000000000000000081525060140190506040518091039020846040518363ffffffff167c01000000000000000000000000000000000000000000000000000000000281526004018083600019166000191681526020018273ffffffffffffffffffffffffffffffffffffffff1673ffffffffffffffffffffffffffffffffffffffff16815260200192505050600060405180830381600087803b1515610f1157600080fd5b6102c65a03f11515610f2257600080fd5b5050505050565b336000809054906101000a900473ffffffffffffffffffffffffffffffffffffffff1673ffffffffffffffffffffffffffffffffffffffff168173ffffffffffffffffffffffffffffffffffffffff161480156110a15750600160009054906101000a900473ffffffffffffffffffffffffffffffffffffffff1673ffffffffffffffffffffffffffffffffffffffff16634c77e5ba60405180807f6f646c6c2f6f776e657200000000000000000000000000000000000000000000815250600a01905060405180910390206000604051602001526040518263ffffffff167c0100000000000000000000000000000000000000000000000000000000028152600401808260001916600019168152602001915050602060405180830381600087803b151561105757600080fd5b6102c65a03f1151561106857600080fd5b5050506040518051905073ffffffffffffffffffffffffffffffffffffffff168173ffffffffffffffffffffffffffffffffffffffff16145b15156110ac57600080fd5b6000600160009054906101000a900473ffffffffffffffffffffffffffffffffffffffff1673ffffffffffffffffffffffffffffffffffffffff16637a0e03ec8460405180807f757365722f7479706500000000000000000000000000000000000000000000008152506009018273ffffffffffffffffffffffffffffffffffffffff1673ffffffffffffffffffffffffffffffffffffffff166c0100000000000000000000000002815260140191505060405180910390206000604051602001526040518263ffffffff167c0100000000000000000000000000000000000000000000000000000000028152600401808260001916600019168152602001915050602060405180830381600087803b15156111c757600080fd5b6102c65a03f115156111d857600080fd5b5050506040518051905060ff161415156111f157600080fd5b600160009054906101000a900473ffffffffffffffffffffffffffffffffffffffff1673ffffffffffffffffffffffffffffffffffffffff16630bd851588360405180807f757365722f7479706500000000000000000000000000000000000000000000008152506009018273ffffffffffffffffffffffffffffffffffffffff1673ffffffffffffffffffffffffffffffffffffffff166c01000000000000000000000000028152601401915050604051809103902060046040518363ffffffff167c01000000000000000000000000000000000000000000000000000000000281526004018083600019166000191681526020018260ff16815260200192505050600060405180830381600087803b151561130d57600080fd5b6102c65a03f1151561131e57600080fd5b505050600160009054906101000a900473ffffffffffffffffffffffffffffffffffffffff1673ffffffffffffffffffffffffffffffffffffffff16633eba9ed28360405180807f757365722f69732d61646d696e3f000000000000000000000000000000000000815250600e018273ffffffffffffffffffffffffffffffffffffffff1673ffffffffffffffffffffffffffffffffffffffff166c01000000000000000000000000028152601401915050604051809103902060016040518363ffffffff167c01000000000000000000000000000000000000000000000000000000000281526004018083600019166000191681526020018215151515815260200192505050600060405180830381600087803b151561143e57600080fd5b6102c65a03f1151561144f57600080fd5b505050600160009054906101000a900473ffffffffffffffffffffffffffffffffffffffff1673ffffffffffffffffffffffffffffffffffffffff16633562fd208360405180807f757365722f637265617465642d6f6e0000000000000000000000000000000000815250600f018273ffffffffffffffffffffffffffffffffffffffff1673ffffffffffffffffffffffffffffffffffffffff166c010000000000000000000000000281526014019150506040518091039020426040518363ffffffff167c010000000000000000000000000000000000000000000000000000000002815260040180836000191660001916815260200182815260200192505050600060405180830381600087803b151561156a57600080fd5b6102c65a03f1151561157b57600080fd5b505050600160009054906101000a900473ffffffffffffffffffffffffffffffffffffffff1673ffffffffffffffffffffffffffffffffffffffff16630bd851588360405180807f757365722f737461747573000000000000000000000000000000000000000000815250600b018273ffffffffffffffffffffffffffffffffffffffff1673ffffffffffffffffffffffffffffffffffffffff166c01000000000000000000000000028152601401915050604051809103902060016040518363ffffffff167c01000000000000000000000000000000000000000000000000000000000281526004018083600019166000191681526020018260ff16815260200192505050600060405180830381600087803b151561169a57600080fd5b6102c65a03f115156116ab57600080fd5b5050506117236040805190810160405280600981526020017f75736572732f69647300000000000000000000000000000000000000000000008152506040805190810160405280600b81526020017f75736572732f636f756e7400000000000000000000000000000000000000000081525084612ac0565b6117986040805190810160405280600a81526020017f61646d696e732f696473000000000000000000000000000000000000000000008152506040805190810160405280600c81526020017f61646d696e732f636f756e74000000000000000000000000000000000000000081525084612ac0565b5050565b336000809054906101000a900473ffffffffffffffffffffffffffffffffffffffff1673ffffffffffffffffffffffffffffffffffffffff168173ffffffffffffffffffffffffffffffffffffffff161480156119145750600160009054906101000a900473ffffffffffffffffffffffffffffffffffffffff1673ffffffffffffffffffffffffffffffffffffffff16634c77e5ba60405180807f6f646c6c2f6f776e657200000000000000000000000000000000000000000000815250600a01905060405180910390206000604051602001526040518263ffffffff167c0100000000000000000000000000000000000000000000000000000000028152600401808260001916600019168152602001915050602060405180830381600087803b15156118ca57600080fd5b6102c65a03f115156118db57600080fd5b5050506040518051905073ffffffffffffffffffffffffffffffffffffffff168173ffffffffffffffffffffffffffffffffffffffff16145b151561191f57600080fd5b6000600160009054906101000a900473ffffffffffffffffffffffffffffffffffffffff1673ffffffffffffffffffffffffffffffffffffffff16637a0e03ec8460405180807f757365722f7479706500000000000000000000000000000000000000000000008152506009018273ffffffffffffffffffffffffffffffffffffffff1673ffffffffffffffffffffffffffffffffffffffff166c0100000000000000000000000002815260140191505060405180910390206000604051602001526040518263ffffffff167c0100000000000000000000000000000000000000000000000000000000028152600401808260001916600019168152602001915050602060405180830381600087803b1515611a3a57600080fd5b6102c65a03f11515611a4b57600080fd5b5050506040518051905060ff16141515611a6457600080fd5b600160009054906101000a900473ffffffffffffffffffffffffffffffffffffffff1673ffffffffffffffffffffffffffffffffffffffff16635a2bf25a60405180807f6f646c6c2f66697273742d61646d696e0000000000000000000000000000000081525060100190506040518091039020846040518363ffffffff167c01000000000000000000000000000000000000000000000000000000000281526004018083600019166000191681526020018273ffffffffffffffffffffffffffffffffffffffff1673ffffffffffffffffffffffffffffffffffffffff16815260200192505050600060405180830381600087803b1515611b6557600080fd5b6102c65a03f11515611b7657600080fd5b505050611b8282610f29565b5050565b6000809054906101000a900473ffffffffffffffffffffffffffffffffffffffff1673ffffffffffffffffffffffffffffffffffffffff163373ffffffffffffffffffffffffffffffffffffffff16141515611be157600080fd5b600160009054906101000a900473ffffffffffffffffffffffffffffffffffffffff1673ffffffffffffffffffffffffffffffffffffffff16633562fd2060405180807f636f6e6669672f6d61782d757365722d6e616d652d6c656e6774680000000000815250601b019050604051809103902060326040518363ffffffff167c010000000000000000000000000000000000000000000000000000000002815260040180836000191660001916815260200182815260200192505050600060405180830381600087803b1515611cb757600080fd5b6102c65a03f11515611cc857600080fd5b505050600160009054906101000a900473ffffffffffffffffffffffffffffffffffffffff1673ffffffffffffffffffffffffffffffffffffffff16633562fd2060405180807f636f6e6669672f6d696e2d757365722d6e616d652d6c656e6774680000000000815250601b019050604051809103902060056040518363ffffffff167c010000000000000000000000000000000000000000000000000000000002815260040180836000191660001916815260200182815260200192505050600060405180830381600087803b1515611da157600080fd5b6102c65a03f11515611db257600080fd5b505050600160009054906101000a900473ffffffffffffffffffffffffffffffffffffffff1673ffffffffffffffffffffffffffffffffffffffff16633562fd2060405180807f636f6e6669672f6d61782d757365722d656d61696c2d6c656e67746800000000815250601c019050604051809103902060506040518363ffffffff167c010000000000000000000000000000000000000000000000000000000002815260040180836000191660001916815260200182815260200192505050600060405180830381600087803b1515611e8b57600080fd5b6102c65a03f11515611e9c57600080fd5b505050600160009054906101000a900473ffffffffffffffffffffffffffffffffffffffff1673ffffffffffffffffffffffffffffffffffffffff16633562fd2060405180807f636f6e6669672f6d696e2d757365722d656d61696c2d6c656e67746800000000815250601c019050604051809103902060006040518363ffffffff167c010000000000000000000000000000000000000000000000000000000002815260040180836000191660001916815260200182815260200192505050600060405180830381600087803b1515611f7557600080fd5b6102c65a03f11515611f8657600080fd5b505050600160009054906101000a900473ffffffffffffffffffffffffffffffffffffffff1673ffffffffffffffffffffffffffffffffffffffff16633562fd2060405180807f636f6e6669672f6d61782d636f6d70616e792d6e616d652d6c656e6774680000815250601e019050604051809103902060326040518363ffffffff167c010000000000000000000000000000000000000000000000000000000002815260040180836000191660001916815260200182815260200192505050600060405180830381600087803b151561205f57600080fd5b6102c65a03f1151561207057600080fd5b505050600160009054906101000a900473ffffffffffffffffffffffffffffffffffffffff1673ffffffffffffffffffffffffffffffffffffffff16633562fd2060405180807f636f6e6669672f6d696e2d636f6d70616e792d6e616d652d6c656e6774680000815250601e019050604051809103902060056040518363ffffffff167c010000000000000000000000000000000000000000000000000000000002815260040180836000191660001916815260200182815260200192505050600060405180830381600087803b151561214957600080fd5b6102c65a03f1151561215a57600080fd5b505050565b6000809054906101000a900473ffffffffffffffffffffffffffffffffffffffff1681565b336000809054906101000a900473ffffffffffffffffffffffffffffffffffffffff1673ffffffffffffffffffffffffffffffffffffffff168173ffffffffffffffffffffffffffffffffffffffff161480156122fc5750600160009054906101000a900473ffffffffffffffffffffffffffffffffffffffff1673ffffffffffffffffffffffffffffffffffffffff16634c77e5ba60405180807f6f646c6c2f6f776e657200000000000000000000000000000000000000000000815250600a01905060405180910390206000604051602001526040518263ffffffff167c0100000000000000000000000000000000000000000000000000000000028152600401808260001916600019168152602001915050602060405180830381600087803b15156122b257600080fd5b6102c65a03f115156122c357600080fd5b5050506040518051905073ffffffffffffffffffffffffffffffffffffffff168173ffffffffffffffffffffffffffffffffffffffff16145b151561230757600080fd5b600160009054906101000a900473ffffffffffffffffffffffffffffffffffffffff1673ffffffffffffffffffffffffffffffffffffffff16633562fd2060405180807f6f646c6c2f7363616e2d7061796d656e742d70657263656e7461676500000000815250601c0190506040518091039020846040518363ffffffff167c010000000000000000000000000000000000000000000000000000000002815260040180836000191660001916815260200182815260200192505050600060405180830381600087803b15156123dc57600080fd5b6102c65a03f115156123ed57600080fd5b5050505050565b600160009054906101000a900473ffffffffffffffffffffffffffffffffffffffff1681565b336000809054906101000a900473ffffffffffffffffffffffffffffffffffffffff1673ffffffffffffffffffffffffffffffffffffffff168173ffffffffffffffffffffffffffffffffffffffff161480156125925750600160009054906101000a900473ffffffffffffffffffffffffffffffffffffffff1673ffffffffffffffffffffffffffffffffffffffff16634c77e5ba60405180807f6f646c6c2f6f776e657200000000000000000000000000000000000000000000815250600a01905060405180910390206000604051602001526040518263ffffffff167c0100000000000000000000000000000000000000000000000000000000028152600401808260001916600019168152602001915050602060405180830381600087803b151561254857600080fd5b6102c65a03f1151561255957600080fd5b5050506040518051905073ffffffffffffffffffffffffffffffffffffffff168173ffffffffffffffffffffffffffffffffffffffff16145b151561259d57600080fd5b600160009054906101000a900473ffffffffffffffffffffffffffffffffffffffff1673ffffffffffffffffffffffffffffffffffffffff16635a2bf25a60405180807f6f646c6c2f657363726f772d616464726573730000000000000000000000000081525060130190506040518091039020846040518363ffffffff167c01000000000000000000000000000000000000000000000000000000000281526004018083600019166000191681526020018273ffffffffffffffffffffffffffffffffffffffff1673ffffffffffffffffffffffffffffffffffffffff16815260200192505050600060405180830381600087803b151561269e57600080fd5b6102c65a03f115156126af57600080fd5b5050505050565b6000809054906101000a900473ffffffffffffffffffffffffffffffffffffffff1673ffffffffffffffffffffffffffffffffffffffff163373ffffffffffffffffffffffffffffffffffffffff1614151561271157600080fd5b600073ffffffffffffffffffffffffffffffffffffffff168173ffffffffffffffffffffffffffffffffffffffff161415151561274d57600080fd5b8073ffffffffffffffffffffffffffffffffffffffff166000809054906101000a900473ffffffffffffffffffffffffffffffffffffffff1673ffffffffffffffffffffffffffffffffffffffff167f8be0079c531659141344cd1fd0a4f28419497f9722a3daafe3b4186f6b6457e060405160405180910390a3806000806101000a81548173ffffffffffffffffffffffffffffffffffffffff021916908373ffffffffffffffffffffffffffffffffffffffff16021790555050565b336000809054906101000a900473ffffffffffffffffffffffffffffffffffffffff1673ffffffffffffffffffffffffffffffffffffffff168173ffffffffffffffffffffffffffffffffffffffff161480156129835750600160009054906101000a900473ffffffffffffffffffffffffffffffffffffffff1673ffffffffffffffffffffffffffffffffffffffff16634c77e5ba60405180807f6f646c6c2f6f776e657200000000000000000000000000000000000000000000815250600a01905060405180910390206000604051602001526040518263ffffffff167c0100000000000000000000000000000000000000000000000000000000028152600401808260001916600019168152602001915050602060405180830381600087803b151561293957600080fd5b6102c65a03f1151561294a57600080fd5b5050506040518051905073ffffffffffffffffffffffffffffffffffffffff168173ffffffffffffffffffffffffffffffffffffffff16145b151561298e57600080fd5b60008273ffffffffffffffffffffffffffffffffffffffff16141515156129b457600080fd5b600160009054906101000a900473ffffffffffffffffffffffffffffffffffffffff1673ffffffffffffffffffffffffffffffffffffffff16635a2bf25a84846040518363ffffffff167c01000000000000000000000000000000000000000000000000000000000281526004018083600019166000191681526020018273ffffffffffffffffffffffffffffffffffffffff1673ffffffffffffffffffffffffffffffffffffffff16815260200192505050600060405180830381600087803b1515612a8057600080fd5b6102c65a03f11515612a9157600080fd5b505050505050565b6000612aa6826001612e4b565b8015612ab95750612ab8826001612e66565b5b9050919050565b6000600160009054906101000a900473ffffffffffffffffffffffffffffffffffffffff1673ffffffffffffffffffffffffffffffffffffffff1663bdc963d8846040518082805190602001908083835b602083101515612b365780518252602082019150602081019050602083039250612b11565b6001836020036101000a03801982511681845116808217855250505050505090500191505060405180910390206000604051602001526040518263ffffffff167c0100000000000000000000000000000000000000000000000000000000028152600401808260001916600019168152602001915050602060405180830381600087803b1515612bc557600080fd5b6102c65a03f11515612bd657600080fd5b505050604051805190509050600160009054906101000a900473ffffffffffffffffffffffffffffffffffffffff1673ffffffffffffffffffffffffffffffffffffffff16635a2bf25a85836040518083805190602001908083835b602083101515612c575780518252602082019150602081019050602083039250612c32565b6001836020036101000a038019825116818451168082178552505050505050905001828152602001925050506040518091039020846040518363ffffffff167c01000000000000000000000000000000000000000000000000000000000281526004018083600019166000191681526020018273ffffffffffffffffffffffffffffffffffffffff1673ffffffffffffffffffffffffffffffffffffffff16815260200192505050600060405180830381600087803b1515612d1857600080fd5b6102c65a03f11515612d2957600080fd5b505050600160009054906101000a900473ffffffffffffffffffffffffffffffffffffffff1673ffffffffffffffffffffffffffffffffffffffff16633562fd20846040518082805190602001908083835b602083101515612da05780518252602082019150602081019050602083039250612d7b565b6001836020036101000a0380198251168184511680821785525050505050509050019150506040518091039020600184016040518363ffffffff167c010000000000000000000000000000000000000000000000000000000002815260040180836000191660001916815260200182815260200192505050600060405180830381600087803b1515612e3157600080fd5b6102c65a03f11515612e4257600080fd5b50505050505050565b6000612e5683612e81565b60ff168260ff1614905092915050565b6000612e7183612fbe565b60ff168260ff1614905092915050565b6000600160009054906101000a900473ffffffffffffffffffffffffffffffffffffffff1673ffffffffffffffffffffffffffffffffffffffff16637a0e03ec8360405180807f757365722f7479706500000000000000000000000000000000000000000000008152506009018273ffffffffffffffffffffffffffffffffffffffff1673ffffffffffffffffffffffffffffffffffffffff166c0100000000000000000000000002815260140191505060405180910390206000604051602001526040518263ffffffff167c0100000000000000000000000000000000000000000000000000000000028152600401808260001916600019168152602001915050602060405180830381600087803b1515612f9c57600080fd5b6102c65a03f11515612fad57600080fd5b505050604051805190509050919050565b6000600160009054906101000a900473ffffffffffffffffffffffffffffffffffffffff1673ffffffffffffffffffffffffffffffffffffffff16637a0e03ec8360405180807f757365722f737461747573000000000000000000000000000000000000000000815250600b018273ffffffffffffffffffffffffffffffffffffffff1673ffffffffffffffffffffffffffffffffffffffff166c0100000000000000000000000002815260140191505060405180910390206000604051602001526040518263ffffffff167c0100000000000000000000000000000000000000000000000000000000028152600401808260001916600019168152602001915050602060405180830381600087803b15156130d957600080fd5b6102c65a03f115156130ea57600080fd5b5050506040518051905090509190505600a165627a7a72305820055af574f1b2821067678b3ce6c53f2b9263fc851a9b85eb630760ead855f7d00029",
  "source": "pragma solidity 0.4.18;\n\nimport \"./Restrictor.sol\";\n\ncontract Setter is Restrictor {\n  event ContractSet(address ContractAddress, bytes32 record, uint settingTime);\n\n  function Setter(address _dbAddress) public {\n    require(_dbAddress != 0x0);\n    dbAddress = _dbAddress;\n  }\n\n  function setConfig()\n    external\n    onlyOwner\n  {\n    DB(dbAddress).setUIntValue(keccak256('config/max-user-name-length'), 50);\n    DB(dbAddress).setUIntValue(keccak256('config/min-user-name-length'), 5);\n    DB(dbAddress).setUIntValue(keccak256('config/max-user-email-length'), 80);\n    DB(dbAddress).setUIntValue(keccak256('config/min-user-email-length'), 0);\n    DB(dbAddress).setUIntValue(keccak256('config/max-company-name-length'), 50);\n    DB(dbAddress).setUIntValue(keccak256('config/min-company-name-length'), 5);\n  }\n\n  function setOwner()\n    external\n    onlyOwner\n  {\n    DB(dbAddress).setAddressValue(keccak256('odll/owner'), owner);\n  }\n\n  function setEscrowAddress(address escrowAddress)\n    external\n    onlyOwnerCanCall(msg.sender)\n  {\n    DB(dbAddress).setAddressValue(keccak256('odll/escrow-address'), escrowAddress);\n  }\n\n  function setPaymentAddress(address paymentAddress)\n    external\n    onlyOwnerCanCall(msg.sender)\n  {\n    DB(dbAddress).setAddressValue(keccak256('odll/payment-address'), paymentAddress);\n  }\n\n  function setScanPaymentPercentage(uint paymentPercentage)\n    external\n    onlyOwnerCanCall(msg.sender)\n  {\n    DB(dbAddress).setUIntValue(keccak256('odll/scan-payment-percentage'), paymentPercentage);\n  }\n\n  function setTreatmentPaymentPercentage(uint paymentPercentage)\n    external\n    onlyOwnerCanCall(msg.sender)\n  {\n    DB(dbAddress).setUIntValue(keccak256('odll/treatment-payment-percentage'), paymentPercentage);\n  }\n\n  function setFirstAdmin(address firstAdminAddress)\n    external\n    onlyOwnerCanCall(msg.sender)\n  {\n    require(DB(dbAddress).getUInt8Value(keccak256(\"user/type\", firstAdminAddress)) == 0);\n    DB(dbAddress).setAddressValue(keccak256('odll/first-admin'), firstAdminAddress);\n    addAdmin(firstAdminAddress);\n  }\n\n  function addAdmin(address adminAddress)\n    public\n    onlyOwnerCanCall(msg.sender)\n  {\n    require(DB(dbAddress).getUInt8Value(keccak256(\"user/type\", adminAddress)) == 0);\n    DB(dbAddress).setUInt8Value(keccak256(\"user/type\", adminAddress), 4);\n    DB(dbAddress).setBooleanValue(keccak256('user/is-admin?', adminAddress), true);\n    DB(dbAddress).setUIntValue(keccak256(\"user/created-on\", adminAddress), now);\n    DB(dbAddress).setUInt8Value(keccak256(\"user/status\", adminAddress), 1);\n    addArrayItem(\"users/ids\", \"users/count\", adminAddress);\n    addArrayItem(\"admins/ids\", \"admins/count\", adminAddress);\n  }\n\n  function addArrayItem(string key, string countKey, address val) internal {\n    var idx = DB(dbAddress).getUIntValue(keccak256(countKey));\n    DB(dbAddress).setAddressValue(keccak256(key, idx), val);\n    DB(dbAddress).setUIntValue(keccak256(countKey), idx + 1);\n  }\n\n  function setContract(string dbKey, address newContractAddress)\n    external\n    onlyOwnerCanCall(msg.sender)\n  {\n    bytes32 record = keccak256(dbKey);\n    setNewContractAddressToKey(record, newContractAddress);\n    ContractSet(newContractAddress, record, now);\n  }\n\n  function setNewContractAddressToKey(bytes32 record, address newContractAddress)\n    internal\n    onlyOwnerCanCall(msg.sender)\n  {\n    require(newContractAddress != 0x0);\n    DB(dbAddress).setAddressValue(record, newContractAddress);\n  }\n}\n",
  "sourcePath": "/Users/danielokwufulueze/dev/vue/apps/oraldatalink/contracts/odll/Setter.sol",
  "compiler": {
    "name": "solc",
    "version": "0.4.18+commit.9cf6e910.Emscripten.clang"
  },
  "schemaVersion": "1.0.1",
  "updatedAt": "2018-01-13T15:16:23.063Z"
}