{
  "contractName": "Setter",
  "abi": [
    {
      "constant": true,
      "inputs": [
        {
          "name": "record",
          "type": "bytes32"
        }
      ],
      "name": "getContractAddress",
      "outputs": [
        {
          "name": "",
          "type": "address"
        }
      ],
      "payable": false,
      "stateMutability": "view",
      "type": "function"
    },
    {
      "constant": false,
      "inputs": [
        {
          "name": "paymentPercentage",
          "type": "uint256"
        }
      ],
      "name": "setTreatmentPaymentPercentage",
      "outputs": [],
      "payable": false,
      "stateMutability": "nonpayable",
      "type": "function"
    },
    {
      "constant": false,
      "inputs": [
        {
          "name": "dbKey",
          "type": "string"
        },
        {
          "name": "newContractAddress",
          "type": "address"
        }
      ],
      "name": "setContract",
      "outputs": [],
      "payable": false,
      "stateMutability": "nonpayable",
      "type": "function"
    },
    {
      "constant": false,
      "inputs": [],
      "name": "setOwner",
      "outputs": [],
      "payable": false,
      "stateMutability": "nonpayable",
      "type": "function"
    },
    {
      "constant": true,
      "inputs": [],
      "name": "smartContractStatus",
      "outputs": [
        {
          "name": "",
          "type": "uint8"
        }
      ],
      "payable": false,
      "stateMutability": "view",
      "type": "function"
    },
    {
      "constant": false,
      "inputs": [
        {
          "name": "paymentAddress",
          "type": "address"
        }
      ],
      "name": "setPaymentAddress",
      "outputs": [],
      "payable": false,
      "stateMutability": "nonpayable",
      "type": "function"
    },
    {
      "constant": false,
      "inputs": [
        {
          "name": "adminAddress",
          "type": "address"
        }
      ],
      "name": "addAdmin",
      "outputs": [],
      "payable": false,
      "stateMutability": "nonpayable",
      "type": "function"
    },
    {
      "constant": false,
      "inputs": [
        {
          "name": "firstAdminAddress",
          "type": "address"
        }
      ],
      "name": "setFirstAdmin",
      "outputs": [],
      "payable": false,
      "stateMutability": "nonpayable",
      "type": "function"
    },
    {
      "constant": false,
      "inputs": [],
      "name": "setConfig",
      "outputs": [],
      "payable": false,
      "stateMutability": "nonpayable",
      "type": "function"
    },
    {
      "constant": true,
      "inputs": [],
      "name": "owner",
      "outputs": [
        {
          "name": "",
          "type": "address"
        }
      ],
      "payable": false,
      "stateMutability": "view",
      "type": "function"
    },
    {
      "constant": false,
      "inputs": [
        {
          "name": "paymentPercentage",
          "type": "uint256"
        }
      ],
      "name": "setScanPaymentPercentage",
      "outputs": [],
      "payable": false,
      "stateMutability": "nonpayable",
      "type": "function"
    },
    {
      "constant": true,
      "inputs": [],
      "name": "dbAddress",
      "outputs": [
        {
          "name": "",
          "type": "address"
        }
      ],
      "payable": false,
      "stateMutability": "view",
      "type": "function"
    },
    {
      "constant": false,
      "inputs": [
        {
          "name": "newOwner",
          "type": "address"
        }
      ],
      "name": "transferOwnership",
      "outputs": [],
      "payable": false,
      "stateMutability": "nonpayable",
      "type": "function"
    },
    {
      "inputs": [
        {
          "name": "_dbAddress",
          "type": "address"
        }
      ],
      "payable": false,
      "stateMutability": "nonpayable",
      "type": "constructor"
    },
    {
      "anonymous": false,
      "inputs": [
        {
          "indexed": false,
          "name": "ContractAddress",
          "type": "address"
        },
        {
          "indexed": false,
          "name": "record",
          "type": "bytes32"
        },
        {
          "indexed": false,
          "name": "settingTime",
          "type": "uint256"
        }
      ],
      "name": "ContractSet",
      "type": "event"
    },
    {
      "anonymous": false,
      "inputs": [
        {
          "indexed": false,
          "name": "status",
          "type": "uint8"
        }
      ],
      "name": "OnSmartContractStatusSet",
      "type": "event"
    },
    {
      "anonymous": false,
      "inputs": [
        {
          "indexed": true,
          "name": "previousOwner",
          "type": "address"
        },
        {
          "indexed": true,
          "name": "newOwner",
          "type": "address"
        }
      ],
      "name": "OwnershipTransferred",
      "type": "event"
    }
  ],
  "bytecode": "0x6060604052341561000f57600080fd5b604051602080612c6883398101604052808051906020019091905050336000806101000a81548173ffffffffffffffffffffffffffffffffffffffff021916908373ffffffffffffffffffffffffffffffffffffffff16021790555060008173ffffffffffffffffffffffffffffffffffffffff161415151561009157600080fd5b80600160006101000a81548173ffffffffffffffffffffffffffffffffffffffff021916908373ffffffffffffffffffffffffffffffffffffffff16021790555050612b86806100e26000396000f3006060604052600436106100c5576000357c0100000000000000000000000000000000000000000000000000000000900463ffffffff1680630d2020dd146100ca5780631d584fec146101315780633f0ed0df1461015457806340caae06146101a15780634c8ddddc146101b65780635e1e1004146101e5578063704802751461021e57806372f30ea0146102575780638b673e7a146102905780638da5cb5b146102a5578063908691dd146102fa57806391e06b6d1461031d578063f2fde38b14610372575b600080fd5b34156100d557600080fd5b6100ef6004808035600019169060200190919050506103ab565b604051808273ffffffffffffffffffffffffffffffffffffffff1673ffffffffffffffffffffffffffffffffffffffff16815260200191505060405180910390f35b341561013c57600080fd5b61015260048080359060200190919050506105f3565b005b341561015f57600080fd5b61019f6004808035906020019082018035906020019190919290803573ffffffffffffffffffffffffffffffffffffffff16906020019091905050610889565b005b34156101ac57600080fd5b6101b4610ab9565b005b34156101c157600080fd5b6101c9610c4c565b604051808260ff1660ff16815260200191505060405180910390f35b34156101f057600080fd5b61021c600480803573ffffffffffffffffffffffffffffffffffffffff16906020019091905050610c5f565b005b341561022957600080fd5b610255600480803573ffffffffffffffffffffffffffffffffffffffff16906020019091905050610efb565b005b341561026257600080fd5b61028e600480803573ffffffffffffffffffffffffffffffffffffffff1690602001909190505061176e565b005b341561029b57600080fd5b6102a3611b58565b005b34156102b057600080fd5b6102b8612131565b604051808273ffffffffffffffffffffffffffffffffffffffff1673ffffffffffffffffffffffffffffffffffffffff16815260200191505060405180910390f35b341561030557600080fd5b61031b6004808035906020019091905050612156565b005b341561032857600080fd5b6103306123c6565b604051808273ffffffffffffffffffffffffffffffffffffffff1673ffffffffffffffffffffffffffffffffffffffff16815260200191505060405180910390f35b341561037d57600080fd5b6103a9600480803573ffffffffffffffffffffffffffffffffffffffff169060200190919050506123ec565b005b6000336000809054906101000a900473ffffffffffffffffffffffffffffffffffffffff1673ffffffffffffffffffffffffffffffffffffffff168173ffffffffffffffffffffffffffffffffffffffff161480156105255750600160009054906101000a900473ffffffffffffffffffffffffffffffffffffffff1673ffffffffffffffffffffffffffffffffffffffff16634c77e5ba60405180807f6f646c6c2f6f776e657200000000000000000000000000000000000000000000815250600a01905060405180910390206000604051602001526040518263ffffffff167c0100000000000000000000000000000000000000000000000000000000028152600401808260001916600019168152602001915050602060405180830381600087803b15156104db57600080fd5b6102c65a03f115156104ec57600080fd5b5050506040518051905073ffffffffffffffffffffffffffffffffffffffff168173ffffffffffffffffffffffffffffffffffffffff16145b151561053057600080fd5b600160009054906101000a900473ffffffffffffffffffffffffffffffffffffffff1673ffffffffffffffffffffffffffffffffffffffff16634c77e5ba846000604051602001526040518263ffffffff167c0100000000000000000000000000000000000000000000000000000000028152600401808260001916600019168152602001915050602060405180830381600087803b15156105d157600080fd5b6102c65a03f115156105e257600080fd5b505050604051805190505050919050565b336000809054906101000a900473ffffffffffffffffffffffffffffffffffffffff1673ffffffffffffffffffffffffffffffffffffffff168173ffffffffffffffffffffffffffffffffffffffff1614801561076b5750600160009054906101000a900473ffffffffffffffffffffffffffffffffffffffff1673ffffffffffffffffffffffffffffffffffffffff16634c77e5ba60405180807f6f646c6c2f6f776e657200000000000000000000000000000000000000000000815250600a01905060405180910390206000604051602001526040518263ffffffff167c0100000000000000000000000000000000000000000000000000000000028152600401808260001916600019168152602001915050602060405180830381600087803b151561072157600080fd5b6102c65a03f1151561073257600080fd5b5050506040518051905073ffffffffffffffffffffffffffffffffffffffff168173ffffffffffffffffffffffffffffffffffffffff16145b151561077657600080fd5b600160009054906101000a900473ffffffffffffffffffffffffffffffffffffffff1673ffffffffffffffffffffffffffffffffffffffff16633562fd2060405180807f6f646c6c2f74726561746d656e742d7061796d656e742d70657263656e74616781526020017f650000000000000000000000000000000000000000000000000000000000000081525060210190506040518091039020846040518363ffffffff167c010000000000000000000000000000000000000000000000000000000002815260040180836000191660001916815260200182815260200192505050600060405180830381600087803b151561087157600080fd5b6102c65a03f1151561088257600080fd5b5050505050565b6000336000809054906101000a900473ffffffffffffffffffffffffffffffffffffffff1673ffffffffffffffffffffffffffffffffffffffff168173ffffffffffffffffffffffffffffffffffffffff16148015610a035750600160009054906101000a900473ffffffffffffffffffffffffffffffffffffffff1673ffffffffffffffffffffffffffffffffffffffff16634c77e5ba60405180807f6f646c6c2f6f776e657200000000000000000000000000000000000000000000815250600a01905060405180910390206000604051602001526040518263ffffffff167c0100000000000000000000000000000000000000000000000000000000028152600401808260001916600019168152602001915050602060405180830381600087803b15156109b957600080fd5b6102c65a03f115156109ca57600080fd5b5050506040518051905073ffffffffffffffffffffffffffffffffffffffff168173ffffffffffffffffffffffffffffffffffffffff16145b1515610a0e57600080fd5b84846040518083838082843782019150509250505060405180910390209150610a378284612541565b7feb2ba594a90708553de1a64973a456741e0bd74dc4ec91605d1b72d11b56e184838342604051808473ffffffffffffffffffffffffffffffffffffffff1673ffffffffffffffffffffffffffffffffffffffff1681526020018360001916600019168152602001828152602001935050505060405180910390a15050505050565b6000809054906101000a900473ffffffffffffffffffffffffffffffffffffffff1673ffffffffffffffffffffffffffffffffffffffff163373ffffffffffffffffffffffffffffffffffffffff16141515610b1457600080fd5b600160009054906101000a900473ffffffffffffffffffffffffffffffffffffffff1673ffffffffffffffffffffffffffffffffffffffff16635a2bf25a60405180807f6f646c6c2f6f776e657200000000000000000000000000000000000000000000815250600a01905060405180910390206000809054906101000a900473ffffffffffffffffffffffffffffffffffffffff166040518363ffffffff167c01000000000000000000000000000000000000000000000000000000000281526004018083600019166000191681526020018273ffffffffffffffffffffffffffffffffffffffff1673ffffffffffffffffffffffffffffffffffffffff16815260200192505050600060405180830381600087803b1515610c3657600080fd5b6102c65a03f11515610c4757600080fd5b505050565b600160149054906101000a900460ff1681565b336000809054906101000a900473ffffffffffffffffffffffffffffffffffffffff1673ffffffffffffffffffffffffffffffffffffffff168173ffffffffffffffffffffffffffffffffffffffff16148015610dd75750600160009054906101000a900473ffffffffffffffffffffffffffffffffffffffff1673ffffffffffffffffffffffffffffffffffffffff16634c77e5ba60405180807f6f646c6c2f6f776e657200000000000000000000000000000000000000000000815250600a01905060405180910390206000604051602001526040518263ffffffff167c0100000000000000000000000000000000000000000000000000000000028152600401808260001916600019168152602001915050602060405180830381600087803b1515610d8d57600080fd5b6102c65a03f11515610d9e57600080fd5b5050506040518051905073ffffffffffffffffffffffffffffffffffffffff168173ffffffffffffffffffffffffffffffffffffffff16145b1515610de257600080fd5b600160009054906101000a900473ffffffffffffffffffffffffffffffffffffffff1673ffffffffffffffffffffffffffffffffffffffff16635a2bf25a60405180807f6f646c6c2f7061796d656e742d6164647265737300000000000000000000000081525060140190506040518091039020846040518363ffffffff167c01000000000000000000000000000000000000000000000000000000000281526004018083600019166000191681526020018273ffffffffffffffffffffffffffffffffffffffff1673ffffffffffffffffffffffffffffffffffffffff16815260200192505050600060405180830381600087803b1515610ee357600080fd5b6102c65a03f11515610ef457600080fd5b5050505050565b336000809054906101000a900473ffffffffffffffffffffffffffffffffffffffff1673ffffffffffffffffffffffffffffffffffffffff168173ffffffffffffffffffffffffffffffffffffffff161480156110735750600160009054906101000a900473ffffffffffffffffffffffffffffffffffffffff1673ffffffffffffffffffffffffffffffffffffffff16634c77e5ba60405180807f6f646c6c2f6f776e657200000000000000000000000000000000000000000000815250600a01905060405180910390206000604051602001526040518263ffffffff167c0100000000000000000000000000000000000000000000000000000000028152600401808260001916600019168152602001915050602060405180830381600087803b151561102957600080fd5b6102c65a03f1151561103a57600080fd5b5050506040518051905073ffffffffffffffffffffffffffffffffffffffff168173ffffffffffffffffffffffffffffffffffffffff16145b151561107e57600080fd5b6000600160009054906101000a900473ffffffffffffffffffffffffffffffffffffffff1673ffffffffffffffffffffffffffffffffffffffff16637a0e03ec8460405180807f757365722f7479706500000000000000000000000000000000000000000000008152506009018273ffffffffffffffffffffffffffffffffffffffff1673ffffffffffffffffffffffffffffffffffffffff166c0100000000000000000000000002815260140191505060405180910390206000604051602001526040518263ffffffff167c0100000000000000000000000000000000000000000000000000000000028152600401808260001916600019168152602001915050602060405180830381600087803b151561119957600080fd5b6102c65a03f115156111aa57600080fd5b5050506040518051905060ff161415156111c357600080fd5b600160009054906101000a900473ffffffffffffffffffffffffffffffffffffffff1673ffffffffffffffffffffffffffffffffffffffff16630bd851588360405180807f757365722f7479706500000000000000000000000000000000000000000000008152506009018273ffffffffffffffffffffffffffffffffffffffff1673ffffffffffffffffffffffffffffffffffffffff166c01000000000000000000000000028152601401915050604051809103902060046040518363ffffffff167c01000000000000000000000000000000000000000000000000000000000281526004018083600019166000191681526020018260ff16815260200192505050600060405180830381600087803b15156112df57600080fd5b6102c65a03f115156112f057600080fd5b505050600160009054906101000a900473ffffffffffffffffffffffffffffffffffffffff1673ffffffffffffffffffffffffffffffffffffffff16633eba9ed28360405180807f757365722f69732d61646d696e3f000000000000000000000000000000000000815250600e018273ffffffffffffffffffffffffffffffffffffffff1673ffffffffffffffffffffffffffffffffffffffff166c01000000000000000000000000028152601401915050604051809103902060016040518363ffffffff167c01000000000000000000000000000000000000000000000000000000000281526004018083600019166000191681526020018215151515815260200192505050600060405180830381600087803b151561141057600080fd5b6102c65a03f1151561142157600080fd5b505050600160009054906101000a900473ffffffffffffffffffffffffffffffffffffffff1673ffffffffffffffffffffffffffffffffffffffff16633562fd208360405180807f757365722f637265617465642d6f6e0000000000000000000000000000000000815250600f018273ffffffffffffffffffffffffffffffffffffffff1673ffffffffffffffffffffffffffffffffffffffff166c010000000000000000000000000281526014019150506040518091039020426040518363ffffffff167c010000000000000000000000000000000000000000000000000000000002815260040180836000191660001916815260200182815260200192505050600060405180830381600087803b151561153c57600080fd5b6102c65a03f1151561154d57600080fd5b505050600160009054906101000a900473ffffffffffffffffffffffffffffffffffffffff1673ffffffffffffffffffffffffffffffffffffffff16630bd851588360405180807f757365722f737461747573000000000000000000000000000000000000000000815250600b018273ffffffffffffffffffffffffffffffffffffffff1673ffffffffffffffffffffffffffffffffffffffff166c01000000000000000000000000028152601401915050604051809103902060016040518363ffffffff167c01000000000000000000000000000000000000000000000000000000000281526004018083600019166000191681526020018260ff16815260200192505050600060405180830381600087803b151561166c57600080fd5b6102c65a03f1151561167d57600080fd5b5050506116f56040805190810160405280600981526020017f75736572732f69647300000000000000000000000000000000000000000000008152506040805190810160405280600b81526020017f75736572732f636f756e74000000000000000000000000000000000000000000815250846127cf565b61176a6040805190810160405280600a81526020017f61646d696e732f696473000000000000000000000000000000000000000000008152506040805190810160405280600c81526020017f61646d696e732f636f756e740000000000000000000000000000000000000000815250846127cf565b5050565b336000809054906101000a900473ffffffffffffffffffffffffffffffffffffffff1673ffffffffffffffffffffffffffffffffffffffff168173ffffffffffffffffffffffffffffffffffffffff161480156118e65750600160009054906101000a900473ffffffffffffffffffffffffffffffffffffffff1673ffffffffffffffffffffffffffffffffffffffff16634c77e5ba60405180807f6f646c6c2f6f776e657200000000000000000000000000000000000000000000815250600a01905060405180910390206000604051602001526040518263ffffffff167c0100000000000000000000000000000000000000000000000000000000028152600401808260001916600019168152602001915050602060405180830381600087803b151561189c57600080fd5b6102c65a03f115156118ad57600080fd5b5050506040518051905073ffffffffffffffffffffffffffffffffffffffff168173ffffffffffffffffffffffffffffffffffffffff16145b15156118f157600080fd5b6000600160009054906101000a900473ffffffffffffffffffffffffffffffffffffffff1673ffffffffffffffffffffffffffffffffffffffff16637a0e03ec8460405180807f757365722f7479706500000000000000000000000000000000000000000000008152506009018273ffffffffffffffffffffffffffffffffffffffff1673ffffffffffffffffffffffffffffffffffffffff166c0100000000000000000000000002815260140191505060405180910390206000604051602001526040518263ffffffff167c0100000000000000000000000000000000000000000000000000000000028152600401808260001916600019168152602001915050602060405180830381600087803b1515611a0c57600080fd5b6102c65a03f11515611a1d57600080fd5b5050506040518051905060ff16141515611a3657600080fd5b600160009054906101000a900473ffffffffffffffffffffffffffffffffffffffff1673ffffffffffffffffffffffffffffffffffffffff16635a2bf25a60405180807f6f646c6c2f66697273742d61646d696e0000000000000000000000000000000081525060100190506040518091039020846040518363ffffffff167c01000000000000000000000000000000000000000000000000000000000281526004018083600019166000191681526020018273ffffffffffffffffffffffffffffffffffffffff1673ffffffffffffffffffffffffffffffffffffffff16815260200192505050600060405180830381600087803b1515611b3757600080fd5b6102c65a03f11515611b4857600080fd5b505050611b5482610efb565b5050565b6000809054906101000a900473ffffffffffffffffffffffffffffffffffffffff1673ffffffffffffffffffffffffffffffffffffffff163373ffffffffffffffffffffffffffffffffffffffff16141515611bb357600080fd5b600160009054906101000a900473ffffffffffffffffffffffffffffffffffffffff1673ffffffffffffffffffffffffffffffffffffffff16633562fd2060405180807f636f6e6669672f6d61782d757365722d6e616d652d6c656e6774680000000000815250601b019050604051809103902060326040518363ffffffff167c010000000000000000000000000000000000000000000000000000000002815260040180836000191660001916815260200182815260200192505050600060405180830381600087803b1515611c8957600080fd5b6102c65a03f11515611c9a57600080fd5b505050600160009054906101000a900473ffffffffffffffffffffffffffffffffffffffff1673ffffffffffffffffffffffffffffffffffffffff16633562fd2060405180807f636f6e6669672f6d696e2d757365722d6e616d652d6c656e6774680000000000815250601b019050604051809103902060056040518363ffffffff167c010000000000000000000000000000000000000000000000000000000002815260040180836000191660001916815260200182815260200192505050600060405180830381600087803b1515611d7357600080fd5b6102c65a03f11515611d8457600080fd5b505050600160009054906101000a900473ffffffffffffffffffffffffffffffffffffffff1673ffffffffffffffffffffffffffffffffffffffff16633562fd2060405180807f636f6e6669672f6d61782d757365722d656d61696c2d6c656e67746800000000815250601c019050604051809103902060506040518363ffffffff167c010000000000000000000000000000000000000000000000000000000002815260040180836000191660001916815260200182815260200192505050600060405180830381600087803b1515611e5d57600080fd5b6102c65a03f11515611e6e57600080fd5b505050600160009054906101000a900473ffffffffffffffffffffffffffffffffffffffff1673ffffffffffffffffffffffffffffffffffffffff16633562fd2060405180807f636f6e6669672f6d696e2d757365722d656d61696c2d6c656e67746800000000815250601c019050604051809103902060056040518363ffffffff167c010000000000000000000000000000000000000000000000000000000002815260040180836000191660001916815260200182815260200192505050600060405180830381600087803b1515611f4757600080fd5b6102c65a03f11515611f5857600080fd5b505050600160009054906101000a900473ffffffffffffffffffffffffffffffffffffffff1673ffffffffffffffffffffffffffffffffffffffff16633562fd2060405180807f636f6e6669672f6d61782d636f6d70616e792d6e616d652d6c656e6774680000815250601e019050604051809103902060326040518363ffffffff167c010000000000000000000000000000000000000000000000000000000002815260040180836000191660001916815260200182815260200192505050600060405180830381600087803b151561203157600080fd5b6102c65a03f1151561204257600080fd5b505050600160009054906101000a900473ffffffffffffffffffffffffffffffffffffffff1673ffffffffffffffffffffffffffffffffffffffff16633562fd2060405180807f636f6e6669672f6d696e2d636f6d70616e792d6e616d652d6c656e6774680000815250601e019050604051809103902060056040518363ffffffff167c010000000000000000000000000000000000000000000000000000000002815260040180836000191660001916815260200182815260200192505050600060405180830381600087803b151561211b57600080fd5b6102c65a03f1151561212c57600080fd5b505050565b6000809054906101000a900473ffffffffffffffffffffffffffffffffffffffff1681565b336000809054906101000a900473ffffffffffffffffffffffffffffffffffffffff1673ffffffffffffffffffffffffffffffffffffffff168173ffffffffffffffffffffffffffffffffffffffff161480156122ce5750600160009054906101000a900473ffffffffffffffffffffffffffffffffffffffff1673ffffffffffffffffffffffffffffffffffffffff16634c77e5ba60405180807f6f646c6c2f6f776e657200000000000000000000000000000000000000000000815250600a01905060405180910390206000604051602001526040518263ffffffff167c0100000000000000000000000000000000000000000000000000000000028152600401808260001916600019168152602001915050602060405180830381600087803b151561228457600080fd5b6102c65a03f1151561229557600080fd5b5050506040518051905073ffffffffffffffffffffffffffffffffffffffff168173ffffffffffffffffffffffffffffffffffffffff16145b15156122d957600080fd5b600160009054906101000a900473ffffffffffffffffffffffffffffffffffffffff1673ffffffffffffffffffffffffffffffffffffffff16633562fd2060405180807f6f646c6c2f7363616e2d7061796d656e742d70657263656e7461676500000000815250601c0190506040518091039020846040518363ffffffff167c010000000000000000000000000000000000000000000000000000000002815260040180836000191660001916815260200182815260200192505050600060405180830381600087803b15156123ae57600080fd5b6102c65a03f115156123bf57600080fd5b5050505050565b600160009054906101000a900473ffffffffffffffffffffffffffffffffffffffff1681565b6000809054906101000a900473ffffffffffffffffffffffffffffffffffffffff1673ffffffffffffffffffffffffffffffffffffffff163373ffffffffffffffffffffffffffffffffffffffff1614151561244757600080fd5b600073ffffffffffffffffffffffffffffffffffffffff168173ffffffffffffffffffffffffffffffffffffffff161415151561248357600080fd5b8073ffffffffffffffffffffffffffffffffffffffff166000809054906101000a900473ffffffffffffffffffffffffffffffffffffffff1673ffffffffffffffffffffffffffffffffffffffff167f8be0079c531659141344cd1fd0a4f28419497f9722a3daafe3b4186f6b6457e060405160405180910390a3806000806101000a81548173ffffffffffffffffffffffffffffffffffffffff021916908373ffffffffffffffffffffffffffffffffffffffff16021790555050565b336000809054906101000a900473ffffffffffffffffffffffffffffffffffffffff1673ffffffffffffffffffffffffffffffffffffffff168173ffffffffffffffffffffffffffffffffffffffff161480156126b95750600160009054906101000a900473ffffffffffffffffffffffffffffffffffffffff1673ffffffffffffffffffffffffffffffffffffffff16634c77e5ba60405180807f6f646c6c2f6f776e657200000000000000000000000000000000000000000000815250600a01905060405180910390206000604051602001526040518263ffffffff167c0100000000000000000000000000000000000000000000000000000000028152600401808260001916600019168152602001915050602060405180830381600087803b151561266f57600080fd5b6102c65a03f1151561268057600080fd5b5050506040518051905073ffffffffffffffffffffffffffffffffffffffff168173ffffffffffffffffffffffffffffffffffffffff16145b15156126c457600080fd5b60008273ffffffffffffffffffffffffffffffffffffffff16141515156126ea57600080fd5b600160009054906101000a900473ffffffffffffffffffffffffffffffffffffffff1673ffffffffffffffffffffffffffffffffffffffff16635a2bf25a84846040518363ffffffff167c01000000000000000000000000000000000000000000000000000000000281526004018083600019166000191681526020018273ffffffffffffffffffffffffffffffffffffffff1673ffffffffffffffffffffffffffffffffffffffff16815260200192505050600060405180830381600087803b15156127b657600080fd5b6102c65a03f115156127c757600080fd5b505050505050565b6000600160009054906101000a900473ffffffffffffffffffffffffffffffffffffffff1673ffffffffffffffffffffffffffffffffffffffff1663bdc963d8846040518082805190602001908083835b6020831015156128455780518252602082019150602081019050602083039250612820565b6001836020036101000a03801982511681845116808217855250505050505090500191505060405180910390206000604051602001526040518263ffffffff167c0100000000000000000000000000000000000000000000000000000000028152600401808260001916600019168152602001915050602060405180830381600087803b15156128d457600080fd5b6102c65a03f115156128e557600080fd5b505050604051805190509050600160009054906101000a900473ffffffffffffffffffffffffffffffffffffffff1673ffffffffffffffffffffffffffffffffffffffff16635a2bf25a85836040518083805190602001908083835b6020831015156129665780518252602082019150602081019050602083039250612941565b6001836020036101000a038019825116818451168082178552505050505050905001828152602001925050506040518091039020846040518363ffffffff167c01000000000000000000000000000000000000000000000000000000000281526004018083600019166000191681526020018273ffffffffffffffffffffffffffffffffffffffff1673ffffffffffffffffffffffffffffffffffffffff16815260200192505050600060405180830381600087803b1515612a2757600080fd5b6102c65a03f11515612a3857600080fd5b505050600160009054906101000a900473ffffffffffffffffffffffffffffffffffffffff1673ffffffffffffffffffffffffffffffffffffffff16633562fd20846040518082805190602001908083835b602083101515612aaf5780518252602082019150602081019050602083039250612a8a565b6001836020036101000a0380198251168184511680821785525050505050509050019150506040518091039020600184016040518363ffffffff167c010000000000000000000000000000000000000000000000000000000002815260040180836000191660001916815260200182815260200192505050600060405180830381600087803b1515612b4057600080fd5b6102c65a03f11515612b5157600080fd5b505050505050505600a165627a7a72305820263e97b70f7784845131bf314dc9b3b95fc5f85c64af1fbfe76da80dd09fdbc80029",
  "source": "pragma solidity 0.4.18;\n\nimport \"./Restrictor.sol\";\n\ncontract Setter is Restrictor {\n  event ContractSet(address ContractAddress, bytes32 record, uint settingTime);\n\n  function Setter(address _dbAddress) public {\n    require(_dbAddress != 0x0);\n    dbAddress = _dbAddress;\n  }\n\n  function setConfig()\n    external\n    onlyOwner\n  {\n    DB(dbAddress).setUIntValue(keccak256('config/max-user-name-length'), 50);\n    DB(dbAddress).setUIntValue(keccak256('config/min-user-name-length'), 5);\n    DB(dbAddress).setUIntValue(keccak256('config/max-user-email-length'), 80);\n    DB(dbAddress).setUIntValue(keccak256('config/min-user-email-length'), 5);\n    DB(dbAddress).setUIntValue(keccak256('config/max-company-name-length'), 50);\n    DB(dbAddress).setUIntValue(keccak256('config/min-company-name-length'), 5);\n  }\n\n  function setOwner()\n    external\n    onlyOwner\n  {\n    DB(dbAddress).setAddressValue(keccak256('odll/owner'), owner);\n  }\n\n  function setPaymentAddress(address paymentAddress)\n    external\n    onlyOwnerCanCall(msg.sender)\n  {\n    DB(dbAddress).setAddressValue(keccak256('odll/payment-address'), paymentAddress);\n  }\n\n  function setScanPaymentPercentage(uint paymentPercentage)\n    external\n    onlyOwnerCanCall(msg.sender)\n  {\n    DB(dbAddress).setUIntValue(keccak256('odll/scan-payment-percentage'), paymentPercentage);\n  }\n\n  function setTreatmentPaymentPercentage(uint paymentPercentage)\n    external\n    onlyOwnerCanCall(msg.sender)\n  {\n    DB(dbAddress).setUIntValue(keccak256('odll/treatment-payment-percentage'), paymentPercentage);\n  }\n\n  function setFirstAdmin(address firstAdminAddress)\n    external\n    onlyOwnerCanCall(msg.sender)\n  {\n    require(DB(dbAddress).getUInt8Value(keccak256(\"user/type\", firstAdminAddress)) == 0);\n    DB(dbAddress).setAddressValue(keccak256('odll/first-admin'), firstAdminAddress);\n    addAdmin(firstAdminAddress);\n  }\n\n  function addAdmin(address adminAddress)\n    public\n    onlyOwnerCanCall(msg.sender)\n  {\n    require(DB(dbAddress).getUInt8Value(keccak256(\"user/type\", adminAddress)) == 0);\n    DB(dbAddress).setUInt8Value(keccak256(\"user/type\", adminAddress), 4);\n    DB(dbAddress).setBooleanValue(keccak256('user/is-admin?', adminAddress), true);\n    DB(dbAddress).setUIntValue(keccak256(\"user/created-on\", adminAddress), now);\n    DB(dbAddress).setUInt8Value(keccak256(\"user/status\", adminAddress), 1);\n    addArrayItem(\"users/ids\", \"users/count\", adminAddress);\n    addArrayItem(\"admins/ids\", \"admins/count\", adminAddress);\n  }\n\n  function addArrayItem(string key, string countKey, address val) internal {\n    var idx = DB(dbAddress).getUIntValue(keccak256(countKey));\n    DB(dbAddress).setAddressValue(keccak256(key, idx), val);\n    DB(dbAddress).setUIntValue(keccak256(countKey), idx + 1);\n  }\n\n  function setContract(string dbKey, address newContractAddress)\n    external\n    onlyOwnerCanCall(msg.sender)\n  {\n    bytes32 record = keccak256(dbKey);\n    setNewContractAddressToKey(record, newContractAddress);\n    ContractSet(newContractAddress, record, now);\n  }\n\n  function setNewContractAddressToKey(bytes32 record, address newContractAddress)\n    internal\n    onlyOwnerCanCall(msg.sender)\n  {\n    require(newContractAddress != 0x0);\n    DB(dbAddress).setAddressValue(record, newContractAddress);\n  }\n\n  function getContractAddress(bytes32 record)\n    external\n    onlyOwnerCanCall(msg.sender)\n    view returns (address)\n  {\n    DB(dbAddress).getAddressValue(record);\n  }\n}\n\n",
  "sourcePath": "/home/daniel/dev/vue/apps/oral-data-link/contracts/odll/Setter.sol",
  "compiler": {
    "name": "solc",
    "version": "0.4.18+commit.9cf6e910.Emscripten.clang"
  },
  "schemaVersion": "1.0.1",
  "updatedAt": "2017-11-10T23:17:21.513Z"
}