{
  "contractName": "TreatmentApplicationWriter",
  "abi": [
    {
      "constant": false,
      "inputs": [
        {
          "name": "patientId",
          "type": "address"
        },
        {
          "name": "treatmentApplicationId",
          "type": "uint256"
        }
      ],
      "name": "cancelTreatmentApplication",
      "outputs": [],
      "payable": false,
      "stateMutability": "nonpayable",
      "type": "function"
    },
    {
      "constant": true,
      "inputs": [],
      "name": "smartContractStatus",
      "outputs": [
        {
          "name": "",
          "type": "uint8"
        }
      ],
      "payable": false,
      "stateMutability": "view",
      "type": "function"
    },
    {
      "constant": false,
      "inputs": [
        {
          "name": "dentistId",
          "type": "address"
        },
        {
          "name": "treatmentId",
          "type": "uint256"
        }
      ],
      "name": "markTreatmentDone",
      "outputs": [],
      "payable": false,
      "stateMutability": "nonpayable",
      "type": "function"
    },
    {
      "constant": true,
      "inputs": [],
      "name": "owner",
      "outputs": [
        {
          "name": "",
          "type": "address"
        }
      ],
      "payable": false,
      "stateMutability": "view",
      "type": "function"
    },
    {
      "constant": true,
      "inputs": [],
      "name": "dbAddress",
      "outputs": [
        {
          "name": "",
          "type": "address"
        }
      ],
      "payable": false,
      "stateMutability": "view",
      "type": "function"
    },
    {
      "constant": false,
      "inputs": [
        {
          "name": "dentistId",
          "type": "address"
        },
        {
          "name": "treatmentId",
          "type": "uint256"
        }
      ],
      "name": "cancelTreatment",
      "outputs": [],
      "payable": false,
      "stateMutability": "nonpayable",
      "type": "function"
    },
    {
      "constant": false,
      "inputs": [
        {
          "name": "patientId",
          "type": "address"
        },
        {
          "name": "treatmentRequestId",
          "type": "uint256"
        },
        {
          "name": "quote",
          "type": "uint256"
        },
        {
          "name": "comment",
          "type": "string"
        }
      ],
      "name": "applyToTreat",
      "outputs": [],
      "payable": false,
      "stateMutability": "nonpayable",
      "type": "function"
    },
    {
      "constant": false,
      "inputs": [
        {
          "name": "newOwner",
          "type": "address"
        }
      ],
      "name": "transferOwnership",
      "outputs": [],
      "payable": false,
      "stateMutability": "nonpayable",
      "type": "function"
    },
    {
      "inputs": [
        {
          "name": "_dbAddress",
          "type": "address"
        }
      ],
      "payable": false,
      "stateMutability": "nonpayable",
      "type": "constructor"
    },
    {
      "anonymous": false,
      "inputs": [
        {
          "indexed": false,
          "name": "status",
          "type": "uint8"
        }
      ],
      "name": "OnSmartContractStatusSet",
      "type": "event"
    },
    {
      "anonymous": false,
      "inputs": [
        {
          "indexed": true,
          "name": "previousOwner",
          "type": "address"
        },
        {
          "indexed": true,
          "name": "newOwner",
          "type": "address"
        }
      ],
      "name": "OwnershipTransferred",
      "type": "event"
    }
  ],
  "bytecode": "0x6060604052341561000f57600080fd5b6040516020806130c783398101604052808051906020019091905050336000806101000a81548173ffffffffffffffffffffffffffffffffffffffff021916908373ffffffffffffffffffffffffffffffffffffffff16021790555060008173ffffffffffffffffffffffffffffffffffffffff161415151561009157600080fd5b80600160006101000a81548173ffffffffffffffffffffffffffffffffffffffff021916908373ffffffffffffffffffffffffffffffffffffffff16021790555050612fe5806100e26000396000f30060606040526004361061008e576000357c0100000000000000000000000000000000000000000000000000000000900463ffffffff16806307c2759d146100935780634c8ddddc146100d5578063797c6ae6146101045780638da5cb5b1461014657806391e06b6d1461019b578063b0e78e8b146101f0578063bfca804814610232578063f2fde38b14610291575b600080fd5b341561009e57600080fd5b6100d3600480803573ffffffffffffffffffffffffffffffffffffffff169060200190919080359060200190919050506102ca565b005b34156100e057600080fd5b6100e86102fc565b604051808260ff1660ff16815260200191505060405180910390f35b341561010f57600080fd5b610144600480803573ffffffffffffffffffffffffffffffffffffffff1690602001909190803590602001909190505061030f565b005b341561015157600080fd5b610159610341565b604051808273ffffffffffffffffffffffffffffffffffffffff1673ffffffffffffffffffffffffffffffffffffffff16815260200191505060405180910390f35b34156101a657600080fd5b6101ae610366565b604051808273ffffffffffffffffffffffffffffffffffffffff1673ffffffffffffffffffffffffffffffffffffffff16815260200191505060405180910390f35b34156101fb57600080fd5b610230600480803573ffffffffffffffffffffffffffffffffffffffff1690602001909190803590602001909190505061038c565b005b341561023d57600080fd5b61028f600480803573ffffffffffffffffffffffffffffffffffffffff1690602001909190803590602001909190803590602001909190803590602001908201803590602001919091929050506103be565b005b341561029c57600080fd5b6102c8600480803573ffffffffffffffffffffffffffffffffffffffff16906020019091905050610427565b005b6102f8600160009054906101000a900473ffffffffffffffffffffffffffffffffffffffff1633848461057c565b5050565b600160149054906101000a900460ff1681565b61033d600160009054906101000a900473ffffffffffffffffffffffffffffffffffffffff1683338461058e565b5050565b6000809054906101000a900473ffffffffffffffffffffffffffffffffffffffff1681565b600160009054906101000a900473ffffffffffffffffffffffffffffffffffffffff1681565b6103ba600160009054906101000a900473ffffffffffffffffffffffffffffffffffffffff168333846105a0565b5050565b610420600160009054906101000a900473ffffffffffffffffffffffffffffffffffffffff163387878787878080601f0160208091040260200160405190810160405280939291908181526020018383808284378201915050505050506105b2565b5050505050565b6000809054906101000a900473ffffffffffffffffffffffffffffffffffffffff1673ffffffffffffffffffffffffffffffffffffffff163373ffffffffffffffffffffffffffffffffffffffff1614151561048257600080fd5b600073ffffffffffffffffffffffffffffffffffffffff168173ffffffffffffffffffffffffffffffffffffffff16141515156104be57600080fd5b8073ffffffffffffffffffffffffffffffffffffffff166000809054906101000a900473ffffffffffffffffffffffffffffffffffffffff1673ffffffffffffffffffffffffffffffffffffffff167f8be0079c531659141344cd1fd0a4f28419497f9722a3daafe3b4186f6b6457e060405160405180910390a3806000806101000a81548173ffffffffffffffffffffffffffffffffffffffff021916908373ffffffffffffffffffffffffffffffffffffffff16021790555050565b610588848484846105c8565b50505050565b61059a848484846109a3565b50505050565b6105ac84848484610d7e565b50505050565b6105c0868686868686611159565b505050505050565b60018473ffffffffffffffffffffffffffffffffffffffff16637a0e03ec8360405180807f74726561746d656e742d6170706c69636174696f6e2f73746174757300000000815250601c0182815260200191505060405180910390206000604051602001526040518263ffffffff167c0100000000000000000000000000000000000000000000000000000000028152600401808260001916600019168152602001915050602060405180830381600087803b151561068657600080fd5b6102c65a03f1151561069757600080fd5b5050506040518051905060ff161480156107b257508273ffffffffffffffffffffffffffffffffffffffff168473ffffffffffffffffffffffffffffffffffffffff16634c77e5ba8360405180807f74726561746d656e742d6170706c69636174696f6e2f64656e74697374000000815250601d0182815260200191505060405180910390206000604051602001526040518263ffffffff167c0100000000000000000000000000000000000000000000000000000000028152600401808260001916600019168152602001915050602060405180830381600087803b151561077f57600080fd5b6102c65a03f1151561079057600080fd5b5050506040518051905073ffffffffffffffffffffffffffffffffffffffff16145b80156108bf57508173ffffffffffffffffffffffffffffffffffffffff168473ffffffffffffffffffffffffffffffffffffffff16634c77e5ba8360405180807f74726561746d656e742d6170706c69636174696f6e2f70617469656e74000000815250601d0182815260200191505060405180910390206000604051602001526040518263ffffffff167c0100000000000000000000000000000000000000000000000000000000028152600401808260001916600019168152602001915050602060405180830381600087803b151561088c57600080fd5b6102c65a03f1151561089d57600080fd5b5050506040518051905073ffffffffffffffffffffffffffffffffffffffff16145b15156108ca57600080fd5b8373ffffffffffffffffffffffffffffffffffffffff16630bd851588260405180807f74726561746d656e742d6170706c69636174696f6e2f73746174757300000000815250601c01828152602001915050604051809103902060036040518363ffffffff167c01000000000000000000000000000000000000000000000000000000000281526004018083600019166000191681526020018260ff16815260200192505050600060405180830381600087803b151561098957600080fd5b6102c65a03f1151561099a57600080fd5b50505050505050565b60018473ffffffffffffffffffffffffffffffffffffffff16637a0e03ec8360405180807f74726561746d656e742f7374617475730000000000000000000000000000000081525060100182815260200191505060405180910390206000604051602001526040518263ffffffff167c0100000000000000000000000000000000000000000000000000000000028152600401808260001916600019168152602001915050602060405180830381600087803b1515610a6157600080fd5b6102c65a03f11515610a7257600080fd5b5050506040518051905060ff16148015610b8d57508273ffffffffffffffffffffffffffffffffffffffff168473ffffffffffffffffffffffffffffffffffffffff16634c77e5ba8360405180807f74726561746d656e742f64656e7469737400000000000000000000000000000081525060110182815260200191505060405180910390206000604051602001526040518263ffffffff167c0100000000000000000000000000000000000000000000000000000000028152600401808260001916600019168152602001915050602060405180830381600087803b1515610b5a57600080fd5b6102c65a03f11515610b6b57600080fd5b5050506040518051905073ffffffffffffffffffffffffffffffffffffffff16145b8015610c9a57508173ffffffffffffffffffffffffffffffffffffffff168473ffffffffffffffffffffffffffffffffffffffff16634c77e5ba8360405180807f74726561746d656e742f70617469656e7400000000000000000000000000000081525060110182815260200191505060405180910390206000604051602001526040518263ffffffff167c0100000000000000000000000000000000000000000000000000000000028152600401808260001916600019168152602001915050602060405180830381600087803b1515610c6757600080fd5b6102c65a03f11515610c7857600080fd5b5050506040518051905073ffffffffffffffffffffffffffffffffffffffff16145b1515610ca557600080fd5b8373ffffffffffffffffffffffffffffffffffffffff16630bd851588260405180807f74726561746d656e742f73746174757300000000000000000000000000000000815250601001828152602001915050604051809103902060026040518363ffffffff167c01000000000000000000000000000000000000000000000000000000000281526004018083600019166000191681526020018260ff16815260200192505050600060405180830381600087803b1515610d6457600080fd5b6102c65a03f11515610d7557600080fd5b50505050505050565b60018473ffffffffffffffffffffffffffffffffffffffff16637a0e03ec8360405180807f74726561746d656e742f7374617475730000000000000000000000000000000081525060100182815260200191505060405180910390206000604051602001526040518263ffffffff167c0100000000000000000000000000000000000000000000000000000000028152600401808260001916600019168152602001915050602060405180830381600087803b1515610e3c57600080fd5b6102c65a03f11515610e4d57600080fd5b5050506040518051905060ff16148015610f6857508273ffffffffffffffffffffffffffffffffffffffff168473ffffffffffffffffffffffffffffffffffffffff16634c77e5ba8360405180807f74726561746d656e742f64656e7469737400000000000000000000000000000081525060110182815260200191505060405180910390206000604051602001526040518263ffffffff167c0100000000000000000000000000000000000000000000000000000000028152600401808260001916600019168152602001915050602060405180830381600087803b1515610f3557600080fd5b6102c65a03f11515610f4657600080fd5b5050506040518051905073ffffffffffffffffffffffffffffffffffffffff16145b801561107557508173ffffffffffffffffffffffffffffffffffffffff168473ffffffffffffffffffffffffffffffffffffffff16634c77e5ba8360405180807f74726561746d656e742f70617469656e7400000000000000000000000000000081525060110182815260200191505060405180910390206000604051602001526040518263ffffffff167c0100000000000000000000000000000000000000000000000000000000028152600401808260001916600019168152602001915050602060405180830381600087803b151561104257600080fd5b6102c65a03f1151561105357600080fd5b5050506040518051905073ffffffffffffffffffffffffffffffffffffffff16145b151561108057600080fd5b8373ffffffffffffffffffffffffffffffffffffffff16630bd851588260405180807f74726561746d656e742f73746174757300000000000000000000000000000000815250601001828152602001915050604051809103902060036040518363ffffffff167c01000000000000000000000000000000000000000000000000000000000281526004018083600019166000191681526020018260ff16815260200192505050600060405180830381600087803b151561113f57600080fd5b6102c65a03f1151561115057600080fd5b50505050505050565b61116786868686868661116f565b505050505050565b6000806000806111b48a6040805190810160405280601c81526020017f74726561746d656e742d6170706c69636174696f6e732d636f756e7400000000815250611ba1565b935060008a73ffffffffffffffffffffffffffffffffffffffff16637a0e03ec8660405180807f74726561746d656e742d6170706c69636174696f6e2f73746174757300000000815250601c0182815260200191505060405180910390206000604051602001526040518263ffffffff167c0100000000000000000000000000000000000000000000000000000000028152600401808260001916600019168152602001915050602060405180830381600087803b151561127457600080fd5b6102c65a03f1151561128557600080fd5b5050506040518051905060ff16148015611378575060018a73ffffffffffffffffffffffffffffffffffffffff16637a0e03ec8960405180807f74726561746d656e742d726571756573742f737461747573000000000000000081525060180182815260200191505060405180910390206000604051602001526040518263ffffffff167c0100000000000000000000000000000000000000000000000000000000028152600401808260001916600019168152602001915050602060405180830381600087803b151561135857600080fd5b6102c65a03f1151561136957600080fd5b5050506040518051905060ff16145b801561148557508773ffffffffffffffffffffffffffffffffffffffff168a73ffffffffffffffffffffffffffffffffffffffff16634c77e5ba8960405180807f74726561746d656e742d726571756573742f70617469656e740000000000000081525060190182815260200191505060405180910390206000604051602001526040518263ffffffff167c0100000000000000000000000000000000000000000000000000000000028152600401808260001916600019168152602001915050602060405180830381600087803b151561145257600080fd5b6102c65a03f1151561146357600080fd5b5050506040518051905073ffffffffffffffffffffffffffffffffffffffff16145b151561149057600080fd5b600092505b83831015611a63578973ffffffffffffffffffffffffffffffffffffffff1663bdc963d88a8560405180807f64656e746973742f74726561746d656e742d6170706c69636174696f6e000000815250601d018373ffffffffffffffffffffffffffffffffffffffff1673ffffffffffffffffffffffffffffffffffffffff166c010000000000000000000000000281526014018281526020019250505060405180910390206000604051602001526040518263ffffffff167c0100000000000000000000000000000000000000000000000000000000028152600401808260001916600019168152602001915050602060405180830381600087803b151561159c57600080fd5b6102c65a03f115156115ad57600080fd5b5050506040518051905091508973ffffffffffffffffffffffffffffffffffffffff1663bdc963d88360405180807f74726561746d656e742d6170706c69636174696f6e2f74726561746d656e742d81526020017f726571756573740000000000000000000000000000000000000000000000000081525060270182815260200191505060405180910390206000604051602001526040518263ffffffff167c0100000000000000000000000000000000000000000000000000000000028152600401808260001916600019168152602001915050602060405180830381600087803b151561169b57600080fd5b6102c65a03f115156116ac57600080fd5b5050506040518051905090508681148015611a4c575060018a73ffffffffffffffffffffffffffffffffffffffff16637a0e03ec8460405180807f74726561746d656e742d6170706c69636174696f6e2f73746174757300000000815250601c0182815260200191505060405180910390206000604051602001526040518263ffffffff167c0100000000000000000000000000000000000000000000000000000000028152600401808260001916600019168152602001915050602060405180830381600087803b151561178057600080fd5b6102c65a03f1151561179157600080fd5b5050506040518051905060ff161480611883575060028a73ffffffffffffffffffffffffffffffffffffffff16637a0e03ec8460405180807f74726561746d656e742d6170706c69636174696f6e2f73746174757300000000815250601c0182815260200191505060405180910390206000604051602001526040518263ffffffff167c0100000000000000000000000000000000000000000000000000000000028152600401808260001916600019168152602001915050602060405180830381600087803b151561186357600080fd5b6102c65a03f1151561187457600080fd5b5050506040518051905060ff16145b80611967575060048a73ffffffffffffffffffffffffffffffffffffffff16637a0e03ec8460405180807f74726561746d656e742d6170706c69636174696f6e2f73746174757300000000815250601c0182815260200191505060405180910390206000604051602001526040518263ffffffff167c0100000000000000000000000000000000000000000000000000000000028152600401808260001916600019168152602001915050602060405180830381600087803b151561194757600080fd5b6102c65a03f1151561195857600080fd5b5050506040518051905060ff16145b80611a4b575060058a73ffffffffffffffffffffffffffffffffffffffff16637a0e03ec8460405180807f74726561746d656e742d6170706c69636174696f6e2f73746174757300000000815250601c0182815260200191505060405180910390206000604051602001526040518263ffffffff167c0100000000000000000000000000000000000000000000000000000000028152600401808260001916600019168152602001915050602060405180830381600087803b1515611a2b57600080fd5b6102c65a03f11515611a3c57600080fd5b5050506040518051905060ff16145b5b15611a5657611b95565b8280600101935050611495565b8973ffffffffffffffffffffffffffffffffffffffff16633eba9ed28a8960405180807f64656e746973742f74726561746d656e742d72657175657374000000000000008152506019018373ffffffffffffffffffffffffffffffffffffffff1673ffffffffffffffffffffffffffffffffffffffff166c0100000000000000000000000002815260140182815260200192505050604051809103902060016040518363ffffffff167c01000000000000000000000000000000000000000000000000000000000281526004018083600019166000191681526020018215151515815260200192505050600060405180830381600087803b1515611b6657600080fd5b6102c65a03f11515611b7757600080fd5b505050611b858a8886611ca7565b611b948a8a8a8a888b8b611fb9565b5b50505050505050505050565b60008273ffffffffffffffffffffffffffffffffffffffff1663bdc963d8836040518082805190602001908083835b602083101515611bf55780518252602082019150602081019050602083039250611bd0565b6001836020036101000a03801982511681845116808217855250505050505090500191505060405180910390206000604051602001526040518263ffffffff167c0100000000000000000000000000000000000000000000000000000000028152600401808260001916600019168152602001915050602060405180830381600087803b1515611c8457600080fd5b6102c65a03f11515611c9557600080fd5b50505060405180519050905092915050565b8273ffffffffffffffffffffffffffffffffffffffff16630bd851588260405180807f74726561746d656e742d6170706c69636174696f6e2f73746174757300000000815250601c01828152602001915050604051809103902060016040518363ffffffff167c01000000000000000000000000000000000000000000000000000000000281526004018083600019166000191681526020018260ff16815260200192505050600060405180830381600087803b1515611d6657600080fd5b6102c65a03f11515611d7757600080fd5b5050508273ffffffffffffffffffffffffffffffffffffffff16633562fd208260405180807f74726561746d656e742d6170706c69636174696f6e2f637265617465642d6f6e8152506020018281526020019150506040518091039020426040518363ffffffff167c010000000000000000000000000000000000000000000000000000000002815260040180836000191660001916815260200182815260200192505050600060405180830381600087803b1515611e3557600080fd5b6102c65a03f11515611e4657600080fd5b5050508273ffffffffffffffffffffffffffffffffffffffff16633562fd208260405180807f74726561746d656e742d6170706c69636174696f6e2f74726561746d656e742d81526020017f72657175657374000000000000000000000000000000000000000000000000008152506027018281526020019150506040518091039020846040518363ffffffff167c010000000000000000000000000000000000000000000000000000000002815260040180836000191660001916815260200182815260200192505050600060405180830381600087803b1515611f2a57600080fd5b6102c65a03f11515611f3b57600080fd5b505050611fb4836040805190810160405280601581526020017f74726561746d656e742d6170706c69636174696f6e00000000000000000000008152506040805190810160405280601c81526020017f74726561746d656e742d6170706c69636174696f6e732d636f756e7400000000815250846125bc565b505050565b8673ffffffffffffffffffffffffffffffffffffffff16633562fd208460405180807f74726561746d656e742d6170706c69636174696f6e2f71756f74650000000000815250601b018281526020019150506040518091039020846040518363ffffffff167c010000000000000000000000000000000000000000000000000000000002815260040180836000191660001916815260200182815260200192505050600060405180830381600087803b151561207457600080fd5b6102c65a03f1151561208557600080fd5b5050508673ffffffffffffffffffffffffffffffffffffffff1663f58660668460405180807f74726561746d656e742d6170706c69636174696f6e2f636f6d6d656e74000000815250601d018281526020019150506040518091039020836040518363ffffffff167c010000000000000000000000000000000000000000000000000000000002815260040180836000191660001916815260200180602001828103825283818151815260200191508051906020019080838360005b8381101561215c578082015181840152602081019050612141565b50505050905090810190601f1680156121895780820380516001836020036101000a031916815260200191505b509350505050600060405180830381600087803b15156121a857600080fd5b6102c65a03f115156121b957600080fd5b5050508673ffffffffffffffffffffffffffffffffffffffff16635a2bf25a8460405180807f74726561746d656e742d6170706c69636174696f6e2f64656e74697374000000815250601d018281526020019150506040518091039020886040518363ffffffff167c01000000000000000000000000000000000000000000000000000000000281526004018083600019166000191681526020018273ffffffffffffffffffffffffffffffffffffffff1673ffffffffffffffffffffffffffffffffffffffff16815260200192505050600060405180830381600087803b15156122a357600080fd5b6102c65a03f115156122b457600080fd5b5050508673ffffffffffffffffffffffffffffffffffffffff16635a2bf25a8460405180807f74726561746d656e742d6170706c69636174696f6e2f70617469656e74000000815250601d018281526020019150506040518091039020876040518363ffffffff167c01000000000000000000000000000000000000000000000000000000000281526004018083600019166000191681526020018273ffffffffffffffffffffffffffffffffffffffff1673ffffffffffffffffffffffffffffffffffffffff16815260200192505050600060405180830381600087803b151561239e57600080fd5b6102c65a03f115156123af57600080fd5b50505061245087876040805190810160405280601d81526020017f64656e746973742f74726561746d656e742d6170706c69636174696f6e000000815250606060405190810160405280602481526020017f64656e746973742f74726561746d656e742d6170706c69636174696f6e732d6381526020017f6f756e7400000000000000000000000000000000000000000000000000000000815250876128b6565b6124ee87866040805190810160405280601d81526020017f70617469656e742f74726561746d656e742d6170706c69636174696f6e000000815250606060405190810160405280602481526020017f70617469656e742f74726561746d656e742d6170706c69636174696f6e732d6381526020017f6f756e7400000000000000000000000000000000000000000000000000000000815250876128b6565b6125b38785606060405190810160405280602781526020017f74726561746d656e742d726571756573742f74726561746d656e742d6170706c81526020017f69636174696f6e00000000000000000000000000000000000000000000000000815250606060405190810160405280602e81526020017f74726561746d656e742d726571756573742f74726561746d656e742d6170706c81526020017f69636174696f6e732d636f756e7400000000000000000000000000000000000081525087612b46565b50505050505050565b60008473ffffffffffffffffffffffffffffffffffffffff1663bdc963d8846040518082805190602001908083835b60208310151561261057805182526020820191506020810190506020830392506125eb565b6001836020036101000a03801982511681845116808217855250505050505090500191505060405180910390206000604051602001526040518263ffffffff167c0100000000000000000000000000000000000000000000000000000000028152600401808260001916600019168152602001915050602060405180830381600087803b151561269f57600080fd5b6102c65a03f115156126b057600080fd5b5050506040518051905090508473ffffffffffffffffffffffffffffffffffffffff16633562fd2085836040518083805190602001908083835b60208310151561270f57805182526020820191506020810190506020830392506126ea565b6001836020036101000a038019825116818451168082178552505050505050905001828152602001925050506040518091039020846040518363ffffffff167c010000000000000000000000000000000000000000000000000000000002815260040180836000191660001916815260200182815260200192505050600060405180830381600087803b15156127a457600080fd5b6102c65a03f115156127b557600080fd5b5050508473ffffffffffffffffffffffffffffffffffffffff16633562fd20846040518082805190602001908083835b60208310151561280a57805182526020820191506020810190506020830392506127e5565b6001836020036101000a0380198251168184511680821785525050505050509050019150506040518091039020600184016040518363ffffffff167c010000000000000000000000000000000000000000000000000000000002815260040180836000191660001916815260200182815260200192505050600060405180830381600087803b151561289b57600080fd5b6102c65a03f115156128ac57600080fd5b5050505050505050565b60006128c3868685612d60565b90508573ffffffffffffffffffffffffffffffffffffffff16633562fd208587846040518084805190602001908083835b60208310151561291957805182526020820191506020810190506020830392506128f4565b6001836020036101000a0380198251168184511680821785525050505050509050018373ffffffffffffffffffffffffffffffffffffffff1673ffffffffffffffffffffffffffffffffffffffff166c0100000000000000000000000002815260140182815260200193505050506040518091039020846040518363ffffffff167c010000000000000000000000000000000000000000000000000000000002815260040180836000191660001916815260200182815260200192505050600060405180830381600087803b15156129f057600080fd5b6102c65a03f11515612a0157600080fd5b5050508573ffffffffffffffffffffffffffffffffffffffff16633562fd2084876040518083805190602001908083835b602083101515612a575780518252602082019150602081019050602083039250612a32565b6001836020036101000a0380198251168184511680821785525050505050509050018273ffffffffffffffffffffffffffffffffffffffff1673ffffffffffffffffffffffffffffffffffffffff166c01000000000000000000000000028152601401925050506040518091039020600184016040518363ffffffff167c010000000000000000000000000000000000000000000000000000000002815260040180836000191660001916815260200182815260200192505050600060405180830381600087803b1515612b2a57600080fd5b6102c65a03f11515612b3b57600080fd5b505050505050505050565b6000612b53868685612eaa565b90508573ffffffffffffffffffffffffffffffffffffffff16633562fd208587846040518084805190602001908083835b602083101515612ba95780518252602082019150602081019050602083039250612b84565b6001836020036101000a03801982511681845116808217855250505050505090500183815260200182815260200193505050506040518091039020846040518363ffffffff167c010000000000000000000000000000000000000000000000000000000002815260040180836000191660001916815260200182815260200192505050600060405180830381600087803b1515612c4557600080fd5b6102c65a03f11515612c5657600080fd5b5050508573ffffffffffffffffffffffffffffffffffffffff16633562fd2084876040518083805190602001908083835b602083101515612cac5780518252602082019150602081019050602083039250612c87565b6001836020036101000a038019825116818451168082178552505050505050905001828152602001925050506040518091039020600184016040518363ffffffff167c010000000000000000000000000000000000000000000000000000000002815260040180836000191660001916815260200182815260200192505050600060405180830381600087803b1515612d4457600080fd5b6102c65a03f11515612d5557600080fd5b505050505050505050565b60008373ffffffffffffffffffffffffffffffffffffffff1663bdc963d883856040518083805190602001908083835b602083101515612db55780518252602082019150602081019050602083039250612d90565b6001836020036101000a0380198251168184511680821785525050505050509050018273ffffffffffffffffffffffffffffffffffffffff1673ffffffffffffffffffffffffffffffffffffffff166c010000000000000000000000000281526014019250505060405180910390206000604051602001526040518263ffffffff167c0100000000000000000000000000000000000000000000000000000000028152600401808260001916600019168152602001915050602060405180830381600087803b1515612e8657600080fd5b6102c65a03f11515612e9757600080fd5b5050506040518051905090509392505050565b60008373ffffffffffffffffffffffffffffffffffffffff1663bdc963d883856040518083805190602001908083835b602083101515612eff5780518252602082019150602081019050602083039250612eda565b6001836020036101000a0380198251168184511680821785525050505050509050018281526020019250505060405180910390206000604051602001526040518263ffffffff167c0100000000000000000000000000000000000000000000000000000000028152600401808260001916600019168152602001915050602060405180830381600087803b1515612f9557600080fd5b6102c65a03f11515612fa657600080fd5b50505060405180519050905093925050505600a165627a7a7230582056654cfb94bbd6d3010c43b93d249661d0798e755594c6299315a2d9998b9a180029",
  "source": "pragma solidity 0.4.18;\nimport \"./Restrictor.sol\";\nimport \"../lib/odll/userManager.sol\";\n\ncontract TreatmentApplicationWriter is Restrictor {\n\n  function TreatmentApplicationWriter(address _dbAddress) public {\n    require(_dbAddress != 0x0);\n    dbAddress = _dbAddress;\n  }\n\n  // Treatment Application\n  function applyToTreat (\n    address patientId,\n    uint treatmentRequestId,\n    uint quote,\n    string comment\n  )\n    external\n  {\n    userManager.applyToTreat(dbAddress, msg.sender, patientId, treatmentRequestId, quote, comment);\n  }\n  \n  function cancelTreatmentApplication (\n    address patientId,\n    uint treatmentApplicationId\n  )\n    external\n  {\n    userManager.cancelTreatmentApplication(dbAddress, msg.sender, patientId, treatmentApplicationId);\n  }\n\n  function cancelTreatment (\n    address dentistId,\n    uint treatmentId\n  )\n    external\n  {\n    userManager.cancelTreatment(dbAddress, dentistId, msg.sender, treatmentId);\n  }\n\n  function markTreatmentDone (\n    address dentistId,\n    uint treatmentId\n  )\n    external\n  {\n    userManager.markTreatmentDone(dbAddress, dentistId, msg.sender, treatmentId);\n  }\n}\n",
  "sourcePath": "/Users/danielokwufulueze/dev/vue/apps/oraldatalink/contracts/odll/TreatmentApplicationWriter.sol",
  "compiler": {
    "name": "solc",
    "version": "0.4.18+commit.9cf6e910.Emscripten.clang"
  },
  "schemaVersion": "1.0.1",
  "updatedAt": "2017-11-21T21:46:52.921Z"
}