{
  "contractName": "TreatmentRequestReader2",
  "abi": [
    {
      "constant": true,
      "inputs": [],
      "name": "smartContractStatus",
      "outputs": [
        {
          "name": "",
          "type": "uint8"
        }
      ],
      "payable": false,
      "stateMutability": "view",
      "type": "function"
    },
    {
      "constant": true,
      "inputs": [],
      "name": "owner",
      "outputs": [
        {
          "name": "",
          "type": "address"
        }
      ],
      "payable": false,
      "stateMutability": "view",
      "type": "function"
    },
    {
      "constant": true,
      "inputs": [
        {
          "name": "offset",
          "type": "uint256"
        },
        {
          "name": "limit",
          "type": "uint256"
        },
        {
          "name": "seed",
          "type": "uint256"
        }
      ],
      "name": "fetchAllTreatmentRequests",
      "outputs": [
        {
          "name": "",
          "type": "uint256"
        },
        {
          "name": "",
          "type": "uint256[]"
        }
      ],
      "payable": false,
      "stateMutability": "view",
      "type": "function"
    },
    {
      "constant": true,
      "inputs": [],
      "name": "dbAddress",
      "outputs": [
        {
          "name": "",
          "type": "address"
        }
      ],
      "payable": false,
      "stateMutability": "view",
      "type": "function"
    },
    {
      "constant": false,
      "inputs": [
        {
          "name": "newOwner",
          "type": "address"
        }
      ],
      "name": "transferOwnership",
      "outputs": [],
      "payable": false,
      "stateMutability": "nonpayable",
      "type": "function"
    },
    {
      "inputs": [
        {
          "name": "_dbAddress",
          "type": "address"
        }
      ],
      "payable": false,
      "stateMutability": "nonpayable",
      "type": "constructor"
    },
    {
      "anonymous": false,
      "inputs": [
        {
          "indexed": false,
          "name": "status",
          "type": "uint8"
        }
      ],
      "name": "OnSmartContractStatusSet",
      "type": "event"
    },
    {
      "anonymous": false,
      "inputs": [
        {
          "indexed": true,
          "name": "previousOwner",
          "type": "address"
        },
        {
          "indexed": true,
          "name": "newOwner",
          "type": "address"
        }
      ],
      "name": "OwnershipTransferred",
      "type": "event"
    }
  ],
  "bytecode": "0x6060604052341561000f57600080fd5b604051602080610aa483398101604052808051906020019091905050336000806101000a81548173ffffffffffffffffffffffffffffffffffffffff021916908373ffffffffffffffffffffffffffffffffffffffff16021790555060008173ffffffffffffffffffffffffffffffffffffffff161415151561009157600080fd5b80600160006101000a81548173ffffffffffffffffffffffffffffffffffffffff021916908373ffffffffffffffffffffffffffffffffffffffff160217905550506109c2806100e26000396000f30060606040526004361061006d576000357c0100000000000000000000000000000000000000000000000000000000900463ffffffff1680634c8ddddc146100725780638da5cb5b146100a15780638f5fb663146100f657806391e06b6d14610187578063f2fde38b146101dc575b600080fd5b341561007d57600080fd5b610085610215565b604051808260ff1660ff16815260200191505060405180910390f35b34156100ac57600080fd5b6100b4610228565b604051808273ffffffffffffffffffffffffffffffffffffffff1673ffffffffffffffffffffffffffffffffffffffff16815260200191505060405180910390f35b341561010157600080fd5b610129600480803590602001909190803590602001909190803590602001909190505061024d565b6040518083815260200180602001828103825283818151815260200191508051906020019060200280838360005b83811015610172578082015181840152602081019050610157565b50505050905001935050505060405180910390f35b341561019257600080fd5b61019a610291565b604051808273ffffffffffffffffffffffffffffffffffffffff1673ffffffffffffffffffffffffffffffffffffffff16815260200191505060405180910390f35b34156101e757600080fd5b610213600480803573ffffffffffffffffffffffffffffffffffffffff169060200190919050506102b7565b005b600160149054906101000a900460ff1681565b6000809054906101000a900473ffffffffffffffffffffffffffffffffffffffff1681565b6000610257610982565b610285600160009054906101000a900473ffffffffffffffffffffffffffffffffffffffff1686868661040c565b91509150935093915050565b600160009054906101000a900473ffffffffffffffffffffffffffffffffffffffff1681565b6000809054906101000a900473ffffffffffffffffffffffffffffffffffffffff1673ffffffffffffffffffffffffffffffffffffffff163373ffffffffffffffffffffffffffffffffffffffff1614151561031257600080fd5b600073ffffffffffffffffffffffffffffffffffffffff168173ffffffffffffffffffffffffffffffffffffffff161415151561034e57600080fd5b8073ffffffffffffffffffffffffffffffffffffffff166000809054906101000a900473ffffffffffffffffffffffffffffffffffffffff1673ffffffffffffffffffffffffffffffffffffffff167f8be0079c531659141344cd1fd0a4f28419497f9722a3daafe3b4186f6b6457e060405160405180910390a3806000806101000a81548173ffffffffffffffffffffffffffffffffffffffff021916908373ffffffffffffffffffffffffffffffffffffffff16021790555050565b6000610416610982565b61041f8661043e565b905061042d818686866104c2565b809250819350505094509492505050565b610446610982565b6104bb826040805190810160405280601181526020017f74726561746d656e742d726571756573740000000000000000000000000000008152506040805190810160405280601881526020017f74726561746d656e742d72657175657374732d636f756e740000000000000000815250610532565b9050919050565b60006104cc610982565b855191506000865111156105285785518511156104f857816104ef6000886107a2565b91509150610529565b8551848601111561050a578486510393505b61052586875187860181151561051c57fe5b06866001610837565b90505b5b94509492505050565b61053a610982565b6000808573ffffffffffffffffffffffffffffffffffffffff1663bdc963d8856040518082805190602001908083835b60208310151561058f578051825260208201915060208101905060208303925061056a565b6001836020036101000a03801982511681845116808217855250505050505090500191505060405180910390206000604051602001526040518263ffffffff167c0100000000000000000000000000000000000000000000000000000000028152600401808260001916600019168152602001915050602060405180830381600087803b151561061e57600080fd5b6102c65a03f1151561062f57600080fd5b505050604051805190509150816040518059106106495750595b90808252806020026020018201604052509250600090505b81811015610796578573ffffffffffffffffffffffffffffffffffffffff1663bdc963d886836040518083805190602001908083835b6020831015156106bc5780518252602082019150602081019050602083039250610697565b6001836020036101000a0380198251168184511680821785525050505050509050018281526020019250505060405180910390206000604051602001526040518263ffffffff167c0100000000000000000000000000000000000000000000000000000000028152600401808260001916600019168152602001915050602060405180830381600087803b151561075257600080fd5b6102c65a03f1151561076357600080fd5b50505060405180519050838281518110151561077b57fe5b90602001906020020181815250508080600101915050610661565b82925050509392505050565b6107aa610982565b600082518411156107bd57829150610830565b836040518059106107cb5750595b90808252806020026020018201604052509150600090505b8381101561082c5782818151811015156107f957fe5b90602001906020020151828281518110151561081157fe5b906020019060200201818152505080806001019150506107e3565b8191505b5092915050565b61083f610982565b6000806000806000935088519250828810158061085c5750600087145b1561086957849450610976565b866040518059106108775750595b908082528060200260200182016040525094508791505b8688018210156108ee57818314156108a5576108ee565b88828151811015156108b357fe5b9060200190602002015185858151811015156108cb57fe5b90602001906020020181815250508380600101945050818060010192505061088e565b8580156108fa57508684105b15610969578387039050600091505b8082111515610968578387141561091f57610968565b888281518110151561092d57fe5b90602001906020020151858581518110151561094557fe5b906020019060200201818152505083806001019450508180600101925050610909565b5b61097384866107a2565b94505b50505050949350505050565b6020604051908101604052806000815250905600a165627a7a7230582078ddd7339cc5e94bc5e1f1d8c778fbec6c82109efcd914f75facd3d45b64c2a00029",
  "source": "pragma solidity 0.4.18;\n\nimport \"./Restrictor.sol\";\nimport \"../lib/odll/userManager.sol\";\n\ncontract TreatmentRequestReader2 is Restrictor {\n\n  function TreatmentRequestReader2 (address _dbAddress) public {\n    require(_dbAddress != 0x0);\n    dbAddress = _dbAddress;\n  }\n\n  function fetchAllTreatmentRequests (\n    uint offset, // starting from offset: 0-based\n    uint limit, // not more than limit\n    uint seed // seed value to give the illusion of randomisation\n  )\n    external\n    view\n    returns (\n      uint,\n      uint[]\n    )\n  {\n    return userManager.fetchAllTreatmentRequests(dbAddress, offset, limit, seed);\n  }\n}\n",
  "sourcePath": "/Users/danielokwufulueze/dev/vue/apps/oraldatalink/contracts/odll/TreatmentRequestReader2.sol",
  "compiler": {
    "name": "solc",
    "version": "0.4.18+commit.9cf6e910.Emscripten.clang"
  },
  "schemaVersion": "1.0.1",
  "updatedAt": "2017-11-22T21:33:56.021Z"
}