{
  "contractName": "TreatmentApplicationWriter",
  "abi": [
    {
      "constant": false,
      "inputs": [
        {
          "name": "patientId",
          "type": "address"
        },
        {
          "name": "treatmentApplicationId",
          "type": "uint256"
        }
      ],
      "name": "cancelTreatmentApplication",
      "outputs": [],
      "payable": false,
      "stateMutability": "nonpayable",
      "type": "function"
    },
    {
      "constant": false,
      "inputs": [
        {
          "name": "userId",
          "type": "address"
        },
        {
          "name": "paymentId",
          "type": "uint256"
        }
      ],
      "name": "lockPayment",
      "outputs": [],
      "payable": false,
      "stateMutability": "nonpayable",
      "type": "function"
    },
    {
      "constant": true,
      "inputs": [],
      "name": "smartContractStatus",
      "outputs": [
        {
          "name": "",
          "type": "uint8"
        }
      ],
      "payable": false,
      "stateMutability": "view",
      "type": "function"
    },
    {
      "constant": false,
      "inputs": [
        {
          "name": "dentistId",
          "type": "address"
        },
        {
          "name": "treatmentId",
          "type": "uint256"
        }
      ],
      "name": "markTreatmentDone",
      "outputs": [],
      "payable": false,
      "stateMutability": "nonpayable",
      "type": "function"
    },
    {
      "constant": true,
      "inputs": [],
      "name": "owner",
      "outputs": [
        {
          "name": "",
          "type": "address"
        }
      ],
      "payable": false,
      "stateMutability": "view",
      "type": "function"
    },
    {
      "constant": true,
      "inputs": [],
      "name": "dbAddress",
      "outputs": [
        {
          "name": "",
          "type": "address"
        }
      ],
      "payable": false,
      "stateMutability": "view",
      "type": "function"
    },
    {
      "constant": false,
      "inputs": [
        {
          "name": "dentistId",
          "type": "address"
        },
        {
          "name": "treatmentId",
          "type": "uint256"
        }
      ],
      "name": "cancelTreatment",
      "outputs": [],
      "payable": false,
      "stateMutability": "nonpayable",
      "type": "function"
    },
    {
      "constant": false,
      "inputs": [
        {
          "name": "newOwner",
          "type": "address"
        },
        {
          "name": "treatmentRequestId",
          "type": "uint256"
        },
        {
          "name": "quote",
          "type": "uint256"
        },
        {
          "name": "comment",
          "type": "string"
        }
      ],
      "name": "transferOwnership",
      "outputs": [],
      "payable": false,
      "stateMutability": "nonpayable",
      "type": "function"
    },
    {
      "constant": false,
      "inputs": [
        {
          "name": "patientId",
          "type": "address"
        },
        {
          "name": "treatmentRequestId",
          "type": "uint256"
        },
        {
          "name": "quote",
          "type": "uint256"
        },
        {
          "name": "treatmentDate",
          "type": "bytes32"
        },
        {
          "name": "treatmentTime",
          "type": "bytes32"
        },
        {
          "name": "comment",
          "type": "string"
        }
      ],
      "name": "applyToTreat",
      "outputs": [],
      "payable": false,
      "stateMutability": "nonpayable",
      "type": "function"
    },
    {
      "inputs": [
        {
          "name": "_dbAddress",
          "type": "address"
        }
      ],
      "payable": false,
      "stateMutability": "nonpayable",
      "type": "constructor"
    },
    {
      "anonymous": false,
      "inputs": [
        {
          "indexed": false,
          "name": "paymentId",
          "type": "uint256"
        }
      ],
      "name": "PaymentLocked",
      "type": "event"
    },
    {
      "anonymous": false,
      "inputs": [
        {
          "indexed": false,
          "name": "status",
          "type": "uint8"
        }
      ],
      "name": "OnSmartContractStatusSet",
      "type": "event"
    },
    {
      "anonymous": false,
      "inputs": [
        {
          "indexed": true,
          "name": "previousOwner",
          "type": "address"
        },
        {
          "indexed": true,
          "name": "newOwner",
          "type": "address"
        }
      ],
      "name": "OwnershipTransferred",
      "type": "event"
    }
  ],
  "bytecode": "0x6060604052341561000f57600080fd5b60405160208061386883398101604052808051906020019091905050336000806101000a81548173ffffffffffffffffffffffffffffffffffffffff021916908373ffffffffffffffffffffffffffffffffffffffff16021790555060008173ffffffffffffffffffffffffffffffffffffffff161415151561009157600080fd5b80600160006101000a81548173ffffffffffffffffffffffffffffffffffffffff021916908373ffffffffffffffffffffffffffffffffffffffff16021790555050613786806100e26000396000f300606060405260043610610099576000357c0100000000000000000000000000000000000000000000000000000000900463ffffffff16806307c2759d1461009e5780633f4b1470146100e05780634c8ddddc14610122578063797c6ae6146101515780638da5cb5b1461019357806391e06b6d146101e8578063b0e78e8b1461023d578063f2fde38b1461027f578063fccc4832146102b8575b600080fd5b34156100a957600080fd5b6100de600480803573ffffffffffffffffffffffffffffffffffffffff16906020019091908035906020019091905050610331565b005b34156100eb57600080fd5b610120600480803573ffffffffffffffffffffffffffffffffffffffff16906020019091908035906020019091905050610363565b005b341561012d57600080fd5b6101356105ba565b604051808260ff1660ff16815260200191505060405180910390f35b341561015c57600080fd5b610191600480803573ffffffffffffffffffffffffffffffffffffffff169060200190919080359060200190919050506105cd565b005b341561019e57600080fd5b6101a66105ff565b604051808273ffffffffffffffffffffffffffffffffffffffff1673ffffffffffffffffffffffffffffffffffffffff16815260200191505060405180910390f35b34156101f357600080fd5b6101fb610624565b604051808273ffffffffffffffffffffffffffffffffffffffff1673ffffffffffffffffffffffffffffffffffffffff16815260200191505060405180910390f35b341561024857600080fd5b61027d600480803573ffffffffffffffffffffffffffffffffffffffff1690602001909190803590602001909190505061064a565b005b341561028a57600080fd5b6102b6600480803573ffffffffffffffffffffffffffffffffffffffff1690602001909190505061067c565b005b34156102c357600080fd5b61032f600480803573ffffffffffffffffffffffffffffffffffffffff16906020019091908035906020019091908035906020019091908035600019169060200190919080356000191690602001909190803590602001908201803590602001919091929050506107d1565b005b61035f600160009054906101000a900473ffffffffffffffffffffffffffffffffffffffff1633848461083e565b5050565b8161036d81610850565b151561037857600080fd5b8160018060ff16600160009054906101000a900473ffffffffffffffffffffffffffffffffffffffff1673ffffffffffffffffffffffffffffffffffffffff16637a0e03ec8460405180807f7061796d656e742f737461746500000000000000000000000000000000000000815250600d0182815260200191505060405180910390206000604051602001526040518263ffffffff167c0100000000000000000000000000000000000000000000000000000000028152600401808260001916600019168152602001915050602060405180830381600087803b151561045d57600080fd5b6102c65a03f1151561046e57600080fd5b5050506040518051905060ff1614151561048757600080fd5b600160009054906101000a900473ffffffffffffffffffffffffffffffffffffffff1673ffffffffffffffffffffffffffffffffffffffff16630bd851588560405180807f7061796d656e742f737461746500000000000000000000000000000000000000815250600d01828152602001915050604051809103902060026040518363ffffffff167c01000000000000000000000000000000000000000000000000000000000281526004018083600019166000191681526020018260ff16815260200192505050600060405180830381600087803b151561056857600080fd5b6102c65a03f1151561057957600080fd5b5050507fa5f78a79f83dfad686a63ca003a42f6c262d9fdc43a6742c56f5c27c11b9a1e2846040518082815260200191505060405180910390a15050505050565b600160149054906101000a900460ff1681565b6105fb600160009054906101000a900473ffffffffffffffffffffffffffffffffffffffff16833384610877565b5050565b6000809054906101000a900473ffffffffffffffffffffffffffffffffffffffff1681565b600160009054906101000a900473ffffffffffffffffffffffffffffffffffffffff1681565b610678600160009054906101000a900473ffffffffffffffffffffffffffffffffffffffff16833384610889565b5050565b6000809054906101000a900473ffffffffffffffffffffffffffffffffffffffff1673ffffffffffffffffffffffffffffffffffffffff163373ffffffffffffffffffffffffffffffffffffffff161415156106d757600080fd5b600073ffffffffffffffffffffffffffffffffffffffff168173ffffffffffffffffffffffffffffffffffffffff161415151561071357600080fd5b8073ffffffffffffffffffffffffffffffffffffffff166000809054906101000a900473ffffffffffffffffffffffffffffffffffffffff1673ffffffffffffffffffffffffffffffffffffffff167f8be0079c531659141344cd1fd0a4f28419497f9722a3daafe3b4186f6b6457e060405160405180910390a3806000806101000a81548173ffffffffffffffffffffffffffffffffffffffff021916908373ffffffffffffffffffffffffffffffffffffffff16021790555050565b610835600160009054906101000a900473ffffffffffffffffffffffffffffffffffffffff1633898989898989898080601f01602080910402602001604051908101604052809392919081815260200183838082843782019150505050505061089b565b50505050505050565b61084a848484846108b5565b50505050565b600061085d826001610c90565b8015610870575061086f826001610cab565b5b9050919050565b61088384848484610cc6565b50505050565b610895848484846110a1565b50505050565b6108ab888888888888888861147c565b5050505050505050565b60018473ffffffffffffffffffffffffffffffffffffffff16637a0e03ec8360405180807f74726561746d656e742d6170706c69636174696f6e2f73746174757300000000815250601c0182815260200191505060405180910390206000604051602001526040518263ffffffff167c0100000000000000000000000000000000000000000000000000000000028152600401808260001916600019168152602001915050602060405180830381600087803b151561097357600080fd5b6102c65a03f1151561098457600080fd5b5050506040518051905060ff16148015610a9f57508273ffffffffffffffffffffffffffffffffffffffff168473ffffffffffffffffffffffffffffffffffffffff16634c77e5ba8360405180807f74726561746d656e742d6170706c69636174696f6e2f64656e74697374000000815250601d0182815260200191505060405180910390206000604051602001526040518263ffffffff167c0100000000000000000000000000000000000000000000000000000000028152600401808260001916600019168152602001915050602060405180830381600087803b1515610a6c57600080fd5b6102c65a03f11515610a7d57600080fd5b5050506040518051905073ffffffffffffffffffffffffffffffffffffffff16145b8015610bac57508173ffffffffffffffffffffffffffffffffffffffff168473ffffffffffffffffffffffffffffffffffffffff16634c77e5ba8360405180807f74726561746d656e742d6170706c69636174696f6e2f70617469656e74000000815250601d0182815260200191505060405180910390206000604051602001526040518263ffffffff167c0100000000000000000000000000000000000000000000000000000000028152600401808260001916600019168152602001915050602060405180830381600087803b1515610b7957600080fd5b6102c65a03f11515610b8a57600080fd5b5050506040518051905073ffffffffffffffffffffffffffffffffffffffff16145b1515610bb757600080fd5b8373ffffffffffffffffffffffffffffffffffffffff16630bd851588260405180807f74726561746d656e742d6170706c69636174696f6e2f73746174757300000000815250601c01828152602001915050604051809103902060036040518363ffffffff167c01000000000000000000000000000000000000000000000000000000000281526004018083600019166000191681526020018260ff16815260200192505050600060405180830381600087803b1515610c7657600080fd5b6102c65a03f11515610c8757600080fd5b50505050505050565b6000610c9b83611496565b60ff168260ff1614905092915050565b6000610cb6836115d3565b60ff168260ff1614905092915050565b60018473ffffffffffffffffffffffffffffffffffffffff16637a0e03ec8360405180807f74726561746d656e742f7374617475730000000000000000000000000000000081525060100182815260200191505060405180910390206000604051602001526040518263ffffffff167c0100000000000000000000000000000000000000000000000000000000028152600401808260001916600019168152602001915050602060405180830381600087803b1515610d8457600080fd5b6102c65a03f11515610d9557600080fd5b5050506040518051905060ff16148015610eb057508273ffffffffffffffffffffffffffffffffffffffff168473ffffffffffffffffffffffffffffffffffffffff16634c77e5ba8360405180807f74726561746d656e742f64656e7469737400000000000000000000000000000081525060110182815260200191505060405180910390206000604051602001526040518263ffffffff167c0100000000000000000000000000000000000000000000000000000000028152600401808260001916600019168152602001915050602060405180830381600087803b1515610e7d57600080fd5b6102c65a03f11515610e8e57600080fd5b5050506040518051905073ffffffffffffffffffffffffffffffffffffffff16145b8015610fbd57508173ffffffffffffffffffffffffffffffffffffffff168473ffffffffffffffffffffffffffffffffffffffff16634c77e5ba8360405180807f74726561746d656e742f70617469656e7400000000000000000000000000000081525060110182815260200191505060405180910390206000604051602001526040518263ffffffff167c0100000000000000000000000000000000000000000000000000000000028152600401808260001916600019168152602001915050602060405180830381600087803b1515610f8a57600080fd5b6102c65a03f11515610f9b57600080fd5b5050506040518051905073ffffffffffffffffffffffffffffffffffffffff16145b1515610fc857600080fd5b8373ffffffffffffffffffffffffffffffffffffffff16630bd851588260405180807f74726561746d656e742f73746174757300000000000000000000000000000000815250601001828152602001915050604051809103902060026040518363ffffffff167c01000000000000000000000000000000000000000000000000000000000281526004018083600019166000191681526020018260ff16815260200192505050600060405180830381600087803b151561108757600080fd5b6102c65a03f1151561109857600080fd5b50505050505050565b60018473ffffffffffffffffffffffffffffffffffffffff16637a0e03ec8360405180807f74726561746d656e742f7374617475730000000000000000000000000000000081525060100182815260200191505060405180910390206000604051602001526040518263ffffffff167c0100000000000000000000000000000000000000000000000000000000028152600401808260001916600019168152602001915050602060405180830381600087803b151561115f57600080fd5b6102c65a03f1151561117057600080fd5b5050506040518051905060ff1614801561128b57508273ffffffffffffffffffffffffffffffffffffffff168473ffffffffffffffffffffffffffffffffffffffff16634c77e5ba8360405180807f74726561746d656e742f64656e7469737400000000000000000000000000000081525060110182815260200191505060405180910390206000604051602001526040518263ffffffff167c0100000000000000000000000000000000000000000000000000000000028152600401808260001916600019168152602001915050602060405180830381600087803b151561125857600080fd5b6102c65a03f1151561126957600080fd5b5050506040518051905073ffffffffffffffffffffffffffffffffffffffff16145b801561139857508173ffffffffffffffffffffffffffffffffffffffff168473ffffffffffffffffffffffffffffffffffffffff16634c77e5ba8360405180807f74726561746d656e742f70617469656e7400000000000000000000000000000081525060110182815260200191505060405180910390206000604051602001526040518263ffffffff167c0100000000000000000000000000000000000000000000000000000000028152600401808260001916600019168152602001915050602060405180830381600087803b151561136557600080fd5b6102c65a03f1151561137657600080fd5b5050506040518051905073ffffffffffffffffffffffffffffffffffffffff16145b15156113a357600080fd5b8373ffffffffffffffffffffffffffffffffffffffff16630bd851588260405180807f74726561746d656e742f73746174757300000000000000000000000000000000815250601001828152602001915050604051809103902060036040518363ffffffff167c01000000000000000000000000000000000000000000000000000000000281526004018083600019166000191681526020018260ff16815260200192505050600060405180830381600087803b151561146257600080fd5b6102c65a03f1151561147357600080fd5b50505050505050565b61148c8888888888888888611710565b5050505050505050565b6000600160009054906101000a900473ffffffffffffffffffffffffffffffffffffffff1673ffffffffffffffffffffffffffffffffffffffff16637a0e03ec8360405180807f757365722f7479706500000000000000000000000000000000000000000000008152506009018273ffffffffffffffffffffffffffffffffffffffff1673ffffffffffffffffffffffffffffffffffffffff166c0100000000000000000000000002815260140191505060405180910390206000604051602001526040518263ffffffff167c0100000000000000000000000000000000000000000000000000000000028152600401808260001916600019168152602001915050602060405180830381600087803b15156115b157600080fd5b6102c65a03f115156115c257600080fd5b505050604051805190509050919050565b6000600160009054906101000a900473ffffffffffffffffffffffffffffffffffffffff1673ffffffffffffffffffffffffffffffffffffffff16637a0e03ec8360405180807f757365722f737461747573000000000000000000000000000000000000000000815250600b018273ffffffffffffffffffffffffffffffffffffffff1673ffffffffffffffffffffffffffffffffffffffff166c0100000000000000000000000002815260140191505060405180910390206000604051602001526040518263ffffffff167c0100000000000000000000000000000000000000000000000000000000028152600401808260001916600019168152602001915050602060405180830381600087803b15156116ee57600080fd5b6102c65a03f115156116ff57600080fd5b505050604051805190509050919050565b6000806000806117558c6040805190810160405280601c81526020017f74726561746d656e742d6170706c69636174696f6e732d636f756e7400000000815250612146565b935060008c73ffffffffffffffffffffffffffffffffffffffff16637a0e03ec8660405180807f74726561746d656e742d6170706c69636174696f6e2f73746174757300000000815250601c0182815260200191505060405180910390206000604051602001526040518263ffffffff167c0100000000000000000000000000000000000000000000000000000000028152600401808260001916600019168152602001915050602060405180830381600087803b151561181557600080fd5b6102c65a03f1151561182657600080fd5b5050506040518051905060ff16148015611919575060018c73ffffffffffffffffffffffffffffffffffffffff16637a0e03ec8b60405180807f74726561746d656e742d726571756573742f737461747573000000000000000081525060180182815260200191505060405180910390206000604051602001526040518263ffffffff167c0100000000000000000000000000000000000000000000000000000000028152600401808260001916600019168152602001915050602060405180830381600087803b15156118f957600080fd5b6102c65a03f1151561190a57600080fd5b5050506040518051905060ff16145b8015611a2657508973ffffffffffffffffffffffffffffffffffffffff168c73ffffffffffffffffffffffffffffffffffffffff16634c77e5ba8b60405180807f74726561746d656e742d726571756573742f70617469656e740000000000000081525060190182815260200191505060405180910390206000604051602001526040518263ffffffff167c0100000000000000000000000000000000000000000000000000000000028152600401808260001916600019168152602001915050602060405180830381600087803b15156119f357600080fd5b6102c65a03f11515611a0457600080fd5b5050506040518051905073ffffffffffffffffffffffffffffffffffffffff16145b1515611a3157600080fd5b600092505b83831015612004578b73ffffffffffffffffffffffffffffffffffffffff1663bdc963d88c8560405180807f64656e746973742f74726561746d656e742d6170706c69636174696f6e000000815250601d018373ffffffffffffffffffffffffffffffffffffffff1673ffffffffffffffffffffffffffffffffffffffff166c010000000000000000000000000281526014018281526020019250505060405180910390206000604051602001526040518263ffffffff167c0100000000000000000000000000000000000000000000000000000000028152600401808260001916600019168152602001915050602060405180830381600087803b1515611b3d57600080fd5b6102c65a03f11515611b4e57600080fd5b5050506040518051905091508b73ffffffffffffffffffffffffffffffffffffffff1663bdc963d88360405180807f74726561746d656e742d6170706c69636174696f6e2f74726561746d656e742d81526020017f726571756573740000000000000000000000000000000000000000000000000081525060270182815260200191505060405180910390206000604051602001526040518263ffffffff167c0100000000000000000000000000000000000000000000000000000000028152600401808260001916600019168152602001915050602060405180830381600087803b1515611c3c57600080fd5b6102c65a03f11515611c4d57600080fd5b5050506040518051905090508881148015611fed575060018c73ffffffffffffffffffffffffffffffffffffffff16637a0e03ec8460405180807f74726561746d656e742d6170706c69636174696f6e2f73746174757300000000815250601c0182815260200191505060405180910390206000604051602001526040518263ffffffff167c0100000000000000000000000000000000000000000000000000000000028152600401808260001916600019168152602001915050602060405180830381600087803b1515611d2157600080fd5b6102c65a03f11515611d3257600080fd5b5050506040518051905060ff161480611e24575060028c73ffffffffffffffffffffffffffffffffffffffff16637a0e03ec8460405180807f74726561746d656e742d6170706c69636174696f6e2f73746174757300000000815250601c0182815260200191505060405180910390206000604051602001526040518263ffffffff167c0100000000000000000000000000000000000000000000000000000000028152600401808260001916600019168152602001915050602060405180830381600087803b1515611e0457600080fd5b6102c65a03f11515611e1557600080fd5b5050506040518051905060ff16145b80611f08575060048c73ffffffffffffffffffffffffffffffffffffffff16637a0e03ec8460405180807f74726561746d656e742d6170706c69636174696f6e2f73746174757300000000815250601c0182815260200191505060405180910390206000604051602001526040518263ffffffff167c0100000000000000000000000000000000000000000000000000000000028152600401808260001916600019168152602001915050602060405180830381600087803b1515611ee857600080fd5b6102c65a03f11515611ef957600080fd5b5050506040518051905060ff16145b80611fec575060058c73ffffffffffffffffffffffffffffffffffffffff16637a0e03ec8460405180807f74726561746d656e742d6170706c69636174696f6e2f73746174757300000000815250601c0182815260200191505060405180910390206000604051602001526040518263ffffffff167c0100000000000000000000000000000000000000000000000000000000028152600401808260001916600019168152602001915050602060405180830381600087803b1515611fcc57600080fd5b6102c65a03f11515611fdd57600080fd5b5050506040518051905060ff16145b5b15611ff757612138565b8280600101935050611a36565b8b73ffffffffffffffffffffffffffffffffffffffff16633eba9ed28c8b60405180807f64656e746973742f74726561746d656e742d72657175657374000000000000008152506019018373ffffffffffffffffffffffffffffffffffffffff1673ffffffffffffffffffffffffffffffffffffffff166c0100000000000000000000000002815260140182815260200192505050604051809103902060016040518363ffffffff167c01000000000000000000000000000000000000000000000000000000000281526004018083600019166000191681526020018215151515815260200192505050600060405180830381600087803b151561210757600080fd5b6102c65a03f1151561211857600080fd5b5050506121268c8a8661224c565b6121378c8c8c8c888d8d8d8d61255e565b5b505050505050505050505050565b60008273ffffffffffffffffffffffffffffffffffffffff1663bdc963d8836040518082805190602001908083835b60208310151561219a5780518252602082019150602081019050602083039250612175565b6001836020036101000a03801982511681845116808217855250505050505090500191505060405180910390206000604051602001526040518263ffffffff167c0100000000000000000000000000000000000000000000000000000000028152600401808260001916600019168152602001915050602060405180830381600087803b151561222957600080fd5b6102c65a03f1151561223a57600080fd5b50505060405180519050905092915050565b8273ffffffffffffffffffffffffffffffffffffffff16630bd851588260405180807f74726561746d656e742d6170706c69636174696f6e2f73746174757300000000815250601c01828152602001915050604051809103902060016040518363ffffffff167c01000000000000000000000000000000000000000000000000000000000281526004018083600019166000191681526020018260ff16815260200192505050600060405180830381600087803b151561230b57600080fd5b6102c65a03f1151561231c57600080fd5b5050508273ffffffffffffffffffffffffffffffffffffffff16633562fd208260405180807f74726561746d656e742d6170706c69636174696f6e2f637265617465642d6f6e8152506020018281526020019150506040518091039020426040518363ffffffff167c010000000000000000000000000000000000000000000000000000000002815260040180836000191660001916815260200182815260200192505050600060405180830381600087803b15156123da57600080fd5b6102c65a03f115156123eb57600080fd5b5050508273ffffffffffffffffffffffffffffffffffffffff16633562fd208260405180807f74726561746d656e742d6170706c69636174696f6e2f74726561746d656e742d81526020017f72657175657374000000000000000000000000000000000000000000000000008152506027018281526020019150506040518091039020846040518363ffffffff167c010000000000000000000000000000000000000000000000000000000002815260040180836000191660001916815260200182815260200192505050600060405180830381600087803b15156124cf57600080fd5b6102c65a03f115156124e057600080fd5b505050612559836040805190810160405280601581526020017f74726561746d656e742d6170706c69636174696f6e00000000000000000000008152506040805190810160405280601c81526020017f74726561746d656e742d6170706c69636174696f6e732d636f756e740000000081525084612d5d565b505050565b8873ffffffffffffffffffffffffffffffffffffffff16633562fd208660405180807f74726561746d656e742d6170706c69636174696f6e2f71756f74650000000000815250601b018281526020019150506040518091039020866040518363ffffffff167c010000000000000000000000000000000000000000000000000000000002815260040180836000191660001916815260200182815260200192505050600060405180830381600087803b151561261957600080fd5b6102c65a03f1151561262a57600080fd5b5050508873ffffffffffffffffffffffffffffffffffffffff166325cf512d8660405180807f74726561746d656e742d6170706c69636174696f6e2f6170706f696e746d656e81526020017f742d6461746500000000000000000000000000000000000000000000000000008152506026018281526020019150506040518091039020856040518363ffffffff167c0100000000000000000000000000000000000000000000000000000000028152600401808360001916600019168152602001826000191660001916815260200192505050600060405180830381600087803b151561271657600080fd5b6102c65a03f1151561272757600080fd5b5050508873ffffffffffffffffffffffffffffffffffffffff166325cf512d8660405180807f74726561746d656e742d6170706c69636174696f6e2f6170706f696e746d656e81526020017f742d74696d6500000000000000000000000000000000000000000000000000008152506026018281526020019150506040518091039020846040518363ffffffff167c0100000000000000000000000000000000000000000000000000000000028152600401808360001916600019168152602001826000191660001916815260200192505050600060405180830381600087803b151561281357600080fd5b6102c65a03f1151561282457600080fd5b5050508873ffffffffffffffffffffffffffffffffffffffff1663f58660668660405180807f74726561746d656e742d6170706c69636174696f6e2f636f6d6d656e74000000815250601d018281526020019150506040518091039020836040518363ffffffff167c010000000000000000000000000000000000000000000000000000000002815260040180836000191660001916815260200180602001828103825283818151815260200191508051906020019080838360005b838110156128fb5780820151818401526020810190506128e0565b50505050905090810190601f1680156129285780820380516001836020036101000a031916815260200191505b509350505050600060405180830381600087803b151561294757600080fd5b6102c65a03f1151561295857600080fd5b5050508873ffffffffffffffffffffffffffffffffffffffff16635a2bf25a8660405180807f74726561746d656e742d6170706c69636174696f6e2f64656e74697374000000815250601d0182815260200191505060405180910390208a6040518363ffffffff167c01000000000000000000000000000000000000000000000000000000000281526004018083600019166000191681526020018273ffffffffffffffffffffffffffffffffffffffff1673ffffffffffffffffffffffffffffffffffffffff16815260200192505050600060405180830381600087803b1515612a4257600080fd5b6102c65a03f11515612a5357600080fd5b5050508873ffffffffffffffffffffffffffffffffffffffff16635a2bf25a8660405180807f74726561746d656e742d6170706c69636174696f6e2f70617469656e74000000815250601d018281526020019150506040518091039020896040518363ffffffff167c01000000000000000000000000000000000000000000000000000000000281526004018083600019166000191681526020018273ffffffffffffffffffffffffffffffffffffffff1673ffffffffffffffffffffffffffffffffffffffff16815260200192505050600060405180830381600087803b1515612b3d57600080fd5b6102c65a03f11515612b4e57600080fd5b505050612bef89896040805190810160405280601d81526020017f64656e746973742f74726561746d656e742d6170706c69636174696f6e000000815250606060405190810160405280602481526020017f64656e746973742f74726561746d656e742d6170706c69636174696f6e732d6381526020017f6f756e740000000000000000000000000000000000000000000000000000000081525089613057565b612c8d89886040805190810160405280601d81526020017f70617469656e742f74726561746d656e742d6170706c69636174696f6e000000815250606060405190810160405280602481526020017f70617469656e742f74726561746d656e742d6170706c69636174696f6e732d6381526020017f6f756e740000000000000000000000000000000000000000000000000000000081525089613057565b612d528987606060405190810160405280602781526020017f74726561746d656e742d726571756573742f74726561746d656e742d6170706c81526020017f69636174696f6e00000000000000000000000000000000000000000000000000815250606060405190810160405280602e81526020017f74726561746d656e742d726571756573742f74726561746d656e742d6170706c81526020017f69636174696f6e732d636f756e74000000000000000000000000000000000000815250896132e7565b505050505050505050565b60008473ffffffffffffffffffffffffffffffffffffffff1663bdc963d8846040518082805190602001908083835b602083101515612db15780518252602082019150602081019050602083039250612d8c565b6001836020036101000a03801982511681845116808217855250505050505090500191505060405180910390206000604051602001526040518263ffffffff167c0100000000000000000000000000000000000000000000000000000000028152600401808260001916600019168152602001915050602060405180830381600087803b1515612e4057600080fd5b6102c65a03f11515612e5157600080fd5b5050506040518051905090508473ffffffffffffffffffffffffffffffffffffffff16633562fd2085836040518083805190602001908083835b602083101515612eb05780518252602082019150602081019050602083039250612e8b565b6001836020036101000a038019825116818451168082178552505050505050905001828152602001925050506040518091039020846040518363ffffffff167c010000000000000000000000000000000000000000000000000000000002815260040180836000191660001916815260200182815260200192505050600060405180830381600087803b1515612f4557600080fd5b6102c65a03f11515612f5657600080fd5b5050508473ffffffffffffffffffffffffffffffffffffffff16633562fd20846040518082805190602001908083835b602083101515612fab5780518252602082019150602081019050602083039250612f86565b6001836020036101000a0380198251168184511680821785525050505050509050019150506040518091039020600184016040518363ffffffff167c010000000000000000000000000000000000000000000000000000000002815260040180836000191660001916815260200182815260200192505050600060405180830381600087803b151561303c57600080fd5b6102c65a03f1151561304d57600080fd5b5050505050505050565b6000613064868685613501565b90508573ffffffffffffffffffffffffffffffffffffffff16633562fd208587846040518084805190602001908083835b6020831015156130ba5780518252602082019150602081019050602083039250613095565b6001836020036101000a0380198251168184511680821785525050505050509050018373ffffffffffffffffffffffffffffffffffffffff1673ffffffffffffffffffffffffffffffffffffffff166c0100000000000000000000000002815260140182815260200193505050506040518091039020846040518363ffffffff167c010000000000000000000000000000000000000000000000000000000002815260040180836000191660001916815260200182815260200192505050600060405180830381600087803b151561319157600080fd5b6102c65a03f115156131a257600080fd5b5050508573ffffffffffffffffffffffffffffffffffffffff16633562fd2084876040518083805190602001908083835b6020831015156131f857805182526020820191506020810190506020830392506131d3565b6001836020036101000a0380198251168184511680821785525050505050509050018273ffffffffffffffffffffffffffffffffffffffff1673ffffffffffffffffffffffffffffffffffffffff166c01000000000000000000000000028152601401925050506040518091039020600184016040518363ffffffff167c010000000000000000000000000000000000000000000000000000000002815260040180836000191660001916815260200182815260200192505050600060405180830381600087803b15156132cb57600080fd5b6102c65a03f115156132dc57600080fd5b505050505050505050565b60006132f486868561364b565b90508573ffffffffffffffffffffffffffffffffffffffff16633562fd208587846040518084805190602001908083835b60208310151561334a5780518252602082019150602081019050602083039250613325565b6001836020036101000a03801982511681845116808217855250505050505090500183815260200182815260200193505050506040518091039020846040518363ffffffff167c010000000000000000000000000000000000000000000000000000000002815260040180836000191660001916815260200182815260200192505050600060405180830381600087803b15156133e657600080fd5b6102c65a03f115156133f757600080fd5b5050508573ffffffffffffffffffffffffffffffffffffffff16633562fd2084876040518083805190602001908083835b60208310151561344d5780518252602082019150602081019050602083039250613428565b6001836020036101000a038019825116818451168082178552505050505050905001828152602001925050506040518091039020600184016040518363ffffffff167c010000000000000000000000000000000000000000000000000000000002815260040180836000191660001916815260200182815260200192505050600060405180830381600087803b15156134e557600080fd5b6102c65a03f115156134f657600080fd5b505050505050505050565b60008373ffffffffffffffffffffffffffffffffffffffff1663bdc963d883856040518083805190602001908083835b6020831015156135565780518252602082019150602081019050602083039250613531565b6001836020036101000a0380198251168184511680821785525050505050509050018273ffffffffffffffffffffffffffffffffffffffff1673ffffffffffffffffffffffffffffffffffffffff166c010000000000000000000000000281526014019250505060405180910390206000604051602001526040518263ffffffff167c0100000000000000000000000000000000000000000000000000000000028152600401808260001916600019168152602001915050602060405180830381600087803b151561362757600080fd5b6102c65a03f1151561363857600080fd5b5050506040518051905090509392505050565b60008373ffffffffffffffffffffffffffffffffffffffff1663bdc963d883856040518083805190602001908083835b6020831015156136a0578051825260208201915060208101905060208303925061367b565b6001836020036101000a0380198251168184511680821785525050505050509050018281526020019250505060405180910390206000604051602001526040518263ffffffff167c0100000000000000000000000000000000000000000000000000000000028152600401808260001916600019168152602001915050602060405180830381600087803b151561373657600080fd5b6102c65a03f1151561374757600080fd5b50505060405180519050905093925050505600a165627a7a723058201bb4a058320842a2f25fd87887079195c18325047ac0a8e6531fb753d9ec57c80029",
  "source": "pragma solidity 0.4.18;\nimport \"./Restrictor.sol\";\nimport \"../lib/odll/userManager.sol\";\n\ncontract TreatmentApplicationWriter is Restrictor {\n\n  function TreatmentApplicationWriter(address _dbAddress) public {\n    require(_dbAddress != 0x0);\n    dbAddress = _dbAddress;\n  }\n\n  // Treatment Application\n  function applyToTreat (\n    address patientId,\n    uint treatmentRequestId,\n    uint quote,\n    bytes32 treatmentDate,\n    bytes32 treatmentTime,\n    string comment\n  )\n    external\n  {\n    userManager.applyToTreatPatient(dbAddress, msg.sender, patientId, treatmentRequestId, quote, treatmentDate, treatmentTime, comment);\n  }\n\n  function cancelTreatmentApplication (\n    address patientId,\n    uint treatmentApplicationId\n  )\n    external\n  {\n    userManager.cancelDentistTreatmentApplication(dbAddress, msg.sender, patientId, treatmentApplicationId);\n  }\n\n  function cancelTreatment (\n    address dentistId,\n    uint treatmentId\n  )\n    external\n  {\n    userManager.cancelPatientTreatment(dbAddress, dentistId, msg.sender, treatmentId);\n  }\n\n  function markTreatmentDone (\n    address dentistId,\n    uint treatmentId\n  )\n    external\n  {\n    userManager.markPatientTreatmentDone(dbAddress, dentistId, msg.sender, treatmentId);\n  }\n}\n",
  "sourcePath": "/Users/danielokwufulueze/dev/vue/apps/oraldatalink/contracts/odll/TreatmentApplicationWriter.sol",
  "compiler": {
    "name": "solc",
    "version": "0.4.18+commit.9cf6e910.Emscripten.clang"
  },
  "schemaVersion": "1.0.1",
  "updatedAt": "2018-02-03T22:18:34.910Z"
}