{
  "contractName": "TreatmentApplicationWriter",
  "abi": [
    {
      "constant": false,
      "inputs": [
        {
          "name": "patientId",
          "type": "address"
        },
        {
          "name": "treatmentApplicationId",
          "type": "uint256"
        }
      ],
      "name": "cancelTreatmentApplication",
      "outputs": [],
      "payable": false,
      "stateMutability": "nonpayable",
      "type": "function"
    },
    {
      "constant": true,
      "inputs": [],
      "name": "smartContractStatus",
      "outputs": [
        {
          "name": "",
          "type": "uint8"
        }
      ],
      "payable": false,
      "stateMutability": "view",
      "type": "function"
    },
    {
      "constant": false,
      "inputs": [
        {
          "name": "dentistId",
          "type": "address"
        },
        {
          "name": "treatmentId",
          "type": "uint256"
        }
      ],
      "name": "markTreatmentDone",
      "outputs": [],
      "payable": false,
      "stateMutability": "nonpayable",
      "type": "function"
    },
    {
      "constant": false,
      "inputs": [
        {
          "name": "dentistId",
          "type": "address"
        },
        {
          "name": "treatmentApplicationId",
          "type": "uint256"
        },
        {
          "name": "quote",
          "type": "uint256"
        }
      ],
      "name": "acceptTreatmentApplication",
      "outputs": [],
      "payable": false,
      "stateMutability": "nonpayable",
      "type": "function"
    },
    {
      "constant": true,
      "inputs": [],
      "name": "owner",
      "outputs": [
        {
          "name": "",
          "type": "address"
        }
      ],
      "payable": false,
      "stateMutability": "view",
      "type": "function"
    },
    {
      "constant": true,
      "inputs": [],
      "name": "dbAddress",
      "outputs": [
        {
          "name": "",
          "type": "address"
        }
      ],
      "payable": false,
      "stateMutability": "view",
      "type": "function"
    },
    {
      "constant": false,
      "inputs": [
        {
          "name": "dentistId",
          "type": "address"
        },
        {
          "name": "treatmentId",
          "type": "uint256"
        }
      ],
      "name": "cancelTreatment",
      "outputs": [],
      "payable": false,
      "stateMutability": "nonpayable",
      "type": "function"
    },
    {
      "constant": false,
      "inputs": [
        {
          "name": "newOwner",
          "type": "address"
        }
      ],
      "name": "transferOwnership",
      "outputs": [],
      "payable": false,
      "stateMutability": "nonpayable",
      "type": "function"
    },
    {
      "constant": false,
      "inputs": [
        {
          "name": "patientId",
          "type": "address"
        },
        {
          "name": "treatmentRequestId",
          "type": "uint256"
        },
        {
          "name": "quote",
          "type": "uint256"
        },
        {
          "name": "comment",
          "type": "bytes32"
        }
      ],
      "name": "applyToTreat",
      "outputs": [],
      "payable": false,
      "stateMutability": "nonpayable",
      "type": "function"
    },
    {
      "inputs": [
        {
          "name": "_dbAddress",
          "type": "address"
        }
      ],
      "payable": false,
      "stateMutability": "nonpayable",
      "type": "constructor"
    },
    {
      "anonymous": false,
      "inputs": [
        {
          "indexed": false,
          "name": "status",
          "type": "uint8"
        }
      ],
      "name": "OnSmartContractStatusSet",
      "type": "event"
    },
    {
      "anonymous": false,
      "inputs": [
        {
          "indexed": true,
          "name": "previousOwner",
          "type": "address"
        },
        {
          "indexed": true,
          "name": "newOwner",
          "type": "address"
        }
      ],
      "name": "OwnershipTransferred",
      "type": "event"
    }
  ],
  "bytecode": "0x6060604052341561000f57600080fd5b6040516020806200536783398101604052808051906020019091905050336000806101000a81548173ffffffffffffffffffffffffffffffffffffffff021916908373ffffffffffffffffffffffffffffffffffffffff16021790555060008173ffffffffffffffffffffffffffffffffffffffff161415151561009257600080fd5b80600160006101000a81548173ffffffffffffffffffffffffffffffffffffffff021916908373ffffffffffffffffffffffffffffffffffffffff1602179055505061528380620000e46000396000f300606060405260043610610099576000357c0100000000000000000000000000000000000000000000000000000000900463ffffffff16806307c2759d1461009e5780634c8ddddc146100e0578063797c6ae61461010f57806383a7d289146101515780638da5cb5b1461019c57806391e06b6d146101f1578063b0e78e8b14610246578063f2fde38b14610288578063f4fa61b0146102c1575b600080fd5b34156100a957600080fd5b6100de600480803573ffffffffffffffffffffffffffffffffffffffff16906020019091908035906020019091905050610319565b005b34156100eb57600080fd5b6100f361034b565b604051808260ff1660ff16815260200191505060405180910390f35b341561011a57600080fd5b61014f600480803573ffffffffffffffffffffffffffffffffffffffff1690602001909190803590602001909190505061035e565b005b341561015c57600080fd5b61019a600480803573ffffffffffffffffffffffffffffffffffffffff16906020019091908035906020019091908035906020019091905050610390565b005b34156101a757600080fd5b6101af610413565b604051808273ffffffffffffffffffffffffffffffffffffffff1673ffffffffffffffffffffffffffffffffffffffff16815260200191505060405180910390f35b34156101fc57600080fd5b610204610438565b604051808273ffffffffffffffffffffffffffffffffffffffff1673ffffffffffffffffffffffffffffffffffffffff16815260200191505060405180910390f35b341561025157600080fd5b610286600480803573ffffffffffffffffffffffffffffffffffffffff1690602001909190803590602001909190505061045e565b005b341561029357600080fd5b6102bf600480803573ffffffffffffffffffffffffffffffffffffffff16906020019091905050610490565b005b34156102cc57600080fd5b610317600480803573ffffffffffffffffffffffffffffffffffffffff16906020019091908035906020019091908035906020019091908035600019169060200190919050506105e5565b005b610347600160009054906101000a900473ffffffffffffffffffffffffffffffffffffffff1633848461061b565b5050565b600160149054906101000a900460ff1681565b61038c600160009054906101000a900473ffffffffffffffffffffffffffffffffffffffff1683338461062d565b5050565b803410156103dd573373ffffffffffffffffffffffffffffffffffffffff166108fc349081150290604051600060405180830381858888f1935050505015156103d857600080fd5b61040e565b61040d600160009054906101000a900473ffffffffffffffffffffffffffffffffffffffff16843385348661063f565b5b505050565b6000809054906101000a900473ffffffffffffffffffffffffffffffffffffffff1681565b600160009054906101000a900473ffffffffffffffffffffffffffffffffffffffff1681565b61048c600160009054906101000a900473ffffffffffffffffffffffffffffffffffffffff1683338461097f565b5050565b6000809054906101000a900473ffffffffffffffffffffffffffffffffffffffff1673ffffffffffffffffffffffffffffffffffffffff163373ffffffffffffffffffffffffffffffffffffffff161415156104eb57600080fd5b600073ffffffffffffffffffffffffffffffffffffffff168173ffffffffffffffffffffffffffffffffffffffff161415151561052757600080fd5b8073ffffffffffffffffffffffffffffffffffffffff166000809054906101000a900473ffffffffffffffffffffffffffffffffffffffff1673ffffffffffffffffffffffffffffffffffffffff167f8be0079c531659141344cd1fd0a4f28419497f9722a3daafe3b4186f6b6457e060405160405180910390a3806000806101000a81548173ffffffffffffffffffffffffffffffffffffffff021916908373ffffffffffffffffffffffffffffffffffffffff16021790555050565b610615600160009054906101000a900473ffffffffffffffffffffffffffffffffffffffff163386868686610991565b50505050565b610627848484846109a7565b50505050565b61063984848484610d82565b50505050565b6000806000806000806000808d73ffffffffffffffffffffffffffffffffffffffff16634c77e5ba60405180807f6f646c6c2f7061796d656e742d61646472657373000000000000000000000000815250601401905060405180910390206000604051602001526040518263ffffffff167c0100000000000000000000000000000000000000000000000000000000028152600401808260001916600019168152602001915050602060405180830381600087803b15156106ff57600080fd5b6102c65a03f1151561071057600080fd5b5050506040518051905097508d73ffffffffffffffffffffffffffffffffffffffff1663bdc963d860405180807f6f646c6c2f74726561746d656e742d7061796d656e742d70657263656e74616781526020017f6500000000000000000000000000000000000000000000000000000000000000815250602101905060405180910390206000604051602001526040518263ffffffff167c0100000000000000000000000000000000000000000000000000000000028152600401808260001916600019168152602001915050602060405180830381600087803b15156107f657600080fd5b6102c65a03f1151561080757600080fd5b50505060405180519050965061081d8a8a61115d565b955061083361082d886064611176565b8a6111b7565b945061083f898661115d565b9350849250600094508391506000935061085a8e8d8b6111ea565b6108658e8d8b6113c0565b6108708e8e84611596565b61087b8e8e8461176c565b6108868e8985611942565b6108918e8985611b18565b61089e8e8e8e8e8d611cee565b8773ffffffffffffffffffffffffffffffffffffffff166108fc849081150290604051600060405180830381858888f1935050505015156108de57600080fd5b8c73ffffffffffffffffffffffffffffffffffffffff166108fc839081150290604051600060405180830381858888f19350505050151561091e57600080fd5b600086111561096f57859050600095508b73ffffffffffffffffffffffffffffffffffffffff166108fc829081150290604051600060405180830381858888f19350505050151561096e57600080fd5b5b5050505050505050505050505050565b61098b848484846126d0565b50505050565b61099f868686868686612aab565b505050505050565b60018473ffffffffffffffffffffffffffffffffffffffff16637a0e03ec8360405180807f74726561746d656e742d6170706c69636174696f6e2f73746174757300000000815250601c0182815260200191505060405180910390206000604051602001526040518263ffffffff167c0100000000000000000000000000000000000000000000000000000000028152600401808260001916600019168152602001915050602060405180830381600087803b1515610a6557600080fd5b6102c65a03f11515610a7657600080fd5b5050506040518051905060ff16148015610b9157508273ffffffffffffffffffffffffffffffffffffffff168473ffffffffffffffffffffffffffffffffffffffff16634c77e5ba8360405180807f74726561746d656e742d6170706c69636174696f6e2f64656e74697374000000815250601d0182815260200191505060405180910390206000604051602001526040518263ffffffff167c0100000000000000000000000000000000000000000000000000000000028152600401808260001916600019168152602001915050602060405180830381600087803b1515610b5e57600080fd5b6102c65a03f11515610b6f57600080fd5b5050506040518051905073ffffffffffffffffffffffffffffffffffffffff16145b8015610c9e57508173ffffffffffffffffffffffffffffffffffffffff168473ffffffffffffffffffffffffffffffffffffffff16634c77e5ba8360405180807f74726561746d656e742d6170706c69636174696f6e2f70617469656e74000000815250601d0182815260200191505060405180910390206000604051602001526040518263ffffffff167c0100000000000000000000000000000000000000000000000000000000028152600401808260001916600019168152602001915050602060405180830381600087803b1515610c6b57600080fd5b6102c65a03f11515610c7c57600080fd5b5050506040518051905073ffffffffffffffffffffffffffffffffffffffff16145b1515610ca957600080fd5b8373ffffffffffffffffffffffffffffffffffffffff16630bd851588260405180807f74726561746d656e742d6170706c69636174696f6e2f73746174757300000000815250601c01828152602001915050604051809103902060036040518363ffffffff167c01000000000000000000000000000000000000000000000000000000000281526004018083600019166000191681526020018260ff16815260200192505050600060405180830381600087803b1515610d6857600080fd5b6102c65a03f11515610d7957600080fd5b50505050505050565b60018473ffffffffffffffffffffffffffffffffffffffff16637a0e03ec8360405180807f74726561746d656e742f7374617475730000000000000000000000000000000081525060100182815260200191505060405180910390206000604051602001526040518263ffffffff167c0100000000000000000000000000000000000000000000000000000000028152600401808260001916600019168152602001915050602060405180830381600087803b1515610e4057600080fd5b6102c65a03f11515610e5157600080fd5b5050506040518051905060ff16148015610f6c57508273ffffffffffffffffffffffffffffffffffffffff168473ffffffffffffffffffffffffffffffffffffffff16634c77e5ba8360405180807f74726561746d656e742f64656e7469737400000000000000000000000000000081525060110182815260200191505060405180910390206000604051602001526040518263ffffffff167c0100000000000000000000000000000000000000000000000000000000028152600401808260001916600019168152602001915050602060405180830381600087803b1515610f3957600080fd5b6102c65a03f11515610f4a57600080fd5b5050506040518051905073ffffffffffffffffffffffffffffffffffffffff16145b801561107957508173ffffffffffffffffffffffffffffffffffffffff168473ffffffffffffffffffffffffffffffffffffffff16634c77e5ba8360405180807f74726561746d656e742f70617469656e7400000000000000000000000000000081525060110182815260200191505060405180910390206000604051602001526040518263ffffffff167c0100000000000000000000000000000000000000000000000000000000028152600401808260001916600019168152602001915050602060405180830381600087803b151561104657600080fd5b6102c65a03f1151561105757600080fd5b5050506040518051905073ffffffffffffffffffffffffffffffffffffffff16145b151561108457600080fd5b8373ffffffffffffffffffffffffffffffffffffffff16630bd851588260405180807f74726561746d656e742f73746174757300000000000000000000000000000000815250601001828152602001915050604051809103902060026040518363ffffffff167c01000000000000000000000000000000000000000000000000000000000281526004018083600019166000191681526020018260ff16815260200192505050600060405180830381600087803b151561114357600080fd5b6102c65a03f1151561115457600080fd5b50505050505050565b600082821115151561116b57fe5b818303905092915050565b60008060008311151561118557fe5b828481151561119057fe5b049050828481151561119e57fe5b0681840201841415156111ad57fe5b8091505092915050565b600080828402905060008414806111d857508284828115156111d557fe5b04145b15156111e057fe5b8091505092915050565b8273ffffffffffffffffffffffffffffffffffffffff1663c8d1c0178360405180807f70617469656e742f74726561746d656e742d746f74616c2d7061696400000000815250601c018273ffffffffffffffffffffffffffffffffffffffff1673ffffffffffffffffffffffffffffffffffffffff166c010000000000000000000000000281526014019150506040518091039020836040518363ffffffff167c010000000000000000000000000000000000000000000000000000000002815260040180836000191660001916815260200182815260200192505050600060405180830381600087803b15156112e057600080fd5b6102c65a03f115156112f157600080fd5b5050508273ffffffffffffffffffffffffffffffffffffffff1663c8d1c01760405180807f70617469656e74732f74726561746d656e742d746f74616c2d70616964000000815250601d0190506040518091039020836040518363ffffffff167c010000000000000000000000000000000000000000000000000000000002815260040180836000191660001916815260200182815260200192505050600060405180830381600087803b15156113a757600080fd5b6102c65a03f115156113b857600080fd5b505050505050565b8273ffffffffffffffffffffffffffffffffffffffff1663c8d1c0178360405180807f70617469656e742f746f74616c2d7061696400000000000000000000000000008152506012018273ffffffffffffffffffffffffffffffffffffffff1673ffffffffffffffffffffffffffffffffffffffff166c010000000000000000000000000281526014019150506040518091039020836040518363ffffffff167c010000000000000000000000000000000000000000000000000000000002815260040180836000191660001916815260200182815260200192505050600060405180830381600087803b15156114b657600080fd5b6102c65a03f115156114c757600080fd5b5050508273ffffffffffffffffffffffffffffffffffffffff1663c8d1c01760405180807f70617469656e74732f746f74616c2d706169640000000000000000000000000081525060130190506040518091039020836040518363ffffffff167c010000000000000000000000000000000000000000000000000000000002815260040180836000191660001916815260200182815260200192505050600060405180830381600087803b151561157d57600080fd5b6102c65a03f1151561158e57600080fd5b505050505050565b8273ffffffffffffffffffffffffffffffffffffffff1663c8d1c0178360405180807f64656e746973742f74726561746d656e742d746f74616c2d6561726e65640000815250601e018273ffffffffffffffffffffffffffffffffffffffff1673ffffffffffffffffffffffffffffffffffffffff166c010000000000000000000000000281526014019150506040518091039020836040518363ffffffff167c010000000000000000000000000000000000000000000000000000000002815260040180836000191660001916815260200182815260200192505050600060405180830381600087803b151561168c57600080fd5b6102c65a03f1151561169d57600080fd5b5050508273ffffffffffffffffffffffffffffffffffffffff1663c8d1c01760405180807f64656e74697374732f74726561746d656e742d746f74616c2d6561726e656400815250601f0190506040518091039020836040518363ffffffff167c010000000000000000000000000000000000000000000000000000000002815260040180836000191660001916815260200182815260200192505050600060405180830381600087803b151561175357600080fd5b6102c65a03f1151561176457600080fd5b505050505050565b8273ffffffffffffffffffffffffffffffffffffffff1663c8d1c0178360405180807f64656e746973742f746f74616c2d6561726e65640000000000000000000000008152506014018273ffffffffffffffffffffffffffffffffffffffff1673ffffffffffffffffffffffffffffffffffffffff166c010000000000000000000000000281526014019150506040518091039020836040518363ffffffff167c010000000000000000000000000000000000000000000000000000000002815260040180836000191660001916815260200182815260200192505050600060405180830381600087803b151561186257600080fd5b6102c65a03f1151561187357600080fd5b5050508273ffffffffffffffffffffffffffffffffffffffff1663c8d1c01760405180807f64656e74697374732f746f74616c2d6561726e6564000000000000000000000081525060150190506040518091039020836040518363ffffffff167c010000000000000000000000000000000000000000000000000000000002815260040180836000191660001916815260200182815260200192505050600060405180830381600087803b151561192957600080fd5b6102c65a03f1151561193a57600080fd5b505050505050565b8273ffffffffffffffffffffffffffffffffffffffff1663c8d1c0178360405180807f6f646c6c2f74726561746d656e742d746f74616c2d6561726e65640000000000815250601b018273ffffffffffffffffffffffffffffffffffffffff1673ffffffffffffffffffffffffffffffffffffffff166c010000000000000000000000000281526014019150506040518091039020836040518363ffffffff167c010000000000000000000000000000000000000000000000000000000002815260040180836000191660001916815260200182815260200192505050600060405180830381600087803b1515611a3857600080fd5b6102c65a03f11515611a4957600080fd5b5050508273ffffffffffffffffffffffffffffffffffffffff1663c8d1c01760405180807f6f646c6c2f74726561746d656e742d746f74616c2d6561726e65640000000000815250601b0190506040518091039020836040518363ffffffff167c010000000000000000000000000000000000000000000000000000000002815260040180836000191660001916815260200182815260200192505050600060405180830381600087803b1515611aff57600080fd5b6102c65a03f11515611b1057600080fd5b505050505050565b8273ffffffffffffffffffffffffffffffffffffffff1663c8d1c0178360405180807f6f646c6c2f746f74616c2d6561726e65640000000000000000000000000000008152506011018273ffffffffffffffffffffffffffffffffffffffff1673ffffffffffffffffffffffffffffffffffffffff166c010000000000000000000000000281526014019150506040518091039020836040518363ffffffff167c010000000000000000000000000000000000000000000000000000000002815260040180836000191660001916815260200182815260200192505050600060405180830381600087803b1515611c0e57600080fd5b6102c65a03f11515611c1f57600080fd5b5050508273ffffffffffffffffffffffffffffffffffffffff1663c8d1c01760405180807f6f646c6c2f746f74616c2d6561726e656400000000000000000000000000000081525060110190506040518091039020836040518363ffffffff167c010000000000000000000000000000000000000000000000000000000002815260040180836000191660001916815260200182815260200192505050600060405180830381600087803b1515611cd557600080fd5b6102c65a03f11515611ce657600080fd5b505050505050565b600080611d30876040805190810160405280601081526020017f74726561746d656e74732d636f756e7400000000000000000000000000000000815250612ac1565b91508673ffffffffffffffffffffffffffffffffffffffff1663bdc963d88560405180807f74726561746d656e742d6170706c69636174696f6e2f74726561746d656e742d81526020017f726571756573740000000000000000000000000000000000000000000000000081525060270182815260200191505060405180910390206000604051602001526040518263ffffffff167c0100000000000000000000000000000000000000000000000000000000028152600401808260001916600019168152602001915050602060405180830381600087803b1515611e1457600080fd5b6102c65a03f11515611e2557600080fd5b50505060405180519050905060008773ffffffffffffffffffffffffffffffffffffffff16637a0e03ec8460405180807f74726561746d656e742f7374617475730000000000000000000000000000000081525060100182815260200191505060405180910390206000604051602001526040518263ffffffff167c0100000000000000000000000000000000000000000000000000000000028152600401808260001916600019168152602001915050602060405180830381600087803b1515611eef57600080fd5b6102c65a03f11515611f0057600080fd5b5050506040518051905060ff16148015611ff3575060018773ffffffffffffffffffffffffffffffffffffffff16637a0e03ec8660405180807f74726561746d656e742d6170706c69636174696f6e2f73746174757300000000815250601c0182815260200191505060405180910390206000604051602001526040518263ffffffff167c0100000000000000000000000000000000000000000000000000000000028152600401808260001916600019168152602001915050602060405180830381600087803b1515611fd357600080fd5b6102c65a03f11515611fe457600080fd5b5050506040518051905060ff16145b80156120d8575060018773ffffffffffffffffffffffffffffffffffffffff16637a0e03ec8360405180807f74726561746d656e742d726571756573742f737461747573000000000000000081525060180182815260200191505060405180910390206000604051602001526040518263ffffffff167c0100000000000000000000000000000000000000000000000000000000028152600401808260001916600019168152602001915050602060405180830381600087803b15156120b857600080fd5b6102c65a03f115156120c957600080fd5b5050506040518051905060ff16145b80156121e557508473ffffffffffffffffffffffffffffffffffffffff168773ffffffffffffffffffffffffffffffffffffffff16634c77e5ba8360405180807f74726561746d656e742d726571756573742f70617469656e740000000000000081525060190182815260200191505060405180910390206000604051602001526040518263ffffffff167c0100000000000000000000000000000000000000000000000000000000028152600401808260001916600019168152602001915050602060405180830381600087803b15156121b257600080fd5b6102c65a03f115156121c357600080fd5b5050506040518051905073ffffffffffffffffffffffffffffffffffffffff16145b80156122f257508573ffffffffffffffffffffffffffffffffffffffff168773ffffffffffffffffffffffffffffffffffffffff16634c77e5ba8660405180807f74726561746d656e742d6170706c69636174696f6e2f64656e74697374000000815250601d0182815260200191505060405180910390206000604051602001526040518263ffffffff167c0100000000000000000000000000000000000000000000000000000000028152600401808260001916600019168152602001915050602060405180830381600087803b15156122bf57600080fd5b6102c65a03f115156122d057600080fd5b5050506040518051905073ffffffffffffffffffffffffffffffffffffffff16145b80156123ff57508473ffffffffffffffffffffffffffffffffffffffff168773ffffffffffffffffffffffffffffffffffffffff16634c77e5ba8660405180807f74726561746d656e742d6170706c69636174696f6e2f70617469656e74000000815250601d0182815260200191505060405180910390206000604051602001526040518263ffffffff167c0100000000000000000000000000000000000000000000000000000000028152600401808260001916600019168152602001915050602060405180830381600087803b15156123cc57600080fd5b6102c65a03f115156123dd57600080fd5b5050506040518051905073ffffffffffffffffffffffffffffffffffffffff16145b80156124f0575060008773ffffffffffffffffffffffffffffffffffffffff16634c77e5ba60405180807f6f646c6c2f7061796d656e742d61646472657373000000000000000000000000815250601401905060405180910390206000604051602001526040518263ffffffff167c0100000000000000000000000000000000000000000000000000000000028152600401808260001916600019168152602001915050602060405180830381600087803b15156124bc57600080fd5b6102c65a03f115156124cd57600080fd5b5050506040518051905073ffffffffffffffffffffffffffffffffffffffff1614155b15156124fb57600080fd5b612509878787848887612bc7565b612516878787858761317b565b8673ffffffffffffffffffffffffffffffffffffffff16630bd851588260405180807f74726561746d656e742d726571756573742f7374617475730000000000000000815250601801828152602001915050604051809103902060026040518363ffffffff167c01000000000000000000000000000000000000000000000000000000000281526004018083600019166000191681526020018260ff16815260200192505050600060405180830381600087803b15156125d557600080fd5b6102c65a03f115156125e657600080fd5b5050508673ffffffffffffffffffffffffffffffffffffffff16630bd851588560405180807f74726561746d656e742d6170706c69636174696f6e2f73746174757300000000815250601c01828152602001915050604051809103902060046040518363ffffffff167c01000000000000000000000000000000000000000000000000000000000281526004018083600019166000191681526020018260ff16815260200192505050600060405180830381600087803b15156126a857600080fd5b6102c65a03f115156126b957600080fd5b5050506126c7878286613413565b50505050505050565b60018473ffffffffffffffffffffffffffffffffffffffff16637a0e03ec8360405180807f74726561746d656e742f7374617475730000000000000000000000000000000081525060100182815260200191505060405180910390206000604051602001526040518263ffffffff167c0100000000000000000000000000000000000000000000000000000000028152600401808260001916600019168152602001915050602060405180830381600087803b151561278e57600080fd5b6102c65a03f1151561279f57600080fd5b5050506040518051905060ff161480156128ba57508273ffffffffffffffffffffffffffffffffffffffff168473ffffffffffffffffffffffffffffffffffffffff16634c77e5ba8360405180807f74726561746d656e742f64656e7469737400000000000000000000000000000081525060110182815260200191505060405180910390206000604051602001526040518263ffffffff167c0100000000000000000000000000000000000000000000000000000000028152600401808260001916600019168152602001915050602060405180830381600087803b151561288757600080fd5b6102c65a03f1151561289857600080fd5b5050506040518051905073ffffffffffffffffffffffffffffffffffffffff16145b80156129c757508173ffffffffffffffffffffffffffffffffffffffff168473ffffffffffffffffffffffffffffffffffffffff16634c77e5ba8360405180807f74726561746d656e742f70617469656e7400000000000000000000000000000081525060110182815260200191505060405180910390206000604051602001526040518263ffffffff167c0100000000000000000000000000000000000000000000000000000000028152600401808260001916600019168152602001915050602060405180830381600087803b151561299457600080fd5b6102c65a03f115156129a557600080fd5b5050506040518051905073ffffffffffffffffffffffffffffffffffffffff16145b15156129d257600080fd5b8373ffffffffffffffffffffffffffffffffffffffff16630bd851588260405180807f74726561746d656e742f73746174757300000000000000000000000000000000815250601001828152602001915050604051809103902060036040518363ffffffff167c01000000000000000000000000000000000000000000000000000000000281526004018083600019166000191681526020018260ff16815260200192505050600060405180830381600087803b1515612a9157600080fd5b6102c65a03f11515612aa257600080fd5b50505050505050565b612ab9868686868686613687565b505050505050565b60008273ffffffffffffffffffffffffffffffffffffffff1663bdc963d8836040518082805190602001908083835b602083101515612b155780518252602082019150602081019050602083039250612af0565b6001836020036101000a03801982511681845116808217855250505050505090500191505060405180910390206000604051602001526040518263ffffffff167c0100000000000000000000000000000000000000000000000000000000028152600401808260001916600019168152602001915050602060405180830381600087803b1515612ba457600080fd5b6102c65a03f11515612bb557600080fd5b50505060405180519050905092915050565b8573ffffffffffffffffffffffffffffffffffffffff16630bd851588260405180807f74726561746d656e742f73746174757300000000000000000000000000000000815250601001828152602001915050604051809103902060016040518363ffffffff167c01000000000000000000000000000000000000000000000000000000000281526004018083600019166000191681526020018260ff16815260200192505050600060405180830381600087803b1515612c8657600080fd5b6102c65a03f11515612c9757600080fd5b5050508573ffffffffffffffffffffffffffffffffffffffff16633562fd208260405180807f74726561746d656e742f637265617465642d6f6e0000000000000000000000008152506014018281526020019150506040518091039020426040518363ffffffff167c010000000000000000000000000000000000000000000000000000000002815260040180836000191660001916815260200182815260200192505050600060405180830381600087803b1515612d5557600080fd5b6102c65a03f11515612d6657600080fd5b5050508573ffffffffffffffffffffffffffffffffffffffff16635a2bf25a8260405180807f74726561746d656e742f64656e746973740000000000000000000000000000008152506011018281526020019150506040518091039020876040518363ffffffff167c01000000000000000000000000000000000000000000000000000000000281526004018083600019166000191681526020018273ffffffffffffffffffffffffffffffffffffffff1673ffffffffffffffffffffffffffffffffffffffff16815260200192505050600060405180830381600087803b1515612e5057600080fd5b6102c65a03f11515612e6157600080fd5b5050508573ffffffffffffffffffffffffffffffffffffffff16635a2bf25a8260405180807f74726561746d656e742f70617469656e740000000000000000000000000000008152506011018281526020019150506040518091039020866040518363ffffffff167c01000000000000000000000000000000000000000000000000000000000281526004018083600019166000191681526020018273ffffffffffffffffffffffffffffffffffffffff1673ffffffffffffffffffffffffffffffffffffffff16815260200192505050600060405180830381600087803b1515612f4b57600080fd5b6102c65a03f11515612f5c57600080fd5b5050508573ffffffffffffffffffffffffffffffffffffffff16633562fd208260405180807f74726561746d656e742f74726561746d656e742d726571756573740000000000815250601b018281526020019150506040518091039020856040518363ffffffff167c010000000000000000000000000000000000000000000000000000000002815260040180836000191660001916815260200182815260200192505050600060405180830381600087803b151561301a57600080fd5b6102c65a03f1151561302b57600080fd5b5050508573ffffffffffffffffffffffffffffffffffffffff16633562fd208260405180807f74726561746d656e742f74726561746d656e742d6170706c69636174696f6e00815250601f018281526020019150506040518091039020846040518363ffffffff167c010000000000000000000000000000000000000000000000000000000002815260040180836000191660001916815260200182815260200192505050600060405180830381600087803b15156130e957600080fd5b6102c65a03f115156130fa57600080fd5b505050613173866040805190810160405280600981526020017f74726561746d656e7400000000000000000000000000000000000000000000008152506040805190810160405280601081526020017f74726561746d656e74732d636f756e740000000000000000000000000000000081525084613fa2565b505050505050565b8473ffffffffffffffffffffffffffffffffffffffff16633562fd208360405180807f74726561746d656e742f616d6f756e74000000000000000000000000000000008152506010018281526020019150506040518091039020836040518363ffffffff167c010000000000000000000000000000000000000000000000000000000002815260040180836000191660001916815260200182815260200192505050600060405180830381600087803b151561323657600080fd5b6102c65a03f1151561324757600080fd5b5050508473ffffffffffffffffffffffffffffffffffffffff16633eba9ed28360405180807f74726561746d656e742f70616964000000000000000000000000000000000000815250600e01828152602001915050604051809103902060016040518363ffffffff167c01000000000000000000000000000000000000000000000000000000000281526004018083600019166000191681526020018215151515815260200192505050600060405180830381600087803b151561330a57600080fd5b6102c65a03f1151561331b57600080fd5b50505061339585856040805190810160405280601181526020017f64656e746973742f74726561746d656e740000000000000000000000000000008152506040805190810160405280601881526020017f64656e746973742f74726561746d656e74732d636f756e7400000000000000008152508661429c565b61340c85846040805190810160405280601181526020017f70617469656e742f74726561746d656e740000000000000000000000000000008152506040805190810160405280601881526020017f70617469656e742f74726561746d656e74732d636f756e7400000000000000008152508661429c565b5050505050565b600080600061347f8686606060405190810160405280602e81526020017f74726561746d656e742d726571756573742f74726561746d656e742d6170706c81526020017f69636174696f6e732d636f756e7400000000000000000000000000000000000081525061452c565b9250600091505b8282101561367f578573ffffffffffffffffffffffffffffffffffffffff1663bdc963d8868460405180807f74726561746d656e742d726571756573742f74726561746d656e742d6170706c81526020017f69636174696f6e000000000000000000000000000000000000000000000000008152506027018381526020018281526020019250505060405180910390206000604051602001526040518263ffffffff167c0100000000000000000000000000000000000000000000000000000000028152600401808260001916600019168152602001915050602060405180830381600087803b151561357857600080fd5b6102c65a03f1151561358957600080fd5b5050506040518051905090508381141515613672578573ffffffffffffffffffffffffffffffffffffffff16630bd851588260405180807f74726561746d656e742d6170706c69636174696f6e2f73746174757300000000815250601c01828152602001915050604051809103902060056040518363ffffffff167c01000000000000000000000000000000000000000000000000000000000281526004018083600019166000191681526020018260ff16815260200192505050600060405180830381600087803b151561365d57600080fd5b6102c65a03f1151561366e57600080fd5b5050505b8180600101925050613486565b505050505050565b6000806000806136cc8a6040805190810160405280601c81526020017f74726561746d656e742d6170706c69636174696f6e732d636f756e7400000000815250612ac1565b935060008a73ffffffffffffffffffffffffffffffffffffffff16637a0e03ec8660405180807f74726561746d656e742d6170706c69636174696f6e2f73746174757300000000815250601c0182815260200191505060405180910390206000604051602001526040518263ffffffff167c0100000000000000000000000000000000000000000000000000000000028152600401808260001916600019168152602001915050602060405180830381600087803b151561378c57600080fd5b6102c65a03f1151561379d57600080fd5b5050506040518051905060ff16148015613890575060018a73ffffffffffffffffffffffffffffffffffffffff16637a0e03ec8960405180807f74726561746d656e742d726571756573742f737461747573000000000000000081525060180182815260200191505060405180910390206000604051602001526040518263ffffffff167c0100000000000000000000000000000000000000000000000000000000028152600401808260001916600019168152602001915050602060405180830381600087803b151561387057600080fd5b6102c65a03f1151561388157600080fd5b5050506040518051905060ff16145b801561399d57508773ffffffffffffffffffffffffffffffffffffffff168a73ffffffffffffffffffffffffffffffffffffffff16634c77e5ba8960405180807f74726561746d656e742d726571756573742f70617469656e740000000000000081525060190182815260200191505060405180910390206000604051602001526040518263ffffffff167c0100000000000000000000000000000000000000000000000000000000028152600401808260001916600019168152602001915050602060405180830381600087803b151561396a57600080fd5b6102c65a03f1151561397b57600080fd5b5050506040518051905073ffffffffffffffffffffffffffffffffffffffff16145b15156139a857600080fd5b600092505b83831015613f7b578973ffffffffffffffffffffffffffffffffffffffff1663bdc963d88a8560405180807f64656e746973742f74726561746d656e742d6170706c69636174696f6e000000815250601d018373ffffffffffffffffffffffffffffffffffffffff1673ffffffffffffffffffffffffffffffffffffffff166c010000000000000000000000000281526014018281526020019250505060405180910390206000604051602001526040518263ffffffff167c0100000000000000000000000000000000000000000000000000000000028152600401808260001916600019168152602001915050602060405180830381600087803b1515613ab457600080fd5b6102c65a03f11515613ac557600080fd5b5050506040518051905091508973ffffffffffffffffffffffffffffffffffffffff1663bdc963d88360405180807f74726561746d656e742d6170706c69636174696f6e2f74726561746d656e742d81526020017f726571756573740000000000000000000000000000000000000000000000000081525060270182815260200191505060405180910390206000604051602001526040518263ffffffff167c0100000000000000000000000000000000000000000000000000000000028152600401808260001916600019168152602001915050602060405180830381600087803b1515613bb357600080fd5b6102c65a03f11515613bc457600080fd5b5050506040518051905090508681148015613f64575060018a73ffffffffffffffffffffffffffffffffffffffff16637a0e03ec8460405180807f74726561746d656e742d6170706c69636174696f6e2f73746174757300000000815250601c0182815260200191505060405180910390206000604051602001526040518263ffffffff167c0100000000000000000000000000000000000000000000000000000000028152600401808260001916600019168152602001915050602060405180830381600087803b1515613c9857600080fd5b6102c65a03f11515613ca957600080fd5b5050506040518051905060ff161480613d9b575060028a73ffffffffffffffffffffffffffffffffffffffff16637a0e03ec8460405180807f74726561746d656e742d6170706c69636174696f6e2f73746174757300000000815250601c0182815260200191505060405180910390206000604051602001526040518263ffffffff167c0100000000000000000000000000000000000000000000000000000000028152600401808260001916600019168152602001915050602060405180830381600087803b1515613d7b57600080fd5b6102c65a03f11515613d8c57600080fd5b5050506040518051905060ff16145b80613e7f575060048a73ffffffffffffffffffffffffffffffffffffffff16637a0e03ec8460405180807f74726561746d656e742d6170706c69636174696f6e2f73746174757300000000815250601c0182815260200191505060405180910390206000604051602001526040518263ffffffff167c0100000000000000000000000000000000000000000000000000000000028152600401808260001916600019168152602001915050602060405180830381600087803b1515613e5f57600080fd5b6102c65a03f11515613e7057600080fd5b5050506040518051905060ff16145b80613f63575060058a73ffffffffffffffffffffffffffffffffffffffff16637a0e03ec8460405180807f74726561746d656e742d6170706c69636174696f6e2f73746174757300000000815250601c0182815260200191505060405180910390206000604051602001526040518263ffffffff167c0100000000000000000000000000000000000000000000000000000000028152600401808260001916600019168152602001915050602060405180830381600087803b1515613f4357600080fd5b6102c65a03f11515613f5457600080fd5b5050506040518051905060ff16145b5b15613f6e57613f96565b82806001019350506139ad565b613f868a888661463b565b613f958a8a8a8a888b8b61494d565b5b50505050505050505050565b60008473ffffffffffffffffffffffffffffffffffffffff1663bdc963d8846040518082805190602001908083835b602083101515613ff65780518252602082019150602081019050602083039250613fd1565b6001836020036101000a03801982511681845116808217855250505050505090500191505060405180910390206000604051602001526040518263ffffffff167c0100000000000000000000000000000000000000000000000000000000028152600401808260001916600019168152602001915050602060405180830381600087803b151561408557600080fd5b6102c65a03f1151561409657600080fd5b5050506040518051905090508473ffffffffffffffffffffffffffffffffffffffff16633562fd2085836040518083805190602001908083835b6020831015156140f557805182526020820191506020810190506020830392506140d0565b6001836020036101000a038019825116818451168082178552505050505050905001828152602001925050506040518091039020846040518363ffffffff167c010000000000000000000000000000000000000000000000000000000002815260040180836000191660001916815260200182815260200192505050600060405180830381600087803b151561418a57600080fd5b6102c65a03f1151561419b57600080fd5b5050508473ffffffffffffffffffffffffffffffffffffffff16633562fd20846040518082805190602001908083835b6020831015156141f057805182526020820191506020810190506020830392506141cb565b6001836020036101000a0380198251168184511680821785525050505050509050019150506040518091039020600184016040518363ffffffff167c010000000000000000000000000000000000000000000000000000000002815260040180836000191660001916815260200182815260200192505050600060405180830381600087803b151561428157600080fd5b6102c65a03f1151561429257600080fd5b5050505050505050565b60006142a9868685614ef3565b90508573ffffffffffffffffffffffffffffffffffffffff16633562fd208587846040518084805190602001908083835b6020831015156142ff57805182526020820191506020810190506020830392506142da565b6001836020036101000a0380198251168184511680821785525050505050509050018373ffffffffffffffffffffffffffffffffffffffff1673ffffffffffffffffffffffffffffffffffffffff166c0100000000000000000000000002815260140182815260200193505050506040518091039020846040518363ffffffff167c010000000000000000000000000000000000000000000000000000000002815260040180836000191660001916815260200182815260200192505050600060405180830381600087803b15156143d657600080fd5b6102c65a03f115156143e757600080fd5b5050508573ffffffffffffffffffffffffffffffffffffffff16633562fd2084876040518083805190602001908083835b60208310151561443d5780518252602082019150602081019050602083039250614418565b6001836020036101000a0380198251168184511680821785525050505050509050018273ffffffffffffffffffffffffffffffffffffffff1673ffffffffffffffffffffffffffffffffffffffff166c01000000000000000000000000028152601401925050506040518091039020600184016040518363ffffffff167c010000000000000000000000000000000000000000000000000000000002815260040180836000191660001916815260200182815260200192505050600060405180830381600087803b151561451057600080fd5b6102c65a03f1151561452157600080fd5b505050505050505050565b60008373ffffffffffffffffffffffffffffffffffffffff1663bdc963d883856040518083805190602001908083835b602083101515614581578051825260208201915060208101905060208303925061455c565b6001836020036101000a0380198251168184511680821785525050505050509050018281526020019250505060405180910390206000604051602001526040518263ffffffff167c0100000000000000000000000000000000000000000000000000000000028152600401808260001916600019168152602001915050602060405180830381600087803b151561461757600080fd5b6102c65a03f1151561462857600080fd5b5050506040518051905090509392505050565b8273ffffffffffffffffffffffffffffffffffffffff16630bd851588260405180807f74726561746d656e742d6170706c69636174696f6e2f73746174757300000000815250601c01828152602001915050604051809103902060016040518363ffffffff167c01000000000000000000000000000000000000000000000000000000000281526004018083600019166000191681526020018260ff16815260200192505050600060405180830381600087803b15156146fa57600080fd5b6102c65a03f1151561470b57600080fd5b5050508273ffffffffffffffffffffffffffffffffffffffff16633562fd208260405180807f74726561746d656e742d6170706c69636174696f6e2f637265617465642d6f6e8152506020018281526020019150506040518091039020426040518363ffffffff167c010000000000000000000000000000000000000000000000000000000002815260040180836000191660001916815260200182815260200192505050600060405180830381600087803b15156147c957600080fd5b6102c65a03f115156147da57600080fd5b5050508273ffffffffffffffffffffffffffffffffffffffff16633562fd208260405180807f74726561746d656e742d6170706c69636174696f6e2f74726561746d656e742d81526020017f72657175657374000000000000000000000000000000000000000000000000008152506027018281526020019150506040518091039020846040518363ffffffff167c010000000000000000000000000000000000000000000000000000000002815260040180836000191660001916815260200182815260200192505050600060405180830381600087803b15156148be57600080fd5b6102c65a03f115156148cf57600080fd5b505050614948836040805190810160405280601581526020017f74726561746d656e742d6170706c69636174696f6e00000000000000000000008152506040805190810160405280601c81526020017f74726561746d656e742d6170706c69636174696f6e732d636f756e740000000081525084613fa2565b505050565b8673ffffffffffffffffffffffffffffffffffffffff16633562fd208460405180807f74726561746d656e742d6170706c69636174696f6e2f71756f74650000000000815250601b018281526020019150506040518091039020846040518363ffffffff167c010000000000000000000000000000000000000000000000000000000002815260040180836000191660001916815260200182815260200192505050600060405180830381600087803b1515614a0857600080fd5b6102c65a03f11515614a1957600080fd5b5050508673ffffffffffffffffffffffffffffffffffffffff166325cf512d8460405180807f74726561746d656e742d6170706c69636174696f6e2f636f6d6d656e74000000815250601d018281526020019150506040518091039020836040518363ffffffff167c0100000000000000000000000000000000000000000000000000000000028152600401808360001916600019168152602001826000191660001916815260200192505050600060405180830381600087803b1515614adf57600080fd5b6102c65a03f11515614af057600080fd5b5050508673ffffffffffffffffffffffffffffffffffffffff16635a2bf25a8460405180807f74726561746d656e742d6170706c69636174696f6e2f64656e74697374000000815250601d018281526020019150506040518091039020886040518363ffffffff167c01000000000000000000000000000000000000000000000000000000000281526004018083600019166000191681526020018273ffffffffffffffffffffffffffffffffffffffff1673ffffffffffffffffffffffffffffffffffffffff16815260200192505050600060405180830381600087803b1515614bda57600080fd5b6102c65a03f11515614beb57600080fd5b5050508673ffffffffffffffffffffffffffffffffffffffff16635a2bf25a8460405180807f74726561746d656e742d6170706c69636174696f6e2f70617469656e74000000815250601d018281526020019150506040518091039020876040518363ffffffff167c01000000000000000000000000000000000000000000000000000000000281526004018083600019166000191681526020018273ffffffffffffffffffffffffffffffffffffffff1673ffffffffffffffffffffffffffffffffffffffff16815260200192505050600060405180830381600087803b1515614cd557600080fd5b6102c65a03f11515614ce657600080fd5b505050614d8787876040805190810160405280601d81526020017f64656e746973742f74726561746d656e742d6170706c69636174696f6e000000815250606060405190810160405280602481526020017f64656e746973742f74726561746d656e742d6170706c69636174696f6e732d6381526020017f6f756e74000000000000000000000000000000000000000000000000000000008152508761429c565b614e2587866040805190810160405280601d81526020017f70617469656e742f74726561746d656e742d6170706c69636174696f6e000000815250606060405190810160405280602481526020017f70617469656e742f74726561746d656e742d6170706c69636174696f6e732d6381526020017f6f756e74000000000000000000000000000000000000000000000000000000008152508761429c565b614eea8785606060405190810160405280602781526020017f74726561746d656e742d726571756573742f74726561746d656e742d6170706c81526020017f69636174696f6e00000000000000000000000000000000000000000000000000815250606060405190810160405280602e81526020017f74726561746d656e742d726571756573742f74726561746d656e742d6170706c81526020017f69636174696f6e732d636f756e740000000000000000000000000000000000008152508761503d565b50505050505050565b60008373ffffffffffffffffffffffffffffffffffffffff1663bdc963d883856040518083805190602001908083835b602083101515614f485780518252602082019150602081019050602083039250614f23565b6001836020036101000a0380198251168184511680821785525050505050509050018273ffffffffffffffffffffffffffffffffffffffff1673ffffffffffffffffffffffffffffffffffffffff166c010000000000000000000000000281526014019250505060405180910390206000604051602001526040518263ffffffff167c0100000000000000000000000000000000000000000000000000000000028152600401808260001916600019168152602001915050602060405180830381600087803b151561501957600080fd5b6102c65a03f1151561502a57600080fd5b5050506040518051905090509392505050565b600061504a86868561452c565b90508573ffffffffffffffffffffffffffffffffffffffff16633562fd208587846040518084805190602001908083835b6020831015156150a0578051825260208201915060208101905060208303925061507b565b6001836020036101000a03801982511681845116808217855250505050505090500183815260200182815260200193505050506040518091039020846040518363ffffffff167c010000000000000000000000000000000000000000000000000000000002815260040180836000191660001916815260200182815260200192505050600060405180830381600087803b151561513c57600080fd5b6102c65a03f1151561514d57600080fd5b5050508573ffffffffffffffffffffffffffffffffffffffff16633562fd2084876040518083805190602001908083835b6020831015156151a3578051825260208201915060208101905060208303925061517e565b6001836020036101000a038019825116818451168082178552505050505050905001828152602001925050506040518091039020600184016040518363ffffffff167c010000000000000000000000000000000000000000000000000000000002815260040180836000191660001916815260200182815260200192505050600060405180830381600087803b151561523b57600080fd5b6102c65a03f1151561524c57600080fd5b5050505050505050505600a165627a7a7230582051ce308b42340954d72ac872ffad807be6e7895b314e80d63c499b8c29aadef10029",
  "source": "pragma solidity 0.4.18;\nimport \"./Restrictor.sol\";\nimport \"../lib/odll/userManager.sol\";\n\ncontract TreatmentApplicationWriter is Restrictor {\n\n  function TreatmentApplicationWriter(address _dbAddress) public {\n    require(_dbAddress != 0x0);\n    dbAddress = _dbAddress;\n  }\n\n  // Treatment Application\n  function applyToTreat (\n    address patientId,\n    uint treatmentRequestId,\n    uint quote,\n    bytes32 comment\n  )\n    external\n  {\n    userManager.applyToTreat(dbAddress, msg.sender, patientId, treatmentRequestId, quote, comment);\n  }\n\n  function cancelTreatmentApplication (\n    address patientId,\n    uint treatmentApplicationId\n  )\n    external\n  {\n    userManager.cancelTreatmentApplication(dbAddress, msg.sender, patientId, treatmentApplicationId);\n  }\n\n  function acceptTreatmentApplication (\n    address dentistId,\n    uint treatmentApplicationId,\n    uint quote\n  )\n    external\n  {\n    if (msg.value < quote) {\n      msg.sender.transfer(msg.value);\n      return;\n    }\n\n    userManager.acceptTreatmentApplication(dbAddress, dentistId, msg.sender, treatmentApplicationId, msg.value, quote);\n  }\n\n  function cancelTreatment (\n    address dentistId,\n    uint treatmentId\n  )\n    external\n  {\n    userManager.cancelTreatment(dbAddress, dentistId, msg.sender, treatmentId);\n  }\n\n  function markTreatmentDone (\n    address dentistId,\n    uint treatmentId\n  )\n    external\n  {\n    userManager.markTreatmentDone(dbAddress, dentistId, msg.sender, treatmentId);\n  }\n}\n",
  "sourcePath": "/home/daniel/dev/vue/apps/oral-data-link/contracts/odll/TreatmentApplicationWriter.sol",
  "compiler": {
    "name": "solc",
    "version": "0.4.18+commit.9cf6e910.Emscripten.clang"
  },
  "schemaVersion": "1.0.1",
  "updatedAt": "2017-11-08T14:14:33.982Z"
}