{
  "contractName": "TreatmentRequestReader",
  "abi": [
    {
      "constant": true,
      "inputs": [],
      "name": "smartContractStatus",
      "outputs": [
        {
          "name": "",
          "type": "uint8"
        }
      ],
      "payable": false,
      "stateMutability": "view",
      "type": "function"
    },
    {
      "constant": true,
      "inputs": [],
      "name": "owner",
      "outputs": [
        {
          "name": "",
          "type": "address"
        }
      ],
      "payable": false,
      "stateMutability": "view",
      "type": "function"
    },
    {
      "constant": true,
      "inputs": [
        {
          "name": "offset",
          "type": "uint256"
        },
        {
          "name": "limit",
          "type": "uint256"
        },
        {
          "name": "seed",
          "type": "uint256"
        }
      ],
      "name": "fetchAllTreatmentRequests",
      "outputs": [
        {
          "name": "",
          "type": "uint256"
        },
        {
          "name": "",
          "type": "uint256[]"
        }
      ],
      "payable": false,
      "stateMutability": "view",
      "type": "function"
    },
    {
      "constant": true,
      "inputs": [],
      "name": "dbAddress",
      "outputs": [
        {
          "name": "",
          "type": "address"
        }
      ],
      "payable": false,
      "stateMutability": "view",
      "type": "function"
    },
    {
      "constant": true,
      "inputs": [
        {
          "name": "patientId",
          "type": "address"
        },
        {
          "name": "offset",
          "type": "uint256"
        },
        {
          "name": "limit",
          "type": "uint256"
        },
        {
          "name": "seed",
          "type": "uint256"
        }
      ],
      "name": "fetchTreatmentRequestsForPatient",
      "outputs": [
        {
          "name": "",
          "type": "uint256"
        },
        {
          "name": "",
          "type": "uint256[]"
        }
      ],
      "payable": false,
      "stateMutability": "view",
      "type": "function"
    },
    {
      "constant": false,
      "inputs": [
        {
          "name": "newOwner",
          "type": "address"
        }
      ],
      "name": "transferOwnership",
      "outputs": [],
      "payable": false,
      "stateMutability": "nonpayable",
      "type": "function"
    },
    {
      "inputs": [
        {
          "name": "_dbAddress",
          "type": "address"
        }
      ],
      "payable": false,
      "stateMutability": "nonpayable",
      "type": "constructor"
    },
    {
      "anonymous": false,
      "inputs": [
        {
          "indexed": false,
          "name": "status",
          "type": "uint8"
        }
      ],
      "name": "OnSmartContractStatusSet",
      "type": "event"
    },
    {
      "anonymous": false,
      "inputs": [
        {
          "indexed": true,
          "name": "previousOwner",
          "type": "address"
        },
        {
          "indexed": true,
          "name": "newOwner",
          "type": "address"
        }
      ],
      "name": "OwnershipTransferred",
      "type": "event"
    }
  ],
  "bytecode": "0x6060604052341561000f57600080fd5b604051602080610f6c83398101604052808051906020019091905050336000806101000a81548173ffffffffffffffffffffffffffffffffffffffff021916908373ffffffffffffffffffffffffffffffffffffffff16021790555060008173ffffffffffffffffffffffffffffffffffffffff161415151561009157600080fd5b80600160006101000a81548173ffffffffffffffffffffffffffffffffffffffff021916908373ffffffffffffffffffffffffffffffffffffffff16021790555050610e8a806100e26000396000f300606060405260043610610078576000357c0100000000000000000000000000000000000000000000000000000000900463ffffffff1680634c8ddddc1461007d5780638da5cb5b146100ac5780638f5fb6631461010157806391e06b6d14610192578063c9db9ef0146101e7578063f2fde38b14610297575b600080fd5b341561008857600080fd5b6100906102d0565b604051808260ff1660ff16815260200191505060405180910390f35b34156100b757600080fd5b6100bf6102e3565b604051808273ffffffffffffffffffffffffffffffffffffffff1673ffffffffffffffffffffffffffffffffffffffff16815260200191505060405180910390f35b341561010c57600080fd5b6101346004808035906020019091908035906020019091908035906020019091905050610308565b6040518083815260200180602001828103825283818151815260200191508051906020019060200280838360005b8381101561017d578082015181840152602081019050610162565b50505050905001935050505060405180910390f35b341561019d57600080fd5b6101a561034c565b604051808273ffffffffffffffffffffffffffffffffffffffff1673ffffffffffffffffffffffffffffffffffffffff16815260200191505060405180910390f35b34156101f257600080fd5b610239600480803573ffffffffffffffffffffffffffffffffffffffff16906020019091908035906020019091908035906020019091908035906020019091905050610372565b6040518083815260200180602001828103825283818151815260200191508051906020019060200280838360005b83811015610282578082015181840152602081019050610267565b50505050905001935050505060405180910390f35b34156102a257600080fd5b6102ce600480803573ffffffffffffffffffffffffffffffffffffffff169060200190919050506103b8565b005b600160149054906101000a900460ff1681565b6000809054906101000a900473ffffffffffffffffffffffffffffffffffffffff1681565b6000610312610e4a565b610340600160009054906101000a900473ffffffffffffffffffffffffffffffffffffffff1686868661050d565b91509150935093915050565b600160009054906101000a900473ffffffffffffffffffffffffffffffffffffffff1681565b600061037c610e4a565b6103ab600160009054906101000a900473ffffffffffffffffffffffffffffffffffffffff168787878761053f565b9150915094509492505050565b6000809054906101000a900473ffffffffffffffffffffffffffffffffffffffff1673ffffffffffffffffffffffffffffffffffffffff163373ffffffffffffffffffffffffffffffffffffffff1614151561041357600080fd5b600073ffffffffffffffffffffffffffffffffffffffff168173ffffffffffffffffffffffffffffffffffffffff161415151561044f57600080fd5b8073ffffffffffffffffffffffffffffffffffffffff166000809054906101000a900473ffffffffffffffffffffffffffffffffffffffff1673ffffffffffffffffffffffffffffffffffffffff167f8be0079c531659141344cd1fd0a4f28419497f9722a3daafe3b4186f6b6457e060405160405180910390a3806000806101000a81548173ffffffffffffffffffffffffffffffffffffffff021916908373ffffffffffffffffffffffffffffffffffffffff16021790555050565b6000610517610e4a565b61052086610573565b905061052e818686866105f7565b809250819350505094509492505050565b6000610549610e4a565b6105538787610667565b9050610561818686866105f7565b80925081935050509550959350505050565b61057b610e4a565b6105f0826040805190810160405280601181526020017f74726561746d656e742d726571756573740000000000000000000000000000008152506040805190810160405280601881526020017f74726561746d656e742d72657175657374732d636f756e7400000000000000008152506106ed565b9050919050565b6000610601610e4a565b8551915060008651111561065d57855185111561062d578161062460008861095d565b9150915061065e565b8551848601111561063f578486510393505b61065a86875187860181151561065157fe5b068660016109f2565b90505b5b94509492505050565b61066f610e4a565b6106e583836040805190810160405280601981526020017f70617469656e742f74726561746d656e742d72657175657374000000000000008152506040805190810160405280602081526020017f70617469656e742f74726561746d656e742d72657175657374732d636f756e74815250610b3d565b905092915050565b6106f5610e4a565b6000808573ffffffffffffffffffffffffffffffffffffffff1663bdc963d8856040518082805190602001908083835b60208310151561074a5780518252602082019150602081019050602083039250610725565b6001836020036101000a03801982511681845116808217855250505050505090500191505060405180910390206000604051602001526040518263ffffffff167c0100000000000000000000000000000000000000000000000000000000028152600401808260001916600019168152602001915050602060405180830381600087803b15156107d957600080fd5b6102c65a03f115156107ea57600080fd5b505050604051805190509150816040518059106108045750595b90808252806020026020018201604052509250600090505b81811015610951578573ffffffffffffffffffffffffffffffffffffffff1663bdc963d886836040518083805190602001908083835b6020831015156108775780518252602082019150602081019050602083039250610852565b6001836020036101000a0380198251168184511680821785525050505050509050018281526020019250505060405180910390206000604051602001526040518263ffffffff167c0100000000000000000000000000000000000000000000000000000000028152600401808260001916600019168152602001915050602060405180830381600087803b151561090d57600080fd5b6102c65a03f1151561091e57600080fd5b50505060405180519050838281518110151561093657fe5b9060200190602002018181525050808060010191505061081c565b82925050509392505050565b610965610e4a565b60008251841115610978578291506109eb565b836040518059106109865750595b90808252806020026020018201604052509150600090505b838110156109e75782818151811015156109b457fe5b9060200190602002015182828151811015156109cc57fe5b9060200190602002018181525050808060010191505061099e565b8191505b5092915050565b6109fa610e4a565b60008060008060009350885192508288101580610a175750600087145b15610a2457849450610b31565b86604051805910610a325750595b908082528060200260200182016040525094508791505b868801821015610aa95781831415610a6057610aa9565b8882815181101515610a6e57fe5b906020019060200201518585815181101515610a8657fe5b906020019060200201818152505083806001019450508180600101925050610a49565b858015610ab557508684105b15610b24578387039050600091505b8082111515610b235783871415610ada57610b23565b8882815181101515610ae857fe5b906020019060200201518585815181101515610b0057fe5b906020019060200201818152505083806001019450508180600101925050610ac4565b5b610b2e848661095d565b94505b50505050949350505050565b610b45610e4a565b600080610b53878786610d00565b915081604051805910610b635750595b90808252806020026020018201604052509250600090505b81811015610cf3578673ffffffffffffffffffffffffffffffffffffffff1663bdc963d88688846040518084805190602001908083835b602083101515610bd75780518252602082019150602081019050602083039250610bb2565b6001836020036101000a0380198251168184511680821785525050505050509050018373ffffffffffffffffffffffffffffffffffffffff1673ffffffffffffffffffffffffffffffffffffffff166c01000000000000000000000000028152601401828152602001935050505060405180910390206000604051602001526040518263ffffffff167c0100000000000000000000000000000000000000000000000000000000028152600401808260001916600019168152602001915050602060405180830381600087803b1515610caf57600080fd5b6102c65a03f11515610cc057600080fd5b505050604051805190508382815181101515610cd857fe5b90602001906020020181815250508080600101915050610b7b565b8292505050949350505050565b60008373ffffffffffffffffffffffffffffffffffffffff1663bdc963d883856040518083805190602001908083835b602083101515610d555780518252602082019150602081019050602083039250610d30565b6001836020036101000a0380198251168184511680821785525050505050509050018273ffffffffffffffffffffffffffffffffffffffff1673ffffffffffffffffffffffffffffffffffffffff166c010000000000000000000000000281526014019250505060405180910390206000604051602001526040518263ffffffff167c0100000000000000000000000000000000000000000000000000000000028152600401808260001916600019168152602001915050602060405180830381600087803b1515610e2657600080fd5b6102c65a03f11515610e3757600080fd5b5050506040518051905090509392505050565b6020604051908101604052806000815250905600a165627a7a72305820103b4313c69f61eb6ab204d01a5c2c7127e70494b2d2ac87aee0494f6d1543390029",
  "source": "pragma solidity 0.4.18;\n\nimport \"./Restrictor.sol\";\nimport \"../lib/odll/userManager.sol\";\n\ncontract TreatmentRequestReader is Restrictor {\n\n  function TreatmentRequestReader (address _dbAddress) public {\n    require(_dbAddress != 0x0);\n    dbAddress = _dbAddress;\n  }\n\n  function fetchTreatmentRequestsForPatient (\n    address patientId,\n    uint offset, // starting from offset: 0-based\n    uint limit, // not more than limit\n    uint seed // seed value to give the illusion of randomisation\n  )\n    external\n    view\n    returns (\n      uint,\n      uint[]\n    )\n  {\n    return userManager.fetchTreatmentRequestsForPatient(dbAddress, patientId, offset, limit, seed);\n  }\n\n  function fetchAllTreatmentRequests (\n    uint offset, // starting from offset: 0-based\n    uint limit, // not more than limit\n    uint seed // seed value to give the illusion of randomisation\n  )\n    external\n    view\n    returns (\n      uint,\n      uint[]\n    )\n  {\n    return userManager.fetchAllTreatmentRequests(dbAddress, offset, limit, seed);\n  }\n}\n",
  "sourcePath": "/Users/danielokwufulueze/dev/vue/apps/oraldatalink/contracts/odll/TreatmentRequestReader.sol",
  "compiler": {
    "name": "solc",
    "version": "0.4.18+commit.9cf6e910.Emscripten.clang"
  },
  "schemaVersion": "1.0.1",
  "updatedAt": "2017-11-26T14:39:38.574Z"
}