{
  "contractName": "TreatmentApplicationWriter",
  "abi": [
    {
      "constant": false,
      "inputs": [
        {
          "name": "patientId",
          "type": "address"
        },
        {
          "name": "treatmentApplicationId",
          "type": "uint256"
        }
      ],
      "name": "cancelTreatmentApplication",
      "outputs": [],
      "payable": false,
      "stateMutability": "nonpayable",
      "type": "function"
    },
    {
      "constant": false,
      "inputs": [
        {
          "name": "userId",
          "type": "address"
        },
        {
          "name": "paymentId",
          "type": "uint256"
        }
      ],
      "name": "lockPayment",
      "outputs": [],
      "payable": false,
      "stateMutability": "nonpayable",
      "type": "function"
    },
    {
      "constant": true,
      "inputs": [],
      "name": "smartContractStatus",
      "outputs": [
        {
          "name": "",
          "type": "uint8"
        }
      ],
      "payable": false,
      "stateMutability": "view",
      "type": "function"
    },
    {
      "constant": false,
      "inputs": [
        {
          "name": "dentistId",
          "type": "address"
        },
        {
          "name": "treatmentId",
          "type": "uint256"
        }
      ],
      "name": "markTreatmentDone",
      "outputs": [],
      "payable": false,
      "stateMutability": "nonpayable",
      "type": "function"
    },
    {
      "constant": true,
      "inputs": [],
      "name": "owner",
      "outputs": [
        {
          "name": "",
          "type": "address"
        }
      ],
      "payable": false,
      "stateMutability": "view",
      "type": "function"
    },
    {
      "constant": true,
      "inputs": [],
      "name": "dbAddress",
      "outputs": [
        {
          "name": "",
          "type": "address"
        }
      ],
      "payable": false,
      "stateMutability": "view",
      "type": "function"
    },
    {
      "constant": false,
      "inputs": [
        {
          "name": "dentistId",
          "type": "address"
        },
        {
          "name": "treatmentId",
          "type": "uint256"
        }
      ],
      "name": "cancelTreatment",
      "outputs": [],
      "payable": false,
      "stateMutability": "nonpayable",
      "type": "function"
    },
    {
      "constant": false,
      "inputs": [
        {
          "name": "patientId",
          "type": "address"
        },
        {
          "name": "treatmentRequestId",
          "type": "uint256"
        },
        {
          "name": "quote",
          "type": "uint256"
        },
        {
          "name": "comment",
          "type": "string"
        }
      ],
      "name": "applyToTreat",
      "outputs": [],
      "payable": false,
      "stateMutability": "nonpayable",
      "type": "function"
    },
    {
      "constant": false,
      "inputs": [
        {
          "name": "newOwner",
          "type": "address"
        }
      ],
      "name": "transferOwnership",
      "outputs": [],
      "payable": false,
      "stateMutability": "nonpayable",
      "type": "function"
    },
    {
      "inputs": [
        {
          "name": "_dbAddress",
          "type": "address"
        }
      ],
      "payable": false,
      "stateMutability": "nonpayable",
      "type": "constructor"
    },
    {
      "anonymous": false,
      "inputs": [
        {
          "indexed": false,
          "name": "paymentId",
          "type": "uint256"
        }
      ],
      "name": "PaymentLocked",
      "type": "event"
    },
    {
      "anonymous": false,
      "inputs": [
        {
          "indexed": false,
          "name": "status",
          "type": "uint8"
        }
      ],
      "name": "OnSmartContractStatusSet",
      "type": "event"
    },
    {
      "anonymous": false,
      "inputs": [
        {
          "indexed": true,
          "name": "previousOwner",
          "type": "address"
        },
        {
          "indexed": true,
          "name": "newOwner",
          "type": "address"
        }
      ],
      "name": "OwnershipTransferred",
      "type": "event"
    }
  ],
  "bytecode": "0x6060604052341561000f57600080fd5b60405160208061364283398101604052808051906020019091905050336000806101000a81548173ffffffffffffffffffffffffffffffffffffffff021916908373ffffffffffffffffffffffffffffffffffffffff16021790555060008173ffffffffffffffffffffffffffffffffffffffff161415151561009157600080fd5b80600160006101000a81548173ffffffffffffffffffffffffffffffffffffffff021916908373ffffffffffffffffffffffffffffffffffffffff16021790555050613560806100e26000396000f300606060405260043610610099576000357c0100000000000000000000000000000000000000000000000000000000900463ffffffff16806307c2759d1461009e5780633f4b1470146100e05780634c8ddddc14610122578063797c6ae6146101515780638da5cb5b1461019357806391e06b6d146101e8578063b0e78e8b1461023d578063bfca80481461027f578063f2fde38b146102de575b600080fd5b34156100a957600080fd5b6100de600480803573ffffffffffffffffffffffffffffffffffffffff16906020019091908035906020019091905050610317565b005b34156100eb57600080fd5b610120600480803573ffffffffffffffffffffffffffffffffffffffff16906020019091908035906020019091905050610349565b005b341561012d57600080fd5b6101356105a0565b604051808260ff1660ff16815260200191505060405180910390f35b341561015c57600080fd5b610191600480803573ffffffffffffffffffffffffffffffffffffffff169060200190919080359060200190919050506105b3565b005b341561019e57600080fd5b6101a66105e5565b604051808273ffffffffffffffffffffffffffffffffffffffff1673ffffffffffffffffffffffffffffffffffffffff16815260200191505060405180910390f35b34156101f357600080fd5b6101fb61060a565b604051808273ffffffffffffffffffffffffffffffffffffffff1673ffffffffffffffffffffffffffffffffffffffff16815260200191505060405180910390f35b341561024857600080fd5b61027d600480803573ffffffffffffffffffffffffffffffffffffffff16906020019091908035906020019091905050610630565b005b341561028a57600080fd5b6102dc600480803573ffffffffffffffffffffffffffffffffffffffff169060200190919080359060200190919080359060200190919080359060200190820180359060200191909192905050610662565b005b34156102e957600080fd5b610315600480803573ffffffffffffffffffffffffffffffffffffffff169060200190919050506106cb565b005b610345600160009054906101000a900473ffffffffffffffffffffffffffffffffffffffff16338484610820565b5050565b8161035381610832565b151561035e57600080fd5b8160018060ff16600160009054906101000a900473ffffffffffffffffffffffffffffffffffffffff1673ffffffffffffffffffffffffffffffffffffffff16637a0e03ec8460405180807f7061796d656e742f737461746500000000000000000000000000000000000000815250600d0182815260200191505060405180910390206000604051602001526040518263ffffffff167c0100000000000000000000000000000000000000000000000000000000028152600401808260001916600019168152602001915050602060405180830381600087803b151561044357600080fd5b6102c65a03f1151561045457600080fd5b5050506040518051905060ff1614151561046d57600080fd5b600160009054906101000a900473ffffffffffffffffffffffffffffffffffffffff1673ffffffffffffffffffffffffffffffffffffffff16630bd851588560405180807f7061796d656e742f737461746500000000000000000000000000000000000000815250600d01828152602001915050604051809103902060026040518363ffffffff167c01000000000000000000000000000000000000000000000000000000000281526004018083600019166000191681526020018260ff16815260200192505050600060405180830381600087803b151561054e57600080fd5b6102c65a03f1151561055f57600080fd5b5050507fa5f78a79f83dfad686a63ca003a42f6c262d9fdc43a6742c56f5c27c11b9a1e2846040518082815260200191505060405180910390a15050505050565b600160149054906101000a900460ff1681565b6105e1600160009054906101000a900473ffffffffffffffffffffffffffffffffffffffff16833384610859565b5050565b6000809054906101000a900473ffffffffffffffffffffffffffffffffffffffff1681565b600160009054906101000a900473ffffffffffffffffffffffffffffffffffffffff1681565b61065e600160009054906101000a900473ffffffffffffffffffffffffffffffffffffffff1683338461086b565b5050565b6106c4600160009054906101000a900473ffffffffffffffffffffffffffffffffffffffff163387878787878080601f01602080910402602001604051908101604052809392919081815260200183838082843782019150505050505061087d565b5050505050565b6000809054906101000a900473ffffffffffffffffffffffffffffffffffffffff1673ffffffffffffffffffffffffffffffffffffffff163373ffffffffffffffffffffffffffffffffffffffff1614151561072657600080fd5b600073ffffffffffffffffffffffffffffffffffffffff168173ffffffffffffffffffffffffffffffffffffffff161415151561076257600080fd5b8073ffffffffffffffffffffffffffffffffffffffff166000809054906101000a900473ffffffffffffffffffffffffffffffffffffffff1673ffffffffffffffffffffffffffffffffffffffff167f8be0079c531659141344cd1fd0a4f28419497f9722a3daafe3b4186f6b6457e060405160405180910390a3806000806101000a81548173ffffffffffffffffffffffffffffffffffffffff021916908373ffffffffffffffffffffffffffffffffffffffff16021790555050565b61082c84848484610893565b50505050565b600061083f826001610c6e565b80156108525750610851826001610c89565b5b9050919050565b61086584848484610ca4565b50505050565b6108778484848461107f565b50505050565b61088b86868686868661145a565b505050505050565b60018473ffffffffffffffffffffffffffffffffffffffff16637a0e03ec8360405180807f74726561746d656e742d6170706c69636174696f6e2f73746174757300000000815250601c0182815260200191505060405180910390206000604051602001526040518263ffffffff167c0100000000000000000000000000000000000000000000000000000000028152600401808260001916600019168152602001915050602060405180830381600087803b151561095157600080fd5b6102c65a03f1151561096257600080fd5b5050506040518051905060ff16148015610a7d57508273ffffffffffffffffffffffffffffffffffffffff168473ffffffffffffffffffffffffffffffffffffffff16634c77e5ba8360405180807f74726561746d656e742d6170706c69636174696f6e2f64656e74697374000000815250601d0182815260200191505060405180910390206000604051602001526040518263ffffffff167c0100000000000000000000000000000000000000000000000000000000028152600401808260001916600019168152602001915050602060405180830381600087803b1515610a4a57600080fd5b6102c65a03f11515610a5b57600080fd5b5050506040518051905073ffffffffffffffffffffffffffffffffffffffff16145b8015610b8a57508173ffffffffffffffffffffffffffffffffffffffff168473ffffffffffffffffffffffffffffffffffffffff16634c77e5ba8360405180807f74726561746d656e742d6170706c69636174696f6e2f70617469656e74000000815250601d0182815260200191505060405180910390206000604051602001526040518263ffffffff167c0100000000000000000000000000000000000000000000000000000000028152600401808260001916600019168152602001915050602060405180830381600087803b1515610b5757600080fd5b6102c65a03f11515610b6857600080fd5b5050506040518051905073ffffffffffffffffffffffffffffffffffffffff16145b1515610b9557600080fd5b8373ffffffffffffffffffffffffffffffffffffffff16630bd851588260405180807f74726561746d656e742d6170706c69636174696f6e2f73746174757300000000815250601c01828152602001915050604051809103902060036040518363ffffffff167c01000000000000000000000000000000000000000000000000000000000281526004018083600019166000191681526020018260ff16815260200192505050600060405180830381600087803b1515610c5457600080fd5b6102c65a03f11515610c6557600080fd5b50505050505050565b6000610c7983611470565b60ff168260ff1614905092915050565b6000610c94836115ad565b60ff168260ff1614905092915050565b60018473ffffffffffffffffffffffffffffffffffffffff16637a0e03ec8360405180807f74726561746d656e742f7374617475730000000000000000000000000000000081525060100182815260200191505060405180910390206000604051602001526040518263ffffffff167c0100000000000000000000000000000000000000000000000000000000028152600401808260001916600019168152602001915050602060405180830381600087803b1515610d6257600080fd5b6102c65a03f11515610d7357600080fd5b5050506040518051905060ff16148015610e8e57508273ffffffffffffffffffffffffffffffffffffffff168473ffffffffffffffffffffffffffffffffffffffff16634c77e5ba8360405180807f74726561746d656e742f64656e7469737400000000000000000000000000000081525060110182815260200191505060405180910390206000604051602001526040518263ffffffff167c0100000000000000000000000000000000000000000000000000000000028152600401808260001916600019168152602001915050602060405180830381600087803b1515610e5b57600080fd5b6102c65a03f11515610e6c57600080fd5b5050506040518051905073ffffffffffffffffffffffffffffffffffffffff16145b8015610f9b57508173ffffffffffffffffffffffffffffffffffffffff168473ffffffffffffffffffffffffffffffffffffffff16634c77e5ba8360405180807f74726561746d656e742f70617469656e7400000000000000000000000000000081525060110182815260200191505060405180910390206000604051602001526040518263ffffffff167c0100000000000000000000000000000000000000000000000000000000028152600401808260001916600019168152602001915050602060405180830381600087803b1515610f6857600080fd5b6102c65a03f11515610f7957600080fd5b5050506040518051905073ffffffffffffffffffffffffffffffffffffffff16145b1515610fa657600080fd5b8373ffffffffffffffffffffffffffffffffffffffff16630bd851588260405180807f74726561746d656e742f73746174757300000000000000000000000000000000815250601001828152602001915050604051809103902060026040518363ffffffff167c01000000000000000000000000000000000000000000000000000000000281526004018083600019166000191681526020018260ff16815260200192505050600060405180830381600087803b151561106557600080fd5b6102c65a03f1151561107657600080fd5b50505050505050565b60018473ffffffffffffffffffffffffffffffffffffffff16637a0e03ec8360405180807f74726561746d656e742f7374617475730000000000000000000000000000000081525060100182815260200191505060405180910390206000604051602001526040518263ffffffff167c0100000000000000000000000000000000000000000000000000000000028152600401808260001916600019168152602001915050602060405180830381600087803b151561113d57600080fd5b6102c65a03f1151561114e57600080fd5b5050506040518051905060ff1614801561126957508273ffffffffffffffffffffffffffffffffffffffff168473ffffffffffffffffffffffffffffffffffffffff16634c77e5ba8360405180807f74726561746d656e742f64656e7469737400000000000000000000000000000081525060110182815260200191505060405180910390206000604051602001526040518263ffffffff167c0100000000000000000000000000000000000000000000000000000000028152600401808260001916600019168152602001915050602060405180830381600087803b151561123657600080fd5b6102c65a03f1151561124757600080fd5b5050506040518051905073ffffffffffffffffffffffffffffffffffffffff16145b801561137657508173ffffffffffffffffffffffffffffffffffffffff168473ffffffffffffffffffffffffffffffffffffffff16634c77e5ba8360405180807f74726561746d656e742f70617469656e7400000000000000000000000000000081525060110182815260200191505060405180910390206000604051602001526040518263ffffffff167c0100000000000000000000000000000000000000000000000000000000028152600401808260001916600019168152602001915050602060405180830381600087803b151561134357600080fd5b6102c65a03f1151561135457600080fd5b5050506040518051905073ffffffffffffffffffffffffffffffffffffffff16145b151561138157600080fd5b8373ffffffffffffffffffffffffffffffffffffffff16630bd851588260405180807f74726561746d656e742f73746174757300000000000000000000000000000000815250601001828152602001915050604051809103902060036040518363ffffffff167c01000000000000000000000000000000000000000000000000000000000281526004018083600019166000191681526020018260ff16815260200192505050600060405180830381600087803b151561144057600080fd5b6102c65a03f1151561145157600080fd5b50505050505050565b6114688686868686866116ea565b505050505050565b6000600160009054906101000a900473ffffffffffffffffffffffffffffffffffffffff1673ffffffffffffffffffffffffffffffffffffffff16637a0e03ec8360405180807f757365722f7479706500000000000000000000000000000000000000000000008152506009018273ffffffffffffffffffffffffffffffffffffffff1673ffffffffffffffffffffffffffffffffffffffff166c0100000000000000000000000002815260140191505060405180910390206000604051602001526040518263ffffffff167c0100000000000000000000000000000000000000000000000000000000028152600401808260001916600019168152602001915050602060405180830381600087803b151561158b57600080fd5b6102c65a03f1151561159c57600080fd5b505050604051805190509050919050565b6000600160009054906101000a900473ffffffffffffffffffffffffffffffffffffffff1673ffffffffffffffffffffffffffffffffffffffff16637a0e03ec8360405180807f757365722f737461747573000000000000000000000000000000000000000000815250600b018273ffffffffffffffffffffffffffffffffffffffff1673ffffffffffffffffffffffffffffffffffffffff166c0100000000000000000000000002815260140191505060405180910390206000604051602001526040518263ffffffff167c0100000000000000000000000000000000000000000000000000000000028152600401808260001916600019168152602001915050602060405180830381600087803b15156116c857600080fd5b6102c65a03f115156116d957600080fd5b505050604051805190509050919050565b60008060008061172f8a6040805190810160405280601c81526020017f74726561746d656e742d6170706c69636174696f6e732d636f756e740000000081525061211c565b935060008a73ffffffffffffffffffffffffffffffffffffffff16637a0e03ec8660405180807f74726561746d656e742d6170706c69636174696f6e2f73746174757300000000815250601c0182815260200191505060405180910390206000604051602001526040518263ffffffff167c0100000000000000000000000000000000000000000000000000000000028152600401808260001916600019168152602001915050602060405180830381600087803b15156117ef57600080fd5b6102c65a03f1151561180057600080fd5b5050506040518051905060ff161480156118f3575060018a73ffffffffffffffffffffffffffffffffffffffff16637a0e03ec8960405180807f74726561746d656e742d726571756573742f737461747573000000000000000081525060180182815260200191505060405180910390206000604051602001526040518263ffffffff167c0100000000000000000000000000000000000000000000000000000000028152600401808260001916600019168152602001915050602060405180830381600087803b15156118d357600080fd5b6102c65a03f115156118e457600080fd5b5050506040518051905060ff16145b8015611a0057508773ffffffffffffffffffffffffffffffffffffffff168a73ffffffffffffffffffffffffffffffffffffffff16634c77e5ba8960405180807f74726561746d656e742d726571756573742f70617469656e740000000000000081525060190182815260200191505060405180910390206000604051602001526040518263ffffffff167c0100000000000000000000000000000000000000000000000000000000028152600401808260001916600019168152602001915050602060405180830381600087803b15156119cd57600080fd5b6102c65a03f115156119de57600080fd5b5050506040518051905073ffffffffffffffffffffffffffffffffffffffff16145b1515611a0b57600080fd5b600092505b83831015611fde578973ffffffffffffffffffffffffffffffffffffffff1663bdc963d88a8560405180807f64656e746973742f74726561746d656e742d6170706c69636174696f6e000000815250601d018373ffffffffffffffffffffffffffffffffffffffff1673ffffffffffffffffffffffffffffffffffffffff166c010000000000000000000000000281526014018281526020019250505060405180910390206000604051602001526040518263ffffffff167c0100000000000000000000000000000000000000000000000000000000028152600401808260001916600019168152602001915050602060405180830381600087803b1515611b1757600080fd5b6102c65a03f11515611b2857600080fd5b5050506040518051905091508973ffffffffffffffffffffffffffffffffffffffff1663bdc963d88360405180807f74726561746d656e742d6170706c69636174696f6e2f74726561746d656e742d81526020017f726571756573740000000000000000000000000000000000000000000000000081525060270182815260200191505060405180910390206000604051602001526040518263ffffffff167c0100000000000000000000000000000000000000000000000000000000028152600401808260001916600019168152602001915050602060405180830381600087803b1515611c1657600080fd5b6102c65a03f11515611c2757600080fd5b5050506040518051905090508681148015611fc7575060018a73ffffffffffffffffffffffffffffffffffffffff16637a0e03ec8460405180807f74726561746d656e742d6170706c69636174696f6e2f73746174757300000000815250601c0182815260200191505060405180910390206000604051602001526040518263ffffffff167c0100000000000000000000000000000000000000000000000000000000028152600401808260001916600019168152602001915050602060405180830381600087803b1515611cfb57600080fd5b6102c65a03f11515611d0c57600080fd5b5050506040518051905060ff161480611dfe575060028a73ffffffffffffffffffffffffffffffffffffffff16637a0e03ec8460405180807f74726561746d656e742d6170706c69636174696f6e2f73746174757300000000815250601c0182815260200191505060405180910390206000604051602001526040518263ffffffff167c0100000000000000000000000000000000000000000000000000000000028152600401808260001916600019168152602001915050602060405180830381600087803b1515611dde57600080fd5b6102c65a03f11515611def57600080fd5b5050506040518051905060ff16145b80611ee2575060048a73ffffffffffffffffffffffffffffffffffffffff16637a0e03ec8460405180807f74726561746d656e742d6170706c69636174696f6e2f73746174757300000000815250601c0182815260200191505060405180910390206000604051602001526040518263ffffffff167c0100000000000000000000000000000000000000000000000000000000028152600401808260001916600019168152602001915050602060405180830381600087803b1515611ec257600080fd5b6102c65a03f11515611ed357600080fd5b5050506040518051905060ff16145b80611fc6575060058a73ffffffffffffffffffffffffffffffffffffffff16637a0e03ec8460405180807f74726561746d656e742d6170706c69636174696f6e2f73746174757300000000815250601c0182815260200191505060405180910390206000604051602001526040518263ffffffff167c0100000000000000000000000000000000000000000000000000000000028152600401808260001916600019168152602001915050602060405180830381600087803b1515611fa657600080fd5b6102c65a03f11515611fb757600080fd5b5050506040518051905060ff16145b5b15611fd157612110565b8280600101935050611a10565b8973ffffffffffffffffffffffffffffffffffffffff16633eba9ed28a8960405180807f64656e746973742f74726561746d656e742d72657175657374000000000000008152506019018373ffffffffffffffffffffffffffffffffffffffff1673ffffffffffffffffffffffffffffffffffffffff166c0100000000000000000000000002815260140182815260200192505050604051809103902060016040518363ffffffff167c01000000000000000000000000000000000000000000000000000000000281526004018083600019166000191681526020018215151515815260200192505050600060405180830381600087803b15156120e157600080fd5b6102c65a03f115156120f257600080fd5b5050506121008a8886612222565b61210f8a8a8a8a888b8b612534565b5b50505050505050505050565b60008273ffffffffffffffffffffffffffffffffffffffff1663bdc963d8836040518082805190602001908083835b602083101515612170578051825260208201915060208101905060208303925061214b565b6001836020036101000a03801982511681845116808217855250505050505090500191505060405180910390206000604051602001526040518263ffffffff167c0100000000000000000000000000000000000000000000000000000000028152600401808260001916600019168152602001915050602060405180830381600087803b15156121ff57600080fd5b6102c65a03f1151561221057600080fd5b50505060405180519050905092915050565b8273ffffffffffffffffffffffffffffffffffffffff16630bd851588260405180807f74726561746d656e742d6170706c69636174696f6e2f73746174757300000000815250601c01828152602001915050604051809103902060016040518363ffffffff167c01000000000000000000000000000000000000000000000000000000000281526004018083600019166000191681526020018260ff16815260200192505050600060405180830381600087803b15156122e157600080fd5b6102c65a03f115156122f257600080fd5b5050508273ffffffffffffffffffffffffffffffffffffffff16633562fd208260405180807f74726561746d656e742d6170706c69636174696f6e2f637265617465642d6f6e8152506020018281526020019150506040518091039020426040518363ffffffff167c010000000000000000000000000000000000000000000000000000000002815260040180836000191660001916815260200182815260200192505050600060405180830381600087803b15156123b057600080fd5b6102c65a03f115156123c157600080fd5b5050508273ffffffffffffffffffffffffffffffffffffffff16633562fd208260405180807f74726561746d656e742d6170706c69636174696f6e2f74726561746d656e742d81526020017f72657175657374000000000000000000000000000000000000000000000000008152506027018281526020019150506040518091039020846040518363ffffffff167c010000000000000000000000000000000000000000000000000000000002815260040180836000191660001916815260200182815260200192505050600060405180830381600087803b15156124a557600080fd5b6102c65a03f115156124b657600080fd5b50505061252f836040805190810160405280601581526020017f74726561746d656e742d6170706c69636174696f6e00000000000000000000008152506040805190810160405280601c81526020017f74726561746d656e742d6170706c69636174696f6e732d636f756e740000000081525084612b37565b505050565b8673ffffffffffffffffffffffffffffffffffffffff16633562fd208460405180807f74726561746d656e742d6170706c69636174696f6e2f71756f74650000000000815250601b018281526020019150506040518091039020846040518363ffffffff167c010000000000000000000000000000000000000000000000000000000002815260040180836000191660001916815260200182815260200192505050600060405180830381600087803b15156125ef57600080fd5b6102c65a03f1151561260057600080fd5b5050508673ffffffffffffffffffffffffffffffffffffffff1663f58660668460405180807f74726561746d656e742d6170706c69636174696f6e2f636f6d6d656e74000000815250601d018281526020019150506040518091039020836040518363ffffffff167c010000000000000000000000000000000000000000000000000000000002815260040180836000191660001916815260200180602001828103825283818151815260200191508051906020019080838360005b838110156126d75780820151818401526020810190506126bc565b50505050905090810190601f1680156127045780820380516001836020036101000a031916815260200191505b509350505050600060405180830381600087803b151561272357600080fd5b6102c65a03f1151561273457600080fd5b5050508673ffffffffffffffffffffffffffffffffffffffff16635a2bf25a8460405180807f74726561746d656e742d6170706c69636174696f6e2f64656e74697374000000815250601d018281526020019150506040518091039020886040518363ffffffff167c01000000000000000000000000000000000000000000000000000000000281526004018083600019166000191681526020018273ffffffffffffffffffffffffffffffffffffffff1673ffffffffffffffffffffffffffffffffffffffff16815260200192505050600060405180830381600087803b151561281e57600080fd5b6102c65a03f1151561282f57600080fd5b5050508673ffffffffffffffffffffffffffffffffffffffff16635a2bf25a8460405180807f74726561746d656e742d6170706c69636174696f6e2f70617469656e74000000815250601d018281526020019150506040518091039020876040518363ffffffff167c01000000000000000000000000000000000000000000000000000000000281526004018083600019166000191681526020018273ffffffffffffffffffffffffffffffffffffffff1673ffffffffffffffffffffffffffffffffffffffff16815260200192505050600060405180830381600087803b151561291957600080fd5b6102c65a03f1151561292a57600080fd5b5050506129cb87876040805190810160405280601d81526020017f64656e746973742f74726561746d656e742d6170706c69636174696f6e000000815250606060405190810160405280602481526020017f64656e746973742f74726561746d656e742d6170706c69636174696f6e732d6381526020017f6f756e740000000000000000000000000000000000000000000000000000000081525087612e31565b612a6987866040805190810160405280601d81526020017f70617469656e742f74726561746d656e742d6170706c69636174696f6e000000815250606060405190810160405280602481526020017f70617469656e742f74726561746d656e742d6170706c69636174696f6e732d6381526020017f6f756e740000000000000000000000000000000000000000000000000000000081525087612e31565b612b2e8785606060405190810160405280602781526020017f74726561746d656e742d726571756573742f74726561746d656e742d6170706c81526020017f69636174696f6e00000000000000000000000000000000000000000000000000815250606060405190810160405280602e81526020017f74726561746d656e742d726571756573742f74726561746d656e742d6170706c81526020017f69636174696f6e732d636f756e74000000000000000000000000000000000000815250876130c1565b50505050505050565b60008473ffffffffffffffffffffffffffffffffffffffff1663bdc963d8846040518082805190602001908083835b602083101515612b8b5780518252602082019150602081019050602083039250612b66565b6001836020036101000a03801982511681845116808217855250505050505090500191505060405180910390206000604051602001526040518263ffffffff167c0100000000000000000000000000000000000000000000000000000000028152600401808260001916600019168152602001915050602060405180830381600087803b1515612c1a57600080fd5b6102c65a03f11515612c2b57600080fd5b5050506040518051905090508473ffffffffffffffffffffffffffffffffffffffff16633562fd2085836040518083805190602001908083835b602083101515612c8a5780518252602082019150602081019050602083039250612c65565b6001836020036101000a038019825116818451168082178552505050505050905001828152602001925050506040518091039020846040518363ffffffff167c010000000000000000000000000000000000000000000000000000000002815260040180836000191660001916815260200182815260200192505050600060405180830381600087803b1515612d1f57600080fd5b6102c65a03f11515612d3057600080fd5b5050508473ffffffffffffffffffffffffffffffffffffffff16633562fd20846040518082805190602001908083835b602083101515612d855780518252602082019150602081019050602083039250612d60565b6001836020036101000a0380198251168184511680821785525050505050509050019150506040518091039020600184016040518363ffffffff167c010000000000000000000000000000000000000000000000000000000002815260040180836000191660001916815260200182815260200192505050600060405180830381600087803b1515612e1657600080fd5b6102c65a03f11515612e2757600080fd5b5050505050505050565b6000612e3e8686856132db565b90508573ffffffffffffffffffffffffffffffffffffffff16633562fd208587846040518084805190602001908083835b602083101515612e945780518252602082019150602081019050602083039250612e6f565b6001836020036101000a0380198251168184511680821785525050505050509050018373ffffffffffffffffffffffffffffffffffffffff1673ffffffffffffffffffffffffffffffffffffffff166c0100000000000000000000000002815260140182815260200193505050506040518091039020846040518363ffffffff167c010000000000000000000000000000000000000000000000000000000002815260040180836000191660001916815260200182815260200192505050600060405180830381600087803b1515612f6b57600080fd5b6102c65a03f11515612f7c57600080fd5b5050508573ffffffffffffffffffffffffffffffffffffffff16633562fd2084876040518083805190602001908083835b602083101515612fd25780518252602082019150602081019050602083039250612fad565b6001836020036101000a0380198251168184511680821785525050505050509050018273ffffffffffffffffffffffffffffffffffffffff1673ffffffffffffffffffffffffffffffffffffffff166c01000000000000000000000000028152601401925050506040518091039020600184016040518363ffffffff167c010000000000000000000000000000000000000000000000000000000002815260040180836000191660001916815260200182815260200192505050600060405180830381600087803b15156130a557600080fd5b6102c65a03f115156130b657600080fd5b505050505050505050565b60006130ce868685613425565b90508573ffffffffffffffffffffffffffffffffffffffff16633562fd208587846040518084805190602001908083835b60208310151561312457805182526020820191506020810190506020830392506130ff565b6001836020036101000a03801982511681845116808217855250505050505090500183815260200182815260200193505050506040518091039020846040518363ffffffff167c010000000000000000000000000000000000000000000000000000000002815260040180836000191660001916815260200182815260200192505050600060405180830381600087803b15156131c057600080fd5b6102c65a03f115156131d157600080fd5b5050508573ffffffffffffffffffffffffffffffffffffffff16633562fd2084876040518083805190602001908083835b6020831015156132275780518252602082019150602081019050602083039250613202565b6001836020036101000a038019825116818451168082178552505050505050905001828152602001925050506040518091039020600184016040518363ffffffff167c010000000000000000000000000000000000000000000000000000000002815260040180836000191660001916815260200182815260200192505050600060405180830381600087803b15156132bf57600080fd5b6102c65a03f115156132d057600080fd5b505050505050505050565b60008373ffffffffffffffffffffffffffffffffffffffff1663bdc963d883856040518083805190602001908083835b602083101515613330578051825260208201915060208101905060208303925061330b565b6001836020036101000a0380198251168184511680821785525050505050509050018273ffffffffffffffffffffffffffffffffffffffff1673ffffffffffffffffffffffffffffffffffffffff166c010000000000000000000000000281526014019250505060405180910390206000604051602001526040518263ffffffff167c0100000000000000000000000000000000000000000000000000000000028152600401808260001916600019168152602001915050602060405180830381600087803b151561340157600080fd5b6102c65a03f1151561341257600080fd5b5050506040518051905090509392505050565b60008373ffffffffffffffffffffffffffffffffffffffff1663bdc963d883856040518083805190602001908083835b60208310151561347a5780518252602082019150602081019050602083039250613455565b6001836020036101000a0380198251168184511680821785525050505050509050018281526020019250505060405180910390206000604051602001526040518263ffffffff167c0100000000000000000000000000000000000000000000000000000000028152600401808260001916600019168152602001915050602060405180830381600087803b151561351057600080fd5b6102c65a03f1151561352157600080fd5b50505060405180519050905093925050505600a165627a7a72305820c8abf414211595b9d5848ad0f9f737225a8409264769b068ed4ffc86982bc04d0029",
  "source": "pragma solidity 0.4.18;\nimport \"./Restrictor.sol\";\nimport \"../lib/odll/userManager.sol\";\n\ncontract TreatmentApplicationWriter is Restrictor {\n\n  function TreatmentApplicationWriter(address _dbAddress) public {\n    require(_dbAddress != 0x0);\n    dbAddress = _dbAddress;\n  }\n\n  // Treatment Application\n  function applyToTreat (\n    address patientId,\n    uint treatmentRequestId,\n    uint quote,\n    string comment\n  )\n    external\n  {\n    userManager.applyToTreatPatient(dbAddress, msg.sender, patientId, treatmentRequestId, quote, comment);\n  }\n\n  function cancelTreatmentApplication (\n    address patientId,\n    uint treatmentApplicationId\n  )\n    external\n  {\n    userManager.cancelDentistTreatmentApplication(dbAddress, msg.sender, patientId, treatmentApplicationId);\n  }\n\n  function cancelTreatment (\n    address dentistId,\n    uint treatmentId\n  )\n    external\n  {\n    userManager.cancelPatientTreatment(dbAddress, dentistId, msg.sender, treatmentId);\n  }\n\n  function markTreatmentDone (\n    address dentistId,\n    uint treatmentId\n  )\n    external\n  {\n    userManager.markPatientTreatmentDone(dbAddress, dentistId, msg.sender, treatmentId);\n  }\n}\n",
  "sourcePath": "/Users/danielokwufulueze/dev/vue/apps/oraldatalink/contracts/odll/TreatmentApplicationWriter.sol",
  "compiler": {
    "name": "solc",
    "version": "0.4.18+commit.9cf6e910.Emscripten.clang"
  },
  "schemaVersion": "1.0.1",
  "updatedAt": "2017-12-04T15:44:41.194Z"
}