{
  "contractName": "TreatmentRequestWriter",
  "abi": [
    {
      "constant": false,
      "inputs": [
        {
          "name": "hasCaseId",
          "type": "bool"
        },
        {
          "name": "caseId",
          "type": "uint256"
        },
        {
          "name": "insurance",
          "type": "bytes32"
        },
        {
          "name": "scanResults",
          "type": "bytes32[]"
        },
        {
          "name": "comment",
          "type": "bytes32"
        }
      ],
      "name": "writeTreatmentRequest",
      "outputs": [],
      "payable": false,
      "stateMutability": "nonpayable",
      "type": "function"
    },
    {
      "constant": true,
      "inputs": [],
      "name": "smartContractStatus",
      "outputs": [
        {
          "name": "",
          "type": "uint8"
        }
      ],
      "payable": false,
      "stateMutability": "view",
      "type": "function"
    },
    {
      "constant": false,
      "inputs": [
        {
          "name": "treatmentRequestId",
          "type": "uint256"
        }
      ],
      "name": "cancelTreatmentRequest",
      "outputs": [],
      "payable": false,
      "stateMutability": "nonpayable",
      "type": "function"
    },
    {
      "constant": true,
      "inputs": [],
      "name": "owner",
      "outputs": [
        {
          "name": "",
          "type": "address"
        }
      ],
      "payable": false,
      "stateMutability": "view",
      "type": "function"
    },
    {
      "constant": true,
      "inputs": [],
      "name": "dbAddress",
      "outputs": [
        {
          "name": "",
          "type": "address"
        }
      ],
      "payable": false,
      "stateMutability": "view",
      "type": "function"
    },
    {
      "constant": false,
      "inputs": [
        {
          "name": "newOwner",
          "type": "address"
        }
      ],
      "name": "transferOwnership",
      "outputs": [],
      "payable": false,
      "stateMutability": "nonpayable",
      "type": "function"
    },
    {
      "inputs": [
        {
          "name": "_dbAddress",
          "type": "address"
        }
      ],
      "payable": false,
      "stateMutability": "nonpayable",
      "type": "constructor"
    },
    {
      "anonymous": false,
      "inputs": [
        {
          "indexed": false,
          "name": "status",
          "type": "uint8"
        }
      ],
      "name": "OnSmartContractStatusSet",
      "type": "event"
    },
    {
      "anonymous": false,
      "inputs": [
        {
          "indexed": true,
          "name": "previousOwner",
          "type": "address"
        },
        {
          "indexed": true,
          "name": "newOwner",
          "type": "address"
        }
      ],
      "name": "OwnershipTransferred",
      "type": "event"
    }
  ],
  "bytecode": "0x6060604052341561000f57600080fd5b60405160208061247183398101604052808051906020019091905050336000806101000a81548173ffffffffffffffffffffffffffffffffffffffff021916908373ffffffffffffffffffffffffffffffffffffffff16021790555060008173ffffffffffffffffffffffffffffffffffffffff161415151561009157600080fd5b80600160006101000a81548173ffffffffffffffffffffffffffffffffffffffff021916908373ffffffffffffffffffffffffffffffffffffffff1602179055505061238f806100e26000396000f300606060405260043610610078576000357c0100000000000000000000000000000000000000000000000000000000900463ffffffff1680634412f7fc1461007d5780634c8ddddc146100d95780638bc02552146101085780638da5cb5b1461012b57806391e06b6d14610180578063f2fde38b146101d5575b600080fd5b341561008857600080fd5b6100d7600480803515159060200190919080359060200190919080356000191690602001909190803590602001908201803590602001919091929080356000191690602001909190505061020e565b005b34156100e457600080fd5b6100ec610297565b604051808260ff1660ff16815260200191505060405180910390f35b341561011357600080fd5b61012960048080359060200190919050506102aa565b005b341561013657600080fd5b61013e6102fb565b604051808273ffffffffffffffffffffffffffffffffffffffff1673ffffffffffffffffffffffffffffffffffffffff16815260200191505060405180910390f35b341561018b57600080fd5b610193610320565b604051808273ffffffffffffffffffffffffffffffffffffffff1673ffffffffffffffffffffffffffffffffffffffff16815260200191505060405180910390f35b34156101e057600080fd5b61020c600480803573ffffffffffffffffffffffffffffffffffffffff16906020019091905050610346565b005b6000600160149054906101000a900460ff1660ff1614151561022f57600080fd5b61028f600160009054906101000a900473ffffffffffffffffffffffffffffffffffffffff16338888888888808060200260200160405190810160405280939291908181526020018383602002808284378201915050505050508761049b565b505050505050565b600160149054906101000a900460ff1681565b6000600160149054906101000a900460ff1660ff161415156102cb57600080fd5b6102f8600160009054906101000a900473ffffffffffffffffffffffffffffffffffffffff1633836104b3565b50565b6000809054906101000a900473ffffffffffffffffffffffffffffffffffffffff1681565b600160009054906101000a900473ffffffffffffffffffffffffffffffffffffffff1681565b6000809054906101000a900473ffffffffffffffffffffffffffffffffffffffff1673ffffffffffffffffffffffffffffffffffffffff163373ffffffffffffffffffffffffffffffffffffffff161415156103a157600080fd5b600073ffffffffffffffffffffffffffffffffffffffff168173ffffffffffffffffffffffffffffffffffffffff16141515156103dd57600080fd5b8073ffffffffffffffffffffffffffffffffffffffff166000809054906101000a900473ffffffffffffffffffffffffffffffffffffffff1673ffffffffffffffffffffffffffffffffffffffff167f8be0079c531659141344cd1fd0a4f28419497f9722a3daafe3b4186f6b6457e060405160405180910390a3806000806101000a81548173ffffffffffffffffffffffffffffffffffffffff021916908373ffffffffffffffffffffffffffffffffffffffff16021790555050565b6104aa878787878787876104c3565b50505050505050565b6104be838383610aef565b505050565b6000806000806105088b6040805190810160405280601881526020017f74726561746d656e742d72657175657374732d636f756e740000000000000000815250610dbc565b93506105148b8a610ec2565b975060008b73ffffffffffffffffffffffffffffffffffffffff16637a0e03ec8660405180807f74726561746d656e742d726571756573742f737461747573000000000000000081525060180182815260200191505060405180910390206000604051602001526040518263ffffffff167c0100000000000000000000000000000000000000000000000000000000028152600401808260001916600019168152602001915050602060405180830381600087803b15156105d457600080fd5b6102c65a03f115156105e557600080fd5b5050506040518051905060ff161480156106d8575060018b73ffffffffffffffffffffffffffffffffffffffff16637a0e03ec8a60405180807f636173652f737461747573000000000000000000000000000000000000000000815250600b0182815260200191505060405180910390206000604051602001526040518263ffffffff167c0100000000000000000000000000000000000000000000000000000000028152600401808260001916600019168152602001915050602060405180830381600087803b15156106b857600080fd5b6102c65a03f115156106c957600080fd5b5050506040518051905060ff16145b15156106e357600080fd5b600092505b83831015610ac8578a73ffffffffffffffffffffffffffffffffffffffff1663bdc963d88b8560405180807f70617469656e742f74726561746d656e742d72657175657374000000000000008152506019018373ffffffffffffffffffffffffffffffffffffffff1673ffffffffffffffffffffffffffffffffffffffff166c010000000000000000000000000281526014018281526020019250505060405180910390206000604051602001526040518263ffffffff167c0100000000000000000000000000000000000000000000000000000000028152600401808260001916600019168152602001915050602060405180830381600087803b15156107ef57600080fd5b6102c65a03f1151561080057600080fd5b5050506040518051905091508a73ffffffffffffffffffffffffffffffffffffffff1663bdc963d88360405180807f74726561746d656e742d726571756573742f636173650000000000000000000081525060160182815260200191505060405180910390206000604051602001526040518263ffffffff167c0100000000000000000000000000000000000000000000000000000000028152600401808260001916600019168152602001915050602060405180830381600087803b15156108c857600080fd5b6102c65a03f115156108d957600080fd5b5050506040518051905090508781148015610ab1575060018b73ffffffffffffffffffffffffffffffffffffffff16637a0e03ec8460405180807f74726561746d656e742d726571756573742f737461747573000000000000000081525060180182815260200191505060405180910390206000604051602001526040518263ffffffff167c0100000000000000000000000000000000000000000000000000000000028152600401808260001916600019168152602001915050602060405180830381600087803b15156109ad57600080fd5b6102c65a03f115156109be57600080fd5b5050506040518051905060ff161480610ab0575060028b73ffffffffffffffffffffffffffffffffffffffff16637a0e03ec8460405180807f74726561746d656e742d726571756573742f737461747573000000000000000081525060180182815260200191505060405180910390206000604051602001526040518263ffffffff167c0100000000000000000000000000000000000000000000000000000000028152600401808260001916600019168152602001915050602060405180830381600087803b1515610a9057600080fd5b6102c65a03f11515610aa157600080fd5b5050506040518051905060ff16145b5b15610abb57610ae2565b82806001019350506106e8565b610ad38b8986610fe6565b610ae18b8b868a8a8a611349565b5b5050505050505050505050565b60018373ffffffffffffffffffffffffffffffffffffffff16637a0e03ec8360405180807f74726561746d656e742d726571756573742f737461747573000000000000000081525060180182815260200191505060405180910390206000604051602001526040518263ffffffff167c0100000000000000000000000000000000000000000000000000000000028152600401808260001916600019168152602001915050602060405180830381600087803b1515610bad57600080fd5b6102c65a03f11515610bbe57600080fd5b5050506040518051905060ff16148015610cd957508173ffffffffffffffffffffffffffffffffffffffff168373ffffffffffffffffffffffffffffffffffffffff16634c77e5ba8360405180807f74726561746d656e742d726571756573742f70617469656e740000000000000081525060190182815260200191505060405180910390206000604051602001526040518263ffffffff167c0100000000000000000000000000000000000000000000000000000000028152600401808260001916600019168152602001915050602060405180830381600087803b1515610ca657600080fd5b6102c65a03f11515610cb757600080fd5b5050506040518051905073ffffffffffffffffffffffffffffffffffffffff16145b1515610ce457600080fd5b8273ffffffffffffffffffffffffffffffffffffffff16630bd851588260405180807f74726561746d656e742d726571756573742f7374617475730000000000000000815250601801828152602001915050604051809103902060036040518363ffffffff167c01000000000000000000000000000000000000000000000000000000000281526004018083600019166000191681526020018260ff16815260200192505050600060405180830381600087803b1515610da357600080fd5b6102c65a03f11515610db457600080fd5b505050505050565b60008273ffffffffffffffffffffffffffffffffffffffff1663bdc963d8836040518082805190602001908083835b602083101515610e105780518252602082019150602081019050602083039250610deb565b6001836020036101000a03801982511681845116808217855250505050505090500191505060405180910390206000604051602001526040518263ffffffff167c0100000000000000000000000000000000000000000000000000000000028152600401808260001916600019168152602001915050602060405180830381600087803b1515610e9f57600080fd5b6102c65a03f11515610eb057600080fd5b50505060405180519050905092915050565b6000811515610fe057610f0a836040805190810160405280600b81526020017f63617365732d636f756e74000000000000000000000000000000000000000000815250610dbc565b90508273ffffffffffffffffffffffffffffffffffffffff16630bd851588260405180807f636173652f737461747573000000000000000000000000000000000000000000815250600b01828152602001915050604051809103902060016040518363ffffffff167c01000000000000000000000000000000000000000000000000000000000281526004018083600019166000191681526020018260ff16815260200192505050600060405180830381600087803b1515610fcb57600080fd5b6102c65a03f11515610fdc57600080fd5b5050505b92915050565b8273ffffffffffffffffffffffffffffffffffffffff16630bd851588260405180807f74726561746d656e742d726571756573742f7374617475730000000000000000815250601801828152602001915050604051809103902060016040518363ffffffff167c01000000000000000000000000000000000000000000000000000000000281526004018083600019166000191681526020018260ff16815260200192505050600060405180830381600087803b15156110a557600080fd5b6102c65a03f115156110b657600080fd5b5050508273ffffffffffffffffffffffffffffffffffffffff16633562fd208260405180807f74726561746d656e742d726571756573742f637265617465642d6f6e00000000815250601c018281526020019150506040518091039020426040518363ffffffff167c010000000000000000000000000000000000000000000000000000000002815260040180836000191660001916815260200182815260200192505050600060405180830381600087803b151561117457600080fd5b6102c65a03f1151561118557600080fd5b5050508273ffffffffffffffffffffffffffffffffffffffff16633562fd208260405180807f74726561746d656e742d726571756573742f63617365000000000000000000008152506016018281526020019150506040518091039020846040518363ffffffff167c010000000000000000000000000000000000000000000000000000000002815260040180836000191660001916815260200182815260200192505050600060405180830381600087803b151561124357600080fd5b6102c65a03f1151561125457600080fd5b5050506112cd836040805190810160405280601181526020017f74726561746d656e742d726571756573740000000000000000000000000000008152506040805190810160405280601881526020017f74726561746d656e742d72657175657374732d636f756e74000000000000000081525084611744565b61134483836040805190810160405280601681526020017f636173652f74726561746d656e742d72657175657374000000000000000000008152506040805190810160405280601d81526020017f636173652f74726561746d656e742d72657175657374732d636f756e7400000081525085611a3e565b505050565b60006113c287876040805190810160405280601981526020017f70617469656e742f74726561746d656e742d72657175657374000000000000008152506040805190810160405280602081526020017f70617469656e742f74726561746d656e742d72657175657374732d636f756e7481525089611c58565b8673ffffffffffffffffffffffffffffffffffffffff16635a2bf25a8660405180807f74726561746d656e742d726571756573742f70617469656e74000000000000008152506019018281526020019150506040518091039020886040518363ffffffff167c01000000000000000000000000000000000000000000000000000000000281526004018083600019166000191681526020018273ffffffffffffffffffffffffffffffffffffffff1673ffffffffffffffffffffffffffffffffffffffff16815260200192505050600060405180830381600087803b15156114a957600080fd5b6102c65a03f115156114ba57600080fd5b5050508673ffffffffffffffffffffffffffffffffffffffff166325cf512d8660405180807f74726561746d656e742d726571756573742f696e737572616e63650000000000815250601b018281526020019150506040518091039020866040518363ffffffff167c0100000000000000000000000000000000000000000000000000000000028152600401808360001916600019168152602001826000191660001916815260200192505050600060405180830381600087803b151561158057600080fd5b6102c65a03f1151561159157600080fd5b5050508673ffffffffffffffffffffffffffffffffffffffff166325cf512d8660405180807f74726561746d656e742d726571756573742f636f6d6d656e74000000000000008152506019018281526020019150506040518091039020846040518363ffffffff167c0100000000000000000000000000000000000000000000000000000000028152600401808360001916600019168152602001826000191660001916815260200192505050600060405180830381600087803b151561165757600080fd5b6102c65a03f1151561166857600080fd5b505050600090505b825181101561173b5761172e87866040805190810160405280601d81526020017f74726561746d656e742d726571756573742f7363616e2d726573756c74000000815250606060405190810160405280602481526020017f74726561746d656e742d726571756573742f7363616e2d726573756c74732d6381526020017f6f756e7400000000000000000000000000000000000000000000000000000000815250878681518110151561171f57fe5b90602001906020020151611ee8565b8080600101915050611670565b50505050505050565b60008473ffffffffffffffffffffffffffffffffffffffff1663bdc963d8846040518082805190602001908083835b6020831015156117985780518252602082019150602081019050602083039250611773565b6001836020036101000a03801982511681845116808217855250505050505090500191505060405180910390206000604051602001526040518263ffffffff167c0100000000000000000000000000000000000000000000000000000000028152600401808260001916600019168152602001915050602060405180830381600087803b151561182757600080fd5b6102c65a03f1151561183857600080fd5b5050506040518051905090508473ffffffffffffffffffffffffffffffffffffffff16633562fd2085836040518083805190602001908083835b6020831015156118975780518252602082019150602081019050602083039250611872565b6001836020036101000a038019825116818451168082178552505050505050905001828152602001925050506040518091039020846040518363ffffffff167c010000000000000000000000000000000000000000000000000000000002815260040180836000191660001916815260200182815260200192505050600060405180830381600087803b151561192c57600080fd5b6102c65a03f1151561193d57600080fd5b5050508473ffffffffffffffffffffffffffffffffffffffff16633562fd20846040518082805190602001908083835b602083101515611992578051825260208201915060208101905060208303925061196d565b6001836020036101000a0380198251168184511680821785525050505050509050019150506040518091039020600184016040518363ffffffff167c010000000000000000000000000000000000000000000000000000000002815260040180836000191660001916815260200182815260200192505050600060405180830381600087803b1515611a2357600080fd5b6102c65a03f11515611a3457600080fd5b5050505050505050565b6000611a4b86868561210a565b90508573ffffffffffffffffffffffffffffffffffffffff16633562fd208587846040518084805190602001908083835b602083101515611aa15780518252602082019150602081019050602083039250611a7c565b6001836020036101000a03801982511681845116808217855250505050505090500183815260200182815260200193505050506040518091039020846040518363ffffffff167c010000000000000000000000000000000000000000000000000000000002815260040180836000191660001916815260200182815260200192505050600060405180830381600087803b1515611b3d57600080fd5b6102c65a03f11515611b4e57600080fd5b5050508573ffffffffffffffffffffffffffffffffffffffff16633562fd2084876040518083805190602001908083835b602083101515611ba45780518252602082019150602081019050602083039250611b7f565b6001836020036101000a038019825116818451168082178552505050505050905001828152602001925050506040518091039020600184016040518363ffffffff167c010000000000000000000000000000000000000000000000000000000002815260040180836000191660001916815260200182815260200192505050600060405180830381600087803b1515611c3c57600080fd5b6102c65a03f11515611c4d57600080fd5b505050505050505050565b6000611c65868685612219565b90508573ffffffffffffffffffffffffffffffffffffffff16633562fd208587846040518084805190602001908083835b602083101515611cbb5780518252602082019150602081019050602083039250611c96565b6001836020036101000a0380198251168184511680821785525050505050509050018373ffffffffffffffffffffffffffffffffffffffff1673ffffffffffffffffffffffffffffffffffffffff166c0100000000000000000000000002815260140182815260200193505050506040518091039020846040518363ffffffff167c010000000000000000000000000000000000000000000000000000000002815260040180836000191660001916815260200182815260200192505050600060405180830381600087803b1515611d9257600080fd5b6102c65a03f11515611da357600080fd5b5050508573ffffffffffffffffffffffffffffffffffffffff16633562fd2084876040518083805190602001908083835b602083101515611df95780518252602082019150602081019050602083039250611dd4565b6001836020036101000a0380198251168184511680821785525050505050509050018273ffffffffffffffffffffffffffffffffffffffff1673ffffffffffffffffffffffffffffffffffffffff166c01000000000000000000000000028152601401925050506040518091039020600184016040518363ffffffff167c010000000000000000000000000000000000000000000000000000000002815260040180836000191660001916815260200182815260200192505050600060405180830381600087803b1515611ecc57600080fd5b6102c65a03f11515611edd57600080fd5b505050505050505050565b6000611ef586868561210a565b90508573ffffffffffffffffffffffffffffffffffffffff166325cf512d8587846040518084805190602001908083835b602083101515611f4b5780518252602082019150602081019050602083039250611f26565b6001836020036101000a03801982511681845116808217855250505050505090500183815260200182815260200193505050506040518091039020846040518363ffffffff167c0100000000000000000000000000000000000000000000000000000000028152600401808360001916600019168152602001826000191660001916815260200192505050600060405180830381600087803b1515611fef57600080fd5b6102c65a03f1151561200057600080fd5b5050508573ffffffffffffffffffffffffffffffffffffffff16633562fd2084876040518083805190602001908083835b6020831015156120565780518252602082019150602081019050602083039250612031565b6001836020036101000a038019825116818451168082178552505050505050905001828152602001925050506040518091039020600184016040518363ffffffff167c010000000000000000000000000000000000000000000000000000000002815260040180836000191660001916815260200182815260200192505050600060405180830381600087803b15156120ee57600080fd5b6102c65a03f115156120ff57600080fd5b505050505050505050565b60008373ffffffffffffffffffffffffffffffffffffffff1663bdc963d883856040518083805190602001908083835b60208310151561215f578051825260208201915060208101905060208303925061213a565b6001836020036101000a0380198251168184511680821785525050505050509050018281526020019250505060405180910390206000604051602001526040518263ffffffff167c0100000000000000000000000000000000000000000000000000000000028152600401808260001916600019168152602001915050602060405180830381600087803b15156121f557600080fd5b6102c65a03f1151561220657600080fd5b5050506040518051905090509392505050565b60008373ffffffffffffffffffffffffffffffffffffffff1663bdc963d883856040518083805190602001908083835b60208310151561226e5780518252602082019150602081019050602083039250612249565b6001836020036101000a0380198251168184511680821785525050505050509050018273ffffffffffffffffffffffffffffffffffffffff1673ffffffffffffffffffffffffffffffffffffffff166c010000000000000000000000000281526014019250505060405180910390206000604051602001526040518263ffffffff167c0100000000000000000000000000000000000000000000000000000000028152600401808260001916600019168152602001915050602060405180830381600087803b151561233f57600080fd5b6102c65a03f1151561235057600080fd5b50505060405180519050905093925050505600a165627a7a723058209d6d029315a0beed8dd56f2199088a71352bf1704ca987a8ae3baba21f306ff90029",
  "source": "pragma solidity 0.4.18;\nimport \"./Restrictor.sol\";\nimport \"../lib/odll/userManager.sol\";\n\ncontract TreatmentRequestWriter is Restrictor {\n\n  function TreatmentRequestWriter(address _dbAddress) public {\n    require(_dbAddress != 0x0);\n    dbAddress = _dbAddress;\n  }\n\n  // Treatment Request\n  function writeTreatmentRequest (\n    bool hasCaseId,\n    uint caseId,\n    bytes32 insurance,\n    bytes32[] scanResults,\n    bytes32 comment\n  )\n    external\n    onlyPermittedSmartContract\n  {\n    userManager.writeTreatmentRequest(dbAddress, msg.sender, hasCaseId, caseId, insurance, scanResults, comment);\n  }\n\n  function cancelTreatmentRequest (\n    uint treatmentRequestId\n  )\n    external\n    onlyPermittedSmartContract\n  {\n    userManager.cancelTreatmentRequest(dbAddress, msg.sender, treatmentRequestId);\n  }\n}\n",
  "sourcePath": "/Users/danielokwufulueze/dev/vue/apps/oraldatalink/contracts/odll/TreatmentRequestWriter.sol",
  "compiler": {
    "name": "solc",
    "version": "0.4.18+commit.9cf6e910.Emscripten.clang"
  },
  "schemaVersion": "1.0.1",
  "updatedAt": "2017-11-17T15:10:00.741Z"
}