{
  "contractName": "TreatmentApplicationReader",
  "abi": [
    {
      "constant": false,
      "inputs": [
        {
          "name": "userId",
          "type": "address"
        },
        {
          "name": "paymentId",
          "type": "uint256"
        }
      ],
      "name": "lockPayment",
      "outputs": [
        {
          "name": "",
          "type": "uint8"
        }
      ],
      "payable": false,
      "stateMutability": "nonpayable",
      "type": "function"
    },
    {
      "constant": true,
      "inputs": [],
      "name": "smartContractStatus",
      "outputs": [
        {
          "name": "",
          "type": "uint8"
        }
      ],
      "payable": false,
      "stateMutability": "view",
      "type": "function"
    },
    {
      "constant": true,
      "inputs": [],
      "name": "owner",
      "outputs": [
        {
          "name": "",
          "type": "address"
        }
      ],
      "payable": false,
      "stateMutability": "view",
      "type": "function"
    },
    {
      "constant": true,
      "inputs": [
        {
          "name": "patientId",
          "type": "address"
        },
        {
          "name": "offset",
          "type": "uint256"
        },
        {
          "name": "limit",
          "type": "uint256"
        },
        {
          "name": "seed",
          "type": "uint256"
        }
      ],
      "name": "dbAddress",
      "outputs": [
        {
          "name": "",
          "type": "address"
        },
        {
          "name": "",
          "type": "uint256[]"
        }
      ],
      "payable": false,
      "stateMutability": "view",
      "type": "function"
    },
    {
      "constant": true,
      "inputs": [
        {
          "name": "patientId",
          "type": "address"
        },
        {
          "name": "offset",
          "type": "uint256"
        },
        {
          "name": "limit",
          "type": "uint256"
        },
        {
          "name": "seed",
          "type": "uint256"
        }
      ],
      "name": "fetchTreatmentApplicationsForPatient",
      "outputs": [
        {
          "name": "",
          "type": "uint256"
        },
        {
          "name": "",
          "type": "uint256[]"
        }
      ],
      "payable": false,
      "stateMutability": "view",
      "type": "function"
    },
    {
      "constant": true,
      "inputs": [
        {
          "name": "dentistId",
          "type": "address"
        },
        {
          "name": "offset",
          "type": "uint256"
        },
        {
          "name": "limit",
          "type": "uint256"
        },
        {
          "name": "seed",
          "type": "uint256"
        }
      ],
      "name": "fetchTreatmentApplicationsForDentist",
      "outputs": [
        {
          "name": "",
          "type": "uint256"
        },
        {
          "name": "",
          "type": "uint256[]"
        }
      ],
      "payable": false,
      "stateMutability": "view",
      "type": "function"
    },
    {
      "inputs": [
        {
          "name": "newOwner",
          "type": "address"
        }
      ],
      "payable": false,
      "stateMutability": "nonpayable",
      "type": "function",
      "constant": false,
      "name": "transferOwnership",
      "outputs": []
    },
    {
      "anonymous": false,
      "inputs": [
        {
          "indexed": false,
          "name": "_dbAddress",
          "type": "address"
        }
      ],
      "name": "OnSmartContractStatusSet",
      "type": "constructor",
      "payable": false,
      "stateMutability": "nonpayable"
    },
    {
      "anonymous": false,
      "inputs": [
        {
          "indexed": false,
          "name": "paymentId",
          "type": "uint256"
        },
        {
          "indexed": true,
          "name": "newOwner",
          "type": "address"
        }
      ],
      "name": "PaymentLocked",
      "type": "event"
    },
    {
      "anonymous": false,
      "inputs": [
        {
          "indexed": false,
          "name": "status",
          "type": "uint8"
        }
      ],
      "name": "OnSmartContractStatusSet",
      "type": "event"
    },
    {
      "anonymous": false,
      "inputs": [
        {
          "indexed": true,
          "name": "previousOwner",
          "type": "address"
        },
        {
          "indexed": true,
          "name": "newOwner",
          "type": "address"
        }
      ],
      "name": "OwnershipTransferred",
      "type": "event"
    }
  ],
  "bytecode": "0x6060604052341561000f57600080fd5b6040516020806112ea83398101604052808051906020019091905050336000806101000a81548173ffffffffffffffffffffffffffffffffffffffff021916908373ffffffffffffffffffffffffffffffffffffffff16021790555060008173ffffffffffffffffffffffffffffffffffffffff161415151561009157600080fd5b80600160006101000a81548173ffffffffffffffffffffffffffffffffffffffff021916908373ffffffffffffffffffffffffffffffffffffffff16021790555050611208806100e26000396000f300606060405260043610610083576000357c0100000000000000000000000000000000000000000000000000000000900463ffffffff1680633f4b1470146100885780634c8ddddc146100ca5780638da5cb5b146100f957806391e06b6d1461014e578063929e7502146101a3578063e425911e14610253578063f2fde38b14610303575b600080fd5b341561009357600080fd5b6100c8600480803573ffffffffffffffffffffffffffffffffffffffff1690602001909190803590602001909190505061033c565b005b34156100d557600080fd5b6100dd610593565b604051808260ff1660ff16815260200191505060405180910390f35b341561010457600080fd5b61010c6105a6565b604051808273ffffffffffffffffffffffffffffffffffffffff1673ffffffffffffffffffffffffffffffffffffffff16815260200191505060405180910390f35b341561015957600080fd5b6101616105cb565b604051808273ffffffffffffffffffffffffffffffffffffffff1673ffffffffffffffffffffffffffffffffffffffff16815260200191505060405180910390f35b34156101ae57600080fd5b6101f5600480803573ffffffffffffffffffffffffffffffffffffffff169060200190919080359060200190919080359060200190919080359060200190919050506105f1565b6040518083815260200180602001828103825283818151815260200191508051906020019060200280838360005b8381101561023e578082015181840152602081019050610223565b50505050905001935050505060405180910390f35b341561025e57600080fd5b6102a5600480803573ffffffffffffffffffffffffffffffffffffffff16906020019091908035906020019091908035906020019091908035906020019091905050610637565b6040518083815260200180602001828103825283818151815260200191508051906020019060200280838360005b838110156102ee5780820151818401526020810190506102d3565b50505050905001935050505060405180910390f35b341561030e57600080fd5b61033a600480803573ffffffffffffffffffffffffffffffffffffffff1690602001909190505061067d565b005b81610346816107d2565b151561035157600080fd5b8160018060ff16600160009054906101000a900473ffffffffffffffffffffffffffffffffffffffff1673ffffffffffffffffffffffffffffffffffffffff16637a0e03ec8460405180807f7061796d656e742f737461746500000000000000000000000000000000000000815250600d0182815260200191505060405180910390206000604051602001526040518263ffffffff167c0100000000000000000000000000000000000000000000000000000000028152600401808260001916600019168152602001915050602060405180830381600087803b151561043657600080fd5b6102c65a03f1151561044757600080fd5b5050506040518051905060ff1614151561046057600080fd5b600160009054906101000a900473ffffffffffffffffffffffffffffffffffffffff1673ffffffffffffffffffffffffffffffffffffffff16630bd851588560405180807f7061796d656e742f737461746500000000000000000000000000000000000000815250600d01828152602001915050604051809103902060026040518363ffffffff167c01000000000000000000000000000000000000000000000000000000000281526004018083600019166000191681526020018260ff16815260200192505050600060405180830381600087803b151561054157600080fd5b6102c65a03f1151561055257600080fd5b5050507fa5f78a79f83dfad686a63ca003a42f6c262d9fdc43a6742c56f5c27c11b9a1e2846040518082815260200191505060405180910390a15050505050565b600160149054906101000a900460ff1681565b6000809054906101000a900473ffffffffffffffffffffffffffffffffffffffff1681565b600160009054906101000a900473ffffffffffffffffffffffffffffffffffffffff1681565b60006105fb6111c8565b61062a600160009054906101000a900473ffffffffffffffffffffffffffffffffffffffff16878787876107f9565b9150915094509492505050565b60006106416111c8565b610670600160009054906101000a900473ffffffffffffffffffffffffffffffffffffffff168787878761082d565b9150915094509492505050565b6000809054906101000a900473ffffffffffffffffffffffffffffffffffffffff1673ffffffffffffffffffffffffffffffffffffffff163373ffffffffffffffffffffffffffffffffffffffff161415156106d857600080fd5b600073ffffffffffffffffffffffffffffffffffffffff168173ffffffffffffffffffffffffffffffffffffffff161415151561071457600080fd5b8073ffffffffffffffffffffffffffffffffffffffff166000809054906101000a900473ffffffffffffffffffffffffffffffffffffffff1673ffffffffffffffffffffffffffffffffffffffff167f8be0079c531659141344cd1fd0a4f28419497f9722a3daafe3b4186f6b6457e060405160405180910390a3806000806101000a81548173ffffffffffffffffffffffffffffffffffffffff021916908373ffffffffffffffffffffffffffffffffffffffff16021790555050565b60006107df826001610861565b80156107f257506107f182600161087c565b5b9050919050565b60006108036111c8565b61080d8787610897565b905061081b81868686610944565b80925081935050509550959350505050565b60006108376111c8565b61084187876109b4565b905061084f81868686610944565b80925081935050509550959350505050565b600061086c83610a61565b60ff168260ff1614905092915050565b600061088783610b9e565b60ff168260ff1614905092915050565b61089f6111c8565b61093c83836040805190810160405280601d81526020017f70617469656e742f74726561746d656e742d6170706c69636174696f6e000000815250606060405190810160405280602481526020017f70617469656e742f74726561746d656e742d6170706c69636174696f6e732d6381526020017f6f756e7400000000000000000000000000000000000000000000000000000000815250610cdb565b905092915050565b600061094e6111c8565b855191506000865111156109aa57855185111561097a5781610971600088610e9e565b915091506109ab565b8551848601111561098c578486510393505b6109a786875187860181151561099e57fe5b06866001610f33565b90505b5b94509492505050565b6109bc6111c8565b610a5983836040805190810160405280601d81526020017f64656e746973742f74726561746d656e742d6170706c69636174696f6e000000815250606060405190810160405280602481526020017f64656e746973742f74726561746d656e742d6170706c69636174696f6e732d6381526020017f6f756e7400000000000000000000000000000000000000000000000000000000815250610cdb565b905092915050565b6000600160009054906101000a900473ffffffffffffffffffffffffffffffffffffffff1673ffffffffffffffffffffffffffffffffffffffff16637a0e03ec8360405180807f757365722f7479706500000000000000000000000000000000000000000000008152506009018273ffffffffffffffffffffffffffffffffffffffff1673ffffffffffffffffffffffffffffffffffffffff166c0100000000000000000000000002815260140191505060405180910390206000604051602001526040518263ffffffff167c0100000000000000000000000000000000000000000000000000000000028152600401808260001916600019168152602001915050602060405180830381600087803b1515610b7c57600080fd5b6102c65a03f11515610b8d57600080fd5b505050604051805190509050919050565b6000600160009054906101000a900473ffffffffffffffffffffffffffffffffffffffff1673ffffffffffffffffffffffffffffffffffffffff16637a0e03ec8360405180807f757365722f737461747573000000000000000000000000000000000000000000815250600b018273ffffffffffffffffffffffffffffffffffffffff1673ffffffffffffffffffffffffffffffffffffffff166c0100000000000000000000000002815260140191505060405180910390206000604051602001526040518263ffffffff167c0100000000000000000000000000000000000000000000000000000000028152600401808260001916600019168152602001915050602060405180830381600087803b1515610cb957600080fd5b6102c65a03f11515610cca57600080fd5b505050604051805190509050919050565b610ce36111c8565b600080610cf187878661107e565b915081604051805910610d015750595b90808252806020026020018201604052509250600090505b81811015610e91578673ffffffffffffffffffffffffffffffffffffffff1663bdc963d88688846040518084805190602001908083835b602083101515610d755780518252602082019150602081019050602083039250610d50565b6001836020036101000a0380198251168184511680821785525050505050509050018373ffffffffffffffffffffffffffffffffffffffff1673ffffffffffffffffffffffffffffffffffffffff166c01000000000000000000000000028152601401828152602001935050505060405180910390206000604051602001526040518263ffffffff167c0100000000000000000000000000000000000000000000000000000000028152600401808260001916600019168152602001915050602060405180830381600087803b1515610e4d57600080fd5b6102c65a03f11515610e5e57600080fd5b505050604051805190508382815181101515610e7657fe5b90602001906020020181815250508080600101915050610d19565b8292505050949350505050565b610ea66111c8565b60008251841115610eb957829150610f2c565b83604051805910610ec75750595b90808252806020026020018201604052509150600090505b83811015610f28578281815181101515610ef557fe5b906020019060200201518282815181101515610f0d57fe5b90602001906020020181815250508080600101915050610edf565b8191505b5092915050565b610f3b6111c8565b60008060008060009350885192508288101580610f585750600087145b15610f6557849450611072565b86604051805910610f735750595b908082528060200260200182016040525094508791505b868801821015610fea5781831415610fa157610fea565b8882815181101515610faf57fe5b906020019060200201518585815181101515610fc757fe5b906020019060200201818152505083806001019450508180600101925050610f8a565b858015610ff657508684105b15611065578387039050600091505b8082111515611064578387141561101b57611064565b888281518110151561102957fe5b90602001906020020151858581518110151561104157fe5b906020019060200201818152505083806001019450508180600101925050611005565b5b61106f8486610e9e565b94505b50505050949350505050565b60008373ffffffffffffffffffffffffffffffffffffffff1663bdc963d883856040518083805190602001908083835b6020831015156110d357805182526020820191506020810190506020830392506110ae565b6001836020036101000a0380198251168184511680821785525050505050509050018273ffffffffffffffffffffffffffffffffffffffff1673ffffffffffffffffffffffffffffffffffffffff166c010000000000000000000000000281526014019250505060405180910390206000604051602001526040518263ffffffff167c0100000000000000000000000000000000000000000000000000000000028152600401808260001916600019168152602001915050602060405180830381600087803b15156111a457600080fd5b6102c65a03f115156111b557600080fd5b5050506040518051905090509392505050565b6020604051908101604052806000815250905600a165627a7a72305820ecfdb3c4ff8022bdc083ae3533fa1056298272890066adca3c572d325706553a0029",
  "source": "pragma solidity 0.4.18;\n\nimport \"./Restrictor.sol\";\nimport \"../lib/odll/userManager.sol\";\n\ncontract TreatmentApplicationReader is Restrictor {\n\n  function TreatmentApplicationReader (address _dbAddress) public {\n    require(_dbAddress != 0x0);\n    dbAddress = _dbAddress;\n  }\n\n  function fetchTreatmentApplicationsForPatient (\n    address patientId,\n    uint offset, // starting from offset: 0-based\n    uint limit, // not more than limit\n    uint seed // seed value to give the illusion of randomisation\n  )\n    external\n    view\n    returns (\n      uint,\n      uint[]\n    )\n  {\n    return userManager.fetchPatientTreatmentApplications(dbAddress, patientId, offset, limit, seed);\n  }\n\n  function fetchTreatmentApplicationsForDentist (\n    address dentistId,\n    uint offset, // starting from offset: 0-based\n    uint limit, // not more than limit\n    uint seed // seed value to give the illusion of randomisation\n  )\n    external\n    view\n    returns (\n      uint,\n      uint[]\n    )\n  {\n    return userManager.fetchDentistTreatmentApplications(dbAddress, dentistId, offset, limit, seed);\n  }\n}\n",
  "sourcePath": "/Users/danielokwufulueze/dev/vue/apps/oraldatalink/contracts/odll/TreatmentApplicationReader.sol",
  "compiler": {
    "name": "solc",
    "version": "0.4.18+commit.9cf6e910.Emscripten.clang"
  },
  "schemaVersion": "1.0.1",
  "updatedAt": "2018-01-13T15:25:43.552Z"
}