{
  "contractName": "TreatmentRequestWriter",
  "abi": [
    {
      "constant": false,
      "inputs": [
        {
          "name": "userId",
          "type": "address"
        },
        {
          "name": "paymentId",
          "type": "uint256"
        }
      ],
      "name": "lockPayment",
      "outputs": [],
      "payable": false,
      "stateMutability": "nonpayable",
      "type": "function"
    },
    {
      "constant": true,
      "inputs": [],
      "name": "smartContractStatus",
      "outputs": [
        {
          "name": "",
          "type": "uint8"
        }
      ],
      "payable": false,
      "stateMutability": "view",
      "type": "function"
    },
    {
      "constant": false,
      "inputs": [
        {
          "name": "treatmentRequestId",
          "type": "uint256"
        }
      ],
      "name": "cancelTreatmentRequest",
      "outputs": [],
      "payable": false,
      "stateMutability": "nonpayable",
      "type": "function"
    },
    {
      "constant": false,
      "inputs": [
        {
          "name": "hasCaseId",
          "type": "bool"
        },
        {
          "name": "caseId",
          "type": "uint256"
        },
        {
          "name": "insurance",
          "type": "string"
        },
        {
          "name": "scanResults",
          "type": "string"
        },
        {
          "name": "comment",
          "type": "string"
        }
      ],
      "name": "writeTreatmentRequest",
      "outputs": [],
      "payable": false,
      "stateMutability": "nonpayable",
      "type": "function"
    },
    {
      "constant": true,
      "inputs": [],
      "name": "owner",
      "outputs": [
        {
          "name": "",
          "type": "address"
        }
      ],
      "payable": false,
      "stateMutability": "view",
      "type": "function"
    },
    {
      "constant": true,
      "inputs": [],
      "name": "dbAddress",
      "outputs": [
        {
          "name": "",
          "type": "address"
        }
      ],
      "payable": false,
      "stateMutability": "view",
      "type": "function"
    },
    {
      "constant": false,
      "inputs": [
        {
          "name": "newOwner",
          "type": "address"
        }
      ],
      "name": "transferOwnership",
      "outputs": [],
      "payable": false,
      "stateMutability": "nonpayable",
      "type": "function"
    },
    {
      "inputs": [
        {
          "name": "_dbAddress",
          "type": "address"
        }
      ],
      "payable": false,
      "stateMutability": "nonpayable",
      "type": "constructor"
    },
    {
      "anonymous": false,
      "inputs": [
        {
          "indexed": false,
          "name": "paymentId",
          "type": "uint256"
        }
      ],
      "name": "PaymentLocked",
      "type": "event"
    },
    {
      "anonymous": false,
      "inputs": [
        {
          "indexed": false,
          "name": "status",
          "type": "uint8"
        }
      ],
      "name": "OnSmartContractStatusSet",
      "type": "event"
    },
    {
      "anonymous": false,
      "inputs": [
        {
          "indexed": true,
          "name": "previousOwner",
          "type": "address"
        },
        {
          "indexed": true,
          "name": "newOwner",
          "type": "address"
        }
      ],
      "name": "OwnershipTransferred",
      "type": "event"
    }
  ],
  "bytecode": "0x6060604052341561000f57600080fd5b60405160208061295c83398101604052808051906020019091905050336000806101000a81548173ffffffffffffffffffffffffffffffffffffffff021916908373ffffffffffffffffffffffffffffffffffffffff16021790555060008173ffffffffffffffffffffffffffffffffffffffff161415151561009157600080fd5b80600160006101000a81548173ffffffffffffffffffffffffffffffffffffffff021916908373ffffffffffffffffffffffffffffffffffffffff1602179055505061287a806100e26000396000f300606060405260043610610083576000357c0100000000000000000000000000000000000000000000000000000000900463ffffffff1680633f4b1470146100885780634c8ddddc146100ca5780638bc02552146100f95780638c3b35751461011c5780638da5cb5b1461018657806391e06b6d146101db578063f2fde38b14610230575b600080fd5b341561009357600080fd5b6100c8600480803573ffffffffffffffffffffffffffffffffffffffff16906020019091908035906020019091905050610269565b005b34156100d557600080fd5b6100dd6104c0565b604051808260ff1660ff16815260200191505060405180910390f35b341561010457600080fd5b61011a60048080359060200190919050506104d3565b005b341561012757600080fd5b61018460048080351515906020019091908035906020019091908035906020019082018035906020019190919290803590602001908201803590602001919091929080359060200190820180359060200191909192905050610524565b005b341561019157600080fd5b610199610616565b604051808273ffffffffffffffffffffffffffffffffffffffff1673ffffffffffffffffffffffffffffffffffffffff16815260200191505060405180910390f35b34156101e657600080fd5b6101ee61063b565b604051808273ffffffffffffffffffffffffffffffffffffffff1673ffffffffffffffffffffffffffffffffffffffff16815260200191505060405180910390f35b341561023b57600080fd5b610267600480803573ffffffffffffffffffffffffffffffffffffffff16906020019091905050610661565b005b81610273816107b6565b151561027e57600080fd5b8160018060ff16600160009054906101000a900473ffffffffffffffffffffffffffffffffffffffff1673ffffffffffffffffffffffffffffffffffffffff16637a0e03ec8460405180807f7061796d656e742f737461746500000000000000000000000000000000000000815250600d0182815260200191505060405180910390206000604051602001526040518263ffffffff167c0100000000000000000000000000000000000000000000000000000000028152600401808260001916600019168152602001915050602060405180830381600087803b151561036357600080fd5b6102c65a03f1151561037457600080fd5b5050506040518051905060ff1614151561038d57600080fd5b600160009054906101000a900473ffffffffffffffffffffffffffffffffffffffff1673ffffffffffffffffffffffffffffffffffffffff16630bd851588560405180807f7061796d656e742f737461746500000000000000000000000000000000000000815250600d01828152602001915050604051809103902060026040518363ffffffff167c01000000000000000000000000000000000000000000000000000000000281526004018083600019166000191681526020018260ff16815260200192505050600060405180830381600087803b151561046e57600080fd5b6102c65a03f1151561047f57600080fd5b5050507fa5f78a79f83dfad686a63ca003a42f6c262d9fdc43a6742c56f5c27c11b9a1e2846040518082815260200191505060405180910390a15050505050565b600160149054906101000a900460ff1681565b6000600160149054906101000a900460ff1660ff161415156104f457600080fd5b610521600160009054906101000a900473ffffffffffffffffffffffffffffffffffffffff1633836107dd565b50565b6000600160149054906101000a900460ff1660ff1614151561054557600080fd5b61060c600160009054906101000a900473ffffffffffffffffffffffffffffffffffffffff16338a8a8a8a8080601f01602080910402602001604051908101604052809392919081815260200183838082843782019150505050505089898080601f01602080910402602001604051908101604052809392919081815260200183838082843782019150505050505088888080601f0160208091040260200160405190810160405280939291908181526020018383808284378201915050505050506107ed565b5050505050505050565b6000809054906101000a900473ffffffffffffffffffffffffffffffffffffffff1681565b600160009054906101000a900473ffffffffffffffffffffffffffffffffffffffff1681565b6000809054906101000a900473ffffffffffffffffffffffffffffffffffffffff1673ffffffffffffffffffffffffffffffffffffffff163373ffffffffffffffffffffffffffffffffffffffff161415156106bc57600080fd5b600073ffffffffffffffffffffffffffffffffffffffff168173ffffffffffffffffffffffffffffffffffffffff16141515156106f857600080fd5b8073ffffffffffffffffffffffffffffffffffffffff166000809054906101000a900473ffffffffffffffffffffffffffffffffffffffff1673ffffffffffffffffffffffffffffffffffffffff167f8be0079c531659141344cd1fd0a4f28419497f9722a3daafe3b4186f6b6457e060405160405180910390a3806000806101000a81548173ffffffffffffffffffffffffffffffffffffffff021916908373ffffffffffffffffffffffffffffffffffffffff16021790555050565b60006107c3826001610805565b80156107d657506107d5826001610820565b5b9050919050565b6107e883838361083b565b505050565b6107fc87878787878787610b08565b50505050505050565b600061081083611134565b60ff168260ff1614905092915050565b600061082b83611271565b60ff168260ff1614905092915050565b60018373ffffffffffffffffffffffffffffffffffffffff16637a0e03ec8360405180807f74726561746d656e742d726571756573742f737461747573000000000000000081525060180182815260200191505060405180910390206000604051602001526040518263ffffffff167c0100000000000000000000000000000000000000000000000000000000028152600401808260001916600019168152602001915050602060405180830381600087803b15156108f957600080fd5b6102c65a03f1151561090a57600080fd5b5050506040518051905060ff16148015610a2557508173ffffffffffffffffffffffffffffffffffffffff168373ffffffffffffffffffffffffffffffffffffffff16634c77e5ba8360405180807f74726561746d656e742d726571756573742f70617469656e740000000000000081525060190182815260200191505060405180910390206000604051602001526040518263ffffffff167c0100000000000000000000000000000000000000000000000000000000028152600401808260001916600019168152602001915050602060405180830381600087803b15156109f257600080fd5b6102c65a03f11515610a0357600080fd5b5050506040518051905073ffffffffffffffffffffffffffffffffffffffff16145b1515610a3057600080fd5b8273ffffffffffffffffffffffffffffffffffffffff16630bd851588260405180807f74726561746d656e742d726571756573742f7374617475730000000000000000815250601801828152602001915050604051809103902060036040518363ffffffff167c01000000000000000000000000000000000000000000000000000000000281526004018083600019166000191681526020018260ff16815260200192505050600060405180830381600087803b1515610aef57600080fd5b6102c65a03f11515610b0057600080fd5b505050505050565b600080600080610b4d8b6040805190810160405280601881526020017f74726561746d656e742d72657175657374732d636f756e7400000000000000008152506113ae565b9350610b598b8a6114b4565b975060008b73ffffffffffffffffffffffffffffffffffffffff16637a0e03ec8660405180807f74726561746d656e742d726571756573742f737461747573000000000000000081525060180182815260200191505060405180910390206000604051602001526040518263ffffffff167c0100000000000000000000000000000000000000000000000000000000028152600401808260001916600019168152602001915050602060405180830381600087803b1515610c1957600080fd5b6102c65a03f11515610c2a57600080fd5b5050506040518051905060ff16148015610d1d575060018b73ffffffffffffffffffffffffffffffffffffffff16637a0e03ec8a60405180807f636173652f737461747573000000000000000000000000000000000000000000815250600b0182815260200191505060405180910390206000604051602001526040518263ffffffff167c0100000000000000000000000000000000000000000000000000000000028152600401808260001916600019168152602001915050602060405180830381600087803b1515610cfd57600080fd5b6102c65a03f11515610d0e57600080fd5b5050506040518051905060ff16145b1515610d2857600080fd5b600092505b8383101561110d578a73ffffffffffffffffffffffffffffffffffffffff1663bdc963d88b8560405180807f70617469656e742f74726561746d656e742d72657175657374000000000000008152506019018373ffffffffffffffffffffffffffffffffffffffff1673ffffffffffffffffffffffffffffffffffffffff166c010000000000000000000000000281526014018281526020019250505060405180910390206000604051602001526040518263ffffffff167c0100000000000000000000000000000000000000000000000000000000028152600401808260001916600019168152602001915050602060405180830381600087803b1515610e3457600080fd5b6102c65a03f11515610e4557600080fd5b5050506040518051905091508a73ffffffffffffffffffffffffffffffffffffffff1663bdc963d88360405180807f74726561746d656e742d726571756573742f636173650000000000000000000081525060160182815260200191505060405180910390206000604051602001526040518263ffffffff167c0100000000000000000000000000000000000000000000000000000000028152600401808260001916600019168152602001915050602060405180830381600087803b1515610f0d57600080fd5b6102c65a03f11515610f1e57600080fd5b50505060405180519050905087811480156110f6575060018b73ffffffffffffffffffffffffffffffffffffffff16637a0e03ec8460405180807f74726561746d656e742d726571756573742f737461747573000000000000000081525060180182815260200191505060405180910390206000604051602001526040518263ffffffff167c0100000000000000000000000000000000000000000000000000000000028152600401808260001916600019168152602001915050602060405180830381600087803b1515610ff257600080fd5b6102c65a03f1151561100357600080fd5b5050506040518051905060ff1614806110f5575060028b73ffffffffffffffffffffffffffffffffffffffff16637a0e03ec8460405180807f74726561746d656e742d726571756573742f737461747573000000000000000081525060180182815260200191505060405180910390206000604051602001526040518263ffffffff167c0100000000000000000000000000000000000000000000000000000000028152600401808260001916600019168152602001915050602060405180830381600087803b15156110d557600080fd5b6102c65a03f115156110e657600080fd5b5050506040518051905060ff16145b5b1561110057611127565b8280600101935050610d2d565b6111188b89866115d8565b6111268b8b868a8a8a61193b565b5b5050505050505050505050565b6000600160009054906101000a900473ffffffffffffffffffffffffffffffffffffffff1673ffffffffffffffffffffffffffffffffffffffff16637a0e03ec8360405180807f757365722f7479706500000000000000000000000000000000000000000000008152506009018273ffffffffffffffffffffffffffffffffffffffff1673ffffffffffffffffffffffffffffffffffffffff166c0100000000000000000000000002815260140191505060405180910390206000604051602001526040518263ffffffff167c0100000000000000000000000000000000000000000000000000000000028152600401808260001916600019168152602001915050602060405180830381600087803b151561124f57600080fd5b6102c65a03f1151561126057600080fd5b505050604051805190509050919050565b6000600160009054906101000a900473ffffffffffffffffffffffffffffffffffffffff1673ffffffffffffffffffffffffffffffffffffffff16637a0e03ec8360405180807f757365722f737461747573000000000000000000000000000000000000000000815250600b018273ffffffffffffffffffffffffffffffffffffffff1673ffffffffffffffffffffffffffffffffffffffff166c0100000000000000000000000002815260140191505060405180910390206000604051602001526040518263ffffffff167c0100000000000000000000000000000000000000000000000000000000028152600401808260001916600019168152602001915050602060405180830381600087803b151561138c57600080fd5b6102c65a03f1151561139d57600080fd5b505050604051805190509050919050565b60008273ffffffffffffffffffffffffffffffffffffffff1663bdc963d8836040518082805190602001908083835b60208310151561140257805182526020820191506020810190506020830392506113dd565b6001836020036101000a03801982511681845116808217855250505050505090500191505060405180910390206000604051602001526040518263ffffffff167c0100000000000000000000000000000000000000000000000000000000028152600401808260001916600019168152602001915050602060405180830381600087803b151561149157600080fd5b6102c65a03f115156114a257600080fd5b50505060405180519050905092915050565b60008115156115d2576114fc836040805190810160405280600b81526020017f63617365732d636f756e740000000000000000000000000000000000000000008152506113ae565b90508273ffffffffffffffffffffffffffffffffffffffff16630bd851588260405180807f636173652f737461747573000000000000000000000000000000000000000000815250600b01828152602001915050604051809103902060016040518363ffffffff167c01000000000000000000000000000000000000000000000000000000000281526004018083600019166000191681526020018260ff16815260200192505050600060405180830381600087803b15156115bd57600080fd5b6102c65a03f115156115ce57600080fd5b5050505b92915050565b8273ffffffffffffffffffffffffffffffffffffffff16630bd851588260405180807f74726561746d656e742d726571756573742f7374617475730000000000000000815250601801828152602001915050604051809103902060016040518363ffffffff167c01000000000000000000000000000000000000000000000000000000000281526004018083600019166000191681526020018260ff16815260200192505050600060405180830381600087803b151561169757600080fd5b6102c65a03f115156116a857600080fd5b5050508273ffffffffffffffffffffffffffffffffffffffff16633562fd208260405180807f74726561746d656e742d726571756573742f637265617465642d6f6e00000000815250601c018281526020019150506040518091039020426040518363ffffffff167c010000000000000000000000000000000000000000000000000000000002815260040180836000191660001916815260200182815260200192505050600060405180830381600087803b151561176657600080fd5b6102c65a03f1151561177757600080fd5b5050508273ffffffffffffffffffffffffffffffffffffffff16633562fd208260405180807f74726561746d656e742d726571756573742f63617365000000000000000000008152506016018281526020019150506040518091039020846040518363ffffffff167c010000000000000000000000000000000000000000000000000000000002815260040180836000191660001916815260200182815260200192505050600060405180830381600087803b151561183557600080fd5b6102c65a03f1151561184657600080fd5b5050506118bf836040805190810160405280601181526020017f74726561746d656e742d726571756573740000000000000000000000000000008152506040805190810160405280601881526020017f74726561746d656e742d72657175657374732d636f756e74000000000000000081525084611e51565b61193683836040805190810160405280601681526020017f636173652f74726561746d656e742d72657175657374000000000000000000008152506040805190810160405280601d81526020017f636173652f74726561746d656e742d72657175657374732d636f756e740000008152508561214b565b505050565b6119b286866040805190810160405280601981526020017f70617469656e742f74726561746d656e742d72657175657374000000000000008152506040805190810160405280602081526020017f70617469656e742f74726561746d656e742d72657175657374732d636f756e7481525088612365565b8573ffffffffffffffffffffffffffffffffffffffff16635a2bf25a8560405180807f74726561746d656e742d726571756573742f70617469656e74000000000000008152506019018281526020019150506040518091039020876040518363ffffffff167c01000000000000000000000000000000000000000000000000000000000281526004018083600019166000191681526020018273ffffffffffffffffffffffffffffffffffffffff1673ffffffffffffffffffffffffffffffffffffffff16815260200192505050600060405180830381600087803b1515611a9957600080fd5b6102c65a03f11515611aaa57600080fd5b5050508573ffffffffffffffffffffffffffffffffffffffff1663f58660668560405180807f74726561746d656e742d726571756573742f696e737572616e63650000000000815250601b018281526020019150506040518091039020856040518363ffffffff167c010000000000000000000000000000000000000000000000000000000002815260040180836000191660001916815260200180602001828103825283818151815260200191508051906020019080838360005b83811015611b81578082015181840152602081019050611b66565b50505050905090810190601f168015611bae5780820380516001836020036101000a031916815260200191505b509350505050600060405180830381600087803b1515611bcd57600080fd5b6102c65a03f11515611bde57600080fd5b5050508573ffffffffffffffffffffffffffffffffffffffff1663f58660668560405180807f74726561746d656e742d726571756573742f7363616e2d726573756c74730000815250601e018281526020019150506040518091039020846040518363ffffffff167c010000000000000000000000000000000000000000000000000000000002815260040180836000191660001916815260200180602001828103825283818151815260200191508051906020019080838360005b83811015611cb5578082015181840152602081019050611c9a565b50505050905090810190601f168015611ce25780820380516001836020036101000a031916815260200191505b509350505050600060405180830381600087803b1515611d0157600080fd5b6102c65a03f11515611d1257600080fd5b5050508573ffffffffffffffffffffffffffffffffffffffff1663f58660668560405180807f74726561746d656e742d726571756573742f636f6d6d656e74000000000000008152506019018281526020019150506040518091039020836040518363ffffffff167c010000000000000000000000000000000000000000000000000000000002815260040180836000191660001916815260200180602001828103825283818151815260200191508051906020019080838360005b83811015611de9578082015181840152602081019050611dce565b50505050905090810190601f168015611e165780820380516001836020036101000a031916815260200191505b509350505050600060405180830381600087803b1515611e3557600080fd5b6102c65a03f11515611e4657600080fd5b505050505050505050565b60008473ffffffffffffffffffffffffffffffffffffffff1663bdc963d8846040518082805190602001908083835b602083101515611ea55780518252602082019150602081019050602083039250611e80565b6001836020036101000a03801982511681845116808217855250505050505090500191505060405180910390206000604051602001526040518263ffffffff167c0100000000000000000000000000000000000000000000000000000000028152600401808260001916600019168152602001915050602060405180830381600087803b1515611f3457600080fd5b6102c65a03f11515611f4557600080fd5b5050506040518051905090508473ffffffffffffffffffffffffffffffffffffffff16633562fd2085836040518083805190602001908083835b602083101515611fa45780518252602082019150602081019050602083039250611f7f565b6001836020036101000a038019825116818451168082178552505050505050905001828152602001925050506040518091039020846040518363ffffffff167c010000000000000000000000000000000000000000000000000000000002815260040180836000191660001916815260200182815260200192505050600060405180830381600087803b151561203957600080fd5b6102c65a03f1151561204a57600080fd5b5050508473ffffffffffffffffffffffffffffffffffffffff16633562fd20846040518082805190602001908083835b60208310151561209f578051825260208201915060208101905060208303925061207a565b6001836020036101000a0380198251168184511680821785525050505050509050019150506040518091039020600184016040518363ffffffff167c010000000000000000000000000000000000000000000000000000000002815260040180836000191660001916815260200182815260200192505050600060405180830381600087803b151561213057600080fd5b6102c65a03f1151561214157600080fd5b5050505050505050565b60006121588686856125f5565b90508573ffffffffffffffffffffffffffffffffffffffff16633562fd208587846040518084805190602001908083835b6020831015156121ae5780518252602082019150602081019050602083039250612189565b6001836020036101000a03801982511681845116808217855250505050505090500183815260200182815260200193505050506040518091039020846040518363ffffffff167c010000000000000000000000000000000000000000000000000000000002815260040180836000191660001916815260200182815260200192505050600060405180830381600087803b151561224a57600080fd5b6102c65a03f1151561225b57600080fd5b5050508573ffffffffffffffffffffffffffffffffffffffff16633562fd2084876040518083805190602001908083835b6020831015156122b1578051825260208201915060208101905060208303925061228c565b6001836020036101000a038019825116818451168082178552505050505050905001828152602001925050506040518091039020600184016040518363ffffffff167c010000000000000000000000000000000000000000000000000000000002815260040180836000191660001916815260200182815260200192505050600060405180830381600087803b151561234957600080fd5b6102c65a03f1151561235a57600080fd5b505050505050505050565b6000612372868685612704565b90508573ffffffffffffffffffffffffffffffffffffffff16633562fd208587846040518084805190602001908083835b6020831015156123c857805182526020820191506020810190506020830392506123a3565b6001836020036101000a0380198251168184511680821785525050505050509050018373ffffffffffffffffffffffffffffffffffffffff1673ffffffffffffffffffffffffffffffffffffffff166c0100000000000000000000000002815260140182815260200193505050506040518091039020846040518363ffffffff167c010000000000000000000000000000000000000000000000000000000002815260040180836000191660001916815260200182815260200192505050600060405180830381600087803b151561249f57600080fd5b6102c65a03f115156124b057600080fd5b5050508573ffffffffffffffffffffffffffffffffffffffff16633562fd2084876040518083805190602001908083835b60208310151561250657805182526020820191506020810190506020830392506124e1565b6001836020036101000a0380198251168184511680821785525050505050509050018273ffffffffffffffffffffffffffffffffffffffff1673ffffffffffffffffffffffffffffffffffffffff166c01000000000000000000000000028152601401925050506040518091039020600184016040518363ffffffff167c010000000000000000000000000000000000000000000000000000000002815260040180836000191660001916815260200182815260200192505050600060405180830381600087803b15156125d957600080fd5b6102c65a03f115156125ea57600080fd5b505050505050505050565b60008373ffffffffffffffffffffffffffffffffffffffff1663bdc963d883856040518083805190602001908083835b60208310151561264a5780518252602082019150602081019050602083039250612625565b6001836020036101000a0380198251168184511680821785525050505050509050018281526020019250505060405180910390206000604051602001526040518263ffffffff167c0100000000000000000000000000000000000000000000000000000000028152600401808260001916600019168152602001915050602060405180830381600087803b15156126e057600080fd5b6102c65a03f115156126f157600080fd5b5050506040518051905090509392505050565b60008373ffffffffffffffffffffffffffffffffffffffff1663bdc963d883856040518083805190602001908083835b6020831015156127595780518252602082019150602081019050602083039250612734565b6001836020036101000a0380198251168184511680821785525050505050509050018273ffffffffffffffffffffffffffffffffffffffff1673ffffffffffffffffffffffffffffffffffffffff166c010000000000000000000000000281526014019250505060405180910390206000604051602001526040518263ffffffff167c0100000000000000000000000000000000000000000000000000000000028152600401808260001916600019168152602001915050602060405180830381600087803b151561282a57600080fd5b6102c65a03f1151561283b57600080fd5b50505060405180519050905093925050505600a165627a7a723058207c5e896619c14c4a322622f926ca99e0fe04db994b20cd12e993491771da17550029",
  "source": "pragma solidity 0.4.18;\nimport \"./Restrictor.sol\";\nimport \"../lib/odll/userManager.sol\";\n\ncontract TreatmentRequestWriter is Restrictor {\n\n  function TreatmentRequestWriter(address _dbAddress) public {\n    require(_dbAddress != 0x0);\n    dbAddress = _dbAddress;\n  }\n\n  // Treatment Request\n  function writeTreatmentRequest (\n    bool hasCaseId,\n    uint caseId,\n    string insurance,\n    string scanResults,\n    string comment\n  )\n    external\n    onlyPermittedSmartContract\n  {\n    userManager.writePatientTreatmentRequest(dbAddress, msg.sender, hasCaseId, caseId, insurance, scanResults, comment);\n  }\n\n  function cancelTreatmentRequest (\n    uint treatmentRequestId\n  )\n    external\n    onlyPermittedSmartContract\n  {\n    userManager.cancelPatientTreatmentRequest(dbAddress, msg.sender, treatmentRequestId);\n  }\n}\n",
  "sourcePath": "/Users/danielokwufulueze/dev/vue/apps/oraldatalink/contracts/odll/TreatmentRequestWriter.sol",
  "compiler": {
    "name": "solc",
    "version": "0.4.18+commit.9cf6e910.Emscripten.clang"
  },
  "schemaVersion": "1.0.1",
  "updatedAt": "2017-12-04T15:44:41.166Z"
}