{
  "contractName": "TreatmentRequestWriter",
  "abi": [
    {
      "constant": true,
      "inputs": [],
      "name": "smartContractStatus",
      "outputs": [
        {
          "name": "",
          "type": "uint8"
        }
      ],
      "payable": false,
      "stateMutability": "view",
      "type": "function"
    },
    {
      "constant": true,
      "inputs": [],
      "name": "owner",
      "outputs": [
        {
          "name": "",
          "type": "address"
        }
      ],
      "payable": false,
      "stateMutability": "view",
      "type": "function"
    },
    {
      "constant": true,
      "inputs": [],
      "name": "dbAddress",
      "outputs": [
        {
          "name": "",
          "type": "address"
        }
      ],
      "payable": false,
      "stateMutability": "view",
      "type": "function"
    },
    {
      "constant": false,
      "inputs": [
        {
          "name": "newOwner",
          "type": "address"
        }
      ],
      "name": "transferOwnership",
      "outputs": [],
      "payable": false,
      "stateMutability": "nonpayable",
      "type": "function"
    },
    {
      "constant": false,
      "inputs": [
        {
          "name": "patientId",
          "type": "address"
        },
        {
          "name": "treatmentRequestId",
          "type": "uint256"
        }
      ],
      "name": "cancelTreatmentRequest",
      "outputs": [],
      "payable": false,
      "stateMutability": "nonpayable",
      "type": "function"
    },
    {
      "constant": false,
      "inputs": [
        {
          "name": "dentistId",
          "type": "address"
        },
        {
          "name": "patientId",
          "type": "address"
        },
        {
          "name": "hasCaseId",
          "type": "bool"
        },
        {
          "name": "caseId",
          "type": "uint256"
        },
        {
          "name": "insurance",
          "type": "bytes32"
        },
        {
          "name": "scanResults",
          "type": "bytes32[]"
        },
        {
          "name": "comment",
          "type": "bytes32"
        }
      ],
      "name": "writeTreatmentRequest",
      "outputs": [],
      "payable": false,
      "stateMutability": "nonpayable",
      "type": "function"
    },
    {
      "inputs": [
        {
          "name": "_dbAddress",
          "type": "address"
        }
      ],
      "payable": false,
      "stateMutability": "nonpayable",
      "type": "constructor"
    },
    {
      "anonymous": false,
      "inputs": [
        {
          "indexed": false,
          "name": "status",
          "type": "uint8"
        }
      ],
      "name": "OnSmartContractStatusSet",
      "type": "event"
    },
    {
      "anonymous": false,
      "inputs": [
        {
          "indexed": true,
          "name": "previousOwner",
          "type": "address"
        },
        {
          "indexed": true,
          "name": "newOwner",
          "type": "address"
        }
      ],
      "name": "OwnershipTransferred",
      "type": "event"
    }
  ],
  "bytecode": "0x6060604052341561000f57600080fd5b6040516020806124d583398101604052808051906020019091905050336000806101000a81548173ffffffffffffffffffffffffffffffffffffffff021916908373ffffffffffffffffffffffffffffffffffffffff16021790555060008173ffffffffffffffffffffffffffffffffffffffff161415151561009157600080fd5b80600160006101000a81548173ffffffffffffffffffffffffffffffffffffffff021916908373ffffffffffffffffffffffffffffffffffffffff160217905550506123f3806100e26000396000f300606060405260043610610078576000357c0100000000000000000000000000000000000000000000000000000000900463ffffffff1680634c8ddddc1461007d5780638da5cb5b146100ac57806391e06b6d14610101578063f2fde38b14610156578063f4b621e51461018f578063ffe4e699146101d1575b600080fd5b341561008857600080fd5b61009061026b565b604051808260ff1660ff16815260200191505060405180910390f35b34156100b757600080fd5b6100bf61027e565b604051808273ffffffffffffffffffffffffffffffffffffffff1673ffffffffffffffffffffffffffffffffffffffff16815260200191505060405180910390f35b341561010c57600080fd5b6101146102a3565b604051808273ffffffffffffffffffffffffffffffffffffffff1673ffffffffffffffffffffffffffffffffffffffff16815260200191505060405180910390f35b341561016157600080fd5b61018d600480803573ffffffffffffffffffffffffffffffffffffffff169060200190919050506102c9565b005b341561019a57600080fd5b6101cf600480803573ffffffffffffffffffffffffffffffffffffffff1690602001909190803590602001909190505061041e565b005b34156101dc57600080fd5b610269600480803573ffffffffffffffffffffffffffffffffffffffff1690602001909190803573ffffffffffffffffffffffffffffffffffffffff16906020019091908035151590602001909190803590602001909190803560001916906020019091908035906020019082018035906020019190919290803560001916906020019091905050610470565b005b600160149054906101000a900460ff1681565b6000809054906101000a900473ffffffffffffffffffffffffffffffffffffffff1681565b600160009054906101000a900473ffffffffffffffffffffffffffffffffffffffff1681565b6000809054906101000a900473ffffffffffffffffffffffffffffffffffffffff1673ffffffffffffffffffffffffffffffffffffffff163373ffffffffffffffffffffffffffffffffffffffff1614151561032457600080fd5b600073ffffffffffffffffffffffffffffffffffffffff168173ffffffffffffffffffffffffffffffffffffffff161415151561036057600080fd5b8073ffffffffffffffffffffffffffffffffffffffff166000809054906101000a900473ffffffffffffffffffffffffffffffffffffffff1673ffffffffffffffffffffffffffffffffffffffff167f8be0079c531659141344cd1fd0a4f28419497f9722a3daafe3b4186f6b6457e060405160405180910390a3806000806101000a81548173ffffffffffffffffffffffffffffffffffffffff021916908373ffffffffffffffffffffffffffffffffffffffff16021790555050565b6000600160149054906101000a900460ff1660ff1614151561043f57600080fd5b61046c600160009054906101000a900473ffffffffffffffffffffffffffffffffffffffff1633836104fc565b5050565b6000600160149054906101000a900460ff1660ff1614151561049157600080fd5b6104f2600160009054906101000a900473ffffffffffffffffffffffffffffffffffffffff1689338989898989808060200260200160405190810160405280939291908181526020018383602002808284378201915050505050508861050c565b5050505050505050565b610507838383610526565b505050565b61051c88888888888888886107f3565b5050505050505050565b60018373ffffffffffffffffffffffffffffffffffffffff16637a0e03ec8360405180807f74726561746d656e742d726571756573742f737461747573000000000000000081525060180182815260200191505060405180910390206000604051602001526040518263ffffffff167c0100000000000000000000000000000000000000000000000000000000028152600401808260001916600019168152602001915050602060405180830381600087803b15156105e457600080fd5b6102c65a03f115156105f557600080fd5b5050506040518051905060ff1614801561071057508173ffffffffffffffffffffffffffffffffffffffff168373ffffffffffffffffffffffffffffffffffffffff16634c77e5ba8360405180807f74726561746d656e742d726571756573742f70617469656e740000000000000081525060190182815260200191505060405180910390206000604051602001526040518263ffffffff167c0100000000000000000000000000000000000000000000000000000000028152600401808260001916600019168152602001915050602060405180830381600087803b15156106dd57600080fd5b6102c65a03f115156106ee57600080fd5b5050506040518051905073ffffffffffffffffffffffffffffffffffffffff16145b151561071b57600080fd5b8273ffffffffffffffffffffffffffffffffffffffff16630bd851588260405180807f74726561746d656e742d726571756573742f7374617475730000000000000000815250601801828152602001915050604051809103902060036040518363ffffffff167c01000000000000000000000000000000000000000000000000000000000281526004018083600019166000191681526020018260ff16815260200192505050600060405180830381600087803b15156107da57600080fd5b6102c65a03f115156107eb57600080fd5b505050505050565b6000806000806108388c6040805190810160405280601881526020017f74726561746d656e742d72657175657374732d636f756e740000000000000000815250610e20565b93506108448c8a610f26565b975060008c73ffffffffffffffffffffffffffffffffffffffff16637a0e03ec8660405180807f74726561746d656e742d726571756573742f737461747573000000000000000081525060180182815260200191505060405180910390206000604051602001526040518263ffffffff167c0100000000000000000000000000000000000000000000000000000000028152600401808260001916600019168152602001915050602060405180830381600087803b151561090457600080fd5b6102c65a03f1151561091557600080fd5b5050506040518051905060ff16148015610a08575060018c73ffffffffffffffffffffffffffffffffffffffff16637a0e03ec8a60405180807f636173652f737461747573000000000000000000000000000000000000000000815250600b0182815260200191505060405180910390206000604051602001526040518263ffffffff167c0100000000000000000000000000000000000000000000000000000000028152600401808260001916600019168152602001915050602060405180830381600087803b15156109e857600080fd5b6102c65a03f115156109f957600080fd5b5050506040518051905060ff16145b1515610a1357600080fd5b600092505b83831015610df8578b73ffffffffffffffffffffffffffffffffffffffff1663bdc963d88b8560405180807f70617469656e742f74726561746d656e742d72657175657374000000000000008152506019018373ffffffffffffffffffffffffffffffffffffffff1673ffffffffffffffffffffffffffffffffffffffff166c010000000000000000000000000281526014018281526020019250505060405180910390206000604051602001526040518263ffffffff167c0100000000000000000000000000000000000000000000000000000000028152600401808260001916600019168152602001915050602060405180830381600087803b1515610b1f57600080fd5b6102c65a03f11515610b3057600080fd5b5050506040518051905091508b73ffffffffffffffffffffffffffffffffffffffff1663bdc963d88360405180807f74726561746d656e742d726571756573742f636173650000000000000000000081525060160182815260200191505060405180910390206000604051602001526040518263ffffffff167c0100000000000000000000000000000000000000000000000000000000028152600401808260001916600019168152602001915050602060405180830381600087803b1515610bf857600080fd5b6102c65a03f11515610c0957600080fd5b5050506040518051905090508781148015610de1575060018c73ffffffffffffffffffffffffffffffffffffffff16637a0e03ec8460405180807f74726561746d656e742d726571756573742f737461747573000000000000000081525060180182815260200191505060405180910390206000604051602001526040518263ffffffff167c0100000000000000000000000000000000000000000000000000000000028152600401808260001916600019168152602001915050602060405180830381600087803b1515610cdd57600080fd5b6102c65a03f11515610cee57600080fd5b5050506040518051905060ff161480610de0575060028c73ffffffffffffffffffffffffffffffffffffffff16637a0e03ec8460405180807f74726561746d656e742d726571756573742f737461747573000000000000000081525060180182815260200191505060405180910390206000604051602001526040518263ffffffff167c0100000000000000000000000000000000000000000000000000000000028152600401808260001916600019168152602001915050602060405180830381600087803b1515610dc057600080fd5b6102c65a03f11515610dd157600080fd5b5050506040518051905060ff16145b5b15610deb57610e12565b8280600101935050610a18565b610e038c898661104a565b610e118c8b868a8a8a6113ad565b5b505050505050505050505050565b60008273ffffffffffffffffffffffffffffffffffffffff1663bdc963d8836040518082805190602001908083835b602083101515610e745780518252602082019150602081019050602083039250610e4f565b6001836020036101000a03801982511681845116808217855250505050505090500191505060405180910390206000604051602001526040518263ffffffff167c0100000000000000000000000000000000000000000000000000000000028152600401808260001916600019168152602001915050602060405180830381600087803b1515610f0357600080fd5b6102c65a03f11515610f1457600080fd5b50505060405180519050905092915050565b600081151561104457610f6e836040805190810160405280600b81526020017f63617365732d636f756e74000000000000000000000000000000000000000000815250610e20565b90508273ffffffffffffffffffffffffffffffffffffffff16630bd851588260405180807f636173652f737461747573000000000000000000000000000000000000000000815250600b01828152602001915050604051809103902060016040518363ffffffff167c01000000000000000000000000000000000000000000000000000000000281526004018083600019166000191681526020018260ff16815260200192505050600060405180830381600087803b151561102f57600080fd5b6102c65a03f1151561104057600080fd5b5050505b92915050565b8273ffffffffffffffffffffffffffffffffffffffff16630bd851588260405180807f74726561746d656e742d726571756573742f7374617475730000000000000000815250601801828152602001915050604051809103902060016040518363ffffffff167c01000000000000000000000000000000000000000000000000000000000281526004018083600019166000191681526020018260ff16815260200192505050600060405180830381600087803b151561110957600080fd5b6102c65a03f1151561111a57600080fd5b5050508273ffffffffffffffffffffffffffffffffffffffff16633562fd208260405180807f74726561746d656e742d726571756573742f637265617465642d6f6e00000000815250601c018281526020019150506040518091039020426040518363ffffffff167c010000000000000000000000000000000000000000000000000000000002815260040180836000191660001916815260200182815260200192505050600060405180830381600087803b15156111d857600080fd5b6102c65a03f115156111e957600080fd5b5050508273ffffffffffffffffffffffffffffffffffffffff16633562fd208260405180807f74726561746d656e742d726571756573742f63617365000000000000000000008152506016018281526020019150506040518091039020846040518363ffffffff167c010000000000000000000000000000000000000000000000000000000002815260040180836000191660001916815260200182815260200192505050600060405180830381600087803b15156112a757600080fd5b6102c65a03f115156112b857600080fd5b505050611331836040805190810160405280601181526020017f74726561746d656e742d726571756573740000000000000000000000000000008152506040805190810160405280601881526020017f74726561746d656e742d72657175657374732d636f756e740000000000000000815250846117a8565b6113a883836040805190810160405280601681526020017f636173652f74726561746d656e742d72657175657374000000000000000000008152506040805190810160405280601d81526020017f636173652f74726561746d656e742d72657175657374732d636f756e7400000081525085611aa2565b505050565b600061142687876040805190810160405280601981526020017f70617469656e742f74726561746d656e742d72657175657374000000000000008152506040805190810160405280602081526020017f70617469656e742f74726561746d656e742d72657175657374732d636f756e7481525089611cbc565b8673ffffffffffffffffffffffffffffffffffffffff16635a2bf25a8660405180807f74726561746d656e742d726571756573742f70617469656e74000000000000008152506019018281526020019150506040518091039020886040518363ffffffff167c01000000000000000000000000000000000000000000000000000000000281526004018083600019166000191681526020018273ffffffffffffffffffffffffffffffffffffffff1673ffffffffffffffffffffffffffffffffffffffff16815260200192505050600060405180830381600087803b151561150d57600080fd5b6102c65a03f1151561151e57600080fd5b5050508673ffffffffffffffffffffffffffffffffffffffff166325cf512d8660405180807f74726561746d656e742d726571756573742f696e737572616e63650000000000815250601b018281526020019150506040518091039020866040518363ffffffff167c0100000000000000000000000000000000000000000000000000000000028152600401808360001916600019168152602001826000191660001916815260200192505050600060405180830381600087803b15156115e457600080fd5b6102c65a03f115156115f557600080fd5b5050508673ffffffffffffffffffffffffffffffffffffffff166325cf512d8660405180807f74726561746d656e742d726571756573742f636f6d6d656e74000000000000008152506019018281526020019150506040518091039020846040518363ffffffff167c0100000000000000000000000000000000000000000000000000000000028152600401808360001916600019168152602001826000191660001916815260200192505050600060405180830381600087803b15156116bb57600080fd5b6102c65a03f115156116cc57600080fd5b505050600090505b825181101561179f5761179287866040805190810160405280601d81526020017f74726561746d656e742d726571756573742f7363616e2d726573756c74000000815250606060405190810160405280602481526020017f74726561746d656e742d726571756573742f7363616e2d726573756c74732d6381526020017f6f756e7400000000000000000000000000000000000000000000000000000000815250878681518110151561178357fe5b90602001906020020151611f4c565b80806001019150506116d4565b50505050505050565b60008473ffffffffffffffffffffffffffffffffffffffff1663bdc963d8846040518082805190602001908083835b6020831015156117fc57805182526020820191506020810190506020830392506117d7565b6001836020036101000a03801982511681845116808217855250505050505090500191505060405180910390206000604051602001526040518263ffffffff167c0100000000000000000000000000000000000000000000000000000000028152600401808260001916600019168152602001915050602060405180830381600087803b151561188b57600080fd5b6102c65a03f1151561189c57600080fd5b5050506040518051905090508473ffffffffffffffffffffffffffffffffffffffff16633562fd2085836040518083805190602001908083835b6020831015156118fb57805182526020820191506020810190506020830392506118d6565b6001836020036101000a038019825116818451168082178552505050505050905001828152602001925050506040518091039020846040518363ffffffff167c010000000000000000000000000000000000000000000000000000000002815260040180836000191660001916815260200182815260200192505050600060405180830381600087803b151561199057600080fd5b6102c65a03f115156119a157600080fd5b5050508473ffffffffffffffffffffffffffffffffffffffff16633562fd20846040518082805190602001908083835b6020831015156119f657805182526020820191506020810190506020830392506119d1565b6001836020036101000a0380198251168184511680821785525050505050509050019150506040518091039020600184016040518363ffffffff167c010000000000000000000000000000000000000000000000000000000002815260040180836000191660001916815260200182815260200192505050600060405180830381600087803b1515611a8757600080fd5b6102c65a03f11515611a9857600080fd5b5050505050505050565b6000611aaf86868561216e565b90508573ffffffffffffffffffffffffffffffffffffffff16633562fd208587846040518084805190602001908083835b602083101515611b055780518252602082019150602081019050602083039250611ae0565b6001836020036101000a03801982511681845116808217855250505050505090500183815260200182815260200193505050506040518091039020846040518363ffffffff167c010000000000000000000000000000000000000000000000000000000002815260040180836000191660001916815260200182815260200192505050600060405180830381600087803b1515611ba157600080fd5b6102c65a03f11515611bb257600080fd5b5050508573ffffffffffffffffffffffffffffffffffffffff16633562fd2084876040518083805190602001908083835b602083101515611c085780518252602082019150602081019050602083039250611be3565b6001836020036101000a038019825116818451168082178552505050505050905001828152602001925050506040518091039020600184016040518363ffffffff167c010000000000000000000000000000000000000000000000000000000002815260040180836000191660001916815260200182815260200192505050600060405180830381600087803b1515611ca057600080fd5b6102c65a03f11515611cb157600080fd5b505050505050505050565b6000611cc986868561227d565b90508573ffffffffffffffffffffffffffffffffffffffff16633562fd208587846040518084805190602001908083835b602083101515611d1f5780518252602082019150602081019050602083039250611cfa565b6001836020036101000a0380198251168184511680821785525050505050509050018373ffffffffffffffffffffffffffffffffffffffff1673ffffffffffffffffffffffffffffffffffffffff166c0100000000000000000000000002815260140182815260200193505050506040518091039020846040518363ffffffff167c010000000000000000000000000000000000000000000000000000000002815260040180836000191660001916815260200182815260200192505050600060405180830381600087803b1515611df657600080fd5b6102c65a03f11515611e0757600080fd5b5050508573ffffffffffffffffffffffffffffffffffffffff16633562fd2084876040518083805190602001908083835b602083101515611e5d5780518252602082019150602081019050602083039250611e38565b6001836020036101000a0380198251168184511680821785525050505050509050018273ffffffffffffffffffffffffffffffffffffffff1673ffffffffffffffffffffffffffffffffffffffff166c01000000000000000000000000028152601401925050506040518091039020600184016040518363ffffffff167c010000000000000000000000000000000000000000000000000000000002815260040180836000191660001916815260200182815260200192505050600060405180830381600087803b1515611f3057600080fd5b6102c65a03f11515611f4157600080fd5b505050505050505050565b6000611f5986868561216e565b90508573ffffffffffffffffffffffffffffffffffffffff166325cf512d8587846040518084805190602001908083835b602083101515611faf5780518252602082019150602081019050602083039250611f8a565b6001836020036101000a03801982511681845116808217855250505050505090500183815260200182815260200193505050506040518091039020846040518363ffffffff167c0100000000000000000000000000000000000000000000000000000000028152600401808360001916600019168152602001826000191660001916815260200192505050600060405180830381600087803b151561205357600080fd5b6102c65a03f1151561206457600080fd5b5050508573ffffffffffffffffffffffffffffffffffffffff16633562fd2084876040518083805190602001908083835b6020831015156120ba5780518252602082019150602081019050602083039250612095565b6001836020036101000a038019825116818451168082178552505050505050905001828152602001925050506040518091039020600184016040518363ffffffff167c010000000000000000000000000000000000000000000000000000000002815260040180836000191660001916815260200182815260200192505050600060405180830381600087803b151561215257600080fd5b6102c65a03f1151561216357600080fd5b505050505050505050565b60008373ffffffffffffffffffffffffffffffffffffffff1663bdc963d883856040518083805190602001908083835b6020831015156121c3578051825260208201915060208101905060208303925061219e565b6001836020036101000a0380198251168184511680821785525050505050509050018281526020019250505060405180910390206000604051602001526040518263ffffffff167c0100000000000000000000000000000000000000000000000000000000028152600401808260001916600019168152602001915050602060405180830381600087803b151561225957600080fd5b6102c65a03f1151561226a57600080fd5b5050506040518051905090509392505050565b60008373ffffffffffffffffffffffffffffffffffffffff1663bdc963d883856040518083805190602001908083835b6020831015156122d257805182526020820191506020810190506020830392506122ad565b6001836020036101000a0380198251168184511680821785525050505050509050018273ffffffffffffffffffffffffffffffffffffffff1673ffffffffffffffffffffffffffffffffffffffff166c010000000000000000000000000281526014019250505060405180910390206000604051602001526040518263ffffffff167c0100000000000000000000000000000000000000000000000000000000028152600401808260001916600019168152602001915050602060405180830381600087803b15156123a357600080fd5b6102c65a03f115156123b457600080fd5b50505060405180519050905093925050505600a165627a7a72305820df70fcf62b802b83cfb13ebdc6180d45d191a0af68cf50a7d75a5701244e3a8e0029",
  "source": "pragma solidity 0.4.18;\nimport \"./Restrictor.sol\";\nimport \"../lib/odll/userManager.sol\";\n\ncontract TreatmentRequestWriter is Restrictor {\n\n  function TreatmentRequestWriter(address _dbAddress) public {\n    require(_dbAddress != 0x0);\n    dbAddress = _dbAddress;\n  }\n\n  // Treatment Request\n  function writeTreatmentRequest (\n    address dentistId,\n    address patientId,\n    bool hasCaseId,\n    uint caseId,\n    bytes32 insurance,\n    bytes32[] scanResults,\n    bytes32 comment\n  )\n    external\n    onlyPermittedSmartContract\n  {\n    userManager.writeTreatmentRequest(dbAddress, dentistId, msg.sender, hasCaseId, caseId, insurance, scanResults, comment);\n  }\n\n  function cancelTreatmentRequest (\n    address patientId,\n    uint treatmentRequestId\n  )\n    external\n    onlyPermittedSmartContract\n  {\n    userManager.cancelTreatmentRequest(dbAddress, msg.sender, treatmentRequestId);\n  }\n}\n",
  "sourcePath": "/home/daniel/dev/vue/apps/oral-data-link/contracts/odll/TreatmentRequestWriter.sol",
  "compiler": {
    "name": "solc",
    "version": "0.4.18+commit.9cf6e910.Emscripten.clang"
  },
  "schemaVersion": "1.0.1",
  "updatedAt": "2017-11-09T14:19:39.759Z"
}