{
  "contractName": "TreatmentApplicationWriter2",
  "abi": [
    {
      "constant": true,
      "inputs": [],
      "name": "smartContractStatus",
      "outputs": [
        {
          "name": "",
          "type": "uint8"
        }
      ],
      "payable": false,
      "stateMutability": "view",
      "type": "function"
    },
    {
      "constant": false,
      "inputs": [
        {
          "name": "dentistId",
          "type": "address"
        },
        {
          "name": "treatmentApplicationId",
          "type": "uint256"
        },
        {
          "name": "quote",
          "type": "uint256"
        }
      ],
      "name": "acceptTreatmentApplication",
      "outputs": [],
      "payable": true,
      "stateMutability": "payable",
      "type": "function"
    },
    {
      "constant": true,
      "inputs": [],
      "name": "owner",
      "outputs": [
        {
          "name": "",
          "type": "address"
        }
      ],
      "payable": false,
      "stateMutability": "view",
      "type": "function"
    },
    {
      "constant": true,
      "inputs": [],
      "name": "dbAddress",
      "outputs": [
        {
          "name": "",
          "type": "address"
        }
      ],
      "payable": false,
      "stateMutability": "view",
      "type": "function"
    },
    {
      "constant": false,
      "inputs": [
        {
          "name": "newOwner",
          "type": "address"
        }
      ],
      "name": "transferOwnership",
      "outputs": [],
      "payable": false,
      "stateMutability": "nonpayable",
      "type": "function"
    },
    {
      "inputs": [
        {
          "name": "_dbAddress",
          "type": "address"
        }
      ],
      "payable": false,
      "stateMutability": "nonpayable",
      "type": "constructor"
    },
    {
      "anonymous": false,
      "inputs": [
        {
          "indexed": false,
          "name": "status",
          "type": "uint8"
        }
      ],
      "name": "OnSmartContractStatusSet",
      "type": "event"
    },
    {
      "anonymous": false,
      "inputs": [
        {
          "indexed": true,
          "name": "previousOwner",
          "type": "address"
        },
        {
          "indexed": true,
          "name": "newOwner",
          "type": "address"
        }
      ],
      "name": "OwnershipTransferred",
      "type": "event"
    }
  ],
  "bytecode": "0x6060604052341561000f57600080fd5b604051602080612af483398101604052808051906020019091905050336000806101000a81548173ffffffffffffffffffffffffffffffffffffffff021916908373ffffffffffffffffffffffffffffffffffffffff16021790555060008173ffffffffffffffffffffffffffffffffffffffff161415151561009157600080fd5b80600160006101000a81548173ffffffffffffffffffffffffffffffffffffffff021916908373ffffffffffffffffffffffffffffffffffffffff16021790555050612a12806100e26000396000f30060606040526004361061006d576000357c0100000000000000000000000000000000000000000000000000000000900463ffffffff1680634c8ddddc1461007257806383a7d289146100a15780638da5cb5b146100e157806391e06b6d14610136578063f2fde38b1461018b575b600080fd5b341561007d57600080fd5b6100856101c4565b604051808260ff1660ff16815260200191505060405180910390f35b6100df600480803573ffffffffffffffffffffffffffffffffffffffff169060200190919080359060200190919080359060200190919050506101d7565b005b34156100ec57600080fd5b6100f46107bf565b604051808273ffffffffffffffffffffffffffffffffffffffff1673ffffffffffffffffffffffffffffffffffffffff16815260200191505060405180910390f35b341561014157600080fd5b6101496107e4565b604051808273ffffffffffffffffffffffffffffffffffffffff1673ffffffffffffffffffffffffffffffffffffffff16815260200191505060405180910390f35b341561019657600080fd5b6101c2600480803573ffffffffffffffffffffffffffffffffffffffff1690602001909190505061080a565b005b600160149054906101000a900460ff1681565b600080600080600160009054906101000a900473ffffffffffffffffffffffffffffffffffffffff1673ffffffffffffffffffffffffffffffffffffffff16634c77e5ba60405180807f6f646c6c2f657363726f772d6164647265737300000000000000000000000000815250601301905060405180910390206000604051602001526040518263ffffffff167c0100000000000000000000000000000000000000000000000000000000028152600401808260001916600019168152602001915050602060405180830381600087803b15156102b357600080fd5b6102c65a03f115156102c457600080fd5b5050506040518051905073ffffffffffffffffffffffffffffffffffffffff16141515156102f157600080fd5b34925083831015151561030357600080fd5b8383111561035b578291508392503373ffffffffffffffffffffffffffffffffffffffff166108fc610335848761095f565b9081150290604051600060405180830381858888f19350505050151561035a57600080fd5b5b6103bc600160009054906101000a900473ffffffffffffffffffffffffffffffffffffffff166040805190810160405280600e81526020017f7061796d656e74732d636f756e74000000000000000000000000000000000000815250610978565b9050600160009054906101000a900473ffffffffffffffffffffffffffffffffffffffff1673ffffffffffffffffffffffffffffffffffffffff16633562fd208260405180807f7061796d656e742f666f722d7479706500000000000000000000000000000000815250601001828152602001915050604051809103902060026040518363ffffffff167c010000000000000000000000000000000000000000000000000000000002815260040180836000191660001916815260200182815260200192505050600060405180830381600087803b151561049c57600080fd5b6102c65a03f115156104ad57600080fd5b5050506104e1600160009054906101000a900473ffffffffffffffffffffffffffffffffffffffff1687338885888a610a7e565b600160009054906101000a900473ffffffffffffffffffffffffffffffffffffffff1673ffffffffffffffffffffffffffffffffffffffff16634c77e5ba60405180807f6f646c6c2f657363726f772d6164647265737300000000000000000000000000815250601301905060405180910390206000604051602001526040518263ffffffff167c0100000000000000000000000000000000000000000000000000000000028152600401808260001916600019168152602001915050602060405180830381600087803b15156105b757600080fd5b6102c65a03f115156105c857600080fd5b5050506040518051905073ffffffffffffffffffffffffffffffffffffffff166108fc849081150290604051600060405180830381858888f19350505050151561061157600080fd5b600160009054906101000a900473ffffffffffffffffffffffffffffffffffffffff1673ffffffffffffffffffffffffffffffffffffffff16634c77e5ba60405180807f6f646c6c2f657363726f772d6164647265737300000000000000000000000000815250601301905060405180910390206000604051602001526040518263ffffffff167c0100000000000000000000000000000000000000000000000000000000028152600401808260001916600019168152602001915050602060405180830381600087803b15156106e757600080fd5b6102c65a03f115156106f857600080fd5b5050506040518051905073ffffffffffffffffffffffffffffffffffffffff16633f4b147033836040518363ffffffff167c0100000000000000000000000000000000000000000000000000000000028152600401808373ffffffffffffffffffffffffffffffffffffffff1673ffffffffffffffffffffffffffffffffffffffff16815260200182815260200192505050600060405180830381600087803b15156107a357600080fd5b6102c65a03f115156107b457600080fd5b505050505050505050565b6000809054906101000a900473ffffffffffffffffffffffffffffffffffffffff1681565b600160009054906101000a900473ffffffffffffffffffffffffffffffffffffffff1681565b6000809054906101000a900473ffffffffffffffffffffffffffffffffffffffff1673ffffffffffffffffffffffffffffffffffffffff163373ffffffffffffffffffffffffffffffffffffffff1614151561086557600080fd5b600073ffffffffffffffffffffffffffffffffffffffff168173ffffffffffffffffffffffffffffffffffffffff16141515156108a157600080fd5b8073ffffffffffffffffffffffffffffffffffffffff166000809054906101000a900473ffffffffffffffffffffffffffffffffffffffff1673ffffffffffffffffffffffffffffffffffffffff167f8be0079c531659141344cd1fd0a4f28419497f9722a3daafe3b4186f6b6457e060405160405180910390a3806000806101000a81548173ffffffffffffffffffffffffffffffffffffffff021916908373ffffffffffffffffffffffffffffffffffffffff16021790555050565b600082821115151561096d57fe5b818303905092915050565b60008273ffffffffffffffffffffffffffffffffffffffff1663bdc963d8836040518082805190602001908083835b6020831015156109cc57805182526020820191506020810190506020830392506109a7565b6001836020036101000a03801982511681845116808217855250505050505090500191505060405180910390206000604051602001526040518263ffffffff167c0100000000000000000000000000000000000000000000000000000000028152600401808260001916600019168152602001915050602060405180830381600087803b1515610a5b57600080fd5b6102c65a03f11515610a6c57600080fd5b50505060405180519050905092915050565b610a8d87878787878787610a96565b50505050505050565b600080610ad8896040805190810160405280601081526020017f74726561746d656e74732d636f756e7400000000000000000000000000000000815250610978565b91508873ffffffffffffffffffffffffffffffffffffffff16630bd851588660405180807f7061796d656e742f737461746500000000000000000000000000000000000000815250600d01828152602001915050604051809103902060016040518363ffffffff167c01000000000000000000000000000000000000000000000000000000000281526004018083600019166000191681526020018260ff16815260200192505050600060405180830381600087803b1515610b9957600080fd5b6102c65a03f11515610baa57600080fd5b5050508873ffffffffffffffffffffffffffffffffffffffff1663bdc963d88760405180807f74726561746d656e742d6170706c69636174696f6e2f74726561746d656e742d81526020017f726571756573740000000000000000000000000000000000000000000000000081525060270182815260200191505060405180910390206000604051602001526040518263ffffffff167c0100000000000000000000000000000000000000000000000000000000028152600401808260001916600019168152602001915050602060405180830381600087803b1515610c8f57600080fd5b6102c65a03f11515610ca057600080fd5b50505060405180519050905060008973ffffffffffffffffffffffffffffffffffffffff16637a0e03ec8460405180807f74726561746d656e742f7374617475730000000000000000000000000000000081525060100182815260200191505060405180910390206000604051602001526040518263ffffffff167c0100000000000000000000000000000000000000000000000000000000028152600401808260001916600019168152602001915050602060405180830381600087803b1515610d6a57600080fd5b6102c65a03f11515610d7b57600080fd5b5050506040518051905060ff16148015610e6e575060018973ffffffffffffffffffffffffffffffffffffffff16637a0e03ec8860405180807f74726561746d656e742d6170706c69636174696f6e2f73746174757300000000815250601c0182815260200191505060405180910390206000604051602001526040518263ffffffff167c0100000000000000000000000000000000000000000000000000000000028152600401808260001916600019168152602001915050602060405180830381600087803b1515610e4e57600080fd5b6102c65a03f11515610e5f57600080fd5b5050506040518051905060ff16145b8015610f53575060018973ffffffffffffffffffffffffffffffffffffffff16637a0e03ec8360405180807f74726561746d656e742d726571756573742f737461747573000000000000000081525060180182815260200191505060405180910390206000604051602001526040518263ffffffff167c0100000000000000000000000000000000000000000000000000000000028152600401808260001916600019168152602001915050602060405180830381600087803b1515610f3357600080fd5b6102c65a03f11515610f4457600080fd5b5050506040518051905060ff16145b801561106057508673ffffffffffffffffffffffffffffffffffffffff168973ffffffffffffffffffffffffffffffffffffffff16634c77e5ba8360405180807f74726561746d656e742d726571756573742f70617469656e740000000000000081525060190182815260200191505060405180910390206000604051602001526040518263ffffffff167c0100000000000000000000000000000000000000000000000000000000028152600401808260001916600019168152602001915050602060405180830381600087803b151561102d57600080fd5b6102c65a03f1151561103e57600080fd5b5050506040518051905073ffffffffffffffffffffffffffffffffffffffff16145b801561116d57508773ffffffffffffffffffffffffffffffffffffffff168973ffffffffffffffffffffffffffffffffffffffff16634c77e5ba8860405180807f74726561746d656e742d6170706c69636174696f6e2f64656e74697374000000815250601d0182815260200191505060405180910390206000604051602001526040518263ffffffff167c0100000000000000000000000000000000000000000000000000000000028152600401808260001916600019168152602001915050602060405180830381600087803b151561113a57600080fd5b6102c65a03f1151561114b57600080fd5b5050506040518051905073ffffffffffffffffffffffffffffffffffffffff16145b801561127a57508673ffffffffffffffffffffffffffffffffffffffff168973ffffffffffffffffffffffffffffffffffffffff16634c77e5ba8860405180807f74726561746d656e742d6170706c69636174696f6e2f70617469656e74000000815250601d0182815260200191505060405180910390206000604051602001526040518263ffffffff167c0100000000000000000000000000000000000000000000000000000000028152600401808260001916600019168152602001915050602060405180830381600087803b151561124757600080fd5b6102c65a03f1151561125857600080fd5b5050506040518051905073ffffffffffffffffffffffffffffffffffffffff16145b151561128557600080fd5b611293898989848a8761145e565b6112a289898985898989611a12565b8873ffffffffffffffffffffffffffffffffffffffff16630bd851588260405180807f74726561746d656e742d726571756573742f7374617475730000000000000000815250601801828152602001915050604051809103902060026040518363ffffffff167c01000000000000000000000000000000000000000000000000000000000281526004018083600019166000191681526020018260ff16815260200192505050600060405180830381600087803b151561136157600080fd5b6102c65a03f1151561137257600080fd5b5050508873ffffffffffffffffffffffffffffffffffffffff16630bd851588760405180807f74726561746d656e742d6170706c69636174696f6e2f73746174757300000000815250601c01828152602001915050604051809103902060046040518363ffffffff167c01000000000000000000000000000000000000000000000000000000000281526004018083600019166000191681526020018260ff16815260200192505050600060405180830381600087803b151561143457600080fd5b6102c65a03f1151561144557600080fd5b505050611453898288611f8f565b505050505050505050565b8573ffffffffffffffffffffffffffffffffffffffff16630bd851588260405180807f74726561746d656e742f73746174757300000000000000000000000000000000815250601001828152602001915050604051809103902060016040518363ffffffff167c01000000000000000000000000000000000000000000000000000000000281526004018083600019166000191681526020018260ff16815260200192505050600060405180830381600087803b151561151d57600080fd5b6102c65a03f1151561152e57600080fd5b5050508573ffffffffffffffffffffffffffffffffffffffff16633562fd208260405180807f74726561746d656e742f637265617465642d6f6e0000000000000000000000008152506014018281526020019150506040518091039020426040518363ffffffff167c010000000000000000000000000000000000000000000000000000000002815260040180836000191660001916815260200182815260200192505050600060405180830381600087803b15156115ec57600080fd5b6102c65a03f115156115fd57600080fd5b5050508573ffffffffffffffffffffffffffffffffffffffff16635a2bf25a8260405180807f74726561746d656e742f64656e746973740000000000000000000000000000008152506011018281526020019150506040518091039020876040518363ffffffff167c01000000000000000000000000000000000000000000000000000000000281526004018083600019166000191681526020018273ffffffffffffffffffffffffffffffffffffffff1673ffffffffffffffffffffffffffffffffffffffff16815260200192505050600060405180830381600087803b15156116e757600080fd5b6102c65a03f115156116f857600080fd5b5050508573ffffffffffffffffffffffffffffffffffffffff16635a2bf25a8260405180807f74726561746d656e742f70617469656e740000000000000000000000000000008152506011018281526020019150506040518091039020866040518363ffffffff167c01000000000000000000000000000000000000000000000000000000000281526004018083600019166000191681526020018273ffffffffffffffffffffffffffffffffffffffff1673ffffffffffffffffffffffffffffffffffffffff16815260200192505050600060405180830381600087803b15156117e257600080fd5b6102c65a03f115156117f357600080fd5b5050508573ffffffffffffffffffffffffffffffffffffffff16633562fd208260405180807f74726561746d656e742f74726561746d656e742d726571756573740000000000815250601b018281526020019150506040518091039020856040518363ffffffff167c010000000000000000000000000000000000000000000000000000000002815260040180836000191660001916815260200182815260200192505050600060405180830381600087803b15156118b157600080fd5b6102c65a03f115156118c257600080fd5b5050508573ffffffffffffffffffffffffffffffffffffffff16633562fd208260405180807f74726561746d656e742f74726561746d656e742d6170706c69636174696f6e00815250601f018281526020019150506040518091039020846040518363ffffffff167c010000000000000000000000000000000000000000000000000000000002815260040180836000191660001916815260200182815260200192505050600060405180830381600087803b151561198057600080fd5b6102c65a03f1151561199157600080fd5b505050611a0a866040805190810160405280600981526020017f74726561746d656e7400000000000000000000000000000000000000000000008152506040805190810160405280601081526020017f74726561746d656e74732d636f756e740000000000000000000000000000000081525084612203565b505050505050565b8673ffffffffffffffffffffffffffffffffffffffff16633562fd208560405180807f74726561746d656e742f616d6f756e74000000000000000000000000000000008152506010018281526020019150506040518091039020846040518363ffffffff167c010000000000000000000000000000000000000000000000000000000002815260040180836000191660001916815260200182815260200192505050600060405180830381600087803b1515611acd57600080fd5b6102c65a03f11515611ade57600080fd5b5050508673ffffffffffffffffffffffffffffffffffffffff16633562fd208560405180807f74726561746d656e742f71756f74650000000000000000000000000000000000815250600f018281526020019150506040518091039020836040518363ffffffff167c010000000000000000000000000000000000000000000000000000000002815260040180836000191660001916815260200182815260200192505050600060405180830381600087803b1515611b9c57600080fd5b6102c65a03f11515611bad57600080fd5b5050508673ffffffffffffffffffffffffffffffffffffffff16633eba9ed28560405180807f74726561746d656e742f70616964000000000000000000000000000000000000815250600e01828152602001915050604051809103902060016040518363ffffffff167c01000000000000000000000000000000000000000000000000000000000281526004018083600019166000191681526020018215151515815260200192505050600060405180830381600087803b1515611c7057600080fd5b6102c65a03f11515611c8157600080fd5b5050508673ffffffffffffffffffffffffffffffffffffffff16633562fd208560405180807f74726561746d656e742f7061796d656e740000000000000000000000000000008152506011018281526020019150506040518091039020856040518363ffffffff167c010000000000000000000000000000000000000000000000000000000002815260040180836000191660001916815260200182815260200192505050600060405180830381600087803b1515611d3f57600080fd5b6102c65a03f11515611d5057600080fd5b5050508673ffffffffffffffffffffffffffffffffffffffff16633562fd208460405180807f7061796d656e742f74726561746d656e740000000000000000000000000000008152506011018281526020019150506040518091039020866040518363ffffffff167c010000000000000000000000000000000000000000000000000000000002815260040180836000191660001916815260200182815260200192505050600060405180830381600087803b1515611e0e57600080fd5b6102c65a03f11515611e1f57600080fd5b505050611e9987876040805190810160405280601181526020017f64656e746973742f74726561746d656e740000000000000000000000000000008152506040805190810160405280601881526020017f64656e746973742f74726561746d656e74732d636f756e740000000000000000815250886124fd565b611f1087866040805190810160405280601181526020017f70617469656e742f74726561746d656e740000000000000000000000000000008152506040805190810160405280601881526020017f70617469656e742f74726561746d656e74732d636f756e740000000000000000815250886124fd565b611f86876040805190810160405280600781526020017f7061796d656e74000000000000000000000000000000000000000000000000008152506040805190810160405280600e81526020017f7061796d656e74732d636f756e7400000000000000000000000000000000000081525086612203565b50505050505050565b6000806000611ffb8686606060405190810160405280602e81526020017f74726561746d656e742d726571756573742f74726561746d656e742d6170706c81526020017f69636174696f6e732d636f756e7400000000000000000000000000000000000081525061278d565b9250600091505b828210156121fb578573ffffffffffffffffffffffffffffffffffffffff1663bdc963d8868460405180807f74726561746d656e742d726571756573742f74726561746d656e742d6170706c81526020017f69636174696f6e000000000000000000000000000000000000000000000000008152506027018381526020018281526020019250505060405180910390206000604051602001526040518263ffffffff167c0100000000000000000000000000000000000000000000000000000000028152600401808260001916600019168152602001915050602060405180830381600087803b15156120f457600080fd5b6102c65a03f1151561210557600080fd5b50505060405180519050905083811415156121ee578573ffffffffffffffffffffffffffffffffffffffff16630bd851588260405180807f74726561746d656e742d6170706c69636174696f6e2f73746174757300000000815250601c01828152602001915050604051809103902060056040518363ffffffff167c01000000000000000000000000000000000000000000000000000000000281526004018083600019166000191681526020018260ff16815260200192505050600060405180830381600087803b15156121d957600080fd5b6102c65a03f115156121ea57600080fd5b5050505b8180600101925050612002565b505050505050565b60008473ffffffffffffffffffffffffffffffffffffffff1663bdc963d8846040518082805190602001908083835b6020831015156122575780518252602082019150602081019050602083039250612232565b6001836020036101000a03801982511681845116808217855250505050505090500191505060405180910390206000604051602001526040518263ffffffff167c0100000000000000000000000000000000000000000000000000000000028152600401808260001916600019168152602001915050602060405180830381600087803b15156122e657600080fd5b6102c65a03f115156122f757600080fd5b5050506040518051905090508473ffffffffffffffffffffffffffffffffffffffff16633562fd2085836040518083805190602001908083835b6020831015156123565780518252602082019150602081019050602083039250612331565b6001836020036101000a038019825116818451168082178552505050505050905001828152602001925050506040518091039020846040518363ffffffff167c010000000000000000000000000000000000000000000000000000000002815260040180836000191660001916815260200182815260200192505050600060405180830381600087803b15156123eb57600080fd5b6102c65a03f115156123fc57600080fd5b5050508473ffffffffffffffffffffffffffffffffffffffff16633562fd20846040518082805190602001908083835b602083101515612451578051825260208201915060208101905060208303925061242c565b6001836020036101000a0380198251168184511680821785525050505050509050019150506040518091039020600184016040518363ffffffff167c010000000000000000000000000000000000000000000000000000000002815260040180836000191660001916815260200182815260200192505050600060405180830381600087803b15156124e257600080fd5b6102c65a03f115156124f357600080fd5b5050505050505050565b600061250a86868561289c565b90508573ffffffffffffffffffffffffffffffffffffffff16633562fd208587846040518084805190602001908083835b602083101515612560578051825260208201915060208101905060208303925061253b565b6001836020036101000a0380198251168184511680821785525050505050509050018373ffffffffffffffffffffffffffffffffffffffff1673ffffffffffffffffffffffffffffffffffffffff166c0100000000000000000000000002815260140182815260200193505050506040518091039020846040518363ffffffff167c010000000000000000000000000000000000000000000000000000000002815260040180836000191660001916815260200182815260200192505050600060405180830381600087803b151561263757600080fd5b6102c65a03f1151561264857600080fd5b5050508573ffffffffffffffffffffffffffffffffffffffff16633562fd2084876040518083805190602001908083835b60208310151561269e5780518252602082019150602081019050602083039250612679565b6001836020036101000a0380198251168184511680821785525050505050509050018273ffffffffffffffffffffffffffffffffffffffff1673ffffffffffffffffffffffffffffffffffffffff166c01000000000000000000000000028152601401925050506040518091039020600184016040518363ffffffff167c010000000000000000000000000000000000000000000000000000000002815260040180836000191660001916815260200182815260200192505050600060405180830381600087803b151561277157600080fd5b6102c65a03f1151561278257600080fd5b505050505050505050565b60008373ffffffffffffffffffffffffffffffffffffffff1663bdc963d883856040518083805190602001908083835b6020831015156127e257805182526020820191506020810190506020830392506127bd565b6001836020036101000a0380198251168184511680821785525050505050509050018281526020019250505060405180910390206000604051602001526040518263ffffffff167c0100000000000000000000000000000000000000000000000000000000028152600401808260001916600019168152602001915050602060405180830381600087803b151561287857600080fd5b6102c65a03f1151561288957600080fd5b5050506040518051905090509392505050565b60008373ffffffffffffffffffffffffffffffffffffffff1663bdc963d883856040518083805190602001908083835b6020831015156128f157805182526020820191506020810190506020830392506128cc565b6001836020036101000a0380198251168184511680821785525050505050509050018273ffffffffffffffffffffffffffffffffffffffff1673ffffffffffffffffffffffffffffffffffffffff166c010000000000000000000000000281526014019250505060405180910390206000604051602001526040518263ffffffff167c0100000000000000000000000000000000000000000000000000000000028152600401808260001916600019168152602001915050602060405180830381600087803b15156129c257600080fd5b6102c65a03f115156129d357600080fd5b50505060405180519050905093925050505600a165627a7a723058202a01dc8f53f0e0ebe7e55a755c98b4d27823327453845ecd25eb72307f6f6fce0029",
  "source": "pragma solidity 0.4.18;\nimport \"./Restrictor.sol\";\nimport \"../lib/odll/userManager.sol\";\nimport \"./Escrow.sol\";\n\ncontract TreatmentApplicationWriter2 is Restrictor {\n\n  function TreatmentApplicationWriter2 (address _dbAddress) public {\n    require(_dbAddress != 0x0);\n    dbAddress = _dbAddress;\n  }\n\n  // Treatment Application\n  function acceptTreatmentApplication (\n    address dentistId,\n    uint treatmentApplicationId,\n    uint quote\n  )\n    payable\n    external\n  {\n    require(DB(dbAddress).getAddressValue(keccak256(\"odll/escrow-address\")) != 0x0);\n    uint amount = msg.value;\n    require(amount >= quote);\n    if (amount > quote) {\n      uint tempAmount = amount;\n      amount = quote;\n      msg.sender.transfer(SafeMath.sub(tempAmount, quote));\n    }\n\n    uint paymentId = utilities.getArrayItemsCount(dbAddress, \"payments-count\");\n    DB(dbAddress).setUIntValue(keccak256(\"payment/for-type\", paymentId), 2);\n    userManager.acceptTreatmentApplication(dbAddress, dentistId, msg.sender, treatmentApplicationId, paymentId, amount, quote);\n    DB(dbAddress).getAddressValue(keccak256(\"odll/escrow-address\")).transfer(amount);\n    Escrow(DB(dbAddress).getAddressValue(keccak256(\"odll/escrow-address\"))).lockPayment(msg.sender, paymentId);\n  }\n}\n",
  "sourcePath": "/Users/danielokwufulueze/dev/vue/apps/oraldatalink/contracts/odll/TreatmentApplicationWriter2.sol",
  "compiler": {
    "name": "solc",
    "version": "0.4.18+commit.9cf6e910.Emscripten.clang"
  },
  "schemaVersion": "1.0.1",
  "updatedAt": "2017-11-27T14:18:30.837Z"
}