{
  "contractName": "TreatmentRequestWriter",
  "abi": [
    {
      "constant": false,
      "inputs": [
        {
          "name": "userId",
          "type": "address"
        },
        {
          "name": "paymentId",
          "type": "uint256"
        }
      ],
      "name": "lockPayment",
      "outputs": [],
      "payable": false,
      "stateMutability": "nonpayable",
      "type": "function"
    },
    {
      "constant": true,
      "inputs": [],
      "name": "smartContractStatus",
      "outputs": [
        {
          "name": "",
          "type": "uint8"
        }
      ],
      "payable": false,
      "stateMutability": "view",
      "type": "function"
    },
    {
      "constant": true,
      "inputs": [
        {
          "name": "treatmentRequestId",
          "type": "uint256"
        },
        {
          "name": "caseId",
          "type": "uint256"
        },
        {
          "name": "treatmentInsurance",
          "type": "bytes32"
        },
        {
          "name": "treatmentPolicyNumber",
          "type": "bytes32"
        },
        {
          "name": "treatmentPayerId",
          "type": "bytes32"
        },
        {
          "name": "treatmentMainSubscriber",
          "type": "bytes32"
        },
        {
          "name": "treatmentInsuranceAddress",
          "type": "bytes32"
        },
        {
          "name": "scanResults",
          "type": "string"
        },
        {
          "name": "comment",
          "type": "string"
        }
      ],
      "name": "owner",
      "outputs": [
        {
          "name": "",
          "type": "address"
        }
      ],
      "payable": false,
      "stateMutability": "view",
      "type": "function"
    },
    {
      "constant": true,
      "inputs": [
        {
          "name": "treatmentRequestId",
          "type": "uint256"
        },
        {
          "name": "caseId",
          "type": "uint256"
        },
        {
          "name": "insurance",
          "type": "string"
        },
        {
          "name": "scanResults",
          "type": "string"
        },
        {
          "name": "comment",
          "type": "string"
        }
      ],
      "name": "dbAddress",
      "outputs": [
        {
          "name": "",
          "type": "address"
        }
      ],
      "payable": false,
      "stateMutability": "view",
      "type": "function"
    },
    {
      "constant": false,
      "inputs": [
        {
          "name": "hasCaseId",
          "type": "bool"
        },
        {
          "name": "caseId",
          "type": "uint256"
        },
        {
          "name": "treatmentInsurance",
          "type": "bytes32"
        },
        {
          "name": "treatmentPolicyNumber",
          "type": "bytes32"
        },
        {
          "name": "treatmentPayerId",
          "type": "bytes32"
        },
        {
          "name": "treatmentMainSubscriber",
          "type": "bytes32"
        },
        {
          "name": "treatmentInsuranceAddress",
          "type": "string"
        },
        {
          "name": "scanResults",
          "type": "string"
        },
        {
          "name": "comment",
          "type": "string"
        }
      ],
      "name": "writeTreatmentRequest",
      "outputs": [
        {
          "name": "",
          "type": "address"
        }
      ],
      "payable": false,
      "stateMutability": "nonpayable",
      "type": "function"
    },
    {
      "constant": false,
      "inputs": [
        {
          "name": "newOwner",
          "type": "address"
        },
        {
          "name": "caseId",
          "type": "uint256"
        },
        {
          "name": "treatmentInsurance",
          "type": "bytes32"
        },
        {
          "name": "treatmentPolicyNumber",
          "type": "bytes32"
        },
        {
          "name": "treatmentPayerId",
          "type": "bytes32"
        },
        {
          "name": "treatmentMainSubscriber",
          "type": "bytes32"
        },
        {
          "name": "treatmentInsuranceAddress",
          "type": "string"
        },
        {
          "name": "scanResults",
          "type": "string"
        },
        {
          "name": "comment",
          "type": "string"
        }
      ],
      "name": "transferOwnership",
      "outputs": [
        {
          "name": "",
          "type": "address"
        }
      ],
      "payable": false,
      "stateMutability": "nonpayable",
      "type": "function"
    },
    {
      "constant": false,
      "inputs": [
        {
          "name": "_dbAddress",
          "type": "address"
        }
      ],
      "name": "transferOwnership",
      "outputs": [],
      "payable": false,
      "stateMutability": "nonpayable",
      "type": "constructor"
    },
    {
      "inputs": [
        {
          "name": "paymentId",
          "type": "uint256",
          "indexed": false
        }
      ],
      "payable": false,
      "stateMutability": "nonpayable",
      "type": "event",
      "anonymous": false,
      "name": "PaymentLocked"
    },
    {
      "anonymous": false,
      "inputs": [
        {
          "indexed": false,
          "name": "status",
          "type": "uint8"
        }
      ],
      "name": "OnSmartContractStatusSet",
      "type": "event"
    },
    {
      "anonymous": false,
      "inputs": [
        {
          "indexed": true,
          "name": "previousOwner",
          "type": "address"
        },
        {
          "indexed": true,
          "name": "newOwner",
          "type": "address"
        }
      ],
      "name": "OwnershipTransferred",
      "type": "event"
    },
    {
      "anonymous": false,
      "inputs": [
        {
          "indexed": true,
          "name": "previousOwner",
          "type": "address"
        },
        {
          "indexed": true,
          "name": "newOwner",
          "type": "address"
        }
      ],
      "name": "OwnershipTransferred",
      "type": "event"
    }
  ],
  "bytecode": "0x6060604052341561000f57600080fd5b604051602080612cff83398101604052808051906020019091905050336000806101000a81548173ffffffffffffffffffffffffffffffffffffffff021916908373ffffffffffffffffffffffffffffffffffffffff16021790555060008173ffffffffffffffffffffffffffffffffffffffff161415151561009157600080fd5b80600160006101000a81548173ffffffffffffffffffffffffffffffffffffffff021916908373ffffffffffffffffffffffffffffffffffffffff16021790555050612c1d806100e26000396000f300606060405260043610610078576000357c0100000000000000000000000000000000000000000000000000000000900463ffffffff1680633f4b14701461007d5780634c8ddddc146100bf5780638da5cb5b146100ee57806391e06b6d146101435780639c7fc1dc14610198578063f2fde38b14610236575b600080fd5b341561008857600080fd5b6100bd600480803573ffffffffffffffffffffffffffffffffffffffff1690602001909190803590602001909190505061026f565b005b34156100ca57600080fd5b6100d26104c6565b604051808260ff1660ff16815260200191505060405180910390f35b34156100f957600080fd5b6101016104d9565b604051808273ffffffffffffffffffffffffffffffffffffffff1673ffffffffffffffffffffffffffffffffffffffff16815260200191505060405180910390f35b341561014e57600080fd5b6101566104fe565b604051808273ffffffffffffffffffffffffffffffffffffffff1673ffffffffffffffffffffffffffffffffffffffff16815260200191505060405180910390f35b34156101a357600080fd5b6102346004808035151590602001909190803590602001909190803560001916906020019091908035600019169060200190919080356000191690602001909190803560001916906020019091908035906020019082018035906020019190919290803590602001908201803590602001919091929080359060200190820180359060200191909192905050610524565b005b341561024157600080fd5b61026d600480803573ffffffffffffffffffffffffffffffffffffffff16906020019091905050610889565b005b81610279816109de565b151561028457600080fd5b8160018060ff16600160009054906101000a900473ffffffffffffffffffffffffffffffffffffffff1673ffffffffffffffffffffffffffffffffffffffff16637a0e03ec8460405180807f7061796d656e742f737461746500000000000000000000000000000000000000815250600d0182815260200191505060405180910390206000604051602001526040518263ffffffff167c0100000000000000000000000000000000000000000000000000000000028152600401808260001916600019168152602001915050602060405180830381600087803b151561036957600080fd5b6102c65a03f1151561037a57600080fd5b5050506040518051905060ff1614151561039357600080fd5b600160009054906101000a900473ffffffffffffffffffffffffffffffffffffffff1673ffffffffffffffffffffffffffffffffffffffff16630bd851588560405180807f7061796d656e742f737461746500000000000000000000000000000000000000815250600d01828152602001915050604051809103902060026040518363ffffffff167c01000000000000000000000000000000000000000000000000000000000281526004018083600019166000191681526020018260ff16815260200192505050600060405180830381600087803b151561047457600080fd5b6102c65a03f1151561048557600080fd5b5050507fa5f78a79f83dfad686a63ca003a42f6c262d9fdc43a6742c56f5c27c11b9a1e2846040518082815260200191505060405180910390a15050505050565b600160149054906101000a900460ff1681565b6000809054906101000a900473ffffffffffffffffffffffffffffffffffffffff1681565b600160009054906101000a900473ffffffffffffffffffffffffffffffffffffffff1681565b600080600160149054906101000a900460ff1660ff1614151561054657600080fd5b610573600160009054906101000a900473ffffffffffffffffffffffffffffffffffffffff168e8e610a05565b905060018060009054906101000a900473ffffffffffffffffffffffffffffffffffffffff1673ffffffffffffffffffffffffffffffffffffffff16637a0e03ec8360405180807f74726561746d656e742d726571756573742f737461747573000000000000000081525060180182815260200191505060405180910390206000604051602001526040518263ffffffff167c0100000000000000000000000000000000000000000000000000000000028152600401808260001916600019168152602001915050602060405180830381600087803b151561065457600080fd5b6102c65a03f1151561066557600080fd5b5050506040518051905060ff16148015610779575060018060009054906101000a900473ffffffffffffffffffffffffffffffffffffffff1673ffffffffffffffffffffffffffffffffffffffff16637a0e03ec8e60405180807f636173652f737461747573000000000000000000000000000000000000000000815250600b0182815260200191505060405180910390206000604051602001526040518263ffffffff167c0100000000000000000000000000000000000000000000000000000000028152600401808260001916600019168152602001915050602060405180830381600087803b151561075957600080fd5b6102c65a03f1151561076a57600080fd5b5050506040518051905060ff16145b151561078457600080fd5b610817600160009054906101000a900473ffffffffffffffffffffffffffffffffffffffff16823388888080601f01602080910402602001604051908101604052809392919081815260200183838082843782019150505050505087878080601f016020809104026020016040519081016040528093929190818152602001838380828437820191505050505050610a1b565b61087a600160009054906101000a900473ffffffffffffffffffffffffffffffffffffffff16828d8d8d8d8d8d8080601f016020809104026020016040519081016040528093929190818152602001838380828437820191505050505050610a2f565b50505050505050505050505050565b6000809054906101000a900473ffffffffffffffffffffffffffffffffffffffff1673ffffffffffffffffffffffffffffffffffffffff163373ffffffffffffffffffffffffffffffffffffffff161415156108e457600080fd5b600073ffffffffffffffffffffffffffffffffffffffff168173ffffffffffffffffffffffffffffffffffffffff161415151561092057600080fd5b8073ffffffffffffffffffffffffffffffffffffffff166000809054906101000a900473ffffffffffffffffffffffffffffffffffffffff1673ffffffffffffffffffffffffffffffffffffffff167f8be0079c531659141344cd1fd0a4f28419497f9722a3daafe3b4186f6b6457e060405160405180910390a3806000806101000a81548173ffffffffffffffffffffffffffffffffffffffff021916908373ffffffffffffffffffffffffffffffffffffffff16021790555050565b60006109eb826001610a47565b80156109fe57506109fd826001610a62565b5b9050919050565b6000610a12848484610a7d565b90509392505050565b610a288585858585610f1a565b5050505050565b610a3e878787878787876113f7565b50505050505050565b6000610a528361140f565b60ff168260ff1614905092915050565b6000610a6d8361154c565b60ff168260ff1614905092915050565b6000610a8a848484611689565b9150610acb846040805190810160405280601881526020017f74726561746d656e742d72657175657374732d636f756e7400000000000000008152506117b6565b905060008473ffffffffffffffffffffffffffffffffffffffff16637a0e03ec8360405180807f74726561746d656e742d726571756573742f737461747573000000000000000081525060180182815260200191505060405180910390206000604051602001526040518263ffffffff167c0100000000000000000000000000000000000000000000000000000000028152600401808260001916600019168152602001915050602060405180830381600087803b1515610b8b57600080fd5b6102c65a03f11515610b9c57600080fd5b5050506040518051905060ff16141515610bb557600080fd5b8373ffffffffffffffffffffffffffffffffffffffff16630bd851588260405180807f74726561746d656e742d726571756573742f7374617475730000000000000000815250601801828152602001915050604051809103902060016040518363ffffffff167c01000000000000000000000000000000000000000000000000000000000281526004018083600019166000191681526020018260ff16815260200192505050600060405180830381600087803b1515610c7457600080fd5b6102c65a03f11515610c8557600080fd5b5050508373ffffffffffffffffffffffffffffffffffffffff16633562fd208260405180807f74726561746d656e742d726571756573742f637265617465642d6f6e00000000815250601c018281526020019150506040518091039020426040518363ffffffff167c010000000000000000000000000000000000000000000000000000000002815260040180836000191660001916815260200182815260200192505050600060405180830381600087803b1515610d4357600080fd5b6102c65a03f11515610d5457600080fd5b5050508373ffffffffffffffffffffffffffffffffffffffff16633562fd208260405180807f74726561746d656e742d726571756573742f63617365000000000000000000008152506016018281526020019150506040518091039020846040518363ffffffff167c010000000000000000000000000000000000000000000000000000000002815260040180836000191660001916815260200182815260200192505050600060405180830381600087803b1515610e1257600080fd5b6102c65a03f11515610e2357600080fd5b505050610e9c846040805190810160405280601181526020017f74726561746d656e742d726571756573740000000000000000000000000000008152506040805190810160405280601881526020017f74726561746d656e742d72657175657374732d636f756e740000000000000000815250846118bc565b610f1384836040805190810160405280601681526020017f636173652f74726561746d656e742d72657175657374000000000000000000008152506040805190810160405280601d81526020017f636173652f74726561746d656e742d72657175657374732d636f756e7400000081525085611bb6565b9392505050565b6000806000808873ffffffffffffffffffffffffffffffffffffffff1663bdc963d88960405180807f74726561746d656e742d726571756573742f636173650000000000000000000081525060160182815260200191505060405180910390206000604051602001526040518263ffffffff167c0100000000000000000000000000000000000000000000000000000000028152600401808260001916600019168152602001915050602060405180830381600087803b1515610fdc57600080fd5b6102c65a03f11515610fed57600080fd5b505050604051805190509350600092505b878310156113de578873ffffffffffffffffffffffffffffffffffffffff1663bdc963d8888560405180807f70617469656e742f74726561746d656e742d72657175657374000000000000008152506019018373ffffffffffffffffffffffffffffffffffffffff1673ffffffffffffffffffffffffffffffffffffffff166c010000000000000000000000000281526014018281526020019250505060405180910390206000604051602001526040518263ffffffff167c0100000000000000000000000000000000000000000000000000000000028152600401808260001916600019168152602001915050602060405180830381600087803b151561110557600080fd5b6102c65a03f1151561111657600080fd5b5050506040518051905091508873ffffffffffffffffffffffffffffffffffffffff1663bdc963d88360405180807f74726561746d656e742d726571756573742f636173650000000000000000000081525060160182815260200191505060405180910390206000604051602001526040518263ffffffff167c0100000000000000000000000000000000000000000000000000000000028152600401808260001916600019168152602001915050602060405180830381600087803b15156111de57600080fd5b6102c65a03f115156111ef57600080fd5b50505060405180519050905083811480156113c7575060018973ffffffffffffffffffffffffffffffffffffffff16637a0e03ec8460405180807f74726561746d656e742d726571756573742f737461747573000000000000000081525060180182815260200191505060405180910390206000604051602001526040518263ffffffff167c0100000000000000000000000000000000000000000000000000000000028152600401808260001916600019168152602001915050602060405180830381600087803b15156112c357600080fd5b6102c65a03f115156112d457600080fd5b5050506040518051905060ff1614806113c6575060028973ffffffffffffffffffffffffffffffffffffffff16637a0e03ec8460405180807f74726561746d656e742d726571756573742f737461747573000000000000000081525060180182815260200191505060405180910390206000604051602001526040518263ffffffff167c0100000000000000000000000000000000000000000000000000000000028152600401808260001916600019168152602001915050602060405180830381600087803b15156113a657600080fd5b6102c65a03f115156113b757600080fd5b5050506040518051905060ff16145b5b156113d1576113ec565b8280600101935050610ffe565b6113eb8989898989611dd0565b5b505050505050505050565b611406878787878787876121b1565b50505050505050565b6000600160009054906101000a900473ffffffffffffffffffffffffffffffffffffffff1673ffffffffffffffffffffffffffffffffffffffff16637a0e03ec8360405180807f757365722f7479706500000000000000000000000000000000000000000000008152506009018273ffffffffffffffffffffffffffffffffffffffff1673ffffffffffffffffffffffffffffffffffffffff166c0100000000000000000000000002815260140191505060405180910390206000604051602001526040518263ffffffff167c0100000000000000000000000000000000000000000000000000000000028152600401808260001916600019168152602001915050602060405180830381600087803b151561152a57600080fd5b6102c65a03f1151561153b57600080fd5b505050604051805190509050919050565b6000600160009054906101000a900473ffffffffffffffffffffffffffffffffffffffff1673ffffffffffffffffffffffffffffffffffffffff16637a0e03ec8360405180807f757365722f737461747573000000000000000000000000000000000000000000815250600b018273ffffffffffffffffffffffffffffffffffffffff1673ffffffffffffffffffffffffffffffffffffffff166c0100000000000000000000000002815260140191505060405180910390206000604051602001526040518263ffffffff167c0100000000000000000000000000000000000000000000000000000000028152600401808260001916600019168152602001915050602060405180830381600087803b151561166757600080fd5b6102c65a03f1151561167857600080fd5b505050604051805190509050919050565b60008215156117ab576116d1846040805190810160405280600b81526020017f63617365732d636f756e740000000000000000000000000000000000000000008152506117b6565b90508373ffffffffffffffffffffffffffffffffffffffff16630bd851588260405180807f636173652f737461747573000000000000000000000000000000000000000000815250600b01828152602001915050604051809103902060016040518363ffffffff167c01000000000000000000000000000000000000000000000000000000000281526004018083600019166000191681526020018260ff16815260200192505050600060405180830381600087803b151561179257600080fd5b6102c65a03f115156117a357600080fd5b5050506117af565b8190505b9392505050565b60008273ffffffffffffffffffffffffffffffffffffffff1663bdc963d8836040518082805190602001908083835b60208310151561180a57805182526020820191506020810190506020830392506117e5565b6001836020036101000a03801982511681845116808217855250505050505090500191505060405180910390206000604051602001526040518263ffffffff167c0100000000000000000000000000000000000000000000000000000000028152600401808260001916600019168152602001915050602060405180830381600087803b151561189957600080fd5b6102c65a03f115156118aa57600080fd5b50505060405180519050905092915050565b60008473ffffffffffffffffffffffffffffffffffffffff1663bdc963d8846040518082805190602001908083835b60208310151561191057805182526020820191506020810190506020830392506118eb565b6001836020036101000a03801982511681845116808217855250505050505090500191505060405180910390206000604051602001526040518263ffffffff167c0100000000000000000000000000000000000000000000000000000000028152600401808260001916600019168152602001915050602060405180830381600087803b151561199f57600080fd5b6102c65a03f115156119b057600080fd5b5050506040518051905090508473ffffffffffffffffffffffffffffffffffffffff16633562fd2085836040518083805190602001908083835b602083101515611a0f57805182526020820191506020810190506020830392506119ea565b6001836020036101000a038019825116818451168082178552505050505050905001828152602001925050506040518091039020846040518363ffffffff167c010000000000000000000000000000000000000000000000000000000002815260040180836000191660001916815260200182815260200192505050600060405180830381600087803b1515611aa457600080fd5b6102c65a03f11515611ab557600080fd5b5050508473ffffffffffffffffffffffffffffffffffffffff16633562fd20846040518082805190602001908083835b602083101515611b0a5780518252602082019150602081019050602083039250611ae5565b6001836020036101000a0380198251168184511680821785525050505050509050019150506040518091039020600184016040518363ffffffff167c010000000000000000000000000000000000000000000000000000000002815260040180836000191660001916815260200182815260200192505050600060405180830381600087803b1515611b9b57600080fd5b6102c65a03f11515611bac57600080fd5b5050505050505050565b6000611bc3868685612708565b90508573ffffffffffffffffffffffffffffffffffffffff16633562fd208587846040518084805190602001908083835b602083101515611c195780518252602082019150602081019050602083039250611bf4565b6001836020036101000a03801982511681845116808217855250505050505090500183815260200182815260200193505050506040518091039020846040518363ffffffff167c010000000000000000000000000000000000000000000000000000000002815260040180836000191660001916815260200182815260200192505050600060405180830381600087803b1515611cb557600080fd5b6102c65a03f11515611cc657600080fd5b5050508573ffffffffffffffffffffffffffffffffffffffff16633562fd2084876040518083805190602001908083835b602083101515611d1c5780518252602082019150602081019050602083039250611cf7565b6001836020036101000a038019825116818451168082178552505050505050905001828152602001925050506040518091039020600184016040518363ffffffff167c010000000000000000000000000000000000000000000000000000000002815260040180836000191660001916815260200182815260200192505050600060405180830381600087803b1515611db457600080fd5b6102c65a03f11515611dc557600080fd5b505050505050505050565b611e4785846040805190810160405280601981526020017f70617469656e742f74726561746d656e742d72657175657374000000000000008152506040805190810160405280602081526020017f70617469656e742f74726561746d656e742d72657175657374732d636f756e7481525088612817565b8473ffffffffffffffffffffffffffffffffffffffff16635a2bf25a8560405180807f74726561746d656e742d726571756573742f70617469656e74000000000000008152506019018281526020019150506040518091039020856040518363ffffffff167c01000000000000000000000000000000000000000000000000000000000281526004018083600019166000191681526020018273ffffffffffffffffffffffffffffffffffffffff1673ffffffffffffffffffffffffffffffffffffffff16815260200192505050600060405180830381600087803b1515611f2e57600080fd5b6102c65a03f11515611f3f57600080fd5b5050508473ffffffffffffffffffffffffffffffffffffffff1663f58660668560405180807f74726561746d656e742d726571756573742f7363616e2d726573756c74730000815250601e018281526020019150506040518091039020846040518363ffffffff167c010000000000000000000000000000000000000000000000000000000002815260040180836000191660001916815260200180602001828103825283818151815260200191508051906020019080838360005b83811015612016578082015181840152602081019050611ffb565b50505050905090810190601f1680156120435780820380516001836020036101000a031916815260200191505b509350505050600060405180830381600087803b151561206257600080fd5b6102c65a03f1151561207357600080fd5b5050508473ffffffffffffffffffffffffffffffffffffffff1663f58660668560405180807f74726561746d656e742d726571756573742f636f6d6d656e74000000000000008152506019018281526020019150506040518091039020836040518363ffffffff167c010000000000000000000000000000000000000000000000000000000002815260040180836000191660001916815260200180602001828103825283818151815260200191508051906020019080838360005b8381101561214a57808201518184015260208101905061212f565b50505050905090810190601f1680156121775780820380516001836020036101000a031916815260200191505b509350505050600060405180830381600087803b151561219657600080fd5b6102c65a03f115156121a757600080fd5b5050505050505050565b8673ffffffffffffffffffffffffffffffffffffffff166325cf512d8760405180807f74726561746d656e742d726571756573742f6170706f696e746d656e742d696e81526020017f737572616e6365000000000000000000000000000000000000000000000000008152506027018281526020019150506040518091039020876040518363ffffffff167c0100000000000000000000000000000000000000000000000000000000028152600401808360001916600019168152602001826000191660001916815260200192505050600060405180830381600087803b151561229a57600080fd5b6102c65a03f115156122ab57600080fd5b5050508673ffffffffffffffffffffffffffffffffffffffff166325cf512d8760405180807f74726561746d656e742d726571756573742f6170706f696e746d656e742d696e81526020017f737572616e63652d706f6c6963792d6e756d62657200000000000000000000008152506035018281526020019150506040518091039020866040518363ffffffff167c0100000000000000000000000000000000000000000000000000000000028152600401808360001916600019168152602001826000191660001916815260200192505050600060405180830381600087803b151561239757600080fd5b6102c65a03f115156123a857600080fd5b5050508673ffffffffffffffffffffffffffffffffffffffff166325cf512d8760405180807f74726561746d656e742d726571756573742f6170706f696e746d656e742d696e81526020017f737572616e63652d70617965722d6964000000000000000000000000000000008152506030018281526020019150506040518091039020856040518363ffffffff167c0100000000000000000000000000000000000000000000000000000000028152600401808360001916600019168152602001826000191660001916815260200192505050600060405180830381600087803b151561249457600080fd5b6102c65a03f115156124a557600080fd5b5050508673ffffffffffffffffffffffffffffffffffffffff166325cf512d8760405180807f74726561746d656e742d726571756573742f6170706f696e746d656e742d696e81526020017f737572616e63652d6d61696e2d737562736372696265720000000000000000008152506037018281526020019150506040518091039020846040518363ffffffff167c0100000000000000000000000000000000000000000000000000000000028152600401808360001916600019168152602001826000191660001916815260200192505050600060405180830381600087803b151561259157600080fd5b6102c65a03f115156125a257600080fd5b5050508673ffffffffffffffffffffffffffffffffffffffff1663f58660668760405180807f74726561746d656e742d726571756573742f6170706f696e746d656e742d696e81526020017f737572616e63652d616464726573730000000000000000000000000000000000815250602f018281526020019150506040518091039020836040518363ffffffff167c010000000000000000000000000000000000000000000000000000000002815260040180836000191660001916815260200180602001828103825283818151815260200191508051906020019080838360005b8381101561269f578082015181840152602081019050612684565b50505050905090810190601f1680156126cc5780820380516001836020036101000a031916815260200191505b509350505050600060405180830381600087803b15156126eb57600080fd5b6102c65a03f115156126fc57600080fd5b50505050505050505050565b60008373ffffffffffffffffffffffffffffffffffffffff1663bdc963d883856040518083805190602001908083835b60208310151561275d5780518252602082019150602081019050602083039250612738565b6001836020036101000a0380198251168184511680821785525050505050509050018281526020019250505060405180910390206000604051602001526040518263ffffffff167c0100000000000000000000000000000000000000000000000000000000028152600401808260001916600019168152602001915050602060405180830381600087803b15156127f357600080fd5b6102c65a03f1151561280457600080fd5b5050506040518051905090509392505050565b6000612824868685612aa7565b90508573ffffffffffffffffffffffffffffffffffffffff16633562fd208587846040518084805190602001908083835b60208310151561287a5780518252602082019150602081019050602083039250612855565b6001836020036101000a0380198251168184511680821785525050505050509050018373ffffffffffffffffffffffffffffffffffffffff1673ffffffffffffffffffffffffffffffffffffffff166c0100000000000000000000000002815260140182815260200193505050506040518091039020846040518363ffffffff167c010000000000000000000000000000000000000000000000000000000002815260040180836000191660001916815260200182815260200192505050600060405180830381600087803b151561295157600080fd5b6102c65a03f1151561296257600080fd5b5050508573ffffffffffffffffffffffffffffffffffffffff16633562fd2084876040518083805190602001908083835b6020831015156129b85780518252602082019150602081019050602083039250612993565b6001836020036101000a0380198251168184511680821785525050505050509050018273ffffffffffffffffffffffffffffffffffffffff1673ffffffffffffffffffffffffffffffffffffffff166c01000000000000000000000000028152601401925050506040518091039020600184016040518363ffffffff167c010000000000000000000000000000000000000000000000000000000002815260040180836000191660001916815260200182815260200192505050600060405180830381600087803b1515612a8b57600080fd5b6102c65a03f11515612a9c57600080fd5b505050505050505050565b60008373ffffffffffffffffffffffffffffffffffffffff1663bdc963d883856040518083805190602001908083835b602083101515612afc5780518252602082019150602081019050602083039250612ad7565b6001836020036101000a0380198251168184511680821785525050505050509050018273ffffffffffffffffffffffffffffffffffffffff1673ffffffffffffffffffffffffffffffffffffffff166c010000000000000000000000000281526014019250505060405180910390206000604051602001526040518263ffffffff167c0100000000000000000000000000000000000000000000000000000000028152600401808260001916600019168152602001915050602060405180830381600087803b1515612bcd57600080fd5b6102c65a03f11515612bde57600080fd5b50505060405180519050905093925050505600a165627a7a723058203c2744df65e3dde8f9453b73b618534deb623efec48459ef4ff14dfe574691730029",
  "source": "pragma solidity 0.4.18;\nimport \"./Restrictor.sol\";\nimport \"../lib/odll/userManager.sol\";\n\ncontract TreatmentRequestWriter is Restrictor {\n\n  function TreatmentRequestWriter(address _dbAddress) public {\n    require(_dbAddress != 0x0);\n    dbAddress = _dbAddress;\n  }\n\n  // Treatment Request\n  function writeTreatmentRequest (\n    bool hasCaseId,\n    uint caseId,\n    bytes32 treatmentInsurance,\n    bytes32 treatmentPolicyNumber,\n    bytes32 treatmentPayerId,\n    bytes32 treatmentMainSubscriber,\n    string treatmentInsuranceAddress,\n    string scanResults,\n    string comment\n  )\n    external\n    onlyPermittedSmartContract\n  {\n    uint treatmentRequestId = userManager.initTreatmentRequest(dbAddress, hasCaseId, caseId);\n    require(DB(dbAddress).getUInt8Value(keccak256(\"treatment-request/status\", treatmentRequestId)) == 1\n      && DB(dbAddress).getUInt8Value(keccak256(\"case/status\", caseId)) == 1);\n\n    userManager.writePatientTreatmentRequest(dbAddress, treatmentRequestId, msg.sender, scanResults, comment);\n    userManager.writePatientTreatmentRequestInsurance(dbAddress, treatmentRequestId, treatmentInsurance, treatmentPolicyNumber, treatmentPayerId, treatmentMainSubscriber, treatmentInsuranceAddress);\n  }\n}\n",
  "sourcePath": "/Users/danielokwufulueze/dev/vue/apps/oraldatalink/contracts/odll/TreatmentRequestWriter.sol",
  "compiler": {
    "name": "solc",
    "version": "0.4.18+commit.9cf6e910.Emscripten.clang"
  },
  "schemaVersion": "1.0.1",
  "updatedAt": "2018-02-03T22:18:34.883Z"
}