{
  "contractName": "TreatmentApplicationWriter2",
  "abi": [
    {
      "constant": false,
      "inputs": [
        {
          "name": "userId",
          "type": "address"
        },
        {
          "name": "paymentId",
          "type": "uint256"
        }
      ],
      "name": "lockPayment",
      "outputs": [],
      "payable": false,
      "stateMutability": "nonpayable",
      "type": "function"
    },
    {
      "constant": true,
      "inputs": [],
      "name": "smartContractStatus",
      "outputs": [
        {
          "name": "",
          "type": "uint8"
        }
      ],
      "payable": false,
      "stateMutability": "view",
      "type": "function"
    },
    {
      "constant": false,
      "inputs": [
        {
          "name": "dentistId",
          "type": "address"
        },
        {
          "name": "treatmentApplicationId",
          "type": "uint256"
        },
        {
          "name": "quote",
          "type": "uint256"
        }
      ],
      "name": "acceptTreatmentApplication",
      "outputs": [],
      "payable": true,
      "stateMutability": "payable",
      "type": "function"
    },
    {
      "constant": true,
      "inputs": [],
      "name": "owner",
      "outputs": [
        {
          "name": "",
          "type": "address"
        }
      ],
      "payable": false,
      "stateMutability": "view",
      "type": "function"
    },
    {
      "constant": true,
      "inputs": [],
      "name": "dbAddress",
      "outputs": [
        {
          "name": "",
          "type": "address"
        }
      ],
      "payable": false,
      "stateMutability": "view",
      "type": "function"
    },
    {
      "constant": false,
      "inputs": [
        {
          "name": "newOwner",
          "type": "address"
        }
      ],
      "name": "transferOwnership",
      "outputs": [],
      "payable": false,
      "stateMutability": "nonpayable",
      "type": "function"
    },
    {
      "inputs": [
        {
          "name": "_dbAddress",
          "type": "address"
        }
      ],
      "payable": false,
      "stateMutability": "nonpayable",
      "type": "constructor"
    },
    {
      "anonymous": false,
      "inputs": [
        {
          "indexed": false,
          "name": "paymentId",
          "type": "uint256"
        }
      ],
      "name": "PaymentLocked",
      "type": "event"
    },
    {
      "anonymous": false,
      "inputs": [
        {
          "indexed": false,
          "name": "status",
          "type": "uint8"
        }
      ],
      "name": "OnSmartContractStatusSet",
      "type": "event"
    },
    {
      "anonymous": false,
      "inputs": [
        {
          "indexed": true,
          "name": "previousOwner",
          "type": "address"
        },
        {
          "indexed": true,
          "name": "newOwner",
          "type": "address"
        }
      ],
      "name": "OwnershipTransferred",
      "type": "event"
    }
  ],
  "bytecode": "0x6060604052341561000f57600080fd5b6040516020806132f683398101604052808051906020019091905050336000806101000a81548173ffffffffffffffffffffffffffffffffffffffff021916908373ffffffffffffffffffffffffffffffffffffffff16021790555060008173ffffffffffffffffffffffffffffffffffffffff161415151561009157600080fd5b80600160006101000a81548173ffffffffffffffffffffffffffffffffffffffff021916908373ffffffffffffffffffffffffffffffffffffffff16021790555050613214806100e26000396000f300606060405260043610610078576000357c0100000000000000000000000000000000000000000000000000000000900463ffffffff1680633f4b14701461007d5780634c8ddddc146100bf57806383a7d289146100ee5780638da5cb5b1461012e57806391e06b6d14610183578063f2fde38b146101d8575b600080fd5b341561008857600080fd5b6100bd600480803573ffffffffffffffffffffffffffffffffffffffff16906020019091908035906020019091905050610211565b005b34156100ca57600080fd5b6100d2610468565b604051808260ff1660ff16815260200191505060405180910390f35b61012c600480803573ffffffffffffffffffffffffffffffffffffffff1690602001909190803590602001909190803590602001909190505061047b565b005b341561013957600080fd5b6101416107e0565b604051808273ffffffffffffffffffffffffffffffffffffffff1673ffffffffffffffffffffffffffffffffffffffff16815260200191505060405180910390f35b341561018e57600080fd5b610196610805565b604051808273ffffffffffffffffffffffffffffffffffffffff1673ffffffffffffffffffffffffffffffffffffffff16815260200191505060405180910390f35b34156101e357600080fd5b61020f600480803573ffffffffffffffffffffffffffffffffffffffff1690602001909190505061082b565b005b8161021b81610980565b151561022657600080fd5b8160018060ff16600160009054906101000a900473ffffffffffffffffffffffffffffffffffffffff1673ffffffffffffffffffffffffffffffffffffffff16637a0e03ec8460405180807f7061796d656e742f737461746500000000000000000000000000000000000000815250600d0182815260200191505060405180910390206000604051602001526040518263ffffffff167c0100000000000000000000000000000000000000000000000000000000028152600401808260001916600019168152602001915050602060405180830381600087803b151561030b57600080fd5b6102c65a03f1151561031c57600080fd5b5050506040518051905060ff1614151561033557600080fd5b600160009054906101000a900473ffffffffffffffffffffffffffffffffffffffff1673ffffffffffffffffffffffffffffffffffffffff16630bd851588560405180807f7061796d656e742f737461746500000000000000000000000000000000000000815250600d01828152602001915050604051809103902060026040518363ffffffff167c01000000000000000000000000000000000000000000000000000000000281526004018083600019166000191681526020018260ff16815260200192505050600060405180830381600087803b151561041657600080fd5b6102c65a03f1151561042757600080fd5b5050507fa5f78a79f83dfad686a63ca003a42f6c262d9fdc43a6742c56f5c27c11b9a1e2846040518082815260200191505060405180910390a15050505050565b600160149054906101000a900460ff1681565b600080600080600160009054906101000a900473ffffffffffffffffffffffffffffffffffffffff1673ffffffffffffffffffffffffffffffffffffffff16634c77e5ba60405180807f6f646c6c2f657363726f772d6164647265737300000000000000000000000000815250601301905060405180910390206000604051602001526040518263ffffffff167c0100000000000000000000000000000000000000000000000000000000028152600401808260001916600019168152602001915050602060405180830381600087803b151561055757600080fd5b6102c65a03f1151561056857600080fd5b50505060405180519050935060008473ffffffffffffffffffffffffffffffffffffffff161415151561059a57600080fd5b3492508483101515156105ac57600080fd5b84831115610604578291508492503373ffffffffffffffffffffffffffffffffffffffff166108fc6105de84886109a7565b9081150290604051600060405180830381858888f19350505050151561060357600080fd5b5b610665600160009054906101000a900473ffffffffffffffffffffffffffffffffffffffff166040805190810160405280600e81526020017f7061796d656e74732d636f756e740000000000000000000000000000000000008152506109c0565b9050600160009054906101000a900473ffffffffffffffffffffffffffffffffffffffff1673ffffffffffffffffffffffffffffffffffffffff16630bd851588260405180807f7061796d656e742f666f722d7479706500000000000000000000000000000000815250601001828152602001915050604051809103902060026040518363ffffffff167c01000000000000000000000000000000000000000000000000000000000281526004018083600019166000191681526020018260ff16815260200192505050600060405180830381600087803b151561074857600080fd5b6102c65a03f1151561075957600080fd5b50505061078d600160009054906101000a900473ffffffffffffffffffffffffffffffffffffffff1688338985888b610ac6565b6107973382610211565b8373ffffffffffffffffffffffffffffffffffffffff166108fc849081150290604051600060405180830381858888f1935050505015156107d757600080fd5b50505050505050565b6000809054906101000a900473ffffffffffffffffffffffffffffffffffffffff1681565b600160009054906101000a900473ffffffffffffffffffffffffffffffffffffffff1681565b6000809054906101000a900473ffffffffffffffffffffffffffffffffffffffff1673ffffffffffffffffffffffffffffffffffffffff163373ffffffffffffffffffffffffffffffffffffffff1614151561088657600080fd5b600073ffffffffffffffffffffffffffffffffffffffff168173ffffffffffffffffffffffffffffffffffffffff16141515156108c257600080fd5b8073ffffffffffffffffffffffffffffffffffffffff166000809054906101000a900473ffffffffffffffffffffffffffffffffffffffff1673ffffffffffffffffffffffffffffffffffffffff167f8be0079c531659141344cd1fd0a4f28419497f9722a3daafe3b4186f6b6457e060405160405180910390a3806000806101000a81548173ffffffffffffffffffffffffffffffffffffffff021916908373ffffffffffffffffffffffffffffffffffffffff16021790555050565b600061098d826001610ade565b80156109a0575061099f826001610af9565b5b9050919050565b60008282111515156109b557fe5b818303905092915050565b60008273ffffffffffffffffffffffffffffffffffffffff1663bdc963d8836040518082805190602001908083835b602083101515610a1457805182526020820191506020810190506020830392506109ef565b6001836020036101000a03801982511681845116808217855250505050505090500191505060405180910390206000604051602001526040518263ffffffff167c0100000000000000000000000000000000000000000000000000000000028152600401808260001916600019168152602001915050602060405180830381600087803b1515610aa357600080fd5b6102c65a03f11515610ab457600080fd5b50505060405180519050905092915050565b610ad587878787878787610b14565b50505050505050565b6000610ae9836114dc565b60ff168260ff1614905092915050565b6000610b0483611619565b60ff168260ff1614905092915050565b600080610b56896040805190810160405280601081526020017f74726561746d656e74732d636f756e74000000000000000000000000000000008152506109c0565b91508873ffffffffffffffffffffffffffffffffffffffff16630bd851588660405180807f7061796d656e742f737461746500000000000000000000000000000000000000815250600d01828152602001915050604051809103902060016040518363ffffffff167c01000000000000000000000000000000000000000000000000000000000281526004018083600019166000191681526020018260ff16815260200192505050600060405180830381600087803b1515610c1757600080fd5b6102c65a03f11515610c2857600080fd5b5050508873ffffffffffffffffffffffffffffffffffffffff1663bdc963d88760405180807f74726561746d656e742d6170706c69636174696f6e2f74726561746d656e742d81526020017f726571756573740000000000000000000000000000000000000000000000000081525060270182815260200191505060405180910390206000604051602001526040518263ffffffff167c0100000000000000000000000000000000000000000000000000000000028152600401808260001916600019168152602001915050602060405180830381600087803b1515610d0d57600080fd5b6102c65a03f11515610d1e57600080fd5b50505060405180519050905060008973ffffffffffffffffffffffffffffffffffffffff16637a0e03ec8460405180807f74726561746d656e742f7374617475730000000000000000000000000000000081525060100182815260200191505060405180910390206000604051602001526040518263ffffffff167c0100000000000000000000000000000000000000000000000000000000028152600401808260001916600019168152602001915050602060405180830381600087803b1515610de857600080fd5b6102c65a03f11515610df957600080fd5b5050506040518051905060ff16148015610eec575060018973ffffffffffffffffffffffffffffffffffffffff16637a0e03ec8860405180807f74726561746d656e742d6170706c69636174696f6e2f73746174757300000000815250601c0182815260200191505060405180910390206000604051602001526040518263ffffffff167c0100000000000000000000000000000000000000000000000000000000028152600401808260001916600019168152602001915050602060405180830381600087803b1515610ecc57600080fd5b6102c65a03f11515610edd57600080fd5b5050506040518051905060ff16145b8015610fd1575060018973ffffffffffffffffffffffffffffffffffffffff16637a0e03ec8360405180807f74726561746d656e742d726571756573742f737461747573000000000000000081525060180182815260200191505060405180910390206000604051602001526040518263ffffffff167c0100000000000000000000000000000000000000000000000000000000028152600401808260001916600019168152602001915050602060405180830381600087803b1515610fb157600080fd5b6102c65a03f11515610fc257600080fd5b5050506040518051905060ff16145b80156110de57508673ffffffffffffffffffffffffffffffffffffffff168973ffffffffffffffffffffffffffffffffffffffff16634c77e5ba8360405180807f74726561746d656e742d726571756573742f70617469656e740000000000000081525060190182815260200191505060405180910390206000604051602001526040518263ffffffff167c0100000000000000000000000000000000000000000000000000000000028152600401808260001916600019168152602001915050602060405180830381600087803b15156110ab57600080fd5b6102c65a03f115156110bc57600080fd5b5050506040518051905073ffffffffffffffffffffffffffffffffffffffff16145b80156111eb57508773ffffffffffffffffffffffffffffffffffffffff168973ffffffffffffffffffffffffffffffffffffffff16634c77e5ba8860405180807f74726561746d656e742d6170706c69636174696f6e2f64656e74697374000000815250601d0182815260200191505060405180910390206000604051602001526040518263ffffffff167c0100000000000000000000000000000000000000000000000000000000028152600401808260001916600019168152602001915050602060405180830381600087803b15156111b857600080fd5b6102c65a03f115156111c957600080fd5b5050506040518051905073ffffffffffffffffffffffffffffffffffffffff16145b80156112f857508673ffffffffffffffffffffffffffffffffffffffff168973ffffffffffffffffffffffffffffffffffffffff16634c77e5ba8860405180807f74726561746d656e742d6170706c69636174696f6e2f70617469656e74000000815250601d0182815260200191505060405180910390206000604051602001526040518263ffffffff167c0100000000000000000000000000000000000000000000000000000000028152600401808260001916600019168152602001915050602060405180830381600087803b15156112c557600080fd5b6102c65a03f115156112d657600080fd5b5050506040518051905073ffffffffffffffffffffffffffffffffffffffff16145b151561130357600080fd5b611311898989848a87611756565b61132089898985898989612076565b8873ffffffffffffffffffffffffffffffffffffffff16630bd851588260405180807f74726561746d656e742d726571756573742f7374617475730000000000000000815250601801828152602001915050604051809103902060026040518363ffffffff167c01000000000000000000000000000000000000000000000000000000000281526004018083600019166000191681526020018260ff16815260200192505050600060405180830381600087803b15156113df57600080fd5b6102c65a03f115156113f057600080fd5b5050508873ffffffffffffffffffffffffffffffffffffffff16630bd851588760405180807f74726561746d656e742d6170706c69636174696f6e2f73746174757300000000815250601c01828152602001915050604051809103902060046040518363ffffffff167c01000000000000000000000000000000000000000000000000000000000281526004018083600019166000191681526020018260ff16815260200192505050600060405180830381600087803b15156114b257600080fd5b6102c65a03f115156114c357600080fd5b5050506114d1898288612791565b505050505050505050565b6000600160009054906101000a900473ffffffffffffffffffffffffffffffffffffffff1673ffffffffffffffffffffffffffffffffffffffff16637a0e03ec8360405180807f757365722f7479706500000000000000000000000000000000000000000000008152506009018273ffffffffffffffffffffffffffffffffffffffff1673ffffffffffffffffffffffffffffffffffffffff166c0100000000000000000000000002815260140191505060405180910390206000604051602001526040518263ffffffff167c0100000000000000000000000000000000000000000000000000000000028152600401808260001916600019168152602001915050602060405180830381600087803b15156115f757600080fd5b6102c65a03f1151561160857600080fd5b505050604051805190509050919050565b6000600160009054906101000a900473ffffffffffffffffffffffffffffffffffffffff1673ffffffffffffffffffffffffffffffffffffffff16637a0e03ec8360405180807f757365722f737461747573000000000000000000000000000000000000000000815250600b018273ffffffffffffffffffffffffffffffffffffffff1673ffffffffffffffffffffffffffffffffffffffff166c0100000000000000000000000002815260140191505060405180910390206000604051602001526040518263ffffffff167c0100000000000000000000000000000000000000000000000000000000028152600401808260001916600019168152602001915050602060405180830381600087803b151561173457600080fd5b6102c65a03f1151561174557600080fd5b505050604051805190509050919050565b8573ffffffffffffffffffffffffffffffffffffffff16630bd851588260405180807f74726561746d656e742f73746174757300000000000000000000000000000000815250601001828152602001915050604051809103902060016040518363ffffffff167c01000000000000000000000000000000000000000000000000000000000281526004018083600019166000191681526020018260ff16815260200192505050600060405180830381600087803b151561181557600080fd5b6102c65a03f1151561182657600080fd5b5050508573ffffffffffffffffffffffffffffffffffffffff16633562fd208260405180807f74726561746d656e742f637265617465642d6f6e0000000000000000000000008152506014018281526020019150506040518091039020426040518363ffffffff167c010000000000000000000000000000000000000000000000000000000002815260040180836000191660001916815260200182815260200192505050600060405180830381600087803b15156118e457600080fd5b6102c65a03f115156118f557600080fd5b5050508573ffffffffffffffffffffffffffffffffffffffff16635a2bf25a8260405180807f74726561746d656e742f64656e746973740000000000000000000000000000008152506011018281526020019150506040518091039020876040518363ffffffff167c01000000000000000000000000000000000000000000000000000000000281526004018083600019166000191681526020018273ffffffffffffffffffffffffffffffffffffffff1673ffffffffffffffffffffffffffffffffffffffff16815260200192505050600060405180830381600087803b15156119df57600080fd5b6102c65a03f115156119f057600080fd5b5050508573ffffffffffffffffffffffffffffffffffffffff16635a2bf25a8260405180807f74726561746d656e742f70617469656e740000000000000000000000000000008152506011018281526020019150506040518091039020866040518363ffffffff167c01000000000000000000000000000000000000000000000000000000000281526004018083600019166000191681526020018273ffffffffffffffffffffffffffffffffffffffff1673ffffffffffffffffffffffffffffffffffffffff16815260200192505050600060405180830381600087803b1515611ada57600080fd5b6102c65a03f11515611aeb57600080fd5b5050508573ffffffffffffffffffffffffffffffffffffffff16633562fd208260405180807f74726561746d656e742f74726561746d656e742d726571756573740000000000815250601b018281526020019150506040518091039020856040518363ffffffff167c010000000000000000000000000000000000000000000000000000000002815260040180836000191660001916815260200182815260200192505050600060405180830381600087803b1515611ba957600080fd5b6102c65a03f11515611bba57600080fd5b5050508573ffffffffffffffffffffffffffffffffffffffff16633562fd208460405180807f74726561746d656e742d726571756573742f74726561746d656e740000000000815250601b018281526020019150506040518091039020836040518363ffffffff167c010000000000000000000000000000000000000000000000000000000002815260040180836000191660001916815260200182815260200192505050600060405180830381600087803b1515611c7857600080fd5b6102c65a03f11515611c8957600080fd5b5050508573ffffffffffffffffffffffffffffffffffffffff16633eba9ed28460405180807f74726561746d656e742d726571756573742f6861732d74726561746d656e743f815250602001828152602001915050604051809103902060016040518363ffffffff167c01000000000000000000000000000000000000000000000000000000000281526004018083600019166000191681526020018215151515815260200192505050600060405180830381600087803b1515611d4c57600080fd5b6102c65a03f11515611d5d57600080fd5b5050508573ffffffffffffffffffffffffffffffffffffffff16633562fd208260405180807f74726561746d656e742f74726561746d656e742d6170706c69636174696f6e00815250601f018281526020019150506040518091039020846040518363ffffffff167c010000000000000000000000000000000000000000000000000000000002815260040180836000191660001916815260200182815260200192505050600060405180830381600087803b1515611e1b57600080fd5b6102c65a03f11515611e2c57600080fd5b5050508573ffffffffffffffffffffffffffffffffffffffff16633562fd208360405180807f74726561746d656e742d6170706c69636174696f6e2f74726561746d656e7400815250601f018281526020019150506040518091039020836040518363ffffffff167c010000000000000000000000000000000000000000000000000000000002815260040180836000191660001916815260200182815260200192505050600060405180830381600087803b1515611eea57600080fd5b6102c65a03f11515611efb57600080fd5b5050508573ffffffffffffffffffffffffffffffffffffffff16633eba9ed28360405180807f74726561746d656e742d6170706c69636174696f6e2f6861732d74726561746d81526020017f656e743f00000000000000000000000000000000000000000000000000000000815250602401828152602001915050604051809103902060016040518363ffffffff167c01000000000000000000000000000000000000000000000000000000000281526004018083600019166000191681526020018215151515815260200192505050600060405180830381600087803b1515611fe457600080fd5b6102c65a03f11515611ff557600080fd5b50505061206e866040805190810160405280600981526020017f74726561746d656e7400000000000000000000000000000000000000000000008152506040805190810160405280601081526020017f74726561746d656e74732d636f756e740000000000000000000000000000000081525084612a05565b505050505050565b8673ffffffffffffffffffffffffffffffffffffffff16633562fd208560405180807f74726561746d656e742f616d6f756e74000000000000000000000000000000008152506010018281526020019150506040518091039020846040518363ffffffff167c010000000000000000000000000000000000000000000000000000000002815260040180836000191660001916815260200182815260200192505050600060405180830381600087803b151561213157600080fd5b6102c65a03f1151561214257600080fd5b5050508673ffffffffffffffffffffffffffffffffffffffff16633562fd208560405180807f74726561746d656e742f71756f74650000000000000000000000000000000000815250600f018281526020019150506040518091039020836040518363ffffffff167c010000000000000000000000000000000000000000000000000000000002815260040180836000191660001916815260200182815260200192505050600060405180830381600087803b151561220057600080fd5b6102c65a03f1151561221157600080fd5b5050508673ffffffffffffffffffffffffffffffffffffffff16633562fd208460405180807f7061796d656e742f616d6f756e74000000000000000000000000000000000000815250600e018281526020019150506040518091039020846040518363ffffffff167c010000000000000000000000000000000000000000000000000000000002815260040180836000191660001916815260200182815260200192505050600060405180830381600087803b15156122cf57600080fd5b6102c65a03f115156122e057600080fd5b5050508673ffffffffffffffffffffffffffffffffffffffff16633562fd208460405180807f7061796d656e742f71756f746500000000000000000000000000000000000000815250600d018281526020019150506040518091039020836040518363ffffffff167c010000000000000000000000000000000000000000000000000000000002815260040180836000191660001916815260200182815260200192505050600060405180830381600087803b151561239e57600080fd5b6102c65a03f115156123af57600080fd5b5050508673ffffffffffffffffffffffffffffffffffffffff16633eba9ed28560405180807f74726561746d656e742f70616964000000000000000000000000000000000000815250600e01828152602001915050604051809103902060016040518363ffffffff167c01000000000000000000000000000000000000000000000000000000000281526004018083600019166000191681526020018215151515815260200192505050600060405180830381600087803b151561247257600080fd5b6102c65a03f1151561248357600080fd5b5050508673ffffffffffffffffffffffffffffffffffffffff16633562fd208560405180807f74726561746d656e742f7061796d656e740000000000000000000000000000008152506011018281526020019150506040518091039020856040518363ffffffff167c010000000000000000000000000000000000000000000000000000000002815260040180836000191660001916815260200182815260200192505050600060405180830381600087803b151561254157600080fd5b6102c65a03f1151561255257600080fd5b5050508673ffffffffffffffffffffffffffffffffffffffff16633562fd208460405180807f7061796d656e742f74726561746d656e740000000000000000000000000000008152506011018281526020019150506040518091039020866040518363ffffffff167c010000000000000000000000000000000000000000000000000000000002815260040180836000191660001916815260200182815260200192505050600060405180830381600087803b151561261057600080fd5b6102c65a03f1151561262157600080fd5b50505061269b87876040805190810160405280601181526020017f64656e746973742f74726561746d656e740000000000000000000000000000008152506040805190810160405280601881526020017f64656e746973742f74726561746d656e74732d636f756e74000000000000000081525088612cff565b61271287866040805190810160405280601181526020017f70617469656e742f74726561746d656e740000000000000000000000000000008152506040805190810160405280601881526020017f70617469656e742f74726561746d656e74732d636f756e74000000000000000081525088612cff565b612788876040805190810160405280600781526020017f7061796d656e74000000000000000000000000000000000000000000000000008152506040805190810160405280600e81526020017f7061796d656e74732d636f756e7400000000000000000000000000000000000081525086612a05565b50505050505050565b60008060006127fd8686606060405190810160405280602e81526020017f74726561746d656e742d726571756573742f74726561746d656e742d6170706c81526020017f69636174696f6e732d636f756e74000000000000000000000000000000000000815250612f8f565b9250600091505b828210156129fd578573ffffffffffffffffffffffffffffffffffffffff1663bdc963d8868460405180807f74726561746d656e742d726571756573742f74726561746d656e742d6170706c81526020017f69636174696f6e000000000000000000000000000000000000000000000000008152506027018381526020018281526020019250505060405180910390206000604051602001526040518263ffffffff167c0100000000000000000000000000000000000000000000000000000000028152600401808260001916600019168152602001915050602060405180830381600087803b15156128f657600080fd5b6102c65a03f1151561290757600080fd5b50505060405180519050905083811415156129f0578573ffffffffffffffffffffffffffffffffffffffff16630bd851588260405180807f74726561746d656e742d6170706c69636174696f6e2f73746174757300000000815250601c01828152602001915050604051809103902060056040518363ffffffff167c01000000000000000000000000000000000000000000000000000000000281526004018083600019166000191681526020018260ff16815260200192505050600060405180830381600087803b15156129db57600080fd5b6102c65a03f115156129ec57600080fd5b5050505b8180600101925050612804565b505050505050565b60008473ffffffffffffffffffffffffffffffffffffffff1663bdc963d8846040518082805190602001908083835b602083101515612a595780518252602082019150602081019050602083039250612a34565b6001836020036101000a03801982511681845116808217855250505050505090500191505060405180910390206000604051602001526040518263ffffffff167c0100000000000000000000000000000000000000000000000000000000028152600401808260001916600019168152602001915050602060405180830381600087803b1515612ae857600080fd5b6102c65a03f11515612af957600080fd5b5050506040518051905090508473ffffffffffffffffffffffffffffffffffffffff16633562fd2085836040518083805190602001908083835b602083101515612b585780518252602082019150602081019050602083039250612b33565b6001836020036101000a038019825116818451168082178552505050505050905001828152602001925050506040518091039020846040518363ffffffff167c010000000000000000000000000000000000000000000000000000000002815260040180836000191660001916815260200182815260200192505050600060405180830381600087803b1515612bed57600080fd5b6102c65a03f11515612bfe57600080fd5b5050508473ffffffffffffffffffffffffffffffffffffffff16633562fd20846040518082805190602001908083835b602083101515612c535780518252602082019150602081019050602083039250612c2e565b6001836020036101000a0380198251168184511680821785525050505050509050019150506040518091039020600184016040518363ffffffff167c010000000000000000000000000000000000000000000000000000000002815260040180836000191660001916815260200182815260200192505050600060405180830381600087803b1515612ce457600080fd5b6102c65a03f11515612cf557600080fd5b5050505050505050565b6000612d0c86868561309e565b90508573ffffffffffffffffffffffffffffffffffffffff16633562fd208587846040518084805190602001908083835b602083101515612d625780518252602082019150602081019050602083039250612d3d565b6001836020036101000a0380198251168184511680821785525050505050509050018373ffffffffffffffffffffffffffffffffffffffff1673ffffffffffffffffffffffffffffffffffffffff166c0100000000000000000000000002815260140182815260200193505050506040518091039020846040518363ffffffff167c010000000000000000000000000000000000000000000000000000000002815260040180836000191660001916815260200182815260200192505050600060405180830381600087803b1515612e3957600080fd5b6102c65a03f11515612e4a57600080fd5b5050508573ffffffffffffffffffffffffffffffffffffffff16633562fd2084876040518083805190602001908083835b602083101515612ea05780518252602082019150602081019050602083039250612e7b565b6001836020036101000a0380198251168184511680821785525050505050509050018273ffffffffffffffffffffffffffffffffffffffff1673ffffffffffffffffffffffffffffffffffffffff166c01000000000000000000000000028152601401925050506040518091039020600184016040518363ffffffff167c010000000000000000000000000000000000000000000000000000000002815260040180836000191660001916815260200182815260200192505050600060405180830381600087803b1515612f7357600080fd5b6102c65a03f11515612f8457600080fd5b505050505050505050565b60008373ffffffffffffffffffffffffffffffffffffffff1663bdc963d883856040518083805190602001908083835b602083101515612fe45780518252602082019150602081019050602083039250612fbf565b6001836020036101000a0380198251168184511680821785525050505050509050018281526020019250505060405180910390206000604051602001526040518263ffffffff167c0100000000000000000000000000000000000000000000000000000000028152600401808260001916600019168152602001915050602060405180830381600087803b151561307a57600080fd5b6102c65a03f1151561308b57600080fd5b5050506040518051905090509392505050565b60008373ffffffffffffffffffffffffffffffffffffffff1663bdc963d883856040518083805190602001908083835b6020831015156130f357805182526020820191506020810190506020830392506130ce565b6001836020036101000a0380198251168184511680821785525050505050509050018273ffffffffffffffffffffffffffffffffffffffff1673ffffffffffffffffffffffffffffffffffffffff166c010000000000000000000000000281526014019250505060405180910390206000604051602001526040518263ffffffff167c0100000000000000000000000000000000000000000000000000000000028152600401808260001916600019168152602001915050602060405180830381600087803b15156131c457600080fd5b6102c65a03f115156131d557600080fd5b50505060405180519050905093925050505600a165627a7a72305820c67dd8bdc50d2e94cbdb54f5d19ca341bbe6cd6439f65c8dffcf9cca724a1edd0029",
  "source": "pragma solidity 0.4.18;\nimport \"./Restrictor.sol\";\nimport \"../lib/odll/userManager.sol\";\n\ncontract TreatmentApplicationWriter2 is Restrictor {\n\n  function TreatmentApplicationWriter2 (address _dbAddress) public {\n    require(_dbAddress != 0x0);\n    dbAddress = _dbAddress;\n  }\n\n  // Treatment Application\n  function acceptTreatmentApplication (\n    address dentistId,\n    uint treatmentApplicationId,\n    uint quote\n  )\n    payable\n    external\n  {\n    address escrowAddress = DB(dbAddress).getAddressValue(keccak256(\"odll/escrow-address\"));\n    require(escrowAddress != 0x0);\n    uint amount = msg.value;\n    require(amount >= quote);\n    if (amount > quote) {\n      uint tempAmount = amount;\n      amount = quote;\n      msg.sender.transfer(SafeMath.sub(tempAmount, quote));\n    }\n\n    uint paymentId = utilities.getArrayItemsCount(dbAddress, \"payments-count\");\n    DB(dbAddress).setUInt8Value(keccak256(\"payment/for-type\", paymentId), 2);\n    userManager.acceptDentistTreatmentApplication(dbAddress, dentistId, msg.sender, treatmentApplicationId, paymentId, amount, quote);\n\n    lockPayment(msg.sender, paymentId);\n    escrowAddress.transfer(amount);\n  }\n}\n",
  "sourcePath": "/Users/danielokwufulueze/dev/vue/apps/oraldatalink/contracts/odll/TreatmentApplicationWriter2.sol",
  "compiler": {
    "name": "solc",
    "version": "0.4.18+commit.9cf6e910.Emscripten.clang"
  },
  "schemaVersion": "1.0.1",
  "updatedAt": "2017-12-04T15:44:41.202Z"
}