{
  "contractName": "TreatmentRequestReader2",
  "abi": [
    {
      "constant": false,
      "inputs": [
        {
          "name": "userId",
          "type": "address"
        },
        {
          "name": "paymentId",
          "type": "uint256"
        }
      ],
      "name": "lockPayment",
      "outputs": [],
      "payable": false,
      "stateMutability": "nonpayable",
      "type": "function"
    },
    {
      "constant": true,
      "inputs": [],
      "name": "smartContractStatus",
      "outputs": [
        {
          "name": "",
          "type": "uint8"
        }
      ],
      "payable": false,
      "stateMutability": "view",
      "type": "function"
    },
    {
      "constant": true,
      "inputs": [],
      "name": "owner",
      "outputs": [
        {
          "name": "",
          "type": "address"
        }
      ],
      "payable": false,
      "stateMutability": "view",
      "type": "function"
    },
    {
      "constant": true,
      "inputs": [
        {
          "name": "offset",
          "type": "uint256"
        },
        {
          "name": "limit",
          "type": "uint256"
        },
        {
          "name": "seed",
          "type": "uint256"
        }
      ],
      "name": "fetchAllTreatmentRequests",
      "outputs": [
        {
          "name": "",
          "type": "uint256"
        },
        {
          "name": "",
          "type": "uint256[]"
        }
      ],
      "payable": false,
      "stateMutability": "view",
      "type": "function"
    },
    {
      "constant": true,
      "inputs": [],
      "name": "dbAddress",
      "outputs": [
        {
          "name": "",
          "type": "address"
        }
      ],
      "payable": false,
      "stateMutability": "view",
      "type": "function"
    },
    {
      "constant": false,
      "inputs": [
        {
          "name": "newOwner",
          "type": "address"
        }
      ],
      "name": "transferOwnership",
      "outputs": [],
      "payable": false,
      "stateMutability": "nonpayable",
      "type": "function"
    },
    {
      "inputs": [
        {
          "name": "_dbAddress",
          "type": "address"
        }
      ],
      "payable": false,
      "stateMutability": "nonpayable",
      "type": "constructor"
    },
    {
      "anonymous": false,
      "inputs": [
        {
          "indexed": false,
          "name": "paymentId",
          "type": "uint256"
        }
      ],
      "name": "PaymentLocked",
      "type": "event"
    },
    {
      "anonymous": false,
      "inputs": [
        {
          "indexed": false,
          "name": "status",
          "type": "uint8"
        }
      ],
      "name": "OnSmartContractStatusSet",
      "type": "event"
    },
    {
      "anonymous": false,
      "inputs": [
        {
          "indexed": true,
          "name": "previousOwner",
          "type": "address"
        },
        {
          "indexed": true,
          "name": "newOwner",
          "type": "address"
        }
      ],
      "name": "OwnershipTransferred",
      "type": "event"
    }
  ],
  "bytecode": "0x6060604052341561000f57600080fd5b60405160208061101f83398101604052808051906020019091905050336000806101000a81548173ffffffffffffffffffffffffffffffffffffffff021916908373ffffffffffffffffffffffffffffffffffffffff16021790555060008173ffffffffffffffffffffffffffffffffffffffff161415151561009157600080fd5b80600160006101000a81548173ffffffffffffffffffffffffffffffffffffffff021916908373ffffffffffffffffffffffffffffffffffffffff16021790555050610f3d806100e26000396000f300606060405260043610610078576000357c0100000000000000000000000000000000000000000000000000000000900463ffffffff1680633f4b14701461007d5780634c8ddddc146100bf5780638da5cb5b146100ee5780638f5fb6631461014357806391e06b6d146101d4578063f2fde38b14610229575b600080fd5b341561008857600080fd5b6100bd600480803573ffffffffffffffffffffffffffffffffffffffff16906020019091908035906020019091905050610262565b005b34156100ca57600080fd5b6100d26104b9565b604051808260ff1660ff16815260200191505060405180910390f35b34156100f957600080fd5b6101016104cc565b604051808273ffffffffffffffffffffffffffffffffffffffff1673ffffffffffffffffffffffffffffffffffffffff16815260200191505060405180910390f35b341561014e57600080fd5b61017660048080359060200190919080359060200190919080359060200190919050506104f1565b6040518083815260200180602001828103825283818151815260200191508051906020019060200280838360005b838110156101bf5780820151818401526020810190506101a4565b50505050905001935050505060405180910390f35b34156101df57600080fd5b6101e7610535565b604051808273ffffffffffffffffffffffffffffffffffffffff1673ffffffffffffffffffffffffffffffffffffffff16815260200191505060405180910390f35b341561023457600080fd5b610260600480803573ffffffffffffffffffffffffffffffffffffffff1690602001909190505061055b565b005b8161026c816106b0565b151561027757600080fd5b8160018060ff16600160009054906101000a900473ffffffffffffffffffffffffffffffffffffffff1673ffffffffffffffffffffffffffffffffffffffff16637a0e03ec8460405180807f7061796d656e742f737461746500000000000000000000000000000000000000815250600d0182815260200191505060405180910390206000604051602001526040518263ffffffff167c0100000000000000000000000000000000000000000000000000000000028152600401808260001916600019168152602001915050602060405180830381600087803b151561035c57600080fd5b6102c65a03f1151561036d57600080fd5b5050506040518051905060ff1614151561038657600080fd5b600160009054906101000a900473ffffffffffffffffffffffffffffffffffffffff1673ffffffffffffffffffffffffffffffffffffffff16630bd851588560405180807f7061796d656e742f737461746500000000000000000000000000000000000000815250600d01828152602001915050604051809103902060026040518363ffffffff167c01000000000000000000000000000000000000000000000000000000000281526004018083600019166000191681526020018260ff16815260200192505050600060405180830381600087803b151561046757600080fd5b6102c65a03f1151561047857600080fd5b5050507fa5f78a79f83dfad686a63ca003a42f6c262d9fdc43a6742c56f5c27c11b9a1e2846040518082815260200191505060405180910390a15050505050565b600160149054906101000a900460ff1681565b6000809054906101000a900473ffffffffffffffffffffffffffffffffffffffff1681565b60006104fb610efd565b610529600160009054906101000a900473ffffffffffffffffffffffffffffffffffffffff168686866106d7565b91509150935093915050565b600160009054906101000a900473ffffffffffffffffffffffffffffffffffffffff1681565b6000809054906101000a900473ffffffffffffffffffffffffffffffffffffffff1673ffffffffffffffffffffffffffffffffffffffff163373ffffffffffffffffffffffffffffffffffffffff161415156105b657600080fd5b600073ffffffffffffffffffffffffffffffffffffffff168173ffffffffffffffffffffffffffffffffffffffff16141515156105f257600080fd5b8073ffffffffffffffffffffffffffffffffffffffff166000809054906101000a900473ffffffffffffffffffffffffffffffffffffffff1673ffffffffffffffffffffffffffffffffffffffff167f8be0079c531659141344cd1fd0a4f28419497f9722a3daafe3b4186f6b6457e060405160405180910390a3806000806101000a81548173ffffffffffffffffffffffffffffffffffffffff021916908373ffffffffffffffffffffffffffffffffffffffff16021790555050565b60006106bd826001610709565b80156106d057506106cf826001610724565b5b9050919050565b60006106e1610efd565b6106ea8661073f565b90506106f8818686866107c3565b809250819350505094509492505050565b600061071483610833565b60ff168260ff1614905092915050565b600061072f83610970565b60ff168260ff1614905092915050565b610747610efd565b6107bc826040805190810160405280601181526020017f74726561746d656e742d726571756573740000000000000000000000000000008152506040805190810160405280601881526020017f74726561746d656e742d72657175657374732d636f756e740000000000000000815250610aad565b9050919050565b60006107cd610efd565b855191506000865111156108295785518511156107f957816107f0600088610d1d565b9150915061082a565b8551848601111561080b578486510393505b61082686875187860181151561081d57fe5b06866001610db2565b90505b5b94509492505050565b6000600160009054906101000a900473ffffffffffffffffffffffffffffffffffffffff1673ffffffffffffffffffffffffffffffffffffffff16637a0e03ec8360405180807f757365722f7479706500000000000000000000000000000000000000000000008152506009018273ffffffffffffffffffffffffffffffffffffffff1673ffffffffffffffffffffffffffffffffffffffff166c0100000000000000000000000002815260140191505060405180910390206000604051602001526040518263ffffffff167c0100000000000000000000000000000000000000000000000000000000028152600401808260001916600019168152602001915050602060405180830381600087803b151561094e57600080fd5b6102c65a03f1151561095f57600080fd5b505050604051805190509050919050565b6000600160009054906101000a900473ffffffffffffffffffffffffffffffffffffffff1673ffffffffffffffffffffffffffffffffffffffff16637a0e03ec8360405180807f757365722f737461747573000000000000000000000000000000000000000000815250600b018273ffffffffffffffffffffffffffffffffffffffff1673ffffffffffffffffffffffffffffffffffffffff166c0100000000000000000000000002815260140191505060405180910390206000604051602001526040518263ffffffff167c0100000000000000000000000000000000000000000000000000000000028152600401808260001916600019168152602001915050602060405180830381600087803b1515610a8b57600080fd5b6102c65a03f11515610a9c57600080fd5b505050604051805190509050919050565b610ab5610efd565b6000808573ffffffffffffffffffffffffffffffffffffffff1663bdc963d8856040518082805190602001908083835b602083101515610b0a5780518252602082019150602081019050602083039250610ae5565b6001836020036101000a03801982511681845116808217855250505050505090500191505060405180910390206000604051602001526040518263ffffffff167c0100000000000000000000000000000000000000000000000000000000028152600401808260001916600019168152602001915050602060405180830381600087803b1515610b9957600080fd5b6102c65a03f11515610baa57600080fd5b50505060405180519050915081604051805910610bc45750595b90808252806020026020018201604052509250600090505b81811015610d11578573ffffffffffffffffffffffffffffffffffffffff1663bdc963d886836040518083805190602001908083835b602083101515610c375780518252602082019150602081019050602083039250610c12565b6001836020036101000a0380198251168184511680821785525050505050509050018281526020019250505060405180910390206000604051602001526040518263ffffffff167c0100000000000000000000000000000000000000000000000000000000028152600401808260001916600019168152602001915050602060405180830381600087803b1515610ccd57600080fd5b6102c65a03f11515610cde57600080fd5b505050604051805190508382815181101515610cf657fe5b90602001906020020181815250508080600101915050610bdc565b82925050509392505050565b610d25610efd565b60008251841115610d3857829150610dab565b83604051805910610d465750595b90808252806020026020018201604052509150600090505b83811015610da7578281815181101515610d7457fe5b906020019060200201518282815181101515610d8c57fe5b90602001906020020181815250508080600101915050610d5e565b8191505b5092915050565b610dba610efd565b60008060008060009350885192508288101580610dd75750600087145b15610de457849450610ef1565b86604051805910610df25750595b908082528060200260200182016040525094508791505b868801821015610e695781831415610e2057610e69565b8882815181101515610e2e57fe5b906020019060200201518585815181101515610e4657fe5b906020019060200201818152505083806001019450508180600101925050610e09565b858015610e7557508684105b15610ee4578387039050600091505b8082111515610ee35783871415610e9a57610ee3565b8882815181101515610ea857fe5b906020019060200201518585815181101515610ec057fe5b906020019060200201818152505083806001019450508180600101925050610e84565b5b610eee8486610d1d565b94505b50505050949350505050565b6020604051908101604052806000815250905600a165627a7a72305820c1ae3f53c38242505a9171327aa4ff652c8bc4bbde6d18bbd9d331cd9d6368580029",
  "source": "pragma solidity 0.4.18;\n\nimport \"./Restrictor.sol\";\nimport \"../lib/odll/userManager.sol\";\n\ncontract TreatmentRequestReader2 is Restrictor {\n\n  function TreatmentRequestReader2 (address _dbAddress) public {\n    require(_dbAddress != 0x0);\n    dbAddress = _dbAddress;\n  }\n\n  function fetchAllTreatmentRequests (\n    uint offset, // starting from offset: 0-based\n    uint limit, // not more than limit\n    uint seed // seed value to give the illusion of randomisation\n  )\n    external\n    view\n    returns (\n      uint,\n      uint[]\n    )\n  {\n    return userManager.fetchTreatmentRequests(dbAddress, offset, limit, seed);\n  }\n}\n",
  "sourcePath": "/Users/danielokwufulueze/dev/vue/apps/oraldatalink/contracts/odll/TreatmentRequestReader2.sol",
  "compiler": {
    "name": "solc",
    "version": "0.4.18+commit.9cf6e910.Emscripten.clang"
  },
  "schemaVersion": "1.0.1",
  "updatedAt": "2017-12-04T15:44:41.187Z"
}