{
  "contractName": "TreatmentRequestWriter",
  "abi": [
    {
      "constant": true,
      "inputs": [
        {
          "name": "hasCaseId",
          "type": "bool"
        },
        {
          "name": "caseId",
          "type": "uint256"
        },
        {
          "name": "insurance",
          "type": "bytes32"
        },
        {
          "name": "scanResults",
          "type": "bytes32[]"
        },
        {
          "name": "comment",
          "type": "bytes32"
        }
      ],
      "name": "smartContractStatus",
      "outputs": [
        {
          "name": "",
          "type": "uint8"
        }
      ],
      "payable": false,
      "stateMutability": "view",
      "type": "function"
    },
    {
      "constant": false,
      "inputs": [
        {
          "name": "treatmentRequestId",
          "type": "uint256"
        }
      ],
      "name": "cancelTreatmentRequest",
      "outputs": [
        {
          "name": "",
          "type": "uint8"
        }
      ],
      "payable": false,
      "stateMutability": "nonpayable",
      "type": "function"
    },
    {
      "constant": false,
      "inputs": [
        {
          "name": "hasCaseId",
          "type": "bool"
        },
        {
          "name": "caseId",
          "type": "uint256"
        },
        {
          "name": "insurance",
          "type": "string"
        },
        {
          "name": "scanResults",
          "type": "string"
        },
        {
          "name": "comment",
          "type": "string"
        }
      ],
      "name": "writeTreatmentRequest",
      "outputs": [],
      "payable": false,
      "stateMutability": "nonpayable",
      "type": "function"
    },
    {
      "constant": true,
      "inputs": [],
      "name": "owner",
      "outputs": [
        {
          "name": "",
          "type": "address"
        }
      ],
      "payable": false,
      "stateMutability": "view",
      "type": "function"
    },
    {
      "constant": true,
      "inputs": [],
      "name": "dbAddress",
      "outputs": [
        {
          "name": "",
          "type": "address"
        }
      ],
      "payable": false,
      "stateMutability": "view",
      "type": "function"
    },
    {
      "constant": false,
      "inputs": [
        {
          "name": "newOwner",
          "type": "address"
        }
      ],
      "name": "transferOwnership",
      "outputs": [],
      "payable": false,
      "stateMutability": "nonpayable",
      "type": "function"
    },
    {
      "inputs": [
        {
          "name": "_dbAddress",
          "type": "address"
        }
      ],
      "payable": false,
      "stateMutability": "nonpayable",
      "type": "constructor"
    },
    {
      "anonymous": false,
      "inputs": [
        {
          "indexed": false,
          "name": "status",
          "type": "uint8"
        }
      ],
      "name": "OnSmartContractStatusSet",
      "type": "event"
    },
    {
      "anonymous": false,
      "inputs": [
        {
          "indexed": true,
          "name": "previousOwner",
          "type": "address"
        },
        {
          "indexed": true,
          "name": "newOwner",
          "type": "address"
        }
      ],
      "name": "OwnershipTransferred",
      "type": "event"
    }
  ],
  "bytecode": "0x6060604052341561000f57600080fd5b6040516020806123e183398101604052808051906020019091905050336000806101000a81548173ffffffffffffffffffffffffffffffffffffffff021916908373ffffffffffffffffffffffffffffffffffffffff16021790555060008173ffffffffffffffffffffffffffffffffffffffff161415151561009157600080fd5b80600160006101000a81548173ffffffffffffffffffffffffffffffffffffffff021916908373ffffffffffffffffffffffffffffffffffffffff160217905550506122ff806100e26000396000f300606060405260043610610078576000357c0100000000000000000000000000000000000000000000000000000000900463ffffffff1680634c8ddddc1461007d5780638bc02552146100ac5780638c3b3575146100cf5780638da5cb5b1461013957806391e06b6d1461018e578063f2fde38b146101e3575b600080fd5b341561008857600080fd5b61009061021c565b604051808260ff1660ff16815260200191505060405180910390f35b34156100b757600080fd5b6100cd600480803590602001909190505061022f565b005b34156100da57600080fd5b61013760048080351515906020019091908035906020019091908035906020019082018035906020019190919290803590602001908201803590602001919091929080359060200190820180359060200191909192905050610280565b005b341561014457600080fd5b61014c610372565b604051808273ffffffffffffffffffffffffffffffffffffffff1673ffffffffffffffffffffffffffffffffffffffff16815260200191505060405180910390f35b341561019957600080fd5b6101a1610397565b604051808273ffffffffffffffffffffffffffffffffffffffff1673ffffffffffffffffffffffffffffffffffffffff16815260200191505060405180910390f35b34156101ee57600080fd5b61021a600480803573ffffffffffffffffffffffffffffffffffffffff169060200190919050506103bd565b005b600160149054906101000a900460ff1681565b6000600160149054906101000a900460ff1660ff1614151561025057600080fd5b61027d600160009054906101000a900473ffffffffffffffffffffffffffffffffffffffff163383610512565b50565b6000600160149054906101000a900460ff1660ff161415156102a157600080fd5b610368600160009054906101000a900473ffffffffffffffffffffffffffffffffffffffff16338a8a8a8a8080601f01602080910402602001604051908101604052809392919081815260200183838082843782019150505050505089898080601f01602080910402602001604051908101604052809392919081815260200183838082843782019150505050505088888080601f016020809104026020016040519081016040528093929190818152602001838380828437820191505050505050610522565b5050505050505050565b6000809054906101000a900473ffffffffffffffffffffffffffffffffffffffff1681565b600160009054906101000a900473ffffffffffffffffffffffffffffffffffffffff1681565b6000809054906101000a900473ffffffffffffffffffffffffffffffffffffffff1673ffffffffffffffffffffffffffffffffffffffff163373ffffffffffffffffffffffffffffffffffffffff1614151561041857600080fd5b600073ffffffffffffffffffffffffffffffffffffffff168173ffffffffffffffffffffffffffffffffffffffff161415151561045457600080fd5b8073ffffffffffffffffffffffffffffffffffffffff166000809054906101000a900473ffffffffffffffffffffffffffffffffffffffff1673ffffffffffffffffffffffffffffffffffffffff167f8be0079c531659141344cd1fd0a4f28419497f9722a3daafe3b4186f6b6457e060405160405180910390a3806000806101000a81548173ffffffffffffffffffffffffffffffffffffffff021916908373ffffffffffffffffffffffffffffffffffffffff16021790555050565b61051d83838361053a565b505050565b61053187878787878787610807565b50505050505050565b60018373ffffffffffffffffffffffffffffffffffffffff16637a0e03ec8360405180807f74726561746d656e742d726571756573742f737461747573000000000000000081525060180182815260200191505060405180910390206000604051602001526040518263ffffffff167c0100000000000000000000000000000000000000000000000000000000028152600401808260001916600019168152602001915050602060405180830381600087803b15156105f857600080fd5b6102c65a03f1151561060957600080fd5b5050506040518051905060ff1614801561072457508173ffffffffffffffffffffffffffffffffffffffff168373ffffffffffffffffffffffffffffffffffffffff16634c77e5ba8360405180807f74726561746d656e742d726571756573742f70617469656e740000000000000081525060190182815260200191505060405180910390206000604051602001526040518263ffffffff167c0100000000000000000000000000000000000000000000000000000000028152600401808260001916600019168152602001915050602060405180830381600087803b15156106f157600080fd5b6102c65a03f1151561070257600080fd5b5050506040518051905073ffffffffffffffffffffffffffffffffffffffff16145b151561072f57600080fd5b8273ffffffffffffffffffffffffffffffffffffffff16630bd851588260405180807f74726561746d656e742d726571756573742f7374617475730000000000000000815250601801828152602001915050604051809103902060036040518363ffffffff167c01000000000000000000000000000000000000000000000000000000000281526004018083600019166000191681526020018260ff16815260200192505050600060405180830381600087803b15156107ee57600080fd5b6102c65a03f115156107ff57600080fd5b505050505050565b60008060008061084c8b6040805190810160405280601881526020017f74726561746d656e742d72657175657374732d636f756e740000000000000000815250610e33565b93506108588b8a610f39565b975060008b73ffffffffffffffffffffffffffffffffffffffff16637a0e03ec8660405180807f74726561746d656e742d726571756573742f737461747573000000000000000081525060180182815260200191505060405180910390206000604051602001526040518263ffffffff167c0100000000000000000000000000000000000000000000000000000000028152600401808260001916600019168152602001915050602060405180830381600087803b151561091857600080fd5b6102c65a03f1151561092957600080fd5b5050506040518051905060ff16148015610a1c575060018b73ffffffffffffffffffffffffffffffffffffffff16637a0e03ec8a60405180807f636173652f737461747573000000000000000000000000000000000000000000815250600b0182815260200191505060405180910390206000604051602001526040518263ffffffff167c0100000000000000000000000000000000000000000000000000000000028152600401808260001916600019168152602001915050602060405180830381600087803b15156109fc57600080fd5b6102c65a03f11515610a0d57600080fd5b5050506040518051905060ff16145b1515610a2757600080fd5b600092505b83831015610e0c578a73ffffffffffffffffffffffffffffffffffffffff1663bdc963d88b8560405180807f70617469656e742f74726561746d656e742d72657175657374000000000000008152506019018373ffffffffffffffffffffffffffffffffffffffff1673ffffffffffffffffffffffffffffffffffffffff166c010000000000000000000000000281526014018281526020019250505060405180910390206000604051602001526040518263ffffffff167c0100000000000000000000000000000000000000000000000000000000028152600401808260001916600019168152602001915050602060405180830381600087803b1515610b3357600080fd5b6102c65a03f11515610b4457600080fd5b5050506040518051905091508a73ffffffffffffffffffffffffffffffffffffffff1663bdc963d88360405180807f74726561746d656e742d726571756573742f636173650000000000000000000081525060160182815260200191505060405180910390206000604051602001526040518263ffffffff167c0100000000000000000000000000000000000000000000000000000000028152600401808260001916600019168152602001915050602060405180830381600087803b1515610c0c57600080fd5b6102c65a03f11515610c1d57600080fd5b5050506040518051905090508781148015610df5575060018b73ffffffffffffffffffffffffffffffffffffffff16637a0e03ec8460405180807f74726561746d656e742d726571756573742f737461747573000000000000000081525060180182815260200191505060405180910390206000604051602001526040518263ffffffff167c0100000000000000000000000000000000000000000000000000000000028152600401808260001916600019168152602001915050602060405180830381600087803b1515610cf157600080fd5b6102c65a03f11515610d0257600080fd5b5050506040518051905060ff161480610df4575060028b73ffffffffffffffffffffffffffffffffffffffff16637a0e03ec8460405180807f74726561746d656e742d726571756573742f737461747573000000000000000081525060180182815260200191505060405180910390206000604051602001526040518263ffffffff167c0100000000000000000000000000000000000000000000000000000000028152600401808260001916600019168152602001915050602060405180830381600087803b1515610dd457600080fd5b6102c65a03f11515610de557600080fd5b5050506040518051905060ff16145b5b15610dff57610e26565b8280600101935050610a2c565b610e178b898661105d565b610e258b8b868a8a8a6113c0565b5b5050505050505050505050565b60008273ffffffffffffffffffffffffffffffffffffffff1663bdc963d8836040518082805190602001908083835b602083101515610e875780518252602082019150602081019050602083039250610e62565b6001836020036101000a03801982511681845116808217855250505050505090500191505060405180910390206000604051602001526040518263ffffffff167c0100000000000000000000000000000000000000000000000000000000028152600401808260001916600019168152602001915050602060405180830381600087803b1515610f1657600080fd5b6102c65a03f11515610f2757600080fd5b50505060405180519050905092915050565b600081151561105757610f81836040805190810160405280600b81526020017f63617365732d636f756e74000000000000000000000000000000000000000000815250610e33565b90508273ffffffffffffffffffffffffffffffffffffffff16630bd851588260405180807f636173652f737461747573000000000000000000000000000000000000000000815250600b01828152602001915050604051809103902060016040518363ffffffff167c01000000000000000000000000000000000000000000000000000000000281526004018083600019166000191681526020018260ff16815260200192505050600060405180830381600087803b151561104257600080fd5b6102c65a03f1151561105357600080fd5b5050505b92915050565b8273ffffffffffffffffffffffffffffffffffffffff16630bd851588260405180807f74726561746d656e742d726571756573742f7374617475730000000000000000815250601801828152602001915050604051809103902060016040518363ffffffff167c01000000000000000000000000000000000000000000000000000000000281526004018083600019166000191681526020018260ff16815260200192505050600060405180830381600087803b151561111c57600080fd5b6102c65a03f1151561112d57600080fd5b5050508273ffffffffffffffffffffffffffffffffffffffff16633562fd208260405180807f74726561746d656e742d726571756573742f637265617465642d6f6e00000000815250601c018281526020019150506040518091039020426040518363ffffffff167c010000000000000000000000000000000000000000000000000000000002815260040180836000191660001916815260200182815260200192505050600060405180830381600087803b15156111eb57600080fd5b6102c65a03f115156111fc57600080fd5b5050508273ffffffffffffffffffffffffffffffffffffffff16633562fd208260405180807f74726561746d656e742d726571756573742f63617365000000000000000000008152506016018281526020019150506040518091039020846040518363ffffffff167c010000000000000000000000000000000000000000000000000000000002815260040180836000191660001916815260200182815260200192505050600060405180830381600087803b15156112ba57600080fd5b6102c65a03f115156112cb57600080fd5b505050611344836040805190810160405280601181526020017f74726561746d656e742d726571756573740000000000000000000000000000008152506040805190810160405280601881526020017f74726561746d656e742d72657175657374732d636f756e740000000000000000815250846118d6565b6113bb83836040805190810160405280601681526020017f636173652f74726561746d656e742d72657175657374000000000000000000008152506040805190810160405280601d81526020017f636173652f74726561746d656e742d72657175657374732d636f756e7400000081525085611bd0565b505050565b61143786866040805190810160405280601981526020017f70617469656e742f74726561746d656e742d72657175657374000000000000008152506040805190810160405280602081526020017f70617469656e742f74726561746d656e742d72657175657374732d636f756e7481525088611dea565b8573ffffffffffffffffffffffffffffffffffffffff16635a2bf25a8560405180807f74726561746d656e742d726571756573742f70617469656e74000000000000008152506019018281526020019150506040518091039020876040518363ffffffff167c01000000000000000000000000000000000000000000000000000000000281526004018083600019166000191681526020018273ffffffffffffffffffffffffffffffffffffffff1673ffffffffffffffffffffffffffffffffffffffff16815260200192505050600060405180830381600087803b151561151e57600080fd5b6102c65a03f1151561152f57600080fd5b5050508573ffffffffffffffffffffffffffffffffffffffff1663f58660668560405180807f74726561746d656e742d726571756573742f696e737572616e63650000000000815250601b018281526020019150506040518091039020856040518363ffffffff167c010000000000000000000000000000000000000000000000000000000002815260040180836000191660001916815260200180602001828103825283818151815260200191508051906020019080838360005b838110156116065780820151818401526020810190506115eb565b50505050905090810190601f1680156116335780820380516001836020036101000a031916815260200191505b509350505050600060405180830381600087803b151561165257600080fd5b6102c65a03f1151561166357600080fd5b5050508573ffffffffffffffffffffffffffffffffffffffff1663f58660668560405180807f74726561746d656e742d726571756573742f7363616e2d726573756c74730000815250601e018281526020019150506040518091039020846040518363ffffffff167c010000000000000000000000000000000000000000000000000000000002815260040180836000191660001916815260200180602001828103825283818151815260200191508051906020019080838360005b8381101561173a57808201518184015260208101905061171f565b50505050905090810190601f1680156117675780820380516001836020036101000a031916815260200191505b509350505050600060405180830381600087803b151561178657600080fd5b6102c65a03f1151561179757600080fd5b5050508573ffffffffffffffffffffffffffffffffffffffff1663f58660668560405180807f74726561746d656e742d726571756573742f636f6d6d656e74000000000000008152506019018281526020019150506040518091039020836040518363ffffffff167c010000000000000000000000000000000000000000000000000000000002815260040180836000191660001916815260200180602001828103825283818151815260200191508051906020019080838360005b8381101561186e578082015181840152602081019050611853565b50505050905090810190601f16801561189b5780820380516001836020036101000a031916815260200191505b509350505050600060405180830381600087803b15156118ba57600080fd5b6102c65a03f115156118cb57600080fd5b505050505050505050565b60008473ffffffffffffffffffffffffffffffffffffffff1663bdc963d8846040518082805190602001908083835b60208310151561192a5780518252602082019150602081019050602083039250611905565b6001836020036101000a03801982511681845116808217855250505050505090500191505060405180910390206000604051602001526040518263ffffffff167c0100000000000000000000000000000000000000000000000000000000028152600401808260001916600019168152602001915050602060405180830381600087803b15156119b957600080fd5b6102c65a03f115156119ca57600080fd5b5050506040518051905090508473ffffffffffffffffffffffffffffffffffffffff16633562fd2085836040518083805190602001908083835b602083101515611a295780518252602082019150602081019050602083039250611a04565b6001836020036101000a038019825116818451168082178552505050505050905001828152602001925050506040518091039020846040518363ffffffff167c010000000000000000000000000000000000000000000000000000000002815260040180836000191660001916815260200182815260200192505050600060405180830381600087803b1515611abe57600080fd5b6102c65a03f11515611acf57600080fd5b5050508473ffffffffffffffffffffffffffffffffffffffff16633562fd20846040518082805190602001908083835b602083101515611b245780518252602082019150602081019050602083039250611aff565b6001836020036101000a0380198251168184511680821785525050505050509050019150506040518091039020600184016040518363ffffffff167c010000000000000000000000000000000000000000000000000000000002815260040180836000191660001916815260200182815260200192505050600060405180830381600087803b1515611bb557600080fd5b6102c65a03f11515611bc657600080fd5b5050505050505050565b6000611bdd86868561207a565b90508573ffffffffffffffffffffffffffffffffffffffff16633562fd208587846040518084805190602001908083835b602083101515611c335780518252602082019150602081019050602083039250611c0e565b6001836020036101000a03801982511681845116808217855250505050505090500183815260200182815260200193505050506040518091039020846040518363ffffffff167c010000000000000000000000000000000000000000000000000000000002815260040180836000191660001916815260200182815260200192505050600060405180830381600087803b1515611ccf57600080fd5b6102c65a03f11515611ce057600080fd5b5050508573ffffffffffffffffffffffffffffffffffffffff16633562fd2084876040518083805190602001908083835b602083101515611d365780518252602082019150602081019050602083039250611d11565b6001836020036101000a038019825116818451168082178552505050505050905001828152602001925050506040518091039020600184016040518363ffffffff167c010000000000000000000000000000000000000000000000000000000002815260040180836000191660001916815260200182815260200192505050600060405180830381600087803b1515611dce57600080fd5b6102c65a03f11515611ddf57600080fd5b505050505050505050565b6000611df7868685612189565b90508573ffffffffffffffffffffffffffffffffffffffff16633562fd208587846040518084805190602001908083835b602083101515611e4d5780518252602082019150602081019050602083039250611e28565b6001836020036101000a0380198251168184511680821785525050505050509050018373ffffffffffffffffffffffffffffffffffffffff1673ffffffffffffffffffffffffffffffffffffffff166c0100000000000000000000000002815260140182815260200193505050506040518091039020846040518363ffffffff167c010000000000000000000000000000000000000000000000000000000002815260040180836000191660001916815260200182815260200192505050600060405180830381600087803b1515611f2457600080fd5b6102c65a03f11515611f3557600080fd5b5050508573ffffffffffffffffffffffffffffffffffffffff16633562fd2084876040518083805190602001908083835b602083101515611f8b5780518252602082019150602081019050602083039250611f66565b6001836020036101000a0380198251168184511680821785525050505050509050018273ffffffffffffffffffffffffffffffffffffffff1673ffffffffffffffffffffffffffffffffffffffff166c01000000000000000000000000028152601401925050506040518091039020600184016040518363ffffffff167c010000000000000000000000000000000000000000000000000000000002815260040180836000191660001916815260200182815260200192505050600060405180830381600087803b151561205e57600080fd5b6102c65a03f1151561206f57600080fd5b505050505050505050565b60008373ffffffffffffffffffffffffffffffffffffffff1663bdc963d883856040518083805190602001908083835b6020831015156120cf57805182526020820191506020810190506020830392506120aa565b6001836020036101000a0380198251168184511680821785525050505050509050018281526020019250505060405180910390206000604051602001526040518263ffffffff167c0100000000000000000000000000000000000000000000000000000000028152600401808260001916600019168152602001915050602060405180830381600087803b151561216557600080fd5b6102c65a03f1151561217657600080fd5b5050506040518051905090509392505050565b60008373ffffffffffffffffffffffffffffffffffffffff1663bdc963d883856040518083805190602001908083835b6020831015156121de57805182526020820191506020810190506020830392506121b9565b6001836020036101000a0380198251168184511680821785525050505050509050018273ffffffffffffffffffffffffffffffffffffffff1673ffffffffffffffffffffffffffffffffffffffff166c010000000000000000000000000281526014019250505060405180910390206000604051602001526040518263ffffffff167c0100000000000000000000000000000000000000000000000000000000028152600401808260001916600019168152602001915050602060405180830381600087803b15156122af57600080fd5b6102c65a03f115156122c057600080fd5b50505060405180519050905093925050505600a165627a7a72305820037a92eee621879f363a58c3bcdc2b5dbd7d05769f7502b272504584954ed0220029",
  "source": "pragma solidity 0.4.18;\nimport \"./Restrictor.sol\";\nimport \"../lib/odll/userManager.sol\";\n\ncontract TreatmentRequestWriter is Restrictor {\n\n  function TreatmentRequestWriter(address _dbAddress) public {\n    require(_dbAddress != 0x0);\n    dbAddress = _dbAddress;\n  }\n\n  // Treatment Request\n  function writeTreatmentRequest (\n    bool hasCaseId,\n    uint caseId,\n    string insurance,\n    string scanResults,\n    string comment\n  )\n    external\n    onlyPermittedSmartContract\n  {\n    userManager.writeTreatmentRequest(dbAddress, msg.sender, hasCaseId, caseId, insurance, scanResults, comment);\n  }\n\n  function cancelTreatmentRequest (\n    uint treatmentRequestId\n  )\n    external\n    onlyPermittedSmartContract\n  {\n    userManager.cancelTreatmentRequest(dbAddress, msg.sender, treatmentRequestId);\n  }\n}\n",
  "sourcePath": "/Users/danielokwufulueze/dev/vue/apps/oraldatalink/contracts/odll/TreatmentRequestWriter.sol",
  "compiler": {
    "name": "solc",
    "version": "0.4.18+commit.9cf6e910.Emscripten.clang"
  },
  "schemaVersion": "1.0.1",
  "updatedAt": "2017-11-18T09:15:30.413Z"
}