{
  "contractName": "TreatmentRequestWriter",
  "abi": [
    {
      "constant": true,
      "inputs": [],
      "name": "smartContractStatus",
      "outputs": [
        {
          "name": "",
          "type": "uint8"
        }
      ],
      "payable": false,
      "stateMutability": "view",
      "type": "function"
    },
    {
      "constant": false,
      "inputs": [
        {
          "name": "dentistId",
          "type": "address"
        },
        {
          "name": "scanAppointmentId",
          "type": "uint256"
        },
        {
          "name": "patientScanAppointmentIndexNumber",
          "type": "uint256"
        },
        {
          "name": "treatmentInsurance",
          "type": "bytes32"
        },
        {
          "name": "scanResults",
          "type": "bytes32[]"
        },
        {
          "name": "treatmentComment",
          "type": "bytes32"
        }
      ],
      "name": "requestTreatment",
      "outputs": [],
      "payable": false,
      "stateMutability": "nonpayable",
      "type": "function"
    },
    {
      "constant": false,
      "inputs": [
        {
          "name": "patientTreatmentIndexNumber",
          "type": "uint256"
        }
      ],
      "name": "cancelTreatmentRequest",
      "outputs": [],
      "payable": false,
      "stateMutability": "nonpayable",
      "type": "function"
    },
    {
      "constant": true,
      "inputs": [],
      "name": "owner",
      "outputs": [
        {
          "name": "",
          "type": "address"
        }
      ],
      "payable": false,
      "stateMutability": "view",
      "type": "function"
    },
    {
      "constant": true,
      "inputs": [],
      "name": "dbAddress",
      "outputs": [
        {
          "name": "",
          "type": "address"
        }
      ],
      "payable": false,
      "stateMutability": "view",
      "type": "function"
    },
    {
      "constant": false,
      "inputs": [
        {
          "name": "newOwner",
          "type": "address"
        }
      ],
      "name": "transferOwnership",
      "outputs": [],
      "payable": false,
      "stateMutability": "nonpayable",
      "type": "function"
    },
    {
      "inputs": [
        {
          "name": "_dbAddress",
          "type": "address"
        }
      ],
      "payable": false,
      "stateMutability": "nonpayable",
      "type": "constructor"
    },
    {
      "anonymous": false,
      "inputs": [
        {
          "indexed": false,
          "name": "status",
          "type": "uint8"
        }
      ],
      "name": "OnSmartContractStatusSet",
      "type": "event"
    },
    {
      "anonymous": false,
      "inputs": [
        {
          "indexed": true,
          "name": "previousOwner",
          "type": "address"
        },
        {
          "indexed": true,
          "name": "newOwner",
          "type": "address"
        }
      ],
      "name": "OwnershipTransferred",
      "type": "event"
    }
  ],
  "bytecode": "0x6060604052341561000f57600080fd5b60405160208061199283398101604052808051906020019091905050336000806101000a81548173ffffffffffffffffffffffffffffffffffffffff021916908373ffffffffffffffffffffffffffffffffffffffff16021790555060008173ffffffffffffffffffffffffffffffffffffffff161415151561009157600080fd5b80600160006101000a81548173ffffffffffffffffffffffffffffffffffffffff021916908373ffffffffffffffffffffffffffffffffffffffff160217905550506118b0806100e26000396000f300606060405260043610610078576000357c0100000000000000000000000000000000000000000000000000000000900463ffffffff1680634c8ddddc1461007d578063856965d1146100ac5780638bc02552146101255780638da5cb5b1461014857806391e06b6d1461019d578063f2fde38b146101f2575b600080fd5b341561008857600080fd5b61009061022b565b604051808260ff1660ff16815260200191505060405180910390f35b34156100b757600080fd5b610123600480803573ffffffffffffffffffffffffffffffffffffffff169060200190919080359060200190919080359060200190919080356000191690602001909190803590602001908201803590602001919091929080356000191690602001909190505061023e565b005b341561013057600080fd5b61014660048080359060200190919050506102c9565b005b341561015357600080fd5b61015b61031a565b604051808273ffffffffffffffffffffffffffffffffffffffff1673ffffffffffffffffffffffffffffffffffffffff16815260200191505060405180910390f35b34156101a857600080fd5b6101b061033f565b604051808273ffffffffffffffffffffffffffffffffffffffff1673ffffffffffffffffffffffffffffffffffffffff16815260200191505060405180910390f35b34156101fd57600080fd5b610229600480803573ffffffffffffffffffffffffffffffffffffffff16906020019091905050610365565b005b600160149054906101000a900460ff1681565b6000600160149054906101000a900460ff1660ff1614151561025f57600080fd5b6102c0600160009054906101000a900473ffffffffffffffffffffffffffffffffffffffff168833898989898980806020026020016040519081016040528093929190818152602001838360200280828437820191505050505050886104ba565b50505050505050565b6000600160149054906101000a900460ff1660ff161415156102ea57600080fd5b610317600160009054906101000a900473ffffffffffffffffffffffffffffffffffffffff1633836104d4565b50565b6000809054906101000a900473ffffffffffffffffffffffffffffffffffffffff1681565b600160009054906101000a900473ffffffffffffffffffffffffffffffffffffffff1681565b6000809054906101000a900473ffffffffffffffffffffffffffffffffffffffff1673ffffffffffffffffffffffffffffffffffffffff163373ffffffffffffffffffffffffffffffffffffffff161415156103c057600080fd5b600073ffffffffffffffffffffffffffffffffffffffff168173ffffffffffffffffffffffffffffffffffffffff16141515156103fc57600080fd5b8073ffffffffffffffffffffffffffffffffffffffff166000809054906101000a900473ffffffffffffffffffffffffffffffffffffffff1673ffffffffffffffffffffffffffffffffffffffff167f8be0079c531659141344cd1fd0a4f28419497f9722a3daafe3b4186f6b6457e060405160405180910390a3806000806101000a81548173ffffffffffffffffffffffffffffffffffffffff021916908373ffffffffffffffffffffffffffffffffffffffff16021790555050565b6104ca88888888888888886104e4565b5050505050505050565b6104df8383836114b1565b505050565b6000806105278a896040805190810160405280602081526020017f70617469656e742f74726561746d656e742d72657175657374732d636f756e7481525061173a565b9150600087141515610bec578973ffffffffffffffffffffffffffffffffffffffff166317e7dd2289898960405180807f70617469656e742f7363616e2d6170706f696e746d656e742f696e6465782f6981526020017f732d6163746976653f00000000000000000000000000000000000000000000008152506029018473ffffffffffffffffffffffffffffffffffffffff1673ffffffffffffffffffffffffffffffffffffffff166c01000000000000000000000000028152601401838152602001828152602001935050505060405180910390206000604051602001526040518263ffffffff167c0100000000000000000000000000000000000000000000000000000000028152600401808260001916600019168152602001915050602060405180830381600087803b151561066057600080fd5b6102c65a03f1151561067157600080fd5b505050604051805190501561090a578973ffffffffffffffffffffffffffffffffffffffff16633eba9ed289898960405180807f70617469656e742f7363616e2d6170706f696e746d656e742f696e6465782f6981526020017f732d6163746976653f00000000000000000000000000000000000000000000008152506029018473ffffffffffffffffffffffffffffffffffffffff1673ffffffffffffffffffffffffffffffffffffffff166c010000000000000000000000000281526014018381526020018281526020019350505050604051809103902060006040518363ffffffff167c01000000000000000000000000000000000000000000000000000000000281526004018083600019166000191681526020018215151515815260200192505050600060405180830381600087803b15156107b157600080fd5b6102c65a03f115156107c257600080fd5b5050508973ffffffffffffffffffffffffffffffffffffffff16630bd8515889898960405180807f70617469656e742f7363616e2d6170706f696e746d656e742f696e6465782f7381526020017f74617475730000000000000000000000000000000000000000000000000000008152506025018473ffffffffffffffffffffffffffffffffffffffff1673ffffffffffffffffffffffffffffffffffffffff166c010000000000000000000000000281526014018381526020018281526020019350505050604051809103902060036040518363ffffffff167c01000000000000000000000000000000000000000000000000000000000281526004018083600019166000191681526020018260ff16815260200192505050600060405180830381600087803b15156108f557600080fd5b6102c65a03f1151561090657600080fd5b5050505b60008973ffffffffffffffffffffffffffffffffffffffff16141515610ab3578973ffffffffffffffffffffffffffffffffffffffff16633eba9ed28a8a8a8a60405180807f64656e746973742f70617469656e742f7363616e2d6170706f696e746d656e7481526020017f2f696e6465782f69732d6578697374733f0000000000000000000000000000008152506031018573ffffffffffffffffffffffffffffffffffffffff1673ffffffffffffffffffffffffffffffffffffffff166c010000000000000000000000000281526014018473ffffffffffffffffffffffffffffffffffffffff1673ffffffffffffffffffffffffffffffffffffffff166c01000000000000000000000000028152601401838152602001828152602001945050505050604051809103902060006040518363ffffffff167c01000000000000000000000000000000000000000000000000000000000281526004018083600019166000191681526020018215151515815260200192505050600060405180830381600087803b1515610a9e57600080fd5b6102c65a03f11515610aaf57600080fd5b5050505b8973ffffffffffffffffffffffffffffffffffffffff16633562fd20898460405180807f70617469656e742f74726561746d656e742d726571756573742d696e6465782f81526020017f7363616e2d6170706f696e746d656e74000000000000000000000000000000008152506030018373ffffffffffffffffffffffffffffffffffffffff1673ffffffffffffffffffffffffffffffffffffffff166c01000000000000000000000000028152601401828152602001925050506040518091039020896040518363ffffffff167c010000000000000000000000000000000000000000000000000000000002815260040180836000191660001916815260200182815260200192505050600060405180830381600087803b1515610bd757600080fd5b6102c65a03f11515610be857600080fd5b5050505b8973ffffffffffffffffffffffffffffffffffffffff16633562fd208960405180807f70617469656e742f74726561746d656e742d72657175657374732d636f756e748152506020018273ffffffffffffffffffffffffffffffffffffffff1673ffffffffffffffffffffffffffffffffffffffff166c010000000000000000000000000281526014019150506040518091039020600185016040518363ffffffff167c010000000000000000000000000000000000000000000000000000000002815260040180836000191660001916815260200182815260200192505050600060405180830381600087803b1515610ce557600080fd5b6102c65a03f11515610cf657600080fd5b5050508973ffffffffffffffffffffffffffffffffffffffff16633562fd20898460405180807f70617469656e742f74726561746d656e742d726571756573742d696e6465782f81526020017f7363616e2d726573756c74732d636f756e7400000000000000000000000000008152506032018373ffffffffffffffffffffffffffffffffffffffff1673ffffffffffffffffffffffffffffffffffffffff166c0100000000000000000000000002815260140182815260200192505050604051809103902086516040518363ffffffff167c010000000000000000000000000000000000000000000000000000000002815260040180836000191660001916815260200182815260200192505050600060405180830381600087803b1515610e1e57600080fd5b6102c65a03f11515610e2f57600080fd5b5050508973ffffffffffffffffffffffffffffffffffffffff16630bd85158898460405180807f70617469656e742f74726561746d656e742d726571756573742d696e6465782f81526020017f73746174757300000000000000000000000000000000000000000000000000008152506026018373ffffffffffffffffffffffffffffffffffffffff1673ffffffffffffffffffffffffffffffffffffffff166c0100000000000000000000000002815260140182815260200192505050604051809103902060006040518363ffffffff167c01000000000000000000000000000000000000000000000000000000000281526004018083600019166000191681526020018260ff16815260200192505050600060405180830381600087803b1515610f5a57600080fd5b6102c65a03f11515610f6b57600080fd5b5050508973ffffffffffffffffffffffffffffffffffffffff16633eba9ed2898460405180807f70617469656e742f74726561746d656e742d726571756573742d696e6465782f81526020017f69732d63616e63656c65643f0000000000000000000000000000000000000000815250602c018373ffffffffffffffffffffffffffffffffffffffff1673ffffffffffffffffffffffffffffffffffffffff166c0100000000000000000000000002815260140182815260200192505050604051809103902060006040518363ffffffff167c01000000000000000000000000000000000000000000000000000000000281526004018083600019166000191681526020018215151515815260200192505050600060405180830381600087803b151561109757600080fd5b6102c65a03f115156110a857600080fd5b505050600090505b8351811015611225578973ffffffffffffffffffffffffffffffffffffffff166325cf512d89848460405180807f70617469656e742f74726561746d656e742d726571756573742d696e6465782f81526020017f7363616e2d726573756c742d696e6465782f7363616e2d726573756c74000000815250603d018473ffffffffffffffffffffffffffffffffffffffff1673ffffffffffffffffffffffffffffffffffffffff166c0100000000000000000000000002815260140183815260200182815260200193505050506040518091039020868481518110151561119257fe5b906020019060200201516040518363ffffffff167c0100000000000000000000000000000000000000000000000000000000028152600401808360001916600019168152602001826000191660001916815260200192505050600060405180830381600087803b151561120457600080fd5b6102c65a03f1151561121557600080fd5b50505080806001019150506110b0565b8973ffffffffffffffffffffffffffffffffffffffff166325cf512d898460405180807f70617469656e742f74726561746d656e742d726571756573742d696e6465782f81526020017f74726561746d656e742d636f6d6d656e740000000000000000000000000000008152506031018373ffffffffffffffffffffffffffffffffffffffff1673ffffffffffffffffffffffffffffffffffffffff166c01000000000000000000000000028152601401828152602001925050506040518091039020856040518363ffffffff167c0100000000000000000000000000000000000000000000000000000000028152600401808360001916600019168152602001826000191660001916815260200192505050600060405180830381600087803b151561135157600080fd5b6102c65a03f1151561136257600080fd5b5050508973ffffffffffffffffffffffffffffffffffffffff166325cf512d898460405180807f70617469656e742f74726561746d656e742d726571756573742d696e6465782f81526020017f74726561746d656e742d696e737572616e6365000000000000000000000000008152506033018373ffffffffffffffffffffffffffffffffffffffff1673ffffffffffffffffffffffffffffffffffffffff166c01000000000000000000000000028152601401828152602001925050506040518091039020876040518363ffffffff167c0100000000000000000000000000000000000000000000000000000000028152600401808360001916600019168152602001826000191660001916815260200192505050600060405180830381600087803b151561149157600080fd5b6102c65a03f115156114a257600080fd5b50505050505050505050505050565b8273ffffffffffffffffffffffffffffffffffffffff166317e7dd22838360405180807f70617469656e742f74726561746d656e742d726571756573742d696e6465782f81526020017f69732d63616e63656c65643f0000000000000000000000000000000000000000815250602c018373ffffffffffffffffffffffffffffffffffffffff1673ffffffffffffffffffffffffffffffffffffffff166c010000000000000000000000000281526014018281526020019250505060405180910390206000604051602001526040518263ffffffff167c0100000000000000000000000000000000000000000000000000000000028152600401808260001916600019168152602001915050602060405180830381600087803b15156115d657600080fd5b6102c65a03f115156115e757600080fd5b505050604051805190501515611735578273ffffffffffffffffffffffffffffffffffffffff16633eba9ed2838360405180807f70617469656e742f74726561746d656e742d726571756573742d696e6465782f81526020017f69732d63616e63656c65643f0000000000000000000000000000000000000000815250602c018373ffffffffffffffffffffffffffffffffffffffff1673ffffffffffffffffffffffffffffffffffffffff166c0100000000000000000000000002815260140182815260200192505050604051809103902060016040518363ffffffff167c01000000000000000000000000000000000000000000000000000000000281526004018083600019166000191681526020018215151515815260200192505050600060405180830381600087803b151561172057600080fd5b6102c65a03f1151561173157600080fd5b5050505b505050565b60008373ffffffffffffffffffffffffffffffffffffffff1663bdc963d883856040518083805190602001908083835b60208310151561178f578051825260208201915060208101905060208303925061176a565b6001836020036101000a0380198251168184511680821785525050505050509050018273ffffffffffffffffffffffffffffffffffffffff1673ffffffffffffffffffffffffffffffffffffffff166c010000000000000000000000000281526014019250505060405180910390206000604051602001526040518263ffffffff167c0100000000000000000000000000000000000000000000000000000000028152600401808260001916600019168152602001915050602060405180830381600087803b151561186057600080fd5b6102c65a03f1151561187157600080fd5b50505060405180519050905093925050505600a165627a7a72305820147516da8b76724728b53949f3f40da9a498c6419da502370bd9eba9045684490029",
  "source": "pragma solidity 0.4.18;\nimport \"./Restrictor.sol\";\nimport \"../lib/odll/userManager.sol\";\n\ncontract TreatmentRequestWriter is Restrictor {\n\n  function TreatmentRequestWriter(address _dbAddress) public {\n    require(_dbAddress != 0x0);\n    dbAddress = _dbAddress;\n  }\n\n  // treatment request status: 0 => pending, 1 => has applications, 2 => closed to applications, 3 => finished\n  function requestTreatment (\n    address dentistId,\n    uint scanAppointmentId,\n    uint patientScanAppointmentIndexNumber,\n    bytes32 treatmentInsurance,\n    bytes32[] scanResults,\n    bytes32 treatmentComment\n  )\n    external\n    onlyPermittedSmartContract\n  {\n    userManager.applyForTreatment(dbAddress, dentistId, msg.sender, scanAppointmentId, patientScanAppointmentIndexNumber, treatmentInsurance, scanResults, treatmentComment);\n  }\n\n  function cancelTreatmentRequest (\n    uint patientTreatmentIndexNumber\n  )\n    external\n    onlyPermittedSmartContract\n  {\n    userManager.cancelTreatmentRequest(dbAddress, msg.sender, patientTreatmentIndexNumber);\n  }\n}\n",
  "sourcePath": "/home/daniel/dev/vue/apps/oral-data-link/contracts/odll/TreatmentRequestWriter.sol",
  "compiler": {
    "name": "solc",
    "version": "0.4.18+commit.9cf6e910.Emscripten.clang"
  },
  "schemaVersion": "1.0.1",
  "updatedAt": "2017-11-06T15:50:54.438Z"
}