{
  "contractName": "TreatmentApplicationWriter",
  "abi": [
    {
      "constant": false,
      "inputs": [
        {
          "name": "patientId",
          "type": "address"
        },
        {
          "name": "treatmentApplicationId",
          "type": "uint256"
        }
      ],
      "name": "cancelTreatmentApplication",
      "outputs": [],
      "payable": false,
      "stateMutability": "nonpayable",
      "type": "function"
    },
    {
      "constant": true,
      "inputs": [],
      "name": "smartContractStatus",
      "outputs": [
        {
          "name": "",
          "type": "uint8"
        }
      ],
      "payable": false,
      "stateMutability": "view",
      "type": "function"
    },
    {
      "constant": false,
      "inputs": [
        {
          "name": "dentistId",
          "type": "address"
        },
        {
          "name": "treatmentId",
          "type": "uint256"
        }
      ],
      "name": "markTreatmentDone",
      "outputs": [],
      "payable": false,
      "stateMutability": "nonpayable",
      "type": "function"
    },
    {
      "constant": false,
      "inputs": [
        {
          "name": "dentistId",
          "type": "address"
        },
        {
          "name": "treatmentApplicationId",
          "type": "uint256"
        },
        {
          "name": "quote",
          "type": "uint256"
        }
      ],
      "name": "acceptTreatmentApplication",
      "outputs": [],
      "payable": true,
      "stateMutability": "payable",
      "type": "function"
    },
    {
      "constant": true,
      "inputs": [],
      "name": "owner",
      "outputs": [
        {
          "name": "",
          "type": "address"
        }
      ],
      "payable": false,
      "stateMutability": "view",
      "type": "function"
    },
    {
      "constant": true,
      "inputs": [],
      "name": "dbAddress",
      "outputs": [
        {
          "name": "",
          "type": "address"
        }
      ],
      "payable": false,
      "stateMutability": "view",
      "type": "function"
    },
    {
      "constant": false,
      "inputs": [
        {
          "name": "dentistId",
          "type": "address"
        },
        {
          "name": "treatmentId",
          "type": "uint256"
        }
      ],
      "name": "cancelTreatment",
      "outputs": [],
      "payable": false,
      "stateMutability": "nonpayable",
      "type": "function"
    },
    {
      "constant": false,
      "inputs": [
        {
          "name": "patientId",
          "type": "address"
        },
        {
          "name": "treatmentRequestId",
          "type": "uint256"
        },
        {
          "name": "quote",
          "type": "uint256"
        },
        {
          "name": "comment",
          "type": "string"
        }
      ],
      "name": "applyToTreat",
      "outputs": [],
      "payable": false,
      "stateMutability": "nonpayable",
      "type": "function"
    },
    {
      "constant": false,
      "inputs": [
        {
          "name": "newOwner",
          "type": "address"
        },
        {
          "name": "treatmentRequestId",
          "type": "uint256"
        },
        {
          "name": "quote",
          "type": "uint256"
        },
        {
          "name": "comment",
          "type": "bytes32"
        }
      ],
      "name": "transferOwnership",
      "outputs": [],
      "payable": false,
      "stateMutability": "nonpayable",
      "type": "function"
    },
    {
      "inputs": [
        {
          "name": "_dbAddress",
          "type": "address"
        }
      ],
      "payable": false,
      "stateMutability": "nonpayable",
      "type": "constructor"
    },
    {
      "anonymous": false,
      "inputs": [
        {
          "indexed": false,
          "name": "status",
          "type": "uint8"
        }
      ],
      "name": "OnSmartContractStatusSet",
      "type": "event"
    },
    {
      "anonymous": false,
      "inputs": [
        {
          "indexed": true,
          "name": "previousOwner",
          "type": "address"
        },
        {
          "indexed": true,
          "name": "newOwner",
          "type": "address"
        }
      ],
      "name": "OwnershipTransferred",
      "type": "event"
    }
  ],
  "bytecode": "0x6060604052341561000f57600080fd5b604051602080620053f383398101604052808051906020019091905050336000806101000a81548173ffffffffffffffffffffffffffffffffffffffff021916908373ffffffffffffffffffffffffffffffffffffffff16021790555060008173ffffffffffffffffffffffffffffffffffffffff161415151561009257600080fd5b80600160006101000a81548173ffffffffffffffffffffffffffffffffffffffff021916908373ffffffffffffffffffffffffffffffffffffffff1602179055505061530f80620000e46000396000f300606060405260043610610099576000357c0100000000000000000000000000000000000000000000000000000000900463ffffffff16806307c2759d1461009e5780634c8ddddc146100e0578063797c6ae61461010f57806383a7d289146101515780638da5cb5b1461019157806391e06b6d146101e6578063b0e78e8b1461023b578063bfca80481461027d578063f2fde38b146102dc575b600080fd5b34156100a957600080fd5b6100de600480803573ffffffffffffffffffffffffffffffffffffffff16906020019091908035906020019091905050610315565b005b34156100eb57600080fd5b6100f3610347565b604051808260ff1660ff16815260200191505060405180910390f35b341561011a57600080fd5b61014f600480803573ffffffffffffffffffffffffffffffffffffffff1690602001909190803590602001909190505061035a565b005b61018f600480803573ffffffffffffffffffffffffffffffffffffffff1690602001909190803590602001909190803590602001909190505061038c565b005b341561019c57600080fd5b6101a461040f565b604051808273ffffffffffffffffffffffffffffffffffffffff1673ffffffffffffffffffffffffffffffffffffffff16815260200191505060405180910390f35b34156101f157600080fd5b6101f9610434565b604051808273ffffffffffffffffffffffffffffffffffffffff1673ffffffffffffffffffffffffffffffffffffffff16815260200191505060405180910390f35b341561024657600080fd5b61027b600480803573ffffffffffffffffffffffffffffffffffffffff1690602001909190803590602001909190505061045a565b005b341561028857600080fd5b6102da600480803573ffffffffffffffffffffffffffffffffffffffff16906020019091908035906020019091908035906020019091908035906020019082018035906020019190919290505061048c565b005b34156102e757600080fd5b610313600480803573ffffffffffffffffffffffffffffffffffffffff169060200190919050506104f5565b005b610343600160009054906101000a900473ffffffffffffffffffffffffffffffffffffffff1633848461064a565b5050565b600160149054906101000a900460ff1681565b610388600160009054906101000a900473ffffffffffffffffffffffffffffffffffffffff1683338461065c565b5050565b803410156103d9573373ffffffffffffffffffffffffffffffffffffffff166108fc349081150290604051600060405180830381858888f1935050505015156103d457600080fd5b61040a565b610409600160009054906101000a900473ffffffffffffffffffffffffffffffffffffffff16843385348661066e565b5b505050565b6000809054906101000a900473ffffffffffffffffffffffffffffffffffffffff1681565b600160009054906101000a900473ffffffffffffffffffffffffffffffffffffffff1681565b610488600160009054906101000a900473ffffffffffffffffffffffffffffffffffffffff168333846109ae565b5050565b6104ee600160009054906101000a900473ffffffffffffffffffffffffffffffffffffffff163387878787878080601f0160208091040260200160405190810160405280939291908181526020018383808284378201915050505050506109c0565b5050505050565b6000809054906101000a900473ffffffffffffffffffffffffffffffffffffffff1673ffffffffffffffffffffffffffffffffffffffff163373ffffffffffffffffffffffffffffffffffffffff1614151561055057600080fd5b600073ffffffffffffffffffffffffffffffffffffffff168173ffffffffffffffffffffffffffffffffffffffff161415151561058c57600080fd5b8073ffffffffffffffffffffffffffffffffffffffff166000809054906101000a900473ffffffffffffffffffffffffffffffffffffffff1673ffffffffffffffffffffffffffffffffffffffff167f8be0079c531659141344cd1fd0a4f28419497f9722a3daafe3b4186f6b6457e060405160405180910390a3806000806101000a81548173ffffffffffffffffffffffffffffffffffffffff021916908373ffffffffffffffffffffffffffffffffffffffff16021790555050565b610656848484846109d6565b50505050565b61066884848484610db1565b50505050565b6000806000806000806000808d73ffffffffffffffffffffffffffffffffffffffff16634c77e5ba60405180807f6f646c6c2f7061796d656e742d61646472657373000000000000000000000000815250601401905060405180910390206000604051602001526040518263ffffffff167c0100000000000000000000000000000000000000000000000000000000028152600401808260001916600019168152602001915050602060405180830381600087803b151561072e57600080fd5b6102c65a03f1151561073f57600080fd5b5050506040518051905097508d73ffffffffffffffffffffffffffffffffffffffff1663bdc963d860405180807f6f646c6c2f74726561746d656e742d7061796d656e742d70657263656e74616781526020017f6500000000000000000000000000000000000000000000000000000000000000815250602101905060405180910390206000604051602001526040518263ffffffff167c0100000000000000000000000000000000000000000000000000000000028152600401808260001916600019168152602001915050602060405180830381600087803b151561082557600080fd5b6102c65a03f1151561083657600080fd5b50505060405180519050965061084c8a8a61118c565b955061086261085c8860646111a5565b8a6111e6565b945061086e898661118c565b935084925060009450839150600093506108898e8d8b611219565b6108948e8d8b6113ef565b61089f8e8e846115c5565b6108aa8e8e8461179b565b6108b58e8985611971565b6108c08e8985611b47565b6108cd8e8e8e8e8d611d1d565b8773ffffffffffffffffffffffffffffffffffffffff166108fc849081150290604051600060405180830381858888f19350505050151561090d57600080fd5b8c73ffffffffffffffffffffffffffffffffffffffff166108fc839081150290604051600060405180830381858888f19350505050151561094d57600080fd5b600086111561099e57859050600095508b73ffffffffffffffffffffffffffffffffffffffff166108fc829081150290604051600060405180830381858888f19350505050151561099d57600080fd5b5b5050505050505050505050505050565b6109ba848484846126ff565b50505050565b6109ce868686868686612ada565b505050505050565b60018473ffffffffffffffffffffffffffffffffffffffff16637a0e03ec8360405180807f74726561746d656e742d6170706c69636174696f6e2f73746174757300000000815250601c0182815260200191505060405180910390206000604051602001526040518263ffffffff167c0100000000000000000000000000000000000000000000000000000000028152600401808260001916600019168152602001915050602060405180830381600087803b1515610a9457600080fd5b6102c65a03f11515610aa557600080fd5b5050506040518051905060ff16148015610bc057508273ffffffffffffffffffffffffffffffffffffffff168473ffffffffffffffffffffffffffffffffffffffff16634c77e5ba8360405180807f74726561746d656e742d6170706c69636174696f6e2f64656e74697374000000815250601d0182815260200191505060405180910390206000604051602001526040518263ffffffff167c0100000000000000000000000000000000000000000000000000000000028152600401808260001916600019168152602001915050602060405180830381600087803b1515610b8d57600080fd5b6102c65a03f11515610b9e57600080fd5b5050506040518051905073ffffffffffffffffffffffffffffffffffffffff16145b8015610ccd57508173ffffffffffffffffffffffffffffffffffffffff168473ffffffffffffffffffffffffffffffffffffffff16634c77e5ba8360405180807f74726561746d656e742d6170706c69636174696f6e2f70617469656e74000000815250601d0182815260200191505060405180910390206000604051602001526040518263ffffffff167c0100000000000000000000000000000000000000000000000000000000028152600401808260001916600019168152602001915050602060405180830381600087803b1515610c9a57600080fd5b6102c65a03f11515610cab57600080fd5b5050506040518051905073ffffffffffffffffffffffffffffffffffffffff16145b1515610cd857600080fd5b8373ffffffffffffffffffffffffffffffffffffffff16630bd851588260405180807f74726561746d656e742d6170706c69636174696f6e2f73746174757300000000815250601c01828152602001915050604051809103902060036040518363ffffffff167c01000000000000000000000000000000000000000000000000000000000281526004018083600019166000191681526020018260ff16815260200192505050600060405180830381600087803b1515610d9757600080fd5b6102c65a03f11515610da857600080fd5b50505050505050565b60018473ffffffffffffffffffffffffffffffffffffffff16637a0e03ec8360405180807f74726561746d656e742f7374617475730000000000000000000000000000000081525060100182815260200191505060405180910390206000604051602001526040518263ffffffff167c0100000000000000000000000000000000000000000000000000000000028152600401808260001916600019168152602001915050602060405180830381600087803b1515610e6f57600080fd5b6102c65a03f11515610e8057600080fd5b5050506040518051905060ff16148015610f9b57508273ffffffffffffffffffffffffffffffffffffffff168473ffffffffffffffffffffffffffffffffffffffff16634c77e5ba8360405180807f74726561746d656e742f64656e7469737400000000000000000000000000000081525060110182815260200191505060405180910390206000604051602001526040518263ffffffff167c0100000000000000000000000000000000000000000000000000000000028152600401808260001916600019168152602001915050602060405180830381600087803b1515610f6857600080fd5b6102c65a03f11515610f7957600080fd5b5050506040518051905073ffffffffffffffffffffffffffffffffffffffff16145b80156110a857508173ffffffffffffffffffffffffffffffffffffffff168473ffffffffffffffffffffffffffffffffffffffff16634c77e5ba8360405180807f74726561746d656e742f70617469656e7400000000000000000000000000000081525060110182815260200191505060405180910390206000604051602001526040518263ffffffff167c0100000000000000000000000000000000000000000000000000000000028152600401808260001916600019168152602001915050602060405180830381600087803b151561107557600080fd5b6102c65a03f1151561108657600080fd5b5050506040518051905073ffffffffffffffffffffffffffffffffffffffff16145b15156110b357600080fd5b8373ffffffffffffffffffffffffffffffffffffffff16630bd851588260405180807f74726561746d656e742f73746174757300000000000000000000000000000000815250601001828152602001915050604051809103902060026040518363ffffffff167c01000000000000000000000000000000000000000000000000000000000281526004018083600019166000191681526020018260ff16815260200192505050600060405180830381600087803b151561117257600080fd5b6102c65a03f1151561118357600080fd5b50505050505050565b600082821115151561119a57fe5b818303905092915050565b6000806000831115156111b457fe5b82848115156111bf57fe5b04905082848115156111cd57fe5b0681840201841415156111dc57fe5b8091505092915050565b60008082840290506000841480611207575082848281151561120457fe5b04145b151561120f57fe5b8091505092915050565b8273ffffffffffffffffffffffffffffffffffffffff1663c8d1c0178360405180807f70617469656e742f74726561746d656e742d746f74616c2d7061696400000000815250601c018273ffffffffffffffffffffffffffffffffffffffff1673ffffffffffffffffffffffffffffffffffffffff166c010000000000000000000000000281526014019150506040518091039020836040518363ffffffff167c010000000000000000000000000000000000000000000000000000000002815260040180836000191660001916815260200182815260200192505050600060405180830381600087803b151561130f57600080fd5b6102c65a03f1151561132057600080fd5b5050508273ffffffffffffffffffffffffffffffffffffffff1663c8d1c01760405180807f70617469656e74732f74726561746d656e742d746f74616c2d70616964000000815250601d0190506040518091039020836040518363ffffffff167c010000000000000000000000000000000000000000000000000000000002815260040180836000191660001916815260200182815260200192505050600060405180830381600087803b15156113d657600080fd5b6102c65a03f115156113e757600080fd5b505050505050565b8273ffffffffffffffffffffffffffffffffffffffff1663c8d1c0178360405180807f70617469656e742f746f74616c2d7061696400000000000000000000000000008152506012018273ffffffffffffffffffffffffffffffffffffffff1673ffffffffffffffffffffffffffffffffffffffff166c010000000000000000000000000281526014019150506040518091039020836040518363ffffffff167c010000000000000000000000000000000000000000000000000000000002815260040180836000191660001916815260200182815260200192505050600060405180830381600087803b15156114e557600080fd5b6102c65a03f115156114f657600080fd5b5050508273ffffffffffffffffffffffffffffffffffffffff1663c8d1c01760405180807f70617469656e74732f746f74616c2d706169640000000000000000000000000081525060130190506040518091039020836040518363ffffffff167c010000000000000000000000000000000000000000000000000000000002815260040180836000191660001916815260200182815260200192505050600060405180830381600087803b15156115ac57600080fd5b6102c65a03f115156115bd57600080fd5b505050505050565b8273ffffffffffffffffffffffffffffffffffffffff1663c8d1c0178360405180807f64656e746973742f74726561746d656e742d746f74616c2d6561726e65640000815250601e018273ffffffffffffffffffffffffffffffffffffffff1673ffffffffffffffffffffffffffffffffffffffff166c010000000000000000000000000281526014019150506040518091039020836040518363ffffffff167c010000000000000000000000000000000000000000000000000000000002815260040180836000191660001916815260200182815260200192505050600060405180830381600087803b15156116bb57600080fd5b6102c65a03f115156116cc57600080fd5b5050508273ffffffffffffffffffffffffffffffffffffffff1663c8d1c01760405180807f64656e74697374732f74726561746d656e742d746f74616c2d6561726e656400815250601f0190506040518091039020836040518363ffffffff167c010000000000000000000000000000000000000000000000000000000002815260040180836000191660001916815260200182815260200192505050600060405180830381600087803b151561178257600080fd5b6102c65a03f1151561179357600080fd5b505050505050565b8273ffffffffffffffffffffffffffffffffffffffff1663c8d1c0178360405180807f64656e746973742f746f74616c2d6561726e65640000000000000000000000008152506014018273ffffffffffffffffffffffffffffffffffffffff1673ffffffffffffffffffffffffffffffffffffffff166c010000000000000000000000000281526014019150506040518091039020836040518363ffffffff167c010000000000000000000000000000000000000000000000000000000002815260040180836000191660001916815260200182815260200192505050600060405180830381600087803b151561189157600080fd5b6102c65a03f115156118a257600080fd5b5050508273ffffffffffffffffffffffffffffffffffffffff1663c8d1c01760405180807f64656e74697374732f746f74616c2d6561726e6564000000000000000000000081525060150190506040518091039020836040518363ffffffff167c010000000000000000000000000000000000000000000000000000000002815260040180836000191660001916815260200182815260200192505050600060405180830381600087803b151561195857600080fd5b6102c65a03f1151561196957600080fd5b505050505050565b8273ffffffffffffffffffffffffffffffffffffffff1663c8d1c0178360405180807f6f646c6c2f74726561746d656e742d746f74616c2d6561726e65640000000000815250601b018273ffffffffffffffffffffffffffffffffffffffff1673ffffffffffffffffffffffffffffffffffffffff166c010000000000000000000000000281526014019150506040518091039020836040518363ffffffff167c010000000000000000000000000000000000000000000000000000000002815260040180836000191660001916815260200182815260200192505050600060405180830381600087803b1515611a6757600080fd5b6102c65a03f11515611a7857600080fd5b5050508273ffffffffffffffffffffffffffffffffffffffff1663c8d1c01760405180807f6f646c6c2f74726561746d656e742d746f74616c2d6561726e65640000000000815250601b0190506040518091039020836040518363ffffffff167c010000000000000000000000000000000000000000000000000000000002815260040180836000191660001916815260200182815260200192505050600060405180830381600087803b1515611b2e57600080fd5b6102c65a03f11515611b3f57600080fd5b505050505050565b8273ffffffffffffffffffffffffffffffffffffffff1663c8d1c0178360405180807f6f646c6c2f746f74616c2d6561726e65640000000000000000000000000000008152506011018273ffffffffffffffffffffffffffffffffffffffff1673ffffffffffffffffffffffffffffffffffffffff166c010000000000000000000000000281526014019150506040518091039020836040518363ffffffff167c010000000000000000000000000000000000000000000000000000000002815260040180836000191660001916815260200182815260200192505050600060405180830381600087803b1515611c3d57600080fd5b6102c65a03f11515611c4e57600080fd5b5050508273ffffffffffffffffffffffffffffffffffffffff1663c8d1c01760405180807f6f646c6c2f746f74616c2d6561726e656400000000000000000000000000000081525060110190506040518091039020836040518363ffffffff167c010000000000000000000000000000000000000000000000000000000002815260040180836000191660001916815260200182815260200192505050600060405180830381600087803b1515611d0457600080fd5b6102c65a03f11515611d1557600080fd5b505050505050565b600080611d5f876040805190810160405280601081526020017f74726561746d656e74732d636f756e7400000000000000000000000000000000815250612af0565b91508673ffffffffffffffffffffffffffffffffffffffff1663bdc963d88560405180807f74726561746d656e742d6170706c69636174696f6e2f74726561746d656e742d81526020017f726571756573740000000000000000000000000000000000000000000000000081525060270182815260200191505060405180910390206000604051602001526040518263ffffffff167c0100000000000000000000000000000000000000000000000000000000028152600401808260001916600019168152602001915050602060405180830381600087803b1515611e4357600080fd5b6102c65a03f11515611e5457600080fd5b50505060405180519050905060008773ffffffffffffffffffffffffffffffffffffffff16637a0e03ec8460405180807f74726561746d656e742f7374617475730000000000000000000000000000000081525060100182815260200191505060405180910390206000604051602001526040518263ffffffff167c0100000000000000000000000000000000000000000000000000000000028152600401808260001916600019168152602001915050602060405180830381600087803b1515611f1e57600080fd5b6102c65a03f11515611f2f57600080fd5b5050506040518051905060ff16148015612022575060018773ffffffffffffffffffffffffffffffffffffffff16637a0e03ec8660405180807f74726561746d656e742d6170706c69636174696f6e2f73746174757300000000815250601c0182815260200191505060405180910390206000604051602001526040518263ffffffff167c0100000000000000000000000000000000000000000000000000000000028152600401808260001916600019168152602001915050602060405180830381600087803b151561200257600080fd5b6102c65a03f1151561201357600080fd5b5050506040518051905060ff16145b8015612107575060018773ffffffffffffffffffffffffffffffffffffffff16637a0e03ec8360405180807f74726561746d656e742d726571756573742f737461747573000000000000000081525060180182815260200191505060405180910390206000604051602001526040518263ffffffff167c0100000000000000000000000000000000000000000000000000000000028152600401808260001916600019168152602001915050602060405180830381600087803b15156120e757600080fd5b6102c65a03f115156120f857600080fd5b5050506040518051905060ff16145b801561221457508473ffffffffffffffffffffffffffffffffffffffff168773ffffffffffffffffffffffffffffffffffffffff16634c77e5ba8360405180807f74726561746d656e742d726571756573742f70617469656e740000000000000081525060190182815260200191505060405180910390206000604051602001526040518263ffffffff167c0100000000000000000000000000000000000000000000000000000000028152600401808260001916600019168152602001915050602060405180830381600087803b15156121e157600080fd5b6102c65a03f115156121f257600080fd5b5050506040518051905073ffffffffffffffffffffffffffffffffffffffff16145b801561232157508573ffffffffffffffffffffffffffffffffffffffff168773ffffffffffffffffffffffffffffffffffffffff16634c77e5ba8660405180807f74726561746d656e742d6170706c69636174696f6e2f64656e74697374000000815250601d0182815260200191505060405180910390206000604051602001526040518263ffffffff167c0100000000000000000000000000000000000000000000000000000000028152600401808260001916600019168152602001915050602060405180830381600087803b15156122ee57600080fd5b6102c65a03f115156122ff57600080fd5b5050506040518051905073ffffffffffffffffffffffffffffffffffffffff16145b801561242e57508473ffffffffffffffffffffffffffffffffffffffff168773ffffffffffffffffffffffffffffffffffffffff16634c77e5ba8660405180807f74726561746d656e742d6170706c69636174696f6e2f70617469656e74000000815250601d0182815260200191505060405180910390206000604051602001526040518263ffffffff167c0100000000000000000000000000000000000000000000000000000000028152600401808260001916600019168152602001915050602060405180830381600087803b15156123fb57600080fd5b6102c65a03f1151561240c57600080fd5b5050506040518051905073ffffffffffffffffffffffffffffffffffffffff16145b801561251f575060008773ffffffffffffffffffffffffffffffffffffffff16634c77e5ba60405180807f6f646c6c2f7061796d656e742d61646472657373000000000000000000000000815250601401905060405180910390206000604051602001526040518263ffffffff167c0100000000000000000000000000000000000000000000000000000000028152600401808260001916600019168152602001915050602060405180830381600087803b15156124eb57600080fd5b6102c65a03f115156124fc57600080fd5b5050506040518051905073ffffffffffffffffffffffffffffffffffffffff1614155b151561252a57600080fd5b612538878787848887612bf6565b61254587878785876131aa565b8673ffffffffffffffffffffffffffffffffffffffff16630bd851588260405180807f74726561746d656e742d726571756573742f7374617475730000000000000000815250601801828152602001915050604051809103902060026040518363ffffffff167c01000000000000000000000000000000000000000000000000000000000281526004018083600019166000191681526020018260ff16815260200192505050600060405180830381600087803b151561260457600080fd5b6102c65a03f1151561261557600080fd5b5050508673ffffffffffffffffffffffffffffffffffffffff16630bd851588560405180807f74726561746d656e742d6170706c69636174696f6e2f73746174757300000000815250601c01828152602001915050604051809103902060046040518363ffffffff167c01000000000000000000000000000000000000000000000000000000000281526004018083600019166000191681526020018260ff16815260200192505050600060405180830381600087803b15156126d757600080fd5b6102c65a03f115156126e857600080fd5b5050506126f6878286613442565b50505050505050565b60018473ffffffffffffffffffffffffffffffffffffffff16637a0e03ec8360405180807f74726561746d656e742f7374617475730000000000000000000000000000000081525060100182815260200191505060405180910390206000604051602001526040518263ffffffff167c0100000000000000000000000000000000000000000000000000000000028152600401808260001916600019168152602001915050602060405180830381600087803b15156127bd57600080fd5b6102c65a03f115156127ce57600080fd5b5050506040518051905060ff161480156128e957508273ffffffffffffffffffffffffffffffffffffffff168473ffffffffffffffffffffffffffffffffffffffff16634c77e5ba8360405180807f74726561746d656e742f64656e7469737400000000000000000000000000000081525060110182815260200191505060405180910390206000604051602001526040518263ffffffff167c0100000000000000000000000000000000000000000000000000000000028152600401808260001916600019168152602001915050602060405180830381600087803b15156128b657600080fd5b6102c65a03f115156128c757600080fd5b5050506040518051905073ffffffffffffffffffffffffffffffffffffffff16145b80156129f657508173ffffffffffffffffffffffffffffffffffffffff168473ffffffffffffffffffffffffffffffffffffffff16634c77e5ba8360405180807f74726561746d656e742f70617469656e7400000000000000000000000000000081525060110182815260200191505060405180910390206000604051602001526040518263ffffffff167c0100000000000000000000000000000000000000000000000000000000028152600401808260001916600019168152602001915050602060405180830381600087803b15156129c357600080fd5b6102c65a03f115156129d457600080fd5b5050506040518051905073ffffffffffffffffffffffffffffffffffffffff16145b1515612a0157600080fd5b8373ffffffffffffffffffffffffffffffffffffffff16630bd851588260405180807f74726561746d656e742f73746174757300000000000000000000000000000000815250601001828152602001915050604051809103902060036040518363ffffffff167c01000000000000000000000000000000000000000000000000000000000281526004018083600019166000191681526020018260ff16815260200192505050600060405180830381600087803b1515612ac057600080fd5b6102c65a03f11515612ad157600080fd5b50505050505050565b612ae88686868686866136b6565b505050505050565b60008273ffffffffffffffffffffffffffffffffffffffff1663bdc963d8836040518082805190602001908083835b602083101515612b445780518252602082019150602081019050602083039250612b1f565b6001836020036101000a03801982511681845116808217855250505050505090500191505060405180910390206000604051602001526040518263ffffffff167c0100000000000000000000000000000000000000000000000000000000028152600401808260001916600019168152602001915050602060405180830381600087803b1515612bd357600080fd5b6102c65a03f11515612be457600080fd5b50505060405180519050905092915050565b8573ffffffffffffffffffffffffffffffffffffffff16630bd851588260405180807f74726561746d656e742f73746174757300000000000000000000000000000000815250601001828152602001915050604051809103902060016040518363ffffffff167c01000000000000000000000000000000000000000000000000000000000281526004018083600019166000191681526020018260ff16815260200192505050600060405180830381600087803b1515612cb557600080fd5b6102c65a03f11515612cc657600080fd5b5050508573ffffffffffffffffffffffffffffffffffffffff16633562fd208260405180807f74726561746d656e742f637265617465642d6f6e0000000000000000000000008152506014018281526020019150506040518091039020426040518363ffffffff167c010000000000000000000000000000000000000000000000000000000002815260040180836000191660001916815260200182815260200192505050600060405180830381600087803b1515612d8457600080fd5b6102c65a03f11515612d9557600080fd5b5050508573ffffffffffffffffffffffffffffffffffffffff16635a2bf25a8260405180807f74726561746d656e742f64656e746973740000000000000000000000000000008152506011018281526020019150506040518091039020876040518363ffffffff167c01000000000000000000000000000000000000000000000000000000000281526004018083600019166000191681526020018273ffffffffffffffffffffffffffffffffffffffff1673ffffffffffffffffffffffffffffffffffffffff16815260200192505050600060405180830381600087803b1515612e7f57600080fd5b6102c65a03f11515612e9057600080fd5b5050508573ffffffffffffffffffffffffffffffffffffffff16635a2bf25a8260405180807f74726561746d656e742f70617469656e740000000000000000000000000000008152506011018281526020019150506040518091039020866040518363ffffffff167c01000000000000000000000000000000000000000000000000000000000281526004018083600019166000191681526020018273ffffffffffffffffffffffffffffffffffffffff1673ffffffffffffffffffffffffffffffffffffffff16815260200192505050600060405180830381600087803b1515612f7a57600080fd5b6102c65a03f11515612f8b57600080fd5b5050508573ffffffffffffffffffffffffffffffffffffffff16633562fd208260405180807f74726561746d656e742f74726561746d656e742d726571756573740000000000815250601b018281526020019150506040518091039020856040518363ffffffff167c010000000000000000000000000000000000000000000000000000000002815260040180836000191660001916815260200182815260200192505050600060405180830381600087803b151561304957600080fd5b6102c65a03f1151561305a57600080fd5b5050508573ffffffffffffffffffffffffffffffffffffffff16633562fd208260405180807f74726561746d656e742f74726561746d656e742d6170706c69636174696f6e00815250601f018281526020019150506040518091039020846040518363ffffffff167c010000000000000000000000000000000000000000000000000000000002815260040180836000191660001916815260200182815260200192505050600060405180830381600087803b151561311857600080fd5b6102c65a03f1151561312957600080fd5b5050506131a2866040805190810160405280600981526020017f74726561746d656e7400000000000000000000000000000000000000000000008152506040805190810160405280601081526020017f74726561746d656e74732d636f756e740000000000000000000000000000000081525084613fd1565b505050505050565b8473ffffffffffffffffffffffffffffffffffffffff16633562fd208360405180807f74726561746d656e742f616d6f756e74000000000000000000000000000000008152506010018281526020019150506040518091039020836040518363ffffffff167c010000000000000000000000000000000000000000000000000000000002815260040180836000191660001916815260200182815260200192505050600060405180830381600087803b151561326557600080fd5b6102c65a03f1151561327657600080fd5b5050508473ffffffffffffffffffffffffffffffffffffffff16633eba9ed28360405180807f74726561746d656e742f70616964000000000000000000000000000000000000815250600e01828152602001915050604051809103902060016040518363ffffffff167c01000000000000000000000000000000000000000000000000000000000281526004018083600019166000191681526020018215151515815260200192505050600060405180830381600087803b151561333957600080fd5b6102c65a03f1151561334a57600080fd5b5050506133c485856040805190810160405280601181526020017f64656e746973742f74726561746d656e740000000000000000000000000000008152506040805190810160405280601881526020017f64656e746973742f74726561746d656e74732d636f756e740000000000000000815250866142cb565b61343b85846040805190810160405280601181526020017f70617469656e742f74726561746d656e740000000000000000000000000000008152506040805190810160405280601881526020017f70617469656e742f74726561746d656e74732d636f756e740000000000000000815250866142cb565b5050505050565b60008060006134ae8686606060405190810160405280602e81526020017f74726561746d656e742d726571756573742f74726561746d656e742d6170706c81526020017f69636174696f6e732d636f756e7400000000000000000000000000000000000081525061455b565b9250600091505b828210156136ae578573ffffffffffffffffffffffffffffffffffffffff1663bdc963d8868460405180807f74726561746d656e742d726571756573742f74726561746d656e742d6170706c81526020017f69636174696f6e000000000000000000000000000000000000000000000000008152506027018381526020018281526020019250505060405180910390206000604051602001526040518263ffffffff167c0100000000000000000000000000000000000000000000000000000000028152600401808260001916600019168152602001915050602060405180830381600087803b15156135a757600080fd5b6102c65a03f115156135b857600080fd5b50505060405180519050905083811415156136a1578573ffffffffffffffffffffffffffffffffffffffff16630bd851588260405180807f74726561746d656e742d6170706c69636174696f6e2f73746174757300000000815250601c01828152602001915050604051809103902060056040518363ffffffff167c01000000000000000000000000000000000000000000000000000000000281526004018083600019166000191681526020018260ff16815260200192505050600060405180830381600087803b151561368c57600080fd5b6102c65a03f1151561369d57600080fd5b5050505b81806001019250506134b5565b505050505050565b6000806000806136fb8a6040805190810160405280601c81526020017f74726561746d656e742d6170706c69636174696f6e732d636f756e7400000000815250612af0565b935060008a73ffffffffffffffffffffffffffffffffffffffff16637a0e03ec8660405180807f74726561746d656e742d6170706c69636174696f6e2f73746174757300000000815250601c0182815260200191505060405180910390206000604051602001526040518263ffffffff167c0100000000000000000000000000000000000000000000000000000000028152600401808260001916600019168152602001915050602060405180830381600087803b15156137bb57600080fd5b6102c65a03f115156137cc57600080fd5b5050506040518051905060ff161480156138bf575060018a73ffffffffffffffffffffffffffffffffffffffff16637a0e03ec8960405180807f74726561746d656e742d726571756573742f737461747573000000000000000081525060180182815260200191505060405180910390206000604051602001526040518263ffffffff167c0100000000000000000000000000000000000000000000000000000000028152600401808260001916600019168152602001915050602060405180830381600087803b151561389f57600080fd5b6102c65a03f115156138b057600080fd5b5050506040518051905060ff16145b80156139cc57508773ffffffffffffffffffffffffffffffffffffffff168a73ffffffffffffffffffffffffffffffffffffffff16634c77e5ba8960405180807f74726561746d656e742d726571756573742f70617469656e740000000000000081525060190182815260200191505060405180910390206000604051602001526040518263ffffffff167c0100000000000000000000000000000000000000000000000000000000028152600401808260001916600019168152602001915050602060405180830381600087803b151561399957600080fd5b6102c65a03f115156139aa57600080fd5b5050506040518051905073ffffffffffffffffffffffffffffffffffffffff16145b15156139d757600080fd5b600092505b83831015613faa578973ffffffffffffffffffffffffffffffffffffffff1663bdc963d88a8560405180807f64656e746973742f74726561746d656e742d6170706c69636174696f6e000000815250601d018373ffffffffffffffffffffffffffffffffffffffff1673ffffffffffffffffffffffffffffffffffffffff166c010000000000000000000000000281526014018281526020019250505060405180910390206000604051602001526040518263ffffffff167c0100000000000000000000000000000000000000000000000000000000028152600401808260001916600019168152602001915050602060405180830381600087803b1515613ae357600080fd5b6102c65a03f11515613af457600080fd5b5050506040518051905091508973ffffffffffffffffffffffffffffffffffffffff1663bdc963d88360405180807f74726561746d656e742d6170706c69636174696f6e2f74726561746d656e742d81526020017f726571756573740000000000000000000000000000000000000000000000000081525060270182815260200191505060405180910390206000604051602001526040518263ffffffff167c0100000000000000000000000000000000000000000000000000000000028152600401808260001916600019168152602001915050602060405180830381600087803b1515613be257600080fd5b6102c65a03f11515613bf357600080fd5b5050506040518051905090508681148015613f93575060018a73ffffffffffffffffffffffffffffffffffffffff16637a0e03ec8460405180807f74726561746d656e742d6170706c69636174696f6e2f73746174757300000000815250601c0182815260200191505060405180910390206000604051602001526040518263ffffffff167c0100000000000000000000000000000000000000000000000000000000028152600401808260001916600019168152602001915050602060405180830381600087803b1515613cc757600080fd5b6102c65a03f11515613cd857600080fd5b5050506040518051905060ff161480613dca575060028a73ffffffffffffffffffffffffffffffffffffffff16637a0e03ec8460405180807f74726561746d656e742d6170706c69636174696f6e2f73746174757300000000815250601c0182815260200191505060405180910390206000604051602001526040518263ffffffff167c0100000000000000000000000000000000000000000000000000000000028152600401808260001916600019168152602001915050602060405180830381600087803b1515613daa57600080fd5b6102c65a03f11515613dbb57600080fd5b5050506040518051905060ff16145b80613eae575060048a73ffffffffffffffffffffffffffffffffffffffff16637a0e03ec8460405180807f74726561746d656e742d6170706c69636174696f6e2f73746174757300000000815250601c0182815260200191505060405180910390206000604051602001526040518263ffffffff167c0100000000000000000000000000000000000000000000000000000000028152600401808260001916600019168152602001915050602060405180830381600087803b1515613e8e57600080fd5b6102c65a03f11515613e9f57600080fd5b5050506040518051905060ff16145b80613f92575060058a73ffffffffffffffffffffffffffffffffffffffff16637a0e03ec8460405180807f74726561746d656e742d6170706c69636174696f6e2f73746174757300000000815250601c0182815260200191505060405180910390206000604051602001526040518263ffffffff167c0100000000000000000000000000000000000000000000000000000000028152600401808260001916600019168152602001915050602060405180830381600087803b1515613f7257600080fd5b6102c65a03f11515613f8357600080fd5b5050506040518051905060ff16145b5b15613f9d57613fc5565b82806001019350506139dc565b613fb58a888661466a565b613fc48a8a8a8a888b8b61497c565b5b50505050505050505050565b60008473ffffffffffffffffffffffffffffffffffffffff1663bdc963d8846040518082805190602001908083835b6020831015156140255780518252602082019150602081019050602083039250614000565b6001836020036101000a03801982511681845116808217855250505050505090500191505060405180910390206000604051602001526040518263ffffffff167c0100000000000000000000000000000000000000000000000000000000028152600401808260001916600019168152602001915050602060405180830381600087803b15156140b457600080fd5b6102c65a03f115156140c557600080fd5b5050506040518051905090508473ffffffffffffffffffffffffffffffffffffffff16633562fd2085836040518083805190602001908083835b60208310151561412457805182526020820191506020810190506020830392506140ff565b6001836020036101000a038019825116818451168082178552505050505050905001828152602001925050506040518091039020846040518363ffffffff167c010000000000000000000000000000000000000000000000000000000002815260040180836000191660001916815260200182815260200192505050600060405180830381600087803b15156141b957600080fd5b6102c65a03f115156141ca57600080fd5b5050508473ffffffffffffffffffffffffffffffffffffffff16633562fd20846040518082805190602001908083835b60208310151561421f57805182526020820191506020810190506020830392506141fa565b6001836020036101000a0380198251168184511680821785525050505050509050019150506040518091039020600184016040518363ffffffff167c010000000000000000000000000000000000000000000000000000000002815260040180836000191660001916815260200182815260200192505050600060405180830381600087803b15156142b057600080fd5b6102c65a03f115156142c157600080fd5b5050505050505050565b60006142d8868685614f7f565b90508573ffffffffffffffffffffffffffffffffffffffff16633562fd208587846040518084805190602001908083835b60208310151561432e5780518252602082019150602081019050602083039250614309565b6001836020036101000a0380198251168184511680821785525050505050509050018373ffffffffffffffffffffffffffffffffffffffff1673ffffffffffffffffffffffffffffffffffffffff166c0100000000000000000000000002815260140182815260200193505050506040518091039020846040518363ffffffff167c010000000000000000000000000000000000000000000000000000000002815260040180836000191660001916815260200182815260200192505050600060405180830381600087803b151561440557600080fd5b6102c65a03f1151561441657600080fd5b5050508573ffffffffffffffffffffffffffffffffffffffff16633562fd2084876040518083805190602001908083835b60208310151561446c5780518252602082019150602081019050602083039250614447565b6001836020036101000a0380198251168184511680821785525050505050509050018273ffffffffffffffffffffffffffffffffffffffff1673ffffffffffffffffffffffffffffffffffffffff166c01000000000000000000000000028152601401925050506040518091039020600184016040518363ffffffff167c010000000000000000000000000000000000000000000000000000000002815260040180836000191660001916815260200182815260200192505050600060405180830381600087803b151561453f57600080fd5b6102c65a03f1151561455057600080fd5b505050505050505050565b60008373ffffffffffffffffffffffffffffffffffffffff1663bdc963d883856040518083805190602001908083835b6020831015156145b0578051825260208201915060208101905060208303925061458b565b6001836020036101000a0380198251168184511680821785525050505050509050018281526020019250505060405180910390206000604051602001526040518263ffffffff167c0100000000000000000000000000000000000000000000000000000000028152600401808260001916600019168152602001915050602060405180830381600087803b151561464657600080fd5b6102c65a03f1151561465757600080fd5b5050506040518051905090509392505050565b8273ffffffffffffffffffffffffffffffffffffffff16630bd851588260405180807f74726561746d656e742d6170706c69636174696f6e2f73746174757300000000815250601c01828152602001915050604051809103902060016040518363ffffffff167c01000000000000000000000000000000000000000000000000000000000281526004018083600019166000191681526020018260ff16815260200192505050600060405180830381600087803b151561472957600080fd5b6102c65a03f1151561473a57600080fd5b5050508273ffffffffffffffffffffffffffffffffffffffff16633562fd208260405180807f74726561746d656e742d6170706c69636174696f6e2f637265617465642d6f6e8152506020018281526020019150506040518091039020426040518363ffffffff167c010000000000000000000000000000000000000000000000000000000002815260040180836000191660001916815260200182815260200192505050600060405180830381600087803b15156147f857600080fd5b6102c65a03f1151561480957600080fd5b5050508273ffffffffffffffffffffffffffffffffffffffff16633562fd208260405180807f74726561746d656e742d6170706c69636174696f6e2f74726561746d656e742d81526020017f72657175657374000000000000000000000000000000000000000000000000008152506027018281526020019150506040518091039020846040518363ffffffff167c010000000000000000000000000000000000000000000000000000000002815260040180836000191660001916815260200182815260200192505050600060405180830381600087803b15156148ed57600080fd5b6102c65a03f115156148fe57600080fd5b505050614977836040805190810160405280601581526020017f74726561746d656e742d6170706c69636174696f6e00000000000000000000008152506040805190810160405280601c81526020017f74726561746d656e742d6170706c69636174696f6e732d636f756e740000000081525084613fd1565b505050565b8673ffffffffffffffffffffffffffffffffffffffff16633562fd208460405180807f74726561746d656e742d6170706c69636174696f6e2f71756f74650000000000815250601b018281526020019150506040518091039020846040518363ffffffff167c010000000000000000000000000000000000000000000000000000000002815260040180836000191660001916815260200182815260200192505050600060405180830381600087803b1515614a3757600080fd5b6102c65a03f11515614a4857600080fd5b5050508673ffffffffffffffffffffffffffffffffffffffff1663f58660668460405180807f74726561746d656e742d6170706c69636174696f6e2f636f6d6d656e74000000815250601d018281526020019150506040518091039020836040518363ffffffff167c010000000000000000000000000000000000000000000000000000000002815260040180836000191660001916815260200180602001828103825283818151815260200191508051906020019080838360005b83811015614b1f578082015181840152602081019050614b04565b50505050905090810190601f168015614b4c5780820380516001836020036101000a031916815260200191505b509350505050600060405180830381600087803b1515614b6b57600080fd5b6102c65a03f11515614b7c57600080fd5b5050508673ffffffffffffffffffffffffffffffffffffffff16635a2bf25a8460405180807f74726561746d656e742d6170706c69636174696f6e2f64656e74697374000000815250601d018281526020019150506040518091039020886040518363ffffffff167c01000000000000000000000000000000000000000000000000000000000281526004018083600019166000191681526020018273ffffffffffffffffffffffffffffffffffffffff1673ffffffffffffffffffffffffffffffffffffffff16815260200192505050600060405180830381600087803b1515614c6657600080fd5b6102c65a03f11515614c7757600080fd5b5050508673ffffffffffffffffffffffffffffffffffffffff16635a2bf25a8460405180807f74726561746d656e742d6170706c69636174696f6e2f70617469656e74000000815250601d018281526020019150506040518091039020876040518363ffffffff167c01000000000000000000000000000000000000000000000000000000000281526004018083600019166000191681526020018273ffffffffffffffffffffffffffffffffffffffff1673ffffffffffffffffffffffffffffffffffffffff16815260200192505050600060405180830381600087803b1515614d6157600080fd5b6102c65a03f11515614d7257600080fd5b505050614e1387876040805190810160405280601d81526020017f64656e746973742f74726561746d656e742d6170706c69636174696f6e000000815250606060405190810160405280602481526020017f64656e746973742f74726561746d656e742d6170706c69636174696f6e732d6381526020017f6f756e7400000000000000000000000000000000000000000000000000000000815250876142cb565b614eb187866040805190810160405280601d81526020017f70617469656e742f74726561746d656e742d6170706c69636174696f6e000000815250606060405190810160405280602481526020017f70617469656e742f74726561746d656e742d6170706c69636174696f6e732d6381526020017f6f756e7400000000000000000000000000000000000000000000000000000000815250876142cb565b614f768785606060405190810160405280602781526020017f74726561746d656e742d726571756573742f74726561746d656e742d6170706c81526020017f69636174696f6e00000000000000000000000000000000000000000000000000815250606060405190810160405280602e81526020017f74726561746d656e742d726571756573742f74726561746d656e742d6170706c81526020017f69636174696f6e732d636f756e74000000000000000000000000000000000000815250876150c9565b50505050505050565b60008373ffffffffffffffffffffffffffffffffffffffff1663bdc963d883856040518083805190602001908083835b602083101515614fd45780518252602082019150602081019050602083039250614faf565b6001836020036101000a0380198251168184511680821785525050505050509050018273ffffffffffffffffffffffffffffffffffffffff1673ffffffffffffffffffffffffffffffffffffffff166c010000000000000000000000000281526014019250505060405180910390206000604051602001526040518263ffffffff167c0100000000000000000000000000000000000000000000000000000000028152600401808260001916600019168152602001915050602060405180830381600087803b15156150a557600080fd5b6102c65a03f115156150b657600080fd5b5050506040518051905090509392505050565b60006150d686868561455b565b90508573ffffffffffffffffffffffffffffffffffffffff16633562fd208587846040518084805190602001908083835b60208310151561512c5780518252602082019150602081019050602083039250615107565b6001836020036101000a03801982511681845116808217855250505050505090500183815260200182815260200193505050506040518091039020846040518363ffffffff167c010000000000000000000000000000000000000000000000000000000002815260040180836000191660001916815260200182815260200192505050600060405180830381600087803b15156151c857600080fd5b6102c65a03f115156151d957600080fd5b5050508573ffffffffffffffffffffffffffffffffffffffff16633562fd2084876040518083805190602001908083835b60208310151561522f578051825260208201915060208101905060208303925061520a565b6001836020036101000a038019825116818451168082178552505050505050905001828152602001925050506040518091039020600184016040518363ffffffff167c010000000000000000000000000000000000000000000000000000000002815260040180836000191660001916815260200182815260200192505050600060405180830381600087803b15156152c757600080fd5b6102c65a03f115156152d857600080fd5b5050505050505050505600a165627a7a723058206fab6545241df9f8309a7c8ad5ca5d92e816f1c848bf4ffcabcdfa9dbb25dfc20029",
  "source": "pragma solidity 0.4.18;\nimport \"./Restrictor.sol\";\nimport \"../lib/odll/userManager.sol\";\n\ncontract TreatmentApplicationWriter is Restrictor {\n\n  function TreatmentApplicationWriter(address _dbAddress) public {\n    require(_dbAddress != 0x0);\n    dbAddress = _dbAddress;\n  }\n\n  // Treatment Application\n  function applyToTreat (\n    address patientId,\n    uint treatmentRequestId,\n    uint quote,\n    string comment\n  )\n    external\n  {\n    userManager.applyToTreat(dbAddress, msg.sender, patientId, treatmentRequestId, quote, comment);\n  }\n\n  function cancelTreatmentApplication (\n    address patientId,\n    uint treatmentApplicationId\n  )\n    external\n  {\n    userManager.cancelTreatmentApplication(dbAddress, msg.sender, patientId, treatmentApplicationId);\n  }\n\n  function acceptTreatmentApplication (\n    address dentistId,\n    uint treatmentApplicationId,\n    uint quote\n  )\n    payable\n    external\n  {\n    if (msg.value < quote) {\n      msg.sender.transfer(msg.value);\n      return;\n    }\n\n    userManager.acceptTreatmentApplication(dbAddress, dentistId, msg.sender, treatmentApplicationId, msg.value, quote);\n  }\n\n  function cancelTreatment (\n    address dentistId,\n    uint treatmentId\n  )\n    external\n  {\n    userManager.cancelTreatment(dbAddress, dentistId, msg.sender, treatmentId);\n  }\n\n  function markTreatmentDone (\n    address dentistId,\n    uint treatmentId\n  )\n    external\n  {\n    userManager.markTreatmentDone(dbAddress, dentistId, msg.sender, treatmentId);\n  }\n}\n",
  "sourcePath": "/Users/danielokwufulueze/dev/vue/apps/oraldatalink/contracts/odll/TreatmentApplicationWriter.sol",
  "compiler": {
    "name": "solc",
    "version": "0.4.18+commit.9cf6e910.Emscripten.clang"
  },
  "schemaVersion": "1.0.1",
  "updatedAt": "2017-11-18T09:28:59.179Z"
}