{
  "contractName": "UserReader",
  "abi": [
    {
      "constant": false,
      "inputs": [
        {
          "name": "userId",
          "type": "address"
        },
        {
          "name": "paymentId",
          "type": "uint256"
        }
      ],
      "name": "lockPayment",
      "outputs": [],
      "payable": false,
      "stateMutability": "nonpayable",
      "type": "function"
    },
    {
      "constant": true,
      "inputs": [
        {
          "name": "userId",
          "type": "address"
        },
        {
          "name": "offset",
          "type": "uint256"
        },
        {
          "name": "limit",
          "type": "uint256"
        },
        {
          "name": "seed",
          "type": "uint256"
        }
      ],
      "name": "fetchUserDentists",
      "outputs": [
        {
          "name": "",
          "type": "uint256"
        },
        {
          "name": "",
          "type": "address[]"
        }
      ],
      "payable": false,
      "stateMutability": "view",
      "type": "function"
    },
    {
      "constant": true,
      "inputs": [],
      "name": "smartContractStatus",
      "outputs": [
        {
          "name": "",
          "type": "uint8"
        }
      ],
      "payable": false,
      "stateMutability": "view",
      "type": "function"
    },
    {
      "constant": true,
      "inputs": [],
      "name": "owner",
      "outputs": [
        {
          "name": "",
          "type": "address"
        }
      ],
      "payable": false,
      "stateMutability": "view",
      "type": "function"
    },
    {
      "constant": true,
      "inputs": [],
      "name": "dbAddress",
      "outputs": [
        {
          "name": "",
          "type": "address"
        }
      ],
      "payable": false,
      "stateMutability": "view",
      "type": "function"
    },
    {
      "constant": true,
      "inputs": [
        {
          "name": "offset",
          "type": "uint256"
        },
        {
          "name": "limit",
          "type": "uint256"
        },
        {
          "name": "seed",
          "type": "uint256"
        }
      ],
      "name": "fetchDentists",
      "outputs": [
        {
          "name": "",
          "type": "uint256"
        },
        {
          "name": "",
          "type": "address[]"
        }
      ],
      "payable": false,
      "stateMutability": "view",
      "type": "function"
    },
    {
      "constant": true,
      "inputs": [
        {
          "name": "offset",
          "type": "uint256"
        },
        {
          "name": "limit",
          "type": "uint256"
        },
        {
          "name": "seed",
          "type": "uint256"
        }
      ],
      "name": "fetchManagers",
      "outputs": [
        {
          "name": "",
          "type": "uint256"
        },
        {
          "name": "",
          "type": "address[]"
        }
      ],
      "payable": false,
      "stateMutability": "view",
      "type": "function"
    },
    {
      "constant": true,
      "inputs": [
        {
          "name": "stateId",
          "type": "uint256"
        },
        {
          "name": "serviceTypeId",
          "type": "uint256"
        },
        {
          "name": "serviceId",
          "type": "uint256"
        },
        {
          "name": "budget",
          "type": "uint256[]"
        },
        {
          "name": "offset",
          "type": "uint256"
        },
        {
          "name": "limit",
          "type": "uint256"
        },
        {
          "name": "seed",
          "type": "uint256"
        }
      ],
      "name": "findDentists",
      "outputs": [
        {
          "name": "",
          "type": "uint256"
        },
        {
          "name": "",
          "type": "address[]"
        }
      ],
      "payable": false,
      "stateMutability": "view",
      "type": "function"
    },
    {
      "constant": false,
      "inputs": [
        {
          "name": "newOwner",
          "type": "address"
        }
      ],
      "name": "transferOwnership",
      "outputs": [],
      "payable": false,
      "stateMutability": "nonpayable",
      "type": "function"
    },
    {
      "inputs": [
        {
          "name": "_dbAddress",
          "type": "address"
        }
      ],
      "payable": false,
      "stateMutability": "nonpayable",
      "type": "constructor"
    },
    {
      "anonymous": false,
      "inputs": [
        {
          "indexed": false,
          "name": "paymentId",
          "type": "uint256"
        }
      ],
      "name": "PaymentLocked",
      "type": "event"
    },
    {
      "anonymous": false,
      "inputs": [
        {
          "indexed": false,
          "name": "status",
          "type": "uint8"
        }
      ],
      "name": "OnSmartContractStatusSet",
      "type": "event"
    },
    {
      "anonymous": false,
      "inputs": [
        {
          "indexed": true,
          "name": "previousOwner",
          "type": "address"
        },
        {
          "indexed": true,
          "name": "newOwner",
          "type": "address"
        }
      ],
      "name": "OwnershipTransferred",
      "type": "event"
    }
  ],
  "bytecode": "0x6060604052341561000f57600080fd5b604051602080612acd83398101604052808051906020019091905050336000806101000a81548173ffffffffffffffffffffffffffffffffffffffff021916908373ffffffffffffffffffffffffffffffffffffffff16021790555060008173ffffffffffffffffffffffffffffffffffffffff161415151561009157600080fd5b80600160006101000a81548173ffffffffffffffffffffffffffffffffffffffff021916908373ffffffffffffffffffffffffffffffffffffffff160217905550506129eb806100e26000396000f300606060405260043610610099576000357c0100000000000000000000000000000000000000000000000000000000900463ffffffff1680633f4b14701461009e5780634b91e97b146100e05780634c8ddddc146101905780638da5cb5b146101bf57806391e06b6d1461021457806396f7a44514610269578063be31885b146102fa578063eb6ce0331461038b578063f2fde38b1461044b575b600080fd5b34156100a957600080fd5b6100de600480803573ffffffffffffffffffffffffffffffffffffffff16906020019091908035906020019091905050610484565b005b34156100eb57600080fd5b610132600480803573ffffffffffffffffffffffffffffffffffffffff169060200190919080359060200190919080359060200190919080359060200190919050506106db565b6040518083815260200180602001828103825283818151815260200191508051906020019060200280838360005b8381101561017b578082015181840152602081019050610160565b50505050905001935050505060405180910390f35b341561019b57600080fd5b6101a3610721565b604051808260ff1660ff16815260200191505060405180910390f35b34156101ca57600080fd5b6101d2610734565b604051808273ffffffffffffffffffffffffffffffffffffffff1673ffffffffffffffffffffffffffffffffffffffff16815260200191505060405180910390f35b341561021f57600080fd5b610227610759565b604051808273ffffffffffffffffffffffffffffffffffffffff1673ffffffffffffffffffffffffffffffffffffffff16815260200191505060405180910390f35b341561027457600080fd5b61029c600480803590602001909190803590602001909190803590602001909190505061077f565b6040518083815260200180602001828103825283818151815260200191508051906020019060200280838360005b838110156102e55780820151818401526020810190506102ca565b50505050905001935050505060405180910390f35b341561030557600080fd5b61032d60048080359060200190919080359060200190919080359060200190919050506107c3565b6040518083815260200180602001828103825283818151815260200191508051906020019060200280838360005b8381101561037657808201518184015260208101905061035b565b50505050905001935050505060405180910390f35b341561039657600080fd5b6103ed60048080359060200190919080359060200190919080359060200190919080359060200190820180359060200191909192908035906020019091908035906020019091908035906020019091905050610807565b6040518083815260200180602001828103825283818151815260200191508051906020019060200280838360005b8381101561043657808201518184015260208101905061041b565b50505050905001935050505060405180910390f35b341561045657600080fd5b610482600480803573ffffffffffffffffffffffffffffffffffffffff16906020019091905050610883565b005b8161048e816109d8565b151561049957600080fd5b8160018060ff16600160009054906101000a900473ffffffffffffffffffffffffffffffffffffffff1673ffffffffffffffffffffffffffffffffffffffff16637a0e03ec8460405180807f7061796d656e742f737461746500000000000000000000000000000000000000815250600d0182815260200191505060405180910390206000604051602001526040518263ffffffff167c0100000000000000000000000000000000000000000000000000000000028152600401808260001916600019168152602001915050602060405180830381600087803b151561057e57600080fd5b6102c65a03f1151561058f57600080fd5b5050506040518051905060ff161415156105a857600080fd5b600160009054906101000a900473ffffffffffffffffffffffffffffffffffffffff1673ffffffffffffffffffffffffffffffffffffffff16630bd851588560405180807f7061796d656e742f737461746500000000000000000000000000000000000000815250600d01828152602001915050604051809103902060026040518363ffffffff167c01000000000000000000000000000000000000000000000000000000000281526004018083600019166000191681526020018260ff16815260200192505050600060405180830381600087803b151561068957600080fd5b6102c65a03f1151561069a57600080fd5b5050507fa5f78a79f83dfad686a63ca003a42f6c262d9fdc43a6742c56f5c27c11b9a1e2846040518082815260200191505060405180910390a15050505050565b60006106e56129ab565b610714600160009054906101000a900473ffffffffffffffffffffffffffffffffffffffff16878787876109ff565b9150915094509492505050565b600160149054906101000a900460ff1681565b6000809054906101000a900473ffffffffffffffffffffffffffffffffffffffff1681565b600160009054906101000a900473ffffffffffffffffffffffffffffffffffffffff1681565b60006107896129ab565b6107b7600160009054906101000a900473ffffffffffffffffffffffffffffffffffffffff16868686610ad5565b91509150935093915050565b60006107cd6129ab565b6107fb600160009054906101000a900473ffffffffffffffffffffffffffffffffffffffff16868686610b07565b91509150935093915050565b60006108116129ab565b610872600160009054906101000a900473ffffffffffffffffffffffffffffffffffffffff168b8b8b8b8b808060200260200160405190810160405280939291908181526020018383602002808284378201915050505050508a8a8a610b39565b915091509850989650505050505050565b6000809054906101000a900473ffffffffffffffffffffffffffffffffffffffff1673ffffffffffffffffffffffffffffffffffffffff163373ffffffffffffffffffffffffffffffffffffffff161415156108de57600080fd5b600073ffffffffffffffffffffffffffffffffffffffff168173ffffffffffffffffffffffffffffffffffffffff161415151561091a57600080fd5b8073ffffffffffffffffffffffffffffffffffffffff166000809054906101000a900473ffffffffffffffffffffffffffffffffffffffff1673ffffffffffffffffffffffffffffffffffffffff167f8be0079c531659141344cd1fd0a4f28419497f9722a3daafe3b4186f6b6457e060405160405180910390a3806000806101000a81548173ffffffffffffffffffffffffffffffffffffffff021916908373ffffffffffffffffffffffffffffffffffffffff16021790555050565b60006109e5826001610b9f565b80156109f857506109f7826001610bba565b5b9050919050565b6000610a096129ab565b610ab587876040805190810160405280600f81526020017f70617469656e742f64656e7469737400000000000000000000000000000000008152506040805190810160405280601681526020017f70617469656e742f64656e74697374732d636f756e74000000000000000000008152506040805190810160405280601381526020017f70617469656e742f64656e746973742d6b657900000000000000000000000000815250610bd5565b9050610ac381868686610f72565b80925081935050509550959350505050565b6000610adf6129ab565b610ae886610fe2565b9050610af681868686610f72565b809250819350505094509492505050565b6000610b116129ab565b610b1a86611066565b9050610b2881868686610f72565b809250819350505094509492505050565b6000610b436129ab565b610b4b6129ab565b610b536129ab565b610b5f8c8b8b8b6110ea565b9150610b6d8c8b8b8e611228565b9050610b7a8c8383611321565b9250610b8883888888610f72565b809450819550505050509850989650505050505050565b6000610baa83611438565b60ff168260ff1614905092915050565b6000610bc583611575565b60ff168260ff1614905092915050565b610bdd6129ab565b600080600080610bee8a8a896116b2565b935083604051805910610bfe5750595b9080825280602002602001820160405250945060009250600091505b83821015610f59578973ffffffffffffffffffffffffffffffffffffffff16634c77e5ba878b856040518084805190602001908083835b602083101515610c765780518252602082019150602081019050602083039250610c51565b6001836020036101000a0380198251168184511680821785525050505050509050018373ffffffffffffffffffffffffffffffffffffffff1673ffffffffffffffffffffffffffffffffffffffff166c01000000000000000000000000028152601401828152602001935050505060405180910390206000604051602001526040518263ffffffff167c0100000000000000000000000000000000000000000000000000000000028152600401808260001916600019168152602001915050602060405180830381600087803b1515610d4e57600080fd5b6102c65a03f11515610d5f57600080fd5b50505060405180519050905060018a73ffffffffffffffffffffffffffffffffffffffff16637a0e03ec8a8c856040518084805190602001908083835b602083101515610dc15780518252602082019150602081019050602083039250610d9c565b6001836020036101000a0380198251168184511680821785525050505050509050018373ffffffffffffffffffffffffffffffffffffffff1673ffffffffffffffffffffffffffffffffffffffff166c010000000000000000000000000281526014018273ffffffffffffffffffffffffffffffffffffffff1673ffffffffffffffffffffffffffffffffffffffff166c01000000000000000000000000028152601401935050505060405180910390206000604051602001526040518263ffffffff167c0100000000000000000000000000000000000000000000000000000000028152600401808260001916600019168152602001915050602060405180830381600087803b1515610ed457600080fd5b6102c65a03f11515610ee557600080fd5b5050506040518051905060ff161415610f4c57808584815181101515610f0757fe5b9060200190602002019073ffffffffffffffffffffffffffffffffffffffff16908173ffffffffffffffffffffffffffffffffffffffff168152505082806001019350505b8180600101925050610c1a565b610f6383866117fc565b94505050505095945050505050565b6000610f7c6129ab565b85519150600086511115610fd8578551851115610fa85781610f9f6000886117fc565b91509150610fd9565b85518486011115610fba578486510393505b610fd5868751878601811515610fcc57fe5b068660016118bf565b90505b5b94509492505050565b610fea6129ab565b61105f826040805190810160405280600c81526020017f64656e74697374732f69647300000000000000000000000000000000000000008152506040805190810160405280600e81526020017f64656e74697374732f636f756e74000000000000000000000000000000000000815250611a66565b9050919050565b61106e6129ab565b6110e3826040805190810160405280600c81526020017f6d616e61676572732f69647300000000000000000000000000000000000000008152506040805190810160405280600e81526020017f6d616e61676572732f636f756e74000000000000000000000000000000000000815250611a66565b9050919050565b6110f26129ab565b6110fa6129ab565b60008060008061110b8a8a8a611d04565b9450845160405180591061111c5750595b9080825280602002602001820160405250955060009350600092505b845183101561120f57848381518110151561114f57fe5b9060200190602002015191506111678a8a8a85611e8c565b905086600081518110151561117857fe5b9060200190602002015181101580156111a9575086600181518110151561119b57fe5b906020019060200201518111155b15611202578186858151811015156111bd57fe5b9060200190602002019073ffffffffffffffffffffffffffffffffffffffff16908173ffffffffffffffffffffffffffffffffffffffff168152505083806001019450505b8280600101935050611138565b61121984876117fc565b95505050505050949350505050565b6112306129ab565b6112386129ab565b6000806000611248898989611d04565b935083516040518059106112595750595b9080825280602002602001820160405250945060009250600091505b835182101561130957838281518110151561128c57fe5b9060200190602002015190506112a38982886120ef565b156112fc578085848151811015156112b757fe5b9060200190602002019073ffffffffffffffffffffffffffffffffffffffff16908173ffffffffffffffffffffffffffffffffffffffff168152505082806001019350505b8180600101925050611275565b61131383866117fc565b945050505050949350505050565b6113296129ab565b60008473ffffffffffffffffffffffffffffffffffffffff1663bdc963d860405180807f64656e74697374732f636f756e74000000000000000000000000000000000000815250600e01905060405180910390206000604051602001526040518263ffffffff167c0100000000000000000000000000000000000000000000000000000000028152600401808260001916600019168152602001915050602060405180830381600087803b15156113df57600080fd5b6102c65a03f115156113f057600080fd5b505050604051805190509050600081141561140d57819150611430565b61141684612220565b935061142183612220565b925061142d8484612389565b91505b509392505050565b6000600160009054906101000a900473ffffffffffffffffffffffffffffffffffffffff1673ffffffffffffffffffffffffffffffffffffffff16637a0e03ec8360405180807f757365722f7479706500000000000000000000000000000000000000000000008152506009018273ffffffffffffffffffffffffffffffffffffffff1673ffffffffffffffffffffffffffffffffffffffff166c0100000000000000000000000002815260140191505060405180910390206000604051602001526040518263ffffffff167c0100000000000000000000000000000000000000000000000000000000028152600401808260001916600019168152602001915050602060405180830381600087803b151561155357600080fd5b6102c65a03f1151561156457600080fd5b505050604051805190509050919050565b6000600160009054906101000a900473ffffffffffffffffffffffffffffffffffffffff1673ffffffffffffffffffffffffffffffffffffffff16637a0e03ec8360405180807f757365722f737461747573000000000000000000000000000000000000000000815250600b018273ffffffffffffffffffffffffffffffffffffffff1673ffffffffffffffffffffffffffffffffffffffff166c0100000000000000000000000002815260140191505060405180910390206000604051602001526040518263ffffffff167c0100000000000000000000000000000000000000000000000000000000028152600401808260001916600019168152602001915050602060405180830381600087803b151561169057600080fd5b6102c65a03f115156116a157600080fd5b505050604051805190509050919050565b60008373ffffffffffffffffffffffffffffffffffffffff1663bdc963d883856040518083805190602001908083835b60208310151561170757805182526020820191506020810190506020830392506116e2565b6001836020036101000a0380198251168184511680821785525050505050509050018273ffffffffffffffffffffffffffffffffffffffff1673ffffffffffffffffffffffffffffffffffffffff166c010000000000000000000000000281526014019250505060405180910390206000604051602001526040518263ffffffff167c0100000000000000000000000000000000000000000000000000000000028152600401808260001916600019168152602001915050602060405180830381600087803b15156117d857600080fd5b6102c65a03f115156117e957600080fd5b5050506040518051905090509392505050565b6118046129ab565b60008251841115611817578291506118b8565b836040518059106118255750595b90808252806020026020018201604052509150600090505b838110156118b457828181518110151561185357fe5b90602001906020020151828281518110151561186b57fe5b9060200190602002019073ffffffffffffffffffffffffffffffffffffffff16908173ffffffffffffffffffffffffffffffffffffffff1681525050808060010191505061183d565b8191505b5092915050565b6118c76129ab565b600080600080600093508851925082881015806118e45750600087145b156118f157849450611a5a565b866040518059106118ff5750595b908082528060200260200182016040525094508791505b8688018210156119a4578183141561192d576119a4565b888281518110151561193b57fe5b90602001906020020151858581518110151561195357fe5b9060200190602002019073ffffffffffffffffffffffffffffffffffffffff16908173ffffffffffffffffffffffffffffffffffffffff168152505083806001019450508180600101925050611916565b8580156119b057508684105b15611a4d578387039050600091505b8082111515611a4c57838714156119d557611a4c565b88828151811015156119e357fe5b9060200190602002015185858151811015156119fb57fe5b9060200190602002019073ffffffffffffffffffffffffffffffffffffffff16908173ffffffffffffffffffffffffffffffffffffffff1681525050838060010194505081806001019250506119bf565b5b611a5784866117fc565b94505b50505050949350505050565b611a6e6129ab565b6000808573ffffffffffffffffffffffffffffffffffffffff1663bdc963d8856040518082805190602001908083835b602083101515611ac35780518252602082019150602081019050602083039250611a9e565b6001836020036101000a03801982511681845116808217855250505050505090500191505060405180910390206000604051602001526040518263ffffffff167c0100000000000000000000000000000000000000000000000000000000028152600401808260001916600019168152602001915050602060405180830381600087803b1515611b5257600080fd5b6102c65a03f11515611b6357600080fd5b50505060405180519050915081604051805910611b7d5750595b90808252806020026020018201604052509250600090505b81811015611cf8578573ffffffffffffffffffffffffffffffffffffffff16634c77e5ba86836040518083805190602001908083835b602083101515611bf05780518252602082019150602081019050602083039250611bcb565b6001836020036101000a0380198251168184511680821785525050505050509050018281526020019250505060405180910390206000604051602001526040518263ffffffff167c0100000000000000000000000000000000000000000000000000000000028152600401808260001916600019168152602001915050602060405180830381600087803b1515611c8657600080fd5b6102c65a03f11515611c9757600080fd5b505050604051805190508382815181101515611caf57fe5b9060200190602002019073ffffffffffffffffffffffffffffffffffffffff16908173ffffffffffffffffffffffffffffffffffffffff16815250508080600101915050611b95565b82925050509392505050565b611d0c6129ab565b6001831415611dc857611dc184836040805190810160405280601481526020017f7363616e2d736572766963652f64656e746973740000000000000000000000008152506040805190810160405280601b81526020017f7363616e2d736572766963652f64656e74697374732d636f756e7400000000008152506040805190810160405280601881526020017f7363616e2d736572766963652f64656e746973742d6b65790000000000000000815250612575565b9050611e85565b6002831415611e8457611e7d84836040805190810160405280601981526020017f74726561746d656e742d736572766963652f64656e74697374000000000000008152506040805190810160405280602081526020017f74726561746d656e742d736572766963652f64656e74697374732d636f756e748152506040805190810160405280601d81526020017f74726561746d656e742d736572766963652f64656e746973742d6b6579000000815250612575565b9050611e85565b5b9392505050565b60006001841415611fb8578473ffffffffffffffffffffffffffffffffffffffff1663bdc963d8838560405180807f64656e746973742f7363616e2d736572766963652f66656500000000000000008152506018018373ffffffffffffffffffffffffffffffffffffffff1673ffffffffffffffffffffffffffffffffffffffff166c010000000000000000000000000281526014018281526020019250505060405180910390206000604051602001526040518263ffffffff167c0100000000000000000000000000000000000000000000000000000000028152600401808260001916600019168152602001915050602060405180830381600087803b1515611f9657600080fd5b6102c65a03f11515611fa757600080fd5b5050506040518051905090506120e7565b60028414156120e2578473ffffffffffffffffffffffffffffffffffffffff1663bdc963d8838560405180807f64656e746973742f74726561746d656e742d736572766963652f666565000000815250601d018373ffffffffffffffffffffffffffffffffffffffff1673ffffffffffffffffffffffffffffffffffffffff166c010000000000000000000000000281526014018281526020019250505060405180910390206000604051602001526040518263ffffffff167c0100000000000000000000000000000000000000000000000000000000028152600401808260001916600019168152602001915050602060405180830381600087803b15156120c057600080fd5b6102c65a03f115156120d157600080fd5b5050506040518051905090506120e7565b600090505b949350505050565b6000808214156121025760019050612219565b8373ffffffffffffffffffffffffffffffffffffffff1663bdc963d88460405180807f757365722f737461746500000000000000000000000000000000000000000000815250600a018273ffffffffffffffffffffffffffffffffffffffff1673ffffffffffffffffffffffffffffffffffffffff166c0100000000000000000000000002815260140191505060405180910390206000604051602001526040518263ffffffff167c0100000000000000000000000000000000000000000000000000000000028152600401808260001916600019168152602001915050602060405180830381600087803b15156121f957600080fd5b6102c65a03f1151561220a57600080fd5b50505060405180519050821490505b9392505050565b6122286129ab565b6000806000600192505b845183101561237e57848381518110151561224957fe5b9060200190602002015191508290505b6000811180156122ae57508173ffffffffffffffffffffffffffffffffffffffff16856001830381518110151561228c57fe5b9060200190602002015173ffffffffffffffffffffffffffffffffffffffff16115b156123265784600182038151811015156122c457fe5b9060200190602002015185828151811015156122dc57fe5b9060200190602002019073ffffffffffffffffffffffffffffffffffffffff16908173ffffffffffffffffffffffffffffffffffffffff1681525050808060019003915050612259565b81858281518110151561233557fe5b9060200190602002019073ffffffffffffffffffffffffffffffffffffffff16908173ffffffffffffffffffffffffffffffffffffffff16815250508280600101935050612232565b849350505050919050565b6123916129ab565b6000806000806000875194508651935060008514806123b05750600084145b156123bd5785955061256a565b846040518059106123cb5750595b908082528060200260200182016040525095506000925060009150600090505b84831080156123f957508382105b1561255d57868281518110151561240c57fe5b9060200190602002015173ffffffffffffffffffffffffffffffffffffffff16888481518110151561243a57fe5b9060200190602002015173ffffffffffffffffffffffffffffffffffffffff16111561246d578180600101925050612558565b868281518110151561247b57fe5b9060200190602002015173ffffffffffffffffffffffffffffffffffffffff1688848151811015156124a957fe5b9060200190602002015173ffffffffffffffffffffffffffffffffffffffff1610156124dc578280600101935050612557565b87838151811015156124ea57fe5b90602001906020020151868281518110151561250257fe5b9060200190602002019073ffffffffffffffffffffffffffffffffffffffff16908173ffffffffffffffffffffffffffffffffffffffff16815250508280600101935050818060010192505080806001019150505b5b6123eb565b61256781876117fc565b95505b505050505092915050565b61257d6129ab565b60008060008061258e8a8a8961289c565b93508360405180591061259e5750595b9080825280602002602001820160405250945060009250600091505b83821015612883578973ffffffffffffffffffffffffffffffffffffffff16634c77e5ba878b856040518084805190602001908083835b60208310151561261657805182526020820191506020810190506020830392506125f1565b6001836020036101000a038019825116818451168082178552505050505050905001838152602001828152602001935050505060405180910390206000604051602001526040518263ffffffff167c0100000000000000000000000000000000000000000000000000000000028152600401808260001916600019168152602001915050602060405180830381600087803b15156126b357600080fd5b6102c65a03f115156126c457600080fd5b50505060405180519050905060018a73ffffffffffffffffffffffffffffffffffffffff16637a0e03ec8a8c856040518084805190602001908083835b6020831015156127265780518252602082019150602081019050602083039250612701565b6001836020036101000a0380198251168184511680821785525050505050509050018381526020018273ffffffffffffffffffffffffffffffffffffffff1673ffffffffffffffffffffffffffffffffffffffff166c01000000000000000000000000028152601401935050505060405180910390206000604051602001526040518263ffffffff167c0100000000000000000000000000000000000000000000000000000000028152600401808260001916600019168152602001915050602060405180830381600087803b15156127fe57600080fd5b6102c65a03f1151561280f57600080fd5b5050506040518051905060ff1614156128765780858481518110151561283157fe5b9060200190602002019073ffffffffffffffffffffffffffffffffffffffff16908173ffffffffffffffffffffffffffffffffffffffff168152505082806001019350505b81806001019250506125ba565b61288d83866117fc565b94505050505095945050505050565b60008373ffffffffffffffffffffffffffffffffffffffff1663bdc963d883856040518083805190602001908083835b6020831015156128f157805182526020820191506020810190506020830392506128cc565b6001836020036101000a0380198251168184511680821785525050505050509050018281526020019250505060405180910390206000604051602001526040518263ffffffff167c0100000000000000000000000000000000000000000000000000000000028152600401808260001916600019168152602001915050602060405180830381600087803b151561298757600080fd5b6102c65a03f1151561299857600080fd5b5050506040518051905090509392505050565b6020604051908101604052806000815250905600a165627a7a7230582008049118c751264be7ba1904348a1d39f7d12728687b3e50320d7c45caee33b00029",
  "source": "pragma solidity 0.4.18;\n\nimport \"./Restrictor.sol\";\nimport \"../lib/odll/userManager.sol\";\n\ncontract UserReader is Restrictor {\n\n  function UserReader (address _dbAddress) public {\n    require(_dbAddress != 0x0);\n    dbAddress = _dbAddress;\n  }\n\n  function fetchUserDentists (\n    address userId,\n    uint offset, // starting from offset: 0-based\n    uint limit, // not more than limit\n    uint seed // seed value to give the illusion of randomisation\n  )\n    external\n    view\n    returns (\n      uint,\n      address[]\n    )\n  {\n    return userManager.fetchDentistsForUser(dbAddress, userId, offset, limit, seed);\n  }\n\n  function findDentists (\n    uint stateId,\n    uint serviceTypeId,\n    uint serviceId,\n    uint[] budget, // within budget range\n    uint offset, // starting from offset: 0-based\n    uint limit, // not more than limit\n    uint seed // seed value to give the illusion of randomisation\n    )\n      external\n      view\n      returns (\n        uint,\n        address[]\n      )\n  {\n    return userManager.findDentistsIds(dbAddress, stateId, serviceTypeId, serviceId, budget, offset, limit, seed);\n  }\n\n  function fetchDentists (\n    uint offset, // starting from offset: 0-based\n    uint limit, // not more than limit\n    uint seed // seed value to give the illusion of randomisation\n  )\n    external\n    view\n    returns (\n      uint,\n      address[]\n    )\n  {\n    return userManager.fetchDentistsIds(dbAddress, offset, limit, seed);\n  }\n\n  function fetchManagers (\n    uint offset, // starting from offset: 0-based\n    uint limit, // not more than limit\n    uint seed // seed value to give the illusion of randomisation\n  )\n    external\n    view\n    returns (\n      uint,\n      address[]\n    )\n  {\n    return userManager.fetchManagersIds(dbAddress, offset, limit, seed);\n  }\n}\n",
  "sourcePath": "/Users/danielokwufulueze/dev/vue/apps/oraldatalink/contracts/odll/UserReader.sol",
  "compiler": {
    "name": "solc",
    "version": "0.4.18+commit.9cf6e910.Emscripten.clang"
  },
  "schemaVersion": "1.0.1",
  "updatedAt": "2018-01-13T20:39:45.786Z"
}