{
  "contractName": "UserWriter",
  "abi": [
    {
      "constant": false,
      "inputs": [
        {
          "name": "dentistId",
          "type": "address"
        },
        {
          "name": "rating",
          "type": "uint8"
        }
      ],
      "name": "writeDentistRating",
      "outputs": [],
      "payable": false,
      "stateMutability": "nonpayable",
      "type": "function"
    },
    {
      "constant": false,
      "inputs": [
        {
          "name": "userId",
          "type": "address"
        },
        {
          "name": "odllDentistValue",
          "type": "bool"
        }
      ],
      "name": "setODLLDentist",
      "outputs": [],
      "payable": false,
      "stateMutability": "nonpayable",
      "type": "function"
    },
    {
      "constant": false,
      "inputs": [
        {
          "name": "userId",
          "type": "address"
        }
      ],
      "name": "unblockUser",
      "outputs": [],
      "payable": false,
      "stateMutability": "nonpayable",
      "type": "function"
    },
    {
      "constant": false,
      "inputs": [
        {
          "name": "userId",
          "type": "address"
        }
      ],
      "name": "blockUser",
      "outputs": [],
      "payable": false,
      "stateMutability": "nonpayable",
      "type": "function"
    },
    {
      "constant": false,
      "inputs": [
        {
          "name": "userId",
          "type": "address"
        },
        {
          "name": "paymentId",
          "type": "uint256"
        }
      ],
      "name": "lockPayment",
      "outputs": [],
      "payable": false,
      "stateMutability": "nonpayable",
      "type": "function"
    },
    {
      "constant": true,
      "inputs": [],
      "name": "smartContractStatus",
      "outputs": [
        {
          "name": "",
          "type": "uint8"
        }
      ],
      "payable": false,
      "stateMutability": "view",
      "type": "function"
    },
    {
      "constant": false,
      "inputs": [
        {
          "name": "userType",
          "type": "uint8"
        }
      ],
      "name": "determineEvent",
      "outputs": [],
      "payable": false,
      "stateMutability": "nonpayable",
      "type": "function"
    },
    {
      "constant": false,
      "inputs": [
        {
          "name": "userType",
          "type": "uint8"
        },
        {
          "name": "name",
          "type": "string"
        },
        {
          "name": "email",
          "type": "string"
        },
        {
          "name": "gravatar",
          "type": "bytes32"
        },
        {
          "name": "street",
          "type": "bytes32"
        },
        {
          "name": "city",
          "type": "bytes32"
        },
        {
          "name": "stateId",
          "type": "uint256"
        },
        {
          "name": "zipCode",
          "type": "bytes32"
        },
        {
          "name": "countryId",
          "type": "uint256"
        },
        {
          "name": "phoneNumber",
          "type": "bytes32"
        },
        {
          "name": "birthday",
          "type": "bytes32"
        },
        {
          "name": "gender",
          "type": "uint8"
        }
      ],
      "name": "writeUser",
      "outputs": [],
      "payable": false,
      "stateMutability": "nonpayable",
      "type": "function"
    },
    {
      "constant": true,
      "inputs": [],
      "name": "owner",
      "outputs": [
        {
          "name": "",
          "type": "address"
        }
      ],
      "payable": false,
      "stateMutability": "view",
      "type": "function"
    },
    {
      "constant": true,
      "inputs": [],
      "name": "dbAddress",
      "outputs": [
        {
          "name": "",
          "type": "address"
        }
      ],
      "payable": false,
      "stateMutability": "view",
      "type": "function"
    },
    {
      "constant": false,
      "inputs": [
        {
          "name": "userIds",
          "type": "address[]"
        },
        {
          "name": "odllDentistValue",
          "type": "bool"
        }
      ],
      "name": "setODLLDentists",
      "outputs": [],
      "payable": false,
      "stateMutability": "nonpayable",
      "type": "function"
    },
    {
      "constant": false,
      "inputs": [
        {
          "name": "phoneNumber",
          "type": "bytes32"
        },
        {
          "name": "birthday",
          "type": "bytes32"
        },
        {
          "name": "gender",
          "type": "uint8"
        }
      ],
      "name": "writeUserOptionalValues",
      "outputs": [],
      "payable": false,
      "stateMutability": "nonpayable",
      "type": "function"
    },
    {
      "constant": false,
      "inputs": [
        {
          "name": "officialId",
          "type": "address"
        },
        {
          "name": "userType",
          "type": "uint8"
        }
      ],
      "name": "addOfficialToODLL",
      "outputs": [],
      "payable": false,
      "stateMutability": "nonpayable",
      "type": "function"
    },
    {
      "constant": false,
      "inputs": [
        {
          "name": "userType",
          "type": "uint8"
        },
        {
          "name": "name",
          "type": "string"
        },
        {
          "name": "email",
          "type": "string"
        },
        {
          "name": "gravatar",
          "type": "bytes32"
        }
      ],
      "name": "writeUserIdentity",
      "outputs": [],
      "payable": false,
      "stateMutability": "nonpayable",
      "type": "function"
    },
    {
      "constant": false,
      "inputs": [
        {
          "name": "street",
          "type": "bytes32"
        },
        {
          "name": "city",
          "type": "bytes32"
        },
        {
          "name": "stateId",
          "type": "uint256"
        },
        {
          "name": "zipCode",
          "type": "bytes32"
        },
        {
          "name": "countryId",
          "type": "uint256"
        }
      ],
      "name": "writeUserLocation",
      "outputs": [],
      "payable": false,
      "stateMutability": "nonpayable",
      "type": "function"
    },
    {
      "constant": false,
      "inputs": [
        {
          "name": "companyName",
          "type": "string"
        }
      ],
      "name": "setDentistCompany",
      "outputs": [],
      "payable": false,
      "stateMutability": "nonpayable",
      "type": "function"
    },
    {
      "constant": false,
      "inputs": [
        {
          "name": "newOwner",
          "type": "address"
        }
      ],
      "name": "transferOwnership",
      "outputs": [],
      "payable": false,
      "stateMutability": "nonpayable",
      "type": "function"
    },
    {
      "inputs": [
        {
          "name": "_dbAddress",
          "type": "address"
        }
      ],
      "payable": false,
      "stateMutability": "nonpayable",
      "type": "constructor"
    },
    {
      "anonymous": false,
      "inputs": [
        {
          "indexed": false,
          "name": "userId",
          "type": "address"
        }
      ],
      "name": "OnAdminAdded",
      "type": "event"
    },
    {
      "anonymous": false,
      "inputs": [
        {
          "indexed": false,
          "name": "userId",
          "type": "address"
        }
      ],
      "name": "OnDentistCompanySet",
      "type": "event"
    },
    {
      "anonymous": false,
      "inputs": [
        {
          "indexed": false,
          "name": "userId",
          "type": "address"
        }
      ],
      "name": "OnManagerAdded",
      "type": "event"
    },
    {
      "anonymous": false,
      "inputs": [
        {
          "indexed": false,
          "name": "userId",
          "type": "address"
        }
      ],
      "name": "OnPatientAdded",
      "type": "event"
    },
    {
      "anonymous": false,
      "inputs": [
        {
          "indexed": false,
          "name": "paymentId",
          "type": "uint256"
        }
      ],
      "name": "PaymentLocked",
      "type": "event"
    },
    {
      "anonymous": false,
      "inputs": [
        {
          "indexed": false,
          "name": "status",
          "type": "uint8"
        }
      ],
      "name": "OnSmartContractStatusSet",
      "type": "event"
    },
    {
      "anonymous": false,
      "inputs": [
        {
          "indexed": true,
          "name": "previousOwner",
          "type": "address"
        },
        {
          "indexed": true,
          "name": "newOwner",
          "type": "address"
        }
      ],
      "name": "OwnershipTransferred",
      "type": "event"
    }
  ],
  "bytecode": "0x6060604052341561000f57600080fd5b6040516020806200412e83398101604052808051906020019091905050336000806101000a81548173ffffffffffffffffffffffffffffffffffffffff021916908373ffffffffffffffffffffffffffffffffffffffff16021790555060008173ffffffffffffffffffffffffffffffffffffffff161415151561009257600080fd5b80600160006101000a81548173ffffffffffffffffffffffffffffffffffffffff021916908373ffffffffffffffffffffffffffffffffffffffff1602179055505061404a80620000e46000396000f3006060604052600436106100f0576000357c0100000000000000000000000000000000000000000000000000000000900463ffffffff16806222049c146100f557806305e46bd21461013a57806339d319e51461017e5780633da01325146101b75780633f4b1470146101f05780634c8ddddc14610232578063526f6ce41461026157806378ff4656146102875780638da5cb5b1461034157806391e06b6d14610396578063a7f91c92146103eb578063c5272df914610424578063c6b64a0814610464578063c82c29d9146104a9578063e962beac14610562578063ec1113f4146105b5578063f2fde38b146105e3575b600080fd5b341561010057600080fd5b610138600480803573ffffffffffffffffffffffffffffffffffffffff1690602001909190803560ff1690602001909190505061061c565b005b341561014557600080fd5b61017c600480803573ffffffffffffffffffffffffffffffffffffffff169060200190919080351515906020019091905050610682565b005b341561018957600080fd5b6101b5600480803573ffffffffffffffffffffffffffffffffffffffff169060200190919050506106b3565b005b34156101c257600080fd5b6101ee600480803573ffffffffffffffffffffffffffffffffffffffff1690602001909190505061075d565b005b34156101fb57600080fd5b610230600480803573ffffffffffffffffffffffffffffffffffffffff16906020019091908035906020019091905050610807565b005b341561023d57600080fd5b610245610a5e565b604051808260ff1660ff16815260200191505060405180910390f35b341561026c57600080fd5b610285600480803560ff16906020019091905050610a71565b005b341561029257600080fd5b61033f600480803560ff169060200190919080359060200190820180359060200191909192908035906020019082018035906020019190919290803560001916906020019091908035600019169060200190919080356000191690602001909190803590602001909190803560001916906020019091908035906020019091908035600019169060200190919080356000191690602001909190803560ff16906020019091905050610bce565b005b341561034c57600080fd5b610354610cad565b604051808273ffffffffffffffffffffffffffffffffffffffff1673ffffffffffffffffffffffffffffffffffffffff16815260200191505060405180910390f35b34156103a157600080fd5b6103a9610cd2565b604051808273ffffffffffffffffffffffffffffffffffffffff1673ffffffffffffffffffffffffffffffffffffffff16815260200191505060405180910390f35b34156103f657600080fd5b610422600480803590602001908201803590602001919091929080351515906020019091905050610cf8565b005b341561042f57600080fd5b6104626004808035600019169060200190919080356000191690602001909190803560ff16906020019091905050610d59565b005b341561046f57600080fd5b6104a7600480803573ffffffffffffffffffffffffffffffffffffffff1690602001909190803560ff16906020019091905050610d8d565b005b34156104b457600080fd5b610560600480803560ff1690602001909190803590602001908201803590602001908080601f0160208091040260200160405190810160405280939291908181526020018383808284378201915050505050509190803590602001908201803590602001908080601f0160208091040260200160405190810160405280939291908181526020018383808284378201915050505050509190803560001916906020019091905050610e39565b005b341561056d57600080fd5b6105b36004808035600019169060200190919080356000191690602001909190803590602001909190803560001916906020019091908035906020019091905050610e6f565b005b34156105c057600080fd5b6105e160048080359060200190820180359060200191909192905050610ea7565b005b34156105ee57600080fd5b61061a600480803573ffffffffffffffffffffffffffffffffffffffff16906020019091905050610f8e565b005b60008273ffffffffffffffffffffffffffffffffffffffff1614158015610646575060008160ff16115b151561065157600080fd5b61067e600160009054906101000a900473ffffffffffffffffffffffffffffffffffffffff1683836110e3565b5050565b6106af600160009054906101000a900473ffffffffffffffffffffffffffffffffffffffff16838361115f565b5050565b6000809054906101000a900473ffffffffffffffffffffffffffffffffffffffff1673ffffffffffffffffffffffffffffffffffffffff163373ffffffffffffffffffffffffffffffffffffffff16148061071357506107123361129c565b5b806107235750610722336112c3565b5b151561072e57600080fd5b61075a600160009054906101000a900473ffffffffffffffffffffffffffffffffffffffff16826112ea565b50565b6000809054906101000a900473ffffffffffffffffffffffffffffffffffffffff1673ffffffffffffffffffffffffffffffffffffffff163373ffffffffffffffffffffffffffffffffffffffff1614806107bd57506107bc3361129c565b5b806107cd57506107cc336112c3565b5b15156107d857600080fd5b610804600160009054906101000a900473ffffffffffffffffffffffffffffffffffffffff16826113fc565b50565b816108118161150e565b151561081c57600080fd5b8160018060ff16600160009054906101000a900473ffffffffffffffffffffffffffffffffffffffff1673ffffffffffffffffffffffffffffffffffffffff16637a0e03ec8460405180807f7061796d656e742f737461746500000000000000000000000000000000000000815250600d0182815260200191505060405180910390206000604051602001526040518263ffffffff167c0100000000000000000000000000000000000000000000000000000000028152600401808260001916600019168152602001915050602060405180830381600087803b151561090157600080fd5b6102c65a03f1151561091257600080fd5b5050506040518051905060ff1614151561092b57600080fd5b600160009054906101000a900473ffffffffffffffffffffffffffffffffffffffff1673ffffffffffffffffffffffffffffffffffffffff16630bd851588560405180807f7061796d656e742f737461746500000000000000000000000000000000000000815250600d01828152602001915050604051809103902060026040518363ffffffff167c01000000000000000000000000000000000000000000000000000000000281526004018083600019166000191681526020018260ff16815260200192505050600060405180830381600087803b1515610a0c57600080fd5b6102c65a03f11515610a1d57600080fd5b5050507fa5f78a79f83dfad686a63ca003a42f6c262d9fdc43a6742c56f5c27c11b9a1e2846040518082815260200191505060405180910390a15050505050565b600160149054906101000a900460ff1681565b60018160ff161415610ae5577f33ab88bf15c608bd108a5e190f7ede9805cca0d26edb4c498910efed7bd4548233604051808273ffffffffffffffffffffffffffffffffffffffff1673ffffffffffffffffffffffffffffffffffffffff16815260200191505060405180910390a1610bcb565b60038160ff161415610b59577f071c1d6c34c33579b7c602d142075cbfcd78a1f17a66d704fa952844a3c5e08e33604051808273ffffffffffffffffffffffffffffffffffffffff1673ffffffffffffffffffffffffffffffffffffffff16815260200191505060405180910390a1610bca565b60048160ff161415610bc9577fddce97d6f5184391465a772abc24fb939b4e8f99851a6a1b823d08b0f7abea9833604051808273ffffffffffffffffffffffffffffffffffffffff1673ffffffffffffffffffffffffffffffffffffffff16815260200191505060405180910390a15b5b5b50565b6000600160149054906101000a900460ff1660ff16141515610bef57600080fd5b60008614158015610c01575060008414155b1515610c0c57600080fd5b610c7c8e8e8e8080601f0160208091040260200160405190810160405280939291908181526020018383808284378201915050505050508d8d8080601f0160208091040260200160405190810160405280939291908181526020018383808284378201915050505050508c610e39565b610c898888888888610e6f565b610c94838383610d59565b610c9d8e610a71565b5050505050505050505050505050565b6000809054906101000a900473ffffffffffffffffffffffffffffffffffffffff1681565b600160009054906101000a900473ffffffffffffffffffffffffffffffffffffffff1681565b610d54600160009054906101000a900473ffffffffffffffffffffffffffffffffffffffff1684848080602002602001604051908101604052809392919081815260200183836020028082843782019150505050505083611535565b505050565b610d88600160009054906101000a900473ffffffffffffffffffffffffffffffffffffffff16338585856116ef565b505050565b6000809054906101000a900473ffffffffffffffffffffffffffffffffffffffff1673ffffffffffffffffffffffffffffffffffffffff163373ffffffffffffffffffffffffffffffffffffffff161480610ded5750610dec3361129c565b5b80610dfd5750610dfc336112c3565b5b1515610e0857600080fd5b610e35600160009054906101000a900473ffffffffffffffffffffffffffffffffffffffff168383611a54565b5050565b610e69600160009054906101000a900473ffffffffffffffffffffffffffffffffffffffff163386868686611bc0565b50505050565b610ea0600160009054906101000a900473ffffffffffffffffffffffffffffffffffffffff1633878787878761211c565b5050505050565b6000600160149054906101000a900460ff1660ff16141515610ec857600080fd5b610f27600160009054906101000a900473ffffffffffffffffffffffffffffffffffffffff163384848080601f016020809104026020016040519081016040528093929190818152602001838380828437820191505050505050612699565b7f93b7a8f909099e62da880be5159733c001501e38f43e9e9767d1acfa4562c8f733604051808273ffffffffffffffffffffffffffffffffffffffff1673ffffffffffffffffffffffffffffffffffffffff16815260200191505060405180910390a15050565b6000809054906101000a900473ffffffffffffffffffffffffffffffffffffffff1673ffffffffffffffffffffffffffffffffffffffff163373ffffffffffffffffffffffffffffffffffffffff16141515610fe957600080fd5b600073ffffffffffffffffffffffffffffffffffffffff168173ffffffffffffffffffffffffffffffffffffffff161415151561102557600080fd5b8073ffffffffffffffffffffffffffffffffffffffff166000809054906101000a900473ffffffffffffffffffffffffffffffffffffffff1673ffffffffffffffffffffffffffffffffffffffff167f8be0079c531659141344cd1fd0a4f28419497f9722a3daafe3b4186f6b6457e060405160405180910390a3806000806101000a81548173ffffffffffffffffffffffffffffffffffffffff021916908373ffffffffffffffffffffffffffffffffffffffff16021790555050565b61115a83836040805190810160405280601c81526020017f64656e746973742f617665726167652d726174696e672d636f756e74000000008152506040805190810160405280601681526020017f64656e746973742f617665726167652d726174696e6700000000000000000000815250856128e4565b505050565b6111698383612e39565b151561117457600080fd5b61117e8383612e52565b151561118957600080fd5b8273ffffffffffffffffffffffffffffffffffffffff16633eba9ed28360405180807f757365722f69732d6f646c6c2d64656e746973743f00000000000000000000008152506015018273ffffffffffffffffffffffffffffffffffffffff1673ffffffffffffffffffffffffffffffffffffffff166c010000000000000000000000000281526014019150506040518091039020836040518363ffffffff167c01000000000000000000000000000000000000000000000000000000000281526004018083600019166000191681526020018215151515815260200192505050600060405180830381600087803b151561128357600080fd5b6102c65a03f1151561129457600080fd5b505050505050565b60006112a9826004612e68565b80156112bc57506112bb826001612e83565b5b9050919050565b60006112d0826003612e68565b80156112e357506112e2826001612e83565b5b9050919050565b8173ffffffffffffffffffffffffffffffffffffffff16630bd851588260405180807f757365722f737461747573000000000000000000000000000000000000000000815250600b018273ffffffffffffffffffffffffffffffffffffffff1673ffffffffffffffffffffffffffffffffffffffff166c01000000000000000000000000028152601401915050604051809103902060016040518363ffffffff167c01000000000000000000000000000000000000000000000000000000000281526004018083600019166000191681526020018260ff16815260200192505050600060405180830381600087803b15156113e457600080fd5b6102c65a03f115156113f557600080fd5b5050505050565b8173ffffffffffffffffffffffffffffffffffffffff16630bd851588260405180807f757365722f737461747573000000000000000000000000000000000000000000815250600b018273ffffffffffffffffffffffffffffffffffffffff1673ffffffffffffffffffffffffffffffffffffffff166c01000000000000000000000000028152601401915050604051809103902060026040518363ffffffff167c01000000000000000000000000000000000000000000000000000000000281526004018083600019166000191681526020018260ff16815260200192505050600060405180830381600087803b15156114f657600080fd5b6102c65a03f1151561150757600080fd5b5050505050565b600061151b826001612e68565b801561152e575061152d826001612e83565b5b9050919050565b60008090505b82518110156115a95761156584848381518110151561155657fe5b90602001906020020151612e39565b151561157057600080fd5b61159184848381518110151561158257fe5b90602001906020020151612e52565b151561159c57600080fd5b808060010191505061153b565b600090505b82518110156116e9578373ffffffffffffffffffffffffffffffffffffffff16633eba9ed284838151811015156115e157fe5b9060200190602002015160405180807f757365722f69732d6f646c6c2d64656e746973743f00000000000000000000008152506015018273ffffffffffffffffffffffffffffffffffffffff1673ffffffffffffffffffffffffffffffffffffffff166c010000000000000000000000000281526014019150506040518091039020846040518363ffffffff167c01000000000000000000000000000000000000000000000000000000000281526004018083600019166000191681526020018215151515815260200192505050600060405180830381600087803b15156116c857600080fd5b6102c65a03f115156116d957600080fd5b50505080806001019150506115ae565b50505050565b6116f98585612e39565b151561170457600080fd5b61170e8585612e52565b151561171957600080fd5b8473ffffffffffffffffffffffffffffffffffffffff166325cf512d8560405180807f757365722f70686f6e652d6e756d6265720000000000000000000000000000008152506011018273ffffffffffffffffffffffffffffffffffffffff1673ffffffffffffffffffffffffffffffffffffffff166c010000000000000000000000000281526014019150506040518091039020856040518363ffffffff167c0100000000000000000000000000000000000000000000000000000000028152600401808360001916600019168152602001826000191660001916815260200192505050600060405180830381600087803b151561181757600080fd5b6102c65a03f1151561182857600080fd5b5050508473ffffffffffffffffffffffffffffffffffffffff166325cf512d8560405180807f757365722f626972746864617900000000000000000000000000000000000000815250600d018273ffffffffffffffffffffffffffffffffffffffff1673ffffffffffffffffffffffffffffffffffffffff166c010000000000000000000000000281526014019150506040518091039020846040518363ffffffff167c0100000000000000000000000000000000000000000000000000000000028152600401808360001916600019168152602001826000191660001916815260200192505050600060405180830381600087803b151561192957600080fd5b6102c65a03f1151561193a57600080fd5b5050508473ffffffffffffffffffffffffffffffffffffffff16630bd851588560405180807f757365722f67656e646572000000000000000000000000000000000000000000815250600b018273ffffffffffffffffffffffffffffffffffffffff1673ffffffffffffffffffffffffffffffffffffffff166c010000000000000000000000000281526014019150506040518091039020836040518363ffffffff167c01000000000000000000000000000000000000000000000000000000000281526004018083600019166000191681526020018260ff1660ff16815260200192505050600060405180830381600087803b1515611a3957600080fd5b6102c65a03f11515611a4a57600080fd5b5050505050505050565b60008373ffffffffffffffffffffffffffffffffffffffff16637a0e03ec8460405180807f757365722f7479706500000000000000000000000000000000000000000000008152506009018273ffffffffffffffffffffffffffffffffffffffff1673ffffffffffffffffffffffffffffffffffffffff166c0100000000000000000000000002815260140191505060405180910390206000604051602001526040518263ffffffff167c0100000000000000000000000000000000000000000000000000000000028152600401808260001916600019168152602001915050602060405180830381600087803b1515611b4d57600080fd5b6102c65a03f11515611b5e57600080fd5b50505060405180519050905060008373ffffffffffffffffffffffffffffffffffffffff1614158015611b95575060008260ff1614155b8015611ba4575060008160ff16145b1515611baf57600080fd5b611bba848484612e9e565b50505050565b600080611bd4611bcf866133ca565b6133f8565b9150611be7611be2856133ca565b6133f8565b9050611c28886040805190810160405280601b81526020017f636f6e6669672f6d61782d757365722d6e616d652d6c656e67746800000000008152506134be565b8211158015611c755750611c71886040805190810160405280601b81526020017f636f6e6669672f6d696e2d757365722d6e616d652d6c656e67746800000000008152506134be565b8210155b1515611c8057600080fd5b611cbf886040805190810160405280601c81526020017f636f6e6669672f6d61782d757365722d656d61696c2d6c656e677468000000008152506134be565b8111158015611d0c5750611d08886040805190810160405280601c81526020017f636f6e6669672f6d696e2d757365722d656d61696c2d6c656e677468000000008152506134be565b8110155b1515611d1757600080fd5b611d22888888612e9e565b8773ffffffffffffffffffffffffffffffffffffffff1663f58660668860405180807f757365722f6e616d6500000000000000000000000000000000000000000000008152506009018273ffffffffffffffffffffffffffffffffffffffff1673ffffffffffffffffffffffffffffffffffffffff166c010000000000000000000000000281526014019150506040518091039020876040518363ffffffff167c010000000000000000000000000000000000000000000000000000000002815260040180836000191660001916815260200180602001828103825283818151815260200191508051906020019080838360005b83811015611e31578082015181840152602081019050611e16565b50505050905090810190601f168015611e5e5780820380516001836020036101000a031916815260200191505b509350505050600060405180830381600087803b1515611e7d57600080fd5b6102c65a03f11515611e8e57600080fd5b5050508773ffffffffffffffffffffffffffffffffffffffff1663f58660668860405180807f757365722f656d61696c00000000000000000000000000000000000000000000815250600a018273ffffffffffffffffffffffffffffffffffffffff1673ffffffffffffffffffffffffffffffffffffffff166c010000000000000000000000000281526014019150506040518091039020866040518363ffffffff167c010000000000000000000000000000000000000000000000000000000002815260040180836000191660001916815260200180602001828103825283818151815260200191508051906020019080838360005b83811015611fa0578082015181840152602081019050611f85565b50505050905090810190601f168015611fcd5780820380516001836020036101000a031916815260200191505b509350505050600060405180830381600087803b1515611fec57600080fd5b6102c65a03f11515611ffd57600080fd5b5050508773ffffffffffffffffffffffffffffffffffffffff166325cf512d8860405180807f757365722f677261766174617200000000000000000000000000000000000000815250600d018273ffffffffffffffffffffffffffffffffffffffff1673ffffffffffffffffffffffffffffffffffffffff166c010000000000000000000000000281526014019150506040518091039020856040518363ffffffff167c0100000000000000000000000000000000000000000000000000000000028152600401808360001916600019168152602001826000191660001916815260200192505050600060405180830381600087803b15156120fe57600080fd5b6102c65a03f1151561210f57600080fd5b5050505050505050505050565b6121268787612e39565b151561213157600080fd5b61213b8787612e52565b151561214657600080fd5b8673ffffffffffffffffffffffffffffffffffffffff166325cf512d8760405180807f757365722f737472656574000000000000000000000000000000000000000000815250600b018273ffffffffffffffffffffffffffffffffffffffff1673ffffffffffffffffffffffffffffffffffffffff166c010000000000000000000000000281526014019150506040518091039020876040518363ffffffff167c0100000000000000000000000000000000000000000000000000000000028152600401808360001916600019168152602001826000191660001916815260200192505050600060405180830381600087803b151561224457600080fd5b6102c65a03f1151561225557600080fd5b5050508673ffffffffffffffffffffffffffffffffffffffff166325cf512d8760405180807f757365722f6369747900000000000000000000000000000000000000000000008152506009018273ffffffffffffffffffffffffffffffffffffffff1673ffffffffffffffffffffffffffffffffffffffff166c010000000000000000000000000281526014019150506040518091039020866040518363ffffffff167c0100000000000000000000000000000000000000000000000000000000028152600401808360001916600019168152602001826000191660001916815260200192505050600060405180830381600087803b151561235657600080fd5b6102c65a03f1151561236757600080fd5b5050508673ffffffffffffffffffffffffffffffffffffffff16633562fd208760405180807f757365722f737461746500000000000000000000000000000000000000000000815250600a018273ffffffffffffffffffffffffffffffffffffffff1673ffffffffffffffffffffffffffffffffffffffff166c010000000000000000000000000281526014019150506040518091039020856040518363ffffffff167c010000000000000000000000000000000000000000000000000000000002815260040180836000191660001916815260200182815260200192505050600060405180830381600087803b151561246057600080fd5b6102c65a03f1151561247157600080fd5b5050508673ffffffffffffffffffffffffffffffffffffffff166325cf512d8760405180807f757365722f7a69702d636f646500000000000000000000000000000000000000815250600d018273ffffffffffffffffffffffffffffffffffffffff1673ffffffffffffffffffffffffffffffffffffffff166c010000000000000000000000000281526014019150506040518091039020846040518363ffffffff167c0100000000000000000000000000000000000000000000000000000000028152600401808360001916600019168152602001826000191660001916815260200192505050600060405180830381600087803b151561257257600080fd5b6102c65a03f1151561258357600080fd5b5050508673ffffffffffffffffffffffffffffffffffffffff16633562fd208760405180807f757365722f636f756e7472790000000000000000000000000000000000000000815250600c018273ffffffffffffffffffffffffffffffffffffffff1673ffffffffffffffffffffffffffffffffffffffff166c010000000000000000000000000281526014019150506040518091039020836040518363ffffffff167c010000000000000000000000000000000000000000000000000000000002815260040180836000191660001916815260200182815260200192505050600060405180830381600087803b151561267c57600080fd5b6102c65a03f1151561268d57600080fd5b50505050505050505050565b60006126ac6126a7836133ca565b6133f8565b90506126b88484612e39565b15156126c357600080fd5b6126cd8484612e52565b15156126d857600080fd5b612717846040805190810160405280601e81526020017f636f6e6669672f6d61782d636f6d70616e792d6e616d652d6c656e67746800008152506134be565b81111580156127645750612760846040805190810160405280601e81526020017f636f6e6669672f6d696e2d636f6d70616e792d6e616d652d6c656e67746800008152506134be565b8110155b151561276f57600080fd5b8373ffffffffffffffffffffffffffffffffffffffff1663f58660668460405180807f64656e746973742f636f6d70616e792d6e616d650000000000000000000000008152506014018273ffffffffffffffffffffffffffffffffffffffff1673ffffffffffffffffffffffffffffffffffffffff166c010000000000000000000000000281526014019150506040518091039020846040518363ffffffff167c010000000000000000000000000000000000000000000000000000000002815260040180836000191660001916815260200180602001828103825283818151815260200191508051906020019080838360005b8381101561287e578082015181840152602081019050612863565b50505050905090810190601f1680156128ab5780820380516001836020036101000a031916815260200191505b509350505050600060405180830381600087803b15156128ca57600080fd5b6102c65a03f115156128db57600080fd5b50505050505050565b60008060008060008973ffffffffffffffffffffffffffffffffffffffff1663bdc963d8898b6040518083805190602001908083835b60208310151561293f578051825260208201915060208101905060208303925061291a565b6001836020036101000a0380198251168184511680821785525050505050509050018273ffffffffffffffffffffffffffffffffffffffff1673ffffffffffffffffffffffffffffffffffffffff166c010000000000000000000000000281526014019250505060405180910390206000604051602001526040518263ffffffff167c0100000000000000000000000000000000000000000000000000000000028152600401808260001916600019168152602001915050602060405180830381600087803b1515612a1057600080fd5b6102c65a03f11515612a2157600080fd5b5050506040518051905094508973ffffffffffffffffffffffffffffffffffffffff16637a0e03ec888b6040518083805190602001908083835b602083101515612a805780518252602082019150602081019050602083039250612a5b565b6001836020036101000a0380198251168184511680821785525050505050509050018273ffffffffffffffffffffffffffffffffffffffff1673ffffffffffffffffffffffffffffffffffffffff166c010000000000000000000000000281526014019250505060405180910390206000604051602001526040518263ffffffff167c0100000000000000000000000000000000000000000000000000000000028152600401808260001916600019168152602001915050602060405180830381600087803b1515612b5157600080fd5b6102c65a03f11515612b6257600080fd5b505050604051805190509350612b798560016135c4565b92506000851415612b8f578560ff169150612bb9565b612ba8612b9f8560ff16876135e2565b8760ff166135c4565b90508281811515612bb557fe5b0491505b8973ffffffffffffffffffffffffffffffffffffffff16633562fd20898b6040518083805190602001908083835b602083101515612c0c5780518252602082019150602081019050602083039250612be7565b6001836020036101000a0380198251168184511680821785525050505050509050018273ffffffffffffffffffffffffffffffffffffffff1673ffffffffffffffffffffffffffffffffffffffff166c01000000000000000000000000028152601401925050506040518091039020856040518363ffffffff167c010000000000000000000000000000000000000000000000000000000002815260040180836000191660001916815260200182815260200192505050600060405180830381600087803b1515612cdc57600080fd5b6102c65a03f11515612ced57600080fd5b5050508973ffffffffffffffffffffffffffffffffffffffff16630bd85158888b6040518083805190602001908083835b602083101515612d435780518252602082019150602081019050602083039250612d1e565b6001836020036101000a0380198251168184511680821785525050505050509050018273ffffffffffffffffffffffffffffffffffffffff1673ffffffffffffffffffffffffffffffffffffffff166c01000000000000000000000000028152601401925050506040518091039020846040518363ffffffff167c01000000000000000000000000000000000000000000000000000000000281526004018083600019166000191681526020018260ff1660ff16815260200192505050600060405180830381600087803b1515612e1957600080fd5b6102c65a03f11515612e2a57600080fd5b50505050505050505050505050565b600080612e468484613615565b60ff1611905092915050565b6000612e6083836001613731565b905092915050565b6000612e738361374e565b60ff168260ff1614905092915050565b6000612e8e8361388b565b60ff168260ff1614905092915050565b612ea6613ff0565b612eae613ff0565b612eb6613ff0565b612ec08686612e39565b15156132b2578573ffffffffffffffffffffffffffffffffffffffff16633562fd208660405180807f757365722f637265617465642d6f6e0000000000000000000000000000000000815250600f018273ffffffffffffffffffffffffffffffffffffffff1673ffffffffffffffffffffffffffffffffffffffff166c010000000000000000000000000281526014019150506040518091039020426040518363ffffffff167c010000000000000000000000000000000000000000000000000000000002815260040180836000191660001916815260200182815260200192505050600060405180830381600087803b1515612fbc57600080fd5b6102c65a03f11515612fcd57600080fd5b5050508573ffffffffffffffffffffffffffffffffffffffff16630bd851588660405180807f757365722f737461747573000000000000000000000000000000000000000000815250600b018273ffffffffffffffffffffffffffffffffffffffff1673ffffffffffffffffffffffffffffffffffffffff166c01000000000000000000000000028152601401915050604051809103902060016040518363ffffffff167c01000000000000000000000000000000000000000000000000000000000281526004018083600019166000191681526020018260ff16815260200192505050600060405180830381600087803b15156130ca57600080fd5b6102c65a03f115156130db57600080fd5b505050613154866040805190810160405280600981526020017f75736572732f69647300000000000000000000000000000000000000000000008152506040805190810160405280600b81526020017f75736572732f636f756e74000000000000000000000000000000000000000000815250886139c8565b61315d84613cee565b8093508194508295505050508573ffffffffffffffffffffffffffffffffffffffff16633eba9ed284876040518083805190602001908083835b6020831015156131bc5780518252602082019150602081019050602083039250613197565b6001836020036101000a0380198251168184511680821785525050505050509050018273ffffffffffffffffffffffffffffffffffffffff1673ffffffffffffffffffffffffffffffffffffffff166c0100000000000000000000000002815260140192505050604051809103902060016040518363ffffffff167c01000000000000000000000000000000000000000000000000000000000281526004018083600019166000191681526020018215151515815260200192505050600060405180830381600087803b151561329157600080fd5b6102c65a03f115156132a257600080fd5b5050506132b1868383886139c8565b5b8573ffffffffffffffffffffffffffffffffffffffff16630bd851588660405180807f757365722f7479706500000000000000000000000000000000000000000000008152506009018273ffffffffffffffffffffffffffffffffffffffff1673ffffffffffffffffffffffffffffffffffffffff166c010000000000000000000000000281526014019150506040518091039020866040518363ffffffff167c01000000000000000000000000000000000000000000000000000000000281526004018083600019166000191681526020018260ff1660ff16815260200192505050600060405180830381600087803b15156133ae57600080fd5b6102c65a03f115156133bf57600080fd5b505050505050505050565b6133d2614004565b600060208301905060408051908101604052808451815260200182815250915050919050565b6000806000806000601f8660200151039350856000015184019250600091505b828410156134b25760ff845116905060808160ff16101561343e576001840193506134a5565b60e08160ff161015613455576002840193506134a4565b60f08160ff16101561346c576003840193506134a3565b60f88160ff161015613483576004840193506134a2565b60fc8160ff16101561349a576005840193506134a1565b6006840193505b5b5b5b5b8180600101925050613418565b81945050505050919050565b60008273ffffffffffffffffffffffffffffffffffffffff1663bdc963d8836040518082805190602001908083835b60208310151561351257805182526020820191506020810190506020830392506134ed565b6001836020036101000a03801982511681845116808217855250505050505090500191505060405180910390206000604051602001526040518263ffffffff167c0100000000000000000000000000000000000000000000000000000000028152600401808260001916600019168152602001915050602060405180830381600087803b15156135a157600080fd5b6102c65a03f115156135b257600080fd5b50505060405180519050905092915050565b60008082840190508381101515156135d857fe5b8091505092915050565b60008082840290506000841480613603575082848281151561360057fe5b04145b151561360b57fe5b8091505092915050565b60008273ffffffffffffffffffffffffffffffffffffffff16637a0e03ec8360405180807f757365722f737461747573000000000000000000000000000000000000000000815250600b018273ffffffffffffffffffffffffffffffffffffffff1673ffffffffffffffffffffffffffffffffffffffff166c0100000000000000000000000002815260140191505060405180910390206000604051602001526040518263ffffffff167c0100000000000000000000000000000000000000000000000000000000028152600401808260001916600019168152602001915050602060405180830381600087803b151561370e57600080fd5b6102c65a03f1151561371f57600080fd5b50505060405180519050905092915050565b600061373d8484613615565b60ff168260ff161490509392505050565b6000600160009054906101000a900473ffffffffffffffffffffffffffffffffffffffff1673ffffffffffffffffffffffffffffffffffffffff16637a0e03ec8360405180807f757365722f7479706500000000000000000000000000000000000000000000008152506009018273ffffffffffffffffffffffffffffffffffffffff1673ffffffffffffffffffffffffffffffffffffffff166c0100000000000000000000000002815260140191505060405180910390206000604051602001526040518263ffffffff167c0100000000000000000000000000000000000000000000000000000000028152600401808260001916600019168152602001915050602060405180830381600087803b151561386957600080fd5b6102c65a03f1151561387a57600080fd5b505050604051805190509050919050565b6000600160009054906101000a900473ffffffffffffffffffffffffffffffffffffffff1673ffffffffffffffffffffffffffffffffffffffff16637a0e03ec8360405180807f757365722f737461747573000000000000000000000000000000000000000000815250600b018273ffffffffffffffffffffffffffffffffffffffff1673ffffffffffffffffffffffffffffffffffffffff166c0100000000000000000000000002815260140191505060405180910390206000604051602001526040518263ffffffff167c0100000000000000000000000000000000000000000000000000000000028152600401808260001916600019168152602001915050602060405180830381600087803b15156139a657600080fd5b6102c65a03f115156139b757600080fd5b505050604051805190509050919050565b60008473ffffffffffffffffffffffffffffffffffffffff1663bdc963d8846040518082805190602001908083835b602083101515613a1c57805182526020820191506020810190506020830392506139f7565b6001836020036101000a03801982511681845116808217855250505050505090500191505060405180910390206000604051602001526040518263ffffffff167c0100000000000000000000000000000000000000000000000000000000028152600401808260001916600019168152602001915050602060405180830381600087803b1515613aab57600080fd5b6102c65a03f11515613abc57600080fd5b5050506040518051905090508473ffffffffffffffffffffffffffffffffffffffff16635a2bf25a85836040518083805190602001908083835b602083101515613b1b5780518252602082019150602081019050602083039250613af6565b6001836020036101000a038019825116818451168082178552505050505050905001828152602001925050506040518091039020846040518363ffffffff167c01000000000000000000000000000000000000000000000000000000000281526004018083600019166000191681526020018273ffffffffffffffffffffffffffffffffffffffff1673ffffffffffffffffffffffffffffffffffffffff16815260200192505050600060405180830381600087803b1515613bdc57600080fd5b6102c65a03f11515613bed57600080fd5b5050508473ffffffffffffffffffffffffffffffffffffffff16633562fd20846040518082805190602001908083835b602083101515613c425780518252602082019150602081019050602083039250613c1d565b6001836020036101000a0380198251168184511680821785525050505050509050019150506040518091039020600184016040518363ffffffff167c010000000000000000000000000000000000000000000000000000000002815260040180836000191660001916815260200182815260200192505050600060405180830381600087803b1515613cd357600080fd5b6102c65a03f11515613ce457600080fd5b5050505050505050565b613cf6613ff0565b613cfe613ff0565b613d06613ff0565b60018460ff161415613dbf576040805190810160405280601081526020017f757365722f69732d70617469656e743f0000000000000000000000000000000081525092506040805190810160405280600c81526020017f70617469656e74732f696473000000000000000000000000000000000000000081525091506040805190810160405280600e81526020017f70617469656e74732f636f756e740000000000000000000000000000000000008152509050613fe9565b60028460ff161415613e78576040805190810160405280601081526020017f757365722f69732d64656e746973743f0000000000000000000000000000000081525092506040805190810160405280600c81526020017f64656e74697374732f696473000000000000000000000000000000000000000081525091506040805190810160405280600e81526020017f64656e74697374732f636f756e740000000000000000000000000000000000008152509050613fe8565b60038460ff161415613f31576040805190810160405280601081526020017f757365722f69732d6d616e616765723f0000000000000000000000000000000081525092506040805190810160405280600c81526020017f6d616e61676572732f696473000000000000000000000000000000000000000081525091506040805190810160405280600e81526020017f6d616e61676572732f636f756e740000000000000000000000000000000000008152509050613fe7565b60048460ff161415613fe6576040805190810160405280600e81526020017f757365722f69732d61646d696e3f00000000000000000000000000000000000081525092506040805190810160405280600a81526020017f61646d696e732f6964730000000000000000000000000000000000000000000081525091506040805190810160405280600c81526020017f61646d696e732f636f756e74000000000000000000000000000000000000000081525090505b5b5b5b9193909250565b602060405190810160405280600081525090565b6040805190810160405280600081526020016000815250905600a165627a7a72305820a5bf5ea4d32798a882af58136b3d85e33c0d51bd7a6731e63728e246c22488500029",
  "source": "pragma solidity 0.4.18;\n\nimport \"./Restrictor.sol\";\nimport \"../lib/odll/userManager.sol\";\n\ncontract UserWriter is Restrictor {\n  event OnAdminAdded(address userId);\n  event OnDentistCompanySet(address userId);\n  event OnManagerAdded(address userId);\n  event OnPatientAdded(address userId);\n\n  function UserWriter(address _dbAddress) public {\n    require(_dbAddress != 0x0);\n    dbAddress = _dbAddress;\n  }\n\n  function writeUser(\n    uint8 userType,\n    string name,\n    string email,\n    bytes32 gravatar,\n    bytes32 street,\n    bytes32 city,\n    uint stateId,\n    bytes32 zipCode,\n    uint countryId,\n    bytes32 phoneNumber,\n    bytes32 birthday,\n    uint8 gender\n  )\n    external\n    onlyPermittedSmartContract\n  {\n    // require the last compulsories first\n    require(stateId != 0 && countryId != 0);\n\n    writeUserIdentity(userType, name, email, gravatar);\n    writeUserLocation(street, city, stateId, zipCode, countryId);\n    writeUserOptionalValues(phoneNumber, birthday, gender);\n    determineEvent(userType);\n  }\n\n  function writeUserIdentity(uint8 userType, string name, string email, bytes32 gravatar) public {\n    userManager.setUserIdentity(dbAddress, msg.sender, userType, name, email, gravatar);\n  }\n\n  function writeUserLocation(bytes32 street, bytes32 city, uint stateId, bytes32 zipCode, uint countryId) public {\n    userManager.setUserLocation(dbAddress, msg.sender, street, city, stateId, zipCode, countryId);\n  }\n\n  function writeUserOptionalValues(bytes32 phoneNumber, bytes32 birthday, uint8 gender) public {\n    userManager.setUserOptionalValues(dbAddress, msg.sender, phoneNumber, birthday, gender);\n  }\n\n  function determineEvent(uint8 userType) public {\n    if (userType == 1) {\n      OnPatientAdded(msg.sender);\n    } else if (userType == 3) {\n      OnManagerAdded(msg.sender);\n    } else if (userType == 4) {\n      OnAdminAdded(msg.sender);\n    }\n  }\n\n  function setDentistCompany (\n    string companyName\n  )\n    external\n    onlyPermittedSmartContract\n  {\n    userManager.setDentistCompanyData(dbAddress, msg.sender, companyName);\n    OnDentistCompanySet(msg.sender);\n  }\n\n  function setODLLDentist (\n    address userId,\n    bool odllDentistValue\n  )\n    external\n  {\n    userManager.setODLLDentistData(dbAddress, userId, odllDentistValue);\n  }\n\n  function setODLLDentists (\n    address[] userIds,\n    bool odllDentistValue\n  )\n    external\n  {\n    userManager.setODLLDentistsData(dbAddress, userIds, odllDentistValue);\n  }\n\n  function addOfficialToODLL (address officialId, uint8 userType)\n    external\n    onlyOwnerOrActiveAdminOrActiveManager\n  {\n    userManager.addOfficialDataToODLL(dbAddress, officialId, userType);\n  }\n\n  function blockUser (address userId)\n    external\n    onlyOwnerOrActiveAdminOrActiveManager\n  {\n    userManager.blockUserEntity(dbAddress, userId);\n  }\n\n  function unblockUser (address userId)\n    external\n    onlyOwnerOrActiveAdminOrActiveManager\n  {\n    userManager.unblockUserEntity(dbAddress, userId);\n  }\n\n  function writeDentistRating (address dentistId, uint8 rating)\n    external\n  {\n    require(dentistId != 0x0 && rating > 0);\n    userManager.writeDentistEntityRating(dbAddress, dentistId, rating);\n  }\n}\n",
  "sourcePath": "/Users/danielokwufulueze/dev/vue/apps/oraldatalink/contracts/odll/UserWriter.sol",
  "compiler": {
    "name": "solc",
    "version": "0.4.18+commit.9cf6e910.Emscripten.clang"
  },
  "schemaVersion": "1.0.1",
  "updatedAt": "2018-02-03T16:42:35.767Z"
}