{
  "contractName": "UserReader",
  "abi": [
    {
      "constant": true,
      "inputs": [
        {
          "name": "userId",
          "type": "address"
        }
      ],
      "name": "getUserDentistsIds",
      "outputs": [
        {
          "name": "dentistsIds",
          "type": "address[]"
        }
      ],
      "payable": false,
      "stateMutability": "view",
      "type": "function"
    },
    {
      "constant": true,
      "inputs": [
        {
          "name": "serviceTypeId",
          "type": "uint256"
        },
        {
          "name": "serviceId",
          "type": "uint256"
        },
        {
          "name": "dentistId",
          "type": "address"
        }
      ],
      "name": "getDentistFeeData",
      "outputs": [
        {
          "name": "fee",
          "type": "uint256"
        }
      ],
      "payable": false,
      "stateMutability": "view",
      "type": "function"
    },
    {
      "constant": true,
      "inputs": [
        {
          "name": "dentistId",
          "type": "address"
        }
      ],
      "name": "getDentistIdentityData",
      "outputs": [
        {
          "name": "",
          "type": "bool"
        },
        {
          "name": "",
          "type": "bool"
        },
        {
          "name": "",
          "type": "bytes32"
        }
      ],
      "payable": false,
      "stateMutability": "view",
      "type": "function"
    },
    {
      "constant": true,
      "inputs": [
        {
          "name": "userId",
          "type": "address"
        }
      ],
      "name": "getUserIdentityData",
      "outputs": [
        {
          "name": "",
          "type": "uint8"
        },
        {
          "name": "",
          "type": "bytes32"
        },
        {
          "name": "",
          "type": "bytes32"
        },
        {
          "name": "",
          "type": "bytes32"
        },
        {
          "name": "",
          "type": "uint8"
        }
      ],
      "payable": false,
      "stateMutability": "view",
      "type": "function"
    },
    {
      "constant": true,
      "inputs": [],
      "name": "smartContractStatus",
      "outputs": [
        {
          "name": "",
          "type": "uint8"
        }
      ],
      "payable": false,
      "stateMutability": "view",
      "type": "function"
    },
    {
      "constant": true,
      "inputs": [
        {
          "name": "userId",
          "type": "address"
        }
      ],
      "name": "getUserContactData",
      "outputs": [
        {
          "name": "",
          "type": "bytes32"
        },
        {
          "name": "",
          "type": "bytes32"
        },
        {
          "name": "",
          "type": "bytes32"
        },
        {
          "name": "",
          "type": "uint256"
        },
        {
          "name": "",
          "type": "bytes32"
        },
        {
          "name": "",
          "type": "uint256"
        }
      ],
      "payable": false,
      "stateMutability": "view",
      "type": "function"
    },
    {
      "constant": true,
      "inputs": [],
      "name": "owner",
      "outputs": [
        {
          "name": "",
          "type": "address"
        }
      ],
      "payable": false,
      "stateMutability": "view",
      "type": "function"
    },
    {
      "constant": true,
      "inputs": [],
      "name": "dbAddress",
      "outputs": [
        {
          "name": "",
          "type": "address"
        }
      ],
      "payable": false,
      "stateMutability": "view",
      "type": "function"
    },
    {
      "constant": true,
      "inputs": [
        {
          "name": "offset",
          "type": "uint256"
        },
        {
          "name": "limit",
          "type": "uint256"
        },
        {
          "name": "seed",
          "type": "uint256"
        }
      ],
      "name": "fetchDentists",
      "outputs": [
        {
          "name": "",
          "type": "uint256"
        },
        {
          "name": "",
          "type": "address[]"
        }
      ],
      "payable": false,
      "stateMutability": "view",
      "type": "function"
    },
    {
      "constant": false,
      "inputs": [
        {
          "name": "callerAddress",
          "type": "address"
        },
        {
          "name": "newContractAddress",
          "type": "address"
        }
      ],
      "name": "destroySelf",
      "outputs": [],
      "payable": false,
      "stateMutability": "nonpayable",
      "type": "function"
    },
    {
      "constant": true,
      "inputs": [
        {
          "name": "offset",
          "type": "uint256"
        },
        {
          "name": "limit",
          "type": "uint256"
        },
        {
          "name": "seed",
          "type": "uint256"
        }
      ],
      "name": "fetchManagers",
      "outputs": [
        {
          "name": "",
          "type": "uint256"
        },
        {
          "name": "",
          "type": "address[]"
        }
      ],
      "payable": false,
      "stateMutability": "view",
      "type": "function"
    },
    {
      "constant": true,
      "inputs": [
        {
          "name": "dentistId",
          "type": "address"
        }
      ],
      "name": "getDentistRatingData",
      "outputs": [
        {
          "name": "rating",
          "type": "uint256"
        }
      ],
      "payable": false,
      "stateMutability": "view",
      "type": "function"
    },
    {
      "constant": true,
      "inputs": [
        {
          "name": "userId",
          "type": "address"
        }
      ],
      "name": "getUserPersonalData",
      "outputs": [
        {
          "name": "gender",
          "type": "uint8"
        },
        {
          "name": "socialSecurityNumber",
          "type": "bytes32"
        },
        {
          "name": "birthday",
          "type": "bytes32"
        }
      ],
      "payable": false,
      "stateMutability": "view",
      "type": "function"
    },
    {
      "constant": true,
      "inputs": [
        {
          "name": "stateId",
          "type": "uint256"
        },
        {
          "name": "serviceTypeId",
          "type": "uint256"
        },
        {
          "name": "serviceId",
          "type": "uint256"
        },
        {
          "name": "budget",
          "type": "uint256[]"
        },
        {
          "name": "offset",
          "type": "uint256"
        },
        {
          "name": "limit",
          "type": "uint256"
        },
        {
          "name": "seed",
          "type": "uint256"
        }
      ],
      "name": "findDentists",
      "outputs": [
        {
          "name": "",
          "type": "uint256"
        },
        {
          "name": "",
          "type": "address[]"
        }
      ],
      "payable": false,
      "stateMutability": "view",
      "type": "function"
    },
    {
      "constant": false,
      "inputs": [
        {
          "name": "newOwner",
          "type": "address"
        }
      ],
      "name": "transferOwnership",
      "outputs": [],
      "payable": false,
      "stateMutability": "nonpayable",
      "type": "function"
    },
    {
      "inputs": [
        {
          "name": "_dbAddress",
          "type": "address"
        }
      ],
      "payable": false,
      "stateMutability": "nonpayable",
      "type": "constructor"
    },
    {
      "anonymous": false,
      "inputs": [
        {
          "indexed": false,
          "name": "status",
          "type": "uint8"
        }
      ],
      "name": "OnSmartContractStatusSet",
      "type": "event"
    },
    {
      "anonymous": false,
      "inputs": [
        {
          "indexed": true,
          "name": "previousOwner",
          "type": "address"
        },
        {
          "indexed": true,
          "name": "newOwner",
          "type": "address"
        }
      ],
      "name": "OwnershipTransferred",
      "type": "event"
    }
  ],
  "bytecode": "0x6060604052341561000f57600080fd5b604051602080613f3a83398101604052808051906020019091905050336000806101000a81548173ffffffffffffffffffffffffffffffffffffffff021916908373ffffffffffffffffffffffffffffffffffffffff16021790555060008173ffffffffffffffffffffffffffffffffffffffff161415151561009157600080fd5b80600160006101000a81548173ffffffffffffffffffffffffffffffffffffffff021916908373ffffffffffffffffffffffffffffffffffffffff16021790555050613e58806100e26000396000f3006060604052600436106100db576000357c0100000000000000000000000000000000000000000000000000000000900463ffffffff168063096289fc146100e05780630b91f9a71461016e57806326ec0b15146101cd5780632deb044a146102385780634c8ddddc146102c557806359f60150146102f45780638da5cb5b1461038457806391e06b6d146103d957806396f7a4451461042e578063b16b2230146104bf578063be31885b14610517578063ca6e44ac146105a8578063e6277fcc146105f5578063eb6ce03314610666578063f2fde38b14610726575b600080fd5b34156100eb57600080fd5b610117600480803573ffffffffffffffffffffffffffffffffffffffff1690602001909190505061075f565b6040518080602001828103825283818151815260200191508051906020019060200280838360005b8381101561015a57808201518184015260208101905061013f565b505050509050019250505060405180910390f35b341561017957600080fd5b6101b7600480803590602001909190803590602001909190803573ffffffffffffffffffffffffffffffffffffffff1690602001909190505061079a565b6040518082815260200191505060405180910390f35b34156101d857600080fd5b610204600480803573ffffffffffffffffffffffffffffffffffffffff169060200190919050506107d3565b6040518084151515158152602001831515151581526020018260001916600019168152602001935050505060405180910390f35b341561024357600080fd5b61026f600480803573ffffffffffffffffffffffffffffffffffffffff16906020019091905050610811565b604051808660ff1660ff1681526020018560001916600019168152602001846000191660001916815260200183600019166000191681526020018260ff1660ff1681526020019550505050505060405180910390f35b34156102d057600080fd5b6102d8610858565b604051808260ff1660ff16815260200191505060405180910390f35b34156102ff57600080fd5b61032b600480803573ffffffffffffffffffffffffffffffffffffffff1690602001909190505061086b565b604051808760001916600019168152602001866000191660001916815260200185600019166000191681526020018481526020018360001916600019168152602001828152602001965050505050505060405180910390f35b341561038f57600080fd5b6103976108b5565b604051808273ffffffffffffffffffffffffffffffffffffffff1673ffffffffffffffffffffffffffffffffffffffff16815260200191505060405180910390f35b34156103e457600080fd5b6103ec6108da565b604051808273ffffffffffffffffffffffffffffffffffffffff1673ffffffffffffffffffffffffffffffffffffffff16815260200191505060405180910390f35b341561043957600080fd5b6104616004808035906020019091908035906020019091908035906020019091905050610900565b6040518083815260200180602001828103825283818151815260200191508051906020019060200280838360005b838110156104aa57808201518184015260208101905061048f565b50505050905001935050505060405180910390f35b34156104ca57600080fd5b610515600480803573ffffffffffffffffffffffffffffffffffffffff1690602001909190803573ffffffffffffffffffffffffffffffffffffffff16906020019091905050610944565b005b341561052257600080fd5b61054a6004808035906020019091908035906020019091908035906020019091905050610ae0565b6040518083815260200180602001828103825283818151815260200191508051906020019060200280838360005b83811015610593578082015181840152602081019050610578565b50505050905001935050505060405180910390f35b34156105b357600080fd5b6105df600480803573ffffffffffffffffffffffffffffffffffffffff16906020019091905050610b24565b6040518082815260200191505060405180910390f35b341561060057600080fd5b61062c600480803573ffffffffffffffffffffffffffffffffffffffff16906020019091905050610b5c565b604051808460ff1660ff16815260200183600019166000191681526020018260001916600019168152602001935050505060405180910390f35b341561067157600080fd5b6106c860048080359060200190919080359060200190919080359060200190919080359060200190820180359060200191909192908035906020019091908035906020019091908035906020019091905050610ba0565b6040518083815260200180602001828103825283818151815260200191508051906020019060200280838360005b838110156107115780820151818401526020810190506106f6565b50505050905001935050505060405180910390f35b341561073157600080fd5b61075d600480803573ffffffffffffffffffffffffffffffffffffffff16906020019091905050610c1c565b005b610767613e18565b610793600160009054906101000a900473ffffffffffffffffffffffffffffffffffffffff1683610d71565b9050919050565b60006107ca600160009054906101000a900473ffffffffffffffffffffffffffffffffffffffff16858585610e2d565b90509392505050565b6000806000610804600160009054906101000a900473ffffffffffffffffffffffffffffffffffffffff1685610e45565b9250925092509193909250565b6000806000806000610845600160009054906101000a900473ffffffffffffffffffffffffffffffffffffffff168761118d565b9450945094509450945091939590929450565b600160149054906101000a900460ff1681565b6000806000806000806108a0600160009054906101000a900473ffffffffffffffffffffffffffffffffffffffff1688611703565b95509550955095509550955091939550919395565b6000809054906101000a900473ffffffffffffffffffffffffffffffffffffffff1681565b600160009054906101000a900473ffffffffffffffffffffffffffffffffffffffff1681565b600061090a613e18565b610938600160009054906101000a900473ffffffffffffffffffffffffffffffffffffffff16868686611d8e565b91509150935093915050565b816000809054906101000a900473ffffffffffffffffffffffffffffffffffffffff1673ffffffffffffffffffffffffffffffffffffffff168173ffffffffffffffffffffffffffffffffffffffff16148015610abc5750600160009054906101000a900473ffffffffffffffffffffffffffffffffffffffff1673ffffffffffffffffffffffffffffffffffffffff16634c77e5ba60405180807f6f646c6c2f6f776e657200000000000000000000000000000000000000000000815250600a01905060405180910390206000604051602001526040518263ffffffff167c0100000000000000000000000000000000000000000000000000000000028152600401808260001916600019168152602001915050602060405180830381600087803b1515610a7257600080fd5b6102c65a03f11515610a8357600080fd5b5050506040518051905073ffffffffffffffffffffffffffffffffffffffff168173ffffffffffffffffffffffffffffffffffffffff16145b1515610ac757600080fd5b8173ffffffffffffffffffffffffffffffffffffffff16ff5b6000610aea613e18565b610b18600160009054906101000a900473ffffffffffffffffffffffffffffffffffffffff16868686611dc0565b91509150935093915050565b6000610b52600160009054906101000a900473ffffffffffffffffffffffffffffffffffffffff1683611df2565b60ff169050919050565b6000806000610b8d600160009054906101000a900473ffffffffffffffffffffffffffffffffffffffff1685611f0e565b8093508194508295505050509193909250565b6000610baa613e18565b610c0b600160009054906101000a900473ffffffffffffffffffffffffffffffffffffffff168b8b8b8b8b808060200260200160405190810160405280939291908181526020018383602002808284378201915050505050508a8a8a612256565b915091509850989650505050505050565b6000809054906101000a900473ffffffffffffffffffffffffffffffffffffffff1673ffffffffffffffffffffffffffffffffffffffff163373ffffffffffffffffffffffffffffffffffffffff16141515610c7757600080fd5b600073ffffffffffffffffffffffffffffffffffffffff168173ffffffffffffffffffffffffffffffffffffffff1614151515610cb357600080fd5b8073ffffffffffffffffffffffffffffffffffffffff166000809054906101000a900473ffffffffffffffffffffffffffffffffffffffff1673ffffffffffffffffffffffffffffffffffffffff167f8be0079c531659141344cd1fd0a4f28419497f9722a3daafe3b4186f6b6457e060405160405180910390a3806000806101000a81548173ffffffffffffffffffffffffffffffffffffffff021916908373ffffffffffffffffffffffffffffffffffffffff16021790555050565b610d79613e18565b610e2583836040805190810160405280600f81526020017f70617469656e742f64656e7469737400000000000000000000000000000000008152506040805190810160405280601681526020017f70617469656e742f64656e74697374732d636f756e74000000000000000000008152506040805190810160405280601381526020017f70617469656e742f64656e746973742d6b6579000000000000000000000000008152506122bc565b905092915050565b6000610e3b85858585612659565b9050949350505050565b60008060008473ffffffffffffffffffffffffffffffffffffffff166317e7dd228560405180807f757365722f69732d6f646c6c2d64656e746973743f00000000000000000000008152506015018273ffffffffffffffffffffffffffffffffffffffff1673ffffffffffffffffffffffffffffffffffffffff166c0100000000000000000000000002815260140191505060405180910390206000604051602001526040518263ffffffff167c0100000000000000000000000000000000000000000000000000000000028152600401808260001916600019168152602001915050602060405180830381600087803b1515610f4157600080fd5b6102c65a03f11515610f5257600080fd5b5050506040518051905092508473ffffffffffffffffffffffffffffffffffffffff166317e7dd228560405180807f757365722f69732d617661696c61626c653f00000000000000000000000000008152506012018273ffffffffffffffffffffffffffffffffffffffff1673ffffffffffffffffffffffffffffffffffffffff166c0100000000000000000000000002815260140191505060405180910390206000604051602001526040518263ffffffff167c0100000000000000000000000000000000000000000000000000000000028152600401808260001916600019168152602001915050602060405180830381600087803b151561105557600080fd5b6102c65a03f1151561106657600080fd5b5050506040518051905091508473ffffffffffffffffffffffffffffffffffffffff1663025ec81a8560405180807f64656e746973742f636f6d70616e792d6e616d650000000000000000000000008152506014018273ffffffffffffffffffffffffffffffffffffffff1673ffffffffffffffffffffffffffffffffffffffff166c0100000000000000000000000002815260140191505060405180910390206000604051602001526040518263ffffffff167c0100000000000000000000000000000000000000000000000000000000028152600401808260001916600019168152602001915050602060405180830381600087803b151561116957600080fd5b6102c65a03f1151561117a57600080fd5b5050506040518051905090509250925092565b60008060008060008673ffffffffffffffffffffffffffffffffffffffff16637a0e03ec8760405180807f757365722f7479706500000000000000000000000000000000000000000000008152506009018273ffffffffffffffffffffffffffffffffffffffff1673ffffffffffffffffffffffffffffffffffffffff166c0100000000000000000000000002815260140191505060405180910390206000604051602001526040518263ffffffff167c0100000000000000000000000000000000000000000000000000000000028152600401808260001916600019168152602001915050602060405180830381600087803b151561128c57600080fd5b6102c65a03f1151561129d57600080fd5b5050506040518051905094508673ffffffffffffffffffffffffffffffffffffffff1663025ec81a8760405180807f757365722f6e616d6500000000000000000000000000000000000000000000008152506009018273ffffffffffffffffffffffffffffffffffffffff1673ffffffffffffffffffffffffffffffffffffffff166c0100000000000000000000000002815260140191505060405180910390206000604051602001526040518263ffffffff167c0100000000000000000000000000000000000000000000000000000000028152600401808260001916600019168152602001915050602060405180830381600087803b15156113a057600080fd5b6102c65a03f115156113b157600080fd5b5050506040518051905093508673ffffffffffffffffffffffffffffffffffffffff1663025ec81a8760405180807f757365722f656d61696c00000000000000000000000000000000000000000000815250600a018273ffffffffffffffffffffffffffffffffffffffff1673ffffffffffffffffffffffffffffffffffffffff166c0100000000000000000000000002815260140191505060405180910390206000604051602001526040518263ffffffff167c0100000000000000000000000000000000000000000000000000000000028152600401808260001916600019168152602001915050602060405180830381600087803b15156114b457600080fd5b6102c65a03f115156114c557600080fd5b5050506040518051905092508673ffffffffffffffffffffffffffffffffffffffff1663025ec81a8760405180807f757365722f677261766174617200000000000000000000000000000000000000815250600d018273ffffffffffffffffffffffffffffffffffffffff1673ffffffffffffffffffffffffffffffffffffffff166c0100000000000000000000000002815260140191505060405180910390206000604051602001526040518263ffffffff167c0100000000000000000000000000000000000000000000000000000000028152600401808260001916600019168152602001915050602060405180830381600087803b15156115c857600080fd5b6102c65a03f115156115d957600080fd5b5050506040518051905091508673ffffffffffffffffffffffffffffffffffffffff16637a0e03ec8760405180807f757365722f737461747573000000000000000000000000000000000000000000815250600b018273ffffffffffffffffffffffffffffffffffffffff1673ffffffffffffffffffffffffffffffffffffffff166c0100000000000000000000000002815260140191505060405180910390206000604051602001526040518263ffffffff167c0100000000000000000000000000000000000000000000000000000000028152600401808260001916600019168152602001915050602060405180830381600087803b15156116dc57600080fd5b6102c65a03f115156116ed57600080fd5b5050506040518051905090509295509295909350565b6000806000806000808773ffffffffffffffffffffffffffffffffffffffff1663025ec81a8860405180807f757365722f737472656574000000000000000000000000000000000000000000815250600b018273ffffffffffffffffffffffffffffffffffffffff1673ffffffffffffffffffffffffffffffffffffffff166c0100000000000000000000000002815260140191505060405180910390206000604051602001526040518263ffffffff167c0100000000000000000000000000000000000000000000000000000000028152600401808260001916600019168152602001915050602060405180830381600087803b151561180357600080fd5b6102c65a03f1151561181457600080fd5b5050506040518051905095508773ffffffffffffffffffffffffffffffffffffffff1663025ec81a8860405180807f757365722f6369747900000000000000000000000000000000000000000000008152506009018273ffffffffffffffffffffffffffffffffffffffff1673ffffffffffffffffffffffffffffffffffffffff166c0100000000000000000000000002815260140191505060405180910390206000604051602001526040518263ffffffff167c0100000000000000000000000000000000000000000000000000000000028152600401808260001916600019168152602001915050602060405180830381600087803b151561191757600080fd5b6102c65a03f1151561192857600080fd5b5050506040518051905094508773ffffffffffffffffffffffffffffffffffffffff1663025ec81a8860405180807f757365722f70686f6e652d6e756d6265720000000000000000000000000000008152506011018273ffffffffffffffffffffffffffffffffffffffff1673ffffffffffffffffffffffffffffffffffffffff166c0100000000000000000000000002815260140191505060405180910390206000604051602001526040518263ffffffff167c0100000000000000000000000000000000000000000000000000000000028152600401808260001916600019168152602001915050602060405180830381600087803b1515611a2b57600080fd5b6102c65a03f11515611a3c57600080fd5b5050506040518051905093508773ffffffffffffffffffffffffffffffffffffffff1663bdc963d88860405180807f757365722f737461746500000000000000000000000000000000000000000000815250600a018273ffffffffffffffffffffffffffffffffffffffff1673ffffffffffffffffffffffffffffffffffffffff166c0100000000000000000000000002815260140191505060405180910390206000604051602001526040518263ffffffff167c0100000000000000000000000000000000000000000000000000000000028152600401808260001916600019168152602001915050602060405180830381600087803b1515611b3f57600080fd5b6102c65a03f11515611b5057600080fd5b5050506040518051905092508773ffffffffffffffffffffffffffffffffffffffff1663025ec81a8860405180807f757365722f7a69702d636f646500000000000000000000000000000000000000815250600d018273ffffffffffffffffffffffffffffffffffffffff1673ffffffffffffffffffffffffffffffffffffffff166c0100000000000000000000000002815260140191505060405180910390206000604051602001526040518263ffffffff167c0100000000000000000000000000000000000000000000000000000000028152600401808260001916600019168152602001915050602060405180830381600087803b1515611c5357600080fd5b6102c65a03f11515611c6457600080fd5b5050506040518051905091508773ffffffffffffffffffffffffffffffffffffffff1663bdc963d88860405180807f757365722f636f756e7472790000000000000000000000000000000000000000815250600c018273ffffffffffffffffffffffffffffffffffffffff1673ffffffffffffffffffffffffffffffffffffffff166c0100000000000000000000000002815260140191505060405180910390206000604051602001526040518263ffffffff167c0100000000000000000000000000000000000000000000000000000000028152600401808260001916600019168152602001915050602060405180830381600087803b1515611d6757600080fd5b6102c65a03f11515611d7857600080fd5b5050506040518051905090509295509295509295565b6000611d98613e18565b611da1866128bc565b9050611daf81868686612940565b809250819350505094509492505050565b6000611dca613e18565b611dd3866129b0565b9050611de181868686612940565b809250819350505094509492505050565b60008273ffffffffffffffffffffffffffffffffffffffff16637a0e03ec8360405180807f64656e746973742f617665726167652d726174696e67000000000000000000008152506016018273ffffffffffffffffffffffffffffffffffffffff1673ffffffffffffffffffffffffffffffffffffffff166c0100000000000000000000000002815260140191505060405180910390206000604051602001526040518263ffffffff167c0100000000000000000000000000000000000000000000000000000000028152600401808260001916600019168152602001915050602060405180830381600087803b1515611eeb57600080fd5b6102c65a03f11515611efc57600080fd5b50505060405180519050905092915050565b60008060008473ffffffffffffffffffffffffffffffffffffffff16637a0e03ec8560405180807f757365722f67656e646572000000000000000000000000000000000000000000815250600b018273ffffffffffffffffffffffffffffffffffffffff1673ffffffffffffffffffffffffffffffffffffffff166c0100000000000000000000000002815260140191505060405180910390206000604051602001526040518263ffffffff167c0100000000000000000000000000000000000000000000000000000000028152600401808260001916600019168152602001915050602060405180830381600087803b151561200a57600080fd5b6102c65a03f1151561201b57600080fd5b5050506040518051905092508473ffffffffffffffffffffffffffffffffffffffff1663025ec81a8560405180807f757365722f736f6369616c2d73656375726974792d6e756d6265720000000000815250601b018273ffffffffffffffffffffffffffffffffffffffff1673ffffffffffffffffffffffffffffffffffffffff166c0100000000000000000000000002815260140191505060405180910390206000604051602001526040518263ffffffff167c0100000000000000000000000000000000000000000000000000000000028152600401808260001916600019168152602001915050602060405180830381600087803b151561211e57600080fd5b6102c65a03f1151561212f57600080fd5b5050506040518051905091508473ffffffffffffffffffffffffffffffffffffffff1663025ec81a8560405180807f757365722f626972746864617900000000000000000000000000000000000000815250600d018273ffffffffffffffffffffffffffffffffffffffff1673ffffffffffffffffffffffffffffffffffffffff166c0100000000000000000000000002815260140191505060405180910390206000604051602001526040518263ffffffff167c0100000000000000000000000000000000000000000000000000000000028152600401808260001916600019168152602001915050602060405180830381600087803b151561223257600080fd5b6102c65a03f1151561224357600080fd5b5050506040518051905090509250925092565b6000612260613e18565b612268613e18565b612270613e18565b61227c8c8b8b8b612a34565b915061228a8c8b8b8e612b72565b90506122978c8383612c6b565b92506122a583888888612940565b809450819550505050509850989650505050505050565b6122c4613e18565b6000806000806122d58a8a89612d82565b9350836040518059106122e55750595b9080825280602002602001820160405250945060009250600091505b83821015612640578973ffffffffffffffffffffffffffffffffffffffff16634c77e5ba878b856040518084805190602001908083835b60208310151561235d5780518252602082019150602081019050602083039250612338565b6001836020036101000a0380198251168184511680821785525050505050509050018373ffffffffffffffffffffffffffffffffffffffff1673ffffffffffffffffffffffffffffffffffffffff166c01000000000000000000000000028152601401828152602001935050505060405180910390206000604051602001526040518263ffffffff167c0100000000000000000000000000000000000000000000000000000000028152600401808260001916600019168152602001915050602060405180830381600087803b151561243557600080fd5b6102c65a03f1151561244657600080fd5b50505060405180519050905060018a73ffffffffffffffffffffffffffffffffffffffff16637a0e03ec8a8c856040518084805190602001908083835b6020831015156124a85780518252602082019150602081019050602083039250612483565b6001836020036101000a0380198251168184511680821785525050505050509050018373ffffffffffffffffffffffffffffffffffffffff1673ffffffffffffffffffffffffffffffffffffffff166c010000000000000000000000000281526014018273ffffffffffffffffffffffffffffffffffffffff1673ffffffffffffffffffffffffffffffffffffffff166c01000000000000000000000000028152601401935050505060405180910390206000604051602001526040518263ffffffff167c0100000000000000000000000000000000000000000000000000000000028152600401808260001916600019168152602001915050602060405180830381600087803b15156125bb57600080fd5b6102c65a03f115156125cc57600080fd5b5050506040518051905060ff161415612633578085848151811015156125ee57fe5b9060200190602002019073ffffffffffffffffffffffffffffffffffffffff16908173ffffffffffffffffffffffffffffffffffffffff168152505082806001019350505b8180600101925050612301565b61264a8386612ecc565b94505050505095945050505050565b60006001841415612785578473ffffffffffffffffffffffffffffffffffffffff1663bdc963d8838560405180807f64656e746973742f7363616e2d736572766963652f66656500000000000000008152506018018373ffffffffffffffffffffffffffffffffffffffff1673ffffffffffffffffffffffffffffffffffffffff166c010000000000000000000000000281526014018281526020019250505060405180910390206000604051602001526040518263ffffffff167c0100000000000000000000000000000000000000000000000000000000028152600401808260001916600019168152602001915050602060405180830381600087803b151561276357600080fd5b6102c65a03f1151561277457600080fd5b5050506040518051905090506128b4565b60028414156128af578473ffffffffffffffffffffffffffffffffffffffff1663bdc963d8838560405180807f64656e746973742f74726561746d656e742d736572766963652f666565000000815250601d018373ffffffffffffffffffffffffffffffffffffffff1673ffffffffffffffffffffffffffffffffffffffff166c010000000000000000000000000281526014018281526020019250505060405180910390206000604051602001526040518263ffffffff167c0100000000000000000000000000000000000000000000000000000000028152600401808260001916600019168152602001915050602060405180830381600087803b151561288d57600080fd5b6102c65a03f1151561289e57600080fd5b5050506040518051905090506128b4565b600090505b949350505050565b6128c4613e18565b612939826040805190810160405280600c81526020017f64656e74697374732f69647300000000000000000000000000000000000000008152506040805190810160405280600e81526020017f64656e74697374732f636f756e74000000000000000000000000000000000000815250612f8f565b9050919050565b600061294a613e18565b855191506000865111156129a6578551851115612976578161296d600088612ecc565b915091506129a7565b85518486011115612988578486510393505b6129a386875187860181151561299a57fe5b0686600161322d565b90505b5b94509492505050565b6129b8613e18565b612a2d826040805190810160405280600c81526020017f6d616e61676572732f69647300000000000000000000000000000000000000008152506040805190810160405280600e81526020017f6d616e61676572732f636f756e74000000000000000000000000000000000000815250612f8f565b9050919050565b612a3c613e18565b612a44613e18565b600080600080612a558a8a8a6133d4565b94508451604051805910612a665750595b9080825280602002602001820160405250955060009350600092505b8451831015612b59578483815181101515612a9957fe5b906020019060200201519150612ab18a8a8a85612659565b9050866000815181101515612ac257fe5b906020019060200201518110158015612af35750866001815181101515612ae557fe5b906020019060200201518111155b15612b4c57818685815181101515612b0757fe5b9060200190602002019073ffffffffffffffffffffffffffffffffffffffff16908173ffffffffffffffffffffffffffffffffffffffff168152505083806001019450505b8280600101935050612a82565b612b638487612ecc565b95505050505050949350505050565b612b7a613e18565b612b82613e18565b6000806000612b928989896133d4565b93508351604051805910612ba35750595b9080825280602002602001820160405250945060009250600091505b8351821015612c53578382815181101515612bd657fe5b906020019060200201519050612bed89828861355c565b15612c4657808584815181101515612c0157fe5b9060200190602002019073ffffffffffffffffffffffffffffffffffffffff16908173ffffffffffffffffffffffffffffffffffffffff168152505082806001019350505b8180600101925050612bbf565b612c5d8386612ecc565b945050505050949350505050565b612c73613e18565b60008473ffffffffffffffffffffffffffffffffffffffff1663bdc963d860405180807f64656e74697374732f636f756e74000000000000000000000000000000000000815250600e01905060405180910390206000604051602001526040518263ffffffff167c0100000000000000000000000000000000000000000000000000000000028152600401808260001916600019168152602001915050602060405180830381600087803b1515612d2957600080fd5b6102c65a03f11515612d3a57600080fd5b5050506040518051905090506000811415612d5757819150612d7a565b612d608461368d565b9350612d6b8361368d565b9250612d7784846137f6565b91505b509392505050565b60008373ffffffffffffffffffffffffffffffffffffffff1663bdc963d883856040518083805190602001908083835b602083101515612dd75780518252602082019150602081019050602083039250612db2565b6001836020036101000a0380198251168184511680821785525050505050509050018273ffffffffffffffffffffffffffffffffffffffff1673ffffffffffffffffffffffffffffffffffffffff166c010000000000000000000000000281526014019250505060405180910390206000604051602001526040518263ffffffff167c0100000000000000000000000000000000000000000000000000000000028152600401808260001916600019168152602001915050602060405180830381600087803b1515612ea857600080fd5b6102c65a03f11515612eb957600080fd5b5050506040518051905090509392505050565b612ed4613e18565b60008251841115612ee757829150612f88565b83604051805910612ef55750595b90808252806020026020018201604052509150600090505b83811015612f84578281815181101515612f2357fe5b906020019060200201518282815181101515612f3b57fe5b9060200190602002019073ffffffffffffffffffffffffffffffffffffffff16908173ffffffffffffffffffffffffffffffffffffffff16815250508080600101915050612f0d565b8191505b5092915050565b612f97613e18565b6000808573ffffffffffffffffffffffffffffffffffffffff1663bdc963d8856040518082805190602001908083835b602083101515612fec5780518252602082019150602081019050602083039250612fc7565b6001836020036101000a03801982511681845116808217855250505050505090500191505060405180910390206000604051602001526040518263ffffffff167c0100000000000000000000000000000000000000000000000000000000028152600401808260001916600019168152602001915050602060405180830381600087803b151561307b57600080fd5b6102c65a03f1151561308c57600080fd5b505050604051805190509150816040518059106130a65750595b90808252806020026020018201604052509250600090505b81811015613221578573ffffffffffffffffffffffffffffffffffffffff16634c77e5ba86836040518083805190602001908083835b60208310151561311957805182526020820191506020810190506020830392506130f4565b6001836020036101000a0380198251168184511680821785525050505050509050018281526020019250505060405180910390206000604051602001526040518263ffffffff167c0100000000000000000000000000000000000000000000000000000000028152600401808260001916600019168152602001915050602060405180830381600087803b15156131af57600080fd5b6102c65a03f115156131c057600080fd5b5050506040518051905083828151811015156131d857fe5b9060200190602002019073ffffffffffffffffffffffffffffffffffffffff16908173ffffffffffffffffffffffffffffffffffffffff168152505080806001019150506130be565b82925050509392505050565b613235613e18565b600080600080600093508851925082881015806132525750600087145b1561325f578494506133c8565b8660405180591061326d5750595b908082528060200260200182016040525094508791505b868801821015613312578183141561329b57613312565b88828151811015156132a957fe5b9060200190602002015185858151811015156132c157fe5b9060200190602002019073ffffffffffffffffffffffffffffffffffffffff16908173ffffffffffffffffffffffffffffffffffffffff168152505083806001019450508180600101925050613284565b85801561331e57508684105b156133bb578387039050600091505b80821115156133ba5783871415613343576133ba565b888281518110151561335157fe5b90602001906020020151858581518110151561336957fe5b9060200190602002019073ffffffffffffffffffffffffffffffffffffffff16908173ffffffffffffffffffffffffffffffffffffffff16815250508380600101945050818060010192505061332d565b5b6133c58486612ecc565b94505b50505050949350505050565b6133dc613e18565b60018314156134985761349184836040805190810160405280601481526020017f7363616e2d736572766963652f64656e746973740000000000000000000000008152506040805190810160405280601b81526020017f7363616e2d736572766963652f64656e74697374732d636f756e7400000000008152506040805190810160405280601881526020017f7363616e2d736572766963652f64656e746973742d6b657900000000000000008152506139e2565b9050613555565b60028314156135545761354d84836040805190810160405280601981526020017f74726561746d656e742d736572766963652f64656e74697374000000000000008152506040805190810160405280602081526020017f74726561746d656e742d736572766963652f64656e74697374732d636f756e748152506040805190810160405280601d81526020017f74726561746d656e742d736572766963652f64656e746973742d6b65790000008152506139e2565b9050613555565b5b9392505050565b60008082141561356f5760019050613686565b8373ffffffffffffffffffffffffffffffffffffffff1663bdc963d88460405180807f757365722f737461746500000000000000000000000000000000000000000000815250600a018273ffffffffffffffffffffffffffffffffffffffff1673ffffffffffffffffffffffffffffffffffffffff166c0100000000000000000000000002815260140191505060405180910390206000604051602001526040518263ffffffff167c0100000000000000000000000000000000000000000000000000000000028152600401808260001916600019168152602001915050602060405180830381600087803b151561366657600080fd5b6102c65a03f1151561367757600080fd5b50505060405180519050821490505b9392505050565b613695613e18565b6000806000600192505b84518310156137eb5784838151811015156136b657fe5b9060200190602002015191508290505b60008111801561371b57508173ffffffffffffffffffffffffffffffffffffffff1685600183038151811015156136f957fe5b9060200190602002015173ffffffffffffffffffffffffffffffffffffffff16115b1561379357846001820381518110151561373157fe5b90602001906020020151858281518110151561374957fe5b9060200190602002019073ffffffffffffffffffffffffffffffffffffffff16908173ffffffffffffffffffffffffffffffffffffffff16815250508080600190039150506136c6565b8185828151811015156137a257fe5b9060200190602002019073ffffffffffffffffffffffffffffffffffffffff16908173ffffffffffffffffffffffffffffffffffffffff1681525050828060010193505061369f565b849350505050919050565b6137fe613e18565b60008060008060008751945086519350600085148061381d5750600084145b1561382a578595506139d7565b846040518059106138385750595b908082528060200260200182016040525095506000925060009150600090505b848310801561386657508382105b156139ca57868281518110151561387957fe5b9060200190602002015173ffffffffffffffffffffffffffffffffffffffff1688848151811015156138a757fe5b9060200190602002015173ffffffffffffffffffffffffffffffffffffffff1611156138da5781806001019250506139c5565b86828151811015156138e857fe5b9060200190602002015173ffffffffffffffffffffffffffffffffffffffff16888481518110151561391657fe5b9060200190602002015173ffffffffffffffffffffffffffffffffffffffff1610156139495782806001019350506139c4565b878381518110151561395757fe5b90602001906020020151868281518110151561396f57fe5b9060200190602002019073ffffffffffffffffffffffffffffffffffffffff16908173ffffffffffffffffffffffffffffffffffffffff16815250508280600101935050818060010192505080806001019150505b5b613858565b6139d48187612ecc565b95505b505050505092915050565b6139ea613e18565b6000806000806139fb8a8a89613d09565b935083604051805910613a0b5750595b9080825280602002602001820160405250945060009250600091505b83821015613cf0578973ffffffffffffffffffffffffffffffffffffffff16634c77e5ba878b856040518084805190602001908083835b602083101515613a835780518252602082019150602081019050602083039250613a5e565b6001836020036101000a038019825116818451168082178552505050505050905001838152602001828152602001935050505060405180910390206000604051602001526040518263ffffffff167c0100000000000000000000000000000000000000000000000000000000028152600401808260001916600019168152602001915050602060405180830381600087803b1515613b2057600080fd5b6102c65a03f11515613b3157600080fd5b50505060405180519050905060018a73ffffffffffffffffffffffffffffffffffffffff16637a0e03ec8a8c856040518084805190602001908083835b602083101515613b935780518252602082019150602081019050602083039250613b6e565b6001836020036101000a0380198251168184511680821785525050505050509050018381526020018273ffffffffffffffffffffffffffffffffffffffff1673ffffffffffffffffffffffffffffffffffffffff166c01000000000000000000000000028152601401935050505060405180910390206000604051602001526040518263ffffffff167c0100000000000000000000000000000000000000000000000000000000028152600401808260001916600019168152602001915050602060405180830381600087803b1515613c6b57600080fd5b6102c65a03f11515613c7c57600080fd5b5050506040518051905060ff161415613ce357808584815181101515613c9e57fe5b9060200190602002019073ffffffffffffffffffffffffffffffffffffffff16908173ffffffffffffffffffffffffffffffffffffffff168152505082806001019350505b8180600101925050613a27565b613cfa8386612ecc565b94505050505095945050505050565b60008373ffffffffffffffffffffffffffffffffffffffff1663bdc963d883856040518083805190602001908083835b602083101515613d5e5780518252602082019150602081019050602083039250613d39565b6001836020036101000a0380198251168184511680821785525050505050509050018281526020019250505060405180910390206000604051602001526040518263ffffffff167c0100000000000000000000000000000000000000000000000000000000028152600401808260001916600019168152602001915050602060405180830381600087803b1515613df457600080fd5b6102c65a03f11515613e0557600080fd5b5050506040518051905090509392505050565b6020604051908101604052806000815250905600a165627a7a723058206d2642c969ffa390b8b292a2ddb05d7bf92fc57044e603625e253ad85a3f08050029",
  "source": "pragma solidity 0.4.18;\n\nimport \"./Restrictor.sol\";\nimport \"../lib/odll/userManager.sol\";\n\ncontract UserReader is Restrictor {\n\n  function UserReader(address _dbAddress) public {\n    require(_dbAddress != 0x0);\n    dbAddress = _dbAddress;\n  }\n\n  function getUserIdentityData(address userId)\n    external\n    view\n    returns (\n      uint8,\n      bytes32,\n      bytes32,\n      bytes32,\n      uint8\n    )\n  {\n    return userManager.getUserIdentityData(dbAddress, userId);\n  }\n\n  function getUserContactData(address userId)\n    external\n    view\n    returns (\n      bytes32,\n      bytes32,\n      bytes32,\n      uint,\n      bytes32,\n      uint\n    )\n  {\n    return userManager.getUserContactData(dbAddress, userId);\n  }\n\n  function getUserPersonalData(address userId)\n    external\n    view\n    returns (\n      uint8 gender,\n      bytes32 socialSecurityNumber,\n      bytes32 birthday\n    )\n  {\n    (gender, socialSecurityNumber, birthday) = userManager.getUserPersonalData(dbAddress, userId);\n  }\n\n  function getUserDentistsIds(address userId)\n    external\n    view\n    returns (\n      address[] dentistsIds\n    )\n  {\n    dentistsIds = userManager.getUserDentistsIds(dbAddress, userId);\n  }\n\n  function findDentists(\n    uint stateId,\n    uint serviceTypeId,\n    uint serviceId,\n    uint[] budget, // within budget range\n    uint offset, // starting from offset: 0-based\n    uint limit, // not more than limit\n    uint seed // seed value to give the illusion of randomisation\n    )\n      external\n      view\n      returns (\n        uint,\n        address[]\n      )\n  {\n    return userManager.findDentists(dbAddress, stateId, serviceTypeId, serviceId, budget, offset, limit, seed);\n  }\n\n  function getDentistIdentityData(address dentistId)\n    external\n    view\n    returns (\n      bool,\n      bool,\n      bytes32\n    ) {\n    return userManager.getDentistIdentityData(dbAddress, dentistId);\n  }\n\n  function getDentistFeeData(uint serviceTypeId, uint serviceId, address dentistId)\n    external\n    view\n    returns (\n      uint fee\n    ) {\n    fee = userManager.getDentistFeeData(dbAddress, serviceTypeId, serviceId, dentistId);\n  }\n\n  function getDentistRatingData(address dentistId)\n    external\n    view\n    returns (\n      uint rating\n    ) {\n    rating = userManager.getDentistAverageRating(dbAddress, dentistId);\n  }\n\n  function fetchDentists(\n    uint offset, // starting from offset: 0-based\n    uint limit, // not more than limit\n    uint seed // seed value to give the illusion of randomisation\n  )\n    external\n    view\n    returns (\n      uint,\n      address[]\n    )\n  {\n    return userManager.fetchDentists(dbAddress, offset, limit, seed);\n  }\n\n  function fetchManagers(\n    uint offset, // starting from offset: 0-based\n    uint limit, // not more than limit\n    uint seed // seed value to give the illusion of randomisation\n  )\n    external\n    view\n    returns (\n      uint,\n      address[]\n    )\n  {\n    return userManager.fetchManagers(dbAddress, offset, limit, seed);\n  }\n\n  function destroySelf(address callerAddress, address newContractAddress)\n    external\n    onlyOwnerCanCall(callerAddress)\n  {\n    selfdestruct(newContractAddress);\n  }\n}\n\n",
  "sourcePath": "/home/daniel/dev/vue/apps/oral-data-link/contracts/odll/UserReader.sol",
  "compiler": {
    "name": "solc",
    "version": "0.4.18+commit.9cf6e910.Emscripten.clang"
  },
  "schemaVersion": "1.0.1",
  "updatedAt": "2017-11-06T15:50:54.428Z"
}