{
  "contractName": "UserWriter",
  "abi": [
    {
      "constant": false,
      "inputs": [
        {
          "name": "dentistId",
          "type": "address"
        },
        {
          "name": "rating",
          "type": "uint8"
        }
      ],
      "name": "writeDentistRating",
      "outputs": [],
      "payable": false,
      "stateMutability": "nonpayable",
      "type": "function"
    },
    {
      "constant": false,
      "inputs": [
        {
          "name": "phoneNumber",
          "type": "bytes32"
        },
        {
          "name": "socialSecurityNumber",
          "type": "bytes32"
        },
        {
          "name": "birthday",
          "type": "bytes32"
        },
        {
          "name": "gender",
          "type": "uint8"
        }
      ],
      "name": "writeUserOptionalValues",
      "outputs": [],
      "payable": false,
      "stateMutability": "nonpayable",
      "type": "function"
    },
    {
      "constant": false,
      "inputs": [
        {
          "name": "userType",
          "type": "uint8"
        },
        {
          "name": "name",
          "type": "bytes32"
        },
        {
          "name": "email",
          "type": "bytes32"
        },
        {
          "name": "gravatar",
          "type": "bytes32"
        }
      ],
      "name": "writeUserIdentity",
      "outputs": [],
      "payable": false,
      "stateMutability": "nonpayable",
      "type": "function"
    },
    {
      "constant": false,
      "inputs": [
        {
          "name": "userId",
          "type": "address"
        }
      ],
      "name": "unblockUser",
      "outputs": [],
      "payable": false,
      "stateMutability": "nonpayable",
      "type": "function"
    },
    {
      "constant": false,
      "inputs": [
        {
          "name": "userId",
          "type": "address"
        }
      ],
      "name": "blockUser",
      "outputs": [],
      "payable": false,
      "stateMutability": "nonpayable",
      "type": "function"
    },
    {
      "constant": false,
      "inputs": [
        {
          "name": "dentistId",
          "type": "address"
        }
      ],
      "name": "writeUserDentistId",
      "outputs": [],
      "payable": false,
      "stateMutability": "nonpayable",
      "type": "function"
    },
    {
      "constant": true,
      "inputs": [],
      "name": "smartContractStatus",
      "outputs": [
        {
          "name": "",
          "type": "uint8"
        }
      ],
      "payable": false,
      "stateMutability": "view",
      "type": "function"
    },
    {
      "constant": false,
      "inputs": [
        {
          "name": "userType",
          "type": "uint8"
        }
      ],
      "name": "determineEvent",
      "outputs": [],
      "payable": false,
      "stateMutability": "nonpayable",
      "type": "function"
    },
    {
      "constant": false,
      "inputs": [
        {
          "name": "isODLLDentist",
          "type": "bool"
        },
        {
          "name": "isAvailable",
          "type": "bool"
        },
        {
          "name": "companyName",
          "type": "bytes32"
        }
      ],
      "name": "continueWritingDentist",
      "outputs": [],
      "payable": false,
      "stateMutability": "nonpayable",
      "type": "function"
    },
    {
      "constant": true,
      "inputs": [],
      "name": "owner",
      "outputs": [
        {
          "name": "",
          "type": "address"
        }
      ],
      "payable": false,
      "stateMutability": "view",
      "type": "function"
    },
    {
      "constant": true,
      "inputs": [],
      "name": "dbAddress",
      "outputs": [
        {
          "name": "",
          "type": "address"
        }
      ],
      "payable": false,
      "stateMutability": "view",
      "type": "function"
    },
    {
      "constant": false,
      "inputs": [
        {
          "name": "callerAddress",
          "type": "address"
        },
        {
          "name": "newContractAddress",
          "type": "address"
        }
      ],
      "name": "destroySelf",
      "outputs": [],
      "payable": false,
      "stateMutability": "nonpayable",
      "type": "function"
    },
    {
      "constant": false,
      "inputs": [
        {
          "name": "officialId",
          "type": "address"
        },
        {
          "name": "userType",
          "type": "uint8"
        }
      ],
      "name": "addOfficialToODLL",
      "outputs": [],
      "payable": false,
      "stateMutability": "nonpayable",
      "type": "function"
    },
    {
      "constant": false,
      "inputs": [
        {
          "name": "userType",
          "type": "uint8"
        },
        {
          "name": "name",
          "type": "bytes32"
        },
        {
          "name": "email",
          "type": "bytes32"
        },
        {
          "name": "gravatar",
          "type": "bytes32"
        },
        {
          "name": "street",
          "type": "bytes32"
        },
        {
          "name": "city",
          "type": "bytes32"
        },
        {
          "name": "stateId",
          "type": "uint256"
        },
        {
          "name": "zipCode",
          "type": "bytes32"
        },
        {
          "name": "countryId",
          "type": "uint256"
        },
        {
          "name": "phoneNumber",
          "type": "bytes32"
        },
        {
          "name": "socialSecurityNumber",
          "type": "bytes32"
        },
        {
          "name": "birthday",
          "type": "bytes32"
        },
        {
          "name": "gender",
          "type": "uint8"
        }
      ],
      "name": "writeUser",
      "outputs": [],
      "payable": false,
      "stateMutability": "nonpayable",
      "type": "function"
    },
    {
      "constant": false,
      "inputs": [
        {
          "name": "userId",
          "type": "address"
        }
      ],
      "name": "addODLLDentist",
      "outputs": [],
      "payable": false,
      "stateMutability": "nonpayable",
      "type": "function"
    },
    {
      "constant": false,
      "inputs": [
        {
          "name": "street",
          "type": "bytes32"
        },
        {
          "name": "city",
          "type": "bytes32"
        },
        {
          "name": "stateId",
          "type": "uint256"
        },
        {
          "name": "zipCode",
          "type": "bytes32"
        },
        {
          "name": "countryId",
          "type": "uint256"
        }
      ],
      "name": "writeUserLocation",
      "outputs": [],
      "payable": false,
      "stateMutability": "nonpayable",
      "type": "function"
    },
    {
      "constant": false,
      "inputs": [
        {
          "name": "newOwner",
          "type": "address"
        }
      ],
      "name": "transferOwnership",
      "outputs": [],
      "payable": false,
      "stateMutability": "nonpayable",
      "type": "function"
    },
    {
      "inputs": [
        {
          "name": "_dbAddress",
          "type": "address"
        }
      ],
      "payable": false,
      "stateMutability": "nonpayable",
      "type": "constructor"
    },
    {
      "anonymous": false,
      "inputs": [
        {
          "indexed": false,
          "name": "userId",
          "type": "address"
        }
      ],
      "name": "OnAdminAdded",
      "type": "event"
    },
    {
      "anonymous": false,
      "inputs": [
        {
          "indexed": false,
          "name": "userId",
          "type": "address"
        }
      ],
      "name": "OnDentistAdded",
      "type": "event"
    },
    {
      "anonymous": false,
      "inputs": [
        {
          "indexed": false,
          "name": "userId",
          "type": "address"
        }
      ],
      "name": "OnManagerAdded",
      "type": "event"
    },
    {
      "anonymous": false,
      "inputs": [
        {
          "indexed": false,
          "name": "userId",
          "type": "address"
        }
      ],
      "name": "OnPatientAdded",
      "type": "event"
    },
    {
      "anonymous": false,
      "inputs": [
        {
          "indexed": false,
          "name": "status",
          "type": "uint8"
        }
      ],
      "name": "OnSmartContractStatusSet",
      "type": "event"
    },
    {
      "anonymous": false,
      "inputs": [
        {
          "indexed": true,
          "name": "previousOwner",
          "type": "address"
        },
        {
          "indexed": true,
          "name": "newOwner",
          "type": "address"
        }
      ],
      "name": "OwnershipTransferred",
      "type": "event"
    }
  ],
  "bytecode": "0x6060604052341561000f57600080fd5b604051602080620043d183398101604052808051906020019091905050336000806101000a81548173ffffffffffffffffffffffffffffffffffffffff021916908373ffffffffffffffffffffffffffffffffffffffff16021790555060008173ffffffffffffffffffffffffffffffffffffffff161415151561009257600080fd5b80600160006101000a81548173ffffffffffffffffffffffffffffffffffffffff021916908373ffffffffffffffffffffffffffffffffffffffff160217905550506142ed80620000e46000396000f3006060604052600436106100f0576000357c0100000000000000000000000000000000000000000000000000000000900463ffffffff16806222049c146100f55780630b61e3b51461013a5780631c5009981461018757806339d319e5146101d45780633da013251461020d57806343651b2a146102465780634c8ddddc1461027f578063526f6ce4146102ae578063760e56f3146102d45780638da5cb5b1461031157806391e06b6d14610366578063b16b2230146103bb578063c6b64a0814610413578063c73d867914610458578063e63a6ac714610511578063e962beac1461054a578063f2fde38b1461059d575b600080fd5b341561010057600080fd5b610138600480803573ffffffffffffffffffffffffffffffffffffffff1690602001909190803560ff169060200190919050506105d6565b005b341561014557600080fd5b610185600480803560001916906020019091908035600019169060200190919080356000191690602001909190803560ff1690602001909190505061063c565b005b341561019257600080fd5b6101d2600480803560ff16906020019091908035600019169060200190919080356000191690602001909190803560001916906020019091905050610672565b005b34156101df57600080fd5b61020b600480803573ffffffffffffffffffffffffffffffffffffffff169060200190919050506106a8565b005b341561021857600080fd5b610244600480803573ffffffffffffffffffffffffffffffffffffffff16906020019091905050610752565b005b341561025157600080fd5b61027d600480803573ffffffffffffffffffffffffffffffffffffffff169060200190919050506107fc565b005b341561028a57600080fd5b61029261082c565b604051808260ff1660ff16815260200191505060405180910390f35b34156102b957600080fd5b6102d2600480803560ff1690602001909190505061083f565b005b34156102df57600080fd5b61030f6004808035151590602001909190803515159060200190919080356000191690602001909190505061099c565b005b341561031c57600080fd5b610324610a54565b604051808273ffffffffffffffffffffffffffffffffffffffff1673ffffffffffffffffffffffffffffffffffffffff16815260200191505060405180910390f35b341561037157600080fd5b610379610a79565b604051808273ffffffffffffffffffffffffffffffffffffffff1673ffffffffffffffffffffffffffffffffffffffff16815260200191505060405180910390f35b34156103c657600080fd5b610411600480803573ffffffffffffffffffffffffffffffffffffffff1690602001909190803573ffffffffffffffffffffffffffffffffffffffff16906020019091905050610a9f565b005b341561041e57600080fd5b610456600480803573ffffffffffffffffffffffffffffffffffffffff1690602001909190803560ff16906020019091905050610c3b565b005b341561046357600080fd5b61050f600480803560ff1690602001909190803560001916906020019091908035600019169060200190919080356000191690602001909190803560001916906020019091908035600019169060200190919080359060200190919080356000191690602001909190803590602001909190803560001916906020019091908035600019169060200190919080356000191690602001909190803560ff16906020019091905050610ce7565b005b341561051c57600080fd5b610548600480803573ffffffffffffffffffffffffffffffffffffffff16906020019091905050610d62565b005b341561055557600080fd5b61059b6004808035600019169060200190919080356000191690602001909190803590602001909190803560001916906020019091908035906020019091905050610e0c565b005b34156105a857600080fd5b6105d4600480803573ffffffffffffffffffffffffffffffffffffffff16906020019091905050610e44565b005b60008273ffffffffffffffffffffffffffffffffffffffff1614158015610600575060008160ff16115b151561060b57600080fd5b610638600160009054906101000a900473ffffffffffffffffffffffffffffffffffffffff168383610f99565b5050565b61066c600160009054906101000a900473ffffffffffffffffffffffffffffffffffffffff163386868686611015565b50505050565b6106a2600160009054906101000a900473ffffffffffffffffffffffffffffffffffffffff16338686868661148d565b50505050565b6000809054906101000a900473ffffffffffffffffffffffffffffffffffffffff1673ffffffffffffffffffffffffffffffffffffffff163373ffffffffffffffffffffffffffffffffffffffff161480610708575061070733611cf2565b5b80610718575061071733611d19565b5b151561072357600080fd5b61074f600160009054906101000a900473ffffffffffffffffffffffffffffffffffffffff1682611d40565b50565b6000809054906101000a900473ffffffffffffffffffffffffffffffffffffffff1673ffffffffffffffffffffffffffffffffffffffff163373ffffffffffffffffffffffffffffffffffffffff1614806107b257506107b133611cf2565b5b806107c257506107c133611d19565b5b15156107cd57600080fd5b6107f9600160009054906101000a900473ffffffffffffffffffffffffffffffffffffffff1682611e52565b50565b610829600160009054906101000a900473ffffffffffffffffffffffffffffffffffffffff163383611f64565b50565b600160149054906101000a900460ff1681565b60018160ff1614156108b3577f33ab88bf15c608bd108a5e190f7ede9805cca0d26edb4c498910efed7bd4548233604051808273ffffffffffffffffffffffffffffffffffffffff1673ffffffffffffffffffffffffffffffffffffffff16815260200191505060405180910390a1610999565b60038160ff161415610927577f071c1d6c34c33579b7c602d142075cbfcd78a1f17a66d704fa952844a3c5e08e33604051808273ffffffffffffffffffffffffffffffffffffffff1673ffffffffffffffffffffffffffffffffffffffff16815260200191505060405180910390a1610998565b60048160ff161415610997577fddce97d6f5184391465a772abc24fb939b4e8f99851a6a1b823d08b0f7abea9833604051808273ffffffffffffffffffffffffffffffffffffffff1673ffffffffffffffffffffffffffffffffffffffff16815260200191505060405180910390a15b5b5b50565b6000600160149054906101000a900460ff1660ff161415156109bd57600080fd5b6109ec600160009054906101000a900473ffffffffffffffffffffffffffffffffffffffff1633858585612016565b7f9b6411b9015bc6e70c90132714b8568e56698ce0b7522e6057d3ba1e3486253733604051808273ffffffffffffffffffffffffffffffffffffffff1673ffffffffffffffffffffffffffffffffffffffff16815260200191505060405180910390a1505050565b6000809054906101000a900473ffffffffffffffffffffffffffffffffffffffff1681565b600160009054906101000a900473ffffffffffffffffffffffffffffffffffffffff1681565b816000809054906101000a900473ffffffffffffffffffffffffffffffffffffffff1673ffffffffffffffffffffffffffffffffffffffff168173ffffffffffffffffffffffffffffffffffffffff16148015610c175750600160009054906101000a900473ffffffffffffffffffffffffffffffffffffffff1673ffffffffffffffffffffffffffffffffffffffff16634c77e5ba60405180807f6f646c6c2f6f776e657200000000000000000000000000000000000000000000815250600a01905060405180910390206000604051602001526040518263ffffffff167c0100000000000000000000000000000000000000000000000000000000028152600401808260001916600019168152602001915050602060405180830381600087803b1515610bcd57600080fd5b6102c65a03f11515610bde57600080fd5b5050506040518051905073ffffffffffffffffffffffffffffffffffffffff168173ffffffffffffffffffffffffffffffffffffffff16145b1515610c2257600080fd5b8173ffffffffffffffffffffffffffffffffffffffff16ff5b6000809054906101000a900473ffffffffffffffffffffffffffffffffffffffff1673ffffffffffffffffffffffffffffffffffffffff163373ffffffffffffffffffffffffffffffffffffffff161480610c9b5750610c9a33611cf2565b5b80610cab5750610caa33611d19565b5b1515610cb657600080fd5b610ce3600160009054906101000a900473ffffffffffffffffffffffffffffffffffffffff168383612375565b5050565b6000600160149054906101000a900460ff1660ff16141515610d0857600080fd5b60008714158015610d1a575060008514155b1515610d2557600080fd5b610d318d8d8d8d610672565b610d3e8989898989610e0c565b610d4a8484848461063c565b610d538d61083f565b50505050505050505050505050565b6000809054906101000a900473ffffffffffffffffffffffffffffffffffffffff1673ffffffffffffffffffffffffffffffffffffffff163373ffffffffffffffffffffffffffffffffffffffff161480610dc25750610dc133611cf2565b5b80610dd25750610dd133611d19565b5b1515610ddd57600080fd5b610e09600160009054906101000a900473ffffffffffffffffffffffffffffffffffffffff16336124e6565b50565b610e3d600160009054906101000a900473ffffffffffffffffffffffffffffffffffffffff16338787878787612623565b5050505050565b6000809054906101000a900473ffffffffffffffffffffffffffffffffffffffff1673ffffffffffffffffffffffffffffffffffffffff163373ffffffffffffffffffffffffffffffffffffffff16141515610e9f57600080fd5b600073ffffffffffffffffffffffffffffffffffffffff168173ffffffffffffffffffffffffffffffffffffffff1614151515610edb57600080fd5b8073ffffffffffffffffffffffffffffffffffffffff166000809054906101000a900473ffffffffffffffffffffffffffffffffffffffff1673ffffffffffffffffffffffffffffffffffffffff167f8be0079c531659141344cd1fd0a4f28419497f9722a3daafe3b4186f6b6457e060405160405180910390a3806000806101000a81548173ffffffffffffffffffffffffffffffffffffffff021916908373ffffffffffffffffffffffffffffffffffffffff16021790555050565b61101083836040805190810160405280601c81526020017f64656e746973742f617665726167652d726174696e672d636f756e74000000008152506040805190810160405280601681526020017f64656e746973742f617665726167652d726174696e670000000000000000000081525085612ba0565b505050565b61101f86866130f5565b151561102a57600080fd5b611034868661310e565b151561103f57600080fd5b8573ffffffffffffffffffffffffffffffffffffffff166325cf512d8660405180807f757365722f70686f6e652d6e756d6265720000000000000000000000000000008152506011018273ffffffffffffffffffffffffffffffffffffffff1673ffffffffffffffffffffffffffffffffffffffff166c010000000000000000000000000281526014019150506040518091039020866040518363ffffffff167c0100000000000000000000000000000000000000000000000000000000028152600401808360001916600019168152602001826000191660001916815260200192505050600060405180830381600087803b151561113d57600080fd5b6102c65a03f1151561114e57600080fd5b5050508573ffffffffffffffffffffffffffffffffffffffff166325cf512d8660405180807f757365722f736f6369616c2d73656375726974792d6e756d6265720000000000815250601b018273ffffffffffffffffffffffffffffffffffffffff1673ffffffffffffffffffffffffffffffffffffffff166c010000000000000000000000000281526014019150506040518091039020856040518363ffffffff167c0100000000000000000000000000000000000000000000000000000000028152600401808360001916600019168152602001826000191660001916815260200192505050600060405180830381600087803b151561124f57600080fd5b6102c65a03f1151561126057600080fd5b5050508573ffffffffffffffffffffffffffffffffffffffff166325cf512d8660405180807f757365722f626972746864617900000000000000000000000000000000000000815250600d018273ffffffffffffffffffffffffffffffffffffffff1673ffffffffffffffffffffffffffffffffffffffff166c010000000000000000000000000281526014019150506040518091039020846040518363ffffffff167c0100000000000000000000000000000000000000000000000000000000028152600401808360001916600019168152602001826000191660001916815260200192505050600060405180830381600087803b151561136157600080fd5b6102c65a03f1151561137257600080fd5b5050508573ffffffffffffffffffffffffffffffffffffffff16630bd851588660405180807f757365722f67656e646572000000000000000000000000000000000000000000815250600b018273ffffffffffffffffffffffffffffffffffffffff1673ffffffffffffffffffffffffffffffffffffffff166c010000000000000000000000000281526014019150506040518091039020836040518363ffffffff167c01000000000000000000000000000000000000000000000000000000000281526004018083600019166000191681526020018260ff1660ff16815260200192505050600060405180830381600087803b151561147157600080fd5b6102c65a03f1151561148257600080fd5b505050505050505050565b6114956142ad565b61149d6142ad565b6114a56142ad565b6114af89896130f5565b15156118a1578873ffffffffffffffffffffffffffffffffffffffff16633562fd208960405180807f757365722f637265617465642d6f6e0000000000000000000000000000000000815250600f018273ffffffffffffffffffffffffffffffffffffffff1673ffffffffffffffffffffffffffffffffffffffff166c010000000000000000000000000281526014019150506040518091039020426040518363ffffffff167c010000000000000000000000000000000000000000000000000000000002815260040180836000191660001916815260200182815260200192505050600060405180830381600087803b15156115ab57600080fd5b6102c65a03f115156115bc57600080fd5b5050508873ffffffffffffffffffffffffffffffffffffffff16630bd851588960405180807f757365722f737461747573000000000000000000000000000000000000000000815250600b018273ffffffffffffffffffffffffffffffffffffffff1673ffffffffffffffffffffffffffffffffffffffff166c01000000000000000000000000028152601401915050604051809103902060016040518363ffffffff167c01000000000000000000000000000000000000000000000000000000000281526004018083600019166000191681526020018260ff16815260200192505050600060405180830381600087803b15156116b957600080fd5b6102c65a03f115156116ca57600080fd5b505050611743896040805190810160405280600981526020017f75736572732f69647300000000000000000000000000000000000000000000008152506040805190810160405280600b81526020017f75736572732f636f756e740000000000000000000000000000000000000000008152508b613124565b61174c8761344a565b8093508194508295505050508873ffffffffffffffffffffffffffffffffffffffff16633eba9ed2848a6040518083805190602001908083835b6020831015156117ab5780518252602082019150602081019050602083039250611786565b6001836020036101000a0380198251168184511680821785525050505050509050018273ffffffffffffffffffffffffffffffffffffffff1673ffffffffffffffffffffffffffffffffffffffff166c0100000000000000000000000002815260140192505050604051809103902060016040518363ffffffff167c01000000000000000000000000000000000000000000000000000000000281526004018083600019166000191681526020018215151515815260200192505050600060405180830381600087803b151561188057600080fd5b6102c65a03f1151561189157600080fd5b5050506118a08983838b613124565b5b8873ffffffffffffffffffffffffffffffffffffffff16630bd851588960405180807f757365722f7479706500000000000000000000000000000000000000000000008152506009018273ffffffffffffffffffffffffffffffffffffffff1673ffffffffffffffffffffffffffffffffffffffff166c010000000000000000000000000281526014019150506040518091039020896040518363ffffffff167c01000000000000000000000000000000000000000000000000000000000281526004018083600019166000191681526020018260ff1660ff16815260200192505050600060405180830381600087803b151561199d57600080fd5b6102c65a03f115156119ae57600080fd5b5050508873ffffffffffffffffffffffffffffffffffffffff166325cf512d8960405180807f757365722f6e616d6500000000000000000000000000000000000000000000008152506009018273ffffffffffffffffffffffffffffffffffffffff1673ffffffffffffffffffffffffffffffffffffffff166c010000000000000000000000000281526014019150506040518091039020886040518363ffffffff167c0100000000000000000000000000000000000000000000000000000000028152600401808360001916600019168152602001826000191660001916815260200192505050600060405180830381600087803b1515611aaf57600080fd5b6102c65a03f11515611ac057600080fd5b5050508873ffffffffffffffffffffffffffffffffffffffff166325cf512d8960405180807f757365722f656d61696c00000000000000000000000000000000000000000000815250600a018273ffffffffffffffffffffffffffffffffffffffff1673ffffffffffffffffffffffffffffffffffffffff166c010000000000000000000000000281526014019150506040518091039020876040518363ffffffff167c0100000000000000000000000000000000000000000000000000000000028152600401808360001916600019168152602001826000191660001916815260200192505050600060405180830381600087803b1515611bc157600080fd5b6102c65a03f11515611bd257600080fd5b5050508873ffffffffffffffffffffffffffffffffffffffff166325cf512d8960405180807f757365722f677261766174617200000000000000000000000000000000000000815250600d018273ffffffffffffffffffffffffffffffffffffffff1673ffffffffffffffffffffffffffffffffffffffff166c010000000000000000000000000281526014019150506040518091039020866040518363ffffffff167c0100000000000000000000000000000000000000000000000000000000028152600401808360001916600019168152602001826000191660001916815260200192505050600060405180830381600087803b1515611cd357600080fd5b6102c65a03f11515611ce457600080fd5b505050505050505050505050565b6000611cff82600461374c565b8015611d125750611d11826001613767565b5b9050919050565b6000611d2682600361374c565b8015611d395750611d38826001613767565b5b9050919050565b8173ffffffffffffffffffffffffffffffffffffffff16630bd851588260405180807f757365722f737461747573000000000000000000000000000000000000000000815250600b018273ffffffffffffffffffffffffffffffffffffffff1673ffffffffffffffffffffffffffffffffffffffff166c01000000000000000000000000028152601401915050604051809103902060016040518363ffffffff167c01000000000000000000000000000000000000000000000000000000000281526004018083600019166000191681526020018260ff16815260200192505050600060405180830381600087803b1515611e3a57600080fd5b6102c65a03f11515611e4b57600080fd5b5050505050565b8173ffffffffffffffffffffffffffffffffffffffff16630bd851588260405180807f757365722f737461747573000000000000000000000000000000000000000000815250600b018273ffffffffffffffffffffffffffffffffffffffff1673ffffffffffffffffffffffffffffffffffffffff166c01000000000000000000000000028152601401915050604051809103902060026040518363ffffffff167c01000000000000000000000000000000000000000000000000000000000281526004018083600019166000191681526020018260ff16815260200192505050600060405180830381600087803b1515611f4c57600080fd5b6102c65a03f11515611f5d57600080fd5b5050505050565b61201183836040805190810160405280600f81526020017f70617469656e742f64656e7469737400000000000000000000000000000000008152506040805190810160405280601681526020017f70617469656e742f64656e74697374732d636f756e74000000000000000000008152506040805190810160405280601381526020017f70617469656e742f64656e746973742d6b65790000000000000000000000000081525086613782565b505050565b61202085856130f5565b151561202b57600080fd5b612035858561310e565b151561204057600080fd5b8473ffffffffffffffffffffffffffffffffffffffff16633eba9ed28560405180807f757365722f69732d6f646c6c2d64656e746973743f00000000000000000000008152506015018273ffffffffffffffffffffffffffffffffffffffff1673ffffffffffffffffffffffffffffffffffffffff166c010000000000000000000000000281526014019150506040518091039020856040518363ffffffff167c01000000000000000000000000000000000000000000000000000000000281526004018083600019166000191681526020018215151515815260200192505050600060405180830381600087803b151561213a57600080fd5b6102c65a03f1151561214b57600080fd5b5050508473ffffffffffffffffffffffffffffffffffffffff16633eba9ed28560405180807f757365722f69732d617661696c61626c653f00000000000000000000000000008152506012018273ffffffffffffffffffffffffffffffffffffffff1673ffffffffffffffffffffffffffffffffffffffff166c010000000000000000000000000281526014019150506040518091039020846040518363ffffffff167c01000000000000000000000000000000000000000000000000000000000281526004018083600019166000191681526020018215151515815260200192505050600060405180830381600087803b151561224857600080fd5b6102c65a03f1151561225957600080fd5b5050508473ffffffffffffffffffffffffffffffffffffffff166325cf512d8560405180807f64656e746973742f636f6d70616e792d6e616d650000000000000000000000008152506014018273ffffffffffffffffffffffffffffffffffffffff1673ffffffffffffffffffffffffffffffffffffffff166c010000000000000000000000000281526014019150506040518091039020836040518363ffffffff167c0100000000000000000000000000000000000000000000000000000000028152600401808360001916600019168152602001826000191660001916815260200192505050600060405180830381600087803b151561235a57600080fd5b6102c65a03f1151561236b57600080fd5b5050505050505050565b60008373ffffffffffffffffffffffffffffffffffffffff16637a0e03ec8460405180807f757365722f7479706500000000000000000000000000000000000000000000008152506009018273ffffffffffffffffffffffffffffffffffffffff1673ffffffffffffffffffffffffffffffffffffffff166c0100000000000000000000000002815260140191505060405180910390206000604051602001526040518263ffffffff167c0100000000000000000000000000000000000000000000000000000000028152600401808260001916600019168152602001915050602060405180830381600087803b151561246e57600080fd5b6102c65a03f1151561247f57600080fd5b50505060405180519050905060008373ffffffffffffffffffffffffffffffffffffffff16141580156124b6575060008260ff1614155b80156124c5575060008160ff16145b15156124d057600080fd5b6124e0848484600080600061148d565b50505050565b6124f082826130f5565b15156124fb57600080fd5b612505828261310e565b151561251057600080fd5b8173ffffffffffffffffffffffffffffffffffffffff16633eba9ed28260405180807f757365722f69732d6f646c6c2d64656e746973743f00000000000000000000008152506015018273ffffffffffffffffffffffffffffffffffffffff1673ffffffffffffffffffffffffffffffffffffffff166c01000000000000000000000000028152601401915050604051809103902060016040518363ffffffff167c01000000000000000000000000000000000000000000000000000000000281526004018083600019166000191681526020018215151515815260200192505050600060405180830381600087803b151561260b57600080fd5b6102c65a03f1151561261c57600080fd5b5050505050565b61262d87876130f5565b151561263857600080fd5b612642878761310e565b151561264d57600080fd5b8673ffffffffffffffffffffffffffffffffffffffff166325cf512d8760405180807f757365722f737472656574000000000000000000000000000000000000000000815250600b018273ffffffffffffffffffffffffffffffffffffffff1673ffffffffffffffffffffffffffffffffffffffff166c010000000000000000000000000281526014019150506040518091039020876040518363ffffffff167c0100000000000000000000000000000000000000000000000000000000028152600401808360001916600019168152602001826000191660001916815260200192505050600060405180830381600087803b151561274b57600080fd5b6102c65a03f1151561275c57600080fd5b5050508673ffffffffffffffffffffffffffffffffffffffff166325cf512d8760405180807f757365722f6369747900000000000000000000000000000000000000000000008152506009018273ffffffffffffffffffffffffffffffffffffffff1673ffffffffffffffffffffffffffffffffffffffff166c010000000000000000000000000281526014019150506040518091039020866040518363ffffffff167c0100000000000000000000000000000000000000000000000000000000028152600401808360001916600019168152602001826000191660001916815260200192505050600060405180830381600087803b151561285d57600080fd5b6102c65a03f1151561286e57600080fd5b5050508673ffffffffffffffffffffffffffffffffffffffff16633562fd208760405180807f757365722f737461746500000000000000000000000000000000000000000000815250600a018273ffffffffffffffffffffffffffffffffffffffff1673ffffffffffffffffffffffffffffffffffffffff166c010000000000000000000000000281526014019150506040518091039020856040518363ffffffff167c010000000000000000000000000000000000000000000000000000000002815260040180836000191660001916815260200182815260200192505050600060405180830381600087803b151561296757600080fd5b6102c65a03f1151561297857600080fd5b5050508673ffffffffffffffffffffffffffffffffffffffff166325cf512d8760405180807f757365722f7a69702d636f646500000000000000000000000000000000000000815250600d018273ffffffffffffffffffffffffffffffffffffffff1673ffffffffffffffffffffffffffffffffffffffff166c010000000000000000000000000281526014019150506040518091039020846040518363ffffffff167c0100000000000000000000000000000000000000000000000000000000028152600401808360001916600019168152602001826000191660001916815260200192505050600060405180830381600087803b1515612a7957600080fd5b6102c65a03f11515612a8a57600080fd5b5050508673ffffffffffffffffffffffffffffffffffffffff16633562fd208760405180807f757365722f636f756e7472790000000000000000000000000000000000000000815250600c018273ffffffffffffffffffffffffffffffffffffffff1673ffffffffffffffffffffffffffffffffffffffff166c010000000000000000000000000281526014019150506040518091039020836040518363ffffffff167c010000000000000000000000000000000000000000000000000000000002815260040180836000191660001916815260200182815260200192505050600060405180830381600087803b1515612b8357600080fd5b6102c65a03f11515612b9457600080fd5b50505050505050505050565b60008060008060008973ffffffffffffffffffffffffffffffffffffffff1663bdc963d8898b6040518083805190602001908083835b602083101515612bfb5780518252602082019150602081019050602083039250612bd6565b6001836020036101000a0380198251168184511680821785525050505050509050018273ffffffffffffffffffffffffffffffffffffffff1673ffffffffffffffffffffffffffffffffffffffff166c010000000000000000000000000281526014019250505060405180910390206000604051602001526040518263ffffffff167c0100000000000000000000000000000000000000000000000000000000028152600401808260001916600019168152602001915050602060405180830381600087803b1515612ccc57600080fd5b6102c65a03f11515612cdd57600080fd5b5050506040518051905094508973ffffffffffffffffffffffffffffffffffffffff16637a0e03ec888b6040518083805190602001908083835b602083101515612d3c5780518252602082019150602081019050602083039250612d17565b6001836020036101000a0380198251168184511680821785525050505050509050018273ffffffffffffffffffffffffffffffffffffffff1673ffffffffffffffffffffffffffffffffffffffff166c010000000000000000000000000281526014019250505060405180910390206000604051602001526040518263ffffffff167c0100000000000000000000000000000000000000000000000000000000028152600401808260001916600019168152602001915050602060405180830381600087803b1515612e0d57600080fd5b6102c65a03f11515612e1e57600080fd5b505050604051805190509350612e35856001613aa3565b92506000851415612e4b578560ff169150612e75565b612e64612e5b8560ff1687613ac1565b8760ff16613aa3565b90508281811515612e7157fe5b0491505b8973ffffffffffffffffffffffffffffffffffffffff16633562fd20898b6040518083805190602001908083835b602083101515612ec85780518252602082019150602081019050602083039250612ea3565b6001836020036101000a0380198251168184511680821785525050505050509050018273ffffffffffffffffffffffffffffffffffffffff1673ffffffffffffffffffffffffffffffffffffffff166c01000000000000000000000000028152601401925050506040518091039020856040518363ffffffff167c010000000000000000000000000000000000000000000000000000000002815260040180836000191660001916815260200182815260200192505050600060405180830381600087803b1515612f9857600080fd5b6102c65a03f11515612fa957600080fd5b5050508973ffffffffffffffffffffffffffffffffffffffff16630bd85158888b6040518083805190602001908083835b602083101515612fff5780518252602082019150602081019050602083039250612fda565b6001836020036101000a0380198251168184511680821785525050505050509050018273ffffffffffffffffffffffffffffffffffffffff1673ffffffffffffffffffffffffffffffffffffffff166c01000000000000000000000000028152601401925050506040518091039020846040518363ffffffff167c01000000000000000000000000000000000000000000000000000000000281526004018083600019166000191681526020018260ff1660ff16815260200192505050600060405180830381600087803b15156130d557600080fd5b6102c65a03f115156130e657600080fd5b50505050505050505050505050565b6000806131028484613af4565b60ff1611905092915050565b600061311c83836001613c10565b905092915050565b60008473ffffffffffffffffffffffffffffffffffffffff1663bdc963d8846040518082805190602001908083835b6020831015156131785780518252602082019150602081019050602083039250613153565b6001836020036101000a03801982511681845116808217855250505050505090500191505060405180910390206000604051602001526040518263ffffffff167c0100000000000000000000000000000000000000000000000000000000028152600401808260001916600019168152602001915050602060405180830381600087803b151561320757600080fd5b6102c65a03f1151561321857600080fd5b5050506040518051905090508473ffffffffffffffffffffffffffffffffffffffff16635a2bf25a85836040518083805190602001908083835b6020831015156132775780518252602082019150602081019050602083039250613252565b6001836020036101000a038019825116818451168082178552505050505050905001828152602001925050506040518091039020846040518363ffffffff167c01000000000000000000000000000000000000000000000000000000000281526004018083600019166000191681526020018273ffffffffffffffffffffffffffffffffffffffff1673ffffffffffffffffffffffffffffffffffffffff16815260200192505050600060405180830381600087803b151561333857600080fd5b6102c65a03f1151561334957600080fd5b5050508473ffffffffffffffffffffffffffffffffffffffff16633562fd20846040518082805190602001908083835b60208310151561339e5780518252602082019150602081019050602083039250613379565b6001836020036101000a0380198251168184511680821785525050505050509050019150506040518091039020600184016040518363ffffffff167c010000000000000000000000000000000000000000000000000000000002815260040180836000191660001916815260200182815260200192505050600060405180830381600087803b151561342f57600080fd5b6102c65a03f1151561344057600080fd5b5050505050505050565b6134526142ad565b61345a6142ad565b6134626142ad565b60018460ff16141561351b576040805190810160405280601081526020017f757365722f69732d70617469656e743f0000000000000000000000000000000081525092506040805190810160405280600c81526020017f70617469656e74732f696473000000000000000000000000000000000000000081525091506040805190810160405280600e81526020017f70617469656e74732f636f756e740000000000000000000000000000000000008152509050613745565b60028460ff1614156135d4576040805190810160405280601081526020017f757365722f69732d64656e746973743f0000000000000000000000000000000081525092506040805190810160405280600c81526020017f64656e74697374732f696473000000000000000000000000000000000000000081525091506040805190810160405280600e81526020017f64656e74697374732f636f756e740000000000000000000000000000000000008152509050613744565b60038460ff16141561368d576040805190810160405280601081526020017f757365722f69732d6d616e616765723f0000000000000000000000000000000081525092506040805190810160405280600c81526020017f6d616e61676572732f696473000000000000000000000000000000000000000081525091506040805190810160405280600e81526020017f6d616e61676572732f636f756e740000000000000000000000000000000000008152509050613743565b60048460ff161415613742576040805190810160405280600e81526020017f757365722f69732d61646d696e3f00000000000000000000000000000000000081525092506040805190810160405280600a81526020017f61646d696e732f6964730000000000000000000000000000000000000000000081525091506040805190810160405280600c81526020017f61646d696e732f636f756e74000000000000000000000000000000000000000081525090505b5b5b5b9193909250565b600061375783613c2d565b60ff168260ff1614905092915050565b600061377283613d6a565b60ff168260ff1614905092915050565b60008673ffffffffffffffffffffffffffffffffffffffff16637a0e03ec8688856040518084805190602001908083835b6020831015156137d857805182526020820191506020810190506020830392506137b3565b6001836020036101000a0380198251168184511680821785525050505050509050018373ffffffffffffffffffffffffffffffffffffffff1673ffffffffffffffffffffffffffffffffffffffff166c010000000000000000000000000281526014018273ffffffffffffffffffffffffffffffffffffffff1673ffffffffffffffffffffffffffffffffffffffff166c01000000000000000000000000028152601401935050505060405180910390206000604051602001526040518263ffffffff167c0100000000000000000000000000000000000000000000000000000000028152600401808260001916600019168152602001915050602060405180830381600087803b15156138eb57600080fd5b6102c65a03f115156138fc57600080fd5b5050506040518051905060ff16141561391d5761391c8686848685613ea7565b5b8573ffffffffffffffffffffffffffffffffffffffff16630bd851588587846040518084805190602001908083835b602083101515613971578051825260208201915060208101905060208303925061394c565b6001836020036101000a0380198251168184511680821785525050505050509050018373ffffffffffffffffffffffffffffffffffffffff1673ffffffffffffffffffffffffffffffffffffffff166c010000000000000000000000000281526014018273ffffffffffffffffffffffffffffffffffffffff1673ffffffffffffffffffffffffffffffffffffffff166c010000000000000000000000000281526014019350505050604051809103902060016040518363ffffffff167c01000000000000000000000000000000000000000000000000000000000281526004018083600019166000191681526020018260ff16815260200192505050600060405180830381600087803b1515613a8757600080fd5b6102c65a03f11515613a9857600080fd5b505050505050505050565b6000808284019050838110151515613ab757fe5b8091505092915050565b60008082840290506000841480613ae25750828482811515613adf57fe5b04145b1515613aea57fe5b8091505092915050565b60008273ffffffffffffffffffffffffffffffffffffffff16637a0e03ec8360405180807f757365722f737461747573000000000000000000000000000000000000000000815250600b018273ffffffffffffffffffffffffffffffffffffffff1673ffffffffffffffffffffffffffffffffffffffff166c0100000000000000000000000002815260140191505060405180910390206000604051602001526040518263ffffffff167c0100000000000000000000000000000000000000000000000000000000028152600401808260001916600019168152602001915050602060405180830381600087803b1515613bed57600080fd5b6102c65a03f11515613bfe57600080fd5b50505060405180519050905092915050565b6000613c1c8484613af4565b60ff168260ff161490509392505050565b6000600160009054906101000a900473ffffffffffffffffffffffffffffffffffffffff1673ffffffffffffffffffffffffffffffffffffffff16637a0e03ec8360405180807f757365722f7479706500000000000000000000000000000000000000000000008152506009018273ffffffffffffffffffffffffffffffffffffffff1673ffffffffffffffffffffffffffffffffffffffff166c0100000000000000000000000002815260140191505060405180910390206000604051602001526040518263ffffffff167c0100000000000000000000000000000000000000000000000000000000028152600401808260001916600019168152602001915050602060405180830381600087803b1515613d4857600080fd5b6102c65a03f11515613d5957600080fd5b505050604051805190509050919050565b6000600160009054906101000a900473ffffffffffffffffffffffffffffffffffffffff1673ffffffffffffffffffffffffffffffffffffffff16637a0e03ec8360405180807f757365722f737461747573000000000000000000000000000000000000000000815250600b018273ffffffffffffffffffffffffffffffffffffffff1673ffffffffffffffffffffffffffffffffffffffff166c0100000000000000000000000002815260140191505060405180910390206000604051602001526040518263ffffffff167c0100000000000000000000000000000000000000000000000000000000028152600401808260001916600019168152602001915050602060405180830381600087803b1515613e8557600080fd5b6102c65a03f11515613e9657600080fd5b505050604051805190509050919050565b6000613eb4868685614163565b90508573ffffffffffffffffffffffffffffffffffffffff16635a2bf25a8587846040518084805190602001908083835b602083101515613f0a5780518252602082019150602081019050602083039250613ee5565b6001836020036101000a0380198251168184511680821785525050505050509050018373ffffffffffffffffffffffffffffffffffffffff1673ffffffffffffffffffffffffffffffffffffffff166c0100000000000000000000000002815260140182815260200193505050506040518091039020846040518363ffffffff167c01000000000000000000000000000000000000000000000000000000000281526004018083600019166000191681526020018273ffffffffffffffffffffffffffffffffffffffff1673ffffffffffffffffffffffffffffffffffffffff16815260200192505050600060405180830381600087803b151561400d57600080fd5b6102c65a03f1151561401e57600080fd5b5050508573ffffffffffffffffffffffffffffffffffffffff16633562fd2084876040518083805190602001908083835b602083101515614074578051825260208201915060208101905060208303925061404f565b6001836020036101000a0380198251168184511680821785525050505050509050018273ffffffffffffffffffffffffffffffffffffffff1673ffffffffffffffffffffffffffffffffffffffff166c01000000000000000000000000028152601401925050506040518091039020600184016040518363ffffffff167c010000000000000000000000000000000000000000000000000000000002815260040180836000191660001916815260200182815260200192505050600060405180830381600087803b151561414757600080fd5b6102c65a03f1151561415857600080fd5b505050505050505050565b60008373ffffffffffffffffffffffffffffffffffffffff1663bdc963d883856040518083805190602001908083835b6020831015156141b85780518252602082019150602081019050602083039250614193565b6001836020036101000a0380198251168184511680821785525050505050509050018273ffffffffffffffffffffffffffffffffffffffff1673ffffffffffffffffffffffffffffffffffffffff166c010000000000000000000000000281526014019250505060405180910390206000604051602001526040518263ffffffff167c0100000000000000000000000000000000000000000000000000000000028152600401808260001916600019168152602001915050602060405180830381600087803b151561428957600080fd5b6102c65a03f1151561429a57600080fd5b5050506040518051905090509392505050565b6020604051908101604052806000815250905600a165627a7a72305820a493e332d62d426bf7949cc0d812ab1e2da99c73e9ab5a335bca9f6acdd759260029",
  "source": "pragma solidity 0.4.18;\n\nimport \"./Restrictor.sol\";\nimport \"../lib/odll/userManager.sol\";\n\ncontract UserWriter is Restrictor {\n  event OnAdminAdded(address userId);\n  event OnDentistAdded(address userId);\n  event OnManagerAdded(address userId);\n  event OnPatientAdded(address userId);\n\n  function UserWriter(address _dbAddress) public {\n    require(_dbAddress != 0x0);\n    dbAddress = _dbAddress;\n  }\n\n  function writeUser(\n    uint8 userType,\n    bytes32 name,\n    bytes32 email,\n    bytes32 gravatar,\n    bytes32 street,\n    bytes32 city,\n    uint stateId,\n    bytes32 zipCode,\n    uint countryId,\n    bytes32 phoneNumber,\n    bytes32 socialSecurityNumber,\n    bytes32 birthday,\n    uint8 gender\n  )\n    external\n    onlyPermittedSmartContract\n  {\n    // require the last compulsories first\n    require(stateId != 0 && countryId != 0);\n\n    writeUserIdentity(userType, name, email, gravatar);\n    writeUserLocation(street, city, stateId, zipCode, countryId);\n    writeUserOptionalValues(phoneNumber, socialSecurityNumber, birthday, gender);\n    determineEvent(userType);\n  }\n\n  function writeUserIdentity(uint8 userType, bytes32 name, bytes32 email, bytes32 gravatar) public {\n    userManager.setUserIdentity(dbAddress, msg.sender, userType, name, email, gravatar);\n  }\n\n  function writeUserLocation(bytes32 street, bytes32 city, uint stateId, bytes32 zipCode, uint countryId) public {\n    userManager.setUserLocation(dbAddress, msg.sender, street, city, stateId, zipCode, countryId);\n  }\n\n  function writeUserOptionalValues(bytes32 phoneNumber, bytes32 socialSecurityNumber, bytes32 birthday, uint8 gender) public {\n    userManager.setUserOptionalValues(dbAddress, msg.sender, phoneNumber, socialSecurityNumber, birthday, gender);\n  }\n\n  function determineEvent(uint8 userType) public {\n    if (userType == 1) {\n      OnPatientAdded(msg.sender);\n    } else if (userType == 3) {\n      OnManagerAdded(msg.sender);\n    } else if (userType == 4) {\n      OnAdminAdded(msg.sender);\n    }\n  }\n\n  function continueWritingDentist(\n    bool isODLLDentist,\n    bool isAvailable,\n    bytes32 companyName\n  )\n    external\n    onlyPermittedSmartContract\n  {\n    userManager.setDentist(dbAddress, msg.sender, isODLLDentist, isAvailable, companyName);\n    OnDentistAdded(msg.sender);\n  }\n\n  function addODLLDentist(\n    address userId\n  )\n    external\n    onlyOwnerOrActiveAdminOrActiveManager\n  {\n    userManager.addODLLDentist(dbAddress, msg.sender);\n  }\n\n  function addOfficialToODLL(address officialId, uint8 userType)\n    external\n    onlyOwnerOrActiveAdminOrActiveManager\n  {\n    userManager.addOfficialToODLL(dbAddress, officialId, userType);\n  }\n\n  function blockUser(address userId)\n    external\n    onlyOwnerOrActiveAdminOrActiveManager\n  {\n    userManager.blockUser(dbAddress, userId);\n  }\n\n  function unblockUser(address userId)\n    external\n    onlyOwnerOrActiveAdminOrActiveManager\n  {\n    userManager.unblockUser(dbAddress, userId);\n  }\n\n  function writeDentistRating(address dentistId, uint8 rating)\n    external\n  {\n    require(dentistId != 0x0 && rating > 0);\n    userManager.writeDentistRating(dbAddress, dentistId, rating);\n  }\n\n  function writeUserDentistId (address dentistId) external {\n    userManager.writeUserDentistId(dbAddress, msg.sender, dentistId);\n  }\n\n  function destroySelf(address callerAddress, address newContractAddress)\n    external\n    onlyOwnerCanCall(callerAddress)\n  {\n    selfdestruct(newContractAddress);\n  }\n}\n\n",
  "sourcePath": "/home/daniel/dev/vue/apps/oral-data-link/contracts/odll/UserWriter.sol",
  "compiler": {
    "name": "solc",
    "version": "0.4.18+commit.9cf6e910.Emscripten.clang"
  },
  "schemaVersion": "1.0.1",
  "updatedAt": "2017-11-06T15:50:54.423Z"
}