{
  "contractName": "UserWriter",
  "abi": [
    {
      "constant": false,
      "inputs": [
        {
          "name": "dentistId",
          "type": "address"
        },
        {
          "name": "rating",
          "type": "uint8"
        }
      ],
      "name": "writeDentistRating",
      "outputs": [],
      "payable": false,
      "stateMutability": "nonpayable",
      "type": "function"
    },
    {
      "constant": false,
      "inputs": [
        {
          "name": "userId",
          "type": "address"
        },
        {
          "name": "odllDentistValue",
          "type": "bool"
        }
      ],
      "name": "setODLLDentist",
      "outputs": [],
      "payable": false,
      "stateMutability": "nonpayable",
      "type": "function"
    },
    {
      "constant": false,
      "inputs": [
        {
          "name": "phoneNumber",
          "type": "bytes32"
        },
        {
          "name": "socialSecurityNumber",
          "type": "bytes32"
        },
        {
          "name": "birthday",
          "type": "bytes32"
        },
        {
          "name": "gender",
          "type": "uint8"
        }
      ],
      "name": "writeUserOptionalValues",
      "outputs": [],
      "payable": false,
      "stateMutability": "nonpayable",
      "type": "function"
    },
    {
      "constant": false,
      "inputs": [
        {
          "name": "userId",
          "type": "address"
        }
      ],
      "name": "unblockUser",
      "outputs": [],
      "payable": false,
      "stateMutability": "nonpayable",
      "type": "function"
    },
    {
      "constant": false,
      "inputs": [
        {
          "name": "userId",
          "type": "address"
        }
      ],
      "name": "blockUser",
      "outputs": [],
      "payable": false,
      "stateMutability": "nonpayable",
      "type": "function"
    },
    {
      "constant": false,
      "inputs": [
        {
          "name": "userId",
          "type": "address"
        },
        {
          "name": "paymentId",
          "type": "uint256"
        }
      ],
      "name": "lockPayment",
      "outputs": [],
      "payable": false,
      "stateMutability": "nonpayable",
      "type": "function"
    },
    {
      "constant": true,
      "inputs": [],
      "name": "smartContractStatus",
      "outputs": [
        {
          "name": "",
          "type": "uint8"
        }
      ],
      "payable": false,
      "stateMutability": "view",
      "type": "function"
    },
    {
      "constant": false,
      "inputs": [
        {
          "name": "userType",
          "type": "uint8"
        }
      ],
      "name": "determineEvent",
      "outputs": [],
      "payable": false,
      "stateMutability": "nonpayable",
      "type": "function"
    },
    {
      "constant": false,
      "inputs": [
        {
          "name": "userType",
          "type": "uint8"
        },
        {
          "name": "name",
          "type": "string"
        },
        {
          "name": "email",
          "type": "string"
        },
        {
          "name": "gravatar",
          "type": "bytes32"
        },
        {
          "name": "street",
          "type": "bytes32"
        },
        {
          "name": "city",
          "type": "bytes32"
        },
        {
          "name": "stateId",
          "type": "uint256"
        },
        {
          "name": "zipCode",
          "type": "bytes32"
        },
        {
          "name": "countryId",
          "type": "uint256"
        },
        {
          "name": "phoneNumber",
          "type": "bytes32"
        },
        {
          "name": "socialSecurityNumber",
          "type": "bytes32"
        },
        {
          "name": "birthday",
          "type": "bytes32"
        },
        {
          "name": "gender",
          "type": "uint8"
        }
      ],
      "name": "writeUser",
      "outputs": [],
      "payable": false,
      "stateMutability": "nonpayable",
      "type": "function"
    },
    {
      "constant": true,
      "inputs": [],
      "name": "owner",
      "outputs": [
        {
          "name": "",
          "type": "address"
        }
      ],
      "payable": false,
      "stateMutability": "view",
      "type": "function"
    },
    {
      "constant": true,
      "inputs": [],
      "name": "dbAddress",
      "outputs": [
        {
          "name": "",
          "type": "address"
        }
      ],
      "payable": false,
      "stateMutability": "view",
      "type": "function"
    },
    {
      "constant": false,
      "inputs": [
        {
          "name": "userIds",
          "type": "address[]"
        },
        {
          "name": "odllDentistValue",
          "type": "bool"
        }
      ],
      "name": "setODLLDentists",
      "outputs": [],
      "payable": false,
      "stateMutability": "nonpayable",
      "type": "function"
    },
    {
      "constant": false,
      "inputs": [
        {
          "name": "officialId",
          "type": "address"
        },
        {
          "name": "userType",
          "type": "uint8"
        }
      ],
      "name": "addOfficialToODLL",
      "outputs": [],
      "payable": false,
      "stateMutability": "nonpayable",
      "type": "function"
    },
    {
      "constant": false,
      "inputs": [
        {
          "name": "userType",
          "type": "uint8"
        },
        {
          "name": "name",
          "type": "string"
        },
        {
          "name": "email",
          "type": "string"
        },
        {
          "name": "gravatar",
          "type": "bytes32"
        }
      ],
      "name": "writeUserIdentity",
      "outputs": [],
      "payable": false,
      "stateMutability": "nonpayable",
      "type": "function"
    },
    {
      "constant": false,
      "inputs": [
        {
          "name": "street",
          "type": "bytes32"
        },
        {
          "name": "city",
          "type": "bytes32"
        },
        {
          "name": "stateId",
          "type": "uint256"
        },
        {
          "name": "zipCode",
          "type": "bytes32"
        },
        {
          "name": "countryId",
          "type": "uint256"
        }
      ],
      "name": "writeUserLocation",
      "outputs": [],
      "payable": false,
      "stateMutability": "nonpayable",
      "type": "function"
    },
    {
      "constant": false,
      "inputs": [
        {
          "name": "companyName",
          "type": "string"
        }
      ],
      "name": "setDentistCompany",
      "outputs": [],
      "payable": false,
      "stateMutability": "nonpayable",
      "type": "function"
    },
    {
      "constant": false,
      "inputs": [
        {
          "name": "newOwner",
          "type": "address"
        }
      ],
      "name": "transferOwnership",
      "outputs": [],
      "payable": false,
      "stateMutability": "nonpayable",
      "type": "function"
    },
    {
      "inputs": [
        {
          "name": "_dbAddress",
          "type": "address"
        }
      ],
      "payable": false,
      "stateMutability": "nonpayable",
      "type": "constructor"
    },
    {
      "anonymous": false,
      "inputs": [
        {
          "indexed": false,
          "name": "userId",
          "type": "address"
        }
      ],
      "name": "OnAdminAdded",
      "type": "event"
    },
    {
      "anonymous": false,
      "inputs": [
        {
          "indexed": false,
          "name": "userId",
          "type": "address"
        }
      ],
      "name": "OnDentistCompanySet",
      "type": "event"
    },
    {
      "anonymous": false,
      "inputs": [
        {
          "indexed": false,
          "name": "userId",
          "type": "address"
        }
      ],
      "name": "OnManagerAdded",
      "type": "event"
    },
    {
      "anonymous": false,
      "inputs": [
        {
          "indexed": false,
          "name": "userId",
          "type": "address"
        }
      ],
      "name": "OnPatientAdded",
      "type": "event"
    },
    {
      "anonymous": false,
      "inputs": [
        {
          "indexed": false,
          "name": "paymentId",
          "type": "uint256"
        }
      ],
      "name": "PaymentLocked",
      "type": "event"
    },
    {
      "anonymous": false,
      "inputs": [
        {
          "indexed": false,
          "name": "status",
          "type": "uint8"
        }
      ],
      "name": "OnSmartContractStatusSet",
      "type": "event"
    },
    {
      "anonymous": false,
      "inputs": [
        {
          "indexed": true,
          "name": "previousOwner",
          "type": "address"
        },
        {
          "indexed": true,
          "name": "newOwner",
          "type": "address"
        }
      ],
      "name": "OwnershipTransferred",
      "type": "event"
    }
  ],
  "bytecode": "0x6060604052341561000f57600080fd5b6040516020806200425f83398101604052808051906020019091905050336000806101000a81548173ffffffffffffffffffffffffffffffffffffffff021916908373ffffffffffffffffffffffffffffffffffffffff16021790555060008173ffffffffffffffffffffffffffffffffffffffff161415151561009257600080fd5b80600160006101000a81548173ffffffffffffffffffffffffffffffffffffffff021916908373ffffffffffffffffffffffffffffffffffffffff1602179055505061417b80620000e46000396000f3006060604052600436106100f0576000357c0100000000000000000000000000000000000000000000000000000000900463ffffffff16806222049c146100f557806305e46bd21461013a5780630b61e3b51461017e57806339d319e5146101cb5780633da01325146102045780633f4b14701461023d5780634c8ddddc1461027f578063526f6ce4146102ae578063832bf231146102d45780638da5cb5b1461039b57806391e06b6d146103f0578063a7f91c9214610445578063c6b64a081461047e578063c82c29d9146104c3578063e962beac1461057c578063ec1113f4146105cf578063f2fde38b146105fd575b600080fd5b341561010057600080fd5b610138600480803573ffffffffffffffffffffffffffffffffffffffff1690602001909190803560ff16906020019091905050610636565b005b341561014557600080fd5b61017c600480803573ffffffffffffffffffffffffffffffffffffffff16906020019091908035151590602001909190505061069c565b005b341561018957600080fd5b6101c9600480803560001916906020019091908035600019169060200190919080356000191690602001909190803560ff169060200190919050506106cd565b005b34156101d657600080fd5b610202600480803573ffffffffffffffffffffffffffffffffffffffff16906020019091905050610703565b005b341561020f57600080fd5b61023b600480803573ffffffffffffffffffffffffffffffffffffffff169060200190919050506107ad565b005b341561024857600080fd5b61027d600480803573ffffffffffffffffffffffffffffffffffffffff16906020019091908035906020019091905050610857565b005b341561028a57600080fd5b610292610aae565b604051808260ff1660ff16815260200191505060405180910390f35b34156102b957600080fd5b6102d2600480803560ff16906020019091905050610ac1565b005b34156102df57600080fd5b610399600480803560ff16906020019091908035906020019082018035906020019190919290803590602001908201803590602001919091929080356000191690602001909190803560001916906020019091908035600019169060200190919080359060200190919080356000191690602001909190803590602001909190803560001916906020019091908035600019169060200190919080356000191690602001909190803560ff16906020019091905050610c1e565b005b34156103a657600080fd5b6103ae610cff565b604051808273ffffffffffffffffffffffffffffffffffffffff1673ffffffffffffffffffffffffffffffffffffffff16815260200191505060405180910390f35b34156103fb57600080fd5b610403610d24565b604051808273ffffffffffffffffffffffffffffffffffffffff1673ffffffffffffffffffffffffffffffffffffffff16815260200191505060405180910390f35b341561045057600080fd5b61047c600480803590602001908201803590602001919091929080351515906020019091905050610d4a565b005b341561048957600080fd5b6104c1600480803573ffffffffffffffffffffffffffffffffffffffff1690602001909190803560ff16906020019091905050610dab565b005b34156104ce57600080fd5b61057a600480803560ff1690602001909190803590602001908201803590602001908080601f0160208091040260200160405190810160405280939291908181526020018383808284378201915050505050509190803590602001908201803590602001908080601f0160208091040260200160405190810160405280939291908181526020018383808284378201915050505050509190803560001916906020019091905050610e57565b005b341561058757600080fd5b6105cd6004808035600019169060200190919080356000191690602001909190803590602001909190803560001916906020019091908035906020019091905050610e8d565b005b34156105da57600080fd5b6105fb60048080359060200190820180359060200191909192905050610ec5565b005b341561060857600080fd5b610634600480803573ffffffffffffffffffffffffffffffffffffffff16906020019091905050610fac565b005b60008273ffffffffffffffffffffffffffffffffffffffff1614158015610660575060008160ff16115b151561066b57600080fd5b610698600160009054906101000a900473ffffffffffffffffffffffffffffffffffffffff168383611101565b5050565b6106c9600160009054906101000a900473ffffffffffffffffffffffffffffffffffffffff16838361117d565b5050565b6106fd600160009054906101000a900473ffffffffffffffffffffffffffffffffffffffff1633868686866112ba565b50505050565b6000809054906101000a900473ffffffffffffffffffffffffffffffffffffffff1673ffffffffffffffffffffffffffffffffffffffff163373ffffffffffffffffffffffffffffffffffffffff161480610763575061076233611732565b5b80610773575061077233611759565b5b151561077e57600080fd5b6107aa600160009054906101000a900473ffffffffffffffffffffffffffffffffffffffff1682611780565b50565b6000809054906101000a900473ffffffffffffffffffffffffffffffffffffffff1673ffffffffffffffffffffffffffffffffffffffff163373ffffffffffffffffffffffffffffffffffffffff16148061080d575061080c33611732565b5b8061081d575061081c33611759565b5b151561082857600080fd5b610854600160009054906101000a900473ffffffffffffffffffffffffffffffffffffffff1682611892565b50565b81610861816119a4565b151561086c57600080fd5b8160018060ff16600160009054906101000a900473ffffffffffffffffffffffffffffffffffffffff1673ffffffffffffffffffffffffffffffffffffffff16637a0e03ec8460405180807f7061796d656e742f737461746500000000000000000000000000000000000000815250600d0182815260200191505060405180910390206000604051602001526040518263ffffffff167c0100000000000000000000000000000000000000000000000000000000028152600401808260001916600019168152602001915050602060405180830381600087803b151561095157600080fd5b6102c65a03f1151561096257600080fd5b5050506040518051905060ff1614151561097b57600080fd5b600160009054906101000a900473ffffffffffffffffffffffffffffffffffffffff1673ffffffffffffffffffffffffffffffffffffffff16630bd851588560405180807f7061796d656e742f737461746500000000000000000000000000000000000000815250600d01828152602001915050604051809103902060026040518363ffffffff167c01000000000000000000000000000000000000000000000000000000000281526004018083600019166000191681526020018260ff16815260200192505050600060405180830381600087803b1515610a5c57600080fd5b6102c65a03f11515610a6d57600080fd5b5050507fa5f78a79f83dfad686a63ca003a42f6c262d9fdc43a6742c56f5c27c11b9a1e2846040518082815260200191505060405180910390a15050505050565b600160149054906101000a900460ff1681565b60018160ff161415610b35577f33ab88bf15c608bd108a5e190f7ede9805cca0d26edb4c498910efed7bd4548233604051808273ffffffffffffffffffffffffffffffffffffffff1673ffffffffffffffffffffffffffffffffffffffff16815260200191505060405180910390a1610c1b565b60038160ff161415610ba9577f071c1d6c34c33579b7c602d142075cbfcd78a1f17a66d704fa952844a3c5e08e33604051808273ffffffffffffffffffffffffffffffffffffffff1673ffffffffffffffffffffffffffffffffffffffff16815260200191505060405180910390a1610c1a565b60048160ff161415610c19577fddce97d6f5184391465a772abc24fb939b4e8f99851a6a1b823d08b0f7abea9833604051808273ffffffffffffffffffffffffffffffffffffffff1673ffffffffffffffffffffffffffffffffffffffff16815260200191505060405180910390a15b5b5b50565b6000600160149054906101000a900460ff1660ff16141515610c3f57600080fd5b60008714158015610c51575060008514155b1515610c5c57600080fd5b610ccc8f8f8f8080601f0160208091040260200160405190810160405280939291908181526020018383808284378201915050505050508e8e8080601f0160208091040260200160405190810160405280939291908181526020018383808284378201915050505050508d610e57565b610cd98989898989610e8d565b610ce5848484846106cd565b610cee8f610ac1565b505050505050505050505050505050565b6000809054906101000a900473ffffffffffffffffffffffffffffffffffffffff1681565b600160009054906101000a900473ffffffffffffffffffffffffffffffffffffffff1681565b610da6600160009054906101000a900473ffffffffffffffffffffffffffffffffffffffff16848480806020026020016040519081016040528093929190818152602001838360200280828437820191505050505050836119cb565b505050565b6000809054906101000a900473ffffffffffffffffffffffffffffffffffffffff1673ffffffffffffffffffffffffffffffffffffffff163373ffffffffffffffffffffffffffffffffffffffff161480610e0b5750610e0a33611732565b5b80610e1b5750610e1a33611759565b5b1515610e2657600080fd5b610e53600160009054906101000a900473ffffffffffffffffffffffffffffffffffffffff168383611b85565b5050565b610e87600160009054906101000a900473ffffffffffffffffffffffffffffffffffffffff163386868686611cf1565b50505050565b610ebe600160009054906101000a900473ffffffffffffffffffffffffffffffffffffffff1633878787878761224d565b5050505050565b6000600160149054906101000a900460ff1660ff16141515610ee657600080fd5b610f45600160009054906101000a900473ffffffffffffffffffffffffffffffffffffffff163384848080601f0160208091040260200160405190810160405280939291908181526020018383808284378201915050505050506127ca565b7f93b7a8f909099e62da880be5159733c001501e38f43e9e9767d1acfa4562c8f733604051808273ffffffffffffffffffffffffffffffffffffffff1673ffffffffffffffffffffffffffffffffffffffff16815260200191505060405180910390a15050565b6000809054906101000a900473ffffffffffffffffffffffffffffffffffffffff1673ffffffffffffffffffffffffffffffffffffffff163373ffffffffffffffffffffffffffffffffffffffff1614151561100757600080fd5b600073ffffffffffffffffffffffffffffffffffffffff168173ffffffffffffffffffffffffffffffffffffffff161415151561104357600080fd5b8073ffffffffffffffffffffffffffffffffffffffff166000809054906101000a900473ffffffffffffffffffffffffffffffffffffffff1673ffffffffffffffffffffffffffffffffffffffff167f8be0079c531659141344cd1fd0a4f28419497f9722a3daafe3b4186f6b6457e060405160405180910390a3806000806101000a81548173ffffffffffffffffffffffffffffffffffffffff021916908373ffffffffffffffffffffffffffffffffffffffff16021790555050565b61117883836040805190810160405280601c81526020017f64656e746973742f617665726167652d726174696e672d636f756e74000000008152506040805190810160405280601681526020017f64656e746973742f617665726167652d726174696e670000000000000000000081525085612a15565b505050565b6111878383612f6a565b151561119257600080fd5b61119c8383612f83565b15156111a757600080fd5b8273ffffffffffffffffffffffffffffffffffffffff16633eba9ed28360405180807f757365722f69732d6f646c6c2d64656e746973743f00000000000000000000008152506015018273ffffffffffffffffffffffffffffffffffffffff1673ffffffffffffffffffffffffffffffffffffffff166c010000000000000000000000000281526014019150506040518091039020836040518363ffffffff167c01000000000000000000000000000000000000000000000000000000000281526004018083600019166000191681526020018215151515815260200192505050600060405180830381600087803b15156112a157600080fd5b6102c65a03f115156112b257600080fd5b505050505050565b6112c48686612f6a565b15156112cf57600080fd5b6112d98686612f83565b15156112e457600080fd5b8573ffffffffffffffffffffffffffffffffffffffff166325cf512d8660405180807f757365722f70686f6e652d6e756d6265720000000000000000000000000000008152506011018273ffffffffffffffffffffffffffffffffffffffff1673ffffffffffffffffffffffffffffffffffffffff166c010000000000000000000000000281526014019150506040518091039020866040518363ffffffff167c0100000000000000000000000000000000000000000000000000000000028152600401808360001916600019168152602001826000191660001916815260200192505050600060405180830381600087803b15156113e257600080fd5b6102c65a03f115156113f357600080fd5b5050508573ffffffffffffffffffffffffffffffffffffffff166325cf512d8660405180807f757365722f736f6369616c2d73656375726974792d6e756d6265720000000000815250601b018273ffffffffffffffffffffffffffffffffffffffff1673ffffffffffffffffffffffffffffffffffffffff166c010000000000000000000000000281526014019150506040518091039020856040518363ffffffff167c0100000000000000000000000000000000000000000000000000000000028152600401808360001916600019168152602001826000191660001916815260200192505050600060405180830381600087803b15156114f457600080fd5b6102c65a03f1151561150557600080fd5b5050508573ffffffffffffffffffffffffffffffffffffffff166325cf512d8660405180807f757365722f626972746864617900000000000000000000000000000000000000815250600d018273ffffffffffffffffffffffffffffffffffffffff1673ffffffffffffffffffffffffffffffffffffffff166c010000000000000000000000000281526014019150506040518091039020846040518363ffffffff167c0100000000000000000000000000000000000000000000000000000000028152600401808360001916600019168152602001826000191660001916815260200192505050600060405180830381600087803b151561160657600080fd5b6102c65a03f1151561161757600080fd5b5050508573ffffffffffffffffffffffffffffffffffffffff16630bd851588660405180807f757365722f67656e646572000000000000000000000000000000000000000000815250600b018273ffffffffffffffffffffffffffffffffffffffff1673ffffffffffffffffffffffffffffffffffffffff166c010000000000000000000000000281526014019150506040518091039020836040518363ffffffff167c01000000000000000000000000000000000000000000000000000000000281526004018083600019166000191681526020018260ff1660ff16815260200192505050600060405180830381600087803b151561171657600080fd5b6102c65a03f1151561172757600080fd5b505050505050505050565b600061173f826004612f99565b80156117525750611751826001612fb4565b5b9050919050565b6000611766826003612f99565b80156117795750611778826001612fb4565b5b9050919050565b8173ffffffffffffffffffffffffffffffffffffffff16630bd851588260405180807f757365722f737461747573000000000000000000000000000000000000000000815250600b018273ffffffffffffffffffffffffffffffffffffffff1673ffffffffffffffffffffffffffffffffffffffff166c01000000000000000000000000028152601401915050604051809103902060016040518363ffffffff167c01000000000000000000000000000000000000000000000000000000000281526004018083600019166000191681526020018260ff16815260200192505050600060405180830381600087803b151561187a57600080fd5b6102c65a03f1151561188b57600080fd5b5050505050565b8173ffffffffffffffffffffffffffffffffffffffff16630bd851588260405180807f757365722f737461747573000000000000000000000000000000000000000000815250600b018273ffffffffffffffffffffffffffffffffffffffff1673ffffffffffffffffffffffffffffffffffffffff166c01000000000000000000000000028152601401915050604051809103902060026040518363ffffffff167c01000000000000000000000000000000000000000000000000000000000281526004018083600019166000191681526020018260ff16815260200192505050600060405180830381600087803b151561198c57600080fd5b6102c65a03f1151561199d57600080fd5b5050505050565b60006119b1826001612f99565b80156119c457506119c3826001612fb4565b5b9050919050565b60008090505b8251811015611a3f576119fb8484838151811015156119ec57fe5b90602001906020020151612f6a565b1515611a0657600080fd5b611a27848483815181101515611a1857fe5b90602001906020020151612f83565b1515611a3257600080fd5b80806001019150506119d1565b600090505b8251811015611b7f578373ffffffffffffffffffffffffffffffffffffffff16633eba9ed28483815181101515611a7757fe5b9060200190602002015160405180807f757365722f69732d6f646c6c2d64656e746973743f00000000000000000000008152506015018273ffffffffffffffffffffffffffffffffffffffff1673ffffffffffffffffffffffffffffffffffffffff166c010000000000000000000000000281526014019150506040518091039020846040518363ffffffff167c01000000000000000000000000000000000000000000000000000000000281526004018083600019166000191681526020018215151515815260200192505050600060405180830381600087803b1515611b5e57600080fd5b6102c65a03f11515611b6f57600080fd5b5050508080600101915050611a44565b50505050565b60008373ffffffffffffffffffffffffffffffffffffffff16637a0e03ec8460405180807f757365722f7479706500000000000000000000000000000000000000000000008152506009018273ffffffffffffffffffffffffffffffffffffffff1673ffffffffffffffffffffffffffffffffffffffff166c0100000000000000000000000002815260140191505060405180910390206000604051602001526040518263ffffffff167c0100000000000000000000000000000000000000000000000000000000028152600401808260001916600019168152602001915050602060405180830381600087803b1515611c7e57600080fd5b6102c65a03f11515611c8f57600080fd5b50505060405180519050905060008373ffffffffffffffffffffffffffffffffffffffff1614158015611cc6575060008260ff1614155b8015611cd5575060008160ff16145b1515611ce057600080fd5b611ceb848484612fcf565b50505050565b600080611d05611d00866134fb565b613529565b9150611d18611d13856134fb565b613529565b9050611d59886040805190810160405280601b81526020017f636f6e6669672f6d61782d757365722d6e616d652d6c656e67746800000000008152506135ef565b8211158015611da65750611da2886040805190810160405280601b81526020017f636f6e6669672f6d696e2d757365722d6e616d652d6c656e67746800000000008152506135ef565b8210155b1515611db157600080fd5b611df0886040805190810160405280601c81526020017f636f6e6669672f6d61782d757365722d656d61696c2d6c656e677468000000008152506135ef565b8111158015611e3d5750611e39886040805190810160405280601c81526020017f636f6e6669672f6d696e2d757365722d656d61696c2d6c656e677468000000008152506135ef565b8110155b1515611e4857600080fd5b611e53888888612fcf565b8773ffffffffffffffffffffffffffffffffffffffff1663f58660668860405180807f757365722f6e616d6500000000000000000000000000000000000000000000008152506009018273ffffffffffffffffffffffffffffffffffffffff1673ffffffffffffffffffffffffffffffffffffffff166c010000000000000000000000000281526014019150506040518091039020876040518363ffffffff167c010000000000000000000000000000000000000000000000000000000002815260040180836000191660001916815260200180602001828103825283818151815260200191508051906020019080838360005b83811015611f62578082015181840152602081019050611f47565b50505050905090810190601f168015611f8f5780820380516001836020036101000a031916815260200191505b509350505050600060405180830381600087803b1515611fae57600080fd5b6102c65a03f11515611fbf57600080fd5b5050508773ffffffffffffffffffffffffffffffffffffffff1663f58660668860405180807f757365722f656d61696c00000000000000000000000000000000000000000000815250600a018273ffffffffffffffffffffffffffffffffffffffff1673ffffffffffffffffffffffffffffffffffffffff166c010000000000000000000000000281526014019150506040518091039020866040518363ffffffff167c010000000000000000000000000000000000000000000000000000000002815260040180836000191660001916815260200180602001828103825283818151815260200191508051906020019080838360005b838110156120d15780820151818401526020810190506120b6565b50505050905090810190601f1680156120fe5780820380516001836020036101000a031916815260200191505b509350505050600060405180830381600087803b151561211d57600080fd5b6102c65a03f1151561212e57600080fd5b5050508773ffffffffffffffffffffffffffffffffffffffff166325cf512d8860405180807f757365722f677261766174617200000000000000000000000000000000000000815250600d018273ffffffffffffffffffffffffffffffffffffffff1673ffffffffffffffffffffffffffffffffffffffff166c010000000000000000000000000281526014019150506040518091039020856040518363ffffffff167c0100000000000000000000000000000000000000000000000000000000028152600401808360001916600019168152602001826000191660001916815260200192505050600060405180830381600087803b151561222f57600080fd5b6102c65a03f1151561224057600080fd5b5050505050505050505050565b6122578787612f6a565b151561226257600080fd5b61226c8787612f83565b151561227757600080fd5b8673ffffffffffffffffffffffffffffffffffffffff166325cf512d8760405180807f757365722f737472656574000000000000000000000000000000000000000000815250600b018273ffffffffffffffffffffffffffffffffffffffff1673ffffffffffffffffffffffffffffffffffffffff166c010000000000000000000000000281526014019150506040518091039020876040518363ffffffff167c0100000000000000000000000000000000000000000000000000000000028152600401808360001916600019168152602001826000191660001916815260200192505050600060405180830381600087803b151561237557600080fd5b6102c65a03f1151561238657600080fd5b5050508673ffffffffffffffffffffffffffffffffffffffff166325cf512d8760405180807f757365722f6369747900000000000000000000000000000000000000000000008152506009018273ffffffffffffffffffffffffffffffffffffffff1673ffffffffffffffffffffffffffffffffffffffff166c010000000000000000000000000281526014019150506040518091039020866040518363ffffffff167c0100000000000000000000000000000000000000000000000000000000028152600401808360001916600019168152602001826000191660001916815260200192505050600060405180830381600087803b151561248757600080fd5b6102c65a03f1151561249857600080fd5b5050508673ffffffffffffffffffffffffffffffffffffffff16633562fd208760405180807f757365722f737461746500000000000000000000000000000000000000000000815250600a018273ffffffffffffffffffffffffffffffffffffffff1673ffffffffffffffffffffffffffffffffffffffff166c010000000000000000000000000281526014019150506040518091039020856040518363ffffffff167c010000000000000000000000000000000000000000000000000000000002815260040180836000191660001916815260200182815260200192505050600060405180830381600087803b151561259157600080fd5b6102c65a03f115156125a257600080fd5b5050508673ffffffffffffffffffffffffffffffffffffffff166325cf512d8760405180807f757365722f7a69702d636f646500000000000000000000000000000000000000815250600d018273ffffffffffffffffffffffffffffffffffffffff1673ffffffffffffffffffffffffffffffffffffffff166c010000000000000000000000000281526014019150506040518091039020846040518363ffffffff167c0100000000000000000000000000000000000000000000000000000000028152600401808360001916600019168152602001826000191660001916815260200192505050600060405180830381600087803b15156126a357600080fd5b6102c65a03f115156126b457600080fd5b5050508673ffffffffffffffffffffffffffffffffffffffff16633562fd208760405180807f757365722f636f756e7472790000000000000000000000000000000000000000815250600c018273ffffffffffffffffffffffffffffffffffffffff1673ffffffffffffffffffffffffffffffffffffffff166c010000000000000000000000000281526014019150506040518091039020836040518363ffffffff167c010000000000000000000000000000000000000000000000000000000002815260040180836000191660001916815260200182815260200192505050600060405180830381600087803b15156127ad57600080fd5b6102c65a03f115156127be57600080fd5b50505050505050505050565b60006127dd6127d8836134fb565b613529565b90506127e98484612f6a565b15156127f457600080fd5b6127fe8484612f83565b151561280957600080fd5b612848846040805190810160405280601e81526020017f636f6e6669672f6d61782d636f6d70616e792d6e616d652d6c656e67746800008152506135ef565b81111580156128955750612891846040805190810160405280601e81526020017f636f6e6669672f6d696e2d636f6d70616e792d6e616d652d6c656e67746800008152506135ef565b8110155b15156128a057600080fd5b8373ffffffffffffffffffffffffffffffffffffffff1663f58660668460405180807f64656e746973742f636f6d70616e792d6e616d650000000000000000000000008152506014018273ffffffffffffffffffffffffffffffffffffffff1673ffffffffffffffffffffffffffffffffffffffff166c010000000000000000000000000281526014019150506040518091039020846040518363ffffffff167c010000000000000000000000000000000000000000000000000000000002815260040180836000191660001916815260200180602001828103825283818151815260200191508051906020019080838360005b838110156129af578082015181840152602081019050612994565b50505050905090810190601f1680156129dc5780820380516001836020036101000a031916815260200191505b509350505050600060405180830381600087803b15156129fb57600080fd5b6102c65a03f11515612a0c57600080fd5b50505050505050565b60008060008060008973ffffffffffffffffffffffffffffffffffffffff1663bdc963d8898b6040518083805190602001908083835b602083101515612a705780518252602082019150602081019050602083039250612a4b565b6001836020036101000a0380198251168184511680821785525050505050509050018273ffffffffffffffffffffffffffffffffffffffff1673ffffffffffffffffffffffffffffffffffffffff166c010000000000000000000000000281526014019250505060405180910390206000604051602001526040518263ffffffff167c0100000000000000000000000000000000000000000000000000000000028152600401808260001916600019168152602001915050602060405180830381600087803b1515612b4157600080fd5b6102c65a03f11515612b5257600080fd5b5050506040518051905094508973ffffffffffffffffffffffffffffffffffffffff16637a0e03ec888b6040518083805190602001908083835b602083101515612bb15780518252602082019150602081019050602083039250612b8c565b6001836020036101000a0380198251168184511680821785525050505050509050018273ffffffffffffffffffffffffffffffffffffffff1673ffffffffffffffffffffffffffffffffffffffff166c010000000000000000000000000281526014019250505060405180910390206000604051602001526040518263ffffffff167c0100000000000000000000000000000000000000000000000000000000028152600401808260001916600019168152602001915050602060405180830381600087803b1515612c8257600080fd5b6102c65a03f11515612c9357600080fd5b505050604051805190509350612caa8560016136f5565b92506000851415612cc0578560ff169150612cea565b612cd9612cd08560ff1687613713565b8760ff166136f5565b90508281811515612ce657fe5b0491505b8973ffffffffffffffffffffffffffffffffffffffff16633562fd20898b6040518083805190602001908083835b602083101515612d3d5780518252602082019150602081019050602083039250612d18565b6001836020036101000a0380198251168184511680821785525050505050509050018273ffffffffffffffffffffffffffffffffffffffff1673ffffffffffffffffffffffffffffffffffffffff166c01000000000000000000000000028152601401925050506040518091039020856040518363ffffffff167c010000000000000000000000000000000000000000000000000000000002815260040180836000191660001916815260200182815260200192505050600060405180830381600087803b1515612e0d57600080fd5b6102c65a03f11515612e1e57600080fd5b5050508973ffffffffffffffffffffffffffffffffffffffff16630bd85158888b6040518083805190602001908083835b602083101515612e745780518252602082019150602081019050602083039250612e4f565b6001836020036101000a0380198251168184511680821785525050505050509050018273ffffffffffffffffffffffffffffffffffffffff1673ffffffffffffffffffffffffffffffffffffffff166c01000000000000000000000000028152601401925050506040518091039020846040518363ffffffff167c01000000000000000000000000000000000000000000000000000000000281526004018083600019166000191681526020018260ff1660ff16815260200192505050600060405180830381600087803b1515612f4a57600080fd5b6102c65a03f11515612f5b57600080fd5b50505050505050505050505050565b600080612f778484613746565b60ff1611905092915050565b6000612f9183836001613862565b905092915050565b6000612fa48361387f565b60ff168260ff1614905092915050565b6000612fbf836139bc565b60ff168260ff1614905092915050565b612fd7614121565b612fdf614121565b612fe7614121565b612ff18686612f6a565b15156133e3578573ffffffffffffffffffffffffffffffffffffffff16633562fd208660405180807f757365722f637265617465642d6f6e0000000000000000000000000000000000815250600f018273ffffffffffffffffffffffffffffffffffffffff1673ffffffffffffffffffffffffffffffffffffffff166c010000000000000000000000000281526014019150506040518091039020426040518363ffffffff167c010000000000000000000000000000000000000000000000000000000002815260040180836000191660001916815260200182815260200192505050600060405180830381600087803b15156130ed57600080fd5b6102c65a03f115156130fe57600080fd5b5050508573ffffffffffffffffffffffffffffffffffffffff16630bd851588660405180807f757365722f737461747573000000000000000000000000000000000000000000815250600b018273ffffffffffffffffffffffffffffffffffffffff1673ffffffffffffffffffffffffffffffffffffffff166c01000000000000000000000000028152601401915050604051809103902060016040518363ffffffff167c01000000000000000000000000000000000000000000000000000000000281526004018083600019166000191681526020018260ff16815260200192505050600060405180830381600087803b15156131fb57600080fd5b6102c65a03f1151561320c57600080fd5b505050613285866040805190810160405280600981526020017f75736572732f69647300000000000000000000000000000000000000000000008152506040805190810160405280600b81526020017f75736572732f636f756e7400000000000000000000000000000000000000000081525088613af9565b61328e84613e1f565b8093508194508295505050508573ffffffffffffffffffffffffffffffffffffffff16633eba9ed284876040518083805190602001908083835b6020831015156132ed57805182526020820191506020810190506020830392506132c8565b6001836020036101000a0380198251168184511680821785525050505050509050018273ffffffffffffffffffffffffffffffffffffffff1673ffffffffffffffffffffffffffffffffffffffff166c0100000000000000000000000002815260140192505050604051809103902060016040518363ffffffff167c01000000000000000000000000000000000000000000000000000000000281526004018083600019166000191681526020018215151515815260200192505050600060405180830381600087803b15156133c257600080fd5b6102c65a03f115156133d357600080fd5b5050506133e286838388613af9565b5b8573ffffffffffffffffffffffffffffffffffffffff16630bd851588660405180807f757365722f7479706500000000000000000000000000000000000000000000008152506009018273ffffffffffffffffffffffffffffffffffffffff1673ffffffffffffffffffffffffffffffffffffffff166c010000000000000000000000000281526014019150506040518091039020866040518363ffffffff167c01000000000000000000000000000000000000000000000000000000000281526004018083600019166000191681526020018260ff1660ff16815260200192505050600060405180830381600087803b15156134df57600080fd5b6102c65a03f115156134f057600080fd5b505050505050505050565b613503614135565b600060208301905060408051908101604052808451815260200182815250915050919050565b6000806000806000601f8660200151039350856000015184019250600091505b828410156135e35760ff845116905060808160ff16101561356f576001840193506135d6565b60e08160ff161015613586576002840193506135d5565b60f08160ff16101561359d576003840193506135d4565b60f88160ff1610156135b4576004840193506135d3565b60fc8160ff1610156135cb576005840193506135d2565b6006840193505b5b5b5b5b8180600101925050613549565b81945050505050919050565b60008273ffffffffffffffffffffffffffffffffffffffff1663bdc963d8836040518082805190602001908083835b602083101515613643578051825260208201915060208101905060208303925061361e565b6001836020036101000a03801982511681845116808217855250505050505090500191505060405180910390206000604051602001526040518263ffffffff167c0100000000000000000000000000000000000000000000000000000000028152600401808260001916600019168152602001915050602060405180830381600087803b15156136d257600080fd5b6102c65a03f115156136e357600080fd5b50505060405180519050905092915050565b600080828401905083811015151561370957fe5b8091505092915050565b60008082840290506000841480613734575082848281151561373157fe5b04145b151561373c57fe5b8091505092915050565b60008273ffffffffffffffffffffffffffffffffffffffff16637a0e03ec8360405180807f757365722f737461747573000000000000000000000000000000000000000000815250600b018273ffffffffffffffffffffffffffffffffffffffff1673ffffffffffffffffffffffffffffffffffffffff166c0100000000000000000000000002815260140191505060405180910390206000604051602001526040518263ffffffff167c0100000000000000000000000000000000000000000000000000000000028152600401808260001916600019168152602001915050602060405180830381600087803b151561383f57600080fd5b6102c65a03f1151561385057600080fd5b50505060405180519050905092915050565b600061386e8484613746565b60ff168260ff161490509392505050565b6000600160009054906101000a900473ffffffffffffffffffffffffffffffffffffffff1673ffffffffffffffffffffffffffffffffffffffff16637a0e03ec8360405180807f757365722f7479706500000000000000000000000000000000000000000000008152506009018273ffffffffffffffffffffffffffffffffffffffff1673ffffffffffffffffffffffffffffffffffffffff166c0100000000000000000000000002815260140191505060405180910390206000604051602001526040518263ffffffff167c0100000000000000000000000000000000000000000000000000000000028152600401808260001916600019168152602001915050602060405180830381600087803b151561399a57600080fd5b6102c65a03f115156139ab57600080fd5b505050604051805190509050919050565b6000600160009054906101000a900473ffffffffffffffffffffffffffffffffffffffff1673ffffffffffffffffffffffffffffffffffffffff16637a0e03ec8360405180807f757365722f737461747573000000000000000000000000000000000000000000815250600b018273ffffffffffffffffffffffffffffffffffffffff1673ffffffffffffffffffffffffffffffffffffffff166c0100000000000000000000000002815260140191505060405180910390206000604051602001526040518263ffffffff167c0100000000000000000000000000000000000000000000000000000000028152600401808260001916600019168152602001915050602060405180830381600087803b1515613ad757600080fd5b6102c65a03f11515613ae857600080fd5b505050604051805190509050919050565b60008473ffffffffffffffffffffffffffffffffffffffff1663bdc963d8846040518082805190602001908083835b602083101515613b4d5780518252602082019150602081019050602083039250613b28565b6001836020036101000a03801982511681845116808217855250505050505090500191505060405180910390206000604051602001526040518263ffffffff167c0100000000000000000000000000000000000000000000000000000000028152600401808260001916600019168152602001915050602060405180830381600087803b1515613bdc57600080fd5b6102c65a03f11515613bed57600080fd5b5050506040518051905090508473ffffffffffffffffffffffffffffffffffffffff16635a2bf25a85836040518083805190602001908083835b602083101515613c4c5780518252602082019150602081019050602083039250613c27565b6001836020036101000a038019825116818451168082178552505050505050905001828152602001925050506040518091039020846040518363ffffffff167c01000000000000000000000000000000000000000000000000000000000281526004018083600019166000191681526020018273ffffffffffffffffffffffffffffffffffffffff1673ffffffffffffffffffffffffffffffffffffffff16815260200192505050600060405180830381600087803b1515613d0d57600080fd5b6102c65a03f11515613d1e57600080fd5b5050508473ffffffffffffffffffffffffffffffffffffffff16633562fd20846040518082805190602001908083835b602083101515613d735780518252602082019150602081019050602083039250613d4e565b6001836020036101000a0380198251168184511680821785525050505050509050019150506040518091039020600184016040518363ffffffff167c010000000000000000000000000000000000000000000000000000000002815260040180836000191660001916815260200182815260200192505050600060405180830381600087803b1515613e0457600080fd5b6102c65a03f11515613e1557600080fd5b5050505050505050565b613e27614121565b613e2f614121565b613e37614121565b60018460ff161415613ef0576040805190810160405280601081526020017f757365722f69732d70617469656e743f0000000000000000000000000000000081525092506040805190810160405280600c81526020017f70617469656e74732f696473000000000000000000000000000000000000000081525091506040805190810160405280600e81526020017f70617469656e74732f636f756e74000000000000000000000000000000000000815250905061411a565b60028460ff161415613fa9576040805190810160405280601081526020017f757365722f69732d64656e746973743f0000000000000000000000000000000081525092506040805190810160405280600c81526020017f64656e74697374732f696473000000000000000000000000000000000000000081525091506040805190810160405280600e81526020017f64656e74697374732f636f756e740000000000000000000000000000000000008152509050614119565b60038460ff161415614062576040805190810160405280601081526020017f757365722f69732d6d616e616765723f0000000000000000000000000000000081525092506040805190810160405280600c81526020017f6d616e61676572732f696473000000000000000000000000000000000000000081525091506040805190810160405280600e81526020017f6d616e61676572732f636f756e740000000000000000000000000000000000008152509050614118565b60048460ff161415614117576040805190810160405280600e81526020017f757365722f69732d61646d696e3f00000000000000000000000000000000000081525092506040805190810160405280600a81526020017f61646d696e732f6964730000000000000000000000000000000000000000000081525091506040805190810160405280600c81526020017f61646d696e732f636f756e74000000000000000000000000000000000000000081525090505b5b5b5b9193909250565b602060405190810160405280600081525090565b6040805190810160405280600081526020016000815250905600a165627a7a72305820113de530c9f58c94e1e9e6ec16302ea174ec47b446b8b35bf5b0a9c35f81ac130029",
  "source": "pragma solidity 0.4.18;\n\nimport \"./Restrictor.sol\";\nimport \"../lib/odll/userManager.sol\";\n\ncontract UserWriter is Restrictor {\n  event OnAdminAdded(address userId);\n  event OnDentistCompanySet(address userId);\n  event OnManagerAdded(address userId);\n  event OnPatientAdded(address userId);\n\n  function UserWriter(address _dbAddress) public {\n    require(_dbAddress != 0x0);\n    dbAddress = _dbAddress;\n  }\n\n  function writeUser(\n    uint8 userType,\n    string name,\n    string email,\n    bytes32 gravatar,\n    bytes32 street,\n    bytes32 city,\n    uint stateId,\n    bytes32 zipCode,\n    uint countryId,\n    bytes32 phoneNumber,\n    bytes32 socialSecurityNumber,\n    bytes32 birthday,\n    uint8 gender\n  )\n    external\n    onlyPermittedSmartContract\n  {\n    // require the last compulsories first\n    require(stateId != 0 && countryId != 0);\n\n    writeUserIdentity(userType, name, email, gravatar);\n    writeUserLocation(street, city, stateId, zipCode, countryId);\n    writeUserOptionalValues(phoneNumber, socialSecurityNumber, birthday, gender);\n    determineEvent(userType);\n  }\n\n  function writeUserIdentity(uint8 userType, string name, string email, bytes32 gravatar) public {\n    userManager.setUserIdentity(dbAddress, msg.sender, userType, name, email, gravatar);\n  }\n\n  function writeUserLocation(bytes32 street, bytes32 city, uint stateId, bytes32 zipCode, uint countryId) public {\n    userManager.setUserLocation(dbAddress, msg.sender, street, city, stateId, zipCode, countryId);\n  }\n\n  function writeUserOptionalValues(bytes32 phoneNumber, bytes32 socialSecurityNumber, bytes32 birthday, uint8 gender) public {\n    userManager.setUserOptionalValues(dbAddress, msg.sender, phoneNumber, socialSecurityNumber, birthday, gender);\n  }\n\n  function determineEvent(uint8 userType) public {\n    if (userType == 1) {\n      OnPatientAdded(msg.sender);\n    } else if (userType == 3) {\n      OnManagerAdded(msg.sender);\n    } else if (userType == 4) {\n      OnAdminAdded(msg.sender);\n    }\n  }\n\n  function setDentistCompany (\n    string companyName\n  )\n    external\n    onlyPermittedSmartContract\n  {\n    userManager.setDentistCompanyData(dbAddress, msg.sender, companyName);\n    OnDentistCompanySet(msg.sender);\n  }\n\n  function setODLLDentist (\n    address userId,\n    bool odllDentistValue\n  )\n    external\n  {\n    userManager.setODLLDentistData(dbAddress, userId, odllDentistValue);\n  }\n\n  function setODLLDentists (\n    address[] userIds,\n    bool odllDentistValue\n  )\n    external\n  {\n    userManager.setODLLDentistsData(dbAddress, userIds, odllDentistValue);\n  }\n\n  function addOfficialToODLL (address officialId, uint8 userType)\n    external\n    onlyOwnerOrActiveAdminOrActiveManager\n  {\n    userManager.addOfficialDataToODLL(dbAddress, officialId, userType);\n  }\n\n  function blockUser (address userId)\n    external\n    onlyOwnerOrActiveAdminOrActiveManager\n  {\n    userManager.blockUserEntity(dbAddress, userId);\n  }\n\n  function unblockUser (address userId)\n    external\n    onlyOwnerOrActiveAdminOrActiveManager\n  {\n    userManager.unblockUserEntity(dbAddress, userId);\n  }\n\n  function writeDentistRating (address dentistId, uint8 rating)\n    external\n  {\n    require(dentistId != 0x0 && rating > 0);\n    userManager.writeDentistEntityRating(dbAddress, dentistId, rating);\n  }\n}\n",
  "sourcePath": "/Users/danielokwufulueze/dev/vue/apps/oraldatalink/contracts/odll/UserWriter.sol",
  "compiler": {
    "name": "solc",
    "version": "0.4.18+commit.9cf6e910.Emscripten.clang"
  },
  "schemaVersion": "1.0.1",
  "updatedAt": "2017-12-04T15:44:41.129Z"
}