{
  "contractName": "UserWriter",
  "abi": [
    {
      "constant": false,
      "inputs": [
        {
          "name": "dentistId",
          "type": "address"
        },
        {
          "name": "rating",
          "type": "uint8"
        }
      ],
      "name": "writeDentistRating",
      "outputs": [],
      "payable": false,
      "stateMutability": "nonpayable",
      "type": "function"
    },
    {
      "constant": false,
      "inputs": [
        {
          "name": "userId",
          "type": "address"
        },
        {
          "name": "odllDentistValue",
          "type": "bool"
        },
        {
          "name": "birthday",
          "type": "bytes32"
        },
        {
          "name": "gender",
          "type": "uint8"
        }
      ],
      "name": "setODLLDentist",
      "outputs": [],
      "payable": false,
      "stateMutability": "nonpayable",
      "type": "function"
    },
    {
      "constant": false,
      "inputs": [
        {
          "name": "phoneNumber",
          "type": "bytes32"
        },
        {
          "name": "socialSecurityNumber",
          "type": "bytes32"
        },
        {
          "name": "birthday",
          "type": "bytes32"
        },
        {
          "name": "gender",
          "type": "uint8"
        }
      ],
      "name": "writeUserOptionalValues",
      "outputs": [],
      "payable": false,
      "stateMutability": "nonpayable",
      "type": "function"
    },
    {
      "constant": false,
      "inputs": [
        {
          "name": "userId",
          "type": "address"
        }
      ],
      "name": "unblockUser",
      "outputs": [],
      "payable": false,
      "stateMutability": "nonpayable",
      "type": "function"
    },
    {
      "constant": false,
      "inputs": [
        {
          "name": "userId",
          "type": "address"
        }
      ],
      "name": "blockUser",
      "outputs": [
        {
          "name": "",
          "type": "uint8"
        }
      ],
      "payable": false,
      "stateMutability": "nonpayable",
      "type": "function"
    },
    {
      "constant": true,
      "inputs": [
        {
          "name": "userType",
          "type": "uint8"
        }
      ],
      "name": "smartContractStatus",
      "outputs": [
        {
          "name": "",
          "type": "uint8"
        }
      ],
      "payable": false,
      "stateMutability": "view",
      "type": "function"
    },
    {
      "constant": false,
      "inputs": [
        {
          "name": "userType",
          "type": "uint8"
        },
        {
          "name": "name",
          "type": "string"
        },
        {
          "name": "email",
          "type": "string"
        },
        {
          "name": "gravatar",
          "type": "bytes32"
        },
        {
          "name": "street",
          "type": "bytes32"
        },
        {
          "name": "city",
          "type": "bytes32"
        },
        {
          "name": "stateId",
          "type": "uint256"
        },
        {
          "name": "zipCode",
          "type": "bytes32"
        },
        {
          "name": "countryId",
          "type": "uint256"
        },
        {
          "name": "phoneNumber",
          "type": "bytes32"
        },
        {
          "name": "socialSecurityNumber",
          "type": "bytes32"
        },
        {
          "name": "birthday",
          "type": "bytes32"
        },
        {
          "name": "gender",
          "type": "uint8"
        }
      ],
      "name": "determineEvent",
      "outputs": [],
      "payable": false,
      "stateMutability": "nonpayable",
      "type": "function"
    },
    {
      "constant": false,
      "inputs": [
        {
          "name": "userType",
          "type": "uint8"
        },
        {
          "name": "name",
          "type": "string"
        },
        {
          "name": "email",
          "type": "string"
        },
        {
          "name": "gravatar",
          "type": "bytes32"
        },
        {
          "name": "street",
          "type": "bytes32"
        },
        {
          "name": "city",
          "type": "bytes32"
        },
        {
          "name": "stateId",
          "type": "uint256"
        },
        {
          "name": "zipCode",
          "type": "bytes32"
        },
        {
          "name": "countryId",
          "type": "uint256"
        },
        {
          "name": "phoneNumber",
          "type": "bytes32"
        },
        {
          "name": "socialSecurityNumber",
          "type": "bytes32"
        },
        {
          "name": "birthday",
          "type": "bytes32"
        },
        {
          "name": "gender",
          "type": "uint8"
        }
      ],
      "name": "writeUser",
      "outputs": [
        {
          "name": "",
          "type": "address"
        }
      ],
      "payable": false,
      "stateMutability": "nonpayable",
      "type": "function"
    },
    {
      "constant": true,
      "inputs": [],
      "name": "owner",
      "outputs": [
        {
          "name": "",
          "type": "address"
        }
      ],
      "payable": false,
      "stateMutability": "view",
      "type": "function"
    },
    {
      "constant": true,
      "inputs": [
        {
          "name": "isODLLDentist",
          "type": "bool"
        },
        {
          "name": "isAvailable",
          "type": "bool"
        },
        {
          "name": "companyName",
          "type": "string"
        }
      ],
      "name": "dbAddress",
      "outputs": [
        {
          "name": "",
          "type": "address"
        }
      ],
      "payable": false,
      "stateMutability": "view",
      "type": "function"
    },
    {
      "constant": false,
      "inputs": [
        {
          "name": "userIds",
          "type": "address[]"
        },
        {
          "name": "odllDentistValue",
          "type": "bool"
        }
      ],
      "name": "setODLLDentists",
      "outputs": [],
      "payable": false,
      "stateMutability": "nonpayable",
      "type": "function"
    },
    {
      "constant": false,
      "inputs": [
        {
          "name": "callerAddress",
          "type": "address"
        },
        {
          "name": "newContractAddress",
          "type": "address"
        }
      ],
      "name": "destroySelf",
      "outputs": [],
      "payable": false,
      "stateMutability": "nonpayable",
      "type": "function"
    },
    {
      "constant": false,
      "inputs": [
        {
          "name": "officialId",
          "type": "address"
        },
        {
          "name": "userType",
          "type": "uint8"
        },
        {
          "name": "email",
          "type": "string"
        },
        {
          "name": "gravatar",
          "type": "bytes32"
        }
      ],
      "name": "addOfficialToODLL",
      "outputs": [],
      "payable": false,
      "stateMutability": "nonpayable",
      "type": "function"
    },
    {
      "constant": false,
      "inputs": [
        {
          "name": "userType",
          "type": "uint8"
        },
        {
          "name": "name",
          "type": "string"
        },
        {
          "name": "email",
          "type": "string"
        },
        {
          "name": "gravatar",
          "type": "bytes32"
        }
      ],
      "name": "writeUserIdentity",
      "outputs": [],
      "payable": false,
      "stateMutability": "nonpayable",
      "type": "function"
    },
    {
      "constant": false,
      "inputs": [
        {
          "name": "street",
          "type": "bytes32"
        },
        {
          "name": "city",
          "type": "bytes32"
        },
        {
          "name": "stateId",
          "type": "uint256"
        },
        {
          "name": "zipCode",
          "type": "bytes32"
        },
        {
          "name": "countryId",
          "type": "uint256"
        }
      ],
      "name": "writeUserLocation",
      "outputs": [],
      "payable": false,
      "stateMutability": "nonpayable",
      "type": "function"
    },
    {
      "constant": false,
      "inputs": [
        {
          "name": "companyName",
          "type": "string"
        }
      ],
      "name": "setDentistCompany",
      "outputs": [],
      "payable": false,
      "stateMutability": "nonpayable",
      "type": "function"
    },
    {
      "inputs": [
        {
          "name": "newOwner",
          "type": "address"
        }
      ],
      "payable": false,
      "stateMutability": "nonpayable",
      "type": "function",
      "constant": false,
      "name": "transferOwnership",
      "outputs": []
    },
    {
      "anonymous": false,
      "inputs": [
        {
          "indexed": false,
          "name": "_dbAddress",
          "type": "address"
        }
      ],
      "name": "OnAdminAdded",
      "type": "constructor",
      "payable": false,
      "stateMutability": "nonpayable"
    },
    {
      "anonymous": false,
      "inputs": [
        {
          "indexed": false,
          "name": "userId",
          "type": "address"
        }
      ],
      "name": "OnAdminAdded",
      "type": "event"
    },
    {
      "anonymous": false,
      "inputs": [
        {
          "indexed": false,
          "name": "userId",
          "type": "address"
        }
      ],
      "name": "OnDentistCompanySet",
      "type": "event"
    },
    {
      "anonymous": false,
      "inputs": [
        {
          "indexed": false,
          "name": "userId",
          "type": "address"
        }
      ],
      "name": "OnManagerAdded",
      "type": "event"
    },
    {
      "anonymous": false,
      "inputs": [
        {
          "indexed": false,
          "name": "userId",
          "type": "address"
        }
      ],
      "name": "OnPatientAdded",
      "type": "event"
    },
    {
      "anonymous": false,
      "inputs": [
        {
          "indexed": false,
          "name": "status",
          "type": "uint8"
        },
        {
          "indexed": true,
          "name": "newOwner",
          "type": "address"
        }
      ],
      "name": "OnSmartContractStatusSet",
      "type": "event"
    },
    {
      "anonymous": false,
      "inputs": [
        {
          "indexed": true,
          "name": "previousOwner",
          "type": "address"
        },
        {
          "indexed": true,
          "name": "newOwner",
          "type": "address"
        }
      ],
      "name": "OwnershipTransferred",
      "type": "event"
    }
  ],
  "bytecode": "0x6060604052341561000f57600080fd5b6040516020806200419383398101604052808051906020019091905050336000806101000a81548173ffffffffffffffffffffffffffffffffffffffff021916908373ffffffffffffffffffffffffffffffffffffffff16021790555060008173ffffffffffffffffffffffffffffffffffffffff161415151561009257600080fd5b80600160006101000a81548173ffffffffffffffffffffffffffffffffffffffff021916908373ffffffffffffffffffffffffffffffffffffffff160217905550506140af80620000e46000396000f3006060604052600436106100f0576000357c0100000000000000000000000000000000000000000000000000000000900463ffffffff16806222049c146100f557806305e46bd21461013a5780630b61e3b51461017e57806339d319e5146101cb5780633da01325146102045780634c8ddddc1461023d578063526f6ce41461026c578063832bf231146102925780638da5cb5b1461035957806391e06b6d146103ae578063a7f91c9214610403578063b16b22301461043c578063c6b64a0814610494578063c82c29d9146104d9578063e962beac14610592578063ec1113f4146105e5578063f2fde38b14610613575b600080fd5b341561010057600080fd5b610138600480803573ffffffffffffffffffffffffffffffffffffffff1690602001909190803560ff1690602001909190505061064c565b005b341561014557600080fd5b61017c600480803573ffffffffffffffffffffffffffffffffffffffff1690602001909190803515159060200190919050506106b2565b005b341561018957600080fd5b6101c9600480803560001916906020019091908035600019169060200190919080356000191690602001909190803560ff169060200190919050506106e3565b005b34156101d657600080fd5b610202600480803573ffffffffffffffffffffffffffffffffffffffff16906020019091905050610719565b005b341561020f57600080fd5b61023b600480803573ffffffffffffffffffffffffffffffffffffffff169060200190919050506107c3565b005b341561024857600080fd5b61025061086d565b604051808260ff1660ff16815260200191505060405180910390f35b341561027757600080fd5b610290600480803560ff16906020019091905050610880565b005b341561029d57600080fd5b610357600480803560ff16906020019091908035906020019082018035906020019190919290803590602001908201803590602001919091929080356000191690602001909190803560001916906020019091908035600019169060200190919080359060200190919080356000191690602001909190803590602001909190803560001916906020019091908035600019169060200190919080356000191690602001909190803560ff169060200190919050506109dd565b005b341561036457600080fd5b61036c610abe565b604051808273ffffffffffffffffffffffffffffffffffffffff1673ffffffffffffffffffffffffffffffffffffffff16815260200191505060405180910390f35b34156103b957600080fd5b6103c1610ae3565b604051808273ffffffffffffffffffffffffffffffffffffffff1673ffffffffffffffffffffffffffffffffffffffff16815260200191505060405180910390f35b341561040e57600080fd5b61043a600480803590602001908201803590602001919091929080351515906020019091905050610b09565b005b341561044757600080fd5b610492600480803573ffffffffffffffffffffffffffffffffffffffff1690602001909190803573ffffffffffffffffffffffffffffffffffffffff16906020019091905050610b6a565b005b341561049f57600080fd5b6104d7600480803573ffffffffffffffffffffffffffffffffffffffff1690602001909190803560ff16906020019091905050610d06565b005b34156104e457600080fd5b610590600480803560ff1690602001909190803590602001908201803590602001908080601f0160208091040260200160405190810160405280939291908181526020018383808284378201915050505050509190803590602001908201803590602001908080601f0160208091040260200160405190810160405280939291908181526020018383808284378201915050505050509190803560001916906020019091905050610db2565b005b341561059d57600080fd5b6105e36004808035600019169060200190919080356000191690602001909190803590602001909190803560001916906020019091908035906020019091905050610de8565b005b34156105f057600080fd5b61061160048080359060200190820180359060200191909192905050610e20565b005b341561061e57600080fd5b61064a600480803573ffffffffffffffffffffffffffffffffffffffff16906020019091905050610f07565b005b60008273ffffffffffffffffffffffffffffffffffffffff1614158015610676575060008160ff16115b151561068157600080fd5b6106ae600160009054906101000a900473ffffffffffffffffffffffffffffffffffffffff16838361105c565b5050565b6106df600160009054906101000a900473ffffffffffffffffffffffffffffffffffffffff1683836110d8565b5050565b610713600160009054906101000a900473ffffffffffffffffffffffffffffffffffffffff163386868686611215565b50505050565b6000809054906101000a900473ffffffffffffffffffffffffffffffffffffffff1673ffffffffffffffffffffffffffffffffffffffff163373ffffffffffffffffffffffffffffffffffffffff16148061077957506107783361168d565b5b806107895750610788336116b4565b5b151561079457600080fd5b6107c0600160009054906101000a900473ffffffffffffffffffffffffffffffffffffffff16826116db565b50565b6000809054906101000a900473ffffffffffffffffffffffffffffffffffffffff1673ffffffffffffffffffffffffffffffffffffffff163373ffffffffffffffffffffffffffffffffffffffff16148061082357506108223361168d565b5b806108335750610832336116b4565b5b151561083e57600080fd5b61086a600160009054906101000a900473ffffffffffffffffffffffffffffffffffffffff16826117ed565b50565b600160149054906101000a900460ff1681565b60018160ff1614156108f4577f33ab88bf15c608bd108a5e190f7ede9805cca0d26edb4c498910efed7bd4548233604051808273ffffffffffffffffffffffffffffffffffffffff1673ffffffffffffffffffffffffffffffffffffffff16815260200191505060405180910390a16109da565b60038160ff161415610968577f071c1d6c34c33579b7c602d142075cbfcd78a1f17a66d704fa952844a3c5e08e33604051808273ffffffffffffffffffffffffffffffffffffffff1673ffffffffffffffffffffffffffffffffffffffff16815260200191505060405180910390a16109d9565b60048160ff1614156109d8577fddce97d6f5184391465a772abc24fb939b4e8f99851a6a1b823d08b0f7abea9833604051808273ffffffffffffffffffffffffffffffffffffffff1673ffffffffffffffffffffffffffffffffffffffff16815260200191505060405180910390a15b5b5b50565b6000600160149054906101000a900460ff1660ff161415156109fe57600080fd5b60008714158015610a10575060008514155b1515610a1b57600080fd5b610a8b8f8f8f8080601f0160208091040260200160405190810160405280939291908181526020018383808284378201915050505050508e8e8080601f0160208091040260200160405190810160405280939291908181526020018383808284378201915050505050508d610db2565b610a988989898989610de8565b610aa4848484846106e3565b610aad8f610880565b505050505050505050505050505050565b6000809054906101000a900473ffffffffffffffffffffffffffffffffffffffff1681565b600160009054906101000a900473ffffffffffffffffffffffffffffffffffffffff1681565b610b65600160009054906101000a900473ffffffffffffffffffffffffffffffffffffffff16848480806020026020016040519081016040528093929190818152602001838360200280828437820191505050505050836118ff565b505050565b816000809054906101000a900473ffffffffffffffffffffffffffffffffffffffff1673ffffffffffffffffffffffffffffffffffffffff168173ffffffffffffffffffffffffffffffffffffffff16148015610ce25750600160009054906101000a900473ffffffffffffffffffffffffffffffffffffffff1673ffffffffffffffffffffffffffffffffffffffff16634c77e5ba60405180807f6f646c6c2f6f776e657200000000000000000000000000000000000000000000815250600a01905060405180910390206000604051602001526040518263ffffffff167c0100000000000000000000000000000000000000000000000000000000028152600401808260001916600019168152602001915050602060405180830381600087803b1515610c9857600080fd5b6102c65a03f11515610ca957600080fd5b5050506040518051905073ffffffffffffffffffffffffffffffffffffffff168173ffffffffffffffffffffffffffffffffffffffff16145b1515610ced57600080fd5b8173ffffffffffffffffffffffffffffffffffffffff16ff5b6000809054906101000a900473ffffffffffffffffffffffffffffffffffffffff1673ffffffffffffffffffffffffffffffffffffffff163373ffffffffffffffffffffffffffffffffffffffff161480610d665750610d653361168d565b5b80610d765750610d75336116b4565b5b1515610d8157600080fd5b610dae600160009054906101000a900473ffffffffffffffffffffffffffffffffffffffff168383611ab9565b5050565b610de2600160009054906101000a900473ffffffffffffffffffffffffffffffffffffffff163386868686611c25565b50505050565b610e19600160009054906101000a900473ffffffffffffffffffffffffffffffffffffffff16338787878787612181565b5050505050565b6000600160149054906101000a900460ff1660ff16141515610e4157600080fd5b610ea0600160009054906101000a900473ffffffffffffffffffffffffffffffffffffffff163384848080601f0160208091040260200160405190810160405280939291908181526020018383808284378201915050505050506126fe565b7f93b7a8f909099e62da880be5159733c001501e38f43e9e9767d1acfa4562c8f733604051808273ffffffffffffffffffffffffffffffffffffffff1673ffffffffffffffffffffffffffffffffffffffff16815260200191505060405180910390a15050565b6000809054906101000a900473ffffffffffffffffffffffffffffffffffffffff1673ffffffffffffffffffffffffffffffffffffffff163373ffffffffffffffffffffffffffffffffffffffff16141515610f6257600080fd5b600073ffffffffffffffffffffffffffffffffffffffff168173ffffffffffffffffffffffffffffffffffffffff1614151515610f9e57600080fd5b8073ffffffffffffffffffffffffffffffffffffffff166000809054906101000a900473ffffffffffffffffffffffffffffffffffffffff1673ffffffffffffffffffffffffffffffffffffffff167f8be0079c531659141344cd1fd0a4f28419497f9722a3daafe3b4186f6b6457e060405160405180910390a3806000806101000a81548173ffffffffffffffffffffffffffffffffffffffff021916908373ffffffffffffffffffffffffffffffffffffffff16021790555050565b6110d383836040805190810160405280601c81526020017f64656e746973742f617665726167652d726174696e672d636f756e74000000008152506040805190810160405280601681526020017f64656e746973742f617665726167652d726174696e670000000000000000000081525085612949565b505050565b6110e28383612e9e565b15156110ed57600080fd5b6110f78383612eb7565b151561110257600080fd5b8273ffffffffffffffffffffffffffffffffffffffff16633eba9ed28360405180807f757365722f69732d6f646c6c2d64656e746973743f00000000000000000000008152506015018273ffffffffffffffffffffffffffffffffffffffff1673ffffffffffffffffffffffffffffffffffffffff166c010000000000000000000000000281526014019150506040518091039020836040518363ffffffff167c01000000000000000000000000000000000000000000000000000000000281526004018083600019166000191681526020018215151515815260200192505050600060405180830381600087803b15156111fc57600080fd5b6102c65a03f1151561120d57600080fd5b505050505050565b61121f8686612e9e565b151561122a57600080fd5b6112348686612eb7565b151561123f57600080fd5b8573ffffffffffffffffffffffffffffffffffffffff166325cf512d8660405180807f757365722f70686f6e652d6e756d6265720000000000000000000000000000008152506011018273ffffffffffffffffffffffffffffffffffffffff1673ffffffffffffffffffffffffffffffffffffffff166c010000000000000000000000000281526014019150506040518091039020866040518363ffffffff167c0100000000000000000000000000000000000000000000000000000000028152600401808360001916600019168152602001826000191660001916815260200192505050600060405180830381600087803b151561133d57600080fd5b6102c65a03f1151561134e57600080fd5b5050508573ffffffffffffffffffffffffffffffffffffffff166325cf512d8660405180807f757365722f736f6369616c2d73656375726974792d6e756d6265720000000000815250601b018273ffffffffffffffffffffffffffffffffffffffff1673ffffffffffffffffffffffffffffffffffffffff166c010000000000000000000000000281526014019150506040518091039020856040518363ffffffff167c0100000000000000000000000000000000000000000000000000000000028152600401808360001916600019168152602001826000191660001916815260200192505050600060405180830381600087803b151561144f57600080fd5b6102c65a03f1151561146057600080fd5b5050508573ffffffffffffffffffffffffffffffffffffffff166325cf512d8660405180807f757365722f626972746864617900000000000000000000000000000000000000815250600d018273ffffffffffffffffffffffffffffffffffffffff1673ffffffffffffffffffffffffffffffffffffffff166c010000000000000000000000000281526014019150506040518091039020846040518363ffffffff167c0100000000000000000000000000000000000000000000000000000000028152600401808360001916600019168152602001826000191660001916815260200192505050600060405180830381600087803b151561156157600080fd5b6102c65a03f1151561157257600080fd5b5050508573ffffffffffffffffffffffffffffffffffffffff16630bd851588660405180807f757365722f67656e646572000000000000000000000000000000000000000000815250600b018273ffffffffffffffffffffffffffffffffffffffff1673ffffffffffffffffffffffffffffffffffffffff166c010000000000000000000000000281526014019150506040518091039020836040518363ffffffff167c01000000000000000000000000000000000000000000000000000000000281526004018083600019166000191681526020018260ff1660ff16815260200192505050600060405180830381600087803b151561167157600080fd5b6102c65a03f1151561168257600080fd5b505050505050505050565b600061169a826004612ecd565b80156116ad57506116ac826001612ee8565b5b9050919050565b60006116c1826003612ecd565b80156116d457506116d3826001612ee8565b5b9050919050565b8173ffffffffffffffffffffffffffffffffffffffff16630bd851588260405180807f757365722f737461747573000000000000000000000000000000000000000000815250600b018273ffffffffffffffffffffffffffffffffffffffff1673ffffffffffffffffffffffffffffffffffffffff166c01000000000000000000000000028152601401915050604051809103902060016040518363ffffffff167c01000000000000000000000000000000000000000000000000000000000281526004018083600019166000191681526020018260ff16815260200192505050600060405180830381600087803b15156117d557600080fd5b6102c65a03f115156117e657600080fd5b5050505050565b8173ffffffffffffffffffffffffffffffffffffffff16630bd851588260405180807f757365722f737461747573000000000000000000000000000000000000000000815250600b018273ffffffffffffffffffffffffffffffffffffffff1673ffffffffffffffffffffffffffffffffffffffff166c01000000000000000000000000028152601401915050604051809103902060026040518363ffffffff167c01000000000000000000000000000000000000000000000000000000000281526004018083600019166000191681526020018260ff16815260200192505050600060405180830381600087803b15156118e757600080fd5b6102c65a03f115156118f857600080fd5b5050505050565b60008090505b82518110156119735761192f84848381518110151561192057fe5b90602001906020020151612e9e565b151561193a57600080fd5b61195b84848381518110151561194c57fe5b90602001906020020151612eb7565b151561196657600080fd5b8080600101915050611905565b600090505b8251811015611ab3578373ffffffffffffffffffffffffffffffffffffffff16633eba9ed284838151811015156119ab57fe5b9060200190602002015160405180807f757365722f69732d6f646c6c2d64656e746973743f00000000000000000000008152506015018273ffffffffffffffffffffffffffffffffffffffff1673ffffffffffffffffffffffffffffffffffffffff166c010000000000000000000000000281526014019150506040518091039020846040518363ffffffff167c01000000000000000000000000000000000000000000000000000000000281526004018083600019166000191681526020018215151515815260200192505050600060405180830381600087803b1515611a9257600080fd5b6102c65a03f11515611aa357600080fd5b5050508080600101915050611978565b50505050565b60008373ffffffffffffffffffffffffffffffffffffffff16637a0e03ec8460405180807f757365722f7479706500000000000000000000000000000000000000000000008152506009018273ffffffffffffffffffffffffffffffffffffffff1673ffffffffffffffffffffffffffffffffffffffff166c0100000000000000000000000002815260140191505060405180910390206000604051602001526040518263ffffffff167c0100000000000000000000000000000000000000000000000000000000028152600401808260001916600019168152602001915050602060405180830381600087803b1515611bb257600080fd5b6102c65a03f11515611bc357600080fd5b50505060405180519050905060008373ffffffffffffffffffffffffffffffffffffffff1614158015611bfa575060008260ff1614155b8015611c09575060008160ff16145b1515611c1457600080fd5b611c1f848484612f03565b50505050565b600080611c39611c348661342f565b61345d565b9150611c4c611c478561342f565b61345d565b9050611c8d886040805190810160405280601b81526020017f636f6e6669672f6d61782d757365722d6e616d652d6c656e6774680000000000815250613523565b8211158015611cda5750611cd6886040805190810160405280601b81526020017f636f6e6669672f6d696e2d757365722d6e616d652d6c656e6774680000000000815250613523565b8210155b1515611ce557600080fd5b611d24886040805190810160405280601c81526020017f636f6e6669672f6d61782d757365722d656d61696c2d6c656e67746800000000815250613523565b8111158015611d715750611d6d886040805190810160405280601c81526020017f636f6e6669672f6d696e2d757365722d656d61696c2d6c656e67746800000000815250613523565b8110155b1515611d7c57600080fd5b611d87888888612f03565b8773ffffffffffffffffffffffffffffffffffffffff1663f58660668860405180807f757365722f6e616d6500000000000000000000000000000000000000000000008152506009018273ffffffffffffffffffffffffffffffffffffffff1673ffffffffffffffffffffffffffffffffffffffff166c010000000000000000000000000281526014019150506040518091039020876040518363ffffffff167c010000000000000000000000000000000000000000000000000000000002815260040180836000191660001916815260200180602001828103825283818151815260200191508051906020019080838360005b83811015611e96578082015181840152602081019050611e7b565b50505050905090810190601f168015611ec35780820380516001836020036101000a031916815260200191505b509350505050600060405180830381600087803b1515611ee257600080fd5b6102c65a03f11515611ef357600080fd5b5050508773ffffffffffffffffffffffffffffffffffffffff1663f58660668860405180807f757365722f656d61696c00000000000000000000000000000000000000000000815250600a018273ffffffffffffffffffffffffffffffffffffffff1673ffffffffffffffffffffffffffffffffffffffff166c010000000000000000000000000281526014019150506040518091039020866040518363ffffffff167c010000000000000000000000000000000000000000000000000000000002815260040180836000191660001916815260200180602001828103825283818151815260200191508051906020019080838360005b83811015612005578082015181840152602081019050611fea565b50505050905090810190601f1680156120325780820380516001836020036101000a031916815260200191505b509350505050600060405180830381600087803b151561205157600080fd5b6102c65a03f1151561206257600080fd5b5050508773ffffffffffffffffffffffffffffffffffffffff166325cf512d8860405180807f757365722f677261766174617200000000000000000000000000000000000000815250600d018273ffffffffffffffffffffffffffffffffffffffff1673ffffffffffffffffffffffffffffffffffffffff166c010000000000000000000000000281526014019150506040518091039020856040518363ffffffff167c0100000000000000000000000000000000000000000000000000000000028152600401808360001916600019168152602001826000191660001916815260200192505050600060405180830381600087803b151561216357600080fd5b6102c65a03f1151561217457600080fd5b5050505050505050505050565b61218b8787612e9e565b151561219657600080fd5b6121a08787612eb7565b15156121ab57600080fd5b8673ffffffffffffffffffffffffffffffffffffffff166325cf512d8760405180807f757365722f737472656574000000000000000000000000000000000000000000815250600b018273ffffffffffffffffffffffffffffffffffffffff1673ffffffffffffffffffffffffffffffffffffffff166c010000000000000000000000000281526014019150506040518091039020876040518363ffffffff167c0100000000000000000000000000000000000000000000000000000000028152600401808360001916600019168152602001826000191660001916815260200192505050600060405180830381600087803b15156122a957600080fd5b6102c65a03f115156122ba57600080fd5b5050508673ffffffffffffffffffffffffffffffffffffffff166325cf512d8760405180807f757365722f6369747900000000000000000000000000000000000000000000008152506009018273ffffffffffffffffffffffffffffffffffffffff1673ffffffffffffffffffffffffffffffffffffffff166c010000000000000000000000000281526014019150506040518091039020866040518363ffffffff167c0100000000000000000000000000000000000000000000000000000000028152600401808360001916600019168152602001826000191660001916815260200192505050600060405180830381600087803b15156123bb57600080fd5b6102c65a03f115156123cc57600080fd5b5050508673ffffffffffffffffffffffffffffffffffffffff16633562fd208760405180807f757365722f737461746500000000000000000000000000000000000000000000815250600a018273ffffffffffffffffffffffffffffffffffffffff1673ffffffffffffffffffffffffffffffffffffffff166c010000000000000000000000000281526014019150506040518091039020856040518363ffffffff167c010000000000000000000000000000000000000000000000000000000002815260040180836000191660001916815260200182815260200192505050600060405180830381600087803b15156124c557600080fd5b6102c65a03f115156124d657600080fd5b5050508673ffffffffffffffffffffffffffffffffffffffff166325cf512d8760405180807f757365722f7a69702d636f646500000000000000000000000000000000000000815250600d018273ffffffffffffffffffffffffffffffffffffffff1673ffffffffffffffffffffffffffffffffffffffff166c010000000000000000000000000281526014019150506040518091039020846040518363ffffffff167c0100000000000000000000000000000000000000000000000000000000028152600401808360001916600019168152602001826000191660001916815260200192505050600060405180830381600087803b15156125d757600080fd5b6102c65a03f115156125e857600080fd5b5050508673ffffffffffffffffffffffffffffffffffffffff16633562fd208760405180807f757365722f636f756e7472790000000000000000000000000000000000000000815250600c018273ffffffffffffffffffffffffffffffffffffffff1673ffffffffffffffffffffffffffffffffffffffff166c010000000000000000000000000281526014019150506040518091039020836040518363ffffffff167c010000000000000000000000000000000000000000000000000000000002815260040180836000191660001916815260200182815260200192505050600060405180830381600087803b15156126e157600080fd5b6102c65a03f115156126f257600080fd5b50505050505050505050565b600061271161270c8361342f565b61345d565b905061271d8484612e9e565b151561272857600080fd5b6127328484612eb7565b151561273d57600080fd5b61277c846040805190810160405280601e81526020017f636f6e6669672f6d61782d636f6d70616e792d6e616d652d6c656e6774680000815250613523565b81111580156127c957506127c5846040805190810160405280601e81526020017f636f6e6669672f6d696e2d636f6d70616e792d6e616d652d6c656e6774680000815250613523565b8110155b15156127d457600080fd5b8373ffffffffffffffffffffffffffffffffffffffff1663f58660668460405180807f64656e746973742f636f6d70616e792d6e616d650000000000000000000000008152506014018273ffffffffffffffffffffffffffffffffffffffff1673ffffffffffffffffffffffffffffffffffffffff166c010000000000000000000000000281526014019150506040518091039020846040518363ffffffff167c010000000000000000000000000000000000000000000000000000000002815260040180836000191660001916815260200180602001828103825283818151815260200191508051906020019080838360005b838110156128e35780820151818401526020810190506128c8565b50505050905090810190601f1680156129105780820380516001836020036101000a031916815260200191505b509350505050600060405180830381600087803b151561292f57600080fd5b6102c65a03f1151561294057600080fd5b50505050505050565b60008060008060008973ffffffffffffffffffffffffffffffffffffffff1663bdc963d8898b6040518083805190602001908083835b6020831015156129a4578051825260208201915060208101905060208303925061297f565b6001836020036101000a0380198251168184511680821785525050505050509050018273ffffffffffffffffffffffffffffffffffffffff1673ffffffffffffffffffffffffffffffffffffffff166c010000000000000000000000000281526014019250505060405180910390206000604051602001526040518263ffffffff167c0100000000000000000000000000000000000000000000000000000000028152600401808260001916600019168152602001915050602060405180830381600087803b1515612a7557600080fd5b6102c65a03f11515612a8657600080fd5b5050506040518051905094508973ffffffffffffffffffffffffffffffffffffffff16637a0e03ec888b6040518083805190602001908083835b602083101515612ae55780518252602082019150602081019050602083039250612ac0565b6001836020036101000a0380198251168184511680821785525050505050509050018273ffffffffffffffffffffffffffffffffffffffff1673ffffffffffffffffffffffffffffffffffffffff166c010000000000000000000000000281526014019250505060405180910390206000604051602001526040518263ffffffff167c0100000000000000000000000000000000000000000000000000000000028152600401808260001916600019168152602001915050602060405180830381600087803b1515612bb657600080fd5b6102c65a03f11515612bc757600080fd5b505050604051805190509350612bde856001613629565b92506000851415612bf4578560ff169150612c1e565b612c0d612c048560ff1687613647565b8760ff16613629565b90508281811515612c1a57fe5b0491505b8973ffffffffffffffffffffffffffffffffffffffff16633562fd20898b6040518083805190602001908083835b602083101515612c715780518252602082019150602081019050602083039250612c4c565b6001836020036101000a0380198251168184511680821785525050505050509050018273ffffffffffffffffffffffffffffffffffffffff1673ffffffffffffffffffffffffffffffffffffffff166c01000000000000000000000000028152601401925050506040518091039020856040518363ffffffff167c010000000000000000000000000000000000000000000000000000000002815260040180836000191660001916815260200182815260200192505050600060405180830381600087803b1515612d4157600080fd5b6102c65a03f11515612d5257600080fd5b5050508973ffffffffffffffffffffffffffffffffffffffff16630bd85158888b6040518083805190602001908083835b602083101515612da85780518252602082019150602081019050602083039250612d83565b6001836020036101000a0380198251168184511680821785525050505050509050018273ffffffffffffffffffffffffffffffffffffffff1673ffffffffffffffffffffffffffffffffffffffff166c01000000000000000000000000028152601401925050506040518091039020846040518363ffffffff167c01000000000000000000000000000000000000000000000000000000000281526004018083600019166000191681526020018260ff1660ff16815260200192505050600060405180830381600087803b1515612e7e57600080fd5b6102c65a03f11515612e8f57600080fd5b50505050505050505050505050565b600080612eab848461367a565b60ff1611905092915050565b6000612ec583836001613796565b905092915050565b6000612ed8836137b3565b60ff168260ff1614905092915050565b6000612ef3836138f0565b60ff168260ff1614905092915050565b612f0b614055565b612f13614055565b612f1b614055565b612f258686612e9e565b1515613317578573ffffffffffffffffffffffffffffffffffffffff16633562fd208660405180807f757365722f637265617465642d6f6e0000000000000000000000000000000000815250600f018273ffffffffffffffffffffffffffffffffffffffff1673ffffffffffffffffffffffffffffffffffffffff166c010000000000000000000000000281526014019150506040518091039020426040518363ffffffff167c010000000000000000000000000000000000000000000000000000000002815260040180836000191660001916815260200182815260200192505050600060405180830381600087803b151561302157600080fd5b6102c65a03f1151561303257600080fd5b5050508573ffffffffffffffffffffffffffffffffffffffff16630bd851588660405180807f757365722f737461747573000000000000000000000000000000000000000000815250600b018273ffffffffffffffffffffffffffffffffffffffff1673ffffffffffffffffffffffffffffffffffffffff166c01000000000000000000000000028152601401915050604051809103902060016040518363ffffffff167c01000000000000000000000000000000000000000000000000000000000281526004018083600019166000191681526020018260ff16815260200192505050600060405180830381600087803b151561312f57600080fd5b6102c65a03f1151561314057600080fd5b5050506131b9866040805190810160405280600981526020017f75736572732f69647300000000000000000000000000000000000000000000008152506040805190810160405280600b81526020017f75736572732f636f756e7400000000000000000000000000000000000000000081525088613a2d565b6131c284613d53565b8093508194508295505050508573ffffffffffffffffffffffffffffffffffffffff16633eba9ed284876040518083805190602001908083835b60208310151561322157805182526020820191506020810190506020830392506131fc565b6001836020036101000a0380198251168184511680821785525050505050509050018273ffffffffffffffffffffffffffffffffffffffff1673ffffffffffffffffffffffffffffffffffffffff166c0100000000000000000000000002815260140192505050604051809103902060016040518363ffffffff167c01000000000000000000000000000000000000000000000000000000000281526004018083600019166000191681526020018215151515815260200192505050600060405180830381600087803b15156132f657600080fd5b6102c65a03f1151561330757600080fd5b50505061331686838388613a2d565b5b8573ffffffffffffffffffffffffffffffffffffffff16630bd851588660405180807f757365722f7479706500000000000000000000000000000000000000000000008152506009018273ffffffffffffffffffffffffffffffffffffffff1673ffffffffffffffffffffffffffffffffffffffff166c010000000000000000000000000281526014019150506040518091039020866040518363ffffffff167c01000000000000000000000000000000000000000000000000000000000281526004018083600019166000191681526020018260ff1660ff16815260200192505050600060405180830381600087803b151561341357600080fd5b6102c65a03f1151561342457600080fd5b505050505050505050565b613437614069565b600060208301905060408051908101604052808451815260200182815250915050919050565b6000806000806000601f8660200151039350856000015184019250600091505b828410156135175760ff845116905060808160ff1610156134a35760018401935061350a565b60e08160ff1610156134ba57600284019350613509565b60f08160ff1610156134d157600384019350613508565b60f88160ff1610156134e857600484019350613507565b60fc8160ff1610156134ff57600584019350613506565b6006840193505b5b5b5b5b818060010192505061347d565b81945050505050919050565b60008273ffffffffffffffffffffffffffffffffffffffff1663bdc963d8836040518082805190602001908083835b6020831015156135775780518252602082019150602081019050602083039250613552565b6001836020036101000a03801982511681845116808217855250505050505090500191505060405180910390206000604051602001526040518263ffffffff167c0100000000000000000000000000000000000000000000000000000000028152600401808260001916600019168152602001915050602060405180830381600087803b151561360657600080fd5b6102c65a03f1151561361757600080fd5b50505060405180519050905092915050565b600080828401905083811015151561363d57fe5b8091505092915050565b60008082840290506000841480613668575082848281151561366557fe5b04145b151561367057fe5b8091505092915050565b60008273ffffffffffffffffffffffffffffffffffffffff16637a0e03ec8360405180807f757365722f737461747573000000000000000000000000000000000000000000815250600b018273ffffffffffffffffffffffffffffffffffffffff1673ffffffffffffffffffffffffffffffffffffffff166c0100000000000000000000000002815260140191505060405180910390206000604051602001526040518263ffffffff167c0100000000000000000000000000000000000000000000000000000000028152600401808260001916600019168152602001915050602060405180830381600087803b151561377357600080fd5b6102c65a03f1151561378457600080fd5b50505060405180519050905092915050565b60006137a2848461367a565b60ff168260ff161490509392505050565b6000600160009054906101000a900473ffffffffffffffffffffffffffffffffffffffff1673ffffffffffffffffffffffffffffffffffffffff16637a0e03ec8360405180807f757365722f7479706500000000000000000000000000000000000000000000008152506009018273ffffffffffffffffffffffffffffffffffffffff1673ffffffffffffffffffffffffffffffffffffffff166c0100000000000000000000000002815260140191505060405180910390206000604051602001526040518263ffffffff167c0100000000000000000000000000000000000000000000000000000000028152600401808260001916600019168152602001915050602060405180830381600087803b15156138ce57600080fd5b6102c65a03f115156138df57600080fd5b505050604051805190509050919050565b6000600160009054906101000a900473ffffffffffffffffffffffffffffffffffffffff1673ffffffffffffffffffffffffffffffffffffffff16637a0e03ec8360405180807f757365722f737461747573000000000000000000000000000000000000000000815250600b018273ffffffffffffffffffffffffffffffffffffffff1673ffffffffffffffffffffffffffffffffffffffff166c0100000000000000000000000002815260140191505060405180910390206000604051602001526040518263ffffffff167c0100000000000000000000000000000000000000000000000000000000028152600401808260001916600019168152602001915050602060405180830381600087803b1515613a0b57600080fd5b6102c65a03f11515613a1c57600080fd5b505050604051805190509050919050565b60008473ffffffffffffffffffffffffffffffffffffffff1663bdc963d8846040518082805190602001908083835b602083101515613a815780518252602082019150602081019050602083039250613a5c565b6001836020036101000a03801982511681845116808217855250505050505090500191505060405180910390206000604051602001526040518263ffffffff167c0100000000000000000000000000000000000000000000000000000000028152600401808260001916600019168152602001915050602060405180830381600087803b1515613b1057600080fd5b6102c65a03f11515613b2157600080fd5b5050506040518051905090508473ffffffffffffffffffffffffffffffffffffffff16635a2bf25a85836040518083805190602001908083835b602083101515613b805780518252602082019150602081019050602083039250613b5b565b6001836020036101000a038019825116818451168082178552505050505050905001828152602001925050506040518091039020846040518363ffffffff167c01000000000000000000000000000000000000000000000000000000000281526004018083600019166000191681526020018273ffffffffffffffffffffffffffffffffffffffff1673ffffffffffffffffffffffffffffffffffffffff16815260200192505050600060405180830381600087803b1515613c4157600080fd5b6102c65a03f11515613c5257600080fd5b5050508473ffffffffffffffffffffffffffffffffffffffff16633562fd20846040518082805190602001908083835b602083101515613ca75780518252602082019150602081019050602083039250613c82565b6001836020036101000a0380198251168184511680821785525050505050509050019150506040518091039020600184016040518363ffffffff167c010000000000000000000000000000000000000000000000000000000002815260040180836000191660001916815260200182815260200192505050600060405180830381600087803b1515613d3857600080fd5b6102c65a03f11515613d4957600080fd5b5050505050505050565b613d5b614055565b613d63614055565b613d6b614055565b60018460ff161415613e24576040805190810160405280601081526020017f757365722f69732d70617469656e743f0000000000000000000000000000000081525092506040805190810160405280600c81526020017f70617469656e74732f696473000000000000000000000000000000000000000081525091506040805190810160405280600e81526020017f70617469656e74732f636f756e74000000000000000000000000000000000000815250905061404e565b60028460ff161415613edd576040805190810160405280601081526020017f757365722f69732d64656e746973743f0000000000000000000000000000000081525092506040805190810160405280600c81526020017f64656e74697374732f696473000000000000000000000000000000000000000081525091506040805190810160405280600e81526020017f64656e74697374732f636f756e74000000000000000000000000000000000000815250905061404d565b60038460ff161415613f96576040805190810160405280601081526020017f757365722f69732d6d616e616765723f0000000000000000000000000000000081525092506040805190810160405280600c81526020017f6d616e61676572732f696473000000000000000000000000000000000000000081525091506040805190810160405280600e81526020017f6d616e61676572732f636f756e74000000000000000000000000000000000000815250905061404c565b60048460ff16141561404b576040805190810160405280600e81526020017f757365722f69732d61646d696e3f00000000000000000000000000000000000081525092506040805190810160405280600a81526020017f61646d696e732f6964730000000000000000000000000000000000000000000081525091506040805190810160405280600c81526020017f61646d696e732f636f756e74000000000000000000000000000000000000000081525090505b5b5b5b9193909250565b602060405190810160405280600081525090565b6040805190810160405280600081526020016000815250905600a165627a7a72305820002c189a15a5d95981a4cdf8cfcc07cb920bb23972d8d341891eb5c58a189dc50029",
  "source": "pragma solidity 0.4.18;\n\nimport \"./Restrictor.sol\";\nimport \"../lib/odll/userManager.sol\";\n\ncontract UserWriter is Restrictor {\n  event OnAdminAdded(address userId);\n  event OnDentistCompanySet(address userId);\n  event OnManagerAdded(address userId);\n  event OnPatientAdded(address userId);\n\n  function UserWriter(address _dbAddress) public {\n    require(_dbAddress != 0x0);\n    dbAddress = _dbAddress;\n  }\n\n  function writeUser(\n    uint8 userType,\n    string name,\n    string email,\n    bytes32 gravatar,\n    bytes32 street,\n    bytes32 city,\n    uint stateId,\n    bytes32 zipCode,\n    uint countryId,\n    bytes32 phoneNumber,\n    bytes32 socialSecurityNumber,\n    bytes32 birthday,\n    uint8 gender\n  )\n    external\n    onlyPermittedSmartContract\n  {\n    // require the last compulsories first\n    require(stateId != 0 && countryId != 0);\n\n    writeUserIdentity(userType, name, email, gravatar);\n    writeUserLocation(street, city, stateId, zipCode, countryId);\n    writeUserOptionalValues(phoneNumber, socialSecurityNumber, birthday, gender);\n    determineEvent(userType);\n  }\n\n  function writeUserIdentity(uint8 userType, string name, string email, bytes32 gravatar) public {\n    userManager.setUserIdentity(dbAddress, msg.sender, userType, name, email, gravatar);\n  }\n\n  function writeUserLocation(bytes32 street, bytes32 city, uint stateId, bytes32 zipCode, uint countryId) public {\n    userManager.setUserLocation(dbAddress, msg.sender, street, city, stateId, zipCode, countryId);\n  }\n\n  function writeUserOptionalValues(bytes32 phoneNumber, bytes32 socialSecurityNumber, bytes32 birthday, uint8 gender) public {\n    userManager.setUserOptionalValues(dbAddress, msg.sender, phoneNumber, socialSecurityNumber, birthday, gender);\n  }\n\n  function determineEvent(uint8 userType) public {\n    if (userType == 1) {\n      OnPatientAdded(msg.sender);\n    } else if (userType == 3) {\n      OnManagerAdded(msg.sender);\n    } else if (userType == 4) {\n      OnAdminAdded(msg.sender);\n    }\n  }\n\n  function setDentistCompany (\n    string companyName\n  )\n    external\n    onlyPermittedSmartContract\n  {\n    userManager.setDentistCompany(dbAddress, msg.sender, companyName);\n    OnDentistCompanySet(msg.sender);\n  }\n\n  function setODLLDentist (\n    address userId,\n    bool odllDentistValue\n  )\n    external\n  {\n    userManager.setODLLDentist(dbAddress, userId, odllDentistValue);\n  }\n\n  function setODLLDentists (\n    address[] userIds,\n    bool odllDentistValue\n  )\n    external\n  {\n    userManager.setODLLDentists(dbAddress, userIds, odllDentistValue);\n  }\n\n  function addOfficialToODLL(address officialId, uint8 userType)\n    external\n    onlyOwnerOrActiveAdminOrActiveManager\n  {\n    userManager.addOfficialToODLL(dbAddress, officialId, userType);\n  }\n\n  function blockUser(address userId)\n    external\n    onlyOwnerOrActiveAdminOrActiveManager\n  {\n    userManager.blockUser(dbAddress, userId);\n  }\n\n  function unblockUser(address userId)\n    external\n    onlyOwnerOrActiveAdminOrActiveManager\n  {\n    userManager.unblockUser(dbAddress, userId);\n  }\n\n  function writeDentistRating(address dentistId, uint8 rating)\n    external\n  {\n    require(dentistId != 0x0 && rating > 0);\n    userManager.writeDentistRating(dbAddress, dentistId, rating);\n  }\n\n  function destroySelf(address callerAddress, address newContractAddress)\n    external\n    onlyOwnerCanCall(callerAddress)\n  {\n    selfdestruct(newContractAddress);\n  }\n}\n",
  "sourcePath": "/Users/danielokwufulueze/dev/vue/apps/oraldatalink/contracts/odll/UserWriter.sol",
  "compiler": {
    "name": "solc",
    "version": "0.4.18+commit.9cf6e910.Emscripten.clang"
  },
  "schemaVersion": "1.0.1",
  "updatedAt": "2017-12-01T20:44:54.227Z"
}