{
  "contractName": "UserReader",
  "abi": [
    {
      "constant": true,
      "inputs": [
        {
          "name": "userId",
          "type": "address"
        },
        {
          "name": "offset",
          "type": "uint256"
        },
        {
          "name": "limit",
          "type": "uint256"
        },
        {
          "name": "seed",
          "type": "uint256"
        }
      ],
      "name": "fetchUserDentists",
      "outputs": [
        {
          "name": "",
          "type": "uint256"
        },
        {
          "name": "",
          "type": "address[]"
        }
      ],
      "payable": false,
      "stateMutability": "view",
      "type": "function"
    },
    {
      "constant": true,
      "inputs": [],
      "name": "smartContractStatus",
      "outputs": [
        {
          "name": "",
          "type": "uint8"
        }
      ],
      "payable": false,
      "stateMutability": "view",
      "type": "function"
    },
    {
      "constant": true,
      "inputs": [],
      "name": "owner",
      "outputs": [
        {
          "name": "",
          "type": "address"
        }
      ],
      "payable": false,
      "stateMutability": "view",
      "type": "function"
    },
    {
      "constant": true,
      "inputs": [],
      "name": "dbAddress",
      "outputs": [
        {
          "name": "",
          "type": "address"
        }
      ],
      "payable": false,
      "stateMutability": "view",
      "type": "function"
    },
    {
      "constant": true,
      "inputs": [
        {
          "name": "offset",
          "type": "uint256"
        },
        {
          "name": "limit",
          "type": "uint256"
        },
        {
          "name": "seed",
          "type": "uint256"
        }
      ],
      "name": "fetchDentists",
      "outputs": [
        {
          "name": "",
          "type": "uint256"
        },
        {
          "name": "",
          "type": "address[]"
        }
      ],
      "payable": false,
      "stateMutability": "view",
      "type": "function"
    },
    {
      "constant": false,
      "inputs": [
        {
          "name": "callerAddress",
          "type": "address"
        },
        {
          "name": "newContractAddress",
          "type": "address"
        }
      ],
      "name": "destroySelf",
      "outputs": [],
      "payable": false,
      "stateMutability": "nonpayable",
      "type": "function"
    },
    {
      "constant": true,
      "inputs": [
        {
          "name": "offset",
          "type": "uint256"
        },
        {
          "name": "limit",
          "type": "uint256"
        },
        {
          "name": "seed",
          "type": "uint256"
        }
      ],
      "name": "fetchManagers",
      "outputs": [
        {
          "name": "",
          "type": "uint256"
        },
        {
          "name": "",
          "type": "address[]"
        }
      ],
      "payable": false,
      "stateMutability": "view",
      "type": "function"
    },
    {
      "constant": true,
      "inputs": [
        {
          "name": "stateId",
          "type": "uint256"
        },
        {
          "name": "serviceTypeId",
          "type": "uint256"
        },
        {
          "name": "serviceId",
          "type": "uint256"
        },
        {
          "name": "budget",
          "type": "uint256[]"
        },
        {
          "name": "offset",
          "type": "uint256"
        },
        {
          "name": "limit",
          "type": "uint256"
        },
        {
          "name": "seed",
          "type": "uint256"
        }
      ],
      "name": "findDentists",
      "outputs": [
        {
          "name": "",
          "type": "uint256"
        },
        {
          "name": "",
          "type": "address[]"
        }
      ],
      "payable": false,
      "stateMutability": "view",
      "type": "function"
    },
    {
      "constant": false,
      "inputs": [
        {
          "name": "newOwner",
          "type": "address"
        }
      ],
      "name": "transferOwnership",
      "outputs": [],
      "payable": false,
      "stateMutability": "nonpayable",
      "type": "function"
    },
    {
      "inputs": [
        {
          "name": "_dbAddress",
          "type": "address"
        }
      ],
      "payable": false,
      "stateMutability": "nonpayable",
      "type": "constructor"
    },
    {
      "anonymous": false,
      "inputs": [
        {
          "indexed": false,
          "name": "status",
          "type": "uint8"
        }
      ],
      "name": "OnSmartContractStatusSet",
      "type": "event"
    },
    {
      "anonymous": false,
      "inputs": [
        {
          "indexed": true,
          "name": "previousOwner",
          "type": "address"
        },
        {
          "indexed": true,
          "name": "newOwner",
          "type": "address"
        }
      ],
      "name": "OwnershipTransferred",
      "type": "event"
    }
  ],
  "bytecode": "0x6060604052341561000f57600080fd5b60405160208061275183398101604052808051906020019091905050336000806101000a81548173ffffffffffffffffffffffffffffffffffffffff021916908373ffffffffffffffffffffffffffffffffffffffff16021790555060008173ffffffffffffffffffffffffffffffffffffffff161415151561009157600080fd5b80600160006101000a81548173ffffffffffffffffffffffffffffffffffffffff021916908373ffffffffffffffffffffffffffffffffffffffff1602179055505061266f806100e26000396000f300606060405260043610610099576000357c0100000000000000000000000000000000000000000000000000000000900463ffffffff1680634b91e97b1461009e5780634c8ddddc1461014e5780638da5cb5b1461017d57806391e06b6d146101d257806396f7a44514610227578063b16b2230146102b8578063be31885b14610310578063eb6ce033146103a1578063f2fde38b14610461575b600080fd5b34156100a957600080fd5b6100f0600480803573ffffffffffffffffffffffffffffffffffffffff1690602001909190803590602001909190803590602001909190803590602001909190505061049a565b6040518083815260200180602001828103825283818151815260200191508051906020019060200280838360005b8381101561013957808201518184015260208101905061011e565b50505050905001935050505060405180910390f35b341561015957600080fd5b6101616104e0565b604051808260ff1660ff16815260200191505060405180910390f35b341561018857600080fd5b6101906104f3565b604051808273ffffffffffffffffffffffffffffffffffffffff1673ffffffffffffffffffffffffffffffffffffffff16815260200191505060405180910390f35b34156101dd57600080fd5b6101e5610518565b604051808273ffffffffffffffffffffffffffffffffffffffff1673ffffffffffffffffffffffffffffffffffffffff16815260200191505060405180910390f35b341561023257600080fd5b61025a600480803590602001909190803590602001909190803590602001909190505061053e565b6040518083815260200180602001828103825283818151815260200191508051906020019060200280838360005b838110156102a3578082015181840152602081019050610288565b50505050905001935050505060405180910390f35b34156102c357600080fd5b61030e600480803573ffffffffffffffffffffffffffffffffffffffff1690602001909190803573ffffffffffffffffffffffffffffffffffffffff16906020019091905050610582565b005b341561031b57600080fd5b610343600480803590602001909190803590602001909190803590602001909190505061071e565b6040518083815260200180602001828103825283818151815260200191508051906020019060200280838360005b8381101561038c578082015181840152602081019050610371565b50505050905001935050505060405180910390f35b34156103ac57600080fd5b61040360048080359060200190919080359060200190919080359060200190919080359060200190820180359060200191909192908035906020019091908035906020019091908035906020019091905050610762565b6040518083815260200180602001828103825283818151815260200191508051906020019060200280838360005b8381101561044c578082015181840152602081019050610431565b50505050905001935050505060405180910390f35b341561046c57600080fd5b610498600480803573ffffffffffffffffffffffffffffffffffffffff169060200190919050506107de565b005b60006104a461262f565b6104d3600160009054906101000a900473ffffffffffffffffffffffffffffffffffffffff1687878787610933565b9150915094509492505050565b600160149054906101000a900460ff1681565b6000809054906101000a900473ffffffffffffffffffffffffffffffffffffffff1681565b600160009054906101000a900473ffffffffffffffffffffffffffffffffffffffff1681565b600061054861262f565b610576600160009054906101000a900473ffffffffffffffffffffffffffffffffffffffff16868686610a09565b91509150935093915050565b816000809054906101000a900473ffffffffffffffffffffffffffffffffffffffff1673ffffffffffffffffffffffffffffffffffffffff168173ffffffffffffffffffffffffffffffffffffffff161480156106fa5750600160009054906101000a900473ffffffffffffffffffffffffffffffffffffffff1673ffffffffffffffffffffffffffffffffffffffff16634c77e5ba60405180807f6f646c6c2f6f776e657200000000000000000000000000000000000000000000815250600a01905060405180910390206000604051602001526040518263ffffffff167c0100000000000000000000000000000000000000000000000000000000028152600401808260001916600019168152602001915050602060405180830381600087803b15156106b057600080fd5b6102c65a03f115156106c157600080fd5b5050506040518051905073ffffffffffffffffffffffffffffffffffffffff168173ffffffffffffffffffffffffffffffffffffffff16145b151561070557600080fd5b8173ffffffffffffffffffffffffffffffffffffffff16ff5b600061072861262f565b610756600160009054906101000a900473ffffffffffffffffffffffffffffffffffffffff16868686610a3b565b91509150935093915050565b600061076c61262f565b6107cd600160009054906101000a900473ffffffffffffffffffffffffffffffffffffffff168b8b8b8b8b808060200260200160405190810160405280939291908181526020018383602002808284378201915050505050508a8a8a610a6d565b915091509850989650505050505050565b6000809054906101000a900473ffffffffffffffffffffffffffffffffffffffff1673ffffffffffffffffffffffffffffffffffffffff163373ffffffffffffffffffffffffffffffffffffffff1614151561083957600080fd5b600073ffffffffffffffffffffffffffffffffffffffff168173ffffffffffffffffffffffffffffffffffffffff161415151561087557600080fd5b8073ffffffffffffffffffffffffffffffffffffffff166000809054906101000a900473ffffffffffffffffffffffffffffffffffffffff1673ffffffffffffffffffffffffffffffffffffffff167f8be0079c531659141344cd1fd0a4f28419497f9722a3daafe3b4186f6b6457e060405160405180910390a3806000806101000a81548173ffffffffffffffffffffffffffffffffffffffff021916908373ffffffffffffffffffffffffffffffffffffffff16021790555050565b600061093d61262f565b6109e987876040805190810160405280600f81526020017f70617469656e742f64656e7469737400000000000000000000000000000000008152506040805190810160405280601681526020017f70617469656e742f64656e74697374732d636f756e74000000000000000000008152506040805190810160405280601381526020017f70617469656e742f64656e746973742d6b657900000000000000000000000000815250610ad3565b90506109f781868686610e70565b80925081935050509550959350505050565b6000610a1361262f565b610a1c86610ee0565b9050610a2a81868686610e70565b809250819350505094509492505050565b6000610a4561262f565b610a4e86610f64565b9050610a5c81868686610e70565b809250819350505094509492505050565b6000610a7761262f565b610a7f61262f565b610a8761262f565b610a938c8b8b8b610fe8565b9150610aa18c8b8b8e611126565b9050610aae8c838361121f565b9250610abc83888888610e70565b809450819550505050509850989650505050505050565b610adb61262f565b600080600080610aec8a8a89611336565b935083604051805910610afc5750595b9080825280602002602001820160405250945060009250600091505b83821015610e57578973ffffffffffffffffffffffffffffffffffffffff16634c77e5ba878b856040518084805190602001908083835b602083101515610b745780518252602082019150602081019050602083039250610b4f565b6001836020036101000a0380198251168184511680821785525050505050509050018373ffffffffffffffffffffffffffffffffffffffff1673ffffffffffffffffffffffffffffffffffffffff166c01000000000000000000000000028152601401828152602001935050505060405180910390206000604051602001526040518263ffffffff167c0100000000000000000000000000000000000000000000000000000000028152600401808260001916600019168152602001915050602060405180830381600087803b1515610c4c57600080fd5b6102c65a03f11515610c5d57600080fd5b50505060405180519050905060018a73ffffffffffffffffffffffffffffffffffffffff16637a0e03ec8a8c856040518084805190602001908083835b602083101515610cbf5780518252602082019150602081019050602083039250610c9a565b6001836020036101000a0380198251168184511680821785525050505050509050018373ffffffffffffffffffffffffffffffffffffffff1673ffffffffffffffffffffffffffffffffffffffff166c010000000000000000000000000281526014018273ffffffffffffffffffffffffffffffffffffffff1673ffffffffffffffffffffffffffffffffffffffff166c01000000000000000000000000028152601401935050505060405180910390206000604051602001526040518263ffffffff167c0100000000000000000000000000000000000000000000000000000000028152600401808260001916600019168152602001915050602060405180830381600087803b1515610dd257600080fd5b6102c65a03f11515610de357600080fd5b5050506040518051905060ff161415610e4a57808584815181101515610e0557fe5b9060200190602002019073ffffffffffffffffffffffffffffffffffffffff16908173ffffffffffffffffffffffffffffffffffffffff168152505082806001019350505b8180600101925050610b18565b610e618386611480565b94505050505095945050505050565b6000610e7a61262f565b85519150600086511115610ed6578551851115610ea65781610e9d600088611480565b91509150610ed7565b85518486011115610eb8578486510393505b610ed3868751878601811515610eca57fe5b06866001611543565b90505b5b94509492505050565b610ee861262f565b610f5d826040805190810160405280600c81526020017f64656e74697374732f69647300000000000000000000000000000000000000008152506040805190810160405280600e81526020017f64656e74697374732f636f756e740000000000000000000000000000000000008152506116ea565b9050919050565b610f6c61262f565b610fe1826040805190810160405280600c81526020017f6d616e61676572732f69647300000000000000000000000000000000000000008152506040805190810160405280600e81526020017f6d616e61676572732f636f756e740000000000000000000000000000000000008152506116ea565b9050919050565b610ff061262f565b610ff861262f565b6000806000806110098a8a8a611988565b9450845160405180591061101a5750595b9080825280602002602001820160405250955060009350600092505b845183101561110d57848381518110151561104d57fe5b9060200190602002015191506110658a8a8a85611b10565b905086600081518110151561107657fe5b9060200190602002015181101580156110a7575086600181518110151561109957fe5b906020019060200201518111155b15611100578186858151811015156110bb57fe5b9060200190602002019073ffffffffffffffffffffffffffffffffffffffff16908173ffffffffffffffffffffffffffffffffffffffff168152505083806001019450505b8280600101935050611036565b6111178487611480565b95505050505050949350505050565b61112e61262f565b61113661262f565b6000806000611146898989611988565b935083516040518059106111575750595b9080825280602002602001820160405250945060009250600091505b835182101561120757838281518110151561118a57fe5b9060200190602002015190506111a1898288611d73565b156111fa578085848151811015156111b557fe5b9060200190602002019073ffffffffffffffffffffffffffffffffffffffff16908173ffffffffffffffffffffffffffffffffffffffff168152505082806001019350505b8180600101925050611173565b6112118386611480565b945050505050949350505050565b61122761262f565b60008473ffffffffffffffffffffffffffffffffffffffff1663bdc963d860405180807f64656e74697374732f636f756e74000000000000000000000000000000000000815250600e01905060405180910390206000604051602001526040518263ffffffff167c0100000000000000000000000000000000000000000000000000000000028152600401808260001916600019168152602001915050602060405180830381600087803b15156112dd57600080fd5b6102c65a03f115156112ee57600080fd5b505050604051805190509050600081141561130b5781915061132e565b61131484611ea4565b935061131f83611ea4565b925061132b848461200d565b91505b509392505050565b60008373ffffffffffffffffffffffffffffffffffffffff1663bdc963d883856040518083805190602001908083835b60208310151561138b5780518252602082019150602081019050602083039250611366565b6001836020036101000a0380198251168184511680821785525050505050509050018273ffffffffffffffffffffffffffffffffffffffff1673ffffffffffffffffffffffffffffffffffffffff166c010000000000000000000000000281526014019250505060405180910390206000604051602001526040518263ffffffff167c0100000000000000000000000000000000000000000000000000000000028152600401808260001916600019168152602001915050602060405180830381600087803b151561145c57600080fd5b6102c65a03f1151561146d57600080fd5b5050506040518051905090509392505050565b61148861262f565b6000825184111561149b5782915061153c565b836040518059106114a95750595b90808252806020026020018201604052509150600090505b838110156115385782818151811015156114d757fe5b9060200190602002015182828151811015156114ef57fe5b9060200190602002019073ffffffffffffffffffffffffffffffffffffffff16908173ffffffffffffffffffffffffffffffffffffffff168152505080806001019150506114c1565b8191505b5092915050565b61154b61262f565b600080600080600093508851925082881015806115685750600087145b15611575578494506116de565b866040518059106115835750595b908082528060200260200182016040525094508791505b86880182101561162857818314156115b157611628565b88828151811015156115bf57fe5b9060200190602002015185858151811015156115d757fe5b9060200190602002019073ffffffffffffffffffffffffffffffffffffffff16908173ffffffffffffffffffffffffffffffffffffffff16815250508380600101945050818060010192505061159a565b85801561163457508684105b156116d1578387039050600091505b80821115156116d05783871415611659576116d0565b888281518110151561166757fe5b90602001906020020151858581518110151561167f57fe5b9060200190602002019073ffffffffffffffffffffffffffffffffffffffff16908173ffffffffffffffffffffffffffffffffffffffff168152505083806001019450508180600101925050611643565b5b6116db8486611480565b94505b50505050949350505050565b6116f261262f565b6000808573ffffffffffffffffffffffffffffffffffffffff1663bdc963d8856040518082805190602001908083835b6020831015156117475780518252602082019150602081019050602083039250611722565b6001836020036101000a03801982511681845116808217855250505050505090500191505060405180910390206000604051602001526040518263ffffffff167c0100000000000000000000000000000000000000000000000000000000028152600401808260001916600019168152602001915050602060405180830381600087803b15156117d657600080fd5b6102c65a03f115156117e757600080fd5b505050604051805190509150816040518059106118015750595b90808252806020026020018201604052509250600090505b8181101561197c578573ffffffffffffffffffffffffffffffffffffffff16634c77e5ba86836040518083805190602001908083835b602083101515611874578051825260208201915060208101905060208303925061184f565b6001836020036101000a0380198251168184511680821785525050505050509050018281526020019250505060405180910390206000604051602001526040518263ffffffff167c0100000000000000000000000000000000000000000000000000000000028152600401808260001916600019168152602001915050602060405180830381600087803b151561190a57600080fd5b6102c65a03f1151561191b57600080fd5b50505060405180519050838281518110151561193357fe5b9060200190602002019073ffffffffffffffffffffffffffffffffffffffff16908173ffffffffffffffffffffffffffffffffffffffff16815250508080600101915050611819565b82925050509392505050565b61199061262f565b6001831415611a4c57611a4584836040805190810160405280601481526020017f7363616e2d736572766963652f64656e746973740000000000000000000000008152506040805190810160405280601b81526020017f7363616e2d736572766963652f64656e74697374732d636f756e7400000000008152506040805190810160405280601881526020017f7363616e2d736572766963652f64656e746973742d6b657900000000000000008152506121f9565b9050611b09565b6002831415611b0857611b0184836040805190810160405280601981526020017f74726561746d656e742d736572766963652f64656e74697374000000000000008152506040805190810160405280602081526020017f74726561746d656e742d736572766963652f64656e74697374732d636f756e748152506040805190810160405280601d81526020017f74726561746d656e742d736572766963652f64656e746973742d6b65790000008152506121f9565b9050611b09565b5b9392505050565b60006001841415611c3c578473ffffffffffffffffffffffffffffffffffffffff1663bdc963d8838560405180807f64656e746973742f7363616e2d736572766963652f66656500000000000000008152506018018373ffffffffffffffffffffffffffffffffffffffff1673ffffffffffffffffffffffffffffffffffffffff166c010000000000000000000000000281526014018281526020019250505060405180910390206000604051602001526040518263ffffffff167c0100000000000000000000000000000000000000000000000000000000028152600401808260001916600019168152602001915050602060405180830381600087803b1515611c1a57600080fd5b6102c65a03f11515611c2b57600080fd5b505050604051805190509050611d6b565b6002841415611d66578473ffffffffffffffffffffffffffffffffffffffff1663bdc963d8838560405180807f64656e746973742f74726561746d656e742d736572766963652f666565000000815250601d018373ffffffffffffffffffffffffffffffffffffffff1673ffffffffffffffffffffffffffffffffffffffff166c010000000000000000000000000281526014018281526020019250505060405180910390206000604051602001526040518263ffffffff167c0100000000000000000000000000000000000000000000000000000000028152600401808260001916600019168152602001915050602060405180830381600087803b1515611d4457600080fd5b6102c65a03f11515611d5557600080fd5b505050604051805190509050611d6b565b600090505b949350505050565b600080821415611d865760019050611e9d565b8373ffffffffffffffffffffffffffffffffffffffff1663bdc963d88460405180807f757365722f737461746500000000000000000000000000000000000000000000815250600a018273ffffffffffffffffffffffffffffffffffffffff1673ffffffffffffffffffffffffffffffffffffffff166c0100000000000000000000000002815260140191505060405180910390206000604051602001526040518263ffffffff167c0100000000000000000000000000000000000000000000000000000000028152600401808260001916600019168152602001915050602060405180830381600087803b1515611e7d57600080fd5b6102c65a03f11515611e8e57600080fd5b50505060405180519050821490505b9392505050565b611eac61262f565b6000806000600192505b8451831015612002578483815181101515611ecd57fe5b9060200190602002015191508290505b600081118015611f3257508173ffffffffffffffffffffffffffffffffffffffff168560018303815181101515611f1057fe5b9060200190602002015173ffffffffffffffffffffffffffffffffffffffff16115b15611faa578460018203815181101515611f4857fe5b906020019060200201518582815181101515611f6057fe5b9060200190602002019073ffffffffffffffffffffffffffffffffffffffff16908173ffffffffffffffffffffffffffffffffffffffff1681525050808060019003915050611edd565b818582815181101515611fb957fe5b9060200190602002019073ffffffffffffffffffffffffffffffffffffffff16908173ffffffffffffffffffffffffffffffffffffffff16815250508280600101935050611eb6565b849350505050919050565b61201561262f565b6000806000806000875194508651935060008514806120345750600084145b15612041578595506121ee565b8460405180591061204f5750595b908082528060200260200182016040525095506000925060009150600090505b848310801561207d57508382105b156121e157868281518110151561209057fe5b9060200190602002015173ffffffffffffffffffffffffffffffffffffffff1688848151811015156120be57fe5b9060200190602002015173ffffffffffffffffffffffffffffffffffffffff1611156120f15781806001019250506121dc565b86828151811015156120ff57fe5b9060200190602002015173ffffffffffffffffffffffffffffffffffffffff16888481518110151561212d57fe5b9060200190602002015173ffffffffffffffffffffffffffffffffffffffff1610156121605782806001019350506121db565b878381518110151561216e57fe5b90602001906020020151868281518110151561218657fe5b9060200190602002019073ffffffffffffffffffffffffffffffffffffffff16908173ffffffffffffffffffffffffffffffffffffffff16815250508280600101935050818060010192505080806001019150505b5b61206f565b6121eb8187611480565b95505b505050505092915050565b61220161262f565b6000806000806122128a8a89612520565b9350836040518059106122225750595b9080825280602002602001820160405250945060009250600091505b83821015612507578973ffffffffffffffffffffffffffffffffffffffff16634c77e5ba878b856040518084805190602001908083835b60208310151561229a5780518252602082019150602081019050602083039250612275565b6001836020036101000a038019825116818451168082178552505050505050905001838152602001828152602001935050505060405180910390206000604051602001526040518263ffffffff167c0100000000000000000000000000000000000000000000000000000000028152600401808260001916600019168152602001915050602060405180830381600087803b151561233757600080fd5b6102c65a03f1151561234857600080fd5b50505060405180519050905060018a73ffffffffffffffffffffffffffffffffffffffff16637a0e03ec8a8c856040518084805190602001908083835b6020831015156123aa5780518252602082019150602081019050602083039250612385565b6001836020036101000a0380198251168184511680821785525050505050509050018381526020018273ffffffffffffffffffffffffffffffffffffffff1673ffffffffffffffffffffffffffffffffffffffff166c01000000000000000000000000028152601401935050505060405180910390206000604051602001526040518263ffffffff167c0100000000000000000000000000000000000000000000000000000000028152600401808260001916600019168152602001915050602060405180830381600087803b151561248257600080fd5b6102c65a03f1151561249357600080fd5b5050506040518051905060ff1614156124fa578085848151811015156124b557fe5b9060200190602002019073ffffffffffffffffffffffffffffffffffffffff16908173ffffffffffffffffffffffffffffffffffffffff168152505082806001019350505b818060010192505061223e565b6125118386611480565b94505050505095945050505050565b60008373ffffffffffffffffffffffffffffffffffffffff1663bdc963d883856040518083805190602001908083835b6020831015156125755780518252602082019150602081019050602083039250612550565b6001836020036101000a0380198251168184511680821785525050505050509050018281526020019250505060405180910390206000604051602001526040518263ffffffff167c0100000000000000000000000000000000000000000000000000000000028152600401808260001916600019168152602001915050602060405180830381600087803b151561260b57600080fd5b6102c65a03f1151561261c57600080fd5b5050506040518051905090509392505050565b6020604051908101604052806000815250905600a165627a7a723058206227dda5a16d96b738ee20d4a929a141d8d9ebf0946507ec0b21255a9b5a70fe0029",
  "source": "pragma solidity 0.4.18;\n\nimport \"./Restrictor.sol\";\nimport \"../lib/odll/userManager.sol\";\n\ncontract UserReader is Restrictor {\n\n  function UserReader (address _dbAddress) public {\n    require(_dbAddress != 0x0);\n    dbAddress = _dbAddress;\n  }\n\n  function fetchUserDentists (\n    address userId,\n    uint offset, // starting from offset: 0-based\n    uint limit, // not more than limit\n    uint seed // seed value to give the illusion of randomisation\n  )\n    external\n    view\n    returns (\n      uint,\n      address[]\n    )\n  {\n    return userManager.fetchUserDentists(dbAddress, userId, offset, limit, seed);\n  }\n\n  function findDentists (\n    uint stateId,\n    uint serviceTypeId,\n    uint serviceId,\n    uint[] budget, // within budget range\n    uint offset, // starting from offset: 0-based\n    uint limit, // not more than limit\n    uint seed // seed value to give the illusion of randomisation\n    )\n      external\n      view\n      returns (\n        uint,\n        address[]\n      )\n  {\n    return userManager.findDentists(dbAddress, stateId, serviceTypeId, serviceId, budget, offset, limit, seed);\n  }\n\n  function fetchDentists (\n    uint offset, // starting from offset: 0-based\n    uint limit, // not more than limit\n    uint seed // seed value to give the illusion of randomisation\n  )\n    external\n    view\n    returns (\n      uint,\n      address[]\n    )\n  {\n    return userManager.fetchDentists(dbAddress, offset, limit, seed);\n  }\n\n  function fetchManagers (\n    uint offset, // starting from offset: 0-based\n    uint limit, // not more than limit\n    uint seed // seed value to give the illusion of randomisation\n  )\n    external\n    view\n    returns (\n      uint,\n      address[]\n    )\n  {\n    return userManager.fetchManagers(dbAddress, offset, limit, seed);\n  }\n\n  function destroySelf(address callerAddress, address newContractAddress)\n    external\n    onlyOwnerCanCall(callerAddress)\n  {\n    selfdestruct(newContractAddress);\n  }\n}\n\n",
  "sourcePath": "/home/daniel/dev/vue/apps/oral-data-link/contracts/odll/UserReader.sol",
  "compiler": {
    "name": "solc",
    "version": "0.4.18+commit.9cf6e910.Emscripten.clang"
  },
  "schemaVersion": "1.0.1",
  "updatedAt": "2017-11-10T23:17:21.406Z"
}