{
  "contractName": "utilities",
  "abi": [
    {
      "constant": true,
      "inputs": [
        {
          "name": "x",
          "type": "address"
        }
      ],
      "name": "toAsciiString",
      "outputs": [
        {
          "name": "",
          "type": "string"
        }
      ],
      "payable": false,
      "stateMutability": "pure",
      "type": "function"
    },
    {
      "constant": true,
      "inputs": [
        {
          "name": "b",
          "type": "bytes1"
        }
      ],
      "name": "char",
      "outputs": [
        {
          "name": "c",
          "type": "bytes1"
        }
      ],
      "payable": false,
      "stateMutability": "pure",
      "type": "function"
    }
  ],
  "bytecode": "0x6060604052341561000f57600080fd5b6104df8061001e6000396000f30060606040526004361061004c576000357c0100000000000000000000000000000000000000000000000000000000900463ffffffff1680632c6e75981461005157806369f9ad2f146100f8575b600080fd5b61007d600480803573ffffffffffffffffffffffffffffffffffffffff1690602001909190505061018a565b6040518080602001828103825283818151815260200191508051906020019080838360005b838110156100bd5780820151818401526020810190506100a2565b50505050905090810190601f1680156100ea5780820380516001836020036101000a031916815260200191505b509250505060405180910390f35b61013060048080357effffffffffffffffffffffffffffffffffffffffffffffffffffffffffffff191690602001909190505061039b565b60405180827effffffffffffffffffffffffffffffffffffffffffffffffffffffffffffff19167effffffffffffffffffffffffffffffffffffffffffffffffffffffffffffff1916815260200191505060405180910390f35b61019261048b565b61019a61049f565b60008060008060286040518059106101af5750595b9080825280601f01601f19166020018201604052509450600093505b601484101561038e578360130360080260020a8773ffffffffffffffffffffffffffffffffffffffff168115156101fe57fe5b047f01000000000000000000000000000000000000000000000000000000000000000292506010837f0100000000000000000000000000000000000000000000000000000000000000900460ff1681151561025557fe5b047f0100000000000000000000000000000000000000000000000000000000000000029150817f01000000000000000000000000000000000000000000000000000000000000009004601002837f01000000000000000000000000000000000000000000000000000000000000009004037f01000000000000000000000000000000000000000000000000000000000000000290506102f38261039b565b858560020281518110151561030457fe5b9060200101907effffffffffffffffffffffffffffffffffffffffffffffffffffffffffffff1916908160001a90535061033d8161039b565b856001866002020181518110151561035157fe5b9060200101907effffffffffffffffffffffffffffffffffffffffffffffffffffffffffffff1916908160001a90535083806001019450506101cb565b8495505050505050919050565b6000600a7f010000000000000000000000000000000000000000000000000000000000000002827effffffffffffffffffffffffffffffffffffffffffffffffffffffffffffff1916101561043a576030827f01000000000000000000000000000000000000000000000000000000000000009004017f0100000000000000000000000000000000000000000000000000000000000000029050610486565b6057827f01000000000000000000000000000000000000000000000000000000000000009004017f01000000000000000000000000000000000000000000000000000000000000000290505b919050565b602060405190810160405280600081525090565b6020604051908101604052806000815250905600a165627a7a723058200837d4ecead4a015b6cd06f79af7d3e45515427ad964353779b54daea947d6f20029",
  "source": "pragma solidity 0.4.18;\n\nimport \"../../odll/DB.sol\";\n\nlibrary utilities {\n  function getCount(address dbAddress, string countKey) internal view returns(uint) {\n    return DB(dbAddress).getUIntValue(keccak256(countKey));\n  }\n\n  function createNext(address dbAddress, string countKey) internal view returns(uint index) {\n    var count = getCount(dbAddress, countKey);\n    DB(dbAddress).addUIntValue(keccak256(countKey), 1);\n    return count + 1;\n  }\n\n  function containsValue(address dbAddress, uint id, string key, uint8[] array) internal view returns(bool) {\n    if (array.length == 0) {\n      return true;\n    }\n    var val = DB(dbAddress).getUInt8Value(keccak256(key, id));\n    for (uint i = 0; i < array.length ; i++) {\n      if (array[i] == val) {\n        return true;\n      }\n    }\n\n    return false;\n  }\n\n  function addArrayItem(address dbAddress, string key, string countKey, address val) internal {\n    var idx = DB(dbAddress).getUIntValue(keccak256(countKey));\n    DB(dbAddress).setAddressValue(keccak256(key, idx), val);\n    DB(dbAddress).setUIntValue(keccak256(countKey), idx + 1);\n  }\n\n  function addArrayItem(address dbAddress, string key, string countKey, uint val) internal {\n    var idx = DB(dbAddress).getUIntValue(keccak256(countKey));\n    DB(dbAddress).setUIntValue(keccak256(key, idx), val);\n    DB(dbAddress).setUIntValue(keccak256(countKey), idx + 1);\n  }\n\n  function getArrayItems(address dbAddress, string key, string countKey) internal view returns(uint[] result) {\n    var count = DB(dbAddress).getUIntValue(keccak256(countKey));\n    result = new uint[](count);\n    for (uint i = 0; i < count; i++) {\n      result[i] = DB(dbAddress).getUIntValue(keccak256(key, i));\n    }\n\n    return result;\n  }\n\n  function getAddressArray(address dbAddress, string key, string countKey) internal view returns(address[] result) {\n    var count = DB(dbAddress).getUIntValue(keccak256(countKey));\n    result = new address[](count);\n    for (uint i = 0; i < count; i++) {\n      result[i] = DB(dbAddress).getAddressValue(keccak256(key, i));\n    }\n\n    return result;\n  }\n\n  function getArrayItemsCount(address dbAddress, string countKey) internal view returns(uint) {\n    return DB(dbAddress).getUIntValue(keccak256(countKey));\n  }\n\n  function getIdArrayItemsCount(address dbAddress, uint id, string countKey) internal view returns(uint) {\n    return DB(dbAddress).getUIntValue(keccak256(countKey, id));\n  }\n\n  function getIdArrayItemsCount(address dbAddress, address id, string countKey) internal view returns(uint) {\n    return DB(dbAddress).getUIntValue(keccak256(countKey, id));\n  }\n\n  function addIdArrayItem(address dbAddress, uint id, string key, string countKey, uint val) internal {\n    var idx = getIdArrayItemsCount(dbAddress, id, countKey);\n    DB(dbAddress).setUIntValue(keccak256(key, id, idx), val);\n    DB(dbAddress).setUIntValue(keccak256(countKey, id), idx + 1);\n  }\n\n  function addIdArrayItem(address dbAddress, uint id, string key, string countKey, address val) internal {\n    var idx = getIdArrayItemsCount(dbAddress, id, countKey);\n    DB(dbAddress).setAddressValue(keccak256(key, id, idx), val);\n    DB(dbAddress).setUIntValue(keccak256(countKey, id), idx + 1);\n  }\n\n  function addIdArrayItem(address dbAddress, address id, string key, string countKey, uint val) internal {\n    var idx = getIdArrayItemsCount(dbAddress, id, countKey);\n    DB(dbAddress).setUIntValue(keccak256(key, id, idx), val);\n    DB(dbAddress).setUIntValue(keccak256(countKey, id), idx + 1);\n  }\n\n  function addIdArrayItem(address dbAddress, address id, string key, string countKey, address val) internal {\n    var idx = getIdArrayItemsCount(dbAddress, id, countKey);\n    DB(dbAddress).setAddressValue(keccak256(key, id, idx), val);\n    DB(dbAddress).setUIntValue(keccak256(countKey, id), idx + 1);\n  }\n\n  function addIdArrayItem(address dbAddress, uint id, string key, string countKey, bytes32 val) internal {\n    var idx = getIdArrayItemsCount(dbAddress, id, countKey);\n    DB(dbAddress).setBytes32Value(keccak256(key, id, idx), val);\n    DB(dbAddress).setUIntValue(keccak256(countKey, id), idx + 1);\n  }\n\n  function addIdArrayItem(address dbAddress, address id, string key, string countKey, bytes32 val) internal {\n    var idx = getIdArrayItemsCount(dbAddress, id, countKey);\n    DB(dbAddress).setBytes32Value(keccak256(key, id, idx), val);\n    DB(dbAddress).setUIntValue(keccak256(countKey, id), idx + 1);\n  }\n\n  function getIdArray(address dbAddress, uint id, string key, string countKey)\n    internal\n    view\n    returns(uint[] result)\n  {\n    uint count = getIdArrayItemsCount(dbAddress, id, countKey);\n    result = new uint[](count);\n    for (uint i = 0; i < count; i++) {\n      result[i] = DB(dbAddress).getUIntValue(keccak256(key, id, i));\n    }\n  }\n\n  function getIdArray(address dbAddress, address id, string key, string countKey)\n    internal\n    view\n    returns(uint[] result)\n  {\n    uint count = getIdArrayItemsCount(dbAddress, id, countKey);\n    result = new uint[](count);\n    for (uint i = 0; i < count; i++) {\n      result[i] = DB(dbAddress).getUIntValue(keccak256(key, id, i));\n    }\n\n    return result;\n  }\n\n  function getIdArrayAddresses(address dbAddress, address id, string key, string countKey)\n    internal\n    view\n    returns(address[] result)\n  {\n    uint count = getIdArrayItemsCount(dbAddress, id, countKey);\n    result = new address[](count);\n    for (uint i = 0; i < count; i++) {\n      result[i] = DB(dbAddress).getAddressValue(keccak256(key, id, i));\n    }\n  }\n\n  function getIdArrayAddresses(address dbAddress, uint id, string key, string countKey)\n    internal\n    view\n    returns(address[] result)\n  {\n    uint count = getIdArrayItemsCount(dbAddress, id, countKey);\n    result = new address[](count);\n    for (uint i = 0; i < count; i++) {\n      result[i] = DB(dbAddress).getAddressValue(keccak256(key, id, i));\n    }\n  }\n\n  function setIdArray(address dbAddress, uint id, string key, string countKey, uint[] array) internal {\n    for (uint i = 0; i < array.length; i++) {\n      require(array[i] != 0);\n      DB(dbAddress).setUIntValue(keccak256(key, id, i), array[i]);\n    }\n\n    DB(dbAddress).setUIntValue(keccak256(countKey, id), array.length);\n  }\n\n  function setIdArray(address dbAddress, address id, string key, string countKey, uint[] array) internal {\n    for (uint i = 0; i < array.length; i++) {\n      require(array[i] != 0);\n      DB(dbAddress).setUIntValue(keccak256(key, id, i), array[i]);\n    }\n\n    DB(dbAddress).setUIntValue(keccak256(countKey, id), array.length);\n  }\n\n  function setIdArray(address dbAddress, address id, string key, string countKey, address[] array) internal {\n    for (uint i = 0; i < array.length; i++) {\n      require(array[i] != 0x0);\n      DB(dbAddress).setAddressValue(keccak256(key, id, i), array[i]);\n    }\n\n    DB(dbAddress).setUIntValue(keccak256(countKey, id), array.length);\n  }\n\n  function setIdArray(address dbAddress, uint id, string key, string countKey, address[] array) internal {\n    for (uint i = 0; i < array.length; i++) {\n      require(array[i] != 0x0);\n      DB(dbAddress).setAddressValue(keccak256(key, id, i), array[i]);\n    }\n\n    DB(dbAddress).setUIntValue(keccak256(countKey, id), array.length);\n  }\n\n  function getAddressIdArray(address dbAddress, uint id, string key, string countKey) internal view returns(address[] result) {\n    uint count = getIdArrayItemsCount(dbAddress, id, countKey);\n    result = new address[](count);\n    for (uint i = 0; i < count; i++) {\n      result[i] = DB(dbAddress).getAddressValue(keccak256(key, id, i));\n    }\n\n    return result;\n  }\n\n  function addRemovableIdItem(address dbAddress, address id, string key, string countKey, string keysKey, uint val) internal {\n    if (DB(dbAddress).getUInt8Value(keccak256(key, id, val)) == 0) { // never seen before\n      addIdArrayItem(dbAddress, id, keysKey, countKey, val);\n    }\n\n    DB(dbAddress).setUInt8Value(keccak256(key, id, val), 1); // 1 == active\n  }\n\n  function addRemovableIdItem(address dbAddress, address id, string key, string countKey, string keysKey, address val) internal {\n    if (DB(dbAddress).getUInt8Value(keccak256(key, id, val)) == 0) { // never seen before\n      addIdArrayItem(dbAddress, id, keysKey, countKey, val);\n    }\n\n    DB(dbAddress).setUInt8Value(keccak256(key, id, val), 1); // 1 == active\n  }\n\n  function addRemovableIdItem(address dbAddress, uint id, string key, string countKey, string keysKey, uint val) internal {\n    if (DB(dbAddress).getUInt8Value(keccak256(key, id, val)) == 0) { // never seen before\n      addIdArrayItem(dbAddress, id, keysKey, countKey, val);\n    }\n\n    DB(dbAddress).setUInt8Value(keccak256(key, id, val), 1); // 1 == active\n  }\n\n  function addRemovableIdItem(address dbAddress, uint id, string key, string countKey, string keysKey, address val) internal {\n    if (DB(dbAddress).getUInt8Value(keccak256(key, id, val)) == 0) { // never seen before\n      addIdArrayItem(dbAddress, id, keysKey, countKey, val);\n    }\n\n    DB(dbAddress).setUInt8Value(keccak256(key, id, val), 1); // 1 == active\n  }\n\n  function addRemovableIdArrayItem(address dbAddress, address[] ids, string key, string countKey, string keysKey, uint val) internal {\n    if (ids.length == 0) {\n      return;\n    }\n    for (uint i = 0; i < ids.length; i++) {\n      addRemovableIdItem(dbAddress, ids[i], key, countKey, keysKey, val);\n    }\n  }\n\n  function addRemovableIdArrayItem(address dbAddress, address[] ids, string key, string countKey, string keysKey, address val) internal {\n    if (ids.length == 0) {\n      return;\n    }\n    for (uint i = 0; i < ids.length; i++) {\n      addRemovableIdItem(dbAddress, ids[i], key, countKey, keysKey, val);\n    }\n  }\n\n  function addRemovableIdArrayItem(address dbAddress, uint[] ids, string key, string countKey, string keysKey, uint val) internal {\n    if (ids.length == 0) {\n      return;\n    }\n    for (uint i = 0; i < ids.length; i++) {\n      addRemovableIdItem(dbAddress, ids[i], key, countKey, keysKey, val);\n    }\n  }\n\n  function addRemovableIdArrayItem(address dbAddress, uint[] ids, string key, string countKey, string keysKey, address val) internal {\n    if (ids.length == 0) {\n      return;\n    }\n\n    for (uint i = 0; i < ids.length; i++) {\n      addRemovableIdItem(dbAddress, ids[i], key, countKey, keysKey, val);\n    }\n  }\n\n  function getRemovableIdArrayItems(address dbAddress, address id, string key, string countKey, string keysKey)\n    internal view returns (uint[] result)\n  {\n    var count = getIdArrayItemsCount(dbAddress, id, countKey);\n    result = new uint[](count);\n    uint j = 0;\n    for (uint i = 0; i < count; i++) {\n      var itemId = DB(dbAddress).getUIntValue(keccak256(keysKey, id, i));\n      if (DB(dbAddress).getUInt8Value(keccak256(key, id, itemId)) == 1) { // 1 == active\n        result[j] = itemId;\n        j++;\n      }\n    }\n\n    return take(j, result);\n  }\n\n  function getRemovableIdArrayAddressItems(address dbAddress, address id, string key, string countKey, string keysKey)\n    internal view returns (address[] result)\n  {\n    var count = getIdArrayItemsCount(dbAddress, id, countKey);\n    result = new address[](count);\n    uint j = 0;\n    for (uint i = 0; i < count; i++) {\n      var itemId = DB(dbAddress).getAddressValue(keccak256(keysKey, id, i));\n      if (DB(dbAddress).getUInt8Value(keccak256(key, id, itemId)) == 1) { // 1 == active\n        result[j] = itemId;\n        j++;\n      }\n    }\n\n    return take(j, result);\n  }\n\n  function removeIdItem(address dbAddress, address id, string key, uint val) internal {\n    DB(dbAddress).setUInt8Value(keccak256(key, id, val), 2); // 2 == blocked\n  }\n\n  function removeIdItem(address dbAddress, address id, string key, address val) internal {\n    DB(dbAddress).setUInt8Value(keccak256(key, id, val), 2); // 2 == blocked\n  }\n\n  function removeIdArrayItem(address dbAddress, address[] ids, string key, uint val) internal {\n    if (ids.length == 0) {\n      return;\n    }\n\n    for (uint i = 0; i < ids.length; i++) {\n      DB(dbAddress).setUInt8Value(keccak256(key, ids[i], val), 2); // 2 == blocked\n    }\n  }\n\n  function removeIdArrayItem(address dbAddress, address[] ids, string key, address val) internal {\n    if (ids.length == 0) {\n      return;\n    }\n\n    for (uint i = 0; i < ids.length; i++) {\n      DB(dbAddress).setUInt8Value(keccak256(key, ids[i], val), 2); // 2 == blocked\n    }\n  }\n\n  function getRemovableIdArrayItems(address dbAddress, uint id, string key, string countKey, string keysKey)\n    internal view returns (uint[] result)\n  {\n    var count = getIdArrayItemsCount(dbAddress, id, countKey);\n    result = new uint[](count);\n    uint j = 0;\n    for (uint i = 0; i < count; i++) {\n      var itemId = DB(dbAddress).getUIntValue(keccak256(keysKey, id, i));\n      if (DB(dbAddress).getUInt8Value(keccak256(key, id, itemId)) == 1) { // 1 == active\n        result[j] = itemId;\n        j++;\n      }\n    }\n\n    return take(j, result);\n  }\n\n  function getRemovableIdArrayAddressItems(address dbAddress, uint id, string key, string countKey, string keysKey)\n    internal view returns (address[] result)\n  {\n    var count = getIdArrayItemsCount(dbAddress, id, countKey);\n    result = new address[](count);\n    uint j = 0;\n    for (uint i = 0; i < count; i++) {\n      var itemId = DB(dbAddress).getAddressValue(keccak256(keysKey, id, i));\n      if (DB(dbAddress).getUInt8Value(keccak256(key, id, itemId)) == 1) { // 1 == active\n        result[j] = itemId;\n        j++;\n      }\n    }\n\n    return take(j, result);\n  }\n\n  function removeIdItem(address dbAddress, uint id, string key, uint val) internal {\n    DB(dbAddress).setUInt8Value(keccak256(key, id, val), 2); // 2 == blocked\n  }\n\n  function removeIdItem(address dbAddress, uint id, string key, address val) internal {\n    DB(dbAddress).setUInt8Value(keccak256(key, id, val), 2); // 2 == blocked\n  }\n\n  function removeIdArrayItem(address dbAddress, uint[] ids, string key, uint val) internal {\n    if (ids.length == 0) {\n      return;\n    }\n\n    for (uint i = 0; i < ids.length; i++) {\n      DB(dbAddress).setUInt8Value(keccak256(key, ids[i], val), 2); // 2 == blocked\n    }\n  }\n\n  function removeIdArrayItem(address dbAddress, uint[] ids, string key, address val) internal {\n    if (ids.length == 0) {\n      return;\n    }\n\n    for (uint i = 0; i < ids.length; i++) {\n      DB(dbAddress).setUInt8Value(keccak256(key, ids[i], val), 2); // 2 == blocked\n    }\n  }\n\n  function getPage(uint[] array, uint offset, uint limit, bool cycle) internal pure returns (uint[] result) {\n    uint j = 0;\n    uint length = array.length;\n    if (offset >= length || limit == 0) {\n      return result;\n    }\n\n    result = new uint[](limit);\n    for (uint i = offset; i < (offset + limit); i++) {\n      if (length == i) {\n        break;\n      }\n\n      result[j] = array[i];\n      j++;\n    }\n\n    if (cycle && j < limit) {\n      var k = limit - j;\n      for (i = 0; i <= k; i++) {\n        if (limit == j) {\n          break;\n        }\n\n        result[j] = array[i];\n        j++;\n      }\n    }\n\n    return take(j, result);\n  }\n\n  function getPage(address[] array, uint offset, uint limit, bool cycle) internal pure returns (address[] result) {\n    uint j = 0;\n    uint length = array.length;\n    if (offset >= length || limit == 0) {\n      return result;\n    }\n\n    result = new address[](limit);\n    for (uint i = offset; i < (offset + limit); i++) {\n      if (length == i) {\n        break;\n      }\n\n      result[j] = array[i];\n      j++;\n    }\n\n    if (cycle && j < limit) {\n      var k = limit - j;\n      for (i = 0; i <= k; i++) {\n        if (limit == j) {\n          break;\n        }\n\n        result[j] = array[i];\n        j++;\n      }\n    }\n\n    return take(j, result);\n  }\n\n  function getPage(bytes32[] array, uint offset, uint limit, bool cycle) internal pure returns (bytes32[] result) {\n    uint j = 0;\n    uint length = array.length;\n    if (offset >= length || limit == 0) {\n      return result;\n    }\n\n    result = new bytes32[](limit);\n    for (uint i = offset; i < (offset + limit); i++) {\n      if (length == i) {\n        break;\n      }\n\n      result[j] = array[i];\n      j++;\n    }\n\n    if (cycle && j < limit) {\n      var k = limit - j;\n      for (i = 0; i <= k; i++) {\n        if (limit == j) {\n          break;\n        }\n\n        result[j] = array[i];\n        j++;\n      }\n    }\n\n    return take(j, result);\n  }\n\n  /* Assumes a and b are sorted */\n  function intersect(uint[] a, uint[] b) internal pure returns(uint[] c) {\n    uint aLen = a.length;\n    uint bLen = b.length;\n    if (aLen == 0 || bLen == 0) {\n      return c;\n    }\n    c = new uint[](aLen);\n    uint i = 0;\n    uint j = 0;\n    uint k = 0;\n    while (i < aLen && j < bLen) {\n      if (a[i] > b[j]) {\n        j++;\n      } else if (a[i] < b[j]) {\n        i++;\n      } else {\n        c[k] = a[i];\n        i++;\n        j++;\n        k++;\n      }\n    }\n\n    return take(k, c);\n  }\n\n  /* Assumes a and b are sorted */\n  function intersect(address[] a, address[] b) internal pure returns(address[] c) {\n    uint aLen = a.length;\n    uint bLen = b.length;\n    if (aLen == 0 || bLen == 0) {\n      return c;\n    }\n    c = new address[](aLen);\n    uint i = 0;\n    uint j = 0;\n    uint k = 0;\n    while (i < aLen && j < bLen) {\n      if (a[i] > b[j]) {\n        j++;\n      } else if (a[i] < b[j]) {\n        i++;\n      } else {\n        c[k] = a[i];\n        i++;\n        j++;\n        k++;\n      }\n    }\n\n    return take(k, c);\n  }\n\n  /* Assumes a and b are sorted */\n  function union(uint[] a, uint[] b) internal pure returns(uint[] c) {\n    uint aLen = a.length;\n    uint bLen = b.length;\n    c = new uint[](aLen + bLen);\n    uint i = 0;\n    uint j = 0;\n    uint k = 0;\n    while (i < aLen && j < bLen) {\n      if (a[i] < b[j]) {\n        c[k] = a[i];\n        i++;\n      } else if (b[j] < a[i]) {\n        c[k] = b[j];\n        j++;\n      } else {\n        c[k] = a[i];\n        i++;\n        j++;\n      }\n\n      k++;\n    }\n\n    while (i < aLen) {\n      c[k] = a[i];\n      i++;\n      k++;\n    }\n\n    while (j < bLen) {\n      c[k] = b[j];\n      j++;\n      k++;\n    }\n\n    return take(k, c);\n  }\n\n  /* Assumes a and b are sorted */\n  function union(address[] a, address[] b) internal pure returns(address[] c) {\n    uint aLen = a.length;\n    uint bLen = b.length;\n    c = new address[](aLen + bLen);\n    uint i = 0;\n    uint j = 0;\n    uint k = 0;\n    while (i < aLen && j < bLen) {\n      if (a[i] < b[j]) {\n        c[k] = a[i];\n        i++;\n      } else if (b[j] < a[i]) {\n        c[k] = b[j];\n        j++;\n      } else {\n        c[k] = a[i];\n        i++;\n        j++;\n      }\n\n      k++;\n    }\n\n    while (i < aLen) {\n      c[k] = a[i];\n      i++;\n      k++;\n    }\n\n    while (j < bLen) {\n      c[k] = b[j];\n      j++;\n      k++;\n    }\n\n    return take(k, c);\n  }\n\n  function diff(uint[] _old, uint[] _new) internal pure returns(uint[] added, uint[] removed) {\n    if (_old.length == 0 && _new.length == 0) {\n      return (added, removed);\n    }\n\n    var maxCount = _old.length + _new.length;\n    added = new uint[](maxCount);\n    removed = new uint[](maxCount);\n\n    _old = sort(_old);\n    _new = sort(_new);\n    uint ol_i = 0;\n    uint ne_i = 0;\n    uint ad_i = 0;\n    uint re_i = 0;\n    while (ol_i < _old.length && ne_i < _new.length) {\n      if (_old[ol_i] > _new[ne_i]) {\n        added[ad_i] = _new[ne_i];\n        ne_i++;\n        ad_i++;\n      } else if (_old[ol_i] < _new[ne_i]) {\n        removed[re_i] = _old[ol_i];\n        ol_i++;\n        re_i++;\n      } else {\n        ol_i++;\n        ne_i++;\n      }\n    }\n\n    if (_old.length > ol_i) {\n      while (ol_i < _old.length) {\n        removed[re_i] = _old[ol_i];\n        ol_i++;\n        re_i++;\n      }\n    }\n\n    if (_new.length > ne_i) {\n      while (ne_i < _new.length) {\n        added[ad_i] = _new[ne_i];\n        ne_i++;\n        ad_i++;\n      }\n    }\n\n    return (take(ad_i, added), take(re_i, removed));\n  }\n\n  function sort(uint[] array) internal pure returns (uint[]) {\n    for (uint i = 1; i < array.length; i++) {\n      var t = array[i];\n      var j = i;\n      while(j > 0 && array[j - 1] > t) {\n        array[j] = array[j - 1];\n        j--;\n      }\n\n      array[j] = t;\n    }\n\n    return array;\n  }\n\n  function sort(address[] array) internal pure returns (address[]) {\n    for (uint i = 1; i < array.length; i++) {\n      var t = array[i];\n      var j = i;\n      while(j > 0 && array[j - 1] > t) {\n        array[j] = array[j - 1];\n        j--;\n      }\n\n      array[j] = t;\n    }\n\n    return array;\n  }\n\n  function sortDescBy(uint[] array, uint[] compareArray) internal pure returns (uint[]) {\n    for (uint i = 1; i < array.length; i++) {\n      var t = array[i];\n      var t2 = compareArray[i];\n      var j = i;\n      while(j > 0 && compareArray[j - 1] < t2) {\n        array[j] = array[j - 1];\n        compareArray[j] = compareArray[j - 1];\n        j--;\n      }\n\n      array[j] = t;\n      compareArray[j] = t2;\n    }\n\n    return array;\n  }\n\n  function take(uint n, uint8[] array) internal pure returns(uint8[] result) {\n    if (n > array.length) {\n      return array;\n    }\n\n    result = new uint8[](n);\n    for (uint i = 0; i < n ; i++) {\n      result[i] = array[i];\n    }\n\n    return result;\n  }\n\n  function take(uint n, uint[] array) internal pure returns(uint[] result) {\n    if (n > array.length) {\n      return array;\n    }\n\n    result = new uint[](n);\n    for (uint i = 0; i < n ; i++) {\n      result[i] = array[i];\n    }\n\n    return result;\n  }\n\n  function take(uint n, bytes32[] array) internal pure returns(bytes32[] result) {\n    if (n > array.length) {\n      return array;\n    }\n\n    result = new bytes32[](n);\n    for (uint i = 0; i < n ; i++) {\n      result[i] = array[i];\n    }\n\n    return result;\n  }\n\n  function take(uint n, address[] array) internal pure returns(address[] result) {\n    if (n > array.length) {\n      return array;\n    }\n\n    result = new address[](n);\n    for (uint i = 0; i < n ; i++) {\n      result[i] = array[i];\n    }\n\n    return result;\n  }\n\n  function findTopNValues(uint[] values, uint n) internal pure returns(uint[]) {\n    uint length = values.length;\n\n    for (uint i = 0; i <= n; i++) {\n      uint maxPos = i;\n      for (uint j = i + 1; j < length; j++) {\n        if (values[j] > values[maxPos]) {\n          maxPos = j;\n        }\n      }\n\n      if (maxPos != i) {\n        uint maxValue = values[maxPos];\n        values[maxPos] = values[i];\n        values[i] = maxValue;\n      }\n    }\n\n    return take(n, values);\n  }\n\n  function filter(\n    address dbAddress,\n    function (address, uint[] memory, uint) returns (bool) f,\n    uint[] memory items,\n    uint[] memory args\n  )\n    internal view returns (uint[] memory r)\n  {\n    uint j = 0;\n    r = new uint[](items.length);\n    for (uint i = 0; i < items.length; i++) {\n      if (f(dbAddress, args, items[i])) {\n        r[j] = items[i];\n        j++;\n      }\n    }\n\n    return take(j, r);\n  }\n\n  function filter(\n    address dbAddress,\n    function (address, address[] memory, uint) returns (bool) f,\n    uint[] memory items,\n    address[] memory args\n  )\n    internal view returns (uint[] memory r)\n  {\n    uint j = 0;\n    r = new uint[](items.length);\n    for (uint i = 0; i < items.length; i++) {\n      if (f(dbAddress, args, items[i])) {\n        r[j] = items[i];\n        j++;\n      }\n    }\n\n    return take(j, r);\n  }\n\n  function filter(\n    address dbAddress,\n    function (address, uint[] memory, uint[] memory, uint) returns (bool) f,\n    uint[] memory items,\n    uint[] memory args,\n    uint[] memory args2\n  )\n    internal view returns (uint[] memory r)\n  {\n    uint j = 0;\n    r = new uint[](items.length);\n    for (uint i = 0; i < items.length; i++) {\n      if (f(dbAddress, args, args2, items[i])) {\n        r[j] = items[i];\n        j++;\n      }\n    }\n\n    return take(j, r);\n  }\n\n  function contains(address[] array, address val) internal pure returns(bool) {\n    for (uint i = 0; i < array.length ; i++) {\n      if (array[i] == val) {\n        return true;\n      }\n    }\n\n    return false;\n  }\n\n  function contains(uint[] array, uint val) internal pure returns(bool) {\n    for (uint i = 0; i < array.length ; i++) {\n      if (array[i] == val) {\n        return true;\n      }\n    }\n\n    return false;\n  }\n\n  function bytes32ToString(bytes32 x) internal pure returns (string) {\n    bytes memory bytesString = new bytes(32);\n    uint charCount = 0;\n    for (uint j = 0; j < 32; j++) {\n      byte char = byte(bytes32(uint(x) * 2 ** (8 * j)));\n      if (char != 0) {\n        bytesString[charCount] = char;\n        charCount++;\n      }\n    }\n\n    bytes memory bytesStringTrimmed = new bytes(charCount);\n    for (j = 0; j < charCount; j++) {\n      bytesStringTrimmed[j] = bytesString[j];\n    }\n\n    return string(bytesStringTrimmed);\n  }\n\n  function intersectBudgetAndStateBasedDentists\n  (\n    address dbAddress,\n    address[] budgetBasedDentistsIds,\n    address[] stateBasedDentistsIds\n  )\n    internal view returns (address[] result)\n  {\n    var maxCount = DB(dbAddress).getUIntValue(keccak256(\"dentists/count\"));\n    if (maxCount == 0) {\n      return result;\n    }\n\n    budgetBasedDentistsIds = sort(budgetBasedDentistsIds);\n    stateBasedDentistsIds = sort(stateBasedDentistsIds);\n\n    return intersect(budgetBasedDentistsIds, stateBasedDentistsIds);\n  }\n\n  function getSlicedArray(uint[] arrayObject, uint offset, uint limit, uint seed)\n    internal\n    pure\n    returns (uint totalSize, uint[] slicedArray)\n  {\n    totalSize = arrayObject.length;\n\n    if (arrayObject.length > 0) {\n      if (offset > arrayObject.length) {\n        return (totalSize, take(0, arrayObject));\n      } else if (offset + limit > arrayObject.length) {\n        limit = arrayObject.length - offset;\n      }\n\n      slicedArray = getPage(arrayObject, (seed + offset) % arrayObject.length, limit, true);\n    }\n  }\n\n  function getSlicedArray(address[] arrayObject, uint offset, uint limit, uint seed)\n    internal\n    pure\n    returns (uint totalSize, address[] slicedArray)\n  {\n    totalSize = arrayObject.length;\n\n    if (arrayObject.length > 0) {\n      if (offset > arrayObject.length) {\n        return (totalSize, take(0, arrayObject));\n      } else if (offset + limit > arrayObject.length) {\n        limit = arrayObject.length - offset;\n      }\n\n      slicedArray = getPage(arrayObject, (seed + offset) % arrayObject.length, limit, true);\n    }\n  }\n\n  function toAsciiString(address x) public pure returns (string) {\n    bytes memory s = new bytes(40);\n    for (uint i = 0; i < 20; i++) {\n      byte b = byte(uint8(uint(x) / (2**(8*(19 - i)))));\n      byte hi = byte(uint8(b) / 16);\n      byte lo = byte(uint8(b) - 16 * uint8(hi));\n      s[2*i] = char(hi);\n      s[2*i+1] = char(lo);\n    }\n\n    return string(s);\n  }\n\n  function char(byte b) public pure returns (byte c) {\n    if (b < 10) return byte(uint8(b) + 0x30);\n    else return byte(uint8(b) + 0x57);\n  }\n}\n",
  "sourcePath": "/Users/danielokwufulueze/dev/vue/apps/oraldatalink/contracts/lib/odll/utilities.sol",
  "compiler": {
    "name": "solc",
    "version": "0.4.18+commit.9cf6e910.Emscripten.clang"
  },
  "schemaVersion": "1.0.1",
  "updatedAt": "2017-11-27T01:21:26.457Z"
}